{
  "address": "0x115bfD32Ce238999034c744f4AcCC90a3B51D1df",
  "abi": [
    {
      "inputs": [
        {
          "internalType": "int256",
          "name": "_price",
          "type": "int256"
        }
      ],
      "stateMutability": "nonpayable",
      "type": "constructor"
    },
    {
      "inputs": [],
      "name": "decimals",
      "outputs": [
        {
          "internalType": "int256",
          "name": "",
          "type": "int256"
        }
      ],
      "stateMutability": "pure",
      "type": "function"
    },
    {
      "inputs": [],
      "name": "latestAnswer",
      "outputs": [
        {
          "internalType": "int256",
          "name": "",
          "type": "int256"
        }
      ],
      "stateMutability": "view",
      "type": "function"
    },
    {
      "inputs": [
        {
          "internalType": "int256",
          "name": "_price",
          "type": "int256"
        }
      ],
      "name": "setPrice",
      "outputs": [],
      "stateMutability": "nonpayable",
      "type": "function"
    }
  ],
  "transactionHash": "0x1683265406f44ed394a0183575d57ed0eb354667fa9c1c2641822106dd2eaf49",
  "args": [
    100000000
  ],
  "numDeployments": 1,
  "solcInputHash": "6d75ec209cf754d7808cf86f293ed917",
  "bytecode": "0x608060405234801561001057600080fd5b506040516101073803806101078339818101604052602081101561003357600080fd5b505160005560c1806100466000396000f3fe6080604052348015600f57600080fd5b5060043610603c5760003560e01c8063313ce56714604157806350d25bcd146059578063f7a3080614605f575b600080fd5b6047607b565b60408051918252519081900360200190f35b60476080565b607960048036036020811015607357600080fd5b50356086565b005b600890565b60005490565b60005556fea26469706673582212208fcd134fd6b33b3b3c511ef352fea5679abeecf6fd352d9a9e9ba18bcfe1538b64736f6c63430007060033",
  "devdoc": {
    "kind": "dev",
    "methods": {},
    "version": 1
  },
  "userdoc": {
    "kind": "user",
    "methods": {},
    "version": 1
  },
  "storageLayout": {
    "storage": [
      {
        "astId": 3,
        "contract": "contracts/test/MockChainlinkAggregator.sol:MockChainlinkAggregator",
        "label": "price",
        "offset": 0,
        "slot": "0",
        "type": "t_int256"
      }
    ],
    "types": {
      "t_int256": {
        "encoding": "inplace",
        "label": "int256",
        "numberOfBytes": "32"
      }
    }
  }
}