{
  "address": "0xC7B8940CbDad6D53F982085183eA22D5a4FE9484",
  "abi": [
    {
      "anonymous": false,
      "inputs": [
        {
          "indexed": true,
          "internalType": "address",
          "name": "previousOwner",
          "type": "address"
        },
        {
          "indexed": true,
          "internalType": "address",
          "name": "newOwner",
          "type": "address"
        }
      ],
      "name": "OwnershipTransferred",
      "type": "event"
    },
    {
      "stateMutability": "payable",
      "type": "fallback"
    },
    {
      "inputs": [],
      "name": "_WETH",
      "outputs": [
        {
          "internalType": "contract IWETH",
          "name": "",
          "type": "address"
        }
      ],
      "stateMutability": "view",
      "type": "function"
    },
    {
      "inputs": [],
      "name": "_token",
      "outputs": [
        {
          "internalType": "address",
          "name": "",
          "type": "address"
        }
      ],
      "stateMutability": "view",
      "type": "function"
    },
    {
      "inputs": [],
      "name": "_tokenWETHPair",
      "outputs": [
        {
          "internalType": "address",
          "name": "",
          "type": "address"
        }
      ],
      "stateMutability": "view",
      "type": "function"
    },
    {
      "inputs": [
        {
          "internalType": "address payable",
          "name": "to",
          "type": "address"
        }
      ],
      "name": "addLiquidityETHOnly",
      "outputs": [
        {
          "internalType": "uint256",
          "name": "liquidity",
          "type": "uint256"
        }
      ],
      "stateMutability": "payable",
      "type": "function"
    },
    {
      "inputs": [
        {
          "internalType": "uint256",
          "name": "_amount",
          "type": "uint256"
        },
        {
          "internalType": "address payable",
          "name": "to",
          "type": "address"
        }
      ],
      "name": "addLiquidityWETHOnly",
      "outputs": [
        {
          "internalType": "uint256",
          "name": "liquidity",
          "type": "uint256"
        }
      ],
      "stateMutability": "nonpayable",
      "type": "function"
    },
    {
      "inputs": [
        {
          "internalType": "uint256",
          "name": "ethAmt",
          "type": "uint256"
        }
      ],
      "name": "getLPTokenPerEthUnit",
      "outputs": [
        {
          "internalType": "uint256",
          "name": "liquidity",
          "type": "uint256"
        }
      ],
      "stateMutability": "view",
      "type": "function"
    },
    {
      "inputs": [
        {
          "internalType": "address",
          "name": "token",
          "type": "address"
        },
        {
          "internalType": "address",
          "name": "WETH",
          "type": "address"
        },
        {
          "internalType": "address",
          "name": "tokenWethPair",
          "type": "address"
        }
      ],
      "name": "initLiquidityZap",
      "outputs": [],
      "stateMutability": "nonpayable",
      "type": "function"
    },
    {
      "inputs": [],
      "name": "initialize",
      "outputs": [],
      "stateMutability": "nonpayable",
      "type": "function"
    },
    {
      "inputs": [],
      "name": "owner",
      "outputs": [
        {
          "internalType": "address",
          "name": "",
          "type": "address"
        }
      ],
      "stateMutability": "view",
      "type": "function"
    },
    {
      "inputs": [
        {
          "internalType": "uint256",
          "name": "wethAmount",
          "type": "uint256"
        }
      ],
      "name": "quote",
      "outputs": [
        {
          "internalType": "uint256",
          "name": "optimalTokenAmount",
          "type": "uint256"
        }
      ],
      "stateMutability": "view",
      "type": "function"
    },
    {
      "inputs": [
        {
          "internalType": "uint256",
          "name": "tokenAmount",
          "type": "uint256"
        }
      ],
      "name": "quoteFromToken",
      "outputs": [
        {
          "internalType": "uint256",
          "name": "optimalWETHAmount",
          "type": "uint256"
        }
      ],
      "stateMutability": "view",
      "type": "function"
    },
    {
      "inputs": [],
      "name": "renounceOwnership",
      "outputs": [],
      "stateMutability": "nonpayable",
      "type": "function"
    },
    {
      "inputs": [
        {
          "internalType": "uint256",
          "name": "tokenAmount",
          "type": "uint256"
        },
        {
          "internalType": "uint256",
          "name": "_wethAmt",
          "type": "uint256"
        },
        {
          "internalType": "address payable",
          "name": "to",
          "type": "address"
        }
      ],
      "name": "standardAdd",
      "outputs": [
        {
          "internalType": "uint256",
          "name": "liquidity",
          "type": "uint256"
        }
      ],
      "stateMutability": "nonpayable",
      "type": "function"
    },
    {
      "inputs": [
        {
          "internalType": "address",
          "name": "newOwner",
          "type": "address"
        }
      ],
      "name": "transferOwnership",
      "outputs": [],
      "stateMutability": "nonpayable",
      "type": "function"
    },
    {
      "inputs": [
        {
          "internalType": "address payable",
          "name": "_onBehalf",
          "type": "address"
        }
      ],
      "name": "zapETH",
      "outputs": [
        {
          "internalType": "uint256",
          "name": "liquidity",
          "type": "uint256"
        }
      ],
      "stateMutability": "payable",
      "type": "function"
    }
  ],
  "transactionHash": "0xf61e92962059c838926665074220c17ab0fb333bb6842bc603d6a5409f061f10",
  "args": [],
  "numDeployments": 1,
  "solcInputHash": "78995fe69be866012cdea8ea4c4842de",
  "bytecode": "0x608060405234801561001057600080fd5b50611af4806100206000396000f3fe6080604052600436106100b85760003560e01c806314b0818a146100d7578063470e96891461010857806356b15c2e14610140578063715018a6146101855780637c6ba9c11461019a5780638129fc1c146101d95780638da5cb5b146101ee578063c269742014610203578063d6b89a0314610229578063e0af361614610253578063ecd0c0c314610268578063ed1bd76c1461027d578063edabc8f6146102a7578063f2fde38b146102e0578063fd70606214610313575b6099546001600160a01b031633146100d5576100d33361033d565b505b005b3480156100e357600080fd5b506100ec6105d9565b604080516001600160a01b039092168252519081900360200190f35b61012e6004803603602081101561011e57600080fd5b50356001600160a01b03166105e8565b60408051918252519081900360200190f35b34801561014c57600080fd5b506100d56004803603606081101561016357600080fd5b506001600160a01b038135811691602081013582169160409091013516610637565b34801561019157600080fd5b506100d56106d8565b3480156101a657600080fd5b5061012e600480360360608110156101bd57600080fd5b50803590602081013590604001356001600160a01b0316610746565b3480156101e557600080fd5b506100d56107fb565b3480156101fa57600080fd5b506100ec6108a5565b61012e6004803603602081101561021957600080fd5b50356001600160a01b031661033d565b34801561023557600080fd5b5061012e6004803603602081101561024c57600080fd5b50356108b4565b34801561025f57600080fd5b506100ec610a23565b34801561027457600080fd5b506100ec610a32565b34801561028957600080fd5b5061012e600480360360208110156102a057600080fd5b5035610a41565b3480156102b357600080fd5b5061012e600480360360408110156102ca57600080fd5b50803590602001356001600160a01b0316610a5d565b3480156102ec57600080fd5b506100d56004803603602081101561030357600080fd5b50356001600160a01b0316610c91565b34801561031f57600080fd5b5061012e6004803603602081101561033657600080fd5b5035610d41565b60006001600160a01b038216610388576040805162461bcd60e51b815260206004820152601d602482015260008051602061190f833981519152604482015290519081900360640190fd5b6000610395346002610d5d565b9050600081116103d65760405162461bcd60e51b8152600401808060200182810382526025815260200180611a9a6025913960400191505060405180910390fd5b609960009054906101000a90046001600160a01b03166001600160a01b031663d0e30db0346040518263ffffffff1660e01b81526004016000604051808303818588803b15801561042657600080fd5b505af115801561043a573d6000803e3d6000fd5b505050505060008061044a610da3565b91509150600061045b848484610e89565b6099546098546040805163a9059cbb60e01b81526001600160a01b03928316600482015260248101899052905193945091169163a9059cbb916044808201926020929091908290030181600087803b1580156104b657600080fd5b505af11580156104ca573d6000803e3d6000fd5b505050506040513d60208110156104e057600080fd5b50506099546097546000918291610503916001600160a01b039081169116610f61565b6098546097549294509092506001600160a01b039081169163022c0d9f91808616911614610532576000610534565b845b6097546001600160a01b03858116911614610550576000610552565b855b604080516001600160e01b031960e086901b1681526004810193909352602483019190915230604483015260806064830152600060848301819052905160a48084019382900301818387803b1580156105aa57600080fd5b505af11580156105be573d6000803e3d6000fd5b505050506105cd83878a61103f565b98975050505050505050565b6098546001600160a01b031681565b60008034116106285760405162461bcd60e51b815260040180806020018281038252602f8152602001806119c6602f913960400191505060405180910390fd5b6106318261033d565b92915050565b609954600160a01b900460ff161561068c576040805162461bcd60e51b8152602060048201526013602482015272185b1c9958591e481a5b9a5d1a585b1a5e9959606a1b604482015290519081900360640190fd5b609780546001600160a01b039485166001600160a01b03199182161790915560998054609880549487169484169490941790935560ff60a01b199390941691161716600160a01b179055565b6106e0611271565b6001600160a01b03166106f16108a5565b6001600160a01b03161461073a576040805162461bcd60e51b81526020600482018190526024820152600080516020611978833981519152604482015290519081900360640190fd5b6107446000611275565b565b609754600090610761906001600160a01b03163330876112c7565b609954604080516323b872dd60e01b81523360048201523060248201526044810186905290516001600160a01b03909216916323b872dd916064808201926020929091908290030181600087803b1580156107bb57600080fd5b505af11580156107cf573d6000803e3d6000fd5b505050506040513d60208110156107e557600080fd5b506107f3905084848461103f565b949350505050565b600054610100900460ff16806108145750610814611327565b80610822575060005460ff16155b61085d5760405162461bcd60e51b815260040180806020018281038252602e815260200180611998602e913960400191505060405180910390fd5b600054610100900460ff16158015610888576000805460ff1961ff0019909116610100171660011790555b61089061132d565b80156108a2576000805461ff00191690555b50565b6065546001600160a01b031690565b60008060006108c1610da3565b909250905060006108dd6108d6866002610d5d565b8484610e89565b90506000609860009054906101000a90046001600160a01b03166001600160a01b03166318160ddd6040518163ffffffff1660e01b815260040160206040518083038186803b15801561092f57600080fd5b505afa158015610943573d6000803e3d6000fd5b505050506040513d602081101561095957600080fd5b505160995460975491925060009161097d916001600160a01b039081169116610f61565b5060975490915060009081906001600160a01b038085169116146109ac576109a6896002610d5d565b856109b8565b846109b88a6002610d5d565b609754919350915060009081906001600160a01b038681169116146109de5788886109e1565b87895b9092509050610a14826109f4868961137b565b816109fb57fe5b0482610a07868a61137b565b81610a0e57fe5b046113d4565b9b9a5050505050505050505050565b6099546001600160a01b031681565b6097546001600160a01b031681565b6000806000610a4e610da3565b915091506107f38483836113ea565b60006001600160a01b038216610aa8576040805162461bcd60e51b815260206004820152601d602482015260008051602061190f833981519152604482015290519081900360640190fd5b6000610ab5846002610d5d565b905060008111610af65760405162461bcd60e51b8152600401808060200182810382526025815260200180611a9a6025913960400191505060405180910390fd5b600080610b01610da3565b915091506000610b12848484610e89565b6099546098546040805163a9059cbb60e01b81526001600160a01b03928316600482015260248101899052905193945091169163a9059cbb916044808201926020929091908290030181600087803b158015610b6d57600080fd5b505af1158015610b81573d6000803e3d6000fd5b505050506040513d6020811015610b9757600080fd5b50506099546097546000918291610bba916001600160a01b039081169116610f61565b6098546097549294509092506001600160a01b039081169163022c0d9f91808616911614610be9576000610beb565b845b6097546001600160a01b03858116911614610c07576000610c09565b855b604080516001600160e01b031960e086901b1681526004810193909352602483019190915230604483015260806064830152600060848301819052905160a48084019382900301818387803b158015610c6157600080fd5b505af1158015610c75573d6000803e3d6000fd5b50505050610c8483878a61103f565b9998505050505050505050565b610c99611271565b6001600160a01b0316610caa6108a5565b6001600160a01b031614610cf3576040805162461bcd60e51b81526020600482018190526024820152600080516020611978833981519152604482015290519081900360640190fd5b6001600160a01b038116610d385760405162461bcd60e51b81526004018080602001828103825260268152602001806118c46026913960400191505060405180910390fd5b6108a281611275565b6000806000610d4e610da3565b915091506107f38482846113ea565b6000610d9c83836040518060400160405280601a815260200179536166654d6174683a206469766973696f6e206279207a65726f60301b815250611490565b9392505050565b60995460975460009182918291610dc6916001600160a01b039182169116610f61565b509050600080609860009054906101000a90046001600160a01b03166001600160a01b0316630902f1ac6040518163ffffffff1660e01b815260040160606040518083038186803b158015610e1a57600080fd5b505afa158015610e2e573d6000803e3d6000fd5b505050506040513d6060811015610e4457600080fd5b5080516020909101516097546001600160701b039283169450911691506001600160a01b03848116911614610e7a578181610e7d565b80825b90969095509350505050565b6000808411610ec95760405162461bcd60e51b815260040180806020018281038252602b815260200180611a6f602b913960400191505060405180910390fd5b600083118015610ed95750600082115b610f145760405162461bcd60e51b815260040180806020018281038252602881526020018061192f6028913960400191505060405180910390fd5b6000610f22856103e561137b565b90506000610f30828561137b565b90506000610f4a83610f44886103e861137b565b90611532565b9050808281610f5557fe5b04979650505050505050565b600080826001600160a01b0316846001600160a01b03161415610fb55760405162461bcd60e51b81526004018080602001828103825260258152602001806118ea6025913960400191505060405180910390fd5b826001600160a01b0316846001600160a01b031610610fd5578284610fd8565b83835b90925090506001600160a01b038216611038576040805162461bcd60e51b815260206004820152601e60248201527f556e697377617056324c6962726172793a205a45524f5f414444524553530000604482015290519081900360640190fd5b9250929050565b600080600061104c610da3565b91509150600061105d8684846113ea565b905060008782111561107e576110748884866113ea565b9050879150611081565b50855b6099546098546040805163a9059cbb60e01b81526001600160a01b039283166004820152602481018590529051919092169163a9059cbb9160448083019260209291908290030181600087803b1580156110da57600080fd5b505af11580156110ee573d6000803e3d6000fd5b505050506040513d602081101561110457600080fd5b505161110c57fe5b609854609754611129916001600160a01b0391821691168461158a565b609854604080516335313c2160e11b81526001600160a01b03898116600483015291519190921691636a6278429160248083019260209291908290030181600087803b15801561117857600080fd5b505af115801561118c573d6000803e3d6000fd5b505050506040513d60208110156111a257600080fd5b50519450818811156111cf576111cf866111bc8a856115e1565b6097546001600160a01b0316919061158a565b80871115611266576099546001600160a01b031663a9059cbb876111f38a856115e1565b6040518363ffffffff1660e01b815260040180836001600160a01b0316815260200182815260200192505050602060405180830381600087803b15801561123957600080fd5b505af115801561124d573d6000803e3d6000fd5b505050506040513d602081101561126357600080fd5b50505b505050509392505050565b3390565b606580546001600160a01b038381166001600160a01b0319831681179093556040519116919082907f8be0079c531659141344cd1fd0a4f28419497f9722a3daafe3b4186f6b6457e090600090a35050565b604080516001600160a01b0380861660248301528416604482015260648082018490528251808303909101815260849091019091526020810180516001600160e01b03166323b872dd60e01b179052611321908590611623565b50505050565b303b1590565b600054610100900460ff166113735760405162461bcd60e51b815260040180806020018281038252602b815260200180611a1a602b913960400191505060405180910390fd5b6107446117da565b60008261138a57506000610631565b8282028284828161139757fe5b0414610d9c5760405162461bcd60e51b81526004018080602001828103825260218152602001806119576021913960400191505060405180910390fd5b60008183106113e35781610d9c565b5090919050565b600080841161142a5760405162461bcd60e51b81526004018080602001828103825260258152602001806119f56025913960400191505060405180910390fd5b60008311801561143a5750600082115b6114755760405162461bcd60e51b815260040180806020018281038252602881526020018061192f6028913960400191505060405180910390fd5b82611480858461137b565b8161148757fe5b04949350505050565b6000818361151c5760405162461bcd60e51b81526004018080602001828103825283818151815260200191508051906020019080838360005b838110156114e15781810151838201526020016114c9565b50505050905090810190601f16801561150e5780820380516001836020036101000a031916815260200191505b509250505060405180910390fd5b50600083858161152857fe5b0495945050505050565b600082820183811015610d9c576040805162461bcd60e51b815260206004820152601b60248201527a536166654d6174683a206164646974696f6e206f766572666c6f7760281b604482015290519081900360640190fd5b604080516001600160a01b038416602482015260448082018490528251808303909101815260649091019091526020810180516001600160e01b031663a9059cbb60e01b1790526115dc908490611623565b505050565b6000610d9c83836040518060400160405280601e81526020017f536166654d6174683a207375627472616374696f6e206f766572666c6f770000815250611830565b611635826001600160a01b031661188a565b611686576040805162461bcd60e51b815260206004820152601f60248201527f5361666545524332303a2063616c6c20746f206e6f6e2d636f6e747261637400604482015290519081900360640190fd5b600080836001600160a01b0316836040518082805190602001908083835b602083106116c35780518252601f1990920191602091820191016116a4565b6001836020036101000a0380198251168184511680821785525050505050509050019150506000604051808303816000865af19150503d8060008114611725576040519150601f19603f3d011682016040523d82523d6000602084013e61172a565b606091505b509150915081611781576040805162461bcd60e51b815260206004820181905260248201527f5361666545524332303a206c6f772d6c6576656c2063616c6c206661696c6564604482015290519081900360640190fd5b8051156113215780806020019051602081101561179d57600080fd5b50516113215760405162461bcd60e51b815260040180806020018281038252602a815260200180611a45602a913960400191505060405180910390fd5b600054610100900460ff166118205760405162461bcd60e51b815260040180806020018281038252602b815260200180611a1a602b913960400191505060405180910390fd5b61074461182b611271565b611275565b600081848411156118825760405162461bcd60e51b81526020600482018181528351602484015283519092839260449091019190850190808383600083156114e15781810151838201526020016114c9565b505050900390565b6000813f7fc5d2460186f7233c927e7db2dcc703c0e500b653ca82273b7bfad8045d85a4708181148015906107f357505015159291505056fe4f776e61626c653a206e6577206f776e657220697320746865207a65726f2061646472657373556e697377617056324c6962726172793a204944454e544943414c5f4144445245535345534c69717569646974795a41503a20496e76616c69642061646472657373000000556e697377617056324c6962726172793a20494e53554646494349454e545f4c4951554944495459536166654d6174683a206d756c7469706c69636174696f6e206f766572666c6f774f776e61626c653a2063616c6c6572206973206e6f7420746865206f776e6572436f6e747261637420696e7374616e63652068617320616c7265616479206265656e20696e697469616c697a65644c69717569646974795a41503a2045544820616d6f756e74206d7573742062652067726561746572207468616e2030556e697377617056324c6962726172793a20494e53554646494349454e545f414d4f554e54496e697469616c697a61626c653a20636f6e7472616374206973206e6f7420696e697469616c697a696e675361666545524332303a204552433230206f7065726174696f6e20646964206e6f742073756363656564556e697377617056324c6962726172793a20494e53554646494349454e545f494e5055545f414d4f554e544c69717569646974795a41503a20496e73756666696369656e742045544820616d6f756e74a2646970667358221220a4dea41b91ee8a13272c7cf05c38ccc7ca69a64f9966a9a81f7b6e58a225def964736f6c63430007060033",
  "devdoc": {
    "kind": "dev",
    "methods": {},
    "version": 1
  },
  "userdoc": {
    "kind": "user",
    "methods": {},
    "version": 1
  },
  "storageLayout": {
    "storage": [
      {
        "astId": 6361,
        "contract": "contracts/zap/helpers/LiquidityZap.sol:LiquidityZap",
        "label": "initialized",
        "offset": 0,
        "slot": "0",
        "type": "t_bool"
      },
      {
        "astId": 6364,
        "contract": "contracts/zap/helpers/LiquidityZap.sol:LiquidityZap",
        "label": "initializing",
        "offset": 1,
        "slot": "0",
        "type": "t_bool"
      },
      {
        "astId": 6431,
        "contract": "contracts/zap/helpers/LiquidityZap.sol:LiquidityZap",
        "label": "______gap",
        "offset": 0,
        "slot": "1",
        "type": "t_array(t_uint256)50_storage"
      },
      {
        "astId": 6354,
        "contract": "contracts/zap/helpers/LiquidityZap.sol:LiquidityZap",
        "label": "__gap",
        "offset": 0,
        "slot": "51",
        "type": "t_array(t_uint256)50_storage"
      },
      {
        "astId": 6576,
        "contract": "contracts/zap/helpers/LiquidityZap.sol:LiquidityZap",
        "label": "_owner",
        "offset": 0,
        "slot": "101",
        "type": "t_address"
      },
      {
        "astId": 6681,
        "contract": "contracts/zap/helpers/LiquidityZap.sol:LiquidityZap",
        "label": "__gap",
        "offset": 0,
        "slot": "102",
        "type": "t_array(t_uint256)49_storage"
      },
      {
        "astId": 50805,
        "contract": "contracts/zap/helpers/LiquidityZap.sol:LiquidityZap",
        "label": "_token",
        "offset": 0,
        "slot": "151",
        "type": "t_address"
      },
      {
        "astId": 50807,
        "contract": "contracts/zap/helpers/LiquidityZap.sol:LiquidityZap",
        "label": "_tokenWETHPair",
        "offset": 0,
        "slot": "152",
        "type": "t_address"
      },
      {
        "astId": 50809,
        "contract": "contracts/zap/helpers/LiquidityZap.sol:LiquidityZap",
        "label": "_WETH",
        "offset": 0,
        "slot": "153",
        "type": "t_contract(IWETH)19766"
      },
      {
        "astId": 50811,
        "contract": "contracts/zap/helpers/LiquidityZap.sol:LiquidityZap",
        "label": "initialized",
        "offset": 20,
        "slot": "153",
        "type": "t_bool"
      }
    ],
    "types": {
      "t_address": {
        "encoding": "inplace",
        "label": "address",
        "numberOfBytes": "20"
      },
      "t_array(t_uint256)49_storage": {
        "base": "t_uint256",
        "encoding": "inplace",
        "label": "uint256[49]",
        "numberOfBytes": "1568"
      },
      "t_array(t_uint256)50_storage": {
        "base": "t_uint256",
        "encoding": "inplace",
        "label": "uint256[50]",
        "numberOfBytes": "1600"
      },
      "t_bool": {
        "encoding": "inplace",
        "label": "bool",
        "numberOfBytes": "1"
      },
      "t_contract(IWETH)19766": {
        "encoding": "inplace",
        "label": "contract IWETH",
        "numberOfBytes": "20"
      },
      "t_uint256": {
        "encoding": "inplace",
        "label": "uint256",
        "numberOfBytes": "32"
      }
    }
  }
}