{
  "address": "0x3c163A1a6bb7857F89A116287A3bC0F705D4fea5",
  "abi": [
    {
      "anonymous": false,
      "inputs": [
        {
          "indexed": true,
          "internalType": "address",
          "name": "previousOwner",
          "type": "address"
        },
        {
          "indexed": true,
          "internalType": "address",
          "name": "newOwner",
          "type": "address"
        }
      ],
      "name": "OwnershipTransferred",
      "type": "event"
    },
    {
      "anonymous": false,
      "inputs": [
        {
          "indexed": false,
          "internalType": "address[]",
          "name": "_tokens",
          "type": "address[]"
        }
      ],
      "name": "RewardBaseTokensUpdated",
      "type": "event"
    },
    {
      "anonymous": false,
      "inputs": [
        {
          "indexed": false,
          "internalType": "address",
          "name": "_token",
          "type": "address"
        },
        {
          "indexed": false,
          "internalType": "address[]",
          "name": "_routes",
          "type": "address[]"
        }
      ],
      "name": "RoutesUpdated",
      "type": "event"
    },
    {
      "inputs": [
        {
          "internalType": "address[]",
          "name": "_tokens",
          "type": "address[]"
        }
      ],
      "name": "addRewardBaseTokens",
      "outputs": [],
      "stateMutability": "nonpayable",
      "type": "function"
    },
    {
      "inputs": [],
      "name": "addressProvider",
      "outputs": [
        {
          "internalType": "address",
          "name": "",
          "type": "address"
        }
      ],
      "stateMutability": "view",
      "type": "function"
    },
    {
      "inputs": [],
      "name": "baseToken",
      "outputs": [
        {
          "internalType": "address",
          "name": "",
          "type": "address"
        }
      ],
      "stateMutability": "view",
      "type": "function"
    },
    {
      "inputs": [
        {
          "components": [
            {
              "internalType": "address",
              "name": "token",
              "type": "address"
            },
            {
              "internalType": "uint256",
              "name": "amount",
              "type": "uint256"
            }
          ],
          "internalType": "struct IFeeDistribution.RewardData[]",
          "name": "pendingRewards",
          "type": "tuple[]"
        },
        {
          "components": [
            {
              "internalType": "uint256",
              "name": "amount",
              "type": "uint256"
            },
            {
              "internalType": "uint256",
              "name": "unlockTime",
              "type": "uint256"
            },
            {
              "internalType": "uint256",
              "name": "multiplier",
              "type": "uint256"
            },
            {
              "internalType": "uint256",
              "name": "duration",
              "type": "uint256"
            }
          ],
          "internalType": "struct LockedBalance[]",
          "name": "locks",
          "type": "tuple[]"
        },
        {
          "internalType": "uint256",
          "name": "lastClaimTime",
          "type": "uint256"
        }
      ],
      "name": "getIneligibleRewards",
      "outputs": [
        {
          "components": [
            {
              "internalType": "address",
              "name": "token",
              "type": "address"
            },
            {
              "internalType": "uint256",
              "name": "amount",
              "type": "uint256"
            }
          ],
          "internalType": "struct IFeeDistribution.RewardData[]",
          "name": "bounties",
          "type": "tuple[]"
        }
      ],
      "stateMutability": "view",
      "type": "function"
    },
    {
      "inputs": [],
      "name": "getLendingPool",
      "outputs": [
        {
          "internalType": "address",
          "name": "",
          "type": "address"
        }
      ],
      "stateMutability": "view",
      "type": "function"
    },
    {
      "inputs": [
        {
          "internalType": "address",
          "name": "token",
          "type": "address"
        }
      ],
      "name": "getRewardToBaseRoute",
      "outputs": [
        {
          "internalType": "address[]",
          "name": "",
          "type": "address[]"
        }
      ],
      "stateMutability": "view",
      "type": "function"
    },
    {
      "inputs": [],
      "name": "getRouteToRdnt",
      "outputs": [
        {
          "internalType": "address[]",
          "name": "routeToRdnt",
          "type": "address[]"
        }
      ],
      "stateMutability": "view",
      "type": "function"
    },
    {
      "inputs": [
        {
          "internalType": "address",
          "name": "token",
          "type": "address"
        }
      ],
      "name": "getUnderlying",
      "outputs": [
        {
          "internalType": "address",
          "name": "underlying",
          "type": "address"
        }
      ],
      "stateMutability": "view",
      "type": "function"
    },
    {
      "inputs": [
        {
          "internalType": "address",
          "name": "_baseToken",
          "type": "address"
        },
        {
          "internalType": "address",
          "name": "_rdnt",
          "type": "address"
        },
        {
          "internalType": "address",
          "name": "_addressProvider",
          "type": "address"
        }
      ],
      "name": "initialize",
      "outputs": [],
      "stateMutability": "nonpayable",
      "type": "function"
    },
    {
      "inputs": [],
      "name": "mfd",
      "outputs": [
        {
          "internalType": "address",
          "name": "",
          "type": "address"
        }
      ],
      "stateMutability": "view",
      "type": "function"
    },
    {
      "inputs": [],
      "name": "owner",
      "outputs": [
        {
          "internalType": "address",
          "name": "",
          "type": "address"
        }
      ],
      "stateMutability": "view",
      "type": "function"
    },
    {
      "inputs": [],
      "name": "quoteSelfCompound",
      "outputs": [
        {
          "internalType": "uint256",
          "name": "tokensOut",
          "type": "uint256"
        }
      ],
      "stateMutability": "view",
      "type": "function"
    },
    {
      "inputs": [],
      "name": "rdnt",
      "outputs": [
        {
          "internalType": "address",
          "name": "",
          "type": "address"
        }
      ],
      "stateMutability": "view",
      "type": "function"
    },
    {
      "inputs": [],
      "name": "renounceOwnership",
      "outputs": [],
      "stateMutability": "nonpayable",
      "type": "function"
    },
    {
      "inputs": [
        {
          "internalType": "uint256",
          "name": "",
          "type": "uint256"
        }
      ],
      "name": "rewardBaseTokens",
      "outputs": [
        {
          "internalType": "address",
          "name": "",
          "type": "address"
        }
      ],
      "stateMutability": "view",
      "type": "function"
    },
    {
      "inputs": [
        {
          "internalType": "address",
          "name": "",
          "type": "address"
        },
        {
          "internalType": "uint256",
          "name": "",
          "type": "uint256"
        }
      ],
      "name": "rewardToBaseRoute",
      "outputs": [
        {
          "internalType": "address",
          "name": "",
          "type": "address"
        }
      ],
      "stateMutability": "view",
      "type": "function"
    },
    {
      "inputs": [
        {
          "internalType": "address",
          "name": "_mfd",
          "type": "address"
        }
      ],
      "name": "setMFD",
      "outputs": [],
      "stateMutability": "nonpayable",
      "type": "function"
    },
    {
      "inputs": [
        {
          "internalType": "address",
          "name": "_token",
          "type": "address"
        },
        {
          "internalType": "address[]",
          "name": "_routes",
          "type": "address[]"
        }
      ],
      "name": "setRoutes",
      "outputs": [],
      "stateMutability": "nonpayable",
      "type": "function"
    },
    {
      "inputs": [
        {
          "internalType": "address",
          "name": "newOwner",
          "type": "address"
        }
      ],
      "name": "transferOwnership",
      "outputs": [],
      "stateMutability": "nonpayable",
      "type": "function"
    }
  ],
  "transactionHash": "0x21e1e49b41f29d64bc4e98576312523228137ccb7b04b70fc0815a23b3776fc7",
  "args": [],
  "numDeployments": 1,
  "solcInputHash": "78995fe69be866012cdea8ea4c4842de",
  "bytecode": "0x608060405234801561001057600080fd5b5061158e806100206000396000f3fe608060405234801561001057600080fd5b50600436106100f15760003560e01c80630261bf8b146100f65780632954018c146101145780633d7175441461011c5780634e89a7111461013157806358b53dac146101445780635d0f5396146101645780636eec47ce1461016c578063715018a61461017f578063808d7627146101875780638da5cb5b1461019c578063b0c634ee146101a4578063b19f2dbc146101ac578063c0c53b8b146101bf578063c1c3eae1146101d2578063c55dae63146101da578063d010548e146101e2578063d3cb96fa14610202578063f2fde38b14610215578063fb14cbd414610228575b600080fd5b6100fe61023b565b60405161010b9190611397565b60405180910390f35b6100fe6102bd565b61012f61012a36600461113d565b6102cc565b005b6100fe61013f3660046110bb565b610395565b6101576101523660046110bb565b61040e565b60405161010b91906113cf565b6100fe610484565b6100fe61017a3660046112eb565b610493565b61012f6104bd565b61018f61052b565b60405161010b919061143a565b6100fe6105ee565b6100fe6105fd565b61012f6101ba3660046111b5565b61060c565b61012f6101cd3660046110f3565b6106bc565b6101576107a6565b6100fe61082e565b6101f56101f03660046111ef565b61083d565b60405161010b91906113e2565b6100fe61021036600461118a565b61097c565b61012f6102233660046110bb565b6109b4565b61012f6102363660046110bb565b610a67565b609a5460408051630261bf8b60e01b815290516000926001600160a01b031691630261bf8b916004808301926020929190829003018186803b15801561028057600080fd5b505afa158015610294573d6000803e3d6000fd5b505050506040513d601f19601f820116820180604052508101906102b891906110d7565b905090565b609a546001600160a01b031681565b6102d4610aeb565b6001600160a01b03166102e56105ee565b6001600160a01b03161461032e576040805162461bcd60e51b815260206004820181905260248201526000805160206114e0833981519152604482015290519081900360640190fd5b6001600160a01b0382166000908152609760209081526040909120825161035792840190610f00565b507fbdcf5c7cd2942fc5ccabe6763e7068cae07e81eab2274cbf60f941357fc726c082826040516103899291906113ab565b60405180910390a15050565b6000816001600160a01b031663b16a19de6040518163ffffffff1660e01b815260040160206040518083038186803b1580156103d057600080fd5b505afa1580156103e4573d6000803e3d6000fd5b505050506040513d601f19601f8201168201806040525081019061040891906110d7565b92915050565b6001600160a01b03811660009081526097602090815260409182902080548351818402810184019094528084526060939283018282801561047857602002820191906000526020600020905b81546001600160a01b0316815260019091019060200180831161045a575b50505050509050919050565b6099546001600160a01b031681565b609b81815481106104a357600080fd5b6000918252602090912001546001600160a01b0316905081565b6104c5610aeb565b6001600160a01b03166104d66105ee565b6001600160a01b03161461051f576040805162461bcd60e51b815260206004820181905260248201526000805160206114e0833981519152604482015290519081900360640190fd5b6105296000610aef565b565b609c54604051600091829182916001600160a01b031690610550903390602401611397565b60408051601f198184030181529181526020820180516001600160e01b031662ff5daf60e31b17905251610584919061135e565b600060405180830381855afa9150503d80600081146105bf576040519150601f19603f3d011682016040523d82523d6000602084013e6105c4565b606091505b5091509150816105d357600080fd5b808060200190518101906105e79190611303565b9250505090565b6065546001600160a01b031690565b609c546001600160a01b031681565b610614610aeb565b6001600160a01b03166106256105ee565b6001600160a01b03161461066e576040805162461bcd60e51b815260206004820181905260248201526000805160206114e0833981519152604482015290519081900360640190fd5b805161068190609b906020840190610f00565b507fb55f0df293d67d65dc862e41c2fbfc662b213b761342ac229f5a24f3c70bfe33816040516106b191906113cf565b60405180910390a150565b600054610100900460ff16806106d557506106d5610b41565b806106e3575060005460ff16155b61071e5760405162461bcd60e51b815260040180806020018281038252602e815260200180611500602e913960400191505060405180910390fd5b600054610100900460ff16158015610749576000805460ff1961ff0019909116610100171660011790555b610751610b47565b609880546001600160a01b038087166001600160a01b03199283161790925560998054868416908316179055609a80549285169290911691909117905580156107a0576000805461ff00191690555b50505050565b6040805160028082526060808301845292602083019080368337505060985482519293506001600160a01b0316918391506000906107e057fe5b6001600160a01b03928316602091820292909201015260995482519116908290600190811061080b57fe5b60200260200101906001600160a01b031690816001600160a01b03168152505090565b6098546001600160a01b031681565b6060600061084b8484610b95565b905084516001600160401b038111801561086457600080fd5b5060405190808252806020026020018201604052801561089e57816020015b61088b610f65565b8152602001906001900390816108835790505b50915060005b85518110156109735760008682815181106108bb57fe5b602002602001015160000151905060008783815181106108d757fe5b6020026020010151602001519050818584815181106108f257fe5b60209081029190910101516001600160a01b039091169052612710841115610936578085848151811061092157fe5b60200260200101516020018181525050610969565b61094c6127106109468387610ccd565b90610d2d565b85848151811061095857fe5b602002602001015160200181815250505b50506001016108a4565b50509392505050565b6097602052816000526040600020818154811061099857600080fd5b6000918252602090912001546001600160a01b03169150829050565b6109bc610aeb565b6001600160a01b03166109cd6105ee565b6001600160a01b031614610a16576040805162461bcd60e51b815260206004820181905260248201526000805160206114e0833981519152604482015290519081900360640190fd5b6001600160a01b038116610a5b5760405162461bcd60e51b81526004018080602001828103825260268152602001806114996026913960400191505060405180910390fd5b610a6481610aef565b50565b610a6f610aeb565b6001600160a01b0316610a806105ee565b6001600160a01b031614610ac9576040805162461bcd60e51b815260206004820181905260248201526000805160206114e0833981519152604482015290519081900360640190fd5b609c80546001600160a01b0319166001600160a01b0392909216919091179055565b3390565b606580546001600160a01b038381166001600160a01b0319831681179093556040519116919082907f8be0079c531659141344cd1fd0a4f28419497f9722a3daafe3b4186f6b6457e090600090a35050565b303b1590565b600054610100900460ff16610b8d5760405162461bcd60e51b815260040180806020018281038252602b81526020018061152e602b913960400191505060405180910390fd5b610529610d6c565b60008080805b8551811015610cab57600085610bf157610bec878381518110610bba57fe5b602002602001015160600151888481518110610bd257fe5b602002602001015160200151610dc290919063ffffffff16565b610bf3565b855b9050610c21814203888481518110610c0757fe5b602002602001015160000151610ccd90919063ffffffff16565b8401935042878381518110610c3257fe5b6020026020010151602001511015610ca2576000610c70888481518110610c5557fe5b60200260200101516020015142610dc290919063ffffffff16565b9050610c9c888481518110610c8157fe5b60200260200101516000015182610ccd90919063ffffffff16565b84019350505b50600101610b9b565b508115610cc557610cc28261094683612710610ccd565b92505b505092915050565b600082610cdc57506000610408565b82820282848281610ce957fe5b0414610d265760405162461bcd60e51b81526004018080602001828103825260218152602001806114bf6021913960400191505060405180910390fd5b9392505050565b6000610d2683836040518060400160405280601a815260200179536166654d6174683a206469766973696f6e206279207a65726f60301b815250610e04565b600054610100900460ff16610db25760405162461bcd60e51b815260040180806020018281038252602b81526020018061152e602b913960400191505060405180910390fd5b610529610dbd610aeb565b610aef565b6000610d2683836040518060400160405280601e81526020017f536166654d6174683a207375627472616374696f6e206f766572666c6f770000815250610ea6565b60008183610e905760405162461bcd60e51b81526004018080602001828103825283818151815260200191508051906020019080838360005b83811015610e55578181015183820152602001610e3d565b50505050905090810190601f168015610e825780820380516001836020036101000a031916815260200191505b509250505060405180910390fd5b506000838581610e9c57fe5b0495945050505050565b60008184841115610ef85760405162461bcd60e51b8152602060048201818152835160248401528351909283926044909101919085019080838360008315610e55578181015183820152602001610e3d565b505050900390565b828054828255906000526020600020908101928215610f55579160200282015b82811115610f5557825182546001600160a01b0319166001600160a01b03909116178255602090920191600190910190610f20565b50610f61929150610f7c565b5090565b604080518082019091526000808252602082015290565b5b80821115610f615760008155600101610f7d565b600082601f830112610fa1578081fd5b81356020610fb6610fb183611466565b611443565b8281528181019085830183850287018401881015610fd2578586fd5b855b85811015610ff9578135610fe781611483565b84529284019290840190600101610fd4565b5090979650505050505050565b600082601f830112611016578081fd5b81356020611026610fb183611466565b82815281810190858301608080860288018501891015611044578687fd5b865b868110156110ad5781838b03121561105c578788fd5b604080518381016001600160401b038111828210171561107857fe5b825284358152878501358882015284820135918101919091526060808501359082015285529385019391810191600101611046565b509198975050505050505050565b6000602082840312156110cc578081fd5b8135610d2681611483565b6000602082840312156110e8578081fd5b8151610d2681611483565b600080600060608486031215611107578182fd5b833561111281611483565b9250602084013561112281611483565b9150604084013561113281611483565b809150509250925092565b6000806040838503121561114f578182fd5b823561115a81611483565b915060208301356001600160401b03811115611174578182fd5b61118085828601610f91565b9150509250929050565b6000806040838503121561119c578182fd5b82356111a781611483565b946020939093013593505050565b6000602082840312156111c6578081fd5b81356001600160401b038111156111db578182fd5b6111e784828501610f91565b949350505050565b600080600060608486031215611203578283fd5b83356001600160401b0380821115611219578485fd5b818601915086601f83011261122c578485fd5b8135602061123c610fb183611466565b828152818101908583016040808602880185018d101561125a578a8bfd5b8a97505b858810156112b45780828e031215611274578a8bfd5b8051818101818110898211171561128757fe5b8252823561129481611483565b81528286013586820152845260019790970196928401929081019061125e565b829a50848c01359750868811156112c957898afd5b6112d58d898e01611006565b9a9d9a9c509a909a013599505050505050505050565b6000602082840312156112fc578081fd5b5035919050565b600060208284031215611314578081fd5b5051919050565b6000815180845260208085019450808401835b838110156113535781516001600160a01b03168752958201959082019060010161132e565b509495945050505050565b60008251815b8181101561137e5760208186018101518583015201611364565b8181111561138c5782828501525b509190910192915050565b6001600160a01b0391909116815260200190565b6001600160a01b03831681526040602082018190526000906111e79083018461131b565b600060208252610d26602083018461131b565b602080825282518282018190526000919060409081850190868401855b8281101561142d57815180516001600160a01b031685528601518685015292840192908501906001016113ff565b5091979650505050505050565b90815260200190565b6040518181016001600160401b038111828210171561145e57fe5b604052919050565b60006001600160401b0382111561147957fe5b5060209081020190565b6001600160a01b0381168114610a6457600080fdfe4f776e61626c653a206e6577206f776e657220697320746865207a65726f2061646472657373536166654d6174683a206d756c7469706c69636174696f6e206f766572666c6f774f776e61626c653a2063616c6c6572206973206e6f7420746865206f776e6572436f6e747261637420696e7374616e63652068617320616c7265616479206265656e20696e697469616c697a6564496e697469616c697a61626c653a20636f6e7472616374206973206e6f7420696e697469616c697a696e67a264697066735822122002917a14a9763cf36b79bfb9c0bd5e0011679e2c46eebafe2537d0d83cb0de7164736f6c63430007060033",
  "devdoc": {
    "kind": "dev",
    "methods": {
      "getIneligibleRewards((address,uint256)[],(uint256,uint256,uint256,uint256)[],uint256)": {
        "details": "Reward is RDNT and rTokens"
      }
    },
    "version": 1
  },
  "userdoc": {
    "kind": "user",
    "methods": {
      "getIneligibleRewards((address,uint256)[],(uint256,uint256,uint256,uint256)[],uint256)": {
        "notice": "Bounty amount of user per each reward token"
      }
    },
    "version": 1
  },
  "storageLayout": {
    "storage": [
      {
        "astId": 6361,
        "contract": "contracts/staking/MFDHelper.sol:MFDHelper",
        "label": "initialized",
        "offset": 0,
        "slot": "0",
        "type": "t_bool"
      },
      {
        "astId": 6364,
        "contract": "contracts/staking/MFDHelper.sol:MFDHelper",
        "label": "initializing",
        "offset": 1,
        "slot": "0",
        "type": "t_bool"
      },
      {
        "astId": 6431,
        "contract": "contracts/staking/MFDHelper.sol:MFDHelper",
        "label": "______gap",
        "offset": 0,
        "slot": "1",
        "type": "t_array(t_uint256)50_storage"
      },
      {
        "astId": 6354,
        "contract": "contracts/staking/MFDHelper.sol:MFDHelper",
        "label": "__gap",
        "offset": 0,
        "slot": "51",
        "type": "t_array(t_uint256)50_storage"
      },
      {
        "astId": 6576,
        "contract": "contracts/staking/MFDHelper.sol:MFDHelper",
        "label": "_owner",
        "offset": 0,
        "slot": "101",
        "type": "t_address"
      },
      {
        "astId": 6681,
        "contract": "contracts/staking/MFDHelper.sol:MFDHelper",
        "label": "__gap",
        "offset": 0,
        "slot": "102",
        "type": "t_array(t_uint256)49_storage"
      },
      {
        "astId": 40318,
        "contract": "contracts/staking/MFDHelper.sol:MFDHelper",
        "label": "rewardToBaseRoute",
        "offset": 0,
        "slot": "151",
        "type": "t_mapping(t_address,t_array(t_address)dyn_storage)"
      },
      {
        "astId": 40320,
        "contract": "contracts/staking/MFDHelper.sol:MFDHelper",
        "label": "baseToken",
        "offset": 0,
        "slot": "152",
        "type": "t_address"
      },
      {
        "astId": 40322,
        "contract": "contracts/staking/MFDHelper.sol:MFDHelper",
        "label": "rdnt",
        "offset": 0,
        "slot": "153",
        "type": "t_address"
      },
      {
        "astId": 40324,
        "contract": "contracts/staking/MFDHelper.sol:MFDHelper",
        "label": "addressProvider",
        "offset": 0,
        "slot": "154",
        "type": "t_address"
      },
      {
        "astId": 40327,
        "contract": "contracts/staking/MFDHelper.sol:MFDHelper",
        "label": "rewardBaseTokens",
        "offset": 0,
        "slot": "155",
        "type": "t_array(t_address)dyn_storage"
      },
      {
        "astId": 40329,
        "contract": "contracts/staking/MFDHelper.sol:MFDHelper",
        "label": "mfd",
        "offset": 0,
        "slot": "156",
        "type": "t_address"
      }
    ],
    "types": {
      "t_address": {
        "encoding": "inplace",
        "label": "address",
        "numberOfBytes": "20"
      },
      "t_array(t_address)dyn_storage": {
        "base": "t_address",
        "encoding": "dynamic_array",
        "label": "address[]",
        "numberOfBytes": "32"
      },
      "t_array(t_uint256)49_storage": {
        "base": "t_uint256",
        "encoding": "inplace",
        "label": "uint256[49]",
        "numberOfBytes": "1568"
      },
      "t_array(t_uint256)50_storage": {
        "base": "t_uint256",
        "encoding": "inplace",
        "label": "uint256[50]",
        "numberOfBytes": "1600"
      },
      "t_bool": {
        "encoding": "inplace",
        "label": "bool",
        "numberOfBytes": "1"
      },
      "t_mapping(t_address,t_array(t_address)dyn_storage)": {
        "encoding": "mapping",
        "key": "t_address",
        "label": "mapping(address => address[])",
        "numberOfBytes": "32",
        "value": "t_array(t_address)dyn_storage"
      },
      "t_uint256": {
        "encoding": "inplace",
        "label": "uint256",
        "numberOfBytes": "32"
      }
    }
  }
}