{
  "address": "0xEb19429b9094198D629c99Dc561bbeB9A1195d81",
  "abi": [
    {
      "anonymous": false,
      "inputs": [
        {
          "indexed": true,
          "internalType": "address",
          "name": "asset",
          "type": "address"
        },
        {
          "indexed": false,
          "internalType": "uint256",
          "name": "usdValue",
          "type": "uint256"
        },
        {
          "indexed": false,
          "internalType": "uint256",
          "name": "lpUsdValue",
          "type": "uint256"
        }
      ],
      "name": "NewTransferAdded",
      "type": "event"
    },
    {
      "anonymous": false,
      "inputs": [
        {
          "indexed": true,
          "internalType": "address",
          "name": "previousOwner",
          "type": "address"
        },
        {
          "indexed": true,
          "internalType": "address",
          "name": "newOwner",
          "type": "address"
        }
      ],
      "name": "OwnershipTransferred",
      "type": "event"
    },
    {
      "inputs": [],
      "name": "DAY_SECONDS",
      "outputs": [
        {
          "internalType": "uint256",
          "name": "",
          "type": "uint256"
        }
      ],
      "stateMutability": "view",
      "type": "function"
    },
    {
      "inputs": [],
      "name": "DECIMALS",
      "outputs": [
        {
          "internalType": "uint8",
          "name": "",
          "type": "uint8"
        }
      ],
      "stateMutability": "view",
      "type": "function"
    },
    {
      "inputs": [],
      "name": "RATIO_DIVISOR",
      "outputs": [
        {
          "internalType": "uint256",
          "name": "",
          "type": "uint256"
        }
      ],
      "stateMutability": "view",
      "type": "function"
    },
    {
      "inputs": [
        {
          "components": [
            {
              "internalType": "address",
              "name": "asset",
              "type": "address"
            },
            {
              "internalType": "uint256",
              "name": "amount",
              "type": "uint256"
            },
            {
              "internalType": "address",
              "name": "treasury",
              "type": "address"
            }
          ],
          "internalType": "struct MFDstats.AddTransferParam",
          "name": "param",
          "type": "tuple"
        }
      ],
      "name": "addTransfer",
      "outputs": [],
      "stateMutability": "nonpayable",
      "type": "function"
    },
    {
      "inputs": [
        {
          "internalType": "address",
          "name": "_vest",
          "type": "address"
        }
      ],
      "name": "addVest",
      "outputs": [],
      "stateMutability": "nonpayable",
      "type": "function"
    },
    {
      "inputs": [
        {
          "internalType": "address",
          "name": "_chef",
          "type": "address"
        },
        {
          "internalType": "address",
          "name": "_bountyManager",
          "type": "address"
        },
        {
          "internalType": "address",
          "name": "_migration",
          "type": "address"
        }
      ],
      "name": "getCirculatingSupply",
      "outputs": [
        {
          "internalType": "uint256",
          "name": "",
          "type": "uint256"
        }
      ],
      "stateMutability": "view",
      "type": "function"
    },
    {
      "inputs": [],
      "name": "getLastDayTotal",
      "outputs": [
        {
          "components": [
            {
              "internalType": "address",
              "name": "assetAddress",
              "type": "address"
            },
            {
              "internalType": "string",
              "name": "assetSymbol",
              "type": "string"
            },
            {
              "internalType": "uint256",
              "name": "usdValue",
              "type": "uint256"
            },
            {
              "internalType": "uint256",
              "name": "lpUsdValue",
              "type": "uint256"
            }
          ],
          "internalType": "struct MFDstats.TrackPerAsset[]",
          "name": "",
          "type": "tuple[]"
        }
      ],
      "stateMutability": "view",
      "type": "function"
    },
    {
      "inputs": [
        {
          "internalType": "address",
          "name": "assetAddress",
          "type": "address"
        }
      ],
      "name": "getPriceDecimal",
      "outputs": [
        {
          "internalType": "uint8",
          "name": "",
          "type": "uint8"
        }
      ],
      "stateMutability": "view",
      "type": "function"
    },
    {
      "inputs": [],
      "name": "getTotal",
      "outputs": [
        {
          "components": [
            {
              "internalType": "address",
              "name": "assetAddress",
              "type": "address"
            },
            {
              "internalType": "string",
              "name": "assetSymbol",
              "type": "string"
            },
            {
              "internalType": "uint256",
              "name": "usdValue",
              "type": "uint256"
            },
            {
              "internalType": "uint256",
              "name": "lpUsdValue",
              "type": "uint256"
            }
          ],
          "internalType": "struct MFDstats.TrackPerAsset[]",
          "name": "",
          "type": "tuple[]"
        }
      ],
      "stateMutability": "view",
      "type": "function"
    },
    {
      "inputs": [
        {
          "internalType": "address",
          "name": "aaveOracle",
          "type": "address"
        },
        {
          "internalType": "address",
          "name": "emissionsReserve",
          "type": "address"
        }
      ],
      "name": "initialize",
      "outputs": [],
      "stateMutability": "nonpayable",
      "type": "function"
    },
    {
      "inputs": [],
      "name": "middleFee",
      "outputs": [
        {
          "internalType": "contract IMiddleFeeDistribution",
          "name": "",
          "type": "address"
        }
      ],
      "stateMutability": "view",
      "type": "function"
    },
    {
      "inputs": [],
      "name": "owner",
      "outputs": [
        {
          "internalType": "address",
          "name": "",
          "type": "address"
        }
      ],
      "stateMutability": "view",
      "type": "function"
    },
    {
      "inputs": [],
      "name": "renounceOwnership",
      "outputs": [],
      "stateMutability": "nonpayable",
      "type": "function"
    },
    {
      "inputs": [
        {
          "internalType": "contract IMiddleFeeDistribution",
          "name": "_middleFee",
          "type": "address"
        }
      ],
      "name": "setMiddleFee",
      "outputs": [],
      "stateMutability": "nonpayable",
      "type": "function"
    },
    {
      "inputs": [
        {
          "internalType": "address",
          "name": "newOwner",
          "type": "address"
        }
      ],
      "name": "transferOwnership",
      "outputs": [],
      "stateMutability": "nonpayable",
      "type": "function"
    },
    {
      "inputs": [
        {
          "internalType": "uint256",
          "name": "",
          "type": "uint256"
        }
      ],
      "name": "vests",
      "outputs": [
        {
          "internalType": "address",
          "name": "",
          "type": "address"
        }
      ],
      "stateMutability": "view",
      "type": "function"
    }
  ],
  "transactionHash": "0xd981970cec25c67e7274b710a1e7fa178b8f964619dba8505e5aebdaf1079b68",
  "args": [],
  "numDeployments": 1,
  "solcInputHash": "78995fe69be866012cdea8ea4c4842de",
  "bytecode": "0x608060405234801561001057600080fd5b506127b2806100206000396000f3fe608060405234801561001057600080fd5b50600436106100d05760003560e01c80630b9a9efd146100d55780632e0f2625146100ea578063485cc9551461010857806351def5561461011b57806358e6d53c1461013b5780635d8b1399146101505780636a7e9f3314610163578063715018a61461016b57806374292a4e1461017357806376fa371414610186578063775a25e31461019957806386f53dca146101ae5780638da5cb5b146101b6578063c319ab67146101be578063d8250f40146101c6578063f2fde38b146101d9575b600080fd5b6100e86100e3366004612308565b6101ec565b005b6100f2610270565b6040516100ff9190612669565b60405180910390f35b6100e8610116366004612340565b610275565b61012e61012936600461251c565b610351565b6040516100ff919061256d565b61014361037b565b6040516100ff9190612652565b6100e861015e366004612308565b610382565b610143610436565b6100e861043c565b6100e8610181366004612478565b6104aa565b610143610194366004612378565b610d3b565b6101a16112f2565b6040516100ff9190612581565b6101a161153b565b61012e61181a565b61012e611829565b6100f26101d4366004612308565b611838565b6100e86101e7366004612308565b61193c565b6101f46119ef565b6001600160a01b031661020561181a565b6001600160a01b03161461024e576040805162461bcd60e51b81526020600482018190526024820152600080516020612704833981519152604482015290519081900360640190fd5b60a180546001600160a01b0319166001600160a01b0392909216919091179055565b601281565b600054610100900460ff168061028e575061028e6119f3565b8061029c575060005460ff16155b6102d75760405162461bcd60e51b815260040180806020018281038252602e815260200180612724602e913960400191505060405180910390fd5b600054610100900460ff16158015610302576000805460ff1961ff0019909116610100171660011790555b609780546001600160a01b038086166001600160a01b031992831617909255609880549285169290911691909117905561033a6119f9565b801561034c576000805461ff00191690555b505050565b60a2818154811061036157600080fd5b6000918252602090912001546001600160a01b0316905081565b6201518081565b61038a6119ef565b6001600160a01b031661039b61181a565b6001600160a01b0316146103e4576040805162461bcd60e51b81526020600482018190526024820152600080516020612704833981519152604482015290519081900360640190fd5b60a280546001810182556000919091527faaf4f58de99300cfadc4585755f376d5fa747d5bc561d5bd9d710de1f91bf42d0180546001600160a01b0319166001600160a01b0392909216919091179055565b61271081565b6104446119ef565b6001600160a01b031661045561181a565b6001600160a01b03161461049e576040805162461bcd60e51b81526020600482018190526024820152600080516020612704833981519152604482015290519081900360640190fd5b6104a86000611a47565b565b60a1546040516316bfae7f60e31b81526001600160a01b039091169063b5fd73f8906104da90339060040161256d565b60206040518083038186803b1580156104f257600080fd5b505afa158015610506573d6000803e3d6000fd5b505050506040513d601f19601f8201168201806040525081019061052a91906123c2565b61054f5760405162461bcd60e51b815260040161054690612631565b60405180910390fd5b600081604001516001600160a01b031663b82def936040518163ffffffff1660e01b815260040160206040518083038186803b15801561058e57600080fd5b505afa1580156105a2573d6000803e3d6000fd5b505050506040513d601f19601f820116820180604052508101906105c69190612534565b9050600082604001516001600160a01b031663dd36bd0e6040518163ffffffff1660e01b815260040160206040518083038186803b15801561060757600080fd5b505afa15801561061b573d6000803e3d6000fd5b505050506040513d601f19601f8201168201806040525081019061063f9190612534565b9050600083604001516001600160a01b031663c8d508b06040518163ffffffff1660e01b815260040160206040518083038186803b15801561068057600080fd5b505afa158015610694573d6000803e3d6000fd5b505050506040513d601f19601f820116820180604052508101906106b89190612324565b609754855160405163b3596f0760e01b81529293506000926001600160a01b039092169163b3596f07916106ee9160040161256d565b60206040518083038186803b15801561070657600080fd5b505afa15801561071a573d6000803e3d6000fd5b505050506040513d601f19601f8201168201806040525081019061073e9190612534565b6097548651604051630495f95f60e51b81529293506000926001600160a01b03909216916392bf2be0916107749160040161256d565b60206040518083038186803b15801561078c57600080fd5b505afa1580156107a0573d6000803e3d6000fd5b505050506040513d601f19601f820116820180604052508101906107c49190612324565b90506001600160a01b038316158015906107de5750600084115b15610821576000610808612710610802878a60200151611a9990919063ffffffff16565b90611afb565b602088015190915061081a9082611b3a565b6020880152505b6000816001600160a01b031663313ce5676040518163ffffffff1660e01b815260040160206040518083038186803b15801561085c57600080fd5b505afa158015610870573d6000803e3d6000fd5b505050506040513d601f19601f82011682018060405250810190610894919061254c565b9050600087600001516001600160a01b031663313ce5676040518163ffffffff1660e01b815260040160206040518083038186803b1580156108d557600080fd5b505afa1580156108e9573d6000803e3d6000fd5b505050506040513d601f19601f8201168201806040525081019061090d919061254c565b9050600061094d8260ff16600a0a6108028560ff16600a0a610802601260ff16600a0a6109478f602001518c611a9990919063ffffffff16565b90611a99565b90506000610961612710610802848c611a99565b905061096d8282611b3a565b8a516001600160a01b03166000908152609d602052604081205491935090610a7957609a8054600101908190558b516000918252609b602052604080832080546001600160a01b0319166001600160a01b039384161790558d5181516395d89b4160e01b815291519216926395d89b4192600480840193829003018186803b1580156109f857600080fd5b505afa158015610a0c573d6000803e3d6000fd5b505050506040513d6000823e601f3d908101601f19168201604052610a3491908101906123e2565b609a546000908152609c602090815260409091208251610a5a939192919091019061221f565b50609a548b516001600160a01b03166000908152609d60205260409020555b8a516001600160a01b03166000908152609e6020526040902054610a9d9084611b7c565b8b516001600160a01b039081166000908152609e60209081526040808320949094558e519092168152609f9091522054610ad79083611b7c565b8b516001600160a01b03166000908152609f60205260408120919091555b8b516001600160a01b0316600090815260a06020526040902054811015610b71578b516001600160a01b0316600090815260a06020526040902080546201518091610b5c9184908110610b4457fe5b60009182526020909120600390910201544290611b3a565b11610b6957809150610b71565b600101610af5565b50805b8b516001600160a01b0316600090815260a06020526040902054811015610c31578b516001600160a01b0316600090815260a060205260409020805482908110610bba57fe5b906000526020600020906003020160a060008e600001516001600160a01b03166001600160a01b0316815260200190815260200160002083830381548110610bfe57fe5b60009182526020909120825460039092020190815560018083015481830155600292830154929091019190915501610b74565b5060005b81811015610c90578b516001600160a01b0316600090815260a060205260409020805480610c5f57fe5b6000828152602081206003600019909301928302018181556001818101839055600290910191909155915501610c35565b508a516001600160a01b03908116600090815260a06020908152604080832081516060810183524281528084018981528184018981528354600181810186559488529590962091516003909502909101938455519083015591516002909101558c5190519116907fe7c4b77f79147f02536757dc5e63d88c2a454f560ad09c8f22b0f042054657fb90610d26908690869061265b565b60405180910390a25050505050505050505050565b60008060a160009054906101000a90046001600160a01b03166001600160a01b031663cd57ed6c6040518163ffffffff1660e01b815260040160206040518083038186803b158015610d8c57600080fd5b505afa158015610da0573d6000803e3d6000fd5b505050506040513d601f19601f82011682018060405250810190610dc49190612324565b9050600060a160009054906101000a90046001600160a01b03166001600160a01b03166328f407486040518163ffffffff1660e01b815260040160206040518083038186803b158015610e1657600080fd5b505afa158015610e2a573d6000803e3d6000fd5b505050506040513d601f19601f82011682018060405250810190610e4e9190612324565b9050600060a160009054906101000a90046001600160a01b03166001600160a01b031663ab453a596040518163ffffffff1660e01b815260040160206040518083038186803b158015610ea057600080fd5b505afa158015610eb4573d6000803e3d6000fd5b505050506040513d601f19601f82011682018060405250810190610ed89190612324565b90506000836001600160a01b03166379022a9f6040518163ffffffff1660e01b815260040160206040518083038186803b158015610f1557600080fd5b505afa158015610f29573d6000803e3d6000fd5b505050506040513d601f19601f82011682018060405250810190610f4d9190612324565b90506000610f74828a898b89609860009054906101000a90046001600160a01b0316611bd4565b90506000610f80611f75565b90506000856001600160a01b03166372f702f36040518163ffffffff1660e01b815260040160206040518083038186803b158015610fbd57600080fd5b505afa158015610fd1573d6000803e3d6000fd5b505050506040513d601f19601f82011682018060405250810190610ff59190612324565b90506000816001600160a01b03166370a08231886040518263ffffffff1660e01b8152600401611025919061256d565b60206040518083038186803b15801561103d57600080fd5b505afa158015611051573d6000803e3d6000fd5b505050506040513d601f19601f820116820180604052508101906110759190612534565b90506000826001600160a01b03166318160ddd6040518163ffffffff1660e01b815260040160206040518083038186803b1580156110b257600080fd5b505afa1580156110c6573d6000803e3d6000fd5b505050506040513d601f19601f820116820180604052508101906110ea9190612534565b90506000806000856001600160a01b0316630902f1ac6040518163ffffffff1660e01b815260040160606040518083038186803b15801561112a57600080fd5b505afa15801561113e573d6000803e3d6000fd5b505050506040513d601f19601f8201168201806040525081019061116291906124d9565b506001600160701b031691506001600160701b03169150896001600160a01b0316866001600160a01b0316630dfe16816040518163ffffffff1660e01b815260040160206040518083038186803b1580156111bc57600080fd5b505afa1580156111d0573d6000803e3d6000fd5b505050506040513d601f19601f820116820180604052508101906111f49190612324565b6001600160a01b0316141561121657838583028161120e57fe5b049250611225565b838582028161122157fe5b0492505b60008a6001600160a01b03166318160ddd6040518163ffffffff1660e01b815260040160206040518083038186803b15801561126057600080fd5b505afa158015611274573d6000803e3d6000fd5b505050506040513d601f19601f820116820180604052508101906112989190612534565b905060006112b0896112aa878d611b7c565b90611b7c565b90508082106112d8576112c38282611b3a565b9e5050505050505050505050505050506112eb565b60009e5050505050505050505050505050505b9392505050565b60606000609a600001546001016001600160401b038111801561131457600080fd5b5060405190808252806020026020018201604052801561134e57816020015b61133b6122ab565b8152602001906001900390816113335790505b50905060008060015b609a5481116114df576000818152609b60209081526040808320546001600160a01b03168352609e909152902054611390908490611b7c565b6000828152609b60209081526040808320546001600160a01b03168352609f9091529020549093506113c3908390611b7c565b604080516080810182526000848152609b6020908152838220546001600160a01b03168352858252609c81529083902080548451601f60026000196001851615610100020190931692909204918201849004840281018401909552808552949650919381850193929183018282801561147d5780601f106114525761010080835404028352916020019161147d565b820191906000526020600020905b81548152906001019060200180831161146057829003601f168201915b50505091835250506000838152609b60209081526040808320546001600160a01b0316808452609e835281842054838601528352609f909152908190205491015284518590839081106114cc57fe5b6020908102919091010152600101611357565b50604051806080016040528060006001600160a01b03168152602001604051806020016040528060008152508152602001838152602001828152508360008151811061152757fe5b602002602001018190525082935050505090565b60606000609a600001546001016001600160401b038111801561155d57600080fd5b5060405190808252806020026020018201604052801561159757816020015b6115846122ab565b81526020019060019003908161157c5790505b50905060008060015b609a5481116114df576000818152609b60209081526040808320546001600160a01b0316835260a090915281205481906115d657fe5b6000838152609b60209081526040808320546001600160a01b0316835260a0909152812054611606906001611b3a565b90505b6000848152609b60209081526040808320546001600160a01b0316835260a09091529020805462015180916116429184908110610b4457fe5b116116fc576000848152609b60209081526040808320546001600160a01b0316835260a09091529020805461169d91908390811061167c57fe5b90600052602060002090600302016001015484611b7c90919063ffffffff16565b6000858152609b60209081526040808320546001600160a01b0316835260a0909152902080549194506116f591839081106116d457fe5b90600052602060002090600302016002015483611b7c90919063ffffffff16565b9150611701565b611714565b8061170b57611714565b60001901611609565b5061171f8583611b7c565b945061172b8482611b7c565b604080516080810182526000868152609b6020908152838220546001600160a01b03168352878252609c81529083902080548451601f6002600019600185161561010002019093169290920491820184900484028101840190955280855294985091938185019392918301828280156117e55780601f106117ba576101008083540402835291602001916117e5565b820191906000526020600020905b8154815290600101906020018083116117c857829003601f168201915b505050505081526020018381526020018281525086848151811061180557fe5b602090810291909101015250506001016115a0565b6065546001600160a01b031690565b60a1546001600160a01b031681565b609754604051630495f95f60e51b815260009182916001600160a01b03909116906392bf2be09061186d90869060040161256d565b60206040518083038186803b15801561188557600080fd5b505afa158015611899573d6000803e3d6000fd5b505050506040513d601f19601f820116820180604052508101906118bd9190612324565b90506000816001600160a01b031663313ce5676040518163ffffffff1660e01b815260040160206040518083038186803b1580156118fa57600080fd5b505afa15801561190e573d6000803e3d6000fd5b505050506040513d601f19601f82011682018060405250810190611932919061254c565b925050505b919050565b6119446119ef565b6001600160a01b031661195561181a565b6001600160a01b03161461199e576040805162461bcd60e51b81526020600482018190526024820152600080516020612704833981519152604482015290519081900360640190fd5b6001600160a01b0381166119e35760405162461bcd60e51b81526004018080602001828103825260268152602001806126bd6026913960400191505060405180910390fd5b6119ec81611a47565b50565b3390565b303b1590565b600054610100900460ff16611a3f5760405162461bcd60e51b815260040180806020018281038252602b815260200180612752602b913960400191505060405180910390fd5b6104a86120cd565b606580546001600160a01b038381166001600160a01b0319831681179093556040519116919082907f8be0079c531659141344cd1fd0a4f28419497f9722a3daafe3b4186f6b6457e090600090a35050565b600082611aa857506000611af5565b82820282848281611ab557fe5b0414611af25760405162461bcd60e51b81526004018080602001828103825260218152602001806126e36021913960400191505060405180910390fd5b90505b92915050565b6000611af283836040518060400160405280601a815260200179536166654d6174683a206469766973696f6e206279207a65726f60301b815250612123565b6000611af283836040518060400160405280601e81526020017f536166654d6174683a207375627472616374696f6e206f766572666c6f7700008152506121c5565b600082820183811015611af2576040805162461bcd60e51b815260206004820152601b60248201527a536166654d6174683a206164646974696f6e206f766572666c6f7760281b604482015290519081900360640190fd5b60008060a160009054906101000a90046001600160a01b03166001600160a01b031663ab453a596040518163ffffffff1660e01b815260040160206040518083038186803b158015611c2557600080fd5b505afa158015611c39573d6000803e3d6000fd5b505050506040513d601f19601f82011682018060405250810190611c5d9190612324565b90506000816001600160a01b03166370a082318a6040518263ffffffff1660e01b8152600401611c8d919061256d565b60206040518083038186803b158015611ca557600080fd5b505afa158015611cb9573d6000803e3d6000fd5b505050506040513d601f19601f82011682018060405250810190611cdd9190612534565b90506000826001600160a01b03166370a082318a6040518263ffffffff1660e01b8152600401611d0d919061256d565b60206040518083038186803b158015611d2557600080fd5b505afa158015611d39573d6000803e3d6000fd5b505050506040513d601f19601f82011682018060405250810190611d5d9190612534565b90506000836001600160a01b03166370a082318a6040518263ffffffff1660e01b8152600401611d8d919061256d565b60206040518083038186803b158015611da557600080fd5b505afa158015611db9573d6000803e3d6000fd5b505050506040513d601f19601f82011682018060405250810190611ddd9190612534565b90506000846001600160a01b03166370a082318a6040518263ffffffff1660e01b8152600401611e0d919061256d565b60206040518083038186803b158015611e2557600080fd5b505afa158015611e39573d6000803e3d6000fd5b505050506040513d601f19601f82011682018060405250810190611e5d9190612534565b90506000856001600160a01b03166370a082318a6040518263ffffffff1660e01b8152600401611e8d919061256d565b60206040518083038186803b158015611ea557600080fd5b505afa158015611eb9573d6000803e3d6000fd5b505050506040513d601f19601f82011682018060405250810190611edd9190612534565b90506000866001600160a01b03166370a082318a6040518263ffffffff1660e01b8152600401611f0d919061256d565b60206040518083038186803b158015611f2557600080fd5b505afa158015611f39573d6000803e3d6000fd5b505050506040513d601f19601f82011682018060405250810190611f5d9190612534565b94909501929092010101019998505050505050505050565b600080600060a160009054906101000a90046001600160a01b03166001600160a01b031663ab453a596040518163ffffffff1660e01b815260040160206040518083038186803b158015611fc857600080fd5b505afa158015611fdc573d6000803e3d6000fd5b505050506040513d601f19601f820116820180604052508101906120009190612324565b905060005b60a2548110156120c5576120bb826001600160a01b03166370a0823160a2848154811061202e57fe5b6000918252602090912001546040516001600160e01b031960e084901b168152612064916001600160a01b03169060040161256d565b60206040518083038186803b15801561207c57600080fd5b505afa158015612090573d6000803e3d6000fd5b505050506040513d601f19601f820116820180604052508101906120b49190612534565b8490611b7c565b9250600101612005565b509091505090565b600054610100900460ff166121135760405162461bcd60e51b815260040180806020018281038252602b815260200180612752602b913960400191505060405180910390fd5b6104a861211e6119ef565b611a47565b600081836121af5760405162461bcd60e51b81526004018080602001828103825283818151815260200191508051906020019080838360005b8381101561217457818101518382015260200161215c565b50505050905090810190601f1680156121a15780820380516001836020036101000a031916815260200191505b509250505060405180910390fd5b5060008385816121bb57fe5b0495945050505050565b600081848411156122175760405162461bcd60e51b815260206004820181815283516024840152835190928392604490910191908501908083836000831561217457818101518382015260200161215c565b505050900390565b828054600181600116156101000203166002900490600052602060002090601f016020900481019282612255576000855561229b565b82601f1061226e57805160ff191683800117855561229b565b8280016001018555821561229b579182015b8281111561229b578251825591602001919060010190612280565b506122a79291506122dc565b5090565b604051806080016040528060006001600160a01b031681526020016060815260200160008152602001600081525090565b5b808211156122a757600081556001016122dd565b80516001600160701b038116811461193757600080fd5b600060208284031215612319578081fd5b8135611af2816126a7565b600060208284031215612335578081fd5b8151611af2816126a7565b60008060408385031215612352578081fd5b823561235d816126a7565b9150602083013561236d816126a7565b809150509250929050565b60008060006060848603121561238c578081fd5b8335612397816126a7565b925060208401356123a7816126a7565b915060408401356123b7816126a7565b809150509250925092565b6000602082840312156123d3578081fd5b81518015158114611af2578182fd5b6000602082840312156123f3578081fd5b81516001600160401b0380821115612409578283fd5b818401915084601f83011261241c578283fd5b81518181111561242857fe5b604051601f8201601f19168101602001838111828210171561244657fe5b60405281815283820160200187101561245d578485fd5b61246e826020830160208701612677565b9695505050505050565b600060608284031215612489578081fd5b604051606081016001600160401b03811182821017156124a557fe5b60405282356124b3816126a7565b81526020838101359082015260408301356124cd816126a7565b60408201529392505050565b6000806000606084860312156124ed578283fd5b6124f6846122f1565b9250612504602085016122f1565b9150604084015163ffffffff811681146123b7578182fd5b60006020828403121561252d578081fd5b5035919050565b600060208284031215612545578081fd5b5051919050565b60006020828403121561255d578081fd5b815160ff81168114611af2578182fd5b6001600160a01b0391909116815260200190565b60208082528251828201819052600091906040908185019080840286018301878501865b8381101561262357888303603f19018552815180516001600160a01b03168452878101516080898601819052815190860181905260a091906125ec81848901848e01612677565b838a0151878b0152606093840151938701939093525095880195601f91909101601f191690930190920191908601906001016125a5565b509098975050505050505050565b60208082526007908201526610b92a37b5b2b760c91b604082015260600190565b90815260200190565b918252602082015260400190565b60ff91909116815260200190565b60005b8381101561269257818101518382015260200161267a565b838111156126a1576000848401525b50505050565b6001600160a01b03811681146119ec57600080fdfe4f776e61626c653a206e6577206f776e657220697320746865207a65726f2061646472657373536166654d6174683a206d756c7469706c69636174696f6e206f766572666c6f774f776e61626c653a2063616c6c6572206973206e6f7420746865206f776e6572436f6e747261637420696e7374616e63652068617320616c7265616479206265656e20696e697469616c697a6564496e697469616c697a61626c653a20636f6e7472616374206973206e6f7420696e697469616c697a696e67a2646970667358221220201a0247c34ac9241e2209e00726147bc0df760e5f7f8ee652d33eea66dc7cc564736f6c63430007060033",
  "devdoc": {
    "kind": "dev",
    "methods": {},
    "version": 1
  },
  "userdoc": {
    "kind": "user",
    "methods": {},
    "version": 1
  },
  "storageLayout": {
    "storage": [
      {
        "astId": 6361,
        "contract": "contracts/staking/MFDstats.sol:MFDstats",
        "label": "initialized",
        "offset": 0,
        "slot": "0",
        "type": "t_bool"
      },
      {
        "astId": 6364,
        "contract": "contracts/staking/MFDstats.sol:MFDstats",
        "label": "initializing",
        "offset": 1,
        "slot": "0",
        "type": "t_bool"
      },
      {
        "astId": 6431,
        "contract": "contracts/staking/MFDstats.sol:MFDstats",
        "label": "______gap",
        "offset": 0,
        "slot": "1",
        "type": "t_array(t_uint256)50_storage"
      },
      {
        "astId": 6354,
        "contract": "contracts/staking/MFDstats.sol:MFDstats",
        "label": "__gap",
        "offset": 0,
        "slot": "51",
        "type": "t_array(t_uint256)50_storage"
      },
      {
        "astId": 6576,
        "contract": "contracts/staking/MFDstats.sol:MFDstats",
        "label": "_owner",
        "offset": 0,
        "slot": "101",
        "type": "t_address"
      },
      {
        "astId": 6681,
        "contract": "contracts/staking/MFDstats.sol:MFDstats",
        "label": "__gap",
        "offset": 0,
        "slot": "102",
        "type": "t_array(t_uint256)49_storage"
      },
      {
        "astId": 41774,
        "contract": "contracts/staking/MFDstats.sol:MFDstats",
        "label": "_aaveOracle",
        "offset": 0,
        "slot": "151",
        "type": "t_address"
      },
      {
        "astId": 41776,
        "contract": "contracts/staking/MFDstats.sol:MFDstats",
        "label": "_emissionsReserve",
        "offset": 0,
        "slot": "152",
        "type": "t_address"
      },
      {
        "astId": 41778,
        "contract": "contracts/staking/MFDstats.sol:MFDstats",
        "label": "_mfd",
        "offset": 0,
        "slot": "153",
        "type": "t_address"
      },
      {
        "astId": 41818,
        "contract": "contracts/staking/MFDstats.sol:MFDstats",
        "label": "allAddresses",
        "offset": 0,
        "slot": "154",
        "type": "t_struct(AssetAddresses)41800_storage"
      },
      {
        "astId": 41822,
        "contract": "contracts/staking/MFDstats.sol:MFDstats",
        "label": "_totalPerAsset",
        "offset": 0,
        "slot": "158",
        "type": "t_mapping(t_address,t_uint256)"
      },
      {
        "astId": 41826,
        "contract": "contracts/staking/MFDstats.sol:MFDstats",
        "label": "_lpTotalPerAsset",
        "offset": 0,
        "slot": "159",
        "type": "t_mapping(t_address,t_uint256)"
      },
      {
        "astId": 41831,
        "contract": "contracts/staking/MFDstats.sol:MFDstats",
        "label": "mfdTransfersPerAsset",
        "offset": 0,
        "slot": "160",
        "type": "t_mapping(t_address,t_array(t_struct(MFDTransfer)41785_storage)dyn_storage)"
      },
      {
        "astId": 41833,
        "contract": "contracts/staking/MFDstats.sol:MFDstats",
        "label": "middleFee",
        "offset": 0,
        "slot": "161",
        "type": "t_contract(IMiddleFeeDistribution)12596"
      },
      {
        "astId": 41845,
        "contract": "contracts/staking/MFDstats.sol:MFDstats",
        "label": "vests",
        "offset": 0,
        "slot": "162",
        "type": "t_array(t_address)dyn_storage"
      }
    ],
    "types": {
      "t_address": {
        "encoding": "inplace",
        "label": "address",
        "numberOfBytes": "20"
      },
      "t_array(t_address)dyn_storage": {
        "base": "t_address",
        "encoding": "dynamic_array",
        "label": "address[]",
        "numberOfBytes": "32"
      },
      "t_array(t_struct(MFDTransfer)41785_storage)dyn_storage": {
        "base": "t_struct(MFDTransfer)41785_storage",
        "encoding": "dynamic_array",
        "label": "struct MFDstats.MFDTransfer[]",
        "numberOfBytes": "32"
      },
      "t_array(t_uint256)49_storage": {
        "base": "t_uint256",
        "encoding": "inplace",
        "label": "uint256[49]",
        "numberOfBytes": "1568"
      },
      "t_array(t_uint256)50_storage": {
        "base": "t_uint256",
        "encoding": "inplace",
        "label": "uint256[50]",
        "numberOfBytes": "1600"
      },
      "t_bool": {
        "encoding": "inplace",
        "label": "bool",
        "numberOfBytes": "1"
      },
      "t_contract(IMiddleFeeDistribution)12596": {
        "encoding": "inplace",
        "label": "contract IMiddleFeeDistribution",
        "numberOfBytes": "20"
      },
      "t_mapping(t_address,t_array(t_struct(MFDTransfer)41785_storage)dyn_storage)": {
        "encoding": "mapping",
        "key": "t_address",
        "label": "mapping(address => struct MFDstats.MFDTransfer[])",
        "numberOfBytes": "32",
        "value": "t_array(t_struct(MFDTransfer)41785_storage)dyn_storage"
      },
      "t_mapping(t_address,t_uint256)": {
        "encoding": "mapping",
        "key": "t_address",
        "label": "mapping(address => uint256)",
        "numberOfBytes": "32",
        "value": "t_uint256"
      },
      "t_mapping(t_uint256,t_address)": {
        "encoding": "mapping",
        "key": "t_uint256",
        "label": "mapping(uint256 => address)",
        "numberOfBytes": "32",
        "value": "t_address"
      },
      "t_mapping(t_uint256,t_string_storage)": {
        "encoding": "mapping",
        "key": "t_uint256",
        "label": "mapping(uint256 => string)",
        "numberOfBytes": "32",
        "value": "t_string_storage"
      },
      "t_string_storage": {
        "encoding": "bytes",
        "label": "string",
        "numberOfBytes": "32"
      },
      "t_struct(AssetAddresses)41800_storage": {
        "encoding": "inplace",
        "label": "struct MFDstats.AssetAddresses",
        "members": [
          {
            "astId": 41787,
            "contract": "contracts/staking/MFDstats.sol:MFDstats",
            "label": "count",
            "offset": 0,
            "slot": "0",
            "type": "t_uint256"
          },
          {
            "astId": 41791,
            "contract": "contracts/staking/MFDstats.sol:MFDstats",
            "label": "assetAddress",
            "offset": 0,
            "slot": "1",
            "type": "t_mapping(t_uint256,t_address)"
          },
          {
            "astId": 41795,
            "contract": "contracts/staking/MFDstats.sol:MFDstats",
            "label": "assetSymbol",
            "offset": 0,
            "slot": "2",
            "type": "t_mapping(t_uint256,t_string_storage)"
          },
          {
            "astId": 41799,
            "contract": "contracts/staking/MFDstats.sol:MFDstats",
            "label": "indexOfAddress",
            "offset": 0,
            "slot": "3",
            "type": "t_mapping(t_address,t_uint256)"
          }
        ],
        "numberOfBytes": "128"
      },
      "t_struct(MFDTransfer)41785_storage": {
        "encoding": "inplace",
        "label": "struct MFDstats.MFDTransfer",
        "members": [
          {
            "astId": 41780,
            "contract": "contracts/staking/MFDstats.sol:MFDstats",
            "label": "timestamp",
            "offset": 0,
            "slot": "0",
            "type": "t_uint256"
          },
          {
            "astId": 41782,
            "contract": "contracts/staking/MFDstats.sol:MFDstats",
            "label": "usdValue",
            "offset": 0,
            "slot": "1",
            "type": "t_uint256"
          },
          {
            "astId": 41784,
            "contract": "contracts/staking/MFDstats.sol:MFDstats",
            "label": "lpUsdValue",
            "offset": 0,
            "slot": "2",
            "type": "t_uint256"
          }
        ],
        "numberOfBytes": "96"
      },
      "t_uint256": {
        "encoding": "inplace",
        "label": "uint256",
        "numberOfBytes": "32"
      }
    }
  }
}