{
  "address": "0x09c8f28341DE3554DD4621475CF9b10280EB7341",
  "abi": [
    {
      "anonymous": false,
      "inputs": [
        {
          "indexed": true,
          "internalType": "address",
          "name": "owner",
          "type": "address"
        },
        {
          "indexed": true,
          "internalType": "address",
          "name": "spender",
          "type": "address"
        },
        {
          "indexed": false,
          "internalType": "uint256",
          "name": "value",
          "type": "uint256"
        }
      ],
      "name": "Approval",
      "type": "event"
    },
    {
      "anonymous": false,
      "inputs": [
        {
          "indexed": true,
          "internalType": "address",
          "name": "fromUser",
          "type": "address"
        },
        {
          "indexed": true,
          "internalType": "address",
          "name": "toUser",
          "type": "address"
        },
        {
          "indexed": false,
          "internalType": "address",
          "name": "asset",
          "type": "address"
        },
        {
          "indexed": false,
          "internalType": "uint256",
          "name": "amount",
          "type": "uint256"
        }
      ],
      "name": "BorrowAllowanceDelegated",
      "type": "event"
    },
    {
      "anonymous": false,
      "inputs": [
        {
          "indexed": true,
          "internalType": "address",
          "name": "user",
          "type": "address"
        },
        {
          "indexed": false,
          "internalType": "uint256",
          "name": "amount",
          "type": "uint256"
        },
        {
          "indexed": false,
          "internalType": "uint256",
          "name": "currentBalance",
          "type": "uint256"
        },
        {
          "indexed": false,
          "internalType": "uint256",
          "name": "balanceIncrease",
          "type": "uint256"
        },
        {
          "indexed": false,
          "internalType": "uint256",
          "name": "avgStableRate",
          "type": "uint256"
        },
        {
          "indexed": false,
          "internalType": "uint256",
          "name": "newTotalSupply",
          "type": "uint256"
        }
      ],
      "name": "Burn",
      "type": "event"
    },
    {
      "anonymous": false,
      "inputs": [
        {
          "indexed": true,
          "internalType": "address",
          "name": "underlyingAsset",
          "type": "address"
        },
        {
          "indexed": true,
          "internalType": "address",
          "name": "pool",
          "type": "address"
        },
        {
          "indexed": false,
          "internalType": "address",
          "name": "incentivesController",
          "type": "address"
        },
        {
          "indexed": false,
          "internalType": "uint8",
          "name": "debtTokenDecimals",
          "type": "uint8"
        },
        {
          "indexed": false,
          "internalType": "string",
          "name": "debtTokenName",
          "type": "string"
        },
        {
          "indexed": false,
          "internalType": "string",
          "name": "debtTokenSymbol",
          "type": "string"
        },
        {
          "indexed": false,
          "internalType": "bytes",
          "name": "params",
          "type": "bytes"
        }
      ],
      "name": "Initialized",
      "type": "event"
    },
    {
      "anonymous": false,
      "inputs": [
        {
          "indexed": true,
          "internalType": "address",
          "name": "user",
          "type": "address"
        },
        {
          "indexed": true,
          "internalType": "address",
          "name": "onBehalfOf",
          "type": "address"
        },
        {
          "indexed": false,
          "internalType": "uint256",
          "name": "amount",
          "type": "uint256"
        },
        {
          "indexed": false,
          "internalType": "uint256",
          "name": "currentBalance",
          "type": "uint256"
        },
        {
          "indexed": false,
          "internalType": "uint256",
          "name": "balanceIncrease",
          "type": "uint256"
        },
        {
          "indexed": false,
          "internalType": "uint256",
          "name": "newRate",
          "type": "uint256"
        },
        {
          "indexed": false,
          "internalType": "uint256",
          "name": "avgStableRate",
          "type": "uint256"
        },
        {
          "indexed": false,
          "internalType": "uint256",
          "name": "newTotalSupply",
          "type": "uint256"
        }
      ],
      "name": "Mint",
      "type": "event"
    },
    {
      "anonymous": false,
      "inputs": [
        {
          "indexed": true,
          "internalType": "address",
          "name": "from",
          "type": "address"
        },
        {
          "indexed": true,
          "internalType": "address",
          "name": "to",
          "type": "address"
        },
        {
          "indexed": false,
          "internalType": "uint256",
          "name": "value",
          "type": "uint256"
        }
      ],
      "name": "Transfer",
      "type": "event"
    },
    {
      "inputs": [],
      "name": "DEBT_TOKEN_REVISION",
      "outputs": [
        {
          "internalType": "uint256",
          "name": "",
          "type": "uint256"
        }
      ],
      "stateMutability": "view",
      "type": "function"
    },
    {
      "inputs": [],
      "name": "POOL",
      "outputs": [
        {
          "internalType": "contract ILendingPool",
          "name": "",
          "type": "address"
        }
      ],
      "stateMutability": "view",
      "type": "function"
    },
    {
      "inputs": [],
      "name": "UNDERLYING_ASSET_ADDRESS",
      "outputs": [
        {
          "internalType": "address",
          "name": "",
          "type": "address"
        }
      ],
      "stateMutability": "view",
      "type": "function"
    },
    {
      "inputs": [
        {
          "internalType": "address",
          "name": "owner",
          "type": "address"
        },
        {
          "internalType": "address",
          "name": "spender",
          "type": "address"
        }
      ],
      "name": "allowance",
      "outputs": [
        {
          "internalType": "uint256",
          "name": "",
          "type": "uint256"
        }
      ],
      "stateMutability": "view",
      "type": "function"
    },
    {
      "inputs": [
        {
          "internalType": "address",
          "name": "spender",
          "type": "address"
        },
        {
          "internalType": "uint256",
          "name": "amount",
          "type": "uint256"
        }
      ],
      "name": "approve",
      "outputs": [
        {
          "internalType": "bool",
          "name": "",
          "type": "bool"
        }
      ],
      "stateMutability": "nonpayable",
      "type": "function"
    },
    {
      "inputs": [
        {
          "internalType": "address",
          "name": "delegatee",
          "type": "address"
        },
        {
          "internalType": "uint256",
          "name": "amount",
          "type": "uint256"
        }
      ],
      "name": "approveDelegation",
      "outputs": [],
      "stateMutability": "nonpayable",
      "type": "function"
    },
    {
      "inputs": [
        {
          "internalType": "address",
          "name": "account",
          "type": "address"
        }
      ],
      "name": "balanceOf",
      "outputs": [
        {
          "internalType": "uint256",
          "name": "",
          "type": "uint256"
        }
      ],
      "stateMutability": "view",
      "type": "function"
    },
    {
      "inputs": [
        {
          "internalType": "address",
          "name": "fromUser",
          "type": "address"
        },
        {
          "internalType": "address",
          "name": "toUser",
          "type": "address"
        }
      ],
      "name": "borrowAllowance",
      "outputs": [
        {
          "internalType": "uint256",
          "name": "",
          "type": "uint256"
        }
      ],
      "stateMutability": "view",
      "type": "function"
    },
    {
      "inputs": [
        {
          "internalType": "address",
          "name": "user",
          "type": "address"
        },
        {
          "internalType": "uint256",
          "name": "amount",
          "type": "uint256"
        }
      ],
      "name": "burn",
      "outputs": [],
      "stateMutability": "nonpayable",
      "type": "function"
    },
    {
      "inputs": [],
      "name": "decimals",
      "outputs": [
        {
          "internalType": "uint8",
          "name": "",
          "type": "uint8"
        }
      ],
      "stateMutability": "view",
      "type": "function"
    },
    {
      "inputs": [
        {
          "internalType": "address",
          "name": "spender",
          "type": "address"
        },
        {
          "internalType": "uint256",
          "name": "subtractedValue",
          "type": "uint256"
        }
      ],
      "name": "decreaseAllowance",
      "outputs": [
        {
          "internalType": "bool",
          "name": "",
          "type": "bool"
        }
      ],
      "stateMutability": "nonpayable",
      "type": "function"
    },
    {
      "inputs": [],
      "name": "getAssetPrice",
      "outputs": [
        {
          "internalType": "uint256",
          "name": "",
          "type": "uint256"
        }
      ],
      "stateMutability": "view",
      "type": "function"
    },
    {
      "inputs": [],
      "name": "getAverageStableRate",
      "outputs": [
        {
          "internalType": "uint256",
          "name": "",
          "type": "uint256"
        }
      ],
      "stateMutability": "view",
      "type": "function"
    },
    {
      "inputs": [],
      "name": "getIncentivesController",
      "outputs": [
        {
          "internalType": "contract IAaveIncentivesController",
          "name": "",
          "type": "address"
        }
      ],
      "stateMutability": "view",
      "type": "function"
    },
    {
      "inputs": [],
      "name": "getSupplyData",
      "outputs": [
        {
          "internalType": "uint256",
          "name": "",
          "type": "uint256"
        },
        {
          "internalType": "uint256",
          "name": "",
          "type": "uint256"
        },
        {
          "internalType": "uint256",
          "name": "",
          "type": "uint256"
        },
        {
          "internalType": "uint40",
          "name": "",
          "type": "uint40"
        }
      ],
      "stateMutability": "view",
      "type": "function"
    },
    {
      "inputs": [],
      "name": "getTotalSupplyAndAvgRate",
      "outputs": [
        {
          "internalType": "uint256",
          "name": "",
          "type": "uint256"
        },
        {
          "internalType": "uint256",
          "name": "",
          "type": "uint256"
        }
      ],
      "stateMutability": "view",
      "type": "function"
    },
    {
      "inputs": [],
      "name": "getTotalSupplyLastUpdated",
      "outputs": [
        {
          "internalType": "uint40",
          "name": "",
          "type": "uint40"
        }
      ],
      "stateMutability": "view",
      "type": "function"
    },
    {
      "inputs": [
        {
          "internalType": "address",
          "name": "user",
          "type": "address"
        }
      ],
      "name": "getUserLastUpdated",
      "outputs": [
        {
          "internalType": "uint40",
          "name": "",
          "type": "uint40"
        }
      ],
      "stateMutability": "view",
      "type": "function"
    },
    {
      "inputs": [
        {
          "internalType": "address",
          "name": "user",
          "type": "address"
        }
      ],
      "name": "getUserStableRate",
      "outputs": [
        {
          "internalType": "uint256",
          "name": "",
          "type": "uint256"
        }
      ],
      "stateMutability": "view",
      "type": "function"
    },
    {
      "inputs": [
        {
          "internalType": "address",
          "name": "spender",
          "type": "address"
        },
        {
          "internalType": "uint256",
          "name": "addedValue",
          "type": "uint256"
        }
      ],
      "name": "increaseAllowance",
      "outputs": [
        {
          "internalType": "bool",
          "name": "",
          "type": "bool"
        }
      ],
      "stateMutability": "nonpayable",
      "type": "function"
    },
    {
      "inputs": [
        {
          "internalType": "contract ILendingPool",
          "name": "pool",
          "type": "address"
        },
        {
          "internalType": "address",
          "name": "underlyingAsset",
          "type": "address"
        },
        {
          "internalType": "contract IAaveIncentivesController",
          "name": "incentivesController",
          "type": "address"
        },
        {
          "internalType": "uint8",
          "name": "debtTokenDecimals",
          "type": "uint8"
        },
        {
          "internalType": "string",
          "name": "debtTokenName",
          "type": "string"
        },
        {
          "internalType": "string",
          "name": "debtTokenSymbol",
          "type": "string"
        },
        {
          "internalType": "bytes",
          "name": "params",
          "type": "bytes"
        }
      ],
      "name": "initialize",
      "outputs": [],
      "stateMutability": "nonpayable",
      "type": "function"
    },
    {
      "inputs": [
        {
          "internalType": "address",
          "name": "user",
          "type": "address"
        },
        {
          "internalType": "address",
          "name": "onBehalfOf",
          "type": "address"
        },
        {
          "internalType": "uint256",
          "name": "amount",
          "type": "uint256"
        },
        {
          "internalType": "uint256",
          "name": "rate",
          "type": "uint256"
        }
      ],
      "name": "mint",
      "outputs": [
        {
          "internalType": "bool",
          "name": "",
          "type": "bool"
        }
      ],
      "stateMutability": "nonpayable",
      "type": "function"
    },
    {
      "inputs": [],
      "name": "name",
      "outputs": [
        {
          "internalType": "string",
          "name": "",
          "type": "string"
        }
      ],
      "stateMutability": "view",
      "type": "function"
    },
    {
      "inputs": [
        {
          "internalType": "address",
          "name": "user",
          "type": "address"
        }
      ],
      "name": "principalBalanceOf",
      "outputs": [
        {
          "internalType": "uint256",
          "name": "",
          "type": "uint256"
        }
      ],
      "stateMutability": "view",
      "type": "function"
    },
    {
      "inputs": [],
      "name": "symbol",
      "outputs": [
        {
          "internalType": "string",
          "name": "",
          "type": "string"
        }
      ],
      "stateMutability": "view",
      "type": "function"
    },
    {
      "inputs": [],
      "name": "totalSupply",
      "outputs": [
        {
          "internalType": "uint256",
          "name": "",
          "type": "uint256"
        }
      ],
      "stateMutability": "view",
      "type": "function"
    },
    {
      "inputs": [
        {
          "internalType": "address",
          "name": "recipient",
          "type": "address"
        },
        {
          "internalType": "uint256",
          "name": "amount",
          "type": "uint256"
        }
      ],
      "name": "transfer",
      "outputs": [
        {
          "internalType": "bool",
          "name": "",
          "type": "bool"
        }
      ],
      "stateMutability": "nonpayable",
      "type": "function"
    },
    {
      "inputs": [
        {
          "internalType": "address",
          "name": "sender",
          "type": "address"
        },
        {
          "internalType": "address",
          "name": "recipient",
          "type": "address"
        },
        {
          "internalType": "uint256",
          "name": "amount",
          "type": "uint256"
        }
      ],
      "name": "transferFrom",
      "outputs": [
        {
          "internalType": "bool",
          "name": "",
          "type": "bool"
        }
      ],
      "stateMutability": "nonpayable",
      "type": "function"
    }
  ],
  "transactionHash": "0x12c20131d4759a62f797514a182d5bf2c277b42ceaeeb5383609559068c063b6",
  "args": [],
  "numDeployments": 1,
  "solcInputHash": "78995fe69be866012cdea8ea4c4842de",
  "bytecode": "0x608060405260006007553480156200001657600080fd5b50604080518082018252600e8082526d111150951513d2d15397d253541360921b60208084018281528551808701909652928552840152815191929160009162000064916003919062000098565b5081516200007a90600490602085019062000098565b506005805460ff191660ff9290921691909117905550620001449050565b828054600181600116156101000203166002900490600052602060002090601f016020900481019282620000d057600085556200011b565b82601f10620000eb57805160ff19168380011785556200011b565b828001600101855582156200011b579182015b828111156200011b578251825591602001919060010190620000fe565b50620001299291506200012d565b5090565b5b808211156200012957600081556001016200012e565b611f8980620001546000396000f3fe608060405234801561001057600080fd5b50600436106101545760003560e01c806306fdde0314610159578063095ea7b3146101d657806318160ddd1461021657806323b872dd14610230578063313ce5671461026657806339509351146102845780636bd76d24146102b057806370a08231146102de5780637535d2461461030457806375d2641314610328578063797743381461033057806379ce6b8c1461036557806390f6fcf2146103a557806395d89b41146103ad5780639dc29fac146103b5578063a457c2d714610284578063a9059cbb146103e3578063b16a19de1461040f578063b3f1c93d14610417578063b9a7b62214610453578063c04a8a101461045b578063c222ec8a14610487578063c634dfaa1461062a578063dd62ed3e14610650578063e54f08801461067e578063e748489014610686578063e78c9b3b1461068e578063f731e9be146106b4575b600080fd5b6101616106d5565b6040805160208082528351818301528351919283929083019185019080838360005b8381101561019b578181015183820152602001610183565b50505050905090810190601f1680156101c85780820380516001836020036101000a031916815260200191505b509250505060405180910390f35b610202600480360360408110156101ec57600080fd5b506001600160a01b03813516906020013561076b565b604080519115158252519081900360200190f35b61021e6107b3565b60408051918252519081900360200190f35b6102026004803603606081101561024657600080fd5b506001600160a01b038135811691602081013590911690604001356107c5565b61026e61080d565b6040805160ff9092168252519081900360200190f35b6102026004803603604081101561029a57600080fd5b506001600160a01b038135169060200135610816565b61021e600480360360408110156102c657600080fd5b506001600160a01b038135811691602001351661085f565b61021e600480360360208110156102f457600080fd5b50356001600160a01b031661088c565b61030c610906565b604080516001600160a01b039092168252519081900360200190f35b61030c61091a565b610338610924565b6040805194855260208501939093528383019190915264ffffffffff166060830152519081900360800190f35b61038b6004803603602081101561037b57600080fd5b50356001600160a01b031661095a565b6040805164ffffffffff9092168252519081900360200190f35b61021e61097c565b610161610982565b6103e1600480360360408110156103cb57600080fd5b506001600160a01b0381351690602001356109e3565b005b610202600480360360408110156103f957600080fd5b506001600160a01b0381351690602001356107c5565b61030c610d25565b6102026004803603608081101561042d57600080fd5b506001600160a01b03813581169160208101359091169060408101359060600135610d34565b61021e61105f565b6103e16004803603604081101561047157600080fd5b506001600160a01b038135169060200135611064565b6103e1600480360360e081101561049d57600080fd5b6001600160a01b038235811692602081013582169260408201359092169160ff606083013516919081019060a081016080820135600160201b8111156104e257600080fd5b8201836020820111156104f457600080fd5b803590602001918460018302840111600160201b8311171561051557600080fd5b91908080601f0160208091040260200160405190810160405280939291908181526020018383808284376000920191909152509295949360208101935035915050600160201b81111561056757600080fd5b82018360208201111561057957600080fd5b803590602001918460018302840111600160201b8311171561059a57600080fd5b91908080601f0160208091040260200160405190810160405280939291908181526020018383808284376000920191909152509295949360208101935035915050600160201b8111156105ec57600080fd5b8201836020820111156105fe57600080fd5b803590602001918460018302840111600160201b8311171561061f57600080fd5b5090925090506110ee565b61021e6004803603602081101561064057600080fd5b50356001600160a01b0316611381565b61021e6004803603604081101561066657600080fd5b506001600160a01b0381358116916020013516610816565b61021e61138c565b61038b6114fe565b61021e600480360360208110156106a457600080fd5b50356001600160a01b031661150b565b6106bc611526565b6040805192835260208301919091528051918290030190f35b60038054604080516020601f60026000196101006001881615020190951694909404938401819004810282018101909252828152606093909290918301828280156107615780601f1061073657610100808354040283529160200191610761565b820191906000526020600020905b81548152906001019060200180831161074457829003601f168201915b5050505050905090565b6040805162461bcd60e51b81526020600482015260166024820152751054141493d5905317d393d517d4d5541413d495115160521b6044820152905160009181900360640190fd5b60006107c0603c5461153f565b905090565b6040805162461bcd60e51b81526020600482015260166024820152751514905394d1915497d393d517d4d5541413d495115160521b6044820152905160009181900360640190fd5b60055460ff1690565b6040805162461bcd60e51b815260206004820152601760248201527610531313d5d05390d157d393d517d4d5541413d4951151604a1b6044820152905160009181900360640190fd5b6001600160a01b038083166000908152603b60209081526040808320938516835292905220545b92915050565b60008061089883611587565b6001600160a01b0384166000908152603e6020526040902054909150816108c457600092505050610901565b6001600160a01b0384166000908152603d60205260408120546108ef90839064ffffffffff166115a2565b90506108fb83826115b6565b93505050505b919050565b60055461010090046001600160a01b031690565b60006107c0611671565b6000806000806000603c549050610939611687565b6109428261153f565b603f54919790965091945064ffffffffff1692509050565b6001600160a01b03166000908152603d602052604090205464ffffffffff1690565b603c5490565b60048054604080516020601f60026000196101006001881615020190951694909404938401819004810282018101909252828152606093909290918301828280156107615780601f1061073657610100808354040283529160200191610761565b6109eb610906565b6001600160a01b03166109fc61168d565b6001600160a01b03161460405180604001604052806002815260200161323960f01b81525090610aaa5760405162461bcd60e51b81526004018080602001828103825283818151815260200191508051906020019080838360005b83811015610a6f578181015183820152602001610a57565b50505050905090810190601f168015610a9c5780820380516001836020036101000a031916815260200191505b509250505060405180910390fd5b50600080610ab784611691565b92509250506000610ac66107b3565b6001600160a01b0386166000908152603e6020526040812054919250908190868411610afb576000603c819055600255610b7d565b610b0584886116ea565b600281905591506000610b23610b1a8661172c565b603c54906115b6565b90506000610b3a610b338a61172c565b84906115b6565b9050818110610b565760006002819055603c8190559450610b7a565b610b72610b628561172c565b610b6c84846116ea565b906117aa565b603c81905594505b50505b85871415610bbb576001600160a01b0388166000908152603e60209081526040808320839055603d9091529020805464ffffffffff19169055610be9565b6001600160a01b0388166000908152603d60205260409020805464ffffffffff19164264ffffffffff161790555b603f805464ffffffffff19164264ffffffffff1617905586851115610c77576000610c1486896116ea565b9050610c218982876118af565b6040805182815260208101899052808201889052606081018490526080810186905260a0810185905290516001600160a01b038b16918291600080516020611ec68339815191529181900360c00190a350610cec565b6000610c8388876116ea565b9050610c90898287611a13565b6040805182815260208101899052808201889052606081018690526080810185905290516001600160a01b038b16917f44bd20a79e993bdcc7cbedf54a3b4d19fb78490124b6b90d04fe3242eea579e8919081900360a00190a2505b6040805188815290516000916001600160a01b038b1691600080516020611f348339815191529181900360200190a35050505050505050565b6006546001600160a01b031690565b6000610d3e610906565b6001600160a01b0316610d4f61168d565b6001600160a01b03161460405180604001604052806002815260200161323960f01b81525090610dc05760405162461bcd60e51b8152602060048201818152835160248401528351909283926044909101919085019080838360008315610a6f578181015183820152602001610a57565b50610dc9611dd4565b846001600160a01b0316866001600160a01b031614610ded57610ded858786611ae3565b600080610df987611691565b9250925050610e066107b3565b808452603c546080850152610e1b9087611b99565b60028190556020840152610e2e8661172c565b6040840152610e8c610e48610e438489611b99565b61172c565b6040850151610b6c90610e5b90896115b6565b610e86610e678761172c565b6001600160a01b038d166000908152603e6020526040902054906115b6565b90611b99565b60608401819052604080518082019091526002815261373960f01b6020820152906001600160801b031015610f025760405162461bcd60e51b8152602060048201818152835160248401528351909283926044909101919085019080838360008315610a6f578181015183820152602001610a57565b5060608301516001600160a01b0388166000908152603e6020908152604080832093909355603d8152919020805464ffffffffff421664ffffffffff199182168117909255603f80549091169091179055830151610f9890610f639061172c565b610b6c610f7d8660400151896115b690919063ffffffff16565b610e86610f8d886000015161172c565b6080890151906115b6565b603c8190556080840152610fb787610fb08884611b99565b85516118af565b6040805187815290516001600160a01b03891691600091600080516020611f348339815191529181900360200190a3866001600160a01b0316886001600160a01b0316600080516020611ec6833981519152888585886060015189608001518a6020015160405180878152602001868152602001858152602001848152602001838152602001828152602001965050505050505060405180910390a350159695505050505050565b600181565b80603b600061107161168d565b6001600160a01b03908116825260208083019390935260409182016000908120918716808252919093529120919091556110a961168d565b6001600160a01b0316600080516020611f148339815191526110c9610d25565b604080516001600160a01b039092168252602082018690528051918290030190a35050565b60006110f8611bf1565b60085490915060ff168061110f575061110f611bf6565b8061111b575060075481115b6111565760405162461bcd60e51b815260040180806020018281038252602e815260200180611ee6602e913960400191505060405180910390fd5b60085460ff16158015611176576008805460ff1916600117905560078290555b61117f86611bfc565b61118885611c13565b61119187611c26565b89600560016101000a8154816001600160a01b0302191690836001600160a01b0316021790555088600660006101000a8154816001600160a01b0302191690836001600160a01b0316021790555087603f60056101000a8154816001600160a01b0302191690836001600160a01b03160217905550896001600160a01b0316896001600160a01b03167f40251fbfb6656cfa65a00d7879029fec1fad21d28fdcff2f4f68f52795b74f2c8a8a8a8a8a8a60405180876001600160a01b031681526020018660ff168152602001806020018060200180602001848103845288818151815260200191508051906020019080838360005b8381101561129e578181015183820152602001611286565b50505050905090810190601f1680156112cb5780820380516001836020036101000a031916815260200191505b50848103835287518152875160209182019189019080838360005b838110156112fe5781810151838201526020016112e6565b50505050905090810190601f16801561132b5780820380516001836020036101000a031916815260200191505b508481038252858152602001868680828437600083820152604051601f909101601f19169092018290039b50909950505050505050505050a38015611375576008805460ff191690555b50505050505050505050565b600061088682611587565b600080600560019054906101000a90046001600160a01b03166001600160a01b031663fe65acfe6040518163ffffffff1660e01b815260040160206040518083038186803b1580156113dd57600080fd5b505afa1580156113f1573d6000803e3d6000fd5b505050506040513d602081101561140757600080fd5b505160408051631f94a27560e31b815290519192506000916001600160a01b0384169163fca513a8916004808301926020929190829003018186803b15801561144f57600080fd5b505afa158015611463573d6000803e3d6000fd5b505050506040513d602081101561147957600080fd5b50516006546040805163b3596f0760e01b81526001600160a01b03928316600482015290519293509083169163b3596f0791602480820192602092909190829003018186803b1580156114cb57600080fd5b505afa1580156114df573d6000803e3d6000fd5b505050506040513d60208110156114f557600080fd5b50519250505090565b603f5464ffffffffff1690565b6001600160a01b03166000908152603e602052604090205490565b603c5460009081906115378161153f565b925090509091565b60008061154a611687565b90508061155b576000915050610901565b603f5460009061157390859064ffffffffff166115a2565b905061157f82826115b6565b949350505050565b6001600160a01b031660009081526020819052604090205490565b60006115af838342611c3c565b9392505050565b60008215806115c3575081155b156115d057506000610886565b81676765c793fa10079d601a1b19816115e557fe5b0483111560405180604001604052806002815260200161068760f31b815250906116505760405162461bcd60e51b8152602060048201818152835160248401528351909283926044909101919085019080838360008315610a6f578181015183820152602001610a57565b5050676765c793fa10079d601b1b9102676765c793fa10079d601a1b010490565b603f54600160281b90046001600160a01b031690565b60025490565b3390565b6000806000806116a085611587565b9050806116b8576000806000935093509350506116e3565b60006116cd826116c78861088c565b906116ea565b9050816116da8183611b99565b90955093509150505b9193909250565b60006115af83836040518060400160405280601e81526020017f536166654d6174683a207375627472616374696f6e206f766572666c6f770000815250611d12565b6000633b9aca0082810290839082041460405180604001604052806002815260200161068760f31b815250906117a35760405162461bcd60e51b8152602060048201818152835160248401528351909283926044909101919085019080838360008315610a6f578181015183820152602001610a57565b5092915050565b604080518082019091526002815261035360f41b6020820152600090826118125760405162461bcd60e51b8152602060048201818152835160248401528351909283926044909101919085019080838360008315610a6f578181015183820152602001610a57565b5060408051808201909152600280825261068760f31b6020830152830490676765c793fa10079d601b1b82190485111561188d5760405162461bcd60e51b8152602060048201818152835160248401528351909283926044909101919085019080838360008315610a6f578181015183820152602001610a57565b508281676765c793fa10079d601b1b860201816118a657fe5b04949350505050565b6001600160a01b03808416600090815260208190526040902054603f549091600160281b909104161561195957603f60059054906101000a90046001600160a01b03166001600160a01b0316639b5a734f856040518263ffffffff1660e01b815260040180826001600160a01b03168152602001915050600060405180830381600087803b15801561194057600080fd5b505af1158015611954573d6000803e3d6000fd5b505050505b6119638184611b99565b6001600160a01b03808616600090815260208190526040902091909155603f54600160281b90041615611a0d57603f5460408051631d94f24d60e01b81526001600160a01b03878116600483015260248201859052604482018690529151600160281b90930490911691631d94f24d9160648082019260009290919082900301818387803b1580156119f457600080fd5b505af1158015611a08573d6000803e3d6000fd5b505050505b50505050565b6001600160a01b03808416600090815260208190526040902054603f549091600160281b9091041615611abd57603f60059054906101000a90046001600160a01b03166001600160a01b0316639b5a734f856040518263ffffffff1660e01b815260040180826001600160a01b03168152602001915050600060405180830381600087803b158015611aa457600080fd5b505af1158015611ab8573d6000803e3d6000fd5b505050505b604080518082019091526002815261038360f41b60208201526119639082908590611d12565b6040805180820182526002815261353960f01b6020808301919091526001600160a01b038087166000908152603b83528481209187168152915291822054611b2c918490611d12565b6001600160a01b038086166000818152603b6020908152604080832094891680845294909152902083905591925090600080516020611f14833981519152611b72610d25565b604080516001600160a01b039092168252602082018690528051918290030190a350505050565b6000828201838110156115af576040805162461bcd60e51b815260206004820152601b60248201527a536166654d6174683a206164646974696f6e206f766572666c6f7760281b604482015290519081900360640190fd5b600190565b303b1590565b8051611c0f906003906020840190611e03565b5050565b8051611c0f906004906020840190611e03565b6005805460ff191660ff92909216919091179055565b600080611c508364ffffffffff86166116ea565b905080611c6757611c5f611d6c565b9150506115af565b6000198101600060028311611c7d576000611c82565b600283035b90506301e1338087046000611c9782806115b6565b90506000611ca582846115b6565b905060006002611cbf84611cb98a8a611d7b565b90611d7b565b81611cc657fe5b04905060006006611cdd84611cb989818d8d611d7b565b81611ce457fe5b049050611d0281610e868481611cfa8a8e611d7b565b610e86611d6c565b9c9b505050505050505050505050565b60008184841115611d645760405162461bcd60e51b8152602060048201818152835160248401528351909283926044909101919085019080838360008315610a6f578181015183820152602001610a57565b505050900390565b676765c793fa10079d601b1b90565b600082611d8a57506000610886565b82820282848281611d9757fe5b04146115af5760405162461bcd60e51b8152600401808060200182810382526021815260200180611ea56021913960400191505060405180910390fd5b6040518060a0016040528060008152602001600081526020016000815260200160008152602001600081525090565b828054600181600116156101000203166002900490600052602060002090601f016020900481019282611e395760008555611e7f565b82601f10611e5257805160ff1916838001178555611e7f565b82800160010185558215611e7f579182015b82811115611e7f578251825591602001919060010190611e64565b50611e8b929150611e8f565b5090565b5b80821115611e8b5760008155600101611e9056fe536166654d6174683a206d756c7469706c69636174696f6e206f766572666c6f77c16f4e4ca34d790de4c656c72fd015c667d688f20be64eea360618545c4c530f436f6e747261637420696e7374616e63652068617320616c7265616479206265656e20696e697469616c697a6564da919360433220e13b51e8c211e490d148e61a3bd53de8c097194e458b97f3e1ddf252ad1be2c89b69c2b068fc378daa952ba7f163c4a11628f55a4df523b3efa264697066735822122047ced96ca131ab005278a81126897e2a6981199337e009b111adc013b640082064736f6c63430007060033",
  "devdoc": {
    "author": "Aave*",
    "kind": "dev",
    "methods": {
      "POOL()": {
        "details": "Returns the address of the lending pool where this aToken is used*"
      },
      "UNDERLYING_ASSET_ADDRESS()": {
        "details": "Returns the address of the underlying asset of this aToken (E.g. WETH for aWETH)*"
      },
      "allowance(address,address)": {
        "details": "Returns the allowance of spender on the tokens owned by owner",
        "params": {
          "owner": "The owner of the tokens",
          "spender": "The user allowed to spend the owner's tokens"
        },
        "returns": {
          "_0": "The amount of owner's tokens spender is allowed to spend*"
        }
      },
      "approve(address,uint256)": {
        "details": "Allows `spender` to spend the tokens owned by _msgSender()",
        "params": {
          "spender": "The user allowed to spend _msgSender() tokens"
        },
        "returns": {
          "_0": "`true`*"
        }
      },
      "approveDelegation(address,uint256)": {
        "details": "delegates borrowing power to a user on the specific debt token",
        "params": {
          "amount": "the maximum amount being delegated. Delegation will still respect the liquidation constraints (even if delegated, a delegatee cannot force a delegator HF to go below 1)*",
          "delegatee": "the address receiving the delegated borrowing power"
        }
      },
      "balanceOf(address)": {
        "details": "Calculates the current user debt balance",
        "returns": {
          "_0": "The accumulated debt of the user*"
        }
      },
      "borrowAllowance(address,address)": {
        "details": "returns the borrow allowance of the user",
        "params": {
          "fromUser": "The user to giving allowance",
          "toUser": "The user to give allowance to"
        },
        "returns": {
          "_0": "the current allowance of toUser*"
        }
      },
      "burn(address,uint256)": {
        "details": "Burns debt of `user`",
        "params": {
          "amount": "The amount of debt tokens getting burned*",
          "user": "The address of the user getting his debt burned"
        }
      },
      "decimals()": {
        "returns": {
          "_0": "The decimals of the token*"
        }
      },
      "decreaseAllowance(address,uint256)": {
        "details": "Decreases the allowance of spender to spend _msgSender() tokens",
        "params": {
          "spender": "The user allowed to spend on behalf of _msgSender()",
          "subtractedValue": "The amount being subtracted to the allowance"
        },
        "returns": {
          "_0": "`true`*"
        }
      },
      "getAverageStableRate()": {
        "details": "Returns the average stable rate across all the stable rate debt",
        "returns": {
          "_0": "the average stable rate*"
        }
      },
      "getIncentivesController()": {
        "details": "Returns the address of the incentives controller contract*"
      },
      "getSupplyData()": {
        "details": "Returns the principal and total supply, the average borrow rate and the last supply update timestamp*"
      },
      "getTotalSupplyAndAvgRate()": {
        "details": "Returns the the total supply and the average stable rate*"
      },
      "getTotalSupplyLastUpdated()": {
        "details": "Returns the timestamp at which the total supply was updated*"
      },
      "getUserLastUpdated(address)": {
        "details": "Returns the timestamp of the last user action",
        "returns": {
          "_0": "The last update timestamp*"
        }
      },
      "getUserStableRate(address)": {
        "details": "Returns the stable rate of the user",
        "params": {
          "user": "The address of the user"
        },
        "returns": {
          "_0": "The stable rate of user*"
        }
      },
      "increaseAllowance(address,uint256)": {
        "details": "Increases the allowance of spender to spend _msgSender() tokens",
        "params": {
          "addedValue": "The amount being added to the allowance",
          "spender": "The user allowed to spend on behalf of _msgSender()"
        },
        "returns": {
          "_0": "`true`*"
        }
      },
      "initialize(address,address,address,uint8,string,string,bytes)": {
        "details": "Initializes the debt token.",
        "params": {
          "debtTokenDecimals": "The decimals of the debtToken, same as the underlying asset's",
          "debtTokenName": "The name of the token",
          "debtTokenSymbol": "The symbol of the token",
          "incentivesController": "The smart contract managing potential incentives distribution",
          "pool": "The address of the lending pool where this aToken will be used",
          "underlyingAsset": "The address of the underlying asset of this aToken (E.g. WETH for aWETH)"
        }
      },
      "mint(address,address,uint256,uint256)": {
        "details": "Mints debt token to the `onBehalfOf` address. -  Only callable by the LendingPool - The resulting rate is the weighted average between the rate of the new debt and the rate of the previous debt",
        "params": {
          "amount": "The amount of debt tokens to mint",
          "onBehalfOf": "The address receiving the debt tokens",
          "rate": "The rate of the debt being minted*",
          "user": "The address receiving the borrowed underlying, being the delegatee in case of credit delegate, or same as `onBehalfOf` otherwise"
        }
      },
      "name()": {
        "returns": {
          "_0": "The name of the token*"
        }
      },
      "principalBalanceOf(address)": {
        "details": "Returns the principal debt balance of the user from",
        "params": {
          "user": "The user's address"
        },
        "returns": {
          "_0": "The debt balance of the user since the last burn/mint action*"
        }
      },
      "symbol()": {
        "returns": {
          "_0": "The symbol of the token*"
        }
      },
      "totalSupply()": {
        "details": "Returns the total supply*"
      },
      "transfer(address,uint256)": {
        "details": "Being non transferrable, the debt token does not implement any of the standard ERC20 functions for transfer and allowance.*"
      },
      "transferFrom(address,address,uint256)": {
        "details": "Executes a transfer of token from sender to recipient, if _msgSender() is allowed to do so",
        "params": {
          "amount": "The amount of tokens being transferred",
          "recipient": "The recipient of the tokens",
          "sender": "The owner of the tokens"
        },
        "returns": {
          "_0": "`true` if the transfer succeeds, `false` otherwise*"
        }
      }
    },
    "title": "StableDebtToken",
    "version": 1
  },
  "userdoc": {
    "kind": "user",
    "methods": {},
    "notice": "Implements a stable debt token to track the borrowing positions of users at stable rate mode",
    "version": 1
  },
  "storageLayout": {
    "storage": [
      {
        "astId": 35200,
        "contract": "contracts/protocol/tokenization/StableDebtToken.sol:StableDebtToken",
        "label": "_balances",
        "offset": 0,
        "slot": "0",
        "type": "t_mapping(t_address,t_uint256)"
      },
      {
        "astId": 35206,
        "contract": "contracts/protocol/tokenization/StableDebtToken.sol:StableDebtToken",
        "label": "_allowances",
        "offset": 0,
        "slot": "1",
        "type": "t_mapping(t_address,t_mapping(t_address,t_uint256))"
      },
      {
        "astId": 35208,
        "contract": "contracts/protocol/tokenization/StableDebtToken.sol:StableDebtToken",
        "label": "_totalSupply",
        "offset": 0,
        "slot": "2",
        "type": "t_uint256"
      },
      {
        "astId": 35210,
        "contract": "contracts/protocol/tokenization/StableDebtToken.sol:StableDebtToken",
        "label": "_name",
        "offset": 0,
        "slot": "3",
        "type": "t_string_storage"
      },
      {
        "astId": 35212,
        "contract": "contracts/protocol/tokenization/StableDebtToken.sol:StableDebtToken",
        "label": "_symbol",
        "offset": 0,
        "slot": "4",
        "type": "t_string_storage"
      },
      {
        "astId": 35214,
        "contract": "contracts/protocol/tokenization/StableDebtToken.sol:StableDebtToken",
        "label": "_decimals",
        "offset": 0,
        "slot": "5",
        "type": "t_uint8"
      },
      {
        "astId": 35216,
        "contract": "contracts/protocol/tokenization/StableDebtToken.sol:StableDebtToken",
        "label": "_pool",
        "offset": 1,
        "slot": "5",
        "type": "t_contract(ILendingPool)11754"
      },
      {
        "astId": 35218,
        "contract": "contracts/protocol/tokenization/StableDebtToken.sol:StableDebtToken",
        "label": "_underlyingAsset",
        "offset": 0,
        "slot": "6",
        "type": "t_address"
      },
      {
        "astId": 29898,
        "contract": "contracts/protocol/tokenization/StableDebtToken.sol:StableDebtToken",
        "label": "lastInitializedRevision",
        "offset": 0,
        "slot": "7",
        "type": "t_uint256"
      },
      {
        "astId": 29901,
        "contract": "contracts/protocol/tokenization/StableDebtToken.sol:StableDebtToken",
        "label": "initializing",
        "offset": 0,
        "slot": "8",
        "type": "t_bool"
      },
      {
        "astId": 29971,
        "contract": "contracts/protocol/tokenization/StableDebtToken.sol:StableDebtToken",
        "label": "______gap",
        "offset": 0,
        "slot": "9",
        "type": "t_array(t_uint256)50_storage"
      },
      {
        "astId": 37279,
        "contract": "contracts/protocol/tokenization/StableDebtToken.sol:StableDebtToken",
        "label": "_borrowAllowances",
        "offset": 0,
        "slot": "59",
        "type": "t_mapping(t_address,t_mapping(t_address,t_uint256))"
      },
      {
        "astId": 35928,
        "contract": "contracts/protocol/tokenization/StableDebtToken.sol:StableDebtToken",
        "label": "_avgStableRate",
        "offset": 0,
        "slot": "60",
        "type": "t_uint256"
      },
      {
        "astId": 35932,
        "contract": "contracts/protocol/tokenization/StableDebtToken.sol:StableDebtToken",
        "label": "_timestamps",
        "offset": 0,
        "slot": "61",
        "type": "t_mapping(t_address,t_uint40)"
      },
      {
        "astId": 35936,
        "contract": "contracts/protocol/tokenization/StableDebtToken.sol:StableDebtToken",
        "label": "_usersStableRate",
        "offset": 0,
        "slot": "62",
        "type": "t_mapping(t_address,t_uint256)"
      },
      {
        "astId": 35938,
        "contract": "contracts/protocol/tokenization/StableDebtToken.sol:StableDebtToken",
        "label": "_totalSupplyTimestamp",
        "offset": 0,
        "slot": "63",
        "type": "t_uint40"
      },
      {
        "astId": 35940,
        "contract": "contracts/protocol/tokenization/StableDebtToken.sol:StableDebtToken",
        "label": "_incentivesController",
        "offset": 5,
        "slot": "63",
        "type": "t_contract(IAaveIncentivesController)10897"
      }
    ],
    "types": {
      "t_address": {
        "encoding": "inplace",
        "label": "address",
        "numberOfBytes": "20"
      },
      "t_array(t_uint256)50_storage": {
        "base": "t_uint256",
        "encoding": "inplace",
        "label": "uint256[50]",
        "numberOfBytes": "1600"
      },
      "t_bool": {
        "encoding": "inplace",
        "label": "bool",
        "numberOfBytes": "1"
      },
      "t_contract(IAaveIncentivesController)10897": {
        "encoding": "inplace",
        "label": "contract IAaveIncentivesController",
        "numberOfBytes": "20"
      },
      "t_contract(ILendingPool)11754": {
        "encoding": "inplace",
        "label": "contract ILendingPool",
        "numberOfBytes": "20"
      },
      "t_mapping(t_address,t_mapping(t_address,t_uint256))": {
        "encoding": "mapping",
        "key": "t_address",
        "label": "mapping(address => mapping(address => uint256))",
        "numberOfBytes": "32",
        "value": "t_mapping(t_address,t_uint256)"
      },
      "t_mapping(t_address,t_uint256)": {
        "encoding": "mapping",
        "key": "t_address",
        "label": "mapping(address => uint256)",
        "numberOfBytes": "32",
        "value": "t_uint256"
      },
      "t_mapping(t_address,t_uint40)": {
        "encoding": "mapping",
        "key": "t_address",
        "label": "mapping(address => uint40)",
        "numberOfBytes": "32",
        "value": "t_uint40"
      },
      "t_string_storage": {
        "encoding": "bytes",
        "label": "string",
        "numberOfBytes": "32"
      },
      "t_uint256": {
        "encoding": "inplace",
        "label": "uint256",
        "numberOfBytes": "32"
      },
      "t_uint40": {
        "encoding": "inplace",
        "label": "uint40",
        "numberOfBytes": "5"
      },
      "t_uint8": {
        "encoding": "inplace",
        "label": "uint8",
        "numberOfBytes": "1"
      }
    }
  }
}