{
  "address": "0xE6b3e0A39D6Fe0160376D24B50f4aC9927D530D6",
  "abi": [
    {
      "anonymous": false,
      "inputs": [
        {
          "indexed": true,
          "internalType": "address",
          "name": "token",
          "type": "address"
        },
        {
          "indexed": true,
          "internalType": "address",
          "name": "user",
          "type": "address"
        },
        {
          "indexed": false,
          "internalType": "uint256",
          "name": "balance",
          "type": "uint256"
        },
        {
          "indexed": false,
          "internalType": "uint256",
          "name": "totalSupply",
          "type": "uint256"
        }
      ],
      "name": "BalanceUpdated",
      "type": "event"
    },
    {
      "anonymous": false,
      "inputs": [
        {
          "indexed": false,
          "internalType": "uint256",
          "name": "_balance",
          "type": "uint256"
        }
      ],
      "name": "ChefReserveEmpty",
      "type": "event"
    },
    {
      "anonymous": false,
      "inputs": [
        {
          "indexed": false,
          "internalType": "uint256",
          "name": "_balance",
          "type": "uint256"
        }
      ],
      "name": "ChefReserveLow",
      "type": "event"
    },
    {
      "anonymous": false,
      "inputs": [
        {
          "indexed": true,
          "internalType": "address",
          "name": "user",
          "type": "address"
        }
      ],
      "name": "Disqualified",
      "type": "event"
    },
    {
      "anonymous": false,
      "inputs": [
        {
          "indexed": false,
          "internalType": "uint256[]",
          "name": "startTimeOffsets",
          "type": "uint256[]"
        },
        {
          "indexed": false,
          "internalType": "uint256[]",
          "name": "rewardsPerSeconds",
          "type": "uint256[]"
        }
      ],
      "name": "EmissionScheduleAppended",
      "type": "event"
    },
    {
      "anonymous": false,
      "inputs": [
        {
          "indexed": false,
          "internalType": "uint8",
          "name": "version",
          "type": "uint8"
        }
      ],
      "name": "Initialized",
      "type": "event"
    },
    {
      "anonymous": false,
      "inputs": [
        {
          "indexed": true,
          "internalType": "address",
          "name": "previousOwner",
          "type": "address"
        },
        {
          "indexed": true,
          "internalType": "address",
          "name": "newOwner",
          "type": "address"
        }
      ],
      "name": "OwnershipTransferred",
      "type": "event"
    },
    {
      "anonymous": false,
      "inputs": [
        {
          "indexed": false,
          "internalType": "address",
          "name": "account",
          "type": "address"
        }
      ],
      "name": "Paused",
      "type": "event"
    },
    {
      "anonymous": false,
      "inputs": [
        {
          "indexed": true,
          "internalType": "uint256",
          "name": "rewardsPerSecond",
          "type": "uint256"
        },
        {
          "indexed": false,
          "internalType": "bool",
          "name": "persist",
          "type": "bool"
        }
      ],
      "name": "RewardsPerSecondUpdated",
      "type": "event"
    },
    {
      "anonymous": false,
      "inputs": [
        {
          "indexed": false,
          "internalType": "address",
          "name": "account",
          "type": "address"
        }
      ],
      "name": "Unpaused",
      "type": "event"
    },
    {
      "inputs": [],
      "name": "accountedRewards",
      "outputs": [
        {
          "internalType": "uint256",
          "name": "",
          "type": "uint256"
        }
      ],
      "stateMutability": "view",
      "type": "function"
    },
    {
      "inputs": [
        {
          "internalType": "address",
          "name": "_token",
          "type": "address"
        },
        {
          "internalType": "uint256",
          "name": "_allocPoint",
          "type": "uint256"
        }
      ],
      "name": "addPool",
      "outputs": [],
      "stateMutability": "nonpayable",
      "type": "function"
    },
    {
      "inputs": [
        {
          "internalType": "address",
          "name": "_user",
          "type": "address"
        }
      ],
      "name": "afterLockUpdate",
      "outputs": [],
      "stateMutability": "nonpayable",
      "type": "function"
    },
    {
      "inputs": [
        {
          "internalType": "address",
          "name": "_user",
          "type": "address"
        }
      ],
      "name": "allPendingRewards",
      "outputs": [
        {
          "internalType": "uint256",
          "name": "pending",
          "type": "uint256"
        }
      ],
      "stateMutability": "view",
      "type": "function"
    },
    {
      "inputs": [
        {
          "internalType": "address[]",
          "name": "_tokens",
          "type": "address[]"
        },
        {
          "internalType": "uint256[]",
          "name": "_allocPoints",
          "type": "uint256[]"
        }
      ],
      "name": "batchUpdateAllocPoint",
      "outputs": [],
      "stateMutability": "nonpayable",
      "type": "function"
    },
    {
      "inputs": [
        {
          "internalType": "address",
          "name": "_user",
          "type": "address"
        }
      ],
      "name": "beforeLockUpdate",
      "outputs": [],
      "stateMutability": "nonpayable",
      "type": "function"
    },
    {
      "inputs": [],
      "name": "bountyManager",
      "outputs": [
        {
          "internalType": "address",
          "name": "",
          "type": "address"
        }
      ],
      "stateMutability": "view",
      "type": "function"
    },
    {
      "inputs": [
        {
          "internalType": "address",
          "name": "_user",
          "type": "address"
        },
        {
          "internalType": "address[]",
          "name": "_tokens",
          "type": "address[]"
        }
      ],
      "name": "claim",
      "outputs": [],
      "stateMutability": "nonpayable",
      "type": "function"
    },
    {
      "inputs": [
        {
          "internalType": "address",
          "name": "_user",
          "type": "address"
        }
      ],
      "name": "claimAll",
      "outputs": [],
      "stateMutability": "nonpayable",
      "type": "function"
    },
    {
      "inputs": [
        {
          "internalType": "address",
          "name": "_user",
          "type": "address"
        },
        {
          "internalType": "bool",
          "name": "_execute",
          "type": "bool"
        }
      ],
      "name": "claimBounty",
      "outputs": [
        {
          "internalType": "bool",
          "name": "issueBaseBounty",
          "type": "bool"
        }
      ],
      "stateMutability": "nonpayable",
      "type": "function"
    },
    {
      "inputs": [],
      "name": "depositedRewards",
      "outputs": [
        {
          "internalType": "uint256",
          "name": "",
          "type": "uint256"
        }
      ],
      "stateMutability": "view",
      "type": "function"
    },
    {
      "inputs": [],
      "name": "eligibilityEnabled",
      "outputs": [
        {
          "internalType": "bool",
          "name": "",
          "type": "bool"
        }
      ],
      "stateMutability": "view",
      "type": "function"
    },
    {
      "inputs": [
        {
          "internalType": "address",
          "name": "",
          "type": "address"
        }
      ],
      "name": "eligibilityExempt",
      "outputs": [
        {
          "internalType": "bool",
          "name": "",
          "type": "bool"
        }
      ],
      "stateMutability": "view",
      "type": "function"
    },
    {
      "inputs": [],
      "name": "eligibleDataProvider",
      "outputs": [
        {
          "internalType": "contract IEligibilityDataProvider",
          "name": "",
          "type": "address"
        }
      ],
      "stateMutability": "view",
      "type": "function"
    },
    {
      "inputs": [
        {
          "internalType": "uint256",
          "name": "",
          "type": "uint256"
        }
      ],
      "name": "emissionSchedule",
      "outputs": [
        {
          "internalType": "uint128",
          "name": "startTimeOffset",
          "type": "uint128"
        },
        {
          "internalType": "uint128",
          "name": "rewardsPerSecond",
          "type": "uint128"
        }
      ],
      "stateMutability": "view",
      "type": "function"
    },
    {
      "inputs": [],
      "name": "emissionScheduleIndex",
      "outputs": [
        {
          "internalType": "uint256",
          "name": "",
          "type": "uint256"
        }
      ],
      "stateMutability": "view",
      "type": "function"
    },
    {
      "inputs": [],
      "name": "endRewardTime",
      "outputs": [
        {
          "internalType": "uint256",
          "name": "",
          "type": "uint256"
        }
      ],
      "stateMutability": "nonpayable",
      "type": "function"
    },
    {
      "inputs": [],
      "name": "endingTime",
      "outputs": [
        {
          "internalType": "uint256",
          "name": "estimatedTime",
          "type": "uint256"
        },
        {
          "internalType": "uint256",
          "name": "lastUpdatedTime",
          "type": "uint256"
        },
        {
          "internalType": "uint256",
          "name": "updateCadence",
          "type": "uint256"
        }
      ],
      "stateMutability": "view",
      "type": "function"
    },
    {
      "inputs": [
        {
          "internalType": "address",
          "name": "_user",
          "type": "address"
        },
        {
          "internalType": "uint256",
          "name": "_balance",
          "type": "uint256"
        },
        {
          "internalType": "uint256",
          "name": "_totalSupply",
          "type": "uint256"
        }
      ],
      "name": "handleActionAfter",
      "outputs": [],
      "stateMutability": "nonpayable",
      "type": "function"
    },
    {
      "inputs": [
        {
          "internalType": "address",
          "name": "_user",
          "type": "address"
        }
      ],
      "name": "handleActionBefore",
      "outputs": [],
      "stateMutability": "nonpayable",
      "type": "function"
    },
    {
      "inputs": [
        {
          "internalType": "address",
          "name": "_poolConfigurator",
          "type": "address"
        },
        {
          "internalType": "contract IEligibilityDataProvider",
          "name": "_eligibleDataProvider",
          "type": "address"
        },
        {
          "internalType": "contract IMiddleFeeDistribution",
          "name": "_rewardMinter",
          "type": "address"
        },
        {
          "internalType": "uint256",
          "name": "_rewardsPerSecond",
          "type": "uint256"
        }
      ],
      "name": "initialize",
      "outputs": [],
      "stateMutability": "nonpayable",
      "type": "function"
    },
    {
      "inputs": [],
      "name": "lastAllPoolUpdate",
      "outputs": [
        {
          "internalType": "uint256",
          "name": "",
          "type": "uint256"
        }
      ],
      "stateMutability": "view",
      "type": "function"
    },
    {
      "inputs": [],
      "name": "lastRPS",
      "outputs": [
        {
          "internalType": "uint256",
          "name": "",
          "type": "uint256"
        }
      ],
      "stateMutability": "view",
      "type": "function"
    },
    {
      "inputs": [],
      "name": "leverager",
      "outputs": [
        {
          "internalType": "contract ILeverager",
          "name": "",
          "type": "address"
        }
      ],
      "stateMutability": "view",
      "type": "function"
    },
    {
      "inputs": [],
      "name": "owner",
      "outputs": [
        {
          "internalType": "address",
          "name": "",
          "type": "address"
        }
      ],
      "stateMutability": "view",
      "type": "function"
    },
    {
      "inputs": [],
      "name": "pause",
      "outputs": [],
      "stateMutability": "nonpayable",
      "type": "function"
    },
    {
      "inputs": [],
      "name": "paused",
      "outputs": [
        {
          "internalType": "bool",
          "name": "",
          "type": "bool"
        }
      ],
      "stateMutability": "view",
      "type": "function"
    },
    {
      "inputs": [
        {
          "internalType": "address",
          "name": "_user",
          "type": "address"
        },
        {
          "internalType": "address[]",
          "name": "_tokens",
          "type": "address[]"
        }
      ],
      "name": "pendingRewards",
      "outputs": [
        {
          "internalType": "uint256[]",
          "name": "",
          "type": "uint256[]"
        }
      ],
      "stateMutability": "view",
      "type": "function"
    },
    {
      "inputs": [],
      "name": "persistRewardsPerSecond",
      "outputs": [
        {
          "internalType": "bool",
          "name": "",
          "type": "bool"
        }
      ],
      "stateMutability": "view",
      "type": "function"
    },
    {
      "inputs": [],
      "name": "poolConfigurator",
      "outputs": [
        {
          "internalType": "address",
          "name": "",
          "type": "address"
        }
      ],
      "stateMutability": "view",
      "type": "function"
    },
    {
      "inputs": [
        {
          "internalType": "address",
          "name": "",
          "type": "address"
        }
      ],
      "name": "poolInfo",
      "outputs": [
        {
          "internalType": "uint256",
          "name": "totalSupply",
          "type": "uint256"
        },
        {
          "internalType": "uint256",
          "name": "allocPoint",
          "type": "uint256"
        },
        {
          "internalType": "uint256",
          "name": "lastRewardTime",
          "type": "uint256"
        },
        {
          "internalType": "uint256",
          "name": "accRewardPerShare",
          "type": "uint256"
        },
        {
          "internalType": "contract IOnwardIncentivesController",
          "name": "onwardIncentives",
          "type": "address"
        }
      ],
      "stateMutability": "view",
      "type": "function"
    },
    {
      "inputs": [],
      "name": "poolLength",
      "outputs": [
        {
          "internalType": "uint256",
          "name": "",
          "type": "uint256"
        }
      ],
      "stateMutability": "view",
      "type": "function"
    },
    {
      "inputs": [
        {
          "internalType": "address",
          "name": "tokenAddress",
          "type": "address"
        },
        {
          "internalType": "uint256",
          "name": "tokenAmount",
          "type": "uint256"
        }
      ],
      "name": "recoverERC20",
      "outputs": [],
      "stateMutability": "nonpayable",
      "type": "function"
    },
    {
      "inputs": [
        {
          "internalType": "uint256",
          "name": "_amount",
          "type": "uint256"
        }
      ],
      "name": "registerRewardDeposit",
      "outputs": [],
      "stateMutability": "nonpayable",
      "type": "function"
    },
    {
      "inputs": [
        {
          "internalType": "uint256",
          "name": "",
          "type": "uint256"
        }
      ],
      "name": "registeredTokens",
      "outputs": [
        {
          "internalType": "address",
          "name": "",
          "type": "address"
        }
      ],
      "stateMutability": "view",
      "type": "function"
    },
    {
      "inputs": [],
      "name": "renounceOwnership",
      "outputs": [],
      "stateMutability": "nonpayable",
      "type": "function"
    },
    {
      "inputs": [],
      "name": "rewardMinter",
      "outputs": [
        {
          "internalType": "contract IMiddleFeeDistribution",
          "name": "",
          "type": "address"
        }
      ],
      "stateMutability": "view",
      "type": "function"
    },
    {
      "inputs": [],
      "name": "rewardsPerSecond",
      "outputs": [
        {
          "internalType": "uint256",
          "name": "",
          "type": "uint256"
        }
      ],
      "stateMutability": "view",
      "type": "function"
    },
    {
      "inputs": [
        {
          "internalType": "address",
          "name": "_bountyManager",
          "type": "address"
        }
      ],
      "name": "setBountyManager",
      "outputs": [],
      "stateMutability": "nonpayable",
      "type": "function"
    },
    {
      "inputs": [
        {
          "internalType": "bool",
          "name": "_newVal",
          "type": "bool"
        }
      ],
      "name": "setEligibilityEnabled",
      "outputs": [],
      "stateMutability": "nonpayable",
      "type": "function"
    },
    {
      "inputs": [
        {
          "internalType": "address",
          "name": "_contract",
          "type": "address"
        },
        {
          "internalType": "bool",
          "name": "_value",
          "type": "bool"
        }
      ],
      "name": "setEligibilityExempt",
      "outputs": [],
      "stateMutability": "nonpayable",
      "type": "function"
    },
    {
      "inputs": [
        {
          "internalType": "uint256[]",
          "name": "_startTimeOffsets",
          "type": "uint256[]"
        },
        {
          "internalType": "uint256[]",
          "name": "_rewardsPerSecond",
          "type": "uint256[]"
        }
      ],
      "name": "setEmissionSchedule",
      "outputs": [],
      "stateMutability": "nonpayable",
      "type": "function"
    },
    {
      "inputs": [
        {
          "internalType": "uint256",
          "name": "_lapse",
          "type": "uint256"
        }
      ],
      "name": "setEndingTimeUpdateCadence",
      "outputs": [],
      "stateMutability": "nonpayable",
      "type": "function"
    },
    {
      "inputs": [
        {
          "internalType": "contract ILeverager",
          "name": "_leverager",
          "type": "address"
        }
      ],
      "name": "setLeverager",
      "outputs": [],
      "stateMutability": "nonpayable",
      "type": "function"
    },
    {
      "inputs": [
        {
          "internalType": "address",
          "name": "_token",
          "type": "address"
        },
        {
          "internalType": "contract IOnwardIncentivesController",
          "name": "_incentives",
          "type": "address"
        }
      ],
      "name": "setOnwardIncentives",
      "outputs": [],
      "stateMutability": "nonpayable",
      "type": "function"
    },
    {
      "inputs": [
        {
          "internalType": "uint256",
          "name": "_rewardsPerSecond",
          "type": "uint256"
        },
        {
          "internalType": "bool",
          "name": "_persist",
          "type": "bool"
        }
      ],
      "name": "setRewardsPerSecond",
      "outputs": [],
      "stateMutability": "nonpayable",
      "type": "function"
    },
    {
      "inputs": [],
      "name": "start",
      "outputs": [],
      "stateMutability": "nonpayable",
      "type": "function"
    },
    {
      "inputs": [],
      "name": "startTime",
      "outputs": [
        {
          "internalType": "uint256",
          "name": "",
          "type": "uint256"
        }
      ],
      "stateMutability": "view",
      "type": "function"
    },
    {
      "inputs": [],
      "name": "totalAllocPoint",
      "outputs": [
        {
          "internalType": "uint256",
          "name": "",
          "type": "uint256"
        }
      ],
      "stateMutability": "view",
      "type": "function"
    },
    {
      "inputs": [
        {
          "internalType": "address",
          "name": "newOwner",
          "type": "address"
        }
      ],
      "name": "transferOwnership",
      "outputs": [],
      "stateMutability": "nonpayable",
      "type": "function"
    },
    {
      "inputs": [],
      "name": "unpause",
      "outputs": [],
      "stateMutability": "nonpayable",
      "type": "function"
    },
    {
      "inputs": [
        {
          "internalType": "address",
          "name": "",
          "type": "address"
        }
      ],
      "name": "userBaseClaimable",
      "outputs": [
        {
          "internalType": "uint256",
          "name": "",
          "type": "uint256"
        }
      ],
      "stateMutability": "view",
      "type": "function"
    },
    {
      "inputs": [
        {
          "internalType": "address",
          "name": "",
          "type": "address"
        },
        {
          "internalType": "address",
          "name": "",
          "type": "address"
        }
      ],
      "name": "userInfo",
      "outputs": [
        {
          "internalType": "uint256",
          "name": "amount",
          "type": "uint256"
        },
        {
          "internalType": "uint256",
          "name": "rewardDebt",
          "type": "uint256"
        },
        {
          "internalType": "uint256",
          "name": "lastClaimTime",
          "type": "uint256"
        }
      ],
      "stateMutability": "view",
      "type": "function"
    }
  ],
  "transactionHash": "0x983384ee98ed3814786cda69054f706615e8cb79f09cce5ae8c9dbafda42c030",
  "args": [],
  "numDeployments": 1,
  "solcInputHash": "f9a584b3299682cbe26aad30c2e16eb5",
  "bytecode": "0x608060405234801561001057600080fd5b50613bb3806100206000396000f3fe608060405234801561001057600080fd5b50600436106103575760003560e01c8063800ce1da116101c8578063be9a655511610104578063de7e410c116100a2578063f2fde38b1161007c578063f2fde38b14610773578063f5fe161014610786578063f6d69c2814610799578063ff66a305146107ac57600080fd5b8063de7e410c1461073f578063eacdaabc14610757578063f187186c1461076057600080fd5b8063cd1a4d86116100de578063cd1a4d86146106f3578063cf756fdf14610706578063d055709014610719578063db3e34611461072c57600080fd5b8063be9a6555146106cb578063bfccff45146106d3578063cccd82b01461066f57600080fd5b80639a7b5f1111610171578063b26770f71161014b578063b26770f714610693578063b36b9ffd146106a6578063ba04a111146106b9578063be05d3fb146106c257600080fd5b80639a7b5f11146105f85780639b5a734f1461066f5780639b8e55631461068057600080fd5b80638da5cb5b116101a25780638da5cb5b146105c15780638e2eba09146105d25780639a0ba2ea146105e557600080fd5b8063800ce1da146105995780638456cb59146105a65780638980f11f146105ae57600080fd5b80633df8161c116102975780636c47a6c31161024057806377329f351161021a57806377329f3514610561578063779f61691461057457806378e979251461057d5780637ab8955d1461058657600080fd5b80636c47a6c31461053e5780636d4f675c14610550578063715018a61461055957600080fd5b80635d8e5d49116102715780635d8e5d49146104ed5780635ea3f4fa146105005780635fe4f7411461051357600080fd5b80633df8161c146104ba5780633f4ba83a146104da5780635c975abb146104e257600080fd5b80631b2064f71161030457806332a9caba116102de57806332a9caba1461044e578063334d0bbd1461046157806334c54230146104945780633adcdfc8146104a757600080fd5b80631b2064f7146104195780631d94f24d1461042657806325dc43871461043b57600080fd5b80630c634248116103355780630c634248146103b25780630f208beb146103bb57806317caf6f11461041057600080fd5b806302a247701461035c5780630702a95d14610377578063081e3eda146103aa575b600080fd5b6103646107bf565b6040519081526020015b60405180910390f35b61039a6103853660046135f7565b60a26020526000908152604090205460ff1681565b604051901515815260200161036e565b609954610364565b610364609c5481565b6103f56103c9366004613614565b60a060209081526000928352604080842090915290825290208054600182015460029092015490919083565b6040805193845260208401929092529082015260600161036e565b610364609f5481565b60985461039a9060ff1681565b61043961043436600461364d565b61095f565b005b610439610449366004613690565b610b54565b61043961045c3660046136b5565b610bb3565b61047461046f3660046136e1565b610d56565b604080516001600160801b0393841681529290911660208301520161036e565b6104396104a2366004613746565b610d8b565b6104396104b53660046135f7565b610f0a565b6104cd6104c83660046137c8565b611201565b60405161036e91906138a2565b610439611396565b60335460ff1661039a565b6104396104fb3660046138e6565b6113a8565b61036461050e3660046135f7565b611442565b60a954610526906001600160a01b031681565b6040516001600160a01b03909116815260200161036e565b60ac5460ad5460ae546103f592919083565b61036460a55481565b61043961150e565b61043961056f3660046135f7565b611520565b61036460a75481565b61036460a35481565b61039a6105943660046138e6565b611584565b60a45461039a9060ff1681565b6104396115f4565b6104396105bc3660046136b5565b611604565b6065546001600160a01b0316610526565b6104396105e03660046137c8565b611632565b6105266105f33660046136e1565b611914565b61063e6106063660046135f7565b609d6020526000908152604090208054600182015460028301546003840154600490940154929391929091906001600160a01b031685565b6040805195865260208601949094529284019190915260608301526001600160a01b0316608082015260a00161036e565b61043961067d3660046135f7565b50565b60a854610526906001600160a01b031681565b6104396106a13660046136e1565b61193e565b60ab54610526906001600160a01b031681565b610364609b5481565b61036460a65481565b61043961199e565b6103646106e13660046135f7565b60a16020526000908152604090205481565b610439610701366004613614565b6119fc565b610439610714366004613914565b611a92565b6104396107273660046136e1565b611d19565b60aa54610526906001600160a01b031681565b60a4546105269061010090046001600160a01b031681565b610364609a5481565b61043961076e3660046135f7565b611d59565b6104396107813660046135f7565b611d83565b610439610794366004613965565b611e10565b6104396107a7366004613746565b611e2b565b6104396107ba3660046135f7565b612153565b60ae5460ad5460009142916107d49190613998565b106107e0575060ac5490565b60006107f960a65460a55461217d90919063ffffffff16565b90506000805b60995481101561091d5760a754609d600060998481548110610823576108236139b0565b60009182526020808320909101546001600160a01b03168352820192909252604001902060020154116108555761090b565b610908610901609f546108fb609a546108f5609d60006099898154811061087e5761087e6139b0565b60009182526020808320909101546001600160a01b0316835282019290925260400181206001015460a7546099805492936108f593609d92908d9081106108c7576108c76139b0565b60009182526020808320909101546001600160a01b031683528201929092526040019020600201549061217d565b90612189565b90612195565b83906121a1565b91505b80610915816139c6565b9150506107ff565b50609a546109305760001960ac55610952565b60a754609a54610944906108fb8486613998565b61094e9190613998565b60ac555b50504260ad555060ac5490565b336000908152609e602052604090205460ff168061099557506109806121ad565b6001600160a01b0316336001600160a01b0316145b6109e65760405162461bcd60e51b815260206004820152600e60248201527f2172546f6b656e207c7c206d666400000000000000000000000000000000000060448201526064015b60405180910390fd5b60a8546001600160a01b0384811691161480610a1a5750610a056121ad565b6001600160a01b0316836001600160a01b0316145b80610a3d57506001600160a01b038316600090815260a2602052604090205460ff165b15610a4757505050565b60a45460ff1615610b485760a954604051630afb040960e01b81526001600160a01b03858116600483015290911690630afb040990602401600060405180830381600087803b158015610a9957600080fd5b505af1158015610aad573d6000803e3d6000fd5b505060a954604051632ef105a160e11b81526001600160a01b0387811660048301529091169250635de20b429150602401602060405180830381865afa158015610afb573d6000803e3d6000fd5b505050506040513d601f19601f82011682018060405250810190610b1f91906139e1565b15610b3557610b3033848484612227565b505050565b610b428360016000612467565b50505050565b610b3033848484612227565b610b5c6126eb565b610b64612745565b609a8290556098805460ff191682151590811790915560405190815282907f91bb2acfac3265da2e9b45e815cdcb50f9b349454c54e812590ecb5d109ae8dc9060200160405180910390a25050565b60a45461010090046001600160a01b03163314610c125760405162461bcd60e51b815260206004820152600b60248201527f6e6f7420616c6c6f77656400000000000000000000000000000000000000000060448201526064016109dd565b6001600160a01b0382166000908152609d602052604090206002015415610c7b5760405162461bcd60e51b815260206004820152601360248201527f706f6f6c20616c7265616479206578697374730000000000000000000000000060448201526064016109dd565b610c836127b1565b609f54610c9090826121a1565b609f556099805460018082019092557f72a152ddfb8e864297c917af52ea6c1c68aead0fee1a62673fcc7e0c94979d000180546001600160a01b03199081166001600160a01b039586169081179092556040805160a08101825260008082526020808301978852428385019081526060840183815260808501848152978452609d835285842094518555985184890155516002840155965160038301559351600490910180549093169616959095179055609e909252919020805460ff19169091179055565b60978181548110610d6657600080fd5b6000918252602090912001546001600160801b038082169250600160801b9091041682565b610d936126eb565b828114610de25760405162461bcd60e51b815260206004820152601660248201527f706172616d73206c656e677468206d69736d617463680000000000000000000060448201526064016109dd565b610dea612745565b609f5460005b84811015610f00576000609d6000888885818110610e1057610e106139b0565b9050602002016020810190610e2591906135f7565b6001600160a01b03166001600160a01b0316815260200190815260200160002090506000816002015411610e905760405162461bcd60e51b81526020600482015260126024820152711c1bdbdb08191bd95cdb89dd08195e1a5cdd60721b60448201526064016109dd565b610ec9858584818110610ea557610ea56139b0565b90506020020135610ec383600101548661217d90919063ffffffff16565b906121a1565b9250848483818110610edd57610edd6139b0565b905060200201358160010181905550508080610ef8906139c6565b915050610df0565b50609f5550505050565b610f126121ad565b6001600160a01b0316336001600160a01b031614610f745760405162461bcd60e51b81526004016109dd9060208082526004908201527f214d464400000000000000000000000000000000000000000000000000000000604082015260600190565b60a45460ff161561067d5760a954604051630afb040960e01b81526001600160a01b03838116600483015290911690630afb040990602401600060405180830381600087803b158015610fc657600080fd5b505af1158015610fda573d6000803e3d6000fd5b505060a954604051632ef105a160e11b81526001600160a01b0385811660048301529091169250635de20b429150602401602060405180830381865afa158015611028573d6000803e3d6000fd5b505050506040513d601f19601f8201168201806040525081019061104c91906139e1565b156111f45760005b6099548110156111f057600060998281548110611073576110736139b0565b6000918252602090912001546040516370a0823160e01b81526001600160a01b038581166004830152909116906370a0823190602401602060405180830381865afa1580156110c6573d6000803e3d6000fd5b505050506040513d601f19601f820116820180604052508101906110ea91906139fe565b9050600060a0600060998581548110611105576111056139b0565b60009182526020808320909101546001600160a01b03908116845283820194909452604092830182209388168252929092529020549050811580159061114b5750808214155b156111db576111db60998481548110611166576111666139b0565b9060005260206000200160009054906101000a90046001600160a01b031685846111d6856111d088609d600060998d815481106111a5576111a56139b0565b60009182526020808320909101546001600160a01b03168352820192909252604001902054906121a1565b9061217d565b612227565b505080806111e8906139c6565b915050611054565b5050565b6111f08160016000612467565b60606000825167ffffffffffffffff81111561121f5761121f6137b2565b604051908082528060200260200182016040528015611248578160200160208202803683370190505b50905060005b835181101561138c57600084828151811061126b5761126b6139b0565b6020908102919091018101516001600160a01b038082166000908152609d8452604080822060a08652818320938c16835292909452929092206003830154835460028501549395509192909190421180156112c557508015155b1561132e5760006112e385600201544261217d90919063ffffffff16565b9050600061130a609f546108fb88600101546108f5609a548761218990919063ffffffff16565b9050611329611322846108fb8464e8d4a51000612189565b85906121a1565b935050505b61135683600101546111d064e8d4a510006108fb86886000015461218990919063ffffffff16565b878781518110611368576113686139b0565b60200260200101818152505050505050508080611384906139c6565b91505061124e565b5090505b92915050565b61139e6126eb565b6113a66127dd565b565b6065546001600160a01b03163314806113cb575060aa546001600160a01b031633145b6114175760405162461bcd60e51b815260206004820152600b60248201527f21617574686f72697a656400000000000000000000000000000000000000000060448201526064016109dd565b6001600160a01b0391909116600090815260a260205260409020805460ff1916911515919091179055565b6001600160a01b038116600090815260a16020908152604080832054609980548351818602810186019094528084529194936114c09387939092918301828280156114b657602002820191906000526020600020905b81546001600160a01b03168152600190910190602001808311611498575b5050505050611201565b905060005b8151811015611507578181815181106114e0576114e06139b0565b6020026020010151836114f39190613998565b9250806114ff816139c6565b9150506114c5565b5050919050565b6115166126eb565b6113a6600061282f565b61067d81609980548060200260200160405190810160405280929190818152602001828054801561157a57602002820191906000526020600020905b81546001600160a01b0316815260019091019060200180831161155c575b5050505050611632565b60ab546000906001600160a01b031633146115e15760405162461bcd60e51b815260206004820152600b60248201527f626f756e7479206f6e6c7900000000000000000000000000000000000000000060448201526064016109dd565b6115ed83836001612467565b9392505050565b6115fc6126eb565b6113a6612881565b61160c6126eb565b6111f06116216065546001600160a01b031690565b6001600160a01b03841690836128be565b61163a61293e565b60a45460ff16156116535761165182600180612467565b505b61165b6127b1565b6001600160a01b038216600090815260a160205260408120805490829055609f5490915b835181101561187c57609e600085838151811061169e5761169e6139b0565b6020908102919091018101516001600160a01b031682528101919091526040016000205460ff166117115760405162461bcd60e51b815260206004820152600e60248201527f696e76616c69642072746f6b656e00000000000000000000000000000000000060448201526064016109dd565b6000609d6000868481518110611729576117296139b0565b60200260200101516001600160a01b03166001600160a01b031681526020019081526020016000209050600081600201541161179c5760405162461bcd60e51b81526020600482015260126024820152711c1bdbdb08191bd95cdb89dd08195e1a5cdd60721b60448201526064016109dd565b6117a68184612991565b600060a060008785815181106117be576117be6139b0565b60200260200101516001600160a01b03166001600160a01b031681526020019081526020016000206000886001600160a01b03166001600160a01b031681526020019081526020016000209050600061183164e8d4a510006108fb8560030154856000015461218990919063ffffffff16565b905061185461184d83600101548361217d90919063ffffffff16565b87906121a1565b6001830191909155426002909201919091559350819050611874816139c6565b91505061167f565b506118878483612a83565b60a960009054906101000a90046001600160a01b03166001600160a01b031663673a7e286040518163ffffffff1660e01b8152600401600060405180830381600087803b1580156118d757600080fd5b505af11580156118eb573d6000803e3d6000fd5b5050505042620697806118fe9190613998565b6119066107bf565b1015610b4257610b42612b26565b6099818154811061192457600080fd5b6000918252602090912001546001600160a01b0316905081565b6119466126eb565b62093a808111156119995760405162461bcd60e51b815260206004820152601060248201527f636164656e636520746f6f206c6f6e670000000000000000000000000000000060448201526064016109dd565b60ae55565b6119a66126eb565b60a354156119f65760405162461bcd60e51b815260206004820152600f60248201527f616c72656164792073746172746564000000000000000000000000000000000060448201526064016109dd565b4260a355565b611a046126eb565b6001600160a01b0382166000908152609d6020526040902060020154611a615760405162461bcd60e51b81526020600482015260126024820152711c1bdbdb08191bd95cdb89dd08195e1a5cdd60721b60448201526064016109dd565b6001600160a01b039182166000908152609d6020526040902060040180546001600160a01b03191691909216179055565b600054610100900460ff1615808015611ab25750600054600160ff909116105b80611acc5750303b158015611acc575060005460ff166001145b611b3e5760405162461bcd60e51b815260206004820152602e60248201527f496e697469616c697a61626c653a20636f6e747261637420697320616c72656160448201527f647920696e697469616c697a656400000000000000000000000000000000000060648201526084016109dd565b6000805460ff191660011790558015611b61576000805461ff0019166101001790555b6001600160a01b038516611baa5760405162461bcd60e51b815260206004820152601060248201526f21696e76616c6964206164647265737360801b60448201526064016109dd565b6001600160a01b038416611bf35760405162461bcd60e51b815260206004820152601060248201526f21696e76616c6964206164647265737360801b60448201526064016109dd565b6001600160a01b038316611c3c5760405162461bcd60e51b815260206004820152601060248201526f21696e76616c6964206164647265737360801b60448201526064016109dd565b611c44612c35565b611c4c612ca8565b60a4805460a980546001600160a01b038881166001600160a01b03199283161790925560a880548884169216919091179055609a8590556098805460ff19908116600190811790925591891661010002919091167fffffffffffffffffffffff000000000000000000000000000000000000000000909216919091171790558015611d12576000805461ff0019169055604051600181527f7f26b83ff96e1f2b6a682f133852f6798a09c465da95921460cefb3847402498906020015b60405180910390a15b5050505050565b611d216126eb565b60a554611d2e90826121a1565b60a555611d39612745565b609a54158015611d4b57506000609b54115b1561067d57609b54609a5550565b611d616126eb565b60aa80546001600160a01b0319166001600160a01b0392909216919091179055565b611d8b6126eb565b6001600160a01b038116611e075760405162461bcd60e51b815260206004820152602660248201527f4f776e61626c653a206e6577206f776e657220697320746865207a65726f206160448201527f646472657373000000000000000000000000000000000000000000000000000060648201526084016109dd565b61067d8161282f565b611e186126eb565b60a4805460ff1916911515919091179055565b611e336126eb565b828015801590611e4257508082145b611e8e5760405162461bcd60e51b815260206004820152601860248201527f656d707479206f72206d69736d6174636820706172616d73000000000000000060448201526064016109dd565b60005b8181101561211d578015611f2a57858582818110611eb157611eb16139b0565b905060200201358686600184611ec79190613a17565b818110611ed657611ed66139b0565b9050602002013510611f2a5760405162461bcd60e51b815260206004820152601360248201527f73686f756c6420626520617363656e64696e670000000000000000000000000060448201526064016109dd565b6001600160801b03868683818110611f4457611f446139b0565b905060200201351115611f995760405162461bcd60e51b815260206004820152601e60248201527f737461727454696d654f666673657473203e206d61782075696e74313238000060448201526064016109dd565b6001600160801b03848483818110611fb357611fb36139b0565b9050602002013511156120085760405162461bcd60e51b815260206004820152601e60248201527f726577617264735065725365636f6e64203e206d61782075696e74313238000060448201526064016109dd565b60a354156120845760a35461201e90429061217d565b868683818110612030576120306139b0565b90506020020135116120845760405162461bcd60e51b815260206004820152601260248201527f696e76616c69642073746172742074696d65000000000000000000000000000060448201526064016109dd565b609760405180604001604052808888858181106120a3576120a36139b0565b905060200201356001600160801b031681526020018686858181106120ca576120ca6139b0565b6001600160801b03602091820293909301358316909352508354600181018555600094855293829020835193909201518116600160801b0292169190911791015580612115816139c6565b915050611e91565b507f0a4b885eafe78f585b7c7667ea419f9b1b17d09dfdf23ffa7925b73db6986f1685858585604051611d099493929190613a7d565b61215b6126eb565b60ab80546001600160a01b0319166001600160a01b0392909216919091179055565b60006115ed8284613a17565b60006115ed8284613aa4565b60006115ed8284613ac3565b60006115ed8284613998565b60008060a860009054906101000a90046001600160a01b03166001600160a01b031663cd57ed6c6040518163ffffffff1660e01b8152600401602060405180830381865afa158015612203573d6000803e3d6000fd5b505050506040513d601f19601f820116820180604052508101906113909190613ae5565b6001600160a01b0384166000908152609d6020526040902060028101546122855760405162461bcd60e51b81526020600482015260126024820152711c1bdbdb08191bd95cdb89dd08195e1a5cdd60721b60448201526064016109dd565b61229181609f54612991565b6001600160a01b03808616600090815260a0602090815260408083209388168352929052208054600383015481156123295760018301546000906122e2906111d064e8d4a510006108fb8787612189565b90508015612327576001600160a01b038816600090815260a1602052604090205461230d90826121a1565b6001600160a01b038916600090815260a160205260409020555b505b825484546123369161217d565b845585835561234e64e8d4a510006108fb8884612189565b6001840155835461235f90876121a1565b845560048401546001600160a01b031615612407576004848101546040517fae0b53710000000000000000000000000000000000000000000000000000000081526001600160a01b038b8116938201939093528983166024820152604481018990526064810188905291169063ae0b537190608401600060405180830381600087803b1580156123ee57600080fd5b505af1158015612402573d6000803e3d6000fd5b505050505b866001600160a01b0316886001600160a01b03167f526824944047da5b81071fb6349412005c5da81380b336103fbe5dd34556c7768888604051612455929190918252602082015260400190565b60405180910390a35050505050505050565b6000808280156124745750835b1561254d5760a954604051630afb040960e01b81526001600160a01b03878116600483015290911690630afb040990602401600060405180830381600087803b1580156124c057600080fd5b505af11580156124d4573d6000803e3d6000fd5b505060a954604051632ef105a160e11b81526001600160a01b0389811660048301529091169250635de20b429150602401602060405180830381865afa158015612522573d6000803e3d6000fd5b505050506040513d601f19601f8201168201806040525081019061254691906139e1565b90506125d7565b60a9546040517f660186e60000000000000000000000000000000000000000000000000000000081526001600160a01b0387811660048301529091169063660186e690602401602060405180830381865afa1580156125b0573d6000803e3d6000fd5b505050506040513d601f19601f820116820180604052508101906125d491906139e1565b90505b60006125e286612d1b565b60a9546040517f6f21a1790000000000000000000000000000000000000000000000000000000081526001600160a01b03898116600483015292935060009290911690636f21a17990602401602060405180830381865afa15801561264b573d6000803e3d6000fd5b505050506040513d601f19601f8201168201806040525081019061266f91906139fe565b90508015158315801561267f5750825b8015612689575080155b1561269357600194505b86801561269d5750845b156126e0576126ab88612da3565b6040516001600160a01b038916907fa77719a89d2325682411f1762214545e5d0fc4b374cc00cb48fcd390a670f2e190600090a25b505050509392505050565b6065546001600160a01b031633146113a65760405162461bcd60e51b815260206004820181905260248201527f4f776e61626c653a2063616c6c6572206973206e6f7420746865206f776e657260448201526064016109dd565b609f5460005b6099548110156127a957612799609d60006099848154811061276f5761276f6139b0565b60009182526020808320909101546001600160a01b03168352820192909252604001902083612991565b6127a2816139c6565b905061274b565b50504260a755565b6127b96107bf565b4211156127d5576127c8612745565b609a8054609b5560009055565b6113a6612fbd565b6127e561308a565b6033805460ff191690557f5db9ee0a495bf2e6ff9c91a7834c1ba4fdd244a5e8aa4e537bd38aeae4b073aa335b6040516001600160a01b03909116815260200160405180910390a1565b606580546001600160a01b038381166001600160a01b0319831681179093556040519116919082907f8be0079c531659141344cd1fd0a4f28419497f9722a3daafe3b4186f6b6457e090600090a35050565b61288961293e565b6033805460ff191660011790557f62e78cea01bee320cd4e420270b5ea74000d11b0c9f74754ebdbfc544b05a2586128123390565b604080516001600160a01b038416602482015260448082018490528251808303909101815260649091019091526020810180517bffffffffffffffffffffffffffffffffffffffffffffffffffffffff167fa9059cbb00000000000000000000000000000000000000000000000000000000179052610b309084906130dc565b60335460ff16156113a65760405162461bcd60e51b815260206004820152601060248201527f5061757361626c653a207061757365640000000000000000000000000000000060448201526064016109dd565b428061299b6107bf565b116129ab576129a86107bf565b90505b826002015481116129bb57505050565b8254806129cf575060029092019190915550565b60006129e885600201548461217d90919063ffffffff16565b90506000612a01609a548361218990919063ffffffff16565b905080612a0c6131c1565b1015612a1d57612a1a6131c1565b90505b6000612a3a866108fb89600101548561218990919063ffffffff16565b60a654909150612a4a90826121a1565b60a655612a6e612a63856108fb8464e8d4a51000612189565b6003890154906121a1565b60038801555050505060029092019190915550565b612a94612a8e6121ad565b826131df565b9050612a9e6121ad565b6040517fd1a1beb40000000000000000000000000000000000000000000000000000000081526001600160a01b0384811660048301526024820184905260016044830152919091169063d1a1beb490606401600060405180830381600087803b158015612b0a57600080fd5b505af1158015612b1e573d6000803e3d6000fd5b505050505050565b60a8546040805163ab453a5960e01b815290516000926001600160a01b03169163ab453a599160048083019260209291908290030181865afa158015612b70573d6000803e3d6000fd5b505050506040513d601f19601f82011682018060405250810190612b949190613ae5565b6040516370a0823160e01b81523060048201529091507f1681e542d7f33ef0ad012aecd346fa867be856110f81d25dcbbd72f972a57a45906001600160a01b038316906370a0823190602401602060405180830381865afa158015612bfd573d6000803e3d6000fd5b505050506040513d601f19601f82011682018060405250810190612c2191906139fe565b60405190815260200160405180910390a150565b600054610100900460ff16612ca05760405162461bcd60e51b815260206004820152602b60248201527f496e697469616c697a61626c653a20636f6e7472616374206973206e6f74206960448201526a6e697469616c697a696e6760a81b60648201526084016109dd565b6113a6613343565b600054610100900460ff16612d135760405162461bcd60e51b815260206004820152602b60248201527f496e697469616c697a61626c653a20636f6e7472616374206973206e6f74206960448201526a6e697469616c697a696e6760a81b60648201526084016109dd565b6113a66133b7565b6000805b609954811015612d9d57600060a0600060998481548110612d4257612d426139b0565b60009182526020808320909101546001600160a01b03908116845283820194909452604092830182209388168252929092529020805490915015612d8a576001925050612d9d565b5080612d95816139c6565b915050612d1f565b50919050565b60a45460ff16612df55760405162461bcd60e51b815260206004820152600360248201527f214545000000000000000000000000000000000000000000000000000000000060448201526064016109dd565b60a954604051632ef105a160e11b81526001600160a01b03838116600483015290911690635de20b4290602401602060405180830381865afa158015612e3f573d6000803e3d6000fd5b505050506040513d601f19601f82011682018060405250810190612e6391906139e1565b15612eb05760405162461bcd60e51b815260206004820152601660248201527f75736572206973207374696c6c20656c696769626c650000000000000000000060448201526064016109dd565b60005b609954811015612f4257600060998281548110612ed257612ed26139b0565b60009182526020808320909101546001600160a01b03908116808452609d8352604080852060a085528186209389168652929093529190922080549193509015612f2e5780548254612f2e91859188916000916111d69161217d565b50505080612f3b906139c6565b9050612eb3565b5060a9546040517fe2c75ca00000000000000000000000000000000000000000000000000000000081526001600160a01b0383811660048301524260248301529091169063e2c75ca090604401600060405180830381600087803b158015612fa957600080fd5b505af1158015611d12573d6000803e3d6000fd5b60985460ff166113a657609754609c5460a354600090612fde90429061217d565b90505b828210801561301b575060978281548110612ffe57612ffe6139b0565b6000918252602090912001546001600160801b0390811690821610155b15613032578161302a816139c6565b925050612fe1565b609c54821115610b3057609c829055613049612745565b6097613056600184613a17565b81548110613066576130666139b0565b600091825260209091200154600160801b90046001600160801b0316609a55505050565b60335460ff166113a65760405162461bcd60e51b815260206004820152601460248201527f5061757361626c653a206e6f742070617573656400000000000000000000000060448201526064016109dd565b6000613131826040518060400160405280602081526020017f5361666545524332303a206c6f772d6c6576656c2063616c6c206661696c6564815250856001600160a01b031661342e9092919063ffffffff16565b805190915015610b30578080602001905181019061314f91906139e1565b610b305760405162461bcd60e51b815260206004820152602a60248201527f5361666545524332303a204552433230206f7065726174696f6e20646964206e60448201527f6f7420737563636565640000000000000000000000000000000000000000000060648201526084016109dd565b60006131da60a65460a55461217d90919063ffffffff16565b905090565b6000816131ee57506000611390565b60a8546040805163ab453a5960e01b815290516000926001600160a01b03169163ab453a599160048083019260209291908290030181865afa158015613238573d6000803e3d6000fd5b505050506040513d601f19601f8201168201806040525081019061325c9190613ae5565b6040516370a0823160e01b81523060048201529091506000906001600160a01b038316906370a0823190602401602060405180830381865afa1580156132a6573d6000803e3d6000fd5b505050506040513d601f19601f820116820180604052508101906132ca91906139fe565b905080841115613326576040518181527f09fb3e34da56fdc0b28f9769c6dcb55321715bc673f744205e208b82c97963c99060200160405180910390a16098805460ff191660011790556000609a55613321612881565b61333a565b61333a6001600160a01b03831686866128be565b50919392505050565b600054610100900460ff166133ae5760405162461bcd60e51b815260206004820152602b60248201527f496e697469616c697a61626c653a20636f6e7472616374206973206e6f74206960448201526a6e697469616c697a696e6760a81b60648201526084016109dd565b6113a63361282f565b600054610100900460ff166134225760405162461bcd60e51b815260206004820152602b60248201527f496e697469616c697a61626c653a20636f6e7472616374206973206e6f74206960448201526a6e697469616c697a696e6760a81b60648201526084016109dd565b6033805460ff19169055565b606061343d8484600085613445565b949350505050565b6060824710156134bd5760405162461bcd60e51b815260206004820152602660248201527f416464726573733a20696e73756666696369656e742062616c616e636520666f60448201527f722063616c6c000000000000000000000000000000000000000000000000000060648201526084016109dd565b600080866001600160a01b031685876040516134d99190613b2e565b60006040518083038185875af1925050503d8060008114613516576040519150601f19603f3d011682016040523d82523d6000602084013e61351b565b606091505b509150915061352c87838387613537565b979650505050505050565b606083156135a357825161359c576001600160a01b0385163b61359c5760405162461bcd60e51b815260206004820152601d60248201527f416464726573733a2063616c6c20746f206e6f6e2d636f6e747261637400000060448201526064016109dd565b508161343d565b61343d83838151156135b85781518083602001fd5b8060405162461bcd60e51b81526004016109dd9190613b4a565b6001600160a01b038116811461067d57600080fd5b80356135f2816135d2565b919050565b60006020828403121561360957600080fd5b81356115ed816135d2565b6000806040838503121561362757600080fd5b8235613632816135d2565b91506020830135613642816135d2565b809150509250929050565b60008060006060848603121561366257600080fd5b833561366d816135d2565b95602085013595506040909401359392505050565b801515811461067d57600080fd5b600080604083850312156136a357600080fd5b82359150602083013561364281613682565b600080604083850312156136c857600080fd5b82356136d3816135d2565b946020939093013593505050565b6000602082840312156136f357600080fd5b5035919050565b60008083601f84011261370c57600080fd5b50813567ffffffffffffffff81111561372457600080fd5b6020830191508360208260051b850101111561373f57600080fd5b9250929050565b6000806000806040858703121561375c57600080fd5b843567ffffffffffffffff8082111561377457600080fd5b613780888389016136fa565b9096509450602087013591508082111561379957600080fd5b506137a6878288016136fa565b95989497509550505050565b634e487b7160e01b600052604160045260246000fd5b600080604083850312156137db57600080fd5b82356137e6816135d2565b915060208381013567ffffffffffffffff8082111561380457600080fd5b818601915086601f83011261381857600080fd5b81358181111561382a5761382a6137b2565b8060051b604051601f19603f8301168101818110858211171561384f5761384f6137b2565b60405291825284820192508381018501918983111561386d57600080fd5b938501935b8285101561389257613883856135e7565b84529385019392850192613872565b8096505050505050509250929050565b6020808252825182820181905260009190848201906040850190845b818110156138da578351835292840192918401916001016138be565b50909695505050505050565b600080604083850312156138f957600080fd5b8235613904816135d2565b9150602083013561364281613682565b6000806000806080858703121561392a57600080fd5b8435613935816135d2565b93506020850135613945816135d2565b92506040850135613955816135d2565b9396929550929360600135925050565b60006020828403121561397757600080fd5b81356115ed81613682565b634e487b7160e01b600052601160045260246000fd5b600082198211156139ab576139ab613982565b500190565b634e487b7160e01b600052603260045260246000fd5b60006000198214156139da576139da613982565b5060010190565b6000602082840312156139f357600080fd5b81516115ed81613682565b600060208284031215613a1057600080fd5b5051919050565b600082821015613a2957613a29613982565b500390565b81835260007f07ffffffffffffffffffffffffffffffffffffffffffffffffffffffffffffff831115613a6057600080fd5b8260051b8083602087013760009401602001938452509192915050565b604081526000613a91604083018688613a2e565b828103602084015261352c818587613a2e565b6000816000190483118215151615613abe57613abe613982565b500290565b600082613ae057634e487b7160e01b600052601260045260246000fd5b500490565b600060208284031215613af757600080fd5b81516115ed816135d2565b60005b83811015613b1d578181015183820152602001613b05565b83811115610b425750506000910152565b60008251613b40818460208701613b02565b9190910192915050565b6020815260008251806020840152613b69816040850160208701613b02565b601f01601f1916919091016040019291505056fea2646970667358221220d8ced96f0e69839b199dd0ed9612ec1baf694b8811bdd96e7c1c9a24138d90fd64736f6c634300080c0033",
  "devdoc": {
    "kind": "dev",
    "methods": {
      "afterLockUpdate(address)": {
        "details": "Called by the locking contracts after locking or unlocking happens"
      },
      "beforeLockUpdate(address)": {
        "details": "Called by the locking contracts before locking or unlocking happens"
      },
      "handleActionAfter(address,uint256,uint256)": {
        "details": "important! eligible status can be updated here"
      },
      "owner()": {
        "details": "Returns the address of the current owner."
      },
      "paused()": {
        "details": "Returns true if the contract is paused, and false otherwise."
      },
      "renounceOwnership()": {
        "details": "Leaves the contract without owner. It will not be possible to call `onlyOwner` functions anymore. Can only be called by the current owner. NOTE: Renouncing ownership will leave the contract without an owner, thereby removing any functionality that is only available to the owner."
      },
      "setRewardsPerSecond(uint256,bool)": {
        "details": "Its decimals count is ACC_REWARD_PRECISION",
        "params": {
          "_rewardsPerSecond": "The amount of reward to be distributed per second."
        }
      },
      "transferOwnership(address)": {
        "details": "Transfers ownership of the contract to a new account (`newOwner`). Can only be called by the current owner."
      }
    },
    "version": 1
  },
  "userdoc": {
    "kind": "user",
    "methods": {
      "afterLockUpdate(address)": {
        "notice": "Hook for lock update."
      },
      "beforeLockUpdate(address)": {
        "notice": "Hook for lock update."
      },
      "handleActionAfter(address,uint256,uint256)": {
        "notice": "`after` Hook for deposit and borrow update."
      },
      "handleActionBefore(address)": {
        "notice": "`before` Hook for deposit and borrow update."
      },
      "setRewardsPerSecond(uint256,bool)": {
        "notice": "Sets the reward per second to be distributed. Can only be called by the owner."
      }
    },
    "version": 1
  },
  "storageLayout": {
    "storage": [
      {
        "astId": 138,
        "contract": "contracts/radiant/staking/ChefIncentivesController.sol:ChefIncentivesController",
        "label": "_initialized",
        "offset": 0,
        "slot": "0",
        "type": "t_uint8"
      },
      {
        "astId": 141,
        "contract": "contracts/radiant/staking/ChefIncentivesController.sol:ChefIncentivesController",
        "label": "_initializing",
        "offset": 1,
        "slot": "0",
        "type": "t_bool"
      },
      {
        "astId": 752,
        "contract": "contracts/radiant/staking/ChefIncentivesController.sol:ChefIncentivesController",
        "label": "__gap",
        "offset": 0,
        "slot": "1",
        "type": "t_array(t_uint256)50_storage"
      },
      {
        "astId": 321,
        "contract": "contracts/radiant/staking/ChefIncentivesController.sol:ChefIncentivesController",
        "label": "_paused",
        "offset": 0,
        "slot": "51",
        "type": "t_bool"
      },
      {
        "astId": 426,
        "contract": "contracts/radiant/staking/ChefIncentivesController.sol:ChefIncentivesController",
        "label": "__gap",
        "offset": 0,
        "slot": "52",
        "type": "t_array(t_uint256)49_storage"
      },
      {
        "astId": 10,
        "contract": "contracts/radiant/staking/ChefIncentivesController.sol:ChefIncentivesController",
        "label": "_owner",
        "offset": 0,
        "slot": "101",
        "type": "t_address"
      },
      {
        "astId": 130,
        "contract": "contracts/radiant/staking/ChefIncentivesController.sol:ChefIncentivesController",
        "label": "__gap",
        "offset": 0,
        "slot": "102",
        "type": "t_array(t_uint256)49_storage"
      },
      {
        "astId": 4873,
        "contract": "contracts/radiant/staking/ChefIncentivesController.sol:ChefIncentivesController",
        "label": "emissionSchedule",
        "offset": 0,
        "slot": "151",
        "type": "t_array(t_struct(EmissionPoint)4830_storage)dyn_storage"
      },
      {
        "astId": 4875,
        "contract": "contracts/radiant/staking/ChefIncentivesController.sol:ChefIncentivesController",
        "label": "persistRewardsPerSecond",
        "offset": 0,
        "slot": "152",
        "type": "t_bool"
      },
      {
        "astId": 4878,
        "contract": "contracts/radiant/staking/ChefIncentivesController.sol:ChefIncentivesController",
        "label": "registeredTokens",
        "offset": 0,
        "slot": "153",
        "type": "t_array(t_address)dyn_storage"
      },
      {
        "astId": 4880,
        "contract": "contracts/radiant/staking/ChefIncentivesController.sol:ChefIncentivesController",
        "label": "rewardsPerSecond",
        "offset": 0,
        "slot": "154",
        "type": "t_uint256"
      },
      {
        "astId": 4882,
        "contract": "contracts/radiant/staking/ChefIncentivesController.sol:ChefIncentivesController",
        "label": "lastRPS",
        "offset": 0,
        "slot": "155",
        "type": "t_uint256"
      },
      {
        "astId": 4884,
        "contract": "contracts/radiant/staking/ChefIncentivesController.sol:ChefIncentivesController",
        "label": "emissionScheduleIndex",
        "offset": 0,
        "slot": "156",
        "type": "t_uint256"
      },
      {
        "astId": 4889,
        "contract": "contracts/radiant/staking/ChefIncentivesController.sol:ChefIncentivesController",
        "label": "poolInfo",
        "offset": 0,
        "slot": "157",
        "type": "t_mapping(t_address,t_struct(PoolInfo)4825_storage)"
      },
      {
        "astId": 4893,
        "contract": "contracts/radiant/staking/ChefIncentivesController.sol:ChefIncentivesController",
        "label": "validRTokens",
        "offset": 0,
        "slot": "158",
        "type": "t_mapping(t_address,t_bool)"
      },
      {
        "astId": 4895,
        "contract": "contracts/radiant/staking/ChefIncentivesController.sol:ChefIncentivesController",
        "label": "totalAllocPoint",
        "offset": 0,
        "slot": "159",
        "type": "t_uint256"
      },
      {
        "astId": 4902,
        "contract": "contracts/radiant/staking/ChefIncentivesController.sol:ChefIncentivesController",
        "label": "userInfo",
        "offset": 0,
        "slot": "160",
        "type": "t_mapping(t_address,t_mapping(t_address,t_struct(UserInfo)4813_storage))"
      },
      {
        "astId": 4906,
        "contract": "contracts/radiant/staking/ChefIncentivesController.sol:ChefIncentivesController",
        "label": "userBaseClaimable",
        "offset": 0,
        "slot": "161",
        "type": "t_mapping(t_address,t_uint256)"
      },
      {
        "astId": 4910,
        "contract": "contracts/radiant/staking/ChefIncentivesController.sol:ChefIncentivesController",
        "label": "eligibilityExempt",
        "offset": 0,
        "slot": "162",
        "type": "t_mapping(t_address,t_bool)"
      },
      {
        "astId": 4912,
        "contract": "contracts/radiant/staking/ChefIncentivesController.sol:ChefIncentivesController",
        "label": "startTime",
        "offset": 0,
        "slot": "163",
        "type": "t_uint256"
      },
      {
        "astId": 4914,
        "contract": "contracts/radiant/staking/ChefIncentivesController.sol:ChefIncentivesController",
        "label": "eligibilityEnabled",
        "offset": 0,
        "slot": "164",
        "type": "t_bool"
      },
      {
        "astId": 4916,
        "contract": "contracts/radiant/staking/ChefIncentivesController.sol:ChefIncentivesController",
        "label": "poolConfigurator",
        "offset": 1,
        "slot": "164",
        "type": "t_address"
      },
      {
        "astId": 4918,
        "contract": "contracts/radiant/staking/ChefIncentivesController.sol:ChefIncentivesController",
        "label": "depositedRewards",
        "offset": 0,
        "slot": "165",
        "type": "t_uint256"
      },
      {
        "astId": 4920,
        "contract": "contracts/radiant/staking/ChefIncentivesController.sol:ChefIncentivesController",
        "label": "accountedRewards",
        "offset": 0,
        "slot": "166",
        "type": "t_uint256"
      },
      {
        "astId": 4922,
        "contract": "contracts/radiant/staking/ChefIncentivesController.sol:ChefIncentivesController",
        "label": "lastAllPoolUpdate",
        "offset": 0,
        "slot": "167",
        "type": "t_uint256"
      },
      {
        "astId": 4925,
        "contract": "contracts/radiant/staking/ChefIncentivesController.sol:ChefIncentivesController",
        "label": "rewardMinter",
        "offset": 0,
        "slot": "168",
        "type": "t_contract(IMiddleFeeDistribution)3106"
      },
      {
        "astId": 4928,
        "contract": "contracts/radiant/staking/ChefIncentivesController.sol:ChefIncentivesController",
        "label": "eligibleDataProvider",
        "offset": 0,
        "slot": "169",
        "type": "t_contract(IEligibilityDataProvider)2401"
      },
      {
        "astId": 4931,
        "contract": "contracts/radiant/staking/ChefIncentivesController.sol:ChefIncentivesController",
        "label": "leverager",
        "offset": 0,
        "slot": "170",
        "type": "t_contract(ILeverager)3064"
      },
      {
        "astId": 4933,
        "contract": "contracts/radiant/staking/ChefIncentivesController.sol:ChefIncentivesController",
        "label": "bountyManager",
        "offset": 0,
        "slot": "171",
        "type": "t_address"
      },
      {
        "astId": 4943,
        "contract": "contracts/radiant/staking/ChefIncentivesController.sol:ChefIncentivesController",
        "label": "endingTime",
        "offset": 0,
        "slot": "172",
        "type": "t_struct(EndingTime)4940_storage"
      }
    ],
    "types": {
      "t_address": {
        "encoding": "inplace",
        "label": "address",
        "numberOfBytes": "20"
      },
      "t_array(t_address)dyn_storage": {
        "base": "t_address",
        "encoding": "dynamic_array",
        "label": "address[]",
        "numberOfBytes": "32"
      },
      "t_array(t_struct(EmissionPoint)4830_storage)dyn_storage": {
        "base": "t_struct(EmissionPoint)4830_storage",
        "encoding": "dynamic_array",
        "label": "struct ChefIncentivesController.EmissionPoint[]",
        "numberOfBytes": "32"
      },
      "t_array(t_uint256)49_storage": {
        "base": "t_uint256",
        "encoding": "inplace",
        "label": "uint256[49]",
        "numberOfBytes": "1568"
      },
      "t_array(t_uint256)50_storage": {
        "base": "t_uint256",
        "encoding": "inplace",
        "label": "uint256[50]",
        "numberOfBytes": "1600"
      },
      "t_bool": {
        "encoding": "inplace",
        "label": "bool",
        "numberOfBytes": "1"
      },
      "t_contract(IEligibilityDataProvider)2401": {
        "encoding": "inplace",
        "label": "contract IEligibilityDataProvider",
        "numberOfBytes": "20"
      },
      "t_contract(ILeverager)3064": {
        "encoding": "inplace",
        "label": "contract ILeverager",
        "numberOfBytes": "20"
      },
      "t_contract(IMiddleFeeDistribution)3106": {
        "encoding": "inplace",
        "label": "contract IMiddleFeeDistribution",
        "numberOfBytes": "20"
      },
      "t_contract(IOnwardIncentivesController)3312": {
        "encoding": "inplace",
        "label": "contract IOnwardIncentivesController",
        "numberOfBytes": "20"
      },
      "t_mapping(t_address,t_bool)": {
        "encoding": "mapping",
        "key": "t_address",
        "label": "mapping(address => bool)",
        "numberOfBytes": "32",
        "value": "t_bool"
      },
      "t_mapping(t_address,t_mapping(t_address,t_struct(UserInfo)4813_storage))": {
        "encoding": "mapping",
        "key": "t_address",
        "label": "mapping(address => mapping(address => struct ChefIncentivesController.UserInfo))",
        "numberOfBytes": "32",
        "value": "t_mapping(t_address,t_struct(UserInfo)4813_storage)"
      },
      "t_mapping(t_address,t_struct(PoolInfo)4825_storage)": {
        "encoding": "mapping",
        "key": "t_address",
        "label": "mapping(address => struct ChefIncentivesController.PoolInfo)",
        "numberOfBytes": "32",
        "value": "t_struct(PoolInfo)4825_storage"
      },
      "t_mapping(t_address,t_struct(UserInfo)4813_storage)": {
        "encoding": "mapping",
        "key": "t_address",
        "label": "mapping(address => struct ChefIncentivesController.UserInfo)",
        "numberOfBytes": "32",
        "value": "t_struct(UserInfo)4813_storage"
      },
      "t_mapping(t_address,t_uint256)": {
        "encoding": "mapping",
        "key": "t_address",
        "label": "mapping(address => uint256)",
        "numberOfBytes": "32",
        "value": "t_uint256"
      },
      "t_struct(EmissionPoint)4830_storage": {
        "encoding": "inplace",
        "label": "struct ChefIncentivesController.EmissionPoint",
        "members": [
          {
            "astId": 4827,
            "contract": "contracts/radiant/staking/ChefIncentivesController.sol:ChefIncentivesController",
            "label": "startTimeOffset",
            "offset": 0,
            "slot": "0",
            "type": "t_uint128"
          },
          {
            "astId": 4829,
            "contract": "contracts/radiant/staking/ChefIncentivesController.sol:ChefIncentivesController",
            "label": "rewardsPerSecond",
            "offset": 16,
            "slot": "0",
            "type": "t_uint128"
          }
        ],
        "numberOfBytes": "32"
      },
      "t_struct(EndingTime)4940_storage": {
        "encoding": "inplace",
        "label": "struct ChefIncentivesController.EndingTime",
        "members": [
          {
            "astId": 4935,
            "contract": "contracts/radiant/staking/ChefIncentivesController.sol:ChefIncentivesController",
            "label": "estimatedTime",
            "offset": 0,
            "slot": "0",
            "type": "t_uint256"
          },
          {
            "astId": 4937,
            "contract": "contracts/radiant/staking/ChefIncentivesController.sol:ChefIncentivesController",
            "label": "lastUpdatedTime",
            "offset": 0,
            "slot": "1",
            "type": "t_uint256"
          },
          {
            "astId": 4939,
            "contract": "contracts/radiant/staking/ChefIncentivesController.sol:ChefIncentivesController",
            "label": "updateCadence",
            "offset": 0,
            "slot": "2",
            "type": "t_uint256"
          }
        ],
        "numberOfBytes": "96"
      },
      "t_struct(PoolInfo)4825_storage": {
        "encoding": "inplace",
        "label": "struct ChefIncentivesController.PoolInfo",
        "members": [
          {
            "astId": 4815,
            "contract": "contracts/radiant/staking/ChefIncentivesController.sol:ChefIncentivesController",
            "label": "totalSupply",
            "offset": 0,
            "slot": "0",
            "type": "t_uint256"
          },
          {
            "astId": 4817,
            "contract": "contracts/radiant/staking/ChefIncentivesController.sol:ChefIncentivesController",
            "label": "allocPoint",
            "offset": 0,
            "slot": "1",
            "type": "t_uint256"
          },
          {
            "astId": 4819,
            "contract": "contracts/radiant/staking/ChefIncentivesController.sol:ChefIncentivesController",
            "label": "lastRewardTime",
            "offset": 0,
            "slot": "2",
            "type": "t_uint256"
          },
          {
            "astId": 4821,
            "contract": "contracts/radiant/staking/ChefIncentivesController.sol:ChefIncentivesController",
            "label": "accRewardPerShare",
            "offset": 0,
            "slot": "3",
            "type": "t_uint256"
          },
          {
            "astId": 4824,
            "contract": "contracts/radiant/staking/ChefIncentivesController.sol:ChefIncentivesController",
            "label": "onwardIncentives",
            "offset": 0,
            "slot": "4",
            "type": "t_contract(IOnwardIncentivesController)3312"
          }
        ],
        "numberOfBytes": "160"
      },
      "t_struct(UserInfo)4813_storage": {
        "encoding": "inplace",
        "label": "struct ChefIncentivesController.UserInfo",
        "members": [
          {
            "astId": 4808,
            "contract": "contracts/radiant/staking/ChefIncentivesController.sol:ChefIncentivesController",
            "label": "amount",
            "offset": 0,
            "slot": "0",
            "type": "t_uint256"
          },
          {
            "astId": 4810,
            "contract": "contracts/radiant/staking/ChefIncentivesController.sol:ChefIncentivesController",
            "label": "rewardDebt",
            "offset": 0,
            "slot": "1",
            "type": "t_uint256"
          },
          {
            "astId": 4812,
            "contract": "contracts/radiant/staking/ChefIncentivesController.sol:ChefIncentivesController",
            "label": "lastClaimTime",
            "offset": 0,
            "slot": "2",
            "type": "t_uint256"
          }
        ],
        "numberOfBytes": "96"
      },
      "t_uint128": {
        "encoding": "inplace",
        "label": "uint128",
        "numberOfBytes": "16"
      },
      "t_uint256": {
        "encoding": "inplace",
        "label": "uint256",
        "numberOfBytes": "32"
      },
      "t_uint8": {
        "encoding": "inplace",
        "label": "uint8",
        "numberOfBytes": "1"
      }
    }
  }
}