{
  "address": "0x887147Ef05E7a806b754E31D16004CCCa8BA168A",
  "abi": [
    {
      "anonymous": false,
      "inputs": [
        {
          "indexed": false,
          "internalType": "uint8",
          "name": "version",
          "type": "uint8"
        }
      ],
      "name": "Initialized",
      "type": "event"
    },
    {
      "anonymous": false,
      "inputs": [
        {
          "indexed": true,
          "internalType": "address",
          "name": "previousOwner",
          "type": "address"
        },
        {
          "indexed": true,
          "internalType": "address",
          "name": "newOwner",
          "type": "address"
        }
      ],
      "name": "OwnershipTransferred",
      "type": "event"
    },
    {
      "anonymous": false,
      "inputs": [
        {
          "indexed": false,
          "internalType": "address",
          "name": "account",
          "type": "address"
        }
      ],
      "name": "Paused",
      "type": "event"
    },
    {
      "anonymous": false,
      "inputs": [
        {
          "indexed": false,
          "internalType": "address[]",
          "name": "_tokens",
          "type": "address[]"
        }
      ],
      "name": "RewardBaseTokensUpdated",
      "type": "event"
    },
    {
      "anonymous": false,
      "inputs": [
        {
          "indexed": false,
          "internalType": "address",
          "name": "_token",
          "type": "address"
        },
        {
          "indexed": false,
          "internalType": "address[]",
          "name": "_routes",
          "type": "address[]"
        }
      ],
      "name": "RoutesUpdated",
      "type": "event"
    },
    {
      "anonymous": false,
      "inputs": [
        {
          "indexed": false,
          "internalType": "address",
          "name": "account",
          "type": "address"
        }
      ],
      "name": "Unpaused",
      "type": "event"
    },
    {
      "inputs": [],
      "name": "PERCENT_DIVISOR",
      "outputs": [
        {
          "internalType": "uint256",
          "name": "",
          "type": "uint256"
        }
      ],
      "stateMutability": "view",
      "type": "function"
    },
    {
      "inputs": [
        {
          "internalType": "address[]",
          "name": "_tokens",
          "type": "address[]"
        }
      ],
      "name": "addRewardBaseTokens",
      "outputs": [],
      "stateMutability": "nonpayable",
      "type": "function"
    },
    {
      "inputs": [],
      "name": "addressProvider",
      "outputs": [
        {
          "internalType": "address",
          "name": "",
          "type": "address"
        }
      ],
      "stateMutability": "view",
      "type": "function"
    },
    {
      "inputs": [],
      "name": "autocompoundThreshold",
      "outputs": [
        {
          "internalType": "uint256",
          "name": "minStakeAmtEth",
          "type": "uint256"
        }
      ],
      "stateMutability": "view",
      "type": "function"
    },
    {
      "inputs": [],
      "name": "baseToken",
      "outputs": [
        {
          "internalType": "address",
          "name": "",
          "type": "address"
        }
      ],
      "stateMutability": "view",
      "type": "function"
    },
    {
      "inputs": [],
      "name": "bountyManager",
      "outputs": [
        {
          "internalType": "address",
          "name": "",
          "type": "address"
        }
      ],
      "stateMutability": "view",
      "type": "function"
    },
    {
      "inputs": [
        {
          "internalType": "address",
          "name": "_user",
          "type": "address"
        },
        {
          "internalType": "bool",
          "name": "_execute",
          "type": "bool"
        }
      ],
      "name": "claimCompound",
      "outputs": [
        {
          "internalType": "uint256",
          "name": "fee",
          "type": "uint256"
        }
      ],
      "stateMutability": "nonpayable",
      "type": "function"
    },
    {
      "inputs": [],
      "name": "compoundFee",
      "outputs": [
        {
          "internalType": "uint256",
          "name": "",
          "type": "uint256"
        }
      ],
      "stateMutability": "view",
      "type": "function"
    },
    {
      "inputs": [
        {
          "internalType": "address",
          "name": "_uniRouter",
          "type": "address"
        },
        {
          "internalType": "address",
          "name": "_mfd",
          "type": "address"
        },
        {
          "internalType": "address",
          "name": "_baseToken",
          "type": "address"
        },
        {
          "internalType": "address",
          "name": "_addressProvider",
          "type": "address"
        },
        {
          "internalType": "address",
          "name": "_lockZap",
          "type": "address"
        },
        {
          "internalType": "uint256",
          "name": "_compoundFee",
          "type": "uint256"
        },
        {
          "internalType": "uint256",
          "name": "_slippageLimit",
          "type": "uint256"
        }
      ],
      "name": "initialize",
      "outputs": [],
      "stateMutability": "nonpayable",
      "type": "function"
    },
    {
      "inputs": [
        {
          "internalType": "address",
          "name": "_user",
          "type": "address"
        },
        {
          "internalType": "uint256",
          "name": "_pending",
          "type": "uint256"
        }
      ],
      "name": "isEligibleForAutoCompound",
      "outputs": [
        {
          "internalType": "bool",
          "name": "",
          "type": "bool"
        }
      ],
      "stateMutability": "view",
      "type": "function"
    },
    {
      "inputs": [
        {
          "internalType": "uint256",
          "name": "_pending",
          "type": "uint256"
        }
      ],
      "name": "isEligibleForCompound",
      "outputs": [
        {
          "internalType": "bool",
          "name": "eligible",
          "type": "bool"
        }
      ],
      "stateMutability": "view",
      "type": "function"
    },
    {
      "inputs": [
        {
          "internalType": "address",
          "name": "",
          "type": "address"
        }
      ],
      "name": "lastAutocompound",
      "outputs": [
        {
          "internalType": "uint256",
          "name": "",
          "type": "uint256"
        }
      ],
      "stateMutability": "view",
      "type": "function"
    },
    {
      "inputs": [],
      "name": "lockZap",
      "outputs": [
        {
          "internalType": "address",
          "name": "",
          "type": "address"
        }
      ],
      "stateMutability": "view",
      "type": "function"
    },
    {
      "inputs": [],
      "name": "multiFeeDistribution",
      "outputs": [
        {
          "internalType": "address",
          "name": "",
          "type": "address"
        }
      ],
      "stateMutability": "view",
      "type": "function"
    },
    {
      "inputs": [],
      "name": "owner",
      "outputs": [
        {
          "internalType": "address",
          "name": "",
          "type": "address"
        }
      ],
      "stateMutability": "view",
      "type": "function"
    },
    {
      "inputs": [],
      "name": "pause",
      "outputs": [],
      "stateMutability": "nonpayable",
      "type": "function"
    },
    {
      "inputs": [],
      "name": "paused",
      "outputs": [
        {
          "internalType": "bool",
          "name": "",
          "type": "bool"
        }
      ],
      "stateMutability": "view",
      "type": "function"
    },
    {
      "inputs": [],
      "name": "priceProvider",
      "outputs": [
        {
          "internalType": "address",
          "name": "",
          "type": "address"
        }
      ],
      "stateMutability": "view",
      "type": "function"
    },
    {
      "inputs": [],
      "name": "rdntToken",
      "outputs": [
        {
          "internalType": "contract IMintableToken",
          "name": "",
          "type": "address"
        }
      ],
      "stateMutability": "view",
      "type": "function"
    },
    {
      "inputs": [],
      "name": "renounceOwnership",
      "outputs": [],
      "stateMutability": "nonpayable",
      "type": "function"
    },
    {
      "inputs": [
        {
          "internalType": "uint256",
          "name": "",
          "type": "uint256"
        }
      ],
      "name": "rewardBaseTokens",
      "outputs": [
        {
          "internalType": "address",
          "name": "",
          "type": "address"
        }
      ],
      "stateMutability": "view",
      "type": "function"
    },
    {
      "inputs": [
        {
          "internalType": "address",
          "name": "",
          "type": "address"
        },
        {
          "internalType": "uint256",
          "name": "",
          "type": "uint256"
        }
      ],
      "name": "rewardToBaseRoute",
      "outputs": [
        {
          "internalType": "address",
          "name": "",
          "type": "address"
        }
      ],
      "stateMutability": "view",
      "type": "function"
    },
    {
      "inputs": [],
      "name": "selfCompound",
      "outputs": [
        {
          "internalType": "uint256",
          "name": "fee",
          "type": "uint256"
        }
      ],
      "stateMutability": "nonpayable",
      "type": "function"
    },
    {
      "inputs": [],
      "name": "selfEligibleCompound",
      "outputs": [
        {
          "internalType": "bool",
          "name": "eligible",
          "type": "bool"
        }
      ],
      "stateMutability": "view",
      "type": "function"
    },
    {
      "inputs": [
        {
          "internalType": "address",
          "name": "_manager",
          "type": "address"
        }
      ],
      "name": "setBountyManager",
      "outputs": [],
      "stateMutability": "nonpayable",
      "type": "function"
    },
    {
      "inputs": [
        {
          "internalType": "uint256",
          "name": "_compoundFee",
          "type": "uint256"
        }
      ],
      "name": "setCompoundFee",
      "outputs": [],
      "stateMutability": "nonpayable",
      "type": "function"
    },
    {
      "inputs": [
        {
          "internalType": "address",
          "name": "_token",
          "type": "address"
        },
        {
          "internalType": "address[]",
          "name": "_routes",
          "type": "address[]"
        }
      ],
      "name": "setRoutes",
      "outputs": [],
      "stateMutability": "nonpayable",
      "type": "function"
    },
    {
      "inputs": [
        {
          "internalType": "uint256",
          "name": "_slippageLimit",
          "type": "uint256"
        }
      ],
      "name": "setSlippageLimit",
      "outputs": [],
      "stateMutability": "nonpayable",
      "type": "function"
    },
    {
      "inputs": [],
      "name": "slippageLimit",
      "outputs": [
        {
          "internalType": "uint256",
          "name": "",
          "type": "uint256"
        }
      ],
      "stateMutability": "view",
      "type": "function"
    },
    {
      "inputs": [
        {
          "internalType": "address",
          "name": "newOwner",
          "type": "address"
        }
      ],
      "name": "transferOwnership",
      "outputs": [],
      "stateMutability": "nonpayable",
      "type": "function"
    },
    {
      "inputs": [],
      "name": "uniRouter",
      "outputs": [
        {
          "internalType": "address",
          "name": "",
          "type": "address"
        }
      ],
      "stateMutability": "view",
      "type": "function"
    },
    {
      "inputs": [],
      "name": "unpause",
      "outputs": [],
      "stateMutability": "nonpayable",
      "type": "function"
    },
    {
      "inputs": [
        {
          "internalType": "address",
          "name": "_user",
          "type": "address"
        }
      ],
      "name": "userEligibleForCompound",
      "outputs": [
        {
          "internalType": "bool",
          "name": "eligible",
          "type": "bool"
        }
      ],
      "stateMutability": "view",
      "type": "function"
    },
    {
      "inputs": [
        {
          "internalType": "address",
          "name": "_user",
          "type": "address"
        }
      ],
      "name": "viewPendingRewards",
      "outputs": [
        {
          "internalType": "address[]",
          "name": "tokens",
          "type": "address[]"
        },
        {
          "internalType": "uint256[]",
          "name": "amts",
          "type": "uint256[]"
        }
      ],
      "stateMutability": "view",
      "type": "function"
    },
    {
      "inputs": [
        {
          "internalType": "uint256",
          "name": "",
          "type": "uint256"
        }
      ],
      "name": "wethToRadiant",
      "outputs": [
        {
          "internalType": "address",
          "name": "",
          "type": "address"
        }
      ],
      "stateMutability": "view",
      "type": "function"
    }
  ],
  "transactionHash": "0xc53f9d3425af7a41e343c481fc60669fbb2d6aafeb02a0dc008d2bffef37aa65",
  "args": [],
  "numDeployments": 1,
  "solcInputHash": "f54c80fadb1017091d92ff7e19a408d3",
  "bytecode": "0x608060405234801561001057600080fd5b50613122806100206000396000f3fe608060405234801561001057600080fd5b50600436106102415760003560e01c80635c975abb11610145578063b19f2dbc116100bd578063c55dae631161008c578063e08094c811610071578063e08094c814610494578063f2fde38b146104a7578063ff66a305146104ba57600080fd5b8063c55dae631461046e578063d3cb96fa1461048157600080fd5b8063b19f2dbc14610422578063b33f952714610435578063b36b9ffd14610448578063b888879e1461045b57600080fd5b806378940b6c116101145780638da5cb5b116100f95780638da5cb5b146103eb5780638f432074146103fc578063a0e47bf61461040f57600080fd5b806378940b6c146103db5780638456cb59146103e357600080fd5b80635c975abb146103ad57806365ee91a7146103b85780636eec47ce146103c0578063715018a6146103d357600080fd5b80633299fcc7116101d85780634870dd9a116101a7578063542b3cb81161018c578063542b3cb81461037e57806356dac67b146103915780635b07871a146103a457600080fd5b80634870dd9a146103625780634c6f71311461036b57600080fd5b80633299fcc7146103035780633d717544146103245780633f4ba83a146103375780634451a2a21461033f57600080fd5b80631fe4ba17116102145780631fe4ba17146102c057806327ec5066146102d55780632954018c146102e85780633239d438146102fb57600080fd5b806306346c30146102465780630a6c3bb21461027657806317053a7e1461028d5780631be6fde3146102ad575b600080fd5b60a154610259906001600160a01b031681565b6040516001600160a01b0390911681526020015b60405180910390f35b61027f60975481565b60405190815260200161026d565b61027f61029b3660046128f3565b60a36020526000908152604090205481565b6102596102bb366004612917565b6104cd565b6102d36102ce366004612917565b6104f7565b005b6102d36102e3366004612917565b610568565b609b54610259906001600160a01b031681565b61027f6105d3565b6103166103113660046128f3565b610756565b60405161026d929190612974565b6102d3610332366004612ad3565b6109ed565b6102d3610a5c565b61035261034d366004612917565b610a6e565b604051901515815260200161026d565b61027f61271081565b609954610259906001600160a01b031681565b60a054610259906001600160a01b031681565b61035261039f3660046128f3565b610a81565b61027f60985481565b60655460ff16610352565b610352610ac4565b6102596103ce366004612917565b610b06565b6102d3610b16565b61027f610b28565b6102d3610b3a565b6033546001600160a01b0316610259565b61027f61040a366004612b31565b610b4a565b609f54610259906001600160a01b031681565b6102d3610430366004612b6a565b610e5a565b6102d3610443366004612b9f565b610eb0565b60a254610259906001600160a01b031681565b609c54610259906001600160a01b031681565b609a54610259906001600160a01b031681565b61025961048f366004612c22565b6113ad565b6103526104a2366004612c22565b6113e5565b6102d36104b53660046128f3565b6114db565b6102d36104c83660046128f3565b61156b565b609e81815481106104dd57600080fd5b6000918252602090912001546001600160a01b0316905081565b6104ff6115eb565b611f408110158015610512575061271081105b6105635760405162461bcd60e51b815260206004820152601660248201527f496e76616c696420736c697070616765206c696d69740000000000000000000060448201526064015b60405180910390fd5b609855565b6105706115eb565b60008111801561058257506107d08111155b6105ce5760405162461bcd60e51b815260206004820152601460248201527f496e76616c696420636f6d706f756e6420666565000000000000000000000000604482015260640161055a565b609755565b609c5460a254604080517fd9cdd51300000000000000000000000000000000000000000000000000000000815290516000936001600160a01b0390811693859391169163d9cdd513916004808201926020929091908290030181865afa158015610641573d6000803e3d6000fd5b505050506040513d601f19601f820116820180604052508101906106659190612c4e565b90506000826001600160a01b0316636f5cdb6c6040518163ffffffff1660e01b8152600401602060405180830381865afa1580156106a7573d6000803e3d6000fd5b505050506040513d601f19601f820116820180604052508101906106cb9190612c4e565b9050826001600160a01b031663313ce5676040518163ffffffff1660e01b8152600401602060405180830381865afa15801561070b573d6000803e3d6000fd5b505050506040513d601f19601f8201168201806040525081019061072f9190612c4e565b61073a90600a612d61565b6107448284612d6d565b61074e9190612d8c565b935050505090565b60a0546040517fdc01f60d0000000000000000000000000000000000000000000000000000000081526001600160a01b03838116600483015260609283926000929091169063dc01f60d90602401600060405180830381865afa1580156107c1573d6000803e3d6000fd5b505050506040513d6000823e601f3d908101601f191682016040526107e99190810190612dae565b9050600181516107f99190612e62565b67ffffffffffffffff811115610811576108116129cb565b60405190808252806020026020018201604052801561083a578160200160208202803683370190505b5092506001815161084b9190612e62565b67ffffffffffffffff811115610863576108636129cb565b60405190808252806020026020018201604052801561088c578160200160208202803683370190505b5091506000805b82518110156109e55760995483516001600160a01b03909116908490839081106108bf576108bf612e79565b6020026020010151600001516001600160a01b0316146109d3578281815181106108eb576108eb612e79565b6020026020010151600001516001600160a01b031663b16a19de6040518163ffffffff1660e01b8152600401602060405180830381865afa158015610934573d6000803e3d6000fd5b505050506040513d601f19601f820116820180604052508101906109589190612e8f565b85838151811061096a5761096a612e79565b60200260200101906001600160a01b031690816001600160a01b03168152505082818151811061099c5761099c612e79565b6020026020010151602001518483815181106109ba576109ba612e79565b6020908102919091010152816109cf81612eac565b9250505b806109dd81612eac565b915050610893565b505050915091565b6109f56115eb565b6001600160a01b038216600090815260a4602090815260409091208251610a1e92840190612864565b507fbdcf5c7cd2942fc5ccabe6763e7068cae07e81eab2274cbf60f941357fc726c08282604051610a50929190612ec7565b60405180910390a15050565b610a646115eb565b610a6c611645565b565b6000610a786105d3565b90911015919050565b6000806000610a8f84610756565b609a549193509150600090610ab090849084906001600160a01b0316611697565b9050610aba6105d3565b1115949350505050565b6000806000610ad233610756565b609a549193509150600090610af390849084906001600160a01b0316611697565b9050610afd6105d3565b11159392505050565b609d81815481106104dd57600080fd5b610b1e6115eb565b610a6c600061175b565b6000610b35336001610b4a565b905090565b610b426115eb565b610a6c6117ad565b6000610b5860655460ff1690565b15610b6557506000610e54565b6001600160a01b038316331415600080610b7e86610756565b609a549193509150600090610b9f90849084906001600160a01b0316611697565b90508315610c765760a2546001600160a01b03163314610c015760405162461bcd60e51b815260206004820152600e60248201527f21626f756e74796d616e61676572000000000000000000000000000000000000604482015260640161055a565b6000610c0d88836113e5565b905080610c70578615610c625760405162461bcd60e51b815260206004820152601d60248201527f6e6f7420656c696769626c6520666f72206175746f636f6d706f756e64000000604482015260640161055a565b600095505050505050610e54565b50610ccb565b610c7f81610a6e565b610ccb5760405162461bcd60e51b815260206004820152601560248201527f6d696e207374616b6520616d74206e6f74206d65740000000000000000000000604482015260640161055a565b85610d05576000610cdc82886117ea565b905061271060975482610cef9190612d6d565b610cf99190612d8c565b95505050505050610e54565b6000610d1088611a98565b60985490915082610d2383612710612d6d565b610d2d9190612d8c565b1015610d7b5760405162461bcd60e51b815260206004820152601160248201527f746f6f206d75636820736c697070616765000000000000000000000000000000604482015260640161055a565b8415610da857610da561271060975483610d959190612d6d565b610d9f9190612d8c565b886117ea565b95505b610db188611ec2565b508415610e4e5760995460a25460405163095ea7b360e01b81526001600160a01b0391821660048201526024810189905291169063095ea7b3906044016020604051808303816000875af1158015610e0d573d6000803e3d6000fd5b505050506040513d601f19601f82011682018060405250810190610e319190612ee9565b506001600160a01b038816600090815260a3602052604090204290555b50505050505b92915050565b610e626115eb565b8051610e7590609d906020840190612864565b507fb55f0df293d67d65dc862e41c2fbfc662b213b761342ac229f5a24f3c70bfe3381604051610ea59190612f06565b60405180910390a150565b600054610100900460ff1615808015610ed05750600054600160ff909116105b80610eea5750303b158015610eea575060005460ff166001145b610f5c5760405162461bcd60e51b815260206004820152602e60248201527f496e697469616c697a61626c653a20636f6e747261637420697320616c72656160448201527f647920696e697469616c697a6564000000000000000000000000000000000000606482015260840161055a565b6000805460ff191660011790558015610f7f576000805461ff0019166101001790555b6001600160a01b038816610fc35760405162461bcd60e51b815260206004820152600b60248201526a307830206164647265737360a81b604482015260640161055a565b6001600160a01b0387166110075760405162461bcd60e51b815260206004820152600b60248201526a307830206164647265737360a81b604482015260640161055a565b6001600160a01b03861661104b5760405162461bcd60e51b815260206004820152600b60248201526a307830206164647265737360a81b604482015260640161055a565b6001600160a01b03851661108f5760405162461bcd60e51b815260206004820152600b60248201526a307830206164647265737360a81b604482015260640161055a565b6001600160a01b0384166110d35760405162461bcd60e51b815260206004820152600b60248201526a307830206164647265737360a81b604482015260640161055a565b6000831180156110e557506107d08311155b6111315760405162461bcd60e51b815260206004820152601460248201527f496e76616c696420636f6d706f756e6420666565000000000000000000000000604482015260640161055a565b611f408210158015611144575061271082105b6111905760405162461bcd60e51b815260206004820152601660248201527f496e76616c696420736c697070616765206c696d697400000000000000000000604482015260640161055a565b609f80546001600160a01b03808b166001600160a01b03199283161790925560a080548a84169083168117909155609a80548a8516908416179055609b805489851690841617905560a1805493881693909216929092179055604080517f4c6f71310000000000000000000000000000000000000000000000000000000081529051634c6f7131916004818101926020929091908290030181865afa15801561123d573d6000803e3d6000fd5b505050506040513d601f19601f820116820180604052508101906112619190612e8f565b609980546001600160a01b0319166001600160a01b0392831617905560a054604080517f0a065fb600000000000000000000000000000000000000000000000000000000815290519190921691630a065fb69160048083019260209291908290030181865afa1580156112d8573d6000803e3d6000fd5b505050506040513d601f19601f820116820180604052508101906112fc9190612e8f565b609c80546001600160a01b0319166001600160a01b0392831617905560408051808201909152609a5482168152609954909116602082015261134290609e906002612864565b5060978390556098829055611355611fff565b61135d612072565b80156113a3576000805461ff0019169055604051600181527f7f26b83ff96e1f2b6a682f133852f6798a09c465da95921460cefb38474024989060200160405180910390a15b5050505050505050565b60a460205281600052604060002081815481106113c957600080fd5b6000918252602090912001546001600160a01b03169150829050565b6001600160a01b038216600090815260a3602052604081205460019015611433576001600160a01b038416600090815260a36020526040902054620151809061142e9042612e62565b101590505b60a0546040517fada71bc20000000000000000000000000000000000000000000000000000000081526001600160a01b0386811660048301529091169063ada71bc290602401602060405180830381865afa158015611496573d6000803e3d6000fd5b505050506040513d601f19601f820116820180604052508101906114ba9190612ee9565b80156114ca57506114ca83610a6e565b80156114d35750805b949350505050565b6114e36115eb565b6001600160a01b03811661155f5760405162461bcd60e51b815260206004820152602660248201527f4f776e61626c653a206e6577206f776e657220697320746865207a65726f206160448201527f6464726573730000000000000000000000000000000000000000000000000000606482015260840161055a565b6115688161175b565b50565b6115736115eb565b6001600160a01b0381166115c95760405162461bcd60e51b815260206004820152601a60248201527f626f756e74794d616e6167657220697320302061646472657373000000000000604482015260640161055a565b60a280546001600160a01b0319166001600160a01b0392909216919091179055565b6033546001600160a01b03163314610a6c5760405162461bcd60e51b815260206004820181905260248201527f4f776e61626c653a2063616c6c6572206973206e6f7420746865206f776e6572604482015260640161055a565b61164d6120e5565b6065805460ff191690557f5db9ee0a495bf2e6ff9c91a7834c1ba4fdd244a5e8aa4e537bd38aeae4b073aa335b6040516001600160a01b03909116815260200160405180910390a1565b600082518451146116ea5760405162461bcd60e51b815260206004820152600f60248201527f6c656e677468206d69736d617463680000000000000000000000000000000000604482015260640161055a565b835160005b818110156117525761173486828151811061170c5761170c612e79565b60200260200101518587848151811061172757611727612e79565b6020026020010151612137565b61173e9084612f19565b92508061174a81612eac565b9150506116ef565b50509392505050565b603380546001600160a01b038381166001600160a01b0319831681179093556040519116919082907f8be0079c531659141344cd1fd0a4f28419497f9722a3daafe3b4186f6b6457e090600090a35050565b6117b56123b0565b6065805460ff191660011790557f62e78cea01bee320cd4e420270b5ea74000d11b0c9f74754ebdbfc544b05a25861167a3390565b600080609c60009054906101000a90046001600160a01b03166001600160a01b0316634b94f50e6040518163ffffffff1660e01b8152600401602060405180830381865afa158015611840573d6000803e3d6000fd5b505050506040513d601f19601f820116820180604052508101906118649190612c4e565b90508315611a0b57821561194c57609f54609a5461188f916001600160a01b03918216911686612403565b609f546000906001600160a01b03166338ed17398683609e306118b442610258612f19565b6040518663ffffffff1660e01b81526004016118d4959493929190612f6f565b6000604051808303816000875af11580156118f3573d6000803e3d6000fd5b505050506040513d6000823e601f3d908101601f1916820160405261191b9190810190612fab565b9050806001825161192c9190612e62565b8151811061193c5761193c612e79565b6020026020010151925050611a0b565b609f546040517fd06ca61f0000000000000000000000000000000000000000000000000000000081526000916001600160a01b03169063d06ca61f90611999908890609e90600401613031565b600060405180830381865afa1580156119b6573d6000803e3d6000fd5b505050506040513d6000823e601f3d908101601f191682016040526119de9190810190612fab565b905080600182516119ef9190612e62565b815181106119ff576119ff612e79565b60200260200101519250505b6000611a178383612d6d565b905061271060985486611a2a9190612d6d565b611a349190612d8c565b611a426305f5e10083612d8c565b1015611a905760405162461bcd60e51b815260206004820152601160248201527f746f6f206d75636820736c697070616765000000000000000000000000000000604482015260640161055a565b505092915050565b60a0546040517fb2d6e66d0000000000000000000000000000000000000000000000000000000081526001600160a01b0383811660048301526000921690819063b2d6e66d90602401600060405180830381600087803b158015611afb57600080fd5b505af1158015611b0f573d6000803e3d6000fd5b505050506000609b60009054906101000a90046001600160a01b03166001600160a01b0316630261bf8b6040518163ffffffff1660e01b8152600401602060405180830381865afa158015611b68573d6000803e3d6000fd5b505050506040513d601f19601f82011682018060405250810190611b8c9190612e8f565b905060005b609d54811015611e55576000609d8281548110611bb057611bb0612e79565b6000918252602090912001546040516370a0823160e01b81523060048201526001600160a01b03909116906370a0823190602401602060405180830381865afa158015611c01573d6000803e3d6000fd5b505050506040513d601f19601f82011682018060405250810190611c259190612c4e565b905080611c325750611e43565b6000609d8381548110611c4757611c47612e79565b60009182526020918290200154604080517fb16a19de00000000000000000000000000000000000000000000000000000000815290516001600160a01b039092169263b16a19de926004808401938290030181865afa158015611cae573d6000803e3d6000fd5b505050506040513d601f19601f82011682018060405250810190611cd29190612e8f565b6040517f69328dec0000000000000000000000000000000000000000000000000000000081526001600160a01b03808316600483015260001960248301523060448301529192506000918616906369328dec906064016020604051808303816000875af1158015611d47573d6000803e3d6000fd5b505050506040513d601f19601f82011682018060405250810190611d6b9190612c4e565b609a549091506001600160a01b03838116911614611e3f57609f54611d9d906001600160a01b03848116911683612403565b609f546001600160a01b03838116600090815260a46020526040812091909216916338ed17399184919030611dd442610258612f19565b6040518663ffffffff1660e01b8152600401611df4959493929190612f6f565b6000604051808303816000875af1925050508015611e3457506040513d6000823e601f3d908101601f19168201604052611e319190810190612fab565b60015b611e3d57611e3f565b505b5050505b80611e4d81612eac565b915050611b91565b50609a546040516370a0823160e01b81523060048201526001600160a01b03909116906370a0823190602401602060405180830381865afa158015611e9e573d6000803e3d6000fd5b505050506040513d601f19601f820116820180604052508101906114d39190612c4e565b609a546040516370a0823160e01b815230600482015260009182916001600160a01b03909116906370a0823190602401602060405180830381865afa158015611f0f573d6000803e3d6000fd5b505050506040513d601f19601f82011682018060405250810190611f339190612c4e565b90508015611ff95760a154609a54611f58916001600160a01b03918216911683612403565b60a1546040517fd47808850000000000000000000000000000000000000000000000000000000081526000600482018190526024820184905260448201526001600160a01b0385811660648301529091169063d4780885906084016020604051808303816000875af1158015611fd2573d6000803e3d6000fd5b505050506040513d601f19601f82011682018060405250810190611ff69190612c4e565b91505b50919050565b600054610100900460ff1661206a5760405162461bcd60e51b815260206004820152602b60248201527f496e697469616c697a61626c653a20636f6e7472616374206973206e6f74206960448201526a6e697469616c697a696e6760a81b606482015260840161055a565b610a6c612574565b600054610100900460ff166120dd5760405162461bcd60e51b815260206004820152602b60248201527f496e697469616c697a61626c653a20636f6e7472616374206973206e6f74206960448201526a6e697469616c697a696e6760a81b606482015260840161055a565b610a6c6125e8565b60655460ff16610a6c5760405162461bcd60e51b815260206004820152601460248201527f5061757361626c653a206e6f7420706175736564000000000000000000000000604482015260640161055a565b600080609b60009054906101000a90046001600160a01b03166001600160a01b031663fca513a86040518163ffffffff1660e01b8152600401602060405180830381865afa15801561218d573d6000803e3d6000fd5b505050506040513d601f19601f820116820180604052508101906121b19190612e8f565b60405163b3596f0760e01b81526001600160a01b03878116600483015291925060009183169063b3596f0790602401602060405180830381865afa1580156121fd573d6000803e3d6000fd5b505050506040513d601f19601f820116820180604052508101906122219190612c4e565b60405163b3596f0760e01b81526001600160a01b03878116600483015291925060009184169063b3596f0790602401602060405180830381865afa15801561226d573d6000803e3d6000fd5b505050506040513d601f19601f820116820180604052508101906122919190612c4e565b90506000876001600160a01b031663313ce5676040518163ffffffff1660e01b8152600401602060405180830381865afa1580156122d3573d6000803e3d6000fd5b505050506040513d601f19601f820116820180604052508101906122f7919061304a565b60ff1690506000876001600160a01b031663313ce5676040518163ffffffff1660e01b8152600401602060405180830381865afa15801561233c573d6000803e3d6000fd5b505050506040513d601f19601f82011682018060405250810190612360919061304a565b60ff16905061237082600a612d61565b61237a9084612d6d565b61238582600a612d61565b61238f868a612d6d565b6123999190612d6d565b6123a39190612d8c565b9998505050505050505050565b60655460ff1615610a6c5760405162461bcd60e51b815260206004820152601060248201527f5061757361626c653a2070617573656400000000000000000000000000000000604482015260640161055a565b80158061249657506040517fdd62ed3e0000000000000000000000000000000000000000000000000000000081523060048201526001600160a01b03838116602483015284169063dd62ed3e90604401602060405180830381865afa158015612470573d6000803e3d6000fd5b505050506040513d601f19601f820116820180604052508101906124949190612c4e565b155b6125085760405162461bcd60e51b815260206004820152603660248201527f5361666545524332303a20617070726f76652066726f6d206e6f6e2d7a65726f60448201527f20746f206e6f6e2d7a65726f20616c6c6f77616e636500000000000000000000606482015260840161055a565b604080516001600160a01b038416602482015260448082018490528251808303909101815260649091019091526020810180517bffffffffffffffffffffffffffffffffffffffffffffffffffffffff1663095ea7b360e01b17905261256f90849061265f565b505050565b600054610100900460ff166125df5760405162461bcd60e51b815260206004820152602b60248201527f496e697469616c697a61626c653a20636f6e7472616374206973206e6f74206960448201526a6e697469616c697a696e6760a81b606482015260840161055a565b610a6c3361175b565b600054610100900460ff166126535760405162461bcd60e51b815260206004820152602b60248201527f496e697469616c697a61626c653a20636f6e7472616374206973206e6f74206960448201526a6e697469616c697a696e6760a81b606482015260840161055a565b6065805460ff19169055565b60006126b4826040518060400160405280602081526020017f5361666545524332303a206c6f772d6c6576656c2063616c6c206661696c6564815250856001600160a01b03166127449092919063ffffffff16565b80519091501561256f57808060200190518101906126d29190612ee9565b61256f5760405162461bcd60e51b815260206004820152602a60248201527f5361666545524332303a204552433230206f7065726174696f6e20646964206e60448201527f6f74207375636365656400000000000000000000000000000000000000000000606482015260840161055a565b60606114d3848460008585600080866001600160a01b0316858760405161276b919061309d565b60006040518083038185875af1925050503d80600081146127a8576040519150601f19603f3d011682016040523d82523d6000602084013e6127ad565b606091505b50915091506127be878383876127c9565b979650505050505050565b6060831561283557825161282e576001600160a01b0385163b61282e5760405162461bcd60e51b815260206004820152601d60248201527f416464726573733a2063616c6c20746f206e6f6e2d636f6e7472616374000000604482015260640161055a565b50816114d3565b6114d3838381511561284a5781518083602001fd5b8060405162461bcd60e51b815260040161055a91906130b9565b8280548282559060005260206000209081019282156128b9579160200282015b828111156128b957825182546001600160a01b0319166001600160a01b03909116178255602090920191600190910190612884565b506128c59291506128c9565b5090565b5b808211156128c557600081556001016128ca565b6001600160a01b038116811461156857600080fd5b60006020828403121561290557600080fd5b8135612910816128de565b9392505050565b60006020828403121561292957600080fd5b5035919050565b600081518084526020808501945080840160005b838110156129695781516001600160a01b031687529582019590820190600101612944565b509495945050505050565b6040815260006129876040830185612930565b82810360208481019190915284518083528582019282019060005b818110156129be578451835293830193918301916001016129a2565b5090979650505050505050565b634e487b7160e01b600052604160045260246000fd5b6040805190810167ffffffffffffffff81118282101715612a0457612a046129cb565b60405290565b604051601f8201601f1916810167ffffffffffffffff81118282101715612a3357612a336129cb565b604052919050565b600067ffffffffffffffff821115612a5557612a556129cb565b5060051b60200190565b600082601f830112612a7057600080fd5b81356020612a85612a8083612a3b565b612a0a565b82815260059290921b84018101918181019086841115612aa457600080fd5b8286015b84811015612ac8578035612abb816128de565b8352918301918301612aa8565b509695505050505050565b60008060408385031215612ae657600080fd5b8235612af1816128de565b9150602083013567ffffffffffffffff811115612b0d57600080fd5b612b1985828601612a5f565b9150509250929050565b801515811461156857600080fd5b60008060408385031215612b4457600080fd5b8235612b4f816128de565b91506020830135612b5f81612b23565b809150509250929050565b600060208284031215612b7c57600080fd5b813567ffffffffffffffff811115612b9357600080fd5b6114d384828501612a5f565b600080600080600080600060e0888a031215612bba57600080fd5b8735612bc5816128de565b96506020880135612bd5816128de565b95506040880135612be5816128de565b94506060880135612bf5816128de565b93506080880135612c05816128de565b9699959850939692959460a0840135945060c09093013592915050565b60008060408385031215612c3557600080fd5b8235612c40816128de565b946020939093013593505050565b600060208284031215612c6057600080fd5b5051919050565b634e487b7160e01b600052601160045260246000fd5b600181815b80851115612cb8578160001904821115612c9e57612c9e612c67565b80851615612cab57918102915b93841c9390800290612c82565b509250929050565b600082612ccf57506001610e54565b81612cdc57506000610e54565b8160018114612cf25760028114612cfc57612d18565b6001915050610e54565b60ff841115612d0d57612d0d612c67565b50506001821b610e54565b5060208310610133831016604e8410600b8410161715612d3b575081810a610e54565b612d458383612c7d565b8060001904821115612d5957612d59612c67565b029392505050565b60006129108383612cc0565b6000816000190483118215151615612d8757612d87612c67565b500290565b600082612da957634e487b7160e01b600052601260045260246000fd5b500490565b60006020808385031215612dc157600080fd5b825167ffffffffffffffff811115612dd857600080fd5b8301601f81018513612de957600080fd5b8051612df7612a8082612a3b565b81815260069190911b82018301908381019087831115612e1657600080fd5b928401925b828410156127be5760408489031215612e345760008081fd5b612e3c6129e1565b8451612e47816128de565b81528486015186820152825260409093019290840190612e1b565b600082821015612e7457612e74612c67565b500390565b634e487b7160e01b600052603260045260246000fd5b600060208284031215612ea157600080fd5b8151612910816128de565b6000600019821415612ec057612ec0612c67565b5060010190565b6001600160a01b03831681526040602082015260006114d36040830184612930565b600060208284031215612efb57600080fd5b815161291081612b23565b6020815260006129106020830184612930565b60008219821115612f2c57612f2c612c67565b500190565b6000815480845260208085019450836000528060002060005b838110156129695781546001600160a01b031687529582019560019182019101612f4a565b85815284602082015260a060408201526000612f8e60a0830186612f31565b6001600160a01b0394909416606083015250608001529392505050565b60006020808385031215612fbe57600080fd5b825167ffffffffffffffff811115612fd557600080fd5b8301601f81018513612fe657600080fd5b8051612ff4612a8082612a3b565b81815260059190911b8201830190838101908783111561301357600080fd5b928401925b828410156127be57835182529284019290840190613018565b8281526040602082015260006114d36040830184612f31565b60006020828403121561305c57600080fd5b815160ff8116811461291057600080fd5b60005b83811015613088578181015183820152602001613070565b83811115613097576000848401525b50505050565b600082516130af81846020870161306d565b9190910192915050565b60208152600082518060208401526130d881604085016020870161306d565b601f01601f1916919091016040019291505056fea2646970667358221220ef8c04fb06dba950e31f34e69e2a6849b5344dfd1d9aa789d35052c863698d5564736f6c634300080c0033",
  "devdoc": {
    "kind": "dev",
    "methods": {
      "claimCompound(address,bool)": {
        "details": "Can be auto compound or manual compound",
        "params": {
          "_execute": "whether to execute txn, or just quote (expected amount out for bounty executor)",
          "_user": "user address"
        }
      },
      "owner()": {
        "details": "Returns the address of the current owner."
      },
      "paused()": {
        "details": "Returns true if the contract is paused, and false otherwise."
      },
      "renounceOwnership()": {
        "details": "Leaves the contract without owner. It will not be possible to call `onlyOwner` functions anymore. Can only be called by the current owner. NOTE: Renouncing ownership will leave the contract without an owner, thereby removing any functionality that is only available to the owner."
      },
      "transferOwnership(address)": {
        "details": "Transfers ownership of the contract to a new account (`newOwner`). Can only be called by the current owner."
      }
    },
    "version": 1
  },
  "userdoc": {
    "kind": "user",
    "methods": {
      "claimCompound(address,bool)": {
        "notice": "Compound user's rewards"
      }
    },
    "version": 1
  },
  "storageLayout": {
    "storage": [
      {
        "astId": 3046,
        "contract": "contracts/radiant/accessories/Compounder.sol:Compounder",
        "label": "_initialized",
        "offset": 0,
        "slot": "0",
        "type": "t_uint8"
      },
      {
        "astId": 3049,
        "contract": "contracts/radiant/accessories/Compounder.sol:Compounder",
        "label": "_initializing",
        "offset": 1,
        "slot": "0",
        "type": "t_bool"
      },
      {
        "astId": 3660,
        "contract": "contracts/radiant/accessories/Compounder.sol:Compounder",
        "label": "__gap",
        "offset": 0,
        "slot": "1",
        "type": "t_array(t_uint256)50_storage"
      },
      {
        "astId": 2918,
        "contract": "contracts/radiant/accessories/Compounder.sol:Compounder",
        "label": "_owner",
        "offset": 0,
        "slot": "51",
        "type": "t_address"
      },
      {
        "astId": 3038,
        "contract": "contracts/radiant/accessories/Compounder.sol:Compounder",
        "label": "__gap",
        "offset": 0,
        "slot": "52",
        "type": "t_array(t_uint256)49_storage"
      },
      {
        "astId": 3229,
        "contract": "contracts/radiant/accessories/Compounder.sol:Compounder",
        "label": "_paused",
        "offset": 0,
        "slot": "101",
        "type": "t_bool"
      },
      {
        "astId": 3334,
        "contract": "contracts/radiant/accessories/Compounder.sol:Compounder",
        "label": "__gap",
        "offset": 0,
        "slot": "102",
        "type": "t_array(t_uint256)49_storage"
      },
      {
        "astId": 42539,
        "contract": "contracts/radiant/accessories/Compounder.sol:Compounder",
        "label": "compoundFee",
        "offset": 0,
        "slot": "151",
        "type": "t_uint256"
      },
      {
        "astId": 42541,
        "contract": "contracts/radiant/accessories/Compounder.sol:Compounder",
        "label": "slippageLimit",
        "offset": 0,
        "slot": "152",
        "type": "t_uint256"
      },
      {
        "astId": 42544,
        "contract": "contracts/radiant/accessories/Compounder.sol:Compounder",
        "label": "rdntToken",
        "offset": 0,
        "slot": "153",
        "type": "t_contract(IMintableToken)23226"
      },
      {
        "astId": 42546,
        "contract": "contracts/radiant/accessories/Compounder.sol:Compounder",
        "label": "baseToken",
        "offset": 0,
        "slot": "154",
        "type": "t_address"
      },
      {
        "astId": 42548,
        "contract": "contracts/radiant/accessories/Compounder.sol:Compounder",
        "label": "addressProvider",
        "offset": 0,
        "slot": "155",
        "type": "t_address"
      },
      {
        "astId": 42550,
        "contract": "contracts/radiant/accessories/Compounder.sol:Compounder",
        "label": "priceProvider",
        "offset": 0,
        "slot": "156",
        "type": "t_address"
      },
      {
        "astId": 42553,
        "contract": "contracts/radiant/accessories/Compounder.sol:Compounder",
        "label": "rewardBaseTokens",
        "offset": 0,
        "slot": "157",
        "type": "t_array(t_address)dyn_storage"
      },
      {
        "astId": 42556,
        "contract": "contracts/radiant/accessories/Compounder.sol:Compounder",
        "label": "wethToRadiant",
        "offset": 0,
        "slot": "158",
        "type": "t_array(t_address)dyn_storage"
      },
      {
        "astId": 42558,
        "contract": "contracts/radiant/accessories/Compounder.sol:Compounder",
        "label": "uniRouter",
        "offset": 0,
        "slot": "159",
        "type": "t_address"
      },
      {
        "astId": 42560,
        "contract": "contracts/radiant/accessories/Compounder.sol:Compounder",
        "label": "multiFeeDistribution",
        "offset": 0,
        "slot": "160",
        "type": "t_address"
      },
      {
        "astId": 42562,
        "contract": "contracts/radiant/accessories/Compounder.sol:Compounder",
        "label": "lockZap",
        "offset": 0,
        "slot": "161",
        "type": "t_address"
      },
      {
        "astId": 42564,
        "contract": "contracts/radiant/accessories/Compounder.sol:Compounder",
        "label": "bountyManager",
        "offset": 0,
        "slot": "162",
        "type": "t_address"
      },
      {
        "astId": 42568,
        "contract": "contracts/radiant/accessories/Compounder.sol:Compounder",
        "label": "lastAutocompound",
        "offset": 0,
        "slot": "163",
        "type": "t_mapping(t_address,t_uint256)"
      },
      {
        "astId": 42573,
        "contract": "contracts/radiant/accessories/Compounder.sol:Compounder",
        "label": "rewardToBaseRoute",
        "offset": 0,
        "slot": "164",
        "type": "t_mapping(t_address,t_array(t_address)dyn_storage)"
      }
    ],
    "types": {
      "t_address": {
        "encoding": "inplace",
        "label": "address",
        "numberOfBytes": "20"
      },
      "t_array(t_address)dyn_storage": {
        "base": "t_address",
        "encoding": "dynamic_array",
        "label": "address[]",
        "numberOfBytes": "32"
      },
      "t_array(t_uint256)49_storage": {
        "base": "t_uint256",
        "encoding": "inplace",
        "label": "uint256[49]",
        "numberOfBytes": "1568"
      },
      "t_array(t_uint256)50_storage": {
        "base": "t_uint256",
        "encoding": "inplace",
        "label": "uint256[50]",
        "numberOfBytes": "1600"
      },
      "t_bool": {
        "encoding": "inplace",
        "label": "bool",
        "numberOfBytes": "1"
      },
      "t_contract(IMintableToken)23226": {
        "encoding": "inplace",
        "label": "contract IMintableToken",
        "numberOfBytes": "20"
      },
      "t_mapping(t_address,t_array(t_address)dyn_storage)": {
        "encoding": "mapping",
        "key": "t_address",
        "label": "mapping(address => address[])",
        "numberOfBytes": "32",
        "value": "t_array(t_address)dyn_storage"
      },
      "t_mapping(t_address,t_uint256)": {
        "encoding": "mapping",
        "key": "t_address",
        "label": "mapping(address => uint256)",
        "numberOfBytes": "32",
        "value": "t_uint256"
      },
      "t_uint256": {
        "encoding": "inplace",
        "label": "uint256",
        "numberOfBytes": "32"
      },
      "t_uint8": {
        "encoding": "inplace",
        "label": "uint8",
        "numberOfBytes": "1"
      }
    }
  }
}