{
  "address": "0x16Cd518fE9db541feA810b3091fBee6829a9B0Ce",
  "abi": [
    {
      "anonymous": false,
      "inputs": [
        {
          "indexed": true,
          "internalType": "address",
          "name": "newAddress",
          "type": "address"
        }
      ],
      "name": "AddressesProviderRegistered",
      "type": "event"
    },
    {
      "anonymous": false,
      "inputs": [
        {
          "indexed": true,
          "internalType": "address",
          "name": "newAddress",
          "type": "address"
        }
      ],
      "name": "AddressesProviderUnregistered",
      "type": "event"
    },
    {
      "anonymous": false,
      "inputs": [
        {
          "indexed": true,
          "internalType": "address",
          "name": "previousOwner",
          "type": "address"
        },
        {
          "indexed": true,
          "internalType": "address",
          "name": "newOwner",
          "type": "address"
        }
      ],
      "name": "OwnershipTransferred",
      "type": "event"
    },
    {
      "inputs": [
        {
          "internalType": "address",
          "name": "addressesProvider",
          "type": "address"
        }
      ],
      "name": "getAddressesProviderIdByAddress",
      "outputs": [
        {
          "internalType": "uint256",
          "name": "",
          "type": "uint256"
        }
      ],
      "stateMutability": "view",
      "type": "function"
    },
    {
      "inputs": [],
      "name": "getAddressesProvidersList",
      "outputs": [
        {
          "internalType": "address[]",
          "name": "",
          "type": "address[]"
        }
      ],
      "stateMutability": "view",
      "type": "function"
    },
    {
      "inputs": [],
      "name": "owner",
      "outputs": [
        {
          "internalType": "address",
          "name": "",
          "type": "address"
        }
      ],
      "stateMutability": "view",
      "type": "function"
    },
    {
      "inputs": [
        {
          "internalType": "address",
          "name": "provider",
          "type": "address"
        },
        {
          "internalType": "uint256",
          "name": "id",
          "type": "uint256"
        }
      ],
      "name": "registerAddressesProvider",
      "outputs": [],
      "stateMutability": "nonpayable",
      "type": "function"
    },
    {
      "inputs": [],
      "name": "renounceOwnership",
      "outputs": [],
      "stateMutability": "nonpayable",
      "type": "function"
    },
    {
      "inputs": [
        {
          "internalType": "address",
          "name": "newOwner",
          "type": "address"
        }
      ],
      "name": "transferOwnership",
      "outputs": [],
      "stateMutability": "nonpayable",
      "type": "function"
    },
    {
      "inputs": [
        {
          "internalType": "address",
          "name": "provider",
          "type": "address"
        }
      ],
      "name": "unregisterAddressesProvider",
      "outputs": [],
      "stateMutability": "nonpayable",
      "type": "function"
    }
  ],
  "transactionHash": "0xdd98c99505d7cd70f1f282dbdb043f78d9bec5bff542be97a1cf1a9f93c0bb32",
  "args": [],
  "numDeployments": 1,
  "solcInputHash": "f54c80fadb1017091d92ff7e19a408d3",
  "bytecode": "0x608060405234801561001057600080fd5b5061001a3361001f565b61006f565b600080546001600160a01b038381166001600160a01b0319831681178455604051919092169283917f8be0079c531659141344cd1fd0a4f28419497f9722a3daafe3b4186f6b6457e09190a35050565b6107d48061007e6000396000f3fe608060405234801561001057600080fd5b506004361061007d5760003560e01c80638da5cb5b1161005b5780638da5cb5b146100bd578063d0267be7146100d8578063d258191e1461010f578063f2fde38b1461012257600080fd5b80630de2670714610082578063365ccbbf14610097578063715018a6146100b5575b600080fd5b61009561009036600461065b565b610135565b005b61009f610208565b6040516100ac919061067d565b60405180910390f35b61009561036f565b6000546040516001600160a01b0390911681526020016100ac565b6101016100e636600461065b565b6001600160a01b031660009081526001602052604090205490565b6040519081526020016100ac565b61009561011d3660046106ca565b610383565b61009561013036600461065b565b61043a565b61013d6104ca565b600060016000836001600160a01b03166001600160a01b0316815260200190815260200160002054116040518060400160405280600281526020017f3431000000000000000000000000000000000000000000000000000000000000815250906101c35760405162461bcd60e51b81526004016101ba91906106f4565b60405180910390fd5b506001600160a01b038116600081815260016020526040808220829055517f851e5971c053e6b76e3a1e0b8ffa81430df738007fad86e195c409a757faccd29190a250565b60606000600280548060200260200160405190810160405280929190818152602001828054801561026257602002820191906000526020600020905b81546001600160a01b03168152600190910190602001808311610244575b5050505050905060008151905060008167ffffffffffffffff81111561028a5761028a610749565b6040519080825280602002602001820160405280156102b3578160200160208202803683370190505b50905060005b82811015610367576000600160008684815181106102d9576102d961075f565b60200260200101516001600160a01b03166001600160a01b031681526020019081526020016000205411156103555783818151811061031a5761031a61075f565b60200260200101518282815181106103345761033461075f565b60200260200101906001600160a01b031690816001600160a01b0316815250505b8061035f81610775565b9150506102b9565b509392505050565b6103776104ca565b6103816000610524565b565b61038b6104ca565b60408051808201909152600281527f37320000000000000000000000000000000000000000000000000000000000006020820152816103dd5760405162461bcd60e51b81526004016101ba91906106f4565b506001600160a01b038216600090815260016020526040902081905561040282610581565b6040516001600160a01b038316907f2db38786c10176b033a1608361716b0ca992e3af55dc05b6dc710969790beeda90600090a25050565b6104426104ca565b6001600160a01b0381166104be5760405162461bcd60e51b815260206004820152602660248201527f4f776e61626c653a206e6577206f776e657220697320746865207a65726f206160448201527f646472657373000000000000000000000000000000000000000000000000000060648201526084016101ba565b6104c781610524565b50565b6000546001600160a01b031633146103815760405162461bcd60e51b815260206004820181905260248201527f4f776e61626c653a2063616c6c6572206973206e6f7420746865206f776e657260448201526064016101ba565b600080546001600160a01b0383811673ffffffffffffffffffffffffffffffffffffffff19831681178455604051919092169283917f8be0079c531659141344cd1fd0a4f28419497f9722a3daafe3b4186f6b6457e09190a35050565b60025460005b818110156105de57826001600160a01b0316600282815481106105ac576105ac61075f565b6000918252602090912001546001600160a01b031614156105cc57505050565b806105d681610775565b915050610587565b5050600280546001810182556000919091527f405787fa12a823e0f2b7631cc41b3ba8828b3321ca811111fa75cd3aa3bb5ace01805473ffffffffffffffffffffffffffffffffffffffff19166001600160a01b0392909216919091179055565b80356001600160a01b038116811461065657600080fd5b919050565b60006020828403121561066d57600080fd5b6106768261063f565b9392505050565b6020808252825182820181905260009190848201906040850190845b818110156106be5783516001600160a01b031683529284019291840191600101610699565b50909695505050505050565b600080604083850312156106dd57600080fd5b6106e68361063f565b946020939093013593505050565b600060208083528351808285015260005b8181101561072157858101830151858201604001528201610705565b81811115610733576000604083870101525b50601f01601f1916929092016040019392505050565b634e487b7160e01b600052604160045260246000fd5b634e487b7160e01b600052603260045260246000fd5b600060001982141561079757634e487b7160e01b600052601160045260246000fd5b506001019056fea2646970667358221220a9fba2053e40288b2783519a20d3f5c0f59861b45f61533039ad9f786132c5d064736f6c634300080c0033",
  "devdoc": {
    "author": "Aave*",
    "details": "Main registry of LendingPoolAddressesProvider of multiple Aave protocol's markets - Used for indexing purposes of Aave protocol's markets - The id assigned to a LendingPoolAddressesProvider refers to the market it is connected with,   for example with `0` for the Aave main market and `1` for the next created",
    "kind": "dev",
    "methods": {
      "getAddressesProviderIdByAddress(address)": {
        "details": "Returns the id on a registered LendingPoolAddressesProvider",
        "returns": {
          "_0": "The id or 0 if the LendingPoolAddressesProvider is not registered"
        }
      },
      "getAddressesProvidersList()": {
        "details": "Returns the list of registered addresses provider",
        "returns": {
          "_0": "The list of addresses provider, potentially containing address(0) elements*"
        }
      },
      "owner()": {
        "details": "Returns the address of the current owner."
      },
      "registerAddressesProvider(address,uint256)": {
        "details": "Registers an addresses provider",
        "params": {
          "id": "The id for the new LendingPoolAddressesProvider, referring to the market it belongs to*",
          "provider": "The address of the new LendingPoolAddressesProvider"
        }
      },
      "renounceOwnership()": {
        "details": "Leaves the contract without owner. It will not be possible to call `onlyOwner` functions anymore. Can only be called by the current owner. NOTE: Renouncing ownership will leave the contract without an owner, thereby removing any functionality that is only available to the owner."
      },
      "transferOwnership(address)": {
        "details": "Transfers ownership of the contract to a new account (`newOwner`). Can only be called by the current owner."
      },
      "unregisterAddressesProvider(address)": {
        "details": "Removes a LendingPoolAddressesProvider from the list of registered addresses provider",
        "params": {
          "provider": "The LendingPoolAddressesProvider address*"
        }
      }
    },
    "title": "LendingPoolAddressesProviderRegistry contract",
    "version": 1
  },
  "userdoc": {
    "kind": "user",
    "methods": {},
    "version": 1
  },
  "storageLayout": {
    "storage": [
      {
        "astId": 3669,
        "contract": "contracts/lending/configuration/LendingPoolAddressesProviderRegistry.sol:LendingPoolAddressesProviderRegistry",
        "label": "_owner",
        "offset": 0,
        "slot": "0",
        "type": "t_address"
      },
      {
        "astId": 29744,
        "contract": "contracts/lending/configuration/LendingPoolAddressesProviderRegistry.sol:LendingPoolAddressesProviderRegistry",
        "label": "_addressesProviders",
        "offset": 0,
        "slot": "1",
        "type": "t_mapping(t_address,t_uint256)"
      },
      {
        "astId": 29747,
        "contract": "contracts/lending/configuration/LendingPoolAddressesProviderRegistry.sol:LendingPoolAddressesProviderRegistry",
        "label": "_addressesProvidersList",
        "offset": 0,
        "slot": "2",
        "type": "t_array(t_address)dyn_storage"
      }
    ],
    "types": {
      "t_address": {
        "encoding": "inplace",
        "label": "address",
        "numberOfBytes": "20"
      },
      "t_array(t_address)dyn_storage": {
        "base": "t_address",
        "encoding": "dynamic_array",
        "label": "address[]",
        "numberOfBytes": "32"
      },
      "t_mapping(t_address,t_uint256)": {
        "encoding": "mapping",
        "key": "t_address",
        "label": "mapping(address => uint256)",
        "numberOfBytes": "32",
        "value": "t_uint256"
      },
      "t_uint256": {
        "encoding": "inplace",
        "label": "uint256",
        "numberOfBytes": "32"
      }
    }
  }
}