{
  "address": "0x63764769dA006395515c3f8afF9c91A809eF6607",
  "abi": [
    {
      "inputs": [
        {
          "internalType": "string",
          "name": "marketId",
          "type": "string"
        }
      ],
      "stateMutability": "nonpayable",
      "type": "constructor"
    },
    {
      "anonymous": false,
      "inputs": [
        {
          "indexed": false,
          "internalType": "bytes32",
          "name": "id",
          "type": "bytes32"
        },
        {
          "indexed": true,
          "internalType": "address",
          "name": "newAddress",
          "type": "address"
        },
        {
          "indexed": false,
          "internalType": "bool",
          "name": "hasProxy",
          "type": "bool"
        }
      ],
      "name": "AddressSet",
      "type": "event"
    },
    {
      "anonymous": false,
      "inputs": [
        {
          "indexed": true,
          "internalType": "address",
          "name": "newAddress",
          "type": "address"
        }
      ],
      "name": "ConfigurationAdminUpdated",
      "type": "event"
    },
    {
      "anonymous": false,
      "inputs": [
        {
          "indexed": true,
          "internalType": "address",
          "name": "newAddress",
          "type": "address"
        }
      ],
      "name": "EmergencyAdminUpdated",
      "type": "event"
    },
    {
      "anonymous": false,
      "inputs": [
        {
          "indexed": true,
          "internalType": "address",
          "name": "newAddress",
          "type": "address"
        }
      ],
      "name": "LendingPoolCollateralManagerUpdated",
      "type": "event"
    },
    {
      "anonymous": false,
      "inputs": [
        {
          "indexed": true,
          "internalType": "address",
          "name": "newAddress",
          "type": "address"
        }
      ],
      "name": "LendingPoolConfiguratorUpdated",
      "type": "event"
    },
    {
      "anonymous": false,
      "inputs": [
        {
          "indexed": true,
          "internalType": "address",
          "name": "newAddress",
          "type": "address"
        }
      ],
      "name": "LendingPoolUpdated",
      "type": "event"
    },
    {
      "anonymous": false,
      "inputs": [
        {
          "indexed": true,
          "internalType": "address",
          "name": "newAddress",
          "type": "address"
        }
      ],
      "name": "LendingRateOracleUpdated",
      "type": "event"
    },
    {
      "anonymous": false,
      "inputs": [
        {
          "indexed": false,
          "internalType": "string",
          "name": "newMarketId",
          "type": "string"
        }
      ],
      "name": "MarketIdSet",
      "type": "event"
    },
    {
      "anonymous": false,
      "inputs": [
        {
          "indexed": true,
          "internalType": "address",
          "name": "previousOwner",
          "type": "address"
        },
        {
          "indexed": true,
          "internalType": "address",
          "name": "newOwner",
          "type": "address"
        }
      ],
      "name": "OwnershipTransferred",
      "type": "event"
    },
    {
      "anonymous": false,
      "inputs": [
        {
          "indexed": true,
          "internalType": "address",
          "name": "newAddress",
          "type": "address"
        }
      ],
      "name": "PriceOracleUpdated",
      "type": "event"
    },
    {
      "anonymous": false,
      "inputs": [
        {
          "indexed": false,
          "internalType": "bytes32",
          "name": "id",
          "type": "bytes32"
        },
        {
          "indexed": true,
          "internalType": "address",
          "name": "newAddress",
          "type": "address"
        }
      ],
      "name": "ProxyCreated",
      "type": "event"
    },
    {
      "inputs": [
        {
          "internalType": "bytes32",
          "name": "id",
          "type": "bytes32"
        }
      ],
      "name": "getAddress",
      "outputs": [
        {
          "internalType": "address",
          "name": "",
          "type": "address"
        }
      ],
      "stateMutability": "view",
      "type": "function"
    },
    {
      "inputs": [],
      "name": "getEmergencyAdmin",
      "outputs": [
        {
          "internalType": "address",
          "name": "",
          "type": "address"
        }
      ],
      "stateMutability": "view",
      "type": "function"
    },
    {
      "inputs": [],
      "name": "getLendingPool",
      "outputs": [
        {
          "internalType": "address",
          "name": "",
          "type": "address"
        }
      ],
      "stateMutability": "view",
      "type": "function"
    },
    {
      "inputs": [],
      "name": "getLendingPoolCollateralManager",
      "outputs": [
        {
          "internalType": "address",
          "name": "",
          "type": "address"
        }
      ],
      "stateMutability": "view",
      "type": "function"
    },
    {
      "inputs": [],
      "name": "getLendingPoolConfigurator",
      "outputs": [
        {
          "internalType": "address",
          "name": "",
          "type": "address"
        }
      ],
      "stateMutability": "view",
      "type": "function"
    },
    {
      "inputs": [],
      "name": "getLendingRateOracle",
      "outputs": [
        {
          "internalType": "address",
          "name": "",
          "type": "address"
        }
      ],
      "stateMutability": "view",
      "type": "function"
    },
    {
      "inputs": [],
      "name": "getLiquidationFeeTo",
      "outputs": [
        {
          "internalType": "address",
          "name": "",
          "type": "address"
        }
      ],
      "stateMutability": "view",
      "type": "function"
    },
    {
      "inputs": [],
      "name": "getMarketId",
      "outputs": [
        {
          "internalType": "string",
          "name": "",
          "type": "string"
        }
      ],
      "stateMutability": "view",
      "type": "function"
    },
    {
      "inputs": [],
      "name": "getPoolAdmin",
      "outputs": [
        {
          "internalType": "address",
          "name": "",
          "type": "address"
        }
      ],
      "stateMutability": "view",
      "type": "function"
    },
    {
      "inputs": [],
      "name": "getPriceOracle",
      "outputs": [
        {
          "internalType": "address",
          "name": "",
          "type": "address"
        }
      ],
      "stateMutability": "view",
      "type": "function"
    },
    {
      "inputs": [],
      "name": "owner",
      "outputs": [
        {
          "internalType": "address",
          "name": "",
          "type": "address"
        }
      ],
      "stateMutability": "view",
      "type": "function"
    },
    {
      "inputs": [],
      "name": "renounceOwnership",
      "outputs": [],
      "stateMutability": "nonpayable",
      "type": "function"
    },
    {
      "inputs": [
        {
          "internalType": "bytes32",
          "name": "id",
          "type": "bytes32"
        },
        {
          "internalType": "address",
          "name": "newAddress",
          "type": "address"
        }
      ],
      "name": "setAddress",
      "outputs": [],
      "stateMutability": "nonpayable",
      "type": "function"
    },
    {
      "inputs": [
        {
          "internalType": "bytes32",
          "name": "id",
          "type": "bytes32"
        },
        {
          "internalType": "address",
          "name": "implementationAddress",
          "type": "address"
        }
      ],
      "name": "setAddressAsProxy",
      "outputs": [],
      "stateMutability": "nonpayable",
      "type": "function"
    },
    {
      "inputs": [
        {
          "internalType": "address",
          "name": "emergencyAdmin",
          "type": "address"
        }
      ],
      "name": "setEmergencyAdmin",
      "outputs": [],
      "stateMutability": "nonpayable",
      "type": "function"
    },
    {
      "inputs": [
        {
          "internalType": "address",
          "name": "manager",
          "type": "address"
        }
      ],
      "name": "setLendingPoolCollateralManager",
      "outputs": [],
      "stateMutability": "nonpayable",
      "type": "function"
    },
    {
      "inputs": [
        {
          "internalType": "address",
          "name": "configurator",
          "type": "address"
        }
      ],
      "name": "setLendingPoolConfiguratorImpl",
      "outputs": [],
      "stateMutability": "nonpayable",
      "type": "function"
    },
    {
      "inputs": [
        {
          "internalType": "address",
          "name": "pool",
          "type": "address"
        }
      ],
      "name": "setLendingPoolImpl",
      "outputs": [],
      "stateMutability": "nonpayable",
      "type": "function"
    },
    {
      "inputs": [
        {
          "internalType": "address",
          "name": "lendingRateOracle",
          "type": "address"
        }
      ],
      "name": "setLendingRateOracle",
      "outputs": [],
      "stateMutability": "nonpayable",
      "type": "function"
    },
    {
      "inputs": [
        {
          "internalType": "address",
          "name": "liquidationFeeTo",
          "type": "address"
        }
      ],
      "name": "setLiquidationFeeTo",
      "outputs": [],
      "stateMutability": "nonpayable",
      "type": "function"
    },
    {
      "inputs": [
        {
          "internalType": "string",
          "name": "marketId",
          "type": "string"
        }
      ],
      "name": "setMarketId",
      "outputs": [],
      "stateMutability": "nonpayable",
      "type": "function"
    },
    {
      "inputs": [
        {
          "internalType": "address",
          "name": "admin",
          "type": "address"
        }
      ],
      "name": "setPoolAdmin",
      "outputs": [],
      "stateMutability": "nonpayable",
      "type": "function"
    },
    {
      "inputs": [
        {
          "internalType": "address",
          "name": "priceOracle",
          "type": "address"
        }
      ],
      "name": "setPriceOracle",
      "outputs": [],
      "stateMutability": "nonpayable",
      "type": "function"
    },
    {
      "inputs": [
        {
          "internalType": "address",
          "name": "newOwner",
          "type": "address"
        }
      ],
      "name": "transferOwnership",
      "outputs": [],
      "stateMutability": "nonpayable",
      "type": "function"
    }
  ],
  "transactionHash": "0x601a0d10eb94c89f461869eabe5b9fedac70cccd20c77dc21549bbbc649c376b",
  "args": [
    "Radiant"
  ],
  "numDeployments": 1,
  "solcInputHash": "f54c80fadb1017091d92ff7e19a408d3",
  "bytecode": "0x60806040523480156200001157600080fd5b5060405162001d1638038062001d16833981016040819052620000349162000208565b6200003f3362000077565b6200004a81620000c7565b50600380546001600160a01b03191673f90c69d16599a5c657a05fe76cd22fd9cab4459817905562000332565b600080546001600160a01b038381166001600160a01b0319831681178455604051919092169283917f8be0079c531659141344cd1fd0a4f28419497f9722a3daafe3b4186f6b6457e09190a35050565b8051620000dc90600190602084019062000119565b507f5e667c32fd847cf8bce48ab3400175cbf107bdc82b2dea62e3364909dfaee799816040516200010e9190620002c0565b60405180910390a150565b8280546200012790620002f5565b90600052602060002090601f0160209004810192826200014b576000855562000196565b82601f106200016657805160ff191683800117855562000196565b8280016001018555821562000196579182015b828111156200019657825182559160200191906001019062000179565b50620001a4929150620001a8565b5090565b5b80821115620001a45760008155600101620001a9565b634e487b7160e01b600052604160045260246000fd5b60005b83811015620001f2578181015183820152602001620001d8565b8381111562000202576000848401525b50505050565b6000602082840312156200021b57600080fd5b81516001600160401b03808211156200023357600080fd5b818401915084601f8301126200024857600080fd5b8151818111156200025d576200025d620001bf565b604051601f8201601f19908116603f01168101908382118183101715620002885762000288620001bf565b81604052828152876020848701011115620002a257600080fd5b620002b5836020830160208801620001d5565b979650505050505050565b6020815260008251806020840152620002e1816040850160208701620001d5565b601f01601f19169190910160400192915050565b600181811c908216806200030a57607f821691505b602082108114156200032c57634e487b7160e01b600052602260045260246000fd5b50919050565b6119d480620003426000396000f3fe608060405234801561001057600080fd5b50600436106101985760003560e01c8063715018a6116100e3578063ca446dd91161008c578063f2fde38b11610066578063f2fde38b146104d0578063f67b1847146104e3578063fca513a8146104f657600080fd5b8063ca446dd914610451578063ddcaa9ea14610464578063e216ab44146104bd57600080fd5b80638da5cb5b116100bd5780638da5cb5b146103e7578063aecda378146103f8578063c12542df1461043e57600080fd5b8063715018a614610373578063820d12741461037b57806385c858b11461038e57600080fd5b8063530e784f116101455780635afaf0181161011f5780635afaf018146102f65780635dcc528c14610307578063712d91711461031a57600080fd5b8063530e784f146102bb578063568ef470146102ce5780635aef021f146102e357600080fd5b806335da33941161017657806335da33941461023c5780633618abba1461024f578063398e5553146102a857600080fd5b80630261bf8b1461019d57806321f8a721146101fe578063283d62ad14610227575b600080fd5b6b13115391125391d7d413d3d360a21b60005260026020527fe5bdb40dea1fe80924bcdf7c070aa283f3cb94408a3870bba2d2fbfbae6b6df7546001600160a01b03165b6040516001600160a01b0390911681526020015b60405180910390f35b6101e161020c366004610ee7565b6000908152600260205260409020546001600160a01b031690565b61023a610235366004610f1c565b61053e565b005b61023a61024a366004610f1c565b6105c6565b7f4c454e44494e475f524154455f4f5241434c450000000000000000000000000060005260026020527f10f0e20294ece4bd93e7a467dbf22ab9ab1740ebd0a532cc53066601e880c0cf546001600160a01b03166101e1565b61023a6102b6366004610f1c565b610661565b61023a6102c9366004610f1c565b6106fc565b6102d6610786565b6040516101f59190610f8b565b61023a6102f1366004610f1c565b610818565b6003546001600160a01b03166101e1565b61023a610315366004610f9e565b610870565b7f434f4c4c41544552414c5f4d414e41474552000000000000000000000000000060005260026020527f65e3f3080e9127c1765503a54b8dbb495249e66169f096dfc87ee63bed17e22c546001600160a01b03166101e1565b61023a6108cb565b61023a610389366004610f1c565b6108df565b7f4c454e44494e475f504f4f4c5f434f4e464947555241544f520000000000000060005260026020527fa7ee63b7e982611b7328b48e2a71eb802e32b6d69f2ab9bbc22491778c80029c546001600160a01b03166101e1565b6000546001600160a01b03166101e1565b692827a7a62fa0a226a4a760b11b60005260026020527f8625fbc469bac10fd11de1d783dcd446542784dbcc535ef64a1da61860fda74c546001600160a01b03166101e1565b61023a61044c366004610f1c565b61097a565b61023a61045f366004610f9e565b6109e3565b7f454d455247454e43595f41444d494e000000000000000000000000000000000060005260026020527f767aa9c986e1d88108b2558f00fbd21b689a0397581446e2e868cd70421026cc546001600160a01b03166101e1565b61023a6104cb366004610f1c565b610a4c565b61023a6104de366004610f1c565b610a76565b61023a6104f1366004610fe0565b610b0b565b6b50524943455f4f5241434c4560a01b60005260026020527f740f710666bd7a12af42df98311e541e47f7fd33d382d11602457a6d540cbd63546001600160a01b03166101e1565b610546610b1c565b692827a7a62fa0a226a4a760b11b600090815260026020527f8625fbc469bac10fd11de1d783dcd446542784dbcc535ef64a1da61860fda74c80546001600160a01b0319166001600160a01b03841690811790915560405190917fc20a317155a9e7d84e06b716b4b355d47742ab9f8c5d630e7f556553f582430d91a250565b6105ce610b1c565b7f454d455247454e43595f41444d494e0000000000000000000000000000000000600090815260026020527f767aa9c986e1d88108b2558f00fbd21b689a0397581446e2e868cd70421026cc80546001600160a01b0319166001600160a01b03841690811790915560405190917fe19673fc861bfeb894cf2d6b7662505497ef31c0f489b742db24ee331082691691a250565b610669610b1c565b7f434f4c4c41544552414c5f4d414e414745520000000000000000000000000000600090815260026020527f65e3f3080e9127c1765503a54b8dbb495249e66169f096dfc87ee63bed17e22c80546001600160a01b0319166001600160a01b03841690811790915560405190917f991888326f0eab3df6084aadb82bee6781b5c9aa75379e8bc50ae8693454163891a250565b610704610b1c565b6b50524943455f4f5241434c4560a01b600090815260026020527f740f710666bd7a12af42df98311e541e47f7fd33d382d11602457a6d540cbd6380546001600160a01b0319166001600160a01b03841690811790915560405190917fefe8ab924ca486283a79dc604baa67add51afb82af1db8ac386ebbba643cdffd91a250565b60606001805461079590611091565b80601f01602080910402602001604051908101604052809291908181526020018280546107c190611091565b801561080e5780601f106107e35761010080835404028352916020019161080e565b820191906000526020600020905b8154815290600101906020018083116107f157829003601f168201915b5050505050905090565b610820610b1c565b6108396b13115391125391d7d413d3d360a21b82610b76565b6040516001600160a01b038216907fc4e6c6cdf28d0edbd8bcf071d724d33cc2e7a30be7d06443925656e9cb492aa490600090a250565b610878610b1c565b6108828282610b76565b60408051838152600160208201526001600160a01b038316917ff2689d5d5cd0c639e137642cae5d40afced201a1a0327e7ac9358461dc9fff3191015b60405180910390a25050565b6108d3610b1c565b6108dd6000610da3565b565b6108e7610b1c565b7f4c454e44494e475f524154455f4f5241434c4500000000000000000000000000600090815260026020527f10f0e20294ece4bd93e7a467dbf22ab9ab1740ebd0a532cc53066601e880c0cf80546001600160a01b0319166001600160a01b03841690811790915560405190917f5c29179aba6942020a8a2d38f65de02fb6b7f784e7f049ed3a3cab97621859b591a250565b610982610b1c565b6109ac7f4c454e44494e475f504f4f4c5f434f4e464947555241544f520000000000000082610b76565b6040516001600160a01b038216907fdfabe479bad36782fb1e77fbfddd4e382671713527e4786cfc93a022ae76372990600090a250565b6109eb610b1c565b600082815260026020908152604080832080546001600160a01b0319166001600160a01b0386169081179091558151868152928301939093527ff2689d5d5cd0c639e137642cae5d40afced201a1a0327e7ac9358461dc9fff3191016108bf565b610a54610b1c565b600380546001600160a01b0319166001600160a01b0392909216919091179055565b610a7e610b1c565b6001600160a01b038116610aff5760405162461bcd60e51b815260206004820152602660248201527f4f776e61626c653a206e6577206f776e657220697320746865207a65726f206160448201527f646472657373000000000000000000000000000000000000000000000000000060648201526084015b60405180910390fd5b610b0881610da3565b50565b610b13610b1c565b610b0881610df3565b6000546001600160a01b031633146108dd5760405162461bcd60e51b815260206004820181905260248201527f4f776e61626c653a2063616c6c6572206973206e6f7420746865206f776e65726044820152606401610af6565b6000828152600260205260408082205490513060248201526001600160a01b0390911691829160440160408051601f198184030181529190526020810180517bffffffffffffffffffffffffffffffffffffffffffffffffffffffff167fc4d66de80000000000000000000000000000000000000000000000000000000017905290506001600160a01b038316610d225730604051610c1490610e41565b6001600160a01b039091168152602001604051809103906000f080158015610c40573d6000803e3d6000fd5b506040517fd1f578940000000000000000000000000000000000000000000000000000000081529092506001600160a01b0383169063d1f5789490610c8b90879085906004016110cc565b600060405180830381600087803b158015610ca557600080fd5b505af1158015610cb9573d6000803e3d6000fd5b50505060008681526002602090815260409182902080546001600160a01b0319166001600160a01b03871690811790915591518881529192507f1eb35cb4b5bbb23d152f3b4016a5a46c37a07ae930ed0956aba951e231142438910160405180910390a2610d9c565b6040517f4f1ef2860000000000000000000000000000000000000000000000000000000081526001600160a01b03831690634f1ef28690610d6990879085906004016110cc565b600060405180830381600087803b158015610d8357600080fd5b505af1158015610d97573d6000803e3d6000fd5b505050505b5050505050565b600080546001600160a01b038381166001600160a01b0319831681178455604051919092169283917f8be0079c531659141344cd1fd0a4f28419497f9722a3daafe3b4186f6b6457e09190a35050565b8051610e06906001906020840190610e4e565b507f5e667c32fd847cf8bce48ab3400175cbf107bdc82b2dea62e3364909dfaee79981604051610e369190610f8b565b60405180910390a150565b6108a8806110f783390190565b828054610e5a90611091565b90600052602060002090601f016020900481019282610e7c5760008555610ec2565b82601f10610e9557805160ff1916838001178555610ec2565b82800160010185558215610ec2579182015b82811115610ec2578251825591602001919060010190610ea7565b50610ece929150610ed2565b5090565b5b80821115610ece5760008155600101610ed3565b600060208284031215610ef957600080fd5b5035919050565b80356001600160a01b0381168114610f1757600080fd5b919050565b600060208284031215610f2e57600080fd5b610f3782610f00565b9392505050565b6000815180845260005b81811015610f6457602081850181015186830182015201610f48565b81811115610f76576000602083870101525b50601f01601f19169290920160200192915050565b602081526000610f376020830184610f3e565b60008060408385031215610fb157600080fd5b82359150610fc160208401610f00565b90509250929050565b634e487b7160e01b600052604160045260246000fd5b600060208284031215610ff257600080fd5b813567ffffffffffffffff8082111561100a57600080fd5b818401915084601f83011261101e57600080fd5b81358181111561103057611030610fca565b604051601f8201601f19908116603f0116810190838211818310171561105857611058610fca565b8160405282815287602084870101111561107157600080fd5b826020860160208301376000928101602001929092525095945050505050565b600181811c908216806110a557607f821691505b602082108114156110c657634e487b7160e01b600052602260045260246000fd5b50919050565b6001600160a01b03831681526040602082015260006110ee6040830184610f3e565b94935050505056fe60a060405234801561001057600080fd5b506040516108a83803806108a883398101604081905261002f91610040565b6001600160a01b0316608052610070565b60006020828403121561005257600080fd5b81516001600160a01b038116811461006957600080fd5b9392505050565b6080516107fa6100ae600039600081816101350152818161017a01528181610233015281816103a9015281816103d2015261051101526107fa6000f3fe60806040526004361061005a5760003560e01c80635c60da1b116100435780635c60da1b14610097578063d1f57894146100c8578063f851a440146100db5761005a565b80633659cfe6146100645780634f1ef28614610084575b6100626100f0565b005b34801561007057600080fd5b5061006261007f3660046105c1565b61012a565b6100626100923660046105e3565b61016f565b3480156100a357600080fd5b506100ac610226565b6040516001600160a01b03909116815260200160405180910390f35b6100626100d636600461067c565b61028a565b3480156100e757600080fd5b506100ac61039c565b6100f86103f4565b6101286101237f360894a13ba1a3210667c828492db98dca3e2076cc3735a920a3ca505d382bbc5490565b6103fc565b565b336001600160a01b037f00000000000000000000000000000000000000000000000000000000000000001614156101675761016481610420565b50565b6101646100f0565b336001600160a01b037f0000000000000000000000000000000000000000000000000000000000000000161415610219576101a983610420565b6000836001600160a01b031683836040516101c592919061073e565b600060405180830381855af49150503d8060008114610200576040519150601f19603f3d011682016040523d82523d6000602084013e610205565b606091505b505090508061021357600080fd5b50505050565b6102216100f0565b505050565b6000336001600160a01b037f000000000000000000000000000000000000000000000000000000000000000016141561027f57507f360894a13ba1a3210667c828492db98dca3e2076cc3735a920a3ca505d382bbc5490565b6102876100f0565b90565b60006102b47f360894a13ba1a3210667c828492db98dca3e2076cc3735a920a3ca505d382bbc5490565b6001600160a01b0316146102c757600080fd5b6102f260017f360894a13ba1a3210667c828492db98dca3e2076cc3735a920a3ca505d382bbd61074e565b7f360894a13ba1a3210667c828492db98dca3e2076cc3735a920a3ca505d382bbc1461032057610320610773565b61032982610460565b805115610398576000826001600160a01b03168260405161034a9190610789565b600060405180830381855af49150503d8060008114610385576040519150601f19603f3d011682016040523d82523d6000602084013e61038a565b606091505b505090508061022157600080fd5b5050565b6000336001600160a01b037f000000000000000000000000000000000000000000000000000000000000000016141561027f57507f000000000000000000000000000000000000000000000000000000000000000090565b610128610506565b3660008037600080366000845af43d6000803e80801561041b573d6000f35b3d6000fd5b61042981610460565b6040516001600160a01b038216907fbc7cd75a20ee27fd9adebab32041f755214dbc6bffa90cc0225b39da2e5c2d3b90600090a250565b6001600160a01b0381163b6104e25760405162461bcd60e51b815260206004820152603b60248201527f43616e6e6f742073657420612070726f787920696d706c656d656e746174696f60448201527f6e20746f2061206e6f6e2d636f6e74726163742061646472657373000000000060648201526084015b60405180910390fd5b7f360894a13ba1a3210667c828492db98dca3e2076cc3735a920a3ca505d382bbc55565b336001600160a01b037f00000000000000000000000000000000000000000000000000000000000000001614156101285760405162461bcd60e51b815260206004820152603260248201527f43616e6e6f742063616c6c2066616c6c6261636b2066756e6374696f6e20667260448201527f6f6d207468652070726f78792061646d696e000000000000000000000000000060648201526084016104d9565b80356001600160a01b03811681146105bc57600080fd5b919050565b6000602082840312156105d357600080fd5b6105dc826105a5565b9392505050565b6000806000604084860312156105f857600080fd5b610601846105a5565b9250602084013567ffffffffffffffff8082111561061e57600080fd5b818601915086601f83011261063257600080fd5b81358181111561064157600080fd5b87602082850101111561065357600080fd5b6020830194508093505050509250925092565b634e487b7160e01b600052604160045260246000fd5b6000806040838503121561068f57600080fd5b610698836105a5565b9150602083013567ffffffffffffffff808211156106b557600080fd5b818501915085601f8301126106c957600080fd5b8135818111156106db576106db610666565b604051601f8201601f19908116603f0116810190838211818310171561070357610703610666565b8160405282815288602084870101111561071c57600080fd5b8260208601602083013760006020848301015280955050505050509250929050565b8183823760009101908152919050565b60008282101561076e57634e487b7160e01b600052601160045260246000fd5b500390565b634e487b7160e01b600052600160045260246000fd5b6000825160005b818110156107aa5760208186018101518583015201610790565b818111156107b9576000828501525b50919091019291505056fea264697066735822122042e28d728a899bce17dd811b4fea918cccc026ea931fafa4186c5407bbe6da0864736f6c634300080c0033a264697066735822122052b0e30b582781e8b43ca177248d16ed2c2dd232f431230039fc8db1ac9d34a564736f6c634300080c0033",
  "devdoc": {
    "author": "Aave*",
    "details": "Main registry of addresses part of or connected to the protocol, including permissioned roles - Acting also as factory of proxies and admin of those, so with right to change its implementations - Owned by the Aave Governance",
    "kind": "dev",
    "methods": {
      "getAddress(bytes32)": {
        "details": "Returns an address by id",
        "returns": {
          "_0": "The address"
        }
      },
      "getLendingPool()": {
        "details": "Returns the address of the LendingPool proxy",
        "returns": {
          "_0": "The LendingPool proxy address*"
        }
      },
      "getLendingPoolCollateralManager()": {
        "details": "Returns the address of the LendingPoolCollateralManager. Since the manager is used through delegateCall within the LendingPool contract, the proxy contract pattern does not work properly hence the addresses are changed directly",
        "returns": {
          "_0": "The address of the LendingPoolCollateralManager*"
        }
      },
      "getLendingPoolConfigurator()": {
        "details": "Returns the address of the LendingPoolConfigurator proxy",
        "returns": {
          "_0": "The LendingPoolConfigurator proxy address*"
        }
      },
      "getMarketId()": {
        "details": "Returns the id of the Aave market to which this contracts points to",
        "returns": {
          "_0": "The market id*"
        }
      },
      "getPoolAdmin()": {
        "details": "The functions below are getters/setters of addresses that are outside the context of the protocol hence the upgradable proxy pattern is not used*"
      },
      "owner()": {
        "details": "Returns the address of the current owner."
      },
      "renounceOwnership()": {
        "details": "Leaves the contract without owner. It will not be possible to call `onlyOwner` functions anymore. Can only be called by the current owner. NOTE: Renouncing ownership will leave the contract without an owner, thereby removing any functionality that is only available to the owner."
      },
      "setAddress(bytes32,address)": {
        "details": "Sets an address for an id replacing the address saved in the addresses map IMPORTANT Use this function carefully, as it will do a hard replacement",
        "params": {
          "id": "The id",
          "newAddress": "The address to set"
        }
      },
      "setAddressAsProxy(bytes32,address)": {
        "details": "General function to update the implementation of a proxy registered with certain `id`. If there is no proxy registered, it will instantiate one and set as implementation the `implementationAddress` IMPORTANT Use this function carefully, only for ids that don't have an explicit setter function, in order to avoid unexpected consequences",
        "params": {
          "id": "The id",
          "implementationAddress": "The address of the new implementation"
        }
      },
      "setLendingPoolCollateralManager(address)": {
        "details": "Updates the address of the LendingPoolCollateralManager",
        "params": {
          "manager": "The new LendingPoolCollateralManager address*"
        }
      },
      "setLendingPoolConfiguratorImpl(address)": {
        "details": "Updates the implementation of the LendingPoolConfigurator, or creates the proxy setting the new `configurator` implementation on the first time calling it",
        "params": {
          "configurator": "The new LendingPoolConfigurator implementation*"
        }
      },
      "setLendingPoolImpl(address)": {
        "details": "Updates the implementation of the LendingPool, or creates the proxy setting the new `pool` implementation on the first time calling it",
        "params": {
          "pool": "The new LendingPool implementation*"
        }
      },
      "setMarketId(string)": {
        "details": "Allows to set the market which this LendingPoolAddressesProvider represents",
        "params": {
          "marketId": "The market id"
        }
      },
      "transferOwnership(address)": {
        "details": "Transfers ownership of the contract to a new account (`newOwner`). Can only be called by the current owner."
      }
    },
    "title": "LendingPoolAddressesProvider contract",
    "version": 1
  },
  "userdoc": {
    "kind": "user",
    "methods": {},
    "version": 1
  },
  "storageLayout": {
    "storage": [
      {
        "astId": 3669,
        "contract": "contracts/lending/configuration/LendingPoolAddressesProvider.sol:LendingPoolAddressesProvider",
        "label": "_owner",
        "offset": 0,
        "slot": "0",
        "type": "t_address"
      },
      {
        "astId": 29263,
        "contract": "contracts/lending/configuration/LendingPoolAddressesProvider.sol:LendingPoolAddressesProvider",
        "label": "_marketId",
        "offset": 0,
        "slot": "1",
        "type": "t_string_storage"
      },
      {
        "astId": 29267,
        "contract": "contracts/lending/configuration/LendingPoolAddressesProvider.sol:LendingPoolAddressesProvider",
        "label": "_addresses",
        "offset": 0,
        "slot": "2",
        "type": "t_mapping(t_bytes32,t_address)"
      },
      {
        "astId": 29269,
        "contract": "contracts/lending/configuration/LendingPoolAddressesProvider.sol:LendingPoolAddressesProvider",
        "label": "_liquidationFeeTo",
        "offset": 0,
        "slot": "3",
        "type": "t_address"
      }
    ],
    "types": {
      "t_address": {
        "encoding": "inplace",
        "label": "address",
        "numberOfBytes": "20"
      },
      "t_bytes32": {
        "encoding": "inplace",
        "label": "bytes32",
        "numberOfBytes": "32"
      },
      "t_mapping(t_bytes32,t_address)": {
        "encoding": "mapping",
        "key": "t_bytes32",
        "label": "mapping(bytes32 => address)",
        "numberOfBytes": "32",
        "value": "t_address"
      },
      "t_string_storage": {
        "encoding": "bytes",
        "label": "string",
        "numberOfBytes": "32"
      }
    }
  }
}