{
  "address": "0x5DeeD2361e725Ec962C570221916E35a6C0115dF",
  "abi": [
    {
      "anonymous": false,
      "inputs": [
        {
          "indexed": true,
          "internalType": "address",
          "name": "reserve",
          "type": "address"
        },
        {
          "indexed": false,
          "internalType": "address",
          "name": "user",
          "type": "address"
        },
        {
          "indexed": true,
          "internalType": "address",
          "name": "onBehalfOf",
          "type": "address"
        },
        {
          "indexed": false,
          "internalType": "uint256",
          "name": "amount",
          "type": "uint256"
        },
        {
          "indexed": false,
          "internalType": "uint256",
          "name": "borrowRateMode",
          "type": "uint256"
        },
        {
          "indexed": false,
          "internalType": "uint256",
          "name": "borrowRate",
          "type": "uint256"
        },
        {
          "indexed": true,
          "internalType": "uint16",
          "name": "referral",
          "type": "uint16"
        }
      ],
      "name": "Borrow",
      "type": "event"
    },
    {
      "anonymous": false,
      "inputs": [
        {
          "indexed": true,
          "internalType": "address",
          "name": "reserve",
          "type": "address"
        },
        {
          "indexed": false,
          "internalType": "address",
          "name": "user",
          "type": "address"
        },
        {
          "indexed": true,
          "internalType": "address",
          "name": "onBehalfOf",
          "type": "address"
        },
        {
          "indexed": false,
          "internalType": "uint256",
          "name": "amount",
          "type": "uint256"
        },
        {
          "indexed": true,
          "internalType": "uint16",
          "name": "referral",
          "type": "uint16"
        }
      ],
      "name": "Deposit",
      "type": "event"
    },
    {
      "anonymous": false,
      "inputs": [
        {
          "indexed": true,
          "internalType": "address",
          "name": "target",
          "type": "address"
        },
        {
          "indexed": true,
          "internalType": "address",
          "name": "initiator",
          "type": "address"
        },
        {
          "indexed": true,
          "internalType": "address",
          "name": "asset",
          "type": "address"
        },
        {
          "indexed": false,
          "internalType": "uint256",
          "name": "amount",
          "type": "uint256"
        },
        {
          "indexed": false,
          "internalType": "uint256",
          "name": "premium",
          "type": "uint256"
        },
        {
          "indexed": false,
          "internalType": "uint16",
          "name": "referralCode",
          "type": "uint16"
        }
      ],
      "name": "FlashLoan",
      "type": "event"
    },
    {
      "anonymous": false,
      "inputs": [
        {
          "indexed": true,
          "internalType": "address",
          "name": "collateralAsset",
          "type": "address"
        },
        {
          "indexed": true,
          "internalType": "address",
          "name": "debtAsset",
          "type": "address"
        },
        {
          "indexed": true,
          "internalType": "address",
          "name": "user",
          "type": "address"
        },
        {
          "indexed": false,
          "internalType": "uint256",
          "name": "debtToCover",
          "type": "uint256"
        },
        {
          "indexed": false,
          "internalType": "uint256",
          "name": "liquidatedCollateralAmount",
          "type": "uint256"
        },
        {
          "indexed": false,
          "internalType": "address",
          "name": "liquidator",
          "type": "address"
        },
        {
          "indexed": false,
          "internalType": "bool",
          "name": "receiveAToken",
          "type": "bool"
        }
      ],
      "name": "LiquidationCall",
      "type": "event"
    },
    {
      "anonymous": false,
      "inputs": [],
      "name": "Paused",
      "type": "event"
    },
    {
      "anonymous": false,
      "inputs": [
        {
          "indexed": true,
          "internalType": "address",
          "name": "reserve",
          "type": "address"
        },
        {
          "indexed": true,
          "internalType": "address",
          "name": "user",
          "type": "address"
        }
      ],
      "name": "RebalanceStableBorrowRate",
      "type": "event"
    },
    {
      "anonymous": false,
      "inputs": [
        {
          "indexed": true,
          "internalType": "address",
          "name": "reserve",
          "type": "address"
        },
        {
          "indexed": true,
          "internalType": "address",
          "name": "user",
          "type": "address"
        },
        {
          "indexed": true,
          "internalType": "address",
          "name": "repayer",
          "type": "address"
        },
        {
          "indexed": false,
          "internalType": "uint256",
          "name": "amount",
          "type": "uint256"
        }
      ],
      "name": "Repay",
      "type": "event"
    },
    {
      "anonymous": false,
      "inputs": [
        {
          "indexed": true,
          "internalType": "address",
          "name": "reserve",
          "type": "address"
        },
        {
          "indexed": false,
          "internalType": "uint256",
          "name": "liquidityRate",
          "type": "uint256"
        },
        {
          "indexed": false,
          "internalType": "uint256",
          "name": "stableBorrowRate",
          "type": "uint256"
        },
        {
          "indexed": false,
          "internalType": "uint256",
          "name": "variableBorrowRate",
          "type": "uint256"
        },
        {
          "indexed": false,
          "internalType": "uint256",
          "name": "liquidityIndex",
          "type": "uint256"
        },
        {
          "indexed": false,
          "internalType": "uint256",
          "name": "variableBorrowIndex",
          "type": "uint256"
        }
      ],
      "name": "ReserveDataUpdated",
      "type": "event"
    },
    {
      "anonymous": false,
      "inputs": [
        {
          "indexed": true,
          "internalType": "address",
          "name": "reserve",
          "type": "address"
        },
        {
          "indexed": true,
          "internalType": "address",
          "name": "user",
          "type": "address"
        }
      ],
      "name": "ReserveUsedAsCollateralDisabled",
      "type": "event"
    },
    {
      "anonymous": false,
      "inputs": [
        {
          "indexed": true,
          "internalType": "address",
          "name": "reserve",
          "type": "address"
        },
        {
          "indexed": true,
          "internalType": "address",
          "name": "user",
          "type": "address"
        }
      ],
      "name": "ReserveUsedAsCollateralEnabled",
      "type": "event"
    },
    {
      "anonymous": false,
      "inputs": [
        {
          "indexed": true,
          "internalType": "address",
          "name": "reserve",
          "type": "address"
        },
        {
          "indexed": true,
          "internalType": "address",
          "name": "user",
          "type": "address"
        },
        {
          "indexed": false,
          "internalType": "uint256",
          "name": "rateMode",
          "type": "uint256"
        }
      ],
      "name": "Swap",
      "type": "event"
    },
    {
      "anonymous": false,
      "inputs": [],
      "name": "Unpaused",
      "type": "event"
    },
    {
      "anonymous": false,
      "inputs": [
        {
          "indexed": true,
          "internalType": "address",
          "name": "reserve",
          "type": "address"
        },
        {
          "indexed": true,
          "internalType": "address",
          "name": "user",
          "type": "address"
        },
        {
          "indexed": true,
          "internalType": "address",
          "name": "to",
          "type": "address"
        },
        {
          "indexed": false,
          "internalType": "uint256",
          "name": "amount",
          "type": "uint256"
        }
      ],
      "name": "Withdraw",
      "type": "event"
    },
    {
      "inputs": [],
      "name": "FLASHLOAN_PREMIUM_TOTAL",
      "outputs": [
        {
          "internalType": "uint256",
          "name": "",
          "type": "uint256"
        }
      ],
      "stateMutability": "view",
      "type": "function"
    },
    {
      "inputs": [],
      "name": "LENDINGPOOL_REVISION",
      "outputs": [
        {
          "internalType": "uint256",
          "name": "",
          "type": "uint256"
        }
      ],
      "stateMutability": "view",
      "type": "function"
    },
    {
      "inputs": [],
      "name": "MAX_NUMBER_RESERVES",
      "outputs": [
        {
          "internalType": "uint256",
          "name": "",
          "type": "uint256"
        }
      ],
      "stateMutability": "view",
      "type": "function"
    },
    {
      "inputs": [],
      "name": "MAX_STABLE_RATE_BORROW_SIZE_PERCENT",
      "outputs": [
        {
          "internalType": "uint256",
          "name": "",
          "type": "uint256"
        }
      ],
      "stateMutability": "view",
      "type": "function"
    },
    {
      "inputs": [
        {
          "internalType": "address",
          "name": "asset",
          "type": "address"
        },
        {
          "internalType": "uint256",
          "name": "amount",
          "type": "uint256"
        },
        {
          "internalType": "uint256",
          "name": "interestRateMode",
          "type": "uint256"
        },
        {
          "internalType": "uint16",
          "name": "referralCode",
          "type": "uint16"
        },
        {
          "internalType": "address",
          "name": "onBehalfOf",
          "type": "address"
        }
      ],
      "name": "borrow",
      "outputs": [],
      "stateMutability": "nonpayable",
      "type": "function"
    },
    {
      "inputs": [
        {
          "internalType": "address",
          "name": "asset",
          "type": "address"
        },
        {
          "internalType": "uint256",
          "name": "amount",
          "type": "uint256"
        },
        {
          "internalType": "address",
          "name": "onBehalfOf",
          "type": "address"
        },
        {
          "internalType": "uint16",
          "name": "referralCode",
          "type": "uint16"
        }
      ],
      "name": "deposit",
      "outputs": [],
      "stateMutability": "nonpayable",
      "type": "function"
    },
    {
      "inputs": [
        {
          "internalType": "address",
          "name": "asset",
          "type": "address"
        },
        {
          "internalType": "uint256",
          "name": "amount",
          "type": "uint256"
        },
        {
          "internalType": "address",
          "name": "onBehalfOf",
          "type": "address"
        },
        {
          "internalType": "uint16",
          "name": "referralCode",
          "type": "uint16"
        }
      ],
      "name": "depositWithAutoDLP",
      "outputs": [],
      "stateMutability": "nonpayable",
      "type": "function"
    },
    {
      "inputs": [
        {
          "internalType": "address",
          "name": "asset",
          "type": "address"
        },
        {
          "internalType": "address",
          "name": "from",
          "type": "address"
        },
        {
          "internalType": "address",
          "name": "to",
          "type": "address"
        },
        {
          "internalType": "uint256",
          "name": "amount",
          "type": "uint256"
        },
        {
          "internalType": "uint256",
          "name": "balanceFromBefore",
          "type": "uint256"
        },
        {
          "internalType": "uint256",
          "name": "balanceToBefore",
          "type": "uint256"
        }
      ],
      "name": "finalizeTransfer",
      "outputs": [],
      "stateMutability": "nonpayable",
      "type": "function"
    },
    {
      "inputs": [
        {
          "internalType": "address",
          "name": "receiverAddress",
          "type": "address"
        },
        {
          "internalType": "address[]",
          "name": "assets",
          "type": "address[]"
        },
        {
          "internalType": "uint256[]",
          "name": "amounts",
          "type": "uint256[]"
        },
        {
          "internalType": "uint256[]",
          "name": "modes",
          "type": "uint256[]"
        },
        {
          "internalType": "address",
          "name": "onBehalfOf",
          "type": "address"
        },
        {
          "internalType": "bytes",
          "name": "params",
          "type": "bytes"
        },
        {
          "internalType": "uint16",
          "name": "referralCode",
          "type": "uint16"
        }
      ],
      "name": "flashLoan",
      "outputs": [],
      "stateMutability": "nonpayable",
      "type": "function"
    },
    {
      "inputs": [],
      "name": "getAddressesProvider",
      "outputs": [
        {
          "internalType": "contract ILendingPoolAddressesProvider",
          "name": "",
          "type": "address"
        }
      ],
      "stateMutability": "view",
      "type": "function"
    },
    {
      "inputs": [
        {
          "internalType": "address",
          "name": "asset",
          "type": "address"
        }
      ],
      "name": "getConfiguration",
      "outputs": [
        {
          "components": [
            {
              "internalType": "uint256",
              "name": "data",
              "type": "uint256"
            }
          ],
          "internalType": "struct DataTypes.ReserveConfigurationMap",
          "name": "",
          "type": "tuple"
        }
      ],
      "stateMutability": "view",
      "type": "function"
    },
    {
      "inputs": [
        {
          "internalType": "address",
          "name": "asset",
          "type": "address"
        }
      ],
      "name": "getReserveData",
      "outputs": [
        {
          "components": [
            {
              "components": [
                {
                  "internalType": "uint256",
                  "name": "data",
                  "type": "uint256"
                }
              ],
              "internalType": "struct DataTypes.ReserveConfigurationMap",
              "name": "configuration",
              "type": "tuple"
            },
            {
              "internalType": "uint128",
              "name": "liquidityIndex",
              "type": "uint128"
            },
            {
              "internalType": "uint128",
              "name": "variableBorrowIndex",
              "type": "uint128"
            },
            {
              "internalType": "uint128",
              "name": "currentLiquidityRate",
              "type": "uint128"
            },
            {
              "internalType": "uint128",
              "name": "currentVariableBorrowRate",
              "type": "uint128"
            },
            {
              "internalType": "uint128",
              "name": "currentStableBorrowRate",
              "type": "uint128"
            },
            {
              "internalType": "uint40",
              "name": "lastUpdateTimestamp",
              "type": "uint40"
            },
            {
              "internalType": "address",
              "name": "aTokenAddress",
              "type": "address"
            },
            {
              "internalType": "address",
              "name": "stableDebtTokenAddress",
              "type": "address"
            },
            {
              "internalType": "address",
              "name": "variableDebtTokenAddress",
              "type": "address"
            },
            {
              "internalType": "address",
              "name": "interestRateStrategyAddress",
              "type": "address"
            },
            {
              "internalType": "uint8",
              "name": "id",
              "type": "uint8"
            }
          ],
          "internalType": "struct DataTypes.ReserveData",
          "name": "",
          "type": "tuple"
        }
      ],
      "stateMutability": "view",
      "type": "function"
    },
    {
      "inputs": [
        {
          "internalType": "address",
          "name": "asset",
          "type": "address"
        }
      ],
      "name": "getReserveNormalizedIncome",
      "outputs": [
        {
          "internalType": "uint256",
          "name": "",
          "type": "uint256"
        }
      ],
      "stateMutability": "view",
      "type": "function"
    },
    {
      "inputs": [
        {
          "internalType": "address",
          "name": "asset",
          "type": "address"
        }
      ],
      "name": "getReserveNormalizedVariableDebt",
      "outputs": [
        {
          "internalType": "uint256",
          "name": "",
          "type": "uint256"
        }
      ],
      "stateMutability": "view",
      "type": "function"
    },
    {
      "inputs": [],
      "name": "getReservesList",
      "outputs": [
        {
          "internalType": "address[]",
          "name": "",
          "type": "address[]"
        }
      ],
      "stateMutability": "view",
      "type": "function"
    },
    {
      "inputs": [
        {
          "internalType": "address",
          "name": "user",
          "type": "address"
        }
      ],
      "name": "getUserAccountData",
      "outputs": [
        {
          "internalType": "uint256",
          "name": "totalCollateralETH",
          "type": "uint256"
        },
        {
          "internalType": "uint256",
          "name": "totalDebtETH",
          "type": "uint256"
        },
        {
          "internalType": "uint256",
          "name": "availableBorrowsETH",
          "type": "uint256"
        },
        {
          "internalType": "uint256",
          "name": "currentLiquidationThreshold",
          "type": "uint256"
        },
        {
          "internalType": "uint256",
          "name": "ltv",
          "type": "uint256"
        },
        {
          "internalType": "uint256",
          "name": "healthFactor",
          "type": "uint256"
        }
      ],
      "stateMutability": "view",
      "type": "function"
    },
    {
      "inputs": [
        {
          "internalType": "address",
          "name": "user",
          "type": "address"
        }
      ],
      "name": "getUserConfiguration",
      "outputs": [
        {
          "components": [
            {
              "internalType": "uint256",
              "name": "data",
              "type": "uint256"
            }
          ],
          "internalType": "struct DataTypes.UserConfigurationMap",
          "name": "",
          "type": "tuple"
        }
      ],
      "stateMutability": "view",
      "type": "function"
    },
    {
      "inputs": [
        {
          "internalType": "address",
          "name": "asset",
          "type": "address"
        },
        {
          "internalType": "address",
          "name": "aTokenAddress",
          "type": "address"
        },
        {
          "internalType": "address",
          "name": "stableDebtAddress",
          "type": "address"
        },
        {
          "internalType": "address",
          "name": "variableDebtAddress",
          "type": "address"
        },
        {
          "internalType": "address",
          "name": "interestRateStrategyAddress",
          "type": "address"
        }
      ],
      "name": "initReserve",
      "outputs": [],
      "stateMutability": "nonpayable",
      "type": "function"
    },
    {
      "inputs": [
        {
          "internalType": "contract ILendingPoolAddressesProvider",
          "name": "provider",
          "type": "address"
        }
      ],
      "name": "initialize",
      "outputs": [],
      "stateMutability": "nonpayable",
      "type": "function"
    },
    {
      "inputs": [],
      "name": "leverager",
      "outputs": [
        {
          "internalType": "contract ILeverager",
          "name": "",
          "type": "address"
        }
      ],
      "stateMutability": "view",
      "type": "function"
    },
    {
      "inputs": [
        {
          "internalType": "address",
          "name": "collateralAsset",
          "type": "address"
        },
        {
          "internalType": "address",
          "name": "debtAsset",
          "type": "address"
        },
        {
          "internalType": "address",
          "name": "user",
          "type": "address"
        },
        {
          "internalType": "uint256",
          "name": "debtToCover",
          "type": "uint256"
        },
        {
          "internalType": "bool",
          "name": "receiveAToken",
          "type": "bool"
        }
      ],
      "name": "liquidationCall",
      "outputs": [],
      "stateMutability": "nonpayable",
      "type": "function"
    },
    {
      "inputs": [],
      "name": "owner",
      "outputs": [
        {
          "internalType": "address",
          "name": "",
          "type": "address"
        }
      ],
      "stateMutability": "view",
      "type": "function"
    },
    {
      "inputs": [],
      "name": "paused",
      "outputs": [
        {
          "internalType": "bool",
          "name": "",
          "type": "bool"
        }
      ],
      "stateMutability": "view",
      "type": "function"
    },
    {
      "inputs": [
        {
          "internalType": "address",
          "name": "asset",
          "type": "address"
        },
        {
          "internalType": "address",
          "name": "user",
          "type": "address"
        }
      ],
      "name": "rebalanceStableBorrowRate",
      "outputs": [],
      "stateMutability": "nonpayable",
      "type": "function"
    },
    {
      "inputs": [
        {
          "internalType": "address",
          "name": "asset",
          "type": "address"
        },
        {
          "internalType": "uint256",
          "name": "amount",
          "type": "uint256"
        },
        {
          "internalType": "uint256",
          "name": "rateMode",
          "type": "uint256"
        },
        {
          "internalType": "address",
          "name": "onBehalfOf",
          "type": "address"
        }
      ],
      "name": "repay",
      "outputs": [
        {
          "internalType": "uint256",
          "name": "",
          "type": "uint256"
        }
      ],
      "stateMutability": "nonpayable",
      "type": "function"
    },
    {
      "inputs": [
        {
          "internalType": "address",
          "name": "asset",
          "type": "address"
        },
        {
          "internalType": "uint256",
          "name": "configuration",
          "type": "uint256"
        }
      ],
      "name": "setConfiguration",
      "outputs": [],
      "stateMutability": "nonpayable",
      "type": "function"
    },
    {
      "inputs": [
        {
          "internalType": "contract ILeverager",
          "name": "_leverager",
          "type": "address"
        }
      ],
      "name": "setLeverager",
      "outputs": [],
      "stateMutability": "nonpayable",
      "type": "function"
    },
    {
      "inputs": [
        {
          "internalType": "address",
          "name": "_newOwner",
          "type": "address"
        }
      ],
      "name": "setNewOwner",
      "outputs": [],
      "stateMutability": "nonpayable",
      "type": "function"
    },
    {
      "inputs": [
        {
          "internalType": "bool",
          "name": "val",
          "type": "bool"
        }
      ],
      "name": "setPause",
      "outputs": [],
      "stateMutability": "nonpayable",
      "type": "function"
    },
    {
      "inputs": [
        {
          "internalType": "address",
          "name": "asset",
          "type": "address"
        },
        {
          "internalType": "address",
          "name": "rateStrategyAddress",
          "type": "address"
        }
      ],
      "name": "setReserveInterestRateStrategyAddress",
      "outputs": [],
      "stateMutability": "nonpayable",
      "type": "function"
    },
    {
      "inputs": [
        {
          "internalType": "address",
          "name": "asset",
          "type": "address"
        },
        {
          "internalType": "bool",
          "name": "useAsCollateral",
          "type": "bool"
        }
      ],
      "name": "setUserUseReserveAsCollateral",
      "outputs": [],
      "stateMutability": "nonpayable",
      "type": "function"
    },
    {
      "inputs": [
        {
          "internalType": "address",
          "name": "asset",
          "type": "address"
        },
        {
          "internalType": "uint256",
          "name": "rateMode",
          "type": "uint256"
        }
      ],
      "name": "swapBorrowRateMode",
      "outputs": [],
      "stateMutability": "nonpayable",
      "type": "function"
    },
    {
      "inputs": [
        {
          "internalType": "address",
          "name": "asset",
          "type": "address"
        },
        {
          "internalType": "uint256",
          "name": "amount",
          "type": "uint256"
        },
        {
          "internalType": "address",
          "name": "to",
          "type": "address"
        }
      ],
      "name": "withdraw",
      "outputs": [
        {
          "internalType": "uint256",
          "name": "",
          "type": "uint256"
        }
      ],
      "stateMutability": "nonpayable",
      "type": "function"
    }
  ],
  "transactionHash": "0x9a55e962bdd7ec01eee0f097f8d01225c3806e1d8c12b0397e52a6f4ae64ba95",
  "args": [],
  "numDeployments": 1,
  "solcInputHash": "f54c80fadb1017091d92ff7e19a408d3",
  "bytecode": "0x60806040526000805534801561001457600080fd5b50615c4080620000256000396000f3fe608060405234801561001057600080fd5b506004361061020a5760003560e01c8063ae507f9c1161012a578063d1946dbc116100bd578063e8eda9df1161008c578063f5a1f5b411610071578063f5a1f5b414610637578063f8119d511461064a578063fe65acfe1461065257600080fd5b8063e8eda9df14610611578063f187186c1461062457600080fd5b8063d1946dbc146105ce578063d5ed3933146105e3578063db3e3461146105f6578063e82fec2f1461060957600080fd5b8063c44b11f7116100f9578063c44b11f714610553578063c4d66de814610595578063cd112382146105a8578063d15e0053146105bb57600080fd5b8063ae507f9c146104da578063b8d29276146104ed578063bedb86fb14610500578063bf92857c1461051357600080fd5b80635c975abb116101a25780638da5cb5b116101715780638da5cb5b1461047657806394ba89a2146104a1578063a415bcad146104b4578063ab9c4b5d146104c757600080fd5b80635c975abb1461043257806369328dec146104485780637a708e921461045b5780638afaff021461046e57600080fd5b8063386497fd116101de578063386497fd146103a85780634417a583146103bb578063573ade811461040c5780635a3b74b91461041f57600080fd5b8062a718a91461020f578063074b2e43146102245780631d2118f91461023b57806335ea6a751461024e575b600080fd5b61022261021d366004615036565b610663565b005b603b545b6040519081526020015b60405180910390f35b61022261024936600461509e565b610937565b61039b61025c3660046150d7565b604080516101a08101825260006101808201818152825260208201819052918101829052606081018290526080810182905260a0810182905260c0810182905260e08101829052610100810182905261012081018290526101408101829052610160810191909152506001600160a01b0390811660009081526035602090815260409182902082516101a08101845281546101808201908152815260018201546001600160801b0380821694830194909452600160801b908190048416948201949094526002820154808416606083015284900483166080820152600382015492831660a08201529290910464ffffffffff1660c08301526004810154831660e0830152600581015483166101008301526006810154831661012083015260070154918216610140820152600160a01b90910460ff1661016082015290565b60405161023291906150f4565b6102286103b63660046150d7565b610970565b6103fd6103c93660046150d7565b60408051602080820183526000918290526001600160a01b0393909316815260368352819020815192830190915254815290565b60405190518152602001610232565b61022861041a366004615202565b610997565b61022261042d36600461524c565b610d12565b60395460ff166040519015158152602001610232565b61022861045636600461527a565b610efd565b6102226104693660046152bc565b611265565b610228600281565b603e54610489906001600160a01b031681565b6040516001600160a01b039091168152602001610232565b6102226104af36600461531f565b611391565b6102226104c236600461535d565b611713565b6102226104d5366004615423565b611793565b6102226104e836600461551d565b611f22565b6102226104fb36600461531f565b61204b565b61022261050e36600461556e565b61206f565b6105266105213660046150d7565b6120e9565b604080519687526020870195909552938501929092526060840152608083015260a082015260c001610232565b6103fd6105613660046150d7565b60408051602080820183526000918290526001600160a01b0393909316815260358352819020815192830190915254815290565b6102226105a33660046150d7565b6121d6565b6102226105b636600461509e565b6122d4565b6102286105c93660046150d7565b61256f565b6105d6612590565b604051610232919061558b565b6102226105f13660046155d8565b612647565b603d54610489906001600160a01b031681565b603a54610228565b61022261061f36600461551d565b61289c565b6102226106323660046150d7565b612b54565b6102226106453660046150d7565b612c12565b603c54610228565b6034546001600160a01b0316610489565b61066b612c77565b603454604080517f712d917100000000000000000000000000000000000000000000000000000000815290516000926001600160a01b03169163712d91719160048083019260209291908290030181865afa1580156106ce573d6000803e3d6000fd5b505050506040513d601f19601f820116820180604052508101906106f2919061563d565b90506000603460009054906101000a90046001600160a01b03166001600160a01b0316635afaf0186040518163ffffffff1660e01b8152600401602060405180830381865afa158015610749573d6000803e3d6000fd5b505050506040513d601f19601f8201168201806040525081019061076d919061563d565b90506001600160a01b0381166107805750335b6040516001600160a01b038881166024830152878116604483015286811660648301526084820186905284151560a483015282811660c4830152600091829185169060e40160408051601f198184030181529181526020820180517bffffffffffffffffffffffffffffffffffffffffffffffffffffffff167f3c42879700000000000000000000000000000000000000000000000000000000179052516108289190615686565b600060405180830381855af49150503d8060008114610863576040519150601f19603f3d011682016040523d82523d6000602084013e610868565b606091505b5091509150816040518060400160405280600281526020017f3233000000000000000000000000000000000000000000000000000000000000815250906108cb5760405162461bcd60e51b81526004016108c291906156a2565b60405180910390fd5b50600080828060200190518101906108e391906156eb565b9150915081600014816040516020016108fc9190615686565b604051602081830303815290604052906109295760405162461bcd60e51b81526004016108c291906156a2565b505050505050505050505050565b61093f612cd0565b6001600160a01b03918216600090815260356020526040902060070180546001600160a01b03191691909216179055565b6001600160a01b038116600090815260356020526040812061099190612db4565b92915050565b60006109a1612c77565b6001600160a01b038516600090815260356020526040812090806109c58584612e26565b9150915060008660028111156109dd576109dd6157a4565b6040517ffa0c214900000000000000000000000000000000000000000000000000000000815290915073f275d517B46A9e8C2FB246D03EB8411aFAD4aaAE9063fa0c214990610a3a9087908c9086908c908a908a906004016157dc565b60006040518083038186803b158015610a5257600080fd5b505af4158015610a66573d6000803e3d6000fd5b506000925060019150610a769050565b826002811115610a8857610a886157a4565b14610a935782610a95565b835b905080891015610aa25750875b610aab85612f16565b6001826002811115610abf57610abf6157a4565b1415610b32576005850154604051632770a7eb60e21b81526001600160a01b0389811660048301526024820184905290911690639dc29fac90604401600060405180830381600087803b158015610b1557600080fd5b505af1158015610b29573d6000803e3d6000fd5b50505050610bb5565b60068501546001860154604051637a94c56560e11b81526001600160a01b038a8116600483015260248201859052600160801b9092046001600160801b0316604482015291169063f5298aca90606401600060405180830381600087803b158015610b9c57600080fd5b505af1158015610bb0573d6000803e3d6000fd5b505050505b60048501546001600160a01b0316610bd1868c83856000612fd4565b610be582610bdf878761340c565b90613418565b610c1d5760078601546001600160a01b0389166000908152603660205260408120610c1d929091600160a01b90910460ff1690613424565b610c326001600160a01b038c1633838561349a565b6040517f88dd91a1000000000000000000000000000000000000000000000000000000008152336004820152602481018390526001600160a01b038216906388dd91a190604401600060405180830381600087803b158015610c9357600080fd5b505af1158015610ca7573d6000803e3d6000fd5b50505050336001600160a01b0316886001600160a01b03168c6001600160a01b03167f4cdde6e09bb755c9a5589ebaec640bbfedff1362d4b255ebf8339782b9942faa85604051610cfa91815260200190565b60405180910390a4509450505050505b949350505050565b610d1a612c77565b6001600160a01b03808316600090815260356020818152604080842033855260368352938190206038546034548351631f94a27560e31b81529351969773f275d517B46A9e8C2FB246D03EB8411aFAD4aaAE97635fa297e5978a978d978d9792969295603795939493169263fca513a8926004808401939192918290030181865afa158015610dad573d6000803e3d6000fd5b505050506040513d601f19601f82011682018060405250810190610dd1919061563d565b6040516001600160e01b031960e08b901b16815260048101989098526001600160a01b03968716602489015294151560448801526064870193909352608486019190915260a485015260c48401521660e48201526101040160006040518083038186803b158015610e4157600080fd5b505af4158015610e55573d6000803e3d6000fd5b505050506007810154336000908152603660205260409020610e8191600160a01b900460ff1684613528565b8115610ec15760405133906001600160a01b038516907e058a56ea94653cdf4f152d227ace22d4c00ad99e2a43f58cb7d9e3feb295f290600090a3505050565b60405133906001600160a01b038516907f44c58d81365b66dd4b1a7f36c25aa97b8c71c361ee4937adc1a00000227db5dd90600090a35b505050565b6000610f07612c77565b6001600160a01b0384811660009081526035602052604080822060048082015492516370a0823160e01b81523391810191909152909391909116919082906370a0823190602401602060405180830381865afa158015610f6b573d6000803e3d6000fd5b505050506040513d601f19601f82011682018060405250810190610f8f919061581d565b905085600019811415610f9f5750805b73f275d517B46A9e8C2FB246D03EB8411aFAD4aaAE63d09db04a898385603560366000336001600160a01b03166001600160a01b031681526020019081526020016000206037603854603460009054906101000a90046001600160a01b03166001600160a01b031663fca513a86040518163ffffffff1660e01b8152600401602060405180830381865afa15801561103b573d6000803e3d6000fd5b505050506040513d601f19601f8201168201806040525081019061105f919061563d565b60405160e08a901b6001600160e01b03191681526001600160a01b039889166004820152602481019790975260448701959095526064860193909352608485019190915260a484015260c483015290911660e48201526101040160006040518083038186803b1580156110d157600080fd5b505af41580156110e5573d6000803e3d6000fd5b505050506110f284612f16565b611100848985600085612fd4565b8181141561116a576007840154336000908152603660205260408120611133929091600160a01b90910460ff1690613528565b60405133906001600160a01b038a16907f44c58d81365b66dd4b1a7f36c25aa97b8c71c361ee4937adc1a00000227db5dd90600090a35b60018401546040517fd7020d0a0000000000000000000000000000000000000000000000000000000081523360048201526001600160a01b038881166024830152604482018490526001600160801b0390921660648201529084169063d7020d0a90608401600060405180830381600087803b1580156111e957600080fd5b505af11580156111fd573d6000803e3d6000fd5b50505050856001600160a01b0316336001600160a01b0316896001600160a01b03167f3115d1449a7b732c986cba18244e897a450f61e1bb8d589cd2e69e6c8924f9f78460405161125091815260200190565b60405180910390a493505050505b9392505050565b61126d612cd0565b60408051808201909152600281527f373800000000000000000000000000000000000000000000000000000000000060208201526001600160a01b0386163b6112c95760405162461bcd60e51b81526004016108c291906156a2565b506001600160a01b038581166000908152603560205260409081902090517f2b33897c0000000000000000000000000000000000000000000000000000000081526004810191909152858216602482015284821660448201528382166064820152908216608482015273cEedE471B51deF8Cf93A25bb670F2cc38339481f90632b33897c9060a40160006040518083038186803b15801561136957600080fd5b505af415801561137d573d6000803e3d6000fd5b5050505061138a856135a3565b5050505050565b611399612c77565b6001600160a01b038216600090815260356020526040812090806113bd3384612e26565b9150915060008460028111156113d5576113d56157a4565b336000908152603660205260409081902090517fa8695b1d00000000000000000000000000000000000000000000000000000000815291925073f275d517B46A9e8C2FB246D03EB8411aFAD4aaAE9163a8695b1d9161143f91889190889088908890600401615836565b60006040518083038186803b15801561145757600080fd5b505af415801561146b573d6000803e3d6000fd5b5050505061147884612f16565b600181600281111561148c5761148c6157a4565b1415611597576005840154604051632770a7eb60e21b8152336004820152602481018590526001600160a01b0390911690639dc29fac90604401600060405180830381600087803b1580156114e057600080fd5b505af11580156114f4573d6000803e3d6000fd5b505050506006840154600185015460405163b3f1c93d60e01b81523360048201819052602482015260448101869052600160801b9091046001600160801b031660648201526001600160a01b039091169063b3f1c93d906084016020604051808303816000875af115801561156d573d6000803e3d6000fd5b505050506040513d601f19601f82011682018060405250810190611591919061586a565b506116ad565b60068401546001850154604051637a94c56560e11b815233600482015260248101859052600160801b9091046001600160801b031660448201526001600160a01b039091169063f5298aca90606401600060405180830381600087803b15801561160057600080fd5b505af1158015611614573d6000803e3d6000fd5b505050506005840154600385015460405163b3f1c93d60e01b815233600482018190526024820152604481018590526001600160801b0390911660648201526001600160a01b039091169063b3f1c93d906084016020604051808303816000875af1158015611687573d6000803e3d6000fd5b505050506040513d601f19601f820116820180604052508101906116ab919061586a565b505b60048401546116cb90859088906001600160a01b0316600080612fd4565b60405185815233906001600160a01b038816907fea368a40e9570069bb8e6511d668293ad2e1f03b0d982431fd223de9f3b70ca69060200160405180910390a3505050505050565b61171b612c77565b6001600160a01b038086166000818152603560209081526040918290208251610100810184529384523391840191909152848416918301919091526060820187905260808201869052600481015490921660a082015261ffff841660c0820152600160e082015261178b906136ea565b505050505050565b61179b612c77565b6040805161012081018252600080825260208201819052918101829052606081018290526080810182905260a0810182905260c0810182905260e081018290526101008101919091526118518b8b8080602002602001604051908101604052809392919081815260200183836020028082843760009201919091525050604080516020808f0282810182019093528e82529093508e92508d918291850190849080828437600092019190915250613c7892505050565b60008a67ffffffffffffffff81111561186c5761186c6156d5565b604051908082528060200260200182016040528015611895578160200160208202803683370190505b50905060008b67ffffffffffffffff8111156118b3576118b36156d5565b6040519080825280602002602001820160405280156118dc578160200160208202803683370190505b506001600160a01b038f1684526000604085015290505b60408301518c1115611ace57603560008e8e866040015181811061191957611919615887565b905060200201602081019061192e91906150d7565b6001600160a01b03166001600160a01b0316815260200190815260200160002060040160009054906101000a90046001600160a01b03168284604001518151811061197b5761197b615887565b60200260200101906001600160a01b031690816001600160a01b0316815250506119d86127106119d2603b548e8e88604001518181106119bd576119bd615887565b90506020020135613cd190919063ffffffff16565b90613cdd565b818460400151815181106119ee576119ee615887565b60200260200101818152505081836040015181518110611a1057611a10615887565b60200260200101516001600160a01b0316634efecaa58f8d8d8760400151818110611a3d57611a3d615887565b6040516001600160e01b031960e087901b1681526001600160a01b03909416600485015260200291909101356024830152506044016020604051808303816000875af1158015611a91573d6000803e3d6000fd5b505050506040513d601f19601f82011682018060405250810190611ab5919061581d565b5060408301805190611ac6826158b3565b9052506118f3565b82600001516001600160a01b031663920f5c848e8e8e8e86338d8d6040518963ffffffff1660e01b8152600401611b0c989796959493929190615932565b6020604051808303816000875af1158015611b2b573d6000803e3d6000fd5b505050506040513d601f19601f82011682018060405250810190611b4f919061586a565b6040518060400160405280600281526020017f363600000000000000000000000000000000000000000000000000000000000081525090611ba35760405162461bcd60e51b81526004016108c291906156a2565b50600060408401525b60408301518c1115611f12578c8c8460400151818110611bce57611bce615887565b9050602002016020810190611be391906150d7565b6001600160a01b0316606084015260408301518b908b90818110611c0957611c09615887565b905060200201358360a001818152505080836040015181518110611c2f57611c2f615887565b60200260200101518360c001818152505081836040015181518110611c5657611c56615887565b60209081029190910101516001600160a01b0316608084015260c083015160a0840151611c829161340c565b60e0840152600089898560400151818110611c9f57611c9f615887565b905060200201356002811115611cb757611cb76157a4565b6002811115611cc857611cc86157a4565b1415611deb5760608301516001600160a01b03166000908152603560205260409020611cf390612f16565b611d8483608001516001600160a01b03166318160ddd6040518163ffffffff1660e01b8152600401602060405180830381865afa158015611d38573d6000803e3d6000fd5b505050506040513d601f19601f82011682018060405250810190611d5c919061581d565b60c085015160608601516001600160a01b031660009081526035602052604090209190613ce9565b6060830151608084015160e08501516001600160a01b0383166000908152603560205260408120611dba94909390929091612fd4565b611de68e84608001518560e0015186606001516001600160a01b031661349a909392919063ffffffff16565b611e80565b611e8060405180610100016040528085606001516001600160a01b03168152602001336001600160a01b03168152602001896001600160a01b031681526020018560a0015181526020018b8b8760400151818110611e4b57611e4b615887565b90506020020135815260200185608001516001600160a01b031681526020018661ffff168152602001600015158152506136ea565b82606001516001600160a01b0316336001600160a01b03168f6001600160a01b03167f631042c832b07452973831137f2d73e395028b44b250dedc5abb0ee766e168ac8660a001518760c0015189604051611ef293929190928352602083019190915261ffff16604082015260600190565b60405180910390a460408301805190611f0a826158b3565b905250611bac565b5050505050505050505050505050565b611f2a612c77565b326001600160a01b03831614611f3f57600080fd5b611f4b8484848461289c565b603d546040517f03bf24e50000000000000000000000000000000000000000000000000000000081526001600160a01b0384811660048301529091169063ec67ff739082906303bf24e590602401602060405180830381865afa158015611fb6573d6000803e3d6000fd5b505050506040513d601f19601f82011682018060405250810190611fda919061581d565b6040516001600160e01b031960e084901b16815260048101919091526001600160a01b03851660248201526044016020604051808303816000875af1158015612027573d6000803e3d6000fd5b505050506040513d601f19601f8201168201806040525081019061138a919061581d565b612053612cd0565b6001600160a01b03909116600090815260356020526040902055565b612077612cd0565b6039805460ff191682151590811790915560ff16156120bc576040517f9e87fac88ff661f02d44f95383c817fece4bce600a3dab7a54406878b965e75290600090a150565b6040517fa45f47fdea8a1efdd9029a5691c7f759c32b7c698632b563573e155625d1693390600090a15b50565b6000806000806000806121b3876035603660008b6001600160a01b03166001600160a01b031681526020019081526020016000206040518060200160405290816000820154815250506037603854603460009054906101000a90046001600160a01b03166001600160a01b031663fca513a86040518163ffffffff1660e01b8152600401602060405180830381865afa15801561218a573d6000803e3d6000fd5b505050506040513d601f19601f820116820180604052508101906121ae919061563d565b613db3565b939950919750909450925090506121cb8686846142dc565b935091939550919395565b60015460029060ff16806121e95750303b155b806121f5575060005481115b6122675760405162461bcd60e51b815260206004820152602e60248201527f436f6e747261637420696e7374616e63652068617320616c726561647920626560448201527f656e20696e697469616c697a656400000000000000000000000000000000000060648201526084016108c2565b60015460ff16158015612286576001805460ff19168117905560008290555b603480546001600160a01b0385166001600160a01b0319918216179091556109c4603a556009603b556080603c55603e8054909116321790558015610ef8576001805460ff19169055505050565b6122dc612c77565b6001600160a01b038281166000908152603560205260408082206005810154600682015460048084015494516370a0823160e01b815288881691810191909152929591821694908216939091169184906370a0823190602401602060405180830381865afa158015612352573d6000803e3d6000fd5b505050506040513d601f19601f82011682018060405250810190612376919061581d565b6040517f548cad09000000000000000000000000000000000000000000000000000000008152600481018790526001600160a01b03808a166024830152808716604483015280861660648301528416608482015290915073f275d517B46A9e8C2FB246D03EB8411aFAD4aaAE9063548cad099060a40160006040518083038186803b15801561240457600080fd5b505af4158015612418573d6000803e3d6000fd5b5050505061242585612f16565b604051632770a7eb60e21b81526001600160a01b03878116600483015260248201839052851690639dc29fac90604401600060405180830381600087803b15801561246f57600080fd5b505af1158015612483573d6000803e3d6000fd5b50505050600385015460405163b3f1c93d60e01b81526001600160a01b03888116600483018190526024830152604482018490526001600160801b0390921660648201529085169063b3f1c93d906084016020604051808303816000875af11580156124f3573d6000803e3d6000fd5b505050506040513d601f19601f82011682018060405250810190612517919061586a565b50612526858884600080612fd4565b856001600160a01b0316876001600160a01b03167f9f439ae0c81e41a04d3fdfe07aed54e6a179fb0db15be7702eb66fa8ef6f530060405160405180910390a350505050505050565b6001600160a01b038116600090815260356020526040812061099190614310565b6060600060385467ffffffffffffffff8111156125af576125af6156d5565b6040519080825280602002602001820160405280156125d8578160200160208202803683370190505b50905060005b6038548110156126415760008181526037602052604090205482516001600160a01b039091169083908390811061261757612617615887565b6001600160a01b039092166020928302919091019091015280612639816158b3565b9150506125de565b50919050565b61264f612c77565b6001600160a01b03868116600090815260356020908152604091829020600401548251808401909352600283527f36330000000000000000000000000000000000000000000000000000000000009183019190915290911633146126c65760405162461bcd60e51b81526004016108c291906156a2565b5061277385603560366000896001600160a01b03166001600160a01b031681526020019081526020016000206037603854603460009054906101000a90046001600160a01b03166001600160a01b031663fca513a86040518163ffffffff1660e01b8152600401602060405180830381865afa15801561274a573d6000803e3d6000fd5b505050506040513d601f19601f8201168201806040525081019061276e919061563d565b61436c565b6001600160a01b03868116600090815260356020526040902060070154600160a01b900460ff169085811690871614612893576127b08385613418565b61281c576001600160a01b0386166000908152603660205260408120906127da9082908490613528565b866001600160a01b0316886001600160a01b03167f44c58d81365b66dd4b1a7f36c25aa97b8c71c361ee4937adc1a00000227db5dd60405160405180910390a3505b8115801561282957508315155b15612893576001600160a01b038516600090815260366020526040902061285281836001613528565b856001600160a01b0316886001600160a01b03167e058a56ea94653cdf4f152d227ace22d4c00ad99e2a43f58cb7d9e3feb295f260405160405180910390a3505b50505050505050565b6128a4612c77565b6001600160a01b0384166000908152603560205260409081902090517f0eca322b000000000000000000000000000000000000000000000000000000008152600481018290526024810185905273f275d517B46A9e8C2FB246D03EB8411aFAD4aaAE90630eca322b9060440160006040518083038186803b15801561292857600080fd5b505af415801561293c573d6000803e3d6000fd5b5050505060048101546001600160a01b031661295782612f16565b612965828783886000612fd4565b61297a6001600160a01b03871633838861349a565b6040516370a0823160e01b81526001600160a01b0385811660048301528216906370a0823190602401602060405180830381865afa1580156129c0573d6000803e3d6000fd5b505050506040513d601f19601f820116820180604052508101906129e4919061581d565b612a5a5760078201546001600160a01b0385166000908152603660205260409020612a1a91600160a01b900460ff166001613528565b836001600160a01b0316866001600160a01b03167e058a56ea94653cdf4f152d227ace22d4c00ad99e2a43f58cb7d9e3feb295f260405160405180910390a35b60018201546040517f156e29f60000000000000000000000000000000000000000000000000000000081526001600160a01b038681166004830152602482018890526001600160801b0390921660448201529082169063156e29f6906064016020604051808303816000875af1158015612ad8573d6000803e3d6000fd5b505050506040513d601f19601f82011682018060405250810190612afc919061586a565b50604080513381526020810187905261ffff8516916001600160a01b0380881692908a16917fde6857219544bb5b7746f48ed30be6386fefc61b2f864cacf559893bf50fd951910160405180910390a4505050505050565b603e546001600160a01b03163314612b975760405162461bcd60e51b815260206004820152600660248201526510b7bbb732b960d11b60448201526064016108c2565b603d546001600160a01b031615612bf05760405162461bcd60e51b815260206004820152601560248201527f4c657665726167657220416c726561647920536574000000000000000000000060448201526064016108c2565b603d80546001600160a01b0319166001600160a01b0392909216919091179055565b603e546001600160a01b03163314612c555760405162461bcd60e51b815260206004820152600660248201526510b7bbb732b960d11b60448201526064016108c2565b603e80546001600160a01b0319166001600160a01b0392909216919091179055565b60395460408051808201909152600281527f363400000000000000000000000000000000000000000000000000000000000060208201529060ff16156120e65760405162461bcd60e51b81526004016108c291906156a2565b603454604080517f85c858b1000000000000000000000000000000000000000000000000000000008152905133926001600160a01b0316916385c858b19160048083019260209291908290030181865afa158015612d32573d6000803e3d6000fd5b505050506040513d601f19601f82011682018060405250810190612d56919061563d565b6001600160a01b0316146040518060400160405280600281526020017f3237000000000000000000000000000000000000000000000000000000000000815250906120e65760405162461bcd60e51b81526004016108c291906156a2565b600381015460009064ffffffffff600160801b9091048116904216811415612def57505060010154600160801b90046001600160801b031690565b60018301546002840154600091610d0a916001600160801b03600160801b92839004811692612e20920416856143fe565b9061440b565b60058101546040516370a0823160e01b81526001600160a01b03848116600483015260009283929116906370a0823190602401602060405180830381865afa158015612e76573d6000803e3d6000fd5b505050506040513d601f19601f82011682018060405250810190612e9a919061581d565b60068401546040516370a0823160e01b81526001600160a01b038781166004830152909116906370a0823190602401602060405180830381865afa158015612ee6573d6000803e3d6000fd5b505050506040513d601f19601f82011682018060405250810190612f0a919061581d565b915091505b9250929050565b60068101546040805163b1bf962d60e01b815290516000926001600160a01b03169163b1bf962d9160048083019260209291908290030181865afa158015612f62573d6000803e3d6000fd5b505050506040513d601f19601f82011682018060405250810190612f86919061581d565b60018301546003840154919250600160801b8082046001600160801b03908116939216910464ffffffffff16600080612fc287878688876144c6565b9150915061289387878785858861465e565b61302560405180610100016040528060006001600160a01b03168152602001600081526020016000815260200160008152602001600081526020016000815260200160008152602001600081525090565b60058601546001600160a01b0316808252604080517ff731e9be000000000000000000000000000000000000000000000000000000008152815163f731e9be926004808401939192918290030181865afa158015613087573d6000803e3d6000fd5b505050506040513d601f19601f820116820180604052508101906130ab9190615a18565b60c083015260408083019190915260018701546006880154825163b1bf962d60e01b8152925161314193600160801b9093046001600160801b0316926001600160a01b039092169163b1bf962d9160048083019260209291908290030181865afa15801561311d573d6000803e3d6000fd5b505050506040513d601f19601f82011682018060405250810190612e20919061581d565b60e082018190526007870154604083015160c08401516001600160a01b03909216926329db497d92899289928992899291906131858f5461ffff60409190911c1690565b6040516001600160e01b031960e08b901b1681526001600160a01b03988916600482015297909616602488015260448701949094526064860192909252608485015260a484015260c483015260e482015261010401606060405180830381865afa1580156131f7573d6000803e3d6000fd5b505050506040513d601f19601f8201168201806040525081019061321b9190615a3c565b60a084015260808301526060820181905260408051808201909152600281527f35330000000000000000000000000000000000000000000000000000000000006020820152906001600160801b0310156132885760405162461bcd60e51b81526004016108c291906156a2565b50608081015160408051808201909152600281527f35350000000000000000000000000000000000000000000000000000000000006020820152906001600160801b0310156132ea5760405162461bcd60e51b81526004016108c291906156a2565b5060a081015160408051808201909152600281527f35340000000000000000000000000000000000000000000000000000000000006020820152906001600160801b03101561334c5760405162461bcd60e51b81526004016108c291906156a2565b5060608181015160808084015160038a0180546fffffffffffffffffffffffffffffffff19166001600160801b038084169190911790915560a080870151828616600160801b82851681029190911760028f015560018e015460408051988952602089019690965294870191909152838316968601969096529490910416908201526001600160a01b038716917f804c9b842b2748a22bb64b345453a3de7ca54a6ca45ce00d415894979e22897a910160405180910390a2505050505050565b600061125e8284615a6a565b600061125e8284615a82565b604080518082019091526002815261373760f01b60208201526080831061345e5760405162461bcd60e51b81526004016108c291906156a2565b5061346a826002615a99565b81613476576000613479565b60015b60ff16901b613489836002615a99565b8454600190911b1916179092555050565b604080516001600160a01b0385811660248301528416604482015260648082018490528251808303909101815260849091019091526020810180517bffffffffffffffffffffffffffffffffffffffffffffffffffffffff167f23b872dd00000000000000000000000000000000000000000000000000000000179052613522908590614893565b50505050565b604080518082019091526002815261373760f01b6020820152608083106135625760405162461bcd60e51b81526004016108c291906156a2565b5061356e826002615a99565b613579906001615a6a565b81613585576000613588565b60015b60ff16901b613598836002615a99565b613489906001615a6a565b603854603c5460408051808201909152600281527f363500000000000000000000000000000000000000000000000000000000000060208201529082106135fd5760405162461bcd60e51b81526004016108c291906156a2565b506001600160a01b038216600090815260356020526040812060070154600160a01b900460ff1615158061366657506000805260376020527fa0a618d80eda9243166be83cb7421d97e9dab6ddddd3c70ac7a6b4440256e8e7546001600160a01b038481169116145b905080610ef8576001600160a01b038316600081815260356020908152604080832060070180547fffffffffffffffffffffff00ffffffffffffffffffffffffffffffffffffffff16600160a01b60ff8916021790558583526037909152902080546001600160a01b03191690911790556136e2826001615a6a565b603855505050565b80516001600160a01b0390811660009081526035602090815260408083208186015185168452603683528184206034548351631f94a27560e31b81529351929691959491169263fca513a892600480830193928290030181865afa158015613756573d6000803e3d6000fd5b505050506040513d601f19601f8201168201806040525081019061377a919061563d565b83549091506000906138139060301c60ff1661379790600a615b9c565b6060870151875160405163b3596f0760e01b81526001600160a01b0391821660048201526119d2929187169063b3596f0790602401602060405180830381865afa1580156137e9573d6000803e3d6000fd5b505050506040513d601f19601f8201168201806040525081019061380d919061581d565b90613cd1565b8551604080880151606089015160808a0151603a5460385494517f721a92f90000000000000000000000000000000000000000000000000000000081526001600160a01b039687166004820152602481018c9052938616604485015260648401929092526084830186905260a483015260c4820152603560e48201526101048101879052603761012482015261014481019190915290841661016482015290915073f275d517B46A9e8C2FB246D03EB8411aFAD4aaAE9063721a92f9906101840160006040518083038186803b1580156138ec57600080fd5b505af4158015613900573d6000803e3d6000fd5b5050505061390d84612f16565b600080600187608001516002811115613928576139286157a4565b6002811115613939576139396157a4565b14156139ee576003860154600587015460208901516040808b015160608c0151915163b3f1c93d60e01b81526001600160a01b039384166004820152908316602482015260448101919091526001600160801b03909316606484018190529450169063b3f1c93d906084016020604051808303816000875af11580156139c3573d6000803e3d6000fd5b505050506040513d601f19601f820116820180604052508101906139e7919061586a565b9050613a99565b600686015460208801516040808a015160608b015160018b0154925163b3f1c93d60e01b81526001600160a01b03948516600482015291841660248301526044820152600160801b9091046001600160801b0316606482015291169063b3f1c93d906084016020604051808303816000875af1158015613a72573d6000803e3d6000fd5b505050506040513d601f19601f82011682018060405250810190613a96919061586a565b90505b8015613abb576007860154613abb908690600160a01b900460ff166001613424565b613aea87600001518860a0015160008a60e00151613ada576000613ae0565b8a606001515b8a93929190612fd4565b8660e0015115613b925760a0870151602088015160608901516040517f4efecaa50000000000000000000000000000000000000000000000000000000081526001600160a01b0392831660048201526024810191909152911690634efecaa5906044016020604051808303816000875af1158015613b6c573d6000803e3d6000fd5b505050506040513d601f19601f82011682018060405250810190613b90919061581d565b505b8660c0015161ffff1687604001516001600160a01b031688600001516001600160a01b03167fc6a898309e823ee50bac64e45ca8adba6690e99e7841c45d754e2a38e9019d9b8a602001518b606001518c6080015160016002811115613bfa57613bfa6157a4565b8e608001516002811115613c1057613c106157a4565b6002811115613c2157613c216157a4565b14613c405760028d0154600160801b90046001600160801b0316613c42565b885b604080516001600160a01b039095168552602085019390935291830152606082015260800160405180910390a450505050505050565b80518251146040518060400160405280600281526020017f373300000000000000000000000000000000000000000000000000000000000081525090610ef85760405162461bcd60e51b81526004016108c291906156a2565b600061125e8284615a99565b600061125e8284615ba8565b6000613d06613cf784614978565b613d0084614978565b906149db565b90506000613d20826b033b2e3c9fd0803ce800000061340c565b6001860154909150613d3c9082906001600160801b031661440b565b604080518082019091526002815261353160f01b60208201529091506001600160801b03821115613d805760405162461bcd60e51b81526004016108c291906156a2565b5060019490940180546fffffffffffffffffffffffffffffffff19166001600160801b0390951694909417909355505050565b6000806000806000613e58604051806102400160405280600081526020016000815260200160008152602001600081526020016000815260200160008152602001600081526020016000815260200160008152602001600081526020016000815260200160008152602001600081526020016000815260200160001515815260200160006001600160a01b031681526020016000151581526020016000151581525090565b8951613e775760008060008060001995509550955095509550506142ce565b600060e08201525b878160e00151101561422d5760e0810151613e9b908b90614ab1565b613ea457614215565b60e0810151600090815260208a81526040808320546001600160a01b03166101e085018190528352908d90529020613f01815461ffff80821692601083901c821692602081901c831692603082901c60ff169260409290921c1690565b506080860181905260c08601929092525060a0840191909152613f2590600a615b9c565b60208301526101e082015160405163b3596f0760e01b81526001600160a01b0391821660048201529089169063b3596f0790602401602060405180830381865afa158015613f77573d6000803e3d6000fd5b505050506040513d601f19601f82011682018060405250810190613f9b919061581d565b825260c082015115801590613fbb575060e0820151613fbb908c90614b0c565b156140d9578060040160009054906101000a90046001600160a01b03166001600160a01b03166370a082318e6040518263ffffffff1660e01b815260040161401291906001600160a01b0391909116815260200190565b602060405180830381865afa15801561402f573d6000803e3d6000fd5b505050506040513d601f19601f82011682018060405250810190614053919061581d565b604083018190526020830151835160009261407292916119d291613cd1565b610120840151909150614085908261340c565b61012084015260a08301516140ab9061409f908390613cd1565b6101608501519061340c565b61016084015260c08301516140d1906140c5908390613cd1565b6101808501519061340c565b610180840152505b60e08201516140e9908c90614b72565b156142135760058101546040516370a0823160e01b81526001600160a01b038f81166004830152909116906370a0823190602401602060405180830381865afa15801561413a573d6000803e3d6000fd5b505050506040513d601f19601f8201168201806040525081019061415e919061581d565b606083015260068101546040516370a0823160e01b81526001600160a01b038f811660048301526141e09216906370a0823190602401602060405180830381865afa1580156141b1573d6000803e3d6000fd5b505050506040513d601f19601f820116820180604052508101906141d5919061581d565b60608401519061340c565b606083018190526020830151835161420c9261420092916119d291613cd1565b6101408401519061340c565b6101408301525b505b60e08101805190614225826158b3565b905250613e7f565b600081610120015111614241576000614256565b61012081015161016082015161425691613cdd565b61016082015261012081015161426d576000614282565b61012081015161018082015161428291613cdd565b610180820181905261012082015161014083015161429f92614bbd565b610100820181905261012082015161014083015161016084015161018090940151919850965091945090925090505b965096509650965096915050565b6000806142e98584614be1565b9050838110156142fd57600091505061125e565b6143078185613418565b95945050505050565b600381015460009064ffffffffff600160801b9091048116904216811415614344575050600101546001600160801b031690565b60018301546002840154600091610d0a916001600160801b0391821691612e20911685614c6a565b60408051602081019091528454815260009061438e9088908890878787613db3565b945050505050670de0b6b3a76400008110156040518060400160405280600181526020017f3600000000000000000000000000000000000000000000000000000000000000815250906143f45760405162461bcd60e51b81526004016108c291906156a2565b5050505050505050565b600061125e838342614caf565b6000821580614418575081155b1561442557506000610991565b8161443d60026b033b2e3c9fd0803ce8000000615ba8565b61444990600019615a82565b6144539190615ba8565b83111560405180604001604052806002815260200161068760f31b8152509061448f5760405162461bcd60e51b81526004016108c291906156a2565b506b033b2e3c9fd0803ce80000006144a8600282615ba8565b6144b28486615a99565b6144bc9190615a6a565b61125e9190615ba8565b600285015460009081906001600160801b0316858582156146185760006144ed8488614c6a565b90506144f9818a61440b565b604080518082019091526002815261353160f01b60208201529093506001600160801b0384111561453d5760405162461bcd60e51b81526004016108c291906156a2565b5060018b0180546fffffffffffffffffffffffffffffffff19166001600160801b03851617905589156146165760028b015460009061458c90600160801b90046001600160801b0316896143fe565b9050614598818a61440b565b60408051808201909152600281527f353200000000000000000000000000000000000000000000000000000000000060208201529093506001600160801b038411156145f75760405162461bcd60e51b81526004016108c291906156a2565b505060018b0180546001600160801b03808516600160801b0291161790555b505b60039990990180547fffffffffffffffffffffff0000000000ffffffffffffffffffffffffffffffff16600160801b4264ffffffffff1602179055989650505050505050565b6146c260405180610160016040528060008152602001600081526020016000815260200160008152602001600081526020016000815260200160008152602001600081526020016000815260200160008152602001600064ffffffffff1681525090565b865460401c61ffff1661012082018190526146dd575061178b565b8660050160009054906101000a90046001600160a01b03166001600160a01b031663797743386040518163ffffffff1660e01b8152600401608060405180830381865afa158015614732573d6000803e3d6000fd5b505050506040513d601f19601f820116820180604052508101906147569190615bca565b64ffffffffff1661014085015260a084015282526020820152614779868661440b565b6080820152614788868461440b565b606082015260a08101516101408201516147aa919064ffffffffff8516614caf565b60c0820181905260208201516147bf9161440b565b604082018190526080820151825160608401516147e49392610bdf929091839161340c565b60e082018190526101208201516147fb9190614be1565b610100820181905215612893576004878101546101008301516040517f7df5bd3b00000000000000000000000000000000000000000000000000000000815292830152602482018690526001600160a01b031690637df5bd3b90604401600060405180830381600087803b15801561487257600080fd5b505af1158015614886573d6000803e3d6000fd5b5050505050505050505050565b60006148e8826040518060400160405280602081526020017f5361666545524332303a206c6f772d6c6576656c2063616c6c206661696c6564815250856001600160a01b0316614dad9092919063ffffffff16565b805190915015610ef85780806020019051810190614906919061586a565b610ef85760405162461bcd60e51b815260206004820152602a60248201527f5361666545524332303a204552433230206f7065726174696f6e20646964206e60448201527f6f7420737563636565640000000000000000000000000000000000000000000060648201526084016108c2565b600080614989633b9aca0084615a99565b90508261499a633b9aca0083615ba8565b1460405180604001604052806002815260200161068760f31b815250906149d45760405162461bcd60e51b81526004016108c291906156a2565b5092915050565b604080518082019091526002815261035360f41b602082015260009082614a155760405162461bcd60e51b81526004016108c291906156a2565b506000614a23600284615ba8565b90506b033b2e3c9fd0803ce8000000614a3e82600019615a82565b614a489190615ba8565b84111560405180604001604052806002815260200161068760f31b81525090614a845760405162461bcd60e51b81526004016108c291906156a2565b508281614a9d6b033b2e3c9fd0803ce800000087615a99565b614aa79190615a6a565b610d0a9190615ba8565b60006080821060405180604001604052806002815260200161373760f01b81525090614af05760405162461bcd60e51b81526004016108c291906156a2565b50614afc826002615a99565b925190921c600316151592915050565b60006080821060405180604001604052806002815260200161373760f01b81525090614b4b5760405162461bcd60e51b81526004016108c291906156a2565b50614b57826002615a99565b614b62906001615a6a565b925190921c600116151592915050565b60006080821060405180604001604052806002815260200161373760f01b81525090614bb15760405162461bcd60e51b81526004016108c291906156a2565b50614b62826002615a99565b600082614bcd575060001961125e565b610d0a83614bdb8685614be1565b90614dbc565b6000821580614bee575081155b15614bfb57506000610991565b81614c096002612710615ba8565b614c1590600019615a82565b614c1f9190615ba8565b83111560405180604001604052806002815260200161068760f31b81525090614c5b5760405162461bcd60e51b81526004016108c291906156a2565b506127106144a8600282615ba8565b600080614c7e4264ffffffffff8516613418565b9050610d0a6b033b2e3c9fd0803ce80000006301e13380614c9f8785613cd1565b614ca99190615ba8565b9061340c565b600080614cc38364ffffffffff8616613418565b905080614cdf576b033b2e3c9fd0803ce800000091505061125e565b6000614cec600183615a82565b9050600060028311614cff576000614d0a565b614d0a600284615a82565b90506000614d1c6301e1338089615ba8565b90506000614d2a828061440b565b90506000614d38828461440b565b905060006002614d4c8461380d8a8a613cd1565b614d569190615ba8565b905060006006614d6c8461380d89818d8d613cd1565b614d769190615ba8565b9050614d9d81614ca98481614d8b8a8e613cd1565b6b033b2e3c9fd0803ce8000000614ca9565b9c9b505050505050505050505050565b6060610d0a8484600085614e76565b604080518082019091526002815261035360f41b602082015260009082614df65760405162461bcd60e51b81526004016108c291906156a2565b506000614e04600284615ba8565b9050670de0b6b3a7640000614e1b82600019615a82565b614e259190615ba8565b84111560405180604001604052806002815260200161068760f31b81525090614e615760405162461bcd60e51b81526004016108c291906156a2565b508281614a9d670de0b6b3a764000087615a99565b606082471015614eee5760405162461bcd60e51b815260206004820152602660248201527f416464726573733a20696e73756666696369656e742062616c616e636520666f60448201527f722063616c6c000000000000000000000000000000000000000000000000000060648201526084016108c2565b600080866001600160a01b03168587604051614f0a9190615686565b60006040518083038185875af1925050503d8060008114614f47576040519150601f19603f3d011682016040523d82523d6000602084013e614f4c565b606091505b5091509150614f5d87838387614f68565b979650505050505050565b60608315614fd4578251614fcd576001600160a01b0385163b614fcd5760405162461bcd60e51b815260206004820152601d60248201527f416464726573733a2063616c6c20746f206e6f6e2d636f6e747261637400000060448201526064016108c2565b5081610d0a565b610d0a8383815115614fe95781518083602001fd5b8060405162461bcd60e51b81526004016108c291906156a2565b6001600160a01b03811681146120e657600080fd5b803561502381615003565b919050565b80151581146120e657600080fd5b600080600080600060a0868803121561504e57600080fd5b853561505981615003565b9450602086013561506981615003565b9350604086013561507981615003565b925060608601359150608086013561509081615028565b809150509295509295909350565b600080604083850312156150b157600080fd5b82356150bc81615003565b915060208301356150cc81615003565b809150509250929050565b6000602082840312156150e957600080fd5b813561125e81615003565b81515181526101808101602083015161511860208401826001600160801b03169052565b50604083015161513360408401826001600160801b03169052565b50606083015161514e60608401826001600160801b03169052565b50608083015161516960808401826001600160801b03169052565b5060a083015161518460a08401826001600160801b03169052565b5060c083015161519d60c084018264ffffffffff169052565b5060e08301516151b860e08401826001600160a01b03169052565b50610100838101516001600160a01b03908116918401919091526101208085015182169084015261014080850151909116908301526101609283015160ff16929091019190915290565b6000806000806080858703121561521857600080fd5b843561522381615003565b93506020850135925060408501359150606085013561524181615003565b939692955090935050565b6000806040838503121561525f57600080fd5b823561526a81615003565b915060208301356150cc81615028565b60008060006060848603121561528f57600080fd5b833561529a81615003565b92506020840135915060408401356152b181615003565b809150509250925092565b600080600080600060a086880312156152d457600080fd5b85356152df81615003565b945060208601356152ef81615003565b935060408601356152ff81615003565b9250606086013561530f81615003565b9150608086013561509081615003565b6000806040838503121561533257600080fd5b823561533d81615003565b946020939093013593505050565b803561ffff8116811461502357600080fd5b600080600080600060a0868803121561537557600080fd5b853561538081615003565b9450602086013593506040860135925061530f6060870161534b565b60008083601f8401126153ae57600080fd5b50813567ffffffffffffffff8111156153c657600080fd5b6020830191508360208260051b8501011115612f0f57600080fd5b60008083601f8401126153f357600080fd5b50813567ffffffffffffffff81111561540b57600080fd5b602083019150836020828501011115612f0f57600080fd5b600080600080600080600080600080600060e08c8e03121561544457600080fd5b61544d8c615018565b9a5067ffffffffffffffff8060208e0135111561546957600080fd5b6154798e60208f01358f0161539c565b909b50995060408d013581101561548f57600080fd5b61549f8e60408f01358f0161539c565b909950975060608d01358110156154b557600080fd5b6154c58e60608f01358f0161539c565b90975095506154d660808e01615018565b94508060a08e013511156154e957600080fd5b506154fa8d60a08e01358e016153e1565b909350915061550b60c08d0161534b565b90509295989b509295989b9093969950565b6000806000806080858703121561553357600080fd5b843561553e81615003565b935060208501359250604085013561555581615003565b91506155636060860161534b565b905092959194509250565b60006020828403121561558057600080fd5b813561125e81615028565b6020808252825182820181905260009190848201906040850190845b818110156155cc5783516001600160a01b0316835292840192918401916001016155a7565b50909695505050505050565b60008060008060008060c087890312156155f157600080fd5b86356155fc81615003565b9550602087013561560c81615003565b9450604087013561561c81615003565b959894975094956060810135955060808101359460a0909101359350915050565b60006020828403121561564f57600080fd5b815161125e81615003565b60005b8381101561567557818101518382015260200161565d565b838111156135225750506000910152565b6000825161569881846020870161565a565b9190910192915050565b60208152600082518060208401526156c181604085016020870161565a565b601f01601f19169190910160400192915050565b634e487b7160e01b600052604160045260246000fd5b600080604083850312156156fe57600080fd5b82519150602083015167ffffffffffffffff8082111561571d57600080fd5b818501915085601f83011261573157600080fd5b815181811115615743576157436156d5565b604051601f8201601f19908116603f0116810190838211818310171561576b5761576b6156d5565b8160405282815288602084870101111561578457600080fd5b61579583602083016020880161565a565b80955050505050509250929050565b634e487b7160e01b600052602160045260246000fd5b600381106157d857634e487b7160e01b600052602160045260246000fd5b9052565b8681526020810186905260c081016157f760408301876157ba565b6001600160a01b03851660608301528360808301528260a0830152979650505050505050565b60006020828403121561582f57600080fd5b5051919050565b600060a08201905086825285602083015284604083015283606083015261586060808301846157ba565b9695505050505050565b60006020828403121561587c57600080fd5b815161125e81615028565b634e487b7160e01b600052603260045260246000fd5b634e487b7160e01b600052601160045260246000fd5b60006000198214156158c7576158c761589d565b5060010190565b600081518084526020808501945080840160005b838110156158fe578151875295820195908201906001016158e2565b509495945050505050565b81835281816020850137506000828201602090810191909152601f909101601f19169091010190565b60a0808252810188905260008960c08301825b8b81101561597557823561595881615003565b6001600160a01b0316825260209283019290910190600101615945565b5083810360208501528881527f07ffffffffffffffffffffffffffffffffffffffffffffffffffffffffffffff8911156159ae57600080fd5b8860051b9150818a6020830137818101915050602081016000815260208483030160408501526159de81896158ce565b9150506159f660608401876001600160a01b03169052565b8281036080840152615a09818587615909565b9b9a5050505050505050505050565b60008060408385031215615a2b57600080fd5b505080516020909101519092909150565b600080600060608486031215615a5157600080fd5b8351925060208401519150604084015190509250925092565b60008219821115615a7d57615a7d61589d565b500190565b600082821015615a9457615a9461589d565b500390565b6000816000190483118215151615615ab357615ab361589d565b500290565b600181815b80851115615af3578160001904821115615ad957615ad961589d565b80851615615ae657918102915b93841c9390800290615abd565b509250929050565b600082615b0a57506001610991565b81615b1757506000610991565b8160018114615b2d5760028114615b3757615b53565b6001915050610991565b60ff841115615b4857615b4861589d565b50506001821b610991565b5060208310610133831016604e8410600b8410161715615b76575081810a610991565b615b808383615ab8565b8060001904821115615b9457615b9461589d565b029392505050565b600061125e8383615afb565b600082615bc557634e487b7160e01b600052601260045260246000fd5b500490565b60008060008060808587031215615be057600080fd5b845193506020850151925060408501519150606085015164ffffffffff8116811461524157600080fdfea2646970667358221220ef3968a4482580e788624bedc57a7d56682ec8180041951ca0460165affcdedd64736f6c634300080c0033",
  "deployedBytecode": "0x608060405234801561001057600080fd5b506004361061020a5760003560e01c8063ae507f9c1161012a578063d1946dbc116100bd578063e8eda9df1161008c578063f5a1f5b411610071578063f5a1f5b414610637578063f8119d511461064a578063fe65acfe1461065257600080fd5b8063e8eda9df14610611578063f187186c1461062457600080fd5b8063d1946dbc146105ce578063d5ed3933146105e3578063db3e3461146105f6578063e82fec2f1461060957600080fd5b8063c44b11f7116100f9578063c44b11f714610553578063c4d66de814610595578063cd112382146105a8578063d15e0053146105bb57600080fd5b8063ae507f9c146104da578063b8d29276146104ed578063bedb86fb14610500578063bf92857c1461051357600080fd5b80635c975abb116101a25780638da5cb5b116101715780638da5cb5b1461047657806394ba89a2146104a1578063a415bcad146104b4578063ab9c4b5d146104c757600080fd5b80635c975abb1461043257806369328dec146104485780637a708e921461045b5780638afaff021461046e57600080fd5b8063386497fd116101de578063386497fd146103a85780634417a583146103bb578063573ade811461040c5780635a3b74b91461041f57600080fd5b8062a718a91461020f578063074b2e43146102245780631d2118f91461023b57806335ea6a751461024e575b600080fd5b61022261021d366004615036565b610663565b005b603b545b6040519081526020015b60405180910390f35b61022261024936600461509e565b610937565b61039b61025c3660046150d7565b604080516101a08101825260006101808201818152825260208201819052918101829052606081018290526080810182905260a0810182905260c0810182905260e08101829052610100810182905261012081018290526101408101829052610160810191909152506001600160a01b0390811660009081526035602090815260409182902082516101a08101845281546101808201908152815260018201546001600160801b0380821694830194909452600160801b908190048416948201949094526002820154808416606083015284900483166080820152600382015492831660a08201529290910464ffffffffff1660c08301526004810154831660e0830152600581015483166101008301526006810154831661012083015260070154918216610140820152600160a01b90910460ff1661016082015290565b60405161023291906150f4565b6102286103b63660046150d7565b610970565b6103fd6103c93660046150d7565b60408051602080820183526000918290526001600160a01b0393909316815260368352819020815192830190915254815290565b60405190518152602001610232565b61022861041a366004615202565b610997565b61022261042d36600461524c565b610d12565b60395460ff166040519015158152602001610232565b61022861045636600461527a565b610efd565b6102226104693660046152bc565b611265565b610228600281565b603e54610489906001600160a01b031681565b6040516001600160a01b039091168152602001610232565b6102226104af36600461531f565b611391565b6102226104c236600461535d565b611713565b6102226104d5366004615423565b611793565b6102226104e836600461551d565b611f22565b6102226104fb36600461531f565b61204b565b61022261050e36600461556e565b61206f565b6105266105213660046150d7565b6120e9565b604080519687526020870195909552938501929092526060840152608083015260a082015260c001610232565b6103fd6105613660046150d7565b60408051602080820183526000918290526001600160a01b0393909316815260358352819020815192830190915254815290565b6102226105a33660046150d7565b6121d6565b6102226105b636600461509e565b6122d4565b6102286105c93660046150d7565b61256f565b6105d6612590565b604051610232919061558b565b6102226105f13660046155d8565b612647565b603d54610489906001600160a01b031681565b603a54610228565b61022261061f36600461551d565b61289c565b6102226106323660046150d7565b612b54565b6102226106453660046150d7565b612c12565b603c54610228565b6034546001600160a01b0316610489565b61066b612c77565b603454604080517f712d917100000000000000000000000000000000000000000000000000000000815290516000926001600160a01b03169163712d91719160048083019260209291908290030181865afa1580156106ce573d6000803e3d6000fd5b505050506040513d601f19601f820116820180604052508101906106f2919061563d565b90506000603460009054906101000a90046001600160a01b03166001600160a01b0316635afaf0186040518163ffffffff1660e01b8152600401602060405180830381865afa158015610749573d6000803e3d6000fd5b505050506040513d601f19601f8201168201806040525081019061076d919061563d565b90506001600160a01b0381166107805750335b6040516001600160a01b038881166024830152878116604483015286811660648301526084820186905284151560a483015282811660c4830152600091829185169060e40160408051601f198184030181529181526020820180517bffffffffffffffffffffffffffffffffffffffffffffffffffffffff167f3c42879700000000000000000000000000000000000000000000000000000000179052516108289190615686565b600060405180830381855af49150503d8060008114610863576040519150601f19603f3d011682016040523d82523d6000602084013e610868565b606091505b5091509150816040518060400160405280600281526020017f3233000000000000000000000000000000000000000000000000000000000000815250906108cb5760405162461bcd60e51b81526004016108c291906156a2565b60405180910390fd5b50600080828060200190518101906108e391906156eb565b9150915081600014816040516020016108fc9190615686565b604051602081830303815290604052906109295760405162461bcd60e51b81526004016108c291906156a2565b505050505050505050505050565b61093f612cd0565b6001600160a01b03918216600090815260356020526040902060070180546001600160a01b03191691909216179055565b6001600160a01b038116600090815260356020526040812061099190612db4565b92915050565b60006109a1612c77565b6001600160a01b038516600090815260356020526040812090806109c58584612e26565b9150915060008660028111156109dd576109dd6157a4565b6040517ffa0c214900000000000000000000000000000000000000000000000000000000815290915073__$b3d62f3e31c25f3854f122e776043426c0$__9063fa0c214990610a3a9087908c9086908c908a908a906004016157dc565b60006040518083038186803b158015610a5257600080fd5b505af4158015610a66573d6000803e3d6000fd5b506000925060019150610a769050565b826002811115610a8857610a886157a4565b14610a935782610a95565b835b905080891015610aa25750875b610aab85612f16565b6001826002811115610abf57610abf6157a4565b1415610b32576005850154604051632770a7eb60e21b81526001600160a01b0389811660048301526024820184905290911690639dc29fac90604401600060405180830381600087803b158015610b1557600080fd5b505af1158015610b29573d6000803e3d6000fd5b50505050610bb5565b60068501546001860154604051637a94c56560e11b81526001600160a01b038a8116600483015260248201859052600160801b9092046001600160801b0316604482015291169063f5298aca90606401600060405180830381600087803b158015610b9c57600080fd5b505af1158015610bb0573d6000803e3d6000fd5b505050505b60048501546001600160a01b0316610bd1868c83856000612fd4565b610be582610bdf878761340c565b90613418565b610c1d5760078601546001600160a01b0389166000908152603660205260408120610c1d929091600160a01b90910460ff1690613424565b610c326001600160a01b038c1633838561349a565b6040517f88dd91a1000000000000000000000000000000000000000000000000000000008152336004820152602481018390526001600160a01b038216906388dd91a190604401600060405180830381600087803b158015610c9357600080fd5b505af1158015610ca7573d6000803e3d6000fd5b50505050336001600160a01b0316886001600160a01b03168c6001600160a01b03167f4cdde6e09bb755c9a5589ebaec640bbfedff1362d4b255ebf8339782b9942faa85604051610cfa91815260200190565b60405180910390a4509450505050505b949350505050565b610d1a612c77565b6001600160a01b03808316600090815260356020818152604080842033855260368352938190206038546034548351631f94a27560e31b81529351969773__$b3d62f3e31c25f3854f122e776043426c0$__97635fa297e5978a978d978d9792969295603795939493169263fca513a8926004808401939192918290030181865afa158015610dad573d6000803e3d6000fd5b505050506040513d601f19601f82011682018060405250810190610dd1919061563d565b6040516001600160e01b031960e08b901b16815260048101989098526001600160a01b03968716602489015294151560448801526064870193909352608486019190915260a485015260c48401521660e48201526101040160006040518083038186803b158015610e4157600080fd5b505af4158015610e55573d6000803e3d6000fd5b505050506007810154336000908152603660205260409020610e8191600160a01b900460ff1684613528565b8115610ec15760405133906001600160a01b038516907e058a56ea94653cdf4f152d227ace22d4c00ad99e2a43f58cb7d9e3feb295f290600090a3505050565b60405133906001600160a01b038516907f44c58d81365b66dd4b1a7f36c25aa97b8c71c361ee4937adc1a00000227db5dd90600090a35b505050565b6000610f07612c77565b6001600160a01b0384811660009081526035602052604080822060048082015492516370a0823160e01b81523391810191909152909391909116919082906370a0823190602401602060405180830381865afa158015610f6b573d6000803e3d6000fd5b505050506040513d601f19601f82011682018060405250810190610f8f919061581d565b905085600019811415610f9f5750805b73__$b3d62f3e31c25f3854f122e776043426c0$__63d09db04a898385603560366000336001600160a01b03166001600160a01b031681526020019081526020016000206037603854603460009054906101000a90046001600160a01b03166001600160a01b031663fca513a86040518163ffffffff1660e01b8152600401602060405180830381865afa15801561103b573d6000803e3d6000fd5b505050506040513d601f19601f8201168201806040525081019061105f919061563d565b60405160e08a901b6001600160e01b03191681526001600160a01b039889166004820152602481019790975260448701959095526064860193909352608485019190915260a484015260c483015290911660e48201526101040160006040518083038186803b1580156110d157600080fd5b505af41580156110e5573d6000803e3d6000fd5b505050506110f284612f16565b611100848985600085612fd4565b8181141561116a576007840154336000908152603660205260408120611133929091600160a01b90910460ff1690613528565b60405133906001600160a01b038a16907f44c58d81365b66dd4b1a7f36c25aa97b8c71c361ee4937adc1a00000227db5dd90600090a35b60018401546040517fd7020d0a0000000000000000000000000000000000000000000000000000000081523360048201526001600160a01b038881166024830152604482018490526001600160801b0390921660648201529084169063d7020d0a90608401600060405180830381600087803b1580156111e957600080fd5b505af11580156111fd573d6000803e3d6000fd5b50505050856001600160a01b0316336001600160a01b0316896001600160a01b03167f3115d1449a7b732c986cba18244e897a450f61e1bb8d589cd2e69e6c8924f9f78460405161125091815260200190565b60405180910390a493505050505b9392505050565b61126d612cd0565b60408051808201909152600281527f373800000000000000000000000000000000000000000000000000000000000060208201526001600160a01b0386163b6112c95760405162461bcd60e51b81526004016108c291906156a2565b506001600160a01b038581166000908152603560205260409081902090517f2b33897c0000000000000000000000000000000000000000000000000000000081526004810191909152858216602482015284821660448201528382166064820152908216608482015273__$4865ec58b7c392b1ada9ac1d68ac5219d4$__90632b33897c9060a40160006040518083038186803b15801561136957600080fd5b505af415801561137d573d6000803e3d6000fd5b5050505061138a856135a3565b5050505050565b611399612c77565b6001600160a01b038216600090815260356020526040812090806113bd3384612e26565b9150915060008460028111156113d5576113d56157a4565b336000908152603660205260409081902090517fa8695b1d00000000000000000000000000000000000000000000000000000000815291925073__$b3d62f3e31c25f3854f122e776043426c0$__9163a8695b1d9161143f91889190889088908890600401615836565b60006040518083038186803b15801561145757600080fd5b505af415801561146b573d6000803e3d6000fd5b5050505061147884612f16565b600181600281111561148c5761148c6157a4565b1415611597576005840154604051632770a7eb60e21b8152336004820152602481018590526001600160a01b0390911690639dc29fac90604401600060405180830381600087803b1580156114e057600080fd5b505af11580156114f4573d6000803e3d6000fd5b505050506006840154600185015460405163b3f1c93d60e01b81523360048201819052602482015260448101869052600160801b9091046001600160801b031660648201526001600160a01b039091169063b3f1c93d906084016020604051808303816000875af115801561156d573d6000803e3d6000fd5b505050506040513d601f19601f82011682018060405250810190611591919061586a565b506116ad565b60068401546001850154604051637a94c56560e11b815233600482015260248101859052600160801b9091046001600160801b031660448201526001600160a01b039091169063f5298aca90606401600060405180830381600087803b15801561160057600080fd5b505af1158015611614573d6000803e3d6000fd5b505050506005840154600385015460405163b3f1c93d60e01b815233600482018190526024820152604481018590526001600160801b0390911660648201526001600160a01b039091169063b3f1c93d906084016020604051808303816000875af1158015611687573d6000803e3d6000fd5b505050506040513d601f19601f820116820180604052508101906116ab919061586a565b505b60048401546116cb90859088906001600160a01b0316600080612fd4565b60405185815233906001600160a01b038816907fea368a40e9570069bb8e6511d668293ad2e1f03b0d982431fd223de9f3b70ca69060200160405180910390a3505050505050565b61171b612c77565b6001600160a01b038086166000818152603560209081526040918290208251610100810184529384523391840191909152848416918301919091526060820187905260808201869052600481015490921660a082015261ffff841660c0820152600160e082015261178b906136ea565b505050505050565b61179b612c77565b6040805161012081018252600080825260208201819052918101829052606081018290526080810182905260a0810182905260c0810182905260e081018290526101008101919091526118518b8b8080602002602001604051908101604052809392919081815260200183836020028082843760009201919091525050604080516020808f0282810182019093528e82529093508e92508d918291850190849080828437600092019190915250613c7892505050565b60008a67ffffffffffffffff81111561186c5761186c6156d5565b604051908082528060200260200182016040528015611895578160200160208202803683370190505b50905060008b67ffffffffffffffff8111156118b3576118b36156d5565b6040519080825280602002602001820160405280156118dc578160200160208202803683370190505b506001600160a01b038f1684526000604085015290505b60408301518c1115611ace57603560008e8e866040015181811061191957611919615887565b905060200201602081019061192e91906150d7565b6001600160a01b03166001600160a01b0316815260200190815260200160002060040160009054906101000a90046001600160a01b03168284604001518151811061197b5761197b615887565b60200260200101906001600160a01b031690816001600160a01b0316815250506119d86127106119d2603b548e8e88604001518181106119bd576119bd615887565b90506020020135613cd190919063ffffffff16565b90613cdd565b818460400151815181106119ee576119ee615887565b60200260200101818152505081836040015181518110611a1057611a10615887565b60200260200101516001600160a01b0316634efecaa58f8d8d8760400151818110611a3d57611a3d615887565b6040516001600160e01b031960e087901b1681526001600160a01b03909416600485015260200291909101356024830152506044016020604051808303816000875af1158015611a91573d6000803e3d6000fd5b505050506040513d601f19601f82011682018060405250810190611ab5919061581d565b5060408301805190611ac6826158b3565b9052506118f3565b82600001516001600160a01b031663920f5c848e8e8e8e86338d8d6040518963ffffffff1660e01b8152600401611b0c989796959493929190615932565b6020604051808303816000875af1158015611b2b573d6000803e3d6000fd5b505050506040513d601f19601f82011682018060405250810190611b4f919061586a565b6040518060400160405280600281526020017f363600000000000000000000000000000000000000000000000000000000000081525090611ba35760405162461bcd60e51b81526004016108c291906156a2565b50600060408401525b60408301518c1115611f12578c8c8460400151818110611bce57611bce615887565b9050602002016020810190611be391906150d7565b6001600160a01b0316606084015260408301518b908b90818110611c0957611c09615887565b905060200201358360a001818152505080836040015181518110611c2f57611c2f615887565b60200260200101518360c001818152505081836040015181518110611c5657611c56615887565b60209081029190910101516001600160a01b0316608084015260c083015160a0840151611c829161340c565b60e0840152600089898560400151818110611c9f57611c9f615887565b905060200201356002811115611cb757611cb76157a4565b6002811115611cc857611cc86157a4565b1415611deb5760608301516001600160a01b03166000908152603560205260409020611cf390612f16565b611d8483608001516001600160a01b03166318160ddd6040518163ffffffff1660e01b8152600401602060405180830381865afa158015611d38573d6000803e3d6000fd5b505050506040513d601f19601f82011682018060405250810190611d5c919061581d565b60c085015160608601516001600160a01b031660009081526035602052604090209190613ce9565b6060830151608084015160e08501516001600160a01b0383166000908152603560205260408120611dba94909390929091612fd4565b611de68e84608001518560e0015186606001516001600160a01b031661349a909392919063ffffffff16565b611e80565b611e8060405180610100016040528085606001516001600160a01b03168152602001336001600160a01b03168152602001896001600160a01b031681526020018560a0015181526020018b8b8760400151818110611e4b57611e4b615887565b90506020020135815260200185608001516001600160a01b031681526020018661ffff168152602001600015158152506136ea565b82606001516001600160a01b0316336001600160a01b03168f6001600160a01b03167f631042c832b07452973831137f2d73e395028b44b250dedc5abb0ee766e168ac8660a001518760c0015189604051611ef293929190928352602083019190915261ffff16604082015260600190565b60405180910390a460408301805190611f0a826158b3565b905250611bac565b5050505050505050505050505050565b611f2a612c77565b326001600160a01b03831614611f3f57600080fd5b611f4b8484848461289c565b603d546040517f03bf24e50000000000000000000000000000000000000000000000000000000081526001600160a01b0384811660048301529091169063ec67ff739082906303bf24e590602401602060405180830381865afa158015611fb6573d6000803e3d6000fd5b505050506040513d601f19601f82011682018060405250810190611fda919061581d565b6040516001600160e01b031960e084901b16815260048101919091526001600160a01b03851660248201526044016020604051808303816000875af1158015612027573d6000803e3d6000fd5b505050506040513d601f19601f8201168201806040525081019061138a919061581d565b612053612cd0565b6001600160a01b03909116600090815260356020526040902055565b612077612cd0565b6039805460ff191682151590811790915560ff16156120bc576040517f9e87fac88ff661f02d44f95383c817fece4bce600a3dab7a54406878b965e75290600090a150565b6040517fa45f47fdea8a1efdd9029a5691c7f759c32b7c698632b563573e155625d1693390600090a15b50565b6000806000806000806121b3876035603660008b6001600160a01b03166001600160a01b031681526020019081526020016000206040518060200160405290816000820154815250506037603854603460009054906101000a90046001600160a01b03166001600160a01b031663fca513a86040518163ffffffff1660e01b8152600401602060405180830381865afa15801561218a573d6000803e3d6000fd5b505050506040513d601f19601f820116820180604052508101906121ae919061563d565b613db3565b939950919750909450925090506121cb8686846142dc565b935091939550919395565b60015460029060ff16806121e95750303b155b806121f5575060005481115b6122675760405162461bcd60e51b815260206004820152602e60248201527f436f6e747261637420696e7374616e63652068617320616c726561647920626560448201527f656e20696e697469616c697a656400000000000000000000000000000000000060648201526084016108c2565b60015460ff16158015612286576001805460ff19168117905560008290555b603480546001600160a01b0385166001600160a01b0319918216179091556109c4603a556009603b556080603c55603e8054909116321790558015610ef8576001805460ff19169055505050565b6122dc612c77565b6001600160a01b038281166000908152603560205260408082206005810154600682015460048084015494516370a0823160e01b815288881691810191909152929591821694908216939091169184906370a0823190602401602060405180830381865afa158015612352573d6000803e3d6000fd5b505050506040513d601f19601f82011682018060405250810190612376919061581d565b6040517f548cad09000000000000000000000000000000000000000000000000000000008152600481018790526001600160a01b03808a166024830152808716604483015280861660648301528416608482015290915073__$b3d62f3e31c25f3854f122e776043426c0$__9063548cad099060a40160006040518083038186803b15801561240457600080fd5b505af4158015612418573d6000803e3d6000fd5b5050505061242585612f16565b604051632770a7eb60e21b81526001600160a01b03878116600483015260248201839052851690639dc29fac90604401600060405180830381600087803b15801561246f57600080fd5b505af1158015612483573d6000803e3d6000fd5b50505050600385015460405163b3f1c93d60e01b81526001600160a01b03888116600483018190526024830152604482018490526001600160801b0390921660648201529085169063b3f1c93d906084016020604051808303816000875af11580156124f3573d6000803e3d6000fd5b505050506040513d601f19601f82011682018060405250810190612517919061586a565b50612526858884600080612fd4565b856001600160a01b0316876001600160a01b03167f9f439ae0c81e41a04d3fdfe07aed54e6a179fb0db15be7702eb66fa8ef6f530060405160405180910390a350505050505050565b6001600160a01b038116600090815260356020526040812061099190614310565b6060600060385467ffffffffffffffff8111156125af576125af6156d5565b6040519080825280602002602001820160405280156125d8578160200160208202803683370190505b50905060005b6038548110156126415760008181526037602052604090205482516001600160a01b039091169083908390811061261757612617615887565b6001600160a01b039092166020928302919091019091015280612639816158b3565b9150506125de565b50919050565b61264f612c77565b6001600160a01b03868116600090815260356020908152604091829020600401548251808401909352600283527f36330000000000000000000000000000000000000000000000000000000000009183019190915290911633146126c65760405162461bcd60e51b81526004016108c291906156a2565b5061277385603560366000896001600160a01b03166001600160a01b031681526020019081526020016000206037603854603460009054906101000a90046001600160a01b03166001600160a01b031663fca513a86040518163ffffffff1660e01b8152600401602060405180830381865afa15801561274a573d6000803e3d6000fd5b505050506040513d601f19601f8201168201806040525081019061276e919061563d565b61436c565b6001600160a01b03868116600090815260356020526040902060070154600160a01b900460ff169085811690871614612893576127b08385613418565b61281c576001600160a01b0386166000908152603660205260408120906127da9082908490613528565b866001600160a01b0316886001600160a01b03167f44c58d81365b66dd4b1a7f36c25aa97b8c71c361ee4937adc1a00000227db5dd60405160405180910390a3505b8115801561282957508315155b15612893576001600160a01b038516600090815260366020526040902061285281836001613528565b856001600160a01b0316886001600160a01b03167e058a56ea94653cdf4f152d227ace22d4c00ad99e2a43f58cb7d9e3feb295f260405160405180910390a3505b50505050505050565b6128a4612c77565b6001600160a01b0384166000908152603560205260409081902090517f0eca322b000000000000000000000000000000000000000000000000000000008152600481018290526024810185905273__$b3d62f3e31c25f3854f122e776043426c0$__90630eca322b9060440160006040518083038186803b15801561292857600080fd5b505af415801561293c573d6000803e3d6000fd5b5050505060048101546001600160a01b031661295782612f16565b612965828783886000612fd4565b61297a6001600160a01b03871633838861349a565b6040516370a0823160e01b81526001600160a01b0385811660048301528216906370a0823190602401602060405180830381865afa1580156129c0573d6000803e3d6000fd5b505050506040513d601f19601f820116820180604052508101906129e4919061581d565b612a5a5760078201546001600160a01b0385166000908152603660205260409020612a1a91600160a01b900460ff166001613528565b836001600160a01b0316866001600160a01b03167e058a56ea94653cdf4f152d227ace22d4c00ad99e2a43f58cb7d9e3feb295f260405160405180910390a35b60018201546040517f156e29f60000000000000000000000000000000000000000000000000000000081526001600160a01b038681166004830152602482018890526001600160801b0390921660448201529082169063156e29f6906064016020604051808303816000875af1158015612ad8573d6000803e3d6000fd5b505050506040513d601f19601f82011682018060405250810190612afc919061586a565b50604080513381526020810187905261ffff8516916001600160a01b0380881692908a16917fde6857219544bb5b7746f48ed30be6386fefc61b2f864cacf559893bf50fd951910160405180910390a4505050505050565b603e546001600160a01b03163314612b975760405162461bcd60e51b815260206004820152600660248201526510b7bbb732b960d11b60448201526064016108c2565b603d546001600160a01b031615612bf05760405162461bcd60e51b815260206004820152601560248201527f4c657665726167657220416c726561647920536574000000000000000000000060448201526064016108c2565b603d80546001600160a01b0319166001600160a01b0392909216919091179055565b603e546001600160a01b03163314612c555760405162461bcd60e51b815260206004820152600660248201526510b7bbb732b960d11b60448201526064016108c2565b603e80546001600160a01b0319166001600160a01b0392909216919091179055565b60395460408051808201909152600281527f363400000000000000000000000000000000000000000000000000000000000060208201529060ff16156120e65760405162461bcd60e51b81526004016108c291906156a2565b603454604080517f85c858b1000000000000000000000000000000000000000000000000000000008152905133926001600160a01b0316916385c858b19160048083019260209291908290030181865afa158015612d32573d6000803e3d6000fd5b505050506040513d601f19601f82011682018060405250810190612d56919061563d565b6001600160a01b0316146040518060400160405280600281526020017f3237000000000000000000000000000000000000000000000000000000000000815250906120e65760405162461bcd60e51b81526004016108c291906156a2565b600381015460009064ffffffffff600160801b9091048116904216811415612def57505060010154600160801b90046001600160801b031690565b60018301546002840154600091610d0a916001600160801b03600160801b92839004811692612e20920416856143fe565b9061440b565b60058101546040516370a0823160e01b81526001600160a01b03848116600483015260009283929116906370a0823190602401602060405180830381865afa158015612e76573d6000803e3d6000fd5b505050506040513d601f19601f82011682018060405250810190612e9a919061581d565b60068401546040516370a0823160e01b81526001600160a01b038781166004830152909116906370a0823190602401602060405180830381865afa158015612ee6573d6000803e3d6000fd5b505050506040513d601f19601f82011682018060405250810190612f0a919061581d565b915091505b9250929050565b60068101546040805163b1bf962d60e01b815290516000926001600160a01b03169163b1bf962d9160048083019260209291908290030181865afa158015612f62573d6000803e3d6000fd5b505050506040513d601f19601f82011682018060405250810190612f86919061581d565b60018301546003840154919250600160801b8082046001600160801b03908116939216910464ffffffffff16600080612fc287878688876144c6565b9150915061289387878785858861465e565b61302560405180610100016040528060006001600160a01b03168152602001600081526020016000815260200160008152602001600081526020016000815260200160008152602001600081525090565b60058601546001600160a01b0316808252604080517ff731e9be000000000000000000000000000000000000000000000000000000008152815163f731e9be926004808401939192918290030181865afa158015613087573d6000803e3d6000fd5b505050506040513d601f19601f820116820180604052508101906130ab9190615a18565b60c083015260408083019190915260018701546006880154825163b1bf962d60e01b8152925161314193600160801b9093046001600160801b0316926001600160a01b039092169163b1bf962d9160048083019260209291908290030181865afa15801561311d573d6000803e3d6000fd5b505050506040513d601f19601f82011682018060405250810190612e20919061581d565b60e082018190526007870154604083015160c08401516001600160a01b03909216926329db497d92899289928992899291906131858f5461ffff60409190911c1690565b6040516001600160e01b031960e08b901b1681526001600160a01b03988916600482015297909616602488015260448701949094526064860192909252608485015260a484015260c483015260e482015261010401606060405180830381865afa1580156131f7573d6000803e3d6000fd5b505050506040513d601f19601f8201168201806040525081019061321b9190615a3c565b60a084015260808301526060820181905260408051808201909152600281527f35330000000000000000000000000000000000000000000000000000000000006020820152906001600160801b0310156132885760405162461bcd60e51b81526004016108c291906156a2565b50608081015160408051808201909152600281527f35350000000000000000000000000000000000000000000000000000000000006020820152906001600160801b0310156132ea5760405162461bcd60e51b81526004016108c291906156a2565b5060a081015160408051808201909152600281527f35340000000000000000000000000000000000000000000000000000000000006020820152906001600160801b03101561334c5760405162461bcd60e51b81526004016108c291906156a2565b5060608181015160808084015160038a0180546fffffffffffffffffffffffffffffffff19166001600160801b038084169190911790915560a080870151828616600160801b82851681029190911760028f015560018e015460408051988952602089019690965294870191909152838316968601969096529490910416908201526001600160a01b038716917f804c9b842b2748a22bb64b345453a3de7ca54a6ca45ce00d415894979e22897a910160405180910390a2505050505050565b600061125e8284615a6a565b600061125e8284615a82565b604080518082019091526002815261373760f01b60208201526080831061345e5760405162461bcd60e51b81526004016108c291906156a2565b5061346a826002615a99565b81613476576000613479565b60015b60ff16901b613489836002615a99565b8454600190911b1916179092555050565b604080516001600160a01b0385811660248301528416604482015260648082018490528251808303909101815260849091019091526020810180517bffffffffffffffffffffffffffffffffffffffffffffffffffffffff167f23b872dd00000000000000000000000000000000000000000000000000000000179052613522908590614893565b50505050565b604080518082019091526002815261373760f01b6020820152608083106135625760405162461bcd60e51b81526004016108c291906156a2565b5061356e826002615a99565b613579906001615a6a565b81613585576000613588565b60015b60ff16901b613598836002615a99565b613489906001615a6a565b603854603c5460408051808201909152600281527f363500000000000000000000000000000000000000000000000000000000000060208201529082106135fd5760405162461bcd60e51b81526004016108c291906156a2565b506001600160a01b038216600090815260356020526040812060070154600160a01b900460ff1615158061366657506000805260376020527fa0a618d80eda9243166be83cb7421d97e9dab6ddddd3c70ac7a6b4440256e8e7546001600160a01b038481169116145b905080610ef8576001600160a01b038316600081815260356020908152604080832060070180547fffffffffffffffffffffff00ffffffffffffffffffffffffffffffffffffffff16600160a01b60ff8916021790558583526037909152902080546001600160a01b03191690911790556136e2826001615a6a565b603855505050565b80516001600160a01b0390811660009081526035602090815260408083208186015185168452603683528184206034548351631f94a27560e31b81529351929691959491169263fca513a892600480830193928290030181865afa158015613756573d6000803e3d6000fd5b505050506040513d601f19601f8201168201806040525081019061377a919061563d565b83549091506000906138139060301c60ff1661379790600a615b9c565b6060870151875160405163b3596f0760e01b81526001600160a01b0391821660048201526119d2929187169063b3596f0790602401602060405180830381865afa1580156137e9573d6000803e3d6000fd5b505050506040513d601f19601f8201168201806040525081019061380d919061581d565b90613cd1565b8551604080880151606089015160808a0151603a5460385494517f721a92f90000000000000000000000000000000000000000000000000000000081526001600160a01b039687166004820152602481018c9052938616604485015260648401929092526084830186905260a483015260c4820152603560e48201526101048101879052603761012482015261014481019190915290841661016482015290915073__$b3d62f3e31c25f3854f122e776043426c0$__9063721a92f9906101840160006040518083038186803b1580156138ec57600080fd5b505af4158015613900573d6000803e3d6000fd5b5050505061390d84612f16565b600080600187608001516002811115613928576139286157a4565b6002811115613939576139396157a4565b14156139ee576003860154600587015460208901516040808b015160608c0151915163b3f1c93d60e01b81526001600160a01b039384166004820152908316602482015260448101919091526001600160801b03909316606484018190529450169063b3f1c93d906084016020604051808303816000875af11580156139c3573d6000803e3d6000fd5b505050506040513d601f19601f820116820180604052508101906139e7919061586a565b9050613a99565b600686015460208801516040808a015160608b015160018b0154925163b3f1c93d60e01b81526001600160a01b03948516600482015291841660248301526044820152600160801b9091046001600160801b0316606482015291169063b3f1c93d906084016020604051808303816000875af1158015613a72573d6000803e3d6000fd5b505050506040513d601f19601f82011682018060405250810190613a96919061586a565b90505b8015613abb576007860154613abb908690600160a01b900460ff166001613424565b613aea87600001518860a0015160008a60e00151613ada576000613ae0565b8a606001515b8a93929190612fd4565b8660e0015115613b925760a0870151602088015160608901516040517f4efecaa50000000000000000000000000000000000000000000000000000000081526001600160a01b0392831660048201526024810191909152911690634efecaa5906044016020604051808303816000875af1158015613b6c573d6000803e3d6000fd5b505050506040513d601f19601f82011682018060405250810190613b90919061581d565b505b8660c0015161ffff1687604001516001600160a01b031688600001516001600160a01b03167fc6a898309e823ee50bac64e45ca8adba6690e99e7841c45d754e2a38e9019d9b8a602001518b606001518c6080015160016002811115613bfa57613bfa6157a4565b8e608001516002811115613c1057613c106157a4565b6002811115613c2157613c216157a4565b14613c405760028d0154600160801b90046001600160801b0316613c42565b885b604080516001600160a01b039095168552602085019390935291830152606082015260800160405180910390a450505050505050565b80518251146040518060400160405280600281526020017f373300000000000000000000000000000000000000000000000000000000000081525090610ef85760405162461bcd60e51b81526004016108c291906156a2565b600061125e8284615a99565b600061125e8284615ba8565b6000613d06613cf784614978565b613d0084614978565b906149db565b90506000613d20826b033b2e3c9fd0803ce800000061340c565b6001860154909150613d3c9082906001600160801b031661440b565b604080518082019091526002815261353160f01b60208201529091506001600160801b03821115613d805760405162461bcd60e51b81526004016108c291906156a2565b5060019490940180546fffffffffffffffffffffffffffffffff19166001600160801b0390951694909417909355505050565b6000806000806000613e58604051806102400160405280600081526020016000815260200160008152602001600081526020016000815260200160008152602001600081526020016000815260200160008152602001600081526020016000815260200160008152602001600081526020016000815260200160001515815260200160006001600160a01b031681526020016000151581526020016000151581525090565b8951613e775760008060008060001995509550955095509550506142ce565b600060e08201525b878160e00151101561422d5760e0810151613e9b908b90614ab1565b613ea457614215565b60e0810151600090815260208a81526040808320546001600160a01b03166101e085018190528352908d90529020613f01815461ffff80821692601083901c821692602081901c831692603082901c60ff169260409290921c1690565b506080860181905260c08601929092525060a0840191909152613f2590600a615b9c565b60208301526101e082015160405163b3596f0760e01b81526001600160a01b0391821660048201529089169063b3596f0790602401602060405180830381865afa158015613f77573d6000803e3d6000fd5b505050506040513d601f19601f82011682018060405250810190613f9b919061581d565b825260c082015115801590613fbb575060e0820151613fbb908c90614b0c565b156140d9578060040160009054906101000a90046001600160a01b03166001600160a01b03166370a082318e6040518263ffffffff1660e01b815260040161401291906001600160a01b0391909116815260200190565b602060405180830381865afa15801561402f573d6000803e3d6000fd5b505050506040513d601f19601f82011682018060405250810190614053919061581d565b604083018190526020830151835160009261407292916119d291613cd1565b610120840151909150614085908261340c565b61012084015260a08301516140ab9061409f908390613cd1565b6101608501519061340c565b61016084015260c08301516140d1906140c5908390613cd1565b6101808501519061340c565b610180840152505b60e08201516140e9908c90614b72565b156142135760058101546040516370a0823160e01b81526001600160a01b038f81166004830152909116906370a0823190602401602060405180830381865afa15801561413a573d6000803e3d6000fd5b505050506040513d601f19601f8201168201806040525081019061415e919061581d565b606083015260068101546040516370a0823160e01b81526001600160a01b038f811660048301526141e09216906370a0823190602401602060405180830381865afa1580156141b1573d6000803e3d6000fd5b505050506040513d601f19601f820116820180604052508101906141d5919061581d565b60608401519061340c565b606083018190526020830151835161420c9261420092916119d291613cd1565b6101408401519061340c565b6101408301525b505b60e08101805190614225826158b3565b905250613e7f565b600081610120015111614241576000614256565b61012081015161016082015161425691613cdd565b61016082015261012081015161426d576000614282565b61012081015161018082015161428291613cdd565b610180820181905261012082015161014083015161429f92614bbd565b610100820181905261012082015161014083015161016084015161018090940151919850965091945090925090505b965096509650965096915050565b6000806142e98584614be1565b9050838110156142fd57600091505061125e565b6143078185613418565b95945050505050565b600381015460009064ffffffffff600160801b9091048116904216811415614344575050600101546001600160801b031690565b60018301546002840154600091610d0a916001600160801b0391821691612e20911685614c6a565b60408051602081019091528454815260009061438e9088908890878787613db3565b945050505050670de0b6b3a76400008110156040518060400160405280600181526020017f3600000000000000000000000000000000000000000000000000000000000000815250906143f45760405162461bcd60e51b81526004016108c291906156a2565b5050505050505050565b600061125e838342614caf565b6000821580614418575081155b1561442557506000610991565b8161443d60026b033b2e3c9fd0803ce8000000615ba8565b61444990600019615a82565b6144539190615ba8565b83111560405180604001604052806002815260200161068760f31b8152509061448f5760405162461bcd60e51b81526004016108c291906156a2565b506b033b2e3c9fd0803ce80000006144a8600282615ba8565b6144b28486615a99565b6144bc9190615a6a565b61125e9190615ba8565b600285015460009081906001600160801b0316858582156146185760006144ed8488614c6a565b90506144f9818a61440b565b604080518082019091526002815261353160f01b60208201529093506001600160801b0384111561453d5760405162461bcd60e51b81526004016108c291906156a2565b5060018b0180546fffffffffffffffffffffffffffffffff19166001600160801b03851617905589156146165760028b015460009061458c90600160801b90046001600160801b0316896143fe565b9050614598818a61440b565b60408051808201909152600281527f353200000000000000000000000000000000000000000000000000000000000060208201529093506001600160801b038411156145f75760405162461bcd60e51b81526004016108c291906156a2565b505060018b0180546001600160801b03808516600160801b0291161790555b505b60039990990180547fffffffffffffffffffffff0000000000ffffffffffffffffffffffffffffffff16600160801b4264ffffffffff1602179055989650505050505050565b6146c260405180610160016040528060008152602001600081526020016000815260200160008152602001600081526020016000815260200160008152602001600081526020016000815260200160008152602001600064ffffffffff1681525090565b865460401c61ffff1661012082018190526146dd575061178b565b8660050160009054906101000a90046001600160a01b03166001600160a01b031663797743386040518163ffffffff1660e01b8152600401608060405180830381865afa158015614732573d6000803e3d6000fd5b505050506040513d601f19601f820116820180604052508101906147569190615bca565b64ffffffffff1661014085015260a084015282526020820152614779868661440b565b6080820152614788868461440b565b606082015260a08101516101408201516147aa919064ffffffffff8516614caf565b60c0820181905260208201516147bf9161440b565b604082018190526080820151825160608401516147e49392610bdf929091839161340c565b60e082018190526101208201516147fb9190614be1565b610100820181905215612893576004878101546101008301516040517f7df5bd3b00000000000000000000000000000000000000000000000000000000815292830152602482018690526001600160a01b031690637df5bd3b90604401600060405180830381600087803b15801561487257600080fd5b505af1158015614886573d6000803e3d6000fd5b5050505050505050505050565b60006148e8826040518060400160405280602081526020017f5361666545524332303a206c6f772d6c6576656c2063616c6c206661696c6564815250856001600160a01b0316614dad9092919063ffffffff16565b805190915015610ef85780806020019051810190614906919061586a565b610ef85760405162461bcd60e51b815260206004820152602a60248201527f5361666545524332303a204552433230206f7065726174696f6e20646964206e60448201527f6f7420737563636565640000000000000000000000000000000000000000000060648201526084016108c2565b600080614989633b9aca0084615a99565b90508261499a633b9aca0083615ba8565b1460405180604001604052806002815260200161068760f31b815250906149d45760405162461bcd60e51b81526004016108c291906156a2565b5092915050565b604080518082019091526002815261035360f41b602082015260009082614a155760405162461bcd60e51b81526004016108c291906156a2565b506000614a23600284615ba8565b90506b033b2e3c9fd0803ce8000000614a3e82600019615a82565b614a489190615ba8565b84111560405180604001604052806002815260200161068760f31b81525090614a845760405162461bcd60e51b81526004016108c291906156a2565b508281614a9d6b033b2e3c9fd0803ce800000087615a99565b614aa79190615a6a565b610d0a9190615ba8565b60006080821060405180604001604052806002815260200161373760f01b81525090614af05760405162461bcd60e51b81526004016108c291906156a2565b50614afc826002615a99565b925190921c600316151592915050565b60006080821060405180604001604052806002815260200161373760f01b81525090614b4b5760405162461bcd60e51b81526004016108c291906156a2565b50614b57826002615a99565b614b62906001615a6a565b925190921c600116151592915050565b60006080821060405180604001604052806002815260200161373760f01b81525090614bb15760405162461bcd60e51b81526004016108c291906156a2565b50614b62826002615a99565b600082614bcd575060001961125e565b610d0a83614bdb8685614be1565b90614dbc565b6000821580614bee575081155b15614bfb57506000610991565b81614c096002612710615ba8565b614c1590600019615a82565b614c1f9190615ba8565b83111560405180604001604052806002815260200161068760f31b81525090614c5b5760405162461bcd60e51b81526004016108c291906156a2565b506127106144a8600282615ba8565b600080614c7e4264ffffffffff8516613418565b9050610d0a6b033b2e3c9fd0803ce80000006301e13380614c9f8785613cd1565b614ca99190615ba8565b9061340c565b600080614cc38364ffffffffff8616613418565b905080614cdf576b033b2e3c9fd0803ce800000091505061125e565b6000614cec600183615a82565b9050600060028311614cff576000614d0a565b614d0a600284615a82565b90506000614d1c6301e1338089615ba8565b90506000614d2a828061440b565b90506000614d38828461440b565b905060006002614d4c8461380d8a8a613cd1565b614d569190615ba8565b905060006006614d6c8461380d89818d8d613cd1565b614d769190615ba8565b9050614d9d81614ca98481614d8b8a8e613cd1565b6b033b2e3c9fd0803ce8000000614ca9565b9c9b505050505050505050505050565b6060610d0a8484600085614e76565b604080518082019091526002815261035360f41b602082015260009082614df65760405162461bcd60e51b81526004016108c291906156a2565b506000614e04600284615ba8565b9050670de0b6b3a7640000614e1b82600019615a82565b614e259190615ba8565b84111560405180604001604052806002815260200161068760f31b81525090614e615760405162461bcd60e51b81526004016108c291906156a2565b508281614a9d670de0b6b3a764000087615a99565b606082471015614eee5760405162461bcd60e51b815260206004820152602660248201527f416464726573733a20696e73756666696369656e742062616c616e636520666f60448201527f722063616c6c000000000000000000000000000000000000000000000000000060648201526084016108c2565b600080866001600160a01b03168587604051614f0a9190615686565b60006040518083038185875af1925050503d8060008114614f47576040519150601f19603f3d011682016040523d82523d6000602084013e614f4c565b606091505b5091509150614f5d87838387614f68565b979650505050505050565b60608315614fd4578251614fcd576001600160a01b0385163b614fcd5760405162461bcd60e51b815260206004820152601d60248201527f416464726573733a2063616c6c20746f206e6f6e2d636f6e747261637400000060448201526064016108c2565b5081610d0a565b610d0a8383815115614fe95781518083602001fd5b8060405162461bcd60e51b81526004016108c291906156a2565b6001600160a01b03811681146120e657600080fd5b803561502381615003565b919050565b80151581146120e657600080fd5b600080600080600060a0868803121561504e57600080fd5b853561505981615003565b9450602086013561506981615003565b9350604086013561507981615003565b925060608601359150608086013561509081615028565b809150509295509295909350565b600080604083850312156150b157600080fd5b82356150bc81615003565b915060208301356150cc81615003565b809150509250929050565b6000602082840312156150e957600080fd5b813561125e81615003565b81515181526101808101602083015161511860208401826001600160801b03169052565b50604083015161513360408401826001600160801b03169052565b50606083015161514e60608401826001600160801b03169052565b50608083015161516960808401826001600160801b03169052565b5060a083015161518460a08401826001600160801b03169052565b5060c083015161519d60c084018264ffffffffff169052565b5060e08301516151b860e08401826001600160a01b03169052565b50610100838101516001600160a01b03908116918401919091526101208085015182169084015261014080850151909116908301526101609283015160ff16929091019190915290565b6000806000806080858703121561521857600080fd5b843561522381615003565b93506020850135925060408501359150606085013561524181615003565b939692955090935050565b6000806040838503121561525f57600080fd5b823561526a81615003565b915060208301356150cc81615028565b60008060006060848603121561528f57600080fd5b833561529a81615003565b92506020840135915060408401356152b181615003565b809150509250925092565b600080600080600060a086880312156152d457600080fd5b85356152df81615003565b945060208601356152ef81615003565b935060408601356152ff81615003565b9250606086013561530f81615003565b9150608086013561509081615003565b6000806040838503121561533257600080fd5b823561533d81615003565b946020939093013593505050565b803561ffff8116811461502357600080fd5b600080600080600060a0868803121561537557600080fd5b853561538081615003565b9450602086013593506040860135925061530f6060870161534b565b60008083601f8401126153ae57600080fd5b50813567ffffffffffffffff8111156153c657600080fd5b6020830191508360208260051b8501011115612f0f57600080fd5b60008083601f8401126153f357600080fd5b50813567ffffffffffffffff81111561540b57600080fd5b602083019150836020828501011115612f0f57600080fd5b600080600080600080600080600080600060e08c8e03121561544457600080fd5b61544d8c615018565b9a5067ffffffffffffffff8060208e0135111561546957600080fd5b6154798e60208f01358f0161539c565b909b50995060408d013581101561548f57600080fd5b61549f8e60408f01358f0161539c565b909950975060608d01358110156154b557600080fd5b6154c58e60608f01358f0161539c565b90975095506154d660808e01615018565b94508060a08e013511156154e957600080fd5b506154fa8d60a08e01358e016153e1565b909350915061550b60c08d0161534b565b90509295989b509295989b9093969950565b6000806000806080858703121561553357600080fd5b843561553e81615003565b935060208501359250604085013561555581615003565b91506155636060860161534b565b905092959194509250565b60006020828403121561558057600080fd5b813561125e81615028565b6020808252825182820181905260009190848201906040850190845b818110156155cc5783516001600160a01b0316835292840192918401916001016155a7565b50909695505050505050565b60008060008060008060c087890312156155f157600080fd5b86356155fc81615003565b9550602087013561560c81615003565b9450604087013561561c81615003565b959894975094956060810135955060808101359460a0909101359350915050565b60006020828403121561564f57600080fd5b815161125e81615003565b60005b8381101561567557818101518382015260200161565d565b838111156135225750506000910152565b6000825161569881846020870161565a565b9190910192915050565b60208152600082518060208401526156c181604085016020870161565a565b601f01601f19169190910160400192915050565b634e487b7160e01b600052604160045260246000fd5b600080604083850312156156fe57600080fd5b82519150602083015167ffffffffffffffff8082111561571d57600080fd5b818501915085601f83011261573157600080fd5b815181811115615743576157436156d5565b604051601f8201601f19908116603f0116810190838211818310171561576b5761576b6156d5565b8160405282815288602084870101111561578457600080fd5b61579583602083016020880161565a565b80955050505050509250929050565b634e487b7160e01b600052602160045260246000fd5b600381106157d857634e487b7160e01b600052602160045260246000fd5b9052565b8681526020810186905260c081016157f760408301876157ba565b6001600160a01b03851660608301528360808301528260a0830152979650505050505050565b60006020828403121561582f57600080fd5b5051919050565b600060a08201905086825285602083015284604083015283606083015261586060808301846157ba565b9695505050505050565b60006020828403121561587c57600080fd5b815161125e81615028565b634e487b7160e01b600052603260045260246000fd5b634e487b7160e01b600052601160045260246000fd5b60006000198214156158c7576158c761589d565b5060010190565b600081518084526020808501945080840160005b838110156158fe578151875295820195908201906001016158e2565b509495945050505050565b81835281816020850137506000828201602090810191909152601f909101601f19169091010190565b60a0808252810188905260008960c08301825b8b81101561597557823561595881615003565b6001600160a01b0316825260209283019290910190600101615945565b5083810360208501528881527f07ffffffffffffffffffffffffffffffffffffffffffffffffffffffffffffff8911156159ae57600080fd5b8860051b9150818a6020830137818101915050602081016000815260208483030160408501526159de81896158ce565b9150506159f660608401876001600160a01b03169052565b8281036080840152615a09818587615909565b9b9a5050505050505050505050565b60008060408385031215615a2b57600080fd5b505080516020909101519092909150565b600080600060608486031215615a5157600080fd5b8351925060208401519150604084015190509250925092565b60008219821115615a7d57615a7d61589d565b500190565b600082821015615a9457615a9461589d565b500390565b6000816000190483118215151615615ab357615ab361589d565b500290565b600181815b80851115615af3578160001904821115615ad957615ad961589d565b80851615615ae657918102915b93841c9390800290615abd565b509250929050565b600082615b0a57506001610991565b81615b1757506000610991565b8160018114615b2d5760028114615b3757615b53565b6001915050610991565b60ff841115615b4857615b4861589d565b50506001821b610991565b5060208310610133831016604e8410600b8410161715615b76575081810a610991565b615b808383615ab8565b8060001904821115615b9457615b9461589d565b029392505050565b600061125e8383615afb565b600082615bc557634e487b7160e01b600052601260045260246000fd5b500490565b60008060008060808587031215615be057600080fd5b845193506020850151925060408501519150606085015164ffffffffff8116811461524157600080fdfea2646970667358221220ef3968a4482580e788624bedc57a7d56682ec8180041951ca0460165affcdedd64736f6c634300080c0033",
  "libraries": {
    "ValidationLogic": "0xf275d517B46A9e8C2FB246D03EB8411aFAD4aaAE",
    "ReserveLogic": "0xcEedE471B51deF8Cf93A25bb670F2cc38339481f"
  },
  "devdoc": {
    "author": "Aave*",
    "details": "Main point of interaction with an Aave protocol's market - Users can:   # Deposit   # Withdraw   # Borrow   # Repay   # Swap their loans between variable and stable rate   # Enable/disable their deposits as collateral rebalance stable rate borrow positions   # Liquidate positions   # Execute Flash Loans - To be covered by a proxy contract, owned by the LendingPoolAddressesProvider of the specific market - All admin functions are callable by the LendingPoolConfigurator contract defined also in the   LendingPoolAddressesProvider",
    "kind": "dev",
    "methods": {
      "FLASHLOAN_PREMIUM_TOTAL()": {
        "details": "Returns the fee on flash loans"
      },
      "MAX_NUMBER_RESERVES()": {
        "details": "Returns the maximum number of reserves supported to be listed in this LendingPool"
      },
      "MAX_STABLE_RATE_BORROW_SIZE_PERCENT()": {
        "details": "Returns the percentage of available liquidity that can be borrowed at once at stable rate"
      },
      "borrow(address,uint256,uint256,uint16,address)": {
        "details": "Allows users to borrow a specific `amount` of the reserve underlying asset, provided that the borrower already deposited enough collateral, or he was given enough allowance by a credit delegator on the corresponding debt token (StableDebtToken or VariableDebtToken) - E.g. User borrows 100 USDC passing as `onBehalfOf` his own address, receiving the 100 USDC in his wallet   and 100 stable/variable debt tokens, depending on the `interestRateMode`",
        "params": {
          "amount": "The amount to be borrowed",
          "asset": "The address of the underlying asset to borrow",
          "interestRateMode": "The interest rate mode at which the user wants to borrow: 1 for Stable, 2 for Variable",
          "onBehalfOf": "Address of the user who will receive the debt. Should be the address of the borrower itself calling the function if he wants to borrow against his own collateral, or the address of the credit delegator if he has been given credit delegation allowance*",
          "referralCode": "Code used to register the integrator originating the operation, for potential rewards.   0 if the action is executed directly by the user, without any middle-man"
        }
      },
      "deposit(address,uint256,address,uint16)": {
        "details": "Deposits an `amount` of underlying asset into the reserve, receiving in return overlying aTokens. - E.g. User deposits 100 USDC and gets in return 100 aUSDC",
        "params": {
          "amount": "The amount to be deposited",
          "asset": "The address of the underlying asset to deposit",
          "onBehalfOf": "The address that will receive the aTokens, same as msg.sender if the user   wants to receive them on his own wallet, or a different address if the beneficiary of aTokens   is a different wallet",
          "referralCode": "Code used to register the integrator originating the operation, for potential rewards.   0 if the action is executed directly by the user, without any middle-man*"
        }
      },
      "finalizeTransfer(address,address,address,uint256,uint256,uint256)": {
        "details": "Validates and finalizes an aToken transfer - Only callable by the overlying aToken of the `asset`",
        "params": {
          "amount": "The amount being transferred/withdrawn",
          "asset": "The address of the underlying asset of the aToken",
          "balanceFromBefore": "The aToken balance of the `from` user before the transfer",
          "balanceToBefore": "The aToken balance of the `to` user before the transfer",
          "from": "The user from which the aTokens are transferred",
          "to": "The user receiving the aTokens"
        }
      },
      "flashLoan(address,address[],uint256[],uint256[],address,bytes,uint16)": {
        "details": "Allows smartcontracts to access the liquidity of the pool within one transaction, as long as the amount taken plus a fee is returned. IMPORTANT There are security concerns for developers of flashloan receiver contracts that must be kept into consideration. For further details please visit https://developers.aave.com",
        "params": {
          "amounts": "The amounts amounts being flash-borrowed",
          "assets": "The addresses of the assets being flash-borrowed",
          "modes": "Types of the debt to open if the flash loan is not returned:   0 -> Don't open any debt, just revert if funds can't be transferred from the receiver   1 -> Open debt at stable rate for the value of the amount flash-borrowed to the `onBehalfOf` address   2 -> Open debt at variable rate for the value of the amount flash-borrowed to the `onBehalfOf` address",
          "onBehalfOf": "The address  that will receive the debt in the case of using on `modes` 1 or 2",
          "params": "Variadic packed params to pass to the receiver as extra information",
          "receiverAddress": "The address of the contract receiving the funds, implementing the IFlashLoanReceiver interface",
          "referralCode": "Code used to register the integrator originating the operation, for potential rewards.   0 if the action is executed directly by the user, without any middle-man*"
        }
      },
      "getAddressesProvider()": {
        "details": "Returns the cached LendingPoolAddressesProvider connected to this contract*"
      },
      "getConfiguration(address)": {
        "details": "Returns the configuration of the reserve",
        "params": {
          "asset": "The address of the underlying asset of the reserve"
        },
        "returns": {
          "_0": "The configuration of the reserve*"
        }
      },
      "getReserveData(address)": {
        "details": "Returns the state and configuration of the reserve",
        "params": {
          "asset": "The address of the underlying asset of the reserve"
        },
        "returns": {
          "_0": "The state of the reserve*"
        }
      },
      "getReserveNormalizedIncome(address)": {
        "details": "Returns the normalized income per unit of asset",
        "params": {
          "asset": "The address of the underlying asset of the reserve"
        },
        "returns": {
          "_0": "The reserve's normalized income"
        }
      },
      "getReserveNormalizedVariableDebt(address)": {
        "details": "Returns the normalized variable debt per unit of asset",
        "params": {
          "asset": "The address of the underlying asset of the reserve"
        },
        "returns": {
          "_0": "The reserve normalized variable debt"
        }
      },
      "getReservesList()": {
        "details": "Returns the list of the initialized reserves*"
      },
      "getUserAccountData(address)": {
        "details": "Returns the user account data across all the reserves",
        "params": {
          "user": "The address of the user"
        },
        "returns": {
          "availableBorrowsETH": "the borrowing power left of the user",
          "currentLiquidationThreshold": "the liquidation threshold of the user",
          "healthFactor": "the current health factor of the user*",
          "ltv": "the loan to value of the user",
          "totalCollateralETH": "the total collateral in ETH of the user",
          "totalDebtETH": "the total debt in ETH of the user"
        }
      },
      "getUserConfiguration(address)": {
        "details": "Returns the configuration of the user across all the reserves",
        "params": {
          "user": "The user address"
        },
        "returns": {
          "_0": "The configuration of the user*"
        }
      },
      "initReserve(address,address,address,address,address)": {
        "details": "Initializes a reserve, activating it, assigning an aToken and debt tokens and an interest rate strategy - Only callable by the LendingPoolConfigurator contract",
        "params": {
          "aTokenAddress": "The address of the VariableDebtToken that will be assigned to the reserve",
          "asset": "The address of the underlying asset of the reserve",
          "interestRateStrategyAddress": "The address of the interest rate strategy contract*",
          "stableDebtAddress": "The address of the StableDebtToken that will be assigned to the reserve"
        }
      },
      "initialize(address)": {
        "details": "Function is invoked by the proxy contract when the LendingPool contract is added to the LendingPoolAddressesProvider of the market. - Caching the address of the LendingPoolAddressesProvider in order to reduce gas consumption   on subsequent operations",
        "params": {
          "provider": "The address of the LendingPoolAddressesProvider*"
        }
      },
      "liquidationCall(address,address,address,uint256,bool)": {
        "details": "Function to liquidate a non-healthy position collateral-wise, with Health Factor below 1 - The caller (liquidator) covers `debtToCover` amount of debt of the user getting liquidated, and receives   a proportionally amount of the `collateralAsset` plus a bonus to cover market risk",
        "params": {
          "collateralAsset": "The address of the underlying asset used as collateral, to receive as result of the liquidation",
          "debtAsset": "The address of the underlying borrowed asset to be repaid with the liquidation",
          "debtToCover": "The debt amount of borrowed `asset` the liquidator wants to cover",
          "receiveAToken": "`true` if the liquidators wants to receive the collateral aTokens, `false` if he wants to receive the underlying collateral asset directly*",
          "user": "The address of the borrower getting liquidated"
        }
      },
      "paused()": {
        "details": "Returns if the LendingPool is paused"
      },
      "rebalanceStableBorrowRate(address,address)": {
        "details": "Rebalances the stable interest rate of a user to the current stable rate defined on the reserve. - Users can be rebalanced if the following conditions are satisfied:     1. Usage ratio is above 95%     2. the current deposit APY is below REBALANCE_UP_THRESHOLD * maxVariableBorrowRate, which means that too much has been        borrowed at a stable rate and depositors are not earning enough",
        "params": {
          "asset": "The address of the underlying asset borrowed",
          "user": "The address of the user to be rebalanced*"
        }
      },
      "repay(address,uint256,uint256,address)": {
        "params": {
          "amount": "The amount to repay - Send the value type(uint256).max in order to repay the whole debt for `asset` on the specific `debtMode`",
          "asset": "The address of the borrowed underlying asset previously borrowed",
          "onBehalfOf": "Address of the user who will get his debt reduced/removed. Should be the address of the user calling the function if he wants to reduce/remove his own debt, or the address of any other other borrower whose debt should be removed",
          "rateMode": "The interest rate mode at of the debt the user wants to repay: 1 for Stable, 2 for Variable"
        },
        "returns": {
          "_0": "The final amount repaid*"
        }
      },
      "setConfiguration(address,uint256)": {
        "details": "Sets the configuration bitmap of the reserve as a whole - Only callable by the LendingPoolConfigurator contract",
        "params": {
          "asset": "The address of the underlying asset of the reserve",
          "configuration": "The new configuration bitmap*"
        }
      },
      "setPause(bool)": {
        "details": "Set the _pause state of a reserve - Only callable by the LendingPoolConfigurator contract",
        "params": {
          "val": "`true` to pause the reserve, `false` to un-pause it"
        }
      },
      "setReserveInterestRateStrategyAddress(address,address)": {
        "details": "Updates the address of the interest rate strategy contract - Only callable by the LendingPoolConfigurator contract",
        "params": {
          "asset": "The address of the underlying asset of the reserve",
          "rateStrategyAddress": "The address of the interest rate strategy contract*"
        }
      },
      "setUserUseReserveAsCollateral(address,bool)": {
        "details": "Allows depositors to enable/disable a specific deposited asset as collateral",
        "params": {
          "asset": "The address of the underlying asset deposited",
          "useAsCollateral": "`true` if the user wants to use the deposit as collateral, `false` otherwise*"
        }
      },
      "swapBorrowRateMode(address,uint256)": {
        "details": "Allows a borrower to swap his debt between stable and variable mode, or viceversa",
        "params": {
          "asset": "The address of the underlying asset borrowed",
          "rateMode": "The rate mode that the user wants to swap to*"
        }
      },
      "withdraw(address,uint256,address)": {
        "details": "Withdraws an `amount` of underlying asset from the reserve, burning the equivalent aTokens owned E.g. User has 100 aUSDC, calls withdraw() and receives 100 USDC, burning the 100 aUSDC",
        "params": {
          "amount": "The underlying amount to be withdrawn   - Send the value type(uint256).max in order to withdraw the whole aToken balance",
          "asset": "The address of the underlying asset to withdraw",
          "to": "Address that will receive the underlying, same as msg.sender if the user   wants to receive it on his own wallet, or a different address if the beneficiary is a   different wallet"
        },
        "returns": {
          "_0": "The final amount withdrawn*"
        }
      }
    },
    "title": "LendingPool contract",
    "version": 1
  },
  "userdoc": {
    "kind": "user",
    "methods": {
      "repay(address,uint256,uint256,address)": {
        "notice": "Repays a borrowed `amount` on a specific reserve, burning the equivalent debt tokens owned - E.g. User repays 100 USDC, burning 100 variable/stable debt tokens of the `onBehalfOf` address"
      }
    },
    "version": 1
  },
  "storageLayout": {
    "storage": [
      {
        "astId": 34830,
        "contract": "contracts/lending/lendingpool/LendingPool.sol:LendingPool",
        "label": "lastInitializedRevision",
        "offset": 0,
        "slot": "0",
        "type": "t_uint256"
      },
      {
        "astId": 34833,
        "contract": "contracts/lending/lendingpool/LendingPool.sol:LendingPool",
        "label": "initializing",
        "offset": 0,
        "slot": "1",
        "type": "t_bool"
      },
      {
        "astId": 34903,
        "contract": "contracts/lending/lendingpool/LendingPool.sol:LendingPool",
        "label": "______gap",
        "offset": 0,
        "slot": "2",
        "type": "t_array(t_uint256)50_storage"
      },
      {
        "astId": 34652,
        "contract": "contracts/lending/lendingpool/LendingPool.sol:LendingPool",
        "label": "_addressesProvider",
        "offset": 0,
        "slot": "52",
        "type": "t_contract(ILendingPoolAddressesProvider)22605"
      },
      {
        "astId": 34657,
        "contract": "contracts/lending/lendingpool/LendingPool.sol:LendingPool",
        "label": "_reserves",
        "offset": 0,
        "slot": "53",
        "type": "t_mapping(t_address,t_struct(ReserveData)39347_storage)"
      },
      {
        "astId": 34662,
        "contract": "contracts/lending/lendingpool/LendingPool.sol:LendingPool",
        "label": "_usersConfig",
        "offset": 0,
        "slot": "54",
        "type": "t_mapping(t_address,t_struct(UserConfigurationMap)39353_storage)"
      },
      {
        "astId": 34666,
        "contract": "contracts/lending/lendingpool/LendingPool.sol:LendingPool",
        "label": "_reservesList",
        "offset": 0,
        "slot": "55",
        "type": "t_mapping(t_uint256,t_address)"
      },
      {
        "astId": 34668,
        "contract": "contracts/lending/lendingpool/LendingPool.sol:LendingPool",
        "label": "_reservesCount",
        "offset": 0,
        "slot": "56",
        "type": "t_uint256"
      },
      {
        "astId": 34670,
        "contract": "contracts/lending/lendingpool/LendingPool.sol:LendingPool",
        "label": "_paused",
        "offset": 0,
        "slot": "57",
        "type": "t_bool"
      },
      {
        "astId": 34672,
        "contract": "contracts/lending/lendingpool/LendingPool.sol:LendingPool",
        "label": "_maxStableRateBorrowSizePercent",
        "offset": 0,
        "slot": "58",
        "type": "t_uint256"
      },
      {
        "astId": 34674,
        "contract": "contracts/lending/lendingpool/LendingPool.sol:LendingPool",
        "label": "_flashLoanPremiumTotal",
        "offset": 0,
        "slot": "59",
        "type": "t_uint256"
      },
      {
        "astId": 34676,
        "contract": "contracts/lending/lendingpool/LendingPool.sol:LendingPool",
        "label": "_maxNumberOfReserves",
        "offset": 0,
        "slot": "60",
        "type": "t_uint256"
      },
      {
        "astId": 30583,
        "contract": "contracts/lending/lendingpool/LendingPool.sol:LendingPool",
        "label": "leverager",
        "offset": 0,
        "slot": "61",
        "type": "t_contract(ILeverager)22931"
      },
      {
        "astId": 30585,
        "contract": "contracts/lending/lendingpool/LendingPool.sol:LendingPool",
        "label": "owner",
        "offset": 0,
        "slot": "62",
        "type": "t_address"
      }
    ],
    "types": {
      "t_address": {
        "encoding": "inplace",
        "label": "address",
        "numberOfBytes": "20"
      },
      "t_array(t_uint256)50_storage": {
        "base": "t_uint256",
        "encoding": "inplace",
        "label": "uint256[50]",
        "numberOfBytes": "1600"
      },
      "t_bool": {
        "encoding": "inplace",
        "label": "bool",
        "numberOfBytes": "1"
      },
      "t_contract(ILendingPoolAddressesProvider)22605": {
        "encoding": "inplace",
        "label": "contract ILendingPoolAddressesProvider",
        "numberOfBytes": "20"
      },
      "t_contract(ILeverager)22931": {
        "encoding": "inplace",
        "label": "contract ILeverager",
        "numberOfBytes": "20"
      },
      "t_mapping(t_address,t_struct(ReserveData)39347_storage)": {
        "encoding": "mapping",
        "key": "t_address",
        "label": "mapping(address => struct DataTypes.ReserveData)",
        "numberOfBytes": "32",
        "value": "t_struct(ReserveData)39347_storage"
      },
      "t_mapping(t_address,t_struct(UserConfigurationMap)39353_storage)": {
        "encoding": "mapping",
        "key": "t_address",
        "label": "mapping(address => struct DataTypes.UserConfigurationMap)",
        "numberOfBytes": "32",
        "value": "t_struct(UserConfigurationMap)39353_storage"
      },
      "t_mapping(t_uint256,t_address)": {
        "encoding": "mapping",
        "key": "t_uint256",
        "label": "mapping(uint256 => address)",
        "numberOfBytes": "32",
        "value": "t_address"
      },
      "t_struct(ReserveConfigurationMap)39350_storage": {
        "encoding": "inplace",
        "label": "struct DataTypes.ReserveConfigurationMap",
        "members": [
          {
            "astId": 39349,
            "contract": "contracts/lending/lendingpool/LendingPool.sol:LendingPool",
            "label": "data",
            "offset": 0,
            "slot": "0",
            "type": "t_uint256"
          }
        ],
        "numberOfBytes": "32"
      },
      "t_struct(ReserveData)39347_storage": {
        "encoding": "inplace",
        "label": "struct DataTypes.ReserveData",
        "members": [
          {
            "astId": 39324,
            "contract": "contracts/lending/lendingpool/LendingPool.sol:LendingPool",
            "label": "configuration",
            "offset": 0,
            "slot": "0",
            "type": "t_struct(ReserveConfigurationMap)39350_storage"
          },
          {
            "astId": 39326,
            "contract": "contracts/lending/lendingpool/LendingPool.sol:LendingPool",
            "label": "liquidityIndex",
            "offset": 0,
            "slot": "1",
            "type": "t_uint128"
          },
          {
            "astId": 39328,
            "contract": "contracts/lending/lendingpool/LendingPool.sol:LendingPool",
            "label": "variableBorrowIndex",
            "offset": 16,
            "slot": "1",
            "type": "t_uint128"
          },
          {
            "astId": 39330,
            "contract": "contracts/lending/lendingpool/LendingPool.sol:LendingPool",
            "label": "currentLiquidityRate",
            "offset": 0,
            "slot": "2",
            "type": "t_uint128"
          },
          {
            "astId": 39332,
            "contract": "contracts/lending/lendingpool/LendingPool.sol:LendingPool",
            "label": "currentVariableBorrowRate",
            "offset": 16,
            "slot": "2",
            "type": "t_uint128"
          },
          {
            "astId": 39334,
            "contract": "contracts/lending/lendingpool/LendingPool.sol:LendingPool",
            "label": "currentStableBorrowRate",
            "offset": 0,
            "slot": "3",
            "type": "t_uint128"
          },
          {
            "astId": 39336,
            "contract": "contracts/lending/lendingpool/LendingPool.sol:LendingPool",
            "label": "lastUpdateTimestamp",
            "offset": 16,
            "slot": "3",
            "type": "t_uint40"
          },
          {
            "astId": 39338,
            "contract": "contracts/lending/lendingpool/LendingPool.sol:LendingPool",
            "label": "aTokenAddress",
            "offset": 0,
            "slot": "4",
            "type": "t_address"
          },
          {
            "astId": 39340,
            "contract": "contracts/lending/lendingpool/LendingPool.sol:LendingPool",
            "label": "stableDebtTokenAddress",
            "offset": 0,
            "slot": "5",
            "type": "t_address"
          },
          {
            "astId": 39342,
            "contract": "contracts/lending/lendingpool/LendingPool.sol:LendingPool",
            "label": "variableDebtTokenAddress",
            "offset": 0,
            "slot": "6",
            "type": "t_address"
          },
          {
            "astId": 39344,
            "contract": "contracts/lending/lendingpool/LendingPool.sol:LendingPool",
            "label": "interestRateStrategyAddress",
            "offset": 0,
            "slot": "7",
            "type": "t_address"
          },
          {
            "astId": 39346,
            "contract": "contracts/lending/lendingpool/LendingPool.sol:LendingPool",
            "label": "id",
            "offset": 20,
            "slot": "7",
            "type": "t_uint8"
          }
        ],
        "numberOfBytes": "256"
      },
      "t_struct(UserConfigurationMap)39353_storage": {
        "encoding": "inplace",
        "label": "struct DataTypes.UserConfigurationMap",
        "members": [
          {
            "astId": 39352,
            "contract": "contracts/lending/lendingpool/LendingPool.sol:LendingPool",
            "label": "data",
            "offset": 0,
            "slot": "0",
            "type": "t_uint256"
          }
        ],
        "numberOfBytes": "32"
      },
      "t_uint128": {
        "encoding": "inplace",
        "label": "uint128",
        "numberOfBytes": "16"
      },
      "t_uint256": {
        "encoding": "inplace",
        "label": "uint256",
        "numberOfBytes": "32"
      },
      "t_uint40": {
        "encoding": "inplace",
        "label": "uint40",
        "numberOfBytes": "5"
      },
      "t_uint8": {
        "encoding": "inplace",
        "label": "uint8",
        "numberOfBytes": "1"
      }
    }
  }
}