{
  "address": "0x2cd991b0427D7676Ba9aeB2bBE839F34a7C4cE50",
  "abi": [
    {
      "inputs": [
        {
          "internalType": "contract ILendingPool",
          "name": "_lendingPool",
          "type": "address"
        },
        {
          "internalType": "contract IEligibilityDataProvider",
          "name": "_rewardEligibleDataProvider",
          "type": "address"
        },
        {
          "internalType": "contract IAaveOracle",
          "name": "_aaveOracle",
          "type": "address"
        },
        {
          "internalType": "contract ILockZap",
          "name": "_lockZap",
          "type": "address"
        },
        {
          "internalType": "contract IChefIncentivesController",
          "name": "_cic",
          "type": "address"
        },
        {
          "internalType": "contract IWETH",
          "name": "_weth",
          "type": "address"
        },
        {
          "internalType": "uint256",
          "name": "_feePercent",
          "type": "uint256"
        },
        {
          "internalType": "address",
          "name": "_treasury",
          "type": "address"
        }
      ],
      "stateMutability": "nonpayable",
      "type": "constructor"
    },
    {
      "anonymous": false,
      "inputs": [
        {
          "indexed": false,
          "internalType": "uint256",
          "name": "_feePercent",
          "type": "uint256"
        }
      ],
      "name": "FeePercentUpdated",
      "type": "event"
    },
    {
      "anonymous": false,
      "inputs": [
        {
          "indexed": true,
          "internalType": "address",
          "name": "previousOwner",
          "type": "address"
        },
        {
          "indexed": true,
          "internalType": "address",
          "name": "newOwner",
          "type": "address"
        }
      ],
      "name": "OwnershipTransferred",
      "type": "event"
    },
    {
      "anonymous": false,
      "inputs": [
        {
          "indexed": true,
          "internalType": "address",
          "name": "_treasury",
          "type": "address"
        }
      ],
      "name": "TreasuryUpdated",
      "type": "event"
    },
    {
      "stateMutability": "payable",
      "type": "fallback"
    },
    {
      "inputs": [],
      "name": "API_ETH_MOCK_ADDRESS",
      "outputs": [
        {
          "internalType": "address",
          "name": "",
          "type": "address"
        }
      ],
      "stateMutability": "view",
      "type": "function"
    },
    {
      "inputs": [],
      "name": "RATIO_DIVISOR",
      "outputs": [
        {
          "internalType": "uint256",
          "name": "",
          "type": "uint256"
        }
      ],
      "stateMutability": "view",
      "type": "function"
    },
    {
      "inputs": [],
      "name": "aaveOracle",
      "outputs": [
        {
          "internalType": "contract IAaveOracle",
          "name": "",
          "type": "address"
        }
      ],
      "stateMutability": "view",
      "type": "function"
    },
    {
      "inputs": [],
      "name": "cic",
      "outputs": [
        {
          "internalType": "contract IChefIncentivesController",
          "name": "",
          "type": "address"
        }
      ],
      "stateMutability": "view",
      "type": "function"
    },
    {
      "inputs": [],
      "name": "eligibilityDataProvider",
      "outputs": [
        {
          "internalType": "contract IEligibilityDataProvider",
          "name": "",
          "type": "address"
        }
      ],
      "stateMutability": "view",
      "type": "function"
    },
    {
      "inputs": [],
      "name": "feePercent",
      "outputs": [
        {
          "internalType": "uint256",
          "name": "",
          "type": "uint256"
        }
      ],
      "stateMutability": "view",
      "type": "function"
    },
    {
      "inputs": [
        {
          "internalType": "address",
          "name": "asset",
          "type": "address"
        }
      ],
      "name": "getConfiguration",
      "outputs": [
        {
          "components": [
            {
              "internalType": "uint256",
              "name": "data",
              "type": "uint256"
            }
          ],
          "internalType": "struct DataTypes.ReserveConfigurationMap",
          "name": "",
          "type": "tuple"
        }
      ],
      "stateMutability": "view",
      "type": "function"
    },
    {
      "inputs": [
        {
          "internalType": "address",
          "name": "asset",
          "type": "address"
        }
      ],
      "name": "getVDebtToken",
      "outputs": [
        {
          "internalType": "address",
          "name": "",
          "type": "address"
        }
      ],
      "stateMutability": "view",
      "type": "function"
    },
    {
      "inputs": [],
      "name": "lendingPool",
      "outputs": [
        {
          "internalType": "contract ILendingPool",
          "name": "",
          "type": "address"
        }
      ],
      "stateMutability": "view",
      "type": "function"
    },
    {
      "inputs": [],
      "name": "lockZap",
      "outputs": [
        {
          "internalType": "contract ILockZap",
          "name": "",
          "type": "address"
        }
      ],
      "stateMutability": "view",
      "type": "function"
    },
    {
      "inputs": [
        {
          "internalType": "address",
          "name": "asset",
          "type": "address"
        },
        {
          "internalType": "uint256",
          "name": "amount",
          "type": "uint256"
        },
        {
          "internalType": "uint256",
          "name": "interestRateMode",
          "type": "uint256"
        },
        {
          "internalType": "uint256",
          "name": "borrowRatio",
          "type": "uint256"
        },
        {
          "internalType": "uint256",
          "name": "loopCount",
          "type": "uint256"
        },
        {
          "internalType": "bool",
          "name": "isBorrow",
          "type": "bool"
        }
      ],
      "name": "loop",
      "outputs": [],
      "stateMutability": "nonpayable",
      "type": "function"
    },
    {
      "inputs": [
        {
          "internalType": "uint256",
          "name": "interestRateMode",
          "type": "uint256"
        },
        {
          "internalType": "uint256",
          "name": "borrowRatio",
          "type": "uint256"
        },
        {
          "internalType": "uint256",
          "name": "loopCount",
          "type": "uint256"
        }
      ],
      "name": "loopETH",
      "outputs": [],
      "stateMutability": "payable",
      "type": "function"
    },
    {
      "inputs": [
        {
          "internalType": "address",
          "name": "asset",
          "type": "address"
        }
      ],
      "name": "ltv",
      "outputs": [
        {
          "internalType": "uint256",
          "name": "",
          "type": "uint256"
        }
      ],
      "stateMutability": "view",
      "type": "function"
    },
    {
      "inputs": [],
      "name": "owner",
      "outputs": [
        {
          "internalType": "address",
          "name": "",
          "type": "address"
        }
      ],
      "stateMutability": "view",
      "type": "function"
    },
    {
      "inputs": [],
      "name": "renounceOwnership",
      "outputs": [],
      "stateMutability": "nonpayable",
      "type": "function"
    },
    {
      "inputs": [
        {
          "internalType": "uint256",
          "name": "_feePercent",
          "type": "uint256"
        }
      ],
      "name": "setFeePercent",
      "outputs": [],
      "stateMutability": "nonpayable",
      "type": "function"
    },
    {
      "inputs": [
        {
          "internalType": "address",
          "name": "_treasury",
          "type": "address"
        }
      ],
      "name": "setTreasury",
      "outputs": [],
      "stateMutability": "nonpayable",
      "type": "function"
    },
    {
      "inputs": [
        {
          "internalType": "address",
          "name": "newOwner",
          "type": "address"
        }
      ],
      "name": "transferOwnership",
      "outputs": [],
      "stateMutability": "nonpayable",
      "type": "function"
    },
    {
      "inputs": [],
      "name": "treasury",
      "outputs": [
        {
          "internalType": "address",
          "name": "",
          "type": "address"
        }
      ],
      "stateMutability": "view",
      "type": "function"
    },
    {
      "inputs": [],
      "name": "weth",
      "outputs": [
        {
          "internalType": "contract IWETH",
          "name": "",
          "type": "address"
        }
      ],
      "stateMutability": "view",
      "type": "function"
    },
    {
      "inputs": [
        {
          "internalType": "address",
          "name": "user",
          "type": "address"
        }
      ],
      "name": "wethToZap",
      "outputs": [
        {
          "internalType": "uint256",
          "name": "",
          "type": "uint256"
        }
      ],
      "stateMutability": "view",
      "type": "function"
    },
    {
      "inputs": [
        {
          "internalType": "address",
          "name": "user",
          "type": "address"
        },
        {
          "internalType": "address",
          "name": "asset",
          "type": "address"
        },
        {
          "internalType": "uint256",
          "name": "amount",
          "type": "uint256"
        },
        {
          "internalType": "uint256",
          "name": "borrowRatio",
          "type": "uint256"
        },
        {
          "internalType": "uint256",
          "name": "loopCount",
          "type": "uint256"
        }
      ],
      "name": "wethToZapEstimation",
      "outputs": [
        {
          "internalType": "uint256",
          "name": "",
          "type": "uint256"
        }
      ],
      "stateMutability": "view",
      "type": "function"
    },
    {
      "inputs": [
        {
          "internalType": "uint256",
          "name": "amount",
          "type": "uint256"
        },
        {
          "internalType": "address",
          "name": "borrower",
          "type": "address"
        }
      ],
      "name": "zapWETHWithBorrow",
      "outputs": [
        {
          "internalType": "uint256",
          "name": "liquidity",
          "type": "uint256"
        }
      ],
      "stateMutability": "nonpayable",
      "type": "function"
    },
    {
      "stateMutability": "payable",
      "type": "receive"
    }
  ],
  "transactionHash": "0x47541e00863f24320f17a3372acfbb730ed1d215194db722834c8fd798276e4f",
  "args": [
    "0xd50Cf00b6e600Dd036Ba8eF475677d816d6c4281",
    "0x7B45bc162804db31D12c0bcf3009fb161A7fEe6e",
    "0x0BB5c1Bc173b207cBf47CDf013617087776F3782",
    "0x13Ef2A9e127aE8d9e9b863c7e375Ba68E1a42Ac6",
    "0x7C16aBb090d3FB266E9d17F60174B632f4229933",
    "0xbb4CdB9CBd36B01bD1cBaEBF2De08d9173bc095c",
    "0",
    "0x769549Ab2765f2541FF6d5b6655B8bD36f99705E"
  ],
  "numDeployments": 1,
  "solcInputHash": "349e02637fa83cbadc3e167bdb8af2b0",
  "bytecode": "0x60806040523480156200001157600080fd5b5060405162002d2538038062002d2583398101604081905262000034916200036a565b6200003f3362000301565b6001600160a01b0388166200008a5760405162461bcd60e51b8152602060048201526013602482015260008051602062002d0583398151915260448201526064015b60405180910390fd5b6001600160a01b038716620000d15760405162461bcd60e51b8152602060048201526013602482015260008051602062002d05833981519152604482015260640162000081565b6001600160a01b038616620001185760405162461bcd60e51b8152602060048201526013602482015260008051602062002d05833981519152604482015260640162000081565b6001600160a01b0385166200015f5760405162461bcd60e51b8152602060048201526013602482015260008051602062002d05833981519152604482015260640162000081565b6001600160a01b038416620001a65760405162461bcd60e51b8152602060048201526013602482015260008051602062002d05833981519152604482015260640162000081565b6001600160a01b038316620001ed5760405162461bcd60e51b8152602060048201526013602482015260008051602062002d05833981519152604482015260640162000081565b6001600160a01b038116620002345760405162461bcd60e51b8152602060048201526013602482015260008051602062002d05833981519152604482015260640162000081565b612710821115620002785760405162461bcd60e51b815260206004820152600d60248201526c496e76616c696420726174696f60981b604482015260640162000081565b600180546001600160a01b03199081166001600160a01b039a8b1617909155600280548216988a16989098179097556003805488169589169590951790945560068054871695881695909517909455600480548616928716929092179091556005805485169186169190911790556007919091556008805490921692169190911790556200041f565b600080546001600160a01b038381166001600160a01b0319831681178455604051919092169283917f8be0079c531659141344cd1fd0a4f28419497f9722a3daafe3b4186f6b6457e09190a35050565b6001600160a01b03811681146200036757600080fd5b50565b600080600080600080600080610100898b0312156200038857600080fd5b8851620003958162000351565b60208a0151909850620003a88162000351565b60408a0151909750620003bb8162000351565b60608a0151909650620003ce8162000351565b60808a0151909550620003e18162000351565b60a08a0151909450620003f48162000351565b60c08a015160e08b015191945092506200040e8162000351565b809150509295985092959890939650565b6128d6806200042f6000396000f3fe6080604052600436106101845760003560e01c80637473eea6116100d6578063a8d5a4521161007f578063ec67ff7311610059578063ec67ff73146104c6578063f0f44260146104e6578063f2fde38b14610506576101ea565b8063a8d5a45214610464578063c44b11f714610477578063cd498dc4146104a6576101ea565b80637fd6f15c116100b05780637fd6f15c146104105780638da5cb5b14610426578063a59a997314610444576101ea565b80637473eea6146103b057806376e82e8b146103d05780637ce3489b146103f0576101ea565b8063602acb7e11610138578063667f374511610112578063667f3745146103655780636a7e9f3314610385578063715018a61461039b576101ea565b8063602acb7e146102fd57806361d027b3146103255780636372b28114610345576101ea565b806313036ed21161016957806313036ed21461029d578063171b3e43146102bd5780633fc8cef3146102dd576101ea565b806303bf24e51461023257806306346c3014610265576101ea565b366101ea576005546001600160a01b031633146101e85760405162461bcd60e51b815260206004820152601360248201527f52656365697665206e6f7420616c6c6f7765640000000000000000000000000060448201526064015b60405180910390fd5b005b60405162461bcd60e51b815260206004820152601460248201527f46616c6c6261636b206e6f7420616c6c6f77656400000000000000000000000060448201526064016101df565b34801561023e57600080fd5b5061025261024d3660046122ec565b610526565b6040519081526020015b60405180910390f35b34801561027157600080fd5b50600354610285906001600160a01b031681565b6040516001600160a01b03909116815260200161025c565b3480156102a957600080fd5b50600454610285906001600160a01b031681565b3480156102c957600080fd5b506101e86102d8366004612317565b6107da565b3480156102e957600080fd5b50600554610285906001600160a01b031681565b34801561030957600080fd5b5061028573eeeeeeeeeeeeeeeeeeeeeeeeeeeeeeeeeeeeeeee81565b34801561033157600080fd5b50600854610285906001600160a01b031681565b34801561035157600080fd5b50600654610285906001600160a01b031681565b34801561037157600080fd5b506102856103803660046122ec565b610ca5565b34801561039157600080fd5b5061025261271081565b3480156103a757600080fd5b506101e8610d3d565b3480156103bc57600080fd5b506102526103cb3660046122ec565b610d51565b3480156103dc57600080fd5b50600254610285906001600160a01b031681565b3480156103fc57600080fd5b506101e861040b366004612375565b610ddd565b34801561041c57600080fd5b5061025260075481565b34801561043257600080fd5b506000546001600160a01b0316610285565b34801561045057600080fd5b50600154610285906001600160a01b031681565b6101e861047236600461238e565b610e62565b34801561048357600080fd5b506104976104923660046122ec565b611378565b6040519051815260200161025c565b3480156104b257600080fd5b506102526104c13660046123ba565b6113fb565b3480156104d257600080fd5b506102526104e136600461240b565b611778565b3480156104f257600080fd5b506101e86105013660046122ec565b6119af565b34801561051257600080fd5b506101e86105213660046122ec565b611a64565b6002546040516371c7ee1b60e11b81526001600160a01b038381166004830152600092839291169063e38fdc3690602401602060405180830381865afa158015610574573d6000803e3d6000fd5b505050506040513d601f19601f82011682018060405250810190610598919061243b565b600254604051636d9077cb60e01b81526001600160a01b03868116600483015292935060009290911690636d9077cb90602401602060405180830381865afa1580156105e8573d6000803e3d6000fd5b505050506040513d601f19601f8201168201806040525081019061060c919061243b565b905081811061061f575060009392505050565b600061062b8383611af4565b60065460055460405163b3596f0760e01b81526001600160a01b03918216600482015292935060009291169063b3596f0790602401602060405180830381865afa15801561067d573d6000803e3d6000fd5b505050506040513d601f19601f820116820180604052508101906106a1919061243b565b600654600554604051630495f95f60e51b81526001600160a01b0391821660048201529293506000929116906392bf2be090602401602060405180830381865afa1580156106f3573d6000803e3d6000fd5b505050506040513d601f19601f820116820180604052508101906107179190612464565b6001600160a01b031663313ce5676040518163ffffffff1660e01b8152600401602060405180830381865afa158015610754573d6000803e3d6000fd5b505050506040513d601f19601f820116820180604052508101906107789190612492565b905060006107b26305f5e1006107ac858161079487600a6125a7565b6107a68a670de0b6b3a7640000611b00565b90611b00565b90611b0c565b90506107ce6107c760646107ac846006611b00565b8290611b18565b98975050505050505050565b61271083111561081c5760405162461bcd60e51b815260206004820152600d60248201526c496e76616c696420726174696f60981b60448201526064016101df565b6000808261087e576108396001600160a01b03891633308a611b24565b6108546127106107ac6007548a611b0090919063ffffffff16565b600854909150610871906001600160a01b038a8116911683611bdb565b61087b8782611af4565b96505b600154604051636eb1769f60e11b81523060048201526001600160a01b0391821660248201529089169063dd62ed3e90604401602060405180830381865afa1580156108ce573d6000803e3d6000fd5b505050506040513d601f19601f820116820180604052508101906108f2919061243b565b61091257600154610912906001600160a01b038a81169116600019611c29565b600854604051636eb1769f60e11b81523060048201526001600160a01b0391821660248201529089169063dd62ed3e90604401602060405180830381865afa158015610962573d6000803e3d6000fd5b505050506040513d601f19601f82011682018060405250810190610986919061243b565b6109a6576008546109a6906001600160a01b038a81169116600019611c29565b60048054604051635d8e5d4960e01b81523392810192909252600160248301526001600160a01b031690635d8e5d4990604401600060405180830381600087803b1580156109f357600080fd5b505af1158015610a07573d6000803e3d6000fd5b5050505082610a875760015460405163e8eda9df60e01b81526001600160a01b038a81166004830152602482018a905233604483015261ffff851660648301529091169063e8eda9df90608401600060405180830381600087803b158015610a6e57600080fd5b505af1158015610a82573d6000803e3d6000fd5b505050505b60005b84811015610c8757610a9d6001866125b6565b811415610b0a5760048054604051635d8e5d4960e01b81523392810192909252600060248301526001600160a01b031690635d8e5d4990604401600060405180830381600087803b158015610af157600080fd5b505af1158015610b05573d6000803e3d6000fd5b505050505b610b1a6127106107ac8a89611b00565b60015460405163a415bcad60e01b81526001600160a01b038c8116600483015260248201849052604482018b905261ffff87166064830152336084830152929a5091169063a415bcad9060a401600060405180830381600087803b158015610b8157600080fd5b505af1158015610b95573d6000803e3d6000fd5b50505050610bb46127106107ac6007548b611b0090919063ffffffff16565b600854909250610bd1906001600160a01b038b8116911684611bdb565b6001546001600160a01b031663e8eda9df8a610bed8b86611af4565b6040517fffffffff0000000000000000000000000000000000000000000000000000000060e085901b1681526001600160a01b039092166004830152602482015233604482015261ffff86166064820152608401600060405180830381600087803b158015610c5b57600080fd5b505af1158015610c6f573d6000803e3d6000fd5b50505050600181610c8091906125cd565b9050610a8a565b50610c9a610c9433610526565b33611778565b505050505050505050565b6001546040517f35ea6a750000000000000000000000000000000000000000000000000000000081526001600160a01b03838116600483015260009283929116906335ea6a759060240161018060405180830381865afa158015610d0d573d6000803e3d6000fd5b505050506040513d601f19601f82011682018060405250810190610d3191906126a2565b61012001519392505050565b610d45611d5e565b610d4f6000611db8565b565b60015460405163c44b11f760e01b81526001600160a01b038381166004830152600092839291169063c44b11f790602401602060405180830381865afa158015610d9f573d6000803e3d6000fd5b505050506040513d601f19601f82011682018060405250810190610dc3919061278f565b8051909150610dd69062010000906127c1565b9392505050565b610de5611d5e565b612710811115610e275760405162461bcd60e51b815260206004820152600d60248201526c496e76616c696420726174696f60981b60448201526064016101df565b60078190556040518181527f64d1887078a96d281ed60dd69ba75bfb6b5cd2cb4c2d2538b2eb7816a4c646ea9060200160405180910390a150565b612710821115610ea45760405162461bcd60e51b815260206004820152600d60248201526c496e76616c696420726174696f60981b60448201526064016101df565b600554600154604051636eb1769f60e11b81523060048201526001600160a01b0391821660248201526000923492169063dd62ed3e90604401602060405180830381865afa158015610efa573d6000803e3d6000fd5b505050506040513d601f19601f82011682018060405250810190610f1e919061243b565b610f4157600154600554610f41916001600160a01b039182169116600019611c29565b600554600854604051636eb1769f60e11b81523060048201526001600160a01b03918216602482015291169063dd62ed3e90604401602060405180830381865afa158015610f93573d6000803e3d6000fd5b505050506040513d601f19601f82011682018060405250810190610fb7919061243b565b610fda57600854600554610fda916001600160a01b039182169116600019611c29565b6000610ff76127106107ac60075485611b0090919063ffffffff16565b600854909150611010906001600160a01b031682611e15565b61101a8282611af4565b9150600560009054906101000a90046001600160a01b03166001600160a01b031663d0e30db0836040518263ffffffff1660e01b81526004016000604051808303818588803b15801561106c57600080fd5b505af1158015611080573d6000803e3d6000fd5b505060015460055460405163e8eda9df60e01b81526001600160a01b0391821660048201526024810188905233604482015261ffff891660648201529116935063e8eda9df92506084019050600060405180830381600087803b1580156110e657600080fd5b505af11580156110fa573d6000803e3d6000fd5b5050505060005b84811015611362576111196127106107ac8589611b00565b60015460055460405163a415bcad60e01b81526001600160a01b03918216600482015260248101849052604481018b905261ffff88166064820152336084820152929550169063a415bcad9060a401600060405180830381600087803b15801561118257600080fd5b505af1158015611196573d6000803e3d6000fd5b50506005546040517f2e1a7d4d000000000000000000000000000000000000000000000000000000008152600481018790526001600160a01b039091169250632e1a7d4d9150602401600060405180830381600087803b1580156111f957600080fd5b505af115801561120d573d6000803e3d6000fd5b5050505061122c6127106107ac60075486611b0090919063ffffffff16565b600854909250611245906001600160a01b031683611e15565b6005546001600160a01b031663d0e30db06112608585611af4565b6040518263ffffffff1660e01b81526004016000604051808303818588803b15801561128b57600080fd5b505af115801561129f573d6000803e3d6000fd5b50506001546005546001600160a01b03918216945063e8eda9df93501690506112c88686611af4565b6040517fffffffff0000000000000000000000000000000000000000000000000000000060e085901b1681526001600160a01b039092166004830152602482015233604482015261ffff87166064820152608401600060405180830381600087803b15801561133657600080fd5b505af115801561134a573d6000803e3d6000fd5b5050505060018161135b91906125cd565b9050611101565b5061136f610c9433610526565b50505050505050565b60408051602081019091526000815260015460405163c44b11f760e01b81526001600160a01b0384811660048301529091169063c44b11f790602401602060405180830381865afa1580156113d1573d6000803e3d6000fd5b505050506040513d601f19601f820116820180604052508101906113f5919061278f565b92915050565b60006001600160a01b03851673eeeeeeeeeeeeeeeeeeeeeeeeeeeeeeeeeeeeeeee1415611431576005546001600160a01b031694505b6002546040516371c7ee1b60e11b81526001600160a01b038881166004830152600092169063e38fdc3690602401602060405180830381865afa15801561147c573d6000803e3d6000fd5b505050506040513d601f19601f820116820180604052508101906114a0919061243b565b600254604051636d9077cb60e01b81526001600160a01b038a8116600483015292935060009290911690636d9077cb90602401602060405180830381865afa1580156114f0573d6000803e3d6000fd5b505050506040513d601f19601f82011682018060405250810190611514919061243b565b905060006115336127106107ac6007548a611b0090919063ffffffff16565b905061153f8782611af4565b965061155561154e8989611ed2565b8490611b18565b925060005b858110156115c2576115726127106107ac8a8a611b00565b975061158f6127106107ac6007548b611b0090919063ffffffff16565b91506115ae6115a78a6115a28b86611af4565b611ed2565b8590611b18565b93506115bb6001826125cd565b905061155a565b508282106115d6576000935050505061176f565b60006115e28484611af4565b60065460055460405163b3596f0760e01b81526001600160a01b03918216600482015292935060009291169063b3596f0790602401602060405180830381865afa158015611634573d6000803e3d6000fd5b505050506040513d601f19601f82011682018060405250810190611658919061243b565b600654600554604051630495f95f60e51b81526001600160a01b0391821660048201529293506000929116906392bf2be090602401602060405180830381865afa1580156116aa573d6000803e3d6000fd5b505050506040513d601f19601f820116820180604052508101906116ce9190612464565b6001600160a01b031663313ce5676040518163ffffffff1660e01b8152600401602060405180830381865afa15801561170b573d6000803e3d6000fd5b505050506040513d601f19601f8201168201806040525081019061172f9190612492565b9050600061174b6305f5e1006107ac858161079487600a6125a7565b90506117606107c760646107ac846006611b00565b975061176f9650505050505050565b95945050505050565b6000336001600160a01b038316148061179b57506001546001600160a01b031633145b6117e75760405162461bcd60e51b815260206004820152601660248201527f21626f72726f7765727c7c6c656e64696e67706f6f6c0000000000000000000060448201526064016101df565b82156113f55760015460055460405163a415bcad60e01b81526001600160a01b0391821660048201526024810186905260026044820152600060648201819052858316608483015292919091169063a415bcad9060a401600060405180830381600087803b15801561185857600080fd5b505af115801561186c573d6000803e3d6000fd5b5050600554600354604051636eb1769f60e11b81523060048201526001600160a01b0391821660248201529116925063dd62ed3e9150604401602060405180830381865afa1580156118c2573d6000803e3d6000fd5b505050506040513d601f19601f820116820180604052508101906118e6919061243b565b61190957600354600554611909916001600160a01b039182169116600019611c29565b6003546040517fd47808850000000000000000000000000000000000000000000000000000000081526000600482018190526024820187905260448201526001600160a01b0385811660648301529091169063d4780885906084016020604051808303816000875af1158015611983573d6000803e3d6000fd5b505050506040513d601f19601f820116820180604052508101906119a7919061243b565b949350505050565b6119b7611d5e565b6001600160a01b038116611a0d5760405162461bcd60e51b815260206004820152601560248201527f747265617375727920697320302061646472657373000000000000000000000060448201526064016101df565b6008805473ffffffffffffffffffffffffffffffffffffffff19166001600160a01b0383169081179091556040517f7dae230f18360d76a040c81f050aa14eb9d6dc7901b20fc5d855e2a20fe814d190600090a250565b611a6c611d5e565b6001600160a01b038116611ae85760405162461bcd60e51b815260206004820152602660248201527f4f776e61626c653a206e6577206f776e657220697320746865207a65726f206160448201527f646472657373000000000000000000000000000000000000000000000000000060648201526084016101df565b611af181611db8565b50565b6000610dd682846125b6565b6000610dd682846127d5565b6000610dd682846127f4565b6000610dd682846125cd565b6040516001600160a01b0380851660248301528316604482015260648101829052611bd59085907f23b872dd00000000000000000000000000000000000000000000000000000000906084015b60408051601f198184030181529190526020810180517bffffffffffffffffffffffffffffffffffffffffffffffffffffffff167fffffffff00000000000000000000000000000000000000000000000000000000909316929092179091526120d2565b50505050565b6040516001600160a01b038316602482015260448101829052611c249084907fa9059cbb0000000000000000000000000000000000000000000000000000000090606401611b71565b505050565b801580611ca35750604051636eb1769f60e11b81523060048201526001600160a01b03838116602483015284169063dd62ed3e90604401602060405180830381865afa158015611c7d573d6000803e3d6000fd5b505050506040513d601f19601f82011682018060405250810190611ca1919061243b565b155b611d155760405162461bcd60e51b815260206004820152603660248201527f5361666545524332303a20617070726f76652066726f6d206e6f6e2d7a65726f60448201527f20746f206e6f6e2d7a65726f20616c6c6f77616e63650000000000000000000060648201526084016101df565b6040516001600160a01b038316602482015260448101829052611c249084907f095ea7b30000000000000000000000000000000000000000000000000000000090606401611b71565b6000546001600160a01b03163314610d4f5760405162461bcd60e51b815260206004820181905260248201527f4f776e61626c653a2063616c6c6572206973206e6f7420746865206f776e657260448201526064016101df565b600080546001600160a01b0383811673ffffffffffffffffffffffffffffffffffffffff19831681178455604051919092169283917f8be0079c531659141344cd1fd0a4f28419497f9722a3daafe3b4186f6b6457e09190a35050565b604080516000808252602082019092526001600160a01b038416908390604051611e3f9190612834565b60006040518083038185875af1925050503d8060008114611e7c576040519150601f19603f3d011682016040523d82523d6000602084013e611e81565b606091505b5050905080611c245760405162461bcd60e51b815260206004820152601360248201527f4554485f5452414e534645525f4641494c45440000000000000000000000000060448201526064016101df565b60065460405163b3596f0760e01b81526001600160a01b038481166004830152600092839291169063b3596f0790602401602060405180830381865afa158015611f20573d6000803e3d6000fd5b505050506040513d601f19601f82011682018060405250810190611f44919061243b565b90506000846001600160a01b031663313ce5676040518163ffffffff1660e01b8152600401602060405180830381865afa158015611f86573d6000803e3d6000fd5b505050506040513d601f19601f82011682018060405250810190611faa9190612492565b905060006120c8600260009054906101000a90046001600160a01b03166001600160a01b0316636a7e9f336040518163ffffffff1660e01b8152600401602060405180830381865afa158015612004573d6000803e3d6000fd5b505050506040513d601f19601f82011682018060405250810190612028919061243b565b600254604080517fd52874da00000000000000000000000000000000000000000000000000000000815290516107ac926001600160a01b03169163d52874da9160048083019260209291908290030181865afa15801561208c573d6000803e3d6000fd5b505050506040513d601f19601f820116820180604052508101906120b0919061243b565b6107a66120be87600a6125a7565b6107ac898c611b00565b9695505050505050565b6000612127826040518060400160405280602081526020017f5361666545524332303a206c6f772d6c6576656c2063616c6c206661696c6564815250856001600160a01b03166121b79092919063ffffffff16565b805190915015611c2457808060200190518101906121459190612850565b611c245760405162461bcd60e51b815260206004820152602a60248201527f5361666545524332303a204552433230206f7065726174696f6e20646964206e60448201527f6f7420737563636565640000000000000000000000000000000000000000000060648201526084016101df565b60606119a7848460008585600080866001600160a01b031685876040516121de9190612834565b60006040518083038185875af1925050503d806000811461221b576040519150601f19603f3d011682016040523d82523d6000602084013e612220565b606091505b50915091506122318783838761223c565b979650505050505050565b606083156122a85782516122a1576001600160a01b0385163b6122a15760405162461bcd60e51b815260206004820152601d60248201527f416464726573733a2063616c6c20746f206e6f6e2d636f6e747261637400000060448201526064016101df565b50816119a7565b6119a783838151156122bd5781518083602001fd5b8060405162461bcd60e51b81526004016101df919061286d565b6001600160a01b0381168114611af157600080fd5b6000602082840312156122fe57600080fd5b8135610dd6816122d7565b8015158114611af157600080fd5b60008060008060008060c0878903121561233057600080fd5b863561233b816122d7565b95506020870135945060408701359350606087013592506080870135915060a087013561236781612309565b809150509295509295509295565b60006020828403121561238757600080fd5b5035919050565b6000806000606084860312156123a357600080fd5b505081359360208301359350604090920135919050565b600080600080600060a086880312156123d257600080fd5b85356123dd816122d7565b945060208601356123ed816122d7565b94979496505050506040830135926060810135926080909101359150565b6000806040838503121561241e57600080fd5b823591506020830135612430816122d7565b809150509250929050565b60006020828403121561244d57600080fd5b5051919050565b805161245f816122d7565b919050565b60006020828403121561247657600080fd5b8151610dd6816122d7565b805160ff8116811461245f57600080fd5b6000602082840312156124a457600080fd5b610dd682612481565b634e487b7160e01b600052601160045260246000fd5b600181815b808511156124fe5781600019048211156124e4576124e46124ad565b808516156124f157918102915b93841c93908002906124c8565b509250929050565b600082612515575060016113f5565b81612522575060006113f5565b816001811461253857600281146125425761255e565b60019150506113f5565b60ff841115612553576125536124ad565b50506001821b6113f5565b5060208310610133831016604e8410600b8410161715612581575081810a6113f5565b61258b83836124c3565b806000190482111561259f5761259f6124ad565b029392505050565b6000610dd660ff841683612506565b6000828210156125c8576125c86124ad565b500390565b600082198211156125e0576125e06124ad565b500190565b604051610180810167ffffffffffffffff8111828210171561261757634e487b7160e01b600052604160045260246000fd5b60405290565b60006020828403121561262f57600080fd5b6040516020810181811067ffffffffffffffff8211171561266057634e487b7160e01b600052604160045260246000fd5b6040529151825250919050565b80516fffffffffffffffffffffffffffffffff8116811461245f57600080fd5b805164ffffffffff8116811461245f57600080fd5b600061018082840312156126b557600080fd5b6126bd6125e5565b6126c7848461261d565b81526126d56020840161266d565b60208201526126e66040840161266d565b60408201526126f76060840161266d565b60608201526127086080840161266d565b608082015261271960a0840161266d565b60a082015261272a60c0840161268d565b60c082015261273b60e08401612454565b60e082015261010061274e818501612454565b90820152610120612760848201612454565b90820152610140612772848201612454565b90820152610160612784848201612481565b908201529392505050565b6000602082840312156127a157600080fd5b610dd6838361261d565b634e487b7160e01b600052601260045260246000fd5b6000826127d0576127d06127ab565b500690565b60008160001904831182151516156127ef576127ef6124ad565b500290565b600082612803576128036127ab565b500490565b60005b8381101561282357818101518382015260200161280b565b83811115611bd55750506000910152565b60008251612846818460208701612808565b9190910192915050565b60006020828403121561286257600080fd5b8151610dd681612309565b602081526000825180602084015261288c816040850160208701612808565b601f01601f1916919091016040019291505056fea2646970667358221220fd057a08990995f41e48c5271d42da11247405fe78fbb4af98c06d1a761a0ee064736f6c634300080c00334e6f7420612076616c6964206164647265737300000000000000000000000000",
  "devdoc": {
    "author": "Radiant",
    "details": "All function calls are currently implemented without side effects",
    "kind": "dev",
    "methods": {
      "constructor": {
        "params": {
          "_aaveOracle": "address.",
          "_feePercent": "leveraging fee ratio.",
          "_lendingPool": "Address of lending pool.",
          "_lockZap": "address.",
          "_rewardEligibleDataProvider": "EligibilityProvider address.",
          "_treasury": "address.",
          "_weth": "WETH address."
        }
      },
      "getConfiguration(address)": {
        "details": "Returns the configuration of the reserve",
        "params": {
          "asset": "The address of the underlying asset of the reserve"
        },
        "returns": {
          "_0": "The configuration of the reserve*"
        }
      },
      "getVDebtToken(address)": {
        "details": "Returns variable debt token address of asset",
        "params": {
          "asset": "The address of the underlying asset of the reserve"
        },
        "returns": {
          "_0": "varaiableDebtToken address of the asset*"
        }
      },
      "loop(address,uint256,uint256,uint256,uint256,bool)": {
        "details": "Loop the deposit and borrow of an asset",
        "params": {
          "amount": "for the initial deposit",
          "asset": "for loop",
          "borrowRatio": "Ratio of tokens to borrow",
          "interestRateMode": "stable or variable borrow mode",
          "isBorrow": "true when the loop without deposit tokens*",
          "loopCount": "Repeat count for loop"
        }
      },
      "loopETH(uint256,uint256,uint256)": {
        "details": "Loop the deposit and borrow of ETH",
        "params": {
          "borrowRatio": "Ratio of tokens to borrow",
          "interestRateMode": "stable or variable borrow mode",
          "loopCount": "Repeat count for loop*"
        }
      },
      "ltv(address)": {
        "details": "Returns loan to value",
        "params": {
          "asset": "The address of the underlying asset of the reserve"
        },
        "returns": {
          "_0": "ltv of the asset*"
        }
      },
      "owner()": {
        "details": "Returns the address of the current owner."
      },
      "renounceOwnership()": {
        "details": "Leaves the contract without owner. It will not be possible to call `onlyOwner` functions anymore. Can only be called by the current owner. NOTE: Renouncing ownership will leave the contract without an owner, thereby removing any functionality that is only available to the owner."
      },
      "setFeePercent(uint256)": {
        "params": {
          "_feePercent": "fee ratio."
        }
      },
      "setTreasury(address)": {
        "params": {
          "_treasury": "address"
        }
      },
      "transferOwnership(address)": {
        "details": "Transfers ownership of the contract to a new account (`newOwner`). Can only be called by the current owner."
      },
      "wethToZap(address)": {
        "params": {
          "user": "for zap*"
        }
      },
      "wethToZapEstimation(address,address,uint256,uint256,uint256)": {
        "params": {
          "amount": "of `asset`",
          "asset": "src token",
          "borrowRatio": "Single ratio of borrow",
          "loopCount": "Repeat count for loop*",
          "user": "for zap"
        }
      },
      "zapWETHWithBorrow(uint256,address)": {
        "params": {
          "amount": "to zap",
          "borrower": "to zap"
        },
        "returns": {
          "liquidity": "amount by zapping*"
        }
      }
    },
    "title": "Leverager Contract",
    "version": 1
  },
  "userdoc": {
    "events": {
      "FeePercentUpdated(uint256)": {
        "notice": "Emitted when fee ratio is updated"
      },
      "TreasuryUpdated(address)": {
        "notice": "Emitted when treasury is updated"
      }
    },
    "kind": "user",
    "methods": {
      "API_ETH_MOCK_ADDRESS()": {
        "notice": "Mock ETH address"
      },
      "RATIO_DIVISOR()": {
        "notice": "Ratio Divisor"
      },
      "aaveOracle()": {
        "notice": "Aave oracle address"
      },
      "cic()": {
        "notice": "ChefIncentivesController contract address"
      },
      "constructor": {
        "notice": "Constructor"
      },
      "eligibilityDataProvider()": {
        "notice": "EligibilityDataProvider contract address"
      },
      "feePercent()": {
        "notice": "Fee ratio"
      },
      "lendingPool()": {
        "notice": "Lending Pool address"
      },
      "lockZap()": {
        "notice": "LockZap contract address"
      },
      "setFeePercent(uint256)": {
        "notice": "Sets fee ratio"
      },
      "setTreasury(address)": {
        "notice": "Sets fee ratio"
      },
      "treasury()": {
        "notice": "Treasury address"
      },
      "weth()": {
        "notice": "Wrapped ETH contract address"
      },
      "wethToZap(address)": {
        "notice": "Return estimated zap WETH amount for eligbility."
      },
      "wethToZapEstimation(address,address,uint256,uint256,uint256)": {
        "notice": "Return estimated zap WETH amount for eligbility after loop."
      },
      "zapWETHWithBorrow(uint256,address)": {
        "notice": "Zap WETH by borrowing."
      }
    },
    "version": 1
  },
  "storageLayout": {
    "storage": [
      {
        "astId": 7,
        "contract": "contracts/radiant/accessories/Leverager.sol:Leverager",
        "label": "_owner",
        "offset": 0,
        "slot": "0",
        "type": "t_address"
      },
      {
        "astId": 2241,
        "contract": "contracts/radiant/accessories/Leverager.sol:Leverager",
        "label": "lendingPool",
        "offset": 0,
        "slot": "1",
        "type": "t_contract(ILendingPool)1918"
      },
      {
        "astId": 2245,
        "contract": "contracts/radiant/accessories/Leverager.sol:Leverager",
        "label": "eligibilityDataProvider",
        "offset": 0,
        "slot": "2",
        "type": "t_contract(IEligibilityDataProvider)1528"
      },
      {
        "astId": 2249,
        "contract": "contracts/radiant/accessories/Leverager.sol:Leverager",
        "label": "lockZap",
        "offset": 0,
        "slot": "3",
        "type": "t_contract(ILockZap)2109"
      },
      {
        "astId": 2253,
        "contract": "contracts/radiant/accessories/Leverager.sol:Leverager",
        "label": "cic",
        "offset": 0,
        "slot": "4",
        "type": "t_contract(IChefIncentivesController)1431"
      },
      {
        "astId": 2257,
        "contract": "contracts/radiant/accessories/Leverager.sol:Leverager",
        "label": "weth",
        "offset": 0,
        "slot": "5",
        "type": "t_contract(IWETH)2165"
      },
      {
        "astId": 2261,
        "contract": "contracts/radiant/accessories/Leverager.sol:Leverager",
        "label": "aaveOracle",
        "offset": 0,
        "slot": "6",
        "type": "t_contract(IAaveOracle)1318"
      },
      {
        "astId": 2264,
        "contract": "contracts/radiant/accessories/Leverager.sol:Leverager",
        "label": "feePercent",
        "offset": 0,
        "slot": "7",
        "type": "t_uint256"
      },
      {
        "astId": 2267,
        "contract": "contracts/radiant/accessories/Leverager.sol:Leverager",
        "label": "treasury",
        "offset": 0,
        "slot": "8",
        "type": "t_address"
      }
    ],
    "types": {
      "t_address": {
        "encoding": "inplace",
        "label": "address",
        "numberOfBytes": "20"
      },
      "t_contract(IAaveOracle)1318": {
        "encoding": "inplace",
        "label": "contract IAaveOracle",
        "numberOfBytes": "20"
      },
      "t_contract(IChefIncentivesController)1431": {
        "encoding": "inplace",
        "label": "contract IChefIncentivesController",
        "numberOfBytes": "20"
      },
      "t_contract(IEligibilityDataProvider)1528": {
        "encoding": "inplace",
        "label": "contract IEligibilityDataProvider",
        "numberOfBytes": "20"
      },
      "t_contract(ILendingPool)1918": {
        "encoding": "inplace",
        "label": "contract ILendingPool",
        "numberOfBytes": "20"
      },
      "t_contract(ILockZap)2109": {
        "encoding": "inplace",
        "label": "contract ILockZap",
        "numberOfBytes": "20"
      },
      "t_contract(IWETH)2165": {
        "encoding": "inplace",
        "label": "contract IWETH",
        "numberOfBytes": "20"
      },
      "t_uint256": {
        "encoding": "inplace",
        "label": "uint256",
        "numberOfBytes": "32"
      }
    }
  }
}