{
  "address": "0x9fbb02A3f75353C21Ec06cfbE13f9d45054032d8",
  "abi": [
    {
      "anonymous": false,
      "inputs": [
        {
          "indexed": true,
          "internalType": "address",
          "name": "previousOwner",
          "type": "address"
        },
        {
          "indexed": true,
          "internalType": "address",
          "name": "newOwner",
          "type": "address"
        }
      ],
      "name": "OwnershipTransferred",
      "type": "event"
    },
    {
      "anonymous": false,
      "inputs": [
        {
          "indexed": false,
          "internalType": "address",
          "name": "account",
          "type": "address"
        }
      ],
      "name": "Paused",
      "type": "event"
    },
    {
      "anonymous": false,
      "inputs": [
        {
          "indexed": false,
          "internalType": "uint256",
          "name": "newRatio",
          "type": "uint256"
        }
      ],
      "name": "SlippageRatioChanged",
      "type": "event"
    },
    {
      "anonymous": false,
      "inputs": [
        {
          "indexed": false,
          "internalType": "address",
          "name": "account",
          "type": "address"
        }
      ],
      "name": "Unpaused",
      "type": "event"
    },
    {
      "anonymous": false,
      "inputs": [
        {
          "indexed": false,
          "internalType": "bool",
          "name": "_borrow",
          "type": "bool"
        },
        {
          "indexed": false,
          "internalType": "uint256",
          "name": "_ethAmt",
          "type": "uint256"
        },
        {
          "indexed": false,
          "internalType": "uint256",
          "name": "_rdntAmt",
          "type": "uint256"
        },
        {
          "indexed": true,
          "internalType": "address",
          "name": "_from",
          "type": "address"
        },
        {
          "indexed": true,
          "internalType": "address",
          "name": "_onBehalf",
          "type": "address"
        },
        {
          "indexed": false,
          "internalType": "uint256",
          "name": "_lockTypeIndex",
          "type": "uint256"
        }
      ],
      "name": "Zapped",
      "type": "event"
    },
    {
      "inputs": [],
      "name": "ACCEPTABLE_RATIO",
      "outputs": [
        {
          "internalType": "uint256",
          "name": "",
          "type": "uint256"
        }
      ],
      "stateMutability": "view",
      "type": "function"
    },
    {
      "inputs": [],
      "name": "RATIO_DIVISOR",
      "outputs": [
        {
          "internalType": "uint256",
          "name": "",
          "type": "uint256"
        }
      ],
      "stateMutability": "view",
      "type": "function"
    },
    {
      "inputs": [],
      "name": "ethLPRatio",
      "outputs": [
        {
          "internalType": "uint256",
          "name": "",
          "type": "uint256"
        }
      ],
      "stateMutability": "view",
      "type": "function"
    },
    {
      "inputs": [],
      "name": "ethOracle",
      "outputs": [
        {
          "internalType": "contract IChainlinkAggregator",
          "name": "",
          "type": "address"
        }
      ],
      "stateMutability": "view",
      "type": "function"
    },
    {
      "inputs": [],
      "name": "getPoolHelper",
      "outputs": [
        {
          "internalType": "address",
          "name": "",
          "type": "address"
        }
      ],
      "stateMutability": "view",
      "type": "function"
    },
    {
      "inputs": [
        {
          "internalType": "address",
          "name": "_asset",
          "type": "address"
        }
      ],
      "name": "getVDebtToken",
      "outputs": [
        {
          "internalType": "address",
          "name": "",
          "type": "address"
        }
      ],
      "stateMutability": "view",
      "type": "function"
    },
    {
      "inputs": [
        {
          "internalType": "contract IPoolHelper",
          "name": "_poolHelper",
          "type": "address"
        },
        {
          "internalType": "contract ILendingPool",
          "name": "_lendingPool",
          "type": "address"
        },
        {
          "internalType": "contract IWETH",
          "name": "_weth",
          "type": "address"
        },
        {
          "internalType": "address",
          "name": "_rdntAddr",
          "type": "address"
        },
        {
          "internalType": "uint256",
          "name": "_ethLPRatio",
          "type": "uint256"
        },
        {
          "internalType": "uint256",
          "name": "_ACCEPTABLE_RATIO",
          "type": "uint256"
        }
      ],
      "name": "initialize",
      "outputs": [],
      "stateMutability": "nonpayable",
      "type": "function"
    },
    {
      "inputs": [],
      "name": "lendingPool",
      "outputs": [
        {
          "internalType": "contract ILendingPool",
          "name": "",
          "type": "address"
        }
      ],
      "stateMutability": "view",
      "type": "function"
    },
    {
      "inputs": [],
      "name": "mfd",
      "outputs": [
        {
          "internalType": "contract IMultiFeeDistribution",
          "name": "",
          "type": "address"
        }
      ],
      "stateMutability": "view",
      "type": "function"
    },
    {
      "inputs": [],
      "name": "owner",
      "outputs": [
        {
          "internalType": "address",
          "name": "",
          "type": "address"
        }
      ],
      "stateMutability": "view",
      "type": "function"
    },
    {
      "inputs": [],
      "name": "pause",
      "outputs": [],
      "stateMutability": "nonpayable",
      "type": "function"
    },
    {
      "inputs": [],
      "name": "paused",
      "outputs": [
        {
          "internalType": "bool",
          "name": "",
          "type": "bool"
        }
      ],
      "stateMutability": "view",
      "type": "function"
    },
    {
      "inputs": [],
      "name": "poolHelper",
      "outputs": [
        {
          "internalType": "contract IPoolHelper",
          "name": "",
          "type": "address"
        }
      ],
      "stateMutability": "view",
      "type": "function"
    },
    {
      "inputs": [],
      "name": "priceProvider",
      "outputs": [
        {
          "internalType": "contract IPriceProvider",
          "name": "",
          "type": "address"
        }
      ],
      "stateMutability": "view",
      "type": "function"
    },
    {
      "inputs": [
        {
          "internalType": "uint256",
          "name": "_tokenAmount",
          "type": "uint256"
        }
      ],
      "name": "quoteFromToken",
      "outputs": [
        {
          "internalType": "uint256",
          "name": "optimalWETHAmount",
          "type": "uint256"
        }
      ],
      "stateMutability": "view",
      "type": "function"
    },
    {
      "inputs": [],
      "name": "rdntAddr",
      "outputs": [
        {
          "internalType": "address",
          "name": "",
          "type": "address"
        }
      ],
      "stateMutability": "view",
      "type": "function"
    },
    {
      "inputs": [],
      "name": "renounceOwnership",
      "outputs": [],
      "stateMutability": "nonpayable",
      "type": "function"
    },
    {
      "inputs": [
        {
          "internalType": "uint256",
          "name": "_newRatio",
          "type": "uint256"
        }
      ],
      "name": "setAcceptableRatio",
      "outputs": [],
      "stateMutability": "nonpayable",
      "type": "function"
    },
    {
      "inputs": [
        {
          "internalType": "address",
          "name": "_mfdAddr",
          "type": "address"
        }
      ],
      "name": "setMfd",
      "outputs": [],
      "stateMutability": "nonpayable",
      "type": "function"
    },
    {
      "inputs": [
        {
          "internalType": "address",
          "name": "_poolHelper",
          "type": "address"
        }
      ],
      "name": "setPoolHelper",
      "outputs": [],
      "stateMutability": "nonpayable",
      "type": "function"
    },
    {
      "inputs": [
        {
          "internalType": "address",
          "name": "_provider",
          "type": "address"
        }
      ],
      "name": "setPriceProvider",
      "outputs": [],
      "stateMutability": "nonpayable",
      "type": "function"
    },
    {
      "inputs": [
        {
          "internalType": "address",
          "name": "newOwner",
          "type": "address"
        }
      ],
      "name": "transferOwnership",
      "outputs": [],
      "stateMutability": "nonpayable",
      "type": "function"
    },
    {
      "inputs": [],
      "name": "unpause",
      "outputs": [],
      "stateMutability": "nonpayable",
      "type": "function"
    },
    {
      "inputs": [],
      "name": "weth",
      "outputs": [
        {
          "internalType": "contract IWETH",
          "name": "",
          "type": "address"
        }
      ],
      "stateMutability": "view",
      "type": "function"
    },
    {
      "inputs": [
        {
          "internalType": "bool",
          "name": "_borrow",
          "type": "bool"
        },
        {
          "internalType": "uint256",
          "name": "_wethAmt",
          "type": "uint256"
        },
        {
          "internalType": "uint256",
          "name": "_rdntAmt",
          "type": "uint256"
        },
        {
          "internalType": "uint256",
          "name": "_lockTypeIndex",
          "type": "uint256"
        }
      ],
      "name": "zap",
      "outputs": [
        {
          "internalType": "uint256",
          "name": "liquidity",
          "type": "uint256"
        }
      ],
      "stateMutability": "payable",
      "type": "function"
    },
    {
      "inputs": [
        {
          "internalType": "bool",
          "name": "_borrow",
          "type": "bool"
        },
        {
          "internalType": "uint256",
          "name": "_lockTypeIndex",
          "type": "uint256"
        }
      ],
      "name": "zapFromVesting",
      "outputs": [
        {
          "internalType": "uint256",
          "name": "liquidity",
          "type": "uint256"
        }
      ],
      "stateMutability": "payable",
      "type": "function"
    },
    {
      "inputs": [
        {
          "internalType": "bool",
          "name": "_borrow",
          "type": "bool"
        },
        {
          "internalType": "uint256",
          "name": "_wethAmt",
          "type": "uint256"
        },
        {
          "internalType": "uint256",
          "name": "_rdntAmt",
          "type": "uint256"
        },
        {
          "internalType": "address",
          "name": "_onBehalf",
          "type": "address"
        }
      ],
      "name": "zapOnBehalf",
      "outputs": [
        {
          "internalType": "uint256",
          "name": "liquidity",
          "type": "uint256"
        }
      ],
      "stateMutability": "payable",
      "type": "function"
    },
    {
      "stateMutability": "payable",
      "type": "receive"
    }
  ],
  "transactionHash": "0xc2faded1ee46bc00d6a583583b50b93ed2a5e2989de984d3b5c918dd1fa2502b",
  "args": [],
  "numDeployments": 1,
  "solcInputHash": "094d60ea4daeda0239ef4cd77806f7ac",
  "bytecode": "0x608060405234801561001057600080fd5b506129be806100206000396000f3fe6080604052600436106101b05760003560e01c80638456cb59116100ec578063b50bf85c1161008a578063d478088511610064578063d47808851461046f578063d7c41c7914610482578063f2fde38b146104a2578063fd706062146104c257600080fd5b8063b50bf85c1461041b578063b888879e14610439578063bf2d2aa71461045957600080fd5b806391542085116100c657806391542085146103a85780639c8762e1146103bb578063a59a9973146103db578063b0c634ee146103fb57600080fd5b80638456cb59146103555780638da5cb5b1461036a578063914237da1461038857600080fd5b806355ac8d301161015957806367dbf15d1161013357806367dbf15d146102f45780636a7e9f33146103145780636ac3ac8f1461032a578063715018a61461034057600080fd5b806355ac8d30146102915780635c975abb146102b1578063667f3745146102d457600080fd5b80633b5d54171161018a5780633b5d54171461021e5780633f4ba83a146102445780633fc8cef31461025957600080fd5b80632cd35475146101bc57806337279ffd146101de578063372aa224146101fe57600080fd5b366101b757005b600080fd5b3480156101c857600080fd5b506101dc6101d73660046123dd565b6104e2565b005b3480156101ea57600080fd5b506101dc6101f93660046123fa565b6105b9565b34801561020a57600080fd5b506101dc6102193660046123dd565b6106a0565b61023161022c366004612421565b610809565b6040519081526020015b60405180910390f35b34801561025057600080fd5b506101dc61082d565b34801561026557600080fd5b5060ca54610279906001600160a01b031681565b6040516001600160a01b03909116815260200161023b565b34801561029d57600080fd5b5060ce54610279906001600160a01b031681565b3480156102bd57600080fd5b5060975460ff16604051901515815260200161023b565b3480156102e057600080fd5b506102796102ef3660046123dd565b610891565b34801561030057600080fd5b506101dc61030f3660046123dd565b610929565b34801561032057600080fd5b5061023161271081565b34801561033657600080fd5b5061023160d15481565b34801561034c57600080fd5b506101dc6109fb565b34801561036157600080fd5b506101dc610a5f565b34801561037657600080fd5b506065546001600160a01b0316610279565b34801561039457600080fd5b5060cb54610279906001600160a01b031681565b6102316103b636600461245c565b610ac1565b3480156103c757600080fd5b5060d054610279906001600160a01b031681565b3480156103e757600080fd5b5060cd54610279906001600160a01b031681565b34801561040757600080fd5b5060cc54610279906001600160a01b031681565b34801561042757600080fd5b5060ce546001600160a01b0316610279565b34801561044557600080fd5b5060cf54610279906001600160a01b031681565b34801561046557600080fd5b5061023160c95481565b61023161047d366004612488565b610b7c565b34801561048e57600080fd5b506101dc61049d3660046124d2565b610c29565b3480156104ae57600080fd5b506101dc6104bd3660046123dd565b610f14565b3480156104ce57600080fd5b506102316104dd3660046123fa565b610ff6565b6065546001600160a01b031633146105415760405162461bcd60e51b815260206004820181905260248201527f4f776e61626c653a2063616c6c6572206973206e6f7420746865206f776e657260448201526064015b60405180910390fd5b6001600160a01b0381166105975760405162461bcd60e51b815260206004820152601d60248201527f506f6f6c48656c7065722063616e2774206265203020616464726573730000006044820152606401610538565b60ce80546001600160a01b0319166001600160a01b0392909216919091179055565b6065546001600160a01b031633146106135760405162461bcd60e51b815260206004820181905260248201527f4f776e61626c653a2063616c6c6572206973206e6f7420746865206f776e65726044820152606401610538565b6127108111156106655760405162461bcd60e51b815260206004820152600e60248201527f726174696f20746f6f20686967680000000000000000000000000000000000006044820152606401610538565b60c98190556040518181527faea049399e27d84e09176940b9f344bb0dee2fd872fd88eb48af592da118ba409060200160405180910390a150565b6065546001600160a01b031633146106fa5760405162461bcd60e51b815260206004820181905260248201527f4f776e61626c653a2063616c6c6572206973206e6f7420746865206f776e65726044820152606401610538565b6001600160a01b0381166107505760405162461bcd60e51b815260206004820181905260248201527f507269636550726f76696465722063616e2774206265203020616464726573736044820152606401610538565b60cf80546001600160a01b0319166001600160a01b038316908117909155604080517fcf811d2a000000000000000000000000000000000000000000000000000000008152905163cf811d2a916004808201926020929091908290030181865afa1580156107c2573d6000803e3d6000fd5b505050506040513d601f19601f820116820180604052508101906107e69190612550565b60d080546001600160a01b0319166001600160a01b039290921691909117905550565b600061081361107e565b610822858585333387336110d1565b90505b949350505050565b6065546001600160a01b031633146108875760405162461bcd60e51b815260206004820181905260248201527f4f776e61626c653a2063616c6c6572206973206e6f7420746865206f776e65726044820152606401610538565b61088f611760565b565b60cd546040517f35ea6a750000000000000000000000000000000000000000000000000000000081526001600160a01b03838116600483015260009283929116906335ea6a759060240161018060405180830381865afa1580156108f9573d6000803e3d6000fd5b505050506040513d601f19601f8201168201806040525081019061091d919061263b565b61012001519392505050565b6065546001600160a01b031633146109835760405162461bcd60e51b815260206004820181905260248201527f4f776e61626c653a2063616c6c6572206973206e6f7420746865206f776e65726044820152606401610538565b6001600160a01b0381166109d95760405162461bcd60e51b815260206004820152601660248201527f4d46442063616e277420626520302061646472657373000000000000000000006044820152606401610538565b60cc80546001600160a01b0319166001600160a01b0392909216919091179055565b6065546001600160a01b03163314610a555760405162461bcd60e51b815260206004820181905260248201527f4f776e61626c653a2063616c6c6572206973206e6f7420746865206f776e65726044820152606401610538565b61088f60006117b2565b6065546001600160a01b03163314610ab95760405162461bcd60e51b815260206004820181905260248201527f4f776e61626c653a2063616c6c6572206973206e6f7420746865206f776e65726044820152606401610538565b61088f611804565b6000610acb61107e565b60cc546040517f2843b0190000000000000000000000000000000000000000000000000000000081523360048201526000916001600160a01b031690632843b019906024016020604051808303816000875af1158015610b2f573d6000803e3d6000fd5b505050506040513d601f19601f82011682018060405250810190610b539190612728565b90506000610b6082610ff6565b9050610b71858284303389336110d1565b925050505b92915050565b6000610b8661107e565b60cc546040517f2e88caa10000000000000000000000000000000000000000000000000000000081526001600160a01b0384811660048301526000921690632e88caa190602401602060405180830381865afa158015610bea573d6000803e3d6000fd5b505050506040513d601f19601f82011682018060405250810190610c0e9190612728565b9050610c1f868686338786896110d1565b9695505050505050565b600054610100900460ff1680610c3e5750303b155b80610c4c575060005460ff16155b610cbe5760405162461bcd60e51b815260206004820152602e60248201527f436f6e747261637420696e7374616e63652068617320616c726561647920626560448201527f656e20696e697469616c697a65640000000000000000000000000000000000006064820152608401610538565b600054610100900460ff16158015610ce0576000805461ffff19166101011790555b6001600160a01b038716610d365760405162461bcd60e51b815260206004820152601d60248201527f506f6f6c48656c7065722063616e2774206265203020616464726573730000006044820152606401610538565b6001600160a01b038616610d8c5760405162461bcd60e51b815260206004820152601e60248201527f4c656e64696e67506f6f6c2063616e27742062652030206164647265737300006044820152606401610538565b6001600160a01b038516610de25760405162461bcd60e51b815260206004820152601760248201527f574554482063616e2774206265203020616464726573730000000000000000006044820152606401610538565b6001600160a01b038416610e385760405162461bcd60e51b815260206004820152601760248201527f52444e542063616e2774206265203020616464726573730000000000000000006044820152606401610538565b600083118015610e49575061271083105b610e955760405162461bcd60e51b815260206004820152601260248201527f496e76616c6964206574684c50526174696f00000000000000000000000000006044820152606401610538565b610e9d611841565b610ea56118b4565b60cd80546001600160a01b038089166001600160a01b03199283161790925560ce80548a841690831617905560ca805488841690831617905560cb80549287169290911691909117905560d183905560c98290558015610f0b576000805461ff00191690555b50505050505050565b6065546001600160a01b03163314610f6e5760405162461bcd60e51b815260206004820181905260248201527f4f776e61626c653a2063616c6c6572206973206e6f7420746865206f776e65726044820152606401610538565b6001600160a01b038116610fea5760405162461bcd60e51b815260206004820152602660248201527f4f776e61626c653a206e6577206f776e657220697320746865207a65726f206160448201527f64647265737300000000000000000000000000000000000000000000000000006064820152608401610538565b610ff3816117b2565b50565b60ce54604051637eb8303160e11b815260048101839052600091610b7691606191611078916064916001600160a01b03169063fd70606290602401602060405180830381865afa15801561104e573d6000803e3d6000fd5b505050506040513d601f19601f820116820180604052508101906110729190612728565b90611927565b9061193a565b60975460ff161561088f5760405162461bcd60e51b815260206004820152601060248201527f5061757361626c653a20706175736564000000000000000000000000000000006044820152606401610538565b6000861515806110e057503415155b61112c5760405162461bcd60e51b815260206004820152600c60248201527f45544820726571756972656400000000000000000000000000000000000000006044820152606401610538565b34156111f15787156111805760405162461bcd60e51b815260206004820152601660248201527f696e76616c6964207a61702045544820736f75726365000000000000000000006044820152606401610538565b34965060ca60009054906101000a90046001600160a01b03166001600160a01b031663d0e30db0886040518263ffffffff1660e01b81526004016000604051808303818588803b1580156111d357600080fd5b505af11580156111e7573d6000803e3d6000fd5b5050505050611282565b87156112055761120087611946565b611282565b60ca546040516323b872dd60e01b8152336004820152306024820152604481018990526001600160a01b03909116906323b872dd906064016020604051808303816000875af115801561125c573d6000803e3d6000fd5b505050506040513d601f19601f820116820180604052508101906112809190612741565b505b60ca5460ce5460405163095ea7b360e01b81526001600160a01b039182166004820152602481018a9052600092919091169063095ea7b3906044016020604051808303816000875af11580156112dc573d6000803e3d6000fd5b505050506040513d601f19601f820116820180604052508101906113009190612741565b5086156114b45760ce54604051637eb8303160e11b8152600481018990526001600160a01b039091169063fd70606290602401602060405180830381865afa158015611350573d6000803e3d6000fd5b505050506040513d601f19601f820116820180604052508101906113749190612728565b8810156113c35760405162461bcd60e51b815260206004820152601660248201527f4554482073656e74206973206e6f7420656e6f756768000000000000000000006044820152606401610538565b6001600160a01b03861630146113eb5760cb546113eb906001600160a01b031633308a611b59565b60ce5460cb54611408916001600160a01b03918216911689611bf7565b60ce546040517f753983d6000000000000000000000000000000000000000000000000000000008152600481018a9052602481018990526001600160a01b039091169063753983d6906044016020604051808303816000875af1158015611473573d6000803e3d6000fd5b505050506040513d601f19601f820116820180604052508101906114979190612728565b60d1549092506114ad906110788a612710611927565b9050611542565b60ce546040517fc829bfda000000000000000000000000000000000000000000000000000000008152600481018a90526001600160a01b039091169063c829bfda906024016020604051808303816000875af1158015611518573d6000803e3d6000fd5b505050506040513d601f19601f8201168201806040525081019061153c9190612728565b91508790505b60cf546001600160a01b0316156115b557600061155f8284611d31565b905060c9548110156115b35760405162461bcd60e51b815260206004820152601160248201527f746f6f206d75636820736c6970706167650000000000000000000000000000006044820152606401610538565b505b60cc5460ce54604080517f439e50160000000000000000000000000000000000000000000000000000000081529051611658936001600160a01b0390811693879391169163439e5016916004808201926020929091908290030181865afa158015611624573d6000803e3d6000fd5b505050506040513d601f19601f820116820180604052508101906116489190612550565b6001600160a01b03169190611bf7565b60cc546040517f6e9c931c000000000000000000000000000000000000000000000000000000008152600481018490526001600160a01b0387811660248301526044820187905290911690636e9c931c90606401600060405180830381600087803b1580156116c657600080fd5b505af11580156116da573d6000803e3d6000fd5b5050604080518c15158152602081018c90529081018a9052606081018790526001600160a01b038089169350891691507f185f471aee8e22c0f6772d9076b984cb8394859d474a9799c1421f440262d5819060800160405180910390a360cb5460ca54611754916001600160a01b03908116911685611ee1565b50979650505050505050565b611768612056565b6097805460ff191690557f5db9ee0a495bf2e6ff9c91a7834c1ba4fdd244a5e8aa4e537bd38aeae4b073aa335b6040516001600160a01b03909116815260200160405180910390a1565b606580546001600160a01b038381166001600160a01b0319831681179093556040519116919082907f8be0079c531659141344cd1fd0a4f28419497f9722a3daafe3b4186f6b6457e090600090a35050565b61180c61107e565b6097805460ff191660011790557f62e78cea01bee320cd4e420270b5ea74000d11b0c9f74754ebdbfc544b05a2586117953390565b600054610100900460ff166118ac5760405162461bcd60e51b815260206004820152602b60248201527f496e697469616c697a61626c653a20636f6e7472616374206973206e6f74206960448201526a6e697469616c697a696e6760a81b6064820152608401610538565b61088f6120a8565b600054610100900460ff1661191f5760405162461bcd60e51b815260206004820152602b60248201527f496e697469616c697a61626c653a20636f6e7472616374206973206e6f74206960448201526a6e697469616c697a696e6760a81b6064820152608401610538565b61088f61211c565b60006119338284612774565b9392505050565b60006119338284612793565b60cd546040517fbf92857c0000000000000000000000000000000000000000000000000000000081523360048201526000916001600160a01b03169063bf92857c9060240160c060405180830381865afa1580156119a8573d6000803e3d6000fd5b505050506040513d601f19601f820116820180604052508101906119cc91906127b5565b505050925050506000611a6860ca60009054906101000a90046001600160a01b03166001600160a01b031663313ce5676040518163ffffffff1660e01b8152600401602060405180830381865afa158015611a2b573d6000803e3d6000fd5b505050506040513d601f19601f82011682018060405250810190611a4f91906127ff565b611a5a90600a6128fe565b611078856305f5e100611927565b9050808211611ab95760405162461bcd60e51b815260206004820152601e60248201527f4e6f7420656e6f75676820617661696c61626c65426f72726f777345544800006044820152606401610538565b60cd5460ca546040517fa415bcad0000000000000000000000000000000000000000000000000000000081526001600160a01b039182166004820152602481018690526002604482015260006064820181905233608483015292919091169063a415bcad9060a401600060405180830381600087803b158015611b3b57600080fd5b505af1158015611b4f573d6000803e3d6000fd5b5050505050505050565b6040516001600160a01b0380851660248301528316604482015260648101829052611bf19085906323b872dd60e01b906084015b60408051601f198184030181529190526020810180517bffffffffffffffffffffffffffffffffffffffffffffffffffffffff167fffffffff0000000000000000000000000000000000000000000000000000000090931692909217909152612193565b50505050565b801580611c8a57506040517fdd62ed3e0000000000000000000000000000000000000000000000000000000081523060048201526001600160a01b03838116602483015284169063dd62ed3e90604401602060405180830381865afa158015611c64573d6000803e3d6000fd5b505050506040513d601f19601f82011682018060405250810190611c889190612728565b155b611cfc5760405162461bcd60e51b815260206004820152603660248201527f5361666545524332303a20617070726f76652066726f6d206e6f6e2d7a65726f60448201527f20746f206e6f6e2d7a65726f20616c6c6f77616e6365000000000000000000006064820152608401610538565b6040516001600160a01b038316602482015260448101829052611d2c90849063095ea7b360e01b90606401611b8d565b505050565b60cf54604080517fa2e6204500000000000000000000000000000000000000000000000000000000815290516000926001600160a01b03169163a2e62045916004808301928692919082900301818387803b158015611d8f57600080fd5b505af1158015611da3573d6000803e3d6000fd5b505050506000611e36670de0b6b3a764000061107860d060009054906101000a90046001600160a01b03166001600160a01b03166350d25bcd6040518163ffffffff1660e01b8152600401602060405180830381865afa158015611e0b573d6000803e3d6000fd5b505050506040513d601f19601f82011682018060405250810190611e2f9190612728565b8790611927565b9050600060cf60009054906101000a90046001600160a01b03166001600160a01b0316636e9a05c56040518163ffffffff1660e01b8152600401602060405180830381865afa158015611e8d573d6000803e3d6000fd5b505050506040513d601f19601f82011682018060405250810190611eb19190612728565b611ebb9085612774565b9050611ecd8261107883612710611927565b9250610b7183670de0b6b3a764000061193a565b6040516370a0823160e01b8152306004820152839083906000906001600160a01b038316906370a08231906024016020604051808303816000875af1158015611f2e573d6000803e3d6000fd5b505050506040513d601f19601f82011682018060405250810190611f529190612728565b90508015611fcf5760405163a9059cbb60e01b81526001600160a01b0385811660048301526024820183905283169063a9059cbb906044016020604051808303816000875af1158015611fa9573d6000803e3d6000fd5b505050506040513d601f19601f82011682018060405250810190611fcd9190612741565b505b6040516370a0823160e01b81523060048201526000906001600160a01b038516906370a0823190602401602060405180830381865afa158015612016573d6000803e3d6000fd5b505050506040513d601f19601f8201168201806040525081019061203a9190612728565b90508015610f0b57610f0b6001600160a01b0385168683612278565b60975460ff1661088f5760405162461bcd60e51b815260206004820152601460248201527f5061757361626c653a206e6f74207061757365640000000000000000000000006044820152606401610538565b600054610100900460ff166121135760405162461bcd60e51b815260206004820152602b60248201527f496e697469616c697a61626c653a20636f6e7472616374206973206e6f74206960448201526a6e697469616c697a696e6760a81b6064820152608401610538565b61088f336117b2565b600054610100900460ff166121875760405162461bcd60e51b815260206004820152602b60248201527f496e697469616c697a61626c653a20636f6e7472616374206973206e6f74206960448201526a6e697469616c697a696e6760a81b6064820152608401610538565b6097805460ff19169055565b60006121e8826040518060400160405280602081526020017f5361666545524332303a206c6f772d6c6576656c2063616c6c206661696c6564815250856001600160a01b03166122a89092919063ffffffff16565b805190915015611d2c57808060200190518101906122069190612741565b611d2c5760405162461bcd60e51b815260206004820152602a60248201527f5361666545524332303a204552433230206f7065726174696f6e20646964206e60448201527f6f742073756363656564000000000000000000000000000000000000000000006064820152608401610538565b6040516001600160a01b038316602482015260448101829052611d2c90849063a9059cbb60e01b90606401611b8d565b6060610825848460008585600080866001600160a01b031685876040516122cf9190612939565b60006040518083038185875af1925050503d806000811461230c576040519150601f19603f3d011682016040523d82523d6000602084013e612311565b606091505b50915091506123228783838761232d565b979650505050505050565b60608315612399578251612392576001600160a01b0385163b6123925760405162461bcd60e51b815260206004820152601d60248201527f416464726573733a2063616c6c20746f206e6f6e2d636f6e74726163740000006044820152606401610538565b5081610825565b61082583838151156123ae5781518083602001fd5b8060405162461bcd60e51b81526004016105389190612955565b6001600160a01b0381168114610ff357600080fd5b6000602082840312156123ef57600080fd5b8135611933816123c8565b60006020828403121561240c57600080fd5b5035919050565b8015158114610ff357600080fd5b6000806000806080858703121561243757600080fd5b843561244281612413565b966020860135965060408601359560600135945092505050565b6000806040838503121561246f57600080fd5b823561247a81612413565b946020939093013593505050565b6000806000806080858703121561249e57600080fd5b84356124a981612413565b9350602085013592506040850135915060608501356124c7816123c8565b939692955090935050565b60008060008060008060c087890312156124eb57600080fd5b86356124f6816123c8565b95506020870135612506816123c8565b94506040870135612516816123c8565b93506060870135612526816123c8565b9598949750929560808101359460a0909101359350915050565b805161254b816123c8565b919050565b60006020828403121561256257600080fd5b8151611933816123c8565b604051610180810167ffffffffffffffff8111828210171561259f57634e487b7160e01b600052604160045260246000fd5b60405290565b6000602082840312156125b757600080fd5b6040516020810181811067ffffffffffffffff821117156125e857634e487b7160e01b600052604160045260246000fd5b6040529151825250919050565b80516fffffffffffffffffffffffffffffffff8116811461254b57600080fd5b805164ffffffffff8116811461254b57600080fd5b805160ff8116811461254b57600080fd5b6000610180828403121561264e57600080fd5b61265661256d565b61266084846125a5565b815261266e602084016125f5565b602082015261267f604084016125f5565b6040820152612690606084016125f5565b60608201526126a1608084016125f5565b60808201526126b260a084016125f5565b60a08201526126c360c08401612615565b60c08201526126d460e08401612540565b60e08201526101006126e7818501612540565b908201526101206126f9848201612540565b9082015261014061270b848201612540565b9082015261016061271d84820161262a565b908201529392505050565b60006020828403121561273a57600080fd5b5051919050565b60006020828403121561275357600080fd5b815161193381612413565b634e487b7160e01b600052601160045260246000fd5b600081600019048311821515161561278e5761278e61275e565b500290565b6000826127b057634e487b7160e01b600052601260045260246000fd5b500490565b60008060008060008060c087890312156127ce57600080fd5b865195506020870151945060408701519350606087015192506080870151915060a087015190509295509295509295565b60006020828403121561281157600080fd5b6119338261262a565b600181815b8085111561285557816000190482111561283b5761283b61275e565b8085161561284857918102915b93841c939080029061281f565b509250929050565b60008261286c57506001610b76565b8161287957506000610b76565b816001811461288f5760028114612899576128b5565b6001915050610b76565b60ff8411156128aa576128aa61275e565b50506001821b610b76565b5060208310610133831016604e8410600b84101617156128d8575081810a610b76565b6128e2838361281a565b80600019048211156128f6576128f661275e565b029392505050565b600061193360ff84168361285d565b60005b83811015612928578181015183820152602001612910565b83811115611bf15750506000910152565b6000825161294b81846020870161290d565b9190910192915050565b602081526000825180602084015261297481604085016020870161290d565b601f01601f1916919091016040019291505056fea2646970667358221220090d36fe61b300efe37a7c4ec5aa9d0b973cd81846e5d504cd58ca882cf884b664736f6c634300080c0033",
  "devdoc": {
    "author": "Radiant",
    "details": "All function calls are currently implemented without side effects",
    "kind": "dev",
    "methods": {
      "getVDebtToken(address)": {
        "params": {
          "_asset": "underlying."
        }
      },
      "initialize(address,address,address,address,uint256,uint256)": {
        "params": {
          "_lendingPool": "Lending pool",
          "_poolHelper": "Pool helper address",
          "_rdntAddr": "RDNT token address",
          "_weth": "weth address"
        }
      },
      "paused()": {
        "details": "Returns true if the contract is paused, and false otherwise."
      },
      "quoteFromToken(uint256)": {
        "params": {
          "_tokenAmount": "amount of tokens."
        }
      },
      "setMfd(address)": {
        "params": {
          "_mfdAddr": "New contract address."
        }
      },
      "setPoolHelper(address)": {
        "params": {
          "_poolHelper": "New PoolHelper contract address."
        }
      },
      "setPriceProvider(address)": {
        "params": {
          "_provider": "Price provider contract address."
        }
      },
      "zap(bool,uint256,uint256,uint256)": {
        "params": {
          "_borrow": "option to borrow ETH",
          "_lockTypeIndex": "lock length index.",
          "_rdntAmt": "amount of RDNT.",
          "_wethAmt": "amount of weth."
        }
      },
      "zapFromVesting(bool,uint256)": {
        "params": {
          "_borrow": "option to borrow ETH",
          "_lockTypeIndex": "lock length index."
        }
      },
      "zapOnBehalf(bool,uint256,uint256,address)": {
        "details": "It will use default lock index",
        "params": {
          "_borrow": "option to borrow ETH",
          "_onBehalf": "user address to be zapped.",
          "_rdntAmt": "amount of RDNT.",
          "_wethAmt": "amount of weth."
        }
      }
    },
    "title": "Borrow gate via stargate",
    "version": 1
  },
  "userdoc": {
    "events": {
      "Zapped(bool,uint256,uint256,address,address,uint256)": {
        "notice": "Emitted when zap is done"
      }
    },
    "kind": "user",
    "methods": {
      "ACCEPTABLE_RATIO()": {
        "notice": "Acceptable ratio"
      },
      "RATIO_DIVISOR()": {
        "notice": "RAITO Divisor"
      },
      "ethOracle()": {
        "notice": "ETH oracle contract"
      },
      "getPoolHelper()": {
        "notice": "Returns pool helper address"
      },
      "getVDebtToken(address)": {
        "notice": "Get Variable debt token address"
      },
      "initialize(address,address,address,address,uint256,uint256)": {
        "notice": "Initializer"
      },
      "lendingPool()": {
        "notice": "Lending Pool contract"
      },
      "mfd()": {
        "notice": "Multi Fee distribution contract"
      },
      "poolHelper()": {
        "notice": "Pool helper contract"
      },
      "priceProvider()": {
        "notice": "Price provider contract"
      },
      "quoteFromToken(uint256)": {
        "notice": "Get quote from the pool"
      },
      "rdntAddr()": {
        "notice": "RDNT token address"
      },
      "setMfd(address)": {
        "notice": "Set Multi fee distribution contract."
      },
      "setPoolHelper(address)": {
        "notice": "Set Pool Helper contract"
      },
      "setPriceProvider(address)": {
        "notice": "Set Price Provider."
      },
      "weth()": {
        "notice": "Wrapped ETH"
      },
      "zap(bool,uint256,uint256,uint256)": {
        "notice": "Zap tokens to stake LP"
      },
      "zapFromVesting(bool,uint256)": {
        "notice": "Zap tokens from vesting"
      },
      "zapOnBehalf(bool,uint256,uint256,address)": {
        "notice": "Zap tokens to stake LP"
      }
    },
    "version": 1
  },
  "storageLayout": {
    "storage": [
      {
        "astId": 5086,
        "contract": "contracts/radiant/zap/LockZap.sol:LockZap",
        "label": "initialized",
        "offset": 0,
        "slot": "0",
        "type": "t_bool"
      },
      {
        "astId": 5089,
        "contract": "contracts/radiant/zap/LockZap.sol:LockZap",
        "label": "initializing",
        "offset": 1,
        "slot": "0",
        "type": "t_bool"
      },
      {
        "astId": 5156,
        "contract": "contracts/radiant/zap/LockZap.sol:LockZap",
        "label": "______gap",
        "offset": 0,
        "slot": "1",
        "type": "t_array(t_uint256)50_storage"
      },
      {
        "astId": 5079,
        "contract": "contracts/radiant/zap/LockZap.sol:LockZap",
        "label": "__gap",
        "offset": 0,
        "slot": "51",
        "type": "t_array(t_uint256)50_storage"
      },
      {
        "astId": 5167,
        "contract": "contracts/radiant/zap/LockZap.sol:LockZap",
        "label": "_owner",
        "offset": 0,
        "slot": "101",
        "type": "t_address"
      },
      {
        "astId": 5272,
        "contract": "contracts/radiant/zap/LockZap.sol:LockZap",
        "label": "__gap",
        "offset": 0,
        "slot": "102",
        "type": "t_array(t_uint256)49_storage"
      },
      {
        "astId": 5294,
        "contract": "contracts/radiant/zap/LockZap.sol:LockZap",
        "label": "_paused",
        "offset": 0,
        "slot": "151",
        "type": "t_bool"
      },
      {
        "astId": 5399,
        "contract": "contracts/radiant/zap/LockZap.sol:LockZap",
        "label": "__gap",
        "offset": 0,
        "slot": "152",
        "type": "t_array(t_uint256)49_storage"
      },
      {
        "astId": 12267,
        "contract": "contracts/radiant/zap/LockZap.sol:LockZap",
        "label": "ACCEPTABLE_RATIO",
        "offset": 0,
        "slot": "201",
        "type": "t_uint256"
      },
      {
        "astId": 12271,
        "contract": "contracts/radiant/zap/LockZap.sol:LockZap",
        "label": "weth",
        "offset": 0,
        "slot": "202",
        "type": "t_contract(IWETH)7391"
      },
      {
        "astId": 12274,
        "contract": "contracts/radiant/zap/LockZap.sol:LockZap",
        "label": "rdntAddr",
        "offset": 0,
        "slot": "203",
        "type": "t_address"
      },
      {
        "astId": 12278,
        "contract": "contracts/radiant/zap/LockZap.sol:LockZap",
        "label": "mfd",
        "offset": 0,
        "slot": "204",
        "type": "t_contract(IMultiFeeDistribution)7015"
      },
      {
        "astId": 12282,
        "contract": "contracts/radiant/zap/LockZap.sol:LockZap",
        "label": "lendingPool",
        "offset": 0,
        "slot": "205",
        "type": "t_contract(ILendingPool)6506"
      },
      {
        "astId": 12286,
        "contract": "contracts/radiant/zap/LockZap.sol:LockZap",
        "label": "poolHelper",
        "offset": 0,
        "slot": "206",
        "type": "t_contract(IPoolHelper)7109"
      },
      {
        "astId": 12290,
        "contract": "contracts/radiant/zap/LockZap.sol:LockZap",
        "label": "priceProvider",
        "offset": 0,
        "slot": "207",
        "type": "t_contract(IPriceProvider)7171"
      },
      {
        "astId": 12294,
        "contract": "contracts/radiant/zap/LockZap.sol:LockZap",
        "label": "ethOracle",
        "offset": 0,
        "slot": "208",
        "type": "t_contract(IChainlinkAggregator)5813"
      },
      {
        "astId": 12315,
        "contract": "contracts/radiant/zap/LockZap.sol:LockZap",
        "label": "ethLPRatio",
        "offset": 0,
        "slot": "209",
        "type": "t_uint256"
      }
    ],
    "types": {
      "t_address": {
        "encoding": "inplace",
        "label": "address",
        "numberOfBytes": "20"
      },
      "t_array(t_uint256)49_storage": {
        "base": "t_uint256",
        "encoding": "inplace",
        "label": "uint256[49]",
        "numberOfBytes": "1568"
      },
      "t_array(t_uint256)50_storage": {
        "base": "t_uint256",
        "encoding": "inplace",
        "label": "uint256[50]",
        "numberOfBytes": "1600"
      },
      "t_bool": {
        "encoding": "inplace",
        "label": "bool",
        "numberOfBytes": "1"
      },
      "t_contract(IChainlinkAggregator)5813": {
        "encoding": "inplace",
        "label": "contract IChainlinkAggregator",
        "numberOfBytes": "20"
      },
      "t_contract(ILendingPool)6506": {
        "encoding": "inplace",
        "label": "contract ILendingPool",
        "numberOfBytes": "20"
      },
      "t_contract(IMultiFeeDistribution)7015": {
        "encoding": "inplace",
        "label": "contract IMultiFeeDistribution",
        "numberOfBytes": "20"
      },
      "t_contract(IPoolHelper)7109": {
        "encoding": "inplace",
        "label": "contract IPoolHelper",
        "numberOfBytes": "20"
      },
      "t_contract(IPriceProvider)7171": {
        "encoding": "inplace",
        "label": "contract IPriceProvider",
        "numberOfBytes": "20"
      },
      "t_contract(IWETH)7391": {
        "encoding": "inplace",
        "label": "contract IWETH",
        "numberOfBytes": "20"
      },
      "t_uint256": {
        "encoding": "inplace",
        "label": "uint256",
        "numberOfBytes": "32"
      }
    }
  }
}