{
  "address": "0x24F59BeF68FDaf645dE4FFF2d4c06E174936B73A",
  "abi": [
    {
      "anonymous": false,
      "inputs": [
        {
          "indexed": true,
          "internalType": "address",
          "name": "user",
          "type": "address"
        },
        {
          "indexed": true,
          "internalType": "address",
          "name": "rewardToken",
          "type": "address"
        },
        {
          "indexed": false,
          "internalType": "uint256",
          "name": "reward",
          "type": "uint256"
        }
      ],
      "name": "IneligibleRewardRemoved",
      "type": "event"
    },
    {
      "anonymous": false,
      "inputs": [
        {
          "indexed": false,
          "internalType": "uint8",
          "name": "version",
          "type": "uint8"
        }
      ],
      "name": "Initialized",
      "type": "event"
    },
    {
      "anonymous": false,
      "inputs": [
        {
          "indexed": true,
          "internalType": "address",
          "name": "user",
          "type": "address"
        },
        {
          "indexed": false,
          "internalType": "uint256",
          "name": "amount",
          "type": "uint256"
        },
        {
          "indexed": false,
          "internalType": "uint256",
          "name": "lockedBalance",
          "type": "uint256"
        },
        {
          "indexed": false,
          "internalType": "bool",
          "name": "isLP",
          "type": "bool"
        }
      ],
      "name": "Locked",
      "type": "event"
    },
    {
      "anonymous": false,
      "inputs": [
        {
          "indexed": true,
          "internalType": "address",
          "name": "previousOwner",
          "type": "address"
        },
        {
          "indexed": true,
          "internalType": "address",
          "name": "newOwner",
          "type": "address"
        }
      ],
      "name": "OwnershipTransferred",
      "type": "event"
    },
    {
      "anonymous": false,
      "inputs": [
        {
          "indexed": false,
          "internalType": "address",
          "name": "account",
          "type": "address"
        }
      ],
      "name": "Paused",
      "type": "event"
    },
    {
      "anonymous": false,
      "inputs": [
        {
          "indexed": false,
          "internalType": "address",
          "name": "token",
          "type": "address"
        },
        {
          "indexed": false,
          "internalType": "uint256",
          "name": "amount",
          "type": "uint256"
        }
      ],
      "name": "Recovered",
      "type": "event"
    },
    {
      "anonymous": false,
      "inputs": [
        {
          "indexed": true,
          "internalType": "address",
          "name": "user",
          "type": "address"
        },
        {
          "indexed": false,
          "internalType": "uint256",
          "name": "amount",
          "type": "uint256"
        },
        {
          "indexed": false,
          "internalType": "uint256",
          "name": "lockIndex",
          "type": "uint256"
        }
      ],
      "name": "Relocked",
      "type": "event"
    },
    {
      "anonymous": false,
      "inputs": [
        {
          "indexed": true,
          "internalType": "address",
          "name": "user",
          "type": "address"
        },
        {
          "indexed": true,
          "internalType": "address",
          "name": "rewardToken",
          "type": "address"
        },
        {
          "indexed": false,
          "internalType": "uint256",
          "name": "reward",
          "type": "uint256"
        }
      ],
      "name": "RewardPaid",
      "type": "event"
    },
    {
      "anonymous": false,
      "inputs": [
        {
          "indexed": false,
          "internalType": "address",
          "name": "token",
          "type": "address"
        },
        {
          "indexed": false,
          "internalType": "uint256",
          "name": "newDuration",
          "type": "uint256"
        }
      ],
      "name": "RewardsDurationUpdated",
      "type": "event"
    },
    {
      "anonymous": false,
      "inputs": [
        {
          "indexed": false,
          "internalType": "address",
          "name": "account",
          "type": "address"
        }
      ],
      "name": "Unpaused",
      "type": "event"
    },
    {
      "anonymous": false,
      "inputs": [
        {
          "indexed": true,
          "internalType": "address",
          "name": "user",
          "type": "address"
        },
        {
          "indexed": false,
          "internalType": "uint256",
          "name": "receivedAmount",
          "type": "uint256"
        },
        {
          "indexed": false,
          "internalType": "uint256",
          "name": "lockedBalance",
          "type": "uint256"
        },
        {
          "indexed": false,
          "internalType": "uint256",
          "name": "penalty",
          "type": "uint256"
        },
        {
          "indexed": false,
          "internalType": "uint256",
          "name": "burn",
          "type": "uint256"
        },
        {
          "indexed": false,
          "internalType": "bool",
          "name": "isLP",
          "type": "bool"
        }
      ],
      "name": "Withdrawn",
      "type": "event"
    },
    {
      "inputs": [],
      "name": "DEFAULT_LOCK_INDEX",
      "outputs": [
        {
          "internalType": "uint256",
          "name": "",
          "type": "uint256"
        }
      ],
      "stateMutability": "view",
      "type": "function"
    },
    {
      "inputs": [],
      "name": "HALF",
      "outputs": [
        {
          "internalType": "uint256",
          "name": "",
          "type": "uint256"
        }
      ],
      "stateMutability": "view",
      "type": "function"
    },
    {
      "inputs": [],
      "name": "QUART",
      "outputs": [
        {
          "internalType": "uint256",
          "name": "",
          "type": "uint256"
        }
      ],
      "stateMutability": "view",
      "type": "function"
    },
    {
      "inputs": [],
      "name": "WHOLE",
      "outputs": [
        {
          "internalType": "uint256",
          "name": "",
          "type": "uint256"
        }
      ],
      "stateMutability": "view",
      "type": "function"
    },
    {
      "inputs": [
        {
          "internalType": "address",
          "name": "_rewardToken",
          "type": "address"
        }
      ],
      "name": "addReward",
      "outputs": [],
      "stateMutability": "nonpayable",
      "type": "function"
    },
    {
      "inputs": [
        {
          "internalType": "address",
          "name": "_rewardConverter",
          "type": "address"
        }
      ],
      "name": "addRewardConverter",
      "outputs": [],
      "stateMutability": "nonpayable",
      "type": "function"
    },
    {
      "inputs": [
        {
          "internalType": "address",
          "name": "",
          "type": "address"
        }
      ],
      "name": "autoRelockDisabled",
      "outputs": [
        {
          "internalType": "bool",
          "name": "",
          "type": "bool"
        }
      ],
      "stateMutability": "view",
      "type": "function"
    },
    {
      "inputs": [
        {
          "internalType": "address",
          "name": "",
          "type": "address"
        }
      ],
      "name": "autocompoundEnabled",
      "outputs": [
        {
          "internalType": "bool",
          "name": "",
          "type": "bool"
        }
      ],
      "stateMutability": "view",
      "type": "function"
    },
    {
      "inputs": [],
      "name": "bountyManager",
      "outputs": [
        {
          "internalType": "address",
          "name": "",
          "type": "address"
        }
      ],
      "stateMutability": "view",
      "type": "function"
    },
    {
      "inputs": [],
      "name": "burn",
      "outputs": [
        {
          "internalType": "uint256",
          "name": "",
          "type": "uint256"
        }
      ],
      "stateMutability": "view",
      "type": "function"
    },
    {
      "inputs": [
        {
          "internalType": "address",
          "name": "_user",
          "type": "address"
        },
        {
          "internalType": "bool",
          "name": "_execute",
          "type": "bool"
        }
      ],
      "name": "claimBounty",
      "outputs": [
        {
          "internalType": "bool",
          "name": "issueBaseBounty",
          "type": "bool"
        }
      ],
      "stateMutability": "nonpayable",
      "type": "function"
    },
    {
      "inputs": [
        {
          "internalType": "address",
          "name": "onBehalf",
          "type": "address"
        }
      ],
      "name": "claimFromConverter",
      "outputs": [],
      "stateMutability": "nonpayable",
      "type": "function"
    },
    {
      "inputs": [
        {
          "internalType": "address",
          "name": "account",
          "type": "address"
        }
      ],
      "name": "claimableRewards",
      "outputs": [
        {
          "components": [
            {
              "internalType": "address",
              "name": "token",
              "type": "address"
            },
            {
              "internalType": "uint256",
              "name": "amount",
              "type": "uint256"
            }
          ],
          "internalType": "struct IFeeDistribution.RewardData[]",
          "name": "rewardsData",
          "type": "tuple[]"
        }
      ],
      "stateMutability": "view",
      "type": "function"
    },
    {
      "inputs": [],
      "name": "daoTreasury",
      "outputs": [
        {
          "internalType": "address",
          "name": "",
          "type": "address"
        }
      ],
      "stateMutability": "view",
      "type": "function"
    },
    {
      "inputs": [],
      "name": "defaultLockDuration",
      "outputs": [
        {
          "internalType": "uint256",
          "name": "",
          "type": "uint256"
        }
      ],
      "stateMutability": "view",
      "type": "function"
    },
    {
      "inputs": [
        {
          "internalType": "address",
          "name": "",
          "type": "address"
        }
      ],
      "name": "defaultLockIndex",
      "outputs": [
        {
          "internalType": "uint256",
          "name": "",
          "type": "uint256"
        }
      ],
      "stateMutability": "view",
      "type": "function"
    },
    {
      "inputs": [
        {
          "internalType": "address",
          "name": "user",
          "type": "address"
        }
      ],
      "name": "earnedBalances",
      "outputs": [
        {
          "internalType": "uint256",
          "name": "total",
          "type": "uint256"
        },
        {
          "internalType": "uint256",
          "name": "unlocked",
          "type": "uint256"
        },
        {
          "components": [
            {
              "internalType": "uint256",
              "name": "amount",
              "type": "uint256"
            },
            {
              "internalType": "uint256",
              "name": "unlockTime",
              "type": "uint256"
            },
            {
              "internalType": "uint256",
              "name": "penalty",
              "type": "uint256"
            }
          ],
          "internalType": "struct EarnedBalance[]",
          "name": "earningsData",
          "type": "tuple[]"
        }
      ],
      "stateMutability": "view",
      "type": "function"
    },
    {
      "inputs": [
        {
          "internalType": "bool",
          "name": "claimRewards",
          "type": "bool"
        }
      ],
      "name": "exit",
      "outputs": [],
      "stateMutability": "nonpayable",
      "type": "function"
    },
    {
      "inputs": [],
      "name": "getAllRewards",
      "outputs": [],
      "stateMutability": "nonpayable",
      "type": "function"
    },
    {
      "inputs": [],
      "name": "getLockDurations",
      "outputs": [
        {
          "internalType": "uint256[]",
          "name": "",
          "type": "uint256[]"
        }
      ],
      "stateMutability": "view",
      "type": "function"
    },
    {
      "inputs": [],
      "name": "getLockMultipliers",
      "outputs": [
        {
          "internalType": "uint256[]",
          "name": "",
          "type": "uint256[]"
        }
      ],
      "stateMutability": "view",
      "type": "function"
    },
    {
      "inputs": [],
      "name": "getPriceProvider",
      "outputs": [
        {
          "internalType": "address",
          "name": "",
          "type": "address"
        }
      ],
      "stateMutability": "view",
      "type": "function"
    },
    {
      "inputs": [
        {
          "internalType": "address[]",
          "name": "_rewardTokens",
          "type": "address[]"
        }
      ],
      "name": "getReward",
      "outputs": [],
      "stateMutability": "nonpayable",
      "type": "function"
    },
    {
      "inputs": [
        {
          "internalType": "address",
          "name": "_rewardToken",
          "type": "address"
        }
      ],
      "name": "getRewardForDuration",
      "outputs": [
        {
          "internalType": "uint256",
          "name": "",
          "type": "uint256"
        }
      ],
      "stateMutability": "view",
      "type": "function"
    },
    {
      "inputs": [],
      "name": "incentivesController",
      "outputs": [
        {
          "internalType": "contract IChefIncentivesController",
          "name": "",
          "type": "address"
        }
      ],
      "stateMutability": "view",
      "type": "function"
    },
    {
      "inputs": [
        {
          "internalType": "bool",
          "name": "claimRewards",
          "type": "bool"
        },
        {
          "internalType": "uint256",
          "name": "unlockTime",
          "type": "uint256"
        }
      ],
      "name": "individualEarlyExit",
      "outputs": [],
      "stateMutability": "nonpayable",
      "type": "function"
    },
    {
      "inputs": [
        {
          "internalType": "address",
          "name": "_rdntToken",
          "type": "address"
        },
        {
          "internalType": "address",
          "name": "_lockZap",
          "type": "address"
        },
        {
          "internalType": "address",
          "name": "_dao",
          "type": "address"
        },
        {
          "internalType": "address",
          "name": "_userlist",
          "type": "address"
        },
        {
          "internalType": "address",
          "name": "priceProvider",
          "type": "address"
        },
        {
          "internalType": "uint256",
          "name": "_rewardsDuration",
          "type": "uint256"
        },
        {
          "internalType": "uint256",
          "name": "_rewardsLookback",
          "type": "uint256"
        },
        {
          "internalType": "uint256",
          "name": "_lockDuration",
          "type": "uint256"
        },
        {
          "internalType": "uint256",
          "name": "_burnRatio",
          "type": "uint256"
        },
        {
          "internalType": "uint256",
          "name": "_vestDuration",
          "type": "uint256"
        }
      ],
      "name": "initialize",
      "outputs": [],
      "stateMutability": "nonpayable",
      "type": "function"
    },
    {
      "inputs": [
        {
          "internalType": "address",
          "name": "",
          "type": "address"
        }
      ],
      "name": "lastAutocompound",
      "outputs": [
        {
          "internalType": "uint256",
          "name": "",
          "type": "uint256"
        }
      ],
      "stateMutability": "view",
      "type": "function"
    },
    {
      "inputs": [
        {
          "internalType": "address",
          "name": "",
          "type": "address"
        }
      ],
      "name": "lastClaimTime",
      "outputs": [
        {
          "internalType": "uint256",
          "name": "",
          "type": "uint256"
        }
      ],
      "stateMutability": "view",
      "type": "function"
    },
    {
      "inputs": [
        {
          "internalType": "address",
          "name": "_rewardToken",
          "type": "address"
        }
      ],
      "name": "lastTimeRewardApplicable",
      "outputs": [
        {
          "internalType": "uint256",
          "name": "",
          "type": "uint256"
        }
      ],
      "stateMutability": "view",
      "type": "function"
    },
    {
      "inputs": [
        {
          "internalType": "address",
          "name": "user",
          "type": "address"
        }
      ],
      "name": "lockInfo",
      "outputs": [
        {
          "components": [
            {
              "internalType": "uint256",
              "name": "amount",
              "type": "uint256"
            },
            {
              "internalType": "uint256",
              "name": "unlockTime",
              "type": "uint256"
            },
            {
              "internalType": "uint256",
              "name": "multiplier",
              "type": "uint256"
            },
            {
              "internalType": "uint256",
              "name": "duration",
              "type": "uint256"
            }
          ],
          "internalType": "struct LockedBalance[]",
          "name": "",
          "type": "tuple[]"
        }
      ],
      "stateMutability": "view",
      "type": "function"
    },
    {
      "inputs": [
        {
          "internalType": "address",
          "name": "user",
          "type": "address"
        }
      ],
      "name": "lockedBalances",
      "outputs": [
        {
          "internalType": "uint256",
          "name": "total",
          "type": "uint256"
        },
        {
          "internalType": "uint256",
          "name": "unlockable",
          "type": "uint256"
        },
        {
          "internalType": "uint256",
          "name": "locked",
          "type": "uint256"
        },
        {
          "internalType": "uint256",
          "name": "lockedWithMultiplier",
          "type": "uint256"
        },
        {
          "components": [
            {
              "internalType": "uint256",
              "name": "amount",
              "type": "uint256"
            },
            {
              "internalType": "uint256",
              "name": "unlockTime",
              "type": "uint256"
            },
            {
              "internalType": "uint256",
              "name": "multiplier",
              "type": "uint256"
            },
            {
              "internalType": "uint256",
              "name": "duration",
              "type": "uint256"
            }
          ],
          "internalType": "struct LockedBalance[]",
          "name": "lockData",
          "type": "tuple[]"
        }
      ],
      "stateMutability": "view",
      "type": "function"
    },
    {
      "inputs": [],
      "name": "lockedSupply",
      "outputs": [
        {
          "internalType": "uint256",
          "name": "",
          "type": "uint256"
        }
      ],
      "stateMutability": "view",
      "type": "function"
    },
    {
      "inputs": [],
      "name": "lockedSupplyWithMultiplier",
      "outputs": [
        {
          "internalType": "uint256",
          "name": "",
          "type": "uint256"
        }
      ],
      "stateMutability": "view",
      "type": "function"
    },
    {
      "inputs": [],
      "name": "middleFeeDistribution",
      "outputs": [
        {
          "internalType": "contract IMiddleFeeDistribution",
          "name": "",
          "type": "address"
        }
      ],
      "stateMutability": "view",
      "type": "function"
    },
    {
      "inputs": [
        {
          "internalType": "address",
          "name": "user",
          "type": "address"
        },
        {
          "internalType": "uint256",
          "name": "amount",
          "type": "uint256"
        },
        {
          "internalType": "bool",
          "name": "withPenalty",
          "type": "bool"
        }
      ],
      "name": "mint",
      "outputs": [],
      "stateMutability": "nonpayable",
      "type": "function"
    },
    {
      "inputs": [
        {
          "internalType": "address",
          "name": "",
          "type": "address"
        }
      ],
      "name": "minters",
      "outputs": [
        {
          "internalType": "bool",
          "name": "",
          "type": "bool"
        }
      ],
      "stateMutability": "view",
      "type": "function"
    },
    {
      "inputs": [],
      "name": "mintersAreSet",
      "outputs": [
        {
          "internalType": "bool",
          "name": "",
          "type": "bool"
        }
      ],
      "stateMutability": "view",
      "type": "function"
    },
    {
      "inputs": [],
      "name": "onUpgrade",
      "outputs": [],
      "stateMutability": "nonpayable",
      "type": "function"
    },
    {
      "inputs": [],
      "name": "owner",
      "outputs": [
        {
          "internalType": "address",
          "name": "",
          "type": "address"
        }
      ],
      "stateMutability": "view",
      "type": "function"
    },
    {
      "inputs": [],
      "name": "pause",
      "outputs": [],
      "stateMutability": "nonpayable",
      "type": "function"
    },
    {
      "inputs": [],
      "name": "paused",
      "outputs": [
        {
          "internalType": "bool",
          "name": "",
          "type": "bool"
        }
      ],
      "stateMutability": "view",
      "type": "function"
    },
    {
      "inputs": [],
      "name": "rdntToken",
      "outputs": [
        {
          "internalType": "contract IMintableToken",
          "name": "",
          "type": "address"
        }
      ],
      "stateMutability": "view",
      "type": "function"
    },
    {
      "inputs": [
        {
          "internalType": "address",
          "name": "tokenAddress",
          "type": "address"
        },
        {
          "internalType": "uint256",
          "name": "tokenAmount",
          "type": "uint256"
        }
      ],
      "name": "recoverERC20",
      "outputs": [],
      "stateMutability": "nonpayable",
      "type": "function"
    },
    {
      "inputs": [],
      "name": "relock",
      "outputs": [],
      "stateMutability": "nonpayable",
      "type": "function"
    },
    {
      "inputs": [],
      "name": "renounceOwnership",
      "outputs": [],
      "stateMutability": "nonpayable",
      "type": "function"
    },
    {
      "inputs": [],
      "name": "requalify",
      "outputs": [],
      "stateMutability": "nonpayable",
      "type": "function"
    },
    {
      "inputs": [
        {
          "internalType": "address",
          "name": "_user",
          "type": "address"
        }
      ],
      "name": "requalifyFor",
      "outputs": [],
      "stateMutability": "nonpayable",
      "type": "function"
    },
    {
      "inputs": [],
      "name": "rewardConverter",
      "outputs": [
        {
          "internalType": "address",
          "name": "",
          "type": "address"
        }
      ],
      "stateMutability": "view",
      "type": "function"
    },
    {
      "inputs": [
        {
          "internalType": "address",
          "name": "",
          "type": "address"
        }
      ],
      "name": "rewardData",
      "outputs": [
        {
          "internalType": "uint256",
          "name": "periodFinish",
          "type": "uint256"
        },
        {
          "internalType": "uint256",
          "name": "rewardPerSecond",
          "type": "uint256"
        },
        {
          "internalType": "uint256",
          "name": "lastUpdateTime",
          "type": "uint256"
        },
        {
          "internalType": "uint256",
          "name": "rewardPerTokenStored",
          "type": "uint256"
        },
        {
          "internalType": "uint256",
          "name": "balance",
          "type": "uint256"
        }
      ],
      "stateMutability": "view",
      "type": "function"
    },
    {
      "inputs": [
        {
          "internalType": "address",
          "name": "_rewardToken",
          "type": "address"
        }
      ],
      "name": "rewardPerToken",
      "outputs": [
        {
          "internalType": "uint256",
          "name": "rptStored",
          "type": "uint256"
        }
      ],
      "stateMutability": "view",
      "type": "function"
    },
    {
      "inputs": [
        {
          "internalType": "uint256",
          "name": "",
          "type": "uint256"
        }
      ],
      "name": "rewardTokens",
      "outputs": [
        {
          "internalType": "address",
          "name": "",
          "type": "address"
        }
      ],
      "stateMutability": "view",
      "type": "function"
    },
    {
      "inputs": [
        {
          "internalType": "address",
          "name": "",
          "type": "address"
        },
        {
          "internalType": "address",
          "name": "",
          "type": "address"
        }
      ],
      "name": "rewards",
      "outputs": [
        {
          "internalType": "uint256",
          "name": "",
          "type": "uint256"
        }
      ],
      "stateMutability": "view",
      "type": "function"
    },
    {
      "inputs": [],
      "name": "rewardsDuration",
      "outputs": [
        {
          "internalType": "uint256",
          "name": "",
          "type": "uint256"
        }
      ],
      "stateMutability": "view",
      "type": "function"
    },
    {
      "inputs": [],
      "name": "rewardsLookback",
      "outputs": [
        {
          "internalType": "uint256",
          "name": "",
          "type": "uint256"
        }
      ],
      "stateMutability": "view",
      "type": "function"
    },
    {
      "inputs": [
        {
          "internalType": "contract IChefIncentivesController",
          "name": "_controller",
          "type": "address"
        },
        {
          "internalType": "contract IMiddleFeeDistribution",
          "name": "_middleFeeDistribution",
          "type": "address"
        },
        {
          "internalType": "address",
          "name": "_treasury",
          "type": "address"
        }
      ],
      "name": "setAddresses",
      "outputs": [],
      "stateMutability": "nonpayable",
      "type": "function"
    },
    {
      "inputs": [
        {
          "internalType": "bool",
          "name": "_status",
          "type": "bool"
        }
      ],
      "name": "setAutocompound",
      "outputs": [],
      "stateMutability": "nonpayable",
      "type": "function"
    },
    {
      "inputs": [
        {
          "internalType": "address",
          "name": "_bounty",
          "type": "address"
        }
      ],
      "name": "setBountyManager",
      "outputs": [],
      "stateMutability": "nonpayable",
      "type": "function"
    },
    {
      "inputs": [
        {
          "internalType": "uint256",
          "name": "_index",
          "type": "uint256"
        }
      ],
      "name": "setDefaultRelockTypeIndex",
      "outputs": [],
      "stateMutability": "nonpayable",
      "type": "function"
    },
    {
      "inputs": [
        {
          "internalType": "address",
          "name": "_stakingToken",
          "type": "address"
        }
      ],
      "name": "setLPToken",
      "outputs": [],
      "stateMutability": "nonpayable",
      "type": "function"
    },
    {
      "inputs": [
        {
          "internalType": "uint256[]",
          "name": "_lockPeriod",
          "type": "uint256[]"
        },
        {
          "internalType": "uint256[]",
          "name": "_rewardMultipliers",
          "type": "uint256[]"
        }
      ],
      "name": "setLockTypeInfo",
      "outputs": [],
      "stateMutability": "nonpayable",
      "type": "function"
    },
    {
      "inputs": [
        {
          "internalType": "uint256",
          "name": "_lookback",
          "type": "uint256"
        }
      ],
      "name": "setLookback",
      "outputs": [],
      "stateMutability": "nonpayable",
      "type": "function"
    },
    {
      "inputs": [
        {
          "internalType": "address[]",
          "name": "_minters",
          "type": "address[]"
        }
      ],
      "name": "setMinters",
      "outputs": [],
      "stateMutability": "nonpayable",
      "type": "function"
    },
    {
      "inputs": [
        {
          "internalType": "bool",
          "name": "_status",
          "type": "bool"
        }
      ],
      "name": "setRelock",
      "outputs": [],
      "stateMutability": "nonpayable",
      "type": "function"
    },
    {
      "inputs": [
        {
          "internalType": "uint256",
          "name": "amount",
          "type": "uint256"
        },
        {
          "internalType": "address",
          "name": "onBehalfOf",
          "type": "address"
        },
        {
          "internalType": "uint256",
          "name": "typeIndex",
          "type": "uint256"
        }
      ],
      "name": "stake",
      "outputs": [],
      "stateMutability": "nonpayable",
      "type": "function"
    },
    {
      "inputs": [],
      "name": "stakingToken",
      "outputs": [
        {
          "internalType": "address",
          "name": "",
          "type": "address"
        }
      ],
      "stateMutability": "view",
      "type": "function"
    },
    {
      "inputs": [],
      "name": "startfleetTreasury",
      "outputs": [
        {
          "internalType": "address",
          "name": "",
          "type": "address"
        }
      ],
      "stateMutability": "view",
      "type": "function"
    },
    {
      "inputs": [
        {
          "internalType": "address",
          "name": "user",
          "type": "address"
        }
      ],
      "name": "totalBalance",
      "outputs": [
        {
          "internalType": "uint256",
          "name": "amount",
          "type": "uint256"
        }
      ],
      "stateMutability": "view",
      "type": "function"
    },
    {
      "inputs": [
        {
          "internalType": "address",
          "name": "newOwner",
          "type": "address"
        }
      ],
      "name": "transferOwnership",
      "outputs": [],
      "stateMutability": "nonpayable",
      "type": "function"
    },
    {
      "inputs": [],
      "name": "unpause",
      "outputs": [],
      "stateMutability": "nonpayable",
      "type": "function"
    },
    {
      "inputs": [
        {
          "internalType": "address",
          "name": "",
          "type": "address"
        },
        {
          "internalType": "address",
          "name": "",
          "type": "address"
        }
      ],
      "name": "userRewardPerTokenPaid",
      "outputs": [
        {
          "internalType": "uint256",
          "name": "",
          "type": "uint256"
        }
      ],
      "stateMutability": "view",
      "type": "function"
    },
    {
      "inputs": [],
      "name": "userlist",
      "outputs": [
        {
          "internalType": "contract ILockerList",
          "name": "",
          "type": "address"
        }
      ],
      "stateMutability": "view",
      "type": "function"
    },
    {
      "inputs": [],
      "name": "vestDuration",
      "outputs": [
        {
          "internalType": "uint256",
          "name": "",
          "type": "uint256"
        }
      ],
      "stateMutability": "view",
      "type": "function"
    },
    {
      "inputs": [
        {
          "internalType": "uint256",
          "name": "amount",
          "type": "uint256"
        }
      ],
      "name": "withdraw",
      "outputs": [],
      "stateMutability": "nonpayable",
      "type": "function"
    },
    {
      "inputs": [
        {
          "internalType": "address",
          "name": "_address",
          "type": "address"
        }
      ],
      "name": "withdrawExpiredLocksFor",
      "outputs": [
        {
          "internalType": "uint256",
          "name": "",
          "type": "uint256"
        }
      ],
      "stateMutability": "nonpayable",
      "type": "function"
    },
    {
      "inputs": [
        {
          "internalType": "address",
          "name": "_address",
          "type": "address"
        },
        {
          "internalType": "uint256",
          "name": "_limit",
          "type": "uint256"
        },
        {
          "internalType": "bool",
          "name": "_ignoreRelock",
          "type": "bool"
        }
      ],
      "name": "withdrawExpiredLocksForWithOptions",
      "outputs": [
        {
          "internalType": "uint256",
          "name": "",
          "type": "uint256"
        }
      ],
      "stateMutability": "nonpayable",
      "type": "function"
    },
    {
      "inputs": [
        {
          "internalType": "address",
          "name": "user",
          "type": "address"
        }
      ],
      "name": "withdrawableBalance",
      "outputs": [
        {
          "internalType": "uint256",
          "name": "amount",
          "type": "uint256"
        },
        {
          "internalType": "uint256",
          "name": "penaltyAmount",
          "type": "uint256"
        },
        {
          "internalType": "uint256",
          "name": "burnAmount",
          "type": "uint256"
        }
      ],
      "stateMutability": "view",
      "type": "function"
    },
    {
      "inputs": [
        {
          "internalType": "address",
          "name": "_user",
          "type": "address"
        }
      ],
      "name": "zapVestingToLp",
      "outputs": [
        {
          "internalType": "uint256",
          "name": "zapped",
          "type": "uint256"
        }
      ],
      "stateMutability": "nonpayable",
      "type": "function"
    }
  ],
  "transactionHash": "0x8dba32185372eeae5bf969fb8245c074f81227bf80169bc81da5c26d75ae0ad2",
  "args": [],
  "numDeployments": 2,
  "solcInputHash": "927c397d7071e4b74354cef22052248f",
  "bytecode": "0x608060405234801561001057600080fd5b5061577880620000216000396000f3fe608060405234801561001057600080fd5b506004361061054a5760003560e01c806376520c6d116102bc578063ada71bc211610186578063df379876116100e3578063f122977711610097578063f46eccc41161007c578063f46eccc414610b75578063f7ad360114610b98578063ff66a30514610bc557600080fd5b8063f122977714610b4f578063f2fde38b14610b6257600080fd5b8063e6c91a15116100c8578063e6c91a1514610b08578063e70b9e2714610b1b578063e8999f4314610b4657600080fd5b8063df37987614610ad3578063e6af230d14610af557600080fd5b8063bcd110141161013a578063ca5c7b911161011f578063ca5c7b9114610a97578063d1a1beb414610aa0578063dc01f60d14610ab357600080fd5b8063bcd1101414610a7c578063c53b573d14610a8f57600080fd5b8063b2d6e66d1161016b578063b2d6e66d14610a36578063b36b9ffd14610a49578063b77cf9c614610a5c57600080fd5b8063ada71bc214610a00578063af1df25514610a2357600080fd5b80638980f11f1161023457806394761e2a116101e85780639bd4ef50116101cd5780639bd4ef50146109d15780639c9b2e21146109da5780639fe63862146109ed57600080fd5b806394761e2a146109a557806398387a8d146109ae57600080fd5b80638f40aab1116102195780638f40aab1146109725780638fd9f2ca14610985578063914f6e6d1461099257600080fd5b80638980f11f1461094e5780638da5cb5b1461096157600080fd5b80637bb7bed11161028b5780638232e5f7116102705780638232e5f71461092a5780638456cb591461093357806387afa3361461093b57600080fd5b80637bb7bed1146109045780637fd7d0621461091757600080fd5b806376520c6d146108ce5780637654b1b9146108d657806379022a9f146108de5780637ab8955d146108f157600080fd5b80633b26664f11610418578063638634ee116103755780636fa75e6d11610329578063715018a61161030e578063715018a61461089b57806372f702f3146108a3578063757c4d22146108b657600080fd5b80636fa75e6d1461085d5780637035ab981461087057600080fd5b80636bd3b87c1161035a5780636bd3b87c146108175780636e9c931c146108375780636eacd3981461084a57600080fd5b8063638634ee146107f15780636a678a9c1461080457600080fd5b806348e5d9f8116103cc578063547d0096116103b1578063547d009614610799578063556a795a146107ac5780635c975abb146107da57600080fd5b806348e5d9f8146107215780634c6f71311461078657600080fd5b806344df8e70116103fd57806344df8e70146106fd57806345b35f561461070657806346e732711461070e57600080fd5b80633b26664f146106e25780633f4ba83a146106f557600080fd5b80631824a46b116104c65780632e88caa11161047a578063363bf9641161045f578063363bf964146106b35780633824c76a146106c6578063386a9525146106d957600080fd5b80632e88caa11461068a57806332c991b5146106aa57600080fd5b806321cc01c9116104ab57806321cc01c9146106515780632843b019146106645780632e1a7d4d1461067757600080fd5b80631824a46b1461063c57806320212eaa1461063e57600080fd5b80630c63469e1161051d5780630fd6699b116105025780630fd6699b1461060b5780631285deee1461061457806317053a7e1461061c57600080fd5b80630c63469e146105e35780630f63107f146105f657600080fd5b806302b629381461054f5780630483a7f61461058257806309eba343146105a65780630a065fb6146105be575b600080fd5b61056261055d366004614f6f565b610bd8565b604080519384526020840192909252908201526060015b60405180910390f35b610595610590366004614f6f565b610d60565b604051610579959493929190614fe7565b6105b0620186a081565b604051908152602001610579565b6097546001600160a01b03165b6040516001600160a01b039091168152602001610579565b6105b06105f1366004614f6f565b610fbc565b6105fe610feb565b6040516105799190615012565b6105b0609b5481565b6105b0600181565b6105b061062a366004614f6f565b60a76020526000908152604090205481565b005b61063c61064c366004614f6f565b611045565b609e546105cb906001600160a01b031681565b6105b0610672366004614f6f565b6110ca565b61063c610685366004615056565b6112ed565b6105b0610698366004614f6f565b60b46020526000908152604090205481565b6105b061fde881565b61063c6106c136600461506f565b61177a565b609d546105cb906001600160a01b031681565b6105b060995481565b61063c6106f0366004615190565b61186d565b61063c61196f565b6105b060985481565b61063c61197f565b61063c61071c3660046151f4565b6119e2565b61075e61072f366004614f6f565b60ad60205260009081526040902080546001820154600283015460038401546004909401549293919290919085565b604080519586526020860194909452928401919091526060830152608082015260a001610579565b60a0546105cb906001600160a01b031681565b61063c6107a7366004615291565b611e8f565b61063c6107ba36600461532e565b33600090815260a660205260409020805460ff1916911515919091179055565b60335460ff165b6040519015158152602001610579565b6105b06107ff366004614f6f565b611fdf565b61063c610812366004614f6f565b61200e565b61082a610825366004614f6f565b6120e7565b604051610579919061534b565b61063c61084536600461535e565b612184565b6105b0610858366004614f6f565b612191565b61063c61086b366004615056565b6121e8565b6105b061087e366004615396565b60ae60209081526000928352604080842090915290825290205481565b61063c61224b565b60a1546105cb906001600160a01b031681565b60b5546105cb9061010090046001600160a01b031681565b6105fe61225d565b61063c6122b3565b60b0546105cb906001600160a01b031681565b6107e16108ff3660046153cf565b6122bc565b6105cb610912366004615056565b612382565b61063c610925366004615291565b6123ac565b6105b0609a5481565b61063c612423565b60b1546105cb906001600160a01b031681565b61063c61095c3660046153fd565b612433565b6065546001600160a01b03166105cb565b6105b0610980366004615429565b612510565b60b5546107e19060ff1681565b61063c6109a0366004615460565b612548565b6105b0609c5481565b6107e16109bc366004614f6f565b60b36020526000908152604090205460ff1681565b6105b06161a881565b61063c6109e8366004614f6f565b61276e565b61063c6109fb366004614f6f565b6128da565b6107e1610a0e366004614f6f565b60a66020526000908152604090205460ff1681565b609f546105cb906001600160a01b031681565b61063c610a44366004614f6f565b612921565b60b7546105cb906001600160a01b031681565b6105b0610a6a366004614f6f565b60b66020526000908152604090205481565b6105b0610a8a366004614f6f565b612bca565b61063c612c00565b6105b060a85481565b61063c610aae366004615429565b612c8a565b610ac6610ac1366004614f6f565b612df4565b604051610579919061547e565b610ae6610ae1366004614f6f565b612f84565b604051610579939291906154d6565b61063c610b03366004615056565b6131bf565b61063c610b1636600461532e565b6131cc565b6105b0610b29366004615396565b60af60209081526000928352604080842090915290825290205481565b6105b060a95481565b6105b0610b5d366004614f6f565b61325c565b61063c610b70366004614f6f565b6132ed565b6107e1610b83366004614f6f565b60b26020526000908152604090205460ff1681565b61063c610ba636600461532e565b33600090815260b360205260409020805460ff19169115919091179055565b61063c610bd3366004614f6f565b61337d565b6001600160a01b038116600090815260a36020526040812060040154819081908015610d24576001600160a01b038516600090815260a56020526040812054905b81811015610d21576001600160a01b038716600090815260a560205260408120805483908110610c4b57610c4b61553f565b90600052602060002090600402016000015490508060001415610c6e5750610d0f565b6001600160a01b038816600090815260a56020526040812080548291610ce49186908110610c9e57610c9e61553f565b9060005260206000209060040201604051806080016040529081600082015481526020016001820154815260200160028201548152602001600382015481525050613415565b935093505050610cfd82896134a490919063ffffffff16565b9750610d0987826134a4565b96505050505b80610d198161556b565b915050610c19565b50505b6001600160a01b038516600090815260a36020526040902060010154610d56908490610d5090846134a4565b906134b0565b9350509193909250565b6001600160a01b038116600090815260a46020526040812081908190819060609082805b8254811015610f925742838281548110610da057610da061553f565b9060005260206000209060040201600101541115610f505781610e42578254610dca908290615586565b67ffffffffffffffff811115610de257610de26150ba565b604051908082528060200260200182016040528015610e3e57816020015b610e2b6040518060800160405280600081526020016000815260200160008152602001600081525090565b815260200190600190039081610e005790505b5093505b828181548110610e5457610e5461553f565b9060005260206000209060040201604051806080016040529081600082015481526020016001820154815260200160028201548152602001600382015481525050848381518110610ea757610ea761553f565b60200260200101819052508180610ebd9061556b565b925050610eed838281548110610ed557610ed561553f565b600091825260209091206004909102015487906134a4565b9550610f49610f42848381548110610f0757610f0761553f565b906000526020600020906004020160020154858481548110610f2b57610f2b61553f565b6000918252602090912060049091020154906134bc565b86906134a4565b9450610f80565b610f7d838281548110610f6557610f6561553f565b600091825260209091206004909102015488906134a4565b96505b80610f8a8161556b565b915050610d84565b5050506001600160a01b038616600090815260a36020526040902060020154945091939590929450565b6001600160a01b038116600090815260a46020526040812054610fe590839083906001906134c8565b92915050565b606060ab80548060200260200160405190810160405280929190818152602001828054801561103957602002820191906000526020600020905b815481526020019060010190808311611025575b5050505050905090565b565b61104d6136c0565b6001600160a01b0381166110a85760405162461bcd60e51b815260206004820152601c60248201527f726577617264436f6e766572746572206973203020616464726573730000000060448201526064015b60405180910390fd5b609d80546001600160a01b0319166001600160a01b0392909216919091179055565b60a2546000906001600160a01b031633146111275760405162461bcd60e51b815260206004820152600860248201527f216c6f636b5a6170000000000000000000000000000000000000000000000000604482015260640161109f565b6111308261371a565b6001600160a01b038216600090815260a56020526040902080545b801561121757428261115e600184615586565b8154811061116e5761116e61553f565b9060005260206000209060040201600101541115611200576111bd82611195600184615586565b815481106111a5576111a561553f565b600091825260209091206004909102015484906134a4565b9250818054806111cf576111cf61559d565b6000828152602081206004600019909301928302018181556001810182905560028101829055600301559055611205565b611217565b611210600182615586565b905061114b565b5060a25460a054611235916001600160a01b0391821691168461381b565b6001600160a01b038316600090815260a360205260409020600481015461125c90846134b0565b6004820155805461126d90846134b0565b8155609754604080517fa2e6204500000000000000000000000000000000000000000000000000000000815290516001600160a01b039092169163a2e620459160048082019260009290919082900301818387803b1580156112ce57600080fd5b505af11580156112e2573d6000803e3d6000fd5b505050505050919050565b338161133b5760405162461bcd60e51b815260206004820152600f60248201527f616d742063616e6e6f7420626520300000000000000000000000000000000000604482015260640161109f565b6001600160a01b038116600090815260a3602052604081206001810154829190851161137a57600181015461137090866134b0565b6001820155611751565b60006113938260010154876134b090919063ffffffff16565b905080826004015410156113e95760405162461bcd60e51b815260206004820152600e60248201527f696e76616c6964206561726e6564000000000000000000000000000000000000604482015260640161109f565b6000600183018190556004830154905b6001600160a01b038716600090815260a5602052604081208054839081106114235761142361553f565b9060005260206000209060040201600001549050806000141561144657506115eb565b6001600160a01b038816600090815260a5602052604081208054611475919085908110610c9e57610c9e61553f565b505091505060006114a861149583620186a06134b090919063ffffffff16565b6114a288620186a06134bc565b906138c4565b90508281106114f25750816114d86114d1620186a06114a26114ca82876134b0565b87906134bc565b87906134b0565b9550856114ed57836114e98161556b565b9450505b61153c565b6114fc83826134b0565b6001600160a01b038b16600090815260a5602052604090208054869081106115265761152661553f565b6000918252602082206004909102019190915595505b61154685826134b0565b945061156361155c620186a06114a284866134bc565b8a906134a4565b985061158b611584620186a06114a26098548d6134bc90919063ffffffff16565b89906134a4565b97508561159a575050506115fd565b846115e75760405162461bcd60e51b815260206004820152600860248201527f30206561726e6564000000000000000000000000000000000000000000000000604482015260640161109f565b5050505b806115f58161556b565b9150506113f9565b801561174957805b6001600160a01b038816600090815260a560205260409020548110156116d6576001600160a01b038816600090815260a56020526040902080548290811061164f5761164f61553f565b600091825260208083206001600160a01b038c16845260a590915260409092206004909102909101906116828484615586565b815481106116925761169261553f565b6000918252602090912082546004909202019081556001808301549082015560028083015490820155600391820154910155806116ce8161556b565b915050611605565b5060005b81811015611747576001600160a01b038816600090815260a5602052604090208054806117095761170961559d565b60008281526020812060046000199093019283020181815560018101829055600281018290556003015590558061173f8161556b565b9150506116da565b505b506004830155505b8054611763908490610d5090886134b0565b81556117738486858560006138d0565b5050505050565b6117826136c0565b6001600160a01b0383166117d85760405162461bcd60e51b815260206004820152601760248201527f636f6e74726f6c6c657220697320302061646472657373000000000000000000604482015260640161109f565b6001600160a01b03821661182e5760405162461bcd60e51b815260206004820152601060248201527f6d66642069732030206164647265737300000000000000000000000000000000604482015260640161109f565b609f80546001600160a01b039485166001600160a01b031991821617909155609e80549385169382169390931790925560b18054919093169116179055565b6118756136c0565b80518251146118c65760405162461bcd60e51b815260206004820152601360248201527f696e76616c6964206c6f636b20706572696f6400000000000000000000000000604482015260640161109f565b6118d260aa6000614ed9565b6118de60ab6000614ed9565b60005b825181101561196a5760aa8382815181106118fe576118fe61553f565b60209081029190910181015182546001810184556000938452919092200155815160ab908390839081106119345761193461553f565b6020908102919091018101518254600181810185556000948552929093209092019190915561196390826155b3565b90506118e1565b505050565b6119776136c0565b611043613b10565b61104360ac8054806020026020016040519081016040528092919081815260200182805480156119d857602002820191906000526020600020905b81546001600160a01b031681526001909101906020018083116119ba575b50505050506123ac565b600054610100900460ff1615808015611a025750600054600160ff909116105b80611a1c5750303b158015611a1c575060005460ff166001145b611a8e5760405162461bcd60e51b815260206004820152602e60248201527f496e697469616c697a61626c653a20636f6e747261637420697320616c72656160448201527f647920696e697469616c697a6564000000000000000000000000000000000000606482015260840161109f565b6000805460ff191660011790558015611ab1576000805461ff0019166101001790555b6001600160a01b038b16611aed5760405162461bcd60e51b815260206004820152600360248201526203078360ec1b604482015260640161109f565b6001600160a01b038a16611b295760405162461bcd60e51b815260206004820152600360248201526203078360ec1b604482015260640161109f565b6001600160a01b038916611b655760405162461bcd60e51b815260206004820152600360248201526203078360ec1b604482015260640161109f565b6001600160a01b038816611ba15760405162461bcd60e51b815260206004820152600360248201526203078360ec1b604482015260640161109f565b6001600160a01b038716611bdd5760405162461bcd60e51b815260206004820152600360248201526203078360ec1b604482015260640161109f565b85611c105760405162461bcd60e51b815260206004820152600360248201526203078360ec1b604482015260640161109f565b84611c435760405162461bcd60e51b815260206004820152600360248201526203078360ec1b604482015260640161109f565b83611c765760405162461bcd60e51b815260206004820152600360248201526203078360ec1b604482015260640161109f565b81611ca95760405162461bcd60e51b815260206004820152600360248201526203078360ec1b604482015260640161109f565b620186a0831115611cfc5760405162461bcd60e51b815260206004820152600c60248201527f696e76616c6964206275726e0000000000000000000000000000000000000000604482015260640161109f565b85851115611d4c5760405162461bcd60e51b815260206004820152601060248201527f696e76616c6964206c6f6f6b6261636b00000000000000000000000000000000604482015260640161109f565b611d54613b62565b611d5c613bd5565b60a080546001600160a01b03808e166001600160a01b0319928316811790935560a280548e831690841617905560b080548d8316908416179055609780548b831690841617905560b58054918c16610100027fffffffffffffffffffffff0000000000000000000000000000000000000000ff90921691909117905560ac8054600181019091557f0a0a1bcadd9f6a5539376fa82276e043ae3cb4499daaaf8136572ecb1f9f0d6001805490911682179055600090815260ad60205260409020426002909101556099869055609a859055609b8490556098839055609c8290558015611e82576000805461ff0019169055604051600181527f7f26b83ff96e1f2b6a682f133852f6798a09c465da95921460cefb38474024989060200160405180910390a15b5050505050505050505050565b611e976136c0565b60b55460ff1615611eea5760405162461bcd60e51b815260206004820152600b60248201527f6d696e7465727320736574000000000000000000000000000000000000000000604482015260640161109f565b60005b8151811015611fce5760006001600160a01b0316828281518110611f1357611f1361553f565b60200260200101516001600160a01b03161415611f725760405162461bcd60e51b815260206004820152601360248201527f6d696e7465722069732030206164647265737300000000000000000000000000604482015260640161109f565b600160b26000848481518110611f8a57611f8a61553f565b6020908102919091018101516001600160a01b03168252810191909152604001600020805460ff191691151591909117905580611fc68161556b565b915050611eed565b505060b5805460ff19166001179055565b6001600160a01b038116600090815260ad60205260408120544281116120055780612007565b425b9392505050565b6120166136c0565b6001600160a01b03811661206c5760405162461bcd60e51b815260206004820152601a60248201527f5f7374616b696e67546f6b656e20697320302061646472657373000000000000604482015260640161109f565b60a1546001600160a01b0316156120c55760405162461bcd60e51b815260206004820152600b60248201527f616c726561647920736574000000000000000000000000000000000000000000604482015260640161109f565b60a180546001600160a01b0319166001600160a01b0392909216919091179055565b6001600160a01b038116600090815260a460209081526040808320805482518185028101850190935280835260609492939192909184015b8282101561217957838290600052602060002090600402016040518060800160405290816000820154815260200160018201548152602001600282015481526020016003820154815250508152602001906001019061211f565b505050509050919050565b61196a8383836000613c48565b60a05460a1546000916001600160a01b03918216911614156121c957506001600160a01b0316600090815260a3602052604090205490565b506001600160a01b0316600090815260a3602052604090206002015490565b60aa5481106122395760405162461bcd60e51b815260206004820152600c60248201527f696e76616c696420747970650000000000000000000000000000000000000000604482015260640161109f565b33600090815260b46020526040902055565b6122536136c0565b6110436000614157565b606060aa8054806020026020016040519081016040528092919081815260200182805480156110395760200282019190600052602060002090815481526020019060010190808311611025575050505050905090565b611043336128da565b60006122c66141a9565b60b7546001600160a01b031633146123205760405162461bcd60e51b815260206004820152600e60248201527f21626f756e74794d616e61676572000000000000000000000000000000000000604482015260640161109f565b600061232b84610d60565b5050509150508060001415612344576000915050610fe5565b60019150826123535750610fe5565b6001600160a01b038416600090815260a4602052604081205461237a9186916001906134c8565b505092915050565b60ac818154811061239257600080fd5b6000918252602090912001546001600160a01b0316905081565b6123b53361371a565b6123bf33826141fc565b609760009054906101000a90046001600160a01b03166001600160a01b031663a2e620456040518163ffffffff1660e01b8152600401600060405180830381600087803b15801561240f57600080fd5b505af1158015611773573d6000803e3d6000fd5b61242b6136c0565b6110436143a5565b61243b6136c0565b6001600160a01b038216600090815260ad6020526040902060020154156124a45760405162461bcd60e51b815260206004820152600d60248201527f6163746976652072657761726400000000000000000000000000000000000000604482015260640161109f565b6124ca6124b96065546001600160a01b031690565b6001600160a01b038416908361381b565b604080516001600160a01b0384168152602081018390527f8c1256b8896378cd5044f80c202f9772b9d77dc85c8a6eb51967210b09bfaa28910160405180910390a15050565b600082612533576001600160a01b038416600090815260a4602052604090205492505b61254084836001866134c8565b949350505050565b334282116125985760405162461bcd60e51b815260206004820152600b60248201527f21756e6c6f636b54696d65000000000000000000000000000000000000000000604482015260640161109f565b6000806000806125a885876143e2565b6001600160a01b038916600090815260a560205260409020549397509195509350915081106125da5750505050505050565b60006125e78260016155b3565b90505b6001600160a01b038616600090815260a560205260409020548110156126bc576001600160a01b038616600090815260a5602052604090208054829081106126345761263461553f565b600091825260208083206001600160a01b038a16845260a59091526040909220600490910290910190612668600184615586565b815481106126785761267861553f565b6000918252602090912082546004909202019081556001808301549082015560028083015490820155600391820154910155806126b48161556b565b9150506125ea565b506001600160a01b038516600090815260a5602052604090208054806126e4576126e461559d565b600082815260208082206004600019909401938402018281556001810183905560028101839055600301829055919092556001600160a01b038716825260a3905260409020805461273b908590610d5090886134b0565b81556004810154612752908590610d5090886134b0565b6004820155612764868686868c6138d0565b5050505050505050565b6001600160a01b0381166127c45760405162461bcd60e51b815260206004820152601860248201527f726577617264546f6b656e206973203020616464726573730000000000000000604482015260640161109f565b33600090815260b2602052604090205460ff1661280d5760405162461bcd60e51b815260206004820152600760248201526610b6b4b73a32b960c91b604482015260640161109f565b6001600160a01b038116600090815260ad6020526040902060020154156128765760405162461bcd60e51b815260206004820152600d60248201527f616c726561647920616464656400000000000000000000000000000000000000604482015260640161109f565b60ac8054600181019091557f0a0a1bcadd9f6a5539376fa82276e043ae3cb4499daaaf8136572ecb1f9f0d600180546001600160a01b039092166001600160a01b031990921682179055600090815260ad6020526040902042600282018190559055565b609f5460405163075b9bf960e31b81526001600160a01b03838116600483015290911690633adcdfc890602401600060405180830381600087803b15801561240f57600080fd5b6129296141a9565b609d546001600160a01b031633146129835760405162461bcd60e51b815260206004820152600a60248201527f21636f6e76657274657200000000000000000000000000000000000000000000604482015260640161109f565b61298c8161371a565b609e546040516308c51c6560e01b81526001600160a01b03909116906308c51c65906129bd9060ac906004016155cb565b600060405180830381600087803b1580156129d757600080fd5b505af11580156129eb573d6000803e3d6000fd5b505060ac549150600090505b81811015612b4257600060ac8281548110612a1457612a1461553f565b6000918252602090912001546001600160a01b03169050612a34816144ae565b6001600160a01b03808516600090815260af60209081526040808320938516835292905290812054612a6b9064e8d4a510006138c4565b90508015612b2d576001600160a01b03808616600090815260af60209081526040808320938616835292815282822082905560ad90522060040154612ab090826134b0565b6001600160a01b03808416600081815260ad6020526040902060040192909255609d54612adf9291168361381b565b816001600160a01b0316856001600160a01b03167f540798df468d7b23d11f156fdb954cb19ad414d150722a7b6d55ba369dea792e83604051612b2491815260200190565b60405180910390a35b50508080612b3a9061556b565b9150506129f7565b50609760009054906101000a90046001600160a01b03166001600160a01b031663a2e620456040518163ffffffff1660e01b8152600401600060405180830381600087803b158015612b9357600080fd5b505af1158015612ba7573d6000803e3d6000fd5b5050506001600160a01b03909216600090815260b6602052604090204290555050565b6099546001600160a01b038216600090815260ad60205260408120600101549091610fe59164e8d4a51000916114a291906134bc565b33600081815260a460205260408120549091612c209160019081906134c8565b33600081815260b46020526040812054929350612c3f92849291613c48565b33600081815260b46020908152604091829020548251858152918201527f4c46641520b3fedde433247f82a421df0d7a83ce24df3f229e9df96f386c8b0c910160405180910390a250565b612c926141a9565b33600090815260b2602052604090205460ff16612cdb5760405162461bcd60e51b815260206004820152600760248201526610b6b4b73a32b960c91b604482015260640161109f565b81612ce557505050565b6001600160a01b038316301415612d0c5760a05461196a906001600160a01b031683614644565b6001600160a01b038316600090815260a3602052604090208054612d3090846134a4565b81558115612dd9576004810154612d4790846134a4565b60048201556001600160a01b038416600090815260a560205260408120609c54909190612d759042906134a4565b6040805160808101825287815260208082019384526001928201838152609c54606084019081528754808601895560009889529290972092516004909202909201908155925191830191909155516002820155915160039092019190915550612dee565b6001810154612de890846134a4565b60018201555b50505050565b60ac5460609067ffffffffffffffff811115612e1257612e126150ba565b604051908082528060200260200182016040528015612e5757816020015b6040805180820190915260008082526020820152815260200190600190039081612e305790505b50905060005b8151811015612f7e5760ac8181548110612e7957612e7961553f565b9060005260206000200160009054906101000a90046001600160a01b0316828281518110612ea957612ea961553f565b6020026020010151600001906001600160a01b031690816001600160a01b031681525050612f4c64e8d4a510006114a285858581518110612eec57612eec61553f565b60200260200101516000015160a36000896001600160a01b03166001600160a01b0316815260200190815260200160002060030154612f47888881518110612f3657612f3661553f565b60200260200101516000015161325c565b61470c565b828281518110612f5e57612f5e61553f565b602090810291909101810151015280612f768161556b565b915050612e5d565b50919050565b6001600160a01b038116600090815260a3602090815260408083206001015460a5909252822060609083805b82548110156131b55742838281548110612fcc57612fcc61553f565b90600052602060002090600402016001015411156131735781613067578254612ff6908290615586565b67ffffffffffffffff81111561300e5761300e6150ba565b60405190808252806020026020018201604052801561306357816020015b61305060405180606001604052806000815260200160008152602001600081525090565b81526020019060019003908161302c5790505b5093505b60006130968885848154811061307f5761307f61553f565b9060005260206000209060040201600101546143e2565b50509150508382815481106130ad576130ad61553f565b9060005260206000209060040201600001548584815181106130d1576130d161553f565b602002602001015160000181815250508382815481106130f3576130f361553f565b9060005260206000209060040201600101548584815181106131175761311761553f565b602002602001015160200181815250508085848151811061313a5761313a61553f565b602090810291909101015160400152826131538161556b565b93505061316b848381548110610f6557610f6561553f565b9650506131a3565b6131a08382815481106131885761318861553f565b600091825260209091206004909102015486906134a4565b94505b806131ad8161556b565b915050612fb0565b5050509193909250565b6131c76136c0565b609a55565b33600080806131da84610bd8565b6001600160a01b038716600090815260a56020526040812093965091945092506132049190614ef7565b6001600160a01b038416600090815260a3602052604090206004810154600182015482546132379291610d5091906134b0565b81556000600182018190556004820155613254858585858a6138d0565b505050505050565b6001600160a01b038116600090815260ad602052604090206003015460a954156132e8576001600160a01b038216600090815260ad6020526040812060018101546002909101546132bb91906132b590610d5087611fdf565b906134bc565b90506120076132e160a9546114a2670de0b6b3a7640000856134bc90919063ffffffff16565b83906134a4565b919050565b6132f56136c0565b6001600160a01b0381166133715760405162461bcd60e51b815260206004820152602660248201527f4f776e61626c653a206e6577206f776e657220697320746865207a65726f206160448201527f6464726573730000000000000000000000000000000000000000000000000000606482015260840161109f565b61337a81614157565b50565b6133856136c0565b6001600160a01b0381166133db5760405162461bcd60e51b815260206004820152601360248201527f626f756e74792069732030206164647265737300000000000000000000000000604482015260640161109f565b60b780546001600160a01b039092166001600160a01b031990921682179055600090815260b260205260409020805460ff19166001179055565b6000806000804285602001511115613459576134566161a8613450609c546114a261fde86132b5428c602001516134b090919063ffffffff16565b906134a4565b92505b845161346e90620186a0906114a290866134bc565b915061348c620186a06114a2609854856134bc90919063ffffffff16565b855190915061349b90836134b0565b93509193509193565b600061200782846155b3565b60006120078284615586565b6000612007828461560f565b60006134d26141a9565b6134db8561371a565b6001600160a01b038516600090815260a360205260408120600281015460038201546135099189918761477c565b6002830154919450925061351d90846134b0565b6002820155600381015461353190836134b0565b6003820155805461354290846134b0565b815560a85461355190846134b0565b60a85560a95461356190836134b0565b60a9558515801561358b57506001600160a01b038716600090815260b3602052604090205460ff16155b156135bd576001600160a01b038716600090815260b460205260409020546135b890849089906001613c48565b6136b6565b84156136b65760a1546135da906001600160a01b0316888561381b565b609f5460405163075b9bf960e31b81526001600160a01b03898116600483015290911690633adcdfc890602401600060405180830381600087803b15801561362157600080fd5b505af1158015613635573d6000803e3d6000fd5b505050506001600160a01b03878116600081815260a3602090815260408083206002015460a0805460a15484518c8152958601939093529284018590526060840194909452851694169390931415608084015290917fa236f2dcd2b940fd86168787a5f820805cdbd85131f7192d9d9c418556876fca910160405180910390a25b5050949350505050565b6065546001600160a01b031633146110435760405162461bcd60e51b815260206004820181905260248201527f4f776e61626c653a2063616c6c6572206973206e6f7420746865206f776e6572604482015260640161109f565b6001600160a01b038116600090815260a3602052604081206003015460ac5490915b81811015612dee57600060ac82815481106137595761375961553f565b60009182526020822001546001600160a01b031691506137788261325c565b6001600160a01b038316600090815260ad60205260409020600381018290559091506137a383611fdf565b60028201556001600160a01b0387163014613805576137c48784888561470c565b6001600160a01b03808916600081815260af602090815260408083209489168084529482528083209590955591815260ae8252838120928152919052208290555b50505080806138139061556b565b91505061373c565b6040516001600160a01b03831660248201526044810182905261196a9084907fa9059cbb00000000000000000000000000000000000000000000000000000000906064015b60408051601f198184030181529190526020810180517bffffffffffffffffffffffffffffffffffffffffffffffffffffffff167fffffffff00000000000000000000000000000000000000000000000000000000909316929092179091526149bb565b6000612007828461562e565b6001600160a01b03851633146139285760405162461bcd60e51b815260206004820152601460248201527f6f6e426568616c664f6620213d2073656e646572000000000000000000000000604482015260640161109f565b6139318561371a565b60a054613948906001600160a01b0316868661381b565b821561399e5781156139715760b15460a054613971916001600160a01b0391821691168461381b565b60b05461399e906001600160a01b031661398b85856134b0565b60a0546001600160a01b0316919061381b565b8015613a2457613a088560ac8054806020026020016040519081016040528092919081815260200182805480156139fe57602002820191906000526020600020905b81546001600160a01b031681526001909101906020018083116139e0575b50505050506141fc565b6001600160a01b038516600090815260b6602052604090204290555b609760009054906101000a90046001600160a01b03166001600160a01b031663a2e620456040518163ffffffff1660e01b8152600401600060405180830381600087803b158015613a7457600080fd5b505af1158015613a88573d6000803e3d6000fd5b505050506001600160a01b03858116600081815260a360209081526040918290206002015460a0805460a15485518c8152948501939093529383018990526060830188905292851694169390931415608084015290917fa236f2dcd2b940fd86168787a5f820805cdbd85131f7192d9d9c418556876fca910160405180910390a25050505050565b613b18614aa0565b6033805460ff191690557f5db9ee0a495bf2e6ff9c91a7834c1ba4fdd244a5e8aa4e537bd38aeae4b073aa335b6040516001600160a01b03909116815260200160405180910390a1565b600054610100900460ff16613bcd5760405162461bcd60e51b815260206004820152602b60248201527f496e697469616c697a61626c653a20636f6e7472616374206973206e6f74206960448201526a6e697469616c697a696e6760a81b606482015260840161109f565b611043614af2565b600054610100900460ff16613c405760405162461bcd60e51b815260206004820152602b60248201527f496e697469616c697a61626c653a20636f6e7472616374206973206e6f74206960448201526a6e697469616c697a696e6760a81b606482015260840161109f565b611043614b69565b613c506141a9565b83613c5a57612dee565b60b7546001600160a01b031615613d315760b760009054906101000a90046001600160a01b03166001600160a01b031663d9cdd5136040518163ffffffff1660e01b8152600401602060405180830381865afa158015613cbe573d6000803e3d6000fd5b505050506040513d601f19601f82011682018060405250810190613ce29190615650565b841015613d315760405162461bcd60e51b815260206004820152601560248201527f6d696e207374616b6520616d74206e6f74206d65740000000000000000000000604482015260640161109f565b60aa548210613d825760405162461bcd60e51b815260206004820152600d60248201527f696e76616c696420696e64657800000000000000000000000000000000000000604482015260640161109f565b613d8b8361371a565b6001600160a01b038316600090815260a46020526040902054849015613e99576001600160a01b038416600090815260a4602052604081208054429290613dd457613dd461553f565b90600052602060002090600402016001015411613e99576001600160a01b038416331480613e0c575060a2546001600160a01b031633145b15613e99576001600160a01b038416600090815260b3602052604081205460ff16613e6c576001600160a01b038516600090815260a46020526040812054613e59918791600191906134c8565b9050613e6586826134a4565b9550613e97565b6001600160a01b038516600090815260a46020526040902054613e9590869060019081906134c8565b505b505b6001600160a01b038416600090815260a3602052604090208054613ebd90876134a4565b81556002810154613ece90876134a4565b600282015560a854613ee090876134a4565b60a881905550613f24613f1960ab8681548110613eff57613eff61553f565b9060005260206000200154886134bc90919063ffffffff16565b6003830154906134a4565b8160030181905550613f4e613f4560ab8681548110613eff57613eff61553f565b60a954906134a4565b60a981905550613fe7856040518060800160405280898152602001613f9960aa8981548110613f7f57613f7f61553f565b9060005260206000200154426134a490919063ffffffff16565b815260200160ab8881548110613fb157613fb161553f565b9060005260206000200154815260200160aa8881548110613fd457613fd461553f565b9060005260206000200154815250614bdd565b60b5546040517fbd6597840000000000000000000000000000000000000000000000000000000081526001600160a01b0387811660048301526101009092049091169063bd65978490602401600060405180830381600087803b15801561404d57600080fd5b505af1158015614061573d6000803e3d6000fd5b50505050826140825760a154614082906001600160a01b0316333085614d68565b609f5460405163075b9bf960e31b81526001600160a01b03878116600483015290911690633adcdfc890602401600060405180830381600087803b1580156140c957600080fd5b505af11580156140dd573d6000803e3d6000fd5b505050506001600160a01b03858116600081815260a360209081526040918290206002015460a05460a15484518d81529384019290925285169416939093141590830152907fca8d506eda84f8ed07c2908ae102299d34888ef5e19b97f56e4d6fcd1104c31e9060600160405180910390a2505050505050565b606580546001600160a01b038381166001600160a01b0319831681179093556040519116919082907f8be0079c531659141344cd1fd0a4f28419497f9722a3daafe3b4186f6b6457e090600090a35050565b60335460ff16156110435760405162461bcd60e51b815260206004820152601060248201527f5061757361626c653a2070617573656400000000000000000000000000000000604482015260640161109f565b6142046141a9565b609e546040516308c51c6560e01b81526001600160a01b03909116906308c51c6590614234908490600401615669565b600060405180830381600087803b15801561424e57600080fd5b505af1158015614262573d6000803e3d6000fd5b505082519150600090505b81811015612dee5760008382815181106142895761428961553f565b6020026020010151905061429c816144ae565b6001600160a01b03808616600090815260af602090815260408083209385168352929052908120546142d39064e8d4a510006138c4565b90508015614390576001600160a01b03808716600090815260af60209081526040808320938616835292815282822082905560ad9052206004015461431890826134b0565b6001600160a01b038316600081815260ad602052604090206004019190915561434290878361381b565b816001600160a01b0316866001600160a01b03167f540798df468d7b23d11f156fdb954cb19ad414d150722a7b6d55ba369dea792e8360405161438791815260200190565b60405180910390a35b5050808061439d9061556b565b91505061426d565b6143ad6141a9565b6033805460ff191660011790557f62e78cea01bee320cd4e420270b5ea74000d11b0c9f74754ebdbfc544b05a258613b453390565b60008060008060005b6001600160a01b038716600090815260a560205260409020548110156144a4576001600160a01b038716600090815260a5602052604090208054879190839081106144385761443861553f565b9060005260206000209060040201600101541415614492576001600160a01b038716600090815260a560205260409020805461447f919083908110610c9e57610c9e61553f565b92975095509093509091508190506144a4565b8061449c8161556b565b9150506143eb565b5092959194509250565b6001600160a01b0381166145045760405162461bcd60e51b815260206004820152600d60248201527f496e76616c696420546f6b656e00000000000000000000000000000000000000604482015260640161109f565b60a0546001600160a01b038281169116141561451d5750565b6001600160a01b038116600090815260ad602052604090208054806145845760405162461bcd60e51b815260206004820152601560248201527f696e76616c696420706572696f642066696e6973680000000000000000000000604482015260640161109f565b61459e609a546099546145979190615586565b42906134a4565b81101561196a576004808301546040517f70a08231000000000000000000000000000000000000000000000000000000008152309281019290925260009161463691906001600160a01b038716906370a0823190602401602060405180830381865afa158015614612573d6000803e3d6000fd5b505050506040513d601f19601f82011682018060405250810190610d509190615650565b90508015612dee57612dee84825b6001600160a01b038216600090815260ad60205260409020805442106146845760995461467a906114a28464e8d4a510006134bc565b60018201556146dc565b805460009061469390426134b0565b905060006146b764e8d4a510006114a28560010154856134bc90919063ffffffff16565b6099549091506146d4906114a264e8d4a510006132b588866134a4565b600184015550505b42600282018190556099546146f191906134a4565b8155600481015461470290836134a4565b6004909101555050565b6001600160a01b03808516600081815260af602090815260408083209488168084529482528083205493835260ae8252808320948352939052918220549091906147579084906134b0565b90506147726132e1670de0b6b3a76400006114a287856134bc565b9695505050505050565b6001600160a01b038416600090815260a4602052604081208054829190156149b15780546000908510156147b057846147b3565b81545b905060005b8181101561490257428382815481106147d3576147d361553f565b906000526020600020906004020160010154116148f0576147ff8382815481106131885761318861553f565b9450614820614819848381548110610f0757610f0761553f565b85906134a4565b8354909450839061483390600190615586565b815481106148435761484361553f565b90600052602060002090600402018382815481106148635761486361553f565b906000526020600020906004020160008201548160000155600182015481600101556002820154816002015560038201548160030155905050828054806148ac576148ac61559d565b60008281526020812060046000199093019283020181815560018181018390556002820183905560039091019190915591556148e99083906134b0565b91506147b8565b6148fb8160016155b3565b90506147b8565b5081546149af576001600160a01b038816600090815260a46020526040812088955087945061493091614ef7565b60b5546040517f257f9abf0000000000000000000000000000000000000000000000000000000081526001600160a01b038a811660048301526101009092049091169063257f9abf90602401600060405180830381600087803b15801561499657600080fd5b505af11580156149aa573d6000803e3d6000fd5b505050505b505b5094509492505050565b6000614a10826040518060400160405280602081526020017f5361666545524332303a206c6f772d6c6576656c2063616c6c206661696c6564815250856001600160a01b0316614db99092919063ffffffff16565b80519091501561196a5780806020019051810190614a2e91906156aa565b61196a5760405162461bcd60e51b815260206004820152602a60248201527f5361666545524332303a204552433230206f7065726174696f6e20646964206e60448201527f6f74207375636365656400000000000000000000000000000000000000000000606482015260840161109f565b60335460ff166110435760405162461bcd60e51b815260206004820152601460248201527f5061757361626c653a206e6f7420706175736564000000000000000000000000604482015260640161109f565b600054610100900460ff16614b5d5760405162461bcd60e51b815260206004820152602b60248201527f496e697469616c697a61626c653a20636f6e7472616374206973206e6f74206960448201526a6e697469616c697a696e6760a81b606482015260840161109f565b6033805460ff19169055565b600054610100900460ff16614bd45760405162461bcd60e51b815260206004820152602b60248201527f496e697469616c697a61626c653a20636f6e7472616374206973206e6f74206960448201526a6e697469616c697a696e6760a81b606482015260840161109f565b61104333614157565b6001600160a01b038216600090815260a460205260408120805490915b8181108015614c2f57508360200151838281548110614c1b57614c1b61553f565b906000526020600020906004020160010154105b15614c4657614c3f8160016155b3565b9050614bfa565b8254600181810185556000858152602090819020875160049094020192835586015190820155604085015160028201556060850151600390910155815b81811115614d145783614c97600183615586565b81548110614ca757614ca761553f565b9060005260206000209060040201848281548110614cc757614cc761553f565b906000526020600020906004020160008201548160000155600182015481600101556002820154816002015560038201548160030155905050600181614d0d9190615586565b9050614c83565b5083838281548110614d2857614d2861553f565b9060005260206000209060040201600082015181600001556020820151816001015560408201518160020155606082015181600301559050505050505050565b6040516001600160a01b0380851660248301528316604482015260648101829052612dee9085907f23b872dd0000000000000000000000000000000000000000000000000000000090608401613860565b6060612540848460008585600080866001600160a01b03168587604051614de091906156f3565b60006040518083038185875af1925050503d8060008114614e1d576040519150601f19603f3d011682016040523d82523d6000602084013e614e22565b606091505b5091509150614e3387838387614e3e565b979650505050505050565b60608315614eaa578251614ea3576001600160a01b0385163b614ea35760405162461bcd60e51b815260206004820152601d60248201527f416464726573733a2063616c6c20746f206e6f6e2d636f6e7472616374000000604482015260640161109f565b5081612540565b6125408383815115614ebf5781518083602001fd5b8060405162461bcd60e51b815260040161109f919061570f565b508054600082559060005260206000209081019061337a9190614f18565b508054600082556004029060005260206000209081019061337a9190614f31565b5b80821115614f2d5760008155600101614f19565b5090565b5b80821115614f2d57600080825560018201819055600282018190556003820155600401614f32565b6001600160a01b038116811461337a57600080fd5b600060208284031215614f8157600080fd5b813561200781614f5a565b600081518084526020808501945080840160005b83811015614fdc578151805188528381015184890152604080820151908901526060908101519088015260809096019590820190600101614fa0565b509495945050505050565b85815284602082015283604082015282606082015260a060808201526000614e3360a0830184614f8c565b6020808252825182820181905260009190848201906040850190845b8181101561504a5783518352928401929184019160010161502e565b50909695505050505050565b60006020828403121561506857600080fd5b5035919050565b60008060006060848603121561508457600080fd5b833561508f81614f5a565b9250602084013561509f81614f5a565b915060408401356150af81614f5a565b809150509250925092565b634e487b7160e01b600052604160045260246000fd5b604051601f8201601f1916810167ffffffffffffffff811182821017156150f9576150f96150ba565b604052919050565b600067ffffffffffffffff82111561511b5761511b6150ba565b5060051b60200190565b600082601f83011261513657600080fd5b8135602061514b61514683615101565b6150d0565b82815260059290921b8401810191818101908684111561516a57600080fd5b8286015b84811015615185578035835291830191830161516e565b509695505050505050565b600080604083850312156151a357600080fd5b823567ffffffffffffffff808211156151bb57600080fd5b6151c786838701615125565b935060208501359150808211156151dd57600080fd5b506151ea85828601615125565b9150509250929050565b6000806000806000806000806000806101408b8d03121561521457600080fd5b8a3561521f81614f5a565b995060208b013561522f81614f5a565b985060408b013561523f81614f5a565b975060608b013561524f81614f5a565b965060808b013561525f81614f5a565b999c989b50969995989760a0870135975060c08701359660e08101359650610100810135955061012001359350915050565b600060208083850312156152a457600080fd5b823567ffffffffffffffff8111156152bb57600080fd5b8301601f810185136152cc57600080fd5b80356152da61514682615101565b81815260059190911b820183019083810190878311156152f957600080fd5b928401925b82841015614e3357833561531181614f5a565b825292840192908401906152fe565b801515811461337a57600080fd5b60006020828403121561534057600080fd5b813561200781615320565b6020815260006120076020830184614f8c565b60008060006060848603121561537357600080fd5b83359250602084013561538581614f5a565b929592945050506040919091013590565b600080604083850312156153a957600080fd5b82356153b481614f5a565b915060208301356153c481614f5a565b809150509250929050565b600080604083850312156153e257600080fd5b82356153ed81614f5a565b915060208301356153c481615320565b6000806040838503121561541057600080fd5b823561541b81614f5a565b946020939093013593505050565b60008060006060848603121561543e57600080fd5b833561544981614f5a565b92506020840135915060408401356150af81615320565b6000806040838503121561547357600080fd5b823561541b81615320565b602080825282518282018190526000919060409081850190868401855b828110156154c957815180516001600160a01b0316855286015186850152928401929085019060010161549b565b5091979650505050505050565b600060608083018684526020868186015260408381870152828751808552608088019150838901945060005b8181101561552f578551805184528581015186850152840151848401529484019491860191600101615502565b50909a9950505050505050505050565b634e487b7160e01b600052603260045260246000fd5b634e487b7160e01b600052601160045260246000fd5b600060001982141561557f5761557f615555565b5060010190565b60008282101561559857615598615555565b500390565b634e487b7160e01b600052603160045260246000fd5b600082198211156155c6576155c6615555565b500190565b6020808252825482820181905260008481528281209092916040850190845b8181101561504a5783546001600160a01b0316835260019384019392850192016155ea565b600081600019048311821515161561562957615629615555565b500290565b60008261564b57634e487b7160e01b600052601260045260246000fd5b500490565b60006020828403121561566257600080fd5b5051919050565b6020808252825182820181905260009190848201906040850190845b8181101561504a5783516001600160a01b031683529284019291840191600101615685565b6000602082840312156156bc57600080fd5b815161200781615320565b60005b838110156156e25781810151838201526020016156ca565b83811115612dee5750506000910152565b600082516157058184602087016156c7565b9190910192915050565b602081526000825180602084015261572e8160408501602087016156c7565b601f01601f1916919091016040019291505056fea264697066735822122040d8ed936ebf548e1639c379eb52beaa235bc037445a72a97f1a6fcfda48458764736f6c634300080c0033",
  "devdoc": {
    "author": "Radiant",
    "details": "All function calls are currently implemented without side effects",
    "kind": "dev",
    "methods": {
      "claimBounty(address,bool)": {
        "details": "Remove expired locks",
        "params": {
          "_user": "address."
        }
      },
      "claimableRewards(address)": {
        "params": {
          "account": "for rewards"
        }
      },
      "earnedBalances(address)": {
        "details": "Earned balances may be withdrawn immediately for a 50% penalty.",
        "returns": {
          "earningsData": "which is an array of all infos",
          "total": "earnings",
          "unlocked": "earnings"
        }
      },
      "getRewardForDuration(address)": {
        "params": {
          "_rewardToken": "for the reward"
        }
      },
      "initialize(address,address,address,address,address,uint256,uint256,uint256,uint256,uint256)": {
        "details": "Constructor  First reward MUST be the RDNT token or things will break  related to the 50% penalty and distribution to locked balances.",
        "params": {
          "_lockDuration": "lock duration",
          "_rdntToken": "RDNT token address.",
          "_rewardsDuration": "set reward stream time.",
          "_rewardsLookback": "reward lookback"
        }
      },
      "lockedBalances(address)": {
        "returns": {
          "lockData": "which is an array of locks",
          "locked": "balance",
          "lockedWithMultiplier": "lockedWithMultiplier",
          "total": "balance of locks",
          "unlockable": "balance"
        }
      },
      "mint(address,uint256,bool)": {
        "details": "Minted tokens receive rewards normally but incur a 50% penalty when  withdrawn before vestDuration has passed."
      },
      "owner()": {
        "details": "Returns the address of the current owner."
      },
      "paused()": {
        "details": "Returns true if the contract is paused, and false otherwise."
      },
      "renounceOwnership()": {
        "details": "Leaves the contract without owner. It will not be possible to call `onlyOwner` functions anymore. Can only be called by the current owner. NOTE: Renouncing ownership will leave the contract without an owner, thereby removing any functionality that is only available to the owner."
      },
      "rewardPerToken(address)": {
        "details": "Reward is distributed only for locks.",
        "params": {
          "_rewardToken": "for reward"
        }
      },
      "setMinters(address[])": {
        "details": "Can be called only once"
      },
      "stake(uint256,address,uint256)": {
        "details": "Locked tokens cannot be withdrawn for defaultLockDuration and are eligible to receive rewards."
      },
      "transferOwnership(address)": {
        "details": "Transfers ownership of the contract to a new account (`newOwner`). Can only be called by the current owner."
      },
      "withdraw(uint256)": {
        "details": "First withdraws unlocked tokens, then earned tokens. Withdrawing earned tokens  incurs a 50% penalty which is distributed based on locked balances."
      },
      "withdrawableBalance(address)": {
        "details": "This is earnings, not locks."
      }
    },
    "title": "Multi Fee Distribution Contract",
    "version": 1
  },
  "userdoc": {
    "kind": "user",
    "methods": {
      "DEFAULT_LOCK_INDEX()": {
        "notice": "Default lock index"
      },
      "addReward(address)": {
        "notice": "Add a new reward token to be distributed to stakers."
      },
      "burn()": {
        "notice": "Proportion of burn amount"
      },
      "claimBounty(address,bool)": {
        "notice": "Claims bounty."
      },
      "claimableRewards(address)": {
        "notice": "Address and claimable amount of all reward tokens for the given account."
      },
      "daoTreasury()": {
        "notice": "DAO wallet"
      },
      "defaultLockDuration()": {
        "notice": "Duration of lock/earned penalty period, used for earnings"
      },
      "earnedBalances(address)": {
        "notice": "Earnings which is locked yet"
      },
      "exit(bool)": {
        "notice": "Withdraw full unlocked balance and earnings, optionally claim pending rewards."
      },
      "getAllRewards()": {
        "notice": "Claim all pending staking rewards."
      },
      "getReward(address[])": {
        "notice": "Claim all pending staking rewards."
      },
      "getRewardForDuration(address)": {
        "notice": "Reward amount of the duration."
      },
      "incentivesController()": {
        "notice": "Address of CIC contract"
      },
      "individualEarlyExit(bool,uint256)": {
        "notice": "Withdraw individual unlocked balance and earnings, optionally claim pending rewards."
      },
      "lastTimeRewardApplicable(address)": {
        "notice": "Returns reward applicable timestamp."
      },
      "lockInfo(address)": {
        "notice": "Returns all locks of a user."
      },
      "lockedBalances(address)": {
        "notice": "Information on a user's lockings"
      },
      "lockedSupply()": {
        "notice": "Total locked value"
      },
      "lockedSupplyWithMultiplier()": {
        "notice": "Total locked value in multipliers"
      },
      "middleFeeDistribution()": {
        "notice": "Address of Middle Fee Distribution Contract"
      },
      "mint(address,uint256,bool)": {
        "notice": "Add to earnings"
      },
      "minters(address)": {
        "notice": "Addresses approved to call mint"
      },
      "mintersAreSet()": {
        "notice": "Flag to prevent more minter addings"
      },
      "rdntToken()": {
        "notice": "Address of RDNT"
      },
      "recoverERC20(address,uint256)": {
        "notice": "Added to support recovering LP Rewards from other systems such as BAL to be distributed to holders."
      },
      "relock()": {
        "notice": "Withdraw and restake assets."
      },
      "rewardData(address)": {
        "notice": "Reward data per token"
      },
      "rewardPerToken(address)": {
        "notice": "Reward amount per token"
      },
      "rewardTokens(uint256)": {
        "notice": "Reward tokens being distributed"
      },
      "rewards(address,address)": {
        "notice": "user -> reward token -> amount; used to store reward amount"
      },
      "rewardsDuration()": {
        "notice": "Duration that rewards are streamed over"
      },
      "rewardsLookback()": {
        "notice": "Duration that rewards loop back"
      },
      "setAddresses(address,address,address)": {
        "notice": "Set CIC, MFD and Treasury."
      },
      "setDefaultRelockTypeIndex(uint256)": {
        "notice": "Set default lock type index for user relock."
      },
      "setLPToken(address)": {
        "notice": "Set LP token."
      },
      "setLockTypeInfo(uint256[],uint256[])": {
        "notice": "Add a new reward token to be distributed to stakers."
      },
      "setMinters(address[])": {
        "notice": "Set minters"
      },
      "setRelock(bool)": {
        "notice": "Set relock status"
      },
      "stake(uint256,address,uint256)": {
        "notice": "Stake tokens to receive rewards."
      },
      "stakingToken()": {
        "notice": "Address of LP token"
      },
      "startfleetTreasury()": {
        "notice": "treasury wallet"
      },
      "totalBalance(address)": {
        "notice": "Total balance of an account, including unlocked, locked and earned tokens."
      },
      "userRewardPerTokenPaid(address,address)": {
        "notice": "user -> reward token -> rpt; RPT for paid amount"
      },
      "vestDuration()": {
        "notice": "Duration of vesting RDNT"
      },
      "withdraw(uint256)": {
        "notice": "Withdraw tokens from earnings and unlocked."
      },
      "withdrawExpiredLocksFor(address)": {
        "notice": "Withdraw all currently locked tokens where the unlock time has passed."
      },
      "withdrawableBalance(address)": {
        "notice": "Final balance received and penalty balance paid by user upon calling exit."
      }
    },
    "version": 1
  },
  "storageLayout": {
    "storage": [
      {
        "astId": 138,
        "contract": "contracts/radiant/staking/MultiFeeDistribution.sol:MultiFeeDistribution",
        "label": "_initialized",
        "offset": 0,
        "slot": "0",
        "type": "t_uint8"
      },
      {
        "astId": 141,
        "contract": "contracts/radiant/staking/MultiFeeDistribution.sol:MultiFeeDistribution",
        "label": "_initializing",
        "offset": 1,
        "slot": "0",
        "type": "t_bool"
      },
      {
        "astId": 752,
        "contract": "contracts/radiant/staking/MultiFeeDistribution.sol:MultiFeeDistribution",
        "label": "__gap",
        "offset": 0,
        "slot": "1",
        "type": "t_array(t_uint256)50_storage"
      },
      {
        "astId": 321,
        "contract": "contracts/radiant/staking/MultiFeeDistribution.sol:MultiFeeDistribution",
        "label": "_paused",
        "offset": 0,
        "slot": "51",
        "type": "t_bool"
      },
      {
        "astId": 426,
        "contract": "contracts/radiant/staking/MultiFeeDistribution.sol:MultiFeeDistribution",
        "label": "__gap",
        "offset": 0,
        "slot": "52",
        "type": "t_array(t_uint256)49_storage"
      },
      {
        "astId": 10,
        "contract": "contracts/radiant/staking/MultiFeeDistribution.sol:MultiFeeDistribution",
        "label": "_owner",
        "offset": 0,
        "slot": "101",
        "type": "t_address"
      },
      {
        "astId": 130,
        "contract": "contracts/radiant/staking/MultiFeeDistribution.sol:MultiFeeDistribution",
        "label": "__gap",
        "offset": 0,
        "slot": "102",
        "type": "t_array(t_uint256)49_storage"
      },
      {
        "astId": 2457,
        "contract": "contracts/radiant/staking/MultiFeeDistribution.sol:MultiFeeDistribution",
        "label": "_priceProvider",
        "offset": 0,
        "slot": "151",
        "type": "t_address"
      },
      {
        "astId": 2469,
        "contract": "contracts/radiant/staking/MultiFeeDistribution.sol:MultiFeeDistribution",
        "label": "burn",
        "offset": 0,
        "slot": "152",
        "type": "t_uint256"
      },
      {
        "astId": 2472,
        "contract": "contracts/radiant/staking/MultiFeeDistribution.sol:MultiFeeDistribution",
        "label": "rewardsDuration",
        "offset": 0,
        "slot": "153",
        "type": "t_uint256"
      },
      {
        "astId": 2475,
        "contract": "contracts/radiant/staking/MultiFeeDistribution.sol:MultiFeeDistribution",
        "label": "rewardsLookback",
        "offset": 0,
        "slot": "154",
        "type": "t_uint256"
      },
      {
        "astId": 2482,
        "contract": "contracts/radiant/staking/MultiFeeDistribution.sol:MultiFeeDistribution",
        "label": "defaultLockDuration",
        "offset": 0,
        "slot": "155",
        "type": "t_uint256"
      },
      {
        "astId": 2485,
        "contract": "contracts/radiant/staking/MultiFeeDistribution.sol:MultiFeeDistribution",
        "label": "vestDuration",
        "offset": 0,
        "slot": "156",
        "type": "t_uint256"
      },
      {
        "astId": 2487,
        "contract": "contracts/radiant/staking/MultiFeeDistribution.sol:MultiFeeDistribution",
        "label": "rewardConverter",
        "offset": 0,
        "slot": "157",
        "type": "t_address"
      },
      {
        "astId": 2491,
        "contract": "contracts/radiant/staking/MultiFeeDistribution.sol:MultiFeeDistribution",
        "label": "middleFeeDistribution",
        "offset": 0,
        "slot": "158",
        "type": "t_contract(IMiddleFeeDistribution)2146"
      },
      {
        "astId": 2495,
        "contract": "contracts/radiant/staking/MultiFeeDistribution.sol:MultiFeeDistribution",
        "label": "incentivesController",
        "offset": 0,
        "slot": "159",
        "type": "t_contract(IChefIncentivesController)2044"
      },
      {
        "astId": 2500,
        "contract": "contracts/radiant/staking/MultiFeeDistribution.sol:MultiFeeDistribution",
        "label": "rdntToken",
        "offset": 0,
        "slot": "160",
        "type": "t_contract(IMintableToken)2175"
      },
      {
        "astId": 2504,
        "contract": "contracts/radiant/staking/MultiFeeDistribution.sol:MultiFeeDistribution",
        "label": "stakingToken",
        "offset": 0,
        "slot": "161",
        "type": "t_address"
      },
      {
        "astId": 2506,
        "contract": "contracts/radiant/staking/MultiFeeDistribution.sol:MultiFeeDistribution",
        "label": "lockZap",
        "offset": 0,
        "slot": "162",
        "type": "t_address"
      },
      {
        "astId": 2511,
        "contract": "contracts/radiant/staking/MultiFeeDistribution.sol:MultiFeeDistribution",
        "label": "balances",
        "offset": 0,
        "slot": "163",
        "type": "t_mapping(t_address,t_struct(Balances)2415_storage)"
      },
      {
        "astId": 2517,
        "contract": "contracts/radiant/staking/MultiFeeDistribution.sol:MultiFeeDistribution",
        "label": "userLocks",
        "offset": 0,
        "slot": "164",
        "type": "t_mapping(t_address,t_array(t_struct(LockedBalance)2386_storage)dyn_storage)"
      },
      {
        "astId": 2523,
        "contract": "contracts/radiant/staking/MultiFeeDistribution.sol:MultiFeeDistribution",
        "label": "userEarnings",
        "offset": 0,
        "slot": "165",
        "type": "t_mapping(t_address,t_array(t_struct(LockedBalance)2386_storage)dyn_storage)"
      },
      {
        "astId": 2528,
        "contract": "contracts/radiant/staking/MultiFeeDistribution.sol:MultiFeeDistribution",
        "label": "autocompoundEnabled",
        "offset": 0,
        "slot": "166",
        "type": "t_mapping(t_address,t_bool)"
      },
      {
        "astId": 2532,
        "contract": "contracts/radiant/staking/MultiFeeDistribution.sol:MultiFeeDistribution",
        "label": "lastAutocompound",
        "offset": 0,
        "slot": "167",
        "type": "t_mapping(t_address,t_uint256)"
      },
      {
        "astId": 2535,
        "contract": "contracts/radiant/staking/MultiFeeDistribution.sol:MultiFeeDistribution",
        "label": "lockedSupply",
        "offset": 0,
        "slot": "168",
        "type": "t_uint256"
      },
      {
        "astId": 2538,
        "contract": "contracts/radiant/staking/MultiFeeDistribution.sol:MultiFeeDistribution",
        "label": "lockedSupplyWithMultiplier",
        "offset": 0,
        "slot": "169",
        "type": "t_uint256"
      },
      {
        "astId": 2541,
        "contract": "contracts/radiant/staking/MultiFeeDistribution.sol:MultiFeeDistribution",
        "label": "lockPeriod",
        "offset": 0,
        "slot": "170",
        "type": "t_array(t_uint256)dyn_storage"
      },
      {
        "astId": 2544,
        "contract": "contracts/radiant/staking/MultiFeeDistribution.sol:MultiFeeDistribution",
        "label": "rewardMultipliers",
        "offset": 0,
        "slot": "171",
        "type": "t_array(t_uint256)dyn_storage"
      },
      {
        "astId": 2548,
        "contract": "contracts/radiant/staking/MultiFeeDistribution.sol:MultiFeeDistribution",
        "label": "rewardTokens",
        "offset": 0,
        "slot": "172",
        "type": "t_array(t_address)dyn_storage"
      },
      {
        "astId": 2554,
        "contract": "contracts/radiant/staking/MultiFeeDistribution.sol:MultiFeeDistribution",
        "label": "rewardData",
        "offset": 0,
        "slot": "173",
        "type": "t_mapping(t_address,t_struct(Reward)2404_storage)"
      },
      {
        "astId": 2561,
        "contract": "contracts/radiant/staking/MultiFeeDistribution.sol:MultiFeeDistribution",
        "label": "userRewardPerTokenPaid",
        "offset": 0,
        "slot": "174",
        "type": "t_mapping(t_address,t_mapping(t_address,t_uint256))"
      },
      {
        "astId": 2568,
        "contract": "contracts/radiant/staking/MultiFeeDistribution.sol:MultiFeeDistribution",
        "label": "rewards",
        "offset": 0,
        "slot": "175",
        "type": "t_mapping(t_address,t_mapping(t_address,t_uint256))"
      },
      {
        "astId": 2572,
        "contract": "contracts/radiant/staking/MultiFeeDistribution.sol:MultiFeeDistribution",
        "label": "daoTreasury",
        "offset": 0,
        "slot": "176",
        "type": "t_address"
      },
      {
        "astId": 2575,
        "contract": "contracts/radiant/staking/MultiFeeDistribution.sol:MultiFeeDistribution",
        "label": "startfleetTreasury",
        "offset": 0,
        "slot": "177",
        "type": "t_address"
      },
      {
        "astId": 2580,
        "contract": "contracts/radiant/staking/MultiFeeDistribution.sol:MultiFeeDistribution",
        "label": "minters",
        "offset": 0,
        "slot": "178",
        "type": "t_mapping(t_address,t_bool)"
      },
      {
        "astId": 2585,
        "contract": "contracts/radiant/staking/MultiFeeDistribution.sol:MultiFeeDistribution",
        "label": "autoRelockDisabled",
        "offset": 0,
        "slot": "179",
        "type": "t_mapping(t_address,t_bool)"
      },
      {
        "astId": 2590,
        "contract": "contracts/radiant/staking/MultiFeeDistribution.sol:MultiFeeDistribution",
        "label": "defaultLockIndex",
        "offset": 0,
        "slot": "180",
        "type": "t_mapping(t_address,t_uint256)"
      },
      {
        "astId": 2593,
        "contract": "contracts/radiant/staking/MultiFeeDistribution.sol:MultiFeeDistribution",
        "label": "mintersAreSet",
        "offset": 0,
        "slot": "181",
        "type": "t_bool"
      },
      {
        "astId": 2596,
        "contract": "contracts/radiant/staking/MultiFeeDistribution.sol:MultiFeeDistribution",
        "label": "userlist",
        "offset": 1,
        "slot": "181",
        "type": "t_contract(ILockerList)2104"
      },
      {
        "astId": 2600,
        "contract": "contracts/radiant/staking/MultiFeeDistribution.sol:MultiFeeDistribution",
        "label": "lastClaimTime",
        "offset": 0,
        "slot": "182",
        "type": "t_mapping(t_address,t_uint256)"
      },
      {
        "astId": 2602,
        "contract": "contracts/radiant/staking/MultiFeeDistribution.sol:MultiFeeDistribution",
        "label": "bountyManager",
        "offset": 0,
        "slot": "183",
        "type": "t_address"
      }
    ],
    "types": {
      "t_address": {
        "encoding": "inplace",
        "label": "address",
        "numberOfBytes": "20"
      },
      "t_array(t_address)dyn_storage": {
        "base": "t_address",
        "encoding": "dynamic_array",
        "label": "address[]",
        "numberOfBytes": "32"
      },
      "t_array(t_struct(LockedBalance)2386_storage)dyn_storage": {
        "base": "t_struct(LockedBalance)2386_storage",
        "encoding": "dynamic_array",
        "label": "struct LockedBalance[]",
        "numberOfBytes": "32"
      },
      "t_array(t_uint256)49_storage": {
        "base": "t_uint256",
        "encoding": "inplace",
        "label": "uint256[49]",
        "numberOfBytes": "1568"
      },
      "t_array(t_uint256)50_storage": {
        "base": "t_uint256",
        "encoding": "inplace",
        "label": "uint256[50]",
        "numberOfBytes": "1600"
      },
      "t_array(t_uint256)dyn_storage": {
        "base": "t_uint256",
        "encoding": "dynamic_array",
        "label": "uint256[]",
        "numberOfBytes": "32"
      },
      "t_bool": {
        "encoding": "inplace",
        "label": "bool",
        "numberOfBytes": "1"
      },
      "t_contract(IChefIncentivesController)2044": {
        "encoding": "inplace",
        "label": "contract IChefIncentivesController",
        "numberOfBytes": "20"
      },
      "t_contract(ILockerList)2104": {
        "encoding": "inplace",
        "label": "contract ILockerList",
        "numberOfBytes": "20"
      },
      "t_contract(IMiddleFeeDistribution)2146": {
        "encoding": "inplace",
        "label": "contract IMiddleFeeDistribution",
        "numberOfBytes": "20"
      },
      "t_contract(IMintableToken)2175": {
        "encoding": "inplace",
        "label": "contract IMintableToken",
        "numberOfBytes": "20"
      },
      "t_mapping(t_address,t_array(t_struct(LockedBalance)2386_storage)dyn_storage)": {
        "encoding": "mapping",
        "key": "t_address",
        "label": "mapping(address => struct LockedBalance[])",
        "numberOfBytes": "32",
        "value": "t_array(t_struct(LockedBalance)2386_storage)dyn_storage"
      },
      "t_mapping(t_address,t_bool)": {
        "encoding": "mapping",
        "key": "t_address",
        "label": "mapping(address => bool)",
        "numberOfBytes": "32",
        "value": "t_bool"
      },
      "t_mapping(t_address,t_mapping(t_address,t_uint256))": {
        "encoding": "mapping",
        "key": "t_address",
        "label": "mapping(address => mapping(address => uint256))",
        "numberOfBytes": "32",
        "value": "t_mapping(t_address,t_uint256)"
      },
      "t_mapping(t_address,t_struct(Balances)2415_storage)": {
        "encoding": "mapping",
        "key": "t_address",
        "label": "mapping(address => struct Balances)",
        "numberOfBytes": "32",
        "value": "t_struct(Balances)2415_storage"
      },
      "t_mapping(t_address,t_struct(Reward)2404_storage)": {
        "encoding": "mapping",
        "key": "t_address",
        "label": "mapping(address => struct Reward)",
        "numberOfBytes": "32",
        "value": "t_struct(Reward)2404_storage"
      },
      "t_mapping(t_address,t_uint256)": {
        "encoding": "mapping",
        "key": "t_address",
        "label": "mapping(address => uint256)",
        "numberOfBytes": "32",
        "value": "t_uint256"
      },
      "t_struct(Balances)2415_storage": {
        "encoding": "inplace",
        "label": "struct Balances",
        "members": [
          {
            "astId": 2406,
            "contract": "contracts/radiant/staking/MultiFeeDistribution.sol:MultiFeeDistribution",
            "label": "total",
            "offset": 0,
            "slot": "0",
            "type": "t_uint256"
          },
          {
            "astId": 2408,
            "contract": "contracts/radiant/staking/MultiFeeDistribution.sol:MultiFeeDistribution",
            "label": "unlocked",
            "offset": 0,
            "slot": "1",
            "type": "t_uint256"
          },
          {
            "astId": 2410,
            "contract": "contracts/radiant/staking/MultiFeeDistribution.sol:MultiFeeDistribution",
            "label": "locked",
            "offset": 0,
            "slot": "2",
            "type": "t_uint256"
          },
          {
            "astId": 2412,
            "contract": "contracts/radiant/staking/MultiFeeDistribution.sol:MultiFeeDistribution",
            "label": "lockedWithMultiplier",
            "offset": 0,
            "slot": "3",
            "type": "t_uint256"
          },
          {
            "astId": 2414,
            "contract": "contracts/radiant/staking/MultiFeeDistribution.sol:MultiFeeDistribution",
            "label": "earned",
            "offset": 0,
            "slot": "4",
            "type": "t_uint256"
          }
        ],
        "numberOfBytes": "160"
      },
      "t_struct(LockedBalance)2386_storage": {
        "encoding": "inplace",
        "label": "struct LockedBalance",
        "members": [
          {
            "astId": 2379,
            "contract": "contracts/radiant/staking/MultiFeeDistribution.sol:MultiFeeDistribution",
            "label": "amount",
            "offset": 0,
            "slot": "0",
            "type": "t_uint256"
          },
          {
            "astId": 2381,
            "contract": "contracts/radiant/staking/MultiFeeDistribution.sol:MultiFeeDistribution",
            "label": "unlockTime",
            "offset": 0,
            "slot": "1",
            "type": "t_uint256"
          },
          {
            "astId": 2383,
            "contract": "contracts/radiant/staking/MultiFeeDistribution.sol:MultiFeeDistribution",
            "label": "multiplier",
            "offset": 0,
            "slot": "2",
            "type": "t_uint256"
          },
          {
            "astId": 2385,
            "contract": "contracts/radiant/staking/MultiFeeDistribution.sol:MultiFeeDistribution",
            "label": "duration",
            "offset": 0,
            "slot": "3",
            "type": "t_uint256"
          }
        ],
        "numberOfBytes": "128"
      },
      "t_struct(Reward)2404_storage": {
        "encoding": "inplace",
        "label": "struct Reward",
        "members": [
          {
            "astId": 2395,
            "contract": "contracts/radiant/staking/MultiFeeDistribution.sol:MultiFeeDistribution",
            "label": "periodFinish",
            "offset": 0,
            "slot": "0",
            "type": "t_uint256"
          },
          {
            "astId": 2397,
            "contract": "contracts/radiant/staking/MultiFeeDistribution.sol:MultiFeeDistribution",
            "label": "rewardPerSecond",
            "offset": 0,
            "slot": "1",
            "type": "t_uint256"
          },
          {
            "astId": 2399,
            "contract": "contracts/radiant/staking/MultiFeeDistribution.sol:MultiFeeDistribution",
            "label": "lastUpdateTime",
            "offset": 0,
            "slot": "2",
            "type": "t_uint256"
          },
          {
            "astId": 2401,
            "contract": "contracts/radiant/staking/MultiFeeDistribution.sol:MultiFeeDistribution",
            "label": "rewardPerTokenStored",
            "offset": 0,
            "slot": "3",
            "type": "t_uint256"
          },
          {
            "astId": 2403,
            "contract": "contracts/radiant/staking/MultiFeeDistribution.sol:MultiFeeDistribution",
            "label": "balance",
            "offset": 0,
            "slot": "4",
            "type": "t_uint256"
          }
        ],
        "numberOfBytes": "160"
      },
      "t_uint256": {
        "encoding": "inplace",
        "label": "uint256",
        "numberOfBytes": "32"
      },
      "t_uint8": {
        "encoding": "inplace",
        "label": "uint8",
        "numberOfBytes": "1"
      }
    }
  }
}