{
  "address": "0x75f6b5f1338F64D7471b7E9B1cC35C26C73A4D89",
  "abi": [
    {
      "anonymous": false,
      "inputs": [
        {
          "indexed": true,
          "internalType": "address",
          "name": "previousOwner",
          "type": "address"
        },
        {
          "indexed": true,
          "internalType": "address",
          "name": "newOwner",
          "type": "address"
        }
      ],
      "name": "OwnershipTransferred",
      "type": "event"
    },
    {
      "inputs": [],
      "name": "baseTokenPriceInUsdProxyAggregator",
      "outputs": [
        {
          "internalType": "contract IChainlinkAggregator",
          "name": "",
          "type": "address"
        }
      ],
      "stateMutability": "view",
      "type": "function"
    },
    {
      "inputs": [],
      "name": "decimals",
      "outputs": [
        {
          "internalType": "uint256",
          "name": "",
          "type": "uint256"
        }
      ],
      "stateMutability": "pure",
      "type": "function"
    },
    {
      "inputs": [],
      "name": "eligibilityProvider",
      "outputs": [
        {
          "internalType": "contract IEligibilityDataProvider",
          "name": "",
          "type": "address"
        }
      ],
      "stateMutability": "view",
      "type": "function"
    },
    {
      "inputs": [],
      "name": "getLpTokenAddress",
      "outputs": [
        {
          "internalType": "address",
          "name": "",
          "type": "address"
        }
      ],
      "stateMutability": "view",
      "type": "function"
    },
    {
      "inputs": [],
      "name": "getLpTokenPrice",
      "outputs": [
        {
          "internalType": "uint256",
          "name": "",
          "type": "uint256"
        }
      ],
      "stateMutability": "view",
      "type": "function"
    },
    {
      "inputs": [],
      "name": "getLpTokenPriceUsd",
      "outputs": [
        {
          "internalType": "uint256",
          "name": "price",
          "type": "uint256"
        }
      ],
      "stateMutability": "view",
      "type": "function"
    },
    {
      "inputs": [],
      "name": "getTokenPrice",
      "outputs": [
        {
          "internalType": "uint256",
          "name": "priceInEth",
          "type": "uint256"
        }
      ],
      "stateMutability": "view",
      "type": "function"
    },
    {
      "inputs": [],
      "name": "getTokenPriceUsd",
      "outputs": [
        {
          "internalType": "uint256",
          "name": "price",
          "type": "uint256"
        }
      ],
      "stateMutability": "view",
      "type": "function"
    },
    {
      "inputs": [
        {
          "internalType": "contract IChainlinkAggregator",
          "name": "_baseTokenPriceInUsdProxyAggregator",
          "type": "address"
        },
        {
          "internalType": "contract IPoolHelper",
          "name": "_poolHelper",
          "type": "address"
        }
      ],
      "name": "initialize",
      "outputs": [],
      "stateMutability": "nonpayable",
      "type": "function"
    },
    {
      "inputs": [],
      "name": "oracle",
      "outputs": [
        {
          "internalType": "contract IBaseOracle",
          "name": "",
          "type": "address"
        }
      ],
      "stateMutability": "view",
      "type": "function"
    },
    {
      "inputs": [],
      "name": "owner",
      "outputs": [
        {
          "internalType": "address",
          "name": "",
          "type": "address"
        }
      ],
      "stateMutability": "view",
      "type": "function"
    },
    {
      "inputs": [],
      "name": "poolHelper",
      "outputs": [
        {
          "internalType": "contract IPoolHelper",
          "name": "",
          "type": "address"
        }
      ],
      "stateMutability": "view",
      "type": "function"
    },
    {
      "inputs": [],
      "name": "renounceOwnership",
      "outputs": [],
      "stateMutability": "nonpayable",
      "type": "function"
    },
    {
      "inputs": [
        {
          "internalType": "address",
          "name": "_baseTokenPriceInUsdProxyAggregator",
          "type": "address"
        }
      ],
      "name": "setAggregator",
      "outputs": [],
      "stateMutability": "nonpayable",
      "type": "function"
    },
    {
      "inputs": [
        {
          "internalType": "address",
          "name": "_newOracle",
          "type": "address"
        }
      ],
      "name": "setOracle",
      "outputs": [],
      "stateMutability": "nonpayable",
      "type": "function"
    },
    {
      "inputs": [
        {
          "internalType": "address",
          "name": "_poolHelper",
          "type": "address"
        }
      ],
      "name": "setPoolHelper",
      "outputs": [],
      "stateMutability": "nonpayable",
      "type": "function"
    },
    {
      "inputs": [
        {
          "internalType": "bool",
          "name": "_usePool",
          "type": "bool"
        }
      ],
      "name": "setUsePool",
      "outputs": [],
      "stateMutability": "nonpayable",
      "type": "function"
    },
    {
      "inputs": [
        {
          "internalType": "address",
          "name": "newOwner",
          "type": "address"
        }
      ],
      "name": "transferOwnership",
      "outputs": [],
      "stateMutability": "nonpayable",
      "type": "function"
    },
    {
      "inputs": [],
      "name": "update",
      "outputs": [],
      "stateMutability": "nonpayable",
      "type": "function"
    }
  ],
  "transactionHash": "0x334262204b6646e1d52f26160abd6962f553391c0092879effefbaa46dcf2e17",
  "args": [],
  "numDeployments": 1,
  "solcInputHash": "f54c80fadb1017091d92ff7e19a408d3",
  "bytecode": "0x608060405234801561001057600080fd5b50610fd5806100206000396000f3fe608060405234801561001057600080fd5b50600436106101515760003560e01c80637adbf973116100cd578063ad8cb7f511610081578063f2fde38b11610066578063f2fde38b14610254578063f857da9d14610267578063f9120af61461027a57600080fd5b8063ad8cb7f51461022e578063cf811d2a1461024157600080fd5b80638c237c69116100b25780638c237c691461020d5780638da5cb5b14610215578063a2e620451461022657600080fd5b80637adbf973146101e75780637dc0d1d0146101fa57600080fd5b806355ac8d30116101245780636e9a05c5116101095780636e9a05c5146101cf5780636f5cdb6c146101d7578063715018a6146101df57600080fd5b806355ac8d301461019c5780636d2ed184146101c757600080fd5b80632cd3547514610156578063313ce5671461016b578063485cc955146101815780634b94f50e14610194575b600080fd5b610169610164366004610e7c565b61028d565b005b60085b6040519081526020015b60405180910390f35b61016961018f366004610e99565b61035e565b61016e610523565b6098546101af906001600160a01b031681565b6040516001600160a01b039091168152602001610178565b61016e610607565b61016e610792565b61016e61082c565b6101696108c4565b6101696101f5366004610e7c565b61092a565b609a546101af906001600160a01b031681565b6101af6109b9565b6065546001600160a01b03166101af565b610169610a40565b61016961023c366004610ee0565b610b3b565b6097546101af906001600160a01b031681565b610169610262366004610e7c565b610bb3565b6099546101af906001600160a01b031681565b610169610288366004610e7c565b610c92565b6065546001600160a01b031633146102ec5760405162461bcd60e51b815260206004820181905260248201527f4f776e61626c653a2063616c6c6572206973206e6f7420746865206f776e657260448201526064015b60405180910390fd5b609880546001600160a01b0319166001600160a01b03831617905561030f61082c565b61035b5760405162461bcd60e51b815260206004820152600e60248201527f696e76616c6964206f7261636c6500000000000000000000000000000000000060448201526064016102e3565b50565b600054610100900460ff16806103735750303b155b80610381575060005460ff16155b6103f35760405162461bcd60e51b815260206004820152602e60248201527f436f6e747261637420696e7374616e63652068617320616c726561647920626560448201527f656e20696e697469616c697a656400000000000000000000000000000000000060648201526084016102e3565b600054610100900460ff16158015610415576000805461ffff19166101011790555b6001600160a01b03831661046b5760405162461bcd60e51b815260206004820152601360248201527f4e6f7420612076616c696420616464726573730000000000000000000000000060448201526064016102e3565b6001600160a01b0382166104c15760405162461bcd60e51b815260206004820152601360248201527f4e6f7420612076616c696420616464726573730000000000000000000000000060448201526064016102e3565b6104c9610d0f565b609880546001600160a01b038085166001600160a01b0319928316179092556097805492861692909116919091179055609a805460ff60a01b1916600160a01b179055801561051e576000805461ff00191690555b505050565b609a54600090600160a01b900460ff16156105b457609860009054906101000a90046001600160a01b03166001600160a01b03166398d5fdca6040518163ffffffff1660e01b8152600401602060405180830381865afa15801561058b573d6000803e3d6000fd5b505050506040513d601f19601f820116820180604052508101906105af9190610efd565b905090565b609a60009054906101000a90046001600160a01b03166001600160a01b031663251cdcd86040518163ffffffff1660e01b8152600401602060405180830381865afa15801561058b573d6000803e3d6000fd5b609a54600090600160a01b900460ff161561073f57609754604080517f50d25bcd00000000000000000000000000000000000000000000000000000000815290516000926001600160a01b0316916350d25bcd9160048083019260209291908290030181865afa15801561067f573d6000803e3d6000fd5b505050506040513d601f19601f820116820180604052508101906106a39190610efd565b90506000609860009054906101000a90046001600160a01b03166001600160a01b03166398d5fdca6040518163ffffffff1660e01b8152600401602060405180830381865afa1580156106fa573d6000803e3d6000fd5b505050506040513d601f19601f8201168201806040525081019061071e9190610efd565b90506107386305f5e1006107328385610d82565b90610d95565b9250505090565b609a60009054906101000a90046001600160a01b03166001600160a01b03166350d25bcd6040518163ffffffff1660e01b8152600401602060405180830381865afa15801561058b573d6000803e3d6000fd5b60008061079d61082c565b90506000609760009054906101000a90046001600160a01b03166001600160a01b03166350d25bcd6040518163ffffffff1660e01b8152600401602060405180830381865afa1580156107f4573d6000803e3d6000fd5b505050506040513d601f19601f820116820180604052508101906108189190610efd565b90506107386305f5e1006107328484610d82565b600080610837610523565b6098546040517fe28861fa000000000000000000000000000000000000000000000000000000008152600481018390529192506001600160a01b03169063e28861fa90602401602060405180830381865afa15801561089a573d6000803e3d6000fd5b505050506040513d601f19601f820116820180604052508101906108be9190610efd565b91505090565b6065546001600160a01b0316331461091e5760405162461bcd60e51b815260206004820181905260248201527f4f776e61626c653a2063616c6c6572206973206e6f7420746865206f776e657260448201526064016102e3565b6109286000610da1565b565b6065546001600160a01b031633146109845760405162461bcd60e51b815260206004820181905260248201527f4f776e61626c653a2063616c6c6572206973206e6f7420746865206f776e657260448201526064016102e3565b6001600160a01b03811661099757600080fd5b609a80546001600160a01b0319166001600160a01b0392909216919091179055565b609854604080517f439e501600000000000000000000000000000000000000000000000000000000815290516000926001600160a01b03169163439e50169160048083019260209291908290030181865afa158015610a1c573d6000803e3d6000fd5b505050506040513d601f19601f820116820180604052508101906105af9190610f16565b609a546001600160a01b031615801590610acc5750609a60009054906101000a90046001600160a01b03166001600160a01b031663a17a26856040518163ffffffff1660e01b8152600401602060405180830381865afa158015610aa8573d6000803e3d6000fd5b505050506040513d601f19601f82011682018060405250810190610acc9190610f33565b1561092857609a60009054906101000a90046001600160a01b03166001600160a01b031663a2e620456040518163ffffffff1660e01b8152600401600060405180830381600087803b158015610b2157600080fd5b505af1158015610b35573d6000803e3d6000fd5b50505050565b6065546001600160a01b03163314610b955760405162461bcd60e51b815260206004820181905260248201527f4f776e61626c653a2063616c6c6572206973206e6f7420746865206f776e657260448201526064016102e3565b609a8054911515600160a01b0260ff60a01b19909216919091179055565b6065546001600160a01b03163314610c0d5760405162461bcd60e51b815260206004820181905260248201527f4f776e61626c653a2063616c6c6572206973206e6f7420746865206f776e657260448201526064016102e3565b6001600160a01b038116610c895760405162461bcd60e51b815260206004820152602660248201527f4f776e61626c653a206e6577206f776e657220697320746865207a65726f206160448201527f646472657373000000000000000000000000000000000000000000000000000060648201526084016102e3565b61035b81610da1565b6065546001600160a01b03163314610cec5760405162461bcd60e51b815260206004820181905260248201527f4f776e61626c653a2063616c6c6572206973206e6f7420746865206f776e657260448201526064016102e3565b609780546001600160a01b0319166001600160a01b03831617905561030f610792565b600054610100900460ff16610d7a5760405162461bcd60e51b815260206004820152602b60248201527f496e697469616c697a61626c653a20636f6e7472616374206973206e6f74206960448201526a6e697469616c697a696e6760a81b60648201526084016102e3565b610928610df3565b6000610d8e8284610f50565b9392505050565b6000610d8e8284610f7d565b606580546001600160a01b038381166001600160a01b0319831681179093556040519116919082907f8be0079c531659141344cd1fd0a4f28419497f9722a3daafe3b4186f6b6457e090600090a35050565b600054610100900460ff16610e5e5760405162461bcd60e51b815260206004820152602b60248201527f496e697469616c697a61626c653a20636f6e7472616374206973206e6f74206960448201526a6e697469616c697a696e6760a81b60648201526084016102e3565b61092833610da1565b6001600160a01b038116811461035b57600080fd5b600060208284031215610e8e57600080fd5b8135610d8e81610e67565b60008060408385031215610eac57600080fd5b8235610eb781610e67565b91506020830135610ec781610e67565b809150509250929050565b801515811461035b57600080fd5b600060208284031215610ef257600080fd5b8135610d8e81610ed2565b600060208284031215610f0f57600080fd5b5051919050565b600060208284031215610f2857600080fd5b8151610d8e81610e67565b600060208284031215610f4557600080fd5b8151610d8e81610ed2565b6000816000190483118215151615610f7857634e487b7160e01b600052601160045260246000fd5b500290565b600082610f9a57634e487b7160e01b600052601260045260246000fd5b50049056fea2646970667358221220d2698b5453b4a6a99abffcf84394ce029bae872b36ca705f14324d2c816d453264736f6c634300080c0033",
  "devdoc": {
    "author": "Radiant",
    "details": "All function calls are currently implemented without side effects",
    "kind": "dev",
    "methods": {
      "initialize(address,address)": {
        "params": {
          "_baseTokenPriceInUsdProxyAggregator": "Chainlink aggregator for USD price of base token",
          "_poolHelper": "Pool helper contract - Uniswap/Balancer"
        }
      }
    },
    "title": "PriceProvider Contract",
    "version": 1
  },
  "userdoc": {
    "kind": "user",
    "methods": {
      "baseTokenPriceInUsdProxyAggregator()": {
        "notice": "Chainlink aggregator for USD price of base token"
      },
      "decimals()": {
        "notice": "Returns decimals of price."
      },
      "eligibilityProvider()": {
        "notice": "Eligibility data provider contract"
      },
      "getLpTokenAddress()": {
        "notice": "Returns lp token address."
      },
      "getLpTokenPrice()": {
        "notice": "Returns lp token price in ETH."
      },
      "getLpTokenPriceUsd()": {
        "notice": "Returns lp token price in USD."
      },
      "getTokenPrice()": {
        "notice": "Returns the latest price in eth."
      },
      "getTokenPriceUsd()": {
        "notice": "Returns the latest price in USD."
      },
      "initialize(address,address)": {
        "notice": "Initializer"
      },
      "oracle()": {
        "notice": "Base oracle contract"
      },
      "poolHelper()": {
        "notice": "Pool helper contract - Uniswap/Balancer"
      },
      "update()": {
        "notice": "Update oracles."
      }
    },
    "version": 1
  },
  "storageLayout": {
    "storage": [
      {
        "astId": 17153,
        "contract": "contracts/radiant/oracles/PriceProvider.sol:PriceProvider",
        "label": "initialized",
        "offset": 0,
        "slot": "0",
        "type": "t_bool"
      },
      {
        "astId": 17156,
        "contract": "contracts/radiant/oracles/PriceProvider.sol:PriceProvider",
        "label": "initializing",
        "offset": 1,
        "slot": "0",
        "type": "t_bool"
      },
      {
        "astId": 17223,
        "contract": "contracts/radiant/oracles/PriceProvider.sol:PriceProvider",
        "label": "______gap",
        "offset": 0,
        "slot": "1",
        "type": "t_array(t_uint256)50_storage"
      },
      {
        "astId": 17146,
        "contract": "contracts/radiant/oracles/PriceProvider.sol:PriceProvider",
        "label": "__gap",
        "offset": 0,
        "slot": "51",
        "type": "t_array(t_uint256)50_storage"
      },
      {
        "astId": 17368,
        "contract": "contracts/radiant/oracles/PriceProvider.sol:PriceProvider",
        "label": "_owner",
        "offset": 0,
        "slot": "101",
        "type": "t_address"
      },
      {
        "astId": 17473,
        "contract": "contracts/radiant/oracles/PriceProvider.sol:PriceProvider",
        "label": "__gap",
        "offset": 0,
        "slot": "102",
        "type": "t_array(t_uint256)49_storage"
      },
      {
        "astId": 48373,
        "contract": "contracts/radiant/oracles/PriceProvider.sol:PriceProvider",
        "label": "baseTokenPriceInUsdProxyAggregator",
        "offset": 0,
        "slot": "151",
        "type": "t_contract(IChainlinkAggregator)21583"
      },
      {
        "astId": 48377,
        "contract": "contracts/radiant/oracles/PriceProvider.sol:PriceProvider",
        "label": "poolHelper",
        "offset": 0,
        "slot": "152",
        "type": "t_contract(IPoolHelper)23457"
      },
      {
        "astId": 48381,
        "contract": "contracts/radiant/oracles/PriceProvider.sol:PriceProvider",
        "label": "eligibilityProvider",
        "offset": 0,
        "slot": "153",
        "type": "t_contract(IEligibilityDataProvider)21872"
      },
      {
        "astId": 48385,
        "contract": "contracts/radiant/oracles/PriceProvider.sol:PriceProvider",
        "label": "oracle",
        "offset": 0,
        "slot": "154",
        "type": "t_contract(IBaseOracle)21552"
      },
      {
        "astId": 48387,
        "contract": "contracts/radiant/oracles/PriceProvider.sol:PriceProvider",
        "label": "usePool",
        "offset": 20,
        "slot": "154",
        "type": "t_bool"
      }
    ],
    "types": {
      "t_address": {
        "encoding": "inplace",
        "label": "address",
        "numberOfBytes": "20"
      },
      "t_array(t_uint256)49_storage": {
        "base": "t_uint256",
        "encoding": "inplace",
        "label": "uint256[49]",
        "numberOfBytes": "1568"
      },
      "t_array(t_uint256)50_storage": {
        "base": "t_uint256",
        "encoding": "inplace",
        "label": "uint256[50]",
        "numberOfBytes": "1600"
      },
      "t_bool": {
        "encoding": "inplace",
        "label": "bool",
        "numberOfBytes": "1"
      },
      "t_contract(IBaseOracle)21552": {
        "encoding": "inplace",
        "label": "contract IBaseOracle",
        "numberOfBytes": "20"
      },
      "t_contract(IChainlinkAggregator)21583": {
        "encoding": "inplace",
        "label": "contract IChainlinkAggregator",
        "numberOfBytes": "20"
      },
      "t_contract(IEligibilityDataProvider)21872": {
        "encoding": "inplace",
        "label": "contract IEligibilityDataProvider",
        "numberOfBytes": "20"
      },
      "t_contract(IPoolHelper)23457": {
        "encoding": "inplace",
        "label": "contract IPoolHelper",
        "numberOfBytes": "20"
      },
      "t_uint256": {
        "encoding": "inplace",
        "label": "uint256",
        "numberOfBytes": "32"
      }
    }
  }
}