{
  "address": "0xD9193B0C0cB304cec2C027aAe8f43CE2f09394EF",
  "abi": [
    {
      "anonymous": false,
      "inputs": [
        {
          "indexed": true,
          "internalType": "address",
          "name": "previousOwner",
          "type": "address"
        },
        {
          "indexed": true,
          "internalType": "address",
          "name": "newOwner",
          "type": "address"
        }
      ],
      "name": "OwnershipTransferred",
      "type": "event"
    },
    {
      "inputs": [],
      "name": "allowStaleConsults",
      "outputs": [
        {
          "internalType": "bool",
          "name": "",
          "type": "bool"
        }
      ],
      "stateMutability": "view",
      "type": "function"
    },
    {
      "inputs": [],
      "name": "blockTimestampLast",
      "outputs": [
        {
          "internalType": "uint32",
          "name": "",
          "type": "uint32"
        }
      ],
      "stateMutability": "view",
      "type": "function"
    },
    {
      "inputs": [],
      "name": "canUpdate",
      "outputs": [
        {
          "internalType": "bool",
          "name": "",
          "type": "bool"
        }
      ],
      "stateMutability": "view",
      "type": "function"
    },
    {
      "inputs": [],
      "name": "consult",
      "outputs": [
        {
          "internalType": "uint256",
          "name": "amountOut",
          "type": "uint256"
        }
      ],
      "stateMutability": "view",
      "type": "function"
    },
    {
      "inputs": [],
      "name": "consultLeniency",
      "outputs": [
        {
          "internalType": "uint256",
          "name": "",
          "type": "uint256"
        }
      ],
      "stateMutability": "view",
      "type": "function"
    },
    {
      "inputs": [
        {
          "internalType": "bool",
          "name": "_enabled",
          "type": "bool"
        }
      ],
      "name": "enableFallback",
      "outputs": [],
      "stateMutability": "nonpayable",
      "type": "function"
    },
    {
      "inputs": [],
      "name": "ethChainlinkFeed",
      "outputs": [
        {
          "internalType": "address",
          "name": "",
          "type": "address"
        }
      ],
      "stateMutability": "view",
      "type": "function"
    },
    {
      "inputs": [],
      "name": "fallbackEnabled",
      "outputs": [
        {
          "internalType": "bool",
          "name": "",
          "type": "bool"
        }
      ],
      "stateMutability": "view",
      "type": "function"
    },
    {
      "inputs": [],
      "name": "fallbackOracle",
      "outputs": [
        {
          "internalType": "contract IBaseOracle",
          "name": "",
          "type": "address"
        }
      ],
      "stateMutability": "view",
      "type": "function"
    },
    {
      "inputs": [
        {
          "internalType": "address",
          "name": "_pair",
          "type": "address"
        },
        {
          "internalType": "address",
          "name": "_rdnt",
          "type": "address"
        },
        {
          "internalType": "address",
          "name": "_ethChainlinkFeed",
          "type": "address"
        },
        {
          "internalType": "uint256",
          "name": "_period",
          "type": "uint256"
        },
        {
          "internalType": "uint256",
          "name": "_consultLeniency",
          "type": "uint256"
        },
        {
          "internalType": "bool",
          "name": "_allowStaleConsults",
          "type": "bool"
        }
      ],
      "name": "initialize",
      "outputs": [],
      "stateMutability": "nonpayable",
      "type": "function"
    },
    {
      "inputs": [],
      "name": "latestAnswer",
      "outputs": [
        {
          "internalType": "uint256",
          "name": "price",
          "type": "uint256"
        }
      ],
      "stateMutability": "view",
      "type": "function"
    },
    {
      "inputs": [],
      "name": "latestAnswerInEth",
      "outputs": [
        {
          "internalType": "uint256",
          "name": "price",
          "type": "uint256"
        }
      ],
      "stateMutability": "view",
      "type": "function"
    },
    {
      "inputs": [],
      "name": "owner",
      "outputs": [
        {
          "internalType": "address",
          "name": "",
          "type": "address"
        }
      ],
      "stateMutability": "view",
      "type": "function"
    },
    {
      "inputs": [],
      "name": "pair",
      "outputs": [
        {
          "internalType": "contract IUniswapV2Pair",
          "name": "",
          "type": "address"
        }
      ],
      "stateMutability": "view",
      "type": "function"
    },
    {
      "inputs": [],
      "name": "period",
      "outputs": [
        {
          "internalType": "uint256",
          "name": "",
          "type": "uint256"
        }
      ],
      "stateMutability": "view",
      "type": "function"
    },
    {
      "inputs": [],
      "name": "price0Average",
      "outputs": [
        {
          "internalType": "uint224",
          "name": "_x",
          "type": "uint224"
        }
      ],
      "stateMutability": "view",
      "type": "function"
    },
    {
      "inputs": [],
      "name": "price0CumulativeLast",
      "outputs": [
        {
          "internalType": "uint256",
          "name": "",
          "type": "uint256"
        }
      ],
      "stateMutability": "view",
      "type": "function"
    },
    {
      "inputs": [],
      "name": "price1Average",
      "outputs": [
        {
          "internalType": "uint224",
          "name": "_x",
          "type": "uint224"
        }
      ],
      "stateMutability": "view",
      "type": "function"
    },
    {
      "inputs": [],
      "name": "price1CumulativeLast",
      "outputs": [
        {
          "internalType": "uint256",
          "name": "",
          "type": "uint256"
        }
      ],
      "stateMutability": "view",
      "type": "function"
    },
    {
      "inputs": [],
      "name": "renounceOwnership",
      "outputs": [],
      "stateMutability": "nonpayable",
      "type": "function"
    },
    {
      "inputs": [
        {
          "internalType": "bool",
          "name": "_allowStaleConsults",
          "type": "bool"
        }
      ],
      "name": "setAllowStaleConsults",
      "outputs": [],
      "stateMutability": "nonpayable",
      "type": "function"
    },
    {
      "inputs": [
        {
          "internalType": "uint256",
          "name": "_consultLeniency",
          "type": "uint256"
        }
      ],
      "name": "setConsultLeniency",
      "outputs": [],
      "stateMutability": "nonpayable",
      "type": "function"
    },
    {
      "inputs": [
        {
          "internalType": "address",
          "name": "_fallback",
          "type": "address"
        }
      ],
      "name": "setFallback",
      "outputs": [],
      "stateMutability": "nonpayable",
      "type": "function"
    },
    {
      "inputs": [
        {
          "internalType": "uint256",
          "name": "_period",
          "type": "uint256"
        }
      ],
      "name": "setPeriod",
      "outputs": [],
      "stateMutability": "nonpayable",
      "type": "function"
    },
    {
      "inputs": [],
      "name": "token",
      "outputs": [
        {
          "internalType": "address",
          "name": "",
          "type": "address"
        }
      ],
      "stateMutability": "view",
      "type": "function"
    },
    {
      "inputs": [],
      "name": "token0",
      "outputs": [
        {
          "internalType": "address",
          "name": "",
          "type": "address"
        }
      ],
      "stateMutability": "view",
      "type": "function"
    },
    {
      "inputs": [],
      "name": "token1",
      "outputs": [
        {
          "internalType": "address",
          "name": "",
          "type": "address"
        }
      ],
      "stateMutability": "view",
      "type": "function"
    },
    {
      "inputs": [
        {
          "internalType": "address",
          "name": "newOwner",
          "type": "address"
        }
      ],
      "name": "transferOwnership",
      "outputs": [],
      "stateMutability": "nonpayable",
      "type": "function"
    },
    {
      "inputs": [],
      "name": "update",
      "outputs": [],
      "stateMutability": "nonpayable",
      "type": "function"
    }
  ],
  "transactionHash": "0xda788cb245e3f5cec149f426bde50c2bf7bbbe7be82938540789e9a8dcf511fa",
  "args": [],
  "numDeployments": 1,
  "solcInputHash": "f54c80fadb1017091d92ff7e19a408d3",
  "bytecode": "0x608060405234801561001057600080fd5b50611ed4806100206000396000f3fe608060405234801561001057600080fd5b50600436106101cf5760003560e01c8063715018a611610104578063a6bb4539116100a2578063ef78d4fd11610071578063ef78d4fd146103b4578063f1551aea146103bd578063f2fde38b146103d0578063fc0c546a146103e357600080fd5b8063a6bb453914610351578063a8aa1b3114610364578063c5700a021461037c578063d21220a7146103a157600080fd5b80638da5cb5b116100de5780638da5cb5b1461031d578063a17a26851461032e578063a2bc88dc14610336578063a2e620451461034957600080fd5b8063715018a6146103005780637eeda7031461030857806383f1cf5c1461031057600080fd5b806335c1bead116101715780635a3d54931161014b5780635a3d5493146102a65780635cb9a714146102af5780635e6aaf2c146102c2578063629838e5146102ed57600080fd5b806335c1bead1461028c57806350d25bcd146102955780635909c0d51461029d57600080fd5b8063251cdcd8116101ad578063251cdcd81461022c5780632e70a14d14610242578063316cefde1461026657806332b12eac1461027957600080fd5b80630dfe1681146101d45780630f3a9f651461020457806310535afe14610219575b600080fd5b609d546101e7906001600160a01b031681565b6040516001600160a01b0390911681526020015b60405180910390f35b610217610212366004611b36565b6103f6565b005b610217610227366004611b64565b6104ab565b610234610596565b6040519081526020016101fb565b60985461025690600160a01b900460ff1681565b60405190151581526020016101fb565b610217610274366004611b94565b610647565b610217610287366004611c00565b610c04565b610234609b5481565b610234610cd6565b610234609f5481565b61023460a05481565b6102176102bd366004611b36565b610d7d565b60a3546102d5906001600160e01b031681565b6040516001600160e01b0390911681526020016101fb565b6099546101e7906001600160a01b031681565b610217610ddc565b610234610e42565b609c546102569060ff1681565b6065546001600160a01b03166101e7565b610256610ee5565b6098546101e7906001600160a01b031681565b610217610f1d565b60a2546102d5906001600160e01b031681565b609c546101e79061010090046001600160a01b031681565b60a15461038c9063ffffffff1681565b60405163ffffffff90911681526020016101fb565b609e546101e7906001600160a01b031681565b610234609a5481565b6102176103cb366004611b64565b6110ad565b6102176103de366004611c00565b61111a565b6097546101e7906001600160a01b031681565b6065546001600160a01b031633146104555760405162461bcd60e51b815260206004820181905260248201527f4f776e61626c653a2063616c6c6572206973206e6f7420746865206f776e657260448201526064015b60405180910390fd5b600a8110156104a65760405162461bcd60e51b815260206004820152601060248201527f504552494f445f42454c4f575f4d494e00000000000000000000000000000000604482015260640161044c565b609a55565b6065546001600160a01b031633146105055760405162461bcd60e51b815260206004820181905260248201527f4f776e61626c653a2063616c6c6572206973206e6f7420746865206f776e6572604482015260640161044c565b6099546001600160a01b031661055d5760405162461bcd60e51b815260206004820152600f60248201527f6e6f2066616c6c6261636b207365740000000000000000000000000000000000604482015260640161044c565b60988054911515600160a01b027fffffffffffffffffffffff00ffffffffffffffffffffffffffffffffffffffff909216919091179055565b609854600090600160a01b900460ff166105b9576105b2610e42565b9050610633565b609960009054906101000a90046001600160a01b03166001600160a01b0316637eeda7036040518163ffffffff1660e01b8152600401602060405180830381865afa15801561060c573d6000803e3d6000fd5b505050506040513d601f19601f820116820180604052508101906106309190611c1d565b90505b610642816402540be4006111fc565b905090565b600054610100900460ff168061065c5750303b155b8061066a575060005460ff16155b6106dc5760405162461bcd60e51b815260206004820152602e60248201527f436f6e747261637420696e7374616e63652068617320616c726561647920626560448201527f656e20696e697469616c697a6564000000000000000000000000000000000000606482015260840161044c565b600054610100900460ff161580156106fe576000805461ffff19166101011790555b6001600160a01b0387166107545760405162461bcd60e51b815260206004820152601160248201527f7061697220697320302061646472657373000000000000000000000000000000604482015260640161044c565b6001600160a01b0386166107aa5760405162461bcd60e51b815260206004820152601160248201527f72646e7420697320302061646472657373000000000000000000000000000000604482015260640161044c565b6001600160a01b0385166108005760405162461bcd60e51b815260206004820152601d60248201527f657468436861696e6c696e6b4665656420697320302061646472657373000000604482015260640161044c565b86609c60016101000a8154816001600160a01b0302191690836001600160a01b03160217905550609c60019054906101000a90046001600160a01b03166001600160a01b0316630dfe16816040518163ffffffff1660e01b8152600401602060405180830381865afa15801561087a573d6000803e3d6000fd5b505050506040513d601f19601f8201168201806040525081019061089e9190611c36565b609d80546001600160a01b0319166001600160a01b03928316179055609c54604080517fd21220a700000000000000000000000000000000000000000000000000000000815290516101009092049092169163d21220a79160048083019260209291908290030181865afa15801561091a573d6000803e3d6000fd5b505050506040513d601f19601f8201168201806040525081019061093e9190611c36565b609e80546001600160a01b0319166001600160a01b03928316179055609c54604080517f5909c0d5000000000000000000000000000000000000000000000000000000008152905161010090920490921691635909c0d59160048083019260209291908290030181865afa1580156109ba573d6000803e3d6000fd5b505050506040513d601f19601f820116820180604052508101906109de9190611c1d565b609f81905550609c60019054906101000a90046001600160a01b03166001600160a01b0316635a3d54936040518163ffffffff1660e01b8152600401602060405180830381865afa158015610a37573d6000803e3d6000fd5b505050506040513d601f19601f82011682018060405250810190610a5b9190611c1d565b60a081905550600080609c60019054906101000a90046001600160a01b03166001600160a01b0316630902f1ac6040518163ffffffff1660e01b8152600401606060405180830381865afa158015610ab7573d6000803e3d6000fd5b505050506040513d601f19601f82011682018060405250810190610adb9190611c71565b60a1805463ffffffff191663ffffffff9290921691909117905590925090506dffffffffffffffffffffffffffff821615801590610b2857506dffffffffffffffffffffffffffff811615155b610b745760405162461bcd60e51b815260206004820152600b60248201527f4e4f5f5245534552564553000000000000000000000000000000000000000000604482015260640161044c565b600a861015610bc55760405162461bcd60e51b815260206004820152601060248201527f504552494f445f42454c4f575f4d494e00000000000000000000000000000000604482015260640161044c565b609a869055609b859055609c805460ff1916851515179055610be78888611211565b50508015610bfb576000805461ff00191690555b50505050505050565b6065546001600160a01b03163314610c5e5760405162461bcd60e51b815260206004820181905260248201527f4f776e61626c653a2063616c6c6572206973206e6f7420746865206f776e6572604482015260640161044c565b6001600160a01b038116610cb45760405162461bcd60e51b815260206004820152600f60248201527f696e76616c696420616464726573730000000000000000000000000000000000604482015260640161044c565b609980546001600160a01b0319166001600160a01b0392909216919091179055565b600080610ce1610596565b90506000609860009054906101000a90046001600160a01b03166001600160a01b03166350d25bcd6040518163ffffffff1660e01b8152600401602060405180830381865afa158015610d38573d6000803e3d6000fd5b505050506040513d601f19601f82011682018060405250810190610d5c9190611c1d565b9050610d766305f5e100610d7084846112b2565b906111fc565b9250505090565b6065546001600160a01b03163314610dd75760405162461bcd60e51b815260206004820181905260248201527f4f776e61626c653a2063616c6c6572206973206e6f7420746865206f776e6572604482015260640161044c565b609b55565b6065546001600160a01b03163314610e365760405162461bcd60e51b815260206004820181905260248201527f4f776e61626c653a2063616c6c6572206973206e6f7420746865206f776e6572604482015260640161044c565b610e4060006112be565b565b600080609760009054906101000a90046001600160a01b03166001600160a01b031663313ce5676040518163ffffffff1660e01b8152600401602060405180830381865afa158015610e98573d6000803e3d6000fd5b505050506040513d601f19601f82011682018060405250810190610ebc9190611cc1565b609754909150610edf906001600160a01b0316610eda83600a611dde565b611310565b91505090565b600080610ef06114a9565b60a154909150600090610f099063ffffffff1683611ded565b609a5463ffffffff90911610159392505050565b6000806000610f40609c60019054906101000a90046001600160a01b03166114ba565b60a1549295509093509150600090610f5e9063ffffffff1683611ded565b9050609a548163ffffffff161015610fb85760405162461bcd60e51b815260206004820152601260248201527f504552494f445f4e4f545f454c41505345440000000000000000000000000000604482015260640161044c565b60405180602001604052808263ffffffff16609f5487610fd89190611e12565b610fe29190611e3f565b6001600160e01b03908116909152905160a280547fffffffff000000000000000000000000000000000000000000000000000000001691909216179055604080516020810190915260a054819063ffffffff8416906110419087611e12565b61104b9190611e3f565b6001600160e01b03908116909152905160a380547fffffffff00000000000000000000000000000000000000000000000000000000169190921617905550609f9290925560a05560a1805463ffffffff191663ffffffff909216919091179055565b6065546001600160a01b031633146111075760405162461bcd60e51b815260206004820181905260248201527f4f776e61626c653a2063616c6c6572206973206e6f7420746865206f776e6572604482015260640161044c565b609c805460ff1916911515919091179055565b6065546001600160a01b031633146111745760405162461bcd60e51b815260206004820181905260248201527f4f776e61626c653a2063616c6c6572206973206e6f7420746865206f776e6572604482015260640161044c565b6001600160a01b0381166111f05760405162461bcd60e51b815260206004820152602660248201527f4f776e61626c653a206e6577206f776e657220697320746865207a65726f206160448201527f6464726573730000000000000000000000000000000000000000000000000000606482015260840161044c565b6111f9816112be565b50565b60006112088284611e3f565b90505b92915050565b600054610100900460ff1661127c5760405162461bcd60e51b815260206004820152602b60248201527f496e697469616c697a61626c653a20636f6e7472616374206973206e6f74206960448201526a6e697469616c697a696e6760a81b606482015260840161044c565b6112846116cd565b609780546001600160a01b039384166001600160a01b03199182161790915560988054929093169116179055565b60006112088284611e53565b606580546001600160a01b038381166001600160a01b0319831681179093556040519116919082907f8be0079c531659141344cd1fd0a4f28419497f9722a3daafe3b4186f6b6457e090600090a35050565b60008061131b6114a9565b60a1549091506000906113349063ffffffff1683611ded565b9050609b54609a546113469190611e72565b8163ffffffff16108061135b5750609c5460ff165b6113a75760405162461bcd60e51b815260206004820152601a60248201527f50524943455f49535f5354414c455f43414c4c5f555044415445000000000000604482015260640161044c565b609d546001600160a01b038681169116141561140657604080516020810190915260a2546001600160e01b031681526113eb906113e49086611740565b5160701c90565b71ffffffffffffffffffffffffffffffffffff1692506114a1565b609e546001600160a01b038681169116146114635760405162461bcd60e51b815260206004820181905260248201527f556e6973776170506169724f7261636c653a20494e56414c49445f544f4b454e604482015260640161044c565b604080516020810190915260a3546001600160e01b0316815261148a906113e49086611740565b71ffffffffffffffffffffffffffffffffffff1692505b505092915050565b600061064264010000000042611e8a565b60008060006114c76114a9565b9050836001600160a01b0316635909c0d56040518163ffffffff1660e01b8152600401602060405180830381865afa158015611507573d6000803e3d6000fd5b505050506040513d601f19601f8201168201806040525081019061152b9190611c1d565b9250836001600160a01b0316635a3d54936040518163ffffffff1660e01b8152600401602060405180830381865afa15801561156b573d6000803e3d6000fd5b505050506040513d601f19601f8201168201806040525081019061158f9190611c1d565b91506000806000866001600160a01b0316630902f1ac6040518163ffffffff1660e01b8152600401606060405180830381865afa1580156115d4573d6000803e3d6000fd5b505050506040513d601f19601f820116820180604052508101906115f89190611c71565b9250925092508363ffffffff168163ffffffff16146116c357600061161d8286611ded565b90508063ffffffff16611650846dffffffffffffffffffffffffffff16866dffffffffffffffffffffffffffff166117de565b5161166491906001600160e01b0316611e53565b61166e9088611e72565b96508063ffffffff166116a1856dffffffffffffffffffffffffffff16856dffffffffffffffffffffffffffff166117de565b516116b591906001600160e01b0316611e53565b6116bf9087611e72565b9550505b5050509193909250565b600054610100900460ff166117385760405162461bcd60e51b815260206004820152602b60248201527f496e697469616c697a61626c653a20636f6e7472616374206973206e6f74206960448201526a6e697469616c697a696e6760a81b606482015260840161044c565b610e4061193b565b604080516020810190915260008152600082158061177d575083516001600160e01b03168361176f8183611e53565b925061177b9083611e3f565b145b6117c95760405162461bcd60e51b815260206004820152601960248201527f4669786564506f696e743a3a6d756c3a206f766572666c6f7700000000000000604482015260640161044c565b60408051602081019091529081529392505050565b604080516020810190915260008152600082116118635760405162461bcd60e51b815260206004820152602660248201527f4669786564506f696e743a3a6672616374696f6e3a206469766973696f6e206260448201527f79207a65726f0000000000000000000000000000000000000000000000000000606482015260840161044c565b8261187d575060408051602081019091526000815261120b565b71ffffffffffffffffffffffffffffffffffff831161191f5760006118a683607086901b611e3f565b90506001600160e01b038111156118ff5760405162461bcd60e51b815260206004820152601e60248201527f4669786564506f696e743a3a6672616374696f6e3a206f766572666c6f770000604482015260640161044c565b6040518060200160405280826001600160e01b031681525091505061120b565b60006118a6846e010000000000000000000000000000856119af565b600054610100900460ff166119a65760405162461bcd60e51b815260206004820152602b60248201527f496e697469616c697a61626c653a20636f6e7472616374206973206e6f74206960448201526a6e697469616c697a696e6760a81b606482015260840161044c565b610e40336112be565b6000808060001985870985870292508281108382030391505080600014156119e957600084116119de57600080fd5b508290049050611b2f565b8084116119f557600080fd5b600084868809808403938111909203919050600085611a1681600019611e12565b611a21906001611e72565b16958690049593849004936000819003046001019050611a418184611e53565b909317926000611a52876003611e53565b6002189050611a618188611e53565b611a6c906002611e12565b611a769082611e53565b9050611a828188611e53565b611a8d906002611e12565b611a979082611e53565b9050611aa38188611e53565b611aae906002611e12565b611ab89082611e53565b9050611ac48188611e53565b611acf906002611e12565b611ad99082611e53565b9050611ae58188611e53565b611af0906002611e12565b611afa9082611e53565b9050611b068188611e53565b611b11906002611e12565b611b1b9082611e53565b9050611b278186611e53565b955050505050505b9392505050565b600060208284031215611b4857600080fd5b5035919050565b80358015158114611b5f57600080fd5b919050565b600060208284031215611b7657600080fd5b61120882611b4f565b6001600160a01b03811681146111f957600080fd5b60008060008060008060c08789031215611bad57600080fd5b8635611bb881611b7f565b95506020870135611bc881611b7f565b94506040870135611bd881611b7f565b93506060870135925060808701359150611bf460a08801611b4f565b90509295509295509295565b600060208284031215611c1257600080fd5b8135611b2f81611b7f565b600060208284031215611c2f57600080fd5b5051919050565b600060208284031215611c4857600080fd5b8151611b2f81611b7f565b80516dffffffffffffffffffffffffffff81168114611b5f57600080fd5b600080600060608486031215611c8657600080fd5b611c8f84611c53565b9250611c9d60208501611c53565b9150604084015163ffffffff81168114611cb657600080fd5b809150509250925092565b600060208284031215611cd357600080fd5b815160ff81168114611b2f57600080fd5b634e487b7160e01b600052601160045260246000fd5b600181815b80851115611d35578160001904821115611d1b57611d1b611ce4565b80851615611d2857918102915b93841c9390800290611cff565b509250929050565b600082611d4c5750600161120b565b81611d595750600061120b565b8160018114611d6f5760028114611d7957611d95565b600191505061120b565b60ff841115611d8a57611d8a611ce4565b50506001821b61120b565b5060208310610133831016604e8410600b8410161715611db8575081810a61120b565b611dc28383611cfa565b8060001904821115611dd657611dd6611ce4565b029392505050565b600061120860ff841683611d3d565b600063ffffffff83811690831681811015611e0a57611e0a611ce4565b039392505050565b600082821015611e2457611e24611ce4565b500390565b634e487b7160e01b600052601260045260246000fd5b600082611e4e57611e4e611e29565b500490565b6000816000190483118215151615611e6d57611e6d611ce4565b500290565b60008219821115611e8557611e85611ce4565b500190565b600082611e9957611e99611e29565b50069056fea2646970667358221220a9c1e6266f86e0a4dddd01f9f988368a63d75fb35d97a002786751435b9be83764736f6c634300080c0033",
  "devdoc": {
    "author": "Radiant team",
    "details": "Fixed window oracle that recomputes the average price for the entire period once every period Note that the price average is only guaranteed to be over at least 1 period, but may be over a longer period",
    "kind": "dev",
    "methods": {
      "canUpdate()": {
        "details": "Check if update() can be called instead of wasting gas calling it."
      },
      "enableFallback(bool)": {
        "params": {
          "_enabled": "Boolean value."
        }
      },
      "initialize(address,address,address,uint256,uint256,bool)": {
        "params": {
          "_allowStaleConsults": "Enable/Disable stale.",
          "_consultLeniency": "Used for being able to consult past the period end.",
          "_ethChainlinkFeed": "Chainlink price feed for ETH.",
          "_pair": "Uniswap pair contract",
          "_period": "TWAP period.",
          "_rdnt": "RDNT token address."
        }
      },
      "latestAnswer()": {
        "details": "supports 18 decimal token",
        "returns": {
          "price": "of token in decimal 8"
        }
      },
      "latestAnswerInEth()": {
        "details": "supports 18 decimal token",
        "returns": {
          "price": "of token in decimal 8."
        }
      },
      "setAllowStaleConsults(bool)": {
        "params": {
          "_allowStaleConsults": "new value."
        }
      },
      "setConsultLeniency(uint256)": {
        "params": {
          "_consultLeniency": "new value."
        }
      },
      "setFallback(address)": {
        "params": {
          "_fallback": "Oracle address for fallback."
        }
      },
      "setPeriod(uint256)": {
        "params": {
          "_period": "TWAP period."
        }
      }
    },
    "title": "UniV2TwapOracle Contract",
    "version": 1
  },
  "userdoc": {
    "kind": "user",
    "methods": {
      "allowStaleConsults()": {
        "notice": "If false, consult() will fail if the TWAP is stale"
      },
      "blockTimestampLast()": {
        "notice": "Last updated timestamp"
      },
      "consult()": {
        "notice": "Returns current price."
      },
      "consultLeniency()": {
        "notice": "Used for being able to consult past the period end"
      },
      "enableFallback(bool)": {
        "notice": "Enable/Disable use of fallback oracle"
      },
      "ethChainlinkFeed()": {
        "notice": "Chainlink price feed for ETH"
      },
      "fallbackEnabled()": {
        "notice": "Enable/Disable fallback"
      },
      "fallbackOracle()": {
        "notice": "Oracle to be used as a fallback"
      },
      "initialize(address,address,address,uint256,uint256,bool)": {
        "notice": "Initializer"
      },
      "latestAnswer()": {
        "notice": "Returns USD price in quote token."
      },
      "latestAnswerInEth()": {
        "notice": "Returns USD price in ETH"
      },
      "pair()": {
        "notice": "Uniswap pair contract"
      },
      "period()": {
        "notice": "TWAP period"
      },
      "price0Average()": {
        "notice": "Average price of token0"
      },
      "price0CumulativeLast()": {
        "notice": "First token of the pair"
      },
      "price1Average()": {
        "notice": "Average price of token1"
      },
      "price1CumulativeLast()": {
        "notice": "First token of the pair"
      },
      "setAllowStaleConsults(bool)": {
        "notice": "Sets stale consult option."
      },
      "setConsultLeniency(uint256)": {
        "notice": "Sets new consult leniency."
      },
      "setFallback(address)": {
        "notice": "Sets fallback oracle"
      },
      "setPeriod(uint256)": {
        "notice": "Sets new period."
      },
      "token()": {
        "notice": "Token for price"
      },
      "token0()": {
        "notice": "First token of the pair"
      },
      "token1()": {
        "notice": "Second token of the pair"
      },
      "update()": {
        "notice": "Updates price"
      }
    },
    "version": 1
  },
  "storageLayout": {
    "storage": [
      {
        "astId": 17153,
        "contract": "contracts/radiant/oracles/UniV2TwapOracle.sol:UniV2TwapOracle",
        "label": "initialized",
        "offset": 0,
        "slot": "0",
        "type": "t_bool"
      },
      {
        "astId": 17156,
        "contract": "contracts/radiant/oracles/UniV2TwapOracle.sol:UniV2TwapOracle",
        "label": "initializing",
        "offset": 1,
        "slot": "0",
        "type": "t_bool"
      },
      {
        "astId": 17223,
        "contract": "contracts/radiant/oracles/UniV2TwapOracle.sol:UniV2TwapOracle",
        "label": "______gap",
        "offset": 0,
        "slot": "1",
        "type": "t_array(t_uint256)50_storage"
      },
      {
        "astId": 17146,
        "contract": "contracts/radiant/oracles/UniV2TwapOracle.sol:UniV2TwapOracle",
        "label": "__gap",
        "offset": 0,
        "slot": "51",
        "type": "t_array(t_uint256)50_storage"
      },
      {
        "astId": 17368,
        "contract": "contracts/radiant/oracles/UniV2TwapOracle.sol:UniV2TwapOracle",
        "label": "_owner",
        "offset": 0,
        "slot": "101",
        "type": "t_address"
      },
      {
        "astId": 17473,
        "contract": "contracts/radiant/oracles/UniV2TwapOracle.sol:UniV2TwapOracle",
        "label": "__gap",
        "offset": 0,
        "slot": "102",
        "type": "t_array(t_uint256)49_storage"
      },
      {
        "astId": 47690,
        "contract": "contracts/radiant/oracles/UniV2TwapOracle.sol:UniV2TwapOracle",
        "label": "token",
        "offset": 0,
        "slot": "151",
        "type": "t_address"
      },
      {
        "astId": 47693,
        "contract": "contracts/radiant/oracles/UniV2TwapOracle.sol:UniV2TwapOracle",
        "label": "ethChainlinkFeed",
        "offset": 0,
        "slot": "152",
        "type": "t_address"
      },
      {
        "astId": 47696,
        "contract": "contracts/radiant/oracles/UniV2TwapOracle.sol:UniV2TwapOracle",
        "label": "fallbackEnabled",
        "offset": 20,
        "slot": "152",
        "type": "t_bool"
      },
      {
        "astId": 47700,
        "contract": "contracts/radiant/oracles/UniV2TwapOracle.sol:UniV2TwapOracle",
        "label": "fallbackOracle",
        "offset": 0,
        "slot": "153",
        "type": "t_contract(IBaseOracle)21552"
      },
      {
        "astId": 48703,
        "contract": "contracts/radiant/oracles/UniV2TwapOracle.sol:UniV2TwapOracle",
        "label": "period",
        "offset": 0,
        "slot": "154",
        "type": "t_uint256"
      },
      {
        "astId": 48706,
        "contract": "contracts/radiant/oracles/UniV2TwapOracle.sol:UniV2TwapOracle",
        "label": "consultLeniency",
        "offset": 0,
        "slot": "155",
        "type": "t_uint256"
      },
      {
        "astId": 48709,
        "contract": "contracts/radiant/oracles/UniV2TwapOracle.sol:UniV2TwapOracle",
        "label": "allowStaleConsults",
        "offset": 0,
        "slot": "156",
        "type": "t_bool"
      },
      {
        "astId": 48713,
        "contract": "contracts/radiant/oracles/UniV2TwapOracle.sol:UniV2TwapOracle",
        "label": "pair",
        "offset": 1,
        "slot": "156",
        "type": "t_contract(IUniswapV2Pair)8028"
      },
      {
        "astId": 48716,
        "contract": "contracts/radiant/oracles/UniV2TwapOracle.sol:UniV2TwapOracle",
        "label": "token0",
        "offset": 0,
        "slot": "157",
        "type": "t_address"
      },
      {
        "astId": 48719,
        "contract": "contracts/radiant/oracles/UniV2TwapOracle.sol:UniV2TwapOracle",
        "label": "token1",
        "offset": 0,
        "slot": "158",
        "type": "t_address"
      },
      {
        "astId": 48722,
        "contract": "contracts/radiant/oracles/UniV2TwapOracle.sol:UniV2TwapOracle",
        "label": "price0CumulativeLast",
        "offset": 0,
        "slot": "159",
        "type": "t_uint256"
      },
      {
        "astId": 48725,
        "contract": "contracts/radiant/oracles/UniV2TwapOracle.sol:UniV2TwapOracle",
        "label": "price1CumulativeLast",
        "offset": 0,
        "slot": "160",
        "type": "t_uint256"
      },
      {
        "astId": 48728,
        "contract": "contracts/radiant/oracles/UniV2TwapOracle.sol:UniV2TwapOracle",
        "label": "blockTimestampLast",
        "offset": 0,
        "slot": "161",
        "type": "t_uint32"
      },
      {
        "astId": 48732,
        "contract": "contracts/radiant/oracles/UniV2TwapOracle.sol:UniV2TwapOracle",
        "label": "price0Average",
        "offset": 0,
        "slot": "162",
        "type": "t_struct(uq112x112)18187_storage"
      },
      {
        "astId": 48736,
        "contract": "contracts/radiant/oracles/UniV2TwapOracle.sol:UniV2TwapOracle",
        "label": "price1Average",
        "offset": 0,
        "slot": "163",
        "type": "t_struct(uq112x112)18187_storage"
      }
    ],
    "types": {
      "t_address": {
        "encoding": "inplace",
        "label": "address",
        "numberOfBytes": "20"
      },
      "t_array(t_uint256)49_storage": {
        "base": "t_uint256",
        "encoding": "inplace",
        "label": "uint256[49]",
        "numberOfBytes": "1568"
      },
      "t_array(t_uint256)50_storage": {
        "base": "t_uint256",
        "encoding": "inplace",
        "label": "uint256[50]",
        "numberOfBytes": "1600"
      },
      "t_bool": {
        "encoding": "inplace",
        "label": "bool",
        "numberOfBytes": "1"
      },
      "t_contract(IBaseOracle)21552": {
        "encoding": "inplace",
        "label": "contract IBaseOracle",
        "numberOfBytes": "20"
      },
      "t_contract(IUniswapV2Pair)8028": {
        "encoding": "inplace",
        "label": "contract IUniswapV2Pair",
        "numberOfBytes": "20"
      },
      "t_struct(uq112x112)18187_storage": {
        "encoding": "inplace",
        "label": "struct FixedPoint.uq112x112",
        "members": [
          {
            "astId": 18186,
            "contract": "contracts/radiant/oracles/UniV2TwapOracle.sol:UniV2TwapOracle",
            "label": "_x",
            "offset": 0,
            "slot": "0",
            "type": "t_uint224"
          }
        ],
        "numberOfBytes": "32"
      },
      "t_uint224": {
        "encoding": "inplace",
        "label": "uint224",
        "numberOfBytes": "28"
      },
      "t_uint256": {
        "encoding": "inplace",
        "label": "uint256",
        "numberOfBytes": "32"
      },
      "t_uint32": {
        "encoding": "inplace",
        "label": "uint32",
        "numberOfBytes": "4"
      }
    }
  }
}