{
  "address": "0x5f083c18b59755f67967A97063f1dc5cF66124EB",
  "abi": [
    {
      "inputs": [
        {
          "internalType": "address[]",
          "name": "assets",
          "type": "address[]"
        },
        {
          "internalType": "address[]",
          "name": "sources",
          "type": "address[]"
        },
        {
          "internalType": "address",
          "name": "fallbackOracle",
          "type": "address"
        },
        {
          "internalType": "address",
          "name": "baseCurrency",
          "type": "address"
        },
        {
          "internalType": "uint256",
          "name": "baseCurrencyUnit",
          "type": "uint256"
        }
      ],
      "stateMutability": "nonpayable",
      "type": "constructor"
    },
    {
      "anonymous": false,
      "inputs": [
        {
          "indexed": true,
          "internalType": "address",
          "name": "asset",
          "type": "address"
        },
        {
          "indexed": true,
          "internalType": "address",
          "name": "source",
          "type": "address"
        }
      ],
      "name": "AssetSourceUpdated",
      "type": "event"
    },
    {
      "anonymous": false,
      "inputs": [
        {
          "indexed": true,
          "internalType": "address",
          "name": "baseCurrency",
          "type": "address"
        },
        {
          "indexed": false,
          "internalType": "uint256",
          "name": "baseCurrencyUnit",
          "type": "uint256"
        }
      ],
      "name": "BaseCurrencySet",
      "type": "event"
    },
    {
      "anonymous": false,
      "inputs": [
        {
          "indexed": true,
          "internalType": "address",
          "name": "fallbackOracle",
          "type": "address"
        }
      ],
      "name": "FallbackOracleUpdated",
      "type": "event"
    },
    {
      "anonymous": false,
      "inputs": [
        {
          "indexed": true,
          "internalType": "address",
          "name": "previousOwner",
          "type": "address"
        },
        {
          "indexed": true,
          "internalType": "address",
          "name": "newOwner",
          "type": "address"
        }
      ],
      "name": "OwnershipTransferred",
      "type": "event"
    },
    {
      "inputs": [],
      "name": "BASE_CURRENCY",
      "outputs": [
        {
          "internalType": "address",
          "name": "",
          "type": "address"
        }
      ],
      "stateMutability": "view",
      "type": "function"
    },
    {
      "inputs": [],
      "name": "BASE_CURRENCY_UNIT",
      "outputs": [
        {
          "internalType": "uint256",
          "name": "",
          "type": "uint256"
        }
      ],
      "stateMutability": "view",
      "type": "function"
    },
    {
      "inputs": [
        {
          "internalType": "address",
          "name": "asset",
          "type": "address"
        }
      ],
      "name": "getAssetPrice",
      "outputs": [
        {
          "internalType": "uint256",
          "name": "",
          "type": "uint256"
        }
      ],
      "stateMutability": "view",
      "type": "function"
    },
    {
      "inputs": [
        {
          "internalType": "address[]",
          "name": "assets",
          "type": "address[]"
        }
      ],
      "name": "getAssetsPrices",
      "outputs": [
        {
          "internalType": "uint256[]",
          "name": "",
          "type": "uint256[]"
        }
      ],
      "stateMutability": "view",
      "type": "function"
    },
    {
      "inputs": [],
      "name": "getFallbackOracle",
      "outputs": [
        {
          "internalType": "address",
          "name": "",
          "type": "address"
        }
      ],
      "stateMutability": "view",
      "type": "function"
    },
    {
      "inputs": [
        {
          "internalType": "address",
          "name": "asset",
          "type": "address"
        }
      ],
      "name": "getSourceOfAsset",
      "outputs": [
        {
          "internalType": "address",
          "name": "",
          "type": "address"
        }
      ],
      "stateMutability": "view",
      "type": "function"
    },
    {
      "inputs": [],
      "name": "owner",
      "outputs": [
        {
          "internalType": "address",
          "name": "",
          "type": "address"
        }
      ],
      "stateMutability": "view",
      "type": "function"
    },
    {
      "inputs": [],
      "name": "renounceOwnership",
      "outputs": [],
      "stateMutability": "nonpayable",
      "type": "function"
    },
    {
      "inputs": [
        {
          "internalType": "address[]",
          "name": "assets",
          "type": "address[]"
        },
        {
          "internalType": "address[]",
          "name": "sources",
          "type": "address[]"
        }
      ],
      "name": "setAssetSources",
      "outputs": [],
      "stateMutability": "nonpayable",
      "type": "function"
    },
    {
      "inputs": [
        {
          "internalType": "address",
          "name": "fallbackOracle",
          "type": "address"
        }
      ],
      "name": "setFallbackOracle",
      "outputs": [],
      "stateMutability": "nonpayable",
      "type": "function"
    },
    {
      "inputs": [
        {
          "internalType": "address",
          "name": "newOwner",
          "type": "address"
        }
      ],
      "name": "transferOwnership",
      "outputs": [],
      "stateMutability": "nonpayable",
      "type": "function"
    }
  ],
  "transactionHash": "0x79c02737367b0d974b12c670458ff26ec308b930c3d229933c6296f83468dd6d",
  "args": [
    [
      "0xdD8f3df7c3f878859Bc30BFDBD416cC264173b23",
      "0x67980C45620D04aBfC0CBE2A5F3167185f84B395",
      "0x29A30fb340BE5dfa43b06670021692FF358B828b",
      "0x0F01BBA2EA5bA477778c1409094297e321fE4005",
      "0xB2E527B3c0635Aec732321F4C4e5d4666238Ef78",
      "0xb78dC8Cb950AF587526E182A7A36a907F8bC6A59"
    ],
    [
      "0x7Bbe7d73629bf0B6d868E19e228b09b0Eaf13E65",
      "0x998A58fA0Fe99E190656B1116C7213d597cdD9bD",
      "0xe32a5841cA6Fbbeb326064dae5492D9f9189Cb85",
      "0x4d3d5BC57F538c7b4b78EfAC9B16c215d4BAE0cb",
      "0x259Ad7Ae6b1bb5676cB554B14AeEf8228340E45E",
      "0xa130A3F2Fb38d2f01B07AD77967B857ceE8654cf"
    ],
    "0x0000000000000000000000000000000000000000",
    "0x0000000000000000000000000000000000000000",
    "100000000"
  ],
  "numDeployments": 1,
  "solcInputHash": "78995fe69be866012cdea8ea4c4842de",
  "bytecode": "0x60c06040523480156200001157600080fd5b5060405162000f0538038062000f05833981810160405260a08110156200003757600080fd5b81019080805160405193929190846401000000008211156200005857600080fd5b9083019060208201858111156200006e57600080fd5b82518660208202830111640100000000821117156200008c57600080fd5b82525081516020918201928201910280838360005b83811015620000bb578181015183820152602001620000a1565b5050505090500160405260200180516040519392919084640100000000821115620000e557600080fd5b908301906020820185811115620000fb57600080fd5b82518660208202830111640100000000821117156200011957600080fd5b82525081516020918201928201910280838360005b83811015620001485781810151838201526020016200012e565b5050505091909101604090815260208301519083015160609093015190945091925060009050620001786200023a565b600080546001600160a01b0319166001600160a01b0383169081178255604051929350917f8be0079c531659141344cd1fd0a4f28419497f9722a3daafe3b4186f6b6457e0908290a350620001cd836200023e565b620001d9858562000288565b6001600160601b0319606083901b1660805260a08190526040805182815290516001600160a01b038416917fe27c4c1372396a3d15a9922f74f9dfc7c72b1ad6d63868470787249c356454c1919081900360200190a25050505050620003d4565b3390565b600280546001600160a01b0319166001600160a01b0383169081179091556040517fce7a780d33665b1ea097af5f155e3821b809ecbaa839d3b33aa83ba28168cefb90600090a250565b8051825114620002df576040805162461bcd60e51b815260206004820152601a60248201527f494e434f4e53495354454e545f504152414d535f4c454e475448000000000000604482015290519081900360640190fd5b60005b8251811015620003cf57818181518110620002f957fe5b6020026020010151600160008584815181106200031257fe5b60200260200101516001600160a01b03166001600160a01b0316815260200190815260200160002060006101000a8154816001600160a01b0302191690836001600160a01b031602179055508181815181106200036b57fe5b60200260200101516001600160a01b03168382815181106200038957fe5b60200260200101516001600160a01b03167f22c5b7b2d8561d39f7f210b6b326a1aa69f15311163082308ac4877db6339dc160405160405180910390a3600101620002e2565b505050565b60805160601c60a051610b00620004056000398061040f52806106155250806105eb52806107cc5250610b006000f3fe608060405234801561001057600080fd5b50600436106100995760003560e01c8063170aee731461009e5780636210308c146100c6578063715018a6146100ea5780638c89b64f146100f25780638da5cb5b1461010c57806392bf2be0146101145780639d23d9f21461013a578063abfd5310146101f8578063b3596f07146102b6578063e19f4700146102dc578063f2fde38b146102e4575b600080fd5b6100c4600480360360208110156100b457600080fd5b50356001600160a01b031661030a565b005b6100ce61036e565b604080516001600160a01b039092168252519081900360200190f35b6100c461037d565b6100fa61040d565b60408051918252519081900360200190f35b6100ce610431565b6100ce6004803603602081101561012a57600080fd5b50356001600160a01b0316610440565b6101a86004803603602081101561015057600080fd5b810190602081018135600160201b81111561016a57600080fd5b82018360208201111561017c57600080fd5b803590602001918460208302840111600160201b8311171561019d57600080fd5b509092509050610461565b60408051602080825283518183015283519192839290830191858101910280838360005b838110156101e45781810151838201526020016101cc565b505050509050019250505060405180910390f35b6100c46004803603604081101561020e57600080fd5b810190602081018135600160201b81111561022857600080fd5b82018360208201111561023a57600080fd5b803590602001918460208302840111600160201b8311171561025b57600080fd5b919390929091602081019035600160201b81111561027857600080fd5b82018360208201111561028a57600080fd5b803590602001918460208302840111600160201b831117156102ab57600080fd5b5090925090506104fe565b6100fa600480360360208110156102cc57600080fd5b50356001600160a01b03166105c9565b6100ce6107ca565b6100c4600480360360208110156102fa57600080fd5b50356001600160a01b03166107ee565b6103126108d4565b6000546001600160a01b03908116911614610362576040805162461bcd60e51b81526020600482018190526024820152600080516020610a8b833981519152604482015290519081900360640190fd5b61036b816108d8565b50565b6002546001600160a01b031690565b6103856108d4565b6000546001600160a01b039081169116146103d5576040805162461bcd60e51b81526020600482018190526024820152600080516020610a8b833981519152604482015290519081900360640190fd5b600080546040516001600160a01b0390911690600080516020610aab833981519152908390a3600080546001600160a01b0319169055565b7f000000000000000000000000000000000000000000000000000000000000000081565b6000546001600160a01b031690565b6001600160a01b03808216600090815260016020526040902054165b919050565b60606000826001600160401b038111801561047b57600080fd5b506040519080825280602002602001820160405280156104a5578160200160208202803683370190505b50905060005b838110156104f6576104d78585838181106104c257fe5b905060200201356001600160a01b03166105c9565b8282815181106104e357fe5b60209081029190910101526001016104ab565b509392505050565b6105066108d4565b6000546001600160a01b03908116911614610556576040805162461bcd60e51b81526020600482018190526024820152600080516020610a8b833981519152604482015290519081900360640190fd5b6105c38484808060200260200160405190810160405280939291908181526020018383602002808284376000920191909152505060408051602080880282810182019093528782529093508792508691829185019084908082843760009201919091525061092292505050565b50505050565b6001600160a01b038082166000818152600160205260408120549092908116917f0000000000000000000000000000000000000000000000000000000000000000909116141561063c577f000000000000000000000000000000000000000000000000000000000000000091505061045c565b6001600160a01b0381166106cc576002546040805163b3596f0760e01b81526001600160a01b0386811660048301529151919092169163b3596f07916024808301926020929190829003018186803b15801561069757600080fd5b505afa1580156106ab573d6000803e3d6000fd5b505050506040513d60208110156106c157600080fd5b5051915061045c9050565b6000816001600160a01b03166350d25bcd6040518163ffffffff1660e01b815260040160206040518083038186803b15801561070757600080fd5b505afa15801561071b573d6000803e3d6000fd5b505050506040513d602081101561073157600080fd5b50519050600081131561074757915061045c9050565b6002546040805163b3596f0760e01b81526001600160a01b0387811660048301529151919092169163b3596f07916024808301926020929190829003018186803b15801561079457600080fd5b505afa1580156107a8573d6000803e3d6000fd5b505050506040513d60208110156107be57600080fd5b5051925061045c915050565b7f000000000000000000000000000000000000000000000000000000000000000081565b6107f66108d4565b6000546001600160a01b03908116911614610846576040805162461bcd60e51b81526020600482018190526024820152600080516020610a8b833981519152604482015290519081900360640190fd5b6001600160a01b03811661088b5760405162461bcd60e51b8152600401808060200182810382526026815260200180610a656026913960400191505060405180910390fd5b600080546040516001600160a01b0380851693921691600080516020610aab83398151915291a3600080546001600160a01b0319166001600160a01b0392909216919091179055565b3390565b600280546001600160a01b0319166001600160a01b0383169081179091556040517fce7a780d33665b1ea097af5f155e3821b809ecbaa839d3b33aa83ba28168cefb90600090a250565b8051825114610975576040805162461bcd60e51b815260206004820152601a6024820152790929c869e9ca692a6a88a9ca8bea082a4829aa6be988a9c8ea8960331b604482015290519081900360640190fd5b60005b8251811015610a5f5781818151811061098d57fe5b6020026020010151600160008584815181106109a557fe5b60200260200101516001600160a01b03166001600160a01b0316815260200190815260200160002060006101000a8154816001600160a01b0302191690836001600160a01b031602179055508181815181106109fd57fe5b60200260200101516001600160a01b0316838281518110610a1a57fe5b60200260200101516001600160a01b03167f22c5b7b2d8561d39f7f210b6b326a1aa69f15311163082308ac4877db6339dc160405160405180910390a3600101610978565b50505056fe4f776e61626c653a206e6577206f776e657220697320746865207a65726f20616464726573734f776e61626c653a2063616c6c6572206973206e6f7420746865206f776e65728be0079c531659141344cd1fd0a4f28419497f9722a3daafe3b4186f6b6457e0a2646970667358221220998fb5564ef5be307cfc48f426267c2a76affcf286bd7376cf686c482588422f64736f6c63430007060033",
  "devdoc": {
    "author": "Aave",
    "kind": "dev",
    "methods": {
      "constructor": {
        "params": {
          "assets": "The addresses of the assets",
          "baseCurrency": "the base currency used for the price quotes. If USD is used, base currency is 0x0",
          "baseCurrencyUnit": "the unit of the base currency",
          "fallbackOracle": "The address of the fallback oracle to use if the data of an        aggregator is not consistent",
          "sources": "The address of the source of each asset"
        }
      },
      "getAssetPrice(address)": {
        "params": {
          "asset": "The asset address"
        }
      },
      "getAssetsPrices(address[])": {
        "params": {
          "assets": "The list of assets addresses"
        }
      },
      "getFallbackOracle()": {
        "returns": {
          "_0": "address The addres of the fallback oracle"
        }
      },
      "getSourceOfAsset(address)": {
        "params": {
          "asset": "The address of the asset"
        },
        "returns": {
          "_0": "address The address of the source"
        }
      },
      "owner()": {
        "details": "Returns the address of the current owner."
      },
      "renounceOwnership()": {
        "details": "Leaves the contract without owner. It will not be possible to call `onlyOwner` functions anymore. Can only be called by the current owner. NOTE: Renouncing ownership will leave the contract without an owner, thereby removing any functionality that is only available to the owner."
      },
      "setAssetSources(address[],address[])": {
        "params": {
          "assets": "The addresses of the assets",
          "sources": "The address of the source of each asset"
        }
      },
      "setFallbackOracle(address)": {
        "params": {
          "fallbackOracle": "The address of the fallbackOracle"
        }
      },
      "transferOwnership(address)": {
        "details": "Transfers ownership of the contract to a new account (`newOwner`). Can only be called by the current owner."
      }
    },
    "title": "AaveOracle",
    "version": 1
  },
  "userdoc": {
    "kind": "user",
    "methods": {
      "constructor": {
        "notice": "Constructor"
      },
      "getAssetPrice(address)": {
        "notice": "Gets an asset price by address"
      },
      "getAssetsPrices(address[])": {
        "notice": "Gets a list of prices from a list of assets addresses"
      },
      "getFallbackOracle()": {
        "notice": "Gets the address of the fallback oracle"
      },
      "getSourceOfAsset(address)": {
        "notice": "Gets the address of the source for an asset address"
      },
      "setAssetSources(address[],address[])": {
        "notice": "External function called by the Aave governance to set or replace sources of assets"
      },
      "setFallbackOracle(address)": {
        "notice": "Sets the fallbackOracle - Callable only by the Aave governance"
      }
    },
    "notice": "Proxy smart contract to get the price of an asset from a price source, with Chainlink Aggregator         smart contracts as primary option - If the returned price by a Chainlink aggregator is <= 0, the call is forwarded to a fallbackOracle - Owned by the Aave governance system, allowed to add sources for assets, replace them   and change the fallbackOracle",
    "version": 1
  },
  "storageLayout": {
    "storage": [
      {
        "astId": 5437,
        "contract": "contracts/misc/AaveOracle.sol:AaveOracle",
        "label": "_owner",
        "offset": 0,
        "slot": "0",
        "type": "t_address"
      },
      {
        "astId": 16350,
        "contract": "contracts/misc/AaveOracle.sol:AaveOracle",
        "label": "assetsSources",
        "offset": 0,
        "slot": "1",
        "type": "t_mapping(t_address,t_contract(IChainlinkAggregator)10963)"
      },
      {
        "astId": 16352,
        "contract": "contracts/misc/AaveOracle.sol:AaveOracle",
        "label": "_fallbackOracle",
        "offset": 0,
        "slot": "2",
        "type": "t_contract(IPriceOracleGetter)12883"
      }
    ],
    "types": {
      "t_address": {
        "encoding": "inplace",
        "label": "address",
        "numberOfBytes": "20"
      },
      "t_contract(IChainlinkAggregator)10963": {
        "encoding": "inplace",
        "label": "contract IChainlinkAggregator",
        "numberOfBytes": "20"
      },
      "t_contract(IPriceOracleGetter)12883": {
        "encoding": "inplace",
        "label": "contract IPriceOracleGetter",
        "numberOfBytes": "20"
      },
      "t_mapping(t_address,t_contract(IChainlinkAggregator)10963)": {
        "encoding": "mapping",
        "key": "t_address",
        "label": "mapping(address => contract IChainlinkAggregator)",
        "numberOfBytes": "32",
        "value": "t_contract(IChainlinkAggregator)10963"
      }
    }
  }
}