{
  "address": "0x51F29083cBBf6a0f475B5E7ce0704b1F37DaDBB9",
  "abi": [
    {
      "anonymous": false,
      "inputs": [
        {
          "indexed": true,
          "internalType": "address",
          "name": "owner",
          "type": "address"
        },
        {
          "indexed": true,
          "internalType": "address",
          "name": "spender",
          "type": "address"
        },
        {
          "indexed": false,
          "internalType": "uint256",
          "name": "value",
          "type": "uint256"
        }
      ],
      "name": "Approval",
      "type": "event"
    },
    {
      "anonymous": false,
      "inputs": [
        {
          "indexed": true,
          "internalType": "address",
          "name": "from",
          "type": "address"
        },
        {
          "indexed": true,
          "internalType": "address",
          "name": "to",
          "type": "address"
        },
        {
          "indexed": false,
          "internalType": "uint256",
          "name": "value",
          "type": "uint256"
        },
        {
          "indexed": false,
          "internalType": "uint256",
          "name": "index",
          "type": "uint256"
        }
      ],
      "name": "BalanceTransfer",
      "type": "event"
    },
    {
      "anonymous": false,
      "inputs": [
        {
          "indexed": true,
          "internalType": "address",
          "name": "from",
          "type": "address"
        },
        {
          "indexed": true,
          "internalType": "address",
          "name": "target",
          "type": "address"
        },
        {
          "indexed": false,
          "internalType": "uint256",
          "name": "value",
          "type": "uint256"
        },
        {
          "indexed": false,
          "internalType": "uint256",
          "name": "index",
          "type": "uint256"
        }
      ],
      "name": "Burn",
      "type": "event"
    },
    {
      "anonymous": false,
      "inputs": [
        {
          "indexed": true,
          "internalType": "address",
          "name": "underlyingAsset",
          "type": "address"
        },
        {
          "indexed": true,
          "internalType": "address",
          "name": "pool",
          "type": "address"
        },
        {
          "indexed": false,
          "internalType": "address",
          "name": "treasury",
          "type": "address"
        },
        {
          "indexed": false,
          "internalType": "address",
          "name": "incentivesController",
          "type": "address"
        },
        {
          "indexed": false,
          "internalType": "uint8",
          "name": "aTokenDecimals",
          "type": "uint8"
        },
        {
          "indexed": false,
          "internalType": "string",
          "name": "aTokenName",
          "type": "string"
        },
        {
          "indexed": false,
          "internalType": "string",
          "name": "aTokenSymbol",
          "type": "string"
        },
        {
          "indexed": false,
          "internalType": "bytes",
          "name": "params",
          "type": "bytes"
        }
      ],
      "name": "Initialized",
      "type": "event"
    },
    {
      "anonymous": false,
      "inputs": [
        {
          "indexed": false,
          "internalType": "string",
          "name": "state",
          "type": "string"
        }
      ],
      "name": "MfdStatsSuccess",
      "type": "event"
    },
    {
      "anonymous": false,
      "inputs": [
        {
          "indexed": true,
          "internalType": "address",
          "name": "from",
          "type": "address"
        },
        {
          "indexed": false,
          "internalType": "uint256",
          "name": "value",
          "type": "uint256"
        },
        {
          "indexed": false,
          "internalType": "uint256",
          "name": "index",
          "type": "uint256"
        }
      ],
      "name": "Mint",
      "type": "event"
    },
    {
      "anonymous": false,
      "inputs": [
        {
          "indexed": true,
          "internalType": "address",
          "name": "from",
          "type": "address"
        },
        {
          "indexed": true,
          "internalType": "address",
          "name": "to",
          "type": "address"
        },
        {
          "indexed": false,
          "internalType": "uint256",
          "name": "value",
          "type": "uint256"
        }
      ],
      "name": "Transfer",
      "type": "event"
    },
    {
      "inputs": [],
      "name": "ATOKEN_REVISION",
      "outputs": [
        {
          "internalType": "uint256",
          "name": "",
          "type": "uint256"
        }
      ],
      "stateMutability": "view",
      "type": "function"
    },
    {
      "inputs": [],
      "name": "DOMAIN_SEPARATOR",
      "outputs": [
        {
          "internalType": "bytes32",
          "name": "",
          "type": "bytes32"
        }
      ],
      "stateMutability": "view",
      "type": "function"
    },
    {
      "inputs": [],
      "name": "EIP712_REVISION",
      "outputs": [
        {
          "internalType": "bytes",
          "name": "",
          "type": "bytes"
        }
      ],
      "stateMutability": "view",
      "type": "function"
    },
    {
      "inputs": [],
      "name": "PERMIT_TYPEHASH",
      "outputs": [
        {
          "internalType": "bytes32",
          "name": "",
          "type": "bytes32"
        }
      ],
      "stateMutability": "view",
      "type": "function"
    },
    {
      "inputs": [],
      "name": "POOL",
      "outputs": [
        {
          "internalType": "contract ILendingPool",
          "name": "",
          "type": "address"
        }
      ],
      "stateMutability": "view",
      "type": "function"
    },
    {
      "inputs": [],
      "name": "RESERVE_TREASURY_ADDRESS",
      "outputs": [
        {
          "internalType": "address",
          "name": "",
          "type": "address"
        }
      ],
      "stateMutability": "view",
      "type": "function"
    },
    {
      "inputs": [],
      "name": "UNDERLYING_ASSET_ADDRESS",
      "outputs": [
        {
          "internalType": "address",
          "name": "",
          "type": "address"
        }
      ],
      "stateMutability": "view",
      "type": "function"
    },
    {
      "inputs": [
        {
          "internalType": "address",
          "name": "",
          "type": "address"
        }
      ],
      "name": "_nonces",
      "outputs": [
        {
          "internalType": "uint256",
          "name": "",
          "type": "uint256"
        }
      ],
      "stateMutability": "view",
      "type": "function"
    },
    {
      "inputs": [
        {
          "internalType": "address",
          "name": "owner",
          "type": "address"
        },
        {
          "internalType": "address",
          "name": "spender",
          "type": "address"
        }
      ],
      "name": "allowance",
      "outputs": [
        {
          "internalType": "uint256",
          "name": "",
          "type": "uint256"
        }
      ],
      "stateMutability": "view",
      "type": "function"
    },
    {
      "inputs": [
        {
          "internalType": "address",
          "name": "spender",
          "type": "address"
        },
        {
          "internalType": "uint256",
          "name": "amount",
          "type": "uint256"
        }
      ],
      "name": "approve",
      "outputs": [
        {
          "internalType": "bool",
          "name": "",
          "type": "bool"
        }
      ],
      "stateMutability": "nonpayable",
      "type": "function"
    },
    {
      "inputs": [
        {
          "internalType": "address",
          "name": "user",
          "type": "address"
        }
      ],
      "name": "balanceOf",
      "outputs": [
        {
          "internalType": "uint256",
          "name": "",
          "type": "uint256"
        }
      ],
      "stateMutability": "view",
      "type": "function"
    },
    {
      "inputs": [
        {
          "internalType": "address",
          "name": "user",
          "type": "address"
        },
        {
          "internalType": "address",
          "name": "receiverOfUnderlying",
          "type": "address"
        },
        {
          "internalType": "uint256",
          "name": "amount",
          "type": "uint256"
        },
        {
          "internalType": "uint256",
          "name": "index",
          "type": "uint256"
        }
      ],
      "name": "burn",
      "outputs": [],
      "stateMutability": "nonpayable",
      "type": "function"
    },
    {
      "inputs": [],
      "name": "decimals",
      "outputs": [
        {
          "internalType": "uint8",
          "name": "",
          "type": "uint8"
        }
      ],
      "stateMutability": "view",
      "type": "function"
    },
    {
      "inputs": [
        {
          "internalType": "address",
          "name": "spender",
          "type": "address"
        },
        {
          "internalType": "uint256",
          "name": "subtractedValue",
          "type": "uint256"
        }
      ],
      "name": "decreaseAllowance",
      "outputs": [
        {
          "internalType": "bool",
          "name": "",
          "type": "bool"
        }
      ],
      "stateMutability": "nonpayable",
      "type": "function"
    },
    {
      "inputs": [],
      "name": "getAssetPrice",
      "outputs": [
        {
          "internalType": "uint256",
          "name": "",
          "type": "uint256"
        }
      ],
      "stateMutability": "view",
      "type": "function"
    },
    {
      "inputs": [],
      "name": "getIncentivesController",
      "outputs": [
        {
          "internalType": "contract IAaveIncentivesController",
          "name": "",
          "type": "address"
        }
      ],
      "stateMutability": "view",
      "type": "function"
    },
    {
      "inputs": [
        {
          "internalType": "address",
          "name": "user",
          "type": "address"
        }
      ],
      "name": "getScaledUserBalanceAndSupply",
      "outputs": [
        {
          "internalType": "uint256",
          "name": "",
          "type": "uint256"
        },
        {
          "internalType": "uint256",
          "name": "",
          "type": "uint256"
        }
      ],
      "stateMutability": "view",
      "type": "function"
    },
    {
      "inputs": [
        {
          "internalType": "address",
          "name": "user",
          "type": "address"
        },
        {
          "internalType": "uint256",
          "name": "amount",
          "type": "uint256"
        }
      ],
      "name": "handleRepayment",
      "outputs": [],
      "stateMutability": "nonpayable",
      "type": "function"
    },
    {
      "inputs": [
        {
          "internalType": "address",
          "name": "spender",
          "type": "address"
        },
        {
          "internalType": "uint256",
          "name": "addedValue",
          "type": "uint256"
        }
      ],
      "name": "increaseAllowance",
      "outputs": [
        {
          "internalType": "bool",
          "name": "",
          "type": "bool"
        }
      ],
      "stateMutability": "nonpayable",
      "type": "function"
    },
    {
      "inputs": [
        {
          "internalType": "contract ILendingPool",
          "name": "pool",
          "type": "address"
        },
        {
          "internalType": "address",
          "name": "treasury",
          "type": "address"
        },
        {
          "internalType": "address",
          "name": "underlyingAsset",
          "type": "address"
        },
        {
          "internalType": "contract IAaveIncentivesController",
          "name": "incentivesController",
          "type": "address"
        },
        {
          "internalType": "uint8",
          "name": "aTokenDecimals",
          "type": "uint8"
        },
        {
          "internalType": "string",
          "name": "aTokenName",
          "type": "string"
        },
        {
          "internalType": "string",
          "name": "aTokenSymbol",
          "type": "string"
        },
        {
          "internalType": "bytes",
          "name": "params",
          "type": "bytes"
        }
      ],
      "name": "initialize",
      "outputs": [],
      "stateMutability": "nonpayable",
      "type": "function"
    },
    {
      "inputs": [
        {
          "internalType": "address",
          "name": "user",
          "type": "address"
        },
        {
          "internalType": "uint256",
          "name": "amount",
          "type": "uint256"
        },
        {
          "internalType": "uint256",
          "name": "index",
          "type": "uint256"
        }
      ],
      "name": "mint",
      "outputs": [
        {
          "internalType": "bool",
          "name": "",
          "type": "bool"
        }
      ],
      "stateMutability": "nonpayable",
      "type": "function"
    },
    {
      "inputs": [
        {
          "internalType": "uint256",
          "name": "amount",
          "type": "uint256"
        },
        {
          "internalType": "uint256",
          "name": "index",
          "type": "uint256"
        }
      ],
      "name": "mintToTreasury",
      "outputs": [],
      "stateMutability": "nonpayable",
      "type": "function"
    },
    {
      "inputs": [],
      "name": "name",
      "outputs": [
        {
          "internalType": "string",
          "name": "",
          "type": "string"
        }
      ],
      "stateMutability": "view",
      "type": "function"
    },
    {
      "inputs": [
        {
          "internalType": "address",
          "name": "owner",
          "type": "address"
        },
        {
          "internalType": "address",
          "name": "spender",
          "type": "address"
        },
        {
          "internalType": "uint256",
          "name": "value",
          "type": "uint256"
        },
        {
          "internalType": "uint256",
          "name": "deadline",
          "type": "uint256"
        },
        {
          "internalType": "uint8",
          "name": "v",
          "type": "uint8"
        },
        {
          "internalType": "bytes32",
          "name": "r",
          "type": "bytes32"
        },
        {
          "internalType": "bytes32",
          "name": "s",
          "type": "bytes32"
        }
      ],
      "name": "permit",
      "outputs": [],
      "stateMutability": "nonpayable",
      "type": "function"
    },
    {
      "inputs": [
        {
          "internalType": "address",
          "name": "user",
          "type": "address"
        }
      ],
      "name": "scaledBalanceOf",
      "outputs": [
        {
          "internalType": "uint256",
          "name": "",
          "type": "uint256"
        }
      ],
      "stateMutability": "view",
      "type": "function"
    },
    {
      "inputs": [],
      "name": "scaledTotalSupply",
      "outputs": [
        {
          "internalType": "uint256",
          "name": "",
          "type": "uint256"
        }
      ],
      "stateMutability": "view",
      "type": "function"
    },
    {
      "inputs": [],
      "name": "symbol",
      "outputs": [
        {
          "internalType": "string",
          "name": "",
          "type": "string"
        }
      ],
      "stateMutability": "view",
      "type": "function"
    },
    {
      "inputs": [],
      "name": "totalSupply",
      "outputs": [
        {
          "internalType": "uint256",
          "name": "",
          "type": "uint256"
        }
      ],
      "stateMutability": "view",
      "type": "function"
    },
    {
      "inputs": [
        {
          "internalType": "address",
          "name": "recipient",
          "type": "address"
        },
        {
          "internalType": "uint256",
          "name": "amount",
          "type": "uint256"
        }
      ],
      "name": "transfer",
      "outputs": [
        {
          "internalType": "bool",
          "name": "",
          "type": "bool"
        }
      ],
      "stateMutability": "nonpayable",
      "type": "function"
    },
    {
      "inputs": [
        {
          "internalType": "address",
          "name": "sender",
          "type": "address"
        },
        {
          "internalType": "address",
          "name": "recipient",
          "type": "address"
        },
        {
          "internalType": "uint256",
          "name": "amount",
          "type": "uint256"
        }
      ],
      "name": "transferFrom",
      "outputs": [
        {
          "internalType": "bool",
          "name": "",
          "type": "bool"
        }
      ],
      "stateMutability": "nonpayable",
      "type": "function"
    },
    {
      "inputs": [
        {
          "internalType": "address",
          "name": "from",
          "type": "address"
        },
        {
          "internalType": "address",
          "name": "to",
          "type": "address"
        },
        {
          "internalType": "uint256",
          "name": "value",
          "type": "uint256"
        }
      ],
      "name": "transferOnLiquidation",
      "outputs": [],
      "stateMutability": "nonpayable",
      "type": "function"
    },
    {
      "inputs": [
        {
          "internalType": "address",
          "name": "target",
          "type": "address"
        },
        {
          "internalType": "uint256",
          "name": "amount",
          "type": "uint256"
        }
      ],
      "name": "transferUnderlyingTo",
      "outputs": [
        {
          "internalType": "uint256",
          "name": "",
          "type": "uint256"
        }
      ],
      "stateMutability": "nonpayable",
      "type": "function"
    }
  ],
  "transactionHash": "0x7d19c02f6b8f02e3578f520bde05a3cf17353bdceb719920df58e750da5d6a46",
  "args": [],
  "numDeployments": 1,
  "solcInputHash": "78995fe69be866012cdea8ea4c4842de",
  "bytecode": "0x6080604052600080553480156200001557600080fd5b50604080518082018252600b8082526a105513d2d15397d253541360aa1b60208084018281528551808701909652928552840152815191929160009162000060916037919062000094565b5081516200007690603890602085019062000094565b506039805460ff191660ff9290921691909117905550620001409050565b828054600181600116156101000203166002900490600052602060002090601f016020900481019282620000cc576000855562000117565b82601f10620000e757805160ff191683800117855562000117565b8280016001018555821562000117579182015b8281111562000117578251825591602001919060010190620000fa565b506200012592915062000129565b5090565b5b808211156200012557600081556001016200012a565b612cd080620001506000396000f3fe608060405234801561001057600080fd5b50600436106101805760003560e01c806306fdde0314610185578063095ea7b3146101a35780630afbcdc9146101c35780630bd7ad3b146101e4578063156e29f6146101f957806318160ddd1461020c578063183fb413146102145780631da24f3e1461022957806323b872dd1461023c57806330adf81f1461024f578063313ce567146102575780633644e5151461026c57806339509351146102745780634efecaa51461028757806370a082311461029a5780637535d246146102ad57806375d26413146102c257806378160376146102ca5780637df5bd3b146102d257806388dd91a1146102e557806395d89b41146102f8578063a457c2d714610300578063a9059cbb14610313578063ae16733514610326578063b16a19de1461032e578063b1bf962d14610336578063b9844d8d1461033e578063d505accf14610351578063d7020d0a14610364578063dd62ed3e14610377578063e54f08801461038a578063f866c31914610392575b600080fd5b61018d6103a5565b60405161019a9190612906565b60405180910390f35b6101b66101b1366004612592565b61043c565b60405161019a9190612874565b6101d66101d1366004612430565b61045a565b60405161019a929190612a4a565b6101ec610477565b60405161019a919061287f565b6101b66102073660046125bd565b61047c565b6101ec6105b8565b6102276102223660046125f1565b61066f565b005b6101ec610237366004612430565b61092e565b6101b661024a3660046124a0565b610941565b6101ec610a01565b61025f610a13565b60405161019a9190612a58565b6101ec610a1c565b6101b6610282366004612592565b610a22565b6101ec610295366004612592565b610a70565b6101ec6102a8366004612430565b610aed565b6102b5610b8b565b60405161019a91906127b9565b6102b5610b9f565b61018d610bae565b6102276102e03660046126f8565b610bcb565b6102276102f3366004612592565b610e1e565b61018d610e7f565b6101b661030e366004612592565b610ee0565b6101b6610321366004612592565b610f48565b6102b5610fa5565b6102b5610fb4565b6101ec610fc3565b6101ec61034c366004612430565b610fcd565b61022761035f366004612525565b610fdf565b6102276103723660046124e0565b611165565b6101ec610385366004612468565b6112b8565b6101ec6112e3565b6102276103a03660046124a0565b611455565b60378054604080516020601f60026000196101006001881615020190951694909404938401819004810282018101909252828152606093909290918301828280156104315780601f1061040657610100808354040283529160200191610431565b820191906000526020600020905b81548152906001019060200180831161041457829003601f168201915b505050505090505b90565b60006104506104496114fd565b8484611501565b5060015b92915050565b600080610466836115ed565b61046e611608565b91509150915091565b600181565b60395460009061010090046001600160a01b03166104986114fd565b6001600160a01b03161460405180604001604052806002815260200161323960f01b815250906104e45760405162461bcd60e51b81526004016104db9190612906565b60405180910390fd5b5060006104f0856115ed565b905060006104fe858561160e565b6040805180820190915260028152611a9b60f11b6020820152909150816105385760405162461bcd60e51b81526004016104db9190612906565b506105438682611750565b856001600160a01b031660006001600160a01b0316600080516020612ba283398151915287604051610575919061287f565b60405180910390a3856001600160a01b0316600080516020612b0683398151915286866040516105a6929190612a4a565b60405180910390a25015949350505050565b6000806105c3611608565b9050806105d4576000915050610439565b603954603a5460405163d15e005360e01b81526106699261010090046001600160a01b039081169263d15e00539261061292909116906004016127b9565b60206040518083038186803b15801561062a57600080fd5b505afa15801561063e573d6000803e3d6000fd5b505050506040513d601f19601f8201168201806040525081019061066291906126e0565b8290611932565b91505090565b60006106796119ed565b60015490915060ff168061069057506106906119f2565b8061069c575060005481115b6106d75760405162461bcd60e51b815260040180806020018281038252602e815260200180612b74602e913960400191505060405180910390fd5b60015460ff161580156106f6576001805460ff19168117905560008290555b60405146907f8b73c3c69bb8fe3d512ecc4cf759cc79239f7b179b0ffacaa9a75d522b39400f9061072a908b908b9061278e565b60408051918290038220828201825260018352603160f81b602093840152905161077b93927fc89efdaa54c0f20c7adf612882df0950f5a951637e0307cdcb4c672f298b8bc69186913091016128bc565b60408051601f198184030181528282528051602091820120603c55601f8b018190048102830181019091528982526107ce91908b908b90819084018382808284376000920191909152506119f892505050565b61080d87878080601f016020809104026020016040519081016040528093929190818152602001838380828437600092019190915250611a0b92505050565b6108168a611a1e565b8d603960016101000a8154816001600160a01b0302191690836001600160a01b031602179055508c603d60006101000a8154816001600160a01b0302191690836001600160a01b031602179055508b603a60006101000a8154816001600160a01b0302191690836001600160a01b031602179055508a603e60006101000a8154816001600160a01b0302191690836001600160a01b031602179055508d6001600160a01b03168c6001600160a01b03167fb19e051f8af41150ccccb3fc2c2d8d15f4a4cf434f32a559ba75fe73d6eea20b8f8e8e8e8e8e8e8e8e60405161090599989796959493929190612806565b60405180910390a350801561091f576001805460ff191690555b50505050505050505050505050565b6000610939826115ed565b90505b919050565b600061094e848484611a34565b6109be8461095a6114fd565b6109b985604051806060016040528060288152602001612b4c602891396001600160a01b038a166000908152603560205260408120906109986114fd565b6001600160a01b031681526020810191909152604001600020549190611a41565b611501565b826001600160a01b0316846001600160a01b0316600080516020612ba2833981519152846040518082815260200191505060405180910390a35060019392505050565b600080516020612be383398151915281565b60395460ff1690565b603c5481565b6000610450610a2f6114fd565b846109b98560356000610a406114fd565b6001600160a01b03908116825260208083019390935260409182016000908120918c168152925290205490611a9b565b60395460009061010090046001600160a01b0316610a8c6114fd565b6001600160a01b03161460405180604001604052806002815260200161323960f01b81525090610acf5760405162461bcd60e51b81526004016104db9190612906565b50603a54610ae7906001600160a01b03168484611afa565b50919050565b603954603a5460405163d15e005360e01b8152600092610939926001600160a01b0361010090920482169263d15e005392610b2c9216906004016127b9565b60206040518083038186803b158015610b4457600080fd5b505afa158015610b58573d6000803e3d6000fd5b505050506040513d601f19601f82011682018060405250810190610b7c91906126e0565b610b85846115ed565b90611932565b60395461010090046001600160a01b031690565b6000610ba9611b4c565b905090565b604051806040016040528060018152602001603160f81b81525081565b60395461010090046001600160a01b0316610be46114fd565b6001600160a01b03161460405180604001604052806002815260200161323960f01b81525090610c275760405162461bcd60e51b81526004016104db9190612906565b5081610c3257610e1a565b603d546001600160a01b0316610c5181610c4c858561160e565b611750565b806001600160a01b0316638bb403eb6040518163ffffffff1660e01b815260040160206040518083038186803b158015610c8a57600080fd5b505afa925050508015610cba575060408051601f3d908101601f19168201909252610cb79181019061244c565b60015b610ce657600080516020612ae6833981519152604051610cd9906129e7565b60405180910390a1610dad565b60408051606081018252603a546001600160a01b03908116825260208201879052848116828401529151633a14952760e11b8152918316916374292a4e91610d3091600401612a1d565b600060405180830381600087803b158015610d4a57600080fd5b505af1925050508015610d5b575060015b610d8757600080516020612ae6833981519152604051610d7a906129b9565b60405180910390a1610dab565b600080516020612ae6833981519152604051610da290612919565b60405180910390a15b505b806001600160a01b031660006001600160a01b0316600080516020612ba283398151915285604051610ddf919061287f565b60405180910390a3806001600160a01b0316600080516020612b068339815191528484604051610e10929190612a4a565b60405180910390a2505b5050565b60395461010090046001600160a01b0316610e376114fd565b6001600160a01b03161460405180604001604052806002815260200161323960f01b81525090610e7a5760405162461bcd60e51b81526004016104db9190612906565b505050565b60388054604080516020601f60026000196101006001881615020190951694909404938401819004810282018101909252828152606093909290918301828280156104315780601f1061040657610100808354040283529160200191610431565b6000610450610eed6114fd565b846109b985604051806060016040528060258152602001612c766025913960356000610f176114fd565b6001600160a01b03908116825260208083019390935260409182016000908120918d16815292529020549190611a41565b6000610f5c610f556114fd565b8484611a34565b826001600160a01b0316610f6e6114fd565b6001600160a01b0316600080516020612ba2833981519152846040518082815260200191505060405180910390a350600192915050565b603d546001600160a01b031690565b603a546001600160a01b031690565b6000610ba9611608565b603b6020526000908152604090205481565b6001600160a01b0387166110055760405162461bcd60e51b81526004016104db90612992565b834211156110255760405162461bcd60e51b81526004016104db90612966565b6001600160a01b0387166000908152603b6020908152604080832054603c54915190939261106d91600080516020612be3833981519152918d918d918d9189918e9101612888565b6040516020818303038152906040528051906020012060405160200161109492919061279e565b604051602081830303815290604052805190602001209050600181868686604051600081526020016040526040516110cf94939291906128e8565b6020604051602081039080840390855afa1580156110f1573d6000803e3d6000fd5b505050602060405103516001600160a01b0316896001600160a01b03161461112b5760405162461bcd60e51b81526004016104db9061293b565b611136826001611a9b565b6001600160a01b038a166000908152603b602052604090205561115a898989611501565b505050505050505050565b60395461010090046001600160a01b031661117e6114fd565b6001600160a01b03161460405180604001604052806002815260200161323960f01b815250906111c15760405162461bcd60e51b81526004016104db9190612906565b5060006111ce838361160e565b60408051808201909152600281526106a760f31b6020820152909150816112085760405162461bcd60e51b81526004016104db9190612906565b506112138582611b5b565b603a5461122a906001600160a01b03168585611afa565b60006001600160a01b0316856001600160a01b0316600080516020612ba28339815191528560405161125c919061287f565b60405180910390a3836001600160a01b0316856001600160a01b03167f5d624aa9c148153ab3446c1b154f660ee7701e549fe9b62dab7171b1c80e6fa285856040516112a9929190612a4a565b60405180910390a35050505050565b6001600160a01b03918216600090815260356020908152604080832093909416825291909152205490565b600080603960019054906101000a90046001600160a01b03166001600160a01b031663fe65acfe6040518163ffffffff1660e01b815260040160206040518083038186803b15801561133457600080fd5b505afa158015611348573d6000803e3d6000fd5b505050506040513d602081101561135e57600080fd5b505160408051631f94a27560e31b815290519192506000916001600160a01b0384169163fca513a8916004808301926020929190829003018186803b1580156113a657600080fd5b505afa1580156113ba573d6000803e3d6000fd5b505050506040513d60208110156113d057600080fd5b5051603a546040805163b3596f0760e01b81526001600160a01b03928316600482015290519293509083169163b3596f0791602480820192602092909190829003018186803b15801561142257600080fd5b505afa158015611436573d6000803e3d6000fd5b505050506040513d602081101561144c57600080fd5b50519250505090565b60395461010090046001600160a01b031661146e6114fd565b6001600160a01b03161460405180604001604052806002815260200161323960f01b815250906114b15760405162461bcd60e51b81526004016104db9190612906565b506114bf8383836000611bfd565b816001600160a01b0316836001600160a01b0316600080516020612ba2833981519152836040516114f0919061287f565b60405180910390a3505050565b3390565b6001600160a01b0383166115465760405162461bcd60e51b8152600401808060200182810382526024815260200180612c286024913960400191505060405180910390fd5b6001600160a01b03821661158b5760405162461bcd60e51b8152600401808060200182810382526022815260200180612ac46022913960400191505060405180910390fd5b6001600160a01b03808416600081815260356020908152604080832094871680845294825291829020859055815185815291517f8c5be1e5ebec7d5bd14f71427d1e84f3dd0314c0f7b2291e5b200ac8c7c3b9259281900390910190a3505050565b6001600160a01b031660009081526034602052604090205490565b60365490565b604080518082019091526002815261035360f41b6020820152600090826116b35760405162461bcd60e51b81526004018080602001828103825283818151815260200191508051906020019080838360005b83811015611678578181015183820152602001611660565b50505050905090810190601f1680156116a55780820380516001836020036101000a031916815260200191505b509250505060405180910390fd5b5060408051808201909152600280825261068760f31b6020830152830490676765c793fa10079d601b1b82190485111561172e5760405162461bcd60e51b8152602060048201818152835160248401528351909283926044909101919085019080838360008315611678578181015183820152602001611660565b508281676765c793fa10079d601b1b8602018161174757fe5b04949350505050565b6001600160a01b0382166117ab576040805162461bcd60e51b815260206004820152601f60248201527f45524332303a206d696e7420746f20746865207a65726f206164647265737300604482015290519081900360640190fd5b6117b760008383610e7a565b6036546000906117c79083611a9b565b6001600160a01b038416600090815260346020526040812054919250906117ee9084611a9b565b905060006117fa611b4c565b6001600160a01b03161461187757611810611b4c565b6001600160a01b0316639b5a734f856040518263ffffffff1660e01b815260040180826001600160a01b03168152602001915050600060405180830381600087803b15801561185e57600080fd5b505af1158015611872573d6000803e3d6000fd5b505050505b60368290556001600160a01b038416600090815260346020526040812082905561189f611b4c565b6001600160a01b03161461192c576118b5611b4c565b6001600160a01b0316631d94f24d8583856040518463ffffffff1660e01b815260040180846001600160a01b031681526020018381526020018281526020019350505050600060405180830381600087803b15801561191357600080fd5b505af1158015611927573d6000803e3d6000fd5b505050505b50505050565b600082158061193f575081155b1561194c57506000610454565b81676765c793fa10079d601a1b198161196157fe5b0483111560405180604001604052806002815260200161068760f31b815250906119cc5760405162461bcd60e51b8152602060048201818152835160248401528351909283926044909101919085019080838360008315611678578181015183820152602001611660565b5050676765c793fa10079d601b1b9102676765c793fa10079d601a1b010490565b600190565b303b1590565b8051610e1a90603790602084019061232d565b8051610e1a90603890602084019061232d565b6039805460ff191660ff92909216919091179055565b610e7a8383836001611bfd565b60008184841115611a935760405162461bcd60e51b8152602060048201818152835160248401528351909283926044909101919085019080838360008315611678578181015183820152602001611660565b505050900390565b600082820183811015611af3576040805162461bcd60e51b815260206004820152601b60248201527a536166654d6174683a206164646974696f6e206f766572666c6f7760281b604482015290519081900360640190fd5b9392505050565b604080516001600160a01b038416602482015260448082018490528251808303909101815260649091019091526020810180516001600160e01b031663a9059cbb60e01b179052610e7a908490611d8e565b603e546001600160a01b031690565b6001600160a01b038216611ba05760405162461bcd60e51b8152600401808060200182810382526021815260200180612bc26021913960400191505060405180910390fd5b611bac82600083610e7a565b603654600090611bbc9083611f45565b905060006117ee83604051806060016040528060228152602001612aa2602291396001600160a01b0387166000908152603460205260409020549190611a41565b603a5460395460405163d15e005360e01b81526001600160a01b039283169261010090920490911690600090829063d15e005390611c3f9086906004016127b9565b60206040518083038186803b158015611c5757600080fd5b505afa158015611c6b573d6000803e3d6000fd5b505050506040513d601f19601f82011682018060405250810190611c8f91906126e0565b90506000611ca082610b858a6115ed565b90506000611cb183610b858a6115ed565b9050611cc78989611cc28a8761160e565b611f87565b8515611d365760405163d5ed393360e01b81526001600160a01b0385169063d5ed393390611d039088908d908d908d90899089906004016127cd565b600060405180830381600087803b158015611d1d57600080fd5b505af1158015611d31573d6000803e3d6000fd5b505050505b876001600160a01b0316896001600160a01b03167f4beccb90f994c31aced7a23b5611020728a23d8ec5cddd1a3e9d97b96fda86668986604051611d7b929190612a4a565b60405180910390a3505050505050505050565b611da0826001600160a01b03166122f1565b611df1576040805162461bcd60e51b815260206004820152601f60248201527f5361666545524332303a2063616c6c20746f206e6f6e2d636f6e747261637400604482015290519081900360640190fd5b600080836001600160a01b0316836040518082805190602001908083835b60208310611e2e5780518252601f199092019160209182019101611e0f565b6001836020036101000a0380198251168184511680821785525050505050509050019150506000604051808303816000865af19150503d8060008114611e90576040519150601f19603f3d011682016040523d82523d6000602084013e611e95565b606091505b509150915081611eec576040805162461bcd60e51b815260206004820181905260248201527f5361666545524332303a206c6f772d6c6576656c2063616c6c206661696c6564604482015290519081900360640190fd5b80511561192c57808060200190516020811015611f0857600080fd5b505161192c5760405162461bcd60e51b815260040180806020018281038252602a815260200180612c4c602a913960400191505060405180910390fd5b6000611af383836040518060400160405280601e81526020017f536166654d6174683a207375627472616374696f6e206f766572666c6f770000815250611a41565b6001600160a01b038316611fcc5760405162461bcd60e51b8152600401808060200182810382526025815260200180612c036025913960400191505060405180910390fd5b6001600160a01b0382166120115760405162461bcd60e51b8152600401808060200182810382526023815260200180612a7f6023913960400191505060405180910390fd5b61201c838383610e7a565b600061205b82604051806060016040528060268152602001612b26602691396001600160a01b0387166000908152603460205260409020549190611a41565b90506000612067611b4c565b6001600160a01b03161461216b5761207d611b4c565b6001600160a01b0316639b5a734f856040518263ffffffff1660e01b815260040180826001600160a01b03168152602001915050600060405180830381600087803b1580156120cb57600080fd5b505af11580156120df573d6000803e3d6000fd5b50505050826001600160a01b0316846001600160a01b03161461216b57612104611b4c565b6001600160a01b0316639b5a734f846040518263ffffffff1660e01b815260040180826001600160a01b03168152602001915050600060405180830381600087803b15801561215257600080fd5b505af1158015612166573d6000803e3d6000fd5b505050505b6001600160a01b0380851660009081526034602052604080822084905591851681529081205461219b9084611a9b565b6001600160a01b03851660009081526034602052604081208290559091506121c1611b4c565b6001600160a01b0316146122ea576036546121da611b4c565b6001600160a01b0316631d94f24d8785846040518463ffffffff1660e01b815260040180846001600160a01b031681526020018381526020018281526020019350505050600060405180830381600087803b15801561223857600080fd5b505af115801561224c573d6000803e3d6000fd5b50505050846001600160a01b0316866001600160a01b0316146122e857612271611b4c565b6001600160a01b0316631d94f24d8684846040518463ffffffff1660e01b815260040180846001600160a01b031681526020018381526020018281526020019350505050600060405180830381600087803b1580156122cf57600080fd5b505af11580156122e3573d6000803e3d6000fd5b505050505b505b5050505050565b6000813f7fc5d2460186f7233c927e7db2dcc703c0e500b653ca82273b7bfad8045d85a47081811480159061232557508115155b949350505050565b828054600181600116156101000203166002900490600052602060002090601f01602090048101928261236357600085556123a9565b82601f1061237c57805160ff19168380011785556123a9565b828001600101855582156123a9579182015b828111156123a957825182559160200191906001019061238e565b506123b59291506123b9565b5090565b5b808211156123b557600081556001016123ba565b803561093c81612a66565b60008083601f8401126123ea578182fd5b5081356001600160401b03811115612400578182fd5b60208301915083602082850101111561241857600080fd5b9250929050565b803560ff8116811461093c57600080fd5b600060208284031215612441578081fd5b8135611af381612a66565b60006020828403121561245d578081fd5b8151611af381612a66565b6000806040838503121561247a578081fd5b823561248581612a66565b9150602083013561249581612a66565b809150509250929050565b6000806000606084860312156124b4578081fd5b83356124bf81612a66565b925060208401356124cf81612a66565b929592945050506040919091013590565b600080600080608085870312156124f5578081fd5b843561250081612a66565b9350602085013561251081612a66565b93969395505050506040820135916060013590565b600080600080600080600060e0888a03121561253f578283fd5b873561254a81612a66565b9650602088013561255a81612a66565b955060408801359450606088013593506125766080890161241f565b925060a0880135915060c0880135905092959891949750929550565b600080604083850312156125a4578182fd5b82356125af81612a66565b946020939093013593505050565b6000806000606084860312156125d1578283fd5b83356125dc81612a66565b95602085013595506040909401359392505050565b60008060008060008060008060008060006101008c8e031215612612578384fd5b61261b8c6123ce565b9a5061262960208d016123ce565b995061263760408d016123ce565b985061264560608d016123ce565b975061265360808d0161241f565b96506001600160401b0360a08d013581101561266d578485fd5b61267d8e60a08f01358f016123d9565b909750955060c08d0135811015612692578485fd5b6126a28e60c08f01358f016123d9565b909550935060e08d01358110156126b7578283fd5b506126c88d60e08e01358e016123d9565b81935080925050509295989b509295989b9093969950565b6000602082840312156126f1578081fd5b5051919050565b6000806040838503121561270a578182fd5b50508035926020909101359150565b60008284528282602086013780602084860101526020601f19601f85011685010190509392505050565b60008151808452815b818110156127685760208185018101518683018201520161274c565b818111156127795782602083870101525b50601f01601f19169290920160200192915050565b6000828483379101908152919050565b61190160f01b81526002810192909252602282015260420190565b6001600160a01b0391909116815260200190565b6001600160a01b03968716815294861660208601529290941660408401526060830152608082019290925260a081019190915260c00190565b6001600160a01b038a811682528916602082015260ff8816604082015260c06060820181905260009061283c908301888a612719565b828103608084015261284f818789612719565b905082810360a0840152612864818587612719565b9c9b505050505050505050505050565b901515815260200190565b90815260200190565b9586526001600160a01b0394851660208701529290931660408501526060840152608083019190915260a082015260c00190565b9485526020850193909352604084019190915260608301526001600160a01b0316608082015260a00190565b93845260ff9290921660208401526040830152606082015260800190565b600060208252611af36020830184612743565b602080825260089082015267537563636573732160c01b604082015260600190565b602080825260119082015270494e56414c49445f5349474e415455524560781b604082015260600190565b60208082526012908201527124a72b20a624a22fa2ac2824a920aa24a7a760711b604082015260600190565b6020808252600d908201526c24a72b20a624a22fa7aba722a960991b604082015260600190565b602080825260149082015273416464205472616e73666572204661696c65642160601b604082015260600190565b6020808252601c908201527b476574204d464473746174732041646472657373204661696c65642160201b604082015260600190565b81516001600160a01b03908116825260208084015190830152604092830151169181019190915260600190565b918252602082015260400190565b60ff91909116815260200190565b6001600160a01b0381168114612a7b57600080fd5b5056fe45524332303a207472616e7366657220746f20746865207a65726f206164647265737345524332303a206275726e20616d6f756e7420657863656564732062616c616e636545524332303a20617070726f766520746f20746865207a65726f2061646472657373bb9c67049953361834b46d9f27e194b0ad1efc479421bbaff59d8801fdd12a994c209b5fc8ad50758f13e2e1088ba56a560dff690a1c6fef26394f4c03821c4f45524332303a207472616e7366657220616d6f756e7420657863656564732062616c616e636545524332303a207472616e7366657220616d6f756e74206578636565647320616c6c6f77616e6365436f6e747261637420696e7374616e63652068617320616c7265616479206265656e20696e697469616c697a6564ddf252ad1be2c89b69c2b068fc378daa952ba7f163c4a11628f55a4df523b3ef45524332303a206275726e2066726f6d20746865207a65726f20616464726573736e71edae12b1b97f4d1f60370fef10105fa2faae0126114a169c64845d6126c945524332303a207472616e736665722066726f6d20746865207a65726f206164647265737345524332303a20617070726f76652066726f6d20746865207a65726f20616464726573735361666545524332303a204552433230206f7065726174696f6e20646964206e6f74207375636365656445524332303a2064656372656173656420616c6c6f77616e63652062656c6f77207a65726fa2646970667358221220184d606dd6438986ef80b0b6adad53077302242c44ef1d9cb3787863a9e6af4d64736f6c63430007060033",
  "devdoc": {
    "author": "Aave",
    "details": "Implementation of the interest bearing token for the Aave protocol",
    "kind": "dev",
    "methods": {
      "POOL()": {
        "details": "Returns the address of the lending pool where this aToken is used*"
      },
      "RESERVE_TREASURY_ADDRESS()": {
        "details": "Returns the address of the Aave treasury, receiving the fees on this aToken*"
      },
      "UNDERLYING_ASSET_ADDRESS()": {
        "details": "Returns the address of the underlying asset of this aToken (E.g. WETH for aWETH)*"
      },
      "allowance(address,address)": {
        "details": "Returns the allowance of spender on the tokens owned by owner",
        "params": {
          "owner": "The owner of the tokens",
          "spender": "The user allowed to spend the owner's tokens"
        },
        "returns": {
          "_0": "The amount of owner's tokens spender is allowed to spend*"
        }
      },
      "approve(address,uint256)": {
        "details": "Allows `spender` to spend the tokens owned by _msgSender()",
        "params": {
          "spender": "The user allowed to spend _msgSender() tokens"
        },
        "returns": {
          "_0": "`true`*"
        }
      },
      "balanceOf(address)": {
        "details": "Calculates the balance of the user: principal balance + interest generated by the principal",
        "params": {
          "user": "The user whose balance is calculated"
        },
        "returns": {
          "_0": "The balance of the user*"
        }
      },
      "burn(address,address,uint256,uint256)": {
        "details": "Burns aTokens from `user` and sends the equivalent amount of underlying to `receiverOfUnderlying` - Only callable by the LendingPool, as extra state updates there need to be managed",
        "params": {
          "amount": "The amount being burned",
          "index": "The new liquidity index of the reserve*",
          "receiverOfUnderlying": "The address that will receive the underlying",
          "user": "The owner of the aTokens, getting them burned"
        }
      },
      "decimals()": {
        "returns": {
          "_0": "The decimals of the token*"
        }
      },
      "decreaseAllowance(address,uint256)": {
        "details": "Decreases the allowance of spender to spend _msgSender() tokens",
        "params": {
          "spender": "The user allowed to spend on behalf of _msgSender()",
          "subtractedValue": "The amount being subtracted to the allowance"
        },
        "returns": {
          "_0": "`true`*"
        }
      },
      "getIncentivesController()": {
        "details": "Returns the address of the incentives controller contract*"
      },
      "getScaledUserBalanceAndSupply(address)": {
        "details": "Returns the scaled balance of the user and the scaled total supply.",
        "params": {
          "user": "The address of the user"
        },
        "returns": {
          "_0": "The scaled balance of the user",
          "_1": "The scaled balance and the scaled total supply*"
        }
      },
      "handleRepayment(address,uint256)": {
        "details": "Invoked to execute actions on the aToken side after a repayment.",
        "params": {
          "amount": "The amount getting repaid*",
          "user": "The user executing the repayment"
        }
      },
      "increaseAllowance(address,uint256)": {
        "details": "Increases the allowance of spender to spend _msgSender() tokens",
        "params": {
          "addedValue": "The amount being added to the allowance",
          "spender": "The user allowed to spend on behalf of _msgSender()"
        },
        "returns": {
          "_0": "`true`*"
        }
      },
      "initialize(address,address,address,address,uint8,string,string,bytes)": {
        "details": "Initializes the aToken",
        "params": {
          "aTokenDecimals": "The decimals of the aToken, same as the underlying asset's",
          "aTokenName": "The name of the aToken",
          "aTokenSymbol": "The symbol of the aToken",
          "incentivesController": "The smart contract managing potential incentives distribution",
          "pool": "The address of the lending pool where this aToken will be used",
          "treasury": "The address of the Aave treasury, receiving the fees on this aToken",
          "underlyingAsset": "The address of the underlying asset of this aToken (E.g. WETH for aWETH)"
        }
      },
      "mint(address,uint256,uint256)": {
        "details": "Mints `amount` aTokens to `user` - Only callable by the LendingPool, as extra state updates there need to be managed",
        "params": {
          "amount": "The amount of tokens getting minted",
          "index": "The new liquidity index of the reserve",
          "user": "The address receiving the minted tokens"
        },
        "returns": {
          "_0": "`true` if the the previous balance of the user was 0"
        }
      },
      "mintToTreasury(uint256,uint256)": {
        "details": "Mints aTokens to the reserve treasury - Only callable by the LendingPool",
        "params": {
          "amount": "The amount of tokens getting minted",
          "index": "The new liquidity index of the reserve"
        }
      },
      "name()": {
        "returns": {
          "_0": "The name of the token*"
        }
      },
      "permit(address,address,uint256,uint256,uint8,bytes32,bytes32)": {
        "details": "implements the permit function as for https://github.com/ethereum/EIPs/blob/8a34d644aacf0f9f8f00815307fd7dd5da07655f/EIPS/eip-2612.md",
        "params": {
          "deadline": "The deadline timestamp, type(uint256).max for max deadline",
          "owner": "The owner of the funds",
          "r": "Signature param",
          "s": "Signature param",
          "spender": "The spender",
          "v": "Signature param",
          "value": "The amount"
        }
      },
      "scaledBalanceOf(address)": {
        "details": "Returns the scaled balance of the user. The scaled balance is the sum of all the updated stored balance divided by the reserve's liquidity index at the moment of the update",
        "params": {
          "user": "The user whose balance is calculated"
        },
        "returns": {
          "_0": "The scaled balance of the user*"
        }
      },
      "scaledTotalSupply()": {
        "details": "Returns the scaled total supply of the variable debt token. Represents sum(debt/index)",
        "returns": {
          "_0": "the scaled total supply*"
        }
      },
      "symbol()": {
        "returns": {
          "_0": "The symbol of the token*"
        }
      },
      "totalSupply()": {
        "details": "calculates the total supply of the specific aToken since the balance of every single user increases over time, the total supply does that too.",
        "returns": {
          "_0": "the current total supply*"
        }
      },
      "transfer(address,uint256)": {
        "details": "Executes a transfer of tokens from _msgSender() to recipient",
        "params": {
          "amount": "The amount of tokens being transferred",
          "recipient": "The recipient of the tokens"
        },
        "returns": {
          "_0": "`true` if the transfer succeeds, `false` otherwise*"
        }
      },
      "transferFrom(address,address,uint256)": {
        "details": "Executes a transfer of token from sender to recipient, if _msgSender() is allowed to do so",
        "params": {
          "amount": "The amount of tokens being transferred",
          "recipient": "The recipient of the tokens",
          "sender": "The owner of the tokens"
        },
        "returns": {
          "_0": "`true` if the transfer succeeds, `false` otherwise*"
        }
      },
      "transferOnLiquidation(address,address,uint256)": {
        "details": "Transfers aTokens in the event of a borrow being liquidated, in case the liquidators reclaims the aToken - Only callable by the LendingPool",
        "params": {
          "from": "The address getting liquidated, current owner of the aTokens",
          "to": "The recipient",
          "value": "The amount of tokens getting transferred*"
        }
      },
      "transferUnderlyingTo(address,uint256)": {
        "details": "Transfers the underlying asset to `target`. Used by the LendingPool to transfer assets in borrow(), withdraw() and flashLoan()",
        "params": {
          "amount": "The amount getting transferred",
          "target": "The recipient of the aTokens"
        },
        "returns": {
          "_0": "The amount transferred*"
        }
      }
    },
    "stateVariables": {
      "_nonces": {
        "details": "owner => next valid nonce to submit with permit()"
      }
    },
    "title": "Aave ERC20 AToken",
    "version": 1
  },
  "userdoc": {
    "kind": "user",
    "methods": {},
    "version": 1
  },
  "storageLayout": {
    "storage": [
      {
        "astId": 29898,
        "contract": "contracts/protocol/tokenization/AToken.sol:AToken",
        "label": "lastInitializedRevision",
        "offset": 0,
        "slot": "0",
        "type": "t_uint256"
      },
      {
        "astId": 29901,
        "contract": "contracts/protocol/tokenization/AToken.sol:AToken",
        "label": "initializing",
        "offset": 0,
        "slot": "1",
        "type": "t_bool"
      },
      {
        "astId": 29971,
        "contract": "contracts/protocol/tokenization/AToken.sol:AToken",
        "label": "______gap",
        "offset": 0,
        "slot": "2",
        "type": "t_array(t_uint256)50_storage"
      },
      {
        "astId": 35200,
        "contract": "contracts/protocol/tokenization/AToken.sol:AToken",
        "label": "_balances",
        "offset": 0,
        "slot": "52",
        "type": "t_mapping(t_address,t_uint256)"
      },
      {
        "astId": 35206,
        "contract": "contracts/protocol/tokenization/AToken.sol:AToken",
        "label": "_allowances",
        "offset": 0,
        "slot": "53",
        "type": "t_mapping(t_address,t_mapping(t_address,t_uint256))"
      },
      {
        "astId": 35208,
        "contract": "contracts/protocol/tokenization/AToken.sol:AToken",
        "label": "_totalSupply",
        "offset": 0,
        "slot": "54",
        "type": "t_uint256"
      },
      {
        "astId": 35210,
        "contract": "contracts/protocol/tokenization/AToken.sol:AToken",
        "label": "_name",
        "offset": 0,
        "slot": "55",
        "type": "t_string_storage"
      },
      {
        "astId": 35212,
        "contract": "contracts/protocol/tokenization/AToken.sol:AToken",
        "label": "_symbol",
        "offset": 0,
        "slot": "56",
        "type": "t_string_storage"
      },
      {
        "astId": 35214,
        "contract": "contracts/protocol/tokenization/AToken.sol:AToken",
        "label": "_decimals",
        "offset": 0,
        "slot": "57",
        "type": "t_uint8"
      },
      {
        "astId": 35216,
        "contract": "contracts/protocol/tokenization/AToken.sol:AToken",
        "label": "_pool",
        "offset": 1,
        "slot": "57",
        "type": "t_contract(ILendingPool)11754"
      },
      {
        "astId": 35218,
        "contract": "contracts/protocol/tokenization/AToken.sol:AToken",
        "label": "_underlyingAsset",
        "offset": 0,
        "slot": "58",
        "type": "t_address"
      },
      {
        "astId": 34424,
        "contract": "contracts/protocol/tokenization/AToken.sol:AToken",
        "label": "_nonces",
        "offset": 0,
        "slot": "59",
        "type": "t_mapping(t_address,t_uint256)"
      },
      {
        "astId": 34426,
        "contract": "contracts/protocol/tokenization/AToken.sol:AToken",
        "label": "DOMAIN_SEPARATOR",
        "offset": 0,
        "slot": "60",
        "type": "t_bytes32"
      },
      {
        "astId": 34428,
        "contract": "contracts/protocol/tokenization/AToken.sol:AToken",
        "label": "_treasury",
        "offset": 0,
        "slot": "61",
        "type": "t_address"
      },
      {
        "astId": 34430,
        "contract": "contracts/protocol/tokenization/AToken.sol:AToken",
        "label": "_incentivesController",
        "offset": 0,
        "slot": "62",
        "type": "t_contract(IAaveIncentivesController)10897"
      }
    ],
    "types": {
      "t_address": {
        "encoding": "inplace",
        "label": "address",
        "numberOfBytes": "20"
      },
      "t_array(t_uint256)50_storage": {
        "base": "t_uint256",
        "encoding": "inplace",
        "label": "uint256[50]",
        "numberOfBytes": "1600"
      },
      "t_bool": {
        "encoding": "inplace",
        "label": "bool",
        "numberOfBytes": "1"
      },
      "t_bytes32": {
        "encoding": "inplace",
        "label": "bytes32",
        "numberOfBytes": "32"
      },
      "t_contract(IAaveIncentivesController)10897": {
        "encoding": "inplace",
        "label": "contract IAaveIncentivesController",
        "numberOfBytes": "20"
      },
      "t_contract(ILendingPool)11754": {
        "encoding": "inplace",
        "label": "contract ILendingPool",
        "numberOfBytes": "20"
      },
      "t_mapping(t_address,t_mapping(t_address,t_uint256))": {
        "encoding": "mapping",
        "key": "t_address",
        "label": "mapping(address => mapping(address => uint256))",
        "numberOfBytes": "32",
        "value": "t_mapping(t_address,t_uint256)"
      },
      "t_mapping(t_address,t_uint256)": {
        "encoding": "mapping",
        "key": "t_address",
        "label": "mapping(address => uint256)",
        "numberOfBytes": "32",
        "value": "t_uint256"
      },
      "t_string_storage": {
        "encoding": "bytes",
        "label": "string",
        "numberOfBytes": "32"
      },
      "t_uint256": {
        "encoding": "inplace",
        "label": "uint256",
        "numberOfBytes": "32"
      },
      "t_uint8": {
        "encoding": "inplace",
        "label": "uint8",
        "numberOfBytes": "1"
      }
    }
  }
}