{
  "address": "0x484c15F5c60b99BB002dA4D5Ab1C868ca606764d",
  "abi": [
    {
      "anonymous": false,
      "inputs": [
        {
          "indexed": false,
          "internalType": "uint256",
          "name": "_newVal",
          "type": "uint256"
        }
      ],
      "name": "BaseBountyUsdTargetUpdated",
      "type": "event"
    },
    {
      "anonymous": false,
      "inputs": [
        {
          "indexed": false,
          "internalType": "uint256",
          "name": "_newVal",
          "type": "uint256"
        }
      ],
      "name": "BountyBoosterUpdated",
      "type": "event"
    },
    {
      "anonymous": false,
      "inputs": [
        {
          "indexed": false,
          "internalType": "uint256",
          "name": "_bal",
          "type": "uint256"
        }
      ],
      "name": "BountyReserveEmpty",
      "type": "event"
    },
    {
      "anonymous": false,
      "inputs": [
        {
          "indexed": false,
          "internalType": "contract IChefIncentivesController",
          "name": "_chef",
          "type": "address"
        }
      ],
      "name": "ChefIncentivesControllerUpdated",
      "type": "event"
    },
    {
      "anonymous": false,
      "inputs": [
        {
          "indexed": false,
          "internalType": "address",
          "name": "user",
          "type": "address"
        }
      ],
      "name": "Disqualified",
      "type": "event"
    },
    {
      "anonymous": false,
      "inputs": [
        {
          "indexed": false,
          "internalType": "uint256",
          "name": "_newVal",
          "type": "uint256"
        }
      ],
      "name": "HunterShareUpdated",
      "type": "event"
    },
    {
      "anonymous": false,
      "inputs": [
        {
          "indexed": false,
          "internalType": "uint256",
          "name": "_newVal",
          "type": "uint256"
        }
      ],
      "name": "MaxBaseBountyUpdated",
      "type": "event"
    },
    {
      "anonymous": false,
      "inputs": [
        {
          "indexed": true,
          "internalType": "address",
          "name": "previousOwner",
          "type": "address"
        },
        {
          "indexed": true,
          "internalType": "address",
          "name": "newOwner",
          "type": "address"
        }
      ],
      "name": "OwnershipTransferred",
      "type": "event"
    },
    {
      "anonymous": false,
      "inputs": [
        {
          "indexed": false,
          "internalType": "address",
          "name": "account",
          "type": "address"
        }
      ],
      "name": "Paused",
      "type": "event"
    },
    {
      "anonymous": false,
      "inputs": [
        {
          "indexed": false,
          "internalType": "uint256",
          "name": "_newVal",
          "type": "uint256"
        }
      ],
      "name": "SlippageLimitUpdated",
      "type": "event"
    },
    {
      "anonymous": false,
      "inputs": [
        {
          "indexed": false,
          "internalType": "address",
          "name": "account",
          "type": "address"
        }
      ],
      "name": "Unpaused",
      "type": "event"
    },
    {
      "inputs": [],
      "name": "HUNTER_SHARE",
      "outputs": [
        {
          "internalType": "uint256",
          "name": "",
          "type": "uint256"
        }
      ],
      "stateMutability": "view",
      "type": "function"
    },
    {
      "inputs": [
        {
          "internalType": "address",
          "name": "user",
          "type": "address"
        },
        {
          "internalType": "bool",
          "name": "status",
          "type": "bool"
        }
      ],
      "name": "addAddressToWL",
      "outputs": [],
      "stateMutability": "nonpayable",
      "type": "function"
    },
    {
      "inputs": [],
      "name": "baseBountyUsdTarget",
      "outputs": [
        {
          "internalType": "uint256",
          "name": "",
          "type": "uint256"
        }
      ],
      "stateMutability": "view",
      "type": "function"
    },
    {
      "inputs": [],
      "name": "bountyBooster",
      "outputs": [
        {
          "internalType": "uint256",
          "name": "",
          "type": "uint256"
        }
      ],
      "stateMutability": "view",
      "type": "function"
    },
    {
      "inputs": [],
      "name": "bountyCount",
      "outputs": [
        {
          "internalType": "uint256",
          "name": "",
          "type": "uint256"
        }
      ],
      "stateMutability": "view",
      "type": "function"
    },
    {
      "inputs": [
        {
          "internalType": "bool",
          "name": "status",
          "type": "bool"
        }
      ],
      "name": "changeWL",
      "outputs": [],
      "stateMutability": "nonpayable",
      "type": "function"
    },
    {
      "inputs": [
        {
          "internalType": "address",
          "name": "_user",
          "type": "address"
        },
        {
          "internalType": "uint256",
          "name": "_expectedBounty",
          "type": "uint256"
        },
        {
          "internalType": "uint256",
          "name": "_actionType",
          "type": "uint256"
        }
      ],
      "name": "claim",
      "outputs": [
        {
          "internalType": "uint256",
          "name": "bounty",
          "type": "uint256"
        },
        {
          "internalType": "uint256",
          "name": "actionType",
          "type": "uint256"
        }
      ],
      "stateMutability": "nonpayable",
      "type": "function"
    },
    {
      "inputs": [],
      "name": "eligibilityDataProvider",
      "outputs": [
        {
          "internalType": "address",
          "name": "",
          "type": "address"
        }
      ],
      "stateMutability": "view",
      "type": "function"
    },
    {
      "inputs": [
        {
          "internalType": "address",
          "name": "_user",
          "type": "address"
        },
        {
          "internalType": "bool",
          "name": "_execute",
          "type": "bool"
        },
        {
          "internalType": "uint256",
          "name": "_expectedBounty",
          "type": "uint256"
        },
        {
          "internalType": "uint256",
          "name": "_actionType",
          "type": "uint256"
        }
      ],
      "name": "executeBounty",
      "outputs": [
        {
          "internalType": "uint256",
          "name": "bounty",
          "type": "uint256"
        },
        {
          "internalType": "uint256",
          "name": "actionType",
          "type": "uint256"
        }
      ],
      "stateMutability": "nonpayable",
      "type": "function"
    },
    {
      "inputs": [],
      "name": "getBaseBounty",
      "outputs": [
        {
          "internalType": "uint256",
          "name": "bounty",
          "type": "uint256"
        }
      ],
      "stateMutability": "view",
      "type": "function"
    },
    {
      "inputs": [
        {
          "internalType": "address",
          "name": "_rdnt",
          "type": "address"
        },
        {
          "internalType": "address",
          "name": "_weth",
          "type": "address"
        },
        {
          "internalType": "address",
          "name": "_lpMfd",
          "type": "address"
        },
        {
          "internalType": "address",
          "name": "_mfd",
          "type": "address"
        },
        {
          "internalType": "address",
          "name": "_chef",
          "type": "address"
        },
        {
          "internalType": "address",
          "name": "_priceProvider",
          "type": "address"
        },
        {
          "internalType": "address",
          "name": "_eligibilityDataProvider",
          "type": "address"
        },
        {
          "internalType": "uint256",
          "name": "_hunterShare",
          "type": "uint256"
        },
        {
          "internalType": "uint256",
          "name": "_baseBountyUsdTarget",
          "type": "uint256"
        },
        {
          "internalType": "uint256",
          "name": "_maxBaseBounty",
          "type": "uint256"
        },
        {
          "internalType": "uint256",
          "name": "_bountyBooster",
          "type": "uint256"
        }
      ],
      "name": "initialize",
      "outputs": [],
      "stateMutability": "nonpayable",
      "type": "function"
    },
    {
      "inputs": [],
      "name": "maxBaseBounty",
      "outputs": [
        {
          "internalType": "uint256",
          "name": "",
          "type": "uint256"
        }
      ],
      "stateMutability": "view",
      "type": "function"
    },
    {
      "inputs": [],
      "name": "minDLPBalance",
      "outputs": [
        {
          "internalType": "uint256",
          "name": "",
          "type": "uint256"
        }
      ],
      "stateMutability": "view",
      "type": "function"
    },
    {
      "inputs": [
        {
          "internalType": "address",
          "name": "_user",
          "type": "address"
        },
        {
          "internalType": "bool",
          "name": "oldStatus",
          "type": "bool"
        },
        {
          "internalType": "bool",
          "name": "newStatus",
          "type": "bool"
        }
      ],
      "name": "onRelockUpdate",
      "outputs": [],
      "stateMutability": "nonpayable",
      "type": "function"
    },
    {
      "inputs": [],
      "name": "owner",
      "outputs": [
        {
          "internalType": "address",
          "name": "",
          "type": "address"
        }
      ],
      "stateMutability": "view",
      "type": "function"
    },
    {
      "inputs": [],
      "name": "paused",
      "outputs": [
        {
          "internalType": "bool",
          "name": "",
          "type": "bool"
        }
      ],
      "stateMutability": "view",
      "type": "function"
    },
    {
      "inputs": [],
      "name": "priceProvider",
      "outputs": [
        {
          "internalType": "address",
          "name": "",
          "type": "address"
        }
      ],
      "stateMutability": "view",
      "type": "function"
    },
    {
      "inputs": [
        {
          "internalType": "address",
          "name": "_user",
          "type": "address"
        }
      ],
      "name": "quote",
      "outputs": [
        {
          "internalType": "uint256",
          "name": "bounty",
          "type": "uint256"
        },
        {
          "internalType": "uint256",
          "name": "actionType",
          "type": "uint256"
        }
      ],
      "stateMutability": "view",
      "type": "function"
    },
    {
      "inputs": [],
      "name": "rdnt",
      "outputs": [
        {
          "internalType": "address",
          "name": "",
          "type": "address"
        }
      ],
      "stateMutability": "view",
      "type": "function"
    },
    {
      "inputs": [
        {
          "internalType": "address",
          "name": "tokenAddress",
          "type": "address"
        },
        {
          "internalType": "uint256",
          "name": "tokenAmount",
          "type": "uint256"
        }
      ],
      "name": "recoverERC20",
      "outputs": [],
      "stateMutability": "nonpayable",
      "type": "function"
    },
    {
      "inputs": [],
      "name": "renounceOwnership",
      "outputs": [],
      "stateMutability": "nonpayable",
      "type": "function"
    },
    {
      "inputs": [
        {
          "internalType": "uint256",
          "name": "_newVal",
          "type": "uint256"
        }
      ],
      "name": "setBaseBountyUsdTarget",
      "outputs": [],
      "stateMutability": "nonpayable",
      "type": "function"
    },
    {
      "inputs": [],
      "name": "setBounties",
      "outputs": [],
      "stateMutability": "nonpayable",
      "type": "function"
    },
    {
      "inputs": [
        {
          "internalType": "uint256",
          "name": "_newVal",
          "type": "uint256"
        }
      ],
      "name": "setBountyBooster",
      "outputs": [],
      "stateMutability": "nonpayable",
      "type": "function"
    },
    {
      "inputs": [
        {
          "internalType": "uint256",
          "name": "_newVal",
          "type": "uint256"
        }
      ],
      "name": "setHunterShare",
      "outputs": [],
      "stateMutability": "nonpayable",
      "type": "function"
    },
    {
      "inputs": [
        {
          "internalType": "uint256",
          "name": "_newVal",
          "type": "uint256"
        }
      ],
      "name": "setMaxBaseBounty",
      "outputs": [],
      "stateMutability": "nonpayable",
      "type": "function"
    },
    {
      "inputs": [
        {
          "internalType": "uint256",
          "name": "_minDLPBalance",
          "type": "uint256"
        }
      ],
      "name": "setMinDLPBalance",
      "outputs": [],
      "stateMutability": "nonpayable",
      "type": "function"
    },
    {
      "inputs": [
        {
          "internalType": "uint256",
          "name": "_newVal",
          "type": "uint256"
        }
      ],
      "name": "setSlippageLimit",
      "outputs": [],
      "stateMutability": "nonpayable",
      "type": "function"
    },
    {
      "inputs": [
        {
          "internalType": "address",
          "name": "newOwner",
          "type": "address"
        }
      ],
      "name": "transferOwnership",
      "outputs": [],
      "stateMutability": "nonpayable",
      "type": "function"
    },
    {
      "inputs": [],
      "name": "weth",
      "outputs": [
        {
          "internalType": "address",
          "name": "",
          "type": "address"
        }
      ],
      "stateMutability": "view",
      "type": "function"
    },
    {
      "inputs": [
        {
          "internalType": "address",
          "name": "",
          "type": "address"
        }
      ],
      "name": "whitelist",
      "outputs": [
        {
          "internalType": "bool",
          "name": "",
          "type": "bool"
        }
      ],
      "stateMutability": "view",
      "type": "function"
    },
    {
      "inputs": [],
      "name": "whitelistActive",
      "outputs": [
        {
          "internalType": "bool",
          "name": "",
          "type": "bool"
        }
      ],
      "stateMutability": "view",
      "type": "function"
    }
  ],
  "transactionHash": "0x22d8cdb91475da4d277aeebe799ceff37cc4d0c8b788554c351ac21d1106cbed",
  "args": [],
  "numDeployments": 1,
  "solcInputHash": "78995fe69be866012cdea8ea4c4842de",
  "bytecode": "0x608060405234801561001057600080fd5b506125a1806100206000396000f3fe608060405234801561001057600080fd5b50600436106101805760003560e01c8063015d87611461018557806302ce58131461019a5780630b39ed47146101b85780631a2baad6146101d95780631fe4ba17146101ee5780632a50ddd2146102015780632bc43fd9146102145780632d54f823146102275780633e362c961461022f5780633fc8cef314610237578063464cea3d1461024c57806359cec45b1461025f5780635c975abb146102725780635d0f53961461027a5780635ebd4f9f14610282578063715018a61461029557806376e82e8b1461029d5780637a7acb89146102a55780638980f11f146102b85780638da5cb5b146102cb5780639b19251a146102d3578063b200e2c8146102e6578063b736ca82146102f9578063b888879e1461030c578063c0d02c5114610314578063d1025c0c1461031c578063d4743bae14610324578063d7ae73ae14610337578063d8c0e2531461033f578063d9cdd51314610347578063f2fde38b1461034f578063f582269314610362575b600080fd5b610198610193366004612011565b610375565b005b6101a2610417565b6040516101af9190612277565b60405180910390f35b6101cb6101c6366004611df4565b610420565b6040516101af9291906123e2565b6101e1610511565b6040516101af91906123d9565b6101986101fc366004612011565b6105d3565b61019861020f366004612011565b61066a565b6101cb610222366004611fa7565b610701565b6101e161075f565b6101e1610765565b61023f61076b565b6040516101af91906121d3565b61019861025a366004611ebd565b61077a565b6101cb61026d366004611f3b565b610807565b6101a2610ab4565b61023f610abd565b610198610290366004612011565b610acc565b610198610b85565b61023f610bf3565b6101986102b3366004611ef3565b610c02565b6101986102c6366004611f7e565b610cca565b61023f610d4c565b6101a26102e1366004611df4565b610d5b565b6101986102f4366004612011565b610d70565b610198610307366004611e0e565b610e07565b61023f611085565b610198611094565b6101e161116d565b610198610332366004611fd9565b611173565b6101e16111e8565b6101e16111ee565b6101e16111f4565b61019861035d366004611df4565b6111fa565b610198610370366004612011565b6112ad565b61037d611314565b6001600160a01b031661038e610d4c565b6001600160a01b0316146103d7576040805162461bcd60e51b815260206004820181905260248201526000805160206124a9833981519152604482015290519081900360640190fd5b60d28190556040517fe63c291a066613fe10359993ab33123d8c5985f14ae0ccdfd066c63d537e22969061040c9083906123d9565b60405180910390a150565b60d95460ff1681565b60008061042b611318565b600080306001600160a01b03168560008060006040516024016104519493929190612202565b60408051601f198184030181529181526020820180516001600160e01b03166359cec45b60e01b17905251610486919061219a565b600060405180830381855afa9150503d80600081146104c1576040519150601f19603f3d011682016040523d82523d6000602084013e6104c6565b606091505b5091509150816104f15760405162461bcd60e51b81526004016104e8906123b5565b60405180910390fd5b808060200190518101906105059190612065565b90969095509350505050565b600061051b611318565b60ce5460408051631b4bb46160e21b815290516000926001600160a01b031691636d2ed184916004808301926020929190829003018186803b15801561056057600080fd5b505afa158015610574573d6000803e3d6000fd5b505050506040513d601f19601f820116820180604052508101906105989190612029565b90506105bd816105b76305f5e10060d15461136590919063ffffffff16565b906113c7565b915060d2548211156105cf5760d25491505b5090565b6105db611314565b6001600160a01b03166105ec610d4c565b6001600160a01b031614610635576040805162461bcd60e51b815260206004820181905260248201526000805160206124a9833981519152604482015290519081900360640190fd5b60d68190556040517fcf7f7495105ceec35e1d46b5a1330650da881193032a0a846d4c4d2e8d2993049061040c9083906123d9565b610672611314565b6001600160a01b0316610683610d4c565b6001600160a01b0316146106cc576040805162461bcd60e51b815260206004820181905260248201526000805160206124a9833981519152604482015290519081900360640190fd5b60d38190556040517f36a68bf905dcbd4092d259543b986b02346ebd9663aaacc168ba581b44d63f6c9061040c9083906123d9565b60008061070c611318565b60d95460ff16156107465733600090815260d8602052604090205460ff166107465760405162461bcd60e51b81526004016104e8906122a4565b6107538560018686610807565b91509150935093915050565b60d35481565b60d45481565b60ca546001600160a01b031681565b610782611314565b6001600160a01b0316610793610d4c565b6001600160a01b0316146107dc576040805162461bcd60e51b815260206004820181905260248201526000805160206124a9833981519152604482015290519081900360640190fd5b6001600160a01b0391909116600090815260d860205260409020805460ff1916911515919091179055565b600080610812611318565b60d95460ff161561084c5733600090815260d8602052604090205460ff1661084c5760405162461bcd60e51b81526004016104e8906122a4565b841580610860575084801561086057508315155b61087c5760405162461bcd60e51b81526004016104e890612318565b3330146109ce5760cc54604051630241d3fb60e11b81526000916001600160a01b031690630483a7f6906108b49033906004016121d3565b60006040518083038186803b1580156108cc57600080fd5b505afa1580156108e0573d6000803e3d6000fd5b505050506040513d6000823e601f3d908101601f191682016040526109089190810190612088565b50509250505060d5548110156109305760405162461bcd60e51b81526004016104e890612340565b60cf54604051633300c37360e11b81526001600160a01b039091169063660186e6906109609033906004016121d3565b60206040518083038186803b15801561097857600080fd5b505afa15801561098c573d6000803e3d6000fd5b505050506040513d601f19601f820116820180604052508101906109b09190611ff5565b6109cc5760405162461bcd60e51b81526004016104e8906122cb565b505b6000806000806109dc610511565b90506109e98a8a89611406565b9750909550935091508215610a0057809550610a24565b8315610a2457610a216127106105b760d0548761136590919063ffffffff16565b95505b6000610a4a610a4360646105b760d6548d61136590919063ffffffff16565b8a906114aa565b905080871015610a6c5760405162461bcd60e51b81526004016104e89061238a565b898015610a7857508615155b15610aa65783610a9a5760c954610a9a906001600160a01b03168430886114ec565b610aa4338861154c565b505b505050505094509492505050565b60975460ff1690565b60c9546001600160a01b031681565b610ad4611314565b6001600160a01b0316610ae5610d4c565b6001600160a01b031614610b2e576040805162461bcd60e51b815260206004820181905260248201526000805160206124a9833981519152604482015290519081900360640190fd5b612710811115610b505760405162461bcd60e51b81526004016104e890612282565b60d08190556040517fc6d3d93e80290ad8687918eb1cd28293fa9e658800d205f09a6d73d2d5e0fbdf9061040c9083906123d9565b610b8d611314565b6001600160a01b0316610b9e610d4c565b6001600160a01b031614610be7576040805162461bcd60e51b815260206004820181905260248201526000805160206124a9833981519152604482015290519081900360640190fd5b610bf160006116be565b565b60cf546001600160a01b031681565b60cc546001600160a01b031633141580610c195750815b80610c22575080155b15610c2c57610cc5565b6000610c3784610420565b50905080610c455750610cc5565b6040516359cec45b60e01b815230906359cec45b90610c70908790600190869060009060040161222e565b6040805180830381600087803b158015610c8957600080fd5b505af1158015610c9d573d6000803e3d6000fd5b505050506040513d601f19601f82011682018060405250810190610cc19190612065565b5050505b505050565b610cd2611314565b6001600160a01b0316610ce3610d4c565b6001600160a01b031614610d2c576040805162461bcd60e51b815260206004820181905260248201526000805160206124a9833981519152604482015290519081900360640190fd5b610d48610d37610d4c565b6001600160a01b0384169083611710565b5050565b6065546001600160a01b031690565b60d86020526000908152604090205460ff1681565b610d78611314565b6001600160a01b0316610d89610d4c565b6001600160a01b031614610dd2576040805162461bcd60e51b815260206004820181905260248201526000805160206124a9833981519152604482015290519081900360640190fd5b60d18190556040517f27fed2da20a195ee831c4e78ce2bd0cfc4be23b636e8820121f147336084971e9061040c9083906123d9565b600054610100900460ff1680610e205750610e20611762565b80610e2e575060005460ff16155b610e695760405162461bcd60e51b815260040180806020018281038252602e8152602001806124c9602e913960400191505060405180910390fd5b600054610100900460ff16158015610e94576000805460ff1961ff0019909116610100171660011790555b6001600160a01b038c16610ea757600080fd5b6001600160a01b038b16610eba57600080fd5b6001600160a01b038a16610ecd57600080fd5b6001600160a01b038916610ee057600080fd5b6001600160a01b038816610ef357600080fd5b6001600160a01b038716610f0657600080fd5b6001600160a01b038616610f1957600080fd5b612710851115610f2857600080fd5b83610f3257600080fd5b82610f3c57600080fd5b60c980546001600160a01b03199081166001600160a01b038f81169190911790925560ca805482168e841617905560cc805482168d841617905560cb805482168c841617905560cd805482168b841617905560ce805482168a841617905560cf805490911691881691909117905560d085905560d184905560d382905560d283905560d760205260008051602061244883398151915280546001600160401b03199081166117686001600160401b0390811691909117909255600080516020612468833981519152805482166118088416179055600360008190526000805160206124f783398151915280549092166118a890931692909217905560d455600a60d6556110526005670de0b6b3a7640000611365565b60d55561105d61194b565b611065611999565b8015611077576000805461ff00191690555b505050505050505050505050565b60ce546001600160a01b031681565b61109c611314565b6001600160a01b03166110ad610d4c565b6001600160a01b0316146110f6576040805162461bcd60e51b815260206004820181905260248201526000805160206124a9833981519152604482015290519081900360640190fd5b60d760205260008051602061244883398151915280546001600160401b0361176881166001600160401b0319928316179092556000805160206124688339815191528054611808841690831617905560036000526000805160206124f783398151915280546118a890931692909116919091179055565b60d15481565b61117b611314565b6001600160a01b031661118c610d4c565b6001600160a01b0316146111d5576040805162461bcd60e51b815260206004820181905260248201526000805160206124a9833981519152604482015290519081900360640190fd5b60d9805460ff1916911515919091179055565b60d05481565b60d25481565b60d55481565b611202611314565b6001600160a01b0316611213610d4c565b6001600160a01b03161461125c576040805162461bcd60e51b815260206004820181905260248201526000805160206124a9833981519152604482015290519081900360640190fd5b6001600160a01b0381166112a15760405162461bcd60e51b81526004018080602001828103825260268152602001806124226026913960400191505060405180910390fd5b6112aa816116be565b50565b6112b5611314565b6001600160a01b03166112c6610d4c565b6001600160a01b03161461130f576040805162461bcd60e51b815260206004820181905260248201526000805160206124a9833981519152604482015290519081900360640190fd5b60d555565b3390565b611320610ab4565b15610bf1576040805162461bcd60e51b815260206004820152601060248201526f14185d5cd8589b194e881c185d5cd95960821b604482015290519081900360640190fd5b600082611374575060006113c1565b8282028284828161138157fe5b04146113be5760405162461bcd60e51b81526004018080602001828103825260218152602001806124886021913960400191505060405180910390fd5b90505b92915050565b60006113be83836040518060400160405280601a815260200179536166654d6174683a206469766973696f6e206279207a65726f60301b8152506119e7565b6000808080841561144657600085815260d7602052604090205461143790889088908015611ddb021763ffffffff16565b919550935091508490506114a1565b60015b60d454811161149f57600081815260d7602052604090205461147890899089908015611ddb021763ffffffff16565b919650945092508315158061148a5750825b156114975780915061149f565b600101611449565b505b93509350935093565b60006113be83836040518060400160405280601e81526020017f536166654d6174683a207375627472616374696f6e206f766572666c6f770000815250611a89565b604080516001600160a01b0380861660248301528416604482015260648082018490528251808303909101815260849091019091526020810180516001600160e01b03166323b872dd60e01b179052611546908590611ae3565b50505050565b60008161155b575060006113c1565b60c9546040516370a0823160e01b81526000916001600160a01b0316906370a082319061158c9030906004016121d3565b60206040518083038186803b1580156115a457600080fd5b505afa1580156115b8573d6000803e3d6000fd5b505050506040513d601f19601f820116820180604052508101906115dc9190612029565b90508083111561162a577fe18877e49d8a98b9748ce4fc0451f1f2f20afbd428aa2f5d5cbbed3ba2d47b228160405161161591906123d9565b60405180910390a1611625611c9a565b6116b7565b60cb5460c954611647916001600160a01b03918216911685611710565b60cb546040516334686fad60e21b81526001600160a01b039091169063d1a1beb49061167c9087908790600190600401612254565b600060405180830381600087803b15801561169657600080fd5b505af11580156116aa573d6000803e3d6000fd5b50505050829150506113c1565b5092915050565b606580546001600160a01b038381166001600160a01b0319831681179093556040519116919082907f8be0079c531659141344cd1fd0a4f28419497f9722a3daafe3b4186f6b6457e090600090a35050565b604080516001600160a01b038416602482015260448082018490528251808303909101815260649091019091526020810180516001600160e01b031663a9059cbb60e01b179052610cc5908490611ae3565b303b1590565b60cc54604051637ab8955d60e01b8152600091829182916001600160a01b031690637ab8955d9061179f90889088906004016121e7565b6040805180830381600087803b1580156117b857600080fd5b505af11580156117cc573d6000803e3d6000fd5b505050506040513d601f19601f820116820180604052508101906117f09190612041565b60cc546001600160a01b031697919650945092505050565b60cd54604051637ab8955d60e01b8152600091829182916001600160a01b031690637ab8955d9061183f90889088906004016121e7565b6040805180830381600087803b15801561185857600080fd5b505af115801561186c573d6000803e3d6000fd5b505050506040513d601f19601f820116820180604052508101906118909190612041565b60cd546001600160a01b031697919650945092505050565b60cc546040516323d0c81d60e21b8152600091829182916001600160a01b031690638f432074906118df90889088906004016121e7565b602060405180830381600087803b1580156118f957600080fd5b505af115801561190d573d6000803e3d6000fd5b505050506040513d601f19601f820116820180604052508101906119319190612029565b60cc546001600160a01b0316969095506000945092505050565b600054610100900460ff166119915760405162461bcd60e51b815260040180806020018281038252602b815260200180612517602b913960400191505060405180910390fd5b610bf1611cf5565b600054610100900460ff166119df5760405162461bcd60e51b815260040180806020018281038252602b815260200180612517602b913960400191505060405180910390fd5b610bf1611d4b565b60008183611a735760405162461bcd60e51b81526004018080602001828103825283818151815260200191508051906020019080838360005b83811015611a38578181015183820152602001611a20565b50505050905090810190601f168015611a655780820380516001836020036101000a031916815260200191505b509250505060405180910390fd5b506000838581611a7f57fe5b0495945050505050565b60008184841115611adb5760405162461bcd60e51b8152602060048201818152835160248401528351909283926044909101919085019080838360008315611a38578181015183820152602001611a20565b505050900390565b611af5826001600160a01b0316611d9d565b611b46576040805162461bcd60e51b815260206004820152601f60248201527f5361666545524332303a2063616c6c20746f206e6f6e2d636f6e747261637400604482015290519081900360640190fd5b600080836001600160a01b0316836040518082805190602001908083835b60208310611b835780518252601f199092019160209182019101611b64565b6001836020036101000a0380198251168184511680821785525050505050509050019150506000604051808303816000865af19150503d8060008114611be5576040519150601f19603f3d011682016040523d82523d6000602084013e611bea565b606091505b509150915081611c41576040805162461bcd60e51b815260206004820181905260248201527f5361666545524332303a206c6f772d6c6576656c2063616c6c206661696c6564604482015290519081900360640190fd5b80511561154657808060200190516020811015611c5d57600080fd5b50516115465760405162461bcd60e51b815260040180806020018281038252602a815260200180612542602a913960400191505060405180910390fd5b611ca2611318565b6097805460ff191660011790557f62e78cea01bee320cd4e420270b5ea74000d11b0c9f74754ebdbfc544b05a258611cd8611314565b604080516001600160a01b039092168252519081900360200190a1565b600054610100900460ff16611d3b5760405162461bcd60e51b815260040180806020018281038252602b815260200180612517602b913960400191505060405180910390fd5b610bf1611d46611314565b6116be565b600054610100900460ff16611d915760405162461bcd60e51b815260040180806020018281038252602b815260200180612517602b913960400191505060405180910390fd5b6097805460ff19169055565b6000813f7fc5d2460186f7233c927e7db2dcc703c0e500b653ca82273b7bfad8045d85a470818114801590611dd157508115155b925050505b919050565bfe5b80356001600160a01b0381168114611dd657600080fd5b600060208284031215611e05578081fd5b6113be82611ddd565b60008060008060008060008060008060006101608c8e031215611e2f578687fd5b611e388c611ddd565b9a50611e4660208d01611ddd565b9950611e5460408d01611ddd565b9850611e6260608d01611ddd565b9750611e7060808d01611ddd565b9650611e7e60a08d01611ddd565b9550611e8c60c08d01611ddd565b945060e08c013593506101008c013592506101208c013591506101408c013590509295989b509295989b9093969950565b60008060408385031215611ecf578182fd5b611ed883611ddd565b91506020830135611ee881612413565b809150509250929050565b600080600060608486031215611f07578283fd5b611f1084611ddd565b92506020840135611f2081612413565b91506040840135611f3081612413565b809150509250925092565b60008060008060808587031215611f50578384fd5b611f5985611ddd565b93506020850135611f6981612413565b93969395505050506040820135916060013590565b60008060408385031215611f90578182fd5b611f9983611ddd565b946020939093013593505050565b600080600060608486031215611fbb578283fd5b611fc484611ddd565b95602085013595506040909401359392505050565b600060208284031215611fea578081fd5b81356113be81612413565b600060208284031215612006578081fd5b81516113be81612413565b600060208284031215612022578081fd5b5035919050565b60006020828403121561203a578081fd5b5051919050565b60008060408385031215612053578182fd5b825191506020830151611ee881612413565b60008060408385031215612077578182fd5b505080516020909101519092909150565b600080600080600060a0868803121561209f578283fd5b8551602080880151604089015160608a015160808b015194995091975095509350906001600160401b03808211156120d5578384fd5b818901915089601f8301126120e8578384fd5b8151818111156120f457fe5b61210184858302016123f0565b8181528481019084860160808402860187018e101561211e578788fd5b8795505b83861015612186576080818f031215612139578788fd5b60405160808101818110878211171561214e57fe5b604090815282518252888301518983015282810151908201526060808301519082015283526001959095019491860191608001612122565b508096505050505050509295509295909350565b60008251815b818110156121ba57602081860181015185830152016121a0565b818111156121c85782828501525b509190910192915050565b6001600160a01b0391909116815260200190565b6001600160a01b039290921682521515602082015260400190565b6001600160a01b03949094168452911515602084015260ff908116604084015216606082015260800190565b6001600160a01b0394909416845291151560208401526040830152606082015260800190565b6001600160a01b0393909316835260208301919091521515604082015260600190565b901515815260200190565b6020808252600890820152676f7665727269646560c01b604082015260600190565b6020808252600d908201526c085dda1a5d195b1a595cdd1959609a1b604082015260600190565b6020808252602d908201527f426f756e7479206578656375746572206d75737420626520656c696769626c6560408201526c103337b9103932bbb0b932399760991b606082015260800190565b6020808252600e908201526d1c5d5bdd19481c995c5d5a5c995960921b604082015260600190565b6020808252602a908201527f4e6f20656e6f75676820444c502062616c616e636520746f2062652061626c6560408201526920746f20626f756e747960b01b606082015260800190565b602080825260119082015270746f6f206d75636820736c69707061676560781b604082015260600190565b6020808252600a90820152691c5d5bdd194819985a5b60b21b604082015260600190565b90815260200190565b918252602082015260400190565b6040518181016001600160401b038111828210171561240b57fe5b604052919050565b80151581146112aa57600080fdfe4f776e61626c653a206e6577206f776e657220697320746865207a65726f2061646472657373a51546995d065b44a0663f742232ea3f69c2e6e2f799ed388e1fe3b148a95ee4af10985cb874cd725a16cb5769c92fd785332faac9dbd01b251e0a7221cbea75536166654d6174683a206d756c7469706c69636174696f6e206f766572666c6f774f776e61626c653a2063616c6c6572206973206e6f7420746865206f776e6572436f6e747261637420696e7374616e63652068617320616c7265616479206265656e20696e697469616c697a656422b9767c687db4fc60e8fd58df05805b96575c40fcf136626932ccd5579486f9496e697469616c697a61626c653a20636f6e7472616374206973206e6f7420696e697469616c697a696e675361666545524332303a204552433230206f7065726174696f6e20646964206e6f742073756363656564a2646970667358221220eecc95113fd73795867a2b6c08699f31339a5ae3c918b4298661ce12c02bbf4964736f6c63430007060033",
  "devdoc": {
    "kind": "dev",
    "methods": {
      "claim(address,uint256,uint256)": {
        "params": {
          "_actionType": "which of the 3 bounty types (above) to run. ",
          "_expectedBounty": "result from quote above, used for slippage handling can be a fixed amt (Base Bounty) or dynamic amt based on rewards removed from target user during execution (ineligible revenue, autocompound fee)",
          "_user": "address"
        },
        "returns": {
          "actionType": "which bounty ran",
          "bounty": "in RDNT to be paid to Hunter (via vesting)"
        }
      },
      "executeBounty(address,bool,uint256,uint256)": {
        "params": {
          "_actionType": "which of the 3 bounty types (above) to run. ",
          "_execute": "whether to execute this txn, or just quote what its execution would return",
          "_expectedBounty": "result from quote above, used for slippage handling can be a fixed amt (Base Bounty) or dynamic amt based on rewards removed from target user during execution (ineligible revenue, autocompound fee)",
          "_user": "address"
        },
        "returns": {
          "actionType": "which bounty ran",
          "bounty": "in RDNT to be paid to Hunter (via vesting)"
        }
      },
      "getBaseBounty()": {
        "returns": {
          "bounty": "in RDNT"
        }
      },
      "initialize(address,address,address,address,address,address,address,uint256,uint256,uint256,uint256)": {
        "params": {
          "_baseBountyUsdTarget": "Base Bounty is paid in RDNT, will scale to match this USD target value",
          "_bountyBooster": "when bounties need boosting to clear queue, add this amount (in RDNT)",
          "_chef": "CIC, to query bounties for ineligible emissions",
          "_hunterShare": "% of reclaimed rewards to send to Hunter",
          "_lpMfd": "LP MFD, to query bounties on expired locks + autocompounds",
          "_maxBaseBounty": "cap the scaling above",
          "_mfd": "MFD, to send bounties as vesting RDNT to Hunter (user calling bounty)",
          "_priceProvider": "PriceProvider service, to get RDNT price for bounty quotes",
          "_rdnt": "RDNT address",
          "_weth": "WETH address"
        }
      },
      "paused()": {
        "details": "Returns true if the contract is paused, and false otherwise."
      },
      "quote(address)": {
        "params": {
          "_user": "address"
        },
        "returns": {
          "actionType": "which of the 3 bounty types (above) to run.  getBestBounty returns this based on priority (expired locks first, then inelig emissions, then autocompound)",
          "bounty": "amount of RDNT Hunter will recieve.  can be a fixed amt (Base Bounty) or dynamic amt based on rewards removed from target user during execution (ineligible revenue, autocompound fee)"
        }
      }
    },
    "version": 1
  },
  "userdoc": {
    "kind": "user",
    "methods": {
      "claim(address,uint256,uint256)": {
        "notice": "Execute a bounty. "
      },
      "executeBounty(address,bool,uint256,uint256)": {
        "notice": "Execute the most appropriate bounty on a user, check returned amount for slippage, calc amount going to Hunter, send to vesting."
      },
      "getBaseBounty()": {
        "notice": "Return RDNT amount for Base Bounty.  Base Bounty used to incentivize operations that dont generate their own reward to pay to Hunter."
      },
      "initialize(address,address,address,address,address,address,address,uint256,uint256,uint256,uint256)": {
        "notice": "Initialize"
      },
      "quote(address)": {
        "notice": "Given a user, return their bounty amount. uses staticcall to run same bounty aglo, but without execution"
      }
    },
    "version": 1
  },
  "storageLayout": {
    "storage": [
      {
        "astId": 6361,
        "contract": "contracts/bounties/BountyManager.sol:BountyManager",
        "label": "initialized",
        "offset": 0,
        "slot": "0",
        "type": "t_bool"
      },
      {
        "astId": 6364,
        "contract": "contracts/bounties/BountyManager.sol:BountyManager",
        "label": "initializing",
        "offset": 1,
        "slot": "0",
        "type": "t_bool"
      },
      {
        "astId": 6431,
        "contract": "contracts/bounties/BountyManager.sol:BountyManager",
        "label": "______gap",
        "offset": 0,
        "slot": "1",
        "type": "t_array(t_uint256)50_storage"
      },
      {
        "astId": 6354,
        "contract": "contracts/bounties/BountyManager.sol:BountyManager",
        "label": "__gap",
        "offset": 0,
        "slot": "51",
        "type": "t_array(t_uint256)50_storage"
      },
      {
        "astId": 6576,
        "contract": "contracts/bounties/BountyManager.sol:BountyManager",
        "label": "_owner",
        "offset": 0,
        "slot": "101",
        "type": "t_address"
      },
      {
        "astId": 6681,
        "contract": "contracts/bounties/BountyManager.sol:BountyManager",
        "label": "__gap",
        "offset": 0,
        "slot": "102",
        "type": "t_array(t_uint256)49_storage"
      },
      {
        "astId": 6703,
        "contract": "contracts/bounties/BountyManager.sol:BountyManager",
        "label": "_paused",
        "offset": 0,
        "slot": "151",
        "type": "t_bool"
      },
      {
        "astId": 6808,
        "contract": "contracts/bounties/BountyManager.sol:BountyManager",
        "label": "__gap",
        "offset": 0,
        "slot": "152",
        "type": "t_array(t_uint256)49_storage"
      },
      {
        "astId": 1828,
        "contract": "contracts/bounties/BountyManager.sol:BountyManager",
        "label": "rdnt",
        "offset": 0,
        "slot": "201",
        "type": "t_address"
      },
      {
        "astId": 1830,
        "contract": "contracts/bounties/BountyManager.sol:BountyManager",
        "label": "weth",
        "offset": 0,
        "slot": "202",
        "type": "t_address"
      },
      {
        "astId": 1832,
        "contract": "contracts/bounties/BountyManager.sol:BountyManager",
        "label": "mfd",
        "offset": 0,
        "slot": "203",
        "type": "t_address"
      },
      {
        "astId": 1834,
        "contract": "contracts/bounties/BountyManager.sol:BountyManager",
        "label": "lpMfd",
        "offset": 0,
        "slot": "204",
        "type": "t_address"
      },
      {
        "astId": 1836,
        "contract": "contracts/bounties/BountyManager.sol:BountyManager",
        "label": "chef",
        "offset": 0,
        "slot": "205",
        "type": "t_address"
      },
      {
        "astId": 1838,
        "contract": "contracts/bounties/BountyManager.sol:BountyManager",
        "label": "priceProvider",
        "offset": 0,
        "slot": "206",
        "type": "t_address"
      },
      {
        "astId": 1840,
        "contract": "contracts/bounties/BountyManager.sol:BountyManager",
        "label": "eligibilityDataProvider",
        "offset": 0,
        "slot": "207",
        "type": "t_address"
      },
      {
        "astId": 1842,
        "contract": "contracts/bounties/BountyManager.sol:BountyManager",
        "label": "HUNTER_SHARE",
        "offset": 0,
        "slot": "208",
        "type": "t_uint256"
      },
      {
        "astId": 1844,
        "contract": "contracts/bounties/BountyManager.sol:BountyManager",
        "label": "baseBountyUsdTarget",
        "offset": 0,
        "slot": "209",
        "type": "t_uint256"
      },
      {
        "astId": 1846,
        "contract": "contracts/bounties/BountyManager.sol:BountyManager",
        "label": "maxBaseBounty",
        "offset": 0,
        "slot": "210",
        "type": "t_uint256"
      },
      {
        "astId": 1848,
        "contract": "contracts/bounties/BountyManager.sol:BountyManager",
        "label": "bountyBooster",
        "offset": 0,
        "slot": "211",
        "type": "t_uint256"
      },
      {
        "astId": 1850,
        "contract": "contracts/bounties/BountyManager.sol:BountyManager",
        "label": "bountyCount",
        "offset": 0,
        "slot": "212",
        "type": "t_uint256"
      },
      {
        "astId": 1852,
        "contract": "contracts/bounties/BountyManager.sol:BountyManager",
        "label": "minDLPBalance",
        "offset": 0,
        "slot": "213",
        "type": "t_uint256"
      },
      {
        "astId": 1854,
        "contract": "contracts/bounties/BountyManager.sol:BountyManager",
        "label": "slippageLimit",
        "offset": 0,
        "slot": "214",
        "type": "t_uint256"
      },
      {
        "astId": 1870,
        "contract": "contracts/bounties/BountyManager.sol:BountyManager",
        "label": "bounties",
        "offset": 0,
        "slot": "215",
        "type": "t_mapping(t_uint256,t_function_internal_nonpayable(t_address,t_bool)returns(t_address,t_uint256,t_bool))"
      },
      {
        "astId": 1874,
        "contract": "contracts/bounties/BountyManager.sol:BountyManager",
        "label": "whitelist",
        "offset": 0,
        "slot": "216",
        "type": "t_mapping(t_address,t_bool)"
      },
      {
        "astId": 1876,
        "contract": "contracts/bounties/BountyManager.sol:BountyManager",
        "label": "whitelistActive",
        "offset": 0,
        "slot": "217",
        "type": "t_bool"
      }
    ],
    "types": {
      "t_address": {
        "encoding": "inplace",
        "label": "address",
        "numberOfBytes": "20"
      },
      "t_array(t_uint256)49_storage": {
        "base": "t_uint256",
        "encoding": "inplace",
        "label": "uint256[49]",
        "numberOfBytes": "1568"
      },
      "t_array(t_uint256)50_storage": {
        "base": "t_uint256",
        "encoding": "inplace",
        "label": "uint256[50]",
        "numberOfBytes": "1600"
      },
      "t_bool": {
        "encoding": "inplace",
        "label": "bool",
        "numberOfBytes": "1"
      },
      "t_function_internal_nonpayable(t_address,t_bool)returns(t_address,t_uint256,t_bool)": {
        "encoding": "inplace",
        "label": "function (address,bool) returns (address,uint256,bool)",
        "numberOfBytes": "8"
      },
      "t_mapping(t_address,t_bool)": {
        "encoding": "mapping",
        "key": "t_address",
        "label": "mapping(address => bool)",
        "numberOfBytes": "32",
        "value": "t_bool"
      },
      "t_mapping(t_uint256,t_function_internal_nonpayable(t_address,t_bool)returns(t_address,t_uint256,t_bool))": {
        "encoding": "mapping",
        "key": "t_uint256",
        "label": "mapping(uint256 => function (address,bool) returns (address,uint256,bool))",
        "numberOfBytes": "32",
        "value": "t_function_internal_nonpayable(t_address,t_bool)returns(t_address,t_uint256,t_bool)"
      },
      "t_uint256": {
        "encoding": "inplace",
        "label": "uint256",
        "numberOfBytes": "32"
      }
    }
  }
}