{
  "address": "0x260Bc0d901185acC772a26a65ef8C30A939427b7",
  "abi": [
    {
      "anonymous": false,
      "inputs": [
        {
          "indexed": true,
          "internalType": "address",
          "name": "token",
          "type": "address"
        },
        {
          "indexed": true,
          "internalType": "address",
          "name": "user",
          "type": "address"
        },
        {
          "indexed": false,
          "internalType": "uint256",
          "name": "balance",
          "type": "uint256"
        },
        {
          "indexed": false,
          "internalType": "uint256",
          "name": "totalSupply",
          "type": "uint256"
        }
      ],
      "name": "BalanceUpdated",
      "type": "event"
    },
    {
      "anonymous": false,
      "inputs": [
        {
          "indexed": false,
          "internalType": "uint256",
          "name": "_balance",
          "type": "uint256"
        }
      ],
      "name": "ChefReserveEmpty",
      "type": "event"
    },
    {
      "anonymous": false,
      "inputs": [
        {
          "indexed": false,
          "internalType": "uint256",
          "name": "_balance",
          "type": "uint256"
        }
      ],
      "name": "ChefReserveLow",
      "type": "event"
    },
    {
      "anonymous": false,
      "inputs": [
        {
          "indexed": true,
          "internalType": "address",
          "name": "user",
          "type": "address"
        },
        {
          "indexed": false,
          "internalType": "uint256",
          "name": "rewardsRemoved",
          "type": "uint256"
        }
      ],
      "name": "Disqualified",
      "type": "event"
    },
    {
      "anonymous": false,
      "inputs": [
        {
          "indexed": false,
          "internalType": "uint256[]",
          "name": "startTimeOffsets",
          "type": "uint256[]"
        },
        {
          "indexed": false,
          "internalType": "uint256[]",
          "name": "rewardsPerSeconds",
          "type": "uint256[]"
        }
      ],
      "name": "EmissionScheduleAppended",
      "type": "event"
    },
    {
      "anonymous": false,
      "inputs": [
        {
          "indexed": true,
          "internalType": "address",
          "name": "previousOwner",
          "type": "address"
        },
        {
          "indexed": true,
          "internalType": "address",
          "name": "newOwner",
          "type": "address"
        }
      ],
      "name": "OwnershipTransferred",
      "type": "event"
    },
    {
      "anonymous": false,
      "inputs": [
        {
          "indexed": false,
          "internalType": "address",
          "name": "account",
          "type": "address"
        }
      ],
      "name": "Paused",
      "type": "event"
    },
    {
      "anonymous": false,
      "inputs": [
        {
          "indexed": true,
          "internalType": "uint256",
          "name": "rewardsPerSecond",
          "type": "uint256"
        },
        {
          "indexed": false,
          "internalType": "bool",
          "name": "persist",
          "type": "bool"
        }
      ],
      "name": "RewardsPerSecondUpdated",
      "type": "event"
    },
    {
      "anonymous": false,
      "inputs": [
        {
          "indexed": false,
          "internalType": "address",
          "name": "account",
          "type": "address"
        }
      ],
      "name": "Unpaused",
      "type": "event"
    },
    {
      "inputs": [],
      "name": "ELIGIBILITY_ENABLED",
      "outputs": [
        {
          "internalType": "bool",
          "name": "",
          "type": "bool"
        }
      ],
      "stateMutability": "view",
      "type": "function"
    },
    {
      "inputs": [],
      "name": "accountedRewards",
      "outputs": [
        {
          "internalType": "uint256",
          "name": "",
          "type": "uint256"
        }
      ],
      "stateMutability": "view",
      "type": "function"
    },
    {
      "inputs": [
        {
          "internalType": "address",
          "name": "_token",
          "type": "address"
        },
        {
          "internalType": "uint256",
          "name": "_allocPoint",
          "type": "uint256"
        }
      ],
      "name": "addPool",
      "outputs": [],
      "stateMutability": "nonpayable",
      "type": "function"
    },
    {
      "inputs": [
        {
          "internalType": "address",
          "name": "_user",
          "type": "address"
        }
      ],
      "name": "afterLockUpdate",
      "outputs": [],
      "stateMutability": "nonpayable",
      "type": "function"
    },
    {
      "inputs": [
        {
          "internalType": "address",
          "name": "_user",
          "type": "address"
        }
      ],
      "name": "allPendingRewards",
      "outputs": [
        {
          "internalType": "uint256",
          "name": "pending",
          "type": "uint256"
        }
      ],
      "stateMutability": "view",
      "type": "function"
    },
    {
      "inputs": [
        {
          "internalType": "address[]",
          "name": "_tokens",
          "type": "address[]"
        },
        {
          "internalType": "uint256[]",
          "name": "_allocPoints",
          "type": "uint256[]"
        }
      ],
      "name": "batchUpdateAllocPoint",
      "outputs": [],
      "stateMutability": "nonpayable",
      "type": "function"
    },
    {
      "inputs": [
        {
          "internalType": "address",
          "name": "_user",
          "type": "address"
        }
      ],
      "name": "beforeLockUpdate",
      "outputs": [],
      "stateMutability": "nonpayable",
      "type": "function"
    },
    {
      "inputs": [
        {
          "internalType": "address",
          "name": "_user",
          "type": "address"
        }
      ],
      "name": "bountyForUser",
      "outputs": [
        {
          "internalType": "uint256",
          "name": "bounty",
          "type": "uint256"
        }
      ],
      "stateMutability": "view",
      "type": "function"
    },
    {
      "inputs": [],
      "name": "bountyManager",
      "outputs": [
        {
          "internalType": "address",
          "name": "",
          "type": "address"
        }
      ],
      "stateMutability": "view",
      "type": "function"
    },
    {
      "inputs": [
        {
          "internalType": "address",
          "name": "_user",
          "type": "address"
        },
        {
          "internalType": "address[]",
          "name": "_tokens",
          "type": "address[]"
        }
      ],
      "name": "claim",
      "outputs": [],
      "stateMutability": "nonpayable",
      "type": "function"
    },
    {
      "inputs": [
        {
          "internalType": "address",
          "name": "_user",
          "type": "address"
        }
      ],
      "name": "claimAll",
      "outputs": [],
      "stateMutability": "nonpayable",
      "type": "function"
    },
    {
      "inputs": [
        {
          "internalType": "address",
          "name": "_user",
          "type": "address"
        },
        {
          "internalType": "bool",
          "name": "_execute",
          "type": "bool"
        }
      ],
      "name": "claimBounty",
      "outputs": [
        {
          "internalType": "uint256",
          "name": "bountyAmt",
          "type": "uint256"
        },
        {
          "internalType": "bool",
          "name": "issueBaseBounty",
          "type": "bool"
        }
      ],
      "stateMutability": "nonpayable",
      "type": "function"
    },
    {
      "inputs": [
        {
          "internalType": "address",
          "name": "_user",
          "type": "address"
        },
        {
          "internalType": "address[]",
          "name": "_tokens",
          "type": "address[]"
        }
      ],
      "name": "claimToBase",
      "outputs": [],
      "stateMutability": "nonpayable",
      "type": "function"
    },
    {
      "inputs": [],
      "name": "depositedRewards",
      "outputs": [
        {
          "internalType": "uint256",
          "name": "",
          "type": "uint256"
        }
      ],
      "stateMutability": "view",
      "type": "function"
    },
    {
      "inputs": [
        {
          "internalType": "address",
          "name": "_user",
          "type": "address"
        },
        {
          "internalType": "uint256",
          "name": "lastEligibleTime",
          "type": "uint256"
        }
      ],
      "name": "earnedSince",
      "outputs": [
        {
          "internalType": "uint256",
          "name": "earnedAmount",
          "type": "uint256"
        }
      ],
      "stateMutability": "view",
      "type": "function"
    },
    {
      "inputs": [
        {
          "internalType": "address",
          "name": "",
          "type": "address"
        }
      ],
      "name": "eligibilityExempt",
      "outputs": [
        {
          "internalType": "bool",
          "name": "",
          "type": "bool"
        }
      ],
      "stateMutability": "view",
      "type": "function"
    },
    {
      "inputs": [],
      "name": "eligibleDataProvider",
      "outputs": [
        {
          "internalType": "contract IEligibilityDataProvider",
          "name": "",
          "type": "address"
        }
      ],
      "stateMutability": "view",
      "type": "function"
    },
    {
      "inputs": [
        {
          "internalType": "uint256",
          "name": "",
          "type": "uint256"
        }
      ],
      "name": "emissionSchedule",
      "outputs": [
        {
          "internalType": "uint128",
          "name": "startTimeOffset",
          "type": "uint128"
        },
        {
          "internalType": "uint128",
          "name": "rewardsPerSecond",
          "type": "uint128"
        }
      ],
      "stateMutability": "view",
      "type": "function"
    },
    {
      "inputs": [],
      "name": "emissionScheduleIndex",
      "outputs": [
        {
          "internalType": "uint256",
          "name": "",
          "type": "uint256"
        }
      ],
      "stateMutability": "view",
      "type": "function"
    },
    {
      "inputs": [],
      "name": "endRewardTime",
      "outputs": [
        {
          "internalType": "uint256",
          "name": "timestamp",
          "type": "uint256"
        }
      ],
      "stateMutability": "view",
      "type": "function"
    },
    {
      "inputs": [
        {
          "internalType": "address",
          "name": "_user",
          "type": "address"
        },
        {
          "internalType": "uint256",
          "name": "_balance",
          "type": "uint256"
        },
        {
          "internalType": "uint256",
          "name": "_totalSupply",
          "type": "uint256"
        }
      ],
      "name": "handleActionAfter",
      "outputs": [],
      "stateMutability": "nonpayable",
      "type": "function"
    },
    {
      "inputs": [
        {
          "internalType": "address",
          "name": "_user",
          "type": "address"
        }
      ],
      "name": "handleActionBefore",
      "outputs": [],
      "stateMutability": "nonpayable",
      "type": "function"
    },
    {
      "inputs": [
        {
          "internalType": "address",
          "name": "_poolConfigurator",
          "type": "address"
        },
        {
          "internalType": "contract IEligibilityDataProvider",
          "name": "_eligibleDataProvider",
          "type": "address"
        },
        {
          "internalType": "contract IMiddleFeeDistribution",
          "name": "_rewardMinter",
          "type": "address"
        },
        {
          "internalType": "uint256",
          "name": "_rewardsPerSecond",
          "type": "uint256"
        }
      ],
      "name": "initialize",
      "outputs": [],
      "stateMutability": "nonpayable",
      "type": "function"
    },
    {
      "inputs": [],
      "name": "lastAllPoolUpdate",
      "outputs": [
        {
          "internalType": "uint256",
          "name": "",
          "type": "uint256"
        }
      ],
      "stateMutability": "view",
      "type": "function"
    },
    {
      "inputs": [],
      "name": "lastRPS",
      "outputs": [
        {
          "internalType": "uint256",
          "name": "",
          "type": "uint256"
        }
      ],
      "stateMutability": "view",
      "type": "function"
    },
    {
      "inputs": [],
      "name": "owner",
      "outputs": [
        {
          "internalType": "address",
          "name": "",
          "type": "address"
        }
      ],
      "stateMutability": "view",
      "type": "function"
    },
    {
      "inputs": [],
      "name": "paused",
      "outputs": [
        {
          "internalType": "bool",
          "name": "",
          "type": "bool"
        }
      ],
      "stateMutability": "view",
      "type": "function"
    },
    {
      "inputs": [
        {
          "internalType": "address",
          "name": "_user",
          "type": "address"
        },
        {
          "internalType": "address[]",
          "name": "_tokens",
          "type": "address[]"
        }
      ],
      "name": "pendingRewards",
      "outputs": [
        {
          "internalType": "uint256[]",
          "name": "",
          "type": "uint256[]"
        }
      ],
      "stateMutability": "view",
      "type": "function"
    },
    {
      "inputs": [],
      "name": "persistRewardsPerSecond",
      "outputs": [
        {
          "internalType": "bool",
          "name": "",
          "type": "bool"
        }
      ],
      "stateMutability": "view",
      "type": "function"
    },
    {
      "inputs": [],
      "name": "poolConfigurator",
      "outputs": [
        {
          "internalType": "address",
          "name": "",
          "type": "address"
        }
      ],
      "stateMutability": "view",
      "type": "function"
    },
    {
      "inputs": [
        {
          "internalType": "address",
          "name": "",
          "type": "address"
        }
      ],
      "name": "poolInfo",
      "outputs": [
        {
          "internalType": "uint256",
          "name": "totalSupply",
          "type": "uint256"
        },
        {
          "internalType": "uint256",
          "name": "allocPoint",
          "type": "uint256"
        },
        {
          "internalType": "uint256",
          "name": "lastRewardTime",
          "type": "uint256"
        },
        {
          "internalType": "uint256",
          "name": "accRewardPerShare",
          "type": "uint256"
        },
        {
          "internalType": "contract IOnwardIncentivesController",
          "name": "onwardIncentives",
          "type": "address"
        }
      ],
      "stateMutability": "view",
      "type": "function"
    },
    {
      "inputs": [],
      "name": "poolLength",
      "outputs": [
        {
          "internalType": "uint256",
          "name": "",
          "type": "uint256"
        }
      ],
      "stateMutability": "view",
      "type": "function"
    },
    {
      "inputs": [
        {
          "internalType": "address",
          "name": "tokenAddress",
          "type": "address"
        },
        {
          "internalType": "uint256",
          "name": "tokenAmount",
          "type": "uint256"
        }
      ],
      "name": "recoverERC20",
      "outputs": [],
      "stateMutability": "nonpayable",
      "type": "function"
    },
    {
      "inputs": [
        {
          "internalType": "uint256",
          "name": "_amount",
          "type": "uint256"
        }
      ],
      "name": "registerRewardDeposit",
      "outputs": [],
      "stateMutability": "nonpayable",
      "type": "function"
    },
    {
      "inputs": [
        {
          "internalType": "uint256",
          "name": "",
          "type": "uint256"
        }
      ],
      "name": "registeredTokens",
      "outputs": [
        {
          "internalType": "address",
          "name": "",
          "type": "address"
        }
      ],
      "stateMutability": "view",
      "type": "function"
    },
    {
      "inputs": [],
      "name": "renounceOwnership",
      "outputs": [],
      "stateMutability": "nonpayable",
      "type": "function"
    },
    {
      "inputs": [],
      "name": "rewardMinter",
      "outputs": [
        {
          "internalType": "contract IMiddleFeeDistribution",
          "name": "",
          "type": "address"
        }
      ],
      "stateMutability": "view",
      "type": "function"
    },
    {
      "inputs": [],
      "name": "rewardsPerSecond",
      "outputs": [
        {
          "internalType": "uint256",
          "name": "",
          "type": "uint256"
        }
      ],
      "stateMutability": "view",
      "type": "function"
    },
    {
      "inputs": [
        {
          "internalType": "address[]",
          "name": "_users",
          "type": "address[]"
        }
      ],
      "name": "saveUserRewards",
      "outputs": [],
      "stateMutability": "nonpayable",
      "type": "function"
    },
    {
      "inputs": [
        {
          "internalType": "address",
          "name": "_bountyManager",
          "type": "address"
        }
      ],
      "name": "setBountyManager",
      "outputs": [],
      "stateMutability": "nonpayable",
      "type": "function"
    },
    {
      "inputs": [
        {
          "internalType": "bool",
          "name": "_newVal",
          "type": "bool"
        }
      ],
      "name": "setEligibilityEnabled",
      "outputs": [],
      "stateMutability": "nonpayable",
      "type": "function"
    },
    {
      "inputs": [
        {
          "internalType": "address",
          "name": "_contract",
          "type": "address"
        }
      ],
      "name": "setEligibilityExempt",
      "outputs": [],
      "stateMutability": "nonpayable",
      "type": "function"
    },
    {
      "inputs": [
        {
          "internalType": "uint256[]",
          "name": "_startTimeOffsets",
          "type": "uint256[]"
        },
        {
          "internalType": "uint256[]",
          "name": "_rewardsPerSecond",
          "type": "uint256[]"
        }
      ],
      "name": "setEmissionSchedule",
      "outputs": [],
      "stateMutability": "nonpayable",
      "type": "function"
    },
    {
      "inputs": [
        {
          "internalType": "address",
          "name": "_token",
          "type": "address"
        },
        {
          "internalType": "contract IOnwardIncentivesController",
          "name": "_incentives",
          "type": "address"
        }
      ],
      "name": "setOnwardIncentives",
      "outputs": [],
      "stateMutability": "nonpayable",
      "type": "function"
    },
    {
      "inputs": [
        {
          "internalType": "uint256",
          "name": "_rewardsPerSecond",
          "type": "uint256"
        },
        {
          "internalType": "bool",
          "name": "_persist",
          "type": "bool"
        }
      ],
      "name": "setRewardsPerSecond",
      "outputs": [],
      "stateMutability": "nonpayable",
      "type": "function"
    },
    {
      "inputs": [],
      "name": "start",
      "outputs": [],
      "stateMutability": "nonpayable",
      "type": "function"
    },
    {
      "inputs": [],
      "name": "startTime",
      "outputs": [
        {
          "internalType": "uint256",
          "name": "",
          "type": "uint256"
        }
      ],
      "stateMutability": "view",
      "type": "function"
    },
    {
      "inputs": [],
      "name": "totalAllocPoint",
      "outputs": [
        {
          "internalType": "uint256",
          "name": "",
          "type": "uint256"
        }
      ],
      "stateMutability": "view",
      "type": "function"
    },
    {
      "inputs": [
        {
          "internalType": "address",
          "name": "newOwner",
          "type": "address"
        }
      ],
      "name": "transferOwnership",
      "outputs": [],
      "stateMutability": "nonpayable",
      "type": "function"
    },
    {
      "inputs": [
        {
          "internalType": "address",
          "name": "",
          "type": "address"
        }
      ],
      "name": "userBaseClaimable",
      "outputs": [
        {
          "internalType": "uint256",
          "name": "",
          "type": "uint256"
        }
      ],
      "stateMutability": "view",
      "type": "function"
    },
    {
      "inputs": [
        {
          "internalType": "address",
          "name": "",
          "type": "address"
        },
        {
          "internalType": "address",
          "name": "",
          "type": "address"
        }
      ],
      "name": "userInfo",
      "outputs": [
        {
          "internalType": "uint256",
          "name": "amount",
          "type": "uint256"
        },
        {
          "internalType": "uint256",
          "name": "rewardDebt",
          "type": "uint256"
        },
        {
          "internalType": "uint256",
          "name": "enterTime",
          "type": "uint256"
        },
        {
          "internalType": "uint256",
          "name": "lastClaimTime",
          "type": "uint256"
        }
      ],
      "stateMutability": "view",
      "type": "function"
    }
  ],
  "transactionHash": "0x10ad9e8af1eb9f5df4248b2272433fe1475bbf622d81089ede9fa1f97443fb10",
  "args": [],
  "numDeployments": 1,
  "solcInputHash": "78995fe69be866012cdea8ea4c4842de",
  "bytecode": "0x608060405234801561001057600080fd5b50614780806100206000396000f3fe608060405234801561001057600080fd5b50600436106102515760003560e01c806302a24770146102565780630702a95d14610270578063081e3eda146102aa5780630c634248146102b25780630f208beb146102ba57806317caf6f11461030e5780631b2064f7146103165780631d94f24d1461031e57806325dc43871461035257806332a9caba14610377578063334d0bbd146103a357806334c54230146103ef5780633adcdfc8146104ad5780633df8161c146104d3578063566cac76146105d45780635c1a8ac6146106755780635c975abb1461069b5780635ea3f4fa146106a35780635fe4f741146106c95780636d4f675c146106ed578063715018a6146106f557806377329f35146106fd578063779f61691461072357806378e979251461072b5780637ab8955d14610733578063850294091461077a5780638980f11f146107a05780638da5cb5b146107cc5780638e2eba09146107d45780639a0ba2ea146108855780639a7b5f11146108a25780639b5a734f146108fc5780639b8e556314610922578063a3eaf99a1461092a578063b36b9ffd146109db578063ba04a111146109e3578063be05d3fb146109eb578063be9a6555146109f3578063bfccff45146109fb578063c025191e14610a21578063cccd82b014610a4d578063cd1a4d8614610a73578063cf756fdf14610aa1578063d055709014610add578063de7e410c14610afa578063eacdaabc14610b02578063f2fde38b14610b0a578063f5fe161014610b30578063f6d69c2814610b4f578063fc7c937614610c0d578063ff66a30514610c15575b600080fd5b61025e610c3b565b60408051918252519081900360200190f35b6102966004803603602081101561028657600080fd5b50356001600160a01b0316610d8b565b604080519115158252519081900360200190f35b61025e610da0565b61025e610da6565b6102e8600480360360408110156102d057600080fd5b506001600160a01b0381358116916020013516610dac565b604080519485526020850193909352838301919091526060830152519081900360800190f35b61025e610dde565b610296610de4565b6103506004803603606081101561033457600080fd5b506001600160a01b038135169060208101359060400135610ded565b005b6103506004803603604081101561036857600080fd5b5080359060200135151561100a565b6103506004803603604081101561038d57600080fd5b506001600160a01b0381351690602001356110c4565b6103c0600480360360208110156103b957600080fd5b5035611255565b60405180836001600160801b03168152602001826001600160801b031681526020019250505060405180910390f35b6103506004803603604081101561040557600080fd5b810190602081018135600160201b81111561041f57600080fd5b82018360208201111561043157600080fd5b803590602001918460208302840111600160201b8311171561045257600080fd5b919390929091602081019035600160201b81111561046f57600080fd5b82018360208201111561048157600080fd5b803590602001918460208302840111600160201b831117156104a257600080fd5b50909250905061128a565b610350600480360360208110156104c357600080fd5b50356001600160a01b0316611441565b610584600480360360408110156104e957600080fd5b6001600160a01b038235169190810190604081016020820135600160201b81111561051357600080fd5b82018360208201111561052557600080fd5b803590602001918460208302840111600160201b8311171561054657600080fd5b919080806020026020016040519081016040528093929190818152602001838360200280828437600092019190915250929550611794945050505050565b60408051602080825283518183015283519192839290830191858101910280838360005b838110156105c05781810151838201526020016105a8565b505050509050019250505060405180910390f35b610350600480360360208110156105ea57600080fd5b810190602081018135600160201b81111561060457600080fd5b82018360208201111561061657600080fd5b803590602001918460208302840111600160201b8311171561063757600080fd5b919080806020026020016040519081016040528093929190818152602001838360200280828437600092019190915250929550611913945050505050565b6103506004803603602081101561068b57600080fd5b50356001600160a01b03166119d0565b610296611a56565b61025e600480360360208110156106b957600080fd5b50356001600160a01b0316611a5f565b6106d1611b17565b604080516001600160a01b039092168252519081900360200190f35b61025e611b26565b610350611b2c565b6103506004803603602081101561071357600080fd5b50356001600160a01b0316611b9a565b61025e611bfe565b61025e611c04565b6107616004803603604081101561074957600080fd5b506001600160a01b0381351690602001351515611c0a565b6040805192835290151560208301528051918290030190f35b61025e6004803603602081101561079057600080fd5b50356001600160a01b0316611d08565b610350600480360360408110156107b657600080fd5b506001600160a01b038135169060200135611d8e565b6106d1611e10565b610350600480360360408110156107ea57600080fd5b6001600160a01b038235169190810190604081016020820135600160201b81111561081457600080fd5b82018360208201111561082657600080fd5b803590602001918460208302840111600160201b8311171561084757600080fd5b919080806020026020016040519081016040528093929190818152602001838360200280828437600092019190915250929550611e1f945050505050565b6106d16004803603602081101561089b57600080fd5b5035612032565b6108c8600480360360208110156108b857600080fd5b50356001600160a01b031661205c565b6040805195865260208601949094528484019290925260608401526001600160a01b03166080830152519081900360a00190f35b6103506004803603602081101561091257600080fd5b50356001600160a01b0316611791565b6106d1612094565b6103506004803603604081101561094057600080fd5b6001600160a01b038235169190810190604081016020820135600160201b81111561096a57600080fd5b82018360208201111561097c57600080fd5b803590602001918460208302840111600160201b8311171561099d57600080fd5b9190808060200260200160405190810160405280939291908181526020018383602002808284376000920191909152509295506120a3945050505050565b6106d1612251565b61025e612260565b61025e612266565b61035061226c565b61025e60048036036020811015610a1157600080fd5b50356001600160a01b031661231b565b61025e60048036036040811015610a3757600080fd5b506001600160a01b03813516906020013561232d565b61035060048036036020811015610a6357600080fd5b50356001600160a01b0316612550565b61035060048036036040811015610a8957600080fd5b506001600160a01b0381358116916020013516612650565b61035060048036036080811015610ab757600080fd5b506001600160a01b03813581169160208101358216916040820135169060600135612745565b61035060048036036020811015610af357600080fd5b5035612898565b6106d1612932565b61025e612946565b61035060048036036020811015610b2057600080fd5b50356001600160a01b031661294c565b61035060048036036020811015610b4657600080fd5b503515156129fc565b61035060048036036040811015610b6557600080fd5b810190602081018135600160201b811115610b7f57600080fd5b820183602082011115610b9157600080fd5b803590602001918460208302840111600160201b83111715610bb257600080fd5b919390929091602081019035600160201b811115610bcf57600080fd5b820183602082011115610be157600080fd5b803590602001918460208302840111600160201b83111715610c0257600080fd5b509092509050612a71565b610296612db7565b61035060048036036020811015610c2b57600080fd5b50356001600160a01b0316612dc0565b600080610c5560d85460d754612e4490919063ffffffff16565b90506000805b60cb54811015610d5d5760d95460cf600060cb8481548110610c7957fe5b60009182526020808320909101546001600160a01b0316835282019290925260400190206002015411610cab57610d55565b610d52610d4b60d154610d4560cc54610d3f60cf600060cb8981548110610cce57fe5b60009182526020808320909101546001600160a01b0316835282019290925260400181206001015460d95460cb80549293610d3f9360cf92908d908110610d1157fe5b60009182526020808320909101546001600160a01b0316835282019290925260400190206002015490612e44565b90612e8d565b90612ee6565b8390612f25565b91505b600101610c5b565b5060cc54610d6f576000199250610d86565b60d95460cc54610d829084840190612ee6565b0192505b505090565b60d46020526000908152604090205460ff1681565b60cb5490565b60ce5481565b60d260209081526000928352604080842090915290825290208054600182015460028301546003909301549192909184565b60d15481565b60ca5460ff1681565b33600090815260d0602052604090205460ff1680610e235750610e0e612f7d565b6001600160a01b0316336001600160a01b0316145b610e67576040805162461bcd60e51b815260206004820152601060248201526f085c951bdad95b881f1f081b1c1b599960821b604482015290519081900360640190fd5b60da546001600160a01b0384811691161480610e9b5750610e86613000565b6001600160a01b0316836001600160a01b0316145b80610ebe5750610ea9612f7d565b6001600160a01b0316836001600160a01b0316145b80610ee157506001600160a01b038316600090815260d4602052604090205460ff165b15610eeb57611005565b60d65460ff1615610ff95760db5460408051630afb040960e01b81526001600160a01b03868116600483015291519190921691630afb040991602480830192600092919082900301818387803b158015610f4457600080fd5b505af1158015610f58573d6000803e3d6000fd5b505060db5460408051633300c37360e11b81526001600160a01b038881166004830152915191909216935063660186e692506024808301926020929190829003018186803b158015610fa957600080fd5b505afa158015610fbd573d6000803e3d6000fd5b505050506040513d6020811015610fd357600080fd5b505115610feb57610fe633848484613051565b610ff4565b610ff483613299565b611005565b61100533848484613051565b505050565b6110126132a4565b6001600160a01b0316611023611e10565b6001600160a01b03161461106c576040805162461bcd60e51b81526020600482018190526024820152600080516020614672833981519152604482015290519081900360640190fd5b6110746132a8565b60cc82905560ca805482151560ff199091168117909155604080519182525183917f91bb2acfac3265da2e9b45e815cdcb50f9b349454c54e812590ecb5d109ae8dc919081900360200190a25050565b60d65461010090046001600160a01b03163314611116576040805162461bcd60e51b815260206004820152600b60248201526a1b9bdd08185b1b1bddd95960aa1b604482015290519081900360640190fd5b6001600160a01b038216600090815260cf60205260409020600201541561117a576040805162461bcd60e51b8152602060048201526013602482015272706f6f6c20616c72656164792065786973747360681b604482015290519081900360640190fd5b611182613308565b60d15461118f9082612f25565b60d15560cb805460018082019092557fa7ce836d032b2bf62b7e2097a8e0a6d8aeb35405ad15271e96d3b0188a1d06fb0180546001600160a01b03199081166001600160a01b039586169081179092556040805160a0810182526000808252602080830197885242838501908152606084018381526080850184815297845260cf83528584209451855598518489015551600284015596516003830155935160049091018054909316961695909517905560d0909252919020805460ff19169091179055565b60c9818154811061126557600080fd5b6000918252602090912001546001600160801b038082169250600160801b9091041682565b6112926132a4565b6001600160a01b03166112a3611e10565b6001600160a01b0316146112ec576040805162461bcd60e51b81526020600482018190526024820152600080516020614672833981519152604482015290519081900360640190fd5b828114611339576040805162461bcd60e51b81526020600482015260166024820152750e0c2e4c2dae640d8cadccee8d040dad2e6dac2e8c6d60531b604482015290519081900360640190fd5b6113416132a8565b60d15460005b8481101561143757600060cf600088888581811061136157fe5b905060200201356001600160a01b03166001600160a01b03166001600160a01b03168152602001908152602001600020905060008160020154116113e1576040805162461bcd60e51b81526020600482015260126024820152711c1bdbdb08191bd95cdb89dd08195e1a5cdd60721b604482015290519081900360640190fd5b6114148585848181106113f057fe5b9050602002013561140e836001015486612e4490919063ffffffff16565b90612f25565b925084848381811061142257fe5b60200291909101356001928301555001611347565b5060d15550505050565b611449612f7d565b6001600160a01b0316336001600160a01b03161480611480575061146b613000565b6001600160a01b0316336001600160a01b0316145b6114c2576040805162461bcd60e51b815260206004820152600e60248201526d085b1c135191081f1f080853519160921b604482015290519081900360640190fd5b60d65460ff16156117915760db60009054906101000a90046001600160a01b03166001600160a01b031663673a7e286040518163ffffffff1660e01b8152600401600060405180830381600087803b15801561151d57600080fd5b505af1158015611531573d6000803e3d6000fd5b505060db5460408051633300c37360e11b81526001600160a01b038681166004830152915191909216935063660186e692506024808301926020929190829003018186803b15801561158257600080fd5b505afa158015611596573d6000803e3d6000fd5b505050506040513d60208110156115ac57600080fd5b50511561172a5760005b60cb5481101561172857600060cb82815481106115cf57fe5b60009182526020918290200154604080516370a0823160e01b81526001600160a01b038781166004830152915191909216926370a082319260248082019391829003018186803b15801561162257600080fd5b505afa158015611636573d6000803e3d6000fd5b505050506040513d602081101561164c57600080fd5b50519050801561171f5761171f60cb838154811061166657fe5b9060005260206000200160009054906101000a90046001600160a01b0316848361171a60d2600060cb898154811061169a57fe5b60009182526020808320909101546001600160a01b0390811684528382019490945260409283018220938c1682529290925281205460cb80549192611714928a9260cf92918d9081106116e957fe5b60009182526020808320909101546001600160a01b0316835282019290925260400190205490612f25565b90612e44565b613051565b506001016115b6565b505b60db5460408051630afb040960e01b81526001600160a01b03848116600483015291519190921691630afb040991602480830192600092919082900301818387803b15801561177857600080fd5b505af115801561178c573d6000803e3d6000fd5b505050505b50565b6060600082516001600160401b03811180156117af57600080fd5b506040519080825280602002602001820160405280156117d9578160200160208202803683370190505b50905060005b83518110156119095760008482815181106117f657fe5b6020908102919091018101516001600160a01b03808216600090815260cf8452604080822060d28652818320938c168352929094529290922060038301548354600285015493955091929091904211801561185057508015155b156118b957600061186e856002015442612e4490919063ffffffff16565b9050600061189560d154610d458860010154610d3f60cc5487612e8d90919063ffffffff16565b90506118b46118ad84610d458464e8d4a51000612e8d565b8590612f25565b935050505b6118e1836001015461171464e8d4a51000610d45868860000154612e8d90919063ffffffff16565b8787815181106118ed57fe5b60209081029190910101525050600190930192506117df915050565b5090505b92915050565b600060cb80548060200260200160405190810160405280929190818152602001828054801561196b57602002820191906000526020600020905b81546001600160a01b0316815260019091019060200180831161194d575b5050505050905060005b82518110156110055760006001600160a01b031683828151811061199557fe5b60200260200101516001600160a01b0316146119c8576119c88382815181106119ba57fe5b6020026020010151836120a3565b600101611975565b6119d86132a4565b6001600160a01b03166119e9611e10565b6001600160a01b031614611a32576040805162461bcd60e51b81526020600482018190526024820152600080516020614672833981519152604482015290519081900360640190fd5b6001600160a01b0316600090815260d460205260409020805460ff19166001179055565b60655460ff1690565b6001600160a01b038116600090815260d3602090815260408083205460cb8054835181860281018601909452808452919493611add938793909291830182828015611ad357602002820191906000526020600020905b81546001600160a01b03168152600190910190602001808311611ab5575b5050505050611794565b905060005b8151811015611b1057818181518110611af757fe5b6020026020010151830192508080600101915050611ae2565b5050919050565b60db546001600160a01b031681565b60d75481565b611b346132a4565b6001600160a01b0316611b45611e10565b6001600160a01b031614611b8e576040805162461bcd60e51b81526020600482018190526024820152600080516020614672833981519152604482015290519081900360640190fd5b611b986000613337565b565b6117918160cb805480602002602001604051908101604052809291908181526020018280548015611bf457602002820191906000526020600020905b81546001600160a01b03168152600190910190602001808311611bd6575b5050505050611e1f565b60d95481565b60d55481565b60dc5460009081906001600160a01b03163314611c5c576040805162461bcd60e51b815260206004820152600b60248201526a626f756e7479206f6e6c7960a81b604482015290519081900360640190fd5b611c668484613389565b90925090508215611d015760da546040805163ab453a5960e01b815290516000926001600160a01b03169163ab453a59916004808301926020929190829003018186803b158015611cb657600080fd5b505afa158015611cca573d6000803e3d6000fd5b505050506040513d6020811015611ce057600080fd5b505160dc54909150611cff906001600160a01b0380841691168561379c565b505b9250929050565b60db546040805163563014e560e01b81526001600160a01b038085166004830152915160009361190d93869391169163563014e591602480820192602092909190829003018186803b158015611d5d57600080fd5b505afa158015611d71573d6000803e3d6000fd5b505050506040513d6020811015611d8757600080fd5b505161232d565b611d966132a4565b6001600160a01b0316611da7611e10565b6001600160a01b031614611df0576040805162461bcd60e51b81526020600482018190526024820152600080516020614672833981519152604482015290519081900360640190fd5b611e0c611dfb611e10565b6001600160a01b03841690836138af565b5050565b6097546001600160a01b031690565b60d65460ff1615611e3357611e3382613299565b611e3b613308565b6001600160a01b038216600090815260d36020526040812080549082905560d15490915b83518110156120055760d06000858381518110611e7857fe5b6020908102919091018101516001600160a01b031682528101919091526040016000205460ff16611ea857600080fd5b600060cf6000868481518110611eba57fe5b60200260200101516001600160a01b03166001600160a01b0316815260200190815260200160002090506000816002015411611f32576040805162461bcd60e51b81526020600482015260126024820152711c1bdbdb08191bd95cdb89dd08195e1a5cdd60721b604482015290519081900360640190fd5b611f3c8184613901565b600060d26000878581518110611f4e57fe5b60200260200101516001600160a01b03166001600160a01b031681526020019081526020016000206000886001600160a01b03166001600160a01b0316815260200190815260200160002090506000611fc164e8d4a51000610d4585600301548560000154612e8d90919063ffffffff16565b9050611fe4611fdd836001015483612e4490919063ffffffff16565b8790612f25565b60018084019290925542600390930192909255909450919091019050611e5f565b5061201084836139ef565b42620697800161201e610c3b565b101561202c5761202c613a87565b50505050565b60cb818154811061204257600080fd5b6000918252602090912001546001600160a01b0316905081565b60cf6020526000908152604090208054600182015460028301546003840154600490940154929391929091906001600160a01b031685565b60da546001600160a01b031681565b6001600160a01b038216600090815260d36020526040812054906120c78484611794565b90506120d1613308565b60d15460005b845181101561222e5760d060008683815181106120f057fe5b6020908102919091018101516001600160a01b031682528101919091526040016000205460ff1661212057600080fd5b600060d2600087848151811061213257fe5b60200260200101516001600160a01b03166001600160a01b031681526020019081526020016000206000886001600160a01b03166001600160a01b0316815260200190815260200160002090506121a584838151811061218e57fe5b602002602001015186612f2590919063ffffffff16565b9450600060cf60008885815181106121b957fe5b60200260200101516001600160a01b03166001600160a01b0316815260200190815260200160002090506121ed8185613901565b600061221364e8d4a51000610d4584600301548660000154612e8d90919063ffffffff16565b600180850191909155426003909401939093555050016120d7565b5050506001600160a01b03909216600090815260d3602052604090209190915550565b60dc546001600160a01b031681565b60cd5481565b60d85481565b6122746132a4565b6001600160a01b0316612285611e10565b6001600160a01b0316146122ce576040805162461bcd60e51b81526020600482018190526024820152600080516020614672833981519152604482015290519081900360640190fd5b60d55415612315576040805162461bcd60e51b815260206004820152600f60248201526e185b1c9958591e481cdd185c9d1959608a1b604482015290519081900360640190fd5b4260d555565b60d36020526000908152604090205481565b60d65460009060ff1615806123b7575060db5460408051633300c37360e11b81526001600160a01b0386811660048301529151919092169163660186e6916024808301926020929190829003018186803b15801561238a57600080fd5b505afa15801561239e573d6000803e3d6000fd5b505050506040513d60208110156123b457600080fd5b50515b156123c45750600061190d565b6000428310156123db576123d84284612e44565b90505b600061243f8560cb805480602002602001604051908101604052809291908181526020018280548015611ad3576020028201919060005260206000209081546001600160a01b03168152600190910190602001808311611ab5575050505050611794565b905060005b815181101561254757600060d2600060cb848154811061246057fe5b60009182526020808320909101546001600160a01b0390811684528382019490945260409283018220938b1682529290925281206002810154600382015491935010156124b2575060038101546124b9565b5060028101545b42819003801561253c5760006124eb828787815181106124d557fe5b6020026020010151612ee690919063ffffffff16565b905060006124f98883612e8d565b905086868151811061250757fe5b602002602001015181111561252d5786868151811061252257fe5b602002602001015190505b6125378982612f25565b985050505b505050600101612444565b50505092915050565b612558612f7d565b6001600160a01b0316336001600160a01b0316148061258f575061257a613000565b6001600160a01b0316336001600160a01b0316145b61259857600080fd5b60d65460ff16156117915760006125ae82611d08565b905060006125ba612f7d565b6001600160a01b03166398387a8d846040518263ffffffff1660e01b815260040180826001600160a01b0316815260200191505060206040518083038186803b15801561260657600080fd5b505afa15801561261a573d6000803e3d6000fd5b505050506040513d602081101561263057600080fd5b50511590508115801590612642575080155b156110055761100583613299565b6126586132a4565b6001600160a01b0316612669611e10565b6001600160a01b0316146126b2576040805162461bcd60e51b81526020600482018190526024820152600080516020614672833981519152604482015290519081900360640190fd5b6001600160a01b038216600090815260cf6020526040902060020154612714576040805162461bcd60e51b81526020600482015260126024820152711c1bdbdb08191bd95cdb89dd08195e1a5cdd60721b604482015290519081900360640190fd5b6001600160a01b03918216600090815260cf6020526040902060040180546001600160a01b03191691909216179055565b600054610100900460ff168061275e575061275e613ba3565b8061276c575060005460ff16155b6127a75760405162461bcd60e51b815260040180806020018281038252602e815260200180614692602e913960400191505060405180910390fd5b600054610100900460ff161580156127d2576000805460ff1961ff0019909116610100171660011790555b6001600160a01b0385166127e557600080fd5b6001600160a01b0384166127f857600080fd5b6001600160a01b03831661280b57600080fd5b612813613ba9565b61281b613bf7565b60d6805460db80546001600160a01b038881166001600160a01b03199283161790925560da8054888416921691909117905560cc85905560ca805460ff19908116600190811790925591891661010002610100600160a81b03199093169290921716179055801561178c576000805461ff00191690555050505050565b6128a06132a4565b6001600160a01b03166128b1611e10565b6001600160a01b0316146128fa576040805162461bcd60e51b81526020600482018190526024820152600080516020614672833981519152604482015290519081900360640190fd5b60d7546129079082612f25565b60d7556129126132a8565b60cc541580156129245750600060cd54115b156117915760cd5460cc5550565b60d65461010090046001600160a01b031681565b60cc5481565b6129546132a4565b6001600160a01b0316612965611e10565b6001600160a01b0316146129ae576040805162461bcd60e51b81526020600482018190526024820152600080516020614672833981519152604482015290519081900360640190fd5b6001600160a01b0381166129f35760405162461bcd60e51b815260040180806020018281038252602681526020018061462b6026913960400191505060405180910390fd5b61179181613337565b612a046132a4565b6001600160a01b0316612a15611e10565b6001600160a01b031614612a5e576040805162461bcd60e51b81526020600482018190526024820152600080516020614672833981519152604482015290519081900360640190fd5b60d6805460ff1916911515919091179055565b612a796132a4565b6001600160a01b0316612a8a611e10565b6001600160a01b031614612ad3576040805162461bcd60e51b81526020600482018190526024820152600080516020614672833981519152604482015290519081900360640190fd5b828015801590612ae257508082145b612b2e576040805162461bcd60e51b8152602060048201526018602482015277656d707479206f72206d69736d6174636820706172616d7360401b604482015290519081900360640190fd5b60005b81811015612d1c576001600160801b03868683818110612b4d57fe5b905060200201351115612ba7576040805162461bcd60e51b815260206004820152601e60248201527f737461727454696d654f666673657473203e206d61782075696e743132380000604482015290519081900360640190fd5b6001600160801b03848483818110612bbb57fe5b905060200201351115612c15576040805162461bcd60e51b815260206004820152601e60248201527f726577617264735065725365636f6e64203e206d61782075696e743132380000604482015290519081900360640190fd5b60d55415612c855760d554612c2b904290612e44565b868683818110612c3757fe5b9050602002013511612c85576040805162461bcd60e51b8152602060048201526012602482015271696e76616c69642073746172742074696d6560701b604482015290519081900360640190fd5b60c96040518060400160405280888885818110612c9e57fe5b905060200201356001600160801b03168152602001868685818110612cbf57fe5b6001600160801b036020918202939093013583169093525083546001818101865560009586529483902084519101805494909301518216600160801b029082166001600160801b0319909416939093171691909117905501612b31565b507f0a4b885eafe78f585b7c7667ea419f9b1b17d09dfdf23ffa7925b73db6986f16858585856040518080602001806020018381038352878782818152602001925060200280828437600083820152601f01601f19169091018481038352858152602090810191508690860280828437600083820152604051601f909101601f19169092018290039850909650505050505050a15050505050565b60d65460ff1681565b612dc86132a4565b6001600160a01b0316612dd9611e10565b6001600160a01b031614612e22576040805162461bcd60e51b81526020600482018190526024820152600080516020614672833981519152604482015290519081900360640190fd5b60dc80546001600160a01b0319166001600160a01b0392909216919091179055565b6000612e8683836040518060400160405280601e81526020017f536166654d6174683a207375627472616374696f6e206f766572666c6f770000815250613c45565b9392505050565b600082612e9c5750600061190d565b82820282848281612ea957fe5b0414612e865760405162461bcd60e51b81526004018080602001828103825260218152602001806146516021913960400191505060405180910390fd5b6000612e8683836040518060400160405280601a815260200179536166654d6174683a206469766973696f6e206279207a65726f60301b815250613cdc565b600082820183811015612e86576040805162461bcd60e51b815260206004820152601b60248201527a536166654d6174683a206164646974696f6e206f766572666c6f7760281b604482015290519081900360640190fd5b60008060da60009054906101000a90046001600160a01b03166001600160a01b03166328f407486040518163ffffffff1660e01b815260040160206040518083038186803b158015612fce57600080fd5b505afa158015612fe2573d6000803e3d6000fd5b505050506040513d6020811015612ff857600080fd5b505192915050565b60008060da60009054906101000a90046001600160a01b03166001600160a01b031663cd57ed6c6040518163ffffffff1660e01b815260040160206040518083038186803b158015612fce57600080fd5b6001600160a01b038416600090815260cf6020526040902060028101546130b4576040805162461bcd60e51b81526020600482015260126024820152711c1bdbdb08191bd95cdb89dd08195e1a5cdd60721b604482015290519081900360640190fd5b6130bc613308565b6130c88160d154613901565b6001600160a01b03808616600090815260d2602090815260408083209388168352929052208054600383015481156131605760018301546000906131199061171464e8d4a51000610d458787612e8d565b9050801561315e576001600160a01b038816600090815260d360205260409020546131449082612f25565b6001600160a01b038916600090815260d360205260409020555b505b8254845461316d91612e44565b845585835561318564e8d4a51000610d458884612e8d565b6001840155825415613198574260028401555b83546131a49087612f25565b845560048401546001600160a01b03161561323c576004808501546040805163ae0b537160e01b81526001600160a01b038c8116948201949094528a84166024820152604481018a9052606481018990529051929091169163ae0b53719160848082019260009290919082900301818387803b15801561322357600080fd5b505af1158015613237573d6000803e3d6000fd5b505050505b866001600160a01b0316886001600160a01b03167f526824944047da5b81071fb6349412005c5da81380b336103fbe5dd34556c7768888604051808381526020018281526020019250505060405180910390a35050505050505050565b611005816001613389565b3390565b60d15460cb5460005b818110156132ff576132f760cf600060cb84815481106132cd57fe5b60009182526020808320909101546001600160a01b03168352820192909252604001902084613901565b6001016132b1565b50504260d95550565b613310610c3b565b42111561332f5761331f6132a8565b60cc805460cd5560009055611b98565b611b98613d41565b609780546001600160a01b038381166001600160a01b0319831681179093556040519116919082907f8be0079c531659141344cd1fd0a4f28419497f9722a3daafe3b4186f6b6457e090600090a35050565b6000806000613396612f7d565b6001600160a01b03166398387a8d866040518263ffffffff1660e01b815260040180826001600160a01b0316815260200191505060206040518083038186803b1580156133e257600080fd5b505afa1580156133f6573d6000803e3d6000fd5b505050506040513d602081101561340c57600080fd5b505160db546040805163696c9a7f60e01b81526001600160a01b038981166004830152915193159450600093919092169163696c9a7f916024808301926020929190829003018186803b15801561346257600080fd5b505afa158015613476573d6000803e3d6000fd5b505050506040513d602081101561348c57600080fd5b505160db5460408051633300c37360e11b81526001600160a01b038a811660048301529151939450600093919092169163660186e6916024808301926020929190829003018186803b1580156134e157600080fd5b505afa1580156134f5573d6000803e3d6000fd5b505050506040513d602081101561350b57600080fd5b505160db546040805163563014e560e01b81526001600160a01b038b811660048301529151939450600093919092169163563014e5916024808301926020929190829003018186803b15801561356057600080fd5b505afa158015613574573d6000803e3d6000fd5b505050506040513d602081101561358a57600080fd5b505160db5460408051636f21a17960e01b81526001600160a01b038c8116600483015291519394506000939190921691636f21a179916024808301926020929190829003018186803b1580156135df57600080fd5b505afa1580156135f3573d6000803e3d6000fd5b505050506040513d602081101561360957600080fd5b5051905060006136188a613df4565b905081151584158015613629575080155b1561366a578580156136385750815b15613646576001975061366a565b831580159061365457504284105b1561366a578661366a576136678b611d08565b98505b891561378e578815158061367b5750875b156136d25784156136c9576040805162461bcd60e51b815260206004820152601360248201527275736572207374696c6c20656c696769626c6560681b604482015290519081900360640190fd5b6136d28b613e6c565b88156137275760006136e48c8b614044565b6040805182815290519192506001600160a01b038e16917f2af5d0a51fd1438a65c30b3ef7bcb7851335de1ff2540c9394b4dbb5733657a09181900360200190a2505b60db5460408051630afb040960e01b81526001600160a01b038e8116600483015291519190921691630afb040991602480830192600092919082900301818387803b15801561377557600080fd5b505af1158015613789573d6000803e3d6000fd5b505050505b505050505050509250929050565b801580613822575060408051636eb1769f60e11b81523060048201526001600160a01b03848116602483015291519185169163dd62ed3e91604480820192602092909190829003018186803b1580156137f457600080fd5b505afa158015613808573d6000803e3d6000fd5b505050506040513d602081101561381e57600080fd5b5051155b61385d5760405162461bcd60e51b81526004018080602001828103825260368152602001806147156036913960400191505060405180910390fd5b604080516001600160a01b038416602482015260448082018490528251808303909101815260649091019091526020810180516001600160e01b031663095ea7b360e01b17905261100590849061416a565b604080516001600160a01b038416602482015260448082018490528251808303909101815260649091019091526020810180516001600160e01b031663a9059cbb60e01b17905261100590849061416a565b428061390b610c3b565b1161391b57613918610c3b565b90505b8260020154811161392c5750611e0c565b82548061393e57506002830155611e0c565b6000613957856002015484612e4490919063ffffffff16565b9050600061397060cc5483612e8d90919063ffffffff16565b90508061397b614321565b101561398c57613989614321565b90505b60006139a986610d45896001015485612e8d90919063ffffffff16565b60d8549091506139b99082612f25565b60d8556139dd6139d285610d458464e8d4a51000612e8d565b600389015490612f25565b60038801555050505060028301555050565b613a006139fa613000565b8261433f565b9050613a0a613000565b6001600160a01b031663d1a1beb4838360016040518463ffffffff1660e01b815260040180846001600160a01b0316815260200183815260200182151581526020019350505050600060405180830381600087803b158015613a6b57600080fd5b505af1158015613a7f573d6000803e3d6000fd5b505050505050565b60da546040805163ab453a5960e01b815290516000926001600160a01b03169163ab453a59916004808301926020929190829003018186803b158015613acc57600080fd5b505afa158015613ae0573d6000803e3d6000fd5b505050506040513d6020811015613af657600080fd5b5051604080516370a0823160e01b815230600482015290519192507f1681e542d7f33ef0ad012aecd346fa867be856110f81d25dcbbd72f972a57a45916001600160a01b038416916370a08231916024808301926020929190829003018186803b158015613b6357600080fd5b505afa158015613b77573d6000803e3d6000fd5b505050506040513d6020811015613b8d57600080fd5b505160408051918252519081900360200190a150565b303b1590565b600054610100900460ff16613bef5760405162461bcd60e51b815260040180806020018281038252602b8152602001806146c0602b913960400191505060405180910390fd5b611b9861449e565b600054610100900460ff16613c3d5760405162461bcd60e51b815260040180806020018281038252602b8152602001806146c0602b913960400191505060405180910390fd5b611b986144f4565b60008184841115613cd45760405162461bcd60e51b81526004018080602001828103825283818151815260200191508051906020019080838360005b83811015613c99578181015183820152602001613c81565b50505050905090810190601f168015613cc65780820380516001836020036101000a031916815260200191505b509250505060405180910390fd5b505050900390565b60008183613d2b5760405162461bcd60e51b8152602060048201818152835160248401528351909283926044909101919085019080838360008315613c99578181015183820152602001613c81565b506000838581613d3757fe5b0495945050505050565b60ca5460ff16611b985760c95460ce5460d554600090613d62904290612e44565b90505b8282108015613d99575060c98281548110613d7c57fe5b6000918252602090912001546001600160801b0390811690821610155b15613da957600190910190613d65565b60ce548211156110055760ce829055613dc06132a8565b60c96001830381548110613dd057fe5b600091825260209091200154600160801b90046001600160801b031660cc55505050565b6000805b60cb54811015613e6657600060d2600060cb8481548110613e1557fe5b60009182526020808320909101546001600160a01b03908116845283820194909452604092830182209388168252929092529020805490915015613e5d576001925050613e66565b50600101613df8565b50919050565b60d65460ff16613ea9576040805162461bcd60e51b815260206004820152600360248201526221454560e81b604482015290519081900360640190fd5b60db5460408051633300c37360e11b81526001600160a01b0384811660048301529151919092169163660186e6916024808301926020929190829003018186803b158015613ef657600080fd5b505afa158015613f0a573d6000803e3d6000fd5b505050506040513d6020811015613f2057600080fd5b505115613f6d576040805162461bcd60e51b815260206004820152601660248201527575736572206973207374696c6c20656c696769626c6560501b604482015290519081900360640190fd5b60cb5460005b81811015613fef57600060cb8281548110613f8a57fe5b60009182526020808320909101546001600160a01b0390811680845260cf8352604080852060d28552818620938a168652929093529183208054825493955091939092613fe19286928a92909161171a9190612e44565b505050806001019050613f73565b5060db54604080516307163ae560e51b81526001600160a01b0385811660048301524260248301529151919092169163e2c75ca091604480830192600092919082900301818387803b158015613a6b57600080fd5b60d65460009060ff16614084576040805162461bcd60e51b815260206004820152600360248201526221454560e81b604482015290519081900360640190fd5b6140e88360cb8054806020026020016040519081016040528092919081815260200182805480156140de57602002820191906000526020600020905b81546001600160a01b031681526001909101906020018083116140c0575b50505050506120a3565b6001600160a01b038316600090815260d36020526040902054821015614149576001600160a01b038316600090815260d3602052604090205461412b9083612e44565b6001600160a01b038416600090815260d36020526040902055613e66565b50506001600160a01b0316600090815260d360205260408120805491905590565b61417c826001600160a01b0316614546565b6141cd576040805162461bcd60e51b815260206004820152601f60248201527f5361666545524332303a2063616c6c20746f206e6f6e2d636f6e747261637400604482015290519081900360640190fd5b600080836001600160a01b0316836040518082805190602001908083835b6020831061420a5780518252601f1990920191602091820191016141eb565b6001836020036101000a0380198251168184511680821785525050505050509050019150506000604051808303816000865af19150503d806000811461426c576040519150601f19603f3d011682016040523d82523d6000602084013e614271565b606091505b5091509150816142c8576040805162461bcd60e51b815260206004820181905260248201527f5361666545524332303a206c6f772d6c6576656c2063616c6c206661696c6564604482015290519081900360640190fd5b80511561202c578080602001905160208110156142e457600080fd5b505161202c5760405162461bcd60e51b815260040180806020018281038252602a8152602001806146eb602a913960400191505060405180910390fd5b600061433a60d85460d754612e4490919063ffffffff16565b905090565b60008161434e5750600061190d565b60da546040805163ab453a5960e01b815290516000926001600160a01b03169163ab453a59916004808301926020929190829003018186803b15801561439357600080fd5b505afa1580156143a7573d6000803e3d6000fd5b505050506040513d60208110156143bd57600080fd5b5051604080516370a0823160e01b815230600482015290519192506000916001600160a01b038416916370a08231916024808301926020929190829003018186803b15801561440b57600080fd5b505afa15801561441f573d6000803e3d6000fd5b505050506040513d602081101561443557600080fd5b5051905080841115614481576040805182815290517f09fb3e34da56fdc0b28f9769c6dcb55321715bc673f744205e208b82c97963c99181900360200190a161447c614582565b614495565b6144956001600160a01b03831686866138af565b50919392505050565b600054610100900460ff166144e45760405162461bcd60e51b815260040180806020018281038252602b8152602001806146c0602b913960400191505060405180910390fd5b611b986144ef6132a4565b613337565b600054610100900460ff1661453a5760405162461bcd60e51b815260040180806020018281038252602b8152602001806146c0602b913960400191505060405180910390fd5b6065805460ff19169055565b6000813f7fc5d2460186f7233c927e7db2dcc703c0e500b653ca82273b7bfad8045d85a47081811480159061457a57508115155b949350505050565b61458a6145dd565b6065805460ff191660011790557f62e78cea01bee320cd4e420270b5ea74000d11b0c9f74754ebdbfc544b05a2586145c06132a4565b604080516001600160a01b039092168252519081900360200190a1565b6145e5611a56565b15611b98576040805162461bcd60e51b815260206004820152601060248201526f14185d5cd8589b194e881c185d5cd95960821b604482015290519081900360640190fdfe4f776e61626c653a206e6577206f776e657220697320746865207a65726f2061646472657373536166654d6174683a206d756c7469706c69636174696f6e206f766572666c6f774f776e61626c653a2063616c6c6572206973206e6f7420746865206f776e6572436f6e747261637420696e7374616e63652068617320616c7265616479206265656e20696e697469616c697a6564496e697469616c697a61626c653a20636f6e7472616374206973206e6f7420696e697469616c697a696e675361666545524332303a204552433230206f7065726174696f6e20646964206e6f7420737563636565645361666545524332303a20617070726f76652066726f6d206e6f6e2d7a65726f20746f206e6f6e2d7a65726f20616c6c6f77616e6365a2646970667358221220d5bfa7b170047b41c7deb428fb44f6c6e1a45fe34ba8c5a30d18eecd65a2189364736f6c63430007060033",
  "devdoc": {
    "kind": "dev",
    "methods": {
      "afterLockUpdate(address)": {
        "details": "Called by the locking contracts after locking or unlocking happens"
      },
      "beforeLockUpdate(address)": {
        "details": "Called by the locking contracts before locking or unlocking happens"
      },
      "claimToBase(address,address[])": {
        "details": "Rewards are not transferred, just converted into base claimable."
      },
      "handleActionAfter(address,uint256,uint256)": {
        "details": "important! eligible status can be updated here"
      },
      "paused()": {
        "details": "Returns true if the contract is paused, and false otherwise."
      },
      "setRewardsPerSecond(uint256,bool)": {
        "details": "Its decimals count is ACC_REWARD_PRECISION",
        "params": {
          "_rewardsPerSecond": "The amount of reward to be distributed per second."
        }
      }
    },
    "version": 1
  },
  "userdoc": {
    "kind": "user",
    "methods": {
      "afterLockUpdate(address)": {
        "notice": "Hook for lock update."
      },
      "beforeLockUpdate(address)": {
        "notice": "Hook for lock update."
      },
      "claimToBase(address,address[])": {
        "notice": "Claim pending rewards for one or more pools into base claimable."
      },
      "handleActionAfter(address,uint256,uint256)": {
        "notice": "`after` Hook for deposit and borrow update."
      },
      "handleActionBefore(address)": {
        "notice": "`before` Hook for deposit and borrow update."
      },
      "setRewardsPerSecond(uint256,bool)": {
        "notice": "Sets the reward per second to be distributed. Can only be called by the owner."
      }
    },
    "version": 1
  },
  "storageLayout": {
    "storage": [
      {
        "astId": 6361,
        "contract": "contracts/staking/ChefIncentivesController.sol:ChefIncentivesController",
        "label": "initialized",
        "offset": 0,
        "slot": "0",
        "type": "t_bool"
      },
      {
        "astId": 6364,
        "contract": "contracts/staking/ChefIncentivesController.sol:ChefIncentivesController",
        "label": "initializing",
        "offset": 1,
        "slot": "0",
        "type": "t_bool"
      },
      {
        "astId": 6431,
        "contract": "contracts/staking/ChefIncentivesController.sol:ChefIncentivesController",
        "label": "______gap",
        "offset": 0,
        "slot": "1",
        "type": "t_array(t_uint256)50_storage"
      },
      {
        "astId": 6354,
        "contract": "contracts/staking/ChefIncentivesController.sol:ChefIncentivesController",
        "label": "__gap",
        "offset": 0,
        "slot": "51",
        "type": "t_array(t_uint256)50_storage"
      },
      {
        "astId": 6703,
        "contract": "contracts/staking/ChefIncentivesController.sol:ChefIncentivesController",
        "label": "_paused",
        "offset": 0,
        "slot": "101",
        "type": "t_bool"
      },
      {
        "astId": 6808,
        "contract": "contracts/staking/ChefIncentivesController.sol:ChefIncentivesController",
        "label": "__gap",
        "offset": 0,
        "slot": "102",
        "type": "t_array(t_uint256)49_storage"
      },
      {
        "astId": 6576,
        "contract": "contracts/staking/ChefIncentivesController.sol:ChefIncentivesController",
        "label": "_owner",
        "offset": 0,
        "slot": "151",
        "type": "t_address"
      },
      {
        "astId": 6681,
        "contract": "contracts/staking/ChefIncentivesController.sol:ChefIncentivesController",
        "label": "__gap",
        "offset": 0,
        "slot": "152",
        "type": "t_array(t_uint256)49_storage"
      },
      {
        "astId": 37608,
        "contract": "contracts/staking/ChefIncentivesController.sol:ChefIncentivesController",
        "label": "emissionSchedule",
        "offset": 0,
        "slot": "201",
        "type": "t_array(t_struct(EmissionPoint)37564_storage)dyn_storage"
      },
      {
        "astId": 37610,
        "contract": "contracts/staking/ChefIncentivesController.sol:ChefIncentivesController",
        "label": "persistRewardsPerSecond",
        "offset": 0,
        "slot": "202",
        "type": "t_bool"
      },
      {
        "astId": 37613,
        "contract": "contracts/staking/ChefIncentivesController.sol:ChefIncentivesController",
        "label": "registeredTokens",
        "offset": 0,
        "slot": "203",
        "type": "t_array(t_address)dyn_storage"
      },
      {
        "astId": 37615,
        "contract": "contracts/staking/ChefIncentivesController.sol:ChefIncentivesController",
        "label": "rewardsPerSecond",
        "offset": 0,
        "slot": "204",
        "type": "t_uint256"
      },
      {
        "astId": 37617,
        "contract": "contracts/staking/ChefIncentivesController.sol:ChefIncentivesController",
        "label": "lastRPS",
        "offset": 0,
        "slot": "205",
        "type": "t_uint256"
      },
      {
        "astId": 37619,
        "contract": "contracts/staking/ChefIncentivesController.sol:ChefIncentivesController",
        "label": "emissionScheduleIndex",
        "offset": 0,
        "slot": "206",
        "type": "t_uint256"
      },
      {
        "astId": 37623,
        "contract": "contracts/staking/ChefIncentivesController.sol:ChefIncentivesController",
        "label": "poolInfo",
        "offset": 0,
        "slot": "207",
        "type": "t_mapping(t_address,t_struct(PoolInfo)37559_storage)"
      },
      {
        "astId": 37627,
        "contract": "contracts/staking/ChefIncentivesController.sol:ChefIncentivesController",
        "label": "validRTokens",
        "offset": 0,
        "slot": "208",
        "type": "t_mapping(t_address,t_bool)"
      },
      {
        "astId": 37629,
        "contract": "contracts/staking/ChefIncentivesController.sol:ChefIncentivesController",
        "label": "totalAllocPoint",
        "offset": 0,
        "slot": "209",
        "type": "t_uint256"
      },
      {
        "astId": 37635,
        "contract": "contracts/staking/ChefIncentivesController.sol:ChefIncentivesController",
        "label": "userInfo",
        "offset": 0,
        "slot": "210",
        "type": "t_mapping(t_address,t_mapping(t_address,t_struct(UserInfo)37548_storage))"
      },
      {
        "astId": 37639,
        "contract": "contracts/staking/ChefIncentivesController.sol:ChefIncentivesController",
        "label": "userBaseClaimable",
        "offset": 0,
        "slot": "211",
        "type": "t_mapping(t_address,t_uint256)"
      },
      {
        "astId": 37643,
        "contract": "contracts/staking/ChefIncentivesController.sol:ChefIncentivesController",
        "label": "eligibilityExempt",
        "offset": 0,
        "slot": "212",
        "type": "t_mapping(t_address,t_bool)"
      },
      {
        "astId": 37645,
        "contract": "contracts/staking/ChefIncentivesController.sol:ChefIncentivesController",
        "label": "startTime",
        "offset": 0,
        "slot": "213",
        "type": "t_uint256"
      },
      {
        "astId": 37647,
        "contract": "contracts/staking/ChefIncentivesController.sol:ChefIncentivesController",
        "label": "ELIGIBILITY_ENABLED",
        "offset": 0,
        "slot": "214",
        "type": "t_bool"
      },
      {
        "astId": 37649,
        "contract": "contracts/staking/ChefIncentivesController.sol:ChefIncentivesController",
        "label": "poolConfigurator",
        "offset": 1,
        "slot": "214",
        "type": "t_address"
      },
      {
        "astId": 37651,
        "contract": "contracts/staking/ChefIncentivesController.sol:ChefIncentivesController",
        "label": "depositedRewards",
        "offset": 0,
        "slot": "215",
        "type": "t_uint256"
      },
      {
        "astId": 37653,
        "contract": "contracts/staking/ChefIncentivesController.sol:ChefIncentivesController",
        "label": "accountedRewards",
        "offset": 0,
        "slot": "216",
        "type": "t_uint256"
      },
      {
        "astId": 37655,
        "contract": "contracts/staking/ChefIncentivesController.sol:ChefIncentivesController",
        "label": "lastAllPoolUpdate",
        "offset": 0,
        "slot": "217",
        "type": "t_uint256"
      },
      {
        "astId": 37657,
        "contract": "contracts/staking/ChefIncentivesController.sol:ChefIncentivesController",
        "label": "rewardMinter",
        "offset": 0,
        "slot": "218",
        "type": "t_contract(IMiddleFeeDistribution)12596"
      },
      {
        "astId": 37659,
        "contract": "contracts/staking/ChefIncentivesController.sol:ChefIncentivesController",
        "label": "eligibleDataProvider",
        "offset": 0,
        "slot": "219",
        "type": "t_contract(IEligibilityDataProvider)11190"
      },
      {
        "astId": 37661,
        "contract": "contracts/staking/ChefIncentivesController.sol:ChefIncentivesController",
        "label": "bountyManager",
        "offset": 0,
        "slot": "220",
        "type": "t_address"
      }
    ],
    "types": {
      "t_address": {
        "encoding": "inplace",
        "label": "address",
        "numberOfBytes": "20"
      },
      "t_array(t_address)dyn_storage": {
        "base": "t_address",
        "encoding": "dynamic_array",
        "label": "address[]",
        "numberOfBytes": "32"
      },
      "t_array(t_struct(EmissionPoint)37564_storage)dyn_storage": {
        "base": "t_struct(EmissionPoint)37564_storage",
        "encoding": "dynamic_array",
        "label": "struct ChefIncentivesController.EmissionPoint[]",
        "numberOfBytes": "32"
      },
      "t_array(t_uint256)49_storage": {
        "base": "t_uint256",
        "encoding": "inplace",
        "label": "uint256[49]",
        "numberOfBytes": "1568"
      },
      "t_array(t_uint256)50_storage": {
        "base": "t_uint256",
        "encoding": "inplace",
        "label": "uint256[50]",
        "numberOfBytes": "1600"
      },
      "t_bool": {
        "encoding": "inplace",
        "label": "bool",
        "numberOfBytes": "1"
      },
      "t_contract(IEligibilityDataProvider)11190": {
        "encoding": "inplace",
        "label": "contract IEligibilityDataProvider",
        "numberOfBytes": "20"
      },
      "t_contract(IMiddleFeeDistribution)12596": {
        "encoding": "inplace",
        "label": "contract IMiddleFeeDistribution",
        "numberOfBytes": "20"
      },
      "t_contract(IOnwardIncentivesController)12791": {
        "encoding": "inplace",
        "label": "contract IOnwardIncentivesController",
        "numberOfBytes": "20"
      },
      "t_mapping(t_address,t_bool)": {
        "encoding": "mapping",
        "key": "t_address",
        "label": "mapping(address => bool)",
        "numberOfBytes": "32",
        "value": "t_bool"
      },
      "t_mapping(t_address,t_mapping(t_address,t_struct(UserInfo)37548_storage))": {
        "encoding": "mapping",
        "key": "t_address",
        "label": "mapping(address => mapping(address => struct ChefIncentivesController.UserInfo))",
        "numberOfBytes": "32",
        "value": "t_mapping(t_address,t_struct(UserInfo)37548_storage)"
      },
      "t_mapping(t_address,t_struct(PoolInfo)37559_storage)": {
        "encoding": "mapping",
        "key": "t_address",
        "label": "mapping(address => struct ChefIncentivesController.PoolInfo)",
        "numberOfBytes": "32",
        "value": "t_struct(PoolInfo)37559_storage"
      },
      "t_mapping(t_address,t_struct(UserInfo)37548_storage)": {
        "encoding": "mapping",
        "key": "t_address",
        "label": "mapping(address => struct ChefIncentivesController.UserInfo)",
        "numberOfBytes": "32",
        "value": "t_struct(UserInfo)37548_storage"
      },
      "t_mapping(t_address,t_uint256)": {
        "encoding": "mapping",
        "key": "t_address",
        "label": "mapping(address => uint256)",
        "numberOfBytes": "32",
        "value": "t_uint256"
      },
      "t_struct(EmissionPoint)37564_storage": {
        "encoding": "inplace",
        "label": "struct ChefIncentivesController.EmissionPoint",
        "members": [
          {
            "astId": 37561,
            "contract": "contracts/staking/ChefIncentivesController.sol:ChefIncentivesController",
            "label": "startTimeOffset",
            "offset": 0,
            "slot": "0",
            "type": "t_uint128"
          },
          {
            "astId": 37563,
            "contract": "contracts/staking/ChefIncentivesController.sol:ChefIncentivesController",
            "label": "rewardsPerSecond",
            "offset": 16,
            "slot": "0",
            "type": "t_uint128"
          }
        ],
        "numberOfBytes": "32"
      },
      "t_struct(PoolInfo)37559_storage": {
        "encoding": "inplace",
        "label": "struct ChefIncentivesController.PoolInfo",
        "members": [
          {
            "astId": 37550,
            "contract": "contracts/staking/ChefIncentivesController.sol:ChefIncentivesController",
            "label": "totalSupply",
            "offset": 0,
            "slot": "0",
            "type": "t_uint256"
          },
          {
            "astId": 37552,
            "contract": "contracts/staking/ChefIncentivesController.sol:ChefIncentivesController",
            "label": "allocPoint",
            "offset": 0,
            "slot": "1",
            "type": "t_uint256"
          },
          {
            "astId": 37554,
            "contract": "contracts/staking/ChefIncentivesController.sol:ChefIncentivesController",
            "label": "lastRewardTime",
            "offset": 0,
            "slot": "2",
            "type": "t_uint256"
          },
          {
            "astId": 37556,
            "contract": "contracts/staking/ChefIncentivesController.sol:ChefIncentivesController",
            "label": "accRewardPerShare",
            "offset": 0,
            "slot": "3",
            "type": "t_uint256"
          },
          {
            "astId": 37558,
            "contract": "contracts/staking/ChefIncentivesController.sol:ChefIncentivesController",
            "label": "onwardIncentives",
            "offset": 0,
            "slot": "4",
            "type": "t_contract(IOnwardIncentivesController)12791"
          }
        ],
        "numberOfBytes": "160"
      },
      "t_struct(UserInfo)37548_storage": {
        "encoding": "inplace",
        "label": "struct ChefIncentivesController.UserInfo",
        "members": [
          {
            "astId": 37541,
            "contract": "contracts/staking/ChefIncentivesController.sol:ChefIncentivesController",
            "label": "amount",
            "offset": 0,
            "slot": "0",
            "type": "t_uint256"
          },
          {
            "astId": 37543,
            "contract": "contracts/staking/ChefIncentivesController.sol:ChefIncentivesController",
            "label": "rewardDebt",
            "offset": 0,
            "slot": "1",
            "type": "t_uint256"
          },
          {
            "astId": 37545,
            "contract": "contracts/staking/ChefIncentivesController.sol:ChefIncentivesController",
            "label": "enterTime",
            "offset": 0,
            "slot": "2",
            "type": "t_uint256"
          },
          {
            "astId": 37547,
            "contract": "contracts/staking/ChefIncentivesController.sol:ChefIncentivesController",
            "label": "lastClaimTime",
            "offset": 0,
            "slot": "3",
            "type": "t_uint256"
          }
        ],
        "numberOfBytes": "128"
      },
      "t_uint128": {
        "encoding": "inplace",
        "label": "uint128",
        "numberOfBytes": "16"
      },
      "t_uint256": {
        "encoding": "inplace",
        "label": "uint256",
        "numberOfBytes": "32"
      }
    }
  }
}