{
  "address": "0x9927c9b2F8dBD0ee6EBf2bAD97b5aaf132Ea6A86",
  "abi": [
    {
      "inputs": [
        {
          "internalType": "contract ILendingPool",
          "name": "_lendingPool",
          "type": "address"
        },
        {
          "internalType": "contract IMiddleFeeDistribution",
          "name": "_middleFeeDistribution",
          "type": "address"
        },
        {
          "internalType": "contract IPriceProvider",
          "name": "_priceProvider",
          "type": "address"
        }
      ],
      "stateMutability": "nonpayable",
      "type": "constructor"
    },
    {
      "anonymous": false,
      "inputs": [
        {
          "indexed": true,
          "internalType": "address",
          "name": "token",
          "type": "address"
        }
      ],
      "name": "AddToken",
      "type": "event"
    },
    {
      "anonymous": false,
      "inputs": [
        {
          "indexed": false,
          "internalType": "contract IChefIncentivesController",
          "name": "_chef",
          "type": "address"
        }
      ],
      "name": "ChefIncentivesControllerUpdated",
      "type": "event"
    },
    {
      "anonymous": false,
      "inputs": [
        {
          "indexed": false,
          "internalType": "address",
          "name": "_user",
          "type": "address"
        },
        {
          "indexed": false,
          "internalType": "uint256",
          "name": "_time",
          "type": "uint256"
        }
      ],
      "name": "DqTimeUpdated",
      "type": "event"
    },
    {
      "anonymous": false,
      "inputs": [
        {
          "indexed": false,
          "internalType": "address",
          "name": "_lpToken",
          "type": "address"
        }
      ],
      "name": "LPTokenUpdated",
      "type": "event"
    },
    {
      "anonymous": false,
      "inputs": [
        {
          "indexed": true,
          "internalType": "address",
          "name": "previousOwner",
          "type": "address"
        },
        {
          "indexed": true,
          "internalType": "address",
          "name": "newOwner",
          "type": "address"
        }
      ],
      "name": "OwnershipTransferred",
      "type": "event"
    },
    {
      "anonymous": false,
      "inputs": [
        {
          "indexed": false,
          "internalType": "uint256",
          "name": "requiredDepositRatio",
          "type": "uint256"
        }
      ],
      "name": "RequiredDepositRatioUpdated",
      "type": "event"
    },
    {
      "inputs": [],
      "name": "RATIO_DIVISOR",
      "outputs": [
        {
          "internalType": "uint256",
          "name": "",
          "type": "uint256"
        }
      ],
      "stateMutability": "view",
      "type": "function"
    },
    {
      "inputs": [],
      "name": "chef",
      "outputs": [
        {
          "internalType": "contract IChefIncentivesController",
          "name": "",
          "type": "address"
        }
      ],
      "stateMutability": "view",
      "type": "function"
    },
    {
      "inputs": [
        {
          "internalType": "address",
          "name": "",
          "type": "address"
        }
      ],
      "name": "disqualifiedTime",
      "outputs": [
        {
          "internalType": "uint256",
          "name": "",
          "type": "uint256"
        }
      ],
      "stateMutability": "view",
      "type": "function"
    },
    {
      "inputs": [
        {
          "internalType": "address",
          "name": "_user",
          "type": "address"
        }
      ],
      "name": "getDqTime",
      "outputs": [
        {
          "internalType": "uint256",
          "name": "",
          "type": "uint256"
        }
      ],
      "stateMutability": "view",
      "type": "function"
    },
    {
      "inputs": [
        {
          "internalType": "address",
          "name": "_user",
          "type": "address"
        }
      ],
      "name": "isEligibleForRewards",
      "outputs": [
        {
          "internalType": "bool",
          "name": "isEligible",
          "type": "bool"
        }
      ],
      "stateMutability": "view",
      "type": "function"
    },
    {
      "inputs": [
        {
          "internalType": "address",
          "name": "_user",
          "type": "address"
        }
      ],
      "name": "isMarketDisqualified",
      "outputs": [
        {
          "internalType": "bool",
          "name": "",
          "type": "bool"
        }
      ],
      "stateMutability": "view",
      "type": "function"
    },
    {
      "inputs": [
        {
          "internalType": "address",
          "name": "",
          "type": "address"
        }
      ],
      "name": "lastEligibleStatus",
      "outputs": [
        {
          "internalType": "bool",
          "name": "",
          "type": "bool"
        }
      ],
      "stateMutability": "view",
      "type": "function"
    },
    {
      "inputs": [
        {
          "internalType": "address",
          "name": "user",
          "type": "address"
        }
      ],
      "name": "lastEligibleTime",
      "outputs": [
        {
          "internalType": "uint256",
          "name": "lastEligibleTimestamp",
          "type": "uint256"
        }
      ],
      "stateMutability": "view",
      "type": "function"
    },
    {
      "inputs": [],
      "name": "lendingPool",
      "outputs": [
        {
          "internalType": "contract ILendingPool",
          "name": "",
          "type": "address"
        }
      ],
      "stateMutability": "view",
      "type": "function"
    },
    {
      "inputs": [
        {
          "internalType": "address",
          "name": "user",
          "type": "address"
        }
      ],
      "name": "lockedUsdValue",
      "outputs": [
        {
          "internalType": "uint256",
          "name": "",
          "type": "uint256"
        }
      ],
      "stateMutability": "view",
      "type": "function"
    },
    {
      "inputs": [],
      "name": "lpToken",
      "outputs": [
        {
          "internalType": "address",
          "name": "",
          "type": "address"
        }
      ],
      "stateMutability": "view",
      "type": "function"
    },
    {
      "inputs": [],
      "name": "middleFeeDistribution",
      "outputs": [
        {
          "internalType": "contract IMiddleFeeDistribution",
          "name": "",
          "type": "address"
        }
      ],
      "stateMutability": "view",
      "type": "function"
    },
    {
      "inputs": [],
      "name": "owner",
      "outputs": [
        {
          "internalType": "address",
          "name": "",
          "type": "address"
        }
      ],
      "stateMutability": "view",
      "type": "function"
    },
    {
      "inputs": [],
      "name": "priceProvider",
      "outputs": [
        {
          "internalType": "contract IPriceProvider",
          "name": "",
          "type": "address"
        }
      ],
      "stateMutability": "view",
      "type": "function"
    },
    {
      "inputs": [
        {
          "internalType": "address",
          "name": "user",
          "type": "address"
        }
      ],
      "name": "refresh",
      "outputs": [],
      "stateMutability": "nonpayable",
      "type": "function"
    },
    {
      "inputs": [],
      "name": "renounceOwnership",
      "outputs": [],
      "stateMutability": "nonpayable",
      "type": "function"
    },
    {
      "inputs": [],
      "name": "requiredDepositRatio",
      "outputs": [
        {
          "internalType": "uint256",
          "name": "",
          "type": "uint256"
        }
      ],
      "stateMutability": "view",
      "type": "function"
    },
    {
      "inputs": [
        {
          "internalType": "address",
          "name": "user",
          "type": "address"
        }
      ],
      "name": "requiredUsdValue",
      "outputs": [
        {
          "internalType": "uint256",
          "name": "required",
          "type": "uint256"
        }
      ],
      "stateMutability": "view",
      "type": "function"
    },
    {
      "inputs": [
        {
          "internalType": "contract IChefIncentivesController",
          "name": "_chef",
          "type": "address"
        }
      ],
      "name": "setChefIncentivesController",
      "outputs": [],
      "stateMutability": "nonpayable",
      "type": "function"
    },
    {
      "inputs": [
        {
          "internalType": "address",
          "name": "_user",
          "type": "address"
        },
        {
          "internalType": "uint256",
          "name": "_time",
          "type": "uint256"
        }
      ],
      "name": "setDqTime",
      "outputs": [],
      "stateMutability": "nonpayable",
      "type": "function"
    },
    {
      "inputs": [
        {
          "internalType": "address",
          "name": "_lpToken",
          "type": "address"
        }
      ],
      "name": "setLPToken",
      "outputs": [],
      "stateMutability": "nonpayable",
      "type": "function"
    },
    {
      "inputs": [
        {
          "internalType": "uint256",
          "name": "_requiredDepositRatio",
          "type": "uint256"
        }
      ],
      "name": "setRequiredDepositRatio",
      "outputs": [],
      "stateMutability": "nonpayable",
      "type": "function"
    },
    {
      "inputs": [
        {
          "internalType": "address",
          "name": "newOwner",
          "type": "address"
        }
      ],
      "name": "transferOwnership",
      "outputs": [],
      "stateMutability": "nonpayable",
      "type": "function"
    },
    {
      "inputs": [],
      "name": "updatePrice",
      "outputs": [],
      "stateMutability": "nonpayable",
      "type": "function"
    },
    {
      "inputs": [
        {
          "internalType": "address",
          "name": "",
          "type": "address"
        },
        {
          "internalType": "address",
          "name": "",
          "type": "address"
        }
      ],
      "name": "userDeposits",
      "outputs": [
        {
          "internalType": "uint256",
          "name": "",
          "type": "uint256"
        }
      ],
      "stateMutability": "view",
      "type": "function"
    }
  ],
  "transactionHash": "0xca1e193f0b2c2bd27a563814e32e3163c3ec3d5db7ad539edf7549f4f712a367",
  "args": [
    "0x00175A6E2c1d498F04B471C85194C1bed6b3950d",
    "0x3416Df75dE762901acB29Ecea32d6Fc845Fe26D8",
    "0xA63e4C860bEB53989aFc0CF0dC78351E6fDC63F1"
  ],
  "numDeployments": 1,
  "solcInputHash": "78995fe69be866012cdea8ea4c4842de",
  "bytecode": "0x60806040523480156200001157600080fd5b50604051620019093803806200190983398101604081905262000034916200015b565b60006200004062000157565b600080546001600160a01b0319166001600160a01b0383169081178255604051929350917f8be0079c531659141344cd1fd0a4f28419497f9722a3daafe3b4186f6b6457e0908290a3506001600160a01b038316620000bc5760405162461bcd60e51b8152600401620000b390620001ae565b60405180910390fd5b6001600160a01b038216620000e55760405162461bcd60e51b8152600401620000b390620001ae565b6001600160a01b0381166200010e5760405162461bcd60e51b8152600401620000b390620001ae565b600180546001600160a01b039485166001600160a01b0319918216179091556003805493851693821693909317909255600480549190931691161790556101f4600555620001fe565b3390565b60008060006060848603121562000170578283fd5b83516200017d81620001e5565b60208501519093506200019081620001e5565b6040850151909250620001a381620001e5565b809150509250925092565b60208082526013908201527f4e6f7420612076616c6964206164647265737300000000000000000000000000604082015260600190565b6001600160a01b0381168114620001fb57600080fd5b50565b6116fb806200020e6000396000f3fe608060405234801561001057600080fd5b50600436106101335760003560e01c80630afb0409146101385780631fc8bc5d1461014d57806321cc01c91461016b578063436d803914610173578063563014e5146101935780635de20b42146101a65780635fcbd285146101c6578063660186e6146101ce578063673a7e28146101e1578063696c9a7f146101e95780636a678a9c146101fc5780636a7e9f331461020f5780636d9077cb146102175780636f21a1791461022a578063715018a61461023d5780638da5cb5b14610245578063a0cfb9ff1461024d578063a59a997314610260578063b888879e14610268578063d52874da14610270578063dbbbbc6314610278578063e2c75ca01461028b578063e38fdc361461029e578063f2fde38b146102b1578063f4640c93146102c4575b600080fd5b61014b61014636600461136f565b6102d7565b005b61015561039d565b6040516101629190611518565b60405180910390f35b6101556103ac565b6101866101813660046113a7565b6103bb565b60405161016291906115fa565b6101866101a136600461136f565b6103d8565b6101b96101b436600461136f565b610763565b6040516101629190611545565b610155610778565b6101b96101dc36600461136f565b610787565b61014b6107b9565b6101b96101f736600461136f565b610816565b61014b61020a36600461136f565b61084e565b610186610925565b61018661022536600461136f565b61092b565b61018661023836600461136f565b610b64565b61014b610b7f565b610155610c0f565b61018661025b36600461136f565b610c1e565b610155610c30565b610155610c3f565b610186610c4e565b61014b61028636600461136f565b610c54565b61014b6102993660046113df565b610cf7565b6101866102ac36600461136f565b610d7a565b61014b6102bf36600461136f565b610e2e565b61014b6102d236600461143c565b610f14565b6002546001600160a01b0316331461030a5760405162461bcd60e51b8152600401610301906115c7565b60405180910390fd5b6001600160a01b03811661031a57fe5b6103226107b9565b600061032d82610787565b905080801561035357506001600160a01b03821660009081526008602052604090205415155b15610372576001600160a01b0382166000908152600860205260408120555b6001600160a01b03919091166000908152600760205260409020805460ff1916911515919091179055565b6002546001600160a01b031681565b6003546001600160a01b031681565b600a60209081526000928352604080842090915290825290205481565b6000806103e483610d7a565b90506000600360009054906101000a90046001600160a01b03166001600160a01b03166328f407486040518163ffffffff1660e01b815260040160206040518083038186803b15801561043657600080fd5b505afa15801561044a573d6000803e3d6000fd5b505050506040513d601f19601f8201168201806040525081019061046e919061138b565b90506000600360009054906101000a90046001600160a01b03166001600160a01b031663cd57ed6c6040518163ffffffff1660e01b815260040160206040518083038186803b1580156104c057600080fd5b505afa1580156104d4573d6000803e3d6000fd5b505050506040513d601f19601f820116820180604052508101906104f8919061138b565b90506000826001600160a01b0316636bd3b87c876040518263ffffffff1660e01b81526004016105289190611518565b60006040518083038186803b15801561054057600080fd5b505afa158015610554573d6000803e3d6000fd5b505050506040513d6000823e601f3d908101601f1916820160405261057c919081019061140a565b90506000826001600160a01b0316636bd3b87c886040518263ffffffff1660e01b81526004016105ac9190611518565b60006040518083038186803b1580156105c457600080fd5b505afa1580156105d8573d6000803e3d6000fd5b505050506040513d6000823e601f3d908101601f19168201604052610600919081019061140a565b825181519192506000918291905b8115801561061a575080155b1561062457610755565b8161066a5760018103905084818151811061063b57fe5b602002602001015160200151995084818151811061065557fe5b6020026020010151600001518301925061073b565b806106b05760018203915085828151811061068157fe5b602002602001015160200151995085828151811061069b57fe5b6020026020010151600001518401935061073b565b8460018203815181106106bf57fe5b6020026020010151602001518660018403815181106106da57fe5b60200260200101516020015110156106fe5760018103905084818151811061063b57fe5b60018203915085828151811061071057fe5b602002602001015160200151995085828151811061072a57fe5b602002602001015160000151840193505b886107468585610fc3565b1061075057610755565b61060e565b505050505050505050919050565b60076020526000908152604090205460ff1681565b6006546001600160a01b031681565b6000806107938361092b565b905060006107a084610d7a565b905080158015906107b15750808210155b949350505050565b600480546040805163a2e6204560e01b815290516001600160a01b039092169263a2e6204592828201926000929082900301818387803b1580156107fc57600080fd5b505af1158015610810573d6000803e3d6000fd5b50505050565b60008061082283610d7a565b118015610835575061083382610787565b155b8015610848575042610846836103d8565b115b92915050565b610856611117565b6000546001600160a01b039081169116146108a6576040805162461bcd60e51b81526020600482018190526024820152600080516020611686833981519152604482015290519081900360640190fd5b6006546001600160a01b0316156108cf5760405162461bcd60e51b815260040161030190611550565b600680546001600160a01b0319166001600160a01b0383161790556040517ff9d1c90c609623055381582a51735b38df3243eb09629a9170b15c2ab6bc07399061091a908390611518565b60405180910390a150565b61271081565b600080600360009054906101000a90046001600160a01b03166001600160a01b03166328f407486040518163ffffffff1660e01b815260040160206040518083038186803b15801561097c57600080fd5b505afa158015610990573d6000803e3d6000fd5b505050506040513d601f19601f820116820180604052508101906109b4919061138b565b90506000600360009054906101000a90046001600160a01b03166001600160a01b031663cd57ed6c6040518163ffffffff1660e01b815260040160206040518083038186803b158015610a0657600080fd5b505afa158015610a1a573d6000803e3d6000fd5b505050506040513d601f19601f82011682018060405250810190610a3e919061138b565b90506000826001600160a01b0316630483a7f6866040518263ffffffff1660e01b8152600401610a6e9190611518565b60006040518083038186803b158015610a8657600080fd5b505afa158015610a9a573d6000803e3d6000fd5b505050506040513d6000823e601f3d908101601f19168201604052610ac2919081019061146c565b5050925050506000826001600160a01b0316630483a7f6876040518263ffffffff1660e01b8152600401610af69190611518565b60006040518083038186803b158015610b0e57600080fd5b505afa158015610b22573d6000803e3d6000fd5b505050506040513d6000823e601f3d908101601f19168201604052610b4a919081019061146c565b505092505050610b5a8282610fc3565b9695505050505050565b6001600160a01b031660009081526008602052604090205490565b610b87611117565b6000546001600160a01b03908116911614610bd7576040805162461bcd60e51b81526020600482018190526024820152600080516020611686833981519152604482015290519081900360640190fd5b600080546040516001600160a01b03909116906000805160206116a6833981519152908390a3600080546001600160a01b0319169055565b6000546001600160a01b031690565b60086020526000908152604090205481565b6001546001600160a01b031681565b6004546001600160a01b031681565b60055481565b610c5c611117565b6000546001600160a01b03908116911614610cac576040805162461bcd60e51b81526020600482018190526024820152600080516020611686833981519152604482015290519081900360640190fd5b600280546001600160a01b0319166001600160a01b0383161790556040517f3edc4c109bdc9b34f00f24744f770e8de831fd903d0fc75d4d990d5d81b75b989061091a908390611518565b6002546001600160a01b03163314610d215760405162461bcd60e51b81526004016103019061157e565b6001600160a01b03821660009081526008602052604090819020829055517f1e85ba2a5b06819d522e519e6ebf963f35ad4a709dc2a541ed39ad80f4b3a3be90610d6e908490849061152c565b60405180910390a15050565b600154604051632fe4a15f60e21b815260009182916001600160a01b039091169063bf92857c90610daf908690600401611518565b60c06040518083038186803b158015610dc757600080fd5b505afa158015610ddb573d6000803e3d6000fd5b505050506040513d601f19601f82011682018060405250810190610dff91906114cf565b50505050509050610e27612710610e216005548461111b90919063ffffffff16565b90611174565b9392505050565b610e36611117565b6000546001600160a01b03908116911614610e86576040805162461bcd60e51b81526020600482018190526024820152600080516020611686833981519152604482015290519081900360640190fd5b6001600160a01b038116610ecb5760405162461bcd60e51b815260040180806020018281038252602681526020018061163f6026913960400191505060405180910390fd5b600080546040516001600160a01b03808516939216916000805160206116a683398151915291a3600080546001600160a01b0319166001600160a01b0392909216919091179055565b610f1c611117565b6000546001600160a01b03908116911614610f6c576040805162461bcd60e51b81526020600482018190526024820152600080516020611686833981519152604482015290519081900360640190fd5b612710811115610f8e5760405162461bcd60e51b8152600401610301906115a0565b60058190556040517f063aaf80a21dd5cad9d8adcdc5a53acaa3c2de05dc44c7e2f68783a87460d7fe9061091a9083906115fa565b6004805460408051631b4bb46160e21b8152905160009384936001600160a01b031692636d2ed1849281830192602092829003018186803b15801561100757600080fd5b505afa15801561101b573d6000803e3d6000fd5b505050506040513d601f19601f8201168201806040525081019061103f9190611454565b90506000600460009054906101000a90046001600160a01b03166001600160a01b0316636e9a05c56040518163ffffffff1660e01b815260040160206040518083038186803b15801561109157600080fd5b505afa1580156110a5573d6000803e3d6000fd5b505050506040513d601f19601f820116820180604052508101906110c99190611454565b905060006110e3670de0b6b3a7640000610e21878661111b565b905060006110fd670de0b6b3a7640000610e21898661111b565b9050600061110b83836111b3565b98975050505050505050565b3390565b60008261112a57506000610848565b8282028284828161113757fe5b0414610e275760405162461bcd60e51b81526004018080602001828103825260218152602001806116656021913960400191505060405180910390fd5b6000610e2783836040518060400160405280601a815260200179536166654d6174683a206469766973696f6e206279207a65726f60301b81525061120b565b600082820183811015610e27576040805162461bcd60e51b815260206004820152601b60248201527a536166654d6174683a206164646974696f6e206f766572666c6f7760281b604482015290519081900360640190fd5b600081836112975760405162461bcd60e51b81526004018080602001828103825283818151815260200191508051906020019080838360005b8381101561125c578181015183820152602001611244565b50505050905090810190601f1680156112895780820380516001836020036101000a031916815260200191505b509250505060405180910390fd5b5060008385816112a357fe5b0495945050505050565b600082601f8301126112bd578081fd5b815160206001600160401b03808311156112d357fe5b6112e08283850201611603565b838152828101908684016080808702890186018a10156112fe578788fd5b875b878110156113605781838c031215611316578889fd5b60408051838101818110898211171561132b57fe5b825284518152888501518982015284820151918101919091526060808501519082015285529386019391810191600101611300565b50919998505050505050505050565b600060208284031215611380578081fd5b8135610e2781611626565b60006020828403121561139c578081fd5b8151610e2781611626565b600080604083850312156113b9578081fd5b82356113c481611626565b915060208301356113d481611626565b809150509250929050565b600080604083850312156113f1578182fd5b82356113fc81611626565b946020939093013593505050565b60006020828403121561141b578081fd5b81516001600160401b03811115611430578182fd5b6107b1848285016112ad565b60006020828403121561144d578081fd5b5035919050565b600060208284031215611465578081fd5b5051919050565b600080600080600060a08688031215611483578081fd5b855160208701516040880151606089015160808a0151939850919650945092506001600160401b038111156114b6578182fd5b6114c2888289016112ad565b9150509295509295909350565b60008060008060008060c087890312156114e7578081fd5b865195506020870151945060408701519350606087015192506080870151915060a087015190509295509295509295565b6001600160a01b0391909116815260200190565b6001600160a01b03929092168252602082015260400190565b901515815260200190565b6020808252601490820152731314081d1bdad95b88185b1c9958591e481cd95d60621b604082015260600190565b6020808252600890820152674f6e6c792043494360c01b604082015260600190565b6020808252600d908201526c496e76616c696420726174696f60981b604082015260600190565b60208082526019908201527843616e206f6e6c792062652063616c6c65642062792043494360381b604082015260600190565b90815260200190565b6040518181016001600160401b038111828210171561161e57fe5b604052919050565b6001600160a01b038116811461163b57600080fd5b5056fe4f776e61626c653a206e6577206f776e657220697320746865207a65726f2061646472657373536166654d6174683a206d756c7469706c69636174696f6e206f766572666c6f774f776e61626c653a2063616c6c6572206973206e6f7420746865206f776e65728be0079c531659141344cd1fd0a4f28419497f9722a3daafe3b4186f6b6457e0a264697066735822122072d637d054ac5c0105911f2a0d501f3ecd2ee63f31849558c3cc99ea15aa279264736f6c63430007060033",
  "devdoc": {
    "author": "Radiant Labs",
    "details": "All function calls are currently implemented without side effects",
    "kind": "dev",
    "methods": {
      "constructor": {
        "params": {
          "_lendingPool": "Address of lending pool.",
          "_middleFeeDistribution": "MiddleFeeDistribution address.",
          "_priceProvider": "PriceProvider address."
        }
      },
      "getDqTime(address)": {
        "params": {
          "_user": "'s address"
        }
      },
      "isEligibleForRewards(address)": {
        "params": {
          "_user": "'s address"
        }
      },
      "isMarketDisqualified(address)": {
        "params": {
          "_user": "'s address"
        }
      },
      "lastEligibleTime(address)": {
        "details": "If user is still eligible, it will return future time  CAUTION: this function only works perfect when the array  is ordered by lock time. This is assured when _stake happens.",
        "params": {
          "user": "'s address"
        }
      },
      "lockedUsdValue(address)": {
        "params": {
          "user": "'s address"
        }
      },
      "owner()": {
        "details": "Returns the address of the current owner."
      },
      "refresh(address)": {
        "params": {
          "user": "'s address"
        }
      },
      "renounceOwnership()": {
        "details": "Leaves the contract without owner. It will not be possible to call `onlyOwner` functions anymore. Can only be called by the current owner. NOTE: Renouncing ownership will leave the contract without an owner, thereby removing any functionality that is only available to the owner."
      },
      "requiredUsdValue(address)": {
        "params": {
          "user": "'s address"
        },
        "returns": {
          "required": "USD value."
        }
      },
      "setChefIncentivesController(address)": {
        "params": {
          "_chef": "address."
        }
      },
      "setDqTime(address,uint256)": {
        "details": "Only callable by CIC",
        "params": {
          "_time": "for DQ",
          "_user": "'s address"
        }
      },
      "setRequiredDepositRatio(uint256)": {
        "params": {
          "_requiredDepositRatio": "Ratio in bips."
        }
      },
      "transferOwnership(address)": {
        "details": "Transfers ownership of the contract to a new account (`newOwner`). Can only be called by the current owner."
      }
    },
    "title": "Eligible Deposit Provider",
    "version": 1
  },
  "userdoc": {
    "events": {
      "AddToken(address)": {
        "notice": "Emitted when a new token is added"
      },
      "ChefIncentivesControllerUpdated(address)": {
        "notice": "Emitted when CIC is set"
      },
      "DqTimeUpdated(address,uint256)": {
        "notice": "Emitted when DQ time is set"
      },
      "LPTokenUpdated(address)": {
        "notice": "Emitted when LP token is set"
      },
      "RequiredDepositRatioUpdated(uint256)": {
        "notice": "Emitted when required TVL ratio is updated"
      }
    },
    "kind": "user",
    "methods": {
      "RATIO_DIVISOR()": {
        "notice": "RATIO BASE equal to 100%"
      },
      "chef()": {
        "notice": "Address of CIC"
      },
      "constructor": {
        "notice": "Constructor"
      },
      "disqualifiedTime(address)": {
        "notice": "Disqualified time of the user"
      },
      "getDqTime(address)": {
        "notice": "Returns DQ time of the user"
      },
      "isEligibleForRewards(address)": {
        "notice": "Returns if the user is eligible to receive rewards"
      },
      "isMarketDisqualified(address)": {
        "notice": "Is user DQed due to lock expire or price update"
      },
      "lastEligibleStatus(address)": {
        "notice": "Last eligible status of the user"
      },
      "lastEligibleTime(address)": {
        "notice": "Returns last eligible time of the user"
      },
      "lendingPool()": {
        "notice": "Address of Lending Pool"
      },
      "lockedUsdValue(address)": {
        "notice": "Returns locked RDNT and LP token value in eth"
      },
      "lpToken()": {
        "notice": "RDNT-ETH LP token"
      },
      "middleFeeDistribution()": {
        "notice": "Address of Middle fee distribution"
      },
      "priceProvider()": {
        "notice": "RDNT + LP price provider"
      },
      "refresh(address)": {
        "notice": "Refresh token amount for eligibility"
      },
      "requiredDepositRatio()": {
        "notice": "Required ratio of TVL to get reward; in bips"
      },
      "requiredUsdValue(address)": {
        "notice": "Returns USD value required to be locked"
      },
      "setChefIncentivesController(address)": {
        "notice": "Set CIC"
      },
      "setDqTime(address,uint256)": {
        "notice": "Sets DQ time of the user"
      },
      "setLPToken(address)": {
        "notice": "Set LP token"
      },
      "setRequiredDepositRatio(uint256)": {
        "notice": "Sets required tvl ratio. Can only be called by the owner."
      },
      "updatePrice()": {
        "notice": "Update token price"
      },
      "userDeposits(address,address)": {
        "notice": "User's deposits per rToken; rToken => user => amount"
      }
    },
    "version": 1
  },
  "storageLayout": {
    "storage": [
      {
        "astId": 5437,
        "contract": "contracts/eligibility/EligibilityDataProvider.sol:EligibilityDataProvider",
        "label": "_owner",
        "offset": 0,
        "slot": "0",
        "type": "t_address"
      },
      {
        "astId": 9742,
        "contract": "contracts/eligibility/EligibilityDataProvider.sol:EligibilityDataProvider",
        "label": "lendingPool",
        "offset": 0,
        "slot": "1",
        "type": "t_contract(ILendingPool)11754"
      },
      {
        "astId": 9745,
        "contract": "contracts/eligibility/EligibilityDataProvider.sol:EligibilityDataProvider",
        "label": "chef",
        "offset": 0,
        "slot": "2",
        "type": "t_contract(IChefIncentivesController)11062"
      },
      {
        "astId": 9748,
        "contract": "contracts/eligibility/EligibilityDataProvider.sol:EligibilityDataProvider",
        "label": "middleFeeDistribution",
        "offset": 0,
        "slot": "3",
        "type": "t_contract(IMiddleFeeDistribution)12596"
      },
      {
        "astId": 9751,
        "contract": "contracts/eligibility/EligibilityDataProvider.sol:EligibilityDataProvider",
        "label": "priceProvider",
        "offset": 0,
        "slot": "4",
        "type": "t_contract(IPriceProvider)12919"
      },
      {
        "astId": 9754,
        "contract": "contracts/eligibility/EligibilityDataProvider.sol:EligibilityDataProvider",
        "label": "requiredDepositRatio",
        "offset": 0,
        "slot": "5",
        "type": "t_uint256"
      },
      {
        "astId": 9757,
        "contract": "contracts/eligibility/EligibilityDataProvider.sol:EligibilityDataProvider",
        "label": "lpToken",
        "offset": 0,
        "slot": "6",
        "type": "t_address"
      },
      {
        "astId": 9762,
        "contract": "contracts/eligibility/EligibilityDataProvider.sol:EligibilityDataProvider",
        "label": "lastEligibleStatus",
        "offset": 0,
        "slot": "7",
        "type": "t_mapping(t_address,t_bool)"
      },
      {
        "astId": 9767,
        "contract": "contracts/eligibility/EligibilityDataProvider.sol:EligibilityDataProvider",
        "label": "disqualifiedTime",
        "offset": 0,
        "slot": "8",
        "type": "t_mapping(t_address,t_uint256)"
      },
      {
        "astId": 9771,
        "contract": "contracts/eligibility/EligibilityDataProvider.sol:EligibilityDataProvider",
        "label": "eligibleDeposits",
        "offset": 0,
        "slot": "9",
        "type": "t_mapping(t_address,t_uint256)"
      },
      {
        "astId": 9778,
        "contract": "contracts/eligibility/EligibilityDataProvider.sol:EligibilityDataProvider",
        "label": "userDeposits",
        "offset": 0,
        "slot": "10",
        "type": "t_mapping(t_address,t_mapping(t_address,t_uint256))"
      }
    ],
    "types": {
      "t_address": {
        "encoding": "inplace",
        "label": "address",
        "numberOfBytes": "20"
      },
      "t_bool": {
        "encoding": "inplace",
        "label": "bool",
        "numberOfBytes": "1"
      },
      "t_contract(IChefIncentivesController)11062": {
        "encoding": "inplace",
        "label": "contract IChefIncentivesController",
        "numberOfBytes": "20"
      },
      "t_contract(ILendingPool)11754": {
        "encoding": "inplace",
        "label": "contract ILendingPool",
        "numberOfBytes": "20"
      },
      "t_contract(IMiddleFeeDistribution)12596": {
        "encoding": "inplace",
        "label": "contract IMiddleFeeDistribution",
        "numberOfBytes": "20"
      },
      "t_contract(IPriceProvider)12919": {
        "encoding": "inplace",
        "label": "contract IPriceProvider",
        "numberOfBytes": "20"
      },
      "t_mapping(t_address,t_bool)": {
        "encoding": "mapping",
        "key": "t_address",
        "label": "mapping(address => bool)",
        "numberOfBytes": "32",
        "value": "t_bool"
      },
      "t_mapping(t_address,t_mapping(t_address,t_uint256))": {
        "encoding": "mapping",
        "key": "t_address",
        "label": "mapping(address => mapping(address => uint256))",
        "numberOfBytes": "32",
        "value": "t_mapping(t_address,t_uint256)"
      },
      "t_mapping(t_address,t_uint256)": {
        "encoding": "mapping",
        "key": "t_address",
        "label": "mapping(address => uint256)",
        "numberOfBytes": "32",
        "value": "t_uint256"
      },
      "t_uint256": {
        "encoding": "inplace",
        "label": "uint256",
        "numberOfBytes": "32"
      }
    }
  }
}