{
  "address": "0x4D35A200468278d6dc9a3f5b7BD3D0e2F145B334",
  "abi": [
    {
      "anonymous": false,
      "inputs": [
        {
          "indexed": true,
          "internalType": "address",
          "name": "collateral",
          "type": "address"
        },
        {
          "indexed": true,
          "internalType": "address",
          "name": "principal",
          "type": "address"
        },
        {
          "indexed": true,
          "internalType": "address",
          "name": "user",
          "type": "address"
        },
        {
          "indexed": false,
          "internalType": "uint256",
          "name": "debtToCover",
          "type": "uint256"
        },
        {
          "indexed": false,
          "internalType": "uint256",
          "name": "liquidatedCollateralAmount",
          "type": "uint256"
        },
        {
          "indexed": false,
          "internalType": "address",
          "name": "liquidator",
          "type": "address"
        },
        {
          "indexed": false,
          "internalType": "bool",
          "name": "receiveAToken",
          "type": "bool"
        },
        {
          "indexed": false,
          "internalType": "address",
          "name": "liquidationFeeTo",
          "type": "address"
        }
      ],
      "name": "LiquidationCall",
      "type": "event"
    },
    {
      "anonymous": false,
      "inputs": [
        {
          "indexed": true,
          "internalType": "address",
          "name": "reserve",
          "type": "address"
        },
        {
          "indexed": true,
          "internalType": "address",
          "name": "user",
          "type": "address"
        }
      ],
      "name": "ReserveUsedAsCollateralDisabled",
      "type": "event"
    },
    {
      "anonymous": false,
      "inputs": [
        {
          "indexed": true,
          "internalType": "address",
          "name": "reserve",
          "type": "address"
        },
        {
          "indexed": true,
          "internalType": "address",
          "name": "user",
          "type": "address"
        }
      ],
      "name": "ReserveUsedAsCollateralEnabled",
      "type": "event"
    },
    {
      "inputs": [
        {
          "internalType": "address",
          "name": "collateralAsset",
          "type": "address"
        },
        {
          "internalType": "address",
          "name": "debtAsset",
          "type": "address"
        },
        {
          "internalType": "address",
          "name": "user",
          "type": "address"
        },
        {
          "internalType": "uint256",
          "name": "debtToCover",
          "type": "uint256"
        },
        {
          "internalType": "bool",
          "name": "receiveAToken",
          "type": "bool"
        },
        {
          "internalType": "address",
          "name": "liquidationFeeTo",
          "type": "address"
        }
      ],
      "name": "liquidationCall",
      "outputs": [
        {
          "internalType": "uint256",
          "name": "",
          "type": "uint256"
        },
        {
          "internalType": "string",
          "name": "",
          "type": "string"
        }
      ],
      "stateMutability": "nonpayable",
      "type": "function"
    }
  ],
  "transactionHash": "0x232df83f363d579f7e30a2b054b7c92dad9c3dbad83874245f631c5a3b996628",
  "args": [],
  "numDeployments": 1,
  "solcInputHash": "78995fe69be866012cdea8ea4c4842de",
  "bytecode": "0x60806040526000805534801561001457600080fd5b50612c37806100246000396000f3fe608060405234801561001057600080fd5b506004361061002b5760003560e01c80633c42879714610030575b600080fd5b61007c600480360360c081101561004657600080fd5b506001600160a01b03813581169160208101358216916040820135811691606081013591608082013515159160a00135166100fb565b6040518083815260200180602001828103825283818151815260200191508051906020019080838360005b838110156100bf5781810151838201526020016100a7565b50505050905090810190601f1680156100ec5780820380516001836020036101000a031916815260200191505b50935050505060405180910390f35b6001600160a01b03808716600090815260356020908152604080832089851684528184209489168452603690925282209192606092610138612963565b6101d88a6035846040518060200160405290816000820154815250506037603854603460009054906101000a90046001600160a01b03166001600160a01b031663fca513a86040518163ffffffff1660e01b815260040160206040518083038186803b1580156101a757600080fd5b505afa1580156101bb573d6000803e3d6000fd5b505050506040513d60208110156101d157600080fd5b5051610b2b565b610160860152506101ef92508c9150859050610ff2565b60408301819052602083018290526101608301516102149287928792879290916110f5565b6102208301526102008201819052600090600981111561023057fe5b600981111561023b57fe5b14610259578061020001518161022001519550955050505050610b20565b6004808501546001600160a01b039081166101a08401819052604080516370a0823160e01b8152928e169383019390935291516370a0823191602480820192602092909190829003018186803b1580156102b257600080fd5b505afa1580156102c6573d6000803e3d6000fd5b505050506040513d60208110156102dc57600080fd5b505181526040810151602082015161030191611388916102fb91611231565b90611292565b606082018190528911610314578861031a565b80606001515b81608001818152505061033984848e8e8560800151866000015161137c565b61014084018190526101208401919091526101008301919091526080820151111561036a5761014081015160808201525b8761042c5760008c6001600160a01b03166370a08231836101a001516040518263ffffffff1660e01b815260040180826001600160a01b0316815260200191505060206040518083038186803b1580156103c357600080fd5b505afa1580156103d7573d6000803e3d6000fd5b505050506040513d60208110156103ed57600080fd5b505161010083015190915081101561042a57600560405180604001604052806002815260200161343560f01b815250965096505050505050610b20565b505b6104358361165d565b80608001518160400151106104d85760068301546080820151600185015460408051637a94c56560e11b81526001600160a01b038f811660048301526024820194909452600160801b9092046001600160801b0316604483015251919092169163f5298aca91606480830192600092919082900301818387803b1580156104bb57600080fd5b505af11580156104cf573d6000803e3d6000fd5b505050506105fc565b60408101511561057157600683015460408281015160018601548251637a94c56560e11b81526001600160a01b038f811660048301526024820193909352600160801b9091046001600160801b03166044820152915192169163f5298aca9160648082019260009290919082900301818387803b15801561055857600080fd5b505af115801561056c573d6000803e3d6000fd5b505050505b6005830154604082015160808301516001600160a01b0390921691639dc29fac918d9161059d91611727565b6040518363ffffffff1660e01b815260040180836001600160a01b0316815260200182815260200192505050600060405180830381600087803b1580156105e357600080fd5b505af11580156105f7573d6000803e3d6000fd5b505050505b6004830154608082015161061f9185918e916001600160a01b0316906000611769565b871561084857806101a001516001600160a01b03166370a08231336040518263ffffffff1660e01b815260040180826001600160a01b0316815260200191505060206040518083038186803b15801561067757600080fd5b505afa15801561068b573d6000803e3d6000fd5b505050506040513d60208110156106a157600080fd5b50516101808201526101a08101516101208201516101008301516001600160a01b039092169163f866c319918d9133916106db9190611727565b6040518463ffffffff1660e01b815260040180846001600160a01b03168152602001836001600160a01b031681526020018281526020019350505050600060405180830381600087803b15801561073157600080fd5b505af1158015610745573d6000803e3d6000fd5b50505050806101a001516001600160a01b031663f866c3198b898461012001516040518463ffffffff1660e01b815260040180846001600160a01b03168152602001836001600160a01b031681526020018281526020019350505050600060405180830381600087803b1580156107bb57600080fd5b505af11580156107cf573d6000803e3d6000fd5b505050508061018001516000141561084357336000908152603660205260409020600785015461080c908290600160a01b900460ff166001611b9c565b60405133906001600160a01b038f16907e058a56ea94653cdf4f152d227ace22d4c00ad99e2a43f58cb7d9e3feb295f290600090a3505b6109d7565b6108518461165d565b6101a081015161010082015161086e9186918f9190600090611769565b806101a001516001600160a01b031663d7020d0a8b336108a185610120015186610100015161172790919063ffffffff16565b6001890154604080516001600160e01b031960e088901b1681526001600160a01b03958616600482015293909416602484015260448301919091526001600160801b031660648201529051608480830192600092919082900301818387803b15801561090c57600080fd5b505af1158015610920573d6000803e3d6000fd5b50505050806101a001516001600160a01b031663d7020d0a8b898461012001518860010160009054906101000a90046001600160801b03166040518563ffffffff1660e01b815260040180856001600160a01b03168152602001846001600160a01b03168152602001838152602001826001600160801b03168152602001945050505050600060405180830381600087803b1580156109be57600080fd5b505af11580156109d2573d6000803e3d6000fd5b505050505b80516101008201511415610a42576007840154610a01908390600160a01b900460ff166000611b9c565b896001600160a01b03168c6001600160a01b03167f44c58d81365b66dd4b1a7f36c25aa97b8c71c361ee4937adc1a00000227db5dd60405160405180910390a35b60048301546080820151610a68916001600160a01b038e81169233929190911690611c40565b896001600160a01b03168b6001600160a01b03168d6001600160a01b03167fe76026d190f8c969db64638eaf9bc7087a3758e7fe58c017135a5051b4d7c4f88460800151856101000151338e8e60405180868152602001858152602001846001600160a01b031681526020018315158152602001826001600160a01b031681526020019550505050505060405180910390a46000604051806040016040528060028152602001611a1b60f11b81525095509550505050505b965096945050505050565b6000806000806000610b3b612a04565b610b448a611ca0565b15610b62576000806000806000199550955095509550955050610fe4565b600060e08201525b878160e001511015610f435760e0810151610b86908b90611ca5565b610b8f57610f33565b60e0810151600090815260208a81526040808320546001600160a01b03166101e085018190528352908d90529020610bc681611d24565b506080860181905260c08601929092525060a0840191909152600a0a60208301526101e082015160405163b3596f0760e01b81526001600160a01b038a169163b3596f0791610c189190600401612ba2565b60206040518083038186803b158015610c3057600080fd5b505afa158015610c44573d6000803e3d6000fd5b505050506040513d601f19601f82011682018060405250810190610c689190612b8a565b825260c082015115801590610c88575060e0820151610c88908c90611d4f565b15610dac578060040160009054906101000a90046001600160a01b03166001600160a01b03166370a082318e6040518263ffffffff1660e01b8152600401610cd09190612ba2565b60206040518083038186803b158015610ce857600080fd5b505afa158015610cfc573d6000803e3d6000fd5b505050506040513d601f19601f82011682018060405250810190610d209190612b8a565b6040830181905260208301518351600092610d459291610d3f91611dd5565b90611e2e565b610120840151909150610d589082611231565b61012084015260a0830151610d7e90610d72908390611dd5565b61016085015190611231565b61016084015260c0830151610da490610d98908390611dd5565b61018085015190611231565b610180840152505b60e0820151610dbc908c90611e6d565b15610f31578060050160009054906101000a90046001600160a01b03166001600160a01b03166370a082318e6040518263ffffffff1660e01b8152600401610e049190612ba2565b60206040518083038186803b158015610e1c57600080fd5b505afa158015610e30573d6000803e3d6000fd5b505050506040513d601f19601f82011682018060405250810190610e549190612b8a565b826060018181525050610efe8160060160009054906101000a90046001600160a01b03166001600160a01b03166370a082318f6040518263ffffffff1660e01b8152600401610ea39190612ba2565b60206040518083038186803b158015610ebb57600080fd5b505afa158015610ecf573d6000803e3d6000fd5b505050506040513d601f19601f82011682018060405250810190610ef39190612b8a565b606084015190611231565b6060830181905260208301518351610f2a92610f1e9291610d3f91611dd5565b61014084015190611231565b6101408301525b505b60e0810180516001019052610b6a565b600081610120015111610f57576000610f6c565b610120810151610160820151610f6c91611e2e565b610160820152610120810151610f83576000610f98565b610120810151610180820151610f9891611e2e565b6101808201819052610120820151610140830151610fb592611eec565b610100820181905261012082015161014083015161016084015161018090940151919850965091945090925090505b965096509650965096915050565b6005810154604080516370a0823160e01b81526001600160a01b0385811660048301529151600093849316916370a08231916024808301926020929190829003018186803b15801561104357600080fd5b505afa158015611057573d6000803e3d6000fd5b505050506040513d602081101561106d57600080fd5b50516006840154604080516370a0823160e01b81526001600160a01b038881166004830152915191909216916370a08231916024808301926020929190829003018186803b1580156110be57600080fd5b505afa1580156110d2573d6000803e3d6000fd5b505050506040513d60208110156110e857600080fd5b5051909590945092505050565b6000606061110288611f1a565b1580611114575061111287611f1a565b155b1561113b5750506040805180820190915260018152601960f91b6020820152600690610b20565b670de0b6b3a7640000851061116d5750506040805180820190915260028152611a1960f11b6020820152600490610b20565b6000806111798a611f26565b1180156111a8575060078901546040805160208101909152885481526111a891600160a01b900460ff16611d4f565b9050806111d257505060408051808201909152600280825261343360f01b60208301529150610b20565b841580156111de575083155b156112075750506040805180820190915260028152610d0d60f21b602082015260039150610b20565b50506040805180820190915260028152611a1b60f11b602082015260009890975095505050505050565b600082820183811015611289576040805162461bcd60e51b815260206004820152601b60248201527a536166654d6174683a206164646974696f6e206f766572666c6f7760281b604482015290519081900360640190fd5b90505b92915050565b600082158061129f575081155b156112ac5750600061128c565b8161138819816112b857fe5b0483111560405180604001604052806002815260200161068760f31b815250906113605760405162461bcd60e51b81526004018080602001828103825283818151815260200191508051906020019080838360005b8381101561132557818101518382015260200161130d565b50505050905090810190601f1680156113525780820380516001836020036101000a031916815260200191505b509250505060405180910390fd5b506127106002815b04838502018161137457fe5b049392505050565b60008060008060009050600080603460009054906101000a90046001600160a01b03166001600160a01b031663fca513a86040518163ffffffff1660e01b815260040160206040518083038186803b1580156113d757600080fd5b505afa1580156113eb573d6000803e3d6000fd5b505050506040513d602081101561140157600080fd5b5051905061140d612a9e565b816001600160a01b031663b3596f078c6040518263ffffffff1660e01b815260040180826001600160a01b0316815260200191505060206040518083038186803b15801561145a57600080fd5b505afa15801561146e573d6000803e3d6000fd5b505050506040513d602081101561148457600080fd5b5051604080830191909152805163b3596f0760e01b81526001600160a01b038c8116600483015291519184169163b3596f0791602480820192602092909190829003018186803b1580156114d757600080fd5b505afa1580156114eb573d6000803e3d6000fd5b505050506040513d602081101561150157600080fd5b505160608201526115118d611d24565b5060c085015260208401525061152890508c611f31565b60a082018190526040820151611575916115459190600a0a611dd5565b610d3f83602001516102fb8560c00151600a0a61156f8f8860600151611dd590919063ffffffff16565b90611dd5565b608082018190528810156115de578793506115d781602001516115d16115af8460c00151600a0a8560600151611dd590919063ffffffff16565b610d3f8560a00151600a0a61156f8a8860400151611dd590919063ffffffff16565b90611f3b565b92506115e9565b806080015193508892505b600061163861163161160f8460a00151600a0a8560400151611dd590919063ffffffff16565b610d3f8560c00151600a0a61156f898860600151611dd590919063ffffffff16565b8690611727565b905084611646826002611e2e565b909f909e50939c50929a5050505050505050505050565b60068101546040805163b1bf962d60e01b815290516000926001600160a01b03169163b1bf962d916004808301926020929190829003018186803b1580156116a457600080fd5b505afa1580156116b8573d6000803e3d6000fd5b505050506040513d60208110156116ce57600080fd5b505160018301546003840154919250600160801b8082046001600160801b03908116939216910464ffffffffff1660008061170c878786888761202e565b9150915061171e8787878585886121e7565b50505050505050565b600061128983836040518060400160405280601e81526020017f536166654d6174683a207375627472616374696f6e206f766572666c6f7700008152506123d0565b611771612adb565b60058601546001600160a01b031680825260408051637b98f4df60e11b8152815163f731e9be92600480840193919291829003018186803b1580156117b557600080fd5b505afa1580156117c9573d6000803e3d6000fd5b505050506040513d60408110156117df57600080fd5b50805160209182015160c084015260408084019190915260018801546006890154825163b1bf962d60e01b8152925161188394600160801b9093046001600160801b0316936001600160a01b039092169263b1bf962d9260048082019391829003018186803b15801561185157600080fd5b505afa158015611865573d6000803e3d6000fd5b505050506040513d602081101561187b57600080fd5b50519061242a565b60e082018190526007870154604083015160c08401516001600160a01b03909216926329db497d92899289928992899291906118be8f6124d9565b6040518963ffffffff1660e01b815260040180896001600160a01b03168152602001886001600160a01b031681526020018781526020018681526020018581526020018481526020018381526020018281526020019850505050505050505060606040518083038186803b15801561193557600080fd5b505afa158015611949573d6000803e3d6000fd5b505050506040513d606081101561195f57600080fd5b50805160208083015160409384015160a086015260808501526060840182905282518084019093526002835261353360f01b908301526001600160801b0310156119ea5760405162461bcd60e51b815260206004820181815283516024840152835190928392604490910191908501908083836000831561132557818101518382015260200161130d565b506080810151604080518082019091526002815261353560f01b6020820152906001600160801b031015611a5f5760405162461bcd60e51b815260206004820181815283516024840152835190928392604490910191908501908083836000831561132557818101518382015260200161130d565b5060a08101516040805180820190915260028152610d4d60f21b6020820152906001600160801b031015611ad45760405162461bcd60e51b815260206004820181815283516024840152835190928392604490910191908501908083836000831561132557818101518382015260200161130d565b5060608181015160028801805460808086015160038c0180546001600160801b03199081166001600160801b038085169190911790925560a0808a015191909516828816178216600160801b82841681029190911790965560018e01546040805198895260208901949094528784019190915280821697870197909752939095049092169183019190915291516001600160a01b038816927f804c9b842b2748a22bb64b345453a3de7ca54a6ca45ce00d415894979e22897a928290030190a2505050505050565b604080518082019091526002815261373760f01b602082015260808310611c045760405162461bcd60e51b815260206004820181815283516024840152835190928392604490910191908501908083836000831561132557818101518382015260200161130d565b508160020260010181611c18576000611c1b565b60015b60ff16901b826002026001016001901b19846000015416178360000181905550505050565b604080516001600160a01b0380861660248301528416604482015260648082018490528251808303909101815260849091019091526020810180516001600160e01b03166323b872dd60e01b179052611c9a9085906124e4565b50505050565b511590565b60006080821060405180604001604052806002815260200161373760f01b81525090611d125760405162461bcd60e51b815260206004820181815283516024840152835190928392604490910191908501908083836000831561132557818101518382015260200161130d565b50509051600360029092021c16151590565b5461ffff80821692601083901c821692602081901c831692603082901c60ff169260409290921c1690565b60006080821060405180604001604052806002815260200161373760f01b81525090611dbc5760405162461bcd60e51b815260206004820181815283516024840152835190928392604490910191908501908083836000831561132557818101518382015260200161130d565b5050815160016002830281019190911c16151592915050565b600082611de45750600061128c565b82820282848281611df157fe5b04146112895760405162461bcd60e51b8152600401808060200182810382526021815260200180612bb76021913960400191505060405180910390fd5b600061128983836040518060400160405280601a815260200179536166654d6174683a206469766973696f6e206279207a65726f60301b81525061269b565b60006080821060405180604001604052806002815260200161373760f01b81525090611eda5760405162461bcd60e51b815260206004820181815283516024840152835190928392604490910191908501908083836000831561132557818101518382015260200161130d565b50509051600160029092021c16151590565b600082611efc5750600019611f13565b611f1083611f0a8685611292565b90612700565b90505b9392505050565b54600160381b16151590565b5460101c61ffff1690565b5460301c60ff1690565b604080518082019091526002815261035360f41b602082015260009082611fa35760405162461bcd60e51b815260206004820181815283516024840152835190928392604490910191908501908083836000831561132557818101518382015260200161130d565b5060408051808201909152600280825261068760f31b60208301528304906127108219048511156120155760405162461bcd60e51b815260206004820181815283516024840152835190928392604490910191908501908083836000831561132557818101518382015260200161130d565b5082816127108602018161202557fe5b04949350505050565b600285015460009081906001600160801b0316858582156121b857600061205584886127f6565b9050612061818a61242a565b604080518082019091526002815261353160f01b60208201529093506001600160801b038411156120d35760405162461bcd60e51b815260206004820181815283516024840152835190928392604490910191908501908083836000831561132557818101518382015260200161130d565b5060018b0180546001600160801b0319166001600160801b03851617905589156121b65760028b015460009061211990600160801b90046001600160801b03168961283c565b9050612125818a61242a565b6040805180820190915260028152611a9960f11b60208201529093506001600160801b038411156121975760405162461bcd60e51b815260206004820181815283516024840152835190928392604490910191908501908083836000831561132557818101518382015260200161130d565b505060018b0180546001600160801b03808516600160801b0291161790555b505b600399909901805464ffffffffff60801b1916600160801b4264ffffffffff1602179055989650505050505050565b6121ef612b29565b6121f8876124d9565b610120820181905261220a57506123c8565b8660050160009054906101000a90046001600160a01b03166001600160a01b031663797743386040518163ffffffff1660e01b815260040160806040518083038186803b15801561225a57600080fd5b505afa15801561226e573d6000803e3d6000fd5b505050506040513d608081101561228457600080fd5b508051602080830151604084015160609094015164ffffffffff1661014086015260a0850193909352918352908201526122be868661242a565b60808201526122cd868461242a565b606082015260a08101516101408201516122ef919064ffffffffff8516612845565b60c0820181905260208201516123049161242a565b6040820181905260808201518251606084015161232f93926123299290918391611231565b90611727565b60e082018190526101208201516123469190611292565b61010082018190521561171e5760048088015461010083015160408051637df5bd3b60e01b81529384019190915260248301879052516001600160a01b0390911691637df5bd3b91604480830192600092919082900301818387803b1580156123ae57600080fd5b505af11580156123c2573d6000803e3d6000fd5b50505050505b505050505050565b600081848411156124225760405162461bcd60e51b815260206004820181815283516024840152835190928392604490910191908501908083836000831561132557818101518382015260200161130d565b505050900390565b6000821580612437575081155b156124445750600061128c565b81676765c793fa10079d601a1b198161245957fe5b0483111560405180604001604052806002815260200161068760f31b815250906124c45760405162461bcd60e51b815260206004820181815283516024840152835190928392604490910191908501908083836000831561132557818101518382015260200161130d565b50676765c793fa10079d601b1b600281611368565b5460401c61ffff1690565b6124f6826001600160a01b031661291b565b612547576040805162461bcd60e51b815260206004820152601f60248201527f5361666545524332303a2063616c6c20746f206e6f6e2d636f6e747261637400604482015290519081900360640190fd5b600080836001600160a01b0316836040518082805190602001908083835b602083106125845780518252601f199092019160209182019101612565565b6001836020036101000a0380198251168184511680821785525050505050509050019150506000604051808303816000865af19150503d80600081146125e6576040519150601f19603f3d011682016040523d82523d6000602084013e6125eb565b606091505b509150915081612642576040805162461bcd60e51b815260206004820181905260248201527f5361666545524332303a206c6f772d6c6576656c2063616c6c206661696c6564604482015290519081900360640190fd5b805115611c9a5780806020019051602081101561265e57600080fd5b5051611c9a5760405162461bcd60e51b815260040180806020018281038252602a815260200180612bd8602a913960400191505060405180910390fd5b600081836126ea5760405162461bcd60e51b815260206004820181815283516024840152835190928392604490910191908501908083836000831561132557818101518382015260200161130d565b5060008385816126f657fe5b0495945050505050565b604080518082019091526002815261035360f41b6020820152600090826127685760405162461bcd60e51b815260206004820181815283516024840152835190928392604490910191908501908083836000831561132557818101518382015260200161130d565b5060408051808201909152600280825261068760f31b6020830152830490670de0b6b3a76400008219048511156127e05760405162461bcd60e51b815260206004820181815283516024840152835190928392604490910191908501908083836000831561132557818101518382015260200161130d565b508281670de0b6b3a76400008602018161202557fe5b60008061280a4264ffffffffff8516611727565b9050612834612817612954565b6301e133806128268785611dd5565b8161282d57fe5b0490611231565b949350505050565b60006112898383425b6000806128598364ffffffffff8616611727565b90508061287057612868612954565b915050611f13565b600019810160006002831161288657600061288b565b600283035b90506301e13380870460006128a0828061242a565b905060006128ae828461242a565b9050600060026128c28461156f8a8a611dd5565b816128c957fe5b049050600060066128e08461156f89818d8d611dd5565b816128e757fe5b04905061290b8161290584816128fd8a8e611dd5565b612905612954565b90611231565b9c9b505050505050505050505050565b6000813f7fc5d2460186f7233c927e7db2dcc703c0e500b653ca82273b7bfad8045d85a470818114801590612834575050151592915050565b676765c793fa10079d601b1b90565b6040518061024001604052806000815260200160008152602001600081526020016000815260200160008152602001600081526020016000815260200160008152602001600081526020016000815260200160008152602001600081526020016000815260200160006001600160a01b03168152602001600015158152602001600060028111156129f057fe5b815260200160008152602001606081525090565b604051806102400160405280600081526020016000815260200160008152602001600081526020016000815260200160008152602001600081526020016000815260200160008152602001600081526020016000815260200160008152602001600081526020016000815260200160001515815260200160006001600160a01b031681526020016000151581526020016000151581525090565b6040518060e00160405280600081526020016000815260200160008152602001600081526020016000815260200160008152602001600081525090565b60405180610100016040528060006001600160a01b03168152602001600081526020016000815260200160008152602001600081526020016000815260200160008152602001600081525090565b60405180610160016040528060008152602001600081526020016000815260200160008152602001600081526020016000815260200160008152602001600081526020016000815260200160008152602001600064ffffffffff1681525090565b600060208284031215612b9b578081fd5b5051919050565b6001600160a01b039190911681526020019056fe536166654d6174683a206d756c7469706c69636174696f6e206f766572666c6f775361666545524332303a204552433230206f7065726174696f6e20646964206e6f742073756363656564a2646970667358221220a9bdccf93f6e8372d57af55a039bb6a6ddd8543e5a94b7e55e52c7d9e7df4a4464736f6c63430007060033",
  "devdoc": {
    "author": "Aave",
    "details": "Implements actions involving management of collateral in the protocol, the main one being the liquidations IMPORTANT This contract will run always via DELEGATECALL, through the LendingPool, so the chain of inheritance is the same as the LendingPool, to have compatible storage layouts*",
    "kind": "dev",
    "methods": {
      "liquidationCall(address,address,address,uint256,bool,address)": {
        "details": "Function to liquidate a position if its Health Factor drops below 1 - The caller (liquidator) covers `debtToCover` amount of debt of the user getting liquidated, and receives   a proportionally amount of the `collateralAsset` plus a bonus to cover market risk",
        "params": {
          "collateralAsset": "The address of the underlying asset used as collateral, to receive as result of the liquidation",
          "debtAsset": "The address of the underlying borrowed asset to be repaid with the liquidation",
          "debtToCover": "The debt amount of borrowed `asset` the liquidator wants to cover",
          "receiveAToken": "`true` if the liquidators wants to receive the collateral aTokens, `false` if he wants to receive the underlying collateral asset directly*",
          "user": "The address of the borrower getting liquidated"
        }
      }
    },
    "title": "LendingPoolCollateralManager contract",
    "version": 1
  },
  "userdoc": {
    "kind": "user",
    "methods": {},
    "version": 1
  },
  "storageLayout": {
    "storage": [
      {
        "astId": 29898,
        "contract": "contracts/protocol/lendingpool/LendingPoolCollateralManager.sol:LendingPoolCollateralManager",
        "label": "lastInitializedRevision",
        "offset": 0,
        "slot": "0",
        "type": "t_uint256"
      },
      {
        "astId": 29901,
        "contract": "contracts/protocol/lendingpool/LendingPoolCollateralManager.sol:LendingPoolCollateralManager",
        "label": "initializing",
        "offset": 0,
        "slot": "1",
        "type": "t_bool"
      },
      {
        "astId": 29971,
        "contract": "contracts/protocol/lendingpool/LendingPoolCollateralManager.sol:LendingPoolCollateralManager",
        "label": "______gap",
        "offset": 0,
        "slot": "2",
        "type": "t_array(t_uint256)50_storage"
      },
      {
        "astId": 29722,
        "contract": "contracts/protocol/lendingpool/LendingPoolCollateralManager.sol:LendingPoolCollateralManager",
        "label": "_addressesProvider",
        "offset": 0,
        "slot": "52",
        "type": "t_contract(ILendingPoolAddressesProvider)11915"
      },
      {
        "astId": 29726,
        "contract": "contracts/protocol/lendingpool/LendingPoolCollateralManager.sol:LendingPoolCollateralManager",
        "label": "_reserves",
        "offset": 0,
        "slot": "53",
        "type": "t_mapping(t_address,t_struct(ReserveData)34343_storage)"
      },
      {
        "astId": 29730,
        "contract": "contracts/protocol/lendingpool/LendingPoolCollateralManager.sol:LendingPoolCollateralManager",
        "label": "_usersConfig",
        "offset": 0,
        "slot": "54",
        "type": "t_mapping(t_address,t_struct(UserConfigurationMap)34349_storage)"
      },
      {
        "astId": 29734,
        "contract": "contracts/protocol/lendingpool/LendingPoolCollateralManager.sol:LendingPoolCollateralManager",
        "label": "_reservesList",
        "offset": 0,
        "slot": "55",
        "type": "t_mapping(t_uint256,t_address)"
      },
      {
        "astId": 29736,
        "contract": "contracts/protocol/lendingpool/LendingPoolCollateralManager.sol:LendingPoolCollateralManager",
        "label": "_reservesCount",
        "offset": 0,
        "slot": "56",
        "type": "t_uint256"
      },
      {
        "astId": 29738,
        "contract": "contracts/protocol/lendingpool/LendingPoolCollateralManager.sol:LendingPoolCollateralManager",
        "label": "_paused",
        "offset": 0,
        "slot": "57",
        "type": "t_bool"
      },
      {
        "astId": 29740,
        "contract": "contracts/protocol/lendingpool/LendingPoolCollateralManager.sol:LendingPoolCollateralManager",
        "label": "_maxStableRateBorrowSizePercent",
        "offset": 0,
        "slot": "58",
        "type": "t_uint256"
      },
      {
        "astId": 29742,
        "contract": "contracts/protocol/lendingpool/LendingPoolCollateralManager.sol:LendingPoolCollateralManager",
        "label": "_flashLoanPremiumTotal",
        "offset": 0,
        "slot": "59",
        "type": "t_uint256"
      },
      {
        "astId": 29744,
        "contract": "contracts/protocol/lendingpool/LendingPoolCollateralManager.sol:LendingPoolCollateralManager",
        "label": "_maxNumberOfReserves",
        "offset": 0,
        "slot": "60",
        "type": "t_uint256"
      }
    ],
    "types": {
      "t_address": {
        "encoding": "inplace",
        "label": "address",
        "numberOfBytes": "20"
      },
      "t_array(t_uint256)50_storage": {
        "base": "t_uint256",
        "encoding": "inplace",
        "label": "uint256[50]",
        "numberOfBytes": "1600"
      },
      "t_bool": {
        "encoding": "inplace",
        "label": "bool",
        "numberOfBytes": "1"
      },
      "t_contract(ILendingPoolAddressesProvider)11915": {
        "encoding": "inplace",
        "label": "contract ILendingPoolAddressesProvider",
        "numberOfBytes": "20"
      },
      "t_mapping(t_address,t_struct(ReserveData)34343_storage)": {
        "encoding": "mapping",
        "key": "t_address",
        "label": "mapping(address => struct DataTypes.ReserveData)",
        "numberOfBytes": "32",
        "value": "t_struct(ReserveData)34343_storage"
      },
      "t_mapping(t_address,t_struct(UserConfigurationMap)34349_storage)": {
        "encoding": "mapping",
        "key": "t_address",
        "label": "mapping(address => struct DataTypes.UserConfigurationMap)",
        "numberOfBytes": "32",
        "value": "t_struct(UserConfigurationMap)34349_storage"
      },
      "t_mapping(t_uint256,t_address)": {
        "encoding": "mapping",
        "key": "t_uint256",
        "label": "mapping(uint256 => address)",
        "numberOfBytes": "32",
        "value": "t_address"
      },
      "t_struct(ReserveConfigurationMap)34346_storage": {
        "encoding": "inplace",
        "label": "struct DataTypes.ReserveConfigurationMap",
        "members": [
          {
            "astId": 34345,
            "contract": "contracts/protocol/lendingpool/LendingPoolCollateralManager.sol:LendingPoolCollateralManager",
            "label": "data",
            "offset": 0,
            "slot": "0",
            "type": "t_uint256"
          }
        ],
        "numberOfBytes": "32"
      },
      "t_struct(ReserveData)34343_storage": {
        "encoding": "inplace",
        "label": "struct DataTypes.ReserveData",
        "members": [
          {
            "astId": 34320,
            "contract": "contracts/protocol/lendingpool/LendingPoolCollateralManager.sol:LendingPoolCollateralManager",
            "label": "configuration",
            "offset": 0,
            "slot": "0",
            "type": "t_struct(ReserveConfigurationMap)34346_storage"
          },
          {
            "astId": 34322,
            "contract": "contracts/protocol/lendingpool/LendingPoolCollateralManager.sol:LendingPoolCollateralManager",
            "label": "liquidityIndex",
            "offset": 0,
            "slot": "1",
            "type": "t_uint128"
          },
          {
            "astId": 34324,
            "contract": "contracts/protocol/lendingpool/LendingPoolCollateralManager.sol:LendingPoolCollateralManager",
            "label": "variableBorrowIndex",
            "offset": 16,
            "slot": "1",
            "type": "t_uint128"
          },
          {
            "astId": 34326,
            "contract": "contracts/protocol/lendingpool/LendingPoolCollateralManager.sol:LendingPoolCollateralManager",
            "label": "currentLiquidityRate",
            "offset": 0,
            "slot": "2",
            "type": "t_uint128"
          },
          {
            "astId": 34328,
            "contract": "contracts/protocol/lendingpool/LendingPoolCollateralManager.sol:LendingPoolCollateralManager",
            "label": "currentVariableBorrowRate",
            "offset": 16,
            "slot": "2",
            "type": "t_uint128"
          },
          {
            "astId": 34330,
            "contract": "contracts/protocol/lendingpool/LendingPoolCollateralManager.sol:LendingPoolCollateralManager",
            "label": "currentStableBorrowRate",
            "offset": 0,
            "slot": "3",
            "type": "t_uint128"
          },
          {
            "astId": 34332,
            "contract": "contracts/protocol/lendingpool/LendingPoolCollateralManager.sol:LendingPoolCollateralManager",
            "label": "lastUpdateTimestamp",
            "offset": 16,
            "slot": "3",
            "type": "t_uint40"
          },
          {
            "astId": 34334,
            "contract": "contracts/protocol/lendingpool/LendingPoolCollateralManager.sol:LendingPoolCollateralManager",
            "label": "aTokenAddress",
            "offset": 0,
            "slot": "4",
            "type": "t_address"
          },
          {
            "astId": 34336,
            "contract": "contracts/protocol/lendingpool/LendingPoolCollateralManager.sol:LendingPoolCollateralManager",
            "label": "stableDebtTokenAddress",
            "offset": 0,
            "slot": "5",
            "type": "t_address"
          },
          {
            "astId": 34338,
            "contract": "contracts/protocol/lendingpool/LendingPoolCollateralManager.sol:LendingPoolCollateralManager",
            "label": "variableDebtTokenAddress",
            "offset": 0,
            "slot": "6",
            "type": "t_address"
          },
          {
            "astId": 34340,
            "contract": "contracts/protocol/lendingpool/LendingPoolCollateralManager.sol:LendingPoolCollateralManager",
            "label": "interestRateStrategyAddress",
            "offset": 0,
            "slot": "7",
            "type": "t_address"
          },
          {
            "astId": 34342,
            "contract": "contracts/protocol/lendingpool/LendingPoolCollateralManager.sol:LendingPoolCollateralManager",
            "label": "id",
            "offset": 20,
            "slot": "7",
            "type": "t_uint8"
          }
        ],
        "numberOfBytes": "256"
      },
      "t_struct(UserConfigurationMap)34349_storage": {
        "encoding": "inplace",
        "label": "struct DataTypes.UserConfigurationMap",
        "members": [
          {
            "astId": 34348,
            "contract": "contracts/protocol/lendingpool/LendingPoolCollateralManager.sol:LendingPoolCollateralManager",
            "label": "data",
            "offset": 0,
            "slot": "0",
            "type": "t_uint256"
          }
        ],
        "numberOfBytes": "32"
      },
      "t_uint128": {
        "encoding": "inplace",
        "label": "uint128",
        "numberOfBytes": "16"
      },
      "t_uint256": {
        "encoding": "inplace",
        "label": "uint256",
        "numberOfBytes": "32"
      },
      "t_uint40": {
        "encoding": "inplace",
        "label": "uint40",
        "numberOfBytes": "5"
      },
      "t_uint8": {
        "encoding": "inplace",
        "label": "uint8",
        "numberOfBytes": "1"
      }
    }
  }
}