{
  "address": "0xFDF09af02FA6561FDf9546eed7DC5eeD87db73c2",
  "abi": [
    {
      "anonymous": false,
      "inputs": [
        {
          "indexed": true,
          "internalType": "address",
          "name": "previousOwner",
          "type": "address"
        },
        {
          "indexed": true,
          "internalType": "address",
          "name": "newOwner",
          "type": "address"
        }
      ],
      "name": "OwnershipTransferred",
      "type": "event"
    },
    {
      "inputs": [
        {
          "internalType": "address",
          "name": "_asset",
          "type": "address"
        }
      ],
      "name": "getMarketBorrowRate",
      "outputs": [
        {
          "internalType": "uint256",
          "name": "",
          "type": "uint256"
        }
      ],
      "stateMutability": "view",
      "type": "function"
    },
    {
      "inputs": [
        {
          "internalType": "address",
          "name": "_asset",
          "type": "address"
        }
      ],
      "name": "getMarketLiquidityRate",
      "outputs": [
        {
          "internalType": "uint256",
          "name": "",
          "type": "uint256"
        }
      ],
      "stateMutability": "view",
      "type": "function"
    },
    {
      "inputs": [],
      "name": "owner",
      "outputs": [
        {
          "internalType": "address",
          "name": "",
          "type": "address"
        }
      ],
      "stateMutability": "view",
      "type": "function"
    },
    {
      "inputs": [],
      "name": "renounceOwnership",
      "outputs": [],
      "stateMutability": "nonpayable",
      "type": "function"
    },
    {
      "inputs": [
        {
          "internalType": "address",
          "name": "_asset",
          "type": "address"
        },
        {
          "internalType": "uint256",
          "name": "_rate",
          "type": "uint256"
        }
      ],
      "name": "setMarketBorrowRate",
      "outputs": [],
      "stateMutability": "nonpayable",
      "type": "function"
    },
    {
      "inputs": [
        {
          "internalType": "address",
          "name": "_asset",
          "type": "address"
        },
        {
          "internalType": "uint256",
          "name": "_rate",
          "type": "uint256"
        }
      ],
      "name": "setMarketLiquidityRate",
      "outputs": [],
      "stateMutability": "nonpayable",
      "type": "function"
    },
    {
      "inputs": [
        {
          "internalType": "address",
          "name": "newOwner",
          "type": "address"
        }
      ],
      "name": "transferOwnership",
      "outputs": [],
      "stateMutability": "nonpayable",
      "type": "function"
    }
  ],
  "transactionHash": "0xeca28602d5c6d580cdd7ce0e3b029f97a43e74eddb146e8d202824b3eda9942a",
  "args": [],
  "numDeployments": 1,
  "solcInputHash": "78995fe69be866012cdea8ea4c4842de",
  "bytecode": "0x608060405234801561001057600080fd5b50600061001b61006a565b600080546001600160a01b0319166001600160a01b0383169081178255604051929350917f8be0079c531659141344cd1fd0a4f28419497f9722a3daafe3b4186f6b6457e0908290a35061006e565b3390565b6104bf8061007d6000396000f3fe608060405234801561001057600080fd5b506004361061006d5760003560e01c8063715018a61461007257806372eb293d1461007c5780638da5cb5b146100a85780639f86a0ee146100cc578063bb85c0bb146100f8578063f2fde38b14610130578063fbe5ba1e14610156575b600080fd5b61007a61017c565b005b61007a6004803603604081101561009257600080fd5b506001600160a01b03813516906020013561020c565b6100b0610280565b604080516001600160a01b039092168252519081900360200190f35b61007a600480360360408110156100e257600080fd5b506001600160a01b03813516906020013561028f565b61011e6004803603602081101561010e57600080fd5b50356001600160a01b0316610303565b60408051918252519081900360200190f35b61007a6004803603602081101561014657600080fd5b50356001600160a01b031661031e565b61011e6004803603602081101561016c57600080fd5b50356001600160a01b0316610404565b61018461041f565b6000546001600160a01b039081169116146101d4576040805162461bcd60e51b8152602060048201819052602482015260008051602061044a833981519152604482015290519081900360640190fd5b600080546040516001600160a01b039091169060008051602061046a833981519152908390a3600080546001600160a01b0319169055565b61021461041f565b6000546001600160a01b03908116911614610264576040805162461bcd60e51b8152602060048201819052602482015260008051602061044a833981519152604482015290519081900360640190fd5b6001600160a01b03909116600090815260016020526040902055565b6000546001600160a01b031690565b61029761041f565b6000546001600160a01b039081169116146102e7576040805162461bcd60e51b8152602060048201819052602482015260008051602061044a833981519152604482015290519081900360640190fd5b6001600160a01b03909116600090815260026020526040902055565b6001600160a01b031660009081526001602052604090205490565b61032661041f565b6000546001600160a01b03908116911614610376576040805162461bcd60e51b8152602060048201819052602482015260008051602061044a833981519152604482015290519081900360640190fd5b6001600160a01b0381166103bb5760405162461bcd60e51b81526004018080602001828103825260268152602001806104246026913960400191505060405180910390fd5b600080546040516001600160a01b038085169392169160008051602061046a83398151915291a3600080546001600160a01b0319166001600160a01b0392909216919091179055565b6001600160a01b031660009081526002602052604090205490565b339056fe4f776e61626c653a206e6577206f776e657220697320746865207a65726f20616464726573734f776e61626c653a2063616c6c6572206973206e6f7420746865206f776e65728be0079c531659141344cd1fd0a4f28419497f9722a3daafe3b4186f6b6457e0a2646970667358221220b300e049fa1866be0b5b68169a9af7f06aeac07723d8abfb39d06c4d6772cd7464736f6c63430007060033",
  "devdoc": {
    "kind": "dev",
    "methods": {
      "owner()": {
        "details": "Returns the address of the current owner."
      },
      "renounceOwnership()": {
        "details": "Leaves the contract without owner. It will not be possible to call `onlyOwner` functions anymore. Can only be called by the current owner. NOTE: Renouncing ownership will leave the contract without an owner, thereby removing any functionality that is only available to the owner."
      },
      "transferOwnership(address)": {
        "details": "Transfers ownership of the contract to a new account (`newOwner`). Can only be called by the current owner."
      }
    },
    "version": 1
  },
  "userdoc": {
    "kind": "user",
    "methods": {},
    "version": 1
  },
  "storageLayout": {
    "storage": [
      {
        "astId": 5437,
        "contract": "contracts/mocks/oracle/LendingRateOracle.sol:LendingRateOracle",
        "label": "_owner",
        "offset": 0,
        "slot": "0",
        "type": "t_address"
      },
      {
        "astId": 19860,
        "contract": "contracts/mocks/oracle/LendingRateOracle.sol:LendingRateOracle",
        "label": "borrowRates",
        "offset": 0,
        "slot": "1",
        "type": "t_mapping(t_address,t_uint256)"
      },
      {
        "astId": 19864,
        "contract": "contracts/mocks/oracle/LendingRateOracle.sol:LendingRateOracle",
        "label": "liquidityRates",
        "offset": 0,
        "slot": "2",
        "type": "t_mapping(t_address,t_uint256)"
      }
    ],
    "types": {
      "t_address": {
        "encoding": "inplace",
        "label": "address",
        "numberOfBytes": "20"
      },
      "t_mapping(t_address,t_uint256)": {
        "encoding": "mapping",
        "key": "t_address",
        "label": "mapping(address => uint256)",
        "numberOfBytes": "32",
        "value": "t_uint256"
      },
      "t_uint256": {
        "encoding": "inplace",
        "label": "uint256",
        "numberOfBytes": "32"
      }
    }
  }
}