{
  "address": "0xC7fcb793eb5E6AC09D74899E758d5d98f4c882C7",
  "abi": [
    {
      "inputs": [
        {
          "internalType": "string",
          "name": "marketId",
          "type": "string"
        }
      ],
      "stateMutability": "nonpayable",
      "type": "constructor"
    },
    {
      "anonymous": false,
      "inputs": [
        {
          "indexed": false,
          "internalType": "bytes32",
          "name": "id",
          "type": "bytes32"
        },
        {
          "indexed": true,
          "internalType": "address",
          "name": "newAddress",
          "type": "address"
        },
        {
          "indexed": false,
          "internalType": "bool",
          "name": "hasProxy",
          "type": "bool"
        }
      ],
      "name": "AddressSet",
      "type": "event"
    },
    {
      "anonymous": false,
      "inputs": [
        {
          "indexed": true,
          "internalType": "address",
          "name": "newAddress",
          "type": "address"
        }
      ],
      "name": "ConfigurationAdminUpdated",
      "type": "event"
    },
    {
      "anonymous": false,
      "inputs": [
        {
          "indexed": true,
          "internalType": "address",
          "name": "newAddress",
          "type": "address"
        }
      ],
      "name": "EmergencyAdminUpdated",
      "type": "event"
    },
    {
      "anonymous": false,
      "inputs": [
        {
          "indexed": true,
          "internalType": "address",
          "name": "newAddress",
          "type": "address"
        }
      ],
      "name": "LendingPoolCollateralManagerUpdated",
      "type": "event"
    },
    {
      "anonymous": false,
      "inputs": [
        {
          "indexed": true,
          "internalType": "address",
          "name": "newAddress",
          "type": "address"
        }
      ],
      "name": "LendingPoolConfiguratorUpdated",
      "type": "event"
    },
    {
      "anonymous": false,
      "inputs": [
        {
          "indexed": true,
          "internalType": "address",
          "name": "newAddress",
          "type": "address"
        }
      ],
      "name": "LendingPoolUpdated",
      "type": "event"
    },
    {
      "anonymous": false,
      "inputs": [
        {
          "indexed": true,
          "internalType": "address",
          "name": "newAddress",
          "type": "address"
        }
      ],
      "name": "LendingRateOracleUpdated",
      "type": "event"
    },
    {
      "anonymous": false,
      "inputs": [
        {
          "indexed": false,
          "internalType": "string",
          "name": "newMarketId",
          "type": "string"
        }
      ],
      "name": "MarketIdSet",
      "type": "event"
    },
    {
      "anonymous": false,
      "inputs": [
        {
          "indexed": true,
          "internalType": "address",
          "name": "previousOwner",
          "type": "address"
        },
        {
          "indexed": true,
          "internalType": "address",
          "name": "newOwner",
          "type": "address"
        }
      ],
      "name": "OwnershipTransferred",
      "type": "event"
    },
    {
      "anonymous": false,
      "inputs": [
        {
          "indexed": true,
          "internalType": "address",
          "name": "newAddress",
          "type": "address"
        }
      ],
      "name": "PriceOracleUpdated",
      "type": "event"
    },
    {
      "anonymous": false,
      "inputs": [
        {
          "indexed": false,
          "internalType": "bytes32",
          "name": "id",
          "type": "bytes32"
        },
        {
          "indexed": true,
          "internalType": "address",
          "name": "newAddress",
          "type": "address"
        }
      ],
      "name": "ProxyCreated",
      "type": "event"
    },
    {
      "inputs": [
        {
          "internalType": "bytes32",
          "name": "id",
          "type": "bytes32"
        }
      ],
      "name": "getAddress",
      "outputs": [
        {
          "internalType": "address",
          "name": "",
          "type": "address"
        }
      ],
      "stateMutability": "view",
      "type": "function"
    },
    {
      "inputs": [],
      "name": "getEmergencyAdmin",
      "outputs": [
        {
          "internalType": "address",
          "name": "",
          "type": "address"
        }
      ],
      "stateMutability": "view",
      "type": "function"
    },
    {
      "inputs": [],
      "name": "getLendingPool",
      "outputs": [
        {
          "internalType": "address",
          "name": "",
          "type": "address"
        }
      ],
      "stateMutability": "view",
      "type": "function"
    },
    {
      "inputs": [],
      "name": "getLendingPoolCollateralManager",
      "outputs": [
        {
          "internalType": "address",
          "name": "",
          "type": "address"
        }
      ],
      "stateMutability": "view",
      "type": "function"
    },
    {
      "inputs": [],
      "name": "getLendingPoolConfigurator",
      "outputs": [
        {
          "internalType": "address",
          "name": "",
          "type": "address"
        }
      ],
      "stateMutability": "view",
      "type": "function"
    },
    {
      "inputs": [],
      "name": "getLendingRateOracle",
      "outputs": [
        {
          "internalType": "address",
          "name": "",
          "type": "address"
        }
      ],
      "stateMutability": "view",
      "type": "function"
    },
    {
      "inputs": [],
      "name": "getLiquidationFeeTo",
      "outputs": [
        {
          "internalType": "address",
          "name": "",
          "type": "address"
        }
      ],
      "stateMutability": "view",
      "type": "function"
    },
    {
      "inputs": [],
      "name": "getMarketId",
      "outputs": [
        {
          "internalType": "string",
          "name": "",
          "type": "string"
        }
      ],
      "stateMutability": "view",
      "type": "function"
    },
    {
      "inputs": [],
      "name": "getPoolAdmin",
      "outputs": [
        {
          "internalType": "address",
          "name": "",
          "type": "address"
        }
      ],
      "stateMutability": "view",
      "type": "function"
    },
    {
      "inputs": [],
      "name": "getPriceOracle",
      "outputs": [
        {
          "internalType": "address",
          "name": "",
          "type": "address"
        }
      ],
      "stateMutability": "view",
      "type": "function"
    },
    {
      "inputs": [],
      "name": "owner",
      "outputs": [
        {
          "internalType": "address",
          "name": "",
          "type": "address"
        }
      ],
      "stateMutability": "view",
      "type": "function"
    },
    {
      "inputs": [],
      "name": "renounceOwnership",
      "outputs": [],
      "stateMutability": "nonpayable",
      "type": "function"
    },
    {
      "inputs": [
        {
          "internalType": "bytes32",
          "name": "id",
          "type": "bytes32"
        },
        {
          "internalType": "address",
          "name": "newAddress",
          "type": "address"
        }
      ],
      "name": "setAddress",
      "outputs": [],
      "stateMutability": "nonpayable",
      "type": "function"
    },
    {
      "inputs": [
        {
          "internalType": "bytes32",
          "name": "id",
          "type": "bytes32"
        },
        {
          "internalType": "address",
          "name": "implementationAddress",
          "type": "address"
        }
      ],
      "name": "setAddressAsProxy",
      "outputs": [],
      "stateMutability": "nonpayable",
      "type": "function"
    },
    {
      "inputs": [
        {
          "internalType": "address",
          "name": "emergencyAdmin",
          "type": "address"
        }
      ],
      "name": "setEmergencyAdmin",
      "outputs": [],
      "stateMutability": "nonpayable",
      "type": "function"
    },
    {
      "inputs": [
        {
          "internalType": "address",
          "name": "manager",
          "type": "address"
        }
      ],
      "name": "setLendingPoolCollateralManager",
      "outputs": [],
      "stateMutability": "nonpayable",
      "type": "function"
    },
    {
      "inputs": [
        {
          "internalType": "address",
          "name": "configurator",
          "type": "address"
        }
      ],
      "name": "setLendingPoolConfiguratorImpl",
      "outputs": [],
      "stateMutability": "nonpayable",
      "type": "function"
    },
    {
      "inputs": [
        {
          "internalType": "address",
          "name": "pool",
          "type": "address"
        }
      ],
      "name": "setLendingPoolImpl",
      "outputs": [],
      "stateMutability": "nonpayable",
      "type": "function"
    },
    {
      "inputs": [
        {
          "internalType": "address",
          "name": "lendingRateOracle",
          "type": "address"
        }
      ],
      "name": "setLendingRateOracle",
      "outputs": [],
      "stateMutability": "nonpayable",
      "type": "function"
    },
    {
      "inputs": [
        {
          "internalType": "address",
          "name": "liquidationFeeTo",
          "type": "address"
        }
      ],
      "name": "setLiquidationFeeTo",
      "outputs": [],
      "stateMutability": "nonpayable",
      "type": "function"
    },
    {
      "inputs": [
        {
          "internalType": "string",
          "name": "marketId",
          "type": "string"
        }
      ],
      "name": "setMarketId",
      "outputs": [],
      "stateMutability": "nonpayable",
      "type": "function"
    },
    {
      "inputs": [
        {
          "internalType": "address",
          "name": "admin",
          "type": "address"
        }
      ],
      "name": "setPoolAdmin",
      "outputs": [],
      "stateMutability": "nonpayable",
      "type": "function"
    },
    {
      "inputs": [
        {
          "internalType": "address",
          "name": "priceOracle",
          "type": "address"
        }
      ],
      "name": "setPriceOracle",
      "outputs": [],
      "stateMutability": "nonpayable",
      "type": "function"
    },
    {
      "inputs": [
        {
          "internalType": "address",
          "name": "newOwner",
          "type": "address"
        }
      ],
      "name": "transferOwnership",
      "outputs": [],
      "stateMutability": "nonpayable",
      "type": "function"
    }
  ],
  "transactionHash": "0x20bfc0a8ba3f0c99274aa66270748b9f12fde29bba2860906458f57f92d18161",
  "args": [
    "Radiant"
  ],
  "numDeployments": 1,
  "solcInputHash": "78995fe69be866012cdea8ea4c4842de",
  "bytecode": "0x60806040523480156200001157600080fd5b5060405162001e9938038062001e99833981810160405260208110156200003757600080fd5b81019080805160405193929190846401000000008211156200005857600080fd5b9083019060208201858111156200006e57600080fd5b82516401000000008111828201881017156200008957600080fd5b82525081516020918201929091019080838360005b83811015620000b85781810151838201526020016200009e565b50505050905090810190601f168015620000e65780820380516001836020036101000a031916815260200191505b506040525050506000620000ff6200018160201b60201c565b600080546001600160a01b0319166001600160a01b0383169081178255604051929350917f8be0079c531659141344cd1fd0a4f28419497f9722a3daafe3b4186f6b6457e0908290a350620001548162000185565b50600380546001600160a01b03191673f90c69d16599a5c657a05fe76cd22fd9cab44598179055620002e6565b3390565b80516200019a9060019060208401906200023a565b507f5e667c32fd847cf8bce48ab3400175cbf107bdc82b2dea62e3364909dfaee799816040518080602001828103825283818151815260200191508051906020019080838360005b83811015620001fc578181015183820152602001620001e2565b50505050905090810190601f1680156200022a5780820380516001836020036101000a031916815260200191505b509250505060405180910390a150565b828054600181600116156101000203166002900490600052602060002090601f016020900481019282620002725760008555620002bd565b82601f106200028d57805160ff1916838001178555620002bd565b82800160010185558215620002bd579182015b82811115620002bd578251825591602001919060010190620002a0565b50620002cb929150620002cf565b5090565b5b80821115620002cb5760008155600101620002d0565b611ba380620002f66000396000f3fe608060405234801561001057600080fd5b50600436106101285760003560e01c80630261bf8b1461012d57806321f8a72114610151578063283d62ad1461016e57806335da3394146101965780633618abba146101bc578063398e5553146101c4578063530e784f146101ea578063568ef470146102105780635aef021f1461028d5780635afaf018146102b35780635dcc528c146102bb578063712d9171146102e7578063715018a6146102ef578063820d1274146102f757806385c858b11461031d5780638da5cb5b14610325578063aecda3781461032d578063c12542df14610335578063ca446dd91461035b578063ddcaa9ea14610387578063e216ab441461038f578063f2fde38b146103b5578063f67b1847146103db578063fca513a81461047f575b600080fd5b610135610487565b604080516001600160a01b039092168252519081900360200190f35b6101356004803603602081101561016757600080fd5b50356104a6565b6101946004803603602081101561018457600080fd5b50356001600160a01b03166104c1565b005b610194600480360360208110156101ac57600080fd5b50356001600160a01b0316610599565b610135610676565b610194600480360360208110156101da57600080fd5b50356001600160a01b0316610697565b6101946004803603602081101561020057600080fd5b50356001600160a01b0316610777565b610218610851565b6040805160208082528351818301528351919283929083019185019080838360005b8381101561025257818101518382015260200161023a565b50505050905090810190601f16801561027f5780820380516001836020036101000a031916815260200191505b509250505060405180910390f35b610194600480360360208110156102a357600080fd5b50356001600160a01b03166108e6565b61013561098e565b610194600480360360408110156102d157600080fd5b50803590602001356001600160a01b031661099d565b610135610a34565b610194610a54565b6101946004803603602081101561030d57600080fd5b50356001600160a01b0316610ae4565b610135610bc5565b610135610bec565b610135610bfb565b6101946004803603602081101561034b57600080fd5b50356001600160a01b0316610c13565b6101946004803603604081101561037157600080fd5b50803590602001356001600160a01b0316610cc8565b610135610d77565b610194600480360360208110156103a557600080fd5b50356001600160a01b0316610d94565b610194600480360360208110156103cb57600080fd5b50356001600160a01b0316610e0e565b610194600480360360208110156103f157600080fd5b810190602081018135600160201b81111561040b57600080fd5b82018360208201111561041d57600080fd5b803590602001918460018302840111600160201b8311171561043e57600080fd5b91908080601f016020809104026020016040519081016040528093929190818152602001838380828437600092019190915250929550610ef4945050505050565b610135610f58565b60006104a16b13115391125391d7d413d3d360a21b6104a6565b905090565b6000908152600260205260409020546001600160a01b031690565b6104c9610f72565b6000546001600160a01b03908116911614610519576040805162461bcd60e51b81526020600482018190526024820152600080516020611b2e833981519152604482015290519081900360640190fd5b692827a7a62fa0a226a4a760b11b600090815260026020527f8625fbc469bac10fd11de1d783dcd446542784dbcc535ef64a1da61860fda74c80546001600160a01b0319166001600160a01b03841690811790915560405190917fc20a317155a9e7d84e06b716b4b355d47742ab9f8c5d630e7f556553f582430d91a250565b6105a1610f72565b6000546001600160a01b039081169116146105f1576040805162461bcd60e51b81526020600482018190526024820152600080516020611b2e833981519152604482015290519081900360640190fd5b6e22a6a2a923a2a721acafa0a226a4a760891b600090815260026020527f767aa9c986e1d88108b2558f00fbd21b689a0397581446e2e868cd70421026cc80546001600160a01b0319166001600160a01b03841690811790915560405190917fe19673fc861bfeb894cf2d6b7662505497ef31c0f489b742db24ee331082691691a250565b60006104a1724c454e44494e475f524154455f4f5241434c4560681b6104a6565b61069f610f72565b6000546001600160a01b039081169116146106ef576040805162461bcd60e51b81526020600482018190526024820152600080516020611b2e833981519152604482015290519081900360640190fd5b7121a7a62620aa22a920a62fa6a0a720a3a2a960711b600090815260026020527f65e3f3080e9127c1765503a54b8dbb495249e66169f096dfc87ee63bed17e22c80546001600160a01b0319166001600160a01b03841690811790915560405190917f991888326f0eab3df6084aadb82bee6781b5c9aa75379e8bc50ae8693454163891a250565b61077f610f72565b6000546001600160a01b039081169116146107cf576040805162461bcd60e51b81526020600482018190526024820152600080516020611b2e833981519152604482015290519081900360640190fd5b6b50524943455f4f5241434c4560a01b600090815260026020527f740f710666bd7a12af42df98311e541e47f7fd33d382d11602457a6d540cbd6380546001600160a01b0319166001600160a01b03841690811790915560405190917fefe8ab924ca486283a79dc604baa67add51afb82af1db8ac386ebbba643cdffd91a250565b60018054604080516020601f600260001961010087891615020190951694909404938401819004810282018101909252828152606093909290918301828280156108dc5780601f106108b1576101008083540402835291602001916108dc565b820191906000526020600020905b8154815290600101906020018083116108bf57829003601f168201915b5050505050905090565b6108ee610f72565b6000546001600160a01b0390811691161461093e576040805162461bcd60e51b81526020600482018190526024820152600080516020611b2e833981519152604482015290519081900360640190fd5b6109576b13115391125391d7d413d3d360a21b82610f76565b6040516001600160a01b038216907fc4e6c6cdf28d0edbd8bcf071d724d33cc2e7a30be7d06443925656e9cb492aa490600090a250565b6003546001600160a01b031690565b6109a5610f72565b6000546001600160a01b039081169116146109f5576040805162461bcd60e51b81526020600482018190526024820152600080516020611b2e833981519152604482015290519081900360640190fd5b6109ff8282610f76565b604080518381526001602082015281516001600160a01b03841692600080516020611b0e833981519152928290030190a25050565b60006104a17121a7a62620aa22a920a62fa6a0a720a3a2a960711b6104a6565b610a5c610f72565b6000546001600160a01b03908116911614610aac576040805162461bcd60e51b81526020600482018190526024820152600080516020611b2e833981519152604482015290519081900360640190fd5b600080546040516001600160a01b0390911690600080516020611b4e833981519152908390a3600080546001600160a01b0319169055565b610aec610f72565b6000546001600160a01b03908116911614610b3c576040805162461bcd60e51b81526020600482018190526024820152600080516020611b2e833981519152604482015290519081900360640190fd5b724c454e44494e475f524154455f4f5241434c4560681b600090815260026020527f10f0e20294ece4bd93e7a467dbf22ab9ab1740ebd0a532cc53066601e880c0cf80546001600160a01b0319166001600160a01b03841690811790915560405190917f5c29179aba6942020a8a2d38f65de02fb6b7f784e7f049ed3a3cab97621859b591a250565b60006104a1782622a72224a723afa827a7a62fa1a7a72324a3aaa920aa27a960391b6104a6565b6000546001600160a01b031690565b60006104a1692827a7a62fa0a226a4a760b11b6104a6565b610c1b610f72565b6000546001600160a01b03908116911614610c6b576040805162461bcd60e51b81526020600482018190526024820152600080516020611b2e833981519152604482015290519081900360640190fd5b610c91782622a72224a723afa827a7a62fa1a7a72324a3aaa920aa27a960391b82610f76565b6040516001600160a01b038216907fdfabe479bad36782fb1e77fbfddd4e382671713527e4786cfc93a022ae76372990600090a250565b610cd0610f72565b6000546001600160a01b03908116911614610d20576040805162461bcd60e51b81526020600482018190526024820152600080516020611b2e833981519152604482015290519081900360640190fd5b600082815260026020908152604080832080546001600160a01b0319166001600160a01b0386169081179091558151868152928301939093528051600080516020611b0e8339815191529281900390910190a25050565b60006104a16e22a6a2a923a2a721acafa0a226a4a760891b6104a6565b610d9c610f72565b6000546001600160a01b03908116911614610dec576040805162461bcd60e51b81526020600482018190526024820152600080516020611b2e833981519152604482015290519081900360640190fd5b600380546001600160a01b0319166001600160a01b0392909216919091179055565b610e16610f72565b6000546001600160a01b03908116911614610e66576040805162461bcd60e51b81526020600482018190526024820152600080516020611b2e833981519152604482015290519081900360640190fd5b6001600160a01b038116610eab5760405162461bcd60e51b8152600401808060200182810382526026815260200180611ae86026913960400191505060405180910390fd5b600080546040516001600160a01b0380851693921691600080516020611b4e83398151915291a3600080546001600160a01b0319166001600160a01b0392909216919091179055565b610efc610f72565b6000546001600160a01b03908116911614610f4c576040805162461bcd60e51b81526020600482018190526024820152600080516020611b2e833981519152604482015290519081900360640190fd5b610f558161121e565b50565b60006104a16b50524943455f4f5241434c4560a01b6104a6565b3390565b6000828152600260209081526040918290205482513060248083019190915284518083039091018152604490910190935290820180516001600160e01b031663189acdbd60e31b1790526001600160a01b0316908190816111455730604051610fde906112ce565b6001600160a01b03909116815260405190819003602001906000f08015801561100b573d6000803e3d6000fd5b509150816001600160a01b031663d1f5789485836040518363ffffffff1660e01b815260040180836001600160a01b0316815260200180602001828103825283818151815260200191508051906020019080838360005b8381101561107a578181015183820152602001611062565b50505050905090810190601f1680156110a75780820380516001836020036101000a031916815260200191505b509350505050600060405180830381600087803b1580156110c757600080fd5b505af11580156110db573d6000803e3d6000fd5b50505060008681526002602090815260409182902080546001600160a01b0319166001600160a01b038716908117909155825189815292519093507f1eb35cb4b5bbb23d152f3b4016a5a46c37a07ae930ed0956aba951e2311424389281900390910190a2611217565b816001600160a01b0316634f1ef28685836040518363ffffffff1660e01b815260040180836001600160a01b0316815260200180602001828103825283818151815260200191508051906020019080838360005b838110156111b1578181015183820152602001611199565b50505050905090810190601f1680156111de5780820380516001836020036101000a031916815260200191505b509350505050600060405180830381600087803b1580156111fe57600080fd5b505af1158015611212573d6000803e3d6000fd5b505050505b5050505050565b80516112319060019060208401906112db565b507f5e667c32fd847cf8bce48ab3400175cbf107bdc82b2dea62e3364909dfaee799816040518080602001828103825283818151815260200191508051906020019080838360005b83811015611291578181015183820152602001611279565b50505050905090810190601f1680156112be5780820380516001836020036101000a031916815260200191505b509250505060405180910390a150565b61076b8061137d83390190565b828054600181600116156101000203166002900490600052602060002090601f0160209004810192826113115760008555611357565b82601f1061132a57805160ff1916838001178555611357565b82800160010185558215611357579182015b8281111561135757825182559160200191906001019061133c565b50611363929150611367565b5090565b5b80821115611363576000815560010161136856fe60a060405234801561001057600080fd5b5060405161076b38038061076b8339818101604052602081101561003357600080fd5b5051606081901b6001600160601b0319166080526001600160a01b03166106eb61008060003980610224528061026e528061032d528061045a5280610483528061058752506106eb6000f3fe60806040526004361061004a5760003560e01c80633659cfe6146100545780634f1ef286146100875780635c60da1b14610105578063d1f5789414610136578063f851a440146101ea575b6100526101ff565b005b34801561006057600080fd5b506100526004803603602081101561007757600080fd5b50356001600160a01b0316610219565b6100526004803603604081101561009d57600080fd5b6001600160a01b038235169190810190604081016020820135600160201b8111156100c757600080fd5b8201836020820111156100d957600080fd5b803590602001918460018302840111600160201b831117156100fa57600080fd5b509092509050610263565b34801561011157600080fd5b5061011a610320565b604080516001600160a01b039092168252519081900360200190f35b6100526004803603604081101561014c57600080fd5b6001600160a01b038235169190810190604081016020820135600160201b81111561017657600080fd5b82018360208201111561018857600080fd5b803590602001918460018302840111600160201b831117156101a957600080fd5b91908080601f01602080910402602001604051908101604052809392919081815260200183838082843760009201919091525092955061036d945050505050565b3480156101f657600080fd5b5061011a61044d565b6102076104a7565b6102176102126104af565b6104c2565b565b336001600160a01b037f000000000000000000000000000000000000000000000000000000000000000016141561025857610253816104e6565b610260565b6102606101ff565b50565b336001600160a01b037f00000000000000000000000000000000000000000000000000000000000000001614156103135761029d836104e6565b6000836001600160a01b031683836040518083838082843760405192019450600093509091505080830381855af49150503d80600081146102fa576040519150601f19603f3d011682016040523d82523d6000602084013e6102ff565b606091505b505090508061030d57600080fd5b5061031b565b61031b6101ff565b505050565b6000336001600160a01b037f00000000000000000000000000000000000000000000000000000000000000001614156103625761035b6104af565b905061036a565b61036a6101ff565b90565b60006103776104af565b6001600160a01b03161461038a57600080fd5b61039382610526565b805115610449576000826001600160a01b0316826040518082805190602001908083835b602083106103d65780518252601f1990920191602091820191016103b7565b6001836020036101000a038019825116818451168082178552505050505050905001915050600060405180830381855af49150503d8060008114610436576040519150601f19603f3d011682016040523d82523d6000602084013e61043b565b606091505b505090508061031b57600080fd5b5050565b6000336001600160a01b037f000000000000000000000000000000000000000000000000000000000000000016141561036257507f000000000000000000000000000000000000000000000000000000000000000061036a565b61021761057c565b60008051602061065b8339815191525490565b3660008037600080366000845af43d6000803e8080156104e1573d6000f35b3d6000fd5b6104ef81610526565b6040516001600160a01b038216907fbc7cd75a20ee27fd9adebab32041f755214dbc6bffa90cc0225b39da2e5c2d3b90600090a250565b61052f816105ec565b61056a5760405162461bcd60e51b815260040180806020018281038252603b81526020018061067b603b913960400191505060405180910390fd5b60008051602061065b83398151915255565b336001600160a01b037f00000000000000000000000000000000000000000000000000000000000000001614156105e45760405162461bcd60e51b81526004018080602001828103825260328152602001806106296032913960400191505060405180910390fd5b610217610217565b6000813f7fc5d2460186f7233c927e7db2dcc703c0e500b653ca82273b7bfad8045d85a47081811480159061062057508115155b94935050505056fe43616e6e6f742063616c6c2066616c6c6261636b2066756e6374696f6e2066726f6d207468652070726f78792061646d696e360894a13ba1a3210667c828492db98dca3e2076cc3735a920a3ca505d382bbc43616e6e6f742073657420612070726f787920696d706c656d656e746174696f6e20746f2061206e6f6e2d636f6e74726163742061646472657373a264697066735822122065aa17e8869e8f2c3764b5472ef9fc2cc2ab2d07b340a697f45e69b09b36d8dc64736f6c634300070600334f776e61626c653a206e6577206f776e657220697320746865207a65726f2061646472657373f2689d5d5cd0c639e137642cae5d40afced201a1a0327e7ac9358461dc9fff314f776e61626c653a2063616c6c6572206973206e6f7420746865206f776e65728be0079c531659141344cd1fd0a4f28419497f9722a3daafe3b4186f6b6457e0a264697066735822122043bcd8ad0f9590a831f591118cf953bc1feab32c3efef58b92c70c7b0a34a9c264736f6c63430007060033",
  "devdoc": {
    "author": "Aave*",
    "details": "Main registry of addresses part of or connected to the protocol, including permissioned roles - Acting also as factory of proxies and admin of those, so with right to change its implementations - Owned by the Aave Governance",
    "kind": "dev",
    "methods": {
      "getAddress(bytes32)": {
        "details": "Returns an address by id",
        "returns": {
          "_0": "The address"
        }
      },
      "getLendingPool()": {
        "details": "Returns the address of the LendingPool proxy",
        "returns": {
          "_0": "The LendingPool proxy address*"
        }
      },
      "getLendingPoolCollateralManager()": {
        "details": "Returns the address of the LendingPoolCollateralManager. Since the manager is used through delegateCall within the LendingPool contract, the proxy contract pattern does not work properly hence the addresses are changed directly",
        "returns": {
          "_0": "The address of the LendingPoolCollateralManager*"
        }
      },
      "getLendingPoolConfigurator()": {
        "details": "Returns the address of the LendingPoolConfigurator proxy",
        "returns": {
          "_0": "The LendingPoolConfigurator proxy address*"
        }
      },
      "getMarketId()": {
        "details": "Returns the id of the Aave market to which this contracts points to",
        "returns": {
          "_0": "The market id*"
        }
      },
      "getPoolAdmin()": {
        "details": "The functions below are getters/setters of addresses that are outside the context of the protocol hence the upgradable proxy pattern is not used*"
      },
      "owner()": {
        "details": "Returns the address of the current owner."
      },
      "renounceOwnership()": {
        "details": "Leaves the contract without owner. It will not be possible to call `onlyOwner` functions anymore. Can only be called by the current owner. NOTE: Renouncing ownership will leave the contract without an owner, thereby removing any functionality that is only available to the owner."
      },
      "setAddress(bytes32,address)": {
        "details": "Sets an address for an id replacing the address saved in the addresses map IMPORTANT Use this function carefully, as it will do a hard replacement",
        "params": {
          "id": "The id",
          "newAddress": "The address to set"
        }
      },
      "setAddressAsProxy(bytes32,address)": {
        "details": "General function to update the implementation of a proxy registered with certain `id`. If there is no proxy registered, it will instantiate one and set as implementation the `implementationAddress` IMPORTANT Use this function carefully, only for ids that don't have an explicit setter function, in order to avoid unexpected consequences",
        "params": {
          "id": "The id",
          "implementationAddress": "The address of the new implementation"
        }
      },
      "setLendingPoolCollateralManager(address)": {
        "details": "Updates the address of the LendingPoolCollateralManager",
        "params": {
          "manager": "The new LendingPoolCollateralManager address*"
        }
      },
      "setLendingPoolConfiguratorImpl(address)": {
        "details": "Updates the implementation of the LendingPoolConfigurator, or creates the proxy setting the new `configurator` implementation on the first time calling it",
        "params": {
          "configurator": "The new LendingPoolConfigurator implementation*"
        }
      },
      "setLendingPoolImpl(address)": {
        "details": "Updates the implementation of the LendingPool, or creates the proxy setting the new `pool` implementation on the first time calling it",
        "params": {
          "pool": "The new LendingPool implementation*"
        }
      },
      "setMarketId(string)": {
        "details": "Allows to set the market which this LendingPoolAddressesProvider represents",
        "params": {
          "marketId": "The market id"
        }
      },
      "transferOwnership(address)": {
        "details": "Transfers ownership of the contract to a new account (`newOwner`). Can only be called by the current owner."
      }
    },
    "title": "LendingPoolAddressesProvider contract",
    "version": 1
  },
  "userdoc": {
    "kind": "user",
    "methods": {},
    "version": 1
  },
  "storageLayout": {
    "storage": [
      {
        "astId": 5437,
        "contract": "contracts/protocol/configuration/LendingPoolAddressesProvider.sol:LendingPoolAddressesProvider",
        "label": "_owner",
        "offset": 0,
        "slot": "0",
        "type": "t_address"
      },
      {
        "astId": 24526,
        "contract": "contracts/protocol/configuration/LendingPoolAddressesProvider.sol:LendingPoolAddressesProvider",
        "label": "_marketId",
        "offset": 0,
        "slot": "1",
        "type": "t_string_storage"
      },
      {
        "astId": 24530,
        "contract": "contracts/protocol/configuration/LendingPoolAddressesProvider.sol:LendingPoolAddressesProvider",
        "label": "_addresses",
        "offset": 0,
        "slot": "2",
        "type": "t_mapping(t_bytes32,t_address)"
      },
      {
        "astId": 24532,
        "contract": "contracts/protocol/configuration/LendingPoolAddressesProvider.sol:LendingPoolAddressesProvider",
        "label": "_liquidationFeeTo",
        "offset": 0,
        "slot": "3",
        "type": "t_address"
      }
    ],
    "types": {
      "t_address": {
        "encoding": "inplace",
        "label": "address",
        "numberOfBytes": "20"
      },
      "t_bytes32": {
        "encoding": "inplace",
        "label": "bytes32",
        "numberOfBytes": "32"
      },
      "t_mapping(t_bytes32,t_address)": {
        "encoding": "mapping",
        "key": "t_bytes32",
        "label": "mapping(bytes32 => address)",
        "numberOfBytes": "32",
        "value": "t_address"
      },
      "t_string_storage": {
        "encoding": "bytes",
        "label": "string",
        "numberOfBytes": "32"
      }
    }
  }
}