{
  "address": "0x28C56d6db4466D081D946FF4910a09C296f62488",
  "abi": [
    {
      "anonymous": false,
      "inputs": [
        {
          "indexed": true,
          "internalType": "address",
          "name": "newAddress",
          "type": "address"
        }
      ],
      "name": "AddressesProviderRegistered",
      "type": "event"
    },
    {
      "anonymous": false,
      "inputs": [
        {
          "indexed": true,
          "internalType": "address",
          "name": "newAddress",
          "type": "address"
        }
      ],
      "name": "AddressesProviderUnregistered",
      "type": "event"
    },
    {
      "anonymous": false,
      "inputs": [
        {
          "indexed": true,
          "internalType": "address",
          "name": "previousOwner",
          "type": "address"
        },
        {
          "indexed": true,
          "internalType": "address",
          "name": "newOwner",
          "type": "address"
        }
      ],
      "name": "OwnershipTransferred",
      "type": "event"
    },
    {
      "inputs": [
        {
          "internalType": "address",
          "name": "addressesProvider",
          "type": "address"
        }
      ],
      "name": "getAddressesProviderIdByAddress",
      "outputs": [
        {
          "internalType": "uint256",
          "name": "",
          "type": "uint256"
        }
      ],
      "stateMutability": "view",
      "type": "function"
    },
    {
      "inputs": [],
      "name": "getAddressesProvidersList",
      "outputs": [
        {
          "internalType": "address[]",
          "name": "",
          "type": "address[]"
        }
      ],
      "stateMutability": "view",
      "type": "function"
    },
    {
      "inputs": [],
      "name": "owner",
      "outputs": [
        {
          "internalType": "address",
          "name": "",
          "type": "address"
        }
      ],
      "stateMutability": "view",
      "type": "function"
    },
    {
      "inputs": [
        {
          "internalType": "address",
          "name": "provider",
          "type": "address"
        },
        {
          "internalType": "uint256",
          "name": "id",
          "type": "uint256"
        }
      ],
      "name": "registerAddressesProvider",
      "outputs": [],
      "stateMutability": "nonpayable",
      "type": "function"
    },
    {
      "inputs": [],
      "name": "renounceOwnership",
      "outputs": [],
      "stateMutability": "nonpayable",
      "type": "function"
    },
    {
      "inputs": [
        {
          "internalType": "address",
          "name": "newOwner",
          "type": "address"
        }
      ],
      "name": "transferOwnership",
      "outputs": [],
      "stateMutability": "nonpayable",
      "type": "function"
    },
    {
      "inputs": [
        {
          "internalType": "address",
          "name": "provider",
          "type": "address"
        }
      ],
      "name": "unregisterAddressesProvider",
      "outputs": [],
      "stateMutability": "nonpayable",
      "type": "function"
    }
  ],
  "transactionHash": "0xa9a180e6e6b8ee370b4d9067c076201e0e98bcd4cd24d31b639ea4876f2314d1",
  "args": [],
  "numDeployments": 1,
  "solcInputHash": "78995fe69be866012cdea8ea4c4842de",
  "bytecode": "0x608060405234801561001057600080fd5b50600061001b61006a565b600080546001600160a01b0319166001600160a01b0383169081178255604051929350917f8be0079c531659141344cd1fd0a4f28419497f9722a3daafe3b4186f6b6457e0908290a35061006e565b3390565b6108558061007d6000396000f3fe608060405234801561001057600080fd5b506004361061006d5760003560e01c80630de2670714610072578063365ccbbf1461009a578063715018a6146100f25780638da5cb5b146100fa578063d0267be71461011e578063d258191e14610156578063f2fde38b14610182575b600080fd5b6100986004803603602081101561008857600080fd5b50356001600160a01b03166101a8565b005b6100a2610312565b60408051602080825283518183015283519192839290830191858101910280838360005b838110156100de5781810151838201526020016100c6565b505050509050019250505060405180910390f35b61009861045b565b6101026104eb565b604080516001600160a01b039092168252519081900360200190f35b6101446004803603602081101561013457600080fd5b50356001600160a01b03166104fa565b60408051918252519081900360200190f35b6100986004803603604081101561016c57600080fd5b506001600160a01b038135169060200135610515565b6100986004803603602081101561019857600080fd5b50356001600160a01b031661062f565b6101b0610715565b6000546001600160a01b03908116911614610200576040805162461bcd60e51b815260206004820181905260248201526000805160206107e0833981519152604482015290519081900360640190fd5b600060016000836001600160a01b03166001600160a01b03168152602001908152602001600020541160405180604001604052806002815260200161343160f01b815250906102cd5760405162461bcd60e51b81526004018080602001828103825283818151815260200191508051906020019080838360005b8381101561029257818101518382015260200161027a565b50505050905090810190601f1680156102bf5780820380516001836020036101000a031916815260200191505b509250505060405180910390fd5b506001600160a01b038116600081815260016020526040808220829055517f851e5971c053e6b76e3a1e0b8ffa81430df738007fad86e195c409a757faccd29190a250565b60606000600280548060200260200160405190810160405280929190818152602001828054801561036c57602002820191906000526020600020905b81546001600160a01b0316815260019091019060200180831161034e575b505050505090506000815190506000816001600160401b038111801561039157600080fd5b506040519080825280602002602001820160405280156103bb578160200160208202803683370190505b50905060005b82811015610453576000600160008684815181106103db57fe5b60200260200101516001600160a01b03166001600160a01b0316815260200190815260200160002054111561044b5783818151811061041657fe5b602002602001015182828151811061042a57fe5b60200260200101906001600160a01b031690816001600160a01b0316815250505b6001016103c1565b509250505090565b610463610715565b6000546001600160a01b039081169116146104b3576040805162461bcd60e51b815260206004820181905260248201526000805160206107e0833981519152604482015290519081900360640190fd5b600080546040516001600160a01b0390911690600080516020610800833981519152908390a3600080546001600160a01b0319169055565b6000546001600160a01b031690565b6001600160a01b031660009081526001602052604090205490565b61051d610715565b6000546001600160a01b0390811691161461056d576040805162461bcd60e51b815260206004820181905260248201526000805160206107e0833981519152604482015290519081900360640190fd5b6040805180820190915260028152611b9960f11b6020820152816105d25760405162461bcd60e51b815260206004820181815283516024840152835190928392604490910191908501908083836000831561029257818101518382015260200161027a565b506001600160a01b03821660009081526001602052604090208190556105f782610719565b6040516001600160a01b038316907f2db38786c10176b033a1608361716b0ca992e3af55dc05b6dc710969790beeda90600090a25050565b610637610715565b6000546001600160a01b03908116911614610687576040805162461bcd60e51b815260206004820181905260248201526000805160206107e0833981519152604482015290519081900360640190fd5b6001600160a01b0381166106cc5760405162461bcd60e51b81526004018080602001828103825260268152602001806107ba6026913960400191505060405180910390fd5b600080546040516001600160a01b038085169392169160008051602061080083398151915291a3600080546001600160a01b0319166001600160a01b0392909216919091179055565b3390565b60025460005b8181101561076857826001600160a01b03166002828154811061073e57fe5b6000918252602090912001546001600160a01b031614156107605750506107b6565b60010161071f565b5050600280546001810182556000919091527f405787fa12a823e0f2b7631cc41b3ba8828b3321ca811111fa75cd3aa3bb5ace0180546001600160a01b0319166001600160a01b0383161790555b5056fe4f776e61626c653a206e6577206f776e657220697320746865207a65726f20616464726573734f776e61626c653a2063616c6c6572206973206e6f7420746865206f776e65728be0079c531659141344cd1fd0a4f28419497f9722a3daafe3b4186f6b6457e0a26469706673582212207c72fffc8b68023ab7234630f28bcd329f377273c61be7f057dc33cbf4a52f6e64736f6c63430007060033",
  "devdoc": {
    "author": "Aave*",
    "details": "Main registry of LendingPoolAddressesProvider of multiple Aave protocol's markets - Used for indexing purposes of Aave protocol's markets - The id assigned to a LendingPoolAddressesProvider refers to the market it is connected with,   for example with `0` for the Aave main market and `1` for the next created",
    "kind": "dev",
    "methods": {
      "getAddressesProviderIdByAddress(address)": {
        "details": "Returns the id on a registered LendingPoolAddressesProvider",
        "returns": {
          "_0": "The id or 0 if the LendingPoolAddressesProvider is not registered"
        }
      },
      "getAddressesProvidersList()": {
        "details": "Returns the list of registered addresses provider",
        "returns": {
          "_0": "The list of addresses provider, potentially containing address(0) elements*"
        }
      },
      "owner()": {
        "details": "Returns the address of the current owner."
      },
      "registerAddressesProvider(address,uint256)": {
        "details": "Registers an addresses provider",
        "params": {
          "id": "The id for the new LendingPoolAddressesProvider, referring to the market it belongs to*",
          "provider": "The address of the new LendingPoolAddressesProvider"
        }
      },
      "renounceOwnership()": {
        "details": "Leaves the contract without owner. It will not be possible to call `onlyOwner` functions anymore. Can only be called by the current owner. NOTE: Renouncing ownership will leave the contract without an owner, thereby removing any functionality that is only available to the owner."
      },
      "transferOwnership(address)": {
        "details": "Transfers ownership of the contract to a new account (`newOwner`). Can only be called by the current owner."
      },
      "unregisterAddressesProvider(address)": {
        "details": "Removes a LendingPoolAddressesProvider from the list of registered addresses provider",
        "params": {
          "provider": "The LendingPoolAddressesProvider address*"
        }
      }
    },
    "title": "LendingPoolAddressesProviderRegistry contract",
    "version": 1
  },
  "userdoc": {
    "kind": "user",
    "methods": {},
    "version": 1
  },
  "storageLayout": {
    "storage": [
      {
        "astId": 5437,
        "contract": "contracts/protocol/configuration/LendingPoolAddressesProviderRegistry.sol:LendingPoolAddressesProviderRegistry",
        "label": "_owner",
        "offset": 0,
        "slot": "0",
        "type": "t_address"
      },
      {
        "astId": 25006,
        "contract": "contracts/protocol/configuration/LendingPoolAddressesProviderRegistry.sol:LendingPoolAddressesProviderRegistry",
        "label": "_addressesProviders",
        "offset": 0,
        "slot": "1",
        "type": "t_mapping(t_address,t_uint256)"
      },
      {
        "astId": 25009,
        "contract": "contracts/protocol/configuration/LendingPoolAddressesProviderRegistry.sol:LendingPoolAddressesProviderRegistry",
        "label": "_addressesProvidersList",
        "offset": 0,
        "slot": "2",
        "type": "t_array(t_address)dyn_storage"
      }
    ],
    "types": {
      "t_address": {
        "encoding": "inplace",
        "label": "address",
        "numberOfBytes": "20"
      },
      "t_array(t_address)dyn_storage": {
        "base": "t_address",
        "encoding": "dynamic_array",
        "label": "address[]",
        "numberOfBytes": "32"
      },
      "t_mapping(t_address,t_uint256)": {
        "encoding": "mapping",
        "key": "t_address",
        "label": "mapping(address => uint256)",
        "numberOfBytes": "32",
        "value": "t_uint256"
      },
      "t_uint256": {
        "encoding": "inplace",
        "label": "uint256",
        "numberOfBytes": "32"
      }
    }
  }
}