{
  "address": "0x4bE15451324ac4b14E65C42585Ecc8d8F388eec4",
  "abi": [
    {
      "inputs": [
        {
          "internalType": "contract ILendingPool",
          "name": "_lendingPool",
          "type": "address"
        },
        {
          "internalType": "contract IEligibilityDataProvider",
          "name": "_rewardEligibleDataProvider",
          "type": "address"
        },
        {
          "internalType": "contract IAaveOracle",
          "name": "_aaveOracle",
          "type": "address"
        },
        {
          "internalType": "contract ILockZap",
          "name": "_lockZap",
          "type": "address"
        },
        {
          "internalType": "contract IWETH",
          "name": "_weth",
          "type": "address"
        },
        {
          "internalType": "uint256",
          "name": "_feePercent",
          "type": "uint256"
        },
        {
          "internalType": "address",
          "name": "_treasury",
          "type": "address"
        }
      ],
      "stateMutability": "nonpayable",
      "type": "constructor"
    },
    {
      "anonymous": false,
      "inputs": [
        {
          "indexed": false,
          "internalType": "uint256",
          "name": "_feePercent",
          "type": "uint256"
        }
      ],
      "name": "FeePercentUpdated",
      "type": "event"
    },
    {
      "anonymous": false,
      "inputs": [
        {
          "indexed": true,
          "internalType": "address",
          "name": "previousOwner",
          "type": "address"
        },
        {
          "indexed": true,
          "internalType": "address",
          "name": "newOwner",
          "type": "address"
        }
      ],
      "name": "OwnershipTransferred",
      "type": "event"
    },
    {
      "anonymous": false,
      "inputs": [
        {
          "indexed": true,
          "internalType": "address",
          "name": "_treasury",
          "type": "address"
        }
      ],
      "name": "TreasuryUpdated",
      "type": "event"
    },
    {
      "stateMutability": "payable",
      "type": "fallback"
    },
    {
      "inputs": [],
      "name": "API_ETH_MOCK_ADDRESS",
      "outputs": [
        {
          "internalType": "address",
          "name": "",
          "type": "address"
        }
      ],
      "stateMutability": "view",
      "type": "function"
    },
    {
      "inputs": [],
      "name": "RATIO_DIVISOR",
      "outputs": [
        {
          "internalType": "uint256",
          "name": "",
          "type": "uint256"
        }
      ],
      "stateMutability": "view",
      "type": "function"
    },
    {
      "inputs": [],
      "name": "aaveOracle",
      "outputs": [
        {
          "internalType": "contract IAaveOracle",
          "name": "",
          "type": "address"
        }
      ],
      "stateMutability": "view",
      "type": "function"
    },
    {
      "inputs": [],
      "name": "eligibilityDataProvider",
      "outputs": [
        {
          "internalType": "contract IEligibilityDataProvider",
          "name": "",
          "type": "address"
        }
      ],
      "stateMutability": "view",
      "type": "function"
    },
    {
      "inputs": [],
      "name": "feePercent",
      "outputs": [
        {
          "internalType": "uint256",
          "name": "",
          "type": "uint256"
        }
      ],
      "stateMutability": "view",
      "type": "function"
    },
    {
      "inputs": [
        {
          "internalType": "address",
          "name": "asset",
          "type": "address"
        }
      ],
      "name": "getConfiguration",
      "outputs": [
        {
          "components": [
            {
              "internalType": "uint256",
              "name": "data",
              "type": "uint256"
            }
          ],
          "internalType": "struct DataTypes.ReserveConfigurationMap",
          "name": "",
          "type": "tuple"
        }
      ],
      "stateMutability": "view",
      "type": "function"
    },
    {
      "inputs": [
        {
          "internalType": "address",
          "name": "asset",
          "type": "address"
        }
      ],
      "name": "getVDebtToken",
      "outputs": [
        {
          "internalType": "address",
          "name": "",
          "type": "address"
        }
      ],
      "stateMutability": "view",
      "type": "function"
    },
    {
      "inputs": [],
      "name": "lendingPool",
      "outputs": [
        {
          "internalType": "contract ILendingPool",
          "name": "",
          "type": "address"
        }
      ],
      "stateMutability": "view",
      "type": "function"
    },
    {
      "inputs": [],
      "name": "lockZap",
      "outputs": [
        {
          "internalType": "contract ILockZap",
          "name": "",
          "type": "address"
        }
      ],
      "stateMutability": "view",
      "type": "function"
    },
    {
      "inputs": [
        {
          "internalType": "address",
          "name": "asset",
          "type": "address"
        },
        {
          "internalType": "uint256",
          "name": "amount",
          "type": "uint256"
        },
        {
          "internalType": "uint256",
          "name": "interestRateMode",
          "type": "uint256"
        },
        {
          "internalType": "uint256",
          "name": "borrowRatio",
          "type": "uint256"
        },
        {
          "internalType": "uint256",
          "name": "loopCount",
          "type": "uint256"
        },
        {
          "internalType": "bool",
          "name": "isBorrow",
          "type": "bool"
        }
      ],
      "name": "loop",
      "outputs": [],
      "stateMutability": "nonpayable",
      "type": "function"
    },
    {
      "inputs": [
        {
          "internalType": "uint256",
          "name": "interestRateMode",
          "type": "uint256"
        },
        {
          "internalType": "uint256",
          "name": "borrowRatio",
          "type": "uint256"
        },
        {
          "internalType": "uint256",
          "name": "loopCount",
          "type": "uint256"
        }
      ],
      "name": "loopETH",
      "outputs": [],
      "stateMutability": "payable",
      "type": "function"
    },
    {
      "inputs": [
        {
          "internalType": "address",
          "name": "asset",
          "type": "address"
        }
      ],
      "name": "ltv",
      "outputs": [
        {
          "internalType": "uint256",
          "name": "",
          "type": "uint256"
        }
      ],
      "stateMutability": "view",
      "type": "function"
    },
    {
      "inputs": [],
      "name": "owner",
      "outputs": [
        {
          "internalType": "address",
          "name": "",
          "type": "address"
        }
      ],
      "stateMutability": "view",
      "type": "function"
    },
    {
      "inputs": [],
      "name": "renounceOwnership",
      "outputs": [],
      "stateMutability": "nonpayable",
      "type": "function"
    },
    {
      "inputs": [
        {
          "internalType": "uint256",
          "name": "_feePercent",
          "type": "uint256"
        }
      ],
      "name": "setFeePercent",
      "outputs": [],
      "stateMutability": "nonpayable",
      "type": "function"
    },
    {
      "inputs": [
        {
          "internalType": "address",
          "name": "_treasury",
          "type": "address"
        }
      ],
      "name": "setTreasury",
      "outputs": [],
      "stateMutability": "nonpayable",
      "type": "function"
    },
    {
      "inputs": [
        {
          "internalType": "address",
          "name": "newOwner",
          "type": "address"
        }
      ],
      "name": "transferOwnership",
      "outputs": [],
      "stateMutability": "nonpayable",
      "type": "function"
    },
    {
      "inputs": [],
      "name": "treasury",
      "outputs": [
        {
          "internalType": "address",
          "name": "",
          "type": "address"
        }
      ],
      "stateMutability": "view",
      "type": "function"
    },
    {
      "inputs": [],
      "name": "weth",
      "outputs": [
        {
          "internalType": "contract IWETH",
          "name": "",
          "type": "address"
        }
      ],
      "stateMutability": "view",
      "type": "function"
    },
    {
      "inputs": [
        {
          "internalType": "address",
          "name": "user",
          "type": "address"
        }
      ],
      "name": "wethToZap",
      "outputs": [
        {
          "internalType": "uint256",
          "name": "",
          "type": "uint256"
        }
      ],
      "stateMutability": "view",
      "type": "function"
    },
    {
      "inputs": [
        {
          "internalType": "address",
          "name": "user",
          "type": "address"
        },
        {
          "internalType": "address",
          "name": "asset",
          "type": "address"
        },
        {
          "internalType": "uint256",
          "name": "amount",
          "type": "uint256"
        },
        {
          "internalType": "uint256",
          "name": "borrowRatio",
          "type": "uint256"
        },
        {
          "internalType": "uint256",
          "name": "loopCount",
          "type": "uint256"
        }
      ],
      "name": "wethToZapEstimation",
      "outputs": [
        {
          "internalType": "uint256",
          "name": "",
          "type": "uint256"
        }
      ],
      "stateMutability": "view",
      "type": "function"
    },
    {
      "inputs": [
        {
          "internalType": "uint256",
          "name": "amount",
          "type": "uint256"
        },
        {
          "internalType": "address",
          "name": "borrower",
          "type": "address"
        }
      ],
      "name": "zapWETHWithBorrow",
      "outputs": [
        {
          "internalType": "uint256",
          "name": "liquidity",
          "type": "uint256"
        }
      ],
      "stateMutability": "nonpayable",
      "type": "function"
    },
    {
      "stateMutability": "payable",
      "type": "receive"
    }
  ],
  "transactionHash": "0x884e5bb8805a13a9e771713e038f9504323de61331ab671173307fbc09a8fb29",
  "args": [
    "0x00175A6E2c1d498F04B471C85194C1bed6b3950d",
    "0x9927c9b2F8dBD0ee6EBf2bAD97b5aaf132Ea6A86",
    "0x5f083c18b59755f67967A97063f1dc5cF66124EB",
    "0x7E9CbA1182cDc063Fc76935452D70589399151de",
    "0xb78dC8Cb950AF587526E182A7A36a907F8bC6A59",
    "0",
    "0xA3De96858FD006fd978eA2D55Efe6b125012f485"
  ],
  "numDeployments": 1,
  "solcInputHash": "78995fe69be866012cdea8ea4c4842de",
  "bytecode": "0x60806040523480156200001157600080fd5b5060405162002b8d38038062002b8d833981016040819052620000349162000206565b60006200004062000202565b600080546001600160a01b0319166001600160a01b0383169081178255604051929350917f8be0079c531659141344cd1fd0a4f28419497f9722a3daafe3b4186f6b6457e0908290a3506001600160a01b038716620000bc5760405162461bcd60e51b8152600401620000b390620002a4565b60405180910390fd5b6001600160a01b038616620000e55760405162461bcd60e51b8152600401620000b390620002a4565b6001600160a01b0385166200010e5760405162461bcd60e51b8152600401620000b390620002a4565b6001600160a01b038416620001375760405162461bcd60e51b8152600401620000b390620002a4565b6001600160a01b038316620001605760405162461bcd60e51b8152600401620000b390620002a4565b6001600160a01b038116620001895760405162461bcd60e51b8152600401620000b390620002a4565b600180546001600160a01b03199081166001600160a01b03998a1617909155600280548216978916979097179096556003805487169488169490941790935560058054861694871694909417909355600480548516918616919091179055600691909155600780549092169216919091179055620002f4565b3390565b600080600080600080600060e0888a03121562000221578283fd5b87516200022e81620002db565b60208901519097506200024181620002db565b60408901519096506200025481620002db565b60608901519095506200026781620002db565b60808901519094506200027a81620002db565b60a089015160c08a015191945092506200029481620002db565b8091505092959891949750929550565b60208082526013908201527f4e6f7420612076616c6964206164647265737300000000000000000000000000604082015260600190565b6001600160a01b0381168114620002f157600080fd5b50565b61288980620003046000396000f3fe6080604052600436106101095760003560e01c806303bf24e51461015b57806306346c3014610191578063171b3e43146101b35780633fc8cef3146101d3578063602acb7e146101e857806361d027b3146101fd5780636372b28114610212578063667f3745146102275780636a7e9f3314610247578063715018a61461025c5780637473eea61461027157806376e82e8b146102915780637ce3489b146102a65780637fd6f15c146102c65780638da5cb5b146102db578063a59a9973146102f0578063a8d5a45214610305578063c44b11f714610318578063cd498dc414610345578063ec67ff7314610365578063f0f4426014610385578063f2fde38b146103a557610143565b36610143576004546001600160a01b031633146101415760405162461bcd60e51b81526004016101389061269d565b60405180910390fd5b005b60405162461bcd60e51b81526004016101389061266f565b34801561016757600080fd5b5061017b6101763660046122e9565b6103c5565b6040516101889190612728565b60405180910390f35b34801561019d57600080fd5b506101a66106d9565b60405161018891906125ba565b3480156101bf57600080fd5b506101416101ce366004612371565b6106e8565b3480156101df57600080fd5b506101a6610a74565b3480156101f457600080fd5b506101a6610a83565b34801561020957600080fd5b506101a6610a9b565b34801561021e57600080fd5b506101a6610aaa565b34801561023357600080fd5b506101a66102423660046122e9565b610ab9565b34801561025357600080fd5b5061017b610b4b565b34801561026857600080fd5b50610141610b51565b34801561027d57600080fd5b5061017b61028c3660046122e9565b610be1565b34801561029d57600080fd5b506101a6610c72565b3480156102b257600080fd5b506101416102c13660046124dd565b610c81565b3480156102d257600080fd5b5061017b610d3b565b3480156102e757600080fd5b506101a6610d41565b3480156102fc57600080fd5b506101a6610d50565b61014161031336600461253c565b610d5f565b34801561032457600080fd5b506103386103333660046122e9565b6111e2565b604051610188919061271e565b34801561035157600080fd5b5061017b610360366004612321565b611270565b34801561037157600080fd5b5061017b61038036600461250d565b61164c565b34801561039157600080fd5b506101416103a03660046122e9565b611829565b3480156103b157600080fd5b506101416103c03660046122e9565b6118cb565b6002546040516371c7ee1b60e11b815260009182916001600160a01b039091169063e38fdc36906103fa9086906004016125ba565b60206040518083038186803b15801561041257600080fd5b505afa158015610426573d6000803e3d6000fd5b505050506040513d601f19601f8201168201806040525081019061044a91906124f5565b600254604051636d9077cb60e01b81529192506000916001600160a01b0390911690636d9077cb906104809087906004016125ba565b60206040518083038186803b15801561049857600080fd5b505afa1580156104ac573d6000803e3d6000fd5b505050506040513d601f19601f820116820180604052508101906104d091906124f5565b90508181106104e4576000925050506106d4565b60006104f083836119b1565b6005546004805460405163b3596f0760e01b81529394506000936001600160a01b039384169363b3596f079361052a9390911691016125ba565b60206040518083038186803b15801561054257600080fd5b505afa158015610556573d6000803e3d6000fd5b505050506040513d601f19601f8201168201806040525081019061057a91906124f5565b60055460048054604051630495f95f60e51b81529394506000936001600160a01b03938416936392bf2be0936105b49390911691016125ba565b60206040518083038186803b1580156105cc57600080fd5b505afa1580156105e0573d6000803e3d6000fd5b505050506040513d601f19601f820116820180604052508101906106049190612305565b6001600160a01b031663313ce5676040518163ffffffff1660e01b815260040160206040518083038186803b15801561063c57600080fd5b505afa158015610650573d6000803e3d6000fd5b505050506040513d601f19601f820116820180604052508101906106749190612567565b905060006106aa6305f5e1006106a4858160ff8716600a0a61069e8a670de0b6b3a76400006119fa565b906119fa565b90611a53565b90506106c66106bf60646106a48460066119fa565b8290611a92565b96506106d495505050505050565b919050565b6003546001600160a01b031681565b61271083111561070a5760405162461bcd60e51b8152600401610138906126f7565b6000808261076c576107276001600160a01b03891633308a611aea565b6107426127106106a46006548a6119fa90919063ffffffff16565b60075490915061075f906001600160a01b038a8116911683611b4a565b61076987826119b1565b96505b600154604051636eb1769f60e11b81526001600160a01b03808b169263dd62ed3e9261079e92309216906004016125ce565b60206040518083038186803b1580156107b657600080fd5b505afa1580156107ca573d6000803e3d6000fd5b505050506040513d601f19601f820116820180604052508101906107ee91906124f5565b61080e5760015461080e906001600160a01b038a81169116600019611ba1565b600754604051636eb1769f60e11b81526001600160a01b03808b169263dd62ed3e9261084092309216906004016125ce565b60206040518083038186803b15801561085857600080fd5b505afa15801561086c573d6000803e3d6000fd5b505050506040513d601f19601f8201168201806040525081019061089091906124f5565b6108b0576007546108b0906001600160a01b038a81169116600019611ba1565b8261091e5760015460405163e8eda9df60e01b81526001600160a01b039091169063e8eda9df906108eb908b908b90339088906004016125e8565b600060405180830381600087803b15801561090557600080fd5b505af1158015610919573d6000803e3d6000fd5b505050505b60005b84811015610a56576109396127106106a48a896119fa565b60015460405163a415bcad60e01b81529199506001600160a01b03169063a415bcad90610972908c908c908c9089903390600401612615565b600060405180830381600087803b15801561098c57600080fd5b505af11580156109a0573d6000803e3d6000fd5b505050506109bf6127106106a46006548b6119fa90919063ffffffff16565b6007549092506109dc906001600160a01b038b8116911684611b4a565b6001546001600160a01b031663e8eda9df8a6109f88b866119b1565b33876040518563ffffffff1660e01b8152600401610a1994939291906125e8565b600060405180830381600087803b158015610a3357600080fd5b505af1158015610a47573d6000803e3d6000fd5b50505050600181019050610921565b50610a69610a63336103c5565b3361164c565b505050505050505050565b6004546001600160a01b031681565b73eeeeeeeeeeeeeeeeeeeeeeeeeeeeeeeeeeeeeeee81565b6007546001600160a01b031681565b6005546001600160a01b031681565b6001546040516335ea6a7560e01b815260009182916001600160a01b03909116906335ea6a7590610aee9086906004016125ba565b6101806040518083038186803b158015610b0757600080fd5b505afa158015610b1b573d6000803e3d6000fd5b505050506040513d601f19601f82011682018060405250810190610b3f91906123ed565b61012001519392505050565b61271081565b610b59611cb4565b6000546001600160a01b03908116911614610ba9576040805162461bcd60e51b815260206004820181905260248201526000805160206127b4833981519152604482015290519081900360640190fd5b600080546040516001600160a01b03909116906000805160206127d4833981519152908390a3600080546001600160a01b0319169055565b60015460405163c44b11f760e01b815260009182916001600160a01b039091169063c44b11f790610c169086906004016125ba565b60206040518083038186803b158015610c2e57600080fd5b505afa158015610c42573d6000803e3d6000fd5b505050506040513d601f19601f82011682018060405250810190610c6691906123d2565b5161ffff169392505050565b6002546001600160a01b031681565b610c89611cb4565b6000546001600160a01b03908116911614610cd9576040805162461bcd60e51b815260206004820181905260248201526000805160206127b4833981519152604482015290519081900360640190fd5b612710811115610cfb5760405162461bcd60e51b8152600401610138906126f7565b60068190556040517f64d1887078a96d281ed60dd69ba75bfb6b5cd2cb4c2d2538b2eb7816a4c646ea90610d30908390612728565b60405180910390a150565b60065481565b6000546001600160a01b031690565b6001546001600160a01b031681565b60048054600154604051636eb1769f60e11b815260009334936001600160a01b039081169363dd62ed3e93610d9a93309390921691016125ce565b60206040518083038186803b158015610db257600080fd5b505afa158015610dc6573d6000803e3d6000fd5b505050506040513d601f19601f82011682018060405250810190610dea91906124f5565b610e0d57600154600454610e0d916001600160a01b039182169116600019611ba1565b60048054600754604051636eb1769f60e11b81526001600160a01b039283169363dd62ed3e93610e42933093911691016125ce565b60206040518083038186803b158015610e5a57600080fd5b505afa158015610e6e573d6000803e3d6000fd5b505050506040513d601f19601f82011682018060405250810190610e9291906124f5565b610eb557600754600454610eb5916001600160a01b039182169116600019611ba1565b6000610ed26127106106a4600654856119fa90919063ffffffff16565b600754909150610eeb906001600160a01b031682611cb8565b610ef582826119b1565b9150600460009054906101000a90046001600160a01b03166001600160a01b031663d0e30db0836040518263ffffffff1660e01b81526004016000604051808303818588803b158015610f4757600080fd5b505af1158015610f5b573d6000803e3d6000fd5b50506001546004805460405163e8eda9df60e01b81526001600160a01b03938416965063e8eda9df9550610f999450921691879133918a91016125e8565b600060405180830381600087803b158015610fb357600080fd5b505af1158015610fc7573d6000803e3d6000fd5b5050505060005b848110156111cc57610fe66127106106a485896119fa565b6001546004805460405163a415bcad60e01b81529396506001600160a01b039283169363a415bcad936110249392169188918d918b91339101612615565b600060405180830381600087803b15801561103e57600080fd5b505af1158015611052573d6000803e3d6000fd5b505060048054604051632e1a7d4d60e01b81526001600160a01b039091169350632e1a7d4d925061108591879101612728565b600060405180830381600087803b15801561109f57600080fd5b505af11580156110b3573d6000803e3d6000fd5b505050506110d26127106106a4600654866119fa90919063ffffffff16565b6007549092506110eb906001600160a01b031683611cb8565b6004546001600160a01b031663d0e30db061110685856119b1565b6040518263ffffffff1660e01b81526004016000604051808303818588803b15801561113157600080fd5b505af1158015611145573d6000803e3d6000fd5b50506001546004546001600160a01b03918216945063e8eda9df935016905061116e86866119b1565b33886040518563ffffffff1660e01b815260040161118f94939291906125e8565b600060405180830381600087803b1580156111a957600080fd5b505af11580156111bd573d6000803e3d6000fd5b50505050600181019050610fce565b506111d9610a63336103c5565b50505050505050565b6111ea612254565b60015460405163c44b11f760e01b81526001600160a01b039091169063c44b11f79061121a9085906004016125ba565b60206040518083038186803b15801561123257600080fd5b505afa158015611246573d6000803e3d6000fd5b505050506040513d601f19601f8201168201806040525081019061126a91906123d2565b92915050565b60006001600160a01b03851673eeeeeeeeeeeeeeeeeeeeeeeeeeeeeeeeeeeeeeee14156112a6576004546001600160a01b031694505b6002546040516371c7ee1b60e11b81526000916001600160a01b03169063e38fdc36906112d7908a906004016125ba565b60206040518083038186803b1580156112ef57600080fd5b505afa158015611303573d6000803e3d6000fd5b505050506040513d601f19601f8201168201806040525081019061132791906124f5565b600254604051636d9077cb60e01b81529192506000916001600160a01b0390911690636d9077cb9061135d908b906004016125ba565b60206040518083038186803b15801561137557600080fd5b505afa158015611389573d6000803e3d6000fd5b505050506040513d601f19601f820116820180604052508101906113ad91906124f5565b905060006113cc6127106106a46006548a6119fa90919063ffffffff16565b90506113d887826119b1565b96506113ee6113e78989611d45565b8490611a92565b925060005b858110156114515761140b6127106106a48a8a6119fa565b97506114286127106106a46006548b6119fa90919063ffffffff16565b91506114476114408a61143b8b866119b1565b611d45565b8590611a92565b93506001016113f3565b508282106114655760009350505050611643565b600061147184846119b1565b6005546004805460405163b3596f0760e01b81529394506000936001600160a01b039384169363b3596f07936114ab9390911691016125ba565b60206040518083038186803b1580156114c357600080fd5b505afa1580156114d7573d6000803e3d6000fd5b505050506040513d601f19601f820116820180604052508101906114fb91906124f5565b60055460048054604051630495f95f60e51b81529394506000936001600160a01b03938416936392bf2be0936115359390911691016125ba565b60206040518083038186803b15801561154d57600080fd5b505afa158015611561573d6000803e3d6000fd5b505050506040513d601f19601f820116820180604052508101906115859190612305565b6001600160a01b031663313ce5676040518163ffffffff1660e01b815260040160206040518083038186803b1580156115bd57600080fd5b505afa1580156115d1573d6000803e3d6000fd5b505050506040513d601f19601f820116820180604052508101906115f59190612567565b9050600061161f6305f5e1006106a4858160ff8716600a0a61069e8a670de0b6b3a76400006119fa565b90506116346106bf60646106a48460066119fa565b97506116439650505050505050565b95945050505050565b6000336001600160a01b038316148061166f57506001546001600160a01b031633145b61167857600080fd5b821561126a576001546004805460405163a415bcad60e01b81526000936001600160a01b039081169363a415bcad936116bd93921691899160029188918b9101612615565b600060405180830381600087803b1580156116d757600080fd5b505af11580156116eb573d6000803e3d6000fd5b505060048054600354604051636eb1769f60e11b81526001600160a01b03928316955063dd62ed3e945061172593309390921691016125ce565b60206040518083038186803b15801561173d57600080fd5b505afa158015611751573d6000803e3d6000fd5b505050506040513d601f19601f8201168201806040525081019061177591906124f5565b61179857600354600454611798916001600160a01b039182169116600019611ba1565b60035460405163d478088560e01b81526001600160a01b039091169063d4780885906117cf90600090889082908990600401612649565b602060405180830381600087803b1580156117e957600080fd5b505af11580156117fd573d6000803e3d6000fd5b505050506040513d601f19601f8201168201806040525081019061182191906124f5565b949350505050565b611831611cb4565b6000546001600160a01b03908116911614611881576040805162461bcd60e51b815260206004820181905260248201526000805160206127b4833981519152604482015290519081900360640190fd5b600780546001600160a01b0319166001600160a01b0383169081179091556040517f7dae230f18360d76a040c81f050aa14eb9d6dc7901b20fc5d855e2a20fe814d190600090a250565b6118d3611cb4565b6000546001600160a01b03908116911614611923576040805162461bcd60e51b815260206004820181905260248201526000805160206127b4833981519152604482015290519081900360640190fd5b6001600160a01b0381166119685760405162461bcd60e51b815260040180806020018281038252602681526020018061276d6026913960400191505060405180910390fd5b600080546040516001600160a01b03808516939216916000805160206127d483398151915291a3600080546001600160a01b0319166001600160a01b0392909216919091179055565b60006119f383836040518060400160405280601e81526020017f536166654d6174683a207375627472616374696f6e206f766572666c6f770000815250611f68565b9392505050565b600082611a095750600061126a565b82820282848281611a1657fe5b04146119f35760405162461bcd60e51b81526004018080602001828103825260218152602001806127936021913960400191505060405180910390fd5b60006119f383836040518060400160405280601a815260200179536166654d6174683a206469766973696f6e206279207a65726f60301b815250611fff565b6000828201838110156119f3576040805162461bcd60e51b815260206004820152601b60248201527a536166654d6174683a206164646974696f6e206f766572666c6f7760281b604482015290519081900360640190fd5b604080516001600160a01b0380861660248301528416604482015260648082018490528251808303909101815260849091019091526020810180516001600160e01b03166323b872dd60e01b179052611b44908590612064565b50505050565b604080516001600160a01b038416602482015260448082018490528251808303909101815260649091019091526020810180516001600160e01b031663a9059cbb60e01b179052611b9c908490612064565b505050565b801580611c27575060408051636eb1769f60e11b81523060048201526001600160a01b03848116602483015291519185169163dd62ed3e91604480820192602092909190829003018186803b158015611bf957600080fd5b505afa158015611c0d573d6000803e3d6000fd5b505050506040513d6020811015611c2357600080fd5b5051155b611c625760405162461bcd60e51b815260040180806020018281038252603681526020018061281e6036913960400191505060405180910390fd5b604080516001600160a01b038416602482015260448082018490528251808303909101815260649091019091526020810180516001600160e01b031663095ea7b360e01b179052611b9c908490612064565b3390565b604080516000808252602082019092526001600160a01b038416908390604051611ce29190612581565b60006040518083038185875af1925050503d8060008114611d1f576040519150601f19603f3d011682016040523d82523d6000602084013e611d24565b606091505b5050905080611b9c5760405162461bcd60e51b8152600401610138906126ca565b60055460405163b3596f0760e01b815260009182916001600160a01b039091169063b3596f0790611d7a9087906004016125ba565b60206040518083038186803b158015611d9257600080fd5b505afa158015611da6573d6000803e3d6000fd5b505050506040513d601f19601f82011682018060405250810190611dca91906124f5565b90506000846001600160a01b031663313ce5676040518163ffffffff1660e01b815260040160206040518083038186803b158015611e0757600080fd5b505afa158015611e1b573d6000803e3d6000fd5b505050506040513d601f19601f82011682018060405250810190611e3f9190612567565b90506000611f5e600260009054906101000a90046001600160a01b03166001600160a01b0316636a7e9f336040518163ffffffff1660e01b815260040160206040518083038186803b158015611e9457600080fd5b505afa158015611ea8573d6000803e3d6000fd5b505050506040513d601f19601f82011682018060405250810190611ecc91906124f5565b60025460408051636a943a6d60e11b815290516106a4926001600160a01b03169163d52874da916004808301926020929190829003018186803b158015611f1257600080fd5b505afa158015611f26573d6000803e3d6000fd5b505050506040513d601f19601f82011682018060405250810190611f4a91906124f5565b61069e60ff8716600a0a6106a4898c6119fa565b9695505050505050565b60008184841115611ff75760405162461bcd60e51b81526004018080602001828103825283818151815260200191508051906020019080838360005b83811015611fbc578181015183820152602001611fa4565b50505050905090810190601f168015611fe95780820380516001836020036101000a031916815260200191505b509250505060405180910390fd5b505050900390565b6000818361204e5760405162461bcd60e51b8152602060048201818152835160248401528351909283926044909101919085019080838360008315611fbc578181015183820152602001611fa4565b50600083858161205a57fe5b0495945050505050565b612076826001600160a01b031661221b565b6120c7576040805162461bcd60e51b815260206004820152601f60248201527f5361666545524332303a2063616c6c20746f206e6f6e2d636f6e747261637400604482015290519081900360640190fd5b600080836001600160a01b0316836040518082805190602001908083835b602083106121045780518252601f1990920191602091820191016120e5565b6001836020036101000a0380198251168184511680821785525050505050509050019150506000604051808303816000865af19150503d8060008114612166576040519150601f19603f3d011682016040523d82523d6000602084013e61216b565b606091505b5091509150816121c2576040805162461bcd60e51b815260206004820181905260248201527f5361666545524332303a206c6f772d6c6576656c2063616c6c206661696c6564604482015290519081900360640190fd5b805115611b44578080602001905160208110156121de57600080fd5b5051611b445760405162461bcd60e51b815260040180806020018281038252602a8152602001806127f4602a913960400191505060405180910390fd5b6000813f7fc5d2460186f7233c927e7db2dcc703c0e500b653ca82273b7bfad8045d85a470818114801590611821575050151592915050565b6040518060200160405280600081525090565b80516106d481612754565b600060208284031215612283578081fd5b604051602081016001600160401b038111828210171561229f57fe5b6040529151825250919050565b80516001600160801b03811681146106d457600080fd5b805164ffffffffff811681146106d457600080fd5b805160ff811681146106d457600080fd5b6000602082840312156122fa578081fd5b81356119f381612754565b600060208284031215612316578081fd5b81516119f381612754565b600080600080600060a08688031215612338578081fd5b853561234381612754565b9450602086013561235381612754565b94979496505050506040830135926060810135926080909101359150565b60008060008060008060c08789031215612389578081fd5b863561239481612754565b95506020870135945060408701359350606087013592506080870135915060a087013580151581146123c4578182fd5b809150509295509295509295565b6000602082840312156123e3578081fd5b6119f38383612272565b6000610180808385031215612400578182fd5b61240981612731565b90506124158484612272565b8152612423602084016122ac565b6020820152612434604084016122ac565b6040820152612445606084016122ac565b6060820152612456608084016122ac565b608082015261246760a084016122ac565b60a082015261247860c084016122c3565b60c082015261248960e08401612267565b60e082015261010061249c818501612267565b908201526101206124ae848201612267565b908201526101406124c0848201612267565b908201526101606124d28482016122d8565b908201529392505050565b6000602082840312156124ee578081fd5b5035919050565b600060208284031215612506578081fd5b5051919050565b6000806040838503121561251f578182fd5b82359150602083013561253181612754565b809150509250929050565b600080600060608486031215612550578283fd5b505081359360208301359350604090920135919050565b600060208284031215612578578081fd5b6119f3826122d8565b60008251815b818110156125a15760208186018101518583015201612587565b818111156125af5782828501525b509190910192915050565b6001600160a01b0391909116815260200190565b6001600160a01b0392831681529116602082015260400190565b6001600160a01b03948516815260208101939093529216604082015261ffff909116606082015260800190565b6001600160a01b0395861681526020810194909452604084019290925261ffff166060830152909116608082015260a00190565b9315158452602084019290925260408301526001600160a01b0316606082015260800190565b60208082526014908201527311985b1b189858dac81b9bdd08185b1b1bddd95960621b604082015260600190565b602080825260139082015272149958d95a5d99481b9bdd08185b1b1bddd959606a1b604082015260600190565b60208082526013908201527211551217d514905394d1915497d19052531151606a1b604082015260600190565b6020808252600d908201526c496e76616c696420726174696f60981b604082015260600190565b9051815260200190565b90815260200190565b6040518181016001600160401b038111828210171561274c57fe5b604052919050565b6001600160a01b038116811461276957600080fd5b5056fe4f776e61626c653a206e6577206f776e657220697320746865207a65726f2061646472657373536166654d6174683a206d756c7469706c69636174696f6e206f766572666c6f774f776e61626c653a2063616c6c6572206973206e6f7420746865206f776e65728be0079c531659141344cd1fd0a4f28419497f9722a3daafe3b4186f6b6457e05361666545524332303a204552433230206f7065726174696f6e20646964206e6f7420737563636565645361666545524332303a20617070726f76652066726f6d206e6f6e2d7a65726f20746f206e6f6e2d7a65726f20616c6c6f77616e6365a26469706673582212202e2f05845953e1ffeb46e9e63550963f4dc8d2c2850ff48d1f0c9d10a943075664736f6c63430007060033",
  "devdoc": {
    "author": "Radiant",
    "details": "All function calls are currently implemented without side effects",
    "kind": "dev",
    "methods": {
      "constructor": {
        "params": {
          "_aaveOracle": "address.",
          "_feePercent": "leveraging fee ratio.",
          "_lendingPool": "Address of lending pool.",
          "_lockZap": "address.",
          "_rewardEligibleDataProvider": "EligibilityProvider address.",
          "_treasury": "address.",
          "_weth": "WETH address."
        }
      },
      "getConfiguration(address)": {
        "details": "Returns the configuration of the reserve",
        "params": {
          "asset": "The address of the underlying asset of the reserve"
        },
        "returns": {
          "_0": "The configuration of the reserve*"
        }
      },
      "getVDebtToken(address)": {
        "details": "Returns variable debt token address of asset",
        "params": {
          "asset": "The address of the underlying asset of the reserve"
        },
        "returns": {
          "_0": "varaiableDebtToken address of the asset*"
        }
      },
      "loop(address,uint256,uint256,uint256,uint256,bool)": {
        "details": "Loop the deposit and borrow of an asset",
        "params": {
          "amount": "for the initial deposit",
          "asset": "for loop",
          "borrowRatio": "Ratio of tokens to borrow",
          "interestRateMode": "stable or variable borrow mode",
          "isBorrow": "true when the loop without deposit tokens *",
          "loopCount": "Repeat count for loop"
        }
      },
      "loopETH(uint256,uint256,uint256)": {
        "details": "Loop the deposit and borrow of ETH",
        "params": {
          "borrowRatio": "Ratio of tokens to borrow",
          "interestRateMode": "stable or variable borrow mode",
          "loopCount": "Repeat count for loop*"
        }
      },
      "ltv(address)": {
        "details": "Returns loan to value",
        "params": {
          "asset": "The address of the underlying asset of the reserve"
        },
        "returns": {
          "_0": "ltv of the asset*"
        }
      },
      "owner()": {
        "details": "Returns the address of the current owner."
      },
      "renounceOwnership()": {
        "details": "Leaves the contract without owner. It will not be possible to call `onlyOwner` functions anymore. Can only be called by the current owner. NOTE: Renouncing ownership will leave the contract without an owner, thereby removing any functionality that is only available to the owner."
      },
      "setFeePercent(uint256)": {
        "params": {
          "_feePercent": "fee ratio."
        }
      },
      "setTreasury(address)": {
        "params": {
          "_treasury": "address"
        }
      },
      "transferOwnership(address)": {
        "details": "Transfers ownership of the contract to a new account (`newOwner`). Can only be called by the current owner."
      },
      "wethToZap(address)": {
        "params": {
          "user": "for zap*"
        }
      },
      "wethToZapEstimation(address,address,uint256,uint256,uint256)": {
        "params": {
          "amount": "of `asset`",
          "asset": "src token",
          "borrowRatio": "Single ratio of borrow",
          "loopCount": "Repeat count for loop*",
          "user": "for zap"
        }
      },
      "zapWETHWithBorrow(uint256,address)": {
        "params": {
          "amount": "to zap",
          "borrower": "to zap"
        },
        "returns": {
          "liquidity": "amount by zapping*"
        }
      }
    },
    "title": "Leverager Contract",
    "version": 1
  },
  "userdoc": {
    "events": {
      "FeePercentUpdated(uint256)": {
        "notice": "Emitted when fee ratio is updated"
      },
      "TreasuryUpdated(address)": {
        "notice": "Emitted when treasury is updated"
      }
    },
    "kind": "user",
    "methods": {
      "API_ETH_MOCK_ADDRESS()": {
        "notice": "Mock ETH address"
      },
      "RATIO_DIVISOR()": {
        "notice": "Ratio Divisor"
      },
      "aaveOracle()": {
        "notice": "Aave oracle address"
      },
      "constructor": {
        "notice": "Constructor"
      },
      "eligibilityDataProvider()": {
        "notice": "EligibilityDataProvider contract address"
      },
      "feePercent()": {
        "notice": "Fee ratio"
      },
      "lendingPool()": {
        "notice": "Lending Pool address"
      },
      "lockZap()": {
        "notice": "LockZap contract address"
      },
      "setFeePercent(uint256)": {
        "notice": "Sets fee ratio"
      },
      "setTreasury(address)": {
        "notice": "Sets fee ratio"
      },
      "treasury()": {
        "notice": "Treasury address"
      },
      "weth()": {
        "notice": "Wrapped ETH contract address"
      },
      "wethToZap(address)": {
        "notice": "Return estimated zap WETH amount for eligbility."
      },
      "wethToZapEstimation(address,address,uint256,uint256,uint256)": {
        "notice": "Return estimated zap WETH amount for eligbility after loop."
      },
      "zapWETHWithBorrow(uint256,address)": {
        "notice": "Zap WETH by borrowing."
      }
    },
    "version": 1
  },
  "storageLayout": {
    "storage": [
      {
        "astId": 5437,
        "contract": "contracts/leverage/Leverager.sol:Leverager",
        "label": "_owner",
        "offset": 0,
        "slot": "0",
        "type": "t_address"
      },
      {
        "astId": 14584,
        "contract": "contracts/leverage/Leverager.sol:Leverager",
        "label": "lendingPool",
        "offset": 0,
        "slot": "1",
        "type": "t_contract(ILendingPool)11754"
      },
      {
        "astId": 14587,
        "contract": "contracts/leverage/Leverager.sol:Leverager",
        "label": "eligibilityDataProvider",
        "offset": 0,
        "slot": "2",
        "type": "t_contract(IEligibilityDataProvider)11190"
      },
      {
        "astId": 14590,
        "contract": "contracts/leverage/Leverager.sol:Leverager",
        "label": "lockZap",
        "offset": 0,
        "slot": "3",
        "type": "t_contract(ILockZap)12435"
      },
      {
        "astId": 14593,
        "contract": "contracts/leverage/Leverager.sol:Leverager",
        "label": "weth",
        "offset": 0,
        "slot": "4",
        "type": "t_contract(IWETH)19766"
      },
      {
        "astId": 14596,
        "contract": "contracts/leverage/Leverager.sol:Leverager",
        "label": "aaveOracle",
        "offset": 0,
        "slot": "5",
        "type": "t_contract(IAaveOracle)19404"
      },
      {
        "astId": 14599,
        "contract": "contracts/leverage/Leverager.sol:Leverager",
        "label": "feePercent",
        "offset": 0,
        "slot": "6",
        "type": "t_uint256"
      },
      {
        "astId": 14602,
        "contract": "contracts/leverage/Leverager.sol:Leverager",
        "label": "treasury",
        "offset": 0,
        "slot": "7",
        "type": "t_address"
      }
    ],
    "types": {
      "t_address": {
        "encoding": "inplace",
        "label": "address",
        "numberOfBytes": "20"
      },
      "t_contract(IAaveOracle)19404": {
        "encoding": "inplace",
        "label": "contract IAaveOracle",
        "numberOfBytes": "20"
      },
      "t_contract(IEligibilityDataProvider)11190": {
        "encoding": "inplace",
        "label": "contract IEligibilityDataProvider",
        "numberOfBytes": "20"
      },
      "t_contract(ILendingPool)11754": {
        "encoding": "inplace",
        "label": "contract ILendingPool",
        "numberOfBytes": "20"
      },
      "t_contract(ILockZap)12435": {
        "encoding": "inplace",
        "label": "contract ILockZap",
        "numberOfBytes": "20"
      },
      "t_contract(IWETH)19766": {
        "encoding": "inplace",
        "label": "contract IWETH",
        "numberOfBytes": "20"
      },
      "t_uint256": {
        "encoding": "inplace",
        "label": "uint256",
        "numberOfBytes": "32"
      }
    }
  }
}