{
  "address": "0x978B1cd47B4Ca6764f6B26f5efc469F045Da2891",
  "abi": [
    {
      "anonymous": false,
      "inputs": [
        {
          "indexed": true,
          "internalType": "address",
          "name": "previousOwner",
          "type": "address"
        },
        {
          "indexed": true,
          "internalType": "address",
          "name": "newOwner",
          "type": "address"
        }
      ],
      "name": "OwnershipTransferred",
      "type": "event"
    },
    {
      "anonymous": false,
      "inputs": [
        {
          "indexed": false,
          "internalType": "address",
          "name": "account",
          "type": "address"
        }
      ],
      "name": "Paused",
      "type": "event"
    },
    {
      "anonymous": false,
      "inputs": [
        {
          "indexed": false,
          "internalType": "address",
          "name": "account",
          "type": "address"
        }
      ],
      "name": "Unpaused",
      "type": "event"
    },
    {
      "anonymous": false,
      "inputs": [
        {
          "indexed": false,
          "internalType": "bool",
          "name": "_borrow",
          "type": "bool"
        },
        {
          "indexed": false,
          "internalType": "uint256",
          "name": "_ethAmt",
          "type": "uint256"
        },
        {
          "indexed": false,
          "internalType": "uint256",
          "name": "_rdntAmt",
          "type": "uint256"
        },
        {
          "indexed": true,
          "internalType": "address",
          "name": "_from",
          "type": "address"
        },
        {
          "indexed": true,
          "internalType": "address",
          "name": "_onBehalf",
          "type": "address"
        },
        {
          "indexed": false,
          "internalType": "uint256",
          "name": "_lockTypeIndex",
          "type": "uint256"
        }
      ],
      "name": "Zapped",
      "type": "event"
    },
    {
      "inputs": [],
      "name": "ACCEPTABLE_RATIO",
      "outputs": [
        {
          "internalType": "uint256",
          "name": "",
          "type": "uint256"
        }
      ],
      "stateMutability": "view",
      "type": "function"
    },
    {
      "inputs": [],
      "name": "ETH_LP_RATIO",
      "outputs": [
        {
          "internalType": "uint256",
          "name": "",
          "type": "uint256"
        }
      ],
      "stateMutability": "view",
      "type": "function"
    },
    {
      "inputs": [],
      "name": "RATIO_DIVISOR",
      "outputs": [
        {
          "internalType": "uint256",
          "name": "",
          "type": "uint256"
        }
      ],
      "stateMutability": "view",
      "type": "function"
    },
    {
      "inputs": [],
      "name": "WETH",
      "outputs": [
        {
          "internalType": "contract IWETH",
          "name": "",
          "type": "address"
        }
      ],
      "stateMutability": "view",
      "type": "function"
    },
    {
      "inputs": [],
      "name": "ethOracle",
      "outputs": [
        {
          "internalType": "contract IChainlinkAggregator",
          "name": "",
          "type": "address"
        }
      ],
      "stateMutability": "view",
      "type": "function"
    },
    {
      "inputs": [],
      "name": "getPoolHelper",
      "outputs": [
        {
          "internalType": "address",
          "name": "",
          "type": "address"
        }
      ],
      "stateMutability": "view",
      "type": "function"
    },
    {
      "inputs": [
        {
          "internalType": "address",
          "name": "_asset",
          "type": "address"
        }
      ],
      "name": "getVDebtToken",
      "outputs": [
        {
          "internalType": "address",
          "name": "",
          "type": "address"
        }
      ],
      "stateMutability": "view",
      "type": "function"
    },
    {
      "inputs": [
        {
          "internalType": "contract IPoolHelper",
          "name": "_poolHelper",
          "type": "address"
        },
        {
          "internalType": "contract ILendingPool",
          "name": "_lendingPool",
          "type": "address"
        },
        {
          "internalType": "contract IWETH",
          "name": "_weth",
          "type": "address"
        },
        {
          "internalType": "address",
          "name": "_rdntAddr",
          "type": "address"
        }
      ],
      "name": "initialize",
      "outputs": [],
      "stateMutability": "nonpayable",
      "type": "function"
    },
    {
      "inputs": [],
      "name": "lendingPool",
      "outputs": [
        {
          "internalType": "contract ILendingPool",
          "name": "",
          "type": "address"
        }
      ],
      "stateMutability": "view",
      "type": "function"
    },
    {
      "inputs": [],
      "name": "lpMfd",
      "outputs": [
        {
          "internalType": "contract IMultiFeeDistribution",
          "name": "",
          "type": "address"
        }
      ],
      "stateMutability": "view",
      "type": "function"
    },
    {
      "inputs": [],
      "name": "mfd",
      "outputs": [
        {
          "internalType": "contract IMultiFeeDistribution",
          "name": "",
          "type": "address"
        }
      ],
      "stateMutability": "view",
      "type": "function"
    },
    {
      "inputs": [],
      "name": "owner",
      "outputs": [
        {
          "internalType": "address",
          "name": "",
          "type": "address"
        }
      ],
      "stateMutability": "view",
      "type": "function"
    },
    {
      "inputs": [],
      "name": "paused",
      "outputs": [
        {
          "internalType": "bool",
          "name": "",
          "type": "bool"
        }
      ],
      "stateMutability": "view",
      "type": "function"
    },
    {
      "inputs": [],
      "name": "poolHelper",
      "outputs": [
        {
          "internalType": "contract IPoolHelper",
          "name": "",
          "type": "address"
        }
      ],
      "stateMutability": "view",
      "type": "function"
    },
    {
      "inputs": [],
      "name": "priceProvider",
      "outputs": [
        {
          "internalType": "contract IPriceProvider",
          "name": "",
          "type": "address"
        }
      ],
      "stateMutability": "view",
      "type": "function"
    },
    {
      "inputs": [
        {
          "internalType": "uint256",
          "name": "_tokenAmount",
          "type": "uint256"
        }
      ],
      "name": "quoteFromToken",
      "outputs": [
        {
          "internalType": "uint256",
          "name": "optimalWETHAmount",
          "type": "uint256"
        }
      ],
      "stateMutability": "view",
      "type": "function"
    },
    {
      "inputs": [],
      "name": "rdntAddr",
      "outputs": [
        {
          "internalType": "address",
          "name": "",
          "type": "address"
        }
      ],
      "stateMutability": "view",
      "type": "function"
    },
    {
      "inputs": [],
      "name": "renounceOwnership",
      "outputs": [],
      "stateMutability": "nonpayable",
      "type": "function"
    },
    {
      "inputs": [
        {
          "internalType": "uint256",
          "name": "_amount",
          "type": "uint256"
        }
      ],
      "name": "sell",
      "outputs": [
        {
          "internalType": "uint256",
          "name": "ethOut",
          "type": "uint256"
        }
      ],
      "stateMutability": "nonpayable",
      "type": "function"
    },
    {
      "inputs": [
        {
          "internalType": "address",
          "name": "_lpMfdAddr",
          "type": "address"
        }
      ],
      "name": "setLpMfd",
      "outputs": [],
      "stateMutability": "nonpayable",
      "type": "function"
    },
    {
      "inputs": [
        {
          "internalType": "address",
          "name": "_mfdAddr",
          "type": "address"
        }
      ],
      "name": "setMfd",
      "outputs": [],
      "stateMutability": "nonpayable",
      "type": "function"
    },
    {
      "inputs": [
        {
          "internalType": "address",
          "name": "_poolHelper",
          "type": "address"
        }
      ],
      "name": "setPoolHelper",
      "outputs": [],
      "stateMutability": "nonpayable",
      "type": "function"
    },
    {
      "inputs": [
        {
          "internalType": "address",
          "name": "_provider",
          "type": "address"
        }
      ],
      "name": "setPriceProvider",
      "outputs": [],
      "stateMutability": "nonpayable",
      "type": "function"
    },
    {
      "inputs": [
        {
          "internalType": "address",
          "name": "newOwner",
          "type": "address"
        }
      ],
      "name": "transferOwnership",
      "outputs": [],
      "stateMutability": "nonpayable",
      "type": "function"
    },
    {
      "inputs": [
        {
          "internalType": "bool",
          "name": "_borrow",
          "type": "bool"
        },
        {
          "internalType": "uint256",
          "name": "_wethAmt",
          "type": "uint256"
        },
        {
          "internalType": "uint256",
          "name": "_rdntAmt",
          "type": "uint256"
        },
        {
          "internalType": "uint256",
          "name": "_lockTypeIndex",
          "type": "uint256"
        }
      ],
      "name": "zap",
      "outputs": [
        {
          "internalType": "uint256",
          "name": "liquidity",
          "type": "uint256"
        }
      ],
      "stateMutability": "payable",
      "type": "function"
    },
    {
      "inputs": [
        {
          "internalType": "bool",
          "name": "_borrow",
          "type": "bool"
        },
        {
          "internalType": "uint256",
          "name": "_lockTypeIndex",
          "type": "uint256"
        }
      ],
      "name": "zapFromVesting",
      "outputs": [
        {
          "internalType": "uint256",
          "name": "liquidity",
          "type": "uint256"
        }
      ],
      "stateMutability": "payable",
      "type": "function"
    },
    {
      "inputs": [
        {
          "internalType": "bool",
          "name": "_borrow",
          "type": "bool"
        },
        {
          "internalType": "uint256",
          "name": "_wethAmt",
          "type": "uint256"
        },
        {
          "internalType": "uint256",
          "name": "_rdntAmt",
          "type": "uint256"
        },
        {
          "internalType": "address",
          "name": "_onBehalf",
          "type": "address"
        }
      ],
      "name": "zapOnBehalf",
      "outputs": [
        {
          "internalType": "uint256",
          "name": "liquidity",
          "type": "uint256"
        }
      ],
      "stateMutability": "payable",
      "type": "function"
    },
    {
      "stateMutability": "payable",
      "type": "receive"
    }
  ],
  "transactionHash": "0x374e170f543c38b417ecb971cf64e3a839d963b2e2b189d43dc3bb8a60a4c9b2",
  "args": [],
  "numDeployments": 1,
  "solcInputHash": "78995fe69be866012cdea8ea4c4842de",
  "bytecode": "0x608060405234801561001057600080fd5b50612506806100206000396000f3fe6080604052600436106101405760003560e01c806324e055351461014c5780632cd354751461016e578063372aa2241461018e5780633b5d5417146101ae5780633b7c98e5146101d757806355ac8d30146101f95780635c975abb1461020e578063667f37451461023057806367dbf15d146102505780636a7e9f3314610270578063715018a6146102855780638da5cb5b1461029a578063914237da146102af57806391542085146102c45780639c8762e1146102d7578063a59a9973146102ec578063aa39c61114610301578063ad5c464814610316578063b0c634ee1461032b578063b50bf85c14610340578063b888879e14610355578063bf2d2aa71461036a578063d47808851461037f578063e4849b3214610392578063f2fde38b146103b2578063f8c8765e146103d2578063fd706062146103f257610147565b3661014757005b600080fd5b34801561015857600080fd5b5061016c610167366004611eca565b610412565b005b34801561017a57600080fd5b5061016c610189366004611eca565b610496565b34801561019a57600080fd5b5061016c6101a9366004611eca565b61051a565b6101c16101bc366004611f92565b610633565b6040516101ce9190612334565b60405180910390f35b3480156101e357600080fd5b506101ec61064d565b6040516101ce919061219f565b34801561020557600080fd5b506101ec61065c565b34801561021a57600080fd5b5061022361066b565b6040516101ce9190612224565b34801561023c57600080fd5b506101ec61024b366004611eca565b610674565b34801561025c57600080fd5b5061016c61026b366004611eca565b610708565b34801561027c57600080fd5b506101c161078c565b34801561029157600080fd5b5061016c610792565b3480156102a657600080fd5b506101ec610800565b3480156102bb57600080fd5b506101ec61080f565b6101c16102d2366004611f1e565b61081e565b3480156102e357600080fd5b506101ec6108ce565b3480156102f857600080fd5b506101ec6108dd565b34801561030d57600080fd5b506101c16108ec565b34801561032257600080fd5b506101ec6108f2565b34801561033757600080fd5b506101ec610901565b34801561034c57600080fd5b506101ec610910565b34801561036157600080fd5b506101ec61091f565b34801561037657600080fd5b506101c161092e565b6101c161038d366004611f49565b610934565b34801561039e57600080fd5b506101c16103ad366004612124565b6109d4565b3480156103be57600080fd5b5061016c6103cd366004611eca565b610ae3565b3480156103de57600080fd5b5061016c6103ed366004611fcc565b610b96565b3480156103fe57600080fd5b506101c161040d366004612124565b610c9c565b61041a610cf9565b6001600160a01b031661042b610800565b6001600160a01b031614610474576040805162461bcd60e51b815260206004820181905260248201526000805160206123f8833981519152604482015290519081900360640190fd5b60cb80546001600160a01b0319166001600160a01b0392909216919091179055565b61049e610cf9565b6001600160a01b03166104af610800565b6001600160a01b0316146104f8576040805162461bcd60e51b815260206004820181905260248201526000805160206123f8833981519152604482015290519081900360640190fd5b60ce80546001600160a01b0319166001600160a01b0392909216919091179055565b610522610cf9565b6001600160a01b0316610533610800565b6001600160a01b03161461057c576040805162461bcd60e51b815260206004820181905260248201526000805160206123f8833981519152604482015290519081900360640190fd5b60cf80546001600160a01b0319166001600160a01b038381169190911791829055604080516367c08e9560e11b81529051929091169163cf811d2a91600480820192602092909190829003018186803b1580156105d857600080fd5b505afa1580156105ec573d6000803e3d6000fd5b505050506040513d601f19601f820116820180604052508101906106109190611ee6565b60d080546001600160a01b0319166001600160a01b039290921691909117905550565b600061064485858533338733610cfd565b95945050505050565b60cb546001600160a01b031681565b60ce546001600160a01b031681565b60975460ff1690565b60cd546040516335ea6a7560e01b815260009182916001600160a01b03909116906335ea6a75906106a990869060040161219f565b6101806040518083038186803b1580156106c257600080fd5b505afa1580156106d6573d6000803e3d6000fd5b505050506040513d601f19601f820116820180604052508101906106fa9190612034565b61012001519150505b919050565b610710610cf9565b6001600160a01b0316610721610800565b6001600160a01b03161461076a576040805162461bcd60e51b815260206004820181905260248201526000805160206123f8833981519152604482015290519081900360640190fd5b60cc80546001600160a01b0319166001600160a01b0392909216919091179055565b61271081565b61079a610cf9565b6001600160a01b03166107ab610800565b6001600160a01b0316146107f4576040805162461bcd60e51b815260206004820181905260248201526000805160206123f8833981519152604482015290519081900360640190fd5b6107fe600061128d565b565b6065546001600160a01b031690565b60ca546001600160a01b031681565b60cc54604051632843b01960e01b815260009182916001600160a01b0390911690632843b0199061085390339060040161219f565b602060405180830381600087803b15801561086d57600080fd5b505af1158015610881573d6000803e3d6000fd5b505050506040513d601f19601f820116820180604052508101906108a5919061201c565b905060006108b282610c9c565b90506108c385828430338933610cfd565b925050505b92915050565b60d0546001600160a01b031681565b60cd546001600160a01b031681565b60d15481565b60c9546001600160a01b031681565b60cc546001600160a01b031681565b60ce546001600160a01b031690565b60cf546001600160a01b031681565b61251c81565b60cb54604051632e88caa160e01b815260009182916001600160a01b0390911690632e88caa19061096990869060040161219f565b60206040518083038186803b15801561098157600080fd5b505afa158015610995573d6000803e3d6000fd5b505050506040513d601f19601f820116820180604052508101906109b9919061201c565b90506109ca86868633878689610cfd565b9695505050505050565b60ca5460ce546040516323b872dd60e01b81526000926001600160a01b03908116926323b872dd92610a0e923392169087906004016121b3565b602060405180830381600087803b158015610a2857600080fd5b505af1158015610a3c573d6000803e3d6000fd5b505050506040513d601f19601f82011682018060405250810190610a609190611f02565b5060ce546040516372424d9960e11b81526001600160a01b039091169063e4849b3290610a91908590600401612334565b602060405180830381600087803b158015610aab57600080fd5b505af1158015610abf573d6000803e3d6000fd5b505050506040513d601f19601f820116820180604052508101906108c8919061201c565b610aeb610cf9565b6001600160a01b0316610afc610800565b6001600160a01b031614610b45576040805162461bcd60e51b815260206004820181905260248201526000805160206123f8833981519152604482015290519081900360640190fd5b6001600160a01b038116610b8a5760405162461bcd60e51b81526004018080602001828103825260268152602001806123b16026913960400191505060405180910390fd5b610b938161128d565b50565b600054610100900460ff1680610baf5750610baf6112df565b80610bbd575060005460ff16155b610bf85760405162461bcd60e51b815260040180806020018281038252602e815260200180612418602e913960400191505060405180910390fd5b600054610100900460ff16158015610c23576000805460ff1961ff0019909116610100171660011790555b610c2b6112e5565b610c33611333565b60cd80546001600160a01b038087166001600160a01b03199283161790925560ce805488841690831617905560c9805486841690831617905560ca80549285169290911691909117905561138860d1558015610c95576000805461ff00191690555b5050505050565b60ce54604051637eb8303160e11b81526000916001600160a01b03169063fd70606290610ccd908590600401612334565b60206040518083038186803b158015610ce557600080fd5b505afa158015610abf573d6000803e3d6000fd5b3390565b600086151580610d0c57503415155b610d315760405162461bcd60e51b8152600401610d289061227c565b60405180910390fd5b3415610dc6578715610d555760405162461bcd60e51b8152600401610d289061224c565b34965060c960009054906101000a90046001600160a01b03166001600160a01b031663d0e30db0886040518263ffffffff1660e01b81526004016000604051808303818588803b158015610da857600080fd5b505af1158015610dbc573d6000803e3d6000fd5b5050505050610e62565b8715610dda57610dd587611381565b610e62565b60c9546040516323b872dd60e01b81526001600160a01b03909116906323b872dd90610e0e90339030908c906004016121b3565b602060405180830381600087803b158015610e2857600080fd5b505af1158015610e3c573d6000803e3d6000fd5b505050506040513d601f19601f82011682018060405250810190610e609190611f02565b505b60c95460ce5460405163095ea7b360e01b81526001600160a01b039283169263095ea7b392610e98929116908b906004016121d7565b602060405180830381600087803b158015610eb257600080fd5b505af1158015610ec6573d6000803e3d6000fd5b505050506040513d601f19601f82011682018060405250810190610eea9190611f02565b50851561104d57610efa86610c9c565b871015610f195760405162461bcd60e51b8152600401610d2890612304565b6001600160a01b0385163014610f415760ca54610f41906001600160a01b0316333089611542565b60ce5460ca54610f5e916001600160a01b039182169116886115a2565b60ce54604051633a9cc1eb60e11b81526001600160a01b039091169063753983d690610f90908a908a9060040161235c565b602060405180830381600087803b158015610faa57600080fd5b505af1158015610fbe573d6000803e3d6000fd5b505050506040513d601f19601f82011682018060405250810190610fe2919061201c565b60cf549091506001600160a01b03161561104857600061102261101c60d1546110166127108c6116ba90919063ffffffff16565b9061171a565b83611759565b905061251c8110156110465760405162461bcd60e51b8152600401610d28906122d9565b505b611115565b60ce54604051636414dfed60e11b81526001600160a01b039091169063c829bfda9061107d908a90600401612334565b602060405180830381600087803b15801561109757600080fd5b505af11580156110ab573d6000803e3d6000fd5b505050506040513d601f19601f820116820180604052508101906110cf919061201c565b60cf549091506001600160a01b0316156111155760006110ef8883611759565b905061251c8110156111135760405162461bcd60e51b8152600401610d28906122d9565b505b60cb5460ce54604080516321cf280b60e11b815290516111ae936001600160a01b0390811693869391169163439e501691600480820192602092909190829003018186803b15801561116657600080fd5b505afa15801561117a573d6000803e3d6000fd5b505050506040513d601f19601f8201168201806040525081019061119e9190611ee6565b6001600160a01b031691906115a2565b60cb54604051631ba724c760e21b81526001600160a01b0390911690636e9c931c906111e29084908890889060040161233d565b600060405180830381600087803b1580156111fc57600080fd5b505af1158015611210573d6000803e3d6000fd5b50505050836001600160a01b0316856001600160a01b03167f185f471aee8e22c0f6772d9076b984cb8394859d474a9799c1421f440262d5818a8a8a8860405161125d949392919061222f565b60405180910390a360ca5460c954611282916001600160a01b03908116911684611906565b979650505050505050565b606580546001600160a01b038381166001600160a01b0319831681179093556040519116919082907f8be0079c531659141344cd1fd0a4f28419497f9722a3daafe3b4186f6b6457e090600090a35050565b303b1590565b600054610100900460ff1661132b5760405162461bcd60e51b815260040180806020018281038252602b815260200180612446602b913960400191505060405180910390fd5b6107fe611ab9565b600054610100900460ff166113795760405162461bcd60e51b815260040180806020018281038252602b815260200180612446602b913960400191505060405180910390fd5b6107fe611b0f565b60cd54604051632fe4a15f60e21b81526000916001600160a01b03169063bf92857c906113b290339060040161219f565b60c06040518083038186803b1580156113ca57600080fd5b505afa1580156113de573d6000803e3d6000fd5b505050506040513d601f19601f82011682018060405250810190611402919061213c565b5050509250505060006114a860c960009054906101000a90046001600160a01b03166001600160a01b031663313ce5676040518163ffffffff1660e01b815260040160206040518083038186803b15801561145c57600080fd5b505afa158015611470573d6000803e3d6000fd5b505050506040513d601f19601f820116820180604052508101906114949190612185565b60ff16600a0a611016856305f5e1006116ba565b90508082116114c95760405162461bcd60e51b8152600401610d28906122a2565b60cd5460c95460405163a415bcad60e01b81526000926001600160a01b039081169263a415bcad9261150a92909116908890600290879033906004016121f0565b600060405180830381600087803b15801561152457600080fd5b505af1158015611538573d6000803e3d6000fd5b5050505050505050565b604080516001600160a01b0380861660248301528416604482015260648082018490528251808303909101815260849091019091526020810180516001600160e01b03166323b872dd60e01b17905261159c908590611b61565b50505050565b801580611628575060408051636eb1769f60e11b81523060048201526001600160a01b03848116602483015291519185169163dd62ed3e91604480820192602092909190829003018186803b1580156115fa57600080fd5b505afa15801561160e573d6000803e3d6000fd5b505050506040513d602081101561162457600080fd5b5051155b6116635760405162461bcd60e51b815260040180806020018281038252603681526020018061249b6036913960400191505060405180910390fd5b604080516001600160a01b038416602482015260448082018490528251808303909101815260649091019091526020810180516001600160e01b031663095ea7b360e01b1790526116b5908490611b61565b505050565b6000826116c9575060006108c8565b828202828482816116d657fe5b04146117135760405162461bcd60e51b81526004018080602001828103825260218152602001806123d76021913960400191505060405180910390fd5b9392505050565b600061171383836040518060400160405280601a815260200179536166654d6174683a206469766973696f6e206279207a65726f60301b815250611d18565b60cf546040805163a2e6204560e01b815290516000926001600160a01b03169163a2e62045916004808301928692919082900301818387803b15801561179e57600080fd5b505af11580156117b2573d6000803e3d6000fd5b505050506000611854670de0b6b3a764000061101660d060009054906101000a90046001600160a01b03166001600160a01b03166350d25bcd6040518163ffffffff1660e01b815260040160206040518083038186803b15801561181557600080fd5b505afa158015611829573d6000803e3d6000fd5b505050506040513d601f19601f8201168201806040525081019061184d919061201c565b87906116ba565b9050600060cf60009054906101000a90046001600160a01b03166001600160a01b0316636e9a05c56040518163ffffffff1660e01b815260040160206040518083038186803b1580156118a657600080fd5b505afa1580156118ba573d6000803e3d6000fd5b505050506040513d601f19601f820116820180604052508101906118de919061201c565b840290506118f282611016836127106116ba565b92506108c383670de0b6b3a764000061171a565b6040516370a0823160e01b8152839083906000906001600160a01b038316906370a082319061193990309060040161219f565b602060405180830381600087803b15801561195357600080fd5b505af1158015611967573d6000803e3d6000fd5b505050506040513d601f19601f8201168201806040525081019061198b919061201c565b90508015611a155760405163a9059cbb60e01b81526001600160a01b0383169063a9059cbb906119c190879085906004016121d7565b602060405180830381600087803b1580156119db57600080fd5b505af11580156119ef573d6000803e3d6000fd5b505050506040513d601f19601f82011682018060405250810190611a139190611f02565b505b6040516370a0823160e01b81526000906001600160a01b038516906370a0823190611a4490309060040161219f565b60206040518083038186803b158015611a5c57600080fd5b505afa158015611a70573d6000803e3d6000fd5b505050506040513d601f19601f82011682018060405250810190611a94919061201c565b90508015611ab057611ab06001600160a01b0385168683611dba565b50505050505050565b600054610100900460ff16611aff5760405162461bcd60e51b815260040180806020018281038252602b815260200180612446602b913960400191505060405180910390fd5b6107fe611b0a610cf9565b61128d565b600054610100900460ff16611b555760405162461bcd60e51b815260040180806020018281038252602b815260200180612446602b913960400191505060405180910390fd5b6097805460ff19169055565b611b73826001600160a01b0316611e0c565b611bc4576040805162461bcd60e51b815260206004820152601f60248201527f5361666545524332303a2063616c6c20746f206e6f6e2d636f6e747261637400604482015290519081900360640190fd5b600080836001600160a01b0316836040518082805190602001908083835b60208310611c015780518252601f199092019160209182019101611be2565b6001836020036101000a0380198251168184511680821785525050505050509050019150506000604051808303816000865af19150503d8060008114611c63576040519150601f19603f3d011682016040523d82523d6000602084013e611c68565b606091505b509150915081611cbf576040805162461bcd60e51b815260206004820181905260248201527f5361666545524332303a206c6f772d6c6576656c2063616c6c206661696c6564604482015290519081900360640190fd5b80511561159c57808060200190516020811015611cdb57600080fd5b505161159c5760405162461bcd60e51b815260040180806020018281038252602a815260200180612471602a913960400191505060405180910390fd5b60008183611da45760405162461bcd60e51b81526004018080602001828103825283818151815260200191508051906020019080838360005b83811015611d69578181015183820152602001611d51565b50505050905090810190601f168015611d965780820380516001836020036101000a031916815260200191505b509250505060405180910390fd5b506000838581611db057fe5b0495945050505050565b604080516001600160a01b038416602482015260448082018490528251808303909101815260649091019091526020810180516001600160e01b031663a9059cbb60e01b1790526116b5908490611b61565b6000813f7fc5d2460186f7233c927e7db2dcc703c0e500b653ca82273b7bfad8045d85a470818114801590611e4057508115155b949350505050565b80516107038161238d565b600060208284031215611e64578081fd5b604051602081016001600160401b0381118282101715611e8057fe5b6040529151825250919050565b80516001600160801b038116811461070357600080fd5b805164ffffffffff8116811461070357600080fd5b805160ff8116811461070357600080fd5b600060208284031215611edb578081fd5b81356117138161238d565b600060208284031215611ef7578081fd5b81516117138161238d565b600060208284031215611f13578081fd5b8151611713816123a2565b60008060408385031215611f30578081fd5b8235611f3b816123a2565b946020939093013593505050565b60008060008060808587031215611f5e578182fd5b8435611f69816123a2565b935060208501359250604085013591506060850135611f878161238d565b939692955090935050565b60008060008060808587031215611fa7578384fd5b8435611fb2816123a2565b966020860135965060408601359560600135945092505050565b60008060008060808587031215611fe1578384fd5b8435611fec8161238d565b93506020850135611ffc8161238d565b9250604085013561200c8161238d565b91506060850135611f878161238d565b60006020828403121561202d578081fd5b5051919050565b6000610180808385031215612047578182fd5b6120508161236a565b905061205c8484611e53565b815261206a60208401611e8d565b602082015261207b60408401611e8d565b604082015261208c60608401611e8d565b606082015261209d60808401611e8d565b60808201526120ae60a08401611e8d565b60a08201526120bf60c08401611ea4565b60c08201526120d060e08401611e48565b60e08201526101006120e3818501611e48565b908201526101206120f5848201611e48565b90820152610140612107848201611e48565b90820152610160612119848201611eb9565b908201529392505050565b600060208284031215612135578081fd5b5035919050565b60008060008060008060c08789031215612154578384fd5b865195506020870151945060408701519350606087015192506080870151915060a087015190509295509295509295565b600060208284031215612196578081fd5b61171382611eb9565b6001600160a01b0391909116815260200190565b6001600160a01b039384168152919092166020820152604081019190915260600190565b6001600160a01b03929092168252602082015260400190565b6001600160a01b0395861681526020810194909452604084019290925261ffff166060830152909116608082015260a00190565b901515815260200190565b931515845260208401929092526040830152606082015260800190565b602080825260169082015275696e76616c6964207a61702045544820736f7572636560501b604082015260600190565b6020808252600c908201526b115512081c995c5d5a5c995960a21b604082015260600190565b6020808252601e908201527f4e6f7420656e6f75676820617661696c61626c65426f72726f77734554480000604082015260600190565b602080825260119082015270746f6f206d75636820736c69707061676560781b604082015260600190565b60208082526016908201527508aa89040e6cadce840d2e640dcdee840cadcdeeaced60531b604082015260600190565b90815260200190565b9283526001600160a01b03919091166020830152604082015260600190565b918252602082015260400190565b6040518181016001600160401b038111828210171561238557fe5b604052919050565b6001600160a01b0381168114610b9357600080fd5b8015158114610b9357600080fdfe4f776e61626c653a206e6577206f776e657220697320746865207a65726f2061646472657373536166654d6174683a206d756c7469706c69636174696f6e206f766572666c6f774f776e61626c653a2063616c6c6572206973206e6f7420746865206f776e6572436f6e747261637420696e7374616e63652068617320616c7265616479206265656e20696e697469616c697a6564496e697469616c697a61626c653a20636f6e7472616374206973206e6f7420696e697469616c697a696e675361666545524332303a204552433230206f7065726174696f6e20646964206e6f7420737563636565645361666545524332303a20617070726f76652066726f6d206e6f6e2d7a65726f20746f206e6f6e2d7a65726f20616c6c6f77616e6365a26469706673582212209b75e77fa73d031f06649ed14281520f00028c5c57e6c6bf79ec74aa5b4688ea64736f6c63430007060033",
  "devdoc": {
    "kind": "dev",
    "methods": {
      "getVDebtToken(address)": {
        "params": {
          "_asset": "underlying."
        }
      },
      "initialize(address,address,address,address)": {
        "params": {
          "_lendingPool": "Lending pool",
          "_poolHelper": "Pool helper address",
          "_rdntAddr": "RDNT token address",
          "_weth": "WETH address"
        }
      },
      "paused()": {
        "details": "Returns true if the contract is paused, and false otherwise."
      },
      "quoteFromToken(uint256)": {
        "params": {
          "_tokenAmount": "amount of tokens."
        }
      },
      "setLpMfd(address)": {
        "params": {
          "_lpMfdAddr": "New contract address."
        }
      },
      "setMfd(address)": {
        "params": {
          "_mfdAddr": "New contract address."
        }
      },
      "setPoolHelper(address)": {
        "params": {
          "_poolHelper": "New PoolHelper contract address."
        }
      },
      "setPriceProvider(address)": {
        "params": {
          "_provider": "Price provider contract address."
        }
      },
      "zap(bool,uint256,uint256,uint256)": {
        "params": {
          "_borrow": "option to borrow ETH",
          "_lockTypeIndex": "lock length index.",
          "_rdntAmt": "amount of RDNT.",
          "_wethAmt": "amount of WETH."
        }
      },
      "zapFromVesting(bool,uint256)": {
        "params": {
          "_borrow": "option to borrow ETH",
          "_lockTypeIndex": "lock length index."
        }
      },
      "zapOnBehalf(bool,uint256,uint256,address)": {
        "details": "It will use default lock index",
        "params": {
          "_borrow": "option to borrow ETH",
          "_onBehalf": "user address to be zapped.",
          "_rdntAmt": "amount of RDNT.",
          "_wethAmt": "amount of WETH."
        }
      }
    },
    "version": 1
  },
  "userdoc": {
    "events": {
      "Zapped(bool,uint256,uint256,address,address,uint256)": {
        "notice": "Emitted when zap is done"
      }
    },
    "kind": "user",
    "methods": {
      "ACCEPTABLE_RATIO()": {
        "notice": "Acceptable ratio"
      },
      "RATIO_DIVISOR()": {
        "notice": "RAITO Divisor"
      },
      "WETH()": {
        "notice": "Wrapped ETH"
      },
      "ethOracle()": {
        "notice": "ETH oracle contract"
      },
      "getPoolHelper()": {
        "notice": "Returns pool helper address"
      },
      "getVDebtToken(address)": {
        "notice": "Get Variable debt token address"
      },
      "initialize(address,address,address,address)": {
        "notice": "Initializer"
      },
      "lendingPool()": {
        "notice": "Lending Pool contract"
      },
      "lpMfd()": {
        "notice": "LP Fee distribution contract"
      },
      "mfd()": {
        "notice": "Multi Fee distribution contract"
      },
      "poolHelper()": {
        "notice": "Pool helper contract"
      },
      "priceProvider()": {
        "notice": "Price provider contract"
      },
      "quoteFromToken(uint256)": {
        "notice": "Get quote from the pool"
      },
      "rdntAddr()": {
        "notice": "RDNT token address"
      },
      "setLpMfd(address)": {
        "notice": "Set LP fee distribution contract."
      },
      "setMfd(address)": {
        "notice": "Set Multi fee distribution contract."
      },
      "setPoolHelper(address)": {
        "notice": "Set Pool Helper contract"
      },
      "setPriceProvider(address)": {
        "notice": "Set Price Provider."
      },
      "zap(bool,uint256,uint256,uint256)": {
        "notice": "Zap tokens to stake LP"
      },
      "zapFromVesting(bool,uint256)": {
        "notice": "Zap tokens from vesting"
      },
      "zapOnBehalf(bool,uint256,uint256,address)": {
        "notice": "Zap tokens to stake LP"
      }
    },
    "version": 1
  },
  "storageLayout": {
    "storage": [
      {
        "astId": 6361,
        "contract": "contracts/test/TestLockZap.sol:TestnetLockZap",
        "label": "initialized",
        "offset": 0,
        "slot": "0",
        "type": "t_bool"
      },
      {
        "astId": 6364,
        "contract": "contracts/test/TestLockZap.sol:TestnetLockZap",
        "label": "initializing",
        "offset": 1,
        "slot": "0",
        "type": "t_bool"
      },
      {
        "astId": 6431,
        "contract": "contracts/test/TestLockZap.sol:TestnetLockZap",
        "label": "______gap",
        "offset": 0,
        "slot": "1",
        "type": "t_array(t_uint256)50_storage"
      },
      {
        "astId": 6354,
        "contract": "contracts/test/TestLockZap.sol:TestnetLockZap",
        "label": "__gap",
        "offset": 0,
        "slot": "51",
        "type": "t_array(t_uint256)50_storage"
      },
      {
        "astId": 6576,
        "contract": "contracts/test/TestLockZap.sol:TestnetLockZap",
        "label": "_owner",
        "offset": 0,
        "slot": "101",
        "type": "t_address"
      },
      {
        "astId": 6681,
        "contract": "contracts/test/TestLockZap.sol:TestnetLockZap",
        "label": "__gap",
        "offset": 0,
        "slot": "102",
        "type": "t_array(t_uint256)49_storage"
      },
      {
        "astId": 6703,
        "contract": "contracts/test/TestLockZap.sol:TestnetLockZap",
        "label": "_paused",
        "offset": 0,
        "slot": "151",
        "type": "t_bool"
      },
      {
        "astId": 6808,
        "contract": "contracts/test/TestLockZap.sol:TestnetLockZap",
        "label": "__gap",
        "offset": 0,
        "slot": "152",
        "type": "t_array(t_uint256)49_storage"
      },
      {
        "astId": 48853,
        "contract": "contracts/test/TestLockZap.sol:TestnetLockZap",
        "label": "WETH",
        "offset": 0,
        "slot": "201",
        "type": "t_contract(IWETH)19766"
      },
      {
        "astId": 48856,
        "contract": "contracts/test/TestLockZap.sol:TestnetLockZap",
        "label": "rdntAddr",
        "offset": 0,
        "slot": "202",
        "type": "t_address"
      },
      {
        "astId": 48859,
        "contract": "contracts/test/TestLockZap.sol:TestnetLockZap",
        "label": "lpMfd",
        "offset": 0,
        "slot": "203",
        "type": "t_contract(IMultiFeeDistribution)12722"
      },
      {
        "astId": 48862,
        "contract": "contracts/test/TestLockZap.sol:TestnetLockZap",
        "label": "mfd",
        "offset": 0,
        "slot": "204",
        "type": "t_contract(IMultiFeeDistribution)12722"
      },
      {
        "astId": 48865,
        "contract": "contracts/test/TestLockZap.sol:TestnetLockZap",
        "label": "lendingPool",
        "offset": 0,
        "slot": "205",
        "type": "t_contract(ILendingPool)11754"
      },
      {
        "astId": 48868,
        "contract": "contracts/test/TestLockZap.sol:TestnetLockZap",
        "label": "poolHelper",
        "offset": 0,
        "slot": "206",
        "type": "t_contract(IPoolHelper)12844"
      },
      {
        "astId": 48871,
        "contract": "contracts/test/TestLockZap.sol:TestnetLockZap",
        "label": "priceProvider",
        "offset": 0,
        "slot": "207",
        "type": "t_contract(IPriceProvider)12919"
      },
      {
        "astId": 48874,
        "contract": "contracts/test/TestLockZap.sol:TestnetLockZap",
        "label": "ethOracle",
        "offset": 0,
        "slot": "208",
        "type": "t_contract(IChainlinkAggregator)10963"
      },
      {
        "astId": 48891,
        "contract": "contracts/test/TestLockZap.sol:TestnetLockZap",
        "label": "ETH_LP_RATIO",
        "offset": 0,
        "slot": "209",
        "type": "t_uint256"
      }
    ],
    "types": {
      "t_address": {
        "encoding": "inplace",
        "label": "address",
        "numberOfBytes": "20"
      },
      "t_array(t_uint256)49_storage": {
        "base": "t_uint256",
        "encoding": "inplace",
        "label": "uint256[49]",
        "numberOfBytes": "1568"
      },
      "t_array(t_uint256)50_storage": {
        "base": "t_uint256",
        "encoding": "inplace",
        "label": "uint256[50]",
        "numberOfBytes": "1600"
      },
      "t_bool": {
        "encoding": "inplace",
        "label": "bool",
        "numberOfBytes": "1"
      },
      "t_contract(IChainlinkAggregator)10963": {
        "encoding": "inplace",
        "label": "contract IChainlinkAggregator",
        "numberOfBytes": "20"
      },
      "t_contract(ILendingPool)11754": {
        "encoding": "inplace",
        "label": "contract ILendingPool",
        "numberOfBytes": "20"
      },
      "t_contract(IMultiFeeDistribution)12722": {
        "encoding": "inplace",
        "label": "contract IMultiFeeDistribution",
        "numberOfBytes": "20"
      },
      "t_contract(IPoolHelper)12844": {
        "encoding": "inplace",
        "label": "contract IPoolHelper",
        "numberOfBytes": "20"
      },
      "t_contract(IPriceProvider)12919": {
        "encoding": "inplace",
        "label": "contract IPriceProvider",
        "numberOfBytes": "20"
      },
      "t_contract(IWETH)19766": {
        "encoding": "inplace",
        "label": "contract IWETH",
        "numberOfBytes": "20"
      },
      "t_uint256": {
        "encoding": "inplace",
        "label": "uint256",
        "numberOfBytes": "32"
      }
    }
  }
}