{
  "address": "0x0E254f8997b99e7D849d2cD4A73f87B40E0585b9",
  "abi": [
    {
      "anonymous": false,
      "inputs": [
        {
          "indexed": false,
          "internalType": "address",
          "name": "token",
          "type": "address"
        },
        {
          "indexed": false,
          "internalType": "uint256",
          "name": "amount",
          "type": "uint256"
        }
      ],
      "name": "ForwardReward",
      "type": "event"
    },
    {
      "anonymous": false,
      "inputs": [
        {
          "indexed": false,
          "internalType": "contract IMultiFeeDistribution",
          "name": "_lpFeeDistribution",
          "type": "address"
        }
      ],
      "name": "LPFeeDistributionUpdated",
      "type": "event"
    },
    {
      "anonymous": false,
      "inputs": [
        {
          "indexed": false,
          "internalType": "uint256",
          "name": "_lpLockingRewardRatio",
          "type": "uint256"
        }
      ],
      "name": "LpLockingRewardRatioUpdated",
      "type": "event"
    },
    {
      "anonymous": false,
      "inputs": [
        {
          "indexed": false,
          "internalType": "address",
          "name": "_operationExpenses",
          "type": "address"
        },
        {
          "indexed": false,
          "internalType": "uint256",
          "name": "_operationExpenseRatio",
          "type": "uint256"
        }
      ],
      "name": "OperationExpensesUpdated",
      "type": "event"
    },
    {
      "anonymous": false,
      "inputs": [
        {
          "indexed": true,
          "internalType": "address",
          "name": "previousOwner",
          "type": "address"
        },
        {
          "indexed": true,
          "internalType": "address",
          "name": "newOwner",
          "type": "address"
        }
      ],
      "name": "OwnershipTransferred",
      "type": "event"
    },
    {
      "anonymous": false,
      "inputs": [
        {
          "indexed": false,
          "internalType": "address",
          "name": "token",
          "type": "address"
        },
        {
          "indexed": false,
          "internalType": "uint256",
          "name": "amount",
          "type": "uint256"
        }
      ],
      "name": "Recovered",
      "type": "event"
    },
    {
      "anonymous": false,
      "inputs": [
        {
          "indexed": false,
          "internalType": "address",
          "name": "opEx",
          "type": "address"
        },
        {
          "indexed": false,
          "internalType": "uint256",
          "name": "ratio",
          "type": "uint256"
        }
      ],
      "name": "SetOperationExpenses",
      "type": "event"
    },
    {
      "inputs": [],
      "name": "RATIO_DIVISOR",
      "outputs": [
        {
          "internalType": "uint256",
          "name": "",
          "type": "uint256"
        }
      ],
      "stateMutability": "view",
      "type": "function"
    },
    {
      "inputs": [
        {
          "internalType": "address",
          "name": "_rewardsToken",
          "type": "address"
        }
      ],
      "name": "addReward",
      "outputs": [],
      "stateMutability": "nonpayable",
      "type": "function"
    },
    {
      "inputs": [],
      "name": "admin",
      "outputs": [
        {
          "internalType": "address",
          "name": "",
          "type": "address"
        }
      ],
      "stateMutability": "view",
      "type": "function"
    },
    {
      "inputs": [
        {
          "internalType": "address[]",
          "name": "_rewardTokens",
          "type": "address[]"
        }
      ],
      "name": "forwardReward",
      "outputs": [],
      "stateMutability": "nonpayable",
      "type": "function"
    },
    {
      "inputs": [],
      "name": "getLPFeeDistributionAddress",
      "outputs": [
        {
          "internalType": "address",
          "name": "",
          "type": "address"
        }
      ],
      "stateMutability": "view",
      "type": "function"
    },
    {
      "inputs": [],
      "name": "getMFDstatsAddress",
      "outputs": [
        {
          "internalType": "address",
          "name": "",
          "type": "address"
        }
      ],
      "stateMutability": "view",
      "type": "function"
    },
    {
      "inputs": [],
      "name": "getMultiFeeDistributionAddress",
      "outputs": [
        {
          "internalType": "address",
          "name": "",
          "type": "address"
        }
      ],
      "stateMutability": "view",
      "type": "function"
    },
    {
      "inputs": [],
      "name": "getRdntTokenAddress",
      "outputs": [
        {
          "internalType": "address",
          "name": "",
          "type": "address"
        }
      ],
      "stateMutability": "view",
      "type": "function"
    },
    {
      "inputs": [
        {
          "internalType": "address",
          "name": "_rdntToken",
          "type": "address"
        },
        {
          "internalType": "address",
          "name": "mfdStats",
          "type": "address"
        },
        {
          "internalType": "contract IMultiFeeDistribution",
          "name": "_lpFeeDistribution",
          "type": "address"
        },
        {
          "internalType": "contract IMultiFeeDistribution",
          "name": "_multiFeeDistribution",
          "type": "address"
        }
      ],
      "name": "initialize",
      "outputs": [],
      "stateMutability": "nonpayable",
      "type": "function"
    },
    {
      "inputs": [
        {
          "internalType": "address",
          "name": "",
          "type": "address"
        }
      ],
      "name": "isRewardToken",
      "outputs": [
        {
          "internalType": "bool",
          "name": "",
          "type": "bool"
        }
      ],
      "stateMutability": "view",
      "type": "function"
    },
    {
      "inputs": [
        {
          "internalType": "address",
          "name": "user",
          "type": "address"
        }
      ],
      "name": "lockedBalances",
      "outputs": [
        {
          "internalType": "uint256",
          "name": "total",
          "type": "uint256"
        },
        {
          "internalType": "uint256",
          "name": "unlockable",
          "type": "uint256"
        },
        {
          "internalType": "uint256",
          "name": "locked",
          "type": "uint256"
        },
        {
          "internalType": "uint256",
          "name": "lockedWithMultiplier",
          "type": "uint256"
        },
        {
          "components": [
            {
              "internalType": "uint256",
              "name": "amount",
              "type": "uint256"
            },
            {
              "internalType": "uint256",
              "name": "unlockTime",
              "type": "uint256"
            },
            {
              "internalType": "uint256",
              "name": "multiplier",
              "type": "uint256"
            },
            {
              "internalType": "uint256",
              "name": "duration",
              "type": "uint256"
            }
          ],
          "internalType": "struct LockedBalance[]",
          "name": "lockData",
          "type": "tuple[]"
        }
      ],
      "stateMutability": "view",
      "type": "function"
    },
    {
      "inputs": [],
      "name": "lpFeeDistribution",
      "outputs": [
        {
          "internalType": "contract IMultiFeeDistribution",
          "name": "",
          "type": "address"
        }
      ],
      "stateMutability": "view",
      "type": "function"
    },
    {
      "inputs": [],
      "name": "lpLockingRewardRatio",
      "outputs": [
        {
          "internalType": "uint256",
          "name": "",
          "type": "uint256"
        }
      ],
      "stateMutability": "view",
      "type": "function"
    },
    {
      "inputs": [],
      "name": "multiFeeDistribution",
      "outputs": [
        {
          "internalType": "contract IMultiFeeDistribution",
          "name": "",
          "type": "address"
        }
      ],
      "stateMutability": "view",
      "type": "function"
    },
    {
      "inputs": [],
      "name": "operationExpenseRatio",
      "outputs": [
        {
          "internalType": "uint256",
          "name": "",
          "type": "uint256"
        }
      ],
      "stateMutability": "view",
      "type": "function"
    },
    {
      "inputs": [],
      "name": "operationExpenses",
      "outputs": [
        {
          "internalType": "address",
          "name": "",
          "type": "address"
        }
      ],
      "stateMutability": "view",
      "type": "function"
    },
    {
      "inputs": [],
      "name": "owner",
      "outputs": [
        {
          "internalType": "address",
          "name": "",
          "type": "address"
        }
      ],
      "stateMutability": "view",
      "type": "function"
    },
    {
      "inputs": [],
      "name": "rdntToken",
      "outputs": [
        {
          "internalType": "contract IMintableToken",
          "name": "",
          "type": "address"
        }
      ],
      "stateMutability": "view",
      "type": "function"
    },
    {
      "inputs": [
        {
          "internalType": "address",
          "name": "tokenAddress",
          "type": "address"
        },
        {
          "internalType": "uint256",
          "name": "tokenAmount",
          "type": "uint256"
        }
      ],
      "name": "recoverERC20",
      "outputs": [],
      "stateMutability": "nonpayable",
      "type": "function"
    },
    {
      "inputs": [],
      "name": "renounceOwnership",
      "outputs": [],
      "stateMutability": "nonpayable",
      "type": "function"
    },
    {
      "inputs": [
        {
          "internalType": "contract IMultiFeeDistribution",
          "name": "_lpFeeDistribution",
          "type": "address"
        }
      ],
      "name": "setLPFeeDistribution",
      "outputs": [],
      "stateMutability": "nonpayable",
      "type": "function"
    },
    {
      "inputs": [
        {
          "internalType": "uint256",
          "name": "_lpLockingRewardRatio",
          "type": "uint256"
        }
      ],
      "name": "setLpLockingRewardRatio",
      "outputs": [],
      "stateMutability": "nonpayable",
      "type": "function"
    },
    {
      "inputs": [
        {
          "internalType": "address",
          "name": "_operationExpenses",
          "type": "address"
        },
        {
          "internalType": "uint256",
          "name": "_operationExpenseRatio",
          "type": "uint256"
        }
      ],
      "name": "setOperationExpenses",
      "outputs": [],
      "stateMutability": "nonpayable",
      "type": "function"
    },
    {
      "inputs": [
        {
          "internalType": "address",
          "name": "newOwner",
          "type": "address"
        }
      ],
      "name": "transferOwnership",
      "outputs": [],
      "stateMutability": "nonpayable",
      "type": "function"
    }
  ],
  "transactionHash": "0xbcd16f790514a8620e62ab21fe7fe0591db3aa93b07003c845019a4785810f22",
  "args": [],
  "numDeployments": 1,
  "solcInputHash": "78995fe69be866012cdea8ea4c4842de",
  "bytecode": "0x608060405234801561001057600080fd5b506117ae806100206000396000f3fe608060405234801561001057600080fd5b50600436106101285760003560e01c80630483a7f61461012d57806308c51c651461015a57806328f407481461016f5780634c6f713114610184578063542b3cb81461018c5780636a7e9f3314610194578063715018a6146101a95780638980f11f146101b15780638bb403eb146101c45780638da5cb5b146101cc57806392d1dbae146101d457806398f442bb146101dc5780639c9b2e21146101ef578063ab453a5914610202578063b5fd73f81461020a578063b82def931461022a578063c8d508b014610232578063cd57ed6c1461023a578063d30be90314610242578063dd36bd0e14610255578063f2fde38b1461025d578063f851a44014610270578063f8b336ac14610278578063f8c8765e1461028b575b600080fd5b61014061013b3660046112a5565b61029e565b6040516101519594939291906115b8565b60405180910390f35b61016d610168366004611347565b61033e565b005b610177610644565b604051610151919061151b565b610177610653565b610177610662565b61019c610671565b60405161015191906115af565b61016d610677565b61016d6101bf36600461131c565b6106e5565b6101776107a0565b6101776107af565b6101776107be565b61016d6101ea36600461131c565b6107cd565b61016d6101fd3660046112a5565b6108a9565b6101776109f2565b61021d6102183660046112a5565b610a01565b6040516101519190611548565b61019c610a16565b610177610a1c565b610177610a2b565b61016d6102503660046112a5565b610a3a565b61019c610aef565b61016d61026b3660046112a5565b610af5565b610177610ba8565b61016d6102863660046113e4565b610bb7565b61016d6102993660046112c1565b610c6d565b609954604051630241d3fb60e11b81526000918291829182916060916001600160a01b031690630483a7f6906102d890899060040161151b565b60006040518083038186803b1580156102f057600080fd5b505afa158015610304573d6000803e3d6000fd5b505050506040513d6000823e601f3d908101601f1916820160405261032c9190810190611414565b939a9299509097509550909350915050565b6098546001600160a01b031633148061036157506099546001600160a01b031633145b61036a57600080fd5b60005b815181101561064057600082828151811061038457fe5b60200260200101516001600160a01b03166370a08231306040518263ffffffff1660e01b81526004016103b7919061151b565b60206040518083038186803b1580156103cf57600080fd5b505afa1580156103e3573d6000803e3d6000fd5b505050506040513d601f19601f8201168201806040525081019061040791906113fc565b609d549091506001600160a01b0316158015906104255750609b5415155b156104a457600061044d612710610447609b5485610d7690919063ffffffff16565b90610dd8565b9050801561049657609d548451610496916001600160a01b031690839087908790811061047657fe5b60200260200101516001600160a01b0316610e179092919063ffffffff16565b6104a08282610e6e565b9150505b8282815181106104b057fe5b60200260200101516001600160a01b03166370a08231306040518263ffffffff1660e01b81526004016104e3919061151b565b60206040518083038186803b1580156104fb57600080fd5b505afa15801561050f573d6000803e3d6000fd5b505050506040513d601f19601f8201168201806040525081019061053391906113fc565b90506000610552612710610447609a5485610d7690919063ffffffff16565b9050801561057b57609854845161057b916001600160a01b031690839087908790811061047657fe5b600084848151811061058957fe5b60200260200101516001600160a01b03166370a08231306040518263ffffffff1660e01b81526004016105bc919061151b565b60206040518083038186803b1580156105d457600080fd5b505afa1580156105e8573d6000803e3d6000fd5b505050506040513d601f19601f8201168201806040525081019061060c91906113fc565b90508015610635576099548551610635916001600160a01b031690839088908890811061047657fe5b50505060010161036d565b5050565b6098546001600160a01b031690565b6097546001600160a01b031681565b6099546001600160a01b031681565b61271081565b61067f610eb0565b6001600160a01b03166106906107af565b6001600160a01b0316146106d9576040805162461bcd60e51b815260206004820181905260248201526000805160206116d6833981519152604482015290519081900360640190fd5b6106e36000610eb4565b565b6106ed610eb0565b6001600160a01b03166106fe6107af565b6001600160a01b031614610747576040805162461bcd60e51b815260206004820181905260248201526000805160206116d6833981519152604482015290519081900360640190fd5b6107636107526107af565b6001600160a01b0384169083610e17565b7f8c1256b8896378cd5044f80c202f9772b9d77dc85c8a6eb51967210b09bfaa28828260405161079492919061152f565b60405180910390a15050565b609f546001600160a01b031690565b6065546001600160a01b031690565b6098546001600160a01b031681565b6107d5610eb0565b609e546001600160a01b039081169116148061081057506107f4610eb0565b6001600160a01b03166108056107af565b6001600160a01b0316145b6108355760405162461bcd60e51b815260040161082c90611553565b60405180910390fd5b6127108111156108575760405162461bcd60e51b815260040161082c90611588565b609d80546001600160a01b0319166001600160a01b038416179055609b8190556040517fba1e229a9495e21f509ea04bfdca8f222980ac1cb76333de06f6833f1e3f62d690610794908490849061152f565b6108b1610eb0565b609e546001600160a01b03908116911614806108ec57506108d0610eb0565b6001600160a01b03166108e16107af565b6001600160a01b0316145b6109085760405162461bcd60e51b815260040161082c90611553565b609954604051639c9b2e2160e01b81526001600160a01b0390911690639c9b2e219061093890849060040161151b565b600060405180830381600087803b15801561095257600080fd5b505af1158015610966573d6000803e3d6000fd5b5050609854604051639c9b2e2160e01b81526001600160a01b039091169250639c9b2e21915061099a90849060040161151b565b600060405180830381600087803b1580156109b457600080fd5b505af11580156109c8573d6000803e3d6000fd5b5050506001600160a01b039091166000908152609c60205260409020805460ff1916600117905550565b6097546001600160a01b031690565b609c6020526000908152604090205460ff1681565b609a5481565b609d546001600160a01b031681565b6099546001600160a01b031690565b610a42610eb0565b609e546001600160a01b0390811691161480610a7d5750610a61610eb0565b6001600160a01b0316610a726107af565b6001600160a01b0316145b610a995760405162461bcd60e51b815260040161082c90611553565b609880546001600160a01b0319166001600160a01b0383161790556040517f0c87dc2f7431709f171cde3001127c154b65cd22dc6c4695f3f718821f26a42790610ae490839061151b565b60405180910390a150565b609b5481565b610afd610eb0565b6001600160a01b0316610b0e6107af565b6001600160a01b031614610b57576040805162461bcd60e51b815260206004820181905260248201526000805160206116d6833981519152604482015290519081900360640190fd5b6001600160a01b038116610b9c5760405162461bcd60e51b815260040180806020018281038252602681526020018061168f6026913960400191505060405180910390fd5b610ba581610eb4565b50565b609e546001600160a01b031681565b610bbf610eb0565b609e546001600160a01b0390811691161480610bfa5750610bde610eb0565b6001600160a01b0316610bef6107af565b6001600160a01b0316145b610c165760405162461bcd60e51b815260040161082c90611553565b612710811115610c385760405162461bcd60e51b815260040161082c90611588565b609a8190556040517f1348fcd6cc6f4974c75a9c3a1db3d5106bcc97df42167c37777a40413f52272c90610ae49083906115af565b600054610100900460ff1680610c865750610c86610f06565b80610c94575060005460ff16155b610ccf5760405162461bcd60e51b815260040180806020018281038252602e8152602001806116f6602e913960400191505060405180910390fd5b600054610100900460ff16158015610cfa576000805460ff1961ff0019909116610100171660011790555b610d02610f0c565b609780546001600160a01b038088166001600160a01b031992831617909255609f8054878416908316179055609880548684169083161790556099805492851692821692909217909155612710609a55609e8054909116331790558015610d6f576000805461ff00191690555b5050505050565b600082610d8557506000610dd2565b82820282848281610d9257fe5b0414610dcf5760405162461bcd60e51b81526004018080602001828103825260218152602001806116b56021913960400191505060405180910390fd5b90505b92915050565b6000610dcf83836040518060400160405280601a815260200179536166654d6174683a206469766973696f6e206279207a65726f60301b815250610f5a565b604080516001600160a01b038416602482015260448082018490528251808303909101815260649091019091526020810180516001600160e01b031663a9059cbb60e01b179052610e69908490610ffc565b505050565b6000610dcf83836040518060400160405280601e81526020017f536166654d6174683a207375627472616374696f6e206f766572666c6f7700008152506111b9565b3390565b606580546001600160a01b038381166001600160a01b0319831681179093556040519116919082907f8be0079c531659141344cd1fd0a4f28419497f9722a3daafe3b4186f6b6457e090600090a35050565b303b1590565b600054610100900460ff16610f525760405162461bcd60e51b815260040180806020018281038252602b815260200180611724602b913960400191505060405180910390fd5b6106e3611213565b60008183610fe65760405162461bcd60e51b81526004018080602001828103825283818151815260200191508051906020019080838360005b83811015610fab578181015183820152602001610f93565b50505050905090810190601f168015610fd85780820380516001836020036101000a031916815260200191505b509250505060405180910390fd5b506000838581610ff257fe5b0495945050505050565b61100e826001600160a01b0316611269565b61105f576040805162461bcd60e51b815260206004820152601f60248201527f5361666545524332303a2063616c6c20746f206e6f6e2d636f6e747261637400604482015290519081900360640190fd5b600080836001600160a01b0316836040518082805190602001908083835b6020831061109c5780518252601f19909201916020918201910161107d565b6001836020036101000a0380198251168184511680821785525050505050509050019150506000604051808303816000865af19150503d80600081146110fe576040519150601f19603f3d011682016040523d82523d6000602084013e611103565b606091505b50915091508161115a576040805162461bcd60e51b815260206004820181905260248201527f5361666545524332303a206c6f772d6c6576656c2063616c6c206661696c6564604482015290519081900360640190fd5b8051156111b35780806020019051602081101561117657600080fd5b50516111b35760405162461bcd60e51b815260040180806020018281038252602a81526020018061174f602a913960400191505060405180910390fd5b50505050565b6000818484111561120b5760405162461bcd60e51b8152602060048201818152835160248401528351909283926044909101919085019080838360008315610fab578181015183820152602001610f93565b505050900390565b600054610100900460ff166112595760405162461bcd60e51b815260040180806020018281038252602b815260200180611724602b913960400191505060405180910390fd5b6106e3611264610eb0565b610eb4565b6000813f7fc5d2460186f7233c927e7db2dcc703c0e500b653ca82273b7bfad8045d85a47081811480159061129d57508115155b949350505050565b6000602082840312156112b6578081fd5b8135610dcf81611679565b600080600080608085870312156112d6578283fd5b84356112e181611679565b935060208501356112f181611679565b9250604085013561130181611679565b9150606085013561131181611679565b939692955090935050565b6000806040838503121561132e578182fd5b823561133981611679565b946020939093013593505050565b60006020808385031215611359578182fd5b82356001600160401b0381111561136e578283fd5b8301601f8101851361137e578283fd5b803561139161138c8261165c565b611639565b81815283810190838501858402850186018910156113ad578687fd5b8694505b838510156113d85780356113c481611679565b8352600194909401939185019185016113b1565b50979650505050505050565b6000602082840312156113f5578081fd5b5035919050565b60006020828403121561140d578081fd5b5051919050565b600080600080600060a0868803121561142b578081fd5b8551602080880151604089015160608a015160808b015194995091975095509350906001600160401b0380821115611461578384fd5b818901915089601f830112611474578384fd5b815161148261138c8261165c565b8181528481019084860160808402860187018e101561149f578788fd5b8795505b83861015611507576080818f0312156114ba578788fd5b6040516080810181811087821117156114cf57fe5b6040908152825182528883015189830152828101519082015260608083015190820152835260019590950194918601916080016114a3565b508096505050505050509295509295909350565b6001600160a01b0391909116815260200190565b6001600160a01b03929092168252602082015260400190565b901515815260200190565b6020808252818101527f63616c6c6572206973206e6f74207468652061646d696e206f72206f776e6572604082015260600190565b6020808252600d908201526c496e76616c696420726174696f60981b604082015260600190565b90815260200190565b600060a08201878352602087818501526040878186015260608781870152608060a08188015284885180875260c089019150858a019650875b8181101561162657875180518452878101518885015286810151878501528501518584015296860196918301916001016115f1565b50909d9c50505050505050505050505050565b6040518181016001600160401b038111828210171561165457fe5b604052919050565b60006001600160401b0382111561166f57fe5b5060209081020190565b6001600160a01b0381168114610ba557600080fdfe4f776e61626c653a206e6577206f776e657220697320746865207a65726f2061646472657373536166654d6174683a206d756c7469706c69636174696f6e206f766572666c6f774f776e61626c653a2063616c6c6572206973206e6f7420746865206f776e6572436f6e747261637420696e7374616e63652068617320616c7265616479206265656e20696e697469616c697a6564496e697469616c697a61626c653a20636f6e7472616374206973206e6f7420696e697469616c697a696e675361666545524332303a204552433230206f7065726174696f6e20646964206e6f742073756363656564a2646970667358221220bdfd909997de59e29bf3b5ed084289a641c4097f6307ba5d7097624f875946b764736f6c63430007060033",
  "devdoc": {
    "author": "Radiant",
    "details": "All function calls are currently implemented without side effects",
    "kind": "dev",
    "methods": {
      "lockedBalances(address)": {
        "details": "It currently returns just MFD infos."
      }
    },
    "title": "Fee distributor inside ",
    "version": 1
  },
  "userdoc": {
    "events": {
      "ForwardReward(address,uint256)": {
        "notice": "Emitted when reward token is forwarded"
      },
      "LPFeeDistributionUpdated(address)": {
        "notice": "Emitted when lp fee distribution is set"
      },
      "LpLockingRewardRatioUpdated(uint256)": {
        "notice": "Emitted when LP locking reward ratio is set "
      },
      "OperationExpensesUpdated(address,uint256)": {
        "notice": "Emitted when operation expenses is set"
      },
      "Recovered(address,uint256)": {
        "notice": "Emitted when ERC20 token is recovered"
      },
      "SetOperationExpenses(address,uint256)": {
        "notice": "Emitted when OpEx info is updated"
      }
    },
    "kind": "user",
    "methods": {
      "addReward(address)": {
        "notice": "Add a new reward token to be distributed to stakers"
      },
      "admin()": {
        "notice": "Admin address"
      },
      "forwardReward(address[])": {
        "notice": "Added to support recovering LP Rewards from other systems such as BAL to be distributed to holders"
      },
      "lockedBalances(address)": {
        "notice": "Returns lock information of a user."
      },
      "lpFeeDistribution()": {
        "notice": "Fee distributor contract for lp locking"
      },
      "lpLockingRewardRatio()": {
        "notice": "Reward ratio for lp locking in bips"
      },
      "multiFeeDistribution()": {
        "notice": "Fee distributor contract for earnings and RDNT lockings"
      },
      "operationExpenseRatio()": {
        "notice": "Reward ratio for operation expenses"
      },
      "operationExpenses()": {
        "notice": "Operation Expense account"
      },
      "rdntToken()": {
        "notice": "RDNT token"
      },
      "recoverERC20(address,uint256)": {
        "notice": "Added to support recovering LP Rewards from other systems such as BAL to be distributed to holders"
      },
      "setLPFeeDistribution(address)": {
        "notice": "Set lp fee distribution contract"
      },
      "setLpLockingRewardRatio(uint256)": {
        "notice": "Set reward ratio for lp token locking"
      },
      "setOperationExpenses(address,uint256)": {
        "notice": "Set operation expenses account"
      }
    },
    "version": 1
  },
  "storageLayout": {
    "storage": [
      {
        "astId": 6361,
        "contract": "contracts/staking/MiddleFeeDistribution.sol:MiddleFeeDistribution",
        "label": "initialized",
        "offset": 0,
        "slot": "0",
        "type": "t_bool"
      },
      {
        "astId": 6364,
        "contract": "contracts/staking/MiddleFeeDistribution.sol:MiddleFeeDistribution",
        "label": "initializing",
        "offset": 1,
        "slot": "0",
        "type": "t_bool"
      },
      {
        "astId": 6431,
        "contract": "contracts/staking/MiddleFeeDistribution.sol:MiddleFeeDistribution",
        "label": "______gap",
        "offset": 0,
        "slot": "1",
        "type": "t_array(t_uint256)50_storage"
      },
      {
        "astId": 6354,
        "contract": "contracts/staking/MiddleFeeDistribution.sol:MiddleFeeDistribution",
        "label": "__gap",
        "offset": 0,
        "slot": "51",
        "type": "t_array(t_uint256)50_storage"
      },
      {
        "astId": 6576,
        "contract": "contracts/staking/MiddleFeeDistribution.sol:MiddleFeeDistribution",
        "label": "_owner",
        "offset": 0,
        "slot": "101",
        "type": "t_address"
      },
      {
        "astId": 6681,
        "contract": "contracts/staking/MiddleFeeDistribution.sol:MiddleFeeDistribution",
        "label": "__gap",
        "offset": 0,
        "slot": "102",
        "type": "t_array(t_uint256)49_storage"
      },
      {
        "astId": 42858,
        "contract": "contracts/staking/MiddleFeeDistribution.sol:MiddleFeeDistribution",
        "label": "rdntToken",
        "offset": 0,
        "slot": "151",
        "type": "t_contract(IMintableToken)12625"
      },
      {
        "astId": 42861,
        "contract": "contracts/staking/MiddleFeeDistribution.sol:MiddleFeeDistribution",
        "label": "lpFeeDistribution",
        "offset": 0,
        "slot": "152",
        "type": "t_contract(IMultiFeeDistribution)12722"
      },
      {
        "astId": 42864,
        "contract": "contracts/staking/MiddleFeeDistribution.sol:MiddleFeeDistribution",
        "label": "multiFeeDistribution",
        "offset": 0,
        "slot": "153",
        "type": "t_contract(IMultiFeeDistribution)12722"
      },
      {
        "astId": 42868,
        "contract": "contracts/staking/MiddleFeeDistribution.sol:MiddleFeeDistribution",
        "label": "lpLockingRewardRatio",
        "offset": 0,
        "slot": "154",
        "type": "t_uint256"
      },
      {
        "astId": 42872,
        "contract": "contracts/staking/MiddleFeeDistribution.sol:MiddleFeeDistribution",
        "label": "operationExpenseRatio",
        "offset": 0,
        "slot": "155",
        "type": "t_uint256"
      },
      {
        "astId": 42880,
        "contract": "contracts/staking/MiddleFeeDistribution.sol:MiddleFeeDistribution",
        "label": "isRewardToken",
        "offset": 0,
        "slot": "156",
        "type": "t_mapping(t_address,t_bool)"
      },
      {
        "astId": 42884,
        "contract": "contracts/staking/MiddleFeeDistribution.sol:MiddleFeeDistribution",
        "label": "operationExpenses",
        "offset": 0,
        "slot": "157",
        "type": "t_address"
      },
      {
        "astId": 42887,
        "contract": "contracts/staking/MiddleFeeDistribution.sol:MiddleFeeDistribution",
        "label": "admin",
        "offset": 0,
        "slot": "158",
        "type": "t_address"
      },
      {
        "astId": 42889,
        "contract": "contracts/staking/MiddleFeeDistribution.sol:MiddleFeeDistribution",
        "label": "_mfdStats",
        "offset": 0,
        "slot": "159",
        "type": "t_address"
      }
    ],
    "types": {
      "t_address": {
        "encoding": "inplace",
        "label": "address",
        "numberOfBytes": "20"
      },
      "t_array(t_uint256)49_storage": {
        "base": "t_uint256",
        "encoding": "inplace",
        "label": "uint256[49]",
        "numberOfBytes": "1568"
      },
      "t_array(t_uint256)50_storage": {
        "base": "t_uint256",
        "encoding": "inplace",
        "label": "uint256[50]",
        "numberOfBytes": "1600"
      },
      "t_bool": {
        "encoding": "inplace",
        "label": "bool",
        "numberOfBytes": "1"
      },
      "t_contract(IMintableToken)12625": {
        "encoding": "inplace",
        "label": "contract IMintableToken",
        "numberOfBytes": "20"
      },
      "t_contract(IMultiFeeDistribution)12722": {
        "encoding": "inplace",
        "label": "contract IMultiFeeDistribution",
        "numberOfBytes": "20"
      },
      "t_mapping(t_address,t_bool)": {
        "encoding": "mapping",
        "key": "t_address",
        "label": "mapping(address => bool)",
        "numberOfBytes": "32",
        "value": "t_bool"
      },
      "t_uint256": {
        "encoding": "inplace",
        "label": "uint256",
        "numberOfBytes": "32"
      }
    }
  }
}