{
  "address": "0x523fA5ce23b58386D689EB1a0D419A35049dE038",
  "abi": [
    {
      "inputs": [
        {
          "internalType": "contract ERC20",
          "name": "_tokenV1",
          "type": "address"
        },
        {
          "internalType": "contract ERC20",
          "name": "_tokenV2",
          "type": "address"
        }
      ],
      "stateMutability": "nonpayable",
      "type": "constructor"
    },
    {
      "anonymous": false,
      "inputs": [
        {
          "indexed": false,
          "internalType": "uint256",
          "name": "exchangeRate",
          "type": "uint256"
        }
      ],
      "name": "ExchangeRateUpdated",
      "type": "event"
    },
    {
      "anonymous": false,
      "inputs": [
        {
          "indexed": true,
          "internalType": "address",
          "name": "user",
          "type": "address"
        },
        {
          "indexed": false,
          "internalType": "uint256",
          "name": "amountV1",
          "type": "uint256"
        },
        {
          "indexed": false,
          "internalType": "uint256",
          "name": "amountV2",
          "type": "uint256"
        }
      ],
      "name": "Migrate",
      "type": "event"
    },
    {
      "anonymous": false,
      "inputs": [
        {
          "indexed": true,
          "internalType": "address",
          "name": "previousOwner",
          "type": "address"
        },
        {
          "indexed": true,
          "internalType": "address",
          "name": "newOwner",
          "type": "address"
        }
      ],
      "name": "OwnershipTransferred",
      "type": "event"
    },
    {
      "anonymous": false,
      "inputs": [
        {
          "indexed": false,
          "internalType": "address",
          "name": "account",
          "type": "address"
        }
      ],
      "name": "Paused",
      "type": "event"
    },
    {
      "anonymous": false,
      "inputs": [
        {
          "indexed": false,
          "internalType": "address",
          "name": "account",
          "type": "address"
        }
      ],
      "name": "Unpaused",
      "type": "event"
    },
    {
      "inputs": [
        {
          "internalType": "uint256",
          "name": "amount",
          "type": "uint256"
        }
      ],
      "name": "exchange",
      "outputs": [],
      "stateMutability": "nonpayable",
      "type": "function"
    },
    {
      "inputs": [],
      "name": "exchangeRate",
      "outputs": [
        {
          "internalType": "uint256",
          "name": "",
          "type": "uint256"
        }
      ],
      "stateMutability": "view",
      "type": "function"
    },
    {
      "inputs": [],
      "name": "isExchangeRateFixed",
      "outputs": [
        {
          "internalType": "bool",
          "name": "",
          "type": "bool"
        }
      ],
      "stateMutability": "view",
      "type": "function"
    },
    {
      "inputs": [],
      "name": "owner",
      "outputs": [
        {
          "internalType": "address",
          "name": "",
          "type": "address"
        }
      ],
      "stateMutability": "view",
      "type": "function"
    },
    {
      "inputs": [
        {
          "internalType": "bool",
          "name": "pause",
          "type": "bool"
        }
      ],
      "name": "pauseMigration",
      "outputs": [],
      "stateMutability": "nonpayable",
      "type": "function"
    },
    {
      "inputs": [],
      "name": "paused",
      "outputs": [
        {
          "internalType": "bool",
          "name": "",
          "type": "bool"
        }
      ],
      "stateMutability": "view",
      "type": "function"
    },
    {
      "inputs": [],
      "name": "renounceOwnership",
      "outputs": [],
      "stateMutability": "nonpayable",
      "type": "function"
    },
    {
      "inputs": [
        {
          "internalType": "uint256",
          "name": "_exchangeRate",
          "type": "uint256"
        }
      ],
      "name": "setExchangeRate",
      "outputs": [],
      "stateMutability": "nonpayable",
      "type": "function"
    },
    {
      "inputs": [],
      "name": "tokenV1",
      "outputs": [
        {
          "internalType": "contract ERC20",
          "name": "",
          "type": "address"
        }
      ],
      "stateMutability": "view",
      "type": "function"
    },
    {
      "inputs": [],
      "name": "tokenV2",
      "outputs": [
        {
          "internalType": "contract ERC20",
          "name": "",
          "type": "address"
        }
      ],
      "stateMutability": "view",
      "type": "function"
    },
    {
      "inputs": [
        {
          "internalType": "address",
          "name": "newOwner",
          "type": "address"
        }
      ],
      "name": "transferOwnership",
      "outputs": [],
      "stateMutability": "nonpayable",
      "type": "function"
    },
    {
      "inputs": [
        {
          "internalType": "contract ERC20",
          "name": "token",
          "type": "address"
        },
        {
          "internalType": "uint256",
          "name": "amount",
          "type": "uint256"
        },
        {
          "internalType": "address",
          "name": "to",
          "type": "address"
        }
      ],
      "name": "withdrawToken",
      "outputs": [],
      "stateMutability": "nonpayable",
      "type": "function"
    }
  ],
  "transactionHash": "0x493b586593a7d579cd211d4421621933ae6768e6f376b17245a507cb3fd0c6dc",
  "args": [
    "0x3dF6EE678AA53FFE12E9C901141d4419429e25B9",
    "0x20d9C60d0d5985fE56104f8B1fd68A191137FE5E"
  ],
  "numDeployments": 1,
  "solcInputHash": "78995fe69be866012cdea8ea4c4842de",
  "bytecode": "0x608060405234801561001057600080fd5b50604051610f0d380380610f0d8339818101604052604081101561003357600080fd5b50805160209091015160006100466100e2565b600080546001600160a01b0319166001600160a01b0383169081178255604051929350917f8be0079c531659141344cd1fd0a4f28419497f9722a3daafe3b4186f6b6457e0908290a3506000805460ff60a01b19169055600180546001600160a01b038085166001600160a01b03199283161790925560028054928416929091169190911790556127106003556100db6100e6565b50506101a6565b3390565b6100ee610147565b6000805460ff60a01b1916600160a01b1790557f62e78cea01bee320cd4e420270b5ea74000d11b0c9f74754ebdbfc544b05a25861012a6100e2565b604080516001600160a01b039092168252519081900360200190a1565b61014f610196565b15610194576040805162461bcd60e51b815260206004820152601060248201526f14185d5cd8589b194e881c185d5cd95960821b604482015290519081900360640190fd5b565b600054600160a01b900460ff1690565b610d58806101b56000396000f3fe608060405234801561001057600080fd5b50600436106100a45760003560e01c80631382d8c2146100a957806334fa505d146100cd5780633ba0b9a9146100ee5780633ccdbb2814610108578063535565591461013e5780635c975abb1461015b578063715018a61461017757806383b25b891461017f5780638da5cb5b14610187578063db068e0e1461018f578063e3038b84146101ac578063f2fde38b146101b4575b600080fd5b6100b16101da565b604080516001600160a01b039092168252519081900360200190f35b6100ec600480360360208110156100e357600080fd5b503515156101e9565b005b6100f661025e565b60408051918252519081900360200190f35b6100ec6004803603606081101561011e57600080fd5b506001600160a01b03813581169160208101359160409091013516610264565b6100ec6004803603602081101561015457600080fd5b50356102d5565b6101636104af565b604080519115158252519081900360200190f35b6100ec6104bf565b6100b161054f565b6100b161055e565b6100ec600480360360208110156101a557600080fd5b503561056d565b610163610658565b6100ec600480360360208110156101ca57600080fd5b50356001600160a01b0316610661565b6002546001600160a01b031681565b6101f1610747565b6000546001600160a01b03908116911614610241576040805162461bcd60e51b81526020600482018190526024820152600080516020610cb9833981519152604482015290519081900360640190fd5b806102535761024e61074b565b61025b565b61025b6107a6565b50565b60035481565b61026c610747565b6000546001600160a01b039081169116146102bc576040805162461bcd60e51b81526020600482018190526024820152600080516020610cb9833981519152604482015290519081900360640190fd5b6102d06001600160a01b03841682846107ea565b505050565b6102dd61083c565b60045460ff166102f5576004805460ff191660011790555b6001546040805163313ce56760e01b815290516000926001600160a01b03169163313ce567916004808301926020929190829003018186803b15801561033a57600080fd5b505afa15801561034e573d6000803e3d6000fd5b505050506040513d602081101561036457600080fd5b50516002546040805163313ce56760e01b8152905160ff90931693506000926001600160a01b039092169163313ce56791600480820192602092909190829003018186803b1580156103b557600080fd5b505afa1580156103c9573d6000803e3d6000fd5b505050506040513d60208110156103df57600080fd5b505160035460ff909116915060009061041a90600a85810a9161040e9186900a9061041490838a61271061088b565b906108ed565b9061088b565b905061043b610427610747565b6001546001600160a01b031690308761092c565b610459610446610747565b6002546001600160a01b031690836107ea565b610461610747565b6001600160a01b03167fd44a6dd2bfac4f6bc02d116d96aa12c24e8580626b95cb6a2f543f18cb61bd4c8583604051808381526020018281526020019250505060405180910390a250505050565b600054600160a01b900460ff1690565b6104c7610747565b6000546001600160a01b03908116911614610517576040805162461bcd60e51b81526020600482018190526024820152600080516020610cb9833981519152604482015290519081900360640190fd5b600080546040516001600160a01b0390911690600080516020610cd9833981519152908390a3600080546001600160a01b0319169055565b6001546001600160a01b031681565b6000546001600160a01b031690565b610575610747565b6000546001600160a01b039081169116146105c5576040805162461bcd60e51b81526020600482018190526024820152600080516020610cb9833981519152604482015290519081900360640190fd5b60045460ff161561061d576040805162461bcd60e51b815260206004820152601e60248201527f557365727320616c72656164792065786368616e67656420746f6b656e730000604482015290519081900360640190fd5b60038190556040805182815290517f388f446e9526fe5c9af20a5919b342370c8a7c0cb05245afe1e545658fa3cdba9181900360200190a150565b60045460ff1681565b610669610747565b6000546001600160a01b039081169116146106b9576040805162461bcd60e51b81526020600482018190526024820152600080516020610cb9833981519152604482015290519081900360640190fd5b6001600160a01b0381166106fe5760405162461bcd60e51b8152600401808060200182810382526026815260200180610c726026913960400191505060405180910390fd5b600080546040516001600160a01b0380851693921691600080516020610cd983398151915291a3600080546001600160a01b0319166001600160a01b0392909216919091179055565b3390565b61075361098c565b6000805460ff60a01b191690557f5db9ee0a495bf2e6ff9c91a7834c1ba4fdd244a5e8aa4e537bd38aeae4b073aa610789610747565b604080516001600160a01b039092168252519081900360200190a1565b6107ae61083c565b6000805460ff60a01b1916600160a01b1790557f62e78cea01bee320cd4e420270b5ea74000d11b0c9f74754ebdbfc544b05a258610789610747565b604080516001600160a01b038416602482015260448082018490528251808303909101815260649091019091526020810180516001600160e01b031663a9059cbb60e01b1790526102d09084906109dc565b6108446104af565b15610889576040805162461bcd60e51b815260206004820152601060248201526f14185d5cd8589b194e881c185d5cd95960821b604482015290519081900360640190fd5b565b60008261089a575060006108e7565b828202828482816108a757fe5b04146108e45760405162461bcd60e51b8152600401808060200182810382526021815260200180610c986021913960400191505060405180910390fd5b90505b92915050565b60006108e483836040518060400160405280601a815260200179536166654d6174683a206469766973696f6e206279207a65726f60301b815250610b93565b604080516001600160a01b0380861660248301528416604482015260648082018490528251808303909101815260849091019091526020810180516001600160e01b03166323b872dd60e01b1790526109869085906109dc565b50505050565b6109946104af565b610889576040805162461bcd60e51b815260206004820152601460248201527314185d5cd8589b194e881b9bdd081c185d5cd95960621b604482015290519081900360640190fd5b6109ee826001600160a01b0316610c35565b610a3f576040805162461bcd60e51b815260206004820152601f60248201527f5361666545524332303a2063616c6c20746f206e6f6e2d636f6e747261637400604482015290519081900360640190fd5b600080836001600160a01b0316836040518082805190602001908083835b60208310610a7c5780518252601f199092019160209182019101610a5d565b6001836020036101000a0380198251168184511680821785525050505050509050019150506000604051808303816000865af19150503d8060008114610ade576040519150601f19603f3d011682016040523d82523d6000602084013e610ae3565b606091505b509150915081610b3a576040805162461bcd60e51b815260206004820181905260248201527f5361666545524332303a206c6f772d6c6576656c2063616c6c206661696c6564604482015290519081900360640190fd5b80511561098657808060200190516020811015610b5657600080fd5b50516109865760405162461bcd60e51b815260040180806020018281038252602a815260200180610cf9602a913960400191505060405180910390fd5b60008183610c1f5760405162461bcd60e51b81526004018080602001828103825283818151815260200191508051906020019080838360005b83811015610be4578181015183820152602001610bcc565b50505050905090810190601f168015610c115780820380516001836020036101000a031916815260200191505b509250505060405180910390fd5b506000838581610c2b57fe5b0495945050505050565b6000813f7fc5d2460186f7233c927e7db2dcc703c0e500b653ca82273b7bfad8045d85a470818114801590610c6957508115155b94935050505056fe4f776e61626c653a206e6577206f776e657220697320746865207a65726f2061646472657373536166654d6174683a206d756c7469706c69636174696f6e206f766572666c6f774f776e61626c653a2063616c6c6572206973206e6f7420746865206f776e65728be0079c531659141344cd1fd0a4f28419497f9722a3daafe3b4186f6b6457e05361666545524332303a204552433230206f7065726174696f6e20646964206e6f742073756363656564a2646970667358221220a51ed2cd4398e008b32662bef6e4bd1448517779b8a6a448e67656468839b29064736f6c63430007060033",
  "devdoc": {
    "author": "Radiant team",
    "details": "All function calls are currently implemented without side effects",
    "kind": "dev",
    "methods": {
      "constructor": {
        "params": {
          "_tokenV1": "RDNT V1 token address",
          "_tokenV2": "RDNT V2 token address"
        }
      },
      "exchange(uint256)": {
        "params": {
          "amount": "of V1 token"
        }
      },
      "owner()": {
        "details": "Returns the address of the current owner."
      },
      "pauseMigration(bool)": {
        "params": {
          "pause": "or unpause, true for pause"
        }
      },
      "paused()": {
        "details": "Returns true if the contract is paused, and false otherwise."
      },
      "renounceOwnership()": {
        "details": "Leaves the contract without owner. It will not be possible to call `onlyOwner` functions anymore. Can only be called by the current owner. NOTE: Renouncing ownership will leave the contract without an owner, thereby removing any functionality that is only available to the owner."
      },
      "setExchangeRate(uint256)": {
        "params": {
          "_exchangeRate": "from V1 to V2"
        }
      },
      "transferOwnership(address)": {
        "details": "Transfers ownership of the contract to a new account (`newOwner`). Can only be called by the current owner."
      },
      "withdrawToken(address,uint256,address)": {
        "params": {
          "amount": "to withdraw",
          "to": "target address",
          "token": "address for withdraw"
        }
      }
    },
    "title": "Migration contract from V1 to V2",
    "version": 1
  },
  "userdoc": {
    "events": {
      "ExchangeRateUpdated(uint256)": {
        "notice": "emitted when exchange rate is updated"
      },
      "Migrate(address,uint256,uint256)": {
        "notice": "emitted when migrate v1 token into v2"
      }
    },
    "kind": "user",
    "methods": {
      "constructor": {
        "notice": "constructor"
      },
      "exchange(uint256)": {
        "notice": "Migrate from V1 to V2"
      },
      "exchangeRate()": {
        "notice": "Exchange rate in bips; if V1:V2 is 10:1 then, 10 * 1e4 "
      },
      "isExchangeRateFixed()": {
        "notice": "Any user exchanging tokens will fix the exchange rate"
      },
      "pauseMigration(bool)": {
        "notice": "Pause or Unpause migration"
      },
      "setExchangeRate(uint256)": {
        "notice": "Sets exchange rate"
      },
      "tokenV1()": {
        "notice": "V1 of RDNT"
      },
      "tokenV2()": {
        "notice": "V2 of RDNT"
      },
      "withdrawToken(address,uint256,address)": {
        "notice": "Withdraw ERC20 token"
      }
    },
    "version": 1
  },
  "storageLayout": {
    "storage": [
      {
        "astId": 5437,
        "contract": "contracts/oft/Migration.sol:Migration",
        "label": "_owner",
        "offset": 0,
        "slot": "0",
        "type": "t_address"
      },
      {
        "astId": 5556,
        "contract": "contracts/oft/Migration.sol:Migration",
        "label": "_paused",
        "offset": 20,
        "slot": "0",
        "type": "t_bool"
      },
      {
        "astId": 20268,
        "contract": "contracts/oft/Migration.sol:Migration",
        "label": "tokenV1",
        "offset": 0,
        "slot": "1",
        "type": "t_contract(ERC20)5317"
      },
      {
        "astId": 20271,
        "contract": "contracts/oft/Migration.sol:Migration",
        "label": "tokenV2",
        "offset": 0,
        "slot": "2",
        "type": "t_contract(ERC20)5317"
      },
      {
        "astId": 20274,
        "contract": "contracts/oft/Migration.sol:Migration",
        "label": "exchangeRate",
        "offset": 0,
        "slot": "3",
        "type": "t_uint256"
      },
      {
        "astId": 20277,
        "contract": "contracts/oft/Migration.sol:Migration",
        "label": "isExchangeRateFixed",
        "offset": 0,
        "slot": "4",
        "type": "t_bool"
      }
    ],
    "types": {
      "t_address": {
        "encoding": "inplace",
        "label": "address",
        "numberOfBytes": "20"
      },
      "t_bool": {
        "encoding": "inplace",
        "label": "bool",
        "numberOfBytes": "1"
      },
      "t_contract(ERC20)5317": {
        "encoding": "inplace",
        "label": "contract ERC20",
        "numberOfBytes": "20"
      },
      "t_uint256": {
        "encoding": "inplace",
        "label": "uint256",
        "numberOfBytes": "32"
      }
    }
  }
}