{
  "address": "0xC6970c56A297002AC0d6e736e1862641860aE218",
  "abi": [
    {
      "anonymous": false,
      "inputs": [
        {
          "indexed": true,
          "internalType": "address",
          "name": "previousOwner",
          "type": "address"
        },
        {
          "indexed": true,
          "internalType": "address",
          "name": "newOwner",
          "type": "address"
        }
      ],
      "name": "OwnershipTransferred",
      "type": "event"
    },
    {
      "inputs": [],
      "name": "baseTokenPriceInUsdProxyAggregator",
      "outputs": [
        {
          "internalType": "contract IChainlinkAggregator",
          "name": "",
          "type": "address"
        }
      ],
      "stateMutability": "view",
      "type": "function"
    },
    {
      "inputs": [],
      "name": "decimals",
      "outputs": [
        {
          "internalType": "uint256",
          "name": "",
          "type": "uint256"
        }
      ],
      "stateMutability": "pure",
      "type": "function"
    },
    {
      "inputs": [],
      "name": "eligibilityProvider",
      "outputs": [
        {
          "internalType": "contract IEligibilityDataProvider",
          "name": "",
          "type": "address"
        }
      ],
      "stateMutability": "view",
      "type": "function"
    },
    {
      "inputs": [],
      "name": "getLpTokenAddress",
      "outputs": [
        {
          "internalType": "address",
          "name": "",
          "type": "address"
        }
      ],
      "stateMutability": "view",
      "type": "function"
    },
    {
      "inputs": [],
      "name": "getLpTokenPrice",
      "outputs": [
        {
          "internalType": "uint256",
          "name": "",
          "type": "uint256"
        }
      ],
      "stateMutability": "view",
      "type": "function"
    },
    {
      "inputs": [],
      "name": "getLpTokenPriceUsd",
      "outputs": [
        {
          "internalType": "uint256",
          "name": "price",
          "type": "uint256"
        }
      ],
      "stateMutability": "view",
      "type": "function"
    },
    {
      "inputs": [],
      "name": "getTokenPrice",
      "outputs": [
        {
          "internalType": "uint256",
          "name": "",
          "type": "uint256"
        }
      ],
      "stateMutability": "view",
      "type": "function"
    },
    {
      "inputs": [],
      "name": "getTokenPriceUsd",
      "outputs": [
        {
          "internalType": "uint256",
          "name": "",
          "type": "uint256"
        }
      ],
      "stateMutability": "view",
      "type": "function"
    },
    {
      "inputs": [
        {
          "internalType": "contract IChainlinkAggregator",
          "name": "_baseTokenPriceInUsdProxyAggregator",
          "type": "address"
        },
        {
          "internalType": "contract IPoolHelper",
          "name": "_poolHelper",
          "type": "address"
        },
        {
          "internalType": "contract IBaseOracle",
          "name": "_oracle",
          "type": "address"
        }
      ],
      "name": "initialize",
      "outputs": [],
      "stateMutability": "nonpayable",
      "type": "function"
    },
    {
      "inputs": [],
      "name": "oracle",
      "outputs": [
        {
          "internalType": "contract IBaseOracle",
          "name": "",
          "type": "address"
        }
      ],
      "stateMutability": "view",
      "type": "function"
    },
    {
      "inputs": [],
      "name": "owner",
      "outputs": [
        {
          "internalType": "address",
          "name": "",
          "type": "address"
        }
      ],
      "stateMutability": "view",
      "type": "function"
    },
    {
      "inputs": [],
      "name": "poolHelper",
      "outputs": [
        {
          "internalType": "contract IPoolHelper",
          "name": "",
          "type": "address"
        }
      ],
      "stateMutability": "view",
      "type": "function"
    },
    {
      "inputs": [],
      "name": "renounceOwnership",
      "outputs": [],
      "stateMutability": "nonpayable",
      "type": "function"
    },
    {
      "inputs": [
        {
          "internalType": "address",
          "name": "newOwner",
          "type": "address"
        }
      ],
      "name": "transferOwnership",
      "outputs": [],
      "stateMutability": "nonpayable",
      "type": "function"
    },
    {
      "inputs": [],
      "name": "update",
      "outputs": [],
      "stateMutability": "nonpayable",
      "type": "function"
    }
  ],
  "transactionHash": "0x026260a625337010e621ed6740caaafc4877470178491cb9ce831165afbc91c4",
  "args": [],
  "numDeployments": 1,
  "solcInputHash": "78995fe69be866012cdea8ea4c4842de",
  "bytecode": "0x608060405234801561001057600080fd5b50610c2d806100206000396000f3fe608060405234801561001057600080fd5b50600436106100c55760003560e01c8063313ce567146100ca5780634b94f50e146100e857806355ac8d30146100f05780636d2ed184146101055780636e9a05c51461010d5780636f5cdb6c14610115578063715018a61461011d5780637dc0d1d0146101275780638c237c691461012f5780638da5cb5b14610137578063a2e620451461013f578063c0c53b8b14610147578063cf811d2a1461015a578063f2fde38b14610162578063f857da9d14610175575b600080fd5b6100d261017d565b6040516100df9190610b19565b60405180910390f35b6100d2610182565b6100f8610204565b6040516100df9190610ad8565b6100d2610213565b6100d2610258565b6100d261030e565b6101256103a0565b005b6100f861040e565b6100f861041d565b6100f861049a565b6101256104a9565b610125610155366004610a76565b61059e565b6100f861070a565b610125610170366004610a1e565b610719565b6100f86107cc565b600890565b609a54604080516304a39b9b60e31b815290516000926001600160a01b03169163251cdcd8916004808301926020929190829003018186803b1580156101c757600080fd5b505afa1580156101db573d6000803e3d6000fd5b505050506040513d601f19601f820116820180604052508101906101ff9190610ac0565b905090565b6098546001600160a01b031681565b609a54604080516350d25bcd60e01b815290516000926001600160a01b0316916350d25bcd916004808301926020929190829003018186803b1580156101c757600080fd5b60008061026361030e565b90506000609760009054906101000a90046001600160a01b03166001600160a01b03166350d25bcd6040518163ffffffff1660e01b815260040160206040518083038186803b1580156102b557600080fd5b505afa1580156102c9573d6000803e3d6000fd5b505050506040513d601f19601f820116820180604052508101906102ed9190610ac0565b90506103076305f5e10061030184846107db565b9061083d565b9250505090565b600080610319610182565b60985460405163714430fd60e11b81529192506001600160a01b03169063e28861fa9061034a908490600401610b19565b60206040518083038186803b15801561036257600080fd5b505afa158015610376573d6000803e3d6000fd5b505050506040513d601f19601f8201168201806040525081019061039a9190610ac0565b91505090565b6103a861087c565b6001600160a01b03166103b961049a565b6001600160a01b031614610402576040805162461bcd60e51b81526020600482018190526024820152600080516020610b7f833981519152604482015290519081900360640190fd5b61040c6000610880565b565b609a546001600160a01b031681565b609854604080516321cf280b60e11b815290516000926001600160a01b03169163439e5016916004808301926020929190829003018186803b15801561046257600080fd5b505afa158015610476573d6000803e3d6000fd5b505050506040513d601f19601f820116820180604052508101906101ff9190610a3a565b6065546001600160a01b031690565b609a60009054906101000a90046001600160a01b03166001600160a01b031663a17a26856040518163ffffffff1660e01b815260040160206040518083038186803b1580156104f757600080fd5b505afa15801561050b573d6000803e3d6000fd5b505050506040513d601f19601f8201168201806040525081019061052f9190610a56565b1561040c57609a60009054906101000a90046001600160a01b03166001600160a01b031663a2e620456040518163ffffffff1660e01b8152600401600060405180830381600087803b15801561058457600080fd5b505af1158015610598573d6000803e3d6000fd5b50505050565b600054610100900460ff16806105b757506105b76108d2565b806105c5575060005460ff16155b6106005760405162461bcd60e51b815260040180806020018281038252602e815260200180610b9f602e913960400191505060405180910390fd5b600054610100900460ff1615801561062b576000805460ff1961ff0019909116610100171660011790555b6001600160a01b03841661065a5760405162461bcd60e51b815260040161065190610aec565b60405180910390fd5b6001600160a01b0383166106805760405162461bcd60e51b815260040161065190610aec565b6001600160a01b0382166106a65760405162461bcd60e51b815260040161065190610aec565b6106ae6108d8565b609880546001600160a01b038086166001600160a01b03199283161790925560978054878416908316179055609a8054928516929091169190911790556106f36104a9565b8015610598576000805461ff001916905550505050565b6097546001600160a01b031681565b61072161087c565b6001600160a01b031661073261049a565b6001600160a01b03161461077b576040805162461bcd60e51b81526020600482018190526024820152600080516020610b7f833981519152604482015290519081900360640190fd5b6001600160a01b0381166107c05760405162461bcd60e51b8152600401808060200182810382526026815260200180610b386026913960400191505060405180910390fd5b6107c981610880565b50565b6099546001600160a01b031681565b6000826107ea57506000610837565b828202828482816107f757fe5b04146108345760405162461bcd60e51b8152600401808060200182810382526021815260200180610b5e6021913960400191505060405180910390fd5b90505b92915050565b600061083483836040518060400160405280601a815260200179536166654d6174683a206469766973696f6e206279207a65726f60301b815250610926565b3390565b606580546001600160a01b038381166001600160a01b0319831681179093556040519116919082907f8be0079c531659141344cd1fd0a4f28419497f9722a3daafe3b4186f6b6457e090600090a35050565b303b1590565b600054610100900460ff1661091e5760405162461bcd60e51b815260040180806020018281038252602b815260200180610bcd602b913960400191505060405180910390fd5b61040c6109c8565b600081836109b25760405162461bcd60e51b81526004018080602001828103825283818151815260200191508051906020019080838360005b8381101561097757818101518382015260200161095f565b50505050905090810190601f1680156109a45780820380516001836020036101000a031916815260200191505b509250505060405180910390fd5b5060008385816109be57fe5b0495945050505050565b600054610100900460ff16610a0e5760405162461bcd60e51b815260040180806020018281038252602b815260200180610bcd602b913960400191505060405180910390fd5b61040c610a1961087c565b610880565b600060208284031215610a2f578081fd5b813561083481610b22565b600060208284031215610a4b578081fd5b815161083481610b22565b600060208284031215610a67578081fd5b81518015158114610834578182fd5b600080600060608486031215610a8a578182fd5b8335610a9581610b22565b92506020840135610aa581610b22565b91506040840135610ab581610b22565b809150509250925092565b600060208284031215610ad1578081fd5b5051919050565b6001600160a01b0391909116815260200190565b6020808252601390820152724e6f7420612076616c6964206164647265737360681b604082015260600190565b90815260200190565b6001600160a01b03811681146107c957600080fdfe4f776e61626c653a206e6577206f776e657220697320746865207a65726f2061646472657373536166654d6174683a206d756c7469706c69636174696f6e206f766572666c6f774f776e61626c653a2063616c6c6572206973206e6f7420746865206f776e6572436f6e747261637420696e7374616e63652068617320616c7265616479206265656e20696e697469616c697a6564496e697469616c697a61626c653a20636f6e7472616374206973206e6f7420696e697469616c697a696e67a2646970667358221220304873a5c49546e3f0d10f75f2bfa6985ab1c1faf304186ae8766b26af48dc8f64736f6c63430007060033",
  "devdoc": {
    "author": "Radiant",
    "details": "All function calls are currently implemented without side effects",
    "kind": "dev",
    "methods": {
      "initialize(address,address,address)": {
        "params": {
          "_baseTokenPriceInUsdProxyAggregator": "Chainlink aggregator for USD price of base token",
          "_oracle": "Base oracle contract",
          "_poolHelper": "Pool helper contract - Uniswap/Balancer"
        }
      }
    },
    "title": "PriceProvider Contract",
    "version": 1
  },
  "userdoc": {
    "kind": "user",
    "methods": {
      "baseTokenPriceInUsdProxyAggregator()": {
        "notice": "Chainlink aggregator for USD price of base token"
      },
      "decimals()": {
        "notice": "Returns decimals of price."
      },
      "eligibilityProvider()": {
        "notice": "Eligibility data provider contract"
      },
      "getLpTokenAddress()": {
        "notice": "Returns lp token address."
      },
      "getLpTokenPrice()": {
        "notice": "Returns lp token price in ETH."
      },
      "getLpTokenPriceUsd()": {
        "notice": "Returns lp token price in USD."
      },
      "getTokenPrice()": {
        "notice": "Returns the latest price in eth."
      },
      "getTokenPriceUsd()": {
        "notice": "Returns the latest price in USD."
      },
      "initialize(address,address,address)": {
        "notice": "Initializer"
      },
      "oracle()": {
        "notice": "Base oracle contract"
      },
      "poolHelper()": {
        "notice": "Pool helper contract - Uniswap/Balancer"
      },
      "update()": {
        "notice": "Update oracles."
      }
    },
    "version": 1
  },
  "storageLayout": {
    "storage": [
      {
        "astId": 6361,
        "contract": "contracts/oracles/PriceProvider.sol:PriceProvider",
        "label": "initialized",
        "offset": 0,
        "slot": "0",
        "type": "t_bool"
      },
      {
        "astId": 6364,
        "contract": "contracts/oracles/PriceProvider.sol:PriceProvider",
        "label": "initializing",
        "offset": 1,
        "slot": "0",
        "type": "t_bool"
      },
      {
        "astId": 6431,
        "contract": "contracts/oracles/PriceProvider.sol:PriceProvider",
        "label": "______gap",
        "offset": 0,
        "slot": "1",
        "type": "t_array(t_uint256)50_storage"
      },
      {
        "astId": 6354,
        "contract": "contracts/oracles/PriceProvider.sol:PriceProvider",
        "label": "__gap",
        "offset": 0,
        "slot": "51",
        "type": "t_array(t_uint256)50_storage"
      },
      {
        "astId": 6576,
        "contract": "contracts/oracles/PriceProvider.sol:PriceProvider",
        "label": "_owner",
        "offset": 0,
        "slot": "101",
        "type": "t_address"
      },
      {
        "astId": 6681,
        "contract": "contracts/oracles/PriceProvider.sol:PriceProvider",
        "label": "__gap",
        "offset": 0,
        "slot": "102",
        "type": "t_array(t_uint256)49_storage"
      },
      {
        "astId": 23586,
        "contract": "contracts/oracles/PriceProvider.sol:PriceProvider",
        "label": "baseTokenPriceInUsdProxyAggregator",
        "offset": 0,
        "slot": "151",
        "type": "t_contract(IChainlinkAggregator)10963"
      },
      {
        "astId": 23589,
        "contract": "contracts/oracles/PriceProvider.sol:PriceProvider",
        "label": "poolHelper",
        "offset": 0,
        "slot": "152",
        "type": "t_contract(IPoolHelper)12844"
      },
      {
        "astId": 23592,
        "contract": "contracts/oracles/PriceProvider.sol:PriceProvider",
        "label": "eligibilityProvider",
        "offset": 0,
        "slot": "153",
        "type": "t_contract(IEligibilityDataProvider)11190"
      },
      {
        "astId": 23595,
        "contract": "contracts/oracles/PriceProvider.sol:PriceProvider",
        "label": "oracle",
        "offset": 0,
        "slot": "154",
        "type": "t_contract(IBaseOracle)10923"
      }
    ],
    "types": {
      "t_address": {
        "encoding": "inplace",
        "label": "address",
        "numberOfBytes": "20"
      },
      "t_array(t_uint256)49_storage": {
        "base": "t_uint256",
        "encoding": "inplace",
        "label": "uint256[49]",
        "numberOfBytes": "1568"
      },
      "t_array(t_uint256)50_storage": {
        "base": "t_uint256",
        "encoding": "inplace",
        "label": "uint256[50]",
        "numberOfBytes": "1600"
      },
      "t_bool": {
        "encoding": "inplace",
        "label": "bool",
        "numberOfBytes": "1"
      },
      "t_contract(IBaseOracle)10923": {
        "encoding": "inplace",
        "label": "contract IBaseOracle",
        "numberOfBytes": "20"
      },
      "t_contract(IChainlinkAggregator)10963": {
        "encoding": "inplace",
        "label": "contract IChainlinkAggregator",
        "numberOfBytes": "20"
      },
      "t_contract(IEligibilityDataProvider)11190": {
        "encoding": "inplace",
        "label": "contract IEligibilityDataProvider",
        "numberOfBytes": "20"
      },
      "t_contract(IPoolHelper)12844": {
        "encoding": "inplace",
        "label": "contract IPoolHelper",
        "numberOfBytes": "20"
      },
      "t_uint256": {
        "encoding": "inplace",
        "label": "uint256",
        "numberOfBytes": "32"
      }
    }
  }
}