{
  "address": "0x20d9C60d0d5985fE56104f8B1fd68A191137FE5E",
  "abi": [
    {
      "inputs": [
        {
          "internalType": "string",
          "name": "_tokenName",
          "type": "string"
        },
        {
          "internalType": "string",
          "name": "_symbol",
          "type": "string"
        },
        {
          "internalType": "address",
          "name": "_endpoint",
          "type": "address"
        },
        {
          "internalType": "uint256",
          "name": "_maxSupply",
          "type": "uint256"
        },
        {
          "internalType": "uint256",
          "name": "_maxMintAmount",
          "type": "uint256"
        },
        {
          "internalType": "uint256",
          "name": "_fee",
          "type": "uint256"
        },
        {
          "internalType": "address",
          "name": "_treasury",
          "type": "address"
        },
        {
          "internalType": "address",
          "name": "_dao",
          "type": "address"
        }
      ],
      "stateMutability": "nonpayable",
      "type": "constructor"
    },
    {
      "anonymous": false,
      "inputs": [
        {
          "indexed": true,
          "internalType": "address",
          "name": "owner",
          "type": "address"
        },
        {
          "indexed": true,
          "internalType": "address",
          "name": "spender",
          "type": "address"
        },
        {
          "indexed": false,
          "internalType": "uint256",
          "name": "value",
          "type": "uint256"
        }
      ],
      "name": "Approval",
      "type": "event"
    },
    {
      "anonymous": false,
      "inputs": [
        {
          "indexed": false,
          "internalType": "uint256",
          "name": "_fee",
          "type": "uint256"
        },
        {
          "indexed": true,
          "internalType": "address",
          "name": "_treasury",
          "type": "address"
        }
      ],
      "name": "FeeInfoUpdated",
      "type": "event"
    },
    {
      "anonymous": false,
      "inputs": [
        {
          "indexed": false,
          "internalType": "uint16",
          "name": "_srcChainId",
          "type": "uint16"
        },
        {
          "indexed": false,
          "internalType": "bytes",
          "name": "_srcAddress",
          "type": "bytes"
        },
        {
          "indexed": false,
          "internalType": "uint64",
          "name": "_nonce",
          "type": "uint64"
        },
        {
          "indexed": false,
          "internalType": "bytes",
          "name": "_payload",
          "type": "bytes"
        }
      ],
      "name": "MessageFailed",
      "type": "event"
    },
    {
      "anonymous": false,
      "inputs": [
        {
          "indexed": true,
          "internalType": "address",
          "name": "previousOwner",
          "type": "address"
        },
        {
          "indexed": true,
          "internalType": "address",
          "name": "newOwner",
          "type": "address"
        }
      ],
      "name": "OwnershipTransferred",
      "type": "event"
    },
    {
      "anonymous": false,
      "inputs": [
        {
          "indexed": false,
          "internalType": "address",
          "name": "account",
          "type": "address"
        }
      ],
      "name": "Paused",
      "type": "event"
    },
    {
      "anonymous": false,
      "inputs": [
        {
          "indexed": true,
          "internalType": "contract IPriceProvider",
          "name": "_priceProvider",
          "type": "address"
        }
      ],
      "name": "PriceProviderUpdated",
      "type": "event"
    },
    {
      "anonymous": false,
      "inputs": [
        {
          "indexed": true,
          "internalType": "uint16",
          "name": "_srcChainId",
          "type": "uint16"
        },
        {
          "indexed": true,
          "internalType": "bytes",
          "name": "_srcAddress",
          "type": "bytes"
        },
        {
          "indexed": true,
          "internalType": "address",
          "name": "_toAddress",
          "type": "address"
        },
        {
          "indexed": false,
          "internalType": "uint256",
          "name": "_amount",
          "type": "uint256"
        }
      ],
      "name": "ReceiveFromChain",
      "type": "event"
    },
    {
      "anonymous": false,
      "inputs": [
        {
          "indexed": true,
          "internalType": "uint16",
          "name": "_dstChainId",
          "type": "uint16"
        },
        {
          "indexed": true,
          "internalType": "address",
          "name": "_from",
          "type": "address"
        },
        {
          "indexed": true,
          "internalType": "bytes",
          "name": "_toAddress",
          "type": "bytes"
        },
        {
          "indexed": false,
          "internalType": "uint256",
          "name": "_amount",
          "type": "uint256"
        }
      ],
      "name": "SendToChain",
      "type": "event"
    },
    {
      "anonymous": false,
      "inputs": [
        {
          "indexed": false,
          "internalType": "uint16",
          "name": "_dstChainId",
          "type": "uint16"
        },
        {
          "indexed": false,
          "internalType": "uint256",
          "name": "_type",
          "type": "uint256"
        },
        {
          "indexed": false,
          "internalType": "uint256",
          "name": "_dstGasAmount",
          "type": "uint256"
        }
      ],
      "name": "SetMinDstGasLookup",
      "type": "event"
    },
    {
      "anonymous": false,
      "inputs": [
        {
          "indexed": false,
          "internalType": "uint16",
          "name": "_srcChainId",
          "type": "uint16"
        },
        {
          "indexed": false,
          "internalType": "bytes",
          "name": "_srcAddress",
          "type": "bytes"
        }
      ],
      "name": "SetTrustedRemote",
      "type": "event"
    },
    {
      "anonymous": false,
      "inputs": [
        {
          "indexed": false,
          "internalType": "bool",
          "name": "_useCustomAdapterParams",
          "type": "bool"
        }
      ],
      "name": "SetUseCustomAdapterParams",
      "type": "event"
    },
    {
      "anonymous": false,
      "inputs": [
        {
          "indexed": true,
          "internalType": "address",
          "name": "from",
          "type": "address"
        },
        {
          "indexed": true,
          "internalType": "address",
          "name": "to",
          "type": "address"
        },
        {
          "indexed": false,
          "internalType": "uint256",
          "name": "value",
          "type": "uint256"
        }
      ],
      "name": "Transfer",
      "type": "event"
    },
    {
      "anonymous": false,
      "inputs": [
        {
          "indexed": false,
          "internalType": "address",
          "name": "account",
          "type": "address"
        }
      ],
      "name": "Unpaused",
      "type": "event"
    },
    {
      "inputs": [],
      "name": "FEE_DIVISOR",
      "outputs": [
        {
          "internalType": "uint256",
          "name": "",
          "type": "uint256"
        }
      ],
      "stateMutability": "view",
      "type": "function"
    },
    {
      "inputs": [],
      "name": "FUNCTION_TYPE_SEND",
      "outputs": [
        {
          "internalType": "uint256",
          "name": "",
          "type": "uint256"
        }
      ],
      "stateMutability": "view",
      "type": "function"
    },
    {
      "inputs": [],
      "name": "NO_EXTRA_GAS",
      "outputs": [
        {
          "internalType": "uint256",
          "name": "",
          "type": "uint256"
        }
      ],
      "stateMutability": "view",
      "type": "function"
    },
    {
      "inputs": [
        {
          "internalType": "address",
          "name": "owner",
          "type": "address"
        },
        {
          "internalType": "address",
          "name": "spender",
          "type": "address"
        }
      ],
      "name": "allowance",
      "outputs": [
        {
          "internalType": "uint256",
          "name": "",
          "type": "uint256"
        }
      ],
      "stateMutability": "view",
      "type": "function"
    },
    {
      "inputs": [
        {
          "internalType": "address",
          "name": "spender",
          "type": "address"
        },
        {
          "internalType": "uint256",
          "name": "amount",
          "type": "uint256"
        }
      ],
      "name": "approve",
      "outputs": [
        {
          "internalType": "bool",
          "name": "",
          "type": "bool"
        }
      ],
      "stateMutability": "nonpayable",
      "type": "function"
    },
    {
      "inputs": [
        {
          "internalType": "address",
          "name": "account",
          "type": "address"
        }
      ],
      "name": "balanceOf",
      "outputs": [
        {
          "internalType": "uint256",
          "name": "",
          "type": "uint256"
        }
      ],
      "stateMutability": "view",
      "type": "function"
    },
    {
      "inputs": [
        {
          "internalType": "uint256",
          "name": "amt",
          "type": "uint256"
        },
        {
          "internalType": "uint16",
          "name": "destChainId",
          "type": "uint16"
        }
      ],
      "name": "bridge",
      "outputs": [],
      "stateMutability": "payable",
      "type": "function"
    },
    {
      "inputs": [
        {
          "internalType": "uint256",
          "name": "_value",
          "type": "uint256"
        }
      ],
      "name": "burn",
      "outputs": [
        {
          "internalType": "bool",
          "name": "",
          "type": "bool"
        }
      ],
      "stateMutability": "nonpayable",
      "type": "function"
    },
    {
      "inputs": [],
      "name": "circulatingSupply",
      "outputs": [
        {
          "internalType": "uint256",
          "name": "",
          "type": "uint256"
        }
      ],
      "stateMutability": "view",
      "type": "function"
    },
    {
      "inputs": [],
      "name": "dao",
      "outputs": [
        {
          "internalType": "address",
          "name": "",
          "type": "address"
        }
      ],
      "stateMutability": "view",
      "type": "function"
    },
    {
      "inputs": [],
      "name": "decimals",
      "outputs": [
        {
          "internalType": "uint8",
          "name": "",
          "type": "uint8"
        }
      ],
      "stateMutability": "view",
      "type": "function"
    },
    {
      "inputs": [
        {
          "internalType": "address",
          "name": "spender",
          "type": "address"
        },
        {
          "internalType": "uint256",
          "name": "subtractedValue",
          "type": "uint256"
        }
      ],
      "name": "decreaseAllowance",
      "outputs": [
        {
          "internalType": "bool",
          "name": "",
          "type": "bool"
        }
      ],
      "stateMutability": "nonpayable",
      "type": "function"
    },
    {
      "inputs": [
        {
          "internalType": "uint16",
          "name": "_dstChainId",
          "type": "uint16"
        },
        {
          "internalType": "bytes",
          "name": "_toAddress",
          "type": "bytes"
        },
        {
          "internalType": "uint256",
          "name": "_amount",
          "type": "uint256"
        },
        {
          "internalType": "bool",
          "name": "_useZro",
          "type": "bool"
        },
        {
          "internalType": "bytes",
          "name": "_adapterParams",
          "type": "bytes"
        }
      ],
      "name": "estimateSendFee",
      "outputs": [
        {
          "internalType": "uint256",
          "name": "nativeFee",
          "type": "uint256"
        },
        {
          "internalType": "uint256",
          "name": "zroFee",
          "type": "uint256"
        }
      ],
      "stateMutability": "view",
      "type": "function"
    },
    {
      "inputs": [
        {
          "internalType": "uint16",
          "name": "",
          "type": "uint16"
        },
        {
          "internalType": "bytes",
          "name": "",
          "type": "bytes"
        },
        {
          "internalType": "uint64",
          "name": "",
          "type": "uint64"
        }
      ],
      "name": "failedMessages",
      "outputs": [
        {
          "internalType": "bytes32",
          "name": "",
          "type": "bytes32"
        }
      ],
      "stateMutability": "view",
      "type": "function"
    },
    {
      "inputs": [],
      "name": "fee_ratio",
      "outputs": [
        {
          "internalType": "uint256",
          "name": "",
          "type": "uint256"
        }
      ],
      "stateMutability": "view",
      "type": "function"
    },
    {
      "inputs": [
        {
          "internalType": "uint16",
          "name": "_srcChainId",
          "type": "uint16"
        },
        {
          "internalType": "bytes",
          "name": "_srcAddress",
          "type": "bytes"
        }
      ],
      "name": "forceResumeReceive",
      "outputs": [],
      "stateMutability": "nonpayable",
      "type": "function"
    },
    {
      "inputs": [
        {
          "internalType": "uint256",
          "name": "rdntAmount",
          "type": "uint256"
        }
      ],
      "name": "getBridgeFee",
      "outputs": [
        {
          "internalType": "uint256",
          "name": "",
          "type": "uint256"
        }
      ],
      "stateMutability": "view",
      "type": "function"
    },
    {
      "inputs": [
        {
          "internalType": "uint16",
          "name": "_version",
          "type": "uint16"
        },
        {
          "internalType": "uint16",
          "name": "_chainId",
          "type": "uint16"
        },
        {
          "internalType": "address",
          "name": "",
          "type": "address"
        },
        {
          "internalType": "uint256",
          "name": "_configType",
          "type": "uint256"
        }
      ],
      "name": "getConfig",
      "outputs": [
        {
          "internalType": "bytes",
          "name": "",
          "type": "bytes"
        }
      ],
      "stateMutability": "view",
      "type": "function"
    },
    {
      "inputs": [
        {
          "internalType": "address",
          "name": "spender",
          "type": "address"
        },
        {
          "internalType": "uint256",
          "name": "addedValue",
          "type": "uint256"
        }
      ],
      "name": "increaseAllowance",
      "outputs": [
        {
          "internalType": "bool",
          "name": "",
          "type": "bool"
        }
      ],
      "stateMutability": "nonpayable",
      "type": "function"
    },
    {
      "inputs": [
        {
          "internalType": "uint16",
          "name": "_srcChainId",
          "type": "uint16"
        },
        {
          "internalType": "bytes",
          "name": "_srcAddress",
          "type": "bytes"
        }
      ],
      "name": "isTrustedRemote",
      "outputs": [
        {
          "internalType": "bool",
          "name": "",
          "type": "bool"
        }
      ],
      "stateMutability": "view",
      "type": "function"
    },
    {
      "inputs": [],
      "name": "lzEndpoint",
      "outputs": [
        {
          "internalType": "contract ILayerZeroEndpoint",
          "name": "",
          "type": "address"
        }
      ],
      "stateMutability": "view",
      "type": "function"
    },
    {
      "inputs": [
        {
          "internalType": "uint16",
          "name": "_srcChainId",
          "type": "uint16"
        },
        {
          "internalType": "bytes",
          "name": "_srcAddress",
          "type": "bytes"
        },
        {
          "internalType": "uint64",
          "name": "_nonce",
          "type": "uint64"
        },
        {
          "internalType": "bytes",
          "name": "_payload",
          "type": "bytes"
        }
      ],
      "name": "lzReceive",
      "outputs": [],
      "stateMutability": "nonpayable",
      "type": "function"
    },
    {
      "inputs": [],
      "name": "maxMintAmount",
      "outputs": [
        {
          "internalType": "uint256",
          "name": "",
          "type": "uint256"
        }
      ],
      "stateMutability": "view",
      "type": "function"
    },
    {
      "inputs": [],
      "name": "maxSupply",
      "outputs": [
        {
          "internalType": "uint256",
          "name": "",
          "type": "uint256"
        }
      ],
      "stateMutability": "view",
      "type": "function"
    },
    {
      "inputs": [
        {
          "internalType": "uint16",
          "name": "",
          "type": "uint16"
        },
        {
          "internalType": "uint256",
          "name": "",
          "type": "uint256"
        }
      ],
      "name": "minDstGasLookup",
      "outputs": [
        {
          "internalType": "uint256",
          "name": "",
          "type": "uint256"
        }
      ],
      "stateMutability": "view",
      "type": "function"
    },
    {
      "inputs": [],
      "name": "mint",
      "outputs": [],
      "stateMutability": "nonpayable",
      "type": "function"
    },
    {
      "inputs": [],
      "name": "name",
      "outputs": [
        {
          "internalType": "string",
          "name": "",
          "type": "string"
        }
      ],
      "stateMutability": "view",
      "type": "function"
    },
    {
      "inputs": [
        {
          "internalType": "uint16",
          "name": "_srcChainId",
          "type": "uint16"
        },
        {
          "internalType": "bytes",
          "name": "_srcAddress",
          "type": "bytes"
        },
        {
          "internalType": "uint64",
          "name": "_nonce",
          "type": "uint64"
        },
        {
          "internalType": "bytes",
          "name": "_payload",
          "type": "bytes"
        }
      ],
      "name": "nonblockingLzReceive",
      "outputs": [],
      "stateMutability": "nonpayable",
      "type": "function"
    },
    {
      "inputs": [],
      "name": "owner",
      "outputs": [
        {
          "internalType": "address",
          "name": "",
          "type": "address"
        }
      ],
      "stateMutability": "view",
      "type": "function"
    },
    {
      "inputs": [
        {
          "internalType": "bool",
          "name": "pause",
          "type": "bool"
        }
      ],
      "name": "pauseBridge",
      "outputs": [],
      "stateMutability": "nonpayable",
      "type": "function"
    },
    {
      "inputs": [],
      "name": "paused",
      "outputs": [
        {
          "internalType": "bool",
          "name": "",
          "type": "bool"
        }
      ],
      "stateMutability": "view",
      "type": "function"
    },
    {
      "inputs": [],
      "name": "priceProvider",
      "outputs": [
        {
          "internalType": "contract IPriceProvider",
          "name": "",
          "type": "address"
        }
      ],
      "stateMutability": "view",
      "type": "function"
    },
    {
      "inputs": [],
      "name": "renounceOwnership",
      "outputs": [],
      "stateMutability": "nonpayable",
      "type": "function"
    },
    {
      "inputs": [
        {
          "internalType": "uint16",
          "name": "_srcChainId",
          "type": "uint16"
        },
        {
          "internalType": "bytes",
          "name": "_srcAddress",
          "type": "bytes"
        },
        {
          "internalType": "uint64",
          "name": "_nonce",
          "type": "uint64"
        },
        {
          "internalType": "bytes",
          "name": "_payload",
          "type": "bytes"
        }
      ],
      "name": "retryMessage",
      "outputs": [],
      "stateMutability": "payable",
      "type": "function"
    },
    {
      "inputs": [
        {
          "internalType": "address",
          "name": "_from",
          "type": "address"
        },
        {
          "internalType": "uint16",
          "name": "_dstChainId",
          "type": "uint16"
        },
        {
          "internalType": "bytes",
          "name": "_toAddress",
          "type": "bytes"
        },
        {
          "internalType": "uint256",
          "name": "_amount",
          "type": "uint256"
        },
        {
          "internalType": "address payable",
          "name": "_refundAddress",
          "type": "address"
        },
        {
          "internalType": "address",
          "name": "_zroPaymentAddress",
          "type": "address"
        },
        {
          "internalType": "bytes",
          "name": "_adapterParams",
          "type": "bytes"
        }
      ],
      "name": "sendFrom",
      "outputs": [],
      "stateMutability": "payable",
      "type": "function"
    },
    {
      "inputs": [
        {
          "internalType": "uint16",
          "name": "_version",
          "type": "uint16"
        },
        {
          "internalType": "uint16",
          "name": "_chainId",
          "type": "uint16"
        },
        {
          "internalType": "uint256",
          "name": "_configType",
          "type": "uint256"
        },
        {
          "internalType": "bytes",
          "name": "_config",
          "type": "bytes"
        }
      ],
      "name": "setConfig",
      "outputs": [],
      "stateMutability": "nonpayable",
      "type": "function"
    },
    {
      "inputs": [
        {
          "internalType": "uint256",
          "name": "_fee",
          "type": "uint256"
        },
        {
          "internalType": "address",
          "name": "_treasury",
          "type": "address"
        }
      ],
      "name": "setFeeInfo",
      "outputs": [],
      "stateMutability": "nonpayable",
      "type": "function"
    },
    {
      "inputs": [
        {
          "internalType": "uint16",
          "name": "_dstChainId",
          "type": "uint16"
        },
        {
          "internalType": "uint256",
          "name": "_type",
          "type": "uint256"
        },
        {
          "internalType": "uint256",
          "name": "_dstGasAmount",
          "type": "uint256"
        }
      ],
      "name": "setMinDstGasLookup",
      "outputs": [],
      "stateMutability": "nonpayable",
      "type": "function"
    },
    {
      "inputs": [
        {
          "internalType": "contract IPriceProvider",
          "name": "_priceProvider",
          "type": "address"
        }
      ],
      "name": "setPriceProvider",
      "outputs": [],
      "stateMutability": "nonpayable",
      "type": "function"
    },
    {
      "inputs": [
        {
          "internalType": "uint16",
          "name": "_version",
          "type": "uint16"
        }
      ],
      "name": "setReceiveVersion",
      "outputs": [],
      "stateMutability": "nonpayable",
      "type": "function"
    },
    {
      "inputs": [
        {
          "internalType": "uint16",
          "name": "_version",
          "type": "uint16"
        }
      ],
      "name": "setSendVersion",
      "outputs": [],
      "stateMutability": "nonpayable",
      "type": "function"
    },
    {
      "inputs": [
        {
          "internalType": "uint16",
          "name": "_srcChainId",
          "type": "uint16"
        },
        {
          "internalType": "bytes",
          "name": "_srcAddress",
          "type": "bytes"
        }
      ],
      "name": "setTrustedRemote",
      "outputs": [],
      "stateMutability": "nonpayable",
      "type": "function"
    },
    {
      "inputs": [
        {
          "internalType": "bool",
          "name": "_useCustomAdapterParams",
          "type": "bool"
        }
      ],
      "name": "setUseCustomAdapterParams",
      "outputs": [],
      "stateMutability": "nonpayable",
      "type": "function"
    },
    {
      "inputs": [
        {
          "internalType": "bytes4",
          "name": "interfaceId",
          "type": "bytes4"
        }
      ],
      "name": "supportsInterface",
      "outputs": [
        {
          "internalType": "bool",
          "name": "",
          "type": "bool"
        }
      ],
      "stateMutability": "view",
      "type": "function"
    },
    {
      "inputs": [],
      "name": "symbol",
      "outputs": [
        {
          "internalType": "string",
          "name": "",
          "type": "string"
        }
      ],
      "stateMutability": "view",
      "type": "function"
    },
    {
      "inputs": [],
      "name": "totalSupply",
      "outputs": [
        {
          "internalType": "uint256",
          "name": "",
          "type": "uint256"
        }
      ],
      "stateMutability": "view",
      "type": "function"
    },
    {
      "inputs": [
        {
          "internalType": "address",
          "name": "recipient",
          "type": "address"
        },
        {
          "internalType": "uint256",
          "name": "amount",
          "type": "uint256"
        }
      ],
      "name": "transfer",
      "outputs": [
        {
          "internalType": "bool",
          "name": "",
          "type": "bool"
        }
      ],
      "stateMutability": "nonpayable",
      "type": "function"
    },
    {
      "inputs": [
        {
          "internalType": "address",
          "name": "sender",
          "type": "address"
        },
        {
          "internalType": "address",
          "name": "recipient",
          "type": "address"
        },
        {
          "internalType": "uint256",
          "name": "amount",
          "type": "uint256"
        }
      ],
      "name": "transferFrom",
      "outputs": [
        {
          "internalType": "bool",
          "name": "",
          "type": "bool"
        }
      ],
      "stateMutability": "nonpayable",
      "type": "function"
    },
    {
      "inputs": [
        {
          "internalType": "address",
          "name": "newOwner",
          "type": "address"
        }
      ],
      "name": "transferOwnership",
      "outputs": [],
      "stateMutability": "nonpayable",
      "type": "function"
    },
    {
      "inputs": [],
      "name": "treasury",
      "outputs": [
        {
          "internalType": "address",
          "name": "",
          "type": "address"
        }
      ],
      "stateMutability": "view",
      "type": "function"
    },
    {
      "inputs": [
        {
          "internalType": "uint16",
          "name": "",
          "type": "uint16"
        }
      ],
      "name": "trustedRemoteLookup",
      "outputs": [
        {
          "internalType": "bytes",
          "name": "",
          "type": "bytes"
        }
      ],
      "stateMutability": "view",
      "type": "function"
    },
    {
      "inputs": [],
      "name": "useCustomAdapterParams",
      "outputs": [
        {
          "internalType": "bool",
          "name": "",
          "type": "bool"
        }
      ],
      "stateMutability": "view",
      "type": "function"
    }
  ],
  "transactionHash": "0x4dcd67591104afda0265928325e6e686f9a9a15dc9779bec58d4db802b4cf4c9",
  "args": [
    "Supernova2",
    "NOVA2",
    "0x6Fcb97553D41516Cb228ac03FdC8B9a0a9df04A1",
    "1000000000000000000000000000",
    "100000000000000000000000000",
    "100",
    "0xB00bDAb497D25861163b7F1b279B809bCCfc2d46",
    "0xA3De96858FD006fd978eA2D55Efe6b125012f485"
  ],
  "numDeployments": 1,
  "solcInputHash": "78995fe69be866012cdea8ea4c4842de",
  "bytecode": "0x60e0604052600a805462ff0000191690553480156200001d57600080fd5b5060405162004c0938038062004c0983398181016040526101008110156200004457600080fd5b81019080805160405193929190846401000000008211156200006557600080fd5b9083019060208201858111156200007b57600080fd5b82516401000000008111828201881017156200009657600080fd5b82525081516020918201929091019080838360005b83811015620000c5578181015183820152602001620000ab565b50505050905090810190601f168015620000f35780820380516001836020036101000a031916815260200191505b50604052602001805160405193929190846401000000008211156200011757600080fd5b9083019060208201858111156200012d57600080fd5b82516401000000008111828201881017156200014857600080fd5b82525081516020918201929091019080838360005b83811015620001775781810151838201526020016200015d565b50505050905090810190601f168015620001a55780820380516001836020036101000a031916815260200191505b5060409081526020820151908201516060830151608084015160a085015160c09095015193965091945092909186888782828280806000620001e662000536565b600080546001600160a01b0319166001600160a01b0383169081178255604051929350917f8be0079c531659141344cd1fd0a4f28419497f9722a3daafe3b4186f6b6457e0908290a35060601b6001600160601b03191660805250508151620002579060089060208501906200053a565b5080516200026d9060099060208401906200053a565b5050600a805461ff001960ff19909116601217169055505050506001600160a01b038616620002d9576040805162461bcd60e51b81526020600482015260136024820152724e6f7420612076616c6964206164647265737360681b604482015290519081900360640190fd5b8462000321576040805162461bcd60e51b81526020600482015260126024820152712737ba1030903b30b634b210373ab6b132b960711b604482015290519081900360640190fd5b8362000369576040805162461bcd60e51b81526020600482015260126024820152712737ba1030903b30b634b210373ab6b132b960711b604482015290519081900360640190fd5b84841115620003bf576040805162461bcd60e51b815260206004820152601360248201527f696e76616c6964206d696e742f737570706c7900000000000000000000000000604482015290519081900360640190fd5b6127108311156200040c576040805162461bcd60e51b81526020600482015260126024820152712737ba1030903b30b634b210373ab6b132b960711b604482015290519081900360640190fd5b6001600160a01b0382166200045e576040805162461bcd60e51b81526020600482015260136024820152724e6f7420612076616c6964206164647265737360681b604482015290519081900360640190fd5b6001600160a01b038116620004b0576040805162461bcd60e51b81526020600482015260136024820152724e6f7420612076616c6964206164647265737360681b604482015290519081900360640190fd5b60a085905260c0849052600c80546001600160a01b038085166001600160a01b031992831617909255600d805492841692909116919091179055600b83905560408051600080825291513392917fddf252ad1be2c89b69c2b068fc378daa952ba7f163c4a11628f55a4df523b3ef919081900360200190a35050505050505050620005e6565b3390565b828054600181600116156101000203166002900490600052602060002090601f016020900481019282620005725760008555620005bd565b82601f106200058d57805160ff1916838001178555620005bd565b82800160010185558215620005bd579182015b82811115620005bd578251825591602001919060010190620005a0565b50620005cb929150620005cf565b5090565b5b80821115620005cb5760008155600101620005d0565b60805160601c60a05160c0516145bc6200064d600039806117845280611838528061303a5250806125d652806130b65250806112e952806115c852806116bc5280611b8c52806121d952806122645280612a3d528061342f5280613e8652506145bc6000f3fe60806040526004361061024e5760003560e01c80621d35671461025357806301ffc9a7146103a757806306fdde03146103ef578063078108671461047957806307e0db17146104bf578063095ea7b3146104ed57806310ddb137146105265780631249c58b1461055457806318160ddd146105695780631a3947951461057e578063239c70ae146105aa57806323b872dd146105bf5780632a205e3d14610602578063313ce5671461076a578063372aa2241461079557806339509351146107c85780633d8b38f6146108015780634162169f1461088757806342966c68146108b857806342d65a8d146108e25780634477051514610968578063519056361461097d5780635b8c41e614610ade5780635c975abb14610ba557806361d027b314610bba57806366ad5c8a14610bcf57806370a0823114610d21578063715018a614610d545780637533d78814610d6957806381b6949414610d975780638da5cb5b14610dac5780639358928b14610dc157806395d89b4114610dd6578063963c78dd14610deb5780639b57db5f14610e245780639e93ad8e14610e5e578063a457c2d714610e73578063a9059cbb14610eac578063af3fb21c14610ee5578063b353aaa714610efa578063b888879e14610f0f578063cbed8b9c14610f24578063d052e6be14610fba578063d1deba1f14610fe1578063d5abeb0114611126578063dd62ed3e1461113b578063eab45d9c14611176578063eb8d72b7146111a2578063ed629c5c14611228578063f066bca91461123d578063f2fde38b14611267578063f5ecbdbc1461129a575b600080fd5b34801561025f57600080fd5b506103a56004803603608081101561027657600080fd5b61ffff8235169190810190604081016020820135600160201b81111561029b57600080fd5b8201836020820111156102ad57600080fd5b803590602001918460018302840111600160201b831117156102ce57600080fd5b91908080601f01602080910402602001604051908101604052809392919081815260200183838082843760009201919091525092956001600160401b03853516959094909350604081019250602001359050600160201b81111561033157600080fd5b82018360208201111561034357600080fd5b803590602001918460018302840111600160201b8311171561036457600080fd5b91908080601f0160208091040260200160405190810160405280939291908181526020018383808284376000920191909152509295506112e7945050505050565b005b3480156103b357600080fd5b506103db600480360360208110156103ca57600080fd5b50356001600160e01b03191661147b565b604080519115158252519081900360200190f35b3480156103fb57600080fd5b506104046114bb565b6040805160208082528351818301528351919283929083019185019080838360005b8381101561043e578181015183820152602001610426565b50505050905090810190601f16801561046b5780820380516001836020036101000a031916815260200191505b509250505060405180910390f35b34801561048557600080fd5b506104ad6004803603604081101561049c57600080fd5b5061ffff8135169060200135611551565b60408051918252519081900360200190f35b3480156104cb57600080fd5b506103a5600480360360208110156104e257600080fd5b503561ffff1661156e565b3480156104f957600080fd5b506103db6004803603604081101561051057600080fd5b506001600160a01b038135169060200135611644565b34801561053257600080fd5b506103a56004803603602081101561054957600080fd5b503561ffff16611662565b34801561056057600080fd5b506103a5611724565b34801561057557600080fd5b506104ad6117bb565b34801561058a57600080fd5b506103a5600480360360208110156105a157600080fd5b503515156117c1565b3480156105b657600080fd5b506104ad611836565b3480156105cb57600080fd5b506103db600480360360608110156105e257600080fd5b506001600160a01b0381358116916020810135909116906040013561185a565b34801561060e57600080fd5b50610751600480360360a081101561062557600080fd5b61ffff8235169190810190604081016020820135600160201b81111561064a57600080fd5b82018360208201111561065c57600080fd5b803590602001918460018302840111600160201b8311171561067d57600080fd5b91908080601f01602080910402602001604051908101604052809392919081815260200183838082843760009201919091525092958435956020860135151595919450925060608101915060400135600160201b8111156106dd57600080fd5b8201836020820111156106ef57600080fd5b803590602001918460018302840111600160201b8311171561071057600080fd5b91908080601f0160208091040260200160405190810160405280939291908181526020018383808284376000920191909152509295506118e1945050505050565b6040805192835260208301919091528051918290030190f35b34801561077657600080fd5b5061077f611915565b6040805160ff9092168252519081900360200190f35b3480156107a157600080fd5b506103a5600480360360208110156107b857600080fd5b50356001600160a01b031661191e565b3480156107d457600080fd5b506103db600480360360408110156107eb57600080fd5b506001600160a01b0381351690602001356119c0565b34801561080d57600080fd5b506103db6004803603604081101561082457600080fd5b61ffff8235169190810190604081016020820135600160201b81111561084957600080fd5b82018360208201111561085b57600080fd5b803590602001918460018302840111600160201b8311171561087c57600080fd5b509092509050611a0e565b34801561089357600080fd5b5061089c611adf565b604080516001600160a01b039092168252519081900360200190f35b3480156108c457600080fd5b506103db600480360360208110156108db57600080fd5b5035611aee565b3480156108ee57600080fd5b506103a56004803603604081101561090557600080fd5b61ffff8235169190810190604081016020820135600160201b81111561092a57600080fd5b82018360208201111561093c57600080fd5b803590602001918460018302840111600160201b8311171561095d57600080fd5b509092509050611b02565b34801561097457600080fd5b506104ad611c16565b6103a5600480360360e081101561099357600080fd5b6001600160a01b038235169161ffff60208201351691810190606081016040820135600160201b8111156109c657600080fd5b8201836020820111156109d857600080fd5b803590602001918460018302840111600160201b831117156109f957600080fd5b91908080601f01602080910402602001604051908101604052809392919081815260200183838082843760009201919091525092958435956001600160a01b036020870135811696604081013590911695509193509150608081019060600135600160201b811115610a6a57600080fd5b820183602082011115610a7c57600080fd5b803590602001918460018302840111600160201b83111715610a9d57600080fd5b91908080601f016020809104026020016040519081016040528093929190818152602001838380828437600092019190915250929550611c1b945050505050565b348015610aea57600080fd5b506104ad60048036036060811015610b0157600080fd5b61ffff8235169190810190604081016020820135600160201b811115610b2657600080fd5b820183602082011115610b3857600080fd5b803590602001918460018302840111600160201b83111715610b5957600080fd5b91908080601f016020809104026020016040519081016040528093929190818152602001838380828437600092019190915250929550505090356001600160401b03169150611ccd9050565b348015610bb157600080fd5b506103db611d01565b348015610bc657600080fd5b5061089c611d0f565b348015610bdb57600080fd5b506103a560048036036080811015610bf257600080fd5b61ffff8235169190810190604081016020820135600160201b811115610c1757600080fd5b820183602082011115610c2957600080fd5b803590602001918460018302840111600160201b83111715610c4a57600080fd5b91908080601f01602080910402602001604051908101604052809392919081815260200183838082843760009201919091525092956001600160401b03853516959094909350604081019250602001359050600160201b811115610cad57600080fd5b820183602082011115610cbf57600080fd5b803590602001918460018302840111600160201b83111715610ce057600080fd5b91908080601f016020809104026020016040519081016040528093929190818152602001838380828437600092019190915250929550611d1e945050505050565b348015610d2d57600080fd5b506104ad60048036036020811015610d4457600080fd5b50356001600160a01b0316611d7e565b348015610d6057600080fd5b506103a5611d99565b348015610d7557600080fd5b5061040460048036036020811015610d8c57600080fd5b503561ffff16611e29565b348015610da357600080fd5b506104ad611ec3565b348015610db857600080fd5b5061089c611ec9565b348015610dcd57600080fd5b506104ad611ed8565b348015610de257600080fd5b50610404611ee7565b348015610df757600080fd5b506103a560048036036040811015610e0e57600080fd5b50803590602001356001600160a01b0316611f48565b348015610e3057600080fd5b506103a560048036036060811015610e4757600080fd5b5061ffff8135169060208101359060400135612042565b348015610e6a57600080fd5b506104ad612150565b348015610e7f57600080fd5b506103db60048036036040811015610e9657600080fd5b506001600160a01b038135169060200135612156565b348015610eb857600080fd5b506103db60048036036040811015610ecf57600080fd5b506001600160a01b0381351690602001356121be565b348015610ef157600080fd5b506104ad6121d2565b348015610f0657600080fd5b5061089c6121d7565b348015610f1b57600080fd5b5061089c6121fb565b348015610f3057600080fd5b506103a560048036036080811015610f4757600080fd5b61ffff823581169260208101359091169160408201359190810190608081016060820135600160201b811115610f7c57600080fd5b820183602082011115610f8e57600080fd5b803590602001918460018302840111600160201b83111715610faf57600080fd5b50909250905061220a565b6103a560048036036040811015610fd057600080fd5b508035906020013561ffff16612333565b6103a560048036036080811015610ff757600080fd5b61ffff8235169190810190604081016020820135600160201b81111561101c57600080fd5b82018360208201111561102e57600080fd5b803590602001918460018302840111600160201b8311171561104f57600080fd5b91908080601f01602080910402602001604051908101604052809392919081815260200183838082843760009201919091525092956001600160401b03853516959094909350604081019250602001359050600160201b8111156110b257600080fd5b8201836020820111156110c457600080fd5b803590602001918460018302840111600160201b831117156110e557600080fd5b91908080601f01602080910402602001604051908101604052809392919081815260200183838082843760009201919091525092955061242a945050505050565b34801561113257600080fd5b506104ad6125d4565b34801561114757600080fd5b506104ad6004803603604081101561115e57600080fd5b506001600160a01b03813581169160200135166125f8565b34801561118257600080fd5b506103a56004803603602081101561119957600080fd5b50351515612623565b3480156111ae57600080fd5b506103a5600480360360408110156111c557600080fd5b61ffff8235169190810190604081016020820135600160201b8111156111ea57600080fd5b8201836020820111156111fc57600080fd5b803590602001918460018302840111600160201b8311171561121d57600080fd5b5090925090506126c2565b34801561123457600080fd5b506103db6127aa565b34801561124957600080fd5b506104ad6004803603602081101561126057600080fd5b50356127b3565b34801561127357600080fd5b506103a56004803603602081101561128a57600080fd5b50356001600160a01b031661291b565b3480156112a657600080fd5b50610404600480360360808110156112bd57600080fd5b5061ffff81358116916020810135909116906001600160a01b036040820135169060600135612a01565b7f00000000000000000000000000000000000000000000000000000000000000006001600160a01b0316611319612b79565b6001600160a01b031614611374576040805162461bcd60e51b815260206004820152601e60248201527f4c7a4170703a20696e76616c696420656e64706f696e742063616c6c65720000604482015290519081900360640190fd5b61ffff8416600090815260016020818152604080842080548251600295821615610100026000190190911694909404601f8101849004840285018401909252818452918301828280156114085780601f106113dd57610100808354040283529160200191611408565b820191906000526020600020905b8154815290600101906020018083116113eb57829003601f168201915b505050505090508051845114801561142d575080805190602001208480519060200120145b6114685760405162461bcd60e51b815260040180806020018281038252602681526020018061453c6026913960400191505060405180910390fd5b61147485858585612b7d565b5050505050565b60006001600160e01b0319821615806114a457506001600160e01b031982166336372b0760e01b145b806114b357506114b382612f27565b90505b919050565b60088054604080516020601f60026000196101006001881615020190951694909404938401819004810282018101909252828152606093909290918301828280156115475780601f1061151c57610100808354040283529160200191611547565b820191906000526020600020905b81548152906001019060200180831161152a57829003601f168201915b5050505050905090565b600260209081526000928352604080842090915290825290205481565b611576612b79565b6000546001600160a01b039081169116146115c6576040805162461bcd60e51b81526020600482018190526024820152600080516020614403833981519152604482015290519081900360640190fd5b7f00000000000000000000000000000000000000000000000000000000000000006001600160a01b03166307e0db17826040518263ffffffff1660e01b8152600401808261ffff168152602001915050600060405180830381600087803b15801561163057600080fd5b505af1158015611474573d6000803e3d6000fd5b6000611658611651612b79565b8484612f4c565b5060015b92915050565b61166a612b79565b6000546001600160a01b039081169116146116ba576040805162461bcd60e51b81526020600482018190526024820152600080516020614403833981519152604482015290519081900360640190fd5b7f00000000000000000000000000000000000000000000000000000000000000006001600160a01b03166310ddb137826040518263ffffffff1660e01b8152600401808261ffff168152602001915050600060405180830381600087803b15801561163057600080fd5b600a5462010000900460ff1615611772576040805162461bcd60e51b815260206004820152600d60248201526c1b5a5b9d08191a5cd8589b1959609a1b604482015290519081900360640190fd5b600d546117a8906001600160a01b03167f0000000000000000000000000000000000000000000000000000000000000000613038565b600a805462ff0000191662010000179055565b60075490565b6117c9612b79565b6000546001600160a01b03908116911614611819576040805162461bcd60e51b81526020600482018190526024820152600080516020614403833981519152604482015290519081900360640190fd5b8061182b57611826613121565b611833565b61183361317a565b50565b7f000000000000000000000000000000000000000000000000000000000000000081565b60006118678484846131ba565b6118d784611873612b79565b6118d2856040518060600160405280602881526020016143db602891396001600160a01b038a166000908152600660205260408120906118b1612b79565b6001600160a01b031681526020810191909152604001600020549190613305565b612f4c565b5060019392505050565b6000806118f1878787878761339c565b9092509050611909611902866127b3565b83906135c2565b91509550959350505050565b600a5460ff1690565b611926612b79565b6000546001600160a01b03908116911614611976576040805162461bcd60e51b81526020600482018190526024820152600080516020614403833981519152604482015290519081900360640190fd5b600e80546001600160a01b0319166001600160a01b0383169081179091556040517fb266add5f3044b17d27db796af992cecbe413921b4e8aaaee03c719e16b9806a90600090a250565b60006116586119cd612b79565b846118d285600660006119de612b79565b6001600160a01b03908116825260208083019390935260409182016000908120918c1681529252902054906135c2565b61ffff8316600090815260016020818152604080842080548251600295821615610100026000190190911694909404601f8101849004840285018401909252818452849392909190830182828015611aa75780601f10611a7c57610100808354040283529160200191611aa7565b820191906000526020600020905b815481529060010190602001808311611a8a57829003601f168201915b505050505090508383604051808383808284376040519201829003909120855160209096019590952090941498975050505050505050565b600d546001600160a01b031681565b6000611afa3383613621565b506001919050565b611b0a612b79565b6000546001600160a01b03908116911614611b5a576040805162461bcd60e51b81526020600482018190526024820152600080516020614403833981519152604482015290519081900360640190fd5b604080516342d65a8d60e01b815261ffff85166004820190815260248201928352604482018490526001600160a01b037f000000000000000000000000000000000000000000000000000000000000000016926342d65a8d92879287928792606401848480828437600081840152601f19601f820116905080830192505050945050505050600060405180830381600087803b158015611bf957600080fd5b505af1158015611c0d573d6000803e3d6000fd5b50505050505050565b600081565b611c2361370b565b6000611c2e856127b3565b905080341015611c6f5760405162461bcd60e51b815260040180806020018281038252602a815260200180614443602a913960400191505060405180910390fd5b600c546040516001600160a01b039091169082156108fc029083906000818181858888f19350505050158015611ca9573d6000803e3d6000fd5b50611cc388888888888888611cbe348a61375a565b61379c565b5050505050505050565b6003602090815260009384526040808520845180860184018051928152908401958401959095209452929052825290205481565b600a54610100900460ff1690565b600c546001600160a01b031681565b30611d27612b79565b6001600160a01b031614611d6c5760405162461bcd60e51b815260040180806020018281038252602681526020018061428e6026913960400191505060405180910390fd5b611d7884848484613949565b50505050565b6001600160a01b031660009081526005602052604090205490565b611da1612b79565b6000546001600160a01b03908116911614611df1576040805162461bcd60e51b81526020600482018190526024820152600080516020614403833981519152604482015290519081900360640190fd5b600080546040516001600160a01b0390911690600080516020614423833981519152908390a3600080546001600160a01b0319169055565b60016020818152600092835260409283902080548451600294821615610100026000190190911693909304601f8101839004830284018301909452838352919290830182828015611ebb5780601f10611e9057610100808354040283529160200191611ebb565b820191906000526020600020905b815481529060010190602001808311611e9e57829003601f168201915b505050505081565b600b5481565b6000546001600160a01b031690565b6000611ee26117bb565b905090565b60098054604080516020601f60026000196101006001881615020190951694909404938401819004810282018101909252828152606093909290918301828280156115475780601f1061151c57610100808354040283529160200191611547565b611f50612b79565b6000546001600160a01b03908116911614611fa0576040805162461bcd60e51b81526020600482018190526024820152600080516020614403833981519152604482015290519081900360640190fd5b612710821115611fe7576040805162461bcd60e51b815260206004820152600d60248201526c496e76616c696420726174696f60981b604482015290519081900360640190fd5b600b829055600c80546001600160a01b0383166001600160a01b031990911681179091556040805184815290517fe44b090966c483a5d3083af2aea49d8d120dcc0aba24e70a44cdccc4beec79fc9181900360200190a25050565b61204a612b79565b6000546001600160a01b0390811691161461209a576040805162461bcd60e51b81526020600482018190526024820152600080516020614403833981519152604482015290519081900360640190fd5b600081116120ee576040805162461bcd60e51b815260206004820152601c60248201527b131e905c1c0e881a5b9d985b1a590817d91cdd11d85cd05b5bdd5b9d60221b604482015290519081900360640190fd5b61ffff8316600081815260026020908152604080832086845282529182902084905581519283528201849052818101839052517f15ceea62cfa597b29eb911525932c57500d97da953485d24260680ae56903b689181900360600190a1505050565b61271081565b6000611658612163612b79565b846118d285604051806060016040528060258152602001614562602591396006600061218d612b79565b6001600160a01b03908116825260208083019390935260409182016000908120918d16815292529020549190613305565b60006116586121cb612b79565b84846131ba565b600181565b7f000000000000000000000000000000000000000000000000000000000000000081565b600e546001600160a01b031681565b612212612b79565b6000546001600160a01b03908116911614612262576040805162461bcd60e51b81526020600482018190526024820152600080516020614403833981519152604482015290519081900360640190fd5b7f00000000000000000000000000000000000000000000000000000000000000006001600160a01b031663cbed8b9c86868686866040518663ffffffff1660e01b8152600401808661ffff1681526020018561ffff168152602001848152602001806020018281038252848482818152602001925080828437600081840152601f19601f8201169050808301925050509650505050505050600060405180830381600087803b15801561231457600080fd5b505af1158015612328573d6000803e3d6000fd5b505050505050505050565b61233b61370b565b6000612346836127b3565b9050803410156123875760405162461bcd60e51b815260040180806020018281038252602a815260200180614443602a913960400191505060405180910390fd5b600c546040516001600160a01b039091169082156108fc029083906000818181858888f193505050501580156123c1573d6000803e3d6000fd5b506124256123cd612b79565b836123d6612b79565b60405160200180826001600160a01b031660601b81526014019150506040516020818303038152906040528661240a612b79565b6040805160208101909152600080825290611cbe348a61375a565b505050565b61ffff84166000908152600360209081526040808320905186519192879282918401908083835b602083106124705780518252601f199092019160209182019101612451565b51815160001960209485036101000a01908116901991909116179052920194855250604080519485900382019094206001600160401b03881660009081529152929092205492505050806124f55760405162461bcd60e51b81526004018080602001828103825260238152602001806143416023913960400191505060405180910390fd5b8151602083012081146125395760405162461bcd60e51b81526004018080602001828103825260218152602001806144f76021913960400191505060405180910390fd5b61ffff85166000908152600360209081526040808320905187519192889282918401908083835b6020831061257f5780518252601f199092019160209182019101612560565b51815160209384036101000a6000190180199092169116179052920194855250604080519485900382019094206001600160401b03891660009081529152929092209290925550611474905085858585613949565b7f000000000000000000000000000000000000000000000000000000000000000081565b6001600160a01b03918216600090815260066020908152604080832093909416825291909152205490565b61262b612b79565b6000546001600160a01b0390811691161461267b576040805162461bcd60e51b81526020600482018190526024820152600080516020614403833981519152604482015290519081900360640190fd5b6004805482151560ff19909116811790915560408051918252517f1584ad594a70cbe1e6515592e1272a987d922b097ead875069cebe8b40c004a49181900360200190a150565b6126ca612b79565b6000546001600160a01b0390811691161461271a576040805162461bcd60e51b81526020600482018190526024820152600080516020614403833981519152604482015290519081900360640190fd5b61ffff831660009081526001602052604090206127389083836141ec565b507ffa41487ad5d6728f0b19276fa1eddc16558578f5109fc39d2dc33c3230470dab838383604051808461ffff168152602001806020018281038252848482818152602001925080828437600083820152604051601f909101601f1916909201829003965090945050505050a1505050565b60045460ff1681565b600e546000906001600160a01b03166127ce575060006114b6565b600e54604080516325ca7a8760e11b815290516000926001600160a01b031691634b94f50e916004808301926020929190829003018186803b15801561281357600080fd5b505afa158015612827573d6000803e3d6000fd5b505050506040513d602081101561283d57600080fd5b5051600e546040805163313ce56760e01b815290519293506000926001600160a01b039092169163313ce56791600480820192602092909190829003018186803b15801561288a57600080fd5b505afa15801561289e573d6000803e3d6000fd5b505050506040513d60208110156128b457600080fd5b5051600a80549192506000916128f59160ff909116810a906128e990670de0b6b3a7640000906128ef9087900a838b8a613acc565b90613b25565b90613acc565b90506129126127106128e9600b5484613acc90919063ffffffff16565b95945050505050565b612923612b79565b6000546001600160a01b03908116911614612973576040805162461bcd60e51b81526020600482018190526024820152600080516020614403833981519152604482015290519081900360640190fd5b6001600160a01b0381166129b85760405162461bcd60e51b81526004018080602001828103825260268152602001806142f96026913960400191505060405180910390fd5b600080546040516001600160a01b038085169392169160008051602061442383398151915291a3600080546001600160a01b0319166001600160a01b0392909216919091179055565b60408051633d7b2f6f60e21b815261ffff8087166004830152851660248201523060448201526064810183905290516060916001600160a01b037f0000000000000000000000000000000000000000000000000000000000000000169163f5ecbdbc91608480820192600092909190829003018186803b158015612a8457600080fd5b505afa158015612a98573d6000803e3d6000fd5b505050506040513d6000823e601f3d908101601f191682016040526020811015612ac157600080fd5b8101908080516040519392919084600160201b821115612ae057600080fd5b908301906020820185811115612af557600080fd5b8251600160201b811182820188101715612b0e57600080fd5b82525081516020918201929091019080838360005b83811015612b3b578181015183820152602001612b23565b50505050905090810190601f168015612b685780820380516001836020036101000a031916815260200191505b506040525050509050949350505050565b3390565b306001600160a01b03166366ad5c8a858585856040518563ffffffff1660e01b8152600401808561ffff16815260200180602001846001600160401b0316815260200180602001838103835286818151815260200191508051906020019080838360005b83811015612bf9578181015183820152602001612be1565b50505050905090810190601f168015612c265780820380516001836020036101000a031916815260200191505b50838103825284518152845160209182019186019080838360005b83811015612c59578181015183820152602001612c41565b50505050905090810190601f168015612c865780820380516001836020036101000a031916815260200191505b509650505050505050600060405180830381600087803b158015612ca957600080fd5b505af1925050508015612cba575060015b611d785761ffff84166000908152600360209081526040808320905186519192879282918401908083835b60208310612d045780518252601f199092019160209182019101612ce5565b51815160209384036101000a6000190180199092169116179052920194855250604080519485900382019094206001600160401b038816600090815291529290922054929092149150612d58905057600080fd5b8080519060200120600360008661ffff1661ffff168152602001908152602001600020846040518082805190602001908083835b60208310612dab5780518252601f199092019160209182019101612d8c565b6001836020036101000a03801982511681845116808217855250505050505090500191505090815260200160405180910390206000846001600160401b03166001600160401b03168152602001908152602001600020819055507fe6f254030bcb01ffd20558175c13fcaed6d1520be7becee4c961b65f79243b0d84848484604051808561ffff16815260200180602001846001600160401b0316815260200180602001838103835286818151815260200191508051906020019080838360005b83811015612e84578181015183820152602001612e6c565b50505050905090810190601f168015612eb15780820380516001836020036101000a031916815260200191505b50838103825284518152845160209182019186019080838360005b83811015612ee4578181015183820152602001612ecc565b50505050905090810190601f168015612f115780820380516001836020036101000a031916815260200191505b50965050505050505060405180910390a1611d78565b60006001600160e01b031982166301d1d13560e71b14806114b357506114b382613b64565b6001600160a01b038316612f915760405162461bcd60e51b81526004018080602001828103825260248152602001806144d36024913960400191505060405180910390fd5b6001600160a01b038216612fd65760405162461bcd60e51b815260040180806020018281038252602281526020018061431f6022913960400191505060405180910390fd5b6001600160a01b03808416600081815260066020908152604080832094871680845294825291829020859055815185815291517f8c5be1e5ebec7d5bd14f71427d1e84f3dd0314c0f7b2291e5b200ac8c7c3b9259281900390910190a3505050565b7f00000000000000000000000000000000000000000000000000000000000000008111156130a2576040805162461bcd60e51b8152602060048201526012602482015271195e18d959591cc81b585e08185b5bdd5b9d60721b604482015290519081900360640190fd5b6130ac8282613b7d565b6130b46117bb565b7f0000000000000000000000000000000000000000000000000000000000000000101561311d576040805162461bcd60e51b815260206004820152601260248201527165786365656473206d617820737570706c7960701b604482015290519081900360640190fd5b5050565b613129613c5d565b600a805461ff00191690557f5db9ee0a495bf2e6ff9c91a7834c1ba4fdd244a5e8aa4e537bd38aeae4b073aa61315d612b79565b604080516001600160a01b039092168252519081900360200190a1565b61318261370b565b600a805461ff0019166101001790557f62e78cea01bee320cd4e420270b5ea74000d11b0c9f74754ebdbfc544b05a25861315d612b79565b6001600160a01b0383166131ff5760405162461bcd60e51b81526004018080602001828103825260258152602001806144ae6025913960400191505060405180910390fd5b6001600160a01b0382166132445760405162461bcd60e51b81526004018080602001828103825260238152602001806142b46023913960400191505060405180910390fd5b61324f838383612425565b61328c81604051806060016040528060268152602001614364602691396001600160a01b0386166000908152600560205260409020549190613305565b6001600160a01b0380851660009081526005602052604080822093909355908416815220546132bb90826135c2565b6001600160a01b03808416600081815260056020908152604091829020949094558051858152905191939287169260008051602061446d83398151915292918290030190a3505050565b600081848411156133945760405162461bcd60e51b81526004018080602001828103825283818151815260200191508051906020019080838360005b83811015613359578181015183820152602001613341565b50505050905090810190601f1680156133865780820380516001836020036101000a031916815260200191505b509250505060405180910390fd5b505050900390565b600080600086866040516020018080602001838152602001828103825284818151815260200191508051906020019080838360005b838110156133e95781810151838201526020016133d1565b50505050905090810190601f1680156134165780820380516001836020036101000a031916815260200191505b50935050505060405160208183030381529060405290507f00000000000000000000000000000000000000000000000000000000000000006001600160a01b03166340a7bb1089308489896040518663ffffffff1660e01b8152600401808661ffff168152602001856001600160a01b0316815260200180602001841515815260200180602001838103835286818151815260200191508051906020019080838360005b838110156134d25781810151838201526020016134ba565b50505050905090810190601f1680156134ff5780820380516001836020036101000a031916815260200191505b50838103825284518152845160209182019186019080838360005b8381101561353257818101518382015260200161351a565b50505050905090810190601f16801561355f5780820380516001836020036101000a031916815260200191505b50975050505050505050604080518083038186803b15801561358057600080fd5b505afa158015613594573d6000803e3d6000fd5b505050506040513d60408110156135aa57600080fd5b50805160209091015190999098509650505050505050565b60008282018381101561361a576040805162461bcd60e51b815260206004820152601b60248201527a536166654d6174683a206164646974696f6e206f766572666c6f7760281b604482015290519081900360640190fd5b9392505050565b6001600160a01b0382166136665760405162461bcd60e51b815260040180806020018281038252602181526020018061448d6021913960400191505060405180910390fd5b61367282600083612425565b6136af816040518060600160405280602281526020016142d7602291396001600160a01b0385166000908152600560205260409020549190613305565b6001600160a01b0383166000908152600560205260409020556007546136d5908261375a565b6007556040805182815290516000916001600160a01b0385169160008051602061446d8339815191529181900360200190a35050565b613713611d01565b15613758576040805162461bcd60e51b815260206004820152601060248201526f14185d5cd8589b194e881c185d5cd95960821b604482015290519081900360640190fd5b565b600061361a83836040518060400160405280601e81526020017f536166654d6174683a207375627472616374696f6e206f766572666c6f770000815250613305565b6137a888888888613cad565b600086866040516020018080602001838152602001828103825284818151815260200191508051906020019080838360005b838110156137f25781810151838201526020016137da565b50505050905090810190601f16801561381f5780820380516001836020036101000a031916815260200191505b5060408051601f1981840301815291905260045490955060ff161593506138579250505057613852886001856000613cc1565b613895565b8251156138955760405162461bcd60e51b81526004018080602001828103825260248152602001806145186024913960400191505060405180910390fd5b6138a3888287878787613da8565b866040518082805190602001908083835b602083106138d35780518252601f1990920191602091820191016138b4565b51815160209384036101000a6000190180199092169116179052604080519290940182900382208c835293519395506001600160a01b038f16945061ffff8e16937f39a4c66499bcf4b56d79f0dde8ed7a9d4925a0df55825206b2b8531e202be0d09350918290030190a4505050505050505050565b60008082806020019051604081101561396157600080fd5b8101908080516040519392919084600160201b82111561398057600080fd5b90830190602082018581111561399557600080fd5b8251600160201b8111828201881017156139ae57600080fd5b82525081516020918201929091019080838360005b838110156139db5781810151838201526020016139c3565b50505050905090810190601f168015613a085780820380516001836020036101000a031916815260200191505b506040526020015160148401519395509350613a299150889050828461406a565b806001600160a01b0316866040518082805190602001908083835b60208310613a635780518252601f199092019160209182019101613a44565b51815160209384036101000a600019018019909216911617905260408051929094018290038220898352935193955061ffff8e1694507f776434b505c7beb3db155c58df6c88985bf7c31730767e43ec773005059fed7a9391829003019150a450505050505050565b600082613adb5750600061165c565b82820282848281613ae857fe5b041461361a5760405162461bcd60e51b81526004018080602001828103825260218152602001806143ba6021913960400191505060405180910390fd5b600061361a83836040518060400160405280601a815260200179536166654d6174683a206469766973696f6e206279207a65726f60301b815250614074565b6001600160e01b031981166301ffc9a760e01b14919050565b6001600160a01b038216613bd8576040805162461bcd60e51b815260206004820152601f60248201527f45524332303a206d696e7420746f20746865207a65726f206164647265737300604482015290519081900360640190fd5b613be460008383612425565b600754613bf190826135c2565b6007556001600160a01b038216600090815260056020526040902054613c1790826135c2565b6001600160a01b038316600081815260056020908152604080832094909455835185815293519293919260008051602061446d8339815191529281900390910190a35050565b613c65611d01565b613758576040805162461bcd60e51b815260206004820152601460248201527314185d5cd8589b194e881b9bdd081c185d5cd95960621b604482015290519081900360640190fd5b613cb561370b565b611d78848484846140d9565b6000613ccc83614113565b61ffff8616600090815260026020908152604080832088845290915281205491925090613cf990846135c2565b905060008111613d4d576040805162461bcd60e51b815260206004820152601a602482015279131e905c1c0e881b5a5b91d85cd31a5b5a5d081b9bdd081cd95d60321b604482015290519081900360640190fd5b80821015613da0576040805162461bcd60e51b815260206004820152601b60248201527a4c7a4170703a20676173206c696d697420697320746f6f206c6f7760281b604482015290519081900360640190fd5b505050505050565b61ffff8616600090815260016020818152604080842080548251600295821615610100026000190190911694909404601f810184900484028501840190925281845291830182828015613e3c5780601f10613e1157610100808354040283529160200191613e3c565b820191906000526020600020905b815481529060010190602001808311613e1f57829003601f168201915b50505050509050805160001415613e845760405162461bcd60e51b815260040180806020018281038252603081526020018061438a6030913960400191505060405180910390fd5b7f00000000000000000000000000000000000000000000000000000000000000006001600160a01b031663c58031008389848a8a8a8a6040518863ffffffff1660e01b8152600401808761ffff1681526020018060200180602001866001600160a01b03168152602001856001600160a01b0316815260200180602001848103845289818151815260200191508051906020019080838360005b83811015613f36578181015183820152602001613f1e565b50505050905090810190601f168015613f635780820380516001836020036101000a031916815260200191505b5084810383528851815288516020918201918a019080838360005b83811015613f96578181015183820152602001613f7e565b50505050905090810190601f168015613fc35780820380516001836020036101000a031916815260200191505b50848103825285518152855160209182019187019080838360005b83811015613ff6578181015183820152602001613fde565b50505050905090810190601f1680156140235780820380516001836020036101000a031916815260200191505b5099505050505050505050506000604051808303818588803b15801561404857600080fd5b505af115801561405c573d6000803e3d6000fd5b505050505050505050505050565b6124258282613038565b600081836140c35760405162461bcd60e51b8152602060048201818152835160248401528351909283926044909101919085019080838360008315613359578181015183820152602001613341565b5060008385816140cf57fe5b0495945050505050565b60006140e3612b79565b9050806001600160a01b0316856001600160a01b03161461410957614109858284614173565b6114748583613621565b600060228251101561416b576040805162461bcd60e51b815260206004820152601c60248201527b4c7a4170703a20696e76616c69642061646170746572506172616d7360201b604482015290519081900360640190fd5b506022015190565b600061417f84846125f8565b90506000198114611d7857818110156141df576040805162461bcd60e51b815260206004820152601d60248201527f45524332303a20696e73756666696369656e7420616c6c6f77616e6365000000604482015290519081900360640190fd5b611d788484848403612f4c565b828054600181600116156101000203166002900490600052602060002090601f0160209004810192826142225760008555614268565b82601f1061423b5782800160ff19823516178555614268565b82800160010185558215614268579182015b8281111561426857823582559160200191906001019061424d565b50614274929150614278565b5090565b5b80821115614274576000815560010161427956fe4e6f6e626c6f636b696e674c7a4170703a2063616c6c6572206d757374206265204c7a41707045524332303a207472616e7366657220746f20746865207a65726f206164647265737345524332303a206275726e20616d6f756e7420657863656564732062616c616e63654f776e61626c653a206e6577206f776e657220697320746865207a65726f206164647265737345524332303a20617070726f766520746f20746865207a65726f20616464726573734e6f6e626c6f636b696e674c7a4170703a206e6f2073746f726564206d65737361676545524332303a207472616e7366657220616d6f756e7420657863656564732062616c616e63654c7a4170703a2064657374696e6174696f6e20636861696e206973206e6f742061207472757374656420736f75726365536166654d6174683a206d756c7469706c69636174696f6e206f766572666c6f7745524332303a207472616e7366657220616d6f756e74206578636565647320616c6c6f77616e63654f776e61626c653a2063616c6c6572206973206e6f7420746865206f776e65728be0079c531659141344cd1fd0a4f28419497f9722a3daafe3b4186f6b6457e04554482073656e74206973206e6f7420656e6f75676820666f722074686520666565207061796d656e74ddf252ad1be2c89b69c2b068fc378daa952ba7f163c4a11628f55a4df523b3ef45524332303a206275726e2066726f6d20746865207a65726f206164647265737345524332303a207472616e736665722066726f6d20746865207a65726f206164647265737345524332303a20617070726f76652066726f6d20746865207a65726f20616464726573734e6f6e626c6f636b696e674c7a4170703a20696e76616c6964207061796c6f61644c7a4170703a205f61646170746572506172616d73206d75737420626520656d7074792e4c7a4170703a20696e76616c696420736f757263652073656e64696e6720636f6e747261637445524332303a2064656372656173656420616c6c6f77616e63652062656c6f77207a65726fa2646970667358221220c5439b6c3f122293dac2d690f23c2bcf2130f1fe1a99c3ace2a10e930ef6c6c864736f6c63430007060033",
  "devdoc": {
    "author": "Radiant Labs",
    "details": "All function calls are currently implemented without side effects",
    "kind": "dev",
    "methods": {
      "allowance(address,address)": {
        "details": "See {IERC20-allowance}."
      },
      "approve(address,uint256)": {
        "details": "See {IERC20-approve}. Requirements: - `spender` cannot be the zero address."
      },
      "balanceOf(address)": {
        "details": "See {IERC20-balanceOf}."
      },
      "bridge(uint256,uint16)": {
        "params": {
          "amt": "Amount of RDNT",
          "destChainId": "Destination chain ID"
        }
      },
      "burn(uint256)": {
        "params": {
          "_value": "is amount to burn"
        }
      },
      "circulatingSupply()": {
        "details": "returns the circulating amount of tokens on current chain"
      },
      "constructor": {
        "params": {
          "_dao": "dao address",
          "_endpoint": "LZ endpoint",
          "_fee": "fee ratio",
          "_maxMintAmount": "max token mint amount",
          "_maxSupply": "max token supply",
          "_symbol": "token symbol",
          "_tokenName": "token name",
          "_treasury": "treasury address"
        }
      },
      "decimals()": {
        "details": "Returns the number of decimals used to get its user representation. For example, if `decimals` equals `2`, a balance of `505` tokens should be displayed to a user as `5,05` (`505 / 10 ** 2`). Tokens usually opt for a value of 18, imitating the relationship between Ether and Wei. This is the value {ERC20} uses, unless {_setupDecimals} is called. NOTE: This information is only used for _display_ purposes: it in no way affects any of the arithmetic of the contract, including {IERC20-balanceOf} and {IERC20-transfer}."
      },
      "decreaseAllowance(address,uint256)": {
        "details": "Atomically decreases the allowance granted to `spender` by the caller. This is an alternative to {approve} that can be used as a mitigation for problems described in {IERC20-approve}. Emits an {Approval} event indicating the updated allowance. Requirements: - `spender` cannot be the zero address. - `spender` must have allowance for the caller of at least `subtractedValue`."
      },
      "getBridgeFee(uint256)": {
        "params": {
          "rdntAmount": "amount for bridge"
        }
      },
      "increaseAllowance(address,uint256)": {
        "details": "Atomically increases the allowance granted to `spender` by the caller. This is an alternative to {approve} that can be used as a mitigation for problems described in {IERC20-approve}. Emits an {Approval} event indicating the updated allowance. Requirements: - `spender` cannot be the zero address."
      },
      "mint()": {
        "details": "Can be called only once"
      },
      "name()": {
        "details": "Returns the name of the token."
      },
      "owner()": {
        "details": "Returns the address of the current owner."
      },
      "pauseBridge(bool)": {
        "params": {
          "pause": "option"
        }
      },
      "paused()": {
        "details": "Returns true if the contract is paused, and false otherwise."
      },
      "renounceOwnership()": {
        "details": "Leaves the contract without owner. It will not be possible to call `onlyOwner` functions anymore. Can only be called by the current owner. NOTE: Renouncing ownership will leave the contract without an owner, thereby removing any functionality that is only available to the owner."
      },
      "sendFrom(address,uint16,bytes,uint256,address,address,bytes)": {
        "details": "This adds extra bridge fees"
      },
      "setFeeInfo(uint256,address)": {
        "params": {
          "_fee": "ratio",
          "_treasury": "address"
        }
      },
      "setPriceProvider(address)": {
        "params": {
          "_priceProvider": "address"
        }
      },
      "symbol()": {
        "details": "Returns the symbol of the token, usually a shorter version of the name."
      },
      "totalSupply()": {
        "details": "See {IERC20-totalSupply}."
      },
      "transfer(address,uint256)": {
        "details": "See {IERC20-transfer}. Requirements: - `recipient` cannot be the zero address. - the caller must have a balance of at least `amount`."
      },
      "transferFrom(address,address,uint256)": {
        "details": "See {IERC20-transferFrom}. Emits an {Approval} event indicating the updated allowance. This is not required by the EIP. See the note at the beginning of {ERC20}; Requirements: - `sender` and `recipient` cannot be the zero address. - `sender` must have a balance of at least `amount`. - the caller must have allowance for ``sender``'s tokens of at least `amount`."
      },
      "transferOwnership(address)": {
        "details": "Transfers ownership of the contract to a new account (`newOwner`). Can only be called by the current owner."
      }
    },
    "title": "Radiant Token",
    "version": 1
  },
  "userdoc": {
    "events": {
      "FeeInfoUpdated(uint256,address)": {
        "notice": "Emitted when fee ratio is updated"
      },
      "PriceProviderUpdated(address)": {
        "notice": "Emitted when PriceProvider is updated"
      }
    },
    "kind": "user",
    "methods": {
      "FEE_DIVISOR()": {
        "notice": "Divisor for fee ratio, 100%"
      },
      "bridge(uint256,uint16)": {
        "notice": "Bridge token"
      },
      "burn(uint256)": {
        "notice": "Burn tokens of `msg.sender`"
      },
      "constructor": {
        "notice": "Constructor"
      },
      "dao()": {
        "notice": "DAO address"
      },
      "estimateSendFee(uint16,bytes,uint256,bool,bytes)": {
        "notice": "Returns LZ fee + Bridge fee"
      },
      "fee_ratio()": {
        "notice": "Fee ratio for bridging"
      },
      "getBridgeFee(uint256)": {
        "notice": "Bridge fee amount"
      },
      "maxMintAmount()": {
        "notice": "Max mint amount of token"
      },
      "maxSupply()": {
        "notice": "Max supply of token"
      },
      "mint()": {
        "notice": "Mint tokens to dao"
      },
      "pauseBridge(bool)": {
        "notice": "Pause/Unpause operations"
      },
      "priceProvider()": {
        "notice": "PriceProvider address"
      },
      "sendFrom(address,uint16,bytes,uint256,address,address,bytes)": {
        "notice": "Bridge tokens"
      },
      "setFeeInfo(uint256,address)": {
        "notice": "Set fee info"
      },
      "setPriceProvider(address)": {
        "notice": "Set price provider"
      },
      "treasury()": {
        "notice": "Treasury address"
      }
    },
    "version": 1
  },
  "storageLayout": {
    "storage": [
      {
        "astId": 5437,
        "contract": "contracts/oft/RadiantOFT.sol:RadiantOFT",
        "label": "_owner",
        "offset": 0,
        "slot": "0",
        "type": "t_address"
      },
      {
        "astId": 21029,
        "contract": "contracts/oft/RadiantOFT.sol:RadiantOFT",
        "label": "trustedRemoteLookup",
        "offset": 0,
        "slot": "1",
        "type": "t_mapping(t_uint16,t_bytes_storage)"
      },
      {
        "astId": 21035,
        "contract": "contracts/oft/RadiantOFT.sol:RadiantOFT",
        "label": "minDstGasLookup",
        "offset": 0,
        "slot": "2",
        "type": "t_mapping(t_uint16,t_mapping(t_uint256,t_uint256))"
      },
      {
        "astId": 21427,
        "contract": "contracts/oft/RadiantOFT.sol:RadiantOFT",
        "label": "failedMessages",
        "offset": 0,
        "slot": "3",
        "type": "t_mapping(t_uint16,t_mapping(t_bytes_memory_ptr,t_mapping(t_uint64,t_bytes32)))"
      },
      {
        "astId": 21737,
        "contract": "contracts/oft/RadiantOFT.sol:RadiantOFT",
        "label": "useCustomAdapterParams",
        "offset": 0,
        "slot": "4",
        "type": "t_bool"
      },
      {
        "astId": 4789,
        "contract": "contracts/oft/RadiantOFT.sol:RadiantOFT",
        "label": "_balances",
        "offset": 0,
        "slot": "5",
        "type": "t_mapping(t_address,t_uint256)"
      },
      {
        "astId": 4795,
        "contract": "contracts/oft/RadiantOFT.sol:RadiantOFT",
        "label": "_allowances",
        "offset": 0,
        "slot": "6",
        "type": "t_mapping(t_address,t_mapping(t_address,t_uint256))"
      },
      {
        "astId": 4797,
        "contract": "contracts/oft/RadiantOFT.sol:RadiantOFT",
        "label": "_totalSupply",
        "offset": 0,
        "slot": "7",
        "type": "t_uint256"
      },
      {
        "astId": 4799,
        "contract": "contracts/oft/RadiantOFT.sol:RadiantOFT",
        "label": "_name",
        "offset": 0,
        "slot": "8",
        "type": "t_string_storage"
      },
      {
        "astId": 4801,
        "contract": "contracts/oft/RadiantOFT.sol:RadiantOFT",
        "label": "_symbol",
        "offset": 0,
        "slot": "9",
        "type": "t_string_storage"
      },
      {
        "astId": 4803,
        "contract": "contracts/oft/RadiantOFT.sol:RadiantOFT",
        "label": "_decimals",
        "offset": 0,
        "slot": "10",
        "type": "t_uint8"
      },
      {
        "astId": 5556,
        "contract": "contracts/oft/RadiantOFT.sol:RadiantOFT",
        "label": "_paused",
        "offset": 1,
        "slot": "10",
        "type": "t_bool"
      },
      {
        "astId": 20479,
        "contract": "contracts/oft/RadiantOFT.sol:RadiantOFT",
        "label": "minted",
        "offset": 2,
        "slot": "10",
        "type": "t_bool"
      },
      {
        "astId": 20482,
        "contract": "contracts/oft/RadiantOFT.sol:RadiantOFT",
        "label": "fee_ratio",
        "offset": 0,
        "slot": "11",
        "type": "t_uint256"
      },
      {
        "astId": 20485,
        "contract": "contracts/oft/RadiantOFT.sol:RadiantOFT",
        "label": "treasury",
        "offset": 0,
        "slot": "12",
        "type": "t_address"
      },
      {
        "astId": 20488,
        "contract": "contracts/oft/RadiantOFT.sol:RadiantOFT",
        "label": "dao",
        "offset": 0,
        "slot": "13",
        "type": "t_address"
      },
      {
        "astId": 20491,
        "contract": "contracts/oft/RadiantOFT.sol:RadiantOFT",
        "label": "priceProvider",
        "offset": 0,
        "slot": "14",
        "type": "t_contract(IPriceProvider)12919"
      }
    ],
    "types": {
      "t_address": {
        "encoding": "inplace",
        "label": "address",
        "numberOfBytes": "20"
      },
      "t_bool": {
        "encoding": "inplace",
        "label": "bool",
        "numberOfBytes": "1"
      },
      "t_bytes32": {
        "encoding": "inplace",
        "label": "bytes32",
        "numberOfBytes": "32"
      },
      "t_bytes_memory_ptr": {
        "encoding": "bytes",
        "label": "bytes",
        "numberOfBytes": "32"
      },
      "t_bytes_storage": {
        "encoding": "bytes",
        "label": "bytes",
        "numberOfBytes": "32"
      },
      "t_contract(IPriceProvider)12919": {
        "encoding": "inplace",
        "label": "contract IPriceProvider",
        "numberOfBytes": "20"
      },
      "t_mapping(t_address,t_mapping(t_address,t_uint256))": {
        "encoding": "mapping",
        "key": "t_address",
        "label": "mapping(address => mapping(address => uint256))",
        "numberOfBytes": "32",
        "value": "t_mapping(t_address,t_uint256)"
      },
      "t_mapping(t_address,t_uint256)": {
        "encoding": "mapping",
        "key": "t_address",
        "label": "mapping(address => uint256)",
        "numberOfBytes": "32",
        "value": "t_uint256"
      },
      "t_mapping(t_bytes_memory_ptr,t_mapping(t_uint64,t_bytes32))": {
        "encoding": "mapping",
        "key": "t_bytes_memory_ptr",
        "label": "mapping(bytes => mapping(uint64 => bytes32))",
        "numberOfBytes": "32",
        "value": "t_mapping(t_uint64,t_bytes32)"
      },
      "t_mapping(t_uint16,t_bytes_storage)": {
        "encoding": "mapping",
        "key": "t_uint16",
        "label": "mapping(uint16 => bytes)",
        "numberOfBytes": "32",
        "value": "t_bytes_storage"
      },
      "t_mapping(t_uint16,t_mapping(t_bytes_memory_ptr,t_mapping(t_uint64,t_bytes32)))": {
        "encoding": "mapping",
        "key": "t_uint16",
        "label": "mapping(uint16 => mapping(bytes => mapping(uint64 => bytes32)))",
        "numberOfBytes": "32",
        "value": "t_mapping(t_bytes_memory_ptr,t_mapping(t_uint64,t_bytes32))"
      },
      "t_mapping(t_uint16,t_mapping(t_uint256,t_uint256))": {
        "encoding": "mapping",
        "key": "t_uint16",
        "label": "mapping(uint16 => mapping(uint256 => uint256))",
        "numberOfBytes": "32",
        "value": "t_mapping(t_uint256,t_uint256)"
      },
      "t_mapping(t_uint256,t_uint256)": {
        "encoding": "mapping",
        "key": "t_uint256",
        "label": "mapping(uint256 => uint256)",
        "numberOfBytes": "32",
        "value": "t_uint256"
      },
      "t_mapping(t_uint64,t_bytes32)": {
        "encoding": "mapping",
        "key": "t_uint64",
        "label": "mapping(uint64 => bytes32)",
        "numberOfBytes": "32",
        "value": "t_bytes32"
      },
      "t_string_storage": {
        "encoding": "bytes",
        "label": "string",
        "numberOfBytes": "32"
      },
      "t_uint16": {
        "encoding": "inplace",
        "label": "uint16",
        "numberOfBytes": "2"
      },
      "t_uint256": {
        "encoding": "inplace",
        "label": "uint256",
        "numberOfBytes": "32"
      },
      "t_uint64": {
        "encoding": "inplace",
        "label": "uint64",
        "numberOfBytes": "8"
      },
      "t_uint8": {
        "encoding": "inplace",
        "label": "uint8",
        "numberOfBytes": "1"
      }
    }
  }
}