{
  "address": "0xc60F8EfbE98F1aA6F575582b7d65552b7DF00236",
  "abi": [
    {
      "inputs": [
        {
          "internalType": "contract IStargateRouter",
          "name": "_router",
          "type": "address"
        },
        {
          "internalType": "contract IRouterETH",
          "name": "_routerETH",
          "type": "address"
        },
        {
          "internalType": "contract ILendingPool",
          "name": "_lendingPool",
          "type": "address"
        },
        {
          "internalType": "contract IWETH",
          "name": "_weth",
          "type": "address"
        },
        {
          "internalType": "address",
          "name": "_treasury",
          "type": "address"
        },
        {
          "internalType": "uint256",
          "name": "_xChainBorrowFeePercent",
          "type": "uint256"
        }
      ],
      "stateMutability": "nonpayable",
      "type": "constructor"
    },
    {
      "anonymous": false,
      "inputs": [
        {
          "indexed": true,
          "internalType": "address",
          "name": "_daoTreasury",
          "type": "address"
        }
      ],
      "name": "DAOTreasuryUpdated",
      "type": "event"
    },
    {
      "anonymous": false,
      "inputs": [
        {
          "indexed": true,
          "internalType": "address",
          "name": "previousOwner",
          "type": "address"
        },
        {
          "indexed": true,
          "internalType": "address",
          "name": "newOwner",
          "type": "address"
        }
      ],
      "name": "OwnershipTransferred",
      "type": "event"
    },
    {
      "anonymous": false,
      "inputs": [
        {
          "indexed": false,
          "internalType": "address[]",
          "name": "assets",
          "type": "address[]"
        },
        {
          "indexed": false,
          "internalType": "uint256[]",
          "name": "poolIDs",
          "type": "uint256[]"
        }
      ],
      "name": "PoolIDsUpdated",
      "type": "event"
    },
    {
      "anonymous": false,
      "inputs": [
        {
          "indexed": false,
          "internalType": "uint256",
          "name": "percent",
          "type": "uint256"
        }
      ],
      "name": "XChainBorrowFeePercentUpdated",
      "type": "event"
    },
    {
      "inputs": [],
      "name": "FEE_PERCENT_DIVISOR",
      "outputs": [
        {
          "internalType": "uint256",
          "name": "",
          "type": "uint256"
        }
      ],
      "stateMutability": "view",
      "type": "function"
    },
    {
      "inputs": [
        {
          "internalType": "address",
          "name": "asset",
          "type": "address"
        },
        {
          "internalType": "uint256",
          "name": "amount",
          "type": "uint256"
        },
        {
          "internalType": "uint256",
          "name": "interestRateMode",
          "type": "uint256"
        },
        {
          "internalType": "uint16",
          "name": "dstChainId",
          "type": "uint16"
        }
      ],
      "name": "borrow",
      "outputs": [],
      "stateMutability": "payable",
      "type": "function"
    },
    {
      "inputs": [],
      "name": "daoTreasury",
      "outputs": [
        {
          "internalType": "address",
          "name": "",
          "type": "address"
        }
      ],
      "stateMutability": "view",
      "type": "function"
    },
    {
      "inputs": [
        {
          "internalType": "uint256",
          "name": "amount",
          "type": "uint256"
        }
      ],
      "name": "getXChainBorrowFeeAmount",
      "outputs": [
        {
          "internalType": "uint256",
          "name": "",
          "type": "uint256"
        }
      ],
      "stateMutability": "view",
      "type": "function"
    },
    {
      "inputs": [],
      "name": "lendingPool",
      "outputs": [
        {
          "internalType": "contract ILendingPool",
          "name": "",
          "type": "address"
        }
      ],
      "stateMutability": "view",
      "type": "function"
    },
    {
      "inputs": [],
      "name": "owner",
      "outputs": [
        {
          "internalType": "address",
          "name": "",
          "type": "address"
        }
      ],
      "stateMutability": "view",
      "type": "function"
    },
    {
      "inputs": [
        {
          "internalType": "address",
          "name": "",
          "type": "address"
        }
      ],
      "name": "poolIdPerChain",
      "outputs": [
        {
          "internalType": "uint256",
          "name": "",
          "type": "uint256"
        }
      ],
      "stateMutability": "view",
      "type": "function"
    },
    {
      "inputs": [
        {
          "internalType": "uint16",
          "name": "_dstChainId",
          "type": "uint16"
        },
        {
          "internalType": "uint8",
          "name": "_functionType",
          "type": "uint8"
        },
        {
          "internalType": "bytes",
          "name": "_toAddress",
          "type": "bytes"
        },
        {
          "internalType": "bytes",
          "name": "_transferAndCallPayload",
          "type": "bytes"
        },
        {
          "components": [
            {
              "internalType": "uint256",
              "name": "dstGasForCall",
              "type": "uint256"
            },
            {
              "internalType": "uint256",
              "name": "dstNativeAmount",
              "type": "uint256"
            },
            {
              "internalType": "bytes",
              "name": "dstNativeAddr",
              "type": "bytes"
            }
          ],
          "internalType": "struct IStargateRouter.lzTxObj",
          "name": "_lzTxParams",
          "type": "tuple"
        }
      ],
      "name": "quoteLayerZeroSwapFee",
      "outputs": [
        {
          "internalType": "uint256",
          "name": "",
          "type": "uint256"
        },
        {
          "internalType": "uint256",
          "name": "",
          "type": "uint256"
        }
      ],
      "stateMutability": "view",
      "type": "function"
    },
    {
      "inputs": [],
      "name": "renounceOwnership",
      "outputs": [],
      "stateMutability": "nonpayable",
      "type": "function"
    },
    {
      "inputs": [],
      "name": "router",
      "outputs": [
        {
          "internalType": "contract IStargateRouter",
          "name": "",
          "type": "address"
        }
      ],
      "stateMutability": "view",
      "type": "function"
    },
    {
      "inputs": [],
      "name": "routerETH",
      "outputs": [
        {
          "internalType": "contract IRouterETH",
          "name": "",
          "type": "address"
        }
      ],
      "stateMutability": "view",
      "type": "function"
    },
    {
      "inputs": [
        {
          "internalType": "address",
          "name": "_daoTreasury",
          "type": "address"
        }
      ],
      "name": "setDAOTreasury",
      "outputs": [],
      "stateMutability": "nonpayable",
      "type": "function"
    },
    {
      "inputs": [
        {
          "internalType": "address[]",
          "name": "assets",
          "type": "address[]"
        },
        {
          "internalType": "uint256[]",
          "name": "poolIDs",
          "type": "uint256[]"
        }
      ],
      "name": "setPoolIDs",
      "outputs": [],
      "stateMutability": "nonpayable",
      "type": "function"
    },
    {
      "inputs": [
        {
          "internalType": "uint256",
          "name": "percent",
          "type": "uint256"
        }
      ],
      "name": "setXChainBorrowFeePercent",
      "outputs": [],
      "stateMutability": "nonpayable",
      "type": "function"
    },
    {
      "inputs": [
        {
          "internalType": "address",
          "name": "newOwner",
          "type": "address"
        }
      ],
      "name": "transferOwnership",
      "outputs": [],
      "stateMutability": "nonpayable",
      "type": "function"
    },
    {
      "inputs": [],
      "name": "xChainBorrowFeePercent",
      "outputs": [
        {
          "internalType": "uint256",
          "name": "",
          "type": "uint256"
        }
      ],
      "stateMutability": "view",
      "type": "function"
    },
    {
      "stateMutability": "payable",
      "type": "receive"
    }
  ],
  "transactionHash": "0x1a44e5bc5d88c9f43d684c73c240b797f3eba6d5e05014df8f934fd9d838c2ef",
  "args": [
    "0xbB0f1be1E9CE9cB27EA5b0c3a85B7cc3381d8176",
    "0x7612aE2a34E5A363E137De748801FB4c86499152",
    "0x00175A6E2c1d498F04B471C85194C1bed6b3950d",
    "0xb78dC8Cb950AF587526E182A7A36a907F8bC6A59",
    "0xA3De96858FD006fd978eA2D55Efe6b125012f485",
    "1000"
  ],
  "numDeployments": 1,
  "solcInputHash": "78995fe69be866012cdea8ea4c4842de",
  "bytecode": "0x60a060405260646006553480156200001657600080fd5b5060405162001cd238038062001cd28339810160408190526200003991620001f6565b600062000045620001f2565b600080546001600160a01b0319166001600160a01b0383169081178255604051929350917f8be0079c531659141344cd1fd0a4f28419497f9722a3daafe3b4186f6b6457e0908290a3506001600160a01b038616620000c15760405162461bcd60e51b8152600401620000b8906200027d565b60405180910390fd5b6001600160a01b038516620000ea5760405162461bcd60e51b8152600401620000b8906200027d565b6001600160a01b038416620001135760405162461bcd60e51b8152600401620000b8906200027d565b6001600160a01b0383166200013c5760405162461bcd60e51b8152600401620000b8906200027d565b6001600160a01b038216620001655760405162461bcd60e51b8152600401620000b8906200027d565b6127108111156200018a5760405162461bcd60e51b8152600401620000b890620002b4565b600180546001600160a01b03199081166001600160a01b039889161790915560028054821696881696909617909555600380548616948716949094179093556005805490941694169390931790915560065560601b6001600160601b031916608052620002f9565b3390565b60008060008060008060c087890312156200020f578182fd5b86516200021c81620002e0565b60208801519096506200022f81620002e0565b60408801519095506200024281620002e0565b60608801519094506200025581620002e0565b60808801519093506200026881620002e0565b8092505060a087015190509295509295509295565b60208082526013908201527f4e6f7420612076616c6964206164647265737300000000000000000000000000604082015260600190565b6020808252601290820152712737ba1030903b30b634b210373ab6b132b960711b604082015260600190565b6001600160a01b0381168114620002f657600080fd5b50565b60805160601c6119b66200031c600039806109d75280610a4f52506119b66000f3fe6080604052600436106100c75760003560e01c80632978dc3c146100d357806334ec9478146100f55780633ac91f7114610120578063501187b1146101405780635e4b63da1461016e578063715018a61461018e57806379022a9f146101a35780638da5cb5b146101c557806390e9faee146101da578063a59a9973146101ef578063bcf8699f14610204578063c858f5f914610219578063da3298551461022c578063dd2eaeaf1461024c578063f2fde38b1461026c578063f887ea401461028c576100ce565b366100ce57005b600080fd5b3480156100df57600080fd5b506100f36100ee36600461128c565b6102a1565b005b34801561010157600080fd5b5061010a610343565b6040516101179190611816565b60405180910390f35b34801561012c57600080fd5b506100f361013b3660046114fb565b610349565b34801561014c57600080fd5b5061016061015b3660046113a8565b61040c565b60405161011792919061181f565b34801561017a57600080fd5b5061010a61018936600461128c565b6104ac565b34801561019a57600080fd5b506100f36104be565b3480156101af57600080fd5b506101b861054e565b60405161011791906115e9565b3480156101d157600080fd5b506101b861055d565b3480156101e657600080fd5b5061010a61056c565b3480156101fb57600080fd5b506101b8610572565b34801561021057600080fd5b506101b8610581565b6100f36102273660046112a6565b610590565b34801561023857600080fd5b5061010a6102473660046114fb565b61079d565b34801561025857600080fd5b506100f36102673660046112eb565b6107c4565b34801561027857600080fd5b506100f361028736600461128c565b6108b6565b34801561029857600080fd5b506101b861099c565b6102a96109ab565b6000546001600160a01b039081169116146102f9576040805162461bcd60e51b815260206004820181905260248201526000805160206118e1833981519152604482015290519081900360640190fd5b600580546001600160a01b0319166001600160a01b0383169081179091556040517f20ab20a4fc6952498a339faf75f34c09619cdbef8368cdc88411a2edf1a9838590600090a250565b61271081565b6103516109ab565b6000546001600160a01b039081169116146103a1576040805162461bcd60e51b815260206004820181905260248201526000805160206118e1833981519152604482015290519081900360640190fd5b6127108111156103cc5760405162461bcd60e51b81526004016103c3906116d4565b60405180910390fd5b60068190556040517ff1893cfdf38a1f92aee04d52d4636a2fc6da1d3c670076d2471339a161fbe91b90610401908390611816565b60405180910390a150565b600154604051630a51236960e01b815260009182916001600160a01b0390911690630a5123699061044d908c908c908c908c908c908c908c906004016117ba565b604080518083038186803b15801561046457600080fd5b505afa158015610478573d6000803e3d6000fd5b505050506040513d601f19601f8201168201806040525081019061049c9190611513565b9150915097509795505050505050565b60046020526000908152604090205481565b6104c66109ab565b6000546001600160a01b03908116911614610516576040805162461bcd60e51b815260206004820181905260248201526000805160206118e1833981519152604482015290519081900360640190fd5b600080546040516001600160a01b0390911690600080516020611901833981519152908390a3600080546001600160a01b0319169055565b6005546001600160a01b031681565b6000546001600160a01b031690565b60065481565b6003546001600160a01b031681565b6002546001600160a01b031681565b6001600160a01b03841673eeeeeeeeeeeeeeeeeeeeeeeeeeeeeeeeeeeeeeee14156105c5576105c08383836109af565b610797565b60035460405163a415bcad60e01b81526001600160a01b039091169063a415bcad906105fe9087908790879060009033906004016115fd565b600060405180830381600087803b15801561061857600080fd5b505af115801561062c573d6000803e3d6000fd5b50505050600061063b8461079d565b600554909150610658906001600160a01b03878116911683610b90565b6106628482610be7565b600154909450610680906001600160a01b0387811691166000610c32565b60015461069a906001600160a01b03878116911686610c32565b6001546001600160a01b03868116600090815260046020526040902054911690639fbf10fc903490859080338a6106dd60646106d7836063610d45565b90610d9e565b6040518060600160405280600081526020016000815260200160405180604001604052806002815260200161060f60f31b8152508152503360405160200161072591906115b5565b60408051601f198184030181526020830182526000835290516001600160e01b031960e08d901b16815261076399989796959493929060040161173d565b6000604051808303818588803b15801561077c57600080fd5b505af1158015610790573d6000803e3d6000fd5b5050505050505b50505050565b6000806107bb6127106106d760065486610d4590919063ffffffff16565b9150505b919050565b6107cc6109ab565b6000546001600160a01b0390811691161461081c576040805162461bcd60e51b815260206004820181905260248201526000805160206118e1833981519152604482015290519081900360640190fd5b60005b82518110156108785781818151811061083457fe5b60200260200101516004600085848151811061084c57fe5b6020908102919091018101516001600160a01b031682528101919091526040016000205560010161081f565b507fdef067bfb4e27bcfac9e0863dca43835925102effa188879dc69f98d4f33a47b82826040516108aa929190611631565b60405180910390a15050565b6108be6109ab565b6000546001600160a01b0390811691161461090e576040805162461bcd60e51b815260206004820181905260248201526000805160206118e1833981519152604482015290519081900360640190fd5b6001600160a01b0381166109535760405162461bcd60e51b815260040180806020018281038252602681526020018061189a6026913960400191505060405180910390fd5b600080546040516001600160a01b038085169392169160008051602061190183398151915291a3600080546001600160a01b0319166001600160a01b0392909216919091179055565b6001546001600160a01b031681565b3390565b60035460405163a415bcad60e01b81526001600160a01b039091169063a415bcad90610a08907f0000000000000000000000000000000000000000000000000000000000000000908790879060009033906004016115fd565b600060405180830381600087803b158015610a2257600080fd5b505af1158015610a36573d6000803e3d6000fd5b5050604051632e1a7d4d60e01b81526001600160a01b037f0000000000000000000000000000000000000000000000000000000000000000169250632e1a7d4d9150610a86908690600401611816565b600060405180830381600087803b158015610aa057600080fd5b505af1158015610ab4573d6000803e3d6000fd5b505050506000610ac38461079d565b600554909150610adc906001600160a01b031682610ddd565b610ae68482610be7565b6002549094506001600160a01b0316631114cd2a610b048634610e6a565b843333604051602001610b1791906115b5565b60408051601f1981840301815291905289610b3860646106d7836063610d45565b6040518763ffffffff1660e01b8152600401610b589594939291906116fb565b6000604051808303818588803b158015610b7157600080fd5b505af1158015610b85573d6000803e3d6000fd5b505050505050505050565b604080516001600160a01b038416602482015260448082018490528251808303909101815260649091019091526020810180516001600160e01b031663a9059cbb60e01b179052610be2908490610ec2565b505050565b6000610c2983836040518060400160405280601e81526020017f536166654d6174683a207375627472616374696f6e206f766572666c6f770000815250611079565b90505b92915050565b801580610cb8575060408051636eb1769f60e11b81523060048201526001600160a01b03848116602483015291519185169163dd62ed3e91604480820192602092909190829003018186803b158015610c8a57600080fd5b505afa158015610c9e573d6000803e3d6000fd5b505050506040513d6020811015610cb457600080fd5b5051155b610cf35760405162461bcd60e51b815260040180806020018281038252603681526020018061194b6036913960400191505060405180910390fd5b604080516001600160a01b038416602482015260448082018490528251808303909101815260649091019091526020810180516001600160e01b031663095ea7b360e01b179052610be2908490610ec2565b600082610d5457506000610c2c565b82820282848281610d6157fe5b0414610c295760405162461bcd60e51b81526004018080602001828103825260218152602001806118c06021913960400191505060405180910390fd5b6000610c2983836040518060400160405280601a815260200179536166654d6174683a206469766973696f6e206279207a65726f60301b815250611110565b604080516000808252602082019092526001600160a01b038416908390604051610e0791906115cd565b60006040518083038185875af1925050503d8060008114610e44576040519150601f19603f3d011682016040523d82523d6000602084013e610e49565b606091505b5050905080610be25760405162461bcd60e51b81526004016103c3906116a7565b600082820183811015610c29576040805162461bcd60e51b815260206004820152601b60248201527a536166654d6174683a206164646974696f6e206f766572666c6f7760281b604482015290519081900360640190fd5b610ed4826001600160a01b0316611175565b610f25576040805162461bcd60e51b815260206004820152601f60248201527f5361666545524332303a2063616c6c20746f206e6f6e2d636f6e747261637400604482015290519081900360640190fd5b600080836001600160a01b0316836040518082805190602001908083835b60208310610f625780518252601f199092019160209182019101610f43565b6001836020036101000a0380198251168184511680821785525050505050509050019150506000604051808303816000865af19150503d8060008114610fc4576040519150601f19603f3d011682016040523d82523d6000602084013e610fc9565b606091505b509150915081611020576040805162461bcd60e51b815260206004820181905260248201527f5361666545524332303a206c6f772d6c6576656c2063616c6c206661696c6564604482015290519081900360640190fd5b8051156107975780806020019051602081101561103c57600080fd5b50516107975760405162461bcd60e51b815260040180806020018281038252602a815260200180611921602a913960400191505060405180910390fd5b600081848411156111085760405162461bcd60e51b81526004018080602001828103825283818151815260200191508051906020019080838360005b838110156110cd5781810151838201526020016110b5565b50505050905090810190601f1680156110fa5780820380516001836020036101000a031916815260200191505b509250505060405180910390fd5b505050900390565b6000818361115f5760405162461bcd60e51b81526020600482018181528351602484015283519092839260449091019190850190808383600083156110cd5781810151838201526020016110b5565b50600083858161116b57fe5b0495945050505050565b6000813f7fc5d2460186f7233c927e7db2dcc703c0e500b653ca82273b7bfad8045d85a4708181148015906111a957508115155b949350505050565b80356001600160a01b03811681146107bf57600080fd5b600082601f8301126111d8578081fd5b813560206111ed6111e883611850565b61182d565b8281528181019085830183850287018401881015611209578586fd5b855b858110156112275781358452928401929084019060010161120b565b5090979650505050505050565b60008083601f840112611245578182fd5b5081356001600160401b0381111561125b578182fd5b60208301915083602082850101111561127357600080fd5b9250929050565b803561ffff811681146107bf57600080fd5b60006020828403121561129d578081fd5b610c29826111b1565b600080600080608085870312156112bb578283fd5b6112c4856111b1565b935060208501359250604085013591506112e06060860161127a565b905092959194509250565b600080604083850312156112fd578182fd5b82356001600160401b0380821115611313578384fd5b818501915085601f830112611326578384fd5b813560206113366111e883611850565b82815281810190858301838502870184018b1015611352578889fd5b8896505b8487101561137b57611367816111b1565b835260019690960195918301918301611356565b5096505086013592505080821115611391578283fd5b5061139e858286016111c8565b9150509250929050565b600080600080600080600060a0888a0312156113c2578283fd5b6113cb8861127a565b965060208089013560ff811681146113e1578485fd5b965060408901356001600160401b03808211156113fc578586fd5b6114088c838d01611234565b909850965060608b0135915080821115611420578586fd5b61142c8c838d01611234565b909650945060808b0135915080821115611444578384fd5b908a01906060828d031215611457578384fd5b60405160608101818110838211171561146c57fe5b60409081528335825284840135858301528301358281111561148c578586fd5b8084019350508c601f8401126114a0578485fd5b8235828111156114ac57fe5b6114be601f8201601f1916860161182d565b92508083528d858286010111156114d3578586fd5b8085850186850137820190930193909352506040810191909152959894975092955090939092565b60006020828403121561150c578081fd5b5035919050565b60008060408385031215611525578182fd5b505080516020909101519092909150565b60008284528282602086013780602084860101526020601f19601f85011685010190509392505050565b6000815180845261157881602086016020860161186d565b601f01601f19169290920160200192915050565b600081518352602082015160208401526040820151606060408501526111a96060850182611560565b60609190911b6001600160601b031916815260140190565b600082516115df81846020870161186d565b9190910192915050565b6001600160a01b0391909116815260200190565b6001600160a01b0395861681526020810194909452604084019290925261ffff166060830152909116608082015260a00190565b604080825283519082018190526000906020906060840190828701845b828110156116735781516001600160a01b03168452928401929084019060010161164e565b50505083810382850152845180825285830191830190845b818110156112275783518352928401929184019160010161168b565b60208082526013908201527211551217d514905394d1915497d19052531151606a1b604082015260600190565b6020808252600d908201526c496e76616c696420726174696f60981b604082015260600190565b61ffff861681526001600160a01b038516602082015260a06040820181905260009061172990830186611560565b606083019490945250608001529392505050565b600061012061ffff8c1683528a602084015289604084015260018060a01b03891660608401528760808401528660a08401528060c08401526117818184018761158c565b905082810360e08401526117958186611560565b90508281036101008401526117aa8185611560565b9c9b505050505050505050505050565b600061ffff8916825260ff8816602083015260a060408301526117e160a083018789611536565b82810360608401526117f4818688611536565b90508281036080840152611808818561158c565b9a9950505050505050505050565b90815260200190565b918252602082015260400190565b6040518181016001600160401b038111828210171561184857fe5b604052919050565b60006001600160401b0382111561186357fe5b5060209081020190565b60005b83811015611888578181015183820152602001611870565b83811115610797575050600091015256fe4f776e61626c653a206e6577206f776e657220697320746865207a65726f2061646472657373536166654d6174683a206d756c7469706c69636174696f6e206f766572666c6f774f776e61626c653a2063616c6c6572206973206e6f7420746865206f776e65728be0079c531659141344cd1fd0a4f28419497f9722a3daafe3b4186f6b6457e05361666545524332303a204552433230206f7065726174696f6e20646964206e6f7420737563636565645361666545524332303a20617070726f76652066726f6d206e6f6e2d7a65726f20746f206e6f6e2d7a65726f20616c6c6f77616e6365a2646970667358221220e613b82fc9d1198aed4f107a0ef1e79f06ddc64054a293c978415e8b9a711e7564736f6c63430007060033",
  "devdoc": {
    "author": "Radiant",
    "details": "All function calls are currently implemented without side effects",
    "kind": "dev",
    "methods": {
      "borrow(address,uint256,uint256,uint16)": {
        "details": "Loop the deposit and borrow of an asset",
        "params": {
          "amount": "for the initial deposit",
          "asset": "for loop",
          "dstChainId": "Destination chain id*",
          "interestRateMode": "stable or variable borrow mode"
        }
      },
      "constructor": {
        "params": {
          "_lendingPool": "Lending pool",
          "_router": "Stargate Router address",
          "_routerETH": "Stargate Router for ETH",
          "_treasury": "Treasury address",
          "_weth": "WETH address",
          "_xChainBorrowFeePercent": "Cross chain borrow fee ratio"
        }
      },
      "getXChainBorrowFeeAmount(uint256)": {
        "params": {
          "amount": "Fee cost."
        }
      },
      "owner()": {
        "details": "Returns the address of the current owner."
      },
      "quoteLayerZeroSwapFee(uint16,uint8,bytes,bytes,(uint256,uint256,bytes))": {
        "details": "Call Router.sol method to get the value for swap()"
      },
      "renounceOwnership()": {
        "details": "Leaves the contract without owner. It will not be possible to call `onlyOwner` functions anymore. Can only be called by the current owner. NOTE: Renouncing ownership will leave the contract without an owner, thereby removing any functionality that is only available to the owner."
      },
      "setDAOTreasury(address)": {
        "params": {
          "_daoTreasury": "DAO Treasury address."
        }
      },
      "setPoolIDs(address[],uint256[])": {
        "params": {
          "assets": "array.",
          "poolIDs": "array."
        }
      },
      "setXChainBorrowFeePercent(uint256)": {
        "params": {
          "percent": "Fee ratio."
        }
      },
      "transferOwnership(address)": {
        "details": "Transfers ownership of the contract to a new account (`newOwner`). Can only be called by the current owner."
      }
    },
    "title": "Borrow gate via stargate",
    "version": 1
  },
  "userdoc": {
    "events": {
      "DAOTreasuryUpdated(address)": {
        "notice": "Emitted when DAO address is updated"
      },
      "PoolIDsUpdated(address[],uint256[])": {
        "notice": "Emited when pool ids of assets are updated"
      },
      "XChainBorrowFeePercentUpdated(uint256)": {
        "notice": "Emitted when fee info is updated"
      }
    },
    "kind": "user",
    "methods": {
      "FEE_PERCENT_DIVISOR()": {
        "notice": "FEE ratio DIVISOR"
      },
      "constructor": {
        "notice": "Constructor"
      },
      "daoTreasury()": {
        "notice": "DAO wallet"
      },
      "getXChainBorrowFeeAmount(uint256)": {
        "notice": "Get Cross Chain Borrow Fee amount."
      },
      "lendingPool()": {
        "notice": "Lending Pool address"
      },
      "poolIdPerChain(address)": {
        "notice": "asset => poolId; at the moment, pool IDs for USDC and USDT are the same accross all chains"
      },
      "quoteLayerZeroSwapFee(uint16,uint8,bytes,bytes,(uint256,uint256,bytes))": {
        "notice": "Quote LZ swap fee"
      },
      "router()": {
        "notice": "Stargate Router"
      },
      "routerETH()": {
        "notice": "Stargate Router ETH"
      },
      "setDAOTreasury(address)": {
        "notice": "Set DAO Treasury."
      },
      "setPoolIDs(address[],uint256[])": {
        "notice": "Set pool ids of assets."
      },
      "setXChainBorrowFeePercent(uint256)": {
        "notice": "Set Cross Chain Borrow Fee Percent."
      },
      "xChainBorrowFeePercent()": {
        "notice": "Cross chain borrow fee ratio"
      }
    },
    "version": 1
  },
  "storageLayout": {
    "storage": [
      {
        "astId": 5437,
        "contract": "contracts/stargate/StargateBorrow.sol:StargateBorrow",
        "label": "_owner",
        "offset": 0,
        "slot": "0",
        "type": "t_address"
      },
      {
        "astId": 46749,
        "contract": "contracts/stargate/StargateBorrow.sol:StargateBorrow",
        "label": "router",
        "offset": 0,
        "slot": "1",
        "type": "t_contract(IStargateRouter)13267"
      },
      {
        "astId": 46752,
        "contract": "contracts/stargate/StargateBorrow.sol:StargateBorrow",
        "label": "routerETH",
        "offset": 0,
        "slot": "2",
        "type": "t_contract(IRouterETH)12996"
      },
      {
        "astId": 46755,
        "contract": "contracts/stargate/StargateBorrow.sol:StargateBorrow",
        "label": "lendingPool",
        "offset": 0,
        "slot": "3",
        "type": "t_contract(ILendingPool)11754"
      },
      {
        "astId": 46762,
        "contract": "contracts/stargate/StargateBorrow.sol:StargateBorrow",
        "label": "poolIdPerChain",
        "offset": 0,
        "slot": "4",
        "type": "t_mapping(t_address,t_uint256)"
      },
      {
        "astId": 46765,
        "contract": "contracts/stargate/StargateBorrow.sol:StargateBorrow",
        "label": "daoTreasury",
        "offset": 0,
        "slot": "5",
        "type": "t_address"
      },
      {
        "astId": 46769,
        "contract": "contracts/stargate/StargateBorrow.sol:StargateBorrow",
        "label": "xChainBorrowFeePercent",
        "offset": 0,
        "slot": "6",
        "type": "t_uint256"
      }
    ],
    "types": {
      "t_address": {
        "encoding": "inplace",
        "label": "address",
        "numberOfBytes": "20"
      },
      "t_contract(ILendingPool)11754": {
        "encoding": "inplace",
        "label": "contract ILendingPool",
        "numberOfBytes": "20"
      },
      "t_contract(IRouterETH)12996": {
        "encoding": "inplace",
        "label": "contract IRouterETH",
        "numberOfBytes": "20"
      },
      "t_contract(IStargateRouter)13267": {
        "encoding": "inplace",
        "label": "contract IStargateRouter",
        "numberOfBytes": "20"
      },
      "t_mapping(t_address,t_uint256)": {
        "encoding": "mapping",
        "key": "t_address",
        "label": "mapping(address => uint256)",
        "numberOfBytes": "32",
        "value": "t_uint256"
      },
      "t_uint256": {
        "encoding": "inplace",
        "label": "uint256",
        "numberOfBytes": "32"
      }
    }
  }
}