{
  "address": "0x3897C02A57D03cf0d976Be7767802cFd00E82f81",
  "abi": [
    {
      "inputs": [
        {
          "internalType": "contract IChainlinkAggregator",
          "name": "_networkBaseTokenPriceInUsdProxyAggregator",
          "type": "address"
        },
        {
          "internalType": "contract IChainlinkAggregator",
          "name": "_marketReferenceCurrencyPriceInUsdProxyAggregator",
          "type": "address"
        }
      ],
      "stateMutability": "nonpayable",
      "type": "constructor"
    },
    {
      "inputs": [],
      "name": "ETH_CURRENCY_UNIT",
      "outputs": [
        {
          "internalType": "uint256",
          "name": "",
          "type": "uint256"
        }
      ],
      "stateMutability": "view",
      "type": "function"
    },
    {
      "inputs": [],
      "name": "MKRAddress",
      "outputs": [
        {
          "internalType": "address",
          "name": "",
          "type": "address"
        }
      ],
      "stateMutability": "view",
      "type": "function"
    },
    {
      "inputs": [
        {
          "internalType": "bytes32",
          "name": "_bytes32",
          "type": "bytes32"
        }
      ],
      "name": "bytes32ToString",
      "outputs": [
        {
          "internalType": "string",
          "name": "",
          "type": "string"
        }
      ],
      "stateMutability": "pure",
      "type": "function"
    },
    {
      "inputs": [
        {
          "internalType": "contract ILendingPoolAddressesProvider",
          "name": "provider",
          "type": "address"
        }
      ],
      "name": "getReservesData",
      "outputs": [
        {
          "components": [
            {
              "internalType": "address",
              "name": "underlyingAsset",
              "type": "address"
            },
            {
              "internalType": "string",
              "name": "name",
              "type": "string"
            },
            {
              "internalType": "string",
              "name": "symbol",
              "type": "string"
            },
            {
              "internalType": "uint256",
              "name": "decimals",
              "type": "uint256"
            },
            {
              "internalType": "uint256",
              "name": "baseLTVasCollateral",
              "type": "uint256"
            },
            {
              "internalType": "uint256",
              "name": "reserveLiquidationThreshold",
              "type": "uint256"
            },
            {
              "internalType": "uint256",
              "name": "reserveLiquidationBonus",
              "type": "uint256"
            },
            {
              "internalType": "uint256",
              "name": "reserveFactor",
              "type": "uint256"
            },
            {
              "internalType": "bool",
              "name": "usageAsCollateralEnabled",
              "type": "bool"
            },
            {
              "internalType": "bool",
              "name": "borrowingEnabled",
              "type": "bool"
            },
            {
              "internalType": "bool",
              "name": "stableBorrowRateEnabled",
              "type": "bool"
            },
            {
              "internalType": "bool",
              "name": "isActive",
              "type": "bool"
            },
            {
              "internalType": "bool",
              "name": "isFrozen",
              "type": "bool"
            },
            {
              "internalType": "uint128",
              "name": "liquidityIndex",
              "type": "uint128"
            },
            {
              "internalType": "uint128",
              "name": "variableBorrowIndex",
              "type": "uint128"
            },
            {
              "internalType": "uint128",
              "name": "liquidityRate",
              "type": "uint128"
            },
            {
              "internalType": "uint128",
              "name": "variableBorrowRate",
              "type": "uint128"
            },
            {
              "internalType": "uint128",
              "name": "stableBorrowRate",
              "type": "uint128"
            },
            {
              "internalType": "uint40",
              "name": "lastUpdateTimestamp",
              "type": "uint40"
            },
            {
              "internalType": "address",
              "name": "aTokenAddress",
              "type": "address"
            },
            {
              "internalType": "address",
              "name": "stableDebtTokenAddress",
              "type": "address"
            },
            {
              "internalType": "address",
              "name": "variableDebtTokenAddress",
              "type": "address"
            },
            {
              "internalType": "address",
              "name": "interestRateStrategyAddress",
              "type": "address"
            },
            {
              "internalType": "uint256",
              "name": "availableLiquidity",
              "type": "uint256"
            },
            {
              "internalType": "uint256",
              "name": "totalPrincipalStableDebt",
              "type": "uint256"
            },
            {
              "internalType": "uint256",
              "name": "averageStableRate",
              "type": "uint256"
            },
            {
              "internalType": "uint256",
              "name": "stableDebtLastUpdateTimestamp",
              "type": "uint256"
            },
            {
              "internalType": "uint256",
              "name": "totalScaledVariableDebt",
              "type": "uint256"
            },
            {
              "internalType": "uint256",
              "name": "priceInMarketReferenceCurrency",
              "type": "uint256"
            },
            {
              "internalType": "uint256",
              "name": "variableRateSlope1",
              "type": "uint256"
            },
            {
              "internalType": "uint256",
              "name": "variableRateSlope2",
              "type": "uint256"
            },
            {
              "internalType": "uint256",
              "name": "stableRateSlope1",
              "type": "uint256"
            },
            {
              "internalType": "uint256",
              "name": "stableRateSlope2",
              "type": "uint256"
            },
            {
              "internalType": "bool",
              "name": "isPaused",
              "type": "bool"
            },
            {
              "internalType": "uint128",
              "name": "accruedToTreasury",
              "type": "uint128"
            },
            {
              "internalType": "uint128",
              "name": "unbacked",
              "type": "uint128"
            },
            {
              "internalType": "uint128",
              "name": "isolationModeTotalDebt",
              "type": "uint128"
            },
            {
              "internalType": "uint256",
              "name": "debtCeiling",
              "type": "uint256"
            },
            {
              "internalType": "uint256",
              "name": "debtCeilingDecimals",
              "type": "uint256"
            },
            {
              "internalType": "uint8",
              "name": "eModeCategoryId",
              "type": "uint8"
            },
            {
              "internalType": "uint256",
              "name": "borrowCap",
              "type": "uint256"
            },
            {
              "internalType": "uint256",
              "name": "supplyCap",
              "type": "uint256"
            },
            {
              "internalType": "uint16",
              "name": "eModeLtv",
              "type": "uint16"
            },
            {
              "internalType": "uint16",
              "name": "eModeLiquidationThreshold",
              "type": "uint16"
            },
            {
              "internalType": "uint16",
              "name": "eModeLiquidationBonus",
              "type": "uint16"
            },
            {
              "internalType": "address",
              "name": "eModePriceSource",
              "type": "address"
            },
            {
              "internalType": "string",
              "name": "eModeLabel",
              "type": "string"
            },
            {
              "internalType": "bool",
              "name": "borrowableInIsolation",
              "type": "bool"
            }
          ],
          "internalType": "struct IUiPoolDataProviderV3.AggregatedReserveData[]",
          "name": "",
          "type": "tuple[]"
        },
        {
          "components": [
            {
              "internalType": "uint256",
              "name": "marketReferenceCurrencyUnit",
              "type": "uint256"
            },
            {
              "internalType": "int256",
              "name": "marketReferenceCurrencyPriceInUsd",
              "type": "int256"
            },
            {
              "internalType": "int256",
              "name": "networkBaseTokenPriceInUsd",
              "type": "int256"
            },
            {
              "internalType": "uint8",
              "name": "networkBaseTokenPriceDecimals",
              "type": "uint8"
            }
          ],
          "internalType": "struct IUiPoolDataProviderV3.BaseCurrencyInfo",
          "name": "",
          "type": "tuple"
        }
      ],
      "stateMutability": "view",
      "type": "function"
    },
    {
      "inputs": [
        {
          "internalType": "contract ILendingPoolAddressesProvider",
          "name": "provider",
          "type": "address"
        }
      ],
      "name": "getReservesList",
      "outputs": [
        {
          "internalType": "address[]",
          "name": "",
          "type": "address[]"
        }
      ],
      "stateMutability": "view",
      "type": "function"
    },
    {
      "inputs": [
        {
          "internalType": "contract ILendingPoolAddressesProvider",
          "name": "provider",
          "type": "address"
        },
        {
          "internalType": "address",
          "name": "user",
          "type": "address"
        }
      ],
      "name": "getUserReservesData",
      "outputs": [
        {
          "components": [
            {
              "internalType": "address",
              "name": "underlyingAsset",
              "type": "address"
            },
            {
              "internalType": "uint256",
              "name": "scaledATokenBalance",
              "type": "uint256"
            },
            {
              "internalType": "bool",
              "name": "usageAsCollateralEnabledOnUser",
              "type": "bool"
            },
            {
              "internalType": "uint256",
              "name": "stableBorrowRate",
              "type": "uint256"
            },
            {
              "internalType": "uint256",
              "name": "scaledVariableDebt",
              "type": "uint256"
            },
            {
              "internalType": "uint256",
              "name": "principalStableDebt",
              "type": "uint256"
            },
            {
              "internalType": "uint256",
              "name": "stableBorrowLastUpdateTimestamp",
              "type": "uint256"
            }
          ],
          "internalType": "struct IUiPoolDataProviderV3.UserReserveData[]",
          "name": "",
          "type": "tuple[]"
        },
        {
          "internalType": "uint8",
          "name": "",
          "type": "uint8"
        }
      ],
      "stateMutability": "view",
      "type": "function"
    },
    {
      "inputs": [],
      "name": "marketReferenceCurrencyPriceInUsdProxyAggregator",
      "outputs": [
        {
          "internalType": "contract IChainlinkAggregator",
          "name": "",
          "type": "address"
        }
      ],
      "stateMutability": "view",
      "type": "function"
    },
    {
      "inputs": [],
      "name": "networkBaseTokenPriceInUsdProxyAggregator",
      "outputs": [
        {
          "internalType": "contract IChainlinkAggregator",
          "name": "",
          "type": "address"
        }
      ],
      "stateMutability": "view",
      "type": "function"
    }
  ],
  "transactionHash": "0x8159c6317d34a00cf5a076b833a36ff956f4877e6243225cf90daa992096289f",
  "args": [
    "0xa130A3F2Fb38d2f01B07AD77967B857ceE8654cf",
    "0xa130A3F2Fb38d2f01B07AD77967B857ceE8654cf"
  ],
  "numDeployments": 1,
  "solcInputHash": "78995fe69be866012cdea8ea4c4842de",
  "bytecode": "0x60c06040523480156200001157600080fd5b506040516200244c3803806200244c833981016040819052620000349162000070565b6001600160601b0319606092831b8116608052911b1660a052620000a7565b80516001600160a01b03811681146200006b57600080fd5b919050565b6000806040838503121562000083578182fd5b6200008e8362000053565b91506200009e6020840162000053565b90509250929050565b60805160601c60a05160601c612367620000e5600039806109ba52806112d2528061139052508061015052806110e9528061118352506123676000f3fe608060405234801561001057600080fd5b50600436106100785760003560e01c80630496f53a1461007d5780633c1740ed1461009b57806351974cc0146100b0578063586c1442146100d15780639201de55146100f15780639dd9e2ce14610111578063d22cf68a14610119578063ec489c2114610121575b600080fd5b610085610142565b60405161009291906122bd565b60405180910390f35b6100a361014e565b6040516100929190611e18565b6100c36100be366004611b4b565b610172565b604051610092929190612219565b6100e46100df366004611b2f565b6107a6565b6040516100929190611e2c565b6101046100ff366004611aff565b61089b565b60405161009291906122aa565b6100a36109a0565b6100a36109b8565b61013461012f366004611b2f565b6109dc565b604051610092929190611e79565b670de0b6b3a764000081565b7f000000000000000000000000000000000000000000000000000000000000000081565b6060600080846001600160a01b0316630261bf8b6040518163ffffffff1660e01b815260040160206040518083038186803b1580156101b057600080fd5b505afa1580156101c4573d6000803e3d6000fd5b505050506040513d601f19601f820116820180604052508101906101e89190611a30565b90506000816001600160a01b031663d1946dbc6040518163ffffffff1660e01b815260040160006040518083038186803b15801561022557600080fd5b505afa158015610239573d6000803e3d6000fd5b505050506040513d6000823e601f3d908101601f191682016040526102619190810190611a53565b90506000826001600160a01b0316634417a583876040518263ffffffff1660e01b81526004016102919190611e18565b60206040518083038186803b1580156102a957600080fd5b505afa1580156102bd573d6000803e3d6000fd5b505050506040513d601f19601f820116820180604052508101906102e19190611cfc565b905060006001600160a01b0387166102fa5760006102fd565b82515b6001600160401b038111801561031257600080fd5b5060405190808252806020026020018201604052801561034c57816020015b6103396117b5565b8152602001906001900390816103315790505b50905060005b8351811015610797576000856001600160a01b03166335ea6a7586848151811061037857fe5b60200260200101516040518263ffffffff1660e01b815260040161039c9190611e18565b6101806040518083038186803b1580156103b557600080fd5b505afa1580156103c9573d6000803e3d6000fd5b505050506040513d601f19601f820116820180604052508101906103ed9190611c0c565b90508482815181106103fb57fe5b602002602001015183838151811061040f57fe5b60209081029190910101516001600160a01b03918216905260e0820151604051630ed1279f60e11b8152911690631da24f3e90610450908c90600401611e18565b60206040518083038186803b15801561046857600080fd5b505afa15801561047c573d6000803e3d6000fd5b505050506040513d601f19601f820116820180604052508101906104a09190611b17565b8383815181106104ac57fe5b60209081029190910181015101526104c48483611443565b8383815181106104d057fe5b60209081029190910101519015156040909101526104ee8483611506565b1561078e578061012001516001600160a01b0316631da24f3e8a6040518263ffffffff1660e01b81526004016105249190611e18565b60206040518083038186803b15801561053c57600080fd5b505afa158015610550573d6000803e3d6000fd5b505050506040513d601f19601f820116820180604052508101906105749190611b17565b83838151811061058057fe5b602002602001015160800181815250508061010001516001600160a01b031663c634dfaa8a6040518263ffffffff1660e01b81526004016105c19190611e18565b60206040518083038186803b1580156105d957600080fd5b505afa1580156105ed573d6000803e3d6000fd5b505050506040513d601f19601f820116820180604052508101906106119190611b17565b83838151811061061d57fe5b602002602001015160a001818152505082828151811061063957fe5b602002602001015160a0015160001461078e578061010001516001600160a01b031663e78c9b3b8a6040518263ffffffff1660e01b815260040161067d9190611e18565b60206040518083038186803b15801561069557600080fd5b505afa1580156106a9573d6000803e3d6000fd5b505050506040513d601f19601f820116820180604052508101906106cd9190611b17565b8383815181106106d957fe5b602002602001015160600181815250508061010001516001600160a01b03166379ce6b8c8a6040518263ffffffff1660e01b815260040161071a9190611e18565b60206040518083038186803b15801561073257600080fd5b505afa158015610746573d6000803e3d6000fd5b505050506040513d601f19601f8201168201806040525081019061076a9190611d55565b64ffffffffff1683838151811061077d57fe5b602002602001015160c00181815250505b50600101610352565b50976000975095505050505050565b60606000826001600160a01b0316630261bf8b6040518163ffffffff1660e01b815260040160206040518083038186803b1580156107e357600080fd5b505afa1580156107f7573d6000803e3d6000fd5b505050506040513d601f19601f8201168201806040525081019061081b9190611a30565b9050806001600160a01b031663d1946dbc6040518163ffffffff1660e01b815260040160006040518083038186803b15801561085657600080fd5b505afa15801561086a573d6000803e3d6000fd5b505050506040513d6000823e601f3d908101601f191682016040526108929190810190611a53565b9150505b919050565b606060005b60208160ff161080156108ce5750828160ff16602081106108bd57fe5b1a60f81b6001600160f81b03191615155b156108db576001016108a0565b60008160ff166001600160401b03811180156108f657600080fd5b506040519080825280601f01601f191660200182016040528015610921576020820181803683370190505b509050600091505b60208260ff161080156109575750838260ff166020811061094657fe5b1a60f81b6001600160f81b03191615155b1561089257838260ff166020811061096b57fe5b1a60f81b818360ff168151811061097e57fe5b60200101906001600160f81b031916908160001a905350600190910190610929565b739f8f72aa9304c8b593d555f12ef6589cc3a579a281565b7f000000000000000000000000000000000000000000000000000000000000000081565b60606109e66117fd565b6000836001600160a01b031663fca513a86040518163ffffffff1660e01b815260040160206040518083038186803b158015610a2157600080fd5b505afa158015610a35573d6000803e3d6000fd5b505050506040513d601f19601f82011682018060405250810190610a599190611a30565b90506000846001600160a01b0316630261bf8b6040518163ffffffff1660e01b815260040160206040518083038186803b158015610a9657600080fd5b505afa158015610aaa573d6000803e3d6000fd5b505050506040513d601f19601f82011682018060405250810190610ace9190611a30565b90506000816001600160a01b031663d1946dbc6040518163ffffffff1660e01b815260040160006040518083038186803b158015610b0b57600080fd5b505afa158015610b1f573d6000803e3d6000fd5b505050506040513d6000823e601f3d908101601f19168201604052610b479190810190611a53565b9050600081516001600160401b0381118015610b6257600080fd5b50604051908082528060200260200182016040528015610b9c57816020015b610b89611828565b815260200190600190039081610b815790505b50905060005b82518110156110de576000828281518110610bb957fe5b60200260200101519050838281518110610bcf57fe5b60209081029190910101516001600160a01b039081168083526040516335ea6a7560e01b81526000928816916335ea6a7591610c0e9190600401611e18565b6101806040518083038186803b158015610c2757600080fd5b505afa158015610c3b573d6000803e3d6000fd5b505050506040513d601f19601f82011682018060405250810190610c5f9190611c0c565b60208101516001600160801b039081166101a085015260408083015182166101c0860152606083015182166101e08601526080830151821661020086015260a083015190911661022085015260c082015164ffffffffff1661024085015260e08201516001600160a01b03908116610260860152610100830151811661028086015261012083015181166102a086015261014083015181166102c08601528451915163b3596f0760e01b815292935089169163b3596f0791610d2391600401611e18565b60206040518083038186803b158015610d3b57600080fd5b505afa158015610d4f573d6000803e3d6000fd5b505050506040513d601f19601f82011682018060405250810190610d739190611b17565b61038083015281516102608301516040516370a0823160e01b81526001600160a01b03909216916370a0823191610dac91600401611e18565b60206040518083038186803b158015610dc457600080fd5b505afa158015610dd8573d6000803e3d6000fd5b505050506040513d601f19601f82011682018060405250810190610dfc9190611b17565b826102e00181815250508161028001516001600160a01b031663797743386040518163ffffffff1660e01b815260040160806040518083038186803b158015610e4457600080fd5b505afa158015610e58573d6000803e3d6000fd5b505050506040513d601f19601f82011682018060405250810190610e7c9190611d17565b64ffffffffff16610340860152610320850152506103008301526102a08201516040805163b1bf962d60e01b815290516001600160a01b039092169163b1bf962d91600480820192602092909190829003018186803b158015610ede57600080fd5b505afa158015610ef2573d6000803e3d6000fd5b505050506040513d601f19601f82011682018060405250810190610f169190611b17565b61036083015281516001600160a01b0316739f8f72aa9304c8b593d555f12ef6589cc3a579a21415610fcf57600082600001516001600160a01b03166395d89b416040518163ffffffff1660e01b815260040160206040518083038186803b158015610f8157600080fd5b505afa158015610f95573d6000803e3d6000fd5b505050506040513d601f19601f82011682018060405250810190610fb99190611b17565b9050610fc48161089b565b60408401525061104e565b81600001516001600160a01b03166395d89b416040518163ffffffff1660e01b815260040160006040518083038186803b15801561100c57600080fd5b505afa158015611020573d6000803e3d6000fd5b505050506040513d6000823e601f3d908101601f191682016040526110489190810190611b83565b60408301525b805161105990611585565b60e0870152606086015260c085015260a08401526080830152805161107d906115b0565b1515610140860152151561012085015215156101808401521515610160830152608082015115156101008301526102c08201516110b9906115dc565b6104008601526103e08501526103c08401526103a09092019190915250600101610ba2565b506110e76117fd565b7f00000000000000000000000000000000000000000000000000000000000000006001600160a01b03166350d25bcd6040518163ffffffff1660e01b815260040160206040518083038186803b15801561114057600080fd5b505afa158015611154573d6000803e3d6000fd5b505050506040513d601f19601f820116820180604052508101906111789190611b17565b8160400181815250507f00000000000000000000000000000000000000000000000000000000000000006001600160a01b031663313ce5676040518163ffffffff1660e01b815260040160206040518083038186803b1580156111da57600080fd5b505afa1580156111ee573d6000803e3d6000fd5b505050506040513d601f19601f820116820180604052508101906112129190611d6f565b60ff16606082015260408051638c89b64f60e01b815290516001600160a01b03871691638c89b64f916004808301926020929190829003018186803b15801561125a57600080fd5b505afa92505050801561128a575060408051601f3d908101601f1916820190925261128791810190611b17565b60015b61136c573d8080156112b8576040519150601f19603f3d011682016040523d82523d6000602084013e6112bd565b606091505b50670de0b6b3a76400008260000181815250507f00000000000000000000000000000000000000000000000000000000000000006001600160a01b03166350d25bcd6040518163ffffffff1660e01b815260040160206040518083038186803b15801561132957600080fd5b505afa15801561133d573d6000803e3d6000fd5b505050506040513d601f19601f820116820180604052508101906113619190611b17565b602083015250611436565b80670de0b6b3a7640000141561142957670de0b6b3a76400008260000181815250507f00000000000000000000000000000000000000000000000000000000000000006001600160a01b03166350d25bcd6040518163ffffffff1660e01b815260040160206040518083038186803b1580156113e757600080fd5b505afa1580156113fb573d6000803e3d6000fd5b505050506040513d601f19601f8201168201806040525081019061141f9190611b17565b6020830152611434565b808252602082018190525b505b9095509350505050915091565b60006080821060405180604001604052806002815260200161373760f01b815250906114ed5760405162461bcd60e51b81526004018080602001828103825283818151815260200191508051906020019080838360005b838110156114b257818101518382015260200161149a565b50505050905090810190601f1680156114df5780820380516001836020036101000a031916815260200191505b509250505060405180910390fd5b5050815160016002830281019190911c16151592915050565b60006080821060405180604001604052806002815260200161373760f01b815250906115735760405162461bcd60e51b81526020600482018181528351602484015283519092839260449091019190850190808383600083156114b257818101518382015260200161149a565b50509051600160029092021c16151590565b5161ffff80821692601083901c821692602081901c831692603082901c60ff169260409290921c1690565b51600160381b8116151591600160391b82161515916001603a1b81161515916001603b1b909116151590565b600080600080846001600160a01b0316637b832f586040518163ffffffff1660e01b815260040160206040518083038186803b15801561161b57600080fd5b505afa15801561162f573d6000803e3d6000fd5b505050506040513d601f19601f820116820180604052508101906116539190611b17565b856001600160a01b03166365614f816040518163ffffffff1660e01b815260040160206040518083038186803b15801561168c57600080fd5b505afa1580156116a0573d6000803e3d6000fd5b505050506040513d601f19601f820116820180604052508101906116c49190611b17565b866001600160a01b0316630bdf953f6040518163ffffffff1660e01b815260040160206040518083038186803b1580156116fd57600080fd5b505afa158015611711573d6000803e3d6000fd5b505050506040513d601f19601f820116820180604052508101906117359190611b17565b876001600160a01b031663ccab01a36040518163ffffffff1660e01b815260040160206040518083038186803b15801561176e57600080fd5b505afa158015611782573d6000803e3d6000fd5b505050506040513d601f19601f820116820180604052508101906117a69190611b17565b93509350935093509193509193565b6040518060e0016040528060006001600160a01b0316815260200160008152602001600015158152602001600081526020016000815260200160008152602001600081525090565b6040518060800160405280600081526020016000815260200160008152602001600060ff1681525090565b604080516106008101825260008082526060602083018190529282018390528282018190526080820181905260a0820181905260c0820181905260e08201819052610100820181905261012082018190526101408201819052610160820181905261018082018190526101a082018190526101c082018190526101e08201819052610200820181905261022082018190526102408201819052610260820181905261028082018190526102a082018190526102c082018190526102e08201819052610300820181905261032082018190526103408201819052610360820181905261038082018190526103a082018190526103c082018190526103e08201819052610400820181905261042082018190526104408201819052610460820181905261048082018190526104a082018190526104c082018190526104e08201819052610500820181905261052082018190526105408201819052610560820181905261058082018190526105a082018190526105c08201929092526105e081019190915290565b805161089681612319565b6000602082840312156119ca578081fd5b604051602081016001600160401b03811182821017156119e657fe5b6040529151825250919050565b80516001600160801b038116811461089657600080fd5b805164ffffffffff8116811461089657600080fd5b805160ff8116811461089657600080fd5b600060208284031215611a41578081fd5b8151611a4c81612319565b9392505050565b60006020808385031215611a65578182fd5b82516001600160401b0380821115611a7b578384fd5b818501915085601f830112611a8e578384fd5b815181811115611a9a57fe5b8381029150611aaa8483016122c6565b8181528481019084860184860187018a1015611ac4578788fd5b8795505b83861015611af25780519450611add85612319565b84835260019590950194918601918601611ac8565b5098975050505050505050565b600060208284031215611b10578081fd5b5035919050565b600060208284031215611b28578081fd5b5051919050565b600060208284031215611b40578081fd5b8135611a4c81612319565b60008060408385031215611b5d578081fd5b8235611b6881612319565b91506020830135611b7881612319565b809150509250929050565b600060208284031215611b94578081fd5b81516001600160401b0380821115611baa578283fd5b818401915084601f830112611bbd578283fd5b815181811115611bc957fe5b611bdc601f8201601f19166020016122c6565b9150808252856020828501011115611bf2578384fd5b611c038160208401602086016122e9565b50949350505050565b6000610180808385031215611c1f578182fd5b611c28816122c6565b9050611c3484846119b9565b8152611c42602084016119f3565b6020820152611c53604084016119f3565b6040820152611c64606084016119f3565b6060820152611c75608084016119f3565b6080820152611c8660a084016119f3565b60a0820152611c9760c08401611a0a565b60c0820152611ca860e084016119ae565b60e0820152610100611cbb8185016119ae565b90820152610120611ccd8482016119ae565b90820152610140611cdf8482016119ae565b90820152610160611cf1848201611a1f565b908201529392505050565b600060208284031215611d0d578081fd5b611a4c83836119b9565b60008060008060808587031215611d2c578182fd5b845193506020850151925060408501519150611d4a60608601611a0a565b905092959194509250565b600060208284031215611d66578081fd5b611a4c82611a0a565b600060208284031215611d80578081fd5b611a4c82611a1f565b6001600160a01b03169052565b15159052565b60008151808452611db48160208601602086016122e9565b601f01601f19169290920160200192915050565b80518252602081015160208301526040810151604083015260ff60608201511660608301525050565b6001600160801b03169052565b61ffff169052565b64ffffffffff169052565b60ff169052565b6001600160a01b0391909116815260200190565b6020808252825182820181905260009190848201906040850190845b81811015611e6d5783516001600160a01b031683529284019291840191600101611e48565b50909695505050505050565b60a080825283518282018190526000919060c09081850190602080820287018401818a01875b848110156121fb5760bf198a84030186528151610600611ec0858351611d89565b858201518187870152611ed582870182611d9c565b91505060408083015186830382880152611eef8382611d9c565b9250505060608083015181870152506080808301518187015250898201518a860152888201518986015260e080830151818701525061010080830151611f3782880182611d96565b505061012080830151611f4c82880182611d96565b505061014080830151611f6182880182611d96565b505061016080830151611f7682880182611d96565b505061018080830151611f8b82880182611d96565b50506101a080830151611fa082880182611df1565b50506101c080830151611fb582880182611df1565b50506101e080830151611fca82880182611df1565b505061020080830151611fdf82880182611df1565b505061022080830151611ff482880182611df1565b50506102408083015161200982880182611e06565b50506102608083015161201e82880182611d89565b50506102808083015161203382880182611d89565b50506102a08083015161204882880182611d89565b50506102c08083015161205d82880182611d89565b50506102e08281015190860152610300808301519086015261032080830151908601526103408083015190860152610360808301519086015261038080830151908601526103a080830151908601526103c080830151908601526103e080830151908601526104008083015190860152610420808301516120e082880182611d96565b5050610440808301516120f582880182611df1565b50506104608083015161210a82880182611df1565b50506104808083015161211f82880182611df1565b50506104a082810151908601526104c080830151908601526104e08083015161214a82880182611e11565b5050610500828101519086015261052080830151908601526105408083015161217582880182611dfe565b50506105608083015161218a82880182611dfe565b50506105808083015161219f82880182611dfe565b50506105a0808301516121b482880182611d89565b50506105c080830151868303828801526121ce8382611d9c565b925050506105e08083015192506121e781870184611d96565b509685019693505090830190600101611e9f565b50508096505061220d81880189611dc8565b50505050509392505050565b6040808252835182820181905260009190606090818501906020808901865b8381101561229957815180516001600160a01b0316865283810151848701528781015115158887015286810151878701526080808201519087015260a0808201519087015260c0908101519086015260e09094019390820190600101612238565b505082955061220d81880189611e11565b600060208252611a4c6020830184611d9c565b90815260200190565b6040518181016001600160401b03811182821017156122e157fe5b604052919050565b60005b838110156123045781810151838201526020016122ec565b83811115612313576000848401525b50505050565b6001600160a01b038116811461232e57600080fd5b5056fea26469706673582212205aa6052a70db34012f361d28b188563b72f48314178baeaefe4e65cd212616f264736f6c63430007060033",
  "devdoc": {
    "kind": "dev",
    "methods": {},
    "version": 1
  },
  "userdoc": {
    "kind": "user",
    "methods": {},
    "version": 1
  },
  "storageLayout": {
    "storage": [],
    "types": null
  }
}