{
  "address": "0x2D19a79A0B6B44aC527F198d530A5f14D279474a",
  "abi": [
    {
      "anonymous": false,
      "inputs": [
        {
          "indexed": true,
          "internalType": "address",
          "name": "previousOwner",
          "type": "address"
        },
        {
          "indexed": true,
          "internalType": "address",
          "name": "newOwner",
          "type": "address"
        }
      ],
      "name": "OwnershipTransferred",
      "type": "event"
    },
    {
      "inputs": [],
      "name": "getLiquidityZap",
      "outputs": [
        {
          "internalType": "address",
          "name": "",
          "type": "address"
        }
      ],
      "stateMutability": "view",
      "type": "function"
    },
    {
      "inputs": [
        {
          "internalType": "uint256",
          "name": "rdntPriceInEth",
          "type": "uint256"
        }
      ],
      "name": "getLpPrice",
      "outputs": [
        {
          "internalType": "uint256",
          "name": "priceInEth",
          "type": "uint256"
        }
      ],
      "stateMutability": "view",
      "type": "function"
    },
    {
      "inputs": [],
      "name": "getReserves",
      "outputs": [
        {
          "internalType": "uint256",
          "name": "rdnt",
          "type": "uint256"
        },
        {
          "internalType": "uint256",
          "name": "weth",
          "type": "uint256"
        },
        {
          "internalType": "uint256",
          "name": "lpTokenSupply",
          "type": "uint256"
        }
      ],
      "stateMutability": "view",
      "type": "function"
    },
    {
      "inputs": [
        {
          "internalType": "address",
          "name": "_rdntAddr",
          "type": "address"
        },
        {
          "internalType": "address",
          "name": "_wethAddr",
          "type": "address"
        },
        {
          "internalType": "address",
          "name": "_routerAddr",
          "type": "address"
        },
        {
          "internalType": "contract ILiquidityZap",
          "name": "_liquidityZap",
          "type": "address"
        }
      ],
      "name": "initialize",
      "outputs": [],
      "stateMutability": "nonpayable",
      "type": "function"
    },
    {
      "inputs": [],
      "name": "initializePool",
      "outputs": [],
      "stateMutability": "nonpayable",
      "type": "function"
    },
    {
      "inputs": [],
      "name": "liquidityZap",
      "outputs": [
        {
          "internalType": "contract ILiquidityZap",
          "name": "",
          "type": "address"
        }
      ],
      "stateMutability": "view",
      "type": "function"
    },
    {
      "inputs": [],
      "name": "lpTokenAddr",
      "outputs": [
        {
          "internalType": "address",
          "name": "",
          "type": "address"
        }
      ],
      "stateMutability": "view",
      "type": "function"
    },
    {
      "inputs": [],
      "name": "owner",
      "outputs": [
        {
          "internalType": "address",
          "name": "",
          "type": "address"
        }
      ],
      "stateMutability": "view",
      "type": "function"
    },
    {
      "inputs": [
        {
          "internalType": "uint256",
          "name": "tokenAmount",
          "type": "uint256"
        }
      ],
      "name": "quoteFromToken",
      "outputs": [
        {
          "internalType": "uint256",
          "name": "optimalWETHAmount",
          "type": "uint256"
        }
      ],
      "stateMutability": "view",
      "type": "function"
    },
    {
      "inputs": [],
      "name": "rdntAddr",
      "outputs": [
        {
          "internalType": "address",
          "name": "",
          "type": "address"
        }
      ],
      "stateMutability": "view",
      "type": "function"
    },
    {
      "inputs": [],
      "name": "renounceOwnership",
      "outputs": [],
      "stateMutability": "nonpayable",
      "type": "function"
    },
    {
      "inputs": [],
      "name": "router",
      "outputs": [
        {
          "internalType": "contract IUniswapV2Router02",
          "name": "",
          "type": "address"
        }
      ],
      "stateMutability": "view",
      "type": "function"
    },
    {
      "inputs": [
        {
          "internalType": "uint256",
          "name": "_amount",
          "type": "uint256"
        }
      ],
      "name": "sell",
      "outputs": [
        {
          "internalType": "uint256",
          "name": "amountOut",
          "type": "uint256"
        }
      ],
      "stateMutability": "nonpayable",
      "type": "function"
    },
    {
      "inputs": [
        {
          "internalType": "address",
          "name": "_liquidityZap",
          "type": "address"
        }
      ],
      "name": "setLiquidityZap",
      "outputs": [],
      "stateMutability": "nonpayable",
      "type": "function"
    },
    {
      "inputs": [
        {
          "internalType": "uint256",
          "name": "_amount",
          "type": "uint256"
        },
        {
          "internalType": "address",
          "name": "",
          "type": "address"
        },
        {
          "internalType": "address",
          "name": "",
          "type": "address"
        },
        {
          "internalType": "address",
          "name": "",
          "type": "address"
        }
      ],
      "name": "swap",
      "outputs": [
        {
          "internalType": "uint256",
          "name": "amountOut",
          "type": "uint256"
        }
      ],
      "stateMutability": "nonpayable",
      "type": "function"
    },
    {
      "inputs": [
        {
          "internalType": "address",
          "name": "newOwner",
          "type": "address"
        }
      ],
      "name": "transferOwnership",
      "outputs": [],
      "stateMutability": "nonpayable",
      "type": "function"
    },
    {
      "inputs": [],
      "name": "wethAddr",
      "outputs": [
        {
          "internalType": "address",
          "name": "",
          "type": "address"
        }
      ],
      "stateMutability": "view",
      "type": "function"
    },
    {
      "inputs": [
        {
          "internalType": "uint256",
          "name": "_wethAmt",
          "type": "uint256"
        },
        {
          "internalType": "uint256",
          "name": "_rdntAmt",
          "type": "uint256"
        }
      ],
      "name": "zapTokens",
      "outputs": [
        {
          "internalType": "uint256",
          "name": "liquidity",
          "type": "uint256"
        }
      ],
      "stateMutability": "nonpayable",
      "type": "function"
    },
    {
      "inputs": [
        {
          "internalType": "uint256",
          "name": "amount",
          "type": "uint256"
        }
      ],
      "name": "zapWETH",
      "outputs": [
        {
          "internalType": "uint256",
          "name": "liquidity",
          "type": "uint256"
        }
      ],
      "stateMutability": "nonpayable",
      "type": "function"
    },
    {
      "stateMutability": "payable",
      "type": "receive"
    }
  ],
  "transactionHash": "0x37a9a3a95357972f995e6411138ad33e816e1696b3ab63569ab07ae920202037",
  "args": [],
  "numDeployments": 1,
  "solcInputHash": "78995fe69be866012cdea8ea4c4842de",
  "bytecode": "0x608060405234801561001057600080fd5b50612780806100206000396000f3fe6080604052600436106100e85760003560e01c80630902f1ac146100f45780631e2ebcaa1461012157806322e2c64614610143578063250e6de014610165578063439e50161461017a578063715018a61461018f578063753983d6146101a45780637d5aa5f4146101d157806388156e65146101e65780638da5cb5b14610206578063914237da1461021b5780639da2401f14610230578063c829bfda14610245578063e28861fa14610265578063e4849b3214610285578063f2fde38b146102a5578063f887ea40146102c5578063f8c8765e146102da578063fd706062146102fa576100ef565b366100ef57005b600080fd5b34801561010057600080fd5b5061010961031a565b60405161011893929190612587565b60405180910390f35b34801561012d57600080fd5b5061013661058f565b6040516101189190612443565b34801561014f57600080fd5b5061016361015e36600461229d565b61059e565b005b34801561017157600080fd5b50610163610622565b34801561018657600080fd5b50610136610b39565b34801561019b57600080fd5b50610163610b48565b3480156101b057600080fd5b506101c46101bf3660046123f5565b610bb6565b604051610118919061251a565b3480156101dd57600080fd5b50610136610d9c565b3480156101f257600080fd5b506101c46102013660046123ce565b610dab565b34801561021257600080fd5b50610136611006565b34801561022757600080fd5b50610136611015565b34801561023c57600080fd5b50610136611024565b34801561025157600080fd5b506101c461026036600461239e565b611033565b34801561027157600080fd5b506101c461028036600461239e565b611204565b34801561029157600080fd5b506101c46102a036600461239e565b611512565b3480156102b157600080fd5b506101636102c036600461229d565b61152a565b3480156102d157600080fd5b506101366115dd565b3480156102e657600080fd5b506101636102f53660046122d5565b6115ec565b34801561030657600080fd5b506101c461031536600461239e565b6116e4565b600080600080609760009054906101000a90046001600160a01b03169050600080826001600160a01b0316630902f1ac6040518163ffffffff1660e01b815260040160606040518083038186803b15801561037457600080fd5b505afa158015610388573d6000803e3d6000fd5b505050506040513d601f19601f820116820180604052508101906103ac9190612350565b506001600160701b031691506001600160701b03169150609860009054906101000a90046001600160a01b03166001600160a01b0316836001600160a01b0316630dfe16816040518163ffffffff1660e01b815260040160206040518083038186803b15801561041b57600080fd5b505afa15801561042f573d6000803e3d6000fd5b505050506040513d601f19601f8201168201806040525081019061045391906122b9565b6001600160a01b03161415610468578061046a565b815b9450609860009054906101000a90046001600160a01b03166001600160a01b0316836001600160a01b0316630dfe16816040518163ffffffff1660e01b815260040160206040518083038186803b1580156104c457600080fd5b505afa1580156104d8573d6000803e3d6000fd5b505050506040513d601f19601f820116820180604052508101906104fc91906122b9565b6001600160a01b0316146105105780610512565b815b9550826001600160a01b03166318160ddd6040518163ffffffff1660e01b815260040160206040518083038186803b15801561054d57600080fd5b505afa158015610561573d6000803e3d6000fd5b505050506040513d601f19601f8201168201806040525081019061058591906123b6565b9350505050909192565b609b546001600160a01b031681565b6105a6611765565b6001600160a01b03166105b7611006565b6001600160a01b031614610600576040805162461bcd60e51b81526020600482018190526024820152600080516020612647833981519152604482015290519081900360640190fd5b609b80546001600160a01b0319166001600160a01b0392909216919091179055565b609a60009054906101000a90046001600160a01b03166001600160a01b031663c45a01556040518163ffffffff1660e01b815260040160206040518083038186803b15801561067057600080fd5b505afa158015610684573d6000803e3d6000fd5b505050506040513d601f19601f820116820180604052508101906106a891906122b9565b6098546099546040516364e329cb60e11b81526001600160a01b039384169363c9c65396936106e0939082169291169060040161247b565b602060405180830381600087803b1580156106fa57600080fd5b505af115801561070e573d6000803e3d6000fd5b505050506040513d601f19601f8201168201806040525081019061073291906122b9565b609780546001600160a01b0319166001600160a01b03928316179055609854609a549082169161076791839116600019611769565b609b54610783906001600160a01b038381169116600019611769565b609954609b5460405163095ea7b360e01b81526001600160a01b039283169263095ea7b3926107bb9291169060001990600401612501565b602060405180830381600087803b1580156107d557600080fd5b505af11580156107e9573d6000803e3d6000fd5b505050506040513d601f19601f8201168201806040525081019061080d9190612330565b50609954609a5460405163095ea7b360e01b81526001600160a01b039283169263095ea7b3926108469291169060001990600401612501565b602060405180830381600087803b15801561086057600080fd5b505af1158015610874573d6000803e3d6000fd5b505050506040513d601f19601f820116820180604052508101906108989190612330565b50609a546099546040516370a0823160e01b81526001600160a01b039283169263e8e33700928592908216918316906370a08231906108db903090600401612443565b60206040518083038186803b1580156108f357600080fd5b505afa158015610907573d6000803e3d6000fd5b505050506040513d601f19601f8201168201806040525081019061092b91906123b6565b6099546040516370a0823160e01b81526001600160a01b03909116906370a082319061095b903090600401612443565b60206040518083038186803b15801561097357600080fd5b505afa158015610987573d6000803e3d6000fd5b505050506040513d601f19601f820116820180604052508101906109ab91906123b6565b60008030426040518963ffffffff1660e01b81526004016109d39897969594939291906124b8565b606060405180830381600087803b1580156109ed57600080fd5b505af1158015610a01573d6000803e3d6000fd5b505050506040513d601f19601f82011682018060405250810190610a259190612416565b50506097546040516370a0823160e01b81526001600160a01b039091169150610ac190339083906370a0823190610a60903090600401612443565b60206040518083038186803b158015610a7857600080fd5b505afa158015610a8c573d6000803e3d6000fd5b505050506040513d601f19601f82011682018060405250810190610ab091906123b6565b6001600160a01b0384169190611881565b609b54609854609954609754604051632b58ae1760e11b81526001600160a01b03948516946356b15c2e94610b03949082169390821692911690600401612495565b600060405180830381600087803b158015610b1d57600080fd5b505af1158015610b31573d6000803e3d6000fd5b505050505050565b6097546001600160a01b031681565b610b50611765565b6001600160a01b0316610b61611006565b6001600160a01b031614610baa576040805162461bcd60e51b81526020600482018190526024820152600080516020612647833981519152604482015290519081900360640190fd5b610bb460006118d3565b565b6099546040516323b872dd60e01b81526000916001600160a01b03169081906323b872dd90610bed90339030908990600401612457565b602060405180830381600087803b158015610c0757600080fd5b505af1158015610c1b573d6000803e3d6000fd5b505050506040513d601f19601f82011682018060405250810190610c3f9190612330565b50609854610c58906001600160a01b0316333086611925565b609b54604051637c6ba9c160e01b81526001600160a01b0390911690637c6ba9c190610c8c9086908890309060040161253a565b602060405180830381600087803b158015610ca657600080fd5b505af1158015610cba573d6000803e3d6000fd5b505050506040513d601f19601f82011682018060405250810190610cde91906123b6565b6097546040516370a0823160e01b81529193506001600160a01b03169081906370a0823190610d11903090600401612443565b60206040518083038186803b158015610d2957600080fd5b505afa158015610d3d573d6000803e3d6000fd5b505050506040513d601f19601f82011682018060405250810190610d6191906123b6565b9250610d776001600160a01b0382163385611881565b609854609954610d94916001600160a01b03908116911633611985565b505092915050565b6099546001600160a01b031681565b60975460408051630240bc6b60e21b815290516000926001600160a01b031691839182918491630902f1ac91600480820192606092909190829003018186803b158015610df757600080fd5b505afa158015610e0b573d6000803e3d6000fd5b505050506040513d601f19601f82011682018060405250810190610e2f9190612350565b506099546098546001600160701b0393841695509190921692506000918291610e64916001600160a01b039081169116611b38565b60995491935091506000906001600160a01b03808516911614610e875783610e89565b845b6099549091506000906001600160a01b03858116911614610eaa5785610eac565b845b90506000610ebb8d8385611c16565b609754609854919250610edb916001600160a01b0390811691168f611881565b6097546099546001600160a01b039182169163022c0d9f91811690881614610f04576000610f06565b825b6099546001600160a01b03888116911614610f22576000610f24565b835b306040518463ffffffff1660e01b8152600401610f4393929190612559565b600060405180830381600087803b158015610f5d57600080fd5b505af1158015610f71573d6000803e3d6000fd5b50506099546040516370a0823160e01b81526001600160a01b0390911692506370a082319150610fa5903090600401612443565b60206040518083038186803b158015610fbd57600080fd5b505afa158015610fd1573d6000803e3d6000fd5b505050506040513d601f19601f82011682018060405250810190610ff591906123b6565b9d9c50505050505050505050505050565b6065546001600160a01b031690565b6098546001600160a01b031681565b609b546001600160a01b031690565b609954609b546040516323b872dd60e01b81526000926001600160a01b039081169283926323b872dd926110709233929116908890600401612457565b602060405180830381600087803b15801561108a57600080fd5b505af115801561109e573d6000803e3d6000fd5b505050506040513d601f19601f820116820180604052508101906110c29190612330565b50609b546040516376d5e47b60e11b81526001600160a01b039091169063edabc8f6906110f59086903090600401612523565b602060405180830381600087803b15801561110f57600080fd5b505af1158015611123573d6000803e3d6000fd5b505050506040513d601f19601f8201168201806040525081019061114791906123b6565b6097546040516370a0823160e01b81529193506001600160a01b03169081906370a082319061117a903090600401612443565b60206040518083038186803b15801561119257600080fd5b505afa1580156111a6573d6000803e3d6000fd5b505050506040513d601f19601f820116820180604052508101906111ca91906123b6565b92506111e06001600160a01b0382163385611881565b6098546099546111fd916001600160a01b03908116911633611985565b5050919050565b60975460408051630240bc6b60e21b815290516000926001600160a01b031691839182918491630902f1ac91600480820192606092909190829003018186803b15801561125057600080fd5b505afa158015611264573d6000803e3d6000fd5b505050506040513d601f19601f820116820180604052508101906112889190612350565b506001600160701b031691506001600160701b031691506000609860009054906101000a90046001600160a01b03166001600160a01b0316846001600160a01b0316630dfe16816040518163ffffffff1660e01b815260040160206040518083038186803b1580156112f957600080fd5b505afa15801561130d573d6000803e3d6000fd5b505050506040513d601f19601f8201168201806040525081019061133191906122b9565b6001600160a01b031614156113465781611348565b825b90506000609860009054906101000a90046001600160a01b03166001600160a01b0316856001600160a01b0316630dfe16816040518163ffffffff1660e01b815260040160206040518083038186803b1580156113a457600080fd5b505afa1580156113b8573d6000803e3d6000fd5b505050506040513d601f19601f820116820180604052508101906113dc91906122b9565b6001600160a01b0316146113f057826113f2565b835b90506000856001600160a01b03166318160ddd6040518163ffffffff1660e01b815260040160206040518083038186803b15801561142f57600080fd5b505afa158015611443573d6000803e3d6000fd5b505050506040513d601f19601f8201168201806040525081019061146791906123b6565b905060006114878261148161147c8688611cee565b611d50565b90611e90565b905060006114998a600160701b611cee565b905060006114af6305f5e100600160701b611cee565b905060006114f2600160381b6114ec6114c785611d50565b6114e6600160381b6114ec6114db8a611d50565b6114e68c6002611cee565b90611cee565b90611eb0565b905061150281600160701b611eb0565b9c9b505050505050505050505050565b6000611522826000806000610dab565b90505b919050565b611532611765565b6001600160a01b0316611543611006565b6001600160a01b03161461158c576040805162461bcd60e51b81526020600482018190526024820152600080516020612647833981519152604482015290519081900360640190fd5b6001600160a01b0381166115d15760405162461bcd60e51b81526004018080602001828103825260268152602001806125b36026913960400191505060405180910390fd5b6115da816118d3565b50565b609a546001600160a01b031681565b600054610100900460ff16806116055750611605611eef565b80611613575060005460ff16155b61164e5760405162461bcd60e51b815260040180806020018281038252602e815260200180612667602e913960400191505060405180910390fd5b600054610100900460ff16158015611679576000805460ff1961ff0019909116610100171660011790555b611681611ef5565b609880546001600160a01b038088166001600160a01b03199283161790925560998054878416908316179055609a8054868416908316179055609b80549285169290911691909117905580156116dd576000805461ff00191690555b5050505050565b609b54604051637eb8303160e11b81526000916001600160a01b03169063fd7060629061171590859060040161251a565b60206040518083038186803b15801561172d57600080fd5b505afa158015611741573d6000803e3d6000fd5b505050506040513d601f19601f8201168201806040525081019061152291906123b6565b3390565b8015806117ef575060408051636eb1769f60e11b81523060048201526001600160a01b03848116602483015291519185169163dd62ed3e91604480820192602092909190829003018186803b1580156117c157600080fd5b505afa1580156117d5573d6000803e3d6000fd5b505050506040513d60208110156117eb57600080fd5b5051155b61182a5760405162461bcd60e51b81526004018080602001828103825260368152602001806127156036913960400191505060405180910390fd5b604080516001600160a01b038416602482015260448082018490528251808303909101815260649091019091526020810180516001600160e01b031663095ea7b360e01b17905261187c908490611f43565b505050565b604080516001600160a01b038416602482015260448082018490528251808303909101815260649091019091526020810180516001600160e01b031663a9059cbb60e01b17905261187c908490611f43565b606580546001600160a01b038381166001600160a01b0319831681179093556040519116919082907f8be0079c531659141344cd1fd0a4f28419497f9722a3daafe3b4186f6b6457e090600090a35050565b604080516001600160a01b0380861660248301528416604482015260648082018490528251808303909101815260849091019091526020810180516001600160e01b03166323b872dd60e01b17905261197f908590611f43565b50505050565b6040516370a0823160e01b8152839083906000906001600160a01b038316906370a08231906119b8903090600401612443565b602060405180830381600087803b1580156119d257600080fd5b505af11580156119e6573d6000803e3d6000fd5b505050506040513d601f19601f82011682018060405250810190611a0a91906123b6565b90508015611a945760405163a9059cbb60e01b81526001600160a01b0383169063a9059cbb90611a409087908590600401612501565b602060405180830381600087803b158015611a5a57600080fd5b505af1158015611a6e573d6000803e3d6000fd5b505050506040513d601f19601f82011682018060405250810190611a929190612330565b505b6040516370a0823160e01b81526000906001600160a01b038516906370a0823190611ac3903090600401612443565b60206040518083038186803b158015611adb57600080fd5b505afa158015611aef573d6000803e3d6000fd5b505050506040513d601f19601f82011682018060405250810190611b1391906123b6565b90508015611b2f57611b2f6001600160a01b0385168683611881565b50505050505050565b600080826001600160a01b0316846001600160a01b03161415611b8c5760405162461bcd60e51b81526004018080602001828103825260258152602001806125d96025913960400191505060405180910390fd5b826001600160a01b0316846001600160a01b031610611bac578284611baf565b83835b90925090506001600160a01b038216611c0f576040805162461bcd60e51b815260206004820152601e60248201527f556e697377617056324c6962726172793a205a45524f5f414444524553530000604482015290519081900360640190fd5b9250929050565b6000808411611c565760405162461bcd60e51b815260040180806020018281038252602b8152602001806126ea602b913960400191505060405180910390fd5b600083118015611c665750600082115b611ca15760405162461bcd60e51b81526004018080602001828103825260288152602001806125fe6028913960400191505060405180910390fd5b6000611caf856103e5611cee565b90506000611cbd8285611cee565b90506000611cd783611cd1886103e8611cee565b906120fa565b9050808281611ce257fe5b04979650505050505050565b600082611cfd57506000611d4a565b82820282848281611d0a57fe5b0414611d475760405162461bcd60e51b81526004018080602001828103825260218152602001806126266021913960400191505060405180910390fd5b90505b92915050565b600081611d5f57506000611525565b816001600160801b8210611d785760809190911c9060401b5b600160401b8210611d8e5760409190911c9060201b5b600160201b8210611da45760209190911c9060101b5b620100008210611db95760109190911c9060081b5b6101008210611dcd5760089190911c9060041b5b60108210611de05760049190911c9060021b5b60088210611dec5760011b5b6001818581611df757fe5b048201901c90506001818581611e0957fe5b048201901c90506001818581611e1b57fe5b048201901c90506001818581611e2d57fe5b048201901c90506001818581611e3f57fe5b048201901c90506001818581611e5157fe5b048201901c90506001818581611e6357fe5b048201901c90506000818581611e7557fe5b049050808210611e855780611e87565b815b95945050505050565b600081611ea184600160701b611cee565b81611ea857fe5b049392505050565b6000611d4783836040518060400160405280601a815260200179536166654d6174683a206469766973696f6e206279207a65726f60301b815250612152565b303b1590565b600054610100900460ff16611f3b5760405162461bcd60e51b815260040180806020018281038252602b815260200180612695602b913960400191505060405180910390fd5b610bb46121f4565b611f55826001600160a01b031661224a565b611fa6576040805162461bcd60e51b815260206004820152601f60248201527f5361666545524332303a2063616c6c20746f206e6f6e2d636f6e747261637400604482015290519081900360640190fd5b600080836001600160a01b0316836040518082805190602001908083835b60208310611fe35780518252601f199092019160209182019101611fc4565b6001836020036101000a0380198251168184511680821785525050505050509050019150506000604051808303816000865af19150503d8060008114612045576040519150601f19603f3d011682016040523d82523d6000602084013e61204a565b606091505b5091509150816120a1576040805162461bcd60e51b815260206004820181905260248201527f5361666545524332303a206c6f772d6c6576656c2063616c6c206661696c6564604482015290519081900360640190fd5b80511561197f578080602001905160208110156120bd57600080fd5b505161197f5760405162461bcd60e51b815260040180806020018281038252602a8152602001806126c0602a913960400191505060405180910390fd5b600082820183811015611d47576040805162461bcd60e51b815260206004820152601b60248201527a536166654d6174683a206164646974696f6e206f766572666c6f7760281b604482015290519081900360640190fd5b600081836121de5760405162461bcd60e51b81526004018080602001828103825283818151815260200191508051906020019080838360005b838110156121a357818101518382015260200161218b565b50505050905090810190601f1680156121d05780820380516001836020036101000a031916815260200191505b509250505060405180910390fd5b5060008385816121ea57fe5b0495945050505050565b600054610100900460ff1661223a5760405162461bcd60e51b815260040180806020018281038252602b815260200180612695602b913960400191505060405180910390fd5b610bb4612245611765565b6118d3565b6000813f7fc5d2460186f7233c927e7db2dcc703c0e500b653ca82273b7bfad8045d85a47081811480159061227e57508115155b949350505050565b80516001600160701b038116811461152557600080fd5b6000602082840312156122ae578081fd5b8135611d478161259d565b6000602082840312156122ca578081fd5b8151611d478161259d565b600080600080608085870312156122ea578283fd5b84356122f58161259d565b935060208501356123058161259d565b925060408501356123158161259d565b915060608501356123258161259d565b939692955090935050565b600060208284031215612341578081fd5b81518015158114611d47578182fd5b600080600060608486031215612364578283fd5b61236d84612286565b925061237b60208501612286565b9150604084015163ffffffff81168114612393578182fd5b809150509250925092565b6000602082840312156123af578081fd5b5035919050565b6000602082840312156123c7578081fd5b5051919050565b600080600080608085870312156123e3578384fd5b8435935060208501356123058161259d565b60008060408385031215612407578182fd5b50508035926020909101359150565b60008060006060848603121561242a578283fd5b8351925060208401519150604084015190509250925092565b6001600160a01b0391909116815260200190565b6001600160a01b039384168152919092166020820152604081019190915260600190565b6001600160a01b0392831681529116602082015260400190565b6001600160a01b0393841681529183166020830152909116604082015260600190565b6001600160a01b039889168152968816602088015260408701959095526060860193909352608085019190915260a084015290921660c082015260e08101919091526101000190565b6001600160a01b03929092168252602082015260400190565b90815260200190565b9182526001600160a01b0316602082015260400190565b92835260208301919091526001600160a01b0316604082015260600190565b92835260208301919091526001600160a01b0316604082015260806060820181905260009082015260a00190565b9283526020830191909152604082015260600190565b6001600160a01b03811681146115da57600080fdfe4f776e61626c653a206e6577206f776e657220697320746865207a65726f2061646472657373556e697377617056324c6962726172793a204944454e544943414c5f414444524553534553556e697377617056324c6962726172793a20494e53554646494349454e545f4c4951554944495459536166654d6174683a206d756c7469706c69636174696f6e206f766572666c6f774f776e61626c653a2063616c6c6572206973206e6f7420746865206f776e6572436f6e747261637420696e7374616e63652068617320616c7265616479206265656e20696e697469616c697a6564496e697469616c697a61626c653a20636f6e7472616374206973206e6f7420696e697469616c697a696e675361666545524332303a204552433230206f7065726174696f6e20646964206e6f742073756363656564556e697377617056324c6962726172793a20494e53554646494349454e545f494e5055545f414d4f554e545361666545524332303a20617070726f76652066726f6d206e6f6e2d7a65726f20746f206e6f6e2d7a65726f20616c6c6f77616e6365a2646970667358221220e3277da95187b60abea984a389dca23be6de89256209cf8b5e3218955614303464736f6c63430007060033",
  "devdoc": {
    "kind": "dev",
    "methods": {},
    "version": 1
  },
  "userdoc": {
    "kind": "user",
    "methods": {},
    "version": 1
  },
  "storageLayout": {
    "storage": [
      {
        "astId": 6361,
        "contract": "contracts/test/TestUniswapPoolHelper.sol:TestUniswapPoolHelper",
        "label": "initialized",
        "offset": 0,
        "slot": "0",
        "type": "t_bool"
      },
      {
        "astId": 6364,
        "contract": "contracts/test/TestUniswapPoolHelper.sol:TestUniswapPoolHelper",
        "label": "initializing",
        "offset": 1,
        "slot": "0",
        "type": "t_bool"
      },
      {
        "astId": 6431,
        "contract": "contracts/test/TestUniswapPoolHelper.sol:TestUniswapPoolHelper",
        "label": "______gap",
        "offset": 0,
        "slot": "1",
        "type": "t_array(t_uint256)50_storage"
      },
      {
        "astId": 6354,
        "contract": "contracts/test/TestUniswapPoolHelper.sol:TestUniswapPoolHelper",
        "label": "__gap",
        "offset": 0,
        "slot": "51",
        "type": "t_array(t_uint256)50_storage"
      },
      {
        "astId": 6576,
        "contract": "contracts/test/TestUniswapPoolHelper.sol:TestUniswapPoolHelper",
        "label": "_owner",
        "offset": 0,
        "slot": "101",
        "type": "t_address"
      },
      {
        "astId": 6681,
        "contract": "contracts/test/TestUniswapPoolHelper.sol:TestUniswapPoolHelper",
        "label": "__gap",
        "offset": 0,
        "slot": "102",
        "type": "t_array(t_uint256)49_storage"
      },
      {
        "astId": 51478,
        "contract": "contracts/test/TestUniswapPoolHelper.sol:TestUniswapPoolHelper",
        "label": "lpTokenAddr",
        "offset": 0,
        "slot": "151",
        "type": "t_address"
      },
      {
        "astId": 51480,
        "contract": "contracts/test/TestUniswapPoolHelper.sol:TestUniswapPoolHelper",
        "label": "rdntAddr",
        "offset": 0,
        "slot": "152",
        "type": "t_address"
      },
      {
        "astId": 51482,
        "contract": "contracts/test/TestUniswapPoolHelper.sol:TestUniswapPoolHelper",
        "label": "wethAddr",
        "offset": 0,
        "slot": "153",
        "type": "t_address"
      },
      {
        "astId": 51484,
        "contract": "contracts/test/TestUniswapPoolHelper.sol:TestUniswapPoolHelper",
        "label": "router",
        "offset": 0,
        "slot": "154",
        "type": "t_contract(IUniswapV2Router02)14550"
      },
      {
        "astId": 51486,
        "contract": "contracts/test/TestUniswapPoolHelper.sol:TestUniswapPoolHelper",
        "label": "liquidityZap",
        "offset": 0,
        "slot": "155",
        "type": "t_contract(ILiquidityZap)12405"
      }
    ],
    "types": {
      "t_address": {
        "encoding": "inplace",
        "label": "address",
        "numberOfBytes": "20"
      },
      "t_array(t_uint256)49_storage": {
        "base": "t_uint256",
        "encoding": "inplace",
        "label": "uint256[49]",
        "numberOfBytes": "1568"
      },
      "t_array(t_uint256)50_storage": {
        "base": "t_uint256",
        "encoding": "inplace",
        "label": "uint256[50]",
        "numberOfBytes": "1600"
      },
      "t_bool": {
        "encoding": "inplace",
        "label": "bool",
        "numberOfBytes": "1"
      },
      "t_contract(ILiquidityZap)12405": {
        "encoding": "inplace",
        "label": "contract ILiquidityZap",
        "numberOfBytes": "20"
      },
      "t_contract(IUniswapV2Router02)14550": {
        "encoding": "inplace",
        "label": "contract IUniswapV2Router02",
        "numberOfBytes": "20"
      },
      "t_uint256": {
        "encoding": "inplace",
        "label": "uint256",
        "numberOfBytes": "32"
      }
    }
  }
}