{
  "address": "0x9752a9686fCDb5ace0a673C1bb56d6221429CfBD",
  "abi": [
    {
      "anonymous": false,
      "inputs": [
        {
          "indexed": true,
          "internalType": "address",
          "name": "previousOwner",
          "type": "address"
        },
        {
          "indexed": true,
          "internalType": "address",
          "name": "newOwner",
          "type": "address"
        }
      ],
      "name": "OwnershipTransferred",
      "type": "event"
    },
    {
      "inputs": [],
      "name": "ALLOW_STALE_CONSULTS",
      "outputs": [
        {
          "internalType": "bool",
          "name": "",
          "type": "bool"
        }
      ],
      "stateMutability": "view",
      "type": "function"
    },
    {
      "inputs": [],
      "name": "CONSULT_LENIENCY",
      "outputs": [
        {
          "internalType": "uint256",
          "name": "",
          "type": "uint256"
        }
      ],
      "stateMutability": "view",
      "type": "function"
    },
    {
      "inputs": [],
      "name": "FALLBACK_ENABLED",
      "outputs": [
        {
          "internalType": "bool",
          "name": "",
          "type": "bool"
        }
      ],
      "stateMutability": "view",
      "type": "function"
    },
    {
      "inputs": [],
      "name": "PERIOD",
      "outputs": [
        {
          "internalType": "uint256",
          "name": "",
          "type": "uint256"
        }
      ],
      "stateMutability": "view",
      "type": "function"
    },
    {
      "inputs": [],
      "name": "blockTimestampLast",
      "outputs": [
        {
          "internalType": "uint32",
          "name": "",
          "type": "uint32"
        }
      ],
      "stateMutability": "view",
      "type": "function"
    },
    {
      "inputs": [],
      "name": "canUpdate",
      "outputs": [
        {
          "internalType": "bool",
          "name": "",
          "type": "bool"
        }
      ],
      "stateMutability": "view",
      "type": "function"
    },
    {
      "inputs": [],
      "name": "consult",
      "outputs": [
        {
          "internalType": "uint256",
          "name": "amountOut",
          "type": "uint256"
        }
      ],
      "stateMutability": "view",
      "type": "function"
    },
    {
      "inputs": [
        {
          "internalType": "bool",
          "name": "_enabled",
          "type": "bool"
        }
      ],
      "name": "enableFallback",
      "outputs": [],
      "stateMutability": "nonpayable",
      "type": "function"
    },
    {
      "inputs": [],
      "name": "ethChainlinkFeed",
      "outputs": [
        {
          "internalType": "address",
          "name": "",
          "type": "address"
        }
      ],
      "stateMutability": "view",
      "type": "function"
    },
    {
      "inputs": [],
      "name": "fallbackOracle",
      "outputs": [
        {
          "internalType": "contract IBaseOracle",
          "name": "",
          "type": "address"
        }
      ],
      "stateMutability": "view",
      "type": "function"
    },
    {
      "inputs": [
        {
          "internalType": "address",
          "name": "_pair",
          "type": "address"
        },
        {
          "internalType": "address",
          "name": "_rdnt",
          "type": "address"
        },
        {
          "internalType": "address",
          "name": "_ethChainlinkFeed",
          "type": "address"
        },
        {
          "internalType": "uint256",
          "name": "_period",
          "type": "uint256"
        },
        {
          "internalType": "uint256",
          "name": "_consultLeniency",
          "type": "uint256"
        },
        {
          "internalType": "bool",
          "name": "_allowStaleConsults",
          "type": "bool"
        }
      ],
      "name": "initialize",
      "outputs": [],
      "stateMutability": "nonpayable",
      "type": "function"
    },
    {
      "inputs": [],
      "name": "latestAnswer",
      "outputs": [
        {
          "internalType": "uint256",
          "name": "price",
          "type": "uint256"
        }
      ],
      "stateMutability": "view",
      "type": "function"
    },
    {
      "inputs": [],
      "name": "latestAnswerInEth",
      "outputs": [
        {
          "internalType": "uint256",
          "name": "price",
          "type": "uint256"
        }
      ],
      "stateMutability": "view",
      "type": "function"
    },
    {
      "inputs": [],
      "name": "owner",
      "outputs": [
        {
          "internalType": "address",
          "name": "",
          "type": "address"
        }
      ],
      "stateMutability": "view",
      "type": "function"
    },
    {
      "inputs": [],
      "name": "pair",
      "outputs": [
        {
          "internalType": "contract IUniswapV2Pair",
          "name": "",
          "type": "address"
        }
      ],
      "stateMutability": "view",
      "type": "function"
    },
    {
      "inputs": [],
      "name": "price0Average",
      "outputs": [
        {
          "internalType": "uint224",
          "name": "_x",
          "type": "uint224"
        }
      ],
      "stateMutability": "view",
      "type": "function"
    },
    {
      "inputs": [],
      "name": "price0CumulativeLast",
      "outputs": [
        {
          "internalType": "uint256",
          "name": "",
          "type": "uint256"
        }
      ],
      "stateMutability": "view",
      "type": "function"
    },
    {
      "inputs": [],
      "name": "price1Average",
      "outputs": [
        {
          "internalType": "uint224",
          "name": "_x",
          "type": "uint224"
        }
      ],
      "stateMutability": "view",
      "type": "function"
    },
    {
      "inputs": [],
      "name": "price1CumulativeLast",
      "outputs": [
        {
          "internalType": "uint256",
          "name": "",
          "type": "uint256"
        }
      ],
      "stateMutability": "view",
      "type": "function"
    },
    {
      "inputs": [],
      "name": "renounceOwnership",
      "outputs": [],
      "stateMutability": "nonpayable",
      "type": "function"
    },
    {
      "inputs": [
        {
          "internalType": "bool",
          "name": "_allowStaleConsults",
          "type": "bool"
        }
      ],
      "name": "setAllowStaleConsults",
      "outputs": [],
      "stateMutability": "nonpayable",
      "type": "function"
    },
    {
      "inputs": [
        {
          "internalType": "uint256",
          "name": "_consultLeniency",
          "type": "uint256"
        }
      ],
      "name": "setConsultLeniency",
      "outputs": [],
      "stateMutability": "nonpayable",
      "type": "function"
    },
    {
      "inputs": [
        {
          "internalType": "address",
          "name": "_fallback",
          "type": "address"
        }
      ],
      "name": "setFallback",
      "outputs": [],
      "stateMutability": "nonpayable",
      "type": "function"
    },
    {
      "inputs": [
        {
          "internalType": "uint256",
          "name": "_period",
          "type": "uint256"
        }
      ],
      "name": "setPeriod",
      "outputs": [],
      "stateMutability": "nonpayable",
      "type": "function"
    },
    {
      "inputs": [],
      "name": "token",
      "outputs": [
        {
          "internalType": "address",
          "name": "",
          "type": "address"
        }
      ],
      "stateMutability": "view",
      "type": "function"
    },
    {
      "inputs": [],
      "name": "token0",
      "outputs": [
        {
          "internalType": "address",
          "name": "",
          "type": "address"
        }
      ],
      "stateMutability": "view",
      "type": "function"
    },
    {
      "inputs": [],
      "name": "token1",
      "outputs": [
        {
          "internalType": "address",
          "name": "",
          "type": "address"
        }
      ],
      "stateMutability": "view",
      "type": "function"
    },
    {
      "inputs": [
        {
          "internalType": "address",
          "name": "newOwner",
          "type": "address"
        }
      ],
      "name": "transferOwnership",
      "outputs": [],
      "stateMutability": "nonpayable",
      "type": "function"
    },
    {
      "inputs": [],
      "name": "update",
      "outputs": [],
      "stateMutability": "nonpayable",
      "type": "function"
    }
  ],
  "transactionHash": "0x339ad1bba163edc9c8d07fa1323cbb9c8dadccb759a399880fbde68b45ea0610",
  "args": [],
  "numDeployments": 1,
  "solcInputHash": "78995fe69be866012cdea8ea4c4842de",
  "bytecode": "0x608060405234801561001057600080fd5b50611a94806100206000396000f3fe608060405234801561001057600080fd5b506004361061015f5760003560e01c80630dfe1681146101645780630f3a9f651461018857806310535afe146101a75780631ac2c825146101c6578063251cdcd8146101e2578063316cefde146101fc57806332b12eac146102465780633fcb55ca1461026c57806350d25bcd146102745780635909c0d51461027c5780635a3d5493146102845780635cb9a7141461028c5780635e6aaf2c146102a9578063629838e5146102cd578063715018a6146102d55780637eeda703146102dd5780638da5cb5b146102e5578063978e7b68146102ed578063a17a2685146102f5578063a2bc88dc146102fd578063a2e6204514610305578063a6bb45391461030d578063a8aa1b3114610315578063b4d1d7951461031d578063c5700a0214610325578063d21220a714610346578063f1551aea1461034e578063f2fde38b1461036d578063fc0c546a14610393575b600080fd5b61016c61039b565b604080516001600160a01b039092168252519081900360200190f35b6101a56004803603602081101561019e57600080fd5b50356103aa565b005b6101a5600480360360208110156101bd57600080fd5b50351515610411565b6101ce6104e0565b604080519115158252519081900360200190f35b6101ea6104e9565b60408051918252519081900360200190f35b6101a5600480360360c081101561021257600080fd5b506001600160a01b03813581169160208101358216916040820135169060608101359060808101359060a00135151561059d565b6101a56004803603602081101561025c57600080fd5b50356001600160a01b03166109ad565b6101ea610a44565b6101ea610a4a565b6101ea610af4565b6101ea610afa565b6101a5600480360360208110156102a257600080fd5b5035610b00565b6102b1610b67565b604080516001600160e01b039092168252519081900360200190f35b61016c610b76565b6101a5610b85565b6101ea610bf3565b61016c610c95565b6101ce610ca4565b6101ce610cb4565b61016c610cd9565b6101a5610ce8565b6102b1610e14565b61016c610e23565b6101ea610e37565b61032d610e3d565b6040805163ffffffff9092168252519081900360200190f35b61016c610e49565b6101a56004803603602081101561036457600080fd5b50351515610e58565b6101a56004803603602081101561038357600080fd5b50356001600160a01b0316610ecd565b61016c610f80565b609d546001600160a01b031681565b6103b2610f8f565b6001600160a01b03166103c3610c95565b6001600160a01b03161461040c576040805162461bcd60e51b815260206004820181905260248201526000805160206119c1833981519152604482015290519081900360640190fd5b609a55565b610419610f8f565b6001600160a01b031661042a610c95565b6001600160a01b031614610473576040805162461bcd60e51b815260206004820181905260248201526000805160206119c1833981519152604482015290519081900360640190fd5b6099546001600160a01b03166104c2576040805162461bcd60e51b815260206004820152600f60248201526e1b9bc819985b1b189858dac81cd95d608a1b604482015290519081900360640190fd5b60988054911515600160a01b0260ff60a01b19909216919091179055565b609c5460ff1681565b609854600090600160a01b900460ff1661050c57610505610bf3565b9050610589565b609960009054906101000a90046001600160a01b03166001600160a01b0316637eeda7036040518163ffffffff1660e01b815260040160206040518083038186803b15801561055a57600080fd5b505afa15801561056e573d6000803e3d6000fd5b505050506040513d602081101561058457600080fd5b505190505b610598816402540be400610f93565b905090565b600054610100900460ff16806105b657506105b6610fdb565b806105c4575060005460ff16155b6105ff5760405162461bcd60e51b815260040180806020018281038252602e8152602001806119e1602e913960400191505060405180910390fd5b600054610100900460ff1615801561062a576000805460ff1961ff0019909116610100171660011790555b86609c60016101000a8154816001600160a01b0302191690836001600160a01b03160217905550609c60019054906101000a90046001600160a01b03166001600160a01b0316630dfe16816040518163ffffffff1660e01b815260040160206040518083038186803b15801561069f57600080fd5b505afa1580156106b3573d6000803e3d6000fd5b505050506040513d60208110156106c957600080fd5b5051609d80546001600160a01b0319166001600160a01b03928316179055609c546040805163d21220a760e01b815290516101009092049092169163d21220a7916004808301926020929190829003018186803b15801561072957600080fd5b505afa15801561073d573d6000803e3d6000fd5b505050506040513d602081101561075357600080fd5b5051609e80546001600160a01b0319166001600160a01b03928316179055609c5460408051635909c0d560e01b8152905161010090920490921691635909c0d5916004808301926020929190829003018186803b1580156107b357600080fd5b505afa1580156107c7573d6000803e3d6000fd5b505050506040513d60208110156107dd57600080fd5b5051609f55609c5460408051635a3d549360e01b815290516101009092046001600160a01b031691635a3d549391600480820192602092909190829003018186803b15801561082b57600080fd5b505afa15801561083f573d6000803e3d6000fd5b505050506040513d602081101561085557600080fd5b505160a055609c5460408051630240bc6b60e21b8152905160009283926101009091046001600160a01b031691630902f1ac91600480820192606092909190829003018186803b1580156108a857600080fd5b505afa1580156108bc573d6000803e3d6000fd5b505050506040513d60608110156108d257600080fd5b508051602082015160409092015160a1805463ffffffff191663ffffffff909216919091179055925090506001600160701b0382161580159061091d57506001600160701b03811615155b61096e576040805162461bcd60e51b815260206004820152601e60248201527f556e6973776170506169724f7261636c653a204e4f5f52455345525645530000604482015290519081900360640190fd5b609a869055609b859055609c805460ff19168515151790556109908888610fe1565b505080156109a4576000805461ff00191690555b50505050505050565b6109b5610f8f565b6001600160a01b03166109c6610c95565b6001600160a01b031614610a0f576040805162461bcd60e51b815260206004820181905260248201526000805160206119c1833981519152604482015290519081900360640190fd5b6001600160a01b038116610a2257600080fd5b609980546001600160a01b0319166001600160a01b0392909216919091179055565b609b5481565b600080610a556104e9565b90506000609860009054906101000a90046001600160a01b03166001600160a01b03166350d25bcd6040518163ffffffff1660e01b815260040160206040518083038186803b158015610aa757600080fd5b505afa158015610abb573d6000803e3d6000fd5b505050506040513d6020811015610ad157600080fd5b50519050610aed6305f5e100610ae7848461105d565b90610f93565b9250505090565b609f5481565b60a05481565b610b08610f8f565b6001600160a01b0316610b19610c95565b6001600160a01b031614610b62576040805162461bcd60e51b815260206004820181905260248201526000805160206119c1833981519152604482015290519081900360640190fd5b609b55565b60a3546001600160e01b031681565b6099546001600160a01b031681565b610b8d610f8f565b6001600160a01b0316610b9e610c95565b6001600160a01b031614610be7576040805162461bcd60e51b815260206004820181905260248201526000805160206119c1833981519152604482015290519081900360640190fd5b610bf160006110b6565b565b600080609760009054906101000a90046001600160a01b03166001600160a01b031663313ce5676040518163ffffffff1660e01b815260040160206040518083038186803b158015610c4457600080fd5b505afa158015610c58573d6000803e3d6000fd5b505050506040513d6020811015610c6e57600080fd5b5051609754909150610c8f906001600160a01b031660ff8316600a0a611108565b91505090565b6065546001600160a01b031690565b609854600160a01b900460ff1681565b600080610cbf611266565b60a154609a5463ffffffff91821690920316101591505090565b6098546001600160a01b031681565b6000806000610d0b609c60019054906101000a90046001600160a01b0316611270565b60a154609a54939650919450925063ffffffff9081168303919082161015610d645760405162461bcd60e51b8152600401808060200182810382526025815260200180611a0f6025913960400191505060405180910390fd5b60405180602001604052808263ffffffff16609f54870381610d8257fe5b046001600160e01b03908116909152905160a280546001600160e01b03191691909216179055604080516020810190915260a054819063ffffffff841690860381610dc957fe5b046001600160e01b03908116909152905160a380546001600160e01b0319169190921617905550609f9290925560a05560a1805463ffffffff191663ffffffff909216919091179055565b60a2546001600160e01b031681565b609c5461010090046001600160a01b031681565b609a5481565b60a15463ffffffff1681565b609e546001600160a01b031681565b610e60610f8f565b6001600160a01b0316610e71610c95565b6001600160a01b031614610eba576040805162461bcd60e51b815260206004820181905260248201526000805160206119c1833981519152604482015290519081900360640190fd5b609c805460ff1916911515919091179055565b610ed5610f8f565b6001600160a01b0316610ee6610c95565b6001600160a01b031614610f2f576040805162461bcd60e51b815260206004820181905260248201526000805160206119c1833981519152604482015290519081900360640190fd5b6001600160a01b038116610f745760405162461bcd60e51b81526004018080602001828103825260268152602001806118ff6026913960400191505060405180910390fd5b610f7d816110b6565b50565b6097546001600160a01b031681565b3390565b6000610fd283836040518060400160405280601a815260200179536166654d6174683a206469766973696f6e206279207a65726f60301b81525061145f565b90505b92915050565b303b1590565b600054610100900460ff166110275760405162461bcd60e51b815260040180806020018281038252602b815260200180611a34602b913960400191505060405180910390fd5b61102f611503565b609780546001600160a01b039384166001600160a01b03199182161790915560988054929093169116179055565b60008261106c57506000610fd5565b8282028284828161107957fe5b0414610fd25760405162461bcd60e51b81526004018080602001828103825260218152602001806119a06021913960400191505060405180910390fd5b606580546001600160a01b038381166001600160a01b0319831681179093556040519116919082907f8be0079c531659141344cd1fd0a4f28419497f9722a3daafe3b4186f6b6457e090600090a35050565b600080611113611266565b60a154609b54609a5492935063ffffffff91821684039201908216108061113c5750609c5460ff165b6111775760405162461bcd60e51b81526004018080602001828103825260358152602001806119256035913960400191505060405180910390fd5b609d546001600160a01b03868116911614156111c957604080516020810190915260a2546001600160e01b031681526111b9906111b49086611551565b6115e1565b6001600160901b0316925061125e565b609e546001600160a01b0386811691161461122b576040805162461bcd60e51b815260206004820181905260248201527f556e6973776170506169724f7261636c653a20494e56414c49445f544f4b454e604482015290519081900360640190fd5b604080516020810190915260a3546001600160e01b03168152611252906111b49086611551565b6001600160901b031692505b505092915050565b63ffffffff421690565b600080600061127d611266565b9050836001600160a01b0316635909c0d56040518163ffffffff1660e01b815260040160206040518083038186803b1580156112b857600080fd5b505afa1580156112cc573d6000803e3d6000fd5b505050506040513d60208110156112e257600080fd5b505160408051635a3d549360e01b815290519194506001600160a01b03861691635a3d549391600480820192602092909190829003018186803b15801561132857600080fd5b505afa15801561133c573d6000803e3d6000fd5b505050506040513d602081101561135257600080fd5b505160408051630240bc6b60e21b81529051919350600091829182916001600160a01b03891691630902f1ac916004808301926060929190829003018186803b15801561139e57600080fd5b505afa1580156113b2573d6000803e3d6000fd5b505050506040513d60608110156113c857600080fd5b5080516020820151604090920151909450909250905063ffffffff808216908516146114555780840363ffffffff811661140e6001600160701b038086169087166115e8565b600001516001600160e01b031602870196508063ffffffff16611443856001600160701b0316856001600160701b03166115e8565b516001600160e01b0316029590950194505b5050509193909250565b600081836114eb5760405162461bcd60e51b81526004018080602001828103825283818151815260200191508051906020019080838360005b838110156114b0578181015183820152602001611498565b50505050905090810190601f1680156114dd5780820380516001836020036101000a031916815260200191505b509250505060405180910390fd5b5060008385816114f757fe5b049150505b9392505050565b600054610100900460ff166115495760405162461bcd60e51b815260040180806020018281038252602b815260200180611a34602b913960400191505060405180910390fd5b610bf1611730565b6115596118d9565b600082158061157f57505082516001600160e01b03168281029083828161157c57fe5b04145b6115cc576040805162461bcd60e51b81526020600482015260196024820152784669786564506f696e743a3a6d756c3a206f766572666c6f7760381b604482015290519081900360640190fd5b60408051602081019091529081529392505050565b5160701c90565b6115f06118ec565b6000821161162f5760405162461bcd60e51b815260040180806020018281038252602681526020018061195a6026913960400191505060405180910390fd5b826116495750604080516020810190915260008152610fd5565b6001600160901b0383116116d357600082607085901b8161166657fe5b0490506001600160e01b038111156116b3576040805162461bcd60e51b815260206004820152601e6024820152600080516020611980833981519152604482015290519081900360640190fd5b6040518060200160405280826001600160e01b0316815250915050610fd5565b60006116e484600160701b85611786565b90506001600160e01b038111156116b3576040805162461bcd60e51b815260206004820152601e6024820152600080516020611980833981519152604482015290519081900360640190fd5b600054610100900460ff166117765760405162461bcd60e51b815260040180806020018281038252602b815260200180611a34602b913960400191505060405180910390fd5b610bf1611781610f8f565b6110b6565b6000806000611795868661183c565b91509150600084806117a357fe5b8688099050828111156117b7576001820391505b9182900391816117d5578483816117ca57fe5b0493505050506114fc565b848210611826576040805162461bcd60e51b815260206004820152601a60248201527946756c6c4d6174683a2046554c4c4449565f4f564552464c4f5760301b604482015290519081900360640190fd5b611831838387611869565b979650505050505050565b6000808060001984860990508385029250828103915082811015611861576001820391505b509250929050565b6000818103821680838161187957fe5b04925080858161188557fe5b04945080816000038161189457fe5b60028581038087028203028087028203028087028203028087028203028087028203028087028203029586029003909402930460010193909302939093010292915050565b6040518060200160405280600081525090565b6040805160208101909152600081529056fe4f776e61626c653a206e6577206f776e657220697320746865207a65726f2061646472657373556e6973776170506169724f7261636c653a2050524943455f49535f5354414c455f4e4545445f544f5f43414c4c5f5550444154454669786564506f696e743a3a6672616374696f6e3a206469766973696f6e206279207a65726f4669786564506f696e743a3a6672616374696f6e3a206f766572666c6f770000536166654d6174683a206d756c7469706c69636174696f6e206f766572666c6f774f776e61626c653a2063616c6c6572206973206e6f7420746865206f776e6572436f6e747261637420696e7374616e63652068617320616c7265616479206265656e20696e697469616c697a6564556e6973776170506169724f7261636c653a20504552494f445f4e4f545f454c4150534544496e697469616c697a61626c653a20636f6e7472616374206973206e6f7420696e697469616c697a696e67a26469706673582212204d4d0b13b0c1ca764c41cf1f494e22a992d2b01054a3f12a4fa7eb7a7b818d1e64736f6c63430007060033",
  "devdoc": {
    "author": "Radiant team",
    "details": "Fixed window oracle that recomputes the average price for the entire period once every period Note that the price average is only guaranteed to be over at least 1 period, but may be over a longer period",
    "kind": "dev",
    "methods": {
      "canUpdate()": {
        "details": "Check if update() can be called instead of wasting gas calling it."
      },
      "enableFallback(bool)": {
        "params": {
          "_enabled": "Boolean value."
        }
      },
      "initialize(address,address,address,uint256,uint256,bool)": {
        "params": {
          "_allowStaleConsults": "Enable/Disable stale.",
          "_consultLeniency": "Used for being able to consult past the period end.",
          "_ethChainlinkFeed": "Chainlink price feed for ETH.",
          "_pair": "Uniswap pair contract",
          "_period": "TWAP period.",
          "_rdnt": "RDNT token address."
        }
      },
      "latestAnswer()": {
        "details": "supports 18 decimal token",
        "returns": {
          "price": "of token in decimal 8"
        }
      },
      "latestAnswerInEth()": {
        "details": "supports 18 decimal token",
        "returns": {
          "price": "of token in decimal 8."
        }
      },
      "setAllowStaleConsults(bool)": {
        "params": {
          "_allowStaleConsults": "new value."
        }
      },
      "setConsultLeniency(uint256)": {
        "params": {
          "_consultLeniency": "new value."
        }
      },
      "setFallback(address)": {
        "params": {
          "_fallback": "Oracle address for fallback."
        }
      },
      "setPeriod(uint256)": {
        "params": {
          "_period": "TWAP period."
        }
      }
    },
    "title": "UniV2TwapOracle Contract",
    "version": 1
  },
  "userdoc": {
    "kind": "user",
    "methods": {
      "ALLOW_STALE_CONSULTS()": {
        "notice": "If false, consult() will fail if the TWAP is stale"
      },
      "CONSULT_LENIENCY()": {
        "notice": "Used for being able to consult past the period end"
      },
      "FALLBACK_ENABLED()": {
        "notice": "Enable/Disable fallback"
      },
      "PERIOD()": {
        "notice": "TWAP period"
      },
      "blockTimestampLast()": {
        "notice": "Last updated timestamp"
      },
      "consult()": {
        "notice": "Returns current price."
      },
      "enableFallback(bool)": {
        "notice": "Enable/Disable use of fallback oracle"
      },
      "ethChainlinkFeed()": {
        "notice": "Chainlink price feed for ETH"
      },
      "fallbackOracle()": {
        "notice": "Oracle to be used as a fallback"
      },
      "initialize(address,address,address,uint256,uint256,bool)": {
        "notice": "Initializer"
      },
      "latestAnswer()": {
        "notice": "Returns USD price in quote token."
      },
      "latestAnswerInEth()": {
        "notice": "Returns USD price in ETH"
      },
      "pair()": {
        "notice": "Uniswap pair contract "
      },
      "price0Average()": {
        "notice": "Average price of token0"
      },
      "price0CumulativeLast()": {
        "notice": "First token of the pair "
      },
      "price1Average()": {
        "notice": "Average price of token1 "
      },
      "price1CumulativeLast()": {
        "notice": "First token of the pair "
      },
      "setAllowStaleConsults(bool)": {
        "notice": "Sets stale consult option."
      },
      "setConsultLeniency(uint256)": {
        "notice": "Sets new consult leniency."
      },
      "setFallback(address)": {
        "notice": "Sets fallback oracle"
      },
      "setPeriod(uint256)": {
        "notice": "Sets new period."
      },
      "token()": {
        "notice": "Token for price"
      },
      "token0()": {
        "notice": "First token of the pair "
      },
      "token1()": {
        "notice": "Second token of the pair "
      },
      "update()": {
        "notice": "Updates price"
      }
    },
    "version": 1
  },
  "storageLayout": {
    "storage": [
      {
        "astId": 6361,
        "contract": "contracts/oracles/UniV2TwapOracle.sol:UniV2TwapOracle",
        "label": "initialized",
        "offset": 0,
        "slot": "0",
        "type": "t_bool"
      },
      {
        "astId": 6364,
        "contract": "contracts/oracles/UniV2TwapOracle.sol:UniV2TwapOracle",
        "label": "initializing",
        "offset": 1,
        "slot": "0",
        "type": "t_bool"
      },
      {
        "astId": 6431,
        "contract": "contracts/oracles/UniV2TwapOracle.sol:UniV2TwapOracle",
        "label": "______gap",
        "offset": 0,
        "slot": "1",
        "type": "t_array(t_uint256)50_storage"
      },
      {
        "astId": 6354,
        "contract": "contracts/oracles/UniV2TwapOracle.sol:UniV2TwapOracle",
        "label": "__gap",
        "offset": 0,
        "slot": "51",
        "type": "t_array(t_uint256)50_storage"
      },
      {
        "astId": 6576,
        "contract": "contracts/oracles/UniV2TwapOracle.sol:UniV2TwapOracle",
        "label": "_owner",
        "offset": 0,
        "slot": "101",
        "type": "t_address"
      },
      {
        "astId": 6681,
        "contract": "contracts/oracles/UniV2TwapOracle.sol:UniV2TwapOracle",
        "label": "__gap",
        "offset": 0,
        "slot": "102",
        "type": "t_array(t_uint256)49_storage"
      },
      {
        "astId": 23182,
        "contract": "contracts/oracles/UniV2TwapOracle.sol:UniV2TwapOracle",
        "label": "token",
        "offset": 0,
        "slot": "151",
        "type": "t_address"
      },
      {
        "astId": 23185,
        "contract": "contracts/oracles/UniV2TwapOracle.sol:UniV2TwapOracle",
        "label": "ethChainlinkFeed",
        "offset": 0,
        "slot": "152",
        "type": "t_address"
      },
      {
        "astId": 23188,
        "contract": "contracts/oracles/UniV2TwapOracle.sol:UniV2TwapOracle",
        "label": "FALLBACK_ENABLED",
        "offset": 20,
        "slot": "152",
        "type": "t_bool"
      },
      {
        "astId": 23191,
        "contract": "contracts/oracles/UniV2TwapOracle.sol:UniV2TwapOracle",
        "label": "fallbackOracle",
        "offset": 0,
        "slot": "153",
        "type": "t_contract(IBaseOracle)10923"
      },
      {
        "astId": 23796,
        "contract": "contracts/oracles/UniV2TwapOracle.sol:UniV2TwapOracle",
        "label": "PERIOD",
        "offset": 0,
        "slot": "154",
        "type": "t_uint256"
      },
      {
        "astId": 23799,
        "contract": "contracts/oracles/UniV2TwapOracle.sol:UniV2TwapOracle",
        "label": "CONSULT_LENIENCY",
        "offset": 0,
        "slot": "155",
        "type": "t_uint256"
      },
      {
        "astId": 23802,
        "contract": "contracts/oracles/UniV2TwapOracle.sol:UniV2TwapOracle",
        "label": "ALLOW_STALE_CONSULTS",
        "offset": 0,
        "slot": "156",
        "type": "t_bool"
      },
      {
        "astId": 23805,
        "contract": "contracts/oracles/UniV2TwapOracle.sol:UniV2TwapOracle",
        "label": "pair",
        "offset": 1,
        "slot": "156",
        "type": "t_contract(IUniswapV2Pair)1795"
      },
      {
        "astId": 23808,
        "contract": "contracts/oracles/UniV2TwapOracle.sol:UniV2TwapOracle",
        "label": "token0",
        "offset": 0,
        "slot": "157",
        "type": "t_address"
      },
      {
        "astId": 23811,
        "contract": "contracts/oracles/UniV2TwapOracle.sol:UniV2TwapOracle",
        "label": "token1",
        "offset": 0,
        "slot": "158",
        "type": "t_address"
      },
      {
        "astId": 23814,
        "contract": "contracts/oracles/UniV2TwapOracle.sol:UniV2TwapOracle",
        "label": "price0CumulativeLast",
        "offset": 0,
        "slot": "159",
        "type": "t_uint256"
      },
      {
        "astId": 23817,
        "contract": "contracts/oracles/UniV2TwapOracle.sol:UniV2TwapOracle",
        "label": "price1CumulativeLast",
        "offset": 0,
        "slot": "160",
        "type": "t_uint256"
      },
      {
        "astId": 23820,
        "contract": "contracts/oracles/UniV2TwapOracle.sol:UniV2TwapOracle",
        "label": "blockTimestampLast",
        "offset": 0,
        "slot": "161",
        "type": "t_uint32"
      },
      {
        "astId": 23823,
        "contract": "contracts/oracles/UniV2TwapOracle.sol:UniV2TwapOracle",
        "label": "price0Average",
        "offset": 0,
        "slot": "162",
        "type": "t_struct(uq112x112)488_storage"
      },
      {
        "astId": 23826,
        "contract": "contracts/oracles/UniV2TwapOracle.sol:UniV2TwapOracle",
        "label": "price1Average",
        "offset": 0,
        "slot": "163",
        "type": "t_struct(uq112x112)488_storage"
      }
    ],
    "types": {
      "t_address": {
        "encoding": "inplace",
        "label": "address",
        "numberOfBytes": "20"
      },
      "t_array(t_uint256)49_storage": {
        "base": "t_uint256",
        "encoding": "inplace",
        "label": "uint256[49]",
        "numberOfBytes": "1568"
      },
      "t_array(t_uint256)50_storage": {
        "base": "t_uint256",
        "encoding": "inplace",
        "label": "uint256[50]",
        "numberOfBytes": "1600"
      },
      "t_bool": {
        "encoding": "inplace",
        "label": "bool",
        "numberOfBytes": "1"
      },
      "t_contract(IBaseOracle)10923": {
        "encoding": "inplace",
        "label": "contract IBaseOracle",
        "numberOfBytes": "20"
      },
      "t_contract(IUniswapV2Pair)1795": {
        "encoding": "inplace",
        "label": "contract IUniswapV2Pair",
        "numberOfBytes": "20"
      },
      "t_struct(uq112x112)488_storage": {
        "encoding": "inplace",
        "label": "struct FixedPoint.uq112x112",
        "members": [
          {
            "astId": 487,
            "contract": "contracts/oracles/UniV2TwapOracle.sol:UniV2TwapOracle",
            "label": "_x",
            "offset": 0,
            "slot": "0",
            "type": "t_uint224"
          }
        ],
        "numberOfBytes": "32"
      },
      "t_uint224": {
        "encoding": "inplace",
        "label": "uint224",
        "numberOfBytes": "28"
      },
      "t_uint256": {
        "encoding": "inplace",
        "label": "uint256",
        "numberOfBytes": "32"
      },
      "t_uint32": {
        "encoding": "inplace",
        "label": "uint32",
        "numberOfBytes": "4"
      }
    }
  }
}