{
  "address": "0x40287EE89C42c044aD853B508363D8BDC61bf3E9",
  "abi": [
    {
      "inputs": [
        {
          "internalType": "address",
          "name": "weth",
          "type": "address"
        }
      ],
      "stateMutability": "nonpayable",
      "type": "constructor"
    },
    {
      "anonymous": false,
      "inputs": [
        {
          "indexed": true,
          "internalType": "address",
          "name": "previousOwner",
          "type": "address"
        },
        {
          "indexed": true,
          "internalType": "address",
          "name": "newOwner",
          "type": "address"
        }
      ],
      "name": "OwnershipTransferred",
      "type": "event"
    },
    {
      "stateMutability": "payable",
      "type": "fallback"
    },
    {
      "inputs": [
        {
          "internalType": "address",
          "name": "lendingPool",
          "type": "address"
        }
      ],
      "name": "authorizeLendingPool",
      "outputs": [],
      "stateMutability": "nonpayable",
      "type": "function"
    },
    {
      "inputs": [
        {
          "internalType": "address",
          "name": "lendingPool",
          "type": "address"
        },
        {
          "internalType": "uint256",
          "name": "amount",
          "type": "uint256"
        },
        {
          "internalType": "uint256",
          "name": "interesRateMode",
          "type": "uint256"
        },
        {
          "internalType": "uint16",
          "name": "referralCode",
          "type": "uint16"
        }
      ],
      "name": "borrowETH",
      "outputs": [],
      "stateMutability": "nonpayable",
      "type": "function"
    },
    {
      "inputs": [
        {
          "internalType": "address",
          "name": "lendingPool",
          "type": "address"
        },
        {
          "internalType": "address",
          "name": "onBehalfOf",
          "type": "address"
        },
        {
          "internalType": "uint16",
          "name": "referralCode",
          "type": "uint16"
        }
      ],
      "name": "depositETH",
      "outputs": [],
      "stateMutability": "payable",
      "type": "function"
    },
    {
      "inputs": [
        {
          "internalType": "address",
          "name": "lendingPool",
          "type": "address"
        },
        {
          "internalType": "address",
          "name": "onBehalfOf",
          "type": "address"
        },
        {
          "internalType": "uint16",
          "name": "referralCode",
          "type": "uint16"
        }
      ],
      "name": "depositETHWithAutoDLP",
      "outputs": [],
      "stateMutability": "payable",
      "type": "function"
    },
    {
      "inputs": [
        {
          "internalType": "address",
          "name": "to",
          "type": "address"
        },
        {
          "internalType": "uint256",
          "name": "amount",
          "type": "uint256"
        }
      ],
      "name": "emergencyEtherTransfer",
      "outputs": [],
      "stateMutability": "nonpayable",
      "type": "function"
    },
    {
      "inputs": [
        {
          "internalType": "address",
          "name": "token",
          "type": "address"
        },
        {
          "internalType": "address",
          "name": "to",
          "type": "address"
        },
        {
          "internalType": "uint256",
          "name": "amount",
          "type": "uint256"
        }
      ],
      "name": "emergencyTokenTransfer",
      "outputs": [],
      "stateMutability": "nonpayable",
      "type": "function"
    },
    {
      "inputs": [],
      "name": "getWETHAddress",
      "outputs": [
        {
          "internalType": "address",
          "name": "",
          "type": "address"
        }
      ],
      "stateMutability": "view",
      "type": "function"
    },
    {
      "inputs": [],
      "name": "owner",
      "outputs": [
        {
          "internalType": "address",
          "name": "",
          "type": "address"
        }
      ],
      "stateMutability": "view",
      "type": "function"
    },
    {
      "inputs": [],
      "name": "renounceOwnership",
      "outputs": [],
      "stateMutability": "nonpayable",
      "type": "function"
    },
    {
      "inputs": [
        {
          "internalType": "address",
          "name": "lendingPool",
          "type": "address"
        },
        {
          "internalType": "uint256",
          "name": "amount",
          "type": "uint256"
        },
        {
          "internalType": "uint256",
          "name": "rateMode",
          "type": "uint256"
        },
        {
          "internalType": "address",
          "name": "onBehalfOf",
          "type": "address"
        }
      ],
      "name": "repayETH",
      "outputs": [],
      "stateMutability": "payable",
      "type": "function"
    },
    {
      "inputs": [
        {
          "internalType": "address",
          "name": "newOwner",
          "type": "address"
        }
      ],
      "name": "transferOwnership",
      "outputs": [],
      "stateMutability": "nonpayable",
      "type": "function"
    },
    {
      "inputs": [
        {
          "internalType": "address",
          "name": "lendingPool",
          "type": "address"
        },
        {
          "internalType": "uint256",
          "name": "amount",
          "type": "uint256"
        },
        {
          "internalType": "address",
          "name": "to",
          "type": "address"
        }
      ],
      "name": "withdrawETH",
      "outputs": [],
      "stateMutability": "nonpayable",
      "type": "function"
    },
    {
      "stateMutability": "payable",
      "type": "receive"
    }
  ],
  "transactionHash": "0x156b8403f0513c8ec2d8d5999d7fed4cbccf59fb01891895599fc31c376aa6ad",
  "args": [
    "0xb78dC8Cb950AF587526E182A7A36a907F8bC6A59"
  ],
  "numDeployments": 1,
  "solcInputHash": "78995fe69be866012cdea8ea4c4842de",
  "bytecode": "0x60a060405234801561001057600080fd5b5060405161174338038061174383398101604081905261002f9161009c565b6000610039610098565b600080546001600160a01b0319166001600160a01b0383169081178255604051929350917f8be0079c531659141344cd1fd0a4f28419497f9722a3daafe3b4186f6b6457e0908290a35060601b6001600160601b0319166080526100ca565b3390565b6000602082840312156100ad578081fd5b81516001600160a01b03811681146100c3578182fd5b9392505050565b60805160601c61161761012c6000398060ab5280610271528061035e52806103f45280610494528061052a52806105aa528061062152806107515280610905528061099b5280610afd5280610c6d5280610d035280610da052506116176000f3fe60806040526004361061009b5760003560e01c806302c5fcf81461010b578063474cf53d1461011e57806366514c9714610131578063715018a61461015157806380500d20146101665780638da5cb5b14610186578063a3d5b255146101b1578063affa8817146101d1578063eed88b8d146101e6578063f2fde38b14610206578063fc652e5314610226578063fd14952914610239576100f3565b366100f357336001600160a01b037f000000000000000000000000000000000000000000000000000000000000000016146100f15760405162461bcd60e51b81526004016100e890611496565b60405180910390fd5b005b60405162461bcd60e51b81526004016100e890611468565b6100f1610119366004611177565b610259565b6100f161012c366004611085565b610492565b34801561013d57600080fd5b506100f161014c3660046111c0565b610586565b34801561015d57600080fd5b506100f161069a565b34801561017257600080fd5b506100f1610181366004611136565b61072a565b34801561019257600080fd5b5061019b610a14565b6040516101a89190611368565b60405180910390f35b3480156101bd57600080fd5b506100f16101cc3660046110cb565b610a23565b3480156101dd57600080fd5b5061019b610afb565b3480156101f257600080fd5b506100f161020136600461110b565b610b1f565b34801561021257600080fd5b506100f1610221366004611062565b610b85565b6100f1610234366004611085565b610c6b565b34801561024557600080fd5b506100f1610254366004611062565b610d31565b60008061030283876001600160a01b03166335ea6a757f00000000000000000000000000000000000000000000000000000000000000006040518263ffffffff1660e01b81526004016102ac9190611368565b6101806040518083038186803b1580156102c557600080fd5b505afa1580156102d9573d6000803e3d6000fd5b505050506040513d601f19601f820116820180604052508101906102fd9190611227565b610e2b565b90925090506000600185600281111561031757fe5b600281111561032257fe5b1461032d578161032f565b825b90508086101561033c5750845b8034101561035c5760405162461bcd60e51b81526004016100e8906114f0565b7f00000000000000000000000000000000000000000000000000000000000000006001600160a01b031663d0e30db0826040518263ffffffff1660e01b81526004016000604051808303818588803b1580156103b757600080fd5b505af11580156103cb573d6000803e3d6000fd5b505060405163573ade8160e01b81526001600160a01b038b16935063573ade81925061042291507f00000000000000000000000000000000000000000000000000000000000000009034908a908a90600401611409565b602060405180830381600087803b15801561043c57600080fd5b505af1158015610450573d6000803e3d6000fd5b505050506040513d601f19601f820116820180604052508101906104749190611317565b50803411156104895761048933823403610f33565b50505050505050565b7f00000000000000000000000000000000000000000000000000000000000000006001600160a01b031663d0e30db0346040518263ffffffff1660e01b81526004016000604051808303818588803b1580156104ed57600080fd5b505af1158015610501573d6000803e3d6000fd5b505060405163e8eda9df60e01b81526001600160a01b038716935063e8eda9df925061055891507f0000000000000000000000000000000000000000000000000000000000000000903490879087906004016113dc565b600060405180830381600087803b15801561057257600080fd5b505af1158015610489573d6000803e3d6000fd5b60405163a415bcad60e01b81526001600160a01b0385169063a415bcad906105da907f0000000000000000000000000000000000000000000000000000000000000000908790879087903390600401611434565b600060405180830381600087803b1580156105f457600080fd5b505af1158015610608573d6000803e3d6000fd5b5050604051632e1a7d4d60e01b81526001600160a01b037f0000000000000000000000000000000000000000000000000000000000000000169250632e1a7d4d9150610658908690600401611537565b600060405180830381600087803b15801561067257600080fd5b505af1158015610686573d6000803e3d6000fd5b505050506106943384610f33565b50505050565b6106a2610fc5565b6000546001600160a01b039081169116146106f2576040805162461bcd60e51b815260206004820181905260248201526000805160206115a2833981519152604482015290519081900360640190fd5b600080546040516001600160a01b03909116906000805160206115c2833981519152908390a3600080546001600160a01b0319169055565b6040516335ea6a7560e01b81526000906001600160a01b038516906335ea6a7590610779907f000000000000000000000000000000000000000000000000000000000000000090600401611368565b6101806040518083038186803b15801561079257600080fd5b505afa1580156107a6573d6000803e3d6000fd5b505050506040513d601f19601f820116820180604052508101906107ca9190611227565b60e0015190506000816001600160a01b03166370a08231336040518263ffffffff1660e01b81526004016107fe9190611368565b60206040518083038186803b15801561081657600080fd5b505afa15801561082a573d6000803e3d6000fd5b505050506040513d601f19601f8201168201806040525081019061084e9190611317565b90508360001981141561085e5750805b6040516323b872dd60e01b81526001600160a01b038416906323b872dd9061088e9033903090869060040161137c565b602060405180830381600087803b1580156108a857600080fd5b505af11580156108bc573d6000803e3d6000fd5b505050506040513d601f19601f820116820180604052508101906108e09190611207565b50604051631a4ca37b60e21b81526001600160a01b038716906369328dec90610931907f000000000000000000000000000000000000000000000000000000000000000090859030906004016113b9565b602060405180830381600087803b15801561094b57600080fd5b505af115801561095f573d6000803e3d6000fd5b505050506040513d601f19601f820116820180604052508101906109839190611317565b50604051632e1a7d4d60e01b81526001600160a01b037f00000000000000000000000000000000000000000000000000000000000000001690632e1a7d4d906109d0908490600401611537565b600060405180830381600087803b1580156109ea57600080fd5b505af11580156109fe573d6000803e3d6000fd5b50505050610a0c8482610f33565b505050505050565b6000546001600160a01b031690565b610a2b610fc5565b6000546001600160a01b03908116911614610a7b576040805162461bcd60e51b815260206004820181905260248201526000805160206115a2833981519152604482015290519081900360640190fd5b60405163a9059cbb60e01b81526001600160a01b0384169063a9059cbb90610aa990859085906004016113a0565b602060405180830381600087803b158015610ac357600080fd5b505af1158015610ad7573d6000803e3d6000fd5b505050506040513d601f19601f820116820180604052508101906106949190611207565b7f000000000000000000000000000000000000000000000000000000000000000090565b610b27610fc5565b6000546001600160a01b03908116911614610b77576040805162461bcd60e51b815260206004820181905260248201526000805160206115a2833981519152604482015290519081900360640190fd5b610b818282610f33565b5050565b610b8d610fc5565b6000546001600160a01b03908116911614610bdd576040805162461bcd60e51b815260206004820181905260248201526000805160206115a2833981519152604482015290519081900360640190fd5b6001600160a01b038116610c225760405162461bcd60e51b815260040180806020018281038252602681526020018061157c6026913960400191505060405180910390fd5b600080546040516001600160a01b03808516939216916000805160206115c283398151915291a3600080546001600160a01b0319166001600160a01b0392909216919091179055565b7f00000000000000000000000000000000000000000000000000000000000000006001600160a01b031663d0e30db0346040518263ffffffff1660e01b81526004016000604051808303818588803b158015610cc657600080fd5b505af1158015610cda573d6000803e3d6000fd5b5050604051632b941fe760e21b81526001600160a01b038716935063ae507f9c925061055891507f0000000000000000000000000000000000000000000000000000000000000000903490879087906004016113dc565b610d39610fc5565b6000546001600160a01b03908116911614610d89576040805162461bcd60e51b815260206004820181905260248201526000805160206115a2833981519152604482015290519081900360640190fd5b60405163095ea7b360e01b81526001600160a01b037f0000000000000000000000000000000000000000000000000000000000000000169063095ea7b390610dd9908490600019906004016113a0565b602060405180830381600087803b158015610df357600080fd5b505af1158015610e07573d6000803e3d6000fd5b505050506040513d601f19601f82011682018060405250810190610b819190611207565b6000808261010001516001600160a01b03166370a08231856040518263ffffffff1660e01b815260040180826001600160a01b0316815260200191505060206040518083038186803b158015610e8057600080fd5b505afa158015610e94573d6000803e3d6000fd5b505050506040513d6020811015610eaa57600080fd5b5051610120840151604080516370a0823160e01b81526001600160a01b038881166004830152915191909216916370a08231916024808301926020929190829003018186803b158015610efc57600080fd5b505afa158015610f10573d6000803e3d6000fd5b505050506040513d6020811015610f2657600080fd5b5051909590945092505050565b604080516000808252602082019092526001600160a01b038416908390604051610f5d919061132f565b60006040518083038185875af1925050503d8060008114610f9a576040519150601f19603f3d011682016040523d82523d6000602084013e610f9f565b606091505b5050905080610fc05760405162461bcd60e51b81526004016100e8906114c3565b505050565b3390565b8051610fd481611563565b919050565b600060208284031215610fea578081fd5b604051602081016001600160401b038111828210171561100657fe5b6040529151825250919050565b80516001600160801b0381168114610fd457600080fd5b803561ffff81168114610fd457600080fd5b805164ffffffffff81168114610fd457600080fd5b805160ff81168114610fd457600080fd5b600060208284031215611073578081fd5b813561107e81611563565b9392505050565b600080600060608486031215611099578182fd5b83356110a481611563565b925060208401356110b481611563565b91506110c26040850161102a565b90509250925092565b6000806000606084860312156110df578283fd5b83356110ea81611563565b925060208401356110fa81611563565b929592945050506040919091013590565b6000806040838503121561111d578182fd5b823561112881611563565b946020939093013593505050565b60008060006060848603121561114a578283fd5b833561115581611563565b925060208401359150604084013561116c81611563565b809150509250925092565b6000806000806080858703121561118c578081fd5b843561119781611563565b9350602085013592506040850135915060608501356111b581611563565b939692955090935050565b600080600080608085870312156111d5578384fd5b84356111e081611563565b935060208501359250604085013591506111fc6060860161102a565b905092959194509250565b600060208284031215611218578081fd5b8151801515811461107e578182fd5b600061018080838503121561123a578182fd5b61124381611540565b905061124f8484610fd9565b815261125d60208401611013565b602082015261126e60408401611013565b604082015261127f60608401611013565b606082015261129060808401611013565b60808201526112a160a08401611013565b60a08201526112b260c0840161103c565b60c08201526112c360e08401610fc9565b60e08201526101006112d6818501610fc9565b908201526101206112e8848201610fc9565b908201526101406112fa848201610fc9565b9082015261016061130c848201611051565b908201529392505050565b600060208284031215611328578081fd5b5051919050565b60008251815b8181101561134f5760208186018101518583015201611335565b8181111561135d5782828501525b509190910192915050565b6001600160a01b0391909116815260200190565b6001600160a01b039384168152919092166020820152604081019190915260600190565b6001600160a01b03929092168252602082015260400190565b6001600160a01b0393841681526020810192909252909116604082015260600190565b6001600160a01b03948516815260208101939093529216604082015261ffff909116606082015260800190565b6001600160a01b03948516815260208101939093526040830191909152909116606082015260800190565b6001600160a01b0395861681526020810194909452604084019290925261ffff166060830152909116608082015260a00190565b60208082526014908201527311985b1b189858dac81b9bdd08185b1b1bddd95960621b604082015260600190565b602080825260139082015272149958d95a5d99481b9bdd08185b1b1bddd959606a1b604082015260600190565b60208082526013908201527211551217d514905394d1915497d19052531151606a1b604082015260600190565b60208082526027908201527f6d73672e76616c7565206973206c657373207468616e2072657061796d656e7460408201526608185b5bdd5b9d60ca1b606082015260800190565b90815260200190565b6040518181016001600160401b038111828210171561155b57fe5b604052919050565b6001600160a01b038116811461157857600080fd5b5056fe4f776e61626c653a206e6577206f776e657220697320746865207a65726f20616464726573734f776e61626c653a2063616c6c6572206973206e6f7420746865206f776e65728be0079c531659141344cd1fd0a4f28419497f9722a3daafe3b4186f6b6457e0a2646970667358221220e15adeec5e80407d44a809e57ee4e918a8809e4ad840b5144e3d6e0f94fbd90264736f6c63430007060033",
  "devdoc": {
    "kind": "dev",
    "methods": {
      "borrowETH(address,uint256,uint256,uint16)": {
        "details": "borrow WETH, unwraps to ETH and send both the ETH and DebtTokens to msg.sender, via `approveDelegation` and onBehalf argument in `LendingPool.borrow`.",
        "params": {
          "amount": "the amount of ETH to borrow",
          "interesRateMode": "the interest rate mode",
          "lendingPool": "address of the targeted underlying lending pool",
          "referralCode": "integrators are assigned a referral code and can potentially receive rewards"
        }
      },
      "constructor": {
        "details": "Sets the WETH address and the LendingPoolAddressesProvider address. Infinite approves lending pool.",
        "params": {
          "weth": "Address of the Wrapped Ether contract*"
        }
      },
      "depositETH(address,address,uint16)": {
        "details": "deposits WETH into the reserve, using native ETH. A corresponding amount of the overlying asset (aTokens) is minted.",
        "params": {
          "lendingPool": "address of the targeted underlying lending pool",
          "onBehalfOf": "address of the user who will receive the aTokens representing the deposit",
          "referralCode": "integrators are assigned a referral code and can potentially receive rewards.*"
        }
      },
      "emergencyEtherTransfer(address,uint256)": {
        "details": "transfer native Ether from the utility contract, for native Ether recovery in case of stuck Ether due selfdestructs or transfer ether to pre-computated contract address before deployment.",
        "params": {
          "amount": "amount to send",
          "to": "recipient of the transfer"
        }
      },
      "emergencyTokenTransfer(address,address,uint256)": {
        "details": "transfer ERC20 from the utility contract, for ERC20 recovery in case of stuck tokens due direct transfers to the contract address.",
        "params": {
          "amount": "amount to send",
          "to": "recipient of the transfer",
          "token": "token to transfer"
        }
      },
      "getWETHAddress()": {
        "details": "Get WETH address used by WETHGateway"
      },
      "owner()": {
        "details": "Returns the address of the current owner."
      },
      "renounceOwnership()": {
        "details": "Leaves the contract without owner. It will not be possible to call `onlyOwner` functions anymore. Can only be called by the current owner. NOTE: Renouncing ownership will leave the contract without an owner, thereby removing any functionality that is only available to the owner."
      },
      "repayETH(address,uint256,uint256,address)": {
        "details": "repays a borrow on the WETH reserve, for the specified amount (or for the whole amount, if uint256(-1) is specified).",
        "params": {
          "amount": "the amount to repay, or uint256(-1) if the user wants to repay everything",
          "lendingPool": "address of the targeted underlying lending pool",
          "onBehalfOf": "the address for which msg.sender is repaying",
          "rateMode": "the rate mode to repay"
        }
      },
      "transferOwnership(address)": {
        "details": "Transfers ownership of the contract to a new account (`newOwner`). Can only be called by the current owner."
      },
      "withdrawETH(address,uint256,address)": {
        "details": "withdraws the WETH _reserves of msg.sender.",
        "params": {
          "amount": "amount of aWETH to withdraw and receive native ETH",
          "lendingPool": "address of the targeted underlying lending pool",
          "to": "address of the user who will receive native ETH"
        }
      }
    },
    "version": 1
  },
  "userdoc": {
    "kind": "user",
    "methods": {},
    "version": 1
  },
  "storageLayout": {
    "storage": [
      {
        "astId": 5437,
        "contract": "contracts/misc/WETHGateway.sol:WETHGateway",
        "label": "_owner",
        "offset": 0,
        "slot": "0",
        "type": "t_address"
      }
    ],
    "types": {
      "t_address": {
        "encoding": "inplace",
        "label": "address",
        "numberOfBytes": "20"
      }
    }
  }
}