{
  "address": "0xa06EDfcdc1fc42a9d47A5A10097430747cdF86E9",
  "abi": [
    {
      "anonymous": false,
      "inputs": [
        {
          "indexed": false,
          "internalType": "uint256",
          "name": "_newVal",
          "type": "uint256"
        }
      ],
      "name": "BaseBountyUsdTargetUpdated",
      "type": "event"
    },
    {
      "anonymous": false,
      "inputs": [
        {
          "indexed": false,
          "internalType": "uint256",
          "name": "_newVal",
          "type": "uint256"
        }
      ],
      "name": "BountyBoosterUpdated",
      "type": "event"
    },
    {
      "anonymous": false,
      "inputs": [
        {
          "indexed": false,
          "internalType": "uint256",
          "name": "_bal",
          "type": "uint256"
        }
      ],
      "name": "BountyReserveEmpty",
      "type": "event"
    },
    {
      "anonymous": false,
      "inputs": [
        {
          "indexed": false,
          "internalType": "contract IChefIncentivesController",
          "name": "_chef",
          "type": "address"
        }
      ],
      "name": "ChefIncentivesControllerUpdated",
      "type": "event"
    },
    {
      "anonymous": false,
      "inputs": [
        {
          "indexed": false,
          "internalType": "address",
          "name": "user",
          "type": "address"
        }
      ],
      "name": "Disqualified",
      "type": "event"
    },
    {
      "anonymous": false,
      "inputs": [
        {
          "indexed": false,
          "internalType": "uint256",
          "name": "_newVal",
          "type": "uint256"
        }
      ],
      "name": "HunterShareUpdated",
      "type": "event"
    },
    {
      "anonymous": false,
      "inputs": [
        {
          "indexed": false,
          "internalType": "uint256",
          "name": "_newVal",
          "type": "uint256"
        }
      ],
      "name": "MaxBaseBountyUpdated",
      "type": "event"
    },
    {
      "anonymous": false,
      "inputs": [
        {
          "indexed": true,
          "internalType": "address",
          "name": "previousOwner",
          "type": "address"
        },
        {
          "indexed": true,
          "internalType": "address",
          "name": "newOwner",
          "type": "address"
        }
      ],
      "name": "OwnershipTransferred",
      "type": "event"
    },
    {
      "anonymous": false,
      "inputs": [
        {
          "indexed": false,
          "internalType": "address",
          "name": "account",
          "type": "address"
        }
      ],
      "name": "Paused",
      "type": "event"
    },
    {
      "anonymous": false,
      "inputs": [
        {
          "indexed": false,
          "internalType": "uint256",
          "name": "_newVal",
          "type": "uint256"
        }
      ],
      "name": "SlippageLimitUpdated",
      "type": "event"
    },
    {
      "anonymous": false,
      "inputs": [
        {
          "indexed": false,
          "internalType": "address",
          "name": "account",
          "type": "address"
        }
      ],
      "name": "Unpaused",
      "type": "event"
    },
    {
      "inputs": [
        {
          "internalType": "address",
          "name": "user",
          "type": "address"
        },
        {
          "internalType": "bool",
          "name": "status",
          "type": "bool"
        }
      ],
      "name": "addAddressToWL",
      "outputs": [],
      "stateMutability": "nonpayable",
      "type": "function"
    },
    {
      "inputs": [],
      "name": "baseBountyUsdTarget",
      "outputs": [
        {
          "internalType": "uint256",
          "name": "",
          "type": "uint256"
        }
      ],
      "stateMutability": "view",
      "type": "function"
    },
    {
      "inputs": [],
      "name": "bountyBooster",
      "outputs": [
        {
          "internalType": "uint256",
          "name": "",
          "type": "uint256"
        }
      ],
      "stateMutability": "view",
      "type": "function"
    },
    {
      "inputs": [],
      "name": "bountyCount",
      "outputs": [
        {
          "internalType": "uint256",
          "name": "",
          "type": "uint256"
        }
      ],
      "stateMutability": "view",
      "type": "function"
    },
    {
      "inputs": [
        {
          "internalType": "bool",
          "name": "status",
          "type": "bool"
        }
      ],
      "name": "changeWL",
      "outputs": [],
      "stateMutability": "nonpayable",
      "type": "function"
    },
    {
      "inputs": [],
      "name": "chef",
      "outputs": [
        {
          "internalType": "address",
          "name": "",
          "type": "address"
        }
      ],
      "stateMutability": "view",
      "type": "function"
    },
    {
      "inputs": [
        {
          "internalType": "address",
          "name": "_user",
          "type": "address"
        },
        {
          "internalType": "uint256",
          "name": "_actionType",
          "type": "uint256"
        }
      ],
      "name": "claim",
      "outputs": [
        {
          "internalType": "uint256",
          "name": "bounty",
          "type": "uint256"
        },
        {
          "internalType": "uint256",
          "name": "actionType",
          "type": "uint256"
        }
      ],
      "stateMutability": "nonpayable",
      "type": "function"
    },
    {
      "inputs": [],
      "name": "compounder",
      "outputs": [
        {
          "internalType": "address",
          "name": "",
          "type": "address"
        }
      ],
      "stateMutability": "view",
      "type": "function"
    },
    {
      "inputs": [],
      "name": "eligibilityDataProvider",
      "outputs": [
        {
          "internalType": "address",
          "name": "",
          "type": "address"
        }
      ],
      "stateMutability": "view",
      "type": "function"
    },
    {
      "inputs": [
        {
          "internalType": "address",
          "name": "_user",
          "type": "address"
        },
        {
          "internalType": "bool",
          "name": "_execute",
          "type": "bool"
        },
        {
          "internalType": "uint256",
          "name": "_actionType",
          "type": "uint256"
        }
      ],
      "name": "executeBounty",
      "outputs": [
        {
          "internalType": "uint256",
          "name": "bounty",
          "type": "uint256"
        },
        {
          "internalType": "uint256",
          "name": "actionType",
          "type": "uint256"
        }
      ],
      "stateMutability": "nonpayable",
      "type": "function"
    },
    {
      "inputs": [],
      "name": "getBaseBounty",
      "outputs": [
        {
          "internalType": "uint256",
          "name": "bounty",
          "type": "uint256"
        }
      ],
      "stateMutability": "view",
      "type": "function"
    },
    {
      "inputs": [],
      "name": "hunterShare",
      "outputs": [
        {
          "internalType": "uint256",
          "name": "",
          "type": "uint256"
        }
      ],
      "stateMutability": "view",
      "type": "function"
    },
    {
      "inputs": [
        {
          "internalType": "address",
          "name": "_rdnt",
          "type": "address"
        },
        {
          "internalType": "address",
          "name": "_weth",
          "type": "address"
        },
        {
          "internalType": "address",
          "name": "_mfd",
          "type": "address"
        },
        {
          "internalType": "address",
          "name": "_chef",
          "type": "address"
        },
        {
          "internalType": "address",
          "name": "_priceProvider",
          "type": "address"
        },
        {
          "internalType": "address",
          "name": "_eligibilityDataProvider",
          "type": "address"
        },
        {
          "internalType": "address",
          "name": "_compounder",
          "type": "address"
        },
        {
          "internalType": "uint256",
          "name": "_hunterShare",
          "type": "uint256"
        },
        {
          "internalType": "uint256",
          "name": "_baseBountyUsdTarget",
          "type": "uint256"
        },
        {
          "internalType": "uint256",
          "name": "_maxBaseBounty",
          "type": "uint256"
        },
        {
          "internalType": "uint256",
          "name": "_bountyBooster",
          "type": "uint256"
        }
      ],
      "name": "initialize",
      "outputs": [],
      "stateMutability": "nonpayable",
      "type": "function"
    },
    {
      "inputs": [],
      "name": "maxBaseBounty",
      "outputs": [
        {
          "internalType": "uint256",
          "name": "",
          "type": "uint256"
        }
      ],
      "stateMutability": "view",
      "type": "function"
    },
    {
      "inputs": [],
      "name": "mfd",
      "outputs": [
        {
          "internalType": "address",
          "name": "",
          "type": "address"
        }
      ],
      "stateMutability": "view",
      "type": "function"
    },
    {
      "inputs": [],
      "name": "minDLPBalance",
      "outputs": [
        {
          "internalType": "uint256",
          "name": "min",
          "type": "uint256"
        }
      ],
      "stateMutability": "view",
      "type": "function"
    },
    {
      "inputs": [],
      "name": "minStakeAmount",
      "outputs": [
        {
          "internalType": "uint256",
          "name": "",
          "type": "uint256"
        }
      ],
      "stateMutability": "view",
      "type": "function"
    },
    {
      "inputs": [],
      "name": "owner",
      "outputs": [
        {
          "internalType": "address",
          "name": "",
          "type": "address"
        }
      ],
      "stateMutability": "view",
      "type": "function"
    },
    {
      "inputs": [],
      "name": "pause",
      "outputs": [],
      "stateMutability": "nonpayable",
      "type": "function"
    },
    {
      "inputs": [],
      "name": "paused",
      "outputs": [
        {
          "internalType": "bool",
          "name": "",
          "type": "bool"
        }
      ],
      "stateMutability": "view",
      "type": "function"
    },
    {
      "inputs": [],
      "name": "priceProvider",
      "outputs": [
        {
          "internalType": "address",
          "name": "",
          "type": "address"
        }
      ],
      "stateMutability": "view",
      "type": "function"
    },
    {
      "inputs": [
        {
          "internalType": "address",
          "name": "_user",
          "type": "address"
        }
      ],
      "name": "quote",
      "outputs": [
        {
          "internalType": "uint256",
          "name": "bounty",
          "type": "uint256"
        },
        {
          "internalType": "uint256",
          "name": "actionType",
          "type": "uint256"
        }
      ],
      "stateMutability": "view",
      "type": "function"
    },
    {
      "inputs": [],
      "name": "rdnt",
      "outputs": [
        {
          "internalType": "address",
          "name": "",
          "type": "address"
        }
      ],
      "stateMutability": "view",
      "type": "function"
    },
    {
      "inputs": [
        {
          "internalType": "address",
          "name": "tokenAddress",
          "type": "address"
        },
        {
          "internalType": "uint256",
          "name": "tokenAmount",
          "type": "uint256"
        }
      ],
      "name": "recoverERC20",
      "outputs": [],
      "stateMutability": "nonpayable",
      "type": "function"
    },
    {
      "inputs": [],
      "name": "renounceOwnership",
      "outputs": [],
      "stateMutability": "nonpayable",
      "type": "function"
    },
    {
      "inputs": [
        {
          "internalType": "uint256",
          "name": "_newVal",
          "type": "uint256"
        }
      ],
      "name": "setBaseBountyUsdTarget",
      "outputs": [],
      "stateMutability": "nonpayable",
      "type": "function"
    },
    {
      "inputs": [],
      "name": "setBounties",
      "outputs": [],
      "stateMutability": "nonpayable",
      "type": "function"
    },
    {
      "inputs": [
        {
          "internalType": "uint256",
          "name": "_newVal",
          "type": "uint256"
        }
      ],
      "name": "setBountyBooster",
      "outputs": [],
      "stateMutability": "nonpayable",
      "type": "function"
    },
    {
      "inputs": [
        {
          "internalType": "uint256",
          "name": "_newVal",
          "type": "uint256"
        }
      ],
      "name": "setHunterShare",
      "outputs": [],
      "stateMutability": "nonpayable",
      "type": "function"
    },
    {
      "inputs": [
        {
          "internalType": "uint256",
          "name": "_newVal",
          "type": "uint256"
        }
      ],
      "name": "setMaxBaseBounty",
      "outputs": [],
      "stateMutability": "nonpayable",
      "type": "function"
    },
    {
      "inputs": [
        {
          "internalType": "uint256",
          "name": "_minStakeAmount",
          "type": "uint256"
        }
      ],
      "name": "setMinStakeAmount",
      "outputs": [],
      "stateMutability": "nonpayable",
      "type": "function"
    },
    {
      "inputs": [
        {
          "internalType": "uint256",
          "name": "_newVal",
          "type": "uint256"
        }
      ],
      "name": "setSlippageLimit",
      "outputs": [],
      "stateMutability": "nonpayable",
      "type": "function"
    },
    {
      "inputs": [],
      "name": "slippageLimit",
      "outputs": [
        {
          "internalType": "uint256",
          "name": "",
          "type": "uint256"
        }
      ],
      "stateMutability": "view",
      "type": "function"
    },
    {
      "inputs": [
        {
          "internalType": "address",
          "name": "newOwner",
          "type": "address"
        }
      ],
      "name": "transferOwnership",
      "outputs": [],
      "stateMutability": "nonpayable",
      "type": "function"
    },
    {
      "inputs": [],
      "name": "unpause",
      "outputs": [],
      "stateMutability": "nonpayable",
      "type": "function"
    },
    {
      "inputs": [],
      "name": "weth",
      "outputs": [
        {
          "internalType": "address",
          "name": "",
          "type": "address"
        }
      ],
      "stateMutability": "view",
      "type": "function"
    },
    {
      "inputs": [
        {
          "internalType": "address",
          "name": "",
          "type": "address"
        }
      ],
      "name": "whitelist",
      "outputs": [
        {
          "internalType": "bool",
          "name": "",
          "type": "bool"
        }
      ],
      "stateMutability": "view",
      "type": "function"
    },
    {
      "inputs": [],
      "name": "whitelistActive",
      "outputs": [
        {
          "internalType": "bool",
          "name": "",
          "type": "bool"
        }
      ],
      "stateMutability": "view",
      "type": "function"
    }
  ],
  "transactionHash": "0xf3976bf268f962acee6bbddec53ccf37a7eac8158d3b3194067a5f9fa9275399",
  "args": [],
  "numDeployments": 1,
  "solcInputHash": "404520f445277fe3090b6134aff24300",
  "bytecode": "0x608060405234801561001057600080fd5b50612764806100206000396000f3fe608060405234801561001057600080fd5b50600436106102925760003560e01c80638456cb5911610160578063c0d02c51116100d8578063e011b2891161008c578063f188768411610071578063f188768414610504578063f2fde38b1461050d578063fa2cc3c01461052057600080fd5b8063e011b289146104de578063eb4af045146104f157600080fd5b8063d4743bae116100bd578063d4743bae146104ba578063d8c0e253146104cd578063d9cdd513146104d657600080fd5b8063c0d02c51146104a9578063d1025c0c146104b157600080fd5b8063aad3ec961161012f578063b200e2c811610114578063b200e2c814610470578063b736ca8214610483578063b888879e1461049657600080fd5b8063aad3ec961461044a578063b0c634ee1461045d57600080fd5b80638456cb59146103fb5780638980f11f146104035780638da5cb5b146104165780639b19251a1461042757600080fd5b80633e362c961161020e5780635c975abb116101c25780635ebd4f9f116101a75780635ebd4f9f146103cd578063715018a6146103e057806376e82e8b146103e857600080fd5b80635c975abb146103af5780635d0f5396146103ba57600080fd5b80633fc8cef3116101f35780633fc8cef314610380578063464cea3d146103935780635b07871a146103a657600080fd5b80633e362c961461036f5780633f4ba83a1461037857600080fd5b80631fc8bc5d116102655780632a0233871161024a5780632a0233871461034a5780632a50ddd2146103535780632d54f8231461036657600080fd5b80631fc8bc5d1461030c5780631fe4ba171461033757600080fd5b8063015d87611461029757806302ce5813146102ac5780630b39ed47146102ce5780631a2baad6146102f6575b600080fd5b6102aa6102a5366004612266565b610533565b005b60d9546102b99060ff1681565b60405190151581526020015b60405180910390f35b6102e16102dc36600461229b565b6105bc565b604080519283526020830191909152016102c5565b6102fe610706565b6040519081526020016102c5565b60cc5461031f906001600160a01b031681565b6040516001600160a01b0390911681526020016102c5565b6102aa610345366004612266565b6107d2565b6102fe60d05481565b6102aa610361366004612266565b61084f565b6102fe60d35481565b6102fe60d45481565b6102aa6108cc565b60ca5461031f906001600160a01b031681565b6102aa6103a13660046122c4565b61091e565b6102fe60d65481565b60975460ff166102b9565b60c95461031f906001600160a01b031681565b6102aa6103db366004612266565b610991565b6102aa610a60565b60ce5461031f906001600160a01b031681565b6102aa610ab2565b6102aa6104113660046122fb565b610b02565b6065546001600160a01b031661031f565b6102b961043536600461229b565b60d86020526000908152604090205460ff1681565b6102e16104583660046122fb565b610b74565b60cb5461031f906001600160a01b031681565b6102aa61047e366004612266565b610bfa565b6102aa610491366004612325565b610c77565b60cd5461031f906001600160a01b031681565b6102aa611180565b6102fe60d15481565b6102aa6104c83660046123d5565b611277565b6102fe60d25481565b6102fe6112d2565b6102e16104ec3660046123f9565b611371565b6102aa6104ff366004612266565b6114e3565b6102fe60d55481565b6102aa61051b36600461229b565b611530565b60cf5461031f906001600160a01b031681565b6065546001600160a01b031633146105805760405162461bcd60e51b8152602060048201819052602482015260008051602061270f83398151915260448201526064015b60405180910390fd5b60d28190556040518181527fe63c291a066613fe10359993ab33123d8c5985f14ae0ccdfd066c63d537e2296906020015b60405180910390a150565b6000806105c7611600565b6040516001600160a01b038416602482015260006044820181905260648201819052908190309060840160408051601f198184030181529181526020820180517bffffffffffffffffffffffffffffffffffffffffffffffffffffffff167fe011b28900000000000000000000000000000000000000000000000000000000179052516106549190612464565b600060405180830381855afa9150503d806000811461068f576040519150601f19603f3d011682016040523d82523d6000602084013e610694565b606091505b5091509150816106e65760405162461bcd60e51b815260206004820152600a60248201527f71756f7465206661696c000000000000000000000000000000000000000000006044820152606401610577565b808060200190518101906106fa9190612480565b90969095509350505050565b6000610710611600565b60cd54604080517f6d2ed18400000000000000000000000000000000000000000000000000000000815290516000926001600160a01b031691636d2ed1849160048083019260209291908290030181865afa158015610773573d6000803e3d6000fd5b505050506040513d601f19601f8201168201806040525081019061079791906124a4565b90506107bc816107b66305f5e10060d15461165390919063ffffffff16565b90611668565b915060d2548211156107ce5760d25491505b5090565b6065546001600160a01b0316331461081a5760405162461bcd60e51b8152602060048201819052602482015260008051602061270f8339815191526044820152606401610577565b60d68190556040518181527fcf7f7495105ceec35e1d46b5a1330650da881193032a0a846d4c4d2e8d299304906020016105b1565b6065546001600160a01b031633146108975760405162461bcd60e51b8152602060048201819052602482015260008051602061270f8339815191526044820152606401610577565b60d38190556040518181527f36a68bf905dcbd4092d259543b986b02346ebd9663aaacc168ba581b44d63f6c906020016105b1565b6065546001600160a01b031633146109145760405162461bcd60e51b8152602060048201819052602482015260008051602061270f8339815191526044820152606401610577565b61091c611674565b565b6065546001600160a01b031633146109665760405162461bcd60e51b8152602060048201819052602482015260008051602061270f8339815191526044820152606401610577565b6001600160a01b0391909116600090815260d860205260409020805460ff1916911515919091179055565b6065546001600160a01b031633146109d95760405162461bcd60e51b8152602060048201819052602482015260008051602061270f8339815191526044820152606401610577565b612710811115610a2b5760405162461bcd60e51b815260206004820152600860248201527f6f766572726964650000000000000000000000000000000000000000000000006044820152606401610577565b60d08190556040518181527fc6d3d93e80290ad8687918eb1cd28293fa9e658800d205f09a6d73d2d5e0fbdf906020016105b1565b6065546001600160a01b03163314610aa85760405162461bcd60e51b8152602060048201819052602482015260008051602061270f8339815191526044820152606401610577565b61091c60006116c6565b6065546001600160a01b03163314610afa5760405162461bcd60e51b8152602060048201819052602482015260008051602061270f8339815191526044820152606401610577565b61091c611725565b6065546001600160a01b03163314610b4a5760405162461bcd60e51b8152602060048201819052602482015260008051602061270f8339815191526044820152606401610577565b610b70610b5f6065546001600160a01b031690565b6001600160a01b0384169083611762565b5050565b600080610b7f611600565b60d95460ff1615610be35733600090815260d8602052604090205460ff1680610ba757503330145b610be35760405162461bcd60e51b815260206004820152600d60248201526c085dda1a5d195b1a595cdd1959609a1b6044820152606401610577565b610bef84600185611371565b915091509250929050565b6065546001600160a01b03163314610c425760405162461bcd60e51b8152602060048201819052602482015260008051602061270f8339815191526044820152606401610577565b60d18190556040518181527f27fed2da20a195ee831c4e78ce2bd0cfc4be23b636e8820121f147336084971e906020016105b1565b600054610100900460ff1680610c8c5750303b155b80610c9a575060005460ff16155b610d0c5760405162461bcd60e51b815260206004820152602e60248201527f436f6e747261637420696e7374616e63652068617320616c726561647920626560448201527f656e20696e697469616c697a65640000000000000000000000000000000000006064820152608401610577565b600054610100900460ff16158015610d2e576000805461ffff19166101011790555b6001600160a01b038c16610d7a5760405162461bcd60e51b81526020600482015260136024820152724e6f7420612076616c6964206164647265737360681b6044820152606401610577565b6001600160a01b038b16610dc65760405162461bcd60e51b81526020600482015260136024820152724e6f7420612076616c6964206164647265737360681b6044820152606401610577565b6001600160a01b038a16610e125760405162461bcd60e51b81526020600482015260136024820152724e6f7420612076616c6964206164647265737360681b6044820152606401610577565b6001600160a01b038916610e5e5760405162461bcd60e51b81526020600482015260136024820152724e6f7420612076616c6964206164647265737360681b6044820152606401610577565b6001600160a01b038816610eaa5760405162461bcd60e51b81526020600482015260136024820152724e6f7420612076616c6964206164647265737360681b6044820152606401610577565b6001600160a01b038716610ef65760405162461bcd60e51b81526020600482015260136024820152724e6f7420612076616c6964206164647265737360681b6044820152606401610577565b6001600160a01b038616610f425760405162461bcd60e51b81526020600482015260136024820152724e6f7420612076616c6964206164647265737360681b6044820152606401610577565b612710851115610f895760405162461bcd60e51b81526020600482015260126024820152712737ba1030903b30b634b210373ab6b132b960711b6044820152606401610577565b83610fcb5760405162461bcd60e51b81526020600482015260126024820152712737ba1030903b30b634b210373ab6b132b960711b6044820152606401610577565b8261100d5760405162461bcd60e51b81526020600482015260126024820152712737ba1030903b30b634b210373ab6b132b960711b6044820152606401610577565b60c9805473ffffffffffffffffffffffffffffffffffffffff199081166001600160a01b038f81169190911790925560ca805482168e841617905560cb805482168d841617905560cc805482168c841617905560cd805482168b841617905560ce805482168a841617905560cf805490911691881691909117905560d085905560d184905560d382905560d283905560d76020527fa51546995d065b44a0663f742232ea3f69c2e6e2f799ed388e1fe3b148a95ee4805467ffffffffffffffff1990811661181067ffffffffffffffff908116919091179092557faf10985cb874cd725a16cb5769c92fd785332faac9dbd01b251e0a7221cbea75805482166118a78416179055600360008190527f22b9767c687db4fc60e8fd58df05805b96575c40fcf136626932ccd5579486f9805490921661193e90931692909217905560d4556111586119f0565b611160611a63565b8015611172576000805461ff00191690555b505050505050505050505050565b6065546001600160a01b031633146111c85760405162461bcd60e51b8152602060048201819052602482015260008051602061270f8339815191526044820152606401610577565b60d76020527fa51546995d065b44a0663f742232ea3f69c2e6e2f799ed388e1fe3b148a95ee4805467ffffffffffffffff611810811667ffffffffffffffff19928316179092557faf10985cb874cd725a16cb5769c92fd785332faac9dbd01b251e0a7221cbea7580546118a7841690831617905560036000527f22b9767c687db4fc60e8fd58df05805b96575c40fcf136626932ccd5579486f9805461193e90931692909116919091179055565b6065546001600160a01b031633146112bf5760405162461bcd60e51b8152602060048201819052602482015260008051602061270f8339815191526044820152606401610577565b60d9805460ff1916911515919091179055565b60008060cd60009054906101000a90046001600160a01b03166001600160a01b0316636e9a05c56040518163ffffffff1660e01b8152600401602060405180830381865afa158015611328573d6000803e3d6000fd5b505050506040513d601f19601f8201168201806040525081019061134c91906124a4565b905061136b816107b66305f5e10060d55461165390919063ffffffff16565b91505090565b60008061137c611600565b60d95460ff16156113e05733600090815260d8602052604090205460ff16806113a457503330145b6113e05760405162461bcd60e51b815260206004820152600d60248201526c085dda1a5d195b1a595cdd1959609a1b6044820152606401610577565b8380156113ed5750333014155b15611447576113fb33611ad6565b6114475760405162461bcd60e51b815260206004820152601360248201527f696e656c696720666f7220626f756e74696573000000000000000000000000006044820152606401610577565b600080600080611455610706565b9050611462898989611c13565b97509095509350915082156114795780955061149d565b831561149d5761149a6127106107b660d0548761165390919063ffffffff16565b95505b8780156114a957508515155b156114d757826114cb5760c9546114cb906001600160a01b0316833087611cc1565b6114d53387611d18565b505b50505050935093915050565b6065546001600160a01b0316331461152b5760405162461bcd60e51b8152602060048201819052602482015260008051602061270f8339815191526044820152606401610577565b60d555565b6065546001600160a01b031633146115785760405162461bcd60e51b8152602060048201819052602482015260008051602061270f8339815191526044820152606401610577565b6001600160a01b0381166115f45760405162461bcd60e51b815260206004820152602660248201527f4f776e61626c653a206e6577206f776e657220697320746865207a65726f206160448201527f64647265737300000000000000000000000000000000000000000000000000006064820152608401610577565b6115fd816116c6565b50565b60975460ff161561091c5760405162461bcd60e51b815260206004820152601060248201527f5061757361626c653a20706175736564000000000000000000000000000000006044820152606401610577565b600061165f82846124d3565b90505b92915050565b600061165f82846124f2565b61167c611f1c565b6097805460ff191690557f5db9ee0a495bf2e6ff9c91a7834c1ba4fdd244a5e8aa4e537bd38aeae4b073aa335b6040516001600160a01b03909116815260200160405180910390a1565b606580546001600160a01b0383811673ffffffffffffffffffffffffffffffffffffffff19831681179093556040519116919082907f8be0079c531659141344cd1fd0a4f28419497f9722a3daafe3b4186f6b6457e090600090a35050565b61172d611600565b6097805460ff191660011790557f62e78cea01bee320cd4e420270b5ea74000d11b0c9f74754ebdbfc544b05a2586116a93390565b6040516001600160a01b03831660248201526044810182905261180b9084907fa9059cbb00000000000000000000000000000000000000000000000000000000906064015b60408051601f198184030181529190526020810180517bffffffffffffffffffffffffffffffffffffffffffffffffffffffff167fffffffff0000000000000000000000000000000000000000000000000000000090931692909217909152611f6e565b505050565b60cb54604051637ab8955d60e01b81526001600160a01b03848116600483015283151560248301526000928392839290911690637ab8955d906044016020604051808303816000875af115801561186b573d6000803e3d6000fd5b505050506040513d601f19601f8201168201806040525081019061188f9190612514565b60cb546001600160a01b031696929550935090915050565b60cc54604051637ab8955d60e01b81526001600160a01b03848116600483015283151560248301526000928392839290911690637ab8955d906044016020604051808303816000875af1158015611902573d6000803e3d6000fd5b505050506040513d601f19601f820116820180604052508101906119269190612514565b60cc546001600160a01b031696929550935090915050565b60cf546040517f8f4320740000000000000000000000000000000000000000000000000000000081526001600160a01b03848116600483015283151560248301526000928392839290911690638f432074906044016020604051808303816000875af11580156119b2573d6000803e3d6000fd5b505050506040513d601f19601f820116820180604052508101906119d691906124a4565b60cf546001600160a01b0316969095506000945092505050565b600054610100900460ff16611a5b5760405162461bcd60e51b815260206004820152602b60248201527f496e697469616c697a61626c653a20636f6e7472616374206973206e6f74206960448201526a6e697469616c697a696e6760a81b6064820152608401610577565b61091c612053565b600054610100900460ff16611ace5760405162461bcd60e51b815260206004820152602b60248201527f496e697469616c697a61626c653a20636f6e7472616374206973206e6f74206960448201526a6e697469616c697a696e6760a81b6064820152608401610577565b61091c6120c7565b60cb546040517f0483a7f60000000000000000000000000000000000000000000000000000000081526001600160a01b0383811660048301526000928392911690630483a7f690602401600060405180830381865afa158015611b3d573d6000803e3d6000fd5b505050506040513d6000823e601f3d908101601f19168201604052611b6591908101906125a1565b505060ce546040517f660186e60000000000000000000000000000000000000000000000000000000081526001600160a01b038881166004830152929550600094509116915063660186e690602401602060405180830381865afa158015611bd1573d6000803e3d6000fd5b505050506040513d601f19601f82011682018060405250810190611bf59190612514565b9050611bff6112d2565b8210158015611c0b5750805b949350505050565b60008080808415611c5357600085815260d76020526040902054611c449088908890801561225e021763ffffffff16565b91955093509150849050611cb8565b60015b60d4548111611cb657600081815260d76020526040902054611c859089908990801561225e021763ffffffff16565b9196509450925083151580611c975750825b15611ca457809150611cb6565b80611cae816126aa565b915050611c56565b505b93509350935093565b6040516001600160a01b0380851660248301528316604482015260648101829052611d129085907f23b872dd00000000000000000000000000000000000000000000000000000000906084016117a7565b50505050565b600081611d2757506000611662565b60c9546040517f70a082310000000000000000000000000000000000000000000000000000000081523060048201526000916001600160a01b0316906370a0823190602401602060405180830381865afa158015611d89573d6000803e3d6000fd5b505050506040513d601f19601f82011682018060405250810190611dad91906124a4565b905080831115611e895760cb5460c954611dd4916001600160a01b03918216911683611762565b60cb546040516334686fad60e21b81526001600160a01b03868116600483015260248201849052600160448301529091169063d1a1beb490606401600060405180830381600087803b158015611e2957600080fd5b505af1158015611e3d573d6000803e3d6000fd5b505050507fe18877e49d8a98b9748ce4fc0451f1f2f20afbd428aa2f5d5cbbed3ba2d47b2281604051611e7291815260200190565b60405180910390a1611e82611725565b9050611662565b60cb5460c954611ea6916001600160a01b03918216911685611762565b60cb546040516334686fad60e21b81526001600160a01b03868116600483015260248201869052600160448301529091169063d1a1beb490606401600060405180830381600087803b158015611efb57600080fd5b505af1158015611f0f573d6000803e3d6000fd5b5050505082915050611662565b60975460ff1661091c5760405162461bcd60e51b815260206004820152601460248201527f5061757361626c653a206e6f74207061757365640000000000000000000000006044820152606401610577565b6000611fc3826040518060400160405280602081526020017f5361666545524332303a206c6f772d6c6576656c2063616c6c206661696c6564815250856001600160a01b031661213e9092919063ffffffff16565b80519091501561180b5780806020019051810190611fe19190612514565b61180b5760405162461bcd60e51b815260206004820152602a60248201527f5361666545524332303a204552433230206f7065726174696f6e20646964206e60448201527f6f742073756363656564000000000000000000000000000000000000000000006064820152608401610577565b600054610100900460ff166120be5760405162461bcd60e51b815260206004820152602b60248201527f496e697469616c697a61626c653a20636f6e7472616374206973206e6f74206960448201526a6e697469616c697a696e6760a81b6064820152608401610577565b61091c336116c6565b600054610100900460ff166121325760405162461bcd60e51b815260206004820152602b60248201527f496e697469616c697a61626c653a20636f6e7472616374206973206e6f74206960448201526a6e697469616c697a696e6760a81b6064820152608401610577565b6097805460ff19169055565b6060611c0b848460008585600080866001600160a01b031685876040516121659190612464565b60006040518083038185875af1925050503d80600081146121a2576040519150601f19603f3d011682016040523d82523d6000602084013e6121a7565b606091505b50915091506121b8878383876121c3565b979650505050505050565b6060831561222f578251612228576001600160a01b0385163b6122285760405162461bcd60e51b815260206004820152601d60248201527f416464726573733a2063616c6c20746f206e6f6e2d636f6e74726163740000006044820152606401610577565b5081611c0b565b611c0b83838151156122445781518083602001fd5b8060405162461bcd60e51b815260040161057791906126c5565b61091c6126f8565b60006020828403121561227857600080fd5b5035919050565b80356001600160a01b038116811461229657600080fd5b919050565b6000602082840312156122ad57600080fd5b61165f8261227f565b80151581146115fd57600080fd5b600080604083850312156122d757600080fd5b6122e08361227f565b915060208301356122f0816122b6565b809150509250929050565b6000806040838503121561230e57600080fd5b6123178361227f565b946020939093013593505050565b60008060008060008060008060008060006101608c8e03121561234757600080fd5b6123508c61227f565b9a5061235e60208d0161227f565b995061236c60408d0161227f565b985061237a60608d0161227f565b975061238860808d0161227f565b965061239660a08d0161227f565b95506123a460c08d0161227f565b945060e08c013593506101008c013592506101208c013591506101408c013590509295989b509295989b9093969950565b6000602082840312156123e757600080fd5b81356123f2816122b6565b9392505050565b60008060006060848603121561240e57600080fd5b6124178461227f565b92506020840135612427816122b6565b929592945050506040919091013590565b60005b8381101561245357818101518382015260200161243b565b83811115611d125750506000910152565b60008251612476818460208701612438565b9190910192915050565b6000806040838503121561249357600080fd5b505080516020909101519092909150565b6000602082840312156124b657600080fd5b5051919050565b634e487b7160e01b600052601160045260246000fd5b60008160001904831182151516156124ed576124ed6124bd565b500290565b60008261250f57634e487b7160e01b600052601260045260246000fd5b500490565b60006020828403121561252657600080fd5b81516123f2816122b6565b634e487b7160e01b600052604160045260246000fd5b6040516080810167ffffffffffffffff8111828210171561256a5761256a612531565b60405290565b604051601f8201601f1916810167ffffffffffffffff8111828210171561259957612599612531565b604052919050565b600080600080600060a086880312156125b957600080fd5b85519450602080870151945060408701519350606080880151935060808089015167ffffffffffffffff808211156125f057600080fd5b818b0191508b601f83011261260457600080fd5b81518181111561261657612616612531565b612624868260051b01612570565b818152868101925060079190911b83018601908d82111561264457600080fd5b928601925b818410156126965784848f0312156126615760008081fd5b612669612547565b84518152878501518882015260408086015190820152868501518782015283529284019291860191612649565b809750505050505050509295509295909350565b60006000198214156126be576126be6124bd565b5060010190565b60208152600082518060208401526126e4816040850160208701612438565b601f01601f19169190910160400192915050565b634e487b7160e01b600052605160045260246000fdfe4f776e61626c653a2063616c6c6572206973206e6f7420746865206f776e6572a264697066735822122097f5771ea587cb0718660b5863f5bf7db88ad71424ef8cfa9a3566fbf72b987664736f6c634300080c0033",
  "devdoc": {
    "kind": "dev",
    "methods": {
      "claim(address,uint256)": {
        "params": {
          "_actionType": "which of the 3 bounty types (above) to run.",
          "_user": "address can be a fixed amt (Base Bounty) or dynamic amt based on rewards removed from target user during execution (ineligible revenue, autocompound fee)"
        },
        "returns": {
          "actionType": "which bounty ran",
          "bounty": "in RDNT to be paid to Hunter (via vesting)"
        }
      },
      "executeBounty(address,bool,uint256)": {
        "params": {
          "_actionType": "which of the 3 bounty types (above) to run.",
          "_execute": "whether to execute this txn, or just quote what its execution would return can be a fixed amt (Base Bounty) or dynamic amt based on rewards removed from target user during execution (ineligible revenue, autocompound fee)",
          "_user": "address"
        },
        "returns": {
          "actionType": "which bounty ran",
          "bounty": "in RDNT to be paid to Hunter (via vesting)"
        }
      },
      "getBaseBounty()": {
        "returns": {
          "bounty": "in RDNT"
        }
      },
      "initialize(address,address,address,address,address,address,address,uint256,uint256,uint256,uint256)": {
        "params": {
          "_baseBountyUsdTarget": "Base Bounty is paid in RDNT, will scale to match this USD target value",
          "_bountyBooster": "when bounties need boosting to clear queue, add this amount (in RDNT)",
          "_chef": "CIC, to query bounties for ineligible emissions",
          "_hunterShare": "% of reclaimed rewards to send to Hunter",
          "_maxBaseBounty": "cap the scaling above",
          "_mfd": "MFD, to send bounties as vesting RDNT to Hunter (user calling bounty)",
          "_priceProvider": "PriceProvider service, to get RDNT price for bounty quotes",
          "_rdnt": "RDNT address",
          "_weth": "WETH address"
        }
      },
      "paused()": {
        "details": "Returns true if the contract is paused, and false otherwise."
      },
      "quote(address)": {
        "params": {
          "_user": "address"
        },
        "returns": {
          "actionType": "which of the 3 bounty types (above) to run. getBestBounty returns this based on priority (expired locks first, then inelig emissions, then autocompound)",
          "bounty": "amount of RDNT Hunter will recieve. can be a fixed amt (Base Bounty) or dynamic amt based on rewards removed from target user during execution (ineligible revenue, autocompound fee)"
        }
      }
    },
    "version": 1
  },
  "userdoc": {
    "kind": "user",
    "methods": {
      "claim(address,uint256)": {
        "notice": "Execute a bounty."
      },
      "executeBounty(address,bool,uint256)": {
        "notice": "Execute the most appropriate bounty on a user, check returned amount for slippage, calc amount going to Hunter, send to vesting."
      },
      "getBaseBounty()": {
        "notice": "Return RDNT amount for Base Bounty. Base Bounty used to incentivize operations that dont generate their own reward to pay to Hunter."
      },
      "initialize(address,address,address,address,address,address,address,uint256,uint256,uint256,uint256)": {
        "notice": "Initialize"
      },
      "quote(address)": {
        "notice": "Given a user, return their bounty amount. uses staticcall to run same bounty aglo, but without execution"
      }
    },
    "version": 1
  },
  "storageLayout": {
    "storage": [
      {
        "astId": 2237,
        "contract": "contracts/radiant/eligibility/BountyManager.sol:BountyManager",
        "label": "initialized",
        "offset": 0,
        "slot": "0",
        "type": "t_bool"
      },
      {
        "astId": 2240,
        "contract": "contracts/radiant/eligibility/BountyManager.sol:BountyManager",
        "label": "initializing",
        "offset": 1,
        "slot": "0",
        "type": "t_bool"
      },
      {
        "astId": 2307,
        "contract": "contracts/radiant/eligibility/BountyManager.sol:BountyManager",
        "label": "______gap",
        "offset": 0,
        "slot": "1",
        "type": "t_array(t_uint256)50_storage"
      },
      {
        "astId": 2230,
        "contract": "contracts/radiant/eligibility/BountyManager.sol:BountyManager",
        "label": "__gap",
        "offset": 0,
        "slot": "51",
        "type": "t_array(t_uint256)50_storage"
      },
      {
        "astId": 2318,
        "contract": "contracts/radiant/eligibility/BountyManager.sol:BountyManager",
        "label": "_owner",
        "offset": 0,
        "slot": "101",
        "type": "t_address"
      },
      {
        "astId": 2423,
        "contract": "contracts/radiant/eligibility/BountyManager.sol:BountyManager",
        "label": "__gap",
        "offset": 0,
        "slot": "102",
        "type": "t_array(t_uint256)49_storage"
      },
      {
        "astId": 2445,
        "contract": "contracts/radiant/eligibility/BountyManager.sol:BountyManager",
        "label": "_paused",
        "offset": 0,
        "slot": "151",
        "type": "t_bool"
      },
      {
        "astId": 2550,
        "contract": "contracts/radiant/eligibility/BountyManager.sol:BountyManager",
        "label": "__gap",
        "offset": 0,
        "slot": "152",
        "type": "t_array(t_uint256)49_storage"
      },
      {
        "astId": 5376,
        "contract": "contracts/radiant/eligibility/BountyManager.sol:BountyManager",
        "label": "rdnt",
        "offset": 0,
        "slot": "201",
        "type": "t_address"
      },
      {
        "astId": 5378,
        "contract": "contracts/radiant/eligibility/BountyManager.sol:BountyManager",
        "label": "weth",
        "offset": 0,
        "slot": "202",
        "type": "t_address"
      },
      {
        "astId": 5380,
        "contract": "contracts/radiant/eligibility/BountyManager.sol:BountyManager",
        "label": "mfd",
        "offset": 0,
        "slot": "203",
        "type": "t_address"
      },
      {
        "astId": 5382,
        "contract": "contracts/radiant/eligibility/BountyManager.sol:BountyManager",
        "label": "chef",
        "offset": 0,
        "slot": "204",
        "type": "t_address"
      },
      {
        "astId": 5384,
        "contract": "contracts/radiant/eligibility/BountyManager.sol:BountyManager",
        "label": "priceProvider",
        "offset": 0,
        "slot": "205",
        "type": "t_address"
      },
      {
        "astId": 5386,
        "contract": "contracts/radiant/eligibility/BountyManager.sol:BountyManager",
        "label": "eligibilityDataProvider",
        "offset": 0,
        "slot": "206",
        "type": "t_address"
      },
      {
        "astId": 5388,
        "contract": "contracts/radiant/eligibility/BountyManager.sol:BountyManager",
        "label": "compounder",
        "offset": 0,
        "slot": "207",
        "type": "t_address"
      },
      {
        "astId": 5390,
        "contract": "contracts/radiant/eligibility/BountyManager.sol:BountyManager",
        "label": "hunterShare",
        "offset": 0,
        "slot": "208",
        "type": "t_uint256"
      },
      {
        "astId": 5392,
        "contract": "contracts/radiant/eligibility/BountyManager.sol:BountyManager",
        "label": "baseBountyUsdTarget",
        "offset": 0,
        "slot": "209",
        "type": "t_uint256"
      },
      {
        "astId": 5394,
        "contract": "contracts/radiant/eligibility/BountyManager.sol:BountyManager",
        "label": "maxBaseBounty",
        "offset": 0,
        "slot": "210",
        "type": "t_uint256"
      },
      {
        "astId": 5396,
        "contract": "contracts/radiant/eligibility/BountyManager.sol:BountyManager",
        "label": "bountyBooster",
        "offset": 0,
        "slot": "211",
        "type": "t_uint256"
      },
      {
        "astId": 5398,
        "contract": "contracts/radiant/eligibility/BountyManager.sol:BountyManager",
        "label": "bountyCount",
        "offset": 0,
        "slot": "212",
        "type": "t_uint256"
      },
      {
        "astId": 5400,
        "contract": "contracts/radiant/eligibility/BountyManager.sol:BountyManager",
        "label": "minStakeAmount",
        "offset": 0,
        "slot": "213",
        "type": "t_uint256"
      },
      {
        "astId": 5402,
        "contract": "contracts/radiant/eligibility/BountyManager.sol:BountyManager",
        "label": "slippageLimit",
        "offset": 0,
        "slot": "214",
        "type": "t_uint256"
      },
      {
        "astId": 5418,
        "contract": "contracts/radiant/eligibility/BountyManager.sol:BountyManager",
        "label": "bounties",
        "offset": 0,
        "slot": "215",
        "type": "t_mapping(t_uint256,t_function_internal_nonpayable(t_address,t_bool)returns(t_address,t_uint256,t_bool))"
      },
      {
        "astId": 5422,
        "contract": "contracts/radiant/eligibility/BountyManager.sol:BountyManager",
        "label": "whitelist",
        "offset": 0,
        "slot": "216",
        "type": "t_mapping(t_address,t_bool)"
      },
      {
        "astId": 5424,
        "contract": "contracts/radiant/eligibility/BountyManager.sol:BountyManager",
        "label": "whitelistActive",
        "offset": 0,
        "slot": "217",
        "type": "t_bool"
      }
    ],
    "types": {
      "t_address": {
        "encoding": "inplace",
        "label": "address",
        "numberOfBytes": "20"
      },
      "t_array(t_uint256)49_storage": {
        "base": "t_uint256",
        "encoding": "inplace",
        "label": "uint256[49]",
        "numberOfBytes": "1568"
      },
      "t_array(t_uint256)50_storage": {
        "base": "t_uint256",
        "encoding": "inplace",
        "label": "uint256[50]",
        "numberOfBytes": "1600"
      },
      "t_bool": {
        "encoding": "inplace",
        "label": "bool",
        "numberOfBytes": "1"
      },
      "t_function_internal_nonpayable(t_address,t_bool)returns(t_address,t_uint256,t_bool)": {
        "encoding": "inplace",
        "label": "function (address,bool) returns (address,uint256,bool)",
        "numberOfBytes": "8"
      },
      "t_mapping(t_address,t_bool)": {
        "encoding": "mapping",
        "key": "t_address",
        "label": "mapping(address => bool)",
        "numberOfBytes": "32",
        "value": "t_bool"
      },
      "t_mapping(t_uint256,t_function_internal_nonpayable(t_address,t_bool)returns(t_address,t_uint256,t_bool))": {
        "encoding": "mapping",
        "key": "t_uint256",
        "label": "mapping(uint256 => function (address,bool) returns (address,uint256,bool))",
        "numberOfBytes": "32",
        "value": "t_function_internal_nonpayable(t_address,t_bool)returns(t_address,t_uint256,t_bool)"
      },
      "t_uint256": {
        "encoding": "inplace",
        "label": "uint256",
        "numberOfBytes": "32"
      }
    }
  }
}