{
  "address": "0x7b1BEA308c94a77FFed504E06fCc50b20633E461",
  "abi": [
    {
      "anonymous": false,
      "inputs": [
        {
          "indexed": true,
          "internalType": "address",
          "name": "previousOwner",
          "type": "address"
        },
        {
          "indexed": true,
          "internalType": "address",
          "name": "newOwner",
          "type": "address"
        }
      ],
      "name": "OwnershipTransferred",
      "type": "event"
    },
    {
      "inputs": [],
      "name": "canUpdate",
      "outputs": [
        {
          "internalType": "bool",
          "name": "",
          "type": "bool"
        }
      ],
      "stateMutability": "view",
      "type": "function"
    },
    {
      "inputs": [],
      "name": "consult",
      "outputs": [
        {
          "internalType": "uint256",
          "name": "price",
          "type": "uint256"
        }
      ],
      "stateMutability": "view",
      "type": "function"
    },
    {
      "inputs": [],
      "name": "decimals",
      "outputs": [
        {
          "internalType": "uint8",
          "name": "",
          "type": "uint8"
        }
      ],
      "stateMutability": "view",
      "type": "function"
    },
    {
      "inputs": [],
      "name": "description",
      "outputs": [
        {
          "internalType": "string",
          "name": "",
          "type": "string"
        }
      ],
      "stateMutability": "view",
      "type": "function"
    },
    {
      "inputs": [],
      "name": "ethChainlinkFeed",
      "outputs": [
        {
          "internalType": "contract AggregatorV3Interface",
          "name": "",
          "type": "address"
        }
      ],
      "stateMutability": "view",
      "type": "function"
    },
    {
      "inputs": [],
      "name": "ethLatestTimestamp",
      "outputs": [
        {
          "internalType": "uint256",
          "name": "",
          "type": "uint256"
        }
      ],
      "stateMutability": "view",
      "type": "function"
    },
    {
      "inputs": [
        {
          "internalType": "uint80",
          "name": "_roundId",
          "type": "uint80"
        }
      ],
      "name": "getRoundData",
      "outputs": [
        {
          "internalType": "uint80",
          "name": "roundId",
          "type": "uint80"
        },
        {
          "internalType": "int256",
          "name": "answer",
          "type": "int256"
        },
        {
          "internalType": "uint256",
          "name": "startedAt",
          "type": "uint256"
        },
        {
          "internalType": "uint256",
          "name": "updatedAt",
          "type": "uint256"
        },
        {
          "internalType": "uint80",
          "name": "answeredInRound",
          "type": "uint80"
        }
      ],
      "stateMutability": "view",
      "type": "function"
    },
    {
      "inputs": [
        {
          "internalType": "address",
          "name": "_token",
          "type": "address"
        },
        {
          "internalType": "address",
          "name": "_ethChainlinkFeed",
          "type": "address"
        },
        {
          "internalType": "address",
          "name": "_tokenChainlinkFeed",
          "type": "address"
        }
      ],
      "name": "initialize",
      "outputs": [],
      "stateMutability": "nonpayable",
      "type": "function"
    },
    {
      "inputs": [],
      "name": "latestAnswer",
      "outputs": [
        {
          "internalType": "uint256",
          "name": "price",
          "type": "uint256"
        }
      ],
      "stateMutability": "view",
      "type": "function"
    },
    {
      "inputs": [],
      "name": "latestAnswerInEth",
      "outputs": [
        {
          "internalType": "uint256",
          "name": "price",
          "type": "uint256"
        }
      ],
      "stateMutability": "view",
      "type": "function"
    },
    {
      "inputs": [],
      "name": "latestRoundData",
      "outputs": [
        {
          "internalType": "uint80",
          "name": "roundId",
          "type": "uint80"
        },
        {
          "internalType": "int256",
          "name": "answer",
          "type": "int256"
        },
        {
          "internalType": "uint256",
          "name": "startedAt",
          "type": "uint256"
        },
        {
          "internalType": "uint256",
          "name": "updatedAt",
          "type": "uint256"
        },
        {
          "internalType": "uint80",
          "name": "answeredInRound",
          "type": "uint80"
        }
      ],
      "stateMutability": "view",
      "type": "function"
    },
    {
      "inputs": [],
      "name": "owner",
      "outputs": [
        {
          "internalType": "address",
          "name": "",
          "type": "address"
        }
      ],
      "stateMutability": "view",
      "type": "function"
    },
    {
      "inputs": [],
      "name": "renounceOwnership",
      "outputs": [],
      "stateMutability": "nonpayable",
      "type": "function"
    },
    {
      "inputs": [],
      "name": "token",
      "outputs": [
        {
          "internalType": "address",
          "name": "",
          "type": "address"
        }
      ],
      "stateMutability": "view",
      "type": "function"
    },
    {
      "inputs": [],
      "name": "tokenChainlinkFeed",
      "outputs": [
        {
          "internalType": "contract AggregatorV3Interface",
          "name": "",
          "type": "address"
        }
      ],
      "stateMutability": "view",
      "type": "function"
    },
    {
      "inputs": [],
      "name": "tokenLatestTimestamp",
      "outputs": [
        {
          "internalType": "uint256",
          "name": "",
          "type": "uint256"
        }
      ],
      "stateMutability": "view",
      "type": "function"
    },
    {
      "inputs": [
        {
          "internalType": "address",
          "name": "newOwner",
          "type": "address"
        }
      ],
      "name": "transferOwnership",
      "outputs": [],
      "stateMutability": "nonpayable",
      "type": "function"
    },
    {
      "inputs": [],
      "name": "update",
      "outputs": [],
      "stateMutability": "nonpayable",
      "type": "function"
    },
    {
      "inputs": [],
      "name": "version",
      "outputs": [
        {
          "internalType": "uint256",
          "name": "",
          "type": "uint256"
        }
      ],
      "stateMutability": "view",
      "type": "function"
    }
  ],
  "transactionHash": "0x00ae8b586f958483e8d451401c1c881fd90916f3fdb848283d35a155316b20d6",
  "args": [],
  "numDeployments": 1,
  "solcInputHash": "6f5afb46d579e46d7d4d68cfc61334f5",
  "bytecode": "0x608060405234801561001057600080fd5b5061109f806100206000396000f3fe608060405234801561001057600080fd5b50600436106101515760003560e01c80638da5cb5b116100cd578063c0c53b8b11610081578063f2fde38b11610066578063f2fde38b14610293578063fc0c546a146102a6578063feaf968c146102b957600080fd5b8063c0c53b8b1461026d578063dd0184501461028057600080fd5b8063a17a2685116100b2578063a17a268514610243578063a2bc88dc14610252578063a2e620451461026557600080fd5b80638da5cb5b146101d45780639a6fc8f5146101f957600080fd5b8063715018a6116101245780637b659324116101095780637b659324146101ba5780637eeda703146101c3578063817d2982146101cb57600080fd5b8063715018a61461019b5780637284e416146101a557600080fd5b8063251cdcd814610156578063313ce5671461017157806350d25bcd1461018b57806354fd4d5014610193575b600080fd5b61015e6102c1565b6040519081526020015b60405180910390f35b610179610441565b60405160ff9091168152602001610168565b61015e6104cd565b61015e6105a2565b6101a3610629565b005b6101ad61068f565b6040516101689190610ddf565b61015e609a5481565b61015e61071a565b61015e609b5481565b6065546001600160a01b03165b6040516001600160a01b039091168152602001610168565b61020c610207366004610e2a565b610724565b6040805169ffffffffffffffffffff968716815260208101959095528401929092526060830152909116608082015260a001610168565b60405160008152602001610168565b6097546101e1906001600160a01b031681565b6101a36107d0565b6101a361027b366004610e65565b6108dd565b6098546101e1906001600160a01b031681565b6101a36102a1366004610ea8565b610b00565b6099546101e1906001600160a01b031681565b61020c610be2565b600080609860009054906101000a90046001600160a01b03166001600160a01b031663feaf968c6040518163ffffffff1660e01b815260040160a060405180830381865afa158015610317573d6000803e3d6000fd5b505050506040513d601f19601f8201168201806040525081019061033b9190610ec3565b5050509150506000609760009054906101000a90046001600160a01b03166001600160a01b031663feaf968c6040518163ffffffff1660e01b815260040160a060405180830381865afa158015610396573d6000803e3d6000fd5b505050506040513d601f19601f820116820180604052508101906103ba9190610ec3565b5050509150506000821380156103d05750600081135b6104215760405162461bcd60e51b815260206004820152601660248201527f5072696365206d75737420626520706f7369746976650000000000000000000060448201526064015b60405180910390fd5b80610430836305f5e100610f1b565b61043a9190610f48565b9250505090565b609854604080517f313ce56700000000000000000000000000000000000000000000000000000000815290516000926001600160a01b03169163313ce5679160048083019260209291908290030181865afa1580156104a4573d6000803e3d6000fd5b505050506040513d601f19601f820116820180604052508101906104c89190610f6a565b905090565b600080609860009054906101000a90046001600160a01b03166001600160a01b031663feaf968c6040518163ffffffff1660e01b815260040160a060405180830381865afa158015610523573d6000803e3d6000fd5b505050506040513d601f19601f820116820180604052508101906105479190610ec3565b5050509150506000811361059d5760405162461bcd60e51b815260206004820152601660248201527f5072696365206d75737420626520706f736974697665000000000000000000006044820152606401610418565b919050565b609854604080517f54fd4d5000000000000000000000000000000000000000000000000000000000815290516000926001600160a01b0316916354fd4d509160048083019260209291908290030181865afa158015610605573d6000803e3d6000fd5b505050506040513d601f19601f820116820180604052508101906104c89190610f8d565b6065546001600160a01b031633146106835760405162461bcd60e51b815260206004820181905260248201527f4f776e61626c653a2063616c6c6572206973206e6f7420746865206f776e65726044820152606401610418565b61068d6000610c72565b565b609854604080517f7284e41600000000000000000000000000000000000000000000000000000000815290516060926001600160a01b031691637284e4169160048083019260009291908290030181865afa1580156106f2573d6000803e3d6000fd5b505050506040513d6000823e601f3d908101601f191682016040526104c89190810190610fbc565b60006104c86104cd565b6098546040517f9a6fc8f500000000000000000000000000000000000000000000000000000000815269ffffffffffffffffffff8316600482015260009182918291829182916001600160a01b031690639a6fc8f59060240160a060405180830381865afa15801561079a573d6000803e3d6000fd5b505050506040513d601f19601f820116820180604052508101906107be9190610ec3565b939a9299509097509550909350915050565b609760009054906101000a90046001600160a01b03166001600160a01b031663feaf968c6040518163ffffffff1660e01b815260040160a060405180830381865afa158015610823573d6000803e3d6000fd5b505050506040513d601f19601f820116820180604052508101906108479190610ec3565b50609a555050609854604080517ffeaf968c00000000000000000000000000000000000000000000000000000000815290516001600160a01b03909216925063feaf968c9160048083019260a09291908290030181865afa1580156108b0573d6000803e3d6000fd5b505050506040513d601f19601f820116820180604052508101906108d49190610ec3565b50609b55505050565b600054610100900460ff16806108f25750303b155b80610900575060005460ff16155b6109725760405162461bcd60e51b815260206004820152602e60248201527f436f6e747261637420696e7374616e63652068617320616c726561647920626560448201527f656e20696e697469616c697a65640000000000000000000000000000000000006064820152608401610418565b600054610100900460ff16158015610994576000805461ffff19166101011790555b6001600160a01b0384166109ea5760405162461bcd60e51b815260206004820152601260248201527f746f6b656e2069732030206164647265737300000000000000000000000000006044820152606401610418565b6001600160a01b038316610a405760405162461bcd60e51b815260206004820152601d60248201527f657468436861696e6c696e6b46656564206973203020616464726573730000006044820152606401610418565b6001600160a01b038216610a965760405162461bcd60e51b815260206004820152601f60248201527f746f6b656e436861696e6c696e6b4665656420697320302061646472657373006044820152606401610418565b609780546001600160a01b0380861673ffffffffffffffffffffffffffffffffffffffff1992831617909255609880548584169083161790556099805492871692909116919091179055610ae8610cd1565b8015610afa576000805461ff00191690555b50505050565b6065546001600160a01b03163314610b5a5760405162461bcd60e51b815260206004820181905260248201527f4f776e61626c653a2063616c6c6572206973206e6f7420746865206f776e65726044820152606401610418565b6001600160a01b038116610bd65760405162461bcd60e51b815260206004820152602660248201527f4f776e61626c653a206e6577206f776e657220697320746865207a65726f206160448201527f64647265737300000000000000000000000000000000000000000000000000006064820152608401610418565b610bdf81610c72565b50565b6000806000806000609860009054906101000a90046001600160a01b03166001600160a01b031663feaf968c6040518163ffffffff1660e01b815260040160a060405180830381865afa158015610c3d573d6000803e3d6000fd5b505050506040513d601f19601f82011682018060405250810190610c619190610ec3565b945094509450945094509091929394565b606580546001600160a01b0383811673ffffffffffffffffffffffffffffffffffffffff19831681179093556040519116919082907f8be0079c531659141344cd1fd0a4f28419497f9722a3daafe3b4186f6b6457e090600090a35050565b600054610100900460ff16610d3c5760405162461bcd60e51b815260206004820152602b60248201527f496e697469616c697a61626c653a20636f6e7472616374206973206e6f74206960448201526a6e697469616c697a696e6760a81b6064820152608401610418565b61068d600054610100900460ff16610daa5760405162461bcd60e51b815260206004820152602b60248201527f496e697469616c697a61626c653a20636f6e7472616374206973206e6f74206960448201526a6e697469616c697a696e6760a81b6064820152608401610418565b61068d33610c72565b60005b83811015610dce578181015183820152602001610db6565b83811115610afa5750506000910152565b6020815260008251806020840152610dfe816040850160208701610db3565b601f01601f19169190910160400192915050565b69ffffffffffffffffffff81168114610bdf57600080fd5b600060208284031215610e3c57600080fd5b8135610e4781610e12565b9392505050565b80356001600160a01b038116811461059d57600080fd5b600080600060608486031215610e7a57600080fd5b610e8384610e4e565b9250610e9160208501610e4e565b9150610e9f60408501610e4e565b90509250925092565b600060208284031215610eba57600080fd5b610e4782610e4e565b600080600080600060a08688031215610edb57600080fd5b8551610ee681610e12565b809550506020860151935060408601519250606086015191506080860151610f0d81610e12565b809150509295509295909350565b6000816000190483118215151615610f4357634e487b7160e01b600052601160045260246000fd5b500290565b600082610f6557634e487b7160e01b600052601260045260246000fd5b500490565b600060208284031215610f7c57600080fd5b815160ff81168114610e4757600080fd5b600060208284031215610f9f57600080fd5b5051919050565b634e487b7160e01b600052604160045260246000fd5b600060208284031215610fce57600080fd5b815167ffffffffffffffff80821115610fe657600080fd5b818401915084601f830112610ffa57600080fd5b81518181111561100c5761100c610fa6565b604051601f8201601f19908116603f0116810190838211818310171561103457611034610fa6565b8160405282815287602084870101111561104d57600080fd5b61105e836020830160208801610db3565b97965050505050505056fea264697066735822122056bd4d7229d57f70c785439600507fad251257949e00b9e8a6b5f2bfde324d9864736f6c634300080c0033",
  "devdoc": {
    "kind": "dev",
    "methods": {},
    "version": 1
  },
  "userdoc": {
    "kind": "user",
    "methods": {},
    "version": 1
  },
  "storageLayout": {
    "storage": [
      {
        "astId": 5700,
        "contract": "contracts/radiant/oracles/ChainlinkV3Adapter.sol:ChainlinkV3Adapter",
        "label": "initialized",
        "offset": 0,
        "slot": "0",
        "type": "t_bool"
      },
      {
        "astId": 5703,
        "contract": "contracts/radiant/oracles/ChainlinkV3Adapter.sol:ChainlinkV3Adapter",
        "label": "initializing",
        "offset": 1,
        "slot": "0",
        "type": "t_bool"
      },
      {
        "astId": 5770,
        "contract": "contracts/radiant/oracles/ChainlinkV3Adapter.sol:ChainlinkV3Adapter",
        "label": "______gap",
        "offset": 0,
        "slot": "1",
        "type": "t_array(t_uint256)50_storage"
      },
      {
        "astId": 5693,
        "contract": "contracts/radiant/oracles/ChainlinkV3Adapter.sol:ChainlinkV3Adapter",
        "label": "__gap",
        "offset": 0,
        "slot": "51",
        "type": "t_array(t_uint256)50_storage"
      },
      {
        "astId": 5844,
        "contract": "contracts/radiant/oracles/ChainlinkV3Adapter.sol:ChainlinkV3Adapter",
        "label": "_owner",
        "offset": 0,
        "slot": "101",
        "type": "t_address"
      },
      {
        "astId": 5949,
        "contract": "contracts/radiant/oracles/ChainlinkV3Adapter.sol:ChainlinkV3Adapter",
        "label": "__gap",
        "offset": 0,
        "slot": "102",
        "type": "t_array(t_uint256)49_storage"
      },
      {
        "astId": 25482,
        "contract": "contracts/radiant/oracles/ChainlinkV3Adapter.sol:ChainlinkV3Adapter",
        "label": "ethChainlinkFeed",
        "offset": 0,
        "slot": "151",
        "type": "t_contract(AggregatorV3Interface)6215"
      },
      {
        "astId": 25485,
        "contract": "contracts/radiant/oracles/ChainlinkV3Adapter.sol:ChainlinkV3Adapter",
        "label": "tokenChainlinkFeed",
        "offset": 0,
        "slot": "152",
        "type": "t_contract(AggregatorV3Interface)6215"
      },
      {
        "astId": 25487,
        "contract": "contracts/radiant/oracles/ChainlinkV3Adapter.sol:ChainlinkV3Adapter",
        "label": "token",
        "offset": 0,
        "slot": "153",
        "type": "t_address"
      },
      {
        "astId": 25489,
        "contract": "contracts/radiant/oracles/ChainlinkV3Adapter.sol:ChainlinkV3Adapter",
        "label": "ethLatestTimestamp",
        "offset": 0,
        "slot": "154",
        "type": "t_uint256"
      },
      {
        "astId": 25491,
        "contract": "contracts/radiant/oracles/ChainlinkV3Adapter.sol:ChainlinkV3Adapter",
        "label": "tokenLatestTimestamp",
        "offset": 0,
        "slot": "155",
        "type": "t_uint256"
      }
    ],
    "types": {
      "t_address": {
        "encoding": "inplace",
        "label": "address",
        "numberOfBytes": "20"
      },
      "t_array(t_uint256)49_storage": {
        "base": "t_uint256",
        "encoding": "inplace",
        "label": "uint256[49]",
        "numberOfBytes": "1568"
      },
      "t_array(t_uint256)50_storage": {
        "base": "t_uint256",
        "encoding": "inplace",
        "label": "uint256[50]",
        "numberOfBytes": "1600"
      },
      "t_bool": {
        "encoding": "inplace",
        "label": "bool",
        "numberOfBytes": "1"
      },
      "t_contract(AggregatorV3Interface)6215": {
        "encoding": "inplace",
        "label": "contract AggregatorV3Interface",
        "numberOfBytes": "20"
      },
      "t_uint256": {
        "encoding": "inplace",
        "label": "uint256",
        "numberOfBytes": "32"
      }
    }
  }
}