{
  "address": "0xb3a0865F473fc101D77701EC3ba4Dc4281F252D3",
  "abi": [
    {
      "anonymous": false,
      "inputs": [
        {
          "indexed": true,
          "internalType": "address",
          "name": "token",
          "type": "address"
        },
        {
          "indexed": true,
          "internalType": "address",
          "name": "user",
          "type": "address"
        },
        {
          "indexed": false,
          "internalType": "uint256",
          "name": "balance",
          "type": "uint256"
        },
        {
          "indexed": false,
          "internalType": "uint256",
          "name": "totalSupply",
          "type": "uint256"
        }
      ],
      "name": "BalanceUpdated",
      "type": "event"
    },
    {
      "anonymous": false,
      "inputs": [
        {
          "indexed": false,
          "internalType": "uint256",
          "name": "_balance",
          "type": "uint256"
        }
      ],
      "name": "ChefReserveEmpty",
      "type": "event"
    },
    {
      "anonymous": false,
      "inputs": [
        {
          "indexed": false,
          "internalType": "uint256",
          "name": "_balance",
          "type": "uint256"
        }
      ],
      "name": "ChefReserveLow",
      "type": "event"
    },
    {
      "anonymous": false,
      "inputs": [
        {
          "indexed": true,
          "internalType": "address",
          "name": "user",
          "type": "address"
        }
      ],
      "name": "Disqualified",
      "type": "event"
    },
    {
      "anonymous": false,
      "inputs": [
        {
          "indexed": false,
          "internalType": "uint256[]",
          "name": "startTimeOffsets",
          "type": "uint256[]"
        },
        {
          "indexed": false,
          "internalType": "uint256[]",
          "name": "rewardsPerSeconds",
          "type": "uint256[]"
        }
      ],
      "name": "EmissionScheduleAppended",
      "type": "event"
    },
    {
      "anonymous": false,
      "inputs": [
        {
          "indexed": false,
          "internalType": "uint8",
          "name": "version",
          "type": "uint8"
        }
      ],
      "name": "Initialized",
      "type": "event"
    },
    {
      "anonymous": false,
      "inputs": [
        {
          "indexed": true,
          "internalType": "address",
          "name": "previousOwner",
          "type": "address"
        },
        {
          "indexed": true,
          "internalType": "address",
          "name": "newOwner",
          "type": "address"
        }
      ],
      "name": "OwnershipTransferred",
      "type": "event"
    },
    {
      "anonymous": false,
      "inputs": [
        {
          "indexed": false,
          "internalType": "address",
          "name": "account",
          "type": "address"
        }
      ],
      "name": "Paused",
      "type": "event"
    },
    {
      "anonymous": false,
      "inputs": [
        {
          "indexed": true,
          "internalType": "uint256",
          "name": "rewardsPerSecond",
          "type": "uint256"
        },
        {
          "indexed": false,
          "internalType": "bool",
          "name": "persist",
          "type": "bool"
        }
      ],
      "name": "RewardsPerSecondUpdated",
      "type": "event"
    },
    {
      "anonymous": false,
      "inputs": [
        {
          "indexed": false,
          "internalType": "address",
          "name": "account",
          "type": "address"
        }
      ],
      "name": "Unpaused",
      "type": "event"
    },
    {
      "inputs": [],
      "name": "accountedRewards",
      "outputs": [
        {
          "internalType": "uint256",
          "name": "",
          "type": "uint256"
        }
      ],
      "stateMutability": "view",
      "type": "function"
    },
    {
      "inputs": [
        {
          "internalType": "address",
          "name": "_token",
          "type": "address"
        },
        {
          "internalType": "uint256",
          "name": "_allocPoint",
          "type": "uint256"
        }
      ],
      "name": "addPool",
      "outputs": [],
      "stateMutability": "nonpayable",
      "type": "function"
    },
    {
      "inputs": [
        {
          "internalType": "address",
          "name": "_user",
          "type": "address"
        }
      ],
      "name": "afterLockUpdate",
      "outputs": [],
      "stateMutability": "nonpayable",
      "type": "function"
    },
    {
      "inputs": [
        {
          "internalType": "address",
          "name": "_user",
          "type": "address"
        }
      ],
      "name": "allPendingRewards",
      "outputs": [
        {
          "internalType": "uint256",
          "name": "pending",
          "type": "uint256"
        }
      ],
      "stateMutability": "view",
      "type": "function"
    },
    {
      "inputs": [
        {
          "internalType": "address[]",
          "name": "_tokens",
          "type": "address[]"
        },
        {
          "internalType": "uint256[]",
          "name": "_allocPoints",
          "type": "uint256[]"
        }
      ],
      "name": "batchUpdateAllocPoint",
      "outputs": [],
      "stateMutability": "nonpayable",
      "type": "function"
    },
    {
      "inputs": [
        {
          "internalType": "address",
          "name": "_user",
          "type": "address"
        }
      ],
      "name": "beforeLockUpdate",
      "outputs": [],
      "stateMutability": "nonpayable",
      "type": "function"
    },
    {
      "inputs": [],
      "name": "bountyManager",
      "outputs": [
        {
          "internalType": "address",
          "name": "",
          "type": "address"
        }
      ],
      "stateMutability": "view",
      "type": "function"
    },
    {
      "inputs": [
        {
          "internalType": "address",
          "name": "_user",
          "type": "address"
        },
        {
          "internalType": "address[]",
          "name": "_tokens",
          "type": "address[]"
        }
      ],
      "name": "claim",
      "outputs": [],
      "stateMutability": "nonpayable",
      "type": "function"
    },
    {
      "inputs": [
        {
          "internalType": "address",
          "name": "_user",
          "type": "address"
        }
      ],
      "name": "claimAll",
      "outputs": [],
      "stateMutability": "nonpayable",
      "type": "function"
    },
    {
      "inputs": [
        {
          "internalType": "address",
          "name": "_user",
          "type": "address"
        },
        {
          "internalType": "bool",
          "name": "_execute",
          "type": "bool"
        }
      ],
      "name": "claimBounty",
      "outputs": [
        {
          "internalType": "bool",
          "name": "issueBaseBounty",
          "type": "bool"
        }
      ],
      "stateMutability": "nonpayable",
      "type": "function"
    },
    {
      "inputs": [],
      "name": "depositedRewards",
      "outputs": [
        {
          "internalType": "uint256",
          "name": "",
          "type": "uint256"
        }
      ],
      "stateMutability": "view",
      "type": "function"
    },
    {
      "inputs": [],
      "name": "eligibilityEnabled",
      "outputs": [
        {
          "internalType": "bool",
          "name": "",
          "type": "bool"
        }
      ],
      "stateMutability": "view",
      "type": "function"
    },
    {
      "inputs": [
        {
          "internalType": "address",
          "name": "",
          "type": "address"
        }
      ],
      "name": "eligibilityExempt",
      "outputs": [
        {
          "internalType": "bool",
          "name": "",
          "type": "bool"
        }
      ],
      "stateMutability": "view",
      "type": "function"
    },
    {
      "inputs": [],
      "name": "eligibleDataProvider",
      "outputs": [
        {
          "internalType": "contract IEligibilityDataProvider",
          "name": "",
          "type": "address"
        }
      ],
      "stateMutability": "view",
      "type": "function"
    },
    {
      "inputs": [
        {
          "internalType": "uint256",
          "name": "",
          "type": "uint256"
        }
      ],
      "name": "emissionSchedule",
      "outputs": [
        {
          "internalType": "uint128",
          "name": "startTimeOffset",
          "type": "uint128"
        },
        {
          "internalType": "uint128",
          "name": "rewardsPerSecond",
          "type": "uint128"
        }
      ],
      "stateMutability": "view",
      "type": "function"
    },
    {
      "inputs": [],
      "name": "emissionScheduleIndex",
      "outputs": [
        {
          "internalType": "uint256",
          "name": "",
          "type": "uint256"
        }
      ],
      "stateMutability": "view",
      "type": "function"
    },
    {
      "inputs": [],
      "name": "endRewardTime",
      "outputs": [
        {
          "internalType": "uint256",
          "name": "timestamp",
          "type": "uint256"
        }
      ],
      "stateMutability": "view",
      "type": "function"
    },
    {
      "inputs": [
        {
          "internalType": "address",
          "name": "_user",
          "type": "address"
        },
        {
          "internalType": "uint256",
          "name": "_balance",
          "type": "uint256"
        },
        {
          "internalType": "uint256",
          "name": "_totalSupply",
          "type": "uint256"
        }
      ],
      "name": "handleActionAfter",
      "outputs": [],
      "stateMutability": "nonpayable",
      "type": "function"
    },
    {
      "inputs": [
        {
          "internalType": "address",
          "name": "_user",
          "type": "address"
        }
      ],
      "name": "handleActionBefore",
      "outputs": [],
      "stateMutability": "nonpayable",
      "type": "function"
    },
    {
      "inputs": [
        {
          "internalType": "address",
          "name": "_poolConfigurator",
          "type": "address"
        },
        {
          "internalType": "contract IEligibilityDataProvider",
          "name": "_eligibleDataProvider",
          "type": "address"
        },
        {
          "internalType": "contract IMiddleFeeDistribution",
          "name": "_rewardMinter",
          "type": "address"
        },
        {
          "internalType": "uint256",
          "name": "_rewardsPerSecond",
          "type": "uint256"
        }
      ],
      "name": "initialize",
      "outputs": [],
      "stateMutability": "nonpayable",
      "type": "function"
    },
    {
      "inputs": [],
      "name": "lastAllPoolUpdate",
      "outputs": [
        {
          "internalType": "uint256",
          "name": "",
          "type": "uint256"
        }
      ],
      "stateMutability": "view",
      "type": "function"
    },
    {
      "inputs": [],
      "name": "lastRPS",
      "outputs": [
        {
          "internalType": "uint256",
          "name": "",
          "type": "uint256"
        }
      ],
      "stateMutability": "view",
      "type": "function"
    },
    {
      "inputs": [],
      "name": "owner",
      "outputs": [
        {
          "internalType": "address",
          "name": "",
          "type": "address"
        }
      ],
      "stateMutability": "view",
      "type": "function"
    },
    {
      "inputs": [],
      "name": "pause",
      "outputs": [],
      "stateMutability": "nonpayable",
      "type": "function"
    },
    {
      "inputs": [],
      "name": "paused",
      "outputs": [
        {
          "internalType": "bool",
          "name": "",
          "type": "bool"
        }
      ],
      "stateMutability": "view",
      "type": "function"
    },
    {
      "inputs": [
        {
          "internalType": "address",
          "name": "_user",
          "type": "address"
        },
        {
          "internalType": "address[]",
          "name": "_tokens",
          "type": "address[]"
        }
      ],
      "name": "pendingRewards",
      "outputs": [
        {
          "internalType": "uint256[]",
          "name": "",
          "type": "uint256[]"
        }
      ],
      "stateMutability": "view",
      "type": "function"
    },
    {
      "inputs": [],
      "name": "persistRewardsPerSecond",
      "outputs": [
        {
          "internalType": "bool",
          "name": "",
          "type": "bool"
        }
      ],
      "stateMutability": "view",
      "type": "function"
    },
    {
      "inputs": [],
      "name": "poolConfigurator",
      "outputs": [
        {
          "internalType": "address",
          "name": "",
          "type": "address"
        }
      ],
      "stateMutability": "view",
      "type": "function"
    },
    {
      "inputs": [
        {
          "internalType": "address",
          "name": "",
          "type": "address"
        }
      ],
      "name": "poolInfo",
      "outputs": [
        {
          "internalType": "uint256",
          "name": "totalSupply",
          "type": "uint256"
        },
        {
          "internalType": "uint256",
          "name": "allocPoint",
          "type": "uint256"
        },
        {
          "internalType": "uint256",
          "name": "lastRewardTime",
          "type": "uint256"
        },
        {
          "internalType": "uint256",
          "name": "accRewardPerShare",
          "type": "uint256"
        },
        {
          "internalType": "contract IOnwardIncentivesController",
          "name": "onwardIncentives",
          "type": "address"
        }
      ],
      "stateMutability": "view",
      "type": "function"
    },
    {
      "inputs": [],
      "name": "poolLength",
      "outputs": [
        {
          "internalType": "uint256",
          "name": "",
          "type": "uint256"
        }
      ],
      "stateMutability": "view",
      "type": "function"
    },
    {
      "inputs": [
        {
          "internalType": "address",
          "name": "tokenAddress",
          "type": "address"
        },
        {
          "internalType": "uint256",
          "name": "tokenAmount",
          "type": "uint256"
        }
      ],
      "name": "recoverERC20",
      "outputs": [],
      "stateMutability": "nonpayable",
      "type": "function"
    },
    {
      "inputs": [
        {
          "internalType": "uint256",
          "name": "_amount",
          "type": "uint256"
        }
      ],
      "name": "registerRewardDeposit",
      "outputs": [],
      "stateMutability": "nonpayable",
      "type": "function"
    },
    {
      "inputs": [
        {
          "internalType": "uint256",
          "name": "",
          "type": "uint256"
        }
      ],
      "name": "registeredTokens",
      "outputs": [
        {
          "internalType": "address",
          "name": "",
          "type": "address"
        }
      ],
      "stateMutability": "view",
      "type": "function"
    },
    {
      "inputs": [],
      "name": "renounceOwnership",
      "outputs": [],
      "stateMutability": "nonpayable",
      "type": "function"
    },
    {
      "inputs": [],
      "name": "rewardMinter",
      "outputs": [
        {
          "internalType": "contract IMiddleFeeDistribution",
          "name": "",
          "type": "address"
        }
      ],
      "stateMutability": "view",
      "type": "function"
    },
    {
      "inputs": [],
      "name": "rewardsPerSecond",
      "outputs": [
        {
          "internalType": "uint256",
          "name": "",
          "type": "uint256"
        }
      ],
      "stateMutability": "view",
      "type": "function"
    },
    {
      "inputs": [
        {
          "internalType": "address",
          "name": "_bountyManager",
          "type": "address"
        }
      ],
      "name": "setBountyManager",
      "outputs": [],
      "stateMutability": "nonpayable",
      "type": "function"
    },
    {
      "inputs": [
        {
          "internalType": "bool",
          "name": "_newVal",
          "type": "bool"
        }
      ],
      "name": "setEligibilityEnabled",
      "outputs": [],
      "stateMutability": "nonpayable",
      "type": "function"
    },
    {
      "inputs": [
        {
          "internalType": "address",
          "name": "_contract",
          "type": "address"
        }
      ],
      "name": "setEligibilityExempt",
      "outputs": [],
      "stateMutability": "nonpayable",
      "type": "function"
    },
    {
      "inputs": [
        {
          "internalType": "uint256[]",
          "name": "_startTimeOffsets",
          "type": "uint256[]"
        },
        {
          "internalType": "uint256[]",
          "name": "_rewardsPerSecond",
          "type": "uint256[]"
        }
      ],
      "name": "setEmissionSchedule",
      "outputs": [],
      "stateMutability": "nonpayable",
      "type": "function"
    },
    {
      "inputs": [
        {
          "internalType": "address",
          "name": "_token",
          "type": "address"
        },
        {
          "internalType": "contract IOnwardIncentivesController",
          "name": "_incentives",
          "type": "address"
        }
      ],
      "name": "setOnwardIncentives",
      "outputs": [],
      "stateMutability": "nonpayable",
      "type": "function"
    },
    {
      "inputs": [
        {
          "internalType": "uint256",
          "name": "_rewardsPerSecond",
          "type": "uint256"
        },
        {
          "internalType": "bool",
          "name": "_persist",
          "type": "bool"
        }
      ],
      "name": "setRewardsPerSecond",
      "outputs": [],
      "stateMutability": "nonpayable",
      "type": "function"
    },
    {
      "inputs": [],
      "name": "start",
      "outputs": [],
      "stateMutability": "nonpayable",
      "type": "function"
    },
    {
      "inputs": [],
      "name": "startTime",
      "outputs": [
        {
          "internalType": "uint256",
          "name": "",
          "type": "uint256"
        }
      ],
      "stateMutability": "view",
      "type": "function"
    },
    {
      "inputs": [],
      "name": "totalAllocPoint",
      "outputs": [
        {
          "internalType": "uint256",
          "name": "",
          "type": "uint256"
        }
      ],
      "stateMutability": "view",
      "type": "function"
    },
    {
      "inputs": [
        {
          "internalType": "address",
          "name": "newOwner",
          "type": "address"
        }
      ],
      "name": "transferOwnership",
      "outputs": [],
      "stateMutability": "nonpayable",
      "type": "function"
    },
    {
      "inputs": [],
      "name": "unpause",
      "outputs": [],
      "stateMutability": "nonpayable",
      "type": "function"
    },
    {
      "inputs": [
        {
          "internalType": "address",
          "name": "",
          "type": "address"
        }
      ],
      "name": "userBaseClaimable",
      "outputs": [
        {
          "internalType": "uint256",
          "name": "",
          "type": "uint256"
        }
      ],
      "stateMutability": "view",
      "type": "function"
    },
    {
      "inputs": [
        {
          "internalType": "address",
          "name": "",
          "type": "address"
        },
        {
          "internalType": "address",
          "name": "",
          "type": "address"
        }
      ],
      "name": "userInfo",
      "outputs": [
        {
          "internalType": "uint256",
          "name": "amount",
          "type": "uint256"
        },
        {
          "internalType": "uint256",
          "name": "rewardDebt",
          "type": "uint256"
        },
        {
          "internalType": "uint256",
          "name": "enterTime",
          "type": "uint256"
        },
        {
          "internalType": "uint256",
          "name": "lastClaimTime",
          "type": "uint256"
        }
      ],
      "stateMutability": "view",
      "type": "function"
    }
  ],
  "transactionHash": "0x398cabd4ebe42f5079144370abb71c7160d224469c5b81db9d05f6540daee79b",
  "args": [],
  "numDeployments": 2,
  "solcInputHash": "83aca9987dc09d72e51a13e74e5f2774",
  "bytecode": "0x608060405234801561001057600080fd5b506139e6806100206000396000f3fe608060405234801561001057600080fd5b506004361061032b5760003560e01c80637ab8955d116101b2578063be05d3fb116100f9578063d0557090116100a2578063f2fde38b1161007c578063f2fde38b1461071a578063f5fe16101461072d578063f6d69c2814610740578063ff66a3051461075357600080fd5b8063d0557090146106e6578063de7e410c146106f9578063eacdaabc1461071157600080fd5b8063cccd82b0116100d3578063cccd82b0146106ad578063cd1a4d86146106c0578063cf756fdf146106d357600080fd5b8063be05d3fb1461067c578063be9a655514610685578063bfccff451461068d57600080fd5b80639a0ba2ea1161015b5780639b8e5563116101355780639b8e55631461064d578063b36b9ffd14610660578063ba04a1111461067357600080fd5b80639a0ba2ea146105b25780639a7b5f11146105c55780639b5a734f1461063c57600080fd5b80638980f11f1161018c5780638980f11f1461057b5780638da5cb5b1461058e5780638e2eba091461059f57600080fd5b80637ab8955d14610553578063800ce1da146105665780638456cb591461057357600080fd5b80633adcdfc8116102765780635fe4f7411161021f57806377329f35116101f957806377329f351461052e578063779f61691461054157806378e979251461054a57600080fd5b80635fe4f741146104f25780636d4f675c1461051d578063715018a61461052657600080fd5b80635c1a8ac6116102505780635c1a8ac6146104c15780635c975abb146104d45780635ea3f4fa146104df57600080fd5b80633adcdfc8146104865780633df8161c146104995780633f4ba83a146104b957600080fd5b80631b2064f7116102d857806332a9caba116102b257806332a9caba1461042d578063334d0bbd1461044057806334c542301461047357600080fd5b80631b2064f7146103f85780631d94f24d1461040557806325dc43871461041a57600080fd5b80630c634248116103095780630c634248146103865780630f208beb1461038f57806317caf6f1146103ef57600080fd5b806302a24770146103305780630702a95d1461034b578063081e3eda1461037e575b600080fd5b610338610766565b6040519081526020015b60405180910390f35b61036e61035936600461342a565b60a26020526000908152604090205460ff1681565b6040519015158152602001610342565b609954610338565b610338609c5481565b6103cf61039d366004613447565b60a060209081526000928352604080842090915290825290208054600182015460028301546003909301549192909184565b604080519485526020850193909352918301526060820152608001610342565b610338609f5481565b60985461036e9060ff1681565b610418610413366004613480565b6108db565b005b6104186104283660046134c3565b610ac6565b61041861043b3660046134e8565b610b25565b61045361044e366004613514565b610cc8565b604080516001600160801b03938416815292909116602083015201610342565b610418610481366004613579565b610cfd565b61041861049436600461342a565b610e7c565b6104ac6104a73660046135fb565b6111cf565b60405161034291906136d5565b610418611364565b6104186104cf36600461342a565b611376565b60335460ff1661036e565b6103386104ed36600461342a565b6113a2565b60a954610505906001600160a01b031681565b6040516001600160a01b039091168152602001610342565b61033860a55481565b61041861146e565b61041861053c36600461342a565b611480565b61033860a75481565b61033860a35481565b61036e610561366004613719565b6114e4565b60a45461036e9060ff1681565b610418611552565b6104186105893660046134e8565b611562565b6065546001600160a01b0316610505565b6104186105ad3660046135fb565b611594565b6105056105c0366004613514565b61180d565b61060b6105d336600461342a565b609d6020526000908152604090208054600182015460028301546003840154600490940154929391929091906001600160a01b031685565b6040805195865260208601949094529284019190915260608301526001600160a01b0316608082015260a001610342565b61041861064a36600461342a565b50565b60a854610505906001600160a01b031681565b60aa54610505906001600160a01b031681565b610338609b5481565b61033860a65481565b610418611837565b61033861069b36600461342a565b60a16020526000908152604090205481565b6104186106bb36600461342a565b611895565b6104186106ce366004613447565b611913565b6104186106e1366004613747565b6119a9565b6104186106f4366004613514565b611c2f565b60a4546105059061010090046001600160a01b031681565b610338609a5481565b61041861072836600461342a565b611c6f565b61041861073b366004613798565b611cfc565b61041861074e366004613579565b611d17565b61041861076136600461342a565b61203f565b60008061078060a65460a55461206990919063ffffffff16565b90506000805b6099548110156108a45760a754609d6000609984815481106107aa576107aa6137b5565b60009182526020808320909101546001600160a01b03168352820192909252604001902060020154116107dc57610892565b61088f610888609f54610882609a5461087c609d600060998981548110610805576108056137b5565b60009182526020808320909101546001600160a01b0316835282019290925260400181206001015460a75460998054929361087c93609d92908d90811061084e5761084e6137b5565b60009182526020808320909101546001600160a01b0316835282019290925260400190206002015490612069565b90612075565b90612081565b839061208d565b91505b8061089c816137e1565b915050610786565b50609a546108b6576000199250505090565b60a754609a546108ca9061088284866137fc565b6108d491906137fc565b9250505090565b336000908152609e602052604090205460ff168061091157506108fc612099565b6001600160a01b0316336001600160a01b0316145b6109625760405162461bcd60e51b815260206004820152600e60248201527f2172546f6b656e207c7c206d666400000000000000000000000000000000000060448201526064015b60405180910390fd5b60a8546001600160a01b03848116911614806109965750610981612099565b6001600160a01b0316836001600160a01b0316145b806109b957506001600160a01b038316600090815260a2602052604090205460ff165b156109c357505050565b60a45460ff1615610aba5760a954604051630afb040960e01b81526001600160a01b03858116600483015290911690630afb040990602401600060405180830381600087803b158015610a1557600080fd5b505af1158015610a29573d6000803e3d6000fd5b505060a954604051633300c37360e11b81526001600160a01b038781166004830152909116925063660186e69150602401602060405180830381865afa158015610a77573d6000803e3d6000fd5b505050506040513d601f19601f82011682018060405250810190610a9b9190613814565b15610ab157610aac33848484612113565b505050565b610aac83612369565b610aac33848484612113565b610ace612374565b610ad66123ce565b609a8290556098805460ff191682151590811790915560405190815282907f91bb2acfac3265da2e9b45e815cdcb50f9b349454c54e812590ecb5d109ae8dc9060200160405180910390a25050565b60a45461010090046001600160a01b03163314610b845760405162461bcd60e51b815260206004820152600b60248201527f6e6f7420616c6c6f7765640000000000000000000000000000000000000000006044820152606401610959565b6001600160a01b0382166000908152609d602052604090206002015415610bed5760405162461bcd60e51b815260206004820152601360248201527f706f6f6c20616c726561647920657869737473000000000000000000000000006044820152606401610959565b610bf561243c565b609f54610c02908261208d565b609f556099805460018082019092557f72a152ddfb8e864297c917af52ea6c1c68aead0fee1a62673fcc7e0c94979d000180546001600160a01b03199081166001600160a01b039586169081179092556040805160a08101825260008082526020808301978852428385019081526060840183815260808501848152978452609d835285842094518555985184890155516002840155965160038301559351600490910180549093169616959095179055609e909252919020805460ff19169091179055565b60978181548110610cd857600080fd5b6000918252602090912001546001600160801b038082169250600160801b9091041682565b610d05612374565b828114610d545760405162461bcd60e51b815260206004820152601660248201527f706172616d73206c656e677468206d69736d61746368000000000000000000006044820152606401610959565b610d5c6123ce565b609f5460005b84811015610e72576000609d6000888885818110610d8257610d826137b5565b9050602002016020810190610d97919061342a565b6001600160a01b03166001600160a01b0316815260200190815260200160002090506000816002015411610e025760405162461bcd60e51b81526020600482015260126024820152711c1bdbdb08191bd95cdb89dd08195e1a5cdd60721b6044820152606401610959565b610e3b858584818110610e1757610e176137b5565b90506020020135610e3583600101548661206990919063ffffffff16565b9061208d565b9250848483818110610e4f57610e4f6137b5565b905060200201358160010181905550508080610e6a906137e1565b915050610d62565b50609f5550505050565b610e84612099565b6001600160a01b0316336001600160a01b031614610ee65760405162461bcd60e51b81526004016109599060208082526004908201527f214d464400000000000000000000000000000000000000000000000000000000604082015260600190565b60a45460ff161561064a5760a960009054906101000a90046001600160a01b03166001600160a01b031663673a7e286040518163ffffffff1660e01b8152600401600060405180830381600087803b158015610f4157600080fd5b505af1158015610f55573d6000803e3d6000fd5b505060a954604051633300c37360e11b81526001600160a01b038581166004830152909116925063660186e69150602401602060405180830381865afa158015610fa3573d6000803e3d6000fd5b505050506040513d601f19601f82011682018060405250810190610fc79190613814565b1561116d5760005b60995481101561116b57600060998281548110610fee57610fee6137b5565b6000918252602090912001546040516370a0823160e01b81526001600160a01b038581166004830152909116906370a0823190602401602060405180830381865afa158015611041573d6000803e3d6000fd5b505050506040513d601f19601f820116820180604052508101906110659190613831565b9050600060a0600060998581548110611080576110806137b5565b60009182526020808320909101546001600160a01b0390811684528382019490945260409283018220938816825292909252902054905081158015906110c65750808214155b1561115657611156609984815481106110e1576110e16137b5565b9060005260206000200160009054906101000a90046001600160a01b031685846111518561114b88609d600060998d81548110611120576111206137b5565b60009182526020808320909101546001600160a01b031683528201929092526040019020549061208d565b90612069565b612113565b50508080611163906137e1565b915050610fcf565b505b60a954604051630afb040960e01b81526001600160a01b03838116600483015290911690630afb040990602401600060405180830381600087803b1580156111b457600080fd5b505af11580156111c8573d6000803e3d6000fd5b5050505050565b60606000825167ffffffffffffffff8111156111ed576111ed6135e5565b604051908082528060200260200182016040528015611216578160200160208202803683370190505b50905060005b835181101561135a576000848281518110611239576112396137b5565b6020908102919091018101516001600160a01b038082166000908152609d8452604080822060a08652818320938c168352929094529290922060038301548354600285015493955091929091904211801561129357508015155b156112fc5760006112b185600201544261206990919063ffffffff16565b905060006112d8609f54610882886001015461087c609a548761207590919063ffffffff16565b90506112f76112f0846108828464e8d4a51000612075565b859061208d565b935050505b611324836001015461114b64e8d4a5100061088286886000015461207590919063ffffffff16565b878781518110611336576113366137b5565b60200260200101818152505050505050508080611352906137e1565b91505061121c565b5090505b92915050565b61136c612374565b611374612468565b565b61137e612374565b6001600160a01b0316600090815260a260205260409020805460ff19166001179055565b6001600160a01b038116600090815260a160209081526040808320546099805483518186028101860190945280845291949361142093879390929183018282801561141657602002820191906000526020600020905b81546001600160a01b031681526001909101906020018083116113f8575b50505050506111cf565b905060005b815181101561146757818181518110611440576114406137b5565b60200260200101518361145391906137fc565b92508061145f816137e1565b915050611425565b5050919050565b611476612374565b61137460006124ba565b61064a8160998054806020026020016040519081016040528092919081815260200182805480156114da57602002820191906000526020600020905b81546001600160a01b031681526001909101906020018083116114bc575b5050505050611594565b60aa546000906001600160a01b031633146115415760405162461bcd60e51b815260206004820152600b60248201527f626f756e7479206f6e6c790000000000000000000000000000000000000000006044820152606401610959565b61154b838361250c565b9392505050565b61155a612374565b6113746126f2565b61156a612374565b61159061157f6065546001600160a01b031690565b6001600160a01b038416908361272f565b5050565b61159c6127af565b60a45460ff16156115b0576115b082612369565b6115b861243c565b6001600160a01b038216600090815260a160205260408120805490829055609f5490915b83518110156117d957609e60008583815181106115fb576115fb6137b5565b6020908102919091018101516001600160a01b031682528101919091526040016000205460ff1661166e5760405162461bcd60e51b815260206004820152600e60248201527f696e76616c69642072746f6b656e0000000000000000000000000000000000006044820152606401610959565b6000609d6000868481518110611686576116866137b5565b60200260200101516001600160a01b03166001600160a01b03168152602001908152602001600020905060008160020154116116f95760405162461bcd60e51b81526020600482015260126024820152711c1bdbdb08191bd95cdb89dd08195e1a5cdd60721b6044820152606401610959565b6117038184612802565b600060a0600087858151811061171b5761171b6137b5565b60200260200101516001600160a01b03166001600160a01b031681526020019081526020016000206000886001600160a01b03166001600160a01b031681526020019081526020016000209050600061178e64e8d4a510006108828560030154856000015461207590919063ffffffff16565b90506117b16117aa83600101548361206990919063ffffffff16565b879061208d565b60018301919091554260039092019190915593508190506117d1816137e1565b9150506115dc565b506117e484836128f4565b6117f142620697806137fc565b6117f9610766565b101561180757611807612998565b50505050565b6099818154811061181d57600080fd5b6000918252602090912001546001600160a01b0316905081565b61183f612374565b60a3541561188f5760405162461bcd60e51b815260206004820152600f60248201527f616c7265616479207374617274656400000000000000000000000000000000006044820152606401610959565b4260a355565b61189d612099565b6001600160a01b0316336001600160a01b0316146118ff5760405162461bcd60e51b81526004016109599060208082526004908201527f216d666400000000000000000000000000000000000000000000000000000000604082015260600190565b60a45460ff161561064a5761064a81612369565b61191b612374565b6001600160a01b0382166000908152609d60205260409020600201546119785760405162461bcd60e51b81526020600482015260126024820152711c1bdbdb08191bd95cdb89dd08195e1a5cdd60721b6044820152606401610959565b6001600160a01b039182166000908152609d6020526040902060040180546001600160a01b03191691909216179055565b600054610100900460ff16158080156119c95750600054600160ff909116105b806119e35750303b1580156119e3575060005460ff166001145b611a555760405162461bcd60e51b815260206004820152602e60248201527f496e697469616c697a61626c653a20636f6e747261637420697320616c72656160448201527f647920696e697469616c697a65640000000000000000000000000000000000006064820152608401610959565b6000805460ff191660011790558015611a78576000805461ff0019166101001790555b6001600160a01b038516611ac15760405162461bcd60e51b815260206004820152601060248201526f21696e76616c6964206164647265737360801b6044820152606401610959565b6001600160a01b038416611b0a5760405162461bcd60e51b815260206004820152601060248201526f21696e76616c6964206164647265737360801b6044820152606401610959565b6001600160a01b038316611b535760405162461bcd60e51b815260206004820152601060248201526f21696e76616c6964206164647265737360801b6044820152606401610959565b611b5b612aa7565b611b63612b1a565b60a4805460a980546001600160a01b038881166001600160a01b03199283161790925560a880548884169216919091179055609a8590556098805460ff19908116600190811790925591891661010002919091167fffffffffffffffffffffff0000000000000000000000000000000000000000009092169190911717905580156111c8576000805461ff0019169055604051600181527f7f26b83ff96e1f2b6a682f133852f6798a09c465da95921460cefb3847402498906020015b60405180910390a15050505050565b611c37612374565b60a554611c44908261208d565b60a555611c4f6123ce565b609a54158015611c6157506000609b54115b1561064a57609b54609a5550565b611c77612374565b6001600160a01b038116611cf35760405162461bcd60e51b815260206004820152602660248201527f4f776e61626c653a206e6577206f776e657220697320746865207a65726f206160448201527f64647265737300000000000000000000000000000000000000000000000000006064820152608401610959565b61064a816124ba565b611d04612374565b60a4805460ff1916911515919091179055565b611d1f612374565b828015801590611d2e57508082145b611d7a5760405162461bcd60e51b815260206004820152601860248201527f656d707479206f72206d69736d6174636820706172616d7300000000000000006044820152606401610959565b60005b81811015612009578015611e1657858582818110611d9d57611d9d6137b5565b905060200201358686600184611db3919061384a565b818110611dc257611dc26137b5565b9050602002013510611e165760405162461bcd60e51b815260206004820152601360248201527f73686f756c6420626520617363656e64696e67000000000000000000000000006044820152606401610959565b6001600160801b03868683818110611e3057611e306137b5565b905060200201351115611e855760405162461bcd60e51b815260206004820152601e60248201527f737461727454696d654f666673657473203e206d61782075696e7431323800006044820152606401610959565b6001600160801b03848483818110611e9f57611e9f6137b5565b905060200201351115611ef45760405162461bcd60e51b815260206004820152601e60248201527f726577617264735065725365636f6e64203e206d61782075696e7431323800006044820152606401610959565b60a35415611f705760a354611f0a904290612069565b868683818110611f1c57611f1c6137b5565b9050602002013511611f705760405162461bcd60e51b815260206004820152601260248201527f696e76616c69642073746172742074696d6500000000000000000000000000006044820152606401610959565b60976040518060400160405280888885818110611f8f57611f8f6137b5565b905060200201356001600160801b03168152602001868685818110611fb657611fb66137b5565b6001600160801b03602091820293909301358316909352508354600181018555600094855293829020835193909201518116600160801b0292169190911791015580612001816137e1565b915050611d7d565b507f0a4b885eafe78f585b7c7667ea419f9b1b17d09dfdf23ffa7925b73db6986f1685858585604051611c2094939291906138b0565b612047612374565b60aa80546001600160a01b0319166001600160a01b0392909216919091179055565b600061154b828461384a565b600061154b82846138d7565b600061154b82846138f6565b600061154b82846137fc565b60008060a860009054906101000a90046001600160a01b03166001600160a01b031663cd57ed6c6040518163ffffffff1660e01b8152600401602060405180830381865afa1580156120ef573d6000803e3d6000fd5b505050506040513d601f19601f8201168201806040525081019061135e9190613918565b6001600160a01b0384166000908152609d6020526040902060028101546121715760405162461bcd60e51b81526020600482015260126024820152711c1bdbdb08191bd95cdb89dd08195e1a5cdd60721b6044820152606401610959565b61217961243c565b61218581609f54612802565b6001600160a01b03808616600090815260a06020908152604080832093881683529290522080546003830154811561221d5760018301546000906121d69061114b64e8d4a510006108828787612075565b9050801561221b576001600160a01b038816600090815260a16020526040902054612201908261208d565b6001600160a01b038916600090815260a160205260409020555b505b8254845461222a91612069565b845585835561224264e8d4a510006108828884612075565b6001840155825415612255574260028401555b8354612261908761208d565b845560048401546001600160a01b031615612309576004848101546040517fae0b53710000000000000000000000000000000000000000000000000000000081526001600160a01b038b8116938201939093528983166024820152604481018990526064810188905291169063ae0b537190608401600060405180830381600087803b1580156122f057600080fd5b505af1158015612304573d6000803e3d6000fd5b505050505b866001600160a01b0316886001600160a01b03167f526824944047da5b81071fb6349412005c5da81380b336103fbe5dd34556c7768888604051612357929190918252602082015260400190565b60405180910390a35050505050505050565b61159081600161250c565b6065546001600160a01b031633146113745760405162461bcd60e51b815260206004820181905260248201527f4f776e61626c653a2063616c6c6572206973206e6f7420746865206f776e65726044820152606401610959565b609f5460995460005b8181101561243357612423609d6000609984815481106123f9576123f96137b5565b60009182526020808320909101546001600160a01b03168352820192909252604001902084612802565b61242c816137e1565b90506123d7565b50504260a75550565b612444610766565b421115612460576124536123ce565b609a8054609b5560009055565b611374612b8d565b612470612c5a565b6033805460ff191690557f5db9ee0a495bf2e6ff9c91a7834c1ba4fdd244a5e8aa4e537bd38aeae4b073aa335b6040516001600160a01b03909116815260200160405180910390a1565b606580546001600160a01b038381166001600160a01b0319831681179093556040519116919082907f8be0079c531659141344cd1fd0a4f28419497f9722a3daafe3b4186f6b6457e090600090a35050565b60a954604051633300c37360e11b81526001600160a01b038481166004830152600092839291169063660186e690602401602060405180830381865afa15801561255a573d6000803e3d6000fd5b505050506040513d601f19601f8201168201806040525081019061257e9190613814565b9050600061258b85612cac565b60a9546040517f6f21a1790000000000000000000000000000000000000000000000000000000081526001600160a01b03888116600483015292935060009290911690636f21a17990602401602060405180830381865afa1580156125f4573d6000803e3d6000fd5b505050506040513d601f19601f820116820180604052508101906126189190613831565b9050801515831580156126285750825b8015612632575080155b1561263c57600194505b8580156126465750845b156126e85761265487612d34565b6040516001600160a01b038816907fa77719a89d2325682411f1762214545e5d0fc4b374cc00cb48fcd390a670f2e190600090a260a954604051630afb040960e01b81526001600160a01b03898116600483015290911690630afb040990602401600060405180830381600087803b1580156126cf57600080fd5b505af11580156126e3573d6000803e3d6000fd5b505050505b5050505092915050565b6126fa6127af565b6033805460ff191660011790557f62e78cea01bee320cd4e420270b5ea74000d11b0c9f74754ebdbfc544b05a25861249d3390565b604080516001600160a01b038416602482015260448082018490528251808303909101815260649091019091526020810180517bffffffffffffffffffffffffffffffffffffffffffffffffffffffff167fa9059cbb00000000000000000000000000000000000000000000000000000000179052610aac908490612f21565b60335460ff16156113745760405162461bcd60e51b815260206004820152601060248201527f5061757361626c653a20706175736564000000000000000000000000000000006044820152606401610959565b428061280c610766565b1161281c57612819610766565b90505b8260020154811161282c57505050565b825480612840575060029092019190915550565b600061285985600201548461206990919063ffffffff16565b90506000612872609a548361207590919063ffffffff16565b90508061287d613006565b101561288e5761288b613006565b90505b60006128ab8661088289600101548561207590919063ffffffff16565b60a6549091506128bb908261208d565b60a6556128df6128d4856108828464e8d4a51000612075565b60038901549061208d565b60038801555050505060029092019190915550565b6129056128ff612099565b82613024565b905061290f612099565b6040517fd1a1beb40000000000000000000000000000000000000000000000000000000081526001600160a01b0384811660048301526024820184905260016044830152919091169063d1a1beb4906064015b600060405180830381600087803b15801561297c57600080fd5b505af1158015612990573d6000803e3d6000fd5b505050505050565b60a8546040805163ab453a5960e01b815290516000926001600160a01b03169163ab453a599160048083019260209291908290030181865afa1580156129e2573d6000803e3d6000fd5b505050506040513d601f19601f82011682018060405250810190612a069190613918565b6040516370a0823160e01b81523060048201529091507f1681e542d7f33ef0ad012aecd346fa867be856110f81d25dcbbd72f972a57a45906001600160a01b038316906370a0823190602401602060405180830381865afa158015612a6f573d6000803e3d6000fd5b505050506040513d601f19601f82011682018060405250810190612a939190613831565b60405190815260200160405180910390a150565b600054610100900460ff16612b125760405162461bcd60e51b815260206004820152602b60248201527f496e697469616c697a61626c653a20636f6e7472616374206973206e6f74206960448201526a6e697469616c697a696e6760a81b6064820152608401610959565b611374613176565b600054610100900460ff16612b855760405162461bcd60e51b815260206004820152602b60248201527f496e697469616c697a61626c653a20636f6e7472616374206973206e6f74206960448201526a6e697469616c697a696e6760a81b6064820152608401610959565b6113746131ea565b60985460ff1661137457609754609c5460a354600090612bae904290612069565b90505b8282108015612beb575060978281548110612bce57612bce6137b5565b6000918252602090912001546001600160801b0390811690821610155b15612c025781612bfa816137e1565b925050612bb1565b609c54821115610aac57609c829055612c196123ce565b6097612c2660018461384a565b81548110612c3657612c366137b5565b600091825260209091200154600160801b90046001600160801b0316609a55505050565b60335460ff166113745760405162461bcd60e51b815260206004820152601460248201527f5061757361626c653a206e6f74207061757365640000000000000000000000006044820152606401610959565b6000805b609954811015612d2e57600060a0600060998481548110612cd357612cd36137b5565b60009182526020808320909101546001600160a01b03908116845283820194909452604092830182209388168252929092529020805490915015612d1b576001925050612d2e565b5080612d26816137e1565b915050612cb0565b50919050565b60a45460ff16612d865760405162461bcd60e51b815260206004820152600360248201527f21454500000000000000000000000000000000000000000000000000000000006044820152606401610959565b60a954604051633300c37360e11b81526001600160a01b0383811660048301529091169063660186e690602401602060405180830381865afa158015612dd0573d6000803e3d6000fd5b505050506040513d601f19601f82011682018060405250810190612df49190613814565b15612e415760405162461bcd60e51b815260206004820152601660248201527f75736572206973207374696c6c20656c696769626c65000000000000000000006044820152606401610959565b60995460005b81811015612ecf57600060998281548110612e6457612e646137b5565b60009182526020808320909101546001600160a01b03908116808452609d8352604080852060a08552818620938a168652929093529183208054825493955091939092612ebb9286928a9290916111519190612069565b50505080612ec8906137e1565b9050612e47565b5060a9546040517fe2c75ca00000000000000000000000000000000000000000000000000000000081526001600160a01b0384811660048301524260248301529091169063e2c75ca090604401612962565b6000612f76826040518060400160405280602081526020017f5361666545524332303a206c6f772d6c6576656c2063616c6c206661696c6564815250856001600160a01b03166132619092919063ffffffff16565b805190915015610aac5780806020019051810190612f949190613814565b610aac5760405162461bcd60e51b815260206004820152602a60248201527f5361666545524332303a204552433230206f7065726174696f6e20646964206e60448201527f6f742073756363656564000000000000000000000000000000000000000000006064820152608401610959565b600061301f60a65460a55461206990919063ffffffff16565b905090565b6000816130335750600061135e565b60a8546040805163ab453a5960e01b815290516000926001600160a01b03169163ab453a599160048083019260209291908290030181865afa15801561307d573d6000803e3d6000fd5b505050506040513d601f19601f820116820180604052508101906130a19190613918565b6040516370a0823160e01b81523060048201529091506000906001600160a01b038316906370a0823190602401602060405180830381865afa1580156130eb573d6000803e3d6000fd5b505050506040513d601f19601f8201168201806040525081019061310f9190613831565b905080841115613159576040518181527f09fb3e34da56fdc0b28f9769c6dcb55321715bc673f744205e208b82c97963c99060200160405180910390a16131546126f2565b61316d565b61316d6001600160a01b038316868661272f565b50919392505050565b600054610100900460ff166131e15760405162461bcd60e51b815260206004820152602b60248201527f496e697469616c697a61626c653a20636f6e7472616374206973206e6f74206960448201526a6e697469616c697a696e6760a81b6064820152608401610959565b611374336124ba565b600054610100900460ff166132555760405162461bcd60e51b815260206004820152602b60248201527f496e697469616c697a61626c653a20636f6e7472616374206973206e6f74206960448201526a6e697469616c697a696e6760a81b6064820152608401610959565b6033805460ff19169055565b60606132708484600085613278565b949350505050565b6060824710156132f05760405162461bcd60e51b815260206004820152602660248201527f416464726573733a20696e73756666696369656e742062616c616e636520666f60448201527f722063616c6c00000000000000000000000000000000000000000000000000006064820152608401610959565b600080866001600160a01b0316858760405161330c9190613961565b60006040518083038185875af1925050503d8060008114613349576040519150601f19603f3d011682016040523d82523d6000602084013e61334e565b606091505b509150915061335f8783838761336a565b979650505050505050565b606083156133d65782516133cf576001600160a01b0385163b6133cf5760405162461bcd60e51b815260206004820152601d60248201527f416464726573733a2063616c6c20746f206e6f6e2d636f6e74726163740000006044820152606401610959565b5081613270565b61327083838151156133eb5781518083602001fd5b8060405162461bcd60e51b8152600401610959919061397d565b6001600160a01b038116811461064a57600080fd5b803561342581613405565b919050565b60006020828403121561343c57600080fd5b813561154b81613405565b6000806040838503121561345a57600080fd5b823561346581613405565b9150602083013561347581613405565b809150509250929050565b60008060006060848603121561349557600080fd5b83356134a081613405565b95602085013595506040909401359392505050565b801515811461064a57600080fd5b600080604083850312156134d657600080fd5b823591506020830135613475816134b5565b600080604083850312156134fb57600080fd5b823561350681613405565b946020939093013593505050565b60006020828403121561352657600080fd5b5035919050565b60008083601f84011261353f57600080fd5b50813567ffffffffffffffff81111561355757600080fd5b6020830191508360208260051b850101111561357257600080fd5b9250929050565b6000806000806040858703121561358f57600080fd5b843567ffffffffffffffff808211156135a757600080fd5b6135b38883890161352d565b909650945060208701359150808211156135cc57600080fd5b506135d98782880161352d565b95989497509550505050565b634e487b7160e01b600052604160045260246000fd5b6000806040838503121561360e57600080fd5b823561361981613405565b915060208381013567ffffffffffffffff8082111561363757600080fd5b818601915086601f83011261364b57600080fd5b81358181111561365d5761365d6135e5565b8060051b604051601f19603f83011681018181108582111715613682576136826135e5565b6040529182528482019250838101850191898311156136a057600080fd5b938501935b828510156136c5576136b68561341a565b845293850193928501926136a5565b8096505050505050509250929050565b6020808252825182820181905260009190848201906040850190845b8181101561370d578351835292840192918401916001016136f1565b50909695505050505050565b6000806040838503121561372c57600080fd5b823561373781613405565b91506020830135613475816134b5565b6000806000806080858703121561375d57600080fd5b843561376881613405565b9350602085013561377881613405565b9250604085013561378881613405565b9396929550929360600135925050565b6000602082840312156137aa57600080fd5b813561154b816134b5565b634e487b7160e01b600052603260045260246000fd5b634e487b7160e01b600052601160045260246000fd5b60006000198214156137f5576137f56137cb565b5060010190565b6000821982111561380f5761380f6137cb565b500190565b60006020828403121561382657600080fd5b815161154b816134b5565b60006020828403121561384357600080fd5b5051919050565b60008282101561385c5761385c6137cb565b500390565b81835260007f07ffffffffffffffffffffffffffffffffffffffffffffffffffffffffffffff83111561389357600080fd5b8260051b8083602087013760009401602001938452509192915050565b6040815260006138c4604083018688613861565b828103602084015261335f818587613861565b60008160001904831182151516156138f1576138f16137cb565b500290565b60008261391357634e487b7160e01b600052601260045260246000fd5b500490565b60006020828403121561392a57600080fd5b815161154b81613405565b60005b83811015613950578181015183820152602001613938565b838111156118075750506000910152565b60008251613973818460208701613935565b9190910192915050565b602081526000825180602084015261399c816040850160208701613935565b601f01601f1916919091016040019291505056fea26469706673582212200808c69f21f1a9c42b7561c613f8f2e417a7686428f68b4fbfa76beb8cbea56664736f6c634300080c0033",
  "devdoc": {
    "kind": "dev",
    "methods": {
      "afterLockUpdate(address)": {
        "details": "Called by the locking contracts after locking or unlocking happens"
      },
      "beforeLockUpdate(address)": {
        "details": "Called by the locking contracts before locking or unlocking happens"
      },
      "handleActionAfter(address,uint256,uint256)": {
        "details": "important! eligible status can be updated here"
      },
      "owner()": {
        "details": "Returns the address of the current owner."
      },
      "paused()": {
        "details": "Returns true if the contract is paused, and false otherwise."
      },
      "renounceOwnership()": {
        "details": "Leaves the contract without owner. It will not be possible to call `onlyOwner` functions anymore. Can only be called by the current owner. NOTE: Renouncing ownership will leave the contract without an owner, thereby removing any functionality that is only available to the owner."
      },
      "setRewardsPerSecond(uint256,bool)": {
        "details": "Its decimals count is ACC_REWARD_PRECISION",
        "params": {
          "_rewardsPerSecond": "The amount of reward to be distributed per second."
        }
      },
      "transferOwnership(address)": {
        "details": "Transfers ownership of the contract to a new account (`newOwner`). Can only be called by the current owner."
      }
    },
    "version": 1
  },
  "userdoc": {
    "kind": "user",
    "methods": {
      "afterLockUpdate(address)": {
        "notice": "Hook for lock update."
      },
      "beforeLockUpdate(address)": {
        "notice": "Hook for lock update."
      },
      "handleActionAfter(address,uint256,uint256)": {
        "notice": "`after` Hook for deposit and borrow update."
      },
      "handleActionBefore(address)": {
        "notice": "`before` Hook for deposit and borrow update."
      },
      "setRewardsPerSecond(uint256,bool)": {
        "notice": "Sets the reward per second to be distributed. Can only be called by the owner."
      }
    },
    "version": 1
  },
  "storageLayout": {
    "storage": [
      {
        "astId": 138,
        "contract": "contracts/radiant/staking/ChefIncentivesController.sol:ChefIncentivesController",
        "label": "_initialized",
        "offset": 0,
        "slot": "0",
        "type": "t_uint8"
      },
      {
        "astId": 141,
        "contract": "contracts/radiant/staking/ChefIncentivesController.sol:ChefIncentivesController",
        "label": "_initializing",
        "offset": 1,
        "slot": "0",
        "type": "t_bool"
      },
      {
        "astId": 752,
        "contract": "contracts/radiant/staking/ChefIncentivesController.sol:ChefIncentivesController",
        "label": "__gap",
        "offset": 0,
        "slot": "1",
        "type": "t_array(t_uint256)50_storage"
      },
      {
        "astId": 321,
        "contract": "contracts/radiant/staking/ChefIncentivesController.sol:ChefIncentivesController",
        "label": "_paused",
        "offset": 0,
        "slot": "51",
        "type": "t_bool"
      },
      {
        "astId": 426,
        "contract": "contracts/radiant/staking/ChefIncentivesController.sol:ChefIncentivesController",
        "label": "__gap",
        "offset": 0,
        "slot": "52",
        "type": "t_array(t_uint256)49_storage"
      },
      {
        "astId": 10,
        "contract": "contracts/radiant/staking/ChefIncentivesController.sol:ChefIncentivesController",
        "label": "_owner",
        "offset": 0,
        "slot": "101",
        "type": "t_address"
      },
      {
        "astId": 130,
        "contract": "contracts/radiant/staking/ChefIncentivesController.sol:ChefIncentivesController",
        "label": "__gap",
        "offset": 0,
        "slot": "102",
        "type": "t_array(t_uint256)49_storage"
      },
      {
        "astId": 3277,
        "contract": "contracts/radiant/staking/ChefIncentivesController.sol:ChefIncentivesController",
        "label": "emissionSchedule",
        "offset": 0,
        "slot": "151",
        "type": "t_array(t_struct(EmissionPoint)3234_storage)dyn_storage"
      },
      {
        "astId": 3279,
        "contract": "contracts/radiant/staking/ChefIncentivesController.sol:ChefIncentivesController",
        "label": "persistRewardsPerSecond",
        "offset": 0,
        "slot": "152",
        "type": "t_bool"
      },
      {
        "astId": 3282,
        "contract": "contracts/radiant/staking/ChefIncentivesController.sol:ChefIncentivesController",
        "label": "registeredTokens",
        "offset": 0,
        "slot": "153",
        "type": "t_array(t_address)dyn_storage"
      },
      {
        "astId": 3284,
        "contract": "contracts/radiant/staking/ChefIncentivesController.sol:ChefIncentivesController",
        "label": "rewardsPerSecond",
        "offset": 0,
        "slot": "154",
        "type": "t_uint256"
      },
      {
        "astId": 3286,
        "contract": "contracts/radiant/staking/ChefIncentivesController.sol:ChefIncentivesController",
        "label": "lastRPS",
        "offset": 0,
        "slot": "155",
        "type": "t_uint256"
      },
      {
        "astId": 3288,
        "contract": "contracts/radiant/staking/ChefIncentivesController.sol:ChefIncentivesController",
        "label": "emissionScheduleIndex",
        "offset": 0,
        "slot": "156",
        "type": "t_uint256"
      },
      {
        "astId": 3293,
        "contract": "contracts/radiant/staking/ChefIncentivesController.sol:ChefIncentivesController",
        "label": "poolInfo",
        "offset": 0,
        "slot": "157",
        "type": "t_mapping(t_address,t_struct(PoolInfo)3229_storage)"
      },
      {
        "astId": 3297,
        "contract": "contracts/radiant/staking/ChefIncentivesController.sol:ChefIncentivesController",
        "label": "validRTokens",
        "offset": 0,
        "slot": "158",
        "type": "t_mapping(t_address,t_bool)"
      },
      {
        "astId": 3299,
        "contract": "contracts/radiant/staking/ChefIncentivesController.sol:ChefIncentivesController",
        "label": "totalAllocPoint",
        "offset": 0,
        "slot": "159",
        "type": "t_uint256"
      },
      {
        "astId": 3306,
        "contract": "contracts/radiant/staking/ChefIncentivesController.sol:ChefIncentivesController",
        "label": "userInfo",
        "offset": 0,
        "slot": "160",
        "type": "t_mapping(t_address,t_mapping(t_address,t_struct(UserInfo)3217_storage))"
      },
      {
        "astId": 3310,
        "contract": "contracts/radiant/staking/ChefIncentivesController.sol:ChefIncentivesController",
        "label": "userBaseClaimable",
        "offset": 0,
        "slot": "161",
        "type": "t_mapping(t_address,t_uint256)"
      },
      {
        "astId": 3314,
        "contract": "contracts/radiant/staking/ChefIncentivesController.sol:ChefIncentivesController",
        "label": "eligibilityExempt",
        "offset": 0,
        "slot": "162",
        "type": "t_mapping(t_address,t_bool)"
      },
      {
        "astId": 3316,
        "contract": "contracts/radiant/staking/ChefIncentivesController.sol:ChefIncentivesController",
        "label": "startTime",
        "offset": 0,
        "slot": "163",
        "type": "t_uint256"
      },
      {
        "astId": 3318,
        "contract": "contracts/radiant/staking/ChefIncentivesController.sol:ChefIncentivesController",
        "label": "eligibilityEnabled",
        "offset": 0,
        "slot": "164",
        "type": "t_bool"
      },
      {
        "astId": 3320,
        "contract": "contracts/radiant/staking/ChefIncentivesController.sol:ChefIncentivesController",
        "label": "poolConfigurator",
        "offset": 1,
        "slot": "164",
        "type": "t_address"
      },
      {
        "astId": 3322,
        "contract": "contracts/radiant/staking/ChefIncentivesController.sol:ChefIncentivesController",
        "label": "depositedRewards",
        "offset": 0,
        "slot": "165",
        "type": "t_uint256"
      },
      {
        "astId": 3324,
        "contract": "contracts/radiant/staking/ChefIncentivesController.sol:ChefIncentivesController",
        "label": "accountedRewards",
        "offset": 0,
        "slot": "166",
        "type": "t_uint256"
      },
      {
        "astId": 3326,
        "contract": "contracts/radiant/staking/ChefIncentivesController.sol:ChefIncentivesController",
        "label": "lastAllPoolUpdate",
        "offset": 0,
        "slot": "167",
        "type": "t_uint256"
      },
      {
        "astId": 3329,
        "contract": "contracts/radiant/staking/ChefIncentivesController.sol:ChefIncentivesController",
        "label": "rewardMinter",
        "offset": 0,
        "slot": "168",
        "type": "t_contract(IMiddleFeeDistribution)2868"
      },
      {
        "astId": 3332,
        "contract": "contracts/radiant/staking/ChefIncentivesController.sol:ChefIncentivesController",
        "label": "eligibleDataProvider",
        "offset": 0,
        "slot": "169",
        "type": "t_contract(IEligibilityDataProvider)2194"
      },
      {
        "astId": 3334,
        "contract": "contracts/radiant/staking/ChefIncentivesController.sol:ChefIncentivesController",
        "label": "bountyManager",
        "offset": 0,
        "slot": "170",
        "type": "t_address"
      }
    ],
    "types": {
      "t_address": {
        "encoding": "inplace",
        "label": "address",
        "numberOfBytes": "20"
      },
      "t_array(t_address)dyn_storage": {
        "base": "t_address",
        "encoding": "dynamic_array",
        "label": "address[]",
        "numberOfBytes": "32"
      },
      "t_array(t_struct(EmissionPoint)3234_storage)dyn_storage": {
        "base": "t_struct(EmissionPoint)3234_storage",
        "encoding": "dynamic_array",
        "label": "struct ChefIncentivesController.EmissionPoint[]",
        "numberOfBytes": "32"
      },
      "t_array(t_uint256)49_storage": {
        "base": "t_uint256",
        "encoding": "inplace",
        "label": "uint256[49]",
        "numberOfBytes": "1568"
      },
      "t_array(t_uint256)50_storage": {
        "base": "t_uint256",
        "encoding": "inplace",
        "label": "uint256[50]",
        "numberOfBytes": "1600"
      },
      "t_bool": {
        "encoding": "inplace",
        "label": "bool",
        "numberOfBytes": "1"
      },
      "t_contract(IEligibilityDataProvider)2194": {
        "encoding": "inplace",
        "label": "contract IEligibilityDataProvider",
        "numberOfBytes": "20"
      },
      "t_contract(IMiddleFeeDistribution)2868": {
        "encoding": "inplace",
        "label": "contract IMiddleFeeDistribution",
        "numberOfBytes": "20"
      },
      "t_contract(IOnwardIncentivesController)3074": {
        "encoding": "inplace",
        "label": "contract IOnwardIncentivesController",
        "numberOfBytes": "20"
      },
      "t_mapping(t_address,t_bool)": {
        "encoding": "mapping",
        "key": "t_address",
        "label": "mapping(address => bool)",
        "numberOfBytes": "32",
        "value": "t_bool"
      },
      "t_mapping(t_address,t_mapping(t_address,t_struct(UserInfo)3217_storage))": {
        "encoding": "mapping",
        "key": "t_address",
        "label": "mapping(address => mapping(address => struct ChefIncentivesController.UserInfo))",
        "numberOfBytes": "32",
        "value": "t_mapping(t_address,t_struct(UserInfo)3217_storage)"
      },
      "t_mapping(t_address,t_struct(PoolInfo)3229_storage)": {
        "encoding": "mapping",
        "key": "t_address",
        "label": "mapping(address => struct ChefIncentivesController.PoolInfo)",
        "numberOfBytes": "32",
        "value": "t_struct(PoolInfo)3229_storage"
      },
      "t_mapping(t_address,t_struct(UserInfo)3217_storage)": {
        "encoding": "mapping",
        "key": "t_address",
        "label": "mapping(address => struct ChefIncentivesController.UserInfo)",
        "numberOfBytes": "32",
        "value": "t_struct(UserInfo)3217_storage"
      },
      "t_mapping(t_address,t_uint256)": {
        "encoding": "mapping",
        "key": "t_address",
        "label": "mapping(address => uint256)",
        "numberOfBytes": "32",
        "value": "t_uint256"
      },
      "t_struct(EmissionPoint)3234_storage": {
        "encoding": "inplace",
        "label": "struct ChefIncentivesController.EmissionPoint",
        "members": [
          {
            "astId": 3231,
            "contract": "contracts/radiant/staking/ChefIncentivesController.sol:ChefIncentivesController",
            "label": "startTimeOffset",
            "offset": 0,
            "slot": "0",
            "type": "t_uint128"
          },
          {
            "astId": 3233,
            "contract": "contracts/radiant/staking/ChefIncentivesController.sol:ChefIncentivesController",
            "label": "rewardsPerSecond",
            "offset": 16,
            "slot": "0",
            "type": "t_uint128"
          }
        ],
        "numberOfBytes": "32"
      },
      "t_struct(PoolInfo)3229_storage": {
        "encoding": "inplace",
        "label": "struct ChefIncentivesController.PoolInfo",
        "members": [
          {
            "astId": 3219,
            "contract": "contracts/radiant/staking/ChefIncentivesController.sol:ChefIncentivesController",
            "label": "totalSupply",
            "offset": 0,
            "slot": "0",
            "type": "t_uint256"
          },
          {
            "astId": 3221,
            "contract": "contracts/radiant/staking/ChefIncentivesController.sol:ChefIncentivesController",
            "label": "allocPoint",
            "offset": 0,
            "slot": "1",
            "type": "t_uint256"
          },
          {
            "astId": 3223,
            "contract": "contracts/radiant/staking/ChefIncentivesController.sol:ChefIncentivesController",
            "label": "lastRewardTime",
            "offset": 0,
            "slot": "2",
            "type": "t_uint256"
          },
          {
            "astId": 3225,
            "contract": "contracts/radiant/staking/ChefIncentivesController.sol:ChefIncentivesController",
            "label": "accRewardPerShare",
            "offset": 0,
            "slot": "3",
            "type": "t_uint256"
          },
          {
            "astId": 3228,
            "contract": "contracts/radiant/staking/ChefIncentivesController.sol:ChefIncentivesController",
            "label": "onwardIncentives",
            "offset": 0,
            "slot": "4",
            "type": "t_contract(IOnwardIncentivesController)3074"
          }
        ],
        "numberOfBytes": "160"
      },
      "t_struct(UserInfo)3217_storage": {
        "encoding": "inplace",
        "label": "struct ChefIncentivesController.UserInfo",
        "members": [
          {
            "astId": 3210,
            "contract": "contracts/radiant/staking/ChefIncentivesController.sol:ChefIncentivesController",
            "label": "amount",
            "offset": 0,
            "slot": "0",
            "type": "t_uint256"
          },
          {
            "astId": 3212,
            "contract": "contracts/radiant/staking/ChefIncentivesController.sol:ChefIncentivesController",
            "label": "rewardDebt",
            "offset": 0,
            "slot": "1",
            "type": "t_uint256"
          },
          {
            "astId": 3214,
            "contract": "contracts/radiant/staking/ChefIncentivesController.sol:ChefIncentivesController",
            "label": "enterTime",
            "offset": 0,
            "slot": "2",
            "type": "t_uint256"
          },
          {
            "astId": 3216,
            "contract": "contracts/radiant/staking/ChefIncentivesController.sol:ChefIncentivesController",
            "label": "lastClaimTime",
            "offset": 0,
            "slot": "3",
            "type": "t_uint256"
          }
        ],
        "numberOfBytes": "128"
      },
      "t_uint128": {
        "encoding": "inplace",
        "label": "uint128",
        "numberOfBytes": "16"
      },
      "t_uint256": {
        "encoding": "inplace",
        "label": "uint256",
        "numberOfBytes": "32"
      },
      "t_uint8": {
        "encoding": "inplace",
        "label": "uint8",
        "numberOfBytes": "1"
      }
    }
  }
}