{
  "address": "0x99AaF3C391527e84D6e5c305991c601c06208D93",
  "abi": [
    {
      "anonymous": false,
      "inputs": [
        {
          "indexed": true,
          "internalType": "address",
          "name": "token",
          "type": "address"
        }
      ],
      "name": "AddToken",
      "type": "event"
    },
    {
      "anonymous": false,
      "inputs": [
        {
          "indexed": false,
          "internalType": "contract IChefIncentivesController",
          "name": "_chef",
          "type": "address"
        }
      ],
      "name": "ChefIncentivesControllerUpdated",
      "type": "event"
    },
    {
      "anonymous": false,
      "inputs": [
        {
          "indexed": false,
          "internalType": "address",
          "name": "_user",
          "type": "address"
        },
        {
          "indexed": false,
          "internalType": "uint256",
          "name": "_time",
          "type": "uint256"
        }
      ],
      "name": "DqTimeUpdated",
      "type": "event"
    },
    {
      "anonymous": false,
      "inputs": [
        {
          "indexed": false,
          "internalType": "uint8",
          "name": "version",
          "type": "uint8"
        }
      ],
      "name": "Initialized",
      "type": "event"
    },
    {
      "anonymous": false,
      "inputs": [
        {
          "indexed": false,
          "internalType": "address",
          "name": "_lpToken",
          "type": "address"
        }
      ],
      "name": "LPTokenUpdated",
      "type": "event"
    },
    {
      "anonymous": false,
      "inputs": [
        {
          "indexed": true,
          "internalType": "address",
          "name": "previousOwner",
          "type": "address"
        },
        {
          "indexed": true,
          "internalType": "address",
          "name": "newOwner",
          "type": "address"
        }
      ],
      "name": "OwnershipTransferred",
      "type": "event"
    },
    {
      "anonymous": false,
      "inputs": [
        {
          "indexed": false,
          "internalType": "uint256",
          "name": "priceToleranceRatio",
          "type": "uint256"
        }
      ],
      "name": "PriceToleranceRatioUpdated",
      "type": "event"
    },
    {
      "anonymous": false,
      "inputs": [
        {
          "indexed": false,
          "internalType": "uint256",
          "name": "requiredDepositRatio",
          "type": "uint256"
        }
      ],
      "name": "RequiredDepositRatioUpdated",
      "type": "event"
    },
    {
      "inputs": [],
      "name": "RATIO_DIVISOR",
      "outputs": [
        {
          "internalType": "uint256",
          "name": "",
          "type": "uint256"
        }
      ],
      "stateMutability": "view",
      "type": "function"
    },
    {
      "inputs": [],
      "name": "chef",
      "outputs": [
        {
          "internalType": "contract IChefIncentivesController",
          "name": "",
          "type": "address"
        }
      ],
      "stateMutability": "view",
      "type": "function"
    },
    {
      "inputs": [
        {
          "internalType": "address",
          "name": "",
          "type": "address"
        }
      ],
      "name": "disqualifiedTime",
      "outputs": [
        {
          "internalType": "uint256",
          "name": "",
          "type": "uint256"
        }
      ],
      "stateMutability": "view",
      "type": "function"
    },
    {
      "inputs": [
        {
          "internalType": "address",
          "name": "_user",
          "type": "address"
        }
      ],
      "name": "getDqTime",
      "outputs": [
        {
          "internalType": "uint256",
          "name": "",
          "type": "uint256"
        }
      ],
      "stateMutability": "view",
      "type": "function"
    },
    {
      "inputs": [
        {
          "internalType": "contract ILendingPool",
          "name": "_lendingPool",
          "type": "address"
        },
        {
          "internalType": "contract IMiddleFeeDistribution",
          "name": "_middleFeeDistribution",
          "type": "address"
        },
        {
          "internalType": "contract IPriceProvider",
          "name": "_priceProvider",
          "type": "address"
        }
      ],
      "name": "initialize",
      "outputs": [],
      "stateMutability": "nonpayable",
      "type": "function"
    },
    {
      "inputs": [
        {
          "internalType": "address",
          "name": "_user",
          "type": "address"
        }
      ],
      "name": "isEligibleForRewards",
      "outputs": [
        {
          "internalType": "bool",
          "name": "isEligible",
          "type": "bool"
        }
      ],
      "stateMutability": "view",
      "type": "function"
    },
    {
      "inputs": [
        {
          "internalType": "address",
          "name": "_user",
          "type": "address"
        }
      ],
      "name": "isMarketDisqualified",
      "outputs": [
        {
          "internalType": "bool",
          "name": "",
          "type": "bool"
        }
      ],
      "stateMutability": "view",
      "type": "function"
    },
    {
      "inputs": [
        {
          "internalType": "address",
          "name": "",
          "type": "address"
        }
      ],
      "name": "lastEligibleStatus",
      "outputs": [
        {
          "internalType": "bool",
          "name": "",
          "type": "bool"
        }
      ],
      "stateMutability": "view",
      "type": "function"
    },
    {
      "inputs": [
        {
          "internalType": "address",
          "name": "user",
          "type": "address"
        }
      ],
      "name": "lastEligibleTime",
      "outputs": [
        {
          "internalType": "uint256",
          "name": "lastEligibleTimestamp",
          "type": "uint256"
        }
      ],
      "stateMutability": "view",
      "type": "function"
    },
    {
      "inputs": [],
      "name": "lendingPool",
      "outputs": [
        {
          "internalType": "contract ILendingPool",
          "name": "",
          "type": "address"
        }
      ],
      "stateMutability": "view",
      "type": "function"
    },
    {
      "inputs": [
        {
          "internalType": "address",
          "name": "user",
          "type": "address"
        }
      ],
      "name": "lockedUsdValue",
      "outputs": [
        {
          "internalType": "uint256",
          "name": "",
          "type": "uint256"
        }
      ],
      "stateMutability": "view",
      "type": "function"
    },
    {
      "inputs": [],
      "name": "lpToken",
      "outputs": [
        {
          "internalType": "address",
          "name": "",
          "type": "address"
        }
      ],
      "stateMutability": "view",
      "type": "function"
    },
    {
      "inputs": [],
      "name": "middleFeeDistribution",
      "outputs": [
        {
          "internalType": "contract IMiddleFeeDistribution",
          "name": "",
          "type": "address"
        }
      ],
      "stateMutability": "view",
      "type": "function"
    },
    {
      "inputs": [],
      "name": "owner",
      "outputs": [
        {
          "internalType": "address",
          "name": "",
          "type": "address"
        }
      ],
      "stateMutability": "view",
      "type": "function"
    },
    {
      "inputs": [],
      "name": "priceProvider",
      "outputs": [
        {
          "internalType": "contract IPriceProvider",
          "name": "",
          "type": "address"
        }
      ],
      "stateMutability": "view",
      "type": "function"
    },
    {
      "inputs": [],
      "name": "priceToleranceRatio",
      "outputs": [
        {
          "internalType": "uint256",
          "name": "",
          "type": "uint256"
        }
      ],
      "stateMutability": "view",
      "type": "function"
    },
    {
      "inputs": [
        {
          "internalType": "address",
          "name": "user",
          "type": "address"
        }
      ],
      "name": "refresh",
      "outputs": [],
      "stateMutability": "nonpayable",
      "type": "function"
    },
    {
      "inputs": [],
      "name": "renounceOwnership",
      "outputs": [],
      "stateMutability": "nonpayable",
      "type": "function"
    },
    {
      "inputs": [],
      "name": "requiredDepositRatio",
      "outputs": [
        {
          "internalType": "uint256",
          "name": "",
          "type": "uint256"
        }
      ],
      "stateMutability": "view",
      "type": "function"
    },
    {
      "inputs": [
        {
          "internalType": "address",
          "name": "user",
          "type": "address"
        }
      ],
      "name": "requiredUsdValue",
      "outputs": [
        {
          "internalType": "uint256",
          "name": "required",
          "type": "uint256"
        }
      ],
      "stateMutability": "view",
      "type": "function"
    },
    {
      "inputs": [
        {
          "internalType": "contract IChefIncentivesController",
          "name": "_chef",
          "type": "address"
        }
      ],
      "name": "setChefIncentivesController",
      "outputs": [],
      "stateMutability": "nonpayable",
      "type": "function"
    },
    {
      "inputs": [
        {
          "internalType": "address",
          "name": "_user",
          "type": "address"
        },
        {
          "internalType": "uint256",
          "name": "_time",
          "type": "uint256"
        }
      ],
      "name": "setDqTime",
      "outputs": [],
      "stateMutability": "nonpayable",
      "type": "function"
    },
    {
      "inputs": [
        {
          "internalType": "address",
          "name": "_lpToken",
          "type": "address"
        }
      ],
      "name": "setLPToken",
      "outputs": [],
      "stateMutability": "nonpayable",
      "type": "function"
    },
    {
      "inputs": [
        {
          "internalType": "uint256",
          "name": "_priceToleranceRatio",
          "type": "uint256"
        }
      ],
      "name": "setPriceToleranceRatio",
      "outputs": [],
      "stateMutability": "nonpayable",
      "type": "function"
    },
    {
      "inputs": [
        {
          "internalType": "uint256",
          "name": "_requiredDepositRatio",
          "type": "uint256"
        }
      ],
      "name": "setRequiredDepositRatio",
      "outputs": [],
      "stateMutability": "nonpayable",
      "type": "function"
    },
    {
      "inputs": [
        {
          "internalType": "address",
          "name": "newOwner",
          "type": "address"
        }
      ],
      "name": "transferOwnership",
      "outputs": [],
      "stateMutability": "nonpayable",
      "type": "function"
    },
    {
      "inputs": [],
      "name": "updatePrice",
      "outputs": [],
      "stateMutability": "nonpayable",
      "type": "function"
    },
    {
      "inputs": [
        {
          "internalType": "address",
          "name": "",
          "type": "address"
        },
        {
          "internalType": "address",
          "name": "",
          "type": "address"
        }
      ],
      "name": "userDeposits",
      "outputs": [
        {
          "internalType": "uint256",
          "name": "",
          "type": "uint256"
        }
      ],
      "stateMutability": "view",
      "type": "function"
    }
  ],
  "transactionHash": "0xd805894895d20ad348f7456a9ea209a61391645e0c52933b38f4fbea8a749b3c",
  "args": [],
  "numDeployments": 1,
  "solcInputHash": "9ed8517f072d3887f8d783037813f24b",
  "bytecode": "0x608060405234801561001057600080fd5b506116ac806100206000396000f3fe608060405234801561001057600080fd5b50600436106101c45760003560e01c8063715018a6116100f9578063d52874da11610097578063e38fdc3611610071578063e38fdc36146103ed578063f2fde38b14610400578063f4640c9314610413578063ff408ae01461042657600080fd5b8063d52874da146103be578063dbbbbc63146103c7578063e2c75ca0146103da57600080fd5b8063a59a9973116100d3578063a59a997314610372578063b888879e14610385578063bae1b24c14610398578063c0c53b8b146103ab57600080fd5b8063715018a6146103395780638da5cb5b14610341578063a0cfb9ff1461035257600080fd5b8063660186e6116101665780636a678a9c116101405780636a678a9c146102e15780636a7e9f33146102f45780636d9077cb146102fd5780636f21a1791461031057600080fd5b8063660186e6146102b3578063673a7e28146102c6578063696c9a7f146102ce57600080fd5b8063436d8039116101a2578063436d803914610221578063563014e51461025a5780635de20b421461026d5780635fcbd285146102a057600080fd5b80630afb0409146101c95780631fc8bc5d146101de57806321cc01c91461020e575b600080fd5b6101dc6101d736600461129d565b61042f565b005b6066546101f1906001600160a01b031681565b6040516001600160a01b0390911681526020015b60405180910390f35b6067546101f1906001600160a01b031681565b61024c61022f3660046112ba565b606f60209081526000928352604080842090915290825290205481565b604051908152602001610205565b61024c61026836600461129d565b610527565b61029061027b36600461129d565b606c6020526000908152604090205460ff1681565b6040519015158152602001610205565b606b546101f1906001600160a01b031681565b6102906102c136600461129d565b6106c7565b6101dc610711565b6102906102dc36600461129d565b61077b565b6101dc6102ef36600461129d565b6107b3565b61024c61271081565b61024c61030b36600461129d565b610876565b61024c61031e36600461129d565b6001600160a01b03166000908152606d602052604090205490565b6101dc61098e565b6033546001600160a01b03166101f1565b61024c61036036600461129d565b606d6020526000908152604090205481565b6065546101f1906001600160a01b031681565b6068546101f1906001600160a01b031681565b6101dc6103a63660046112f3565b6109a2565b6101dc6103b936600461130c565b610a2f565b61024c60695481565b6101dc6103d536600461129d565b610ca9565b6101dc6103e8366004611357565b610d0c565b61024c6103fb36600461129d565b610dbe565b6101dc61040e36600461129d565b610e72565b6101dc6104213660046112f3565b610f02565b61024c606a5481565b6066546001600160a01b0316331461048e5760405162461bcd60e51b815260206004820152601960248201527f43616e206f6e6c792062652063616c6c6564206279204349430000000000000060448201526064015b60405180910390fd5b6001600160a01b0381166104a4576104a4611383565b6104ac610711565b60006104b7826106c7565b90508080156104dd57506001600160a01b0382166000908152606d602052604090205415155b156104fc576001600160a01b0382166000908152606d60205260408120555b6001600160a01b03919091166000908152606c60205260409020805460ff1916911515919091179055565b60008061053383610dbe565b90506000606760009054906101000a90046001600160a01b03166001600160a01b031663cd57ed6c6040518163ffffffff1660e01b8152600401602060405180830381865afa15801561058a573d6000803e3d6000fd5b505050506040513d601f19601f820116820180604052508101906105ae9190611399565b6040517f6bd3b87c0000000000000000000000000000000000000000000000000000000081526001600160a01b038681166004830152919250600091831690636bd3b87c90602401600060405180830381865afa158015610613573d6000803e3d6000fd5b505050506040513d6000823e601f3d908101601f1916820160405261063b91908101906114de565b80519091506000905b80156106bd57610655600182611529565b905082818151811061066957610669611540565b602002602001015160200151955082818151811061068957610689611540565b602002602001015160000151826106a09190611556565b9150846106ae836000610f81565b106106b8576106bd565b610644565b5050505050919050565b6000806106d383610876565b905060006106f86127106106f2606a546106ec88610dbe565b906110c4565b906110d0565b905080158015906107095750808210155b949350505050565b606860009054906101000a90046001600160a01b03166001600160a01b031663a2e620456040518163ffffffff1660e01b8152600401600060405180830381600087803b15801561076157600080fd5b505af1158015610775573d6000803e3d6000fd5b50505050565b60008061078783610dbe565b11801561079a5750610798826106c7565b155b80156107ad5750426107ab83610527565b115b92915050565b6107bb6110dc565b606b546001600160a01b0316156108145760405162461bcd60e51b815260206004820152601460248201527f4c5020746f6b656e20616c7265616479207365740000000000000000000000006044820152606401610485565b606b805473ffffffffffffffffffffffffffffffffffffffff19166001600160a01b0383169081179091556040519081527ff9d1c90c609623055381582a51735b38df3243eb09629a9170b15c2ab6bc0739906020015b60405180910390a150565b600080606760009054906101000a90046001600160a01b03166001600160a01b031663cd57ed6c6040518163ffffffff1660e01b8152600401602060405180830381865afa1580156108cc573d6000803e3d6000fd5b505050506040513d601f19601f820116820180604052508101906108f09190611399565b6040517f0483a7f60000000000000000000000000000000000000000000000000000000081526001600160a01b038581166004830152919250600091831690630483a7f690602401600060405180830381865afa158015610955573d6000803e3d6000fd5b505050506040513d6000823e601f3d908101601f1916820160405261097d919081019061156e565b505092505050610709816000610f81565b6109966110dc565b6109a06000611136565b565b6109aa6110dc565b611f4081101580156109be57506127108111155b6109fa5760405162461bcd60e51b815260206004820152600d60248201526c496e76616c696420726174696f60981b6044820152606401610485565b606a8190556040518181527f05ace3111616a9d7bc7b769e0162c37e277aa5cdcd34699f9a0e3d7577d0db549060200161086b565b600054610100900460ff1615808015610a4f5750600054600160ff909116105b80610a695750303b158015610a69575060005460ff166001145b610adb5760405162461bcd60e51b815260206004820152602e60248201527f496e697469616c697a61626c653a20636f6e747261637420697320616c72656160448201527f647920696e697469616c697a65640000000000000000000000000000000000006064820152608401610485565b6000805460ff191660011790558015610afe576000805461ff0019166101001790555b6001600160a01b038416610b545760405162461bcd60e51b815260206004820152601360248201527f4e6f7420612076616c69642061646472657373000000000000000000000000006044820152606401610485565b6001600160a01b038316610baa5760405162461bcd60e51b815260206004820152601360248201527f4e6f7420612076616c69642061646472657373000000000000000000000000006044820152606401610485565b6001600160a01b038216610c005760405162461bcd60e51b815260206004820152601360248201527f4e6f7420612076616c69642061646472657373000000000000000000000000006044820152606401610485565b606580546001600160a01b0380871673ffffffffffffffffffffffffffffffffffffffff19928316179092556067805486841690831617905560688054928516929091169190911790556101f4606955612328606a55610c5e611195565b8015610775576000805461ff0019169055604051600181527f7f26b83ff96e1f2b6a682f133852f6798a09c465da95921460cefb38474024989060200160405180910390a150505050565b610cb16110dc565b6066805473ffffffffffffffffffffffffffffffffffffffff19166001600160a01b0383169081179091556040519081527f3edc4c109bdc9b34f00f24744f770e8de831fd903d0fc75d4d990d5d81b75b989060200161086b565b6066546001600160a01b03163314610d665760405162461bcd60e51b815260206004820152600860248201527f4f6e6c79204349430000000000000000000000000000000000000000000000006044820152606401610485565b6001600160a01b0382166000818152606d6020908152604091829020849055815192835282018390527f1e85ba2a5b06819d522e519e6ebf963f35ad4a709dc2a541ed39ad80f4b3a3be910160405180910390a15050565b6065546040517fbf92857c0000000000000000000000000000000000000000000000000000000081526001600160a01b038381166004830152600092839291169063bf92857c9060240160c060405180830381865afa158015610e25573d6000803e3d6000fd5b505050506040513d601f19601f82011682018060405250810190610e4991906115d2565b50505050509050610e6b6127106106f2606954846110c490919063ffffffff16565b9392505050565b610e7a6110dc565b6001600160a01b038116610ef65760405162461bcd60e51b815260206004820152602660248201527f4f776e61626c653a206e6577206f776e657220697320746865207a65726f206160448201527f64647265737300000000000000000000000000000000000000000000000000006064820152608401610485565b610eff81611136565b50565b610f0a6110dc565b612710811115610f4c5760405162461bcd60e51b815260206004820152600d60248201526c496e76616c696420726174696f60981b6044820152606401610485565b60698190556040518181527f063aaf80a21dd5cad9d8adcdc5a53acaa3c2de05dc44c7e2f68783a87460d7fe9060200161086b565b600080606860009054906101000a90046001600160a01b03166001600160a01b0316636d2ed1846040518163ffffffff1660e01b8152600401602060405180830381865afa158015610fd7573d6000803e3d6000fd5b505050506040513d601f19601f82011682018060405250810190610ffb919061161c565b90506000606860009054906101000a90046001600160a01b03166001600160a01b0316636e9a05c56040518163ffffffff1660e01b8152600401602060405180830381865afa158015611052573d6000803e3d6000fd5b505050506040513d601f19601f82011682018060405250810190611076919061161c565b90506000611090670de0b6b3a76400006106f287866110c4565b905060006110aa670de0b6b3a76400006106f289866110c4565b905060006110b88383611208565b98975050505050505050565b6000610e6b8284611635565b6000610e6b8284611654565b6033546001600160a01b031633146109a05760405162461bcd60e51b815260206004820181905260248201527f4f776e61626c653a2063616c6c6572206973206e6f7420746865206f776e65726044820152606401610485565b603380546001600160a01b0383811673ffffffffffffffffffffffffffffffffffffffff19831681179093556040519116919082907f8be0079c531659141344cd1fd0a4f28419497f9722a3daafe3b4186f6b6457e090600090a35050565b600054610100900460ff166112005760405162461bcd60e51b815260206004820152602b60248201527f496e697469616c697a61626c653a20636f6e7472616374206973206e6f74206960448201526a6e697469616c697a696e6760a81b6064820152608401610485565b6109a0611214565b6000610e6b8284611556565b600054610100900460ff1661127f5760405162461bcd60e51b815260206004820152602b60248201527f496e697469616c697a61626c653a20636f6e7472616374206973206e6f74206960448201526a6e697469616c697a696e6760a81b6064820152608401610485565b6109a033611136565b6001600160a01b0381168114610eff57600080fd5b6000602082840312156112af57600080fd5b8135610e6b81611288565b600080604083850312156112cd57600080fd5b82356112d881611288565b915060208301356112e881611288565b809150509250929050565b60006020828403121561130557600080fd5b5035919050565b60008060006060848603121561132157600080fd5b833561132c81611288565b9250602084013561133c81611288565b9150604084013561134c81611288565b809150509250925092565b6000806040838503121561136a57600080fd5b823561137581611288565b946020939093013593505050565b634e487b7160e01b600052600160045260246000fd5b6000602082840312156113ab57600080fd5b8151610e6b81611288565b634e487b7160e01b600052604160045260246000fd5b6040516080810167ffffffffffffffff811182821017156113ef576113ef6113b6565b60405290565b604051601f8201601f1916810167ffffffffffffffff8111828210171561141e5761141e6113b6565b604052919050565b600082601f83011261143757600080fd5b8151602067ffffffffffffffff821115611453576114536113b6565b611461818360051b016113f5565b82815260079290921b8401810191818101908684111561148057600080fd5b8286015b848110156114d3576080818903121561149d5760008081fd5b6114a56113cc565b8151815284820151858201526040808301519082015260608083015190820152835291830191608001611484565b509695505050505050565b6000602082840312156114f057600080fd5b815167ffffffffffffffff81111561150757600080fd5b61070984828501611426565b634e487b7160e01b600052601160045260246000fd5b60008282101561153b5761153b611513565b500390565b634e487b7160e01b600052603260045260246000fd5b6000821982111561156957611569611513565b500190565b600080600080600060a0868803121561158657600080fd5b85519450602086015193506040860151925060608601519150608086015167ffffffffffffffff8111156115b957600080fd5b6115c588828901611426565b9150509295509295909350565b60008060008060008060c087890312156115eb57600080fd5b865195506020870151945060408701519350606087015192506080870151915060a087015190509295509295509295565b60006020828403121561162e57600080fd5b5051919050565b600081600019048311821515161561164f5761164f611513565b500290565b60008261167157634e487b7160e01b600052601260045260246000fd5b50049056fea2646970667358221220cc5243636841efbd25175019df7a20822d8039054e3de4b677d4ec7f4e71431264736f6c634300080c0033",
  "devdoc": {
    "author": "Radiant Labs",
    "details": "All function calls are currently implemented without side effects",
    "kind": "dev",
    "methods": {
      "getDqTime(address)": {
        "params": {
          "_user": "'s address"
        }
      },
      "initialize(address,address,address)": {
        "params": {
          "_lendingPool": "Address of lending pool.",
          "_middleFeeDistribution": "MiddleFeeDistribution address.",
          "_priceProvider": "PriceProvider address."
        }
      },
      "isEligibleForRewards(address)": {
        "params": {
          "_user": "'s address"
        }
      },
      "isMarketDisqualified(address)": {
        "params": {
          "_user": "'s address"
        }
      },
      "lastEligibleTime(address)": {
        "details": "If user is still eligible, it will return future time  CAUTION: this function only works perfect when the array  is ordered by lock time. This is assured when _stake happens.",
        "params": {
          "user": "'s address"
        }
      },
      "lockedUsdValue(address)": {
        "params": {
          "user": "'s address"
        }
      },
      "owner()": {
        "details": "Returns the address of the current owner."
      },
      "refresh(address)": {
        "params": {
          "user": "'s address"
        }
      },
      "renounceOwnership()": {
        "details": "Leaves the contract without owner. It will not be possible to call `onlyOwner` functions anymore. Can only be called by the current owner. NOTE: Renouncing ownership will leave the contract without an owner, thereby removing any functionality that is only available to the owner."
      },
      "requiredUsdValue(address)": {
        "params": {
          "user": "'s address"
        },
        "returns": {
          "required": "USD value."
        }
      },
      "setChefIncentivesController(address)": {
        "params": {
          "_chef": "address."
        }
      },
      "setDqTime(address,uint256)": {
        "details": "Only callable by CIC",
        "params": {
          "_time": "for DQ",
          "_user": "'s address"
        }
      },
      "setPriceToleranceRatio(uint256)": {
        "params": {
          "_priceToleranceRatio": "Ratio in bips."
        }
      },
      "setRequiredDepositRatio(uint256)": {
        "params": {
          "_requiredDepositRatio": "Ratio in bips."
        }
      },
      "transferOwnership(address)": {
        "details": "Transfers ownership of the contract to a new account (`newOwner`). Can only be called by the current owner."
      }
    },
    "title": "Eligible Deposit Provider",
    "version": 1
  },
  "userdoc": {
    "events": {
      "AddToken(address)": {
        "notice": "Emitted when a new token is added"
      },
      "ChefIncentivesControllerUpdated(address)": {
        "notice": "Emitted when CIC is set"
      },
      "DqTimeUpdated(address,uint256)": {
        "notice": "Emitted when DQ time is set"
      },
      "LPTokenUpdated(address)": {
        "notice": "Emitted when LP token is set"
      },
      "PriceToleranceRatioUpdated(uint256)": {
        "notice": "Emitted when price tolerance ratio is updated"
      },
      "RequiredDepositRatioUpdated(uint256)": {
        "notice": "Emitted when required TVL ratio is updated"
      }
    },
    "kind": "user",
    "methods": {
      "RATIO_DIVISOR()": {
        "notice": "RATIO BASE equal to 100%"
      },
      "chef()": {
        "notice": "Address of CIC"
      },
      "disqualifiedTime(address)": {
        "notice": "Disqualified time of the user"
      },
      "getDqTime(address)": {
        "notice": "Returns DQ time of the user"
      },
      "initialize(address,address,address)": {
        "notice": "Constructor"
      },
      "isEligibleForRewards(address)": {
        "notice": "Returns if the user is eligible to receive rewards"
      },
      "isMarketDisqualified(address)": {
        "notice": "Is user DQed due to lock expire or price update"
      },
      "lastEligibleStatus(address)": {
        "notice": "Last eligible status of the user"
      },
      "lastEligibleTime(address)": {
        "notice": "Returns last eligible time of the user"
      },
      "lendingPool()": {
        "notice": "Address of Lending Pool"
      },
      "lockedUsdValue(address)": {
        "notice": "Returns locked RDNT and LP token value in eth"
      },
      "lpToken()": {
        "notice": "RDNT-ETH LP token"
      },
      "middleFeeDistribution()": {
        "notice": "Address of Middle fee distribution"
      },
      "priceProvider()": {
        "notice": "RDNT + LP price provider"
      },
      "priceToleranceRatio()": {
        "notice": "Ratio of the required price to still allow without disqualification; in bips"
      },
      "refresh(address)": {
        "notice": "Refresh token amount for eligibility"
      },
      "requiredDepositRatio()": {
        "notice": "Required ratio of TVL to get reward; in bips"
      },
      "requiredUsdValue(address)": {
        "notice": "Returns USD value required to be locked"
      },
      "setChefIncentivesController(address)": {
        "notice": "Set CIC"
      },
      "setDqTime(address,uint256)": {
        "notice": "Sets DQ time of the user"
      },
      "setLPToken(address)": {
        "notice": "Set LP token"
      },
      "setPriceToleranceRatio(uint256)": {
        "notice": "Sets price tolerance ratio. Can only be called by the owner."
      },
      "setRequiredDepositRatio(uint256)": {
        "notice": "Sets required tvl ratio. Can only be called by the owner."
      },
      "updatePrice()": {
        "notice": "Update token price"
      },
      "userDeposits(address,address)": {
        "notice": "User's deposits per rToken; rToken => user => amount"
      }
    },
    "version": 1
  },
  "storageLayout": {
    "storage": [
      {
        "astId": 138,
        "contract": "contracts/radiant/eligibility/EligibilityDataProvider.sol:EligibilityDataProvider",
        "label": "_initialized",
        "offset": 0,
        "slot": "0",
        "type": "t_uint8"
      },
      {
        "astId": 141,
        "contract": "contracts/radiant/eligibility/EligibilityDataProvider.sol:EligibilityDataProvider",
        "label": "_initializing",
        "offset": 1,
        "slot": "0",
        "type": "t_bool"
      },
      {
        "astId": 625,
        "contract": "contracts/radiant/eligibility/EligibilityDataProvider.sol:EligibilityDataProvider",
        "label": "__gap",
        "offset": 0,
        "slot": "1",
        "type": "t_array(t_uint256)50_storage"
      },
      {
        "astId": 10,
        "contract": "contracts/radiant/eligibility/EligibilityDataProvider.sol:EligibilityDataProvider",
        "label": "_owner",
        "offset": 0,
        "slot": "51",
        "type": "t_address"
      },
      {
        "astId": 130,
        "contract": "contracts/radiant/eligibility/EligibilityDataProvider.sol:EligibilityDataProvider",
        "label": "__gap",
        "offset": 0,
        "slot": "52",
        "type": "t_array(t_uint256)49_storage"
      },
      {
        "astId": 5727,
        "contract": "contracts/radiant/eligibility/EligibilityDataProvider.sol:EligibilityDataProvider",
        "label": "lendingPool",
        "offset": 0,
        "slot": "101",
        "type": "t_contract(ILendingPool)2435"
      },
      {
        "astId": 5731,
        "contract": "contracts/radiant/eligibility/EligibilityDataProvider.sol:EligibilityDataProvider",
        "label": "chef",
        "offset": 0,
        "slot": "102",
        "type": "t_contract(IChefIncentivesController)1916"
      },
      {
        "astId": 5735,
        "contract": "contracts/radiant/eligibility/EligibilityDataProvider.sol:EligibilityDataProvider",
        "label": "middleFeeDistribution",
        "offset": 0,
        "slot": "103",
        "type": "t_contract(IMiddleFeeDistribution)2668"
      },
      {
        "astId": 5739,
        "contract": "contracts/radiant/eligibility/EligibilityDataProvider.sol:EligibilityDataProvider",
        "label": "priceProvider",
        "offset": 0,
        "slot": "104",
        "type": "t_contract(IPriceProvider)2896"
      },
      {
        "astId": 5742,
        "contract": "contracts/radiant/eligibility/EligibilityDataProvider.sol:EligibilityDataProvider",
        "label": "requiredDepositRatio",
        "offset": 0,
        "slot": "105",
        "type": "t_uint256"
      },
      {
        "astId": 5745,
        "contract": "contracts/radiant/eligibility/EligibilityDataProvider.sol:EligibilityDataProvider",
        "label": "priceToleranceRatio",
        "offset": 0,
        "slot": "106",
        "type": "t_uint256"
      },
      {
        "astId": 5748,
        "contract": "contracts/radiant/eligibility/EligibilityDataProvider.sol:EligibilityDataProvider",
        "label": "lpToken",
        "offset": 0,
        "slot": "107",
        "type": "t_address"
      },
      {
        "astId": 5753,
        "contract": "contracts/radiant/eligibility/EligibilityDataProvider.sol:EligibilityDataProvider",
        "label": "lastEligibleStatus",
        "offset": 0,
        "slot": "108",
        "type": "t_mapping(t_address,t_bool)"
      },
      {
        "astId": 5758,
        "contract": "contracts/radiant/eligibility/EligibilityDataProvider.sol:EligibilityDataProvider",
        "label": "disqualifiedTime",
        "offset": 0,
        "slot": "109",
        "type": "t_mapping(t_address,t_uint256)"
      },
      {
        "astId": 5762,
        "contract": "contracts/radiant/eligibility/EligibilityDataProvider.sol:EligibilityDataProvider",
        "label": "eligibleDeposits",
        "offset": 0,
        "slot": "110",
        "type": "t_mapping(t_address,t_uint256)"
      },
      {
        "astId": 5769,
        "contract": "contracts/radiant/eligibility/EligibilityDataProvider.sol:EligibilityDataProvider",
        "label": "userDeposits",
        "offset": 0,
        "slot": "111",
        "type": "t_mapping(t_address,t_mapping(t_address,t_uint256))"
      }
    ],
    "types": {
      "t_address": {
        "encoding": "inplace",
        "label": "address",
        "numberOfBytes": "20"
      },
      "t_array(t_uint256)49_storage": {
        "base": "t_uint256",
        "encoding": "inplace",
        "label": "uint256[49]",
        "numberOfBytes": "1568"
      },
      "t_array(t_uint256)50_storage": {
        "base": "t_uint256",
        "encoding": "inplace",
        "label": "uint256[50]",
        "numberOfBytes": "1600"
      },
      "t_bool": {
        "encoding": "inplace",
        "label": "bool",
        "numberOfBytes": "1"
      },
      "t_contract(IChefIncentivesController)1916": {
        "encoding": "inplace",
        "label": "contract IChefIncentivesController",
        "numberOfBytes": "20"
      },
      "t_contract(ILendingPool)2435": {
        "encoding": "inplace",
        "label": "contract ILendingPool",
        "numberOfBytes": "20"
      },
      "t_contract(IMiddleFeeDistribution)2668": {
        "encoding": "inplace",
        "label": "contract IMiddleFeeDistribution",
        "numberOfBytes": "20"
      },
      "t_contract(IPriceProvider)2896": {
        "encoding": "inplace",
        "label": "contract IPriceProvider",
        "numberOfBytes": "20"
      },
      "t_mapping(t_address,t_bool)": {
        "encoding": "mapping",
        "key": "t_address",
        "label": "mapping(address => bool)",
        "numberOfBytes": "32",
        "value": "t_bool"
      },
      "t_mapping(t_address,t_mapping(t_address,t_uint256))": {
        "encoding": "mapping",
        "key": "t_address",
        "label": "mapping(address => mapping(address => uint256))",
        "numberOfBytes": "32",
        "value": "t_mapping(t_address,t_uint256)"
      },
      "t_mapping(t_address,t_uint256)": {
        "encoding": "mapping",
        "key": "t_address",
        "label": "mapping(address => uint256)",
        "numberOfBytes": "32",
        "value": "t_uint256"
      },
      "t_uint256": {
        "encoding": "inplace",
        "label": "uint256",
        "numberOfBytes": "32"
      },
      "t_uint8": {
        "encoding": "inplace",
        "label": "uint8",
        "numberOfBytes": "1"
      }
    }
  }
}