{
  "address": "0x3AE05baB8cC02Bd4d1Ec0cE3754Df9b572254aD3",
  "abi": [
    {
      "anonymous": false,
      "inputs": [
        {
          "indexed": false,
          "internalType": "uint256",
          "name": "_feePercent",
          "type": "uint256"
        }
      ],
      "name": "FeePercentUpdated",
      "type": "event"
    },
    {
      "anonymous": false,
      "inputs": [
        {
          "indexed": false,
          "internalType": "uint8",
          "name": "version",
          "type": "uint8"
        }
      ],
      "name": "Initialized",
      "type": "event"
    },
    {
      "anonymous": false,
      "inputs": [
        {
          "indexed": true,
          "internalType": "address",
          "name": "previousOwner",
          "type": "address"
        },
        {
          "indexed": true,
          "internalType": "address",
          "name": "newOwner",
          "type": "address"
        }
      ],
      "name": "OwnershipTransferred",
      "type": "event"
    },
    {
      "anonymous": false,
      "inputs": [
        {
          "indexed": true,
          "internalType": "address",
          "name": "_treasury",
          "type": "address"
        }
      ],
      "name": "TreasuryUpdated",
      "type": "event"
    },
    {
      "stateMutability": "payable",
      "type": "fallback"
    },
    {
      "inputs": [],
      "name": "API_ETH_MOCK_ADDRESS",
      "outputs": [
        {
          "internalType": "address",
          "name": "",
          "type": "address"
        }
      ],
      "stateMutability": "view",
      "type": "function"
    },
    {
      "inputs": [],
      "name": "RATIO_DIVISOR",
      "outputs": [
        {
          "internalType": "uint256",
          "name": "",
          "type": "uint256"
        }
      ],
      "stateMutability": "view",
      "type": "function"
    },
    {
      "inputs": [],
      "name": "aaveOracle",
      "outputs": [
        {
          "internalType": "contract IAaveOracle",
          "name": "",
          "type": "address"
        }
      ],
      "stateMutability": "view",
      "type": "function"
    },
    {
      "inputs": [],
      "name": "eligibilityDataProvider",
      "outputs": [
        {
          "internalType": "contract IEligibilityDataProvider",
          "name": "",
          "type": "address"
        }
      ],
      "stateMutability": "view",
      "type": "function"
    },
    {
      "inputs": [],
      "name": "feePercent",
      "outputs": [
        {
          "internalType": "uint256",
          "name": "",
          "type": "uint256"
        }
      ],
      "stateMutability": "view",
      "type": "function"
    },
    {
      "inputs": [
        {
          "internalType": "address",
          "name": "asset",
          "type": "address"
        }
      ],
      "name": "getConfiguration",
      "outputs": [
        {
          "components": [
            {
              "internalType": "uint256",
              "name": "data",
              "type": "uint256"
            }
          ],
          "internalType": "struct DataTypes.ReserveConfigurationMap",
          "name": "",
          "type": "tuple"
        }
      ],
      "stateMutability": "view",
      "type": "function"
    },
    {
      "inputs": [
        {
          "internalType": "address",
          "name": "asset",
          "type": "address"
        }
      ],
      "name": "getVDebtToken",
      "outputs": [
        {
          "internalType": "address",
          "name": "",
          "type": "address"
        }
      ],
      "stateMutability": "view",
      "type": "function"
    },
    {
      "inputs": [
        {
          "internalType": "contract ILendingPool",
          "name": "_lendingPool",
          "type": "address"
        },
        {
          "internalType": "contract IEligibilityDataProvider",
          "name": "_rewardEligibleDataProvider",
          "type": "address"
        },
        {
          "internalType": "contract IAaveOracle",
          "name": "_aaveOracle",
          "type": "address"
        },
        {
          "internalType": "contract ILockZap",
          "name": "_lockZap",
          "type": "address"
        },
        {
          "internalType": "contract IWETH",
          "name": "_weth",
          "type": "address"
        },
        {
          "internalType": "uint256",
          "name": "_feePercent",
          "type": "uint256"
        },
        {
          "internalType": "address",
          "name": "_treasury",
          "type": "address"
        }
      ],
      "name": "initialize",
      "outputs": [],
      "stateMutability": "nonpayable",
      "type": "function"
    },
    {
      "inputs": [],
      "name": "lendingPool",
      "outputs": [
        {
          "internalType": "contract ILendingPool",
          "name": "",
          "type": "address"
        }
      ],
      "stateMutability": "view",
      "type": "function"
    },
    {
      "inputs": [],
      "name": "lockZap",
      "outputs": [
        {
          "internalType": "contract ILockZap",
          "name": "",
          "type": "address"
        }
      ],
      "stateMutability": "view",
      "type": "function"
    },
    {
      "inputs": [
        {
          "internalType": "address",
          "name": "asset",
          "type": "address"
        },
        {
          "internalType": "uint256",
          "name": "amount",
          "type": "uint256"
        },
        {
          "internalType": "uint256",
          "name": "interestRateMode",
          "type": "uint256"
        },
        {
          "internalType": "uint256",
          "name": "borrowRatio",
          "type": "uint256"
        },
        {
          "internalType": "uint256",
          "name": "loopCount",
          "type": "uint256"
        },
        {
          "internalType": "bool",
          "name": "isBorrow",
          "type": "bool"
        }
      ],
      "name": "loop",
      "outputs": [],
      "stateMutability": "nonpayable",
      "type": "function"
    },
    {
      "inputs": [
        {
          "internalType": "uint256",
          "name": "interestRateMode",
          "type": "uint256"
        },
        {
          "internalType": "uint256",
          "name": "borrowRatio",
          "type": "uint256"
        },
        {
          "internalType": "uint256",
          "name": "loopCount",
          "type": "uint256"
        }
      ],
      "name": "loopETH",
      "outputs": [],
      "stateMutability": "payable",
      "type": "function"
    },
    {
      "inputs": [
        {
          "internalType": "address",
          "name": "asset",
          "type": "address"
        }
      ],
      "name": "ltv",
      "outputs": [
        {
          "internalType": "uint256",
          "name": "",
          "type": "uint256"
        }
      ],
      "stateMutability": "view",
      "type": "function"
    },
    {
      "inputs": [],
      "name": "owner",
      "outputs": [
        {
          "internalType": "address",
          "name": "",
          "type": "address"
        }
      ],
      "stateMutability": "view",
      "type": "function"
    },
    {
      "inputs": [],
      "name": "renounceOwnership",
      "outputs": [],
      "stateMutability": "nonpayable",
      "type": "function"
    },
    {
      "inputs": [
        {
          "internalType": "uint256",
          "name": "_feePercent",
          "type": "uint256"
        }
      ],
      "name": "setFeePercent",
      "outputs": [],
      "stateMutability": "nonpayable",
      "type": "function"
    },
    {
      "inputs": [
        {
          "internalType": "address",
          "name": "_treasury",
          "type": "address"
        }
      ],
      "name": "setTreasury",
      "outputs": [],
      "stateMutability": "nonpayable",
      "type": "function"
    },
    {
      "inputs": [
        {
          "internalType": "address",
          "name": "newOwner",
          "type": "address"
        }
      ],
      "name": "transferOwnership",
      "outputs": [],
      "stateMutability": "nonpayable",
      "type": "function"
    },
    {
      "inputs": [],
      "name": "treasury",
      "outputs": [
        {
          "internalType": "address",
          "name": "",
          "type": "address"
        }
      ],
      "stateMutability": "view",
      "type": "function"
    },
    {
      "inputs": [],
      "name": "weth",
      "outputs": [
        {
          "internalType": "contract IWETH",
          "name": "",
          "type": "address"
        }
      ],
      "stateMutability": "view",
      "type": "function"
    },
    {
      "inputs": [
        {
          "internalType": "address",
          "name": "user",
          "type": "address"
        }
      ],
      "name": "wethToZap",
      "outputs": [
        {
          "internalType": "uint256",
          "name": "",
          "type": "uint256"
        }
      ],
      "stateMutability": "view",
      "type": "function"
    },
    {
      "inputs": [
        {
          "internalType": "address",
          "name": "user",
          "type": "address"
        },
        {
          "internalType": "address",
          "name": "asset",
          "type": "address"
        },
        {
          "internalType": "uint256",
          "name": "amount",
          "type": "uint256"
        },
        {
          "internalType": "uint256",
          "name": "borrowRatio",
          "type": "uint256"
        },
        {
          "internalType": "uint256",
          "name": "loopCount",
          "type": "uint256"
        }
      ],
      "name": "wethToZapEstimation",
      "outputs": [
        {
          "internalType": "uint256",
          "name": "",
          "type": "uint256"
        }
      ],
      "stateMutability": "view",
      "type": "function"
    },
    {
      "inputs": [
        {
          "internalType": "uint256",
          "name": "amount",
          "type": "uint256"
        },
        {
          "internalType": "address",
          "name": "borrower",
          "type": "address"
        }
      ],
      "name": "zapWETHWithBorrow",
      "outputs": [
        {
          "internalType": "uint256",
          "name": "liquidity",
          "type": "uint256"
        }
      ],
      "stateMutability": "nonpayable",
      "type": "function"
    },
    {
      "stateMutability": "payable",
      "type": "receive"
    }
  ],
  "transactionHash": "0x2b3843920191162a85e79fb3a4625248445517051546ada7eadb8066669e5811",
  "args": [],
  "numDeployments": 1,
  "solcInputHash": "9ed8517f072d3887f8d783037813f24b",
  "bytecode": "0x608060405234801561001057600080fd5b50612c7c806100206000396000f3fe6080604052600436106101845760003560e01c806376e82e8b116100d6578063c44b11f71161007f578063ec67ff7311610059578063ec67ff73146104c6578063f0f44260146104e6578063f2fde38b14610506576101ea565b8063c44b11f714610457578063cd498dc414610486578063eabcca10146104a6576101ea565b80638da5cb5b116100b05780638da5cb5b14610406578063a59a997314610424578063a8d5a45214610444576101ea565b806376e82e8b146103b05780637ce3489b146103d05780637fd6f15c146103f0576101ea565b806361d027b3116101385780636a7e9f33116101125780636a7e9f3314610365578063715018a61461037b5780637473eea614610390576101ea565b806361d027b3146103055780636372b28114610325578063667f374514610345576101ea565b8063171b3e4311610169578063171b3e431461029d5780633fc8cef3146102bd578063602acb7e146102dd576101ea565b806303bf24e51461023257806306346c3014610265576101ea565b366101ea576068546001600160a01b031633146101e85760405162461bcd60e51b815260206004820152601360248201527f52656365697665206e6f7420616c6c6f7765640000000000000000000000000060448201526064015b60405180910390fd5b005b60405162461bcd60e51b815260206004820152601460248201527f46616c6c6261636b206e6f7420616c6c6f77656400000000000000000000000060448201526064016101df565b34801561023e57600080fd5b5061025261024d366004612605565b610526565b6040519081526020015b60405180910390f35b34801561027157600080fd5b50606754610285906001600160a01b031681565b6040516001600160a01b03909116815260200161025c565b3480156102a957600080fd5b506101e86102b8366004612630565b6107da565b3480156102c957600080fd5b50606854610285906001600160a01b031681565b3480156102e957600080fd5b5061028573eeeeeeeeeeeeeeeeeeeeeeeeeeeeeeeeeeeeeeee81565b34801561031157600080fd5b50606b54610285906001600160a01b031681565b34801561033157600080fd5b50606954610285906001600160a01b031681565b34801561035157600080fd5b50610285610360366004612605565b610bc8565b34801561037157600080fd5b5061025261271081565b34801561038757600080fd5b506101e8610c60565b34801561039c57600080fd5b506102526103ab366004612605565b610c74565b3480156103bc57600080fd5b50606654610285906001600160a01b031681565b3480156103dc57600080fd5b506101e86103eb36600461268e565b610d00565b3480156103fc57600080fd5b50610252606a5481565b34801561041257600080fd5b506033546001600160a01b0316610285565b34801561043057600080fd5b50606554610285906001600160a01b031681565b6101e86104523660046126a7565b610d85565b34801561046357600080fd5b50610477610472366004612605565b61129b565b6040519051815260200161025c565b34801561049257600080fd5b506102526104a13660046126d3565b61131e565b3480156104b257600080fd5b506101e86104c1366004612724565b61169b565b3480156104d257600080fd5b506102526104e13660046127b1565b6119fe565b3480156104f257600080fd5b506101e8610501366004612605565b611c35565b34801561051257600080fd5b506101e8610521366004612605565b611c94565b6066546040516371c7ee1b60e11b81526001600160a01b038381166004830152600092839291169063e38fdc3690602401602060405180830381865afa158015610574573d6000803e3d6000fd5b505050506040513d601f19601f8201168201806040525081019061059891906127e1565b606654604051636d9077cb60e01b81526001600160a01b03868116600483015292935060009290911690636d9077cb90602401602060405180830381865afa1580156105e8573d6000803e3d6000fd5b505050506040513d601f19601f8201168201806040525081019061060c91906127e1565b905081811061061f575060009392505050565b600061062b8383611d24565b60695460685460405163b3596f0760e01b81526001600160a01b03918216600482015292935060009291169063b3596f0790602401602060405180830381865afa15801561067d573d6000803e3d6000fd5b505050506040513d601f19601f820116820180604052508101906106a191906127e1565b606954606854604051630495f95f60e51b81526001600160a01b0391821660048201529293506000929116906392bf2be090602401602060405180830381865afa1580156106f3573d6000803e3d6000fd5b505050506040513d601f19601f82011682018060405250810190610717919061280a565b6001600160a01b031663313ce5676040518163ffffffff1660e01b8152600401602060405180830381865afa158015610754573d6000803e3d6000fd5b505050506040513d601f19601f820116820180604052508101906107789190612838565b905060006107b26305f5e1006107ac858161079487600a61294d565b6107a68a670de0b6b3a7640000611d30565b90611d30565b90611d3c565b90506107ce6107c760646107ac846006611d30565b8290611d48565b98975050505050505050565b61271083111561081c5760405162461bcd60e51b815260206004820152600d60248201526c496e76616c696420726174696f60981b60448201526064016101df565b6000808261087e576108396001600160a01b03891633308a611d54565b6108546127106107ac606a548a611d3090919063ffffffff16565b606b54909150610871906001600160a01b038a8116911683611e0b565b61087b8782611d24565b96505b606554604051636eb1769f60e11b81523060048201526001600160a01b0391821660248201529089169063dd62ed3e90604401602060405180830381865afa1580156108ce573d6000803e3d6000fd5b505050506040513d601f19601f820116820180604052508101906108f291906127e1565b61091257606554610912906001600160a01b038a81169116600019611e59565b606b54604051636eb1769f60e11b81523060048201526001600160a01b0391821660248201529089169063dd62ed3e90604401602060405180830381865afa158015610962573d6000803e3d6000fd5b505050506040513d601f19601f8201168201806040525081019061098691906127e1565b6109a657606b546109a6906001600160a01b038a81169116600019611e59565b82610a225760655460405163e8eda9df60e01b81526001600160a01b038a81166004830152602482018a905233604483015261ffff851660648301529091169063e8eda9df90608401600060405180830381600087803b158015610a0957600080fd5b505af1158015610a1d573d6000803e3d6000fd5b505050505b60005b84811015610baa57610a3d6127106107ac8a89611d30565b60655460405163a415bcad60e01b81526001600160a01b038c8116600483015260248201849052604482018b905261ffff87166064830152336084830152929a5091169063a415bcad9060a401600060405180830381600087803b158015610aa457600080fd5b505af1158015610ab8573d6000803e3d6000fd5b50505050610ad76127106107ac606a548b611d3090919063ffffffff16565b606b54909250610af4906001600160a01b038b8116911684611e0b565b6065546001600160a01b031663e8eda9df8a610b108b86611d24565b6040517fffffffff0000000000000000000000000000000000000000000000000000000060e085901b1681526001600160a01b039092166004830152602482015233604482015261ffff86166064820152608401600060405180830381600087803b158015610b7e57600080fd5b505af1158015610b92573d6000803e3d6000fd5b50505050600181610ba3919061295c565b9050610a25565b50610bbd610bb733610526565b336119fe565b505050505050505050565b6065546040517f35ea6a750000000000000000000000000000000000000000000000000000000081526001600160a01b03838116600483015260009283929116906335ea6a759060240161018060405180830381865afa158015610c30573d6000803e3d6000fd5b505050506040513d601f19601f82011682018060405250810190610c549190612a31565b61012001519392505050565b610c68611f8e565b610c726000611fe8565b565b60655460405163c44b11f760e01b81526001600160a01b038381166004830152600092839291169063c44b11f790602401602060405180830381865afa158015610cc2573d6000803e3d6000fd5b505050506040513d601f19601f82011682018060405250810190610ce69190612b1e565b8051909150610cf9906201000090612b50565b9392505050565b610d08611f8e565b612710811115610d4a5760405162461bcd60e51b815260206004820152600d60248201526c496e76616c696420726174696f60981b60448201526064016101df565b606a8190556040518181527f64d1887078a96d281ed60dd69ba75bfb6b5cd2cb4c2d2538b2eb7816a4c646ea9060200160405180910390a150565b612710821115610dc75760405162461bcd60e51b815260206004820152600d60248201526c496e76616c696420726174696f60981b60448201526064016101df565b606854606554604051636eb1769f60e11b81523060048201526001600160a01b0391821660248201526000923492169063dd62ed3e90604401602060405180830381865afa158015610e1d573d6000803e3d6000fd5b505050506040513d601f19601f82011682018060405250810190610e4191906127e1565b610e6457606554606854610e64916001600160a01b039182169116600019611e59565b606854606b54604051636eb1769f60e11b81523060048201526001600160a01b03918216602482015291169063dd62ed3e90604401602060405180830381865afa158015610eb6573d6000803e3d6000fd5b505050506040513d601f19601f82011682018060405250810190610eda91906127e1565b610efd57606b54606854610efd916001600160a01b039182169116600019611e59565b6000610f1a6127106107ac606a5485611d3090919063ffffffff16565b606b54909150610f33906001600160a01b031682612047565b610f3d8282611d24565b9150606860009054906101000a90046001600160a01b03166001600160a01b031663d0e30db0836040518263ffffffff1660e01b81526004016000604051808303818588803b158015610f8f57600080fd5b505af1158015610fa3573d6000803e3d6000fd5b505060655460685460405163e8eda9df60e01b81526001600160a01b0391821660048201526024810188905233604482015261ffff891660648201529116935063e8eda9df92506084019050600060405180830381600087803b15801561100957600080fd5b505af115801561101d573d6000803e3d6000fd5b5050505060005b848110156112855761103c6127106107ac8589611d30565b60655460685460405163a415bcad60e01b81526001600160a01b03918216600482015260248101849052604481018b905261ffff88166064820152336084820152929550169063a415bcad9060a401600060405180830381600087803b1580156110a557600080fd5b505af11580156110b9573d6000803e3d6000fd5b50506068546040517f2e1a7d4d000000000000000000000000000000000000000000000000000000008152600481018790526001600160a01b039091169250632e1a7d4d9150602401600060405180830381600087803b15801561111c57600080fd5b505af1158015611130573d6000803e3d6000fd5b5050505061114f6127106107ac606a5486611d3090919063ffffffff16565b606b54909250611168906001600160a01b031683612047565b6068546001600160a01b031663d0e30db06111838585611d24565b6040518263ffffffff1660e01b81526004016000604051808303818588803b1580156111ae57600080fd5b505af11580156111c2573d6000803e3d6000fd5b50506065546068546001600160a01b03918216945063e8eda9df93501690506111eb8686611d24565b6040517fffffffff0000000000000000000000000000000000000000000000000000000060e085901b1681526001600160a01b039092166004830152602482015233604482015261ffff87166064820152608401600060405180830381600087803b15801561125957600080fd5b505af115801561126d573d6000803e3d6000fd5b5050505060018161127e919061295c565b9050611024565b50611292610bb733610526565b50505050505050565b60408051602081019091526000815260655460405163c44b11f760e01b81526001600160a01b0384811660048301529091169063c44b11f790602401602060405180830381865afa1580156112f4573d6000803e3d6000fd5b505050506040513d601f19601f820116820180604052508101906113189190612b1e565b92915050565b60006001600160a01b03851673eeeeeeeeeeeeeeeeeeeeeeeeeeeeeeeeeeeeeeee1415611354576068546001600160a01b031694505b6066546040516371c7ee1b60e11b81526001600160a01b038881166004830152600092169063e38fdc3690602401602060405180830381865afa15801561139f573d6000803e3d6000fd5b505050506040513d601f19601f820116820180604052508101906113c391906127e1565b606654604051636d9077cb60e01b81526001600160a01b038a8116600483015292935060009290911690636d9077cb90602401602060405180830381865afa158015611413573d6000803e3d6000fd5b505050506040513d601f19601f8201168201806040525081019061143791906127e1565b905060006114566127106107ac606a548a611d3090919063ffffffff16565b90506114628782611d24565b96506114786114718989612104565b8490611d48565b925060005b858110156114e5576114956127106107ac8a8a611d30565b97506114b26127106107ac606a548b611d3090919063ffffffff16565b91506114d16114ca8a6114c58b86611d24565b612104565b8590611d48565b93506114de60018261295c565b905061147d565b508282106114f95760009350505050611692565b60006115058484611d24565b60695460685460405163b3596f0760e01b81526001600160a01b03918216600482015292935060009291169063b3596f0790602401602060405180830381865afa158015611557573d6000803e3d6000fd5b505050506040513d601f19601f8201168201806040525081019061157b91906127e1565b606954606854604051630495f95f60e51b81526001600160a01b0391821660048201529293506000929116906392bf2be090602401602060405180830381865afa1580156115cd573d6000803e3d6000fd5b505050506040513d601f19601f820116820180604052508101906115f1919061280a565b6001600160a01b031663313ce5676040518163ffffffff1660e01b8152600401602060405180830381865afa15801561162e573d6000803e3d6000fd5b505050506040513d601f19601f820116820180604052508101906116529190612838565b9050600061166e6305f5e1006107ac858161079487600a61294d565b90506116836107c760646107ac846006611d30565b97506116929650505050505050565b95945050505050565b600054610100900460ff16158080156116bb5750600054600160ff909116105b806116d55750303b1580156116d5575060005460ff166001145b6117475760405162461bcd60e51b815260206004820152602e60248201527f496e697469616c697a61626c653a20636f6e747261637420697320616c72656160448201527f647920696e697469616c697a656400000000000000000000000000000000000060648201526084016101df565b6000805460ff19166001179055801561176a576000805461ff0019166101001790555b6001600160a01b0388166117b65760405162461bcd60e51b81526020600482015260136024820152724e6f7420612076616c6964206164647265737360681b60448201526064016101df565b6001600160a01b0387166118025760405162461bcd60e51b81526020600482015260136024820152724e6f7420612076616c6964206164647265737360681b60448201526064016101df565b6001600160a01b03861661184e5760405162461bcd60e51b81526020600482015260136024820152724e6f7420612076616c6964206164647265737360681b60448201526064016101df565b6001600160a01b03851661189a5760405162461bcd60e51b81526020600482015260136024820152724e6f7420612076616c6964206164647265737360681b60448201526064016101df565b6001600160a01b0384166118e65760405162461bcd60e51b81526020600482015260136024820152724e6f7420612076616c6964206164647265737360681b60448201526064016101df565b6001600160a01b0382166119325760405162461bcd60e51b81526020600482015260136024820152724e6f7420612076616c6964206164647265737360681b60448201526064016101df565b61193a612304565b6065805473ffffffffffffffffffffffffffffffffffffffff199081166001600160a01b038b8116919091179092556066805482168a8416179055606780548216888416179055606980548216898416179055606880548216878416179055606a859055606b805490911691841691909117905580156119f4576000805461ff0019169055604051600181527f7f26b83ff96e1f2b6a682f133852f6798a09c465da95921460cefb38474024989060200160405180910390a15b5050505050505050565b6000336001600160a01b0383161480611a2157506065546001600160a01b031633145b611a6d5760405162461bcd60e51b815260206004820152601660248201527f21626f72726f7765727c7c6c656e64696e67706f6f6c0000000000000000000060448201526064016101df565b82156113185760655460685460405163a415bcad60e01b81526001600160a01b0391821660048201526024810186905260026044820152600060648201819052858316608483015292919091169063a415bcad9060a401600060405180830381600087803b158015611ade57600080fd5b505af1158015611af2573d6000803e3d6000fd5b5050606854606754604051636eb1769f60e11b81523060048201526001600160a01b0391821660248201529116925063dd62ed3e9150604401602060405180830381865afa158015611b48573d6000803e3d6000fd5b505050506040513d601f19601f82011682018060405250810190611b6c91906127e1565b611b8f57606754606854611b8f916001600160a01b039182169116600019611e59565b6067546040517fd47808850000000000000000000000000000000000000000000000000000000081526000600482018190526024820187905260448201526001600160a01b0385811660648301529091169063d4780885906084016020604051808303816000875af1158015611c09573d6000803e3d6000fd5b505050506040513d601f19601f82011682018060405250810190611c2d91906127e1565b949350505050565b611c3d611f8e565b606b805473ffffffffffffffffffffffffffffffffffffffff19166001600160a01b0383169081179091556040517f7dae230f18360d76a040c81f050aa14eb9d6dc7901b20fc5d855e2a20fe814d190600090a250565b611c9c611f8e565b6001600160a01b038116611d185760405162461bcd60e51b815260206004820152602660248201527f4f776e61626c653a206e6577206f776e657220697320746865207a65726f206160448201527f646472657373000000000000000000000000000000000000000000000000000060648201526084016101df565b611d2181611fe8565b50565b6000610cf98284612b64565b6000610cf98284612b7b565b6000610cf98284612b9a565b6000610cf9828461295c565b6040516001600160a01b0380851660248301528316604482015260648101829052611e059085907f23b872dd00000000000000000000000000000000000000000000000000000000906084015b60408051601f198184030181529190526020810180517bffffffffffffffffffffffffffffffffffffffffffffffffffffffff167fffffffff0000000000000000000000000000000000000000000000000000000090931692909217909152612377565b50505050565b6040516001600160a01b038316602482015260448101829052611e549084907fa9059cbb0000000000000000000000000000000000000000000000000000000090606401611da1565b505050565b801580611ed35750604051636eb1769f60e11b81523060048201526001600160a01b03838116602483015284169063dd62ed3e90604401602060405180830381865afa158015611ead573d6000803e3d6000fd5b505050506040513d601f19601f82011682018060405250810190611ed191906127e1565b155b611f455760405162461bcd60e51b815260206004820152603660248201527f5361666545524332303a20617070726f76652066726f6d206e6f6e2d7a65726f60448201527f20746f206e6f6e2d7a65726f20616c6c6f77616e63650000000000000000000060648201526084016101df565b6040516001600160a01b038316602482015260448101829052611e549084907f095ea7b30000000000000000000000000000000000000000000000000000000090606401611da1565b6033546001600160a01b03163314610c725760405162461bcd60e51b815260206004820181905260248201527f4f776e61626c653a2063616c6c6572206973206e6f7420746865206f776e657260448201526064016101df565b603380546001600160a01b0383811673ffffffffffffffffffffffffffffffffffffffff19831681179093556040519116919082907f8be0079c531659141344cd1fd0a4f28419497f9722a3daafe3b4186f6b6457e090600090a35050565b604080516000808252602082019092526001600160a01b0384169083906040516120719190612bda565b60006040518083038185875af1925050503d80600081146120ae576040519150601f19603f3d011682016040523d82523d6000602084013e6120b3565b606091505b5050905080611e545760405162461bcd60e51b815260206004820152601360248201527f4554485f5452414e534645525f4641494c45440000000000000000000000000060448201526064016101df565b60695460405163b3596f0760e01b81526001600160a01b038481166004830152600092839291169063b3596f0790602401602060405180830381865afa158015612152573d6000803e3d6000fd5b505050506040513d601f19601f8201168201806040525081019061217691906127e1565b90506000846001600160a01b031663313ce5676040518163ffffffff1660e01b8152600401602060405180830381865afa1580156121b8573d6000803e3d6000fd5b505050506040513d601f19601f820116820180604052508101906121dc9190612838565b905060006122fa606660009054906101000a90046001600160a01b03166001600160a01b0316636a7e9f336040518163ffffffff1660e01b8152600401602060405180830381865afa158015612236573d6000803e3d6000fd5b505050506040513d601f19601f8201168201806040525081019061225a91906127e1565b606654604080517fd52874da00000000000000000000000000000000000000000000000000000000815290516107ac926001600160a01b03169163d52874da9160048083019260209291908290030181865afa1580156122be573d6000803e3d6000fd5b505050506040513d601f19601f820116820180604052508101906122e291906127e1565b6107a66122f087600a61294d565b6107ac898c611d30565b9695505050505050565b600054610100900460ff1661236f5760405162461bcd60e51b815260206004820152602b60248201527f496e697469616c697a61626c653a20636f6e7472616374206973206e6f74206960448201526a6e697469616c697a696e6760a81b60648201526084016101df565b610c7261245c565b60006123cc826040518060400160405280602081526020017f5361666545524332303a206c6f772d6c6576656c2063616c6c206661696c6564815250856001600160a01b03166124d09092919063ffffffff16565b805190915015611e5457808060200190518101906123ea9190612bf6565b611e545760405162461bcd60e51b815260206004820152602a60248201527f5361666545524332303a204552433230206f7065726174696f6e20646964206e60448201527f6f7420737563636565640000000000000000000000000000000000000000000060648201526084016101df565b600054610100900460ff166124c75760405162461bcd60e51b815260206004820152602b60248201527f496e697469616c697a61626c653a20636f6e7472616374206973206e6f74206960448201526a6e697469616c697a696e6760a81b60648201526084016101df565b610c7233611fe8565b6060611c2d848460008585600080866001600160a01b031685876040516124f79190612bda565b60006040518083038185875af1925050503d8060008114612534576040519150601f19603f3d011682016040523d82523d6000602084013e612539565b606091505b509150915061254a87838387612555565b979650505050505050565b606083156125c15782516125ba576001600160a01b0385163b6125ba5760405162461bcd60e51b815260206004820152601d60248201527f416464726573733a2063616c6c20746f206e6f6e2d636f6e747261637400000060448201526064016101df565b5081611c2d565b611c2d83838151156125d65781518083602001fd5b8060405162461bcd60e51b81526004016101df9190612c13565b6001600160a01b0381168114611d2157600080fd5b60006020828403121561261757600080fd5b8135610cf9816125f0565b8015158114611d2157600080fd5b60008060008060008060c0878903121561264957600080fd5b8635612654816125f0565b95506020870135945060408701359350606087013592506080870135915060a087013561268081612622565b809150509295509295509295565b6000602082840312156126a057600080fd5b5035919050565b6000806000606084860312156126bc57600080fd5b505081359360208301359350604090920135919050565b600080600080600060a086880312156126eb57600080fd5b85356126f6816125f0565b94506020860135612706816125f0565b94979496505050506040830135926060810135926080909101359150565b600080600080600080600060e0888a03121561273f57600080fd5b873561274a816125f0565b9650602088013561275a816125f0565b9550604088013561276a816125f0565b9450606088013561277a816125f0565b9350608088013561278a816125f0565b925060a0880135915060c08801356127a1816125f0565b8091505092959891949750929550565b600080604083850312156127c457600080fd5b8235915060208301356127d6816125f0565b809150509250929050565b6000602082840312156127f357600080fd5b5051919050565b8051612805816125f0565b919050565b60006020828403121561281c57600080fd5b8151610cf9816125f0565b805160ff8116811461280557600080fd5b60006020828403121561284a57600080fd5b610cf982612827565b634e487b7160e01b600052601160045260246000fd5b600181815b808511156128a457816000190482111561288a5761288a612853565b8085161561289757918102915b93841c939080029061286e565b509250929050565b6000826128bb57506001611318565b816128c857506000611318565b81600181146128de57600281146128e857612904565b6001915050611318565b60ff8411156128f9576128f9612853565b50506001821b611318565b5060208310610133831016604e8410600b8410161715612927575081810a611318565b6129318383612869565b806000190482111561294557612945612853565b029392505050565b6000610cf960ff8416836128ac565b6000821982111561296f5761296f612853565b500190565b604051610180810167ffffffffffffffff811182821017156129a657634e487b7160e01b600052604160045260246000fd5b60405290565b6000602082840312156129be57600080fd5b6040516020810181811067ffffffffffffffff821117156129ef57634e487b7160e01b600052604160045260246000fd5b6040529151825250919050565b80516fffffffffffffffffffffffffffffffff8116811461280557600080fd5b805164ffffffffff8116811461280557600080fd5b60006101808284031215612a4457600080fd5b612a4c612974565b612a5684846129ac565b8152612a64602084016129fc565b6020820152612a75604084016129fc565b6040820152612a86606084016129fc565b6060820152612a97608084016129fc565b6080820152612aa860a084016129fc565b60a0820152612ab960c08401612a1c565b60c0820152612aca60e084016127fa565b60e0820152610100612add8185016127fa565b90820152610120612aef8482016127fa565b90820152610140612b018482016127fa565b90820152610160612b13848201612827565b908201529392505050565b600060208284031215612b3057600080fd5b610cf983836129ac565b634e487b7160e01b600052601260045260246000fd5b600082612b5f57612b5f612b3a565b500690565b600082821015612b7657612b76612853565b500390565b6000816000190483118215151615612b9557612b95612853565b500290565b600082612ba957612ba9612b3a565b500490565b60005b83811015612bc9578181015183820152602001612bb1565b83811115611e055750506000910152565b60008251612bec818460208701612bae565b9190910192915050565b600060208284031215612c0857600080fd5b8151610cf981612622565b6020815260008251806020840152612c32816040850160208701612bae565b601f01601f1916919091016040019291505056fea26469706673582212201b3f2b6219794a63107c97d2ffeb50e3ffd276474e652d15c88e9e2b9a64201964736f6c634300080c0033",
  "devdoc": {
    "author": "Radiant",
    "details": "All function calls are currently implemented without side effects",
    "kind": "dev",
    "methods": {
      "getConfiguration(address)": {
        "details": "Returns the configuration of the reserve",
        "params": {
          "asset": "The address of the underlying asset of the reserve"
        },
        "returns": {
          "_0": "The configuration of the reserve*"
        }
      },
      "getVDebtToken(address)": {
        "details": "Returns variable debt token address of asset",
        "params": {
          "asset": "The address of the underlying asset of the reserve"
        },
        "returns": {
          "_0": "varaiableDebtToken address of the asset*"
        }
      },
      "initialize(address,address,address,address,address,uint256,address)": {
        "params": {
          "_aaveOracle": "address.",
          "_feePercent": "leveraging fee ratio.",
          "_lendingPool": "Address of lending pool.",
          "_lockZap": "address.",
          "_rewardEligibleDataProvider": "EligibilityProvider address.",
          "_treasury": "address.",
          "_weth": "WETH address."
        }
      },
      "loop(address,uint256,uint256,uint256,uint256,bool)": {
        "details": "Loop the deposit and borrow of an asset",
        "params": {
          "amount": "for the initial deposit",
          "asset": "for loop",
          "borrowRatio": "Ratio of tokens to borrow",
          "interestRateMode": "stable or variable borrow mode",
          "isBorrow": "true when the loop without deposit tokens*",
          "loopCount": "Repeat count for loop"
        }
      },
      "loopETH(uint256,uint256,uint256)": {
        "details": "Loop the deposit and borrow of ETH",
        "params": {
          "borrowRatio": "Ratio of tokens to borrow",
          "interestRateMode": "stable or variable borrow mode",
          "loopCount": "Repeat count for loop*"
        }
      },
      "ltv(address)": {
        "details": "Returns loan to value",
        "params": {
          "asset": "The address of the underlying asset of the reserve"
        },
        "returns": {
          "_0": "ltv of the asset*"
        }
      },
      "owner()": {
        "details": "Returns the address of the current owner."
      },
      "renounceOwnership()": {
        "details": "Leaves the contract without owner. It will not be possible to call `onlyOwner` functions anymore. Can only be called by the current owner. NOTE: Renouncing ownership will leave the contract without an owner, thereby removing any functionality that is only available to the owner."
      },
      "setFeePercent(uint256)": {
        "params": {
          "_feePercent": "fee ratio."
        }
      },
      "setTreasury(address)": {
        "params": {
          "_treasury": "address"
        }
      },
      "transferOwnership(address)": {
        "details": "Transfers ownership of the contract to a new account (`newOwner`). Can only be called by the current owner."
      },
      "wethToZap(address)": {
        "params": {
          "user": "for zap*"
        }
      },
      "wethToZapEstimation(address,address,uint256,uint256,uint256)": {
        "params": {
          "amount": "of `asset`",
          "asset": "src token",
          "borrowRatio": "Single ratio of borrow",
          "loopCount": "Repeat count for loop*",
          "user": "for zap"
        }
      },
      "zapWETHWithBorrow(uint256,address)": {
        "params": {
          "amount": "to zap",
          "borrower": "to zap"
        },
        "returns": {
          "liquidity": "amount by zapping*"
        }
      }
    },
    "title": "Leverager Contract",
    "version": 1
  },
  "userdoc": {
    "events": {
      "FeePercentUpdated(uint256)": {
        "notice": "Emitted when fee ratio is updated"
      },
      "TreasuryUpdated(address)": {
        "notice": "Emitted when treasury is updated"
      }
    },
    "kind": "user",
    "methods": {
      "API_ETH_MOCK_ADDRESS()": {
        "notice": "Mock ETH address"
      },
      "RATIO_DIVISOR()": {
        "notice": "Ratio Divisor"
      },
      "aaveOracle()": {
        "notice": "Aave oracle address"
      },
      "eligibilityDataProvider()": {
        "notice": "EligibilityDataProvider contract address"
      },
      "feePercent()": {
        "notice": "Fee ratio"
      },
      "initialize(address,address,address,address,address,uint256,address)": {
        "notice": "Constructor"
      },
      "lendingPool()": {
        "notice": "Lending Pool address"
      },
      "lockZap()": {
        "notice": "LockZap contract address"
      },
      "setFeePercent(uint256)": {
        "notice": "Sets fee ratio"
      },
      "setTreasury(address)": {
        "notice": "Sets fee ratio"
      },
      "treasury()": {
        "notice": "Treasury address"
      },
      "weth()": {
        "notice": "Wrapped ETH contract address"
      },
      "wethToZap(address)": {
        "notice": "Return estimated zap WETH amount for eligbility."
      },
      "wethToZapEstimation(address,address,uint256,uint256,uint256)": {
        "notice": "Return estimated zap WETH amount for eligbility after loop."
      },
      "zapWETHWithBorrow(uint256,address)": {
        "notice": "Zap WETH by borrowing."
      }
    },
    "version": 1
  },
  "storageLayout": {
    "storage": [
      {
        "astId": 138,
        "contract": "contracts/radiant/accessories/Leverager.sol:Leverager",
        "label": "_initialized",
        "offset": 0,
        "slot": "0",
        "type": "t_uint8"
      },
      {
        "astId": 141,
        "contract": "contracts/radiant/accessories/Leverager.sol:Leverager",
        "label": "_initializing",
        "offset": 1,
        "slot": "0",
        "type": "t_bool"
      },
      {
        "astId": 625,
        "contract": "contracts/radiant/accessories/Leverager.sol:Leverager",
        "label": "__gap",
        "offset": 0,
        "slot": "1",
        "type": "t_array(t_uint256)50_storage"
      },
      {
        "astId": 10,
        "contract": "contracts/radiant/accessories/Leverager.sol:Leverager",
        "label": "_owner",
        "offset": 0,
        "slot": "51",
        "type": "t_address"
      },
      {
        "astId": 130,
        "contract": "contracts/radiant/accessories/Leverager.sol:Leverager",
        "label": "__gap",
        "offset": 0,
        "slot": "52",
        "type": "t_array(t_uint256)49_storage"
      },
      {
        "astId": 3897,
        "contract": "contracts/radiant/accessories/Leverager.sol:Leverager",
        "label": "lendingPool",
        "offset": 0,
        "slot": "101",
        "type": "t_contract(ILendingPool)2435"
      },
      {
        "astId": 3901,
        "contract": "contracts/radiant/accessories/Leverager.sol:Leverager",
        "label": "eligibilityDataProvider",
        "offset": 0,
        "slot": "102",
        "type": "t_contract(IEligibilityDataProvider)2013"
      },
      {
        "astId": 3905,
        "contract": "contracts/radiant/accessories/Leverager.sol:Leverager",
        "label": "lockZap",
        "offset": 0,
        "slot": "103",
        "type": "t_contract(ILockZap)2626"
      },
      {
        "astId": 3909,
        "contract": "contracts/radiant/accessories/Leverager.sol:Leverager",
        "label": "weth",
        "offset": 0,
        "slot": "104",
        "type": "t_contract(IWETH)3080"
      },
      {
        "astId": 3913,
        "contract": "contracts/radiant/accessories/Leverager.sol:Leverager",
        "label": "aaveOracle",
        "offset": 0,
        "slot": "105",
        "type": "t_contract(IAaveOracle)1810"
      },
      {
        "astId": 3916,
        "contract": "contracts/radiant/accessories/Leverager.sol:Leverager",
        "label": "feePercent",
        "offset": 0,
        "slot": "106",
        "type": "t_uint256"
      },
      {
        "astId": 3919,
        "contract": "contracts/radiant/accessories/Leverager.sol:Leverager",
        "label": "treasury",
        "offset": 0,
        "slot": "107",
        "type": "t_address"
      }
    ],
    "types": {
      "t_address": {
        "encoding": "inplace",
        "label": "address",
        "numberOfBytes": "20"
      },
      "t_array(t_uint256)49_storage": {
        "base": "t_uint256",
        "encoding": "inplace",
        "label": "uint256[49]",
        "numberOfBytes": "1568"
      },
      "t_array(t_uint256)50_storage": {
        "base": "t_uint256",
        "encoding": "inplace",
        "label": "uint256[50]",
        "numberOfBytes": "1600"
      },
      "t_bool": {
        "encoding": "inplace",
        "label": "bool",
        "numberOfBytes": "1"
      },
      "t_contract(IAaveOracle)1810": {
        "encoding": "inplace",
        "label": "contract IAaveOracle",
        "numberOfBytes": "20"
      },
      "t_contract(IEligibilityDataProvider)2013": {
        "encoding": "inplace",
        "label": "contract IEligibilityDataProvider",
        "numberOfBytes": "20"
      },
      "t_contract(ILendingPool)2435": {
        "encoding": "inplace",
        "label": "contract ILendingPool",
        "numberOfBytes": "20"
      },
      "t_contract(ILockZap)2626": {
        "encoding": "inplace",
        "label": "contract ILockZap",
        "numberOfBytes": "20"
      },
      "t_contract(IWETH)3080": {
        "encoding": "inplace",
        "label": "contract IWETH",
        "numberOfBytes": "20"
      },
      "t_uint256": {
        "encoding": "inplace",
        "label": "uint256",
        "numberOfBytes": "32"
      },
      "t_uint8": {
        "encoding": "inplace",
        "label": "uint8",
        "numberOfBytes": "1"
      }
    }
  }
}