{
  "address": "0x3f1b4DaE9C5cC45fCbadb14bE6B2687f387818f9",
  "abi": [
    {
      "inputs": [
        {
          "internalType": "contract ERC20",
          "name": "_tokenV1",
          "type": "address"
        },
        {
          "internalType": "contract ERC20",
          "name": "_tokenV2",
          "type": "address"
        }
      ],
      "stateMutability": "nonpayable",
      "type": "constructor"
    },
    {
      "anonymous": false,
      "inputs": [
        {
          "indexed": true,
          "internalType": "address",
          "name": "user",
          "type": "address"
        },
        {
          "indexed": false,
          "internalType": "uint256",
          "name": "amount",
          "type": "uint256"
        }
      ],
      "name": "Migrate",
      "type": "event"
    },
    {
      "anonymous": false,
      "inputs": [
        {
          "indexed": true,
          "internalType": "address",
          "name": "previousOwner",
          "type": "address"
        },
        {
          "indexed": true,
          "internalType": "address",
          "name": "newOwner",
          "type": "address"
        }
      ],
      "name": "OwnershipTransferred",
      "type": "event"
    },
    {
      "anonymous": false,
      "inputs": [
        {
          "indexed": false,
          "internalType": "address",
          "name": "account",
          "type": "address"
        }
      ],
      "name": "Paused",
      "type": "event"
    },
    {
      "anonymous": false,
      "inputs": [
        {
          "indexed": false,
          "internalType": "address",
          "name": "account",
          "type": "address"
        }
      ],
      "name": "Unpaused",
      "type": "event"
    },
    {
      "inputs": [
        {
          "internalType": "uint256",
          "name": "_amount",
          "type": "uint256"
        }
      ],
      "name": "exchange",
      "outputs": [],
      "stateMutability": "nonpayable",
      "type": "function"
    },
    {
      "inputs": [],
      "name": "owner",
      "outputs": [
        {
          "internalType": "address",
          "name": "",
          "type": "address"
        }
      ],
      "stateMutability": "view",
      "type": "function"
    },
    {
      "inputs": [],
      "name": "pause",
      "outputs": [],
      "stateMutability": "nonpayable",
      "type": "function"
    },
    {
      "inputs": [],
      "name": "paused",
      "outputs": [
        {
          "internalType": "bool",
          "name": "",
          "type": "bool"
        }
      ],
      "stateMutability": "view",
      "type": "function"
    },
    {
      "inputs": [],
      "name": "renounceOwnership",
      "outputs": [],
      "stateMutability": "nonpayable",
      "type": "function"
    },
    {
      "inputs": [],
      "name": "tokenV1",
      "outputs": [
        {
          "internalType": "contract ERC20",
          "name": "",
          "type": "address"
        }
      ],
      "stateMutability": "view",
      "type": "function"
    },
    {
      "inputs": [],
      "name": "tokenV2",
      "outputs": [
        {
          "internalType": "contract ERC20",
          "name": "",
          "type": "address"
        }
      ],
      "stateMutability": "view",
      "type": "function"
    },
    {
      "inputs": [
        {
          "internalType": "address",
          "name": "newOwner",
          "type": "address"
        }
      ],
      "name": "transferOwnership",
      "outputs": [],
      "stateMutability": "nonpayable",
      "type": "function"
    },
    {
      "inputs": [],
      "name": "unpause",
      "outputs": [],
      "stateMutability": "nonpayable",
      "type": "function"
    },
    {
      "inputs": [
        {
          "internalType": "contract ERC20",
          "name": "_token",
          "type": "address"
        },
        {
          "internalType": "uint256",
          "name": "_amount",
          "type": "uint256"
        }
      ],
      "name": "withdrawToken",
      "outputs": [],
      "stateMutability": "nonpayable",
      "type": "function"
    }
  ],
  "transactionHash": "0x3aa3d7c21d0c05fd4656053cccebb44a5a315f319fc3f1e87516506f25dd97d3",
  "args": [
    "0x0c4681e6c0235179ec3d4f4fc4df3d14fdd96017",
    "0x3082cc23568ea640225c2467653db90e9250aaa0"
  ],
  "numDeployments": 1,
  "solcInputHash": "0b487138caad06ac61aeb3560e21e2d5",
  "bytecode": "0x608060405234801561001057600080fd5b50604051610bc8380380610bc883398101604081905261002f916101a9565b61003833610084565b6000805460ff60a01b19169055600180546001600160a01b038085166001600160a01b031992831617909255600280549284169290911691909117905561007d6100d4565b50506101dc565b600080546001600160a01b038381166001600160a01b0319831681178455604051919092169283917f8be0079c531659141344cd1fd0a4f28419497f9722a3daafe3b4186f6b6457e09190a35050565b6100dc610134565b6000805460ff60a01b1916600160a01b1790557f62e78cea01bee320cd4e420270b5ea74000d11b0c9f74754ebdbfc544b05a2586101173390565b6040516001600160a01b03909116815260200160405180910390a1565b610147600054600160a01b900460ff1690565b1561018b5760405162461bcd60e51b815260206004820152601060248201526f14185d5cd8589b194e881c185d5cd95960821b604482015260640160405180910390fd5b565b80516001600160a01b03811681146101a457600080fd5b919050565b600080604083850312156101bc57600080fd5b6101c58361018d565b91506101d36020840161018d565b90509250929050565b6109dd806101eb6000396000f3fe608060405234801561001057600080fd5b50600436106100be5760003560e01c806383b25b89116100765780638da5cb5b1161005b5780638da5cb5b146101505780639e281a9814610161578063f2fde38b1461017457600080fd5b806383b25b89146101355780638456cb591461014857600080fd5b806353556559116100a757806353556559146100fd5780635c975abb14610110578063715018a61461012d57600080fd5b80631382d8c2146100c35780633f4ba83a146100f3575b600080fd5b6002546100d6906001600160a01b031681565b6040516001600160a01b0390911681526020015b60405180910390f35b6100fb610187565b005b6100fb61010b36600461088c565b610199565b600054600160a01b900460ff1660405190151581526020016100ea565b6100fb610208565b6001546100d6906001600160a01b031681565b6100fb61021a565b6000546001600160a01b03166100d6565b6100fb61016f3660046108ba565b61022a565b6100fb6101823660046108e6565b61025c565b61018f6102f1565b61019761034b565b565b6101a16103a0565b6101b9336001546001600160a01b03169030846103fa565b6101d0336002546001600160a01b031690836104b1565b60405181815233907fa59785389b00cbd19745afbe8d59b28e3161395c6b1e3525861a2b0dede0b90d9060200160405180910390a250565b6102106102f1565b61019760006104ff565b6102226102f1565b610197610567565b6102326102f1565b6102586102476000546001600160a01b031690565b6001600160a01b03841690836104b1565b5050565b6102646102f1565b6001600160a01b0381166102e55760405162461bcd60e51b815260206004820152602660248201527f4f776e61626c653a206e6577206f776e657220697320746865207a65726f206160448201527f646472657373000000000000000000000000000000000000000000000000000060648201526084015b60405180910390fd5b6102ee816104ff565b50565b6000546001600160a01b031633146101975760405162461bcd60e51b815260206004820181905260248201527f4f776e61626c653a2063616c6c6572206973206e6f7420746865206f776e657260448201526064016102dc565b6103536105aa565b6000805460ff60a01b191690557f5db9ee0a495bf2e6ff9c91a7834c1ba4fdd244a5e8aa4e537bd38aeae4b073aa335b6040516001600160a01b03909116815260200160405180910390a1565b600054600160a01b900460ff16156101975760405162461bcd60e51b815260206004820152601060248201527f5061757361626c653a207061757365640000000000000000000000000000000060448201526064016102dc565b6040516001600160a01b03808516602483015283166044820152606481018290526104ab9085907f23b872dd00000000000000000000000000000000000000000000000000000000906084015b60408051601f198184030181529190526020810180517bffffffffffffffffffffffffffffffffffffffffffffffffffffffff167fffffffff0000000000000000000000000000000000000000000000000000000090931692909217909152610603565b50505050565b6040516001600160a01b0383166024820152604481018290526104fa9084907fa9059cbb0000000000000000000000000000000000000000000000000000000090606401610447565b505050565b600080546001600160a01b038381167fffffffffffffffffffffffff0000000000000000000000000000000000000000831681178455604051919092169283917f8be0079c531659141344cd1fd0a4f28419497f9722a3daafe3b4186f6b6457e09190a35050565b61056f6103a0565b6000805460ff60a01b1916600160a01b1790557f62e78cea01bee320cd4e420270b5ea74000d11b0c9f74754ebdbfc544b05a2586103833390565b600054600160a01b900460ff166101975760405162461bcd60e51b815260206004820152601460248201527f5061757361626c653a206e6f742070617573656400000000000000000000000060448201526064016102dc565b6000610658826040518060400160405280602081526020017f5361666545524332303a206c6f772d6c6576656c2063616c6c206661696c6564815250856001600160a01b03166106e89092919063ffffffff16565b8051909150156104fa5780806020019051810190610676919061090a565b6104fa5760405162461bcd60e51b815260206004820152602a60248201527f5361666545524332303a204552433230206f7065726174696f6e20646964206e60448201527f6f7420737563636565640000000000000000000000000000000000000000000060648201526084016102dc565b60606106f784846000856106ff565b949350505050565b6060824710156107775760405162461bcd60e51b815260206004820152602660248201527f416464726573733a20696e73756666696369656e742062616c616e636520666f60448201527f722063616c6c000000000000000000000000000000000000000000000000000060648201526084016102dc565b600080866001600160a01b031685876040516107939190610958565b60006040518083038185875af1925050503d80600081146107d0576040519150601f19603f3d011682016040523d82523d6000602084013e6107d5565b606091505b50915091506107e6878383876107f1565b979650505050505050565b6060831561085d578251610856576001600160a01b0385163b6108565760405162461bcd60e51b815260206004820152601d60248201527f416464726573733a2063616c6c20746f206e6f6e2d636f6e747261637400000060448201526064016102dc565b50816106f7565b6106f783838151156108725781518083602001fd5b8060405162461bcd60e51b81526004016102dc9190610974565b60006020828403121561089e57600080fd5b5035919050565b6001600160a01b03811681146102ee57600080fd5b600080604083850312156108cd57600080fd5b82356108d8816108a5565b946020939093013593505050565b6000602082840312156108f857600080fd5b8135610903816108a5565b9392505050565b60006020828403121561091c57600080fd5b8151801515811461090357600080fd5b60005b8381101561094757818101518382015260200161092f565b838111156104ab5750506000910152565b6000825161096a81846020870161092c565b9190910192915050565b602081526000825180602084015261099381604085016020870161092c565b601f01601f1916919091016040019291505056fea2646970667358221220de6fd48acaaf1a7cd130b6f72c08644ec80bebd91dfa239291899be782a62c3e64736f6c634300080c0033",
  "devdoc": {
    "author": "Radiant team",
    "details": "All function calls are currently implemented without side effects",
    "kind": "dev",
    "methods": {
      "constructor": {
        "params": {
          "_tokenV1": "RDNT V1 token address",
          "_tokenV2": "RDNT V2 token address"
        }
      },
      "exchange(uint256)": {
        "params": {
          "_amount": "of V1 token"
        }
      },
      "owner()": {
        "details": "Returns the address of the current owner."
      },
      "paused()": {
        "details": "Returns true if the contract is paused, and false otherwise."
      },
      "renounceOwnership()": {
        "details": "Leaves the contract without owner. It will not be possible to call `onlyOwner` functions anymore. Can only be called by the current owner. NOTE: Renouncing ownership will leave the contract without an owner, thereby removing any functionality that is only available to the owner."
      },
      "transferOwnership(address)": {
        "details": "Transfers ownership of the contract to a new account (`newOwner`). Can only be called by the current owner."
      },
      "withdrawToken(address,uint256)": {
        "params": {
          "_amount": "to withdraw",
          "_token": "address for withdraw"
        }
      }
    },
    "title": "Migration contract from V1 to V2",
    "version": 1
  },
  "userdoc": {
    "events": {
      "Migrate(address,uint256)": {
        "notice": "emitted when migrate v1 token into v2"
      }
    },
    "kind": "user",
    "methods": {
      "constructor": {
        "notice": "constructor"
      },
      "exchange(uint256)": {
        "notice": "Migrate from V1 to V2"
      },
      "tokenV1()": {
        "notice": "V1 of RDNT"
      },
      "tokenV2()": {
        "notice": "V2 of RDNT"
      },
      "withdrawToken(address,uint256)": {
        "notice": "Withdraw ERC20 token"
      }
    },
    "version": 1
  },
  "storageLayout": {
    "storage": [
      {
        "astId": 3669,
        "contract": "contracts/radiant/token/Migration.sol:Migration",
        "label": "_owner",
        "offset": 0,
        "slot": "0",
        "type": "t_address"
      },
      {
        "astId": 3792,
        "contract": "contracts/radiant/token/Migration.sol:Migration",
        "label": "_paused",
        "offset": 20,
        "slot": "0",
        "type": "t_bool"
      },
      {
        "astId": 55653,
        "contract": "contracts/radiant/token/Migration.sol:Migration",
        "label": "tokenV1",
        "offset": 0,
        "slot": "1",
        "type": "t_contract(ERC20)4469"
      },
      {
        "astId": 55657,
        "contract": "contracts/radiant/token/Migration.sol:Migration",
        "label": "tokenV2",
        "offset": 0,
        "slot": "2",
        "type": "t_contract(ERC20)4469"
      }
    ],
    "types": {
      "t_address": {
        "encoding": "inplace",
        "label": "address",
        "numberOfBytes": "20"
      },
      "t_bool": {
        "encoding": "inplace",
        "label": "bool",
        "numberOfBytes": "1"
      },
      "t_contract(ERC20)4469": {
        "encoding": "inplace",
        "label": "contract ERC20",
        "numberOfBytes": "20"
      }
    }
  }
}