{
  "address": "0x0cc8BE53dF3A5d2f49379F6D8F1356B765C908CA",
  "abi": [
    {
      "anonymous": false,
      "inputs": [
        {
          "indexed": true,
          "internalType": "address",
          "name": "previousOwner",
          "type": "address"
        },
        {
          "indexed": true,
          "internalType": "address",
          "name": "newOwner",
          "type": "address"
        }
      ],
      "name": "OwnershipTransferred",
      "type": "event"
    },
    {
      "inputs": [],
      "name": "BONE",
      "outputs": [
        {
          "internalType": "uint256",
          "name": "",
          "type": "uint256"
        }
      ],
      "stateMutability": "view",
      "type": "function"
    },
    {
      "inputs": [],
      "name": "BPOW_PRECISION",
      "outputs": [
        {
          "internalType": "uint256",
          "name": "",
          "type": "uint256"
        }
      ],
      "stateMutability": "view",
      "type": "function"
    },
    {
      "inputs": [],
      "name": "EXIT_FEE",
      "outputs": [
        {
          "internalType": "uint256",
          "name": "",
          "type": "uint256"
        }
      ],
      "stateMutability": "view",
      "type": "function"
    },
    {
      "inputs": [],
      "name": "INIT_POOL_SUPPLY",
      "outputs": [
        {
          "internalType": "uint256",
          "name": "",
          "type": "uint256"
        }
      ],
      "stateMutability": "view",
      "type": "function"
    },
    {
      "inputs": [],
      "name": "MAX_BOUND_TOKENS",
      "outputs": [
        {
          "internalType": "uint256",
          "name": "",
          "type": "uint256"
        }
      ],
      "stateMutability": "view",
      "type": "function"
    },
    {
      "inputs": [],
      "name": "MAX_BPOW_BASE",
      "outputs": [
        {
          "internalType": "uint256",
          "name": "",
          "type": "uint256"
        }
      ],
      "stateMutability": "view",
      "type": "function"
    },
    {
      "inputs": [],
      "name": "MAX_FEE",
      "outputs": [
        {
          "internalType": "uint256",
          "name": "",
          "type": "uint256"
        }
      ],
      "stateMutability": "view",
      "type": "function"
    },
    {
      "inputs": [],
      "name": "MAX_IN_RATIO",
      "outputs": [
        {
          "internalType": "uint256",
          "name": "",
          "type": "uint256"
        }
      ],
      "stateMutability": "view",
      "type": "function"
    },
    {
      "inputs": [],
      "name": "MAX_OUT_RATIO",
      "outputs": [
        {
          "internalType": "uint256",
          "name": "",
          "type": "uint256"
        }
      ],
      "stateMutability": "view",
      "type": "function"
    },
    {
      "inputs": [],
      "name": "MAX_TOTAL_WEIGHT",
      "outputs": [
        {
          "internalType": "uint256",
          "name": "",
          "type": "uint256"
        }
      ],
      "stateMutability": "view",
      "type": "function"
    },
    {
      "inputs": [],
      "name": "MAX_WEIGHT",
      "outputs": [
        {
          "internalType": "uint256",
          "name": "",
          "type": "uint256"
        }
      ],
      "stateMutability": "view",
      "type": "function"
    },
    {
      "inputs": [],
      "name": "MIN_BALANCE",
      "outputs": [
        {
          "internalType": "uint256",
          "name": "",
          "type": "uint256"
        }
      ],
      "stateMutability": "view",
      "type": "function"
    },
    {
      "inputs": [],
      "name": "MIN_BOUND_TOKENS",
      "outputs": [
        {
          "internalType": "uint256",
          "name": "",
          "type": "uint256"
        }
      ],
      "stateMutability": "view",
      "type": "function"
    },
    {
      "inputs": [],
      "name": "MIN_BPOW_BASE",
      "outputs": [
        {
          "internalType": "uint256",
          "name": "",
          "type": "uint256"
        }
      ],
      "stateMutability": "view",
      "type": "function"
    },
    {
      "inputs": [],
      "name": "MIN_FEE",
      "outputs": [
        {
          "internalType": "uint256",
          "name": "",
          "type": "uint256"
        }
      ],
      "stateMutability": "view",
      "type": "function"
    },
    {
      "inputs": [],
      "name": "MIN_WEIGHT",
      "outputs": [
        {
          "internalType": "uint256",
          "name": "",
          "type": "uint256"
        }
      ],
      "stateMutability": "view",
      "type": "function"
    },
    {
      "inputs": [
        {
          "internalType": "uint256",
          "name": "rdntPriceInEth",
          "type": "uint256"
        }
      ],
      "name": "getLpPrice",
      "outputs": [
        {
          "internalType": "uint256",
          "name": "priceInEth",
          "type": "uint256"
        }
      ],
      "stateMutability": "view",
      "type": "function"
    },
    {
      "inputs": [],
      "name": "getPrice",
      "outputs": [
        {
          "internalType": "uint256",
          "name": "priceInEth",
          "type": "uint256"
        }
      ],
      "stateMutability": "view",
      "type": "function"
    },
    {
      "inputs": [],
      "name": "getReserves",
      "outputs": [
        {
          "internalType": "uint256",
          "name": "rdnt",
          "type": "uint256"
        },
        {
          "internalType": "uint256",
          "name": "weth",
          "type": "uint256"
        },
        {
          "internalType": "uint256",
          "name": "lpTokenSupply",
          "type": "uint256"
        }
      ],
      "stateMutability": "view",
      "type": "function"
    },
    {
      "inputs": [],
      "name": "getSwapFeePercentage",
      "outputs": [
        {
          "internalType": "uint256",
          "name": "fee",
          "type": "uint256"
        }
      ],
      "stateMutability": "nonpayable",
      "type": "function"
    },
    {
      "inputs": [],
      "name": "inTokenAddr",
      "outputs": [
        {
          "internalType": "address",
          "name": "",
          "type": "address"
        }
      ],
      "stateMutability": "view",
      "type": "function"
    },
    {
      "inputs": [
        {
          "internalType": "address",
          "name": "_inTokenAddr",
          "type": "address"
        },
        {
          "internalType": "address",
          "name": "_outTokenAddr",
          "type": "address"
        },
        {
          "internalType": "address",
          "name": "_wethAddr",
          "type": "address"
        },
        {
          "internalType": "address",
          "name": "_vault",
          "type": "address"
        },
        {
          "internalType": "contract IWeightedPoolFactory",
          "name": "_poolFactory",
          "type": "address"
        }
      ],
      "name": "initialize",
      "outputs": [],
      "stateMutability": "nonpayable",
      "type": "function"
    },
    {
      "inputs": [
        {
          "internalType": "string",
          "name": "_tokenName",
          "type": "string"
        },
        {
          "internalType": "string",
          "name": "_tokenSymbol",
          "type": "string"
        }
      ],
      "name": "initializePool",
      "outputs": [],
      "stateMutability": "nonpayable",
      "type": "function"
    },
    {
      "inputs": [],
      "name": "lockZap",
      "outputs": [
        {
          "internalType": "address",
          "name": "",
          "type": "address"
        }
      ],
      "stateMutability": "view",
      "type": "function"
    },
    {
      "inputs": [],
      "name": "lpTokenAddr",
      "outputs": [
        {
          "internalType": "address",
          "name": "",
          "type": "address"
        }
      ],
      "stateMutability": "view",
      "type": "function"
    },
    {
      "inputs": [],
      "name": "outTokenAddr",
      "outputs": [
        {
          "internalType": "address",
          "name": "",
          "type": "address"
        }
      ],
      "stateMutability": "view",
      "type": "function"
    },
    {
      "inputs": [],
      "name": "owner",
      "outputs": [
        {
          "internalType": "address",
          "name": "",
          "type": "address"
        }
      ],
      "stateMutability": "view",
      "type": "function"
    },
    {
      "inputs": [],
      "name": "poolFactory",
      "outputs": [
        {
          "internalType": "contract IWeightedPoolFactory",
          "name": "",
          "type": "address"
        }
      ],
      "stateMutability": "view",
      "type": "function"
    },
    {
      "inputs": [],
      "name": "poolId",
      "outputs": [
        {
          "internalType": "bytes32",
          "name": "",
          "type": "bytes32"
        }
      ],
      "stateMutability": "view",
      "type": "function"
    },
    {
      "inputs": [
        {
          "internalType": "uint256",
          "name": "tokenAmount",
          "type": "uint256"
        }
      ],
      "name": "quoteFromToken",
      "outputs": [
        {
          "internalType": "uint256",
          "name": "optimalWETHAmount",
          "type": "uint256"
        }
      ],
      "stateMutability": "view",
      "type": "function"
    },
    {
      "inputs": [],
      "name": "renounceOwnership",
      "outputs": [],
      "stateMutability": "nonpayable",
      "type": "function"
    },
    {
      "inputs": [
        {
          "internalType": "address",
          "name": "_lockZap",
          "type": "address"
        }
      ],
      "name": "setLockZap",
      "outputs": [],
      "stateMutability": "nonpayable",
      "type": "function"
    },
    {
      "inputs": [
        {
          "internalType": "uint256",
          "name": "_fee",
          "type": "uint256"
        }
      ],
      "name": "setSwapFeePercentage",
      "outputs": [],
      "stateMutability": "nonpayable",
      "type": "function"
    },
    {
      "inputs": [
        {
          "internalType": "address",
          "name": "newOwner",
          "type": "address"
        }
      ],
      "name": "transferOwnership",
      "outputs": [],
      "stateMutability": "nonpayable",
      "type": "function"
    },
    {
      "inputs": [],
      "name": "vaultAddr",
      "outputs": [
        {
          "internalType": "address",
          "name": "",
          "type": "address"
        }
      ],
      "stateMutability": "view",
      "type": "function"
    },
    {
      "inputs": [],
      "name": "wethAddr",
      "outputs": [
        {
          "internalType": "address",
          "name": "",
          "type": "address"
        }
      ],
      "stateMutability": "view",
      "type": "function"
    },
    {
      "inputs": [
        {
          "internalType": "uint256",
          "name": "_wethAmt",
          "type": "uint256"
        },
        {
          "internalType": "uint256",
          "name": "_rdntAmt",
          "type": "uint256"
        }
      ],
      "name": "zapTokens",
      "outputs": [
        {
          "internalType": "uint256",
          "name": "liquidity",
          "type": "uint256"
        }
      ],
      "stateMutability": "nonpayable",
      "type": "function"
    },
    {
      "inputs": [
        {
          "internalType": "uint256",
          "name": "amount",
          "type": "uint256"
        }
      ],
      "name": "zapWETH",
      "outputs": [
        {
          "internalType": "uint256",
          "name": "liquidity",
          "type": "uint256"
        }
      ],
      "stateMutability": "nonpayable",
      "type": "function"
    }
  ],
  "transactionHash": "0x453d76c018bbb6f60616dc1beb1a83c241b3fffb570e1d5e60f64498fd2cb8d1",
  "args": [],
  "numDeployments": 2,
  "solcInputHash": "4f873bff0d9e9bbcd6fdad61fd32e1ab",
  "bytecode": "0x608060405234801561001057600080fd5b5061339d806100206000396000f3fe608060405234801561001057600080fd5b50600436106102925760003560e01c80639381cd2b11610160578063c6580d12116100d8578063e4a28a521161008c578063ec09302111610071578063ec09302114610492578063f2fde38b1461049a578063fd706062146104ad57600080fd5b8063e4a28a52146102ea578063e640aedf1461047f57600080fd5b8063c98361c7116100bd578063c98361c714610446578063d27567f214610459578063e28861fa1461046c57600080fd5b8063c6580d121461042b578063c829bfda1461043357600080fd5b8063b7b800a41161012f578063bc063e1a11610114578063bc063e1a1461041b578063bc694ea214610423578063c36596a61461031d57600080fd5b8063b7b800a41461040b578063ba019dab1461041357600080fd5b80639381cd2b146103eb57806398d5fdca146103f3578063992e2a92146103fb578063b0e0d1361461040357600080fd5b80634219dc401161020e578063753983d6116101c25780637d5aa5f4116101a75780637d5aa5f4146103bf578063867378c5146103d25780638da5cb5b146103da57600080fd5b8063753983d6146103a457806376c7a3c7146103b757600080fd5b806355c67628116101f357806355c67628146103815780636fb2a1bf14610389578063715018a61461039c57600080fd5b80634219dc401461035b578063439e50161461036e57600080fd5b8063189d00ca1161026557806337211c3b1161024a57806337211c3b1461032c57806338e9922e1461033f5780633e0dc34e1461035257600080fd5b8063189d00ca14610315578063218b53821461031d57600080fd5b806306346c30146102975780630902f1ac146102c757806309a3bbe4146102ea5780631459457a14610300575b600080fd5b609d546102aa906001600160a01b031681565b6040516001600160a01b0390911681526020015b60405180910390f35b6102cf6104c0565b604080519384526020840192909252908201526060016102be565b6102f26106b9565b6040519081526020016102be565b61031361030e366004612bf4565b6106cf565b005b6102f2610810565b6102f2670de0b6b3a764000081565b6098546102aa906001600160a01b031681565b61031361034d366004612c65565b610827565b6102f2609c5481565b609e546102aa906001600160a01b031681565b609a546102aa906001600160a01b031681565b6102f26108f6565b610313610397366004612c7e565b6109e1565b610313610a6a565b6102f26103b2366004612c9b565b610ad0565b6102f2610bf4565b6099546102aa906001600160a01b031681565b6102f2610c09565b6065546001600160a01b03166102aa565b6102f2610c20565b6102f2610c33565b6102f2610dcc565b6102f2600881565b6102f2600281565b6102f2600181565b6102f2610dea565b6102f2610dfd565b6102f2600081565b6102f2610441366004612c65565b610e1c565b6097546102aa906001600160a01b031681565b609b546102aa906001600160a01b031681565b6102f261047a366004612c65565b610f28565b61031361048d366004612cff565b611111565b6102f26118ea565b6103136104a8366004612c7e565b6118fd565b6102f26104bb366004612c65565b6119df565b609a54609b54609c54604051631f29a8cd60e31b8152600093849384936001600160a01b039283169385938493169163f94d466891610506919060040190815260200190565b600060405180830381865afa158015610523573d6000803e3d6000fd5b505050506040513d6000823e601f3d908101601f1916820160405261054b9190810190612e41565b5060985482519294509092506001600160a01b031690839060009061057257610572612f0f565b60200260200101516001600160a01b0316146105a8578060018151811061059b5761059b612f0f565b60200260200101516105c4565b806000815181106105bb576105bb612f0f565b60200260200101515b60985483519197506001600160a01b03169083906000906105e7576105e7612f0f565b60200260200101516001600160a01b03161461061d578060008151811061061057610610612f0f565b6020026020010151610639565b8060018151811061063057610630612f0f565b60200260200101515b94506106af670de0b6b3a7640000846001600160a01b03166318160ddd6040518163ffffffff1660e01b8152600401602060405180830381865afa158015610685573d6000803e3d6000fd5b505050506040513d601f19601f820116820180604052508101906106a99190612f25565b90611a2d565b9350505050909192565b6106cc670de0b6b3a76400006032612f54565b81565b600054610100900460ff16806106e45750303b155b806106f2575060005460ff16155b6107695760405162461bcd60e51b815260206004820152602e60248201527f436f6e747261637420696e7374616e63652068617320616c726561647920626560448201527f656e20696e697469616c697a656400000000000000000000000000000000000060648201526084015b60405180910390fd5b600054610100900460ff1615801561078b576000805461ffff19166101011790555b610793611a42565b6097805473ffffffffffffffffffffffffffffffffffffffff199081166001600160a01b0389811691909117909255609880548216888416179055609980548216878416179055609b80548216868416179055609e80549091169184169190911790558015610808576000805461ff00191690555b505050505050565b6106cc6402540be400670de0b6b3a7640000612f89565b6065546001600160a01b031633146108815760405162461bcd60e51b815260206004820181905260248201527f4f776e61626c653a2063616c6c6572206973206e6f7420746865206f776e65726044820152606401610760565b609a546040517f38e9922e000000000000000000000000000000000000000000000000000000008152600481018390526001600160a01b039091169081906338e9922e90602401600060405180830381600087803b1580156108e257600080fd5b505af1158015610808573d6000803e3d6000fd5b6065546000906001600160a01b031633146109535760405162461bcd60e51b815260206004820181905260248201527f4f776e61626c653a2063616c6c6572206973206e6f7420746865206f776e65726044820152606401610760565b609a54604080517f55c6762800000000000000000000000000000000000000000000000000000000815290516001600160a01b039092169182916355c676289160048083019260209291908290030181865afa1580156109b7573d6000803e3d6000fd5b505050506040513d601f19601f820116820180604052508101906109db9190612f25565b91505090565b6065546001600160a01b03163314610a3b5760405162461bcd60e51b815260206004820181905260248201527f4f776e61626c653a2063616c6c6572206973206e6f7420746865206f776e65726044820152606401610760565b609d805473ffffffffffffffffffffffffffffffffffffffff19166001600160a01b0392909216919091179055565b6065546001600160a01b03163314610ac45760405162461bcd60e51b815260206004820181905260248201527f4f776e61626c653a2063616c6c6572206973206e6f7420746865206f776e65726044820152606401610760565b610ace6000611ab5565b565b609d546000906001600160a01b03163314610b185760405162461bcd60e51b81526020600482015260086024820152670216c6f636b5a61760c41b6044820152606401610760565b6099546040516323b872dd60e01b8152336004820152306024820152604481018590526001600160a01b03909116906323b872dd906064016020604051808303816000875af1158015610b6f573d6000803e3d6000fd5b505050506040513d601f19601f82011682018060405250810190610b939190612f9d565b50609854610bac906001600160a01b0316333085611b14565b610bb68383611bb2565b609a549091506001600160a01b0316610bd0813384611e46565b609854609954610bed916001600160a01b03908116911633611e7b565b5092915050565b6106cc620f4240670de0b6b3a7640000612f89565b6106cc64e8d4a51000670de0b6b3a7640000612f89565b6106cc670de0b6b3a76400006064612f54565b609b54609c54604051631f29a8cd60e31b81526004810191909152600091829182916001600160a01b03169063f94d466890602401600060405180830381865afa158015610c85573d6000803e3d6000fd5b505050506040513d6000823e601f3d908101601f19168201604052610cad9190810190612e41565b5060985482519294509092506000916001600160a01b039091169084908390610cd857610cd8612f0f565b60200260200101516001600160a01b031614610d0e5781600181518110610d0157610d01612f0f565b6020026020010151610d2a565b81600081518110610d2157610d21612f0f565b60200260200101515b60985484519192506000916001600160a01b039091169085908390610d5157610d51612f0f565b60200260200101516001600160a01b031614610d875782600081518110610d7a57610d7a612f0f565b6020026020010151610da3565b82600181518110610d9a57610d9a612f0f565b60200260200101515b90506004610dc2610db48483611a2d565b6106a9846305f5e100611ff9565b9550505050505090565b610ddf6003670de0b6b3a7640000612f89565b6106cc906001612fbf565b6106cc600a670de0b6b3a7640000612f89565b6001610e12670de0b6b3a76400006002612f54565b6106cc9190612fd7565b609d546000906001600160a01b03163314610e645760405162461bcd60e51b81526020600482015260086024820152670216c6f636b5a61760c41b6044820152606401610760565b6099546040516323b872dd60e01b8152336004820152306024820152604481018490526001600160a01b03909116906323b872dd906064016020604051808303816000875af1158015610ebb573d6000803e3d6000fd5b505050506040513d601f19601f82011682018060405250810190610edf9190612f9d565b50610eeb826000611bb2565b609a549091506001600160a01b0316610f05813384611e46565b609854609954610f22916001600160a01b03908116911633611e7b565b50919050565b609a546097546098546000926001600160a01b03908116928492610f50929182169116612005565b509050600080610f5e6104c0565b50915091506000846001600160a01b031663f89f27ed6040518163ffffffff1660e01b8152600401600060405180830381865afa158015610fa3573d6000803e3d6000fd5b505050506040513d6000823e601f3d908101601f19168201604052610fcb9190810190612fee565b60985490915060009081906001600160a01b03878116911614156110285782600081518110610ffc57610ffc612f0f565b602002602001015191508260018151811061101957611019612f0f565b60200260200101519050611063565b8260018151811061103b5761103b612f0f565b602002602001015191508260008151811061105857611058612f0f565b602002602001015190505b886305f5e10060008061107a8989888888886120ef565b915091506111008b6001600160a01b03166318160ddd6040518163ffffffff1660e01b8152600401602060405180830381865afa1580156110bf573d6000803e3d6000fd5b505050506040513d601f19601f820116820180604052508101906110e39190612f25565b6106a96110f08487611ff9565b6110fa8689611ff9565b9061219e565b9d9c50505050505050505050505050565b609a546001600160a01b03161561116a5760405162461bcd60e51b815260206004820152601360248201527f416c726561647920696e697469616c697a6564000000000000000000000000006044820152606401610760565b609754609854600091829161118b916001600160a01b039081169116612005565b6040805160028082526060820183529395509193506000929060208301908036833701905050905082816000815181106111c7576111c7612f0f565b60200260200101906001600160a01b031690816001600160a01b03168152505081816001815181106111fb576111fb612f0f565b6001600160a01b0392909216602092830291909101820152604080516002808252606082018352600093919290918301908036833701905050905060008160008151811061124b5761124b612f0f565b60200260200101906001600160a01b031690816001600160a01b03168152505060008160018151811061128057611280612f0f565b6001600160a01b039290921660209283029190910182015260408051600280825260608201835266038d7ea4c68000936000939083019080368337019050506098549091506001600160a01b038781169116141561132d57670b1a2bc2ec500000816000815181106112f4576112f4612f0f565b6020026020010181815250506702c68af0bb1400008160018151811061131c5761131c612f0f565b60200260200101818152505061137e565b6702c68af0bb1400008160008151811061134957611349612f0f565b602002602001018181525050670b1a2bc2ec5000008160018151811061137157611371612f0f565b6020026020010181815250505b609e546040517f80773a930000000000000000000000000000000000000000000000000000000081526001600160a01b03909116906380773a93906113d7908d908d908d908d908b9089908c908c9030906004016130c0565b6020604051808303816000875af11580156113f6573d6000803e3d6000fd5b505050506040513d601f19601f8201168201806040525081019061141a919061316e565b609a805473ffffffffffffffffffffffffffffffffffffffff19166001600160a01b03929092169182179055604080517f38fff2d000000000000000000000000000000000000000000000000000000000815290516338fff2d0916004808201926020929091908290030181865afa15801561149a573d6000803e3d6000fd5b505050506040513d601f19601f820116820180604052508101906114be9190612f25565b609c55609854609754609a54609954609b546001600160a01b03948516949384169392831692918216916114f7918691166000196121aa565b609b54611513906001600160a01b0385811691166000196121aa565b609b5460405163095ea7b360e01b81526001600160a01b03918216600482015260001960248201529082169063095ea7b3906044016020604051808303816000875af1158015611567573d6000803e3d6000fd5b505050506040513d601f19601f8201168201806040525081019061158b9190612f9d565b506040805160028082526060820183526000926020830190803683370190505090508a816000815181106115c1576115c1612f0f565b60200260200101906001600160a01b031690816001600160a01b03168152505089816001815181106115f5576115f5612f0f565b6001600160a01b0392831660209182029290920101526040516370a0823160e01b81523060048201526000918616906370a0823190602401602060405180830381865afa15801561164a573d6000803e3d6000fd5b505050506040513d601f19601f8201168201806040525081019061166e9190612f25565b6040516370a0823160e01b81523060048201529091506000906001600160a01b038816906370a0823190602401602060405180830381865afa1580156116b8573d6000803e3d6000fd5b505050506040513d601f19601f820116820180604052508101906116dc9190612f25565b6040805160028082526060820183529293506000929091602083019080368337019050506097549091506001600160a01b038f81169116141561175e57828160008151811061172d5761172d612f0f565b602002602001018181525050818160018151811061174d5761174d612f0f565b60200260200101818152505061179f565b818160008151811061177257611772612f0f565b602002602001018181525050828160018151811061179257611792612f0f565b6020026020010181815250505b600060405180608001604052808681526020018381526020016000846040516020016117cc92919061318b565b60408051808303601f190181529181529082526000602090920191909152609b54609c54915163172b958560e31b81529293506001600160a01b03169163b95cac2891611821913090819087906004016131ff565b600060405180830381600087803b15801561183b57600080fd5b505af115801561184f573d6000803e3d6000fd5b50506040516370a0823160e01b8152306004820152600092506001600160a01b038a1691506370a0823190602401602060405180830381865afa15801561189a573d6000803e3d6000fd5b505050506040513d601f19601f820116820180604052508101906118be9190612f25565b90506118d46001600160a01b0389163383611e46565b5050505050505050505050505050505050505050565b6106cc6002670de0b6b3a7640000612f89565b6065546001600160a01b031633146119575760405162461bcd60e51b815260206004820181905260248201527f4f776e61626c653a2063616c6c6572206973206e6f7420746865206f776e65726044820152606401610760565b6001600160a01b0381166119d35760405162461bcd60e51b815260206004820152602660248201527f4f776e61626c653a206e6577206f776e657220697320746865207a65726f206160448201527f64647265737300000000000000000000000000000000000000000000000000006064820152608401610760565b6119dc81611ab5565b50565b6000806119ea610c33565b905060006119fd826402540be400611ff9565b90506000611a17670de0b6b3a76400006106a98785611ff9565b9050611a24816004611a2d565b95945050505050565b6000611a398284612f89565b90505b92915050565b600054610100900460ff16611aad5760405162461bcd60e51b815260206004820152602b60248201527f496e697469616c697a61626c653a20636f6e7472616374206973206e6f74206960448201526a6e697469616c697a696e6760a81b6064820152608401610760565b610ace6122df565b606580546001600160a01b0383811673ffffffffffffffffffffffffffffffffffffffff19831681179093556040519116919082907f8be0079c531659141344cd1fd0a4f28419497f9722a3daafe3b4186f6b6457e090600090a35050565b6040516001600160a01b0380851660248301528316604482015260648101829052611bac9085906323b872dd60e01b906084015b60408051601f198184030181529190526020810180517bffffffffffffffffffffffffffffffffffffffffffffffffffffffff167fffffffff0000000000000000000000000000000000000000000000000000000090931692909217909152612353565b50505050565b60985460975460009182918291611bd5916001600160a01b039182169116612005565b604080516002808252606082018352939550919350600092906020830190803683370190505090508281600081518110611c1157611c11612f0f565b60200260200101906001600160a01b031690816001600160a01b0316815250508181600181518110611c4557611c45612f0f565b6001600160a01b03929092166020928302919091018201526040805160028082526060820183526000939192909183019080368337019050506097549091506001600160a01b0385811691161415611cdc578681600081518110611cab57611cab612f0f565b6020026020010181815250508581600181518110611ccb57611ccb612f0f565b602002602001018181525050611d1d565b8581600081518110611cf057611cf0612f0f565b6020026020010181815250508681600181518110611d1057611d10612f0f565b6020026020010181815250505b60006001826000604051602001611d36939291906132bf565b60408051601f198184030181526080830182528583526020830185905282820181905260006060840152609b54609c54925163172b958560e31b81529194506001600160a01b03169163b95cac2891611d9891903090819087906004016131ff565b600060405180830381600087803b158015611db257600080fd5b505af1158015611dc6573d6000803e3d6000fd5b5050609a546040516370a0823160e01b81523060048201526001600160a01b0390911692508291506370a0823190602401602060405180830381865afa158015611e14573d6000803e3d6000fd5b505050506040513d601f19601f82011682018060405250810190611e389190612f25565b9a9950505050505050505050565b6040516001600160a01b038316602482015260448101829052611e7690849063a9059cbb60e01b90606401611b48565b505050565b6040516370a0823160e01b8152306004820152839083906000906001600160a01b038316906370a08231906024016020604051808303816000875af1158015611ec8573d6000803e3d6000fd5b505050506040513d601f19601f82011682018060405250810190611eec9190612f25565b90508015611f695760405163a9059cbb60e01b81526001600160a01b0385811660048301526024820183905283169063a9059cbb906044016020604051808303816000875af1158015611f43573d6000803e3d6000fd5b505050506040513d601f19601f82011682018060405250810190611f679190612f9d565b505b6040516370a0823160e01b81523060048201526000906001600160a01b038516906370a0823190602401602060405180830381865afa158015611fb0573d6000803e3d6000fd5b505050506040513d601f19601f82011682018060405250810190611fd49190612f25565b90508015611ff057611ff06001600160a01b0385168683611e46565b50505050505050565b6000611a398284612f54565b600080826001600160a01b0316846001600160a01b0316141561206a5760405162461bcd60e51b815260206004820181905260248201527f42616c616e6365725a61703a204944454e544943414c5f4144445245535345536044820152606401610760565b826001600160a01b0316846001600160a01b03161061208a57828461208d565b83835b90925090506001600160a01b0382166120e85760405162461bcd60e51b815260206004820152601960248201527f42616c616e6365725a61703a205a45524f5f41444452455353000000000000006044820152606401610760565b9250929050565b60008060006120fe8989612438565b9050600061211e61210f8987612585565b6121198989612585565b612438565b9050808211156121615760006121348284612438565b90506121498b612144838b61267a565b612585565b94506121598a612119838c61267a565b935050612191565b600061216d8383612438565b905061217d8b612119838b61267a565b945061218d8a612144838c61267a565b9350505b5050965096945050505050565b6000611a398284612fbf565b80158061223d57506040517fdd62ed3e0000000000000000000000000000000000000000000000000000000081523060048201526001600160a01b03838116602483015284169063dd62ed3e90604401602060405180830381865afa158015612217573d6000803e3d6000fd5b505050506040513d601f19601f8201168201806040525081019061223b9190612f25565b155b6122af5760405162461bcd60e51b815260206004820152603660248201527f5361666545524332303a20617070726f76652066726f6d206e6f6e2d7a65726f60448201527f20746f206e6f6e2d7a65726f20616c6c6f77616e6365000000000000000000006064820152608401610760565b6040516001600160a01b038316602482015260448101829052611e7690849063095ea7b360e01b90606401611b48565b600054610100900460ff1661234a5760405162461bcd60e51b815260206004820152602b60248201527f496e697469616c697a61626c653a20636f6e7472616374206973206e6f74206960448201526a6e697469616c697a696e6760a81b6064820152608401610760565b610ace33611ab5565b60006123a8826040518060400160405280602081526020017f5361666545524332303a206c6f772d6c6576656c2063616c6c206661696c6564815250856001600160a01b03166127b59092919063ffffffff16565b805190915015611e7657808060200190518101906123c69190612f9d565b611e765760405162461bcd60e51b815260206004820152602a60248201527f5361666545524332303a204552433230206f7065726174696f6e20646964206e60448201527f6f742073756363656564000000000000000000000000000000000000000000006064820152608401610760565b6000816124875760405162461bcd60e51b815260206004820152600c60248201527f4552525f4449565f5a45524f00000000000000000000000000000000000000006044820152606401610760565b600061249b670de0b6b3a764000085612f54565b90508315806124ba5750670de0b6b3a76400006124b88583612f89565b145b6125065760405162461bcd60e51b815260206004820152601060248201527f4552525f4449565f494e5445524e414c000000000000000000000000000000006044820152606401610760565b6000612513600285612f89565b61251d9083612fbf565b90508181101561256f5760405162461bcd60e51b815260206004820152601060248201527f4552525f4449565f494e5445524e414c000000000000000000000000000000006044820152606401610760565b600061257b8583612f89565b9695505050505050565b6000806125928385612f54565b90508315806125a95750826125a78583612f89565b145b6125f55760405162461bcd60e51b815260206004820152601060248201527f4552525f4d554c5f4f564552464c4f57000000000000000000000000000000006044820152606401610760565b600061260a6002670de0b6b3a7640000612f89565b6126149083612fbf565b9050818110156126665760405162461bcd60e51b815260206004820152601060248201527f4552525f4d554c5f4f564552464c4f57000000000000000000000000000000006044820152606401610760565b600061257b670de0b6b3a764000083612f89565b600060018310156126cd5760405162461bcd60e51b815260206004820152601560248201527f4552525f42504f575f424153455f544f4f5f4c4f5700000000000000000000006044820152606401610760565b60016126e2670de0b6b3a76400006002612f54565b6126ec9190612fd7565b83111561273b5760405162461bcd60e51b815260206004820152601660248201527f4552525f42504f575f424153455f544f4f5f48494748000000000000000000006044820152606401610760565b6000612746836127cc565b9050600061275484836127ea565b9050600061276a8661276585612853565b612867565b90508161277b579250611a3c915050565b600061279e87846127996402540be400670de0b6b3a7640000612f89565b6128da565b90506127aa8282612585565b979650505050505050565b60606127c484846000856129ca565b949350505050565b6000670de0b6b3a76400006127e083612853565b611a3c9190612f54565b60008060006127f98585612ab1565b91509150801561284b5760405162461bcd60e51b815260206004820152601160248201527f4552525f5355425f554e444552464c4f570000000000000000000000000000006044820152606401610760565b509392505050565b6000611a3c670de0b6b3a764000083612f89565b600080612875600284613309565b61288757670de0b6b3a7640000612889565b835b9050612896600284612f89565b92505b8215611a39576128a98485612585565b93506128b6600284613309565b156128c8576128c58185612585565b90505b6128d3600284612f89565b9250612899565b60008281806128f187670de0b6b3a7640000612ab1565b9092509050670de0b6b3a764000080600060015b8884106129bb576000612920670de0b6b3a764000083612f54565b90506000806129408a61293b85670de0b6b3a76400006127ea565b612ab1565b9150915061295287612144848c612585565b965061295e8784612438565b96508661296d575050506129bb565b8715612977579315935b8015612981579315935b84156129985761299186886127ea565b95506129a5565b6129a28688612ae5565b95505b50505080806129b39061331d565b915050612905565b50909998505050505050505050565b606082471015612a425760405162461bcd60e51b815260206004820152602660248201527f416464726573733a20696e73756666696369656e742062616c616e636520666f60448201527f722063616c6c00000000000000000000000000000000000000000000000000006064820152608401610760565b600080866001600160a01b03168587604051612a5e9190613338565b60006040518083038185875af1925050503d8060008114612a9b576040519150601f19603f3d011682016040523d82523d6000602084013e612aa0565b606091505b50915091506127aa87838387612b44565b600080828410612ad057612ac58385612fd7565b6000915091506120e8565b612ada8484612fd7565b6001915091506120e8565b600080612af28385612fbf565b905083811015611a395760405162461bcd60e51b815260206004820152601060248201527f4552525f4144445f4f564552464c4f57000000000000000000000000000000006044820152606401610760565b60608315612bb0578251612ba9576001600160a01b0385163b612ba95760405162461bcd60e51b815260206004820152601d60248201527f416464726573733a2063616c6c20746f206e6f6e2d636f6e74726163740000006044820152606401610760565b50816127c4565b6127c48383815115612bc55781518083602001fd5b8060405162461bcd60e51b81526004016107609190613354565b6001600160a01b03811681146119dc57600080fd5b600080600080600060a08688031215612c0c57600080fd5b8535612c1781612bdf565b94506020860135612c2781612bdf565b93506040860135612c3781612bdf565b92506060860135612c4781612bdf565b91506080860135612c5781612bdf565b809150509295509295909350565b600060208284031215612c7757600080fd5b5035919050565b600060208284031215612c9057600080fd5b8135611a3981612bdf565b60008060408385031215612cae57600080fd5b50508035926020909101359150565b60008083601f840112612ccf57600080fd5b50813567ffffffffffffffff811115612ce757600080fd5b6020830191508360208285010111156120e857600080fd5b60008060008060408587031215612d1557600080fd5b843567ffffffffffffffff80821115612d2d57600080fd5b612d3988838901612cbd565b90965094506020870135915080821115612d5257600080fd5b50612d5f87828801612cbd565b95989497509550505050565b634e487b7160e01b600052604160045260246000fd5b604051601f8201601f1916810167ffffffffffffffff81118282101715612daa57612daa612d6b565b604052919050565b600067ffffffffffffffff821115612dcc57612dcc612d6b565b5060051b60200190565b600082601f830112612de757600080fd5b81516020612dfc612df783612db2565b612d81565b82815260059290921b84018101918181019086841115612e1b57600080fd5b8286015b84811015612e365780518352918301918301612e1f565b509695505050505050565b600080600060608486031215612e5657600080fd5b835167ffffffffffffffff80821115612e6e57600080fd5b818601915086601f830112612e8257600080fd5b81516020612e92612df783612db2565b82815260059290921b8401810191818101908a841115612eb157600080fd5b948201945b83861015612ed8578551612ec981612bdf565b82529482019490820190612eb6565b91890151919750909350505080821115612ef157600080fd5b50612efe86828701612dd6565b925050604084015190509250925092565b634e487b7160e01b600052603260045260246000fd5b600060208284031215612f3757600080fd5b5051919050565b634e487b7160e01b600052601160045260246000fd5b6000816000190483118215151615612f6e57612f6e612f3e565b500290565b634e487b7160e01b600052601260045260246000fd5b600082612f9857612f98612f73565b500490565b600060208284031215612faf57600080fd5b81518015158114611a3957600080fd5b60008219821115612fd257612fd2612f3e565b500190565b600082821015612fe957612fe9612f3e565b500390565b60006020828403121561300057600080fd5b815167ffffffffffffffff81111561301757600080fd5b6127c484828501612dd6565b81835281816020850137506000828201602090810191909152601f909101601f19169091010190565b600081518084526020808501945080840160005b8381101561307c57815187529582019590820190600101613060565b509495945050505050565b600081518084526020808501945080840160005b8381101561307c5781516001600160a01b03168752958201959082019060010161309b565b60e0815260006130d460e083018b8d613023565b6020838203818501526130e8828b8d613023565b84810360408601528951808252828b0193509082019060005b818110156131265784516001600160a01b031683529383019391830191600101613101565b5050848103606086015261313a818a61304c565b9250505082810360808401526131508187613087565b9150508360a0830152611e3860c08301846001600160a01b03169052565b60006020828403121561318057600080fd5b8151611a3981612bdf565b60ff831681526040602082015260006127c4604083018461304c565b60005b838110156131c25781810151838201526020016131aa565b83811115611bac5750506000910152565b600081518084526131eb8160208601602086016131a7565b601f01601f19169290920160200192915050565b848152600060206001600160a01b038087168285015280861660408501526080606085015261010084018551608080870152818151808452610120880191508583019350600092505b8083101561326a57835185168252928501926001929092019190850190613248565b50848801519450607f199350838782030160a088015261328a818661304c565b94505050506040850151818584030160c08601526132a883826131d3565b925050506060840151612e3660e085018215159052565b6000600385106132df57634e487b7160e01b600052602160045260246000fd5b848252606060208301526132f6606083018561304c565b905060ff83166040830152949350505050565b60008261331857613318612f73565b500690565b600060001982141561333157613331612f3e565b5060010190565b6000825161334a8184602087016131a7565b9190910192915050565b602081526000611a3960208301846131d356fea264697066735822122025fd526a136e19c98c99ec028b42eef8a2e387d52bd1843184cad28ae399442f64736f6c634300080c0033",
  "devdoc": {
    "author": "Radiant",
    "kind": "dev",
    "methods": {},
    "title": "Balance Pool Helper Contract",
    "version": 1
  },
  "userdoc": {
    "kind": "user",
    "methods": {},
    "version": 1
  },
  "storageLayout": {
    "storage": [
      {
        "astId": 1645,
        "contract": "contracts/radiant/zap/helpers/BalancerPoolHelper.sol:BalancerPoolHelper",
        "label": "initialized",
        "offset": 0,
        "slot": "0",
        "type": "t_bool"
      },
      {
        "astId": 1648,
        "contract": "contracts/radiant/zap/helpers/BalancerPoolHelper.sol:BalancerPoolHelper",
        "label": "initializing",
        "offset": 1,
        "slot": "0",
        "type": "t_bool"
      },
      {
        "astId": 1715,
        "contract": "contracts/radiant/zap/helpers/BalancerPoolHelper.sol:BalancerPoolHelper",
        "label": "______gap",
        "offset": 0,
        "slot": "1",
        "type": "t_array(t_uint256)50_storage"
      },
      {
        "astId": 1638,
        "contract": "contracts/radiant/zap/helpers/BalancerPoolHelper.sol:BalancerPoolHelper",
        "label": "__gap",
        "offset": 0,
        "slot": "51",
        "type": "t_array(t_uint256)50_storage"
      },
      {
        "astId": 1726,
        "contract": "contracts/radiant/zap/helpers/BalancerPoolHelper.sol:BalancerPoolHelper",
        "label": "_owner",
        "offset": 0,
        "slot": "101",
        "type": "t_address"
      },
      {
        "astId": 1831,
        "contract": "contracts/radiant/zap/helpers/BalancerPoolHelper.sol:BalancerPoolHelper",
        "label": "__gap",
        "offset": 0,
        "slot": "102",
        "type": "t_array(t_uint256)49_storage"
      },
      {
        "astId": 3561,
        "contract": "contracts/radiant/zap/helpers/BalancerPoolHelper.sol:BalancerPoolHelper",
        "label": "inTokenAddr",
        "offset": 0,
        "slot": "151",
        "type": "t_address"
      },
      {
        "astId": 3563,
        "contract": "contracts/radiant/zap/helpers/BalancerPoolHelper.sol:BalancerPoolHelper",
        "label": "outTokenAddr",
        "offset": 0,
        "slot": "152",
        "type": "t_address"
      },
      {
        "astId": 3565,
        "contract": "contracts/radiant/zap/helpers/BalancerPoolHelper.sol:BalancerPoolHelper",
        "label": "wethAddr",
        "offset": 0,
        "slot": "153",
        "type": "t_address"
      },
      {
        "astId": 3568,
        "contract": "contracts/radiant/zap/helpers/BalancerPoolHelper.sol:BalancerPoolHelper",
        "label": "lpTokenAddr",
        "offset": 0,
        "slot": "154",
        "type": "t_address"
      },
      {
        "astId": 3570,
        "contract": "contracts/radiant/zap/helpers/BalancerPoolHelper.sol:BalancerPoolHelper",
        "label": "vaultAddr",
        "offset": 0,
        "slot": "155",
        "type": "t_address"
      },
      {
        "astId": 3572,
        "contract": "contracts/radiant/zap/helpers/BalancerPoolHelper.sol:BalancerPoolHelper",
        "label": "poolId",
        "offset": 0,
        "slot": "156",
        "type": "t_bytes32"
      },
      {
        "astId": 3574,
        "contract": "contracts/radiant/zap/helpers/BalancerPoolHelper.sol:BalancerPoolHelper",
        "label": "lockZap",
        "offset": 0,
        "slot": "157",
        "type": "t_address"
      },
      {
        "astId": 3577,
        "contract": "contracts/radiant/zap/helpers/BalancerPoolHelper.sol:BalancerPoolHelper",
        "label": "poolFactory",
        "offset": 0,
        "slot": "158",
        "type": "t_contract(IWeightedPoolFactory)3012"
      }
    ],
    "types": {
      "t_address": {
        "encoding": "inplace",
        "label": "address",
        "numberOfBytes": "20"
      },
      "t_array(t_uint256)49_storage": {
        "base": "t_uint256",
        "encoding": "inplace",
        "label": "uint256[49]",
        "numberOfBytes": "1568"
      },
      "t_array(t_uint256)50_storage": {
        "base": "t_uint256",
        "encoding": "inplace",
        "label": "uint256[50]",
        "numberOfBytes": "1600"
      },
      "t_bool": {
        "encoding": "inplace",
        "label": "bool",
        "numberOfBytes": "1"
      },
      "t_bytes32": {
        "encoding": "inplace",
        "label": "bytes32",
        "numberOfBytes": "32"
      },
      "t_contract(IWeightedPoolFactory)3012": {
        "encoding": "inplace",
        "label": "contract IWeightedPoolFactory",
        "numberOfBytes": "20"
      },
      "t_uint256": {
        "encoding": "inplace",
        "label": "uint256",
        "numberOfBytes": "32"
      }
    }
  }
}