{
  "address": "0x2Da4D13b77EE58A28d546c2A81535c5E27E4246F",
  "abi": [
    {
      "anonymous": false,
      "inputs": [
        {
          "indexed": true,
          "internalType": "address",
          "name": "_daoTreasury",
          "type": "address"
        }
      ],
      "name": "DAOTreasuryUpdated",
      "type": "event"
    },
    {
      "anonymous": false,
      "inputs": [
        {
          "indexed": false,
          "internalType": "uint8",
          "name": "version",
          "type": "uint8"
        }
      ],
      "name": "Initialized",
      "type": "event"
    },
    {
      "anonymous": false,
      "inputs": [
        {
          "indexed": true,
          "internalType": "address",
          "name": "previousOwner",
          "type": "address"
        },
        {
          "indexed": true,
          "internalType": "address",
          "name": "newOwner",
          "type": "address"
        }
      ],
      "name": "OwnershipTransferred",
      "type": "event"
    },
    {
      "anonymous": false,
      "inputs": [
        {
          "indexed": false,
          "internalType": "address[]",
          "name": "assets",
          "type": "address[]"
        },
        {
          "indexed": false,
          "internalType": "uint256[]",
          "name": "poolIDs",
          "type": "uint256[]"
        }
      ],
      "name": "PoolIDsUpdated",
      "type": "event"
    },
    {
      "anonymous": false,
      "inputs": [
        {
          "indexed": false,
          "internalType": "uint256",
          "name": "percent",
          "type": "uint256"
        }
      ],
      "name": "XChainBorrowFeePercentUpdated",
      "type": "event"
    },
    {
      "inputs": [],
      "name": "FEE_PERCENT_DIVISOR",
      "outputs": [
        {
          "internalType": "uint256",
          "name": "",
          "type": "uint256"
        }
      ],
      "stateMutability": "view",
      "type": "function"
    },
    {
      "inputs": [
        {
          "internalType": "address",
          "name": "asset",
          "type": "address"
        },
        {
          "internalType": "uint256",
          "name": "amount",
          "type": "uint256"
        },
        {
          "internalType": "uint256",
          "name": "interestRateMode",
          "type": "uint256"
        },
        {
          "internalType": "uint16",
          "name": "dstChainId",
          "type": "uint16"
        }
      ],
      "name": "borrow",
      "outputs": [],
      "stateMutability": "payable",
      "type": "function"
    },
    {
      "inputs": [],
      "name": "daoTreasury",
      "outputs": [
        {
          "internalType": "address",
          "name": "",
          "type": "address"
        }
      ],
      "stateMutability": "view",
      "type": "function"
    },
    {
      "inputs": [
        {
          "internalType": "uint256",
          "name": "amount",
          "type": "uint256"
        }
      ],
      "name": "getXChainBorrowFeeAmount",
      "outputs": [
        {
          "internalType": "uint256",
          "name": "",
          "type": "uint256"
        }
      ],
      "stateMutability": "view",
      "type": "function"
    },
    {
      "inputs": [
        {
          "internalType": "contract IStargateRouter",
          "name": "_router",
          "type": "address"
        },
        {
          "internalType": "contract IRouterETH",
          "name": "_routerETH",
          "type": "address"
        },
        {
          "internalType": "contract ILendingPool",
          "name": "_lendingPool",
          "type": "address"
        },
        {
          "internalType": "contract IWETH",
          "name": "_weth",
          "type": "address"
        },
        {
          "internalType": "address",
          "name": "_treasury",
          "type": "address"
        },
        {
          "internalType": "uint256",
          "name": "_xChainBorrowFeePercent",
          "type": "uint256"
        }
      ],
      "name": "initialize",
      "outputs": [],
      "stateMutability": "nonpayable",
      "type": "function"
    },
    {
      "inputs": [],
      "name": "lendingPool",
      "outputs": [
        {
          "internalType": "contract ILendingPool",
          "name": "",
          "type": "address"
        }
      ],
      "stateMutability": "view",
      "type": "function"
    },
    {
      "inputs": [],
      "name": "owner",
      "outputs": [
        {
          "internalType": "address",
          "name": "",
          "type": "address"
        }
      ],
      "stateMutability": "view",
      "type": "function"
    },
    {
      "inputs": [
        {
          "internalType": "address",
          "name": "",
          "type": "address"
        }
      ],
      "name": "poolIdPerChain",
      "outputs": [
        {
          "internalType": "uint256",
          "name": "",
          "type": "uint256"
        }
      ],
      "stateMutability": "view",
      "type": "function"
    },
    {
      "inputs": [
        {
          "internalType": "uint16",
          "name": "_dstChainId",
          "type": "uint16"
        },
        {
          "internalType": "uint8",
          "name": "_functionType",
          "type": "uint8"
        },
        {
          "internalType": "bytes",
          "name": "_toAddress",
          "type": "bytes"
        },
        {
          "internalType": "bytes",
          "name": "_transferAndCallPayload",
          "type": "bytes"
        },
        {
          "components": [
            {
              "internalType": "uint256",
              "name": "dstGasForCall",
              "type": "uint256"
            },
            {
              "internalType": "uint256",
              "name": "dstNativeAmount",
              "type": "uint256"
            },
            {
              "internalType": "bytes",
              "name": "dstNativeAddr",
              "type": "bytes"
            }
          ],
          "internalType": "struct IStargateRouter.lzTxObj",
          "name": "_lzTxParams",
          "type": "tuple"
        }
      ],
      "name": "quoteLayerZeroSwapFee",
      "outputs": [
        {
          "internalType": "uint256",
          "name": "",
          "type": "uint256"
        },
        {
          "internalType": "uint256",
          "name": "",
          "type": "uint256"
        }
      ],
      "stateMutability": "view",
      "type": "function"
    },
    {
      "inputs": [],
      "name": "renounceOwnership",
      "outputs": [],
      "stateMutability": "nonpayable",
      "type": "function"
    },
    {
      "inputs": [],
      "name": "router",
      "outputs": [
        {
          "internalType": "contract IStargateRouter",
          "name": "",
          "type": "address"
        }
      ],
      "stateMutability": "view",
      "type": "function"
    },
    {
      "inputs": [],
      "name": "routerETH",
      "outputs": [
        {
          "internalType": "contract IRouterETH",
          "name": "",
          "type": "address"
        }
      ],
      "stateMutability": "view",
      "type": "function"
    },
    {
      "inputs": [
        {
          "internalType": "address",
          "name": "_daoTreasury",
          "type": "address"
        }
      ],
      "name": "setDAOTreasury",
      "outputs": [],
      "stateMutability": "nonpayable",
      "type": "function"
    },
    {
      "inputs": [
        {
          "internalType": "address[]",
          "name": "assets",
          "type": "address[]"
        },
        {
          "internalType": "uint256[]",
          "name": "poolIDs",
          "type": "uint256[]"
        }
      ],
      "name": "setPoolIDs",
      "outputs": [],
      "stateMutability": "nonpayable",
      "type": "function"
    },
    {
      "inputs": [
        {
          "internalType": "uint256",
          "name": "percent",
          "type": "uint256"
        }
      ],
      "name": "setXChainBorrowFeePercent",
      "outputs": [],
      "stateMutability": "nonpayable",
      "type": "function"
    },
    {
      "inputs": [
        {
          "internalType": "address",
          "name": "newOwner",
          "type": "address"
        }
      ],
      "name": "transferOwnership",
      "outputs": [],
      "stateMutability": "nonpayable",
      "type": "function"
    },
    {
      "inputs": [],
      "name": "xChainBorrowFeePercent",
      "outputs": [
        {
          "internalType": "uint256",
          "name": "",
          "type": "uint256"
        }
      ],
      "stateMutability": "view",
      "type": "function"
    },
    {
      "stateMutability": "payable",
      "type": "receive"
    }
  ],
  "transactionHash": "0x72192f199e23e1e84d805d8c15bdd0a06d5d6642c0c7fb5ea36a83cc89ccf7ab",
  "args": [],
  "numDeployments": 1,
  "solcInputHash": "9ed8517f072d3887f8d783037813f24b",
  "bytecode": "0x608060405234801561001057600080fd5b50611dad806100206000396000f3fe6080604052600436106101125760003560e01c806390e9faee116100a5578063c858f5f911610074578063dd2eaeaf11610059578063dd2eaeaf146102ff578063f2fde38b1461031f578063f887ea401461033f57600080fd5b8063c858f5f9146102cc578063da329855146102df57600080fd5b806390e9faee1461025657806395b6ef0c1461026c578063a59a99731461028c578063bcf8699f146102ac57600080fd5b80635e4b63da116100e15780635e4b63da146101be578063715018a6146101eb57806379022a9f146102005780638da5cb5b1461023857600080fd5b80632978dc3c1461011e57806334ec9478146101405780633ac91f7114610169578063501187b11461018957600080fd5b3661011957005b600080fd5b34801561012a57600080fd5b5061013e610139366004611598565b61035f565b005b34801561014c57600080fd5b5061015661271081565b6040519081526020015b60405180910390f35b34801561017557600080fd5b5061013e6101843660046115b5565b6103be565b34801561019557600080fd5b506101a96101a436600461169e565b610458565b60408051928352602083019190915201610160565b3480156101ca57600080fd5b506101566101d9366004611598565b60696020526000908152604090205481565b3480156101f757600080fd5b5061013e610502565b34801561020c57600080fd5b50606a54610220906001600160a01b031681565b6040516001600160a01b039091168152602001610160565b34801561024457600080fd5b506033546001600160a01b0316610220565b34801561026257600080fd5b50610156606b5481565b34801561027857600080fd5b5061013e6102873660046117f3565b610516565b34801561029857600080fd5b50606754610220906001600160a01b031681565b3480156102b857600080fd5b50606654610220906001600160a01b031681565b61013e6102da36600461186c565b610872565b3480156102eb57600080fd5b506101566102fa3660046115b5565b610ad9565b34801561030b57600080fd5b5061013e61031a366004611943565b610afe565b34801561032b57600080fd5b5061013e61033a366004611598565b610c07565b34801561034b57600080fd5b50606554610220906001600160a01b031681565b610367610c97565b606a805473ffffffffffffffffffffffffffffffffffffffff19166001600160a01b0383169081179091556040517f20ab20a4fc6952498a339faf75f34c09619cdbef8368cdc88411a2edf1a9838590600090a250565b6103c6610c97565b61271081111561041d5760405162461bcd60e51b815260206004820152600d60248201527f496e76616c696420726174696f0000000000000000000000000000000000000060448201526064015b60405180910390fd5b606b8190556040518181527ff1893cfdf38a1f92aee04d52d4636a2fc6da1d3c670076d2471339a161fbe91b9060200160405180910390a150565b6065546040517f0a51236900000000000000000000000000000000000000000000000000000000815260009182916001600160a01b0390911690630a512369906104b2908c908c908c908c908c908c908c90600401611aaf565b6040805180830381865afa1580156104ce573d6000803e3d6000fd5b505050506040513d601f19601f820116820180604052508101906104f29190611b0b565b9150915097509795505050505050565b61050a610c97565b6105146000610cf1565b565b600054610100900460ff16158080156105365750600054600160ff909116105b806105505750303b158015610550575060005460ff166001145b6105c25760405162461bcd60e51b815260206004820152602e60248201527f496e697469616c697a61626c653a20636f6e747261637420697320616c72656160448201527f647920696e697469616c697a65640000000000000000000000000000000000006064820152608401610414565b6000805460ff1916600117905580156105e5576000805461ff0019166101001790555b6001600160a01b0387166106315760405162461bcd60e51b81526020600482015260136024820152724e6f7420612076616c6964206164647265737360681b6044820152606401610414565b6001600160a01b03861661067d5760405162461bcd60e51b81526020600482015260136024820152724e6f7420612076616c6964206164647265737360681b6044820152606401610414565b6001600160a01b0385166106c95760405162461bcd60e51b81526020600482015260136024820152724e6f7420612076616c6964206164647265737360681b6044820152606401610414565b6001600160a01b0384166107155760405162461bcd60e51b81526020600482015260136024820152724e6f7420612076616c6964206164647265737360681b6044820152606401610414565b6001600160a01b0383166107615760405162461bcd60e51b81526020600482015260136024820152724e6f7420612076616c6964206164647265737360681b6044820152606401610414565b6127108211156107b35760405162461bcd60e51b815260206004820152601260248201527f4e6f7420612076616c6964206e756d62657200000000000000000000000000006044820152606401610414565b6065805473ffffffffffffffffffffffffffffffffffffffff199081166001600160a01b038a811691909117909255606680548216898416179055606780548216888416179055606a80548216868416179055606b84905560688054909116918616919091179055610823610d50565b8015610869576000805461ff0019169055604051600181527f7f26b83ff96e1f2b6a682f133852f6798a09c465da95921460cefb38474024989060200160405180910390a15b50505050505050565b6001600160a01b03841673eeeeeeeeeeeeeeeeeeeeeeeeeeeeeeeeeeeeeeee14156108a7576108a2838383610dc3565b610ad3565b60675460405163a415bcad60e01b81526001600160a01b0386811660048301526024820186905260448201859052600060648301523360848301529091169063a415bcad9060a401600060405180830381600087803b15801561090957600080fd5b505af115801561091d573d6000803e3d6000fd5b50505050600061092c84610ad9565b606a54909150610949906001600160a01b03878116911683610f9d565b610953848261104b565b606554909450610971906001600160a01b0387811691166000611057565b60655461098b906001600160a01b03878116911686611057565b6065546001600160a01b03868116600090815260696020526040902054911690639fbf10fc903490859080338a6109ce60646109c88360636111a5565b906111b1565b604051806060016040528060008152602001600081526020016040518060400160405280600281526020017f307800000000000000000000000000000000000000000000000000000000000081525081525033604051602001610a49919060609190911b6bffffffffffffffffffffffff1916815260140190565b60408051601f198184030181526020830182526000835290517fffffffff0000000000000000000000000000000000000000000000000000000060e08d901b168152610a9f999897969594939290600401611b2f565b6000604051808303818588803b158015610ab857600080fd5b505af1158015610acc573d6000803e3d6000fd5b5050505050505b50505050565b600080610af76127106109c8606b54866111a590919063ffffffff16565b9392505050565b610b06610c97565b8051825114610b575760405162461bcd60e51b815260206004820152600f60248201527f6c656e677468206d69736d6174636800000000000000000000000000000000006044820152606401610414565b60005b8251811015610bc957818181518110610b7557610b75611bad565b602002602001015160696000858481518110610b9357610b93611bad565b6020908102919091018101516001600160a01b0316825281019190915260400160002055610bc2600182611bd9565b9050610b5a565b507fdef067bfb4e27bcfac9e0863dca43835925102effa188879dc69f98d4f33a47b8282604051610bfb929190611bf1565b60405180910390a15050565b610c0f610c97565b6001600160a01b038116610c8b5760405162461bcd60e51b815260206004820152602660248201527f4f776e61626c653a206e6577206f776e657220697320746865207a65726f206160448201527f64647265737300000000000000000000000000000000000000000000000000006064820152608401610414565b610c9481610cf1565b50565b6033546001600160a01b031633146105145760405162461bcd60e51b815260206004820181905260248201527f4f776e61626c653a2063616c6c6572206973206e6f7420746865206f776e65726044820152606401610414565b603380546001600160a01b0383811673ffffffffffffffffffffffffffffffffffffffff19831681179093556040519116919082907f8be0079c531659141344cd1fd0a4f28419497f9722a3daafe3b4186f6b6457e090600090a35050565b600054610100900460ff16610dbb5760405162461bcd60e51b815260206004820152602b60248201527f496e697469616c697a61626c653a20636f6e7472616374206973206e6f74206960448201526a6e697469616c697a696e6760a81b6064820152608401610414565b6105146111bd565b60675460685460405163a415bcad60e01b81526001600160a01b03918216600482015260248101869052604481018590526000606482015233608482015291169063a415bcad9060a401600060405180830381600087803b158015610e2757600080fd5b505af1158015610e3b573d6000803e3d6000fd5b50506068546040517f2e1a7d4d000000000000000000000000000000000000000000000000000000008152600481018790526001600160a01b039091169250632e1a7d4d9150602401600060405180830381600087803b158015610e9e57600080fd5b505af1158015610eb2573d6000803e3d6000fd5b505050506000610ec184610ad9565b606a54909150610eda906001600160a01b031682611231565b610ee4848261104b565b6066549094506001600160a01b0316631114cd2a610f0286346112ee565b60405133606081901b6bffffffffffffffffffffffff19166020830152869160340160408051601f1981840301815291905289610f4560646109c88360636111a5565b6040518763ffffffff1660e01b8152600401610f65959493929190611c75565b6000604051808303818588803b158015610f7e57600080fd5b505af1158015610f92573d6000803e3d6000fd5b505050505050505050565b6040516001600160a01b0383166024820152604481018290526110469084907fa9059cbb00000000000000000000000000000000000000000000000000000000906064015b60408051601f198184030181529190526020810180517bffffffffffffffffffffffffffffffffffffffffffffffffffffffff167fffffffff00000000000000000000000000000000000000000000000000000000909316929092179091526112fa565b505050565b6000610af78284611cb5565b8015806110ea57506040517fdd62ed3e0000000000000000000000000000000000000000000000000000000081523060048201526001600160a01b03838116602483015284169063dd62ed3e90604401602060405180830381865afa1580156110c4573d6000803e3d6000fd5b505050506040513d601f19601f820116820180604052508101906110e89190611ccc565b155b61115c5760405162461bcd60e51b815260206004820152603660248201527f5361666545524332303a20617070726f76652066726f6d206e6f6e2d7a65726f60448201527f20746f206e6f6e2d7a65726f20616c6c6f77616e6365000000000000000000006064820152608401610414565b6040516001600160a01b0383166024820152604481018290526110469084907f095ea7b30000000000000000000000000000000000000000000000000000000090606401610fe2565b6000610af78284611ce5565b6000610af78284611d04565b600054610100900460ff166112285760405162461bcd60e51b815260206004820152602b60248201527f496e697469616c697a61626c653a20636f6e7472616374206973206e6f74206960448201526a6e697469616c697a696e6760a81b6064820152608401610414565b61051433610cf1565b604080516000808252602082019092526001600160a01b03841690839060405161125b9190611d26565b60006040518083038185875af1925050503d8060008114611298576040519150601f19603f3d011682016040523d82523d6000602084013e61129d565b606091505b50509050806110465760405162461bcd60e51b815260206004820152601360248201527f4554485f5452414e534645525f4641494c4544000000000000000000000000006044820152606401610414565b6000610af78284611bd9565b600061134f826040518060400160405280602081526020017f5361666545524332303a206c6f772d6c6576656c2063616c6c206661696c6564815250856001600160a01b03166113df9092919063ffffffff16565b805190915015611046578080602001905181019061136d9190611d42565b6110465760405162461bcd60e51b815260206004820152602a60248201527f5361666545524332303a204552433230206f7065726174696f6e20646964206e60448201527f6f742073756363656564000000000000000000000000000000000000000000006064820152608401610414565b60606113ee84846000856113f6565b949350505050565b60608247101561146e5760405162461bcd60e51b815260206004820152602660248201527f416464726573733a20696e73756666696369656e742062616c616e636520666f60448201527f722063616c6c00000000000000000000000000000000000000000000000000006064820152608401610414565b600080866001600160a01b0316858760405161148a9190611d26565b60006040518083038185875af1925050503d80600081146114c7576040519150601f19603f3d011682016040523d82523d6000602084013e6114cc565b606091505b50915091506114dd878383876114e8565b979650505050505050565b6060831561155457825161154d576001600160a01b0385163b61154d5760405162461bcd60e51b815260206004820152601d60248201527f416464726573733a2063616c6c20746f206e6f6e2d636f6e74726163740000006044820152606401610414565b50816113ee565b6113ee83838151156115695781518083602001fd5b8060405162461bcd60e51b81526004016104149190611d64565b6001600160a01b0381168114610c9457600080fd5b6000602082840312156115aa57600080fd5b8135610af781611583565b6000602082840312156115c757600080fd5b5035919050565b803561ffff811681146115e057600080fd5b919050565b60008083601f8401126115f757600080fd5b50813567ffffffffffffffff81111561160f57600080fd5b60208301915083602082850101111561162757600080fd5b9250929050565b634e487b7160e01b600052604160045260246000fd5b6040516060810167ffffffffffffffff811182821017156116675761166761162e565b60405290565b604051601f8201601f1916810167ffffffffffffffff811182821017156116965761169661162e565b604052919050565b600080600080600080600060a0888a0312156116b957600080fd5b6116c2886115ce565b965060208089013560ff811681146116d957600080fd5b9650604089013567ffffffffffffffff808211156116f657600080fd5b6117028c838d016115e5565b909850965060608b013591508082111561171b57600080fd5b6117278c838d016115e5565b909650945060808b013591508082111561174057600080fd5b908a01906060828d03121561175457600080fd5b61175c611644565b82358152838301358482015260408301358281111561177a57600080fd5b8084019350508c601f84011261178f57600080fd5b8235828111156117a1576117a161162e565b6117b3601f8201601f1916860161166d565b92508083528d858286010111156117c957600080fd5b80858501868501376000858285010152508160408201528094505050505092959891949750929550565b60008060008060008060c0878903121561180c57600080fd5b863561181781611583565b9550602087013561182781611583565b9450604087013561183781611583565b9350606087013561184781611583565b9250608087013561185781611583565b8092505060a087013590509295509295509295565b6000806000806080858703121561188257600080fd5b843561188d81611583565b935060208501359250604085013591506118a9606086016115ce565b905092959194509250565b600067ffffffffffffffff8211156118ce576118ce61162e565b5060051b60200190565b600082601f8301126118e957600080fd5b813560206118fe6118f9836118b4565b61166d565b82815260059290921b8401810191818101908684111561191d57600080fd5b8286015b848110156119385780358352918301918301611921565b509695505050505050565b6000806040838503121561195657600080fd5b823567ffffffffffffffff8082111561196e57600080fd5b818501915085601f83011261198257600080fd5b813560206119926118f9836118b4565b82815260059290921b840181019181810190898411156119b157600080fd5b948201945b838610156119d85785356119c981611583565b825294820194908201906119b6565b965050860135925050808211156119ee57600080fd5b506119fb858286016118d8565b9150509250929050565b81835281816020850137506000828201602090810191909152601f909101601f19169091010190565b60005b83811015611a49578181015183820152602001611a31565b83811115610ad35750506000910152565b60008151808452611a72816020860160208601611a2e565b601f01601f19169290920160200192915050565b805182526020810151602083015260006040820151606060408501526113ee6060850182611a5a565b61ffff8816815260ff8716602082015260a060408201526000611ad660a083018789611a05565b8281036060840152611ae9818688611a05565b90508281036080840152611afd8185611a86565b9a9950505050505050505050565b60008060408385031215611b1e57600080fd5b505080516020909101519092909150565b600061012061ffff8c1683528a60208401528960408401526001600160a01b03891660608401528760808401528660a08401528060c0840152611b7481840187611a86565b905082810360e0840152611b888186611a5a565b9050828103610100840152611b9d8185611a5a565b9c9b505050505050505050505050565b634e487b7160e01b600052603260045260246000fd5b634e487b7160e01b600052601160045260246000fd5b60008219821115611bec57611bec611bc3565b500190565b604080825283519082018190526000906020906060840190828701845b82811015611c335781516001600160a01b031684529284019290840190600101611c0e565b5050508381038285015284518082528583019183019060005b81811015611c6857835183529284019291840191600101611c4c565b5090979650505050505050565b61ffff861681526001600160a01b038516602082015260a060408201526000611ca160a0830186611a5a565b606083019490945250608001529392505050565b600082821015611cc757611cc7611bc3565b500390565b600060208284031215611cde57600080fd5b5051919050565b6000816000190483118215151615611cff57611cff611bc3565b500290565b600082611d2157634e487b7160e01b600052601260045260246000fd5b500490565b60008251611d38818460208701611a2e565b9190910192915050565b600060208284031215611d5457600080fd5b81518015158114610af757600080fd5b602081526000610af76020830184611a5a56fea2646970667358221220f9a82ef854035fa962222fab0306742c3d40d4e9b87c732089c5d83c5ec75eef64736f6c634300080c0033",
  "devdoc": {
    "author": "Radiant",
    "details": "All function calls are currently implemented without side effects",
    "kind": "dev",
    "methods": {
      "borrow(address,uint256,uint256,uint16)": {
        "details": "Loop the deposit and borrow of an asset",
        "params": {
          "amount": "for the initial deposit",
          "asset": "for loop",
          "dstChainId": "Destination chain id*",
          "interestRateMode": "stable or variable borrow mode"
        }
      },
      "getXChainBorrowFeeAmount(uint256)": {
        "params": {
          "amount": "Fee cost."
        }
      },
      "initialize(address,address,address,address,address,uint256)": {
        "params": {
          "_lendingPool": "Lending pool",
          "_router": "Stargate Router address",
          "_routerETH": "Stargate Router for ETH",
          "_treasury": "Treasury address",
          "_weth": "WETH address",
          "_xChainBorrowFeePercent": "Cross chain borrow fee ratio"
        }
      },
      "owner()": {
        "details": "Returns the address of the current owner."
      },
      "quoteLayerZeroSwapFee(uint16,uint8,bytes,bytes,(uint256,uint256,bytes))": {
        "details": "Call Router.sol method to get the value for swap()"
      },
      "renounceOwnership()": {
        "details": "Leaves the contract without owner. It will not be possible to call `onlyOwner` functions anymore. Can only be called by the current owner. NOTE: Renouncing ownership will leave the contract without an owner, thereby removing any functionality that is only available to the owner."
      },
      "setDAOTreasury(address)": {
        "params": {
          "_daoTreasury": "DAO Treasury address."
        }
      },
      "setPoolIDs(address[],uint256[])": {
        "params": {
          "assets": "array.",
          "poolIDs": "array."
        }
      },
      "setXChainBorrowFeePercent(uint256)": {
        "params": {
          "percent": "Fee ratio."
        }
      },
      "transferOwnership(address)": {
        "details": "Transfers ownership of the contract to a new account (`newOwner`). Can only be called by the current owner."
      }
    },
    "title": "Borrow gate via stargate",
    "version": 1
  },
  "userdoc": {
    "events": {
      "DAOTreasuryUpdated(address)": {
        "notice": "Emitted when DAO address is updated"
      },
      "PoolIDsUpdated(address[],uint256[])": {
        "notice": "Emited when pool ids of assets are updated"
      },
      "XChainBorrowFeePercentUpdated(uint256)": {
        "notice": "Emitted when fee info is updated"
      }
    },
    "kind": "user",
    "methods": {
      "FEE_PERCENT_DIVISOR()": {
        "notice": "FEE ratio DIVISOR"
      },
      "daoTreasury()": {
        "notice": "DAO wallet"
      },
      "getXChainBorrowFeeAmount(uint256)": {
        "notice": "Get Cross Chain Borrow Fee amount."
      },
      "initialize(address,address,address,address,address,uint256)": {
        "notice": "Constructor"
      },
      "lendingPool()": {
        "notice": "Lending Pool address"
      },
      "poolIdPerChain(address)": {
        "notice": "asset => poolId; at the moment, pool IDs for USDC and USDT are the same accross all chains"
      },
      "quoteLayerZeroSwapFee(uint16,uint8,bytes,bytes,(uint256,uint256,bytes))": {
        "notice": "Quote LZ swap fee"
      },
      "router()": {
        "notice": "Stargate Router"
      },
      "routerETH()": {
        "notice": "Stargate Router ETH"
      },
      "setDAOTreasury(address)": {
        "notice": "Set DAO Treasury."
      },
      "setPoolIDs(address[],uint256[])": {
        "notice": "Set pool ids of assets."
      },
      "setXChainBorrowFeePercent(uint256)": {
        "notice": "Set Cross Chain Borrow Fee Percent."
      },
      "xChainBorrowFeePercent()": {
        "notice": "Cross chain borrow fee ratio"
      }
    },
    "version": 1
  },
  "storageLayout": {
    "storage": [
      {
        "astId": 138,
        "contract": "contracts/radiant/accessories/StargateBorrow.sol:StargateBorrow",
        "label": "_initialized",
        "offset": 0,
        "slot": "0",
        "type": "t_uint8"
      },
      {
        "astId": 141,
        "contract": "contracts/radiant/accessories/StargateBorrow.sol:StargateBorrow",
        "label": "_initializing",
        "offset": 1,
        "slot": "0",
        "type": "t_bool"
      },
      {
        "astId": 625,
        "contract": "contracts/radiant/accessories/StargateBorrow.sol:StargateBorrow",
        "label": "__gap",
        "offset": 0,
        "slot": "1",
        "type": "t_array(t_uint256)50_storage"
      },
      {
        "astId": 10,
        "contract": "contracts/radiant/accessories/StargateBorrow.sol:StargateBorrow",
        "label": "_owner",
        "offset": 0,
        "slot": "51",
        "type": "t_address"
      },
      {
        "astId": 130,
        "contract": "contracts/radiant/accessories/StargateBorrow.sol:StargateBorrow",
        "label": "__gap",
        "offset": 0,
        "slot": "52",
        "type": "t_array(t_uint256)49_storage"
      },
      {
        "astId": 5154,
        "contract": "contracts/radiant/accessories/StargateBorrow.sol:StargateBorrow",
        "label": "router",
        "offset": 0,
        "slot": "101",
        "type": "t_contract(IStargateRouter)3033"
      },
      {
        "astId": 5158,
        "contract": "contracts/radiant/accessories/StargateBorrow.sol:StargateBorrow",
        "label": "routerETH",
        "offset": 0,
        "slot": "102",
        "type": "t_contract(IRouterETH)2913"
      },
      {
        "astId": 5162,
        "contract": "contracts/radiant/accessories/StargateBorrow.sol:StargateBorrow",
        "label": "lendingPool",
        "offset": 0,
        "slot": "103",
        "type": "t_contract(ILendingPool)2435"
      },
      {
        "astId": 5165,
        "contract": "contracts/radiant/accessories/StargateBorrow.sol:StargateBorrow",
        "label": "weth",
        "offset": 0,
        "slot": "104",
        "type": "t_contract(IWETH)3080"
      },
      {
        "astId": 5170,
        "contract": "contracts/radiant/accessories/StargateBorrow.sol:StargateBorrow",
        "label": "poolIdPerChain",
        "offset": 0,
        "slot": "105",
        "type": "t_mapping(t_address,t_uint256)"
      },
      {
        "astId": 5173,
        "contract": "contracts/radiant/accessories/StargateBorrow.sol:StargateBorrow",
        "label": "daoTreasury",
        "offset": 0,
        "slot": "106",
        "type": "t_address"
      },
      {
        "astId": 5176,
        "contract": "contracts/radiant/accessories/StargateBorrow.sol:StargateBorrow",
        "label": "xChainBorrowFeePercent",
        "offset": 0,
        "slot": "107",
        "type": "t_uint256"
      }
    ],
    "types": {
      "t_address": {
        "encoding": "inplace",
        "label": "address",
        "numberOfBytes": "20"
      },
      "t_array(t_uint256)49_storage": {
        "base": "t_uint256",
        "encoding": "inplace",
        "label": "uint256[49]",
        "numberOfBytes": "1568"
      },
      "t_array(t_uint256)50_storage": {
        "base": "t_uint256",
        "encoding": "inplace",
        "label": "uint256[50]",
        "numberOfBytes": "1600"
      },
      "t_bool": {
        "encoding": "inplace",
        "label": "bool",
        "numberOfBytes": "1"
      },
      "t_contract(ILendingPool)2435": {
        "encoding": "inplace",
        "label": "contract ILendingPool",
        "numberOfBytes": "20"
      },
      "t_contract(IRouterETH)2913": {
        "encoding": "inplace",
        "label": "contract IRouterETH",
        "numberOfBytes": "20"
      },
      "t_contract(IStargateRouter)3033": {
        "encoding": "inplace",
        "label": "contract IStargateRouter",
        "numberOfBytes": "20"
      },
      "t_contract(IWETH)3080": {
        "encoding": "inplace",
        "label": "contract IWETH",
        "numberOfBytes": "20"
      },
      "t_mapping(t_address,t_uint256)": {
        "encoding": "mapping",
        "key": "t_address",
        "label": "mapping(address => uint256)",
        "numberOfBytes": "32",
        "value": "t_uint256"
      },
      "t_uint256": {
        "encoding": "inplace",
        "label": "uint256",
        "numberOfBytes": "32"
      },
      "t_uint8": {
        "encoding": "inplace",
        "label": "uint8",
        "numberOfBytes": "1"
      }
    }
  }
}