{
  "address": "0x521642EEdBB47C66f2b908E97210F3A33C4e5A6a",
  "abi": [
    {
      "anonymous": false,
      "inputs": [
        {
          "indexed": true,
          "internalType": "address",
          "name": "previousOwner",
          "type": "address"
        },
        {
          "indexed": true,
          "internalType": "address",
          "name": "newOwner",
          "type": "address"
        }
      ],
      "name": "OwnershipTransferred",
      "type": "event"
    },
    {
      "inputs": [],
      "name": "decimals",
      "outputs": [
        {
          "internalType": "uint8",
          "name": "",
          "type": "uint8"
        }
      ],
      "stateMutability": "view",
      "type": "function"
    },
    {
      "inputs": [],
      "name": "description",
      "outputs": [
        {
          "internalType": "string",
          "name": "",
          "type": "string"
        }
      ],
      "stateMutability": "view",
      "type": "function"
    },
    {
      "inputs": [
        {
          "internalType": "address",
          "name": "_stETHUSDOracle",
          "type": "address"
        },
        {
          "internalType": "address",
          "name": "_stEthPerWstETHOracle",
          "type": "address"
        }
      ],
      "name": "initialize",
      "outputs": [],
      "stateMutability": "nonpayable",
      "type": "function"
    },
    {
      "inputs": [],
      "name": "latestAnswer",
      "outputs": [
        {
          "internalType": "int256",
          "name": "answer",
          "type": "int256"
        }
      ],
      "stateMutability": "view",
      "type": "function"
    },
    {
      "inputs": [],
      "name": "latestTimestamp",
      "outputs": [
        {
          "internalType": "uint256",
          "name": "",
          "type": "uint256"
        }
      ],
      "stateMutability": "view",
      "type": "function"
    },
    {
      "inputs": [],
      "name": "owner",
      "outputs": [
        {
          "internalType": "address",
          "name": "",
          "type": "address"
        }
      ],
      "stateMutability": "view",
      "type": "function"
    },
    {
      "inputs": [],
      "name": "renounceOwnership",
      "outputs": [],
      "stateMutability": "nonpayable",
      "type": "function"
    },
    {
      "inputs": [],
      "name": "stETHUSDOracle",
      "outputs": [
        {
          "internalType": "contract AggregatorV3Interface",
          "name": "",
          "type": "address"
        }
      ],
      "stateMutability": "view",
      "type": "function"
    },
    {
      "inputs": [],
      "name": "stEthPerWstETHOracle",
      "outputs": [
        {
          "internalType": "contract AggregatorV3Interface",
          "name": "",
          "type": "address"
        }
      ],
      "stateMutability": "view",
      "type": "function"
    },
    {
      "inputs": [
        {
          "internalType": "address",
          "name": "newOwner",
          "type": "address"
        }
      ],
      "name": "transferOwnership",
      "outputs": [],
      "stateMutability": "nonpayable",
      "type": "function"
    },
    {
      "inputs": [],
      "name": "version",
      "outputs": [
        {
          "internalType": "uint256",
          "name": "",
          "type": "uint256"
        }
      ],
      "stateMutability": "view",
      "type": "function"
    }
  ],
  "transactionHash": "0x9a387c393bc66c6bc69eb462aa7509a75ecb8b6ec316449fce74e1b1e8866566",
  "args": [],
  "numDeployments": 1,
  "solcInputHash": "99ff3b1b10865282e2600d0e3e40aa0a",
  "bytecode": "0x608060405234801561001057600080fd5b5061096c806100206000396000f3fe608060405234801561001057600080fd5b50600436106100c95760003560e01c8063715018a6116100815780638da5cb5b1161005b5780638da5cb5b1461018e578063d2fa12cf1461019f578063f2fde38b146101b257600080fd5b8063715018a61461013f5780637284e416146101475780638205bf6a1461018657600080fd5b8063485cc955116100b2578063485cc9551461010d57806350d25bcd1461012257806354fd4d501461013857600080fd5b80630dd7ac08146100ce578063313ce567146100fe575b600080fd5b6098546100e1906001600160a01b031681565b6040516001600160a01b0390911681526020015b60405180910390f35b604051600881526020016100f5565b61012061011b366004610730565b6101c5565b005b61012a6102dd565b6040519081526020016100f5565b600161012a565b610120610402565b604080518082018252600a81527f5753544554482f55534400000000000000000000000000000000000000000000602082015290516100f59190610763565b61012a610468565b6065546001600160a01b03166100e1565b6097546100e1906001600160a01b031681565b6101206101c03660046107b8565b6104ec565b600054610100900460ff16806101da5750303b155b806101e8575060005460ff16155b61025f5760405162461bcd60e51b815260206004820152602e60248201527f436f6e747261637420696e7374616e63652068617320616c726561647920626560448201527f656e20696e697469616c697a656400000000000000000000000000000000000060648201526084015b60405180910390fd5b600054610100900460ff16158015610281576000805461ffff19166101011790555b609780546001600160a01b0380861673ffffffffffffffffffffffffffffffffffffffff199283161790925560988054928516929091169190911790556102c66105ce565b80156102d8576000805461ff00191690555b505050565b600080609760009054906101000a90046001600160a01b03166001600160a01b031663feaf968c6040518163ffffffff1660e01b815260040160a060405180830381865afa158015610333573d6000803e3d6000fd5b505050506040513d601f19601f8201168201806040525081019061035791906107f4565b5050509150506000609860009054906101000a90046001600160a01b03166001600160a01b031663feaf968c6040518163ffffffff1660e01b815260040160a060405180830381865afa1580156103b2573d6000803e3d6000fd5b505050506040513d601f19601f820116820180604052508101906103d691906107f4565b505050915050670de0b6b3a764000081836103f1919061085a565b6103fb91906108fa565b9250505090565b6065546001600160a01b0316331461045c5760405162461bcd60e51b815260206004820181905260248201527f4f776e61626c653a2063616c6c6572206973206e6f7420746865206f776e65726044820152606401610256565b6104666000610641565b565b600080609760009054906101000a90046001600160a01b03166001600160a01b031663feaf968c6040518163ffffffff1660e01b815260040160a060405180830381865afa1580156104be573d6000803e3d6000fd5b505050506040513d601f19601f820116820180604052508101906104e291906107f4565b5095945050505050565b6065546001600160a01b031633146105465760405162461bcd60e51b815260206004820181905260248201527f4f776e61626c653a2063616c6c6572206973206e6f7420746865206f776e65726044820152606401610256565b6001600160a01b0381166105c25760405162461bcd60e51b815260206004820152602660248201527f4f776e61626c653a206e6577206f776e657220697320746865207a65726f206160448201527f64647265737300000000000000000000000000000000000000000000000000006064820152608401610256565b6105cb81610641565b50565b600054610100900460ff166106395760405162461bcd60e51b815260206004820152602b60248201527f496e697469616c697a61626c653a20636f6e7472616374206973206e6f74206960448201526a6e697469616c697a696e6760a81b6064820152608401610256565b6104666106a0565b606580546001600160a01b0383811673ffffffffffffffffffffffffffffffffffffffff19831681179093556040519116919082907f8be0079c531659141344cd1fd0a4f28419497f9722a3daafe3b4186f6b6457e090600090a35050565b600054610100900460ff1661070b5760405162461bcd60e51b815260206004820152602b60248201527f496e697469616c697a61626c653a20636f6e7472616374206973206e6f74206960448201526a6e697469616c697a696e6760a81b6064820152608401610256565b61046633610641565b80356001600160a01b038116811461072b57600080fd5b919050565b6000806040838503121561074357600080fd5b61074c83610714565b915061075a60208401610714565b90509250929050565b600060208083528351808285015260005b8181101561079057858101830151858201604001528201610774565b818111156107a2576000604083870101525b50601f01601f1916929092016040019392505050565b6000602082840312156107ca57600080fd5b6107d382610714565b9392505050565b805169ffffffffffffffffffff8116811461072b57600080fd5b600080600080600060a0868803121561080c57600080fd5b610815866107da565b9450602086015193506040860151925060608601519150610838608087016107da565b90509295509295909350565b634e487b7160e01b600052601160045260246000fd5b60007f7fffffffffffffffffffffffffffffffffffffffffffffffffffffffffffffff60008413600084138583048511828216161561089b5761089b610844565b600160ff1b60008712868205881281841616156108ba576108ba610844565b600087129250878205871284841616156108d6576108d6610844565b878505871281841616156108ec576108ec610844565b505050929093029392505050565b60008261091757634e487b7160e01b600052601260045260246000fd5b600160ff1b82146000198414161561093157610931610844565b50059056fea2646970667358221220f6d729b2314b50fdee32457d7459d5b45f449d2abb8e4ad2dd6bec9d35c7076764736f6c634300080c0033",
  "devdoc": {
    "kind": "dev",
    "methods": {
      "latestAnswer()": {
        "returns": {
          "answer": "wstETH/ETH price or 0 if failure"
        }
      }
    },
    "version": 1
  },
  "userdoc": {
    "kind": "user",
    "methods": {
      "latestAnswer()": {
        "notice": "Get wstETH/ETH price. It does not check Chainlink oracle staleness! If staleness check needed, it's recommended to use latestTimestamp() function"
      }
    },
    "notice": "Provides wstETH/USD price using stETH/USD Chainlink oracle and wstETH/stETH exchange rate provided by stETH smart contract",
    "version": 1
  },
  "storageLayout": {
    "storage": [
      {
        "astId": 10936,
        "contract": "contracts/radiant/oracles/wstethOracle.sol:WSTETHOracle",
        "label": "initialized",
        "offset": 0,
        "slot": "0",
        "type": "t_bool"
      },
      {
        "astId": 10939,
        "contract": "contracts/radiant/oracles/wstethOracle.sol:WSTETHOracle",
        "label": "initializing",
        "offset": 1,
        "slot": "0",
        "type": "t_bool"
      },
      {
        "astId": 11006,
        "contract": "contracts/radiant/oracles/wstethOracle.sol:WSTETHOracle",
        "label": "______gap",
        "offset": 0,
        "slot": "1",
        "type": "t_array(t_uint256)50_storage"
      },
      {
        "astId": 10929,
        "contract": "contracts/radiant/oracles/wstethOracle.sol:WSTETHOracle",
        "label": "__gap",
        "offset": 0,
        "slot": "51",
        "type": "t_array(t_uint256)50_storage"
      },
      {
        "astId": 11151,
        "contract": "contracts/radiant/oracles/wstethOracle.sol:WSTETHOracle",
        "label": "_owner",
        "offset": 0,
        "slot": "101",
        "type": "t_address"
      },
      {
        "astId": 11256,
        "contract": "contracts/radiant/oracles/wstethOracle.sol:WSTETHOracle",
        "label": "__gap",
        "offset": 0,
        "slot": "102",
        "type": "t_array(t_uint256)49_storage"
      },
      {
        "astId": 43518,
        "contract": "contracts/radiant/oracles/wstethOracle.sol:WSTETHOracle",
        "label": "stETHUSDOracle",
        "offset": 0,
        "slot": "151",
        "type": "t_contract(AggregatorV3Interface)14999"
      },
      {
        "astId": 43521,
        "contract": "contracts/radiant/oracles/wstethOracle.sol:WSTETHOracle",
        "label": "stEthPerWstETHOracle",
        "offset": 0,
        "slot": "152",
        "type": "t_contract(AggregatorV3Interface)14999"
      }
    ],
    "types": {
      "t_address": {
        "encoding": "inplace",
        "label": "address",
        "numberOfBytes": "20"
      },
      "t_array(t_uint256)49_storage": {
        "base": "t_uint256",
        "encoding": "inplace",
        "label": "uint256[49]",
        "numberOfBytes": "1568"
      },
      "t_array(t_uint256)50_storage": {
        "base": "t_uint256",
        "encoding": "inplace",
        "label": "uint256[50]",
        "numberOfBytes": "1600"
      },
      "t_bool": {
        "encoding": "inplace",
        "label": "bool",
        "numberOfBytes": "1"
      },
      "t_contract(AggregatorV3Interface)14999": {
        "encoding": "inplace",
        "label": "contract AggregatorV3Interface",
        "numberOfBytes": "20"
      },
      "t_uint256": {
        "encoding": "inplace",
        "label": "uint256",
        "numberOfBytes": "32"
      }
    }
  }
}