{
  "address": "0x047EC5D5230d01CFF4C1381B124071f7F5e797Ba",
  "abi": [
    {
      "inputs": [],
      "name": "AddressZero",
      "type": "error"
    },
    {
      "inputs": [],
      "name": "Ineligible",
      "type": "error"
    },
    {
      "inputs": [],
      "name": "InvalidNumber",
      "type": "error"
    },
    {
      "inputs": [],
      "name": "InvalidSlippage",
      "type": "error"
    },
    {
      "inputs": [],
      "name": "Override",
      "type": "error"
    },
    {
      "inputs": [],
      "name": "QuoteFail",
      "type": "error"
    },
    {
      "anonymous": false,
      "inputs": [
        {
          "indexed": true,
          "internalType": "uint256",
          "name": "_newVal",
          "type": "uint256"
        }
      ],
      "name": "BaseBountyUsdTargetUpdated",
      "type": "event"
    },
    {
      "anonymous": false,
      "inputs": [
        {
          "indexed": true,
          "internalType": "uint256",
          "name": "_newVal",
          "type": "uint256"
        }
      ],
      "name": "BountyBoosterUpdated",
      "type": "event"
    },
    {
      "anonymous": false,
      "inputs": [
        {
          "indexed": true,
          "internalType": "uint256",
          "name": "_bal",
          "type": "uint256"
        }
      ],
      "name": "BountyReserveEmpty",
      "type": "event"
    },
    {
      "anonymous": false,
      "inputs": [
        {
          "indexed": true,
          "internalType": "uint256",
          "name": "_newVal",
          "type": "uint256"
        }
      ],
      "name": "HunterShareUpdated",
      "type": "event"
    },
    {
      "anonymous": false,
      "inputs": [
        {
          "indexed": true,
          "internalType": "uint256",
          "name": "_newVal",
          "type": "uint256"
        }
      ],
      "name": "MaxBaseBountyUpdated",
      "type": "event"
    },
    {
      "anonymous": false,
      "inputs": [
        {
          "indexed": true,
          "internalType": "address",
          "name": "previousOwner",
          "type": "address"
        },
        {
          "indexed": true,
          "internalType": "address",
          "name": "newOwner",
          "type": "address"
        }
      ],
      "name": "OwnershipTransferred",
      "type": "event"
    },
    {
      "anonymous": false,
      "inputs": [
        {
          "indexed": false,
          "internalType": "address",
          "name": "account",
          "type": "address"
        }
      ],
      "name": "Paused",
      "type": "event"
    },
    {
      "anonymous": false,
      "inputs": [
        {
          "indexed": true,
          "internalType": "uint256",
          "name": "_newVal",
          "type": "uint256"
        }
      ],
      "name": "SlippageLimitUpdated",
      "type": "event"
    },
    {
      "anonymous": false,
      "inputs": [
        {
          "indexed": false,
          "internalType": "address",
          "name": "account",
          "type": "address"
        }
      ],
      "name": "Unpaused",
      "type": "event"
    },
    {
      "anonymous": false,
      "inputs": [
        {
          "indexed": true,
          "internalType": "bool",
          "name": "isActive",
          "type": "bool"
        }
      ],
      "name": "WhitelistActiveChanged",
      "type": "event"
    },
    {
      "inputs": [
        {
          "internalType": "address",
          "name": "user",
          "type": "address"
        },
        {
          "internalType": "bool",
          "name": "status",
          "type": "bool"
        }
      ],
      "name": "addAddressToWL",
      "outputs": [],
      "stateMutability": "nonpayable",
      "type": "function"
    },
    {
      "inputs": [],
      "name": "baseBountyUsdTarget",
      "outputs": [
        {
          "internalType": "uint256",
          "name": "",
          "type": "uint256"
        }
      ],
      "stateMutability": "view",
      "type": "function"
    },
    {
      "inputs": [],
      "name": "bountyBooster",
      "outputs": [
        {
          "internalType": "uint256",
          "name": "",
          "type": "uint256"
        }
      ],
      "stateMutability": "view",
      "type": "function"
    },
    {
      "inputs": [],
      "name": "bountyCount",
      "outputs": [
        {
          "internalType": "uint256",
          "name": "",
          "type": "uint256"
        }
      ],
      "stateMutability": "view",
      "type": "function"
    },
    {
      "inputs": [
        {
          "internalType": "bool",
          "name": "status",
          "type": "bool"
        }
      ],
      "name": "changeWL",
      "outputs": [],
      "stateMutability": "nonpayable",
      "type": "function"
    },
    {
      "inputs": [],
      "name": "chef",
      "outputs": [
        {
          "internalType": "address",
          "name": "",
          "type": "address"
        }
      ],
      "stateMutability": "view",
      "type": "function"
    },
    {
      "inputs": [
        {
          "internalType": "address",
          "name": "_user",
          "type": "address"
        },
        {
          "internalType": "uint256",
          "name": "_actionType",
          "type": "uint256"
        }
      ],
      "name": "claim",
      "outputs": [
        {
          "internalType": "uint256",
          "name": "",
          "type": "uint256"
        },
        {
          "internalType": "uint256",
          "name": "",
          "type": "uint256"
        }
      ],
      "stateMutability": "nonpayable",
      "type": "function"
    },
    {
      "inputs": [],
      "name": "compounder",
      "outputs": [
        {
          "internalType": "address",
          "name": "",
          "type": "address"
        }
      ],
      "stateMutability": "view",
      "type": "function"
    },
    {
      "inputs": [],
      "name": "eligibilityDataProvider",
      "outputs": [
        {
          "internalType": "address",
          "name": "",
          "type": "address"
        }
      ],
      "stateMutability": "view",
      "type": "function"
    },
    {
      "inputs": [
        {
          "internalType": "address",
          "name": "_user",
          "type": "address"
        },
        {
          "internalType": "bool",
          "name": "_execute",
          "type": "bool"
        },
        {
          "internalType": "uint256",
          "name": "_actionType",
          "type": "uint256"
        }
      ],
      "name": "executeBounty",
      "outputs": [
        {
          "internalType": "uint256",
          "name": "bounty",
          "type": "uint256"
        },
        {
          "internalType": "uint256",
          "name": "actionType",
          "type": "uint256"
        }
      ],
      "stateMutability": "nonpayable",
      "type": "function"
    },
    {
      "inputs": [],
      "name": "getBaseBounty",
      "outputs": [
        {
          "internalType": "uint256",
          "name": "bounty",
          "type": "uint256"
        }
      ],
      "stateMutability": "view",
      "type": "function"
    },
    {
      "inputs": [],
      "name": "hunterShare",
      "outputs": [
        {
          "internalType": "uint256",
          "name": "",
          "type": "uint256"
        }
      ],
      "stateMutability": "view",
      "type": "function"
    },
    {
      "inputs": [
        {
          "internalType": "address",
          "name": "_rdnt",
          "type": "address"
        },
        {
          "internalType": "address",
          "name": "_weth",
          "type": "address"
        },
        {
          "internalType": "address",
          "name": "_mfd",
          "type": "address"
        },
        {
          "internalType": "address",
          "name": "_chef",
          "type": "address"
        },
        {
          "internalType": "address",
          "name": "_priceProvider",
          "type": "address"
        },
        {
          "internalType": "address",
          "name": "_eligibilityDataProvider",
          "type": "address"
        },
        {
          "internalType": "address",
          "name": "_compounder",
          "type": "address"
        },
        {
          "internalType": "uint256",
          "name": "_hunterShare",
          "type": "uint256"
        },
        {
          "internalType": "uint256",
          "name": "_baseBountyUsdTarget",
          "type": "uint256"
        },
        {
          "internalType": "uint256",
          "name": "_maxBaseBounty",
          "type": "uint256"
        },
        {
          "internalType": "uint256",
          "name": "_bountyBooster",
          "type": "uint256"
        }
      ],
      "name": "initialize",
      "outputs": [],
      "stateMutability": "nonpayable",
      "type": "function"
    },
    {
      "inputs": [],
      "name": "maxBaseBounty",
      "outputs": [
        {
          "internalType": "uint256",
          "name": "",
          "type": "uint256"
        }
      ],
      "stateMutability": "view",
      "type": "function"
    },
    {
      "inputs": [],
      "name": "mfd",
      "outputs": [
        {
          "internalType": "address",
          "name": "",
          "type": "address"
        }
      ],
      "stateMutability": "view",
      "type": "function"
    },
    {
      "inputs": [],
      "name": "minDLPBalance",
      "outputs": [
        {
          "internalType": "uint256",
          "name": "min",
          "type": "uint256"
        }
      ],
      "stateMutability": "view",
      "type": "function"
    },
    {
      "inputs": [],
      "name": "minStakeAmount",
      "outputs": [
        {
          "internalType": "uint256",
          "name": "",
          "type": "uint256"
        }
      ],
      "stateMutability": "view",
      "type": "function"
    },
    {
      "inputs": [],
      "name": "owner",
      "outputs": [
        {
          "internalType": "address",
          "name": "",
          "type": "address"
        }
      ],
      "stateMutability": "view",
      "type": "function"
    },
    {
      "inputs": [],
      "name": "pause",
      "outputs": [],
      "stateMutability": "nonpayable",
      "type": "function"
    },
    {
      "inputs": [],
      "name": "paused",
      "outputs": [
        {
          "internalType": "bool",
          "name": "",
          "type": "bool"
        }
      ],
      "stateMutability": "view",
      "type": "function"
    },
    {
      "inputs": [],
      "name": "priceProvider",
      "outputs": [
        {
          "internalType": "address",
          "name": "",
          "type": "address"
        }
      ],
      "stateMutability": "view",
      "type": "function"
    },
    {
      "inputs": [
        {
          "internalType": "address",
          "name": "_user",
          "type": "address"
        }
      ],
      "name": "quote",
      "outputs": [
        {
          "internalType": "uint256",
          "name": "bounty",
          "type": "uint256"
        },
        {
          "internalType": "uint256",
          "name": "actionType",
          "type": "uint256"
        }
      ],
      "stateMutability": "view",
      "type": "function"
    },
    {
      "inputs": [],
      "name": "rdnt",
      "outputs": [
        {
          "internalType": "address",
          "name": "",
          "type": "address"
        }
      ],
      "stateMutability": "view",
      "type": "function"
    },
    {
      "inputs": [
        {
          "internalType": "address",
          "name": "tokenAddress",
          "type": "address"
        },
        {
          "internalType": "uint256",
          "name": "tokenAmount",
          "type": "uint256"
        }
      ],
      "name": "recoverERC20",
      "outputs": [],
      "stateMutability": "nonpayable",
      "type": "function"
    },
    {
      "inputs": [],
      "name": "renounceOwnership",
      "outputs": [],
      "stateMutability": "nonpayable",
      "type": "function"
    },
    {
      "inputs": [
        {
          "internalType": "uint256",
          "name": "_newVal",
          "type": "uint256"
        }
      ],
      "name": "setBaseBountyUsdTarget",
      "outputs": [],
      "stateMutability": "nonpayable",
      "type": "function"
    },
    {
      "inputs": [],
      "name": "setBounties",
      "outputs": [],
      "stateMutability": "nonpayable",
      "type": "function"
    },
    {
      "inputs": [
        {
          "internalType": "uint256",
          "name": "_newVal",
          "type": "uint256"
        }
      ],
      "name": "setBountyBooster",
      "outputs": [],
      "stateMutability": "nonpayable",
      "type": "function"
    },
    {
      "inputs": [
        {
          "internalType": "uint256",
          "name": "_newVal",
          "type": "uint256"
        }
      ],
      "name": "setHunterShare",
      "outputs": [],
      "stateMutability": "nonpayable",
      "type": "function"
    },
    {
      "inputs": [
        {
          "internalType": "uint256",
          "name": "_newVal",
          "type": "uint256"
        }
      ],
      "name": "setMaxBaseBounty",
      "outputs": [],
      "stateMutability": "nonpayable",
      "type": "function"
    },
    {
      "inputs": [
        {
          "internalType": "uint256",
          "name": "_minStakeAmount",
          "type": "uint256"
        }
      ],
      "name": "setMinStakeAmount",
      "outputs": [],
      "stateMutability": "nonpayable",
      "type": "function"
    },
    {
      "inputs": [
        {
          "internalType": "uint256",
          "name": "_newVal",
          "type": "uint256"
        }
      ],
      "name": "setSlippageLimit",
      "outputs": [],
      "stateMutability": "nonpayable",
      "type": "function"
    },
    {
      "inputs": [],
      "name": "slippageLimit",
      "outputs": [
        {
          "internalType": "uint256",
          "name": "",
          "type": "uint256"
        }
      ],
      "stateMutability": "view",
      "type": "function"
    },
    {
      "inputs": [
        {
          "internalType": "address",
          "name": "newOwner",
          "type": "address"
        }
      ],
      "name": "transferOwnership",
      "outputs": [],
      "stateMutability": "nonpayable",
      "type": "function"
    },
    {
      "inputs": [],
      "name": "unpause",
      "outputs": [],
      "stateMutability": "nonpayable",
      "type": "function"
    },
    {
      "inputs": [],
      "name": "weth",
      "outputs": [
        {
          "internalType": "address",
          "name": "",
          "type": "address"
        }
      ],
      "stateMutability": "view",
      "type": "function"
    },
    {
      "inputs": [
        {
          "internalType": "address",
          "name": "",
          "type": "address"
        }
      ],
      "name": "whitelist",
      "outputs": [
        {
          "internalType": "bool",
          "name": "",
          "type": "bool"
        }
      ],
      "stateMutability": "view",
      "type": "function"
    },
    {
      "inputs": [],
      "name": "whitelistActive",
      "outputs": [
        {
          "internalType": "bool",
          "name": "",
          "type": "bool"
        }
      ],
      "stateMutability": "view",
      "type": "function"
    }
  ],
  "transactionHash": "0x1864a93c47116324b48a483d747bc4b543d060376bf2d5321d149b50fd3956a2",
  "args": [],
  "numDeployments": 1,
  "solcInputHash": "d20862d9a7051998216c9f1f22667b5c",
  "bytecode": "0x608060405234801561001057600080fd5b506125fa806100206000396000f3fe608060405234801561001057600080fd5b50600436106102925760003560e01c80638456cb5911610160578063c0d02c51116100d8578063e011b2891161008c578063f188768411610071578063f188768414610504578063f2fde38b1461050d578063fa2cc3c01461052057600080fd5b8063e011b289146104de578063eb4af045146104f157600080fd5b8063d4743bae116100bd578063d4743bae146104ba578063d8c0e253146104cd578063d9cdd513146104d657600080fd5b8063c0d02c51146104a9578063d1025c0c146104b157600080fd5b8063aad3ec961161012f578063b200e2c811610114578063b200e2c814610470578063b736ca8214610483578063b888879e1461049657600080fd5b8063aad3ec961461044a578063b0c634ee1461045d57600080fd5b80638456cb59146103fb5780638980f11f146104035780638da5cb5b146104165780639b19251a1461042757600080fd5b80633e362c961161020e5780635c975abb116101c25780635ebd4f9f116101a75780635ebd4f9f146103cd578063715018a6146103e057806376e82e8b146103e857600080fd5b80635c975abb146103af5780635d0f5396146103ba57600080fd5b80633fc8cef3116101f35780633fc8cef314610380578063464cea3d146103935780635b07871a146103a657600080fd5b80633e362c961461036f5780633f4ba83a1461037857600080fd5b80631fc8bc5d116102655780632a0233871161024a5780632a0233871461034a5780632a50ddd2146103535780632d54f8231461036657600080fd5b80631fc8bc5d1461030c5780631fe4ba171461033757600080fd5b8063015d87611461029757806302ce5813146102ac5780630b39ed47146102ce5780631a2baad6146102f6575b600080fd5b6102aa6102a53660046120fc565b610533565b005b60d9546102b99060ff1681565b60405190151581526020015b60405180910390f35b6102e16102dc366004612131565b6105b3565b604080519283526020830191909152016102c5565b6102fe6106e7565b6040519081526020016102c5565b60cc5461031f906001600160a01b031681565b6040516001600160a01b0390911681526020016102c5565b6102aa6103453660046120fc565b6107b3565b6102fe60d05481565b6102aa6103613660046120fc565b61086a565b6102fe60d35481565b6102fe60d45481565b6102aa6108e5565b60ca5461031f906001600160a01b031681565b6102aa6103a136600461215a565b610937565b6102fe60d65481565b60975460ff166102b9565b60c95461031f906001600160a01b031681565b6102aa6103db3660046120fc565b6109aa565b6102aa610a61565b60ce5461031f906001600160a01b031681565b6102aa610ab3565b6102aa610411366004612191565b610b03565b6065546001600160a01b031661031f565b6102b9610435366004612131565b60d86020526000908152604090205460ff1681565b6102e1610458366004612191565b610b75565b60cb5461031f906001600160a01b031681565b6102aa61047e3660046120fc565b610bfb565b6102aa6104913660046121bb565b610c76565b60cd5461031f906001600160a01b031681565b6102aa611010565b6102fe60d15481565b6102aa6104c836600461226b565b611107565b6102fe60d25481565b6102fe61118c565b6102e16104ec36600461228f565b61122b565b6102aa6104ff3660046120fc565b611387565b6102fe60d55481565b6102aa61051b366004612131565b6113d4565b60cf5461031f906001600160a01b031681565b6065546001600160a01b031633146105805760405162461bcd60e51b815260206004820181905260248201526000805160206125a583398151915260448201526064015b60405180910390fd5b60d281905560405181907fe63c291a066613fe10359993ab33123d8c5985f14ae0ccdfd066c63d537e229690600090a250565b6000806105be6114a4565b6040516001600160a01b038416602482015260006044820181905260648201819052908190309060840160408051601f198184030181529181526020820180517bffffffffffffffffffffffffffffffffffffffffffffffffffffffff167fe011b289000000000000000000000000000000000000000000000000000000001790525161064b91906122fa565b600060405180830381855afa9150503d8060008114610686576040519150601f19603f3d011682016040523d82523d6000602084013e61068b565b606091505b5091509150816106c7576040517f59ed39fc00000000000000000000000000000000000000000000000000000000815260040160405180910390fd5b808060200190518101906106db9190612316565b90969095509350505050565b60006106f16114a4565b60cd54604080517f6d2ed18400000000000000000000000000000000000000000000000000000000815290516000926001600160a01b031691636d2ed1849160048083019260209291908290030181865afa158015610754573d6000803e3d6000fd5b505050506040513d601f19601f82011682018060405250810190610778919061233a565b905061079d816107976305f5e10060d1546114f790919063ffffffff16565b9061150c565b915060d2548211156107af5760d25491505b5090565b6065546001600160a01b031633146107fb5760405162461bcd60e51b815260206004820181905260248201526000805160206125a58339815191526044820152606401610577565b612710811115610837576040517f334ee9a100000000000000000000000000000000000000000000000000000000815260040160405180910390fd5b60d681905560405181907fcf7f7495105ceec35e1d46b5a1330650da881193032a0a846d4c4d2e8d29930490600090a250565b6065546001600160a01b031633146108b25760405162461bcd60e51b815260206004820181905260248201526000805160206125a58339815191526044820152606401610577565b60d381905560405181907f36a68bf905dcbd4092d259543b986b02346ebd9663aaacc168ba581b44d63f6c90600090a250565b6065546001600160a01b0316331461092d5760405162461bcd60e51b815260206004820181905260248201526000805160206125a58339815191526044820152606401610577565b610935611518565b565b6065546001600160a01b0316331461097f5760405162461bcd60e51b815260206004820181905260248201526000805160206125a58339815191526044820152606401610577565b6001600160a01b0391909116600090815260d860205260409020805460ff1916911515919091179055565b6065546001600160a01b031633146109f25760405162461bcd60e51b815260206004820181905260248201526000805160206125a58339815191526044820152606401610577565b612710811115610a2e576040517f01a68cab00000000000000000000000000000000000000000000000000000000815260040160405180910390fd5b60d081905560405181907fc6d3d93e80290ad8687918eb1cd28293fa9e658800d205f09a6d73d2d5e0fbdf90600090a250565b6065546001600160a01b03163314610aa95760405162461bcd60e51b815260206004820181905260248201526000805160206125a58339815191526044820152606401610577565b610935600061156a565b6065546001600160a01b03163314610afb5760405162461bcd60e51b815260206004820181905260248201526000805160206125a58339815191526044820152606401610577565b6109356115c9565b6065546001600160a01b03163314610b4b5760405162461bcd60e51b815260206004820181905260248201526000805160206125a58339815191526044820152606401610577565b610b71610b606065546001600160a01b031690565b6001600160a01b0384169083611606565b5050565b600080610b806114a4565b60d95460ff1615610be45733600090815260d8602052604090205460ff1680610ba857503330145b610be45760405162461bcd60e51b815260206004820152600d60248201526c085dda1a5d195b1a595cdd1959609a1b6044820152606401610577565b610bf08460018561122b565b915091509250929050565b6065546001600160a01b03163314610c435760405162461bcd60e51b815260206004820181905260248201526000805160206125a58339815191526044820152606401610577565b60d181905560405181907f27fed2da20a195ee831c4e78ce2bd0cfc4be23b636e8820121f147336084971e90600090a250565b600054610100900460ff1680610c8b5750303b155b80610c99575060005460ff16155b610d0b5760405162461bcd60e51b815260206004820152602e60248201527f436f6e747261637420696e7374616e63652068617320616c726561647920626560448201527f656e20696e697469616c697a65640000000000000000000000000000000000006064820152608401610577565b600054610100900460ff16158015610d2d576000805461ffff19166101011790555b6001600160a01b038c16610d5457604051639fabe1c160e01b815260040160405180910390fd5b6001600160a01b038b16610d7b57604051639fabe1c160e01b815260040160405180910390fd5b6001600160a01b038a16610da257604051639fabe1c160e01b815260040160405180910390fd5b6001600160a01b038916610dc957604051639fabe1c160e01b815260040160405180910390fd5b6001600160a01b038816610df057604051639fabe1c160e01b815260040160405180910390fd5b6001600160a01b038716610e1757604051639fabe1c160e01b815260040160405180910390fd5b6001600160a01b038616610e3e57604051639fabe1c160e01b815260040160405180910390fd5b612710851115610e61576040516374cbd35f60e01b815260040160405180910390fd5b83610e7f576040516374cbd35f60e01b815260040160405180910390fd5b82610e9d576040516374cbd35f60e01b815260040160405180910390fd5b60c9805473ffffffffffffffffffffffffffffffffffffffff199081166001600160a01b038f81169190911790925560ca805482168e841617905560cb805482168d841617905560cc805482168c841617905560cd805482168b841617905560ce805482168a841617905560cf805490911691881691909117905560d085905560d184905560d382905560d283905560d76020527fa51546995d065b44a0663f742232ea3f69c2e6e2f799ed388e1fe3b148a95ee4805467ffffffffffffffff199081166116b467ffffffffffffffff908116919091179092557faf10985cb874cd725a16cb5769c92fd785332faac9dbd01b251e0a7221cbea758054821661174b8416179055600360008190527f22b9767c687db4fc60e8fd58df05805b96575c40fcf136626932ccd5579486f980549092166117e290931692909217905560d455610fe8611894565b610ff0611907565b8015611002576000805461ff00191690555b505050505050505050505050565b6065546001600160a01b031633146110585760405162461bcd60e51b815260206004820181905260248201526000805160206125a58339815191526044820152606401610577565b60d76020527fa51546995d065b44a0663f742232ea3f69c2e6e2f799ed388e1fe3b148a95ee4805467ffffffffffffffff6116b4811667ffffffffffffffff19928316179092557faf10985cb874cd725a16cb5769c92fd785332faac9dbd01b251e0a7221cbea75805461174b841690831617905560036000527f22b9767c687db4fc60e8fd58df05805b96575c40fcf136626932ccd5579486f980546117e290931692909116919091179055565b6065546001600160a01b0316331461114f5760405162461bcd60e51b815260206004820181905260248201526000805160206125a58339815191526044820152606401610577565b60d9805460ff19168215159081179091556040517f9c3f345b91941b4513c16d31601085e204abcc7df3ded47d446a78268da64b0490600090a250565b60008060cd60009054906101000a90046001600160a01b03166001600160a01b0316636e9a05c56040518163ffffffff1660e01b8152600401602060405180830381865afa1580156111e2573d6000803e3d6000fd5b505050506040513d601f19601f82011682018060405250810190611206919061233a565b9050611225816107976305f5e10060d5546114f790919063ffffffff16565b91505090565b6000806112366114a4565b60d95460ff161561129a5733600090815260d8602052604090205460ff168061125e57503330145b61129a5760405162461bcd60e51b815260206004820152600d60248201526c085dda1a5d195b1a595cdd1959609a1b6044820152606401610577565b8380156112a75750333014155b156112eb576112b53361197a565b6112eb576040517f3cb9724000000000000000000000000000000000000000000000000000000000815260040160405180910390fd5b6000806000806112f96106e7565b9050611306898989611ab7565b975090955093509150821561131d57809550611341565b83156113415761133e61271061079760d054876114f790919063ffffffff16565b95505b87801561134d57508515155b1561137b578261136f5760c95461136f906001600160a01b0316833087611b65565b6113793387611bbc565b505b50505050935093915050565b6065546001600160a01b031633146113cf5760405162461bcd60e51b815260206004820181905260248201526000805160206125a58339815191526044820152606401610577565b60d555565b6065546001600160a01b0316331461141c5760405162461bcd60e51b815260206004820181905260248201526000805160206125a58339815191526044820152606401610577565b6001600160a01b0381166114985760405162461bcd60e51b815260206004820152602660248201527f4f776e61626c653a206e6577206f776e657220697320746865207a65726f206160448201527f64647265737300000000000000000000000000000000000000000000000000006064820152608401610577565b6114a18161156a565b50565b60975460ff16156109355760405162461bcd60e51b815260206004820152601060248201527f5061757361626c653a20706175736564000000000000000000000000000000006044820152606401610577565b60006115038284612369565b90505b92915050565b60006115038284612388565b611520611db2565b6097805460ff191690557f5db9ee0a495bf2e6ff9c91a7834c1ba4fdd244a5e8aa4e537bd38aeae4b073aa335b6040516001600160a01b03909116815260200160405180910390a1565b606580546001600160a01b0383811673ffffffffffffffffffffffffffffffffffffffff19831681179093556040519116919082907f8be0079c531659141344cd1fd0a4f28419497f9722a3daafe3b4186f6b6457e090600090a35050565b6115d16114a4565b6097805460ff191660011790557f62e78cea01bee320cd4e420270b5ea74000d11b0c9f74754ebdbfc544b05a25861154d3390565b6040516001600160a01b0383166024820152604481018290526116af9084907fa9059cbb00000000000000000000000000000000000000000000000000000000906064015b60408051601f198184030181529190526020810180517bffffffffffffffffffffffffffffffffffffffffffffffffffffffff167fffffffff0000000000000000000000000000000000000000000000000000000090931692909217909152611e04565b505050565b60cb54604051637ab8955d60e01b81526001600160a01b03848116600483015283151560248301526000928392839290911690637ab8955d906044016020604051808303816000875af115801561170f573d6000803e3d6000fd5b505050506040513d601f19601f8201168201806040525081019061173391906123aa565b60cb546001600160a01b031696929550935090915050565b60cc54604051637ab8955d60e01b81526001600160a01b03848116600483015283151560248301526000928392839290911690637ab8955d906044016020604051808303816000875af11580156117a6573d6000803e3d6000fd5b505050506040513d601f19601f820116820180604052508101906117ca91906123aa565b60cc546001600160a01b031696929550935090915050565b60cf546040517f8f4320740000000000000000000000000000000000000000000000000000000081526001600160a01b03848116600483015283151560248301526000928392839290911690638f432074906044016020604051808303816000875af1158015611856573d6000803e3d6000fd5b505050506040513d601f19601f8201168201806040525081019061187a919061233a565b60cf546001600160a01b0316969095506000945092505050565b600054610100900460ff166118ff5760405162461bcd60e51b815260206004820152602b60248201527f496e697469616c697a61626c653a20636f6e7472616374206973206e6f74206960448201526a6e697469616c697a696e6760a81b6064820152608401610577565b610935611ee9565b600054610100900460ff166119725760405162461bcd60e51b815260206004820152602b60248201527f496e697469616c697a61626c653a20636f6e7472616374206973206e6f74206960448201526a6e697469616c697a696e6760a81b6064820152608401610577565b610935611f5d565b60cb546040517f0483a7f60000000000000000000000000000000000000000000000000000000081526001600160a01b0383811660048301526000928392911690630483a7f690602401600060405180830381865afa1580156119e1573d6000803e3d6000fd5b505050506040513d6000823e601f3d908101601f19168201604052611a099190810190612437565b505060ce546040517f660186e60000000000000000000000000000000000000000000000000000000081526001600160a01b038881166004830152929550600094509116915063660186e690602401602060405180830381865afa158015611a75573d6000803e3d6000fd5b505050506040513d601f19601f82011682018060405250810190611a9991906123aa565b9050611aa361118c565b8210158015611aaf5750805b949350505050565b60008080808415611af757600085815260d76020526040902054611ae8908890889080156120f4021763ffffffff16565b91955093509150849050611b5c565b60015b60d4548111611b5a57600081815260d76020526040902054611b29908990899080156120f4021763ffffffff16565b9196509450925083151580611b3b5750825b15611b4857809150611b5a565b80611b5281612540565b915050611afa565b505b93509350935093565b6040516001600160a01b0380851660248301528316604482015260648101829052611bb69085907f23b872dd000000000000000000000000000000000000000000000000000000009060840161164b565b50505050565b600081611bcb57506000611506565b60c9546040517f70a082310000000000000000000000000000000000000000000000000000000081523060048201526000916001600160a01b0316906370a0823190602401602060405180830381865afa158015611c2d573d6000803e3d6000fd5b505050506040513d601f19601f82011682018060405250810190611c51919061233a565b905080831115611d1f5760cb5460c954611c78916001600160a01b03918216911683611606565b60cb546040516334686fad60e21b81526001600160a01b03868116600483015260248201849052600160448301529091169063d1a1beb490606401600060405180830381600087803b158015611ccd57600080fd5b505af1158015611ce1573d6000803e3d6000fd5b50506040518392507fe18877e49d8a98b9748ce4fc0451f1f2f20afbd428aa2f5d5cbbed3ba2d47b229150600090a2611d186115c9565b9050611506565b60cb5460c954611d3c916001600160a01b03918216911685611606565b60cb546040516334686fad60e21b81526001600160a01b03868116600483015260248201869052600160448301529091169063d1a1beb490606401600060405180830381600087803b158015611d9157600080fd5b505af1158015611da5573d6000803e3d6000fd5b5050505082915050611506565b60975460ff166109355760405162461bcd60e51b815260206004820152601460248201527f5061757361626c653a206e6f74207061757365640000000000000000000000006044820152606401610577565b6000611e59826040518060400160405280602081526020017f5361666545524332303a206c6f772d6c6576656c2063616c6c206661696c6564815250856001600160a01b0316611fd49092919063ffffffff16565b8051909150156116af5780806020019051810190611e7791906123aa565b6116af5760405162461bcd60e51b815260206004820152602a60248201527f5361666545524332303a204552433230206f7065726174696f6e20646964206e60448201527f6f742073756363656564000000000000000000000000000000000000000000006064820152608401610577565b600054610100900460ff16611f545760405162461bcd60e51b815260206004820152602b60248201527f496e697469616c697a61626c653a20636f6e7472616374206973206e6f74206960448201526a6e697469616c697a696e6760a81b6064820152608401610577565b6109353361156a565b600054610100900460ff16611fc85760405162461bcd60e51b815260206004820152602b60248201527f496e697469616c697a61626c653a20636f6e7472616374206973206e6f74206960448201526a6e697469616c697a696e6760a81b6064820152608401610577565b6097805460ff19169055565b6060611aaf848460008585600080866001600160a01b03168587604051611ffb91906122fa565b60006040518083038185875af1925050503d8060008114612038576040519150601f19603f3d011682016040523d82523d6000602084013e61203d565b606091505b509150915061204e87838387612059565b979650505050505050565b606083156120c55782516120be576001600160a01b0385163b6120be5760405162461bcd60e51b815260206004820152601d60248201527f416464726573733a2063616c6c20746f206e6f6e2d636f6e74726163740000006044820152606401610577565b5081611aaf565b611aaf83838151156120da5781518083602001fd5b8060405162461bcd60e51b8152600401610577919061255b565b61093561258e565b60006020828403121561210e57600080fd5b5035919050565b80356001600160a01b038116811461212c57600080fd5b919050565b60006020828403121561214357600080fd5b61150382612115565b80151581146114a157600080fd5b6000806040838503121561216d57600080fd5b61217683612115565b915060208301356121868161214c565b809150509250929050565b600080604083850312156121a457600080fd5b6121ad83612115565b946020939093013593505050565b60008060008060008060008060008060006101608c8e0312156121dd57600080fd5b6121e68c612115565b9a506121f460208d01612115565b995061220260408d01612115565b985061221060608d01612115565b975061221e60808d01612115565b965061222c60a08d01612115565b955061223a60c08d01612115565b945060e08c013593506101008c013592506101208c013591506101408c013590509295989b509295989b9093969950565b60006020828403121561227d57600080fd5b81356122888161214c565b9392505050565b6000806000606084860312156122a457600080fd5b6122ad84612115565b925060208401356122bd8161214c565b929592945050506040919091013590565b60005b838110156122e95781810151838201526020016122d1565b83811115611bb65750506000910152565b6000825161230c8184602087016122ce565b9190910192915050565b6000806040838503121561232957600080fd5b505080516020909101519092909150565b60006020828403121561234c57600080fd5b5051919050565b634e487b7160e01b600052601160045260246000fd5b600081600019048311821515161561238357612383612353565b500290565b6000826123a557634e487b7160e01b600052601260045260246000fd5b500490565b6000602082840312156123bc57600080fd5b81516122888161214c565b634e487b7160e01b600052604160045260246000fd5b6040516080810167ffffffffffffffff81118282101715612400576124006123c7565b60405290565b604051601f8201601f1916810167ffffffffffffffff8111828210171561242f5761242f6123c7565b604052919050565b600080600080600060a0868803121561244f57600080fd5b85519450602080870151945060408701519350606080880151935060808089015167ffffffffffffffff8082111561248657600080fd5b818b0191508b601f83011261249a57600080fd5b8151818111156124ac576124ac6123c7565b6124ba868260051b01612406565b818152868101925060079190911b83018601908d8211156124da57600080fd5b928601925b8184101561252c5784848f0312156124f75760008081fd5b6124ff6123dd565b845181528785015188820152604080860151908201528685015187820152835292840192918601916124df565b809750505050505050509295509295909350565b600060001982141561255457612554612353565b5060010190565b602081526000825180602084015261257a8160408501602087016122ce565b601f01601f19169190910160400192915050565b634e487b7160e01b600052605160045260246000fdfe4f776e61626c653a2063616c6c6572206973206e6f7420746865206f776e6572a2646970667358221220448c00a2ae2267d374dbb6678e9f3d61f82440817ff84c55d0c0374e7768f31064736f6c634300080c0033",
  "devdoc": {
    "author": "Radiant Devs",
    "details": "All function calls are currently implemented without side effects",
    "kind": "dev",
    "methods": {
      "addAddressToWL(address,bool)": {
        "params": {
          "status": "for whitelist",
          "user": "address"
        }
      },
      "changeWL(bool)": {
        "params": {
          "status": "New whitelist status"
        }
      },
      "claim(address,uint256)": {
        "params": {
          "_actionType": "which of the 3 bounty types (above) to run.",
          "_user": "address can be a fixed amt (Base Bounty) or dynamic amt based on rewards removed from target user during execution (ineligible revenue, autocompound fee)"
        },
        "returns": {
          "_0": "bounty in RDNT to be paid to Hunter (via vesting)",
          "_1": "actionType which bounty ran"
        }
      },
      "executeBounty(address,bool,uint256)": {
        "params": {
          "_actionType": "which of the 3 bounty types (above) to run.",
          "_execute": "whether to execute this txn, or just quote what its execution would return can be a fixed amt (Base Bounty) or dynamic amt based on rewards removed from target user during execution (ineligible revenue, autocompound fee)",
          "_user": "address"
        },
        "returns": {
          "actionType": "which bounty ran",
          "bounty": "in RDNT to be paid to Hunter (via vesting)"
        }
      },
      "getBaseBounty()": {
        "returns": {
          "bounty": "in RDNT"
        }
      },
      "initialize(address,address,address,address,address,address,address,uint256,uint256,uint256,uint256)": {
        "params": {
          "_baseBountyUsdTarget": "Base Bounty is paid in RDNT, will scale to match this USD target value",
          "_bountyBooster": "when bounties need boosting to clear queue, add this amount (in RDNT)",
          "_chef": "CIC, to query bounties for ineligible emissions",
          "_hunterShare": "% of reclaimed rewards to send to Hunter",
          "_maxBaseBounty": "cap the scaling above",
          "_mfd": "MFD, to send bounties as vesting RDNT to Hunter (user calling bounty)",
          "_priceProvider": "PriceProvider service, to get RDNT price for bounty quotes",
          "_rdnt": "RDNT address",
          "_weth": "WETH address"
        }
      },
      "paused()": {
        "details": "Returns true if the contract is paused, and false otherwise."
      },
      "quote(address)": {
        "params": {
          "_user": "address"
        },
        "returns": {
          "actionType": "which of the 3 bounty types (above) to run. getBestBounty returns this based on priority (expired locks first, then inelig emissions, then autocompound)",
          "bounty": "amount of RDNT Hunter will recieve. can be a fixed amt (Base Bounty) or dynamic amt based on rewards removed from target user during execution (ineligible revenue, autocompound fee)"
        }
      },
      "recoverERC20(address,uint256)": {
        "params": {
          "tokenAddress": "Token address to recover",
          "tokenAmount": "Amount to recover"
        }
      },
      "setBaseBountyUsdTarget(uint256)": {
        "details": "Only owner can call this function.",
        "params": {
          "_newVal": "New USD value"
        }
      },
      "setBounties()": {
        "details": "Only owner can call this function."
      },
      "setBountyBooster(uint256)": {
        "details": "Only owner can call this function.",
        "params": {
          "_newVal": "New bounty booster"
        }
      },
      "setHunterShare(uint256)": {
        "details": "Only owner can call this function.",
        "params": {
          "_newVal": "New hunter share ratio"
        }
      },
      "setMaxBaseBounty(uint256)": {
        "details": "Only owner can call this function.",
        "params": {
          "_newVal": "Maximum base bounty"
        }
      },
      "setMinStakeAmount(uint256)": {
        "details": "Only owner can call this function.",
        "params": {
          "_minStakeAmount": "Minimum stake amount"
        }
      },
      "setSlippageLimit(uint256)": {
        "details": "Only owner can call this function.",
        "params": {
          "_newVal": "New slippage limit"
        }
      }
    },
    "title": "BountyManager Contract",
    "version": 1
  },
  "userdoc": {
    "kind": "user",
    "methods": {
      "addAddressToWL(address,bool)": {
        "notice": "Add new address to whitelist."
      },
      "changeWL(bool)": {
        "notice": "Update whitelist active status."
      },
      "claim(address,uint256)": {
        "notice": "Execute a bounty."
      },
      "executeBounty(address,bool,uint256)": {
        "notice": "Execute the most appropriate bounty on a user, check returned amount for slippage, calc amount going to Hunter, send to vesting."
      },
      "getBaseBounty()": {
        "notice": "Return RDNT amount for Base Bounty. Base Bounty used to incentivize operations that dont generate their own reward to pay to Hunter."
      },
      "initialize(address,address,address,address,address,address,address,uint256,uint256,uint256,uint256)": {
        "notice": "Initialize"
      },
      "minDLPBalance()": {
        "notice": "Minimum locked lp balance"
      },
      "pause()": {
        "notice": "Pause the bounty operations."
      },
      "quote(address)": {
        "notice": "Given a user, return their bounty amount. uses staticcall to run same bounty aglo, but without execution"
      },
      "recoverERC20(address,uint256)": {
        "notice": "Recover ERC20 tokens from the contract."
      },
      "setBaseBountyUsdTarget(uint256)": {
        "notice": "Sets target price of base bounty."
      },
      "setBounties()": {
        "notice": "Set bounty operations."
      },
      "setBountyBooster(uint256)": {
        "notice": "Updates bounty booster."
      },
      "setHunterShare(uint256)": {
        "notice": "Sets hunter's share ratio."
      },
      "setMaxBaseBounty(uint256)": {
        "notice": "Updates maximum base bounty."
      },
      "setMinStakeAmount(uint256)": {
        "notice": "Sets minimum stake amount."
      },
      "setSlippageLimit(uint256)": {
        "notice": "Updates slippage limit."
      },
      "unpause()": {
        "notice": "Unpause the bounty operations."
      }
    },
    "version": 1
  },
  "storageLayout": {
    "storage": [
      {
        "astId": 10936,
        "contract": "contracts/radiant/eligibility/BountyManager.sol:BountyManager",
        "label": "initialized",
        "offset": 0,
        "slot": "0",
        "type": "t_bool"
      },
      {
        "astId": 10939,
        "contract": "contracts/radiant/eligibility/BountyManager.sol:BountyManager",
        "label": "initializing",
        "offset": 1,
        "slot": "0",
        "type": "t_bool"
      },
      {
        "astId": 11006,
        "contract": "contracts/radiant/eligibility/BountyManager.sol:BountyManager",
        "label": "______gap",
        "offset": 0,
        "slot": "1",
        "type": "t_array(t_uint256)50_storage"
      },
      {
        "astId": 10929,
        "contract": "contracts/radiant/eligibility/BountyManager.sol:BountyManager",
        "label": "__gap",
        "offset": 0,
        "slot": "51",
        "type": "t_array(t_uint256)50_storage"
      },
      {
        "astId": 11151,
        "contract": "contracts/radiant/eligibility/BountyManager.sol:BountyManager",
        "label": "_owner",
        "offset": 0,
        "slot": "101",
        "type": "t_address"
      },
      {
        "astId": 11256,
        "contract": "contracts/radiant/eligibility/BountyManager.sol:BountyManager",
        "label": "__gap",
        "offset": 0,
        "slot": "102",
        "type": "t_array(t_uint256)49_storage"
      },
      {
        "astId": 11278,
        "contract": "contracts/radiant/eligibility/BountyManager.sol:BountyManager",
        "label": "_paused",
        "offset": 0,
        "slot": "151",
        "type": "t_bool"
      },
      {
        "astId": 11383,
        "contract": "contracts/radiant/eligibility/BountyManager.sol:BountyManager",
        "label": "__gap",
        "offset": 0,
        "slot": "152",
        "type": "t_array(t_uint256)49_storage"
      },
      {
        "astId": 39937,
        "contract": "contracts/radiant/eligibility/BountyManager.sol:BountyManager",
        "label": "rdnt",
        "offset": 0,
        "slot": "201",
        "type": "t_address"
      },
      {
        "astId": 39939,
        "contract": "contracts/radiant/eligibility/BountyManager.sol:BountyManager",
        "label": "weth",
        "offset": 0,
        "slot": "202",
        "type": "t_address"
      },
      {
        "astId": 39941,
        "contract": "contracts/radiant/eligibility/BountyManager.sol:BountyManager",
        "label": "mfd",
        "offset": 0,
        "slot": "203",
        "type": "t_address"
      },
      {
        "astId": 39943,
        "contract": "contracts/radiant/eligibility/BountyManager.sol:BountyManager",
        "label": "chef",
        "offset": 0,
        "slot": "204",
        "type": "t_address"
      },
      {
        "astId": 39945,
        "contract": "contracts/radiant/eligibility/BountyManager.sol:BountyManager",
        "label": "priceProvider",
        "offset": 0,
        "slot": "205",
        "type": "t_address"
      },
      {
        "astId": 39947,
        "contract": "contracts/radiant/eligibility/BountyManager.sol:BountyManager",
        "label": "eligibilityDataProvider",
        "offset": 0,
        "slot": "206",
        "type": "t_address"
      },
      {
        "astId": 39949,
        "contract": "contracts/radiant/eligibility/BountyManager.sol:BountyManager",
        "label": "compounder",
        "offset": 0,
        "slot": "207",
        "type": "t_address"
      },
      {
        "astId": 39951,
        "contract": "contracts/radiant/eligibility/BountyManager.sol:BountyManager",
        "label": "hunterShare",
        "offset": 0,
        "slot": "208",
        "type": "t_uint256"
      },
      {
        "astId": 39953,
        "contract": "contracts/radiant/eligibility/BountyManager.sol:BountyManager",
        "label": "baseBountyUsdTarget",
        "offset": 0,
        "slot": "209",
        "type": "t_uint256"
      },
      {
        "astId": 39955,
        "contract": "contracts/radiant/eligibility/BountyManager.sol:BountyManager",
        "label": "maxBaseBounty",
        "offset": 0,
        "slot": "210",
        "type": "t_uint256"
      },
      {
        "astId": 39957,
        "contract": "contracts/radiant/eligibility/BountyManager.sol:BountyManager",
        "label": "bountyBooster",
        "offset": 0,
        "slot": "211",
        "type": "t_uint256"
      },
      {
        "astId": 39959,
        "contract": "contracts/radiant/eligibility/BountyManager.sol:BountyManager",
        "label": "bountyCount",
        "offset": 0,
        "slot": "212",
        "type": "t_uint256"
      },
      {
        "astId": 39961,
        "contract": "contracts/radiant/eligibility/BountyManager.sol:BountyManager",
        "label": "minStakeAmount",
        "offset": 0,
        "slot": "213",
        "type": "t_uint256"
      },
      {
        "astId": 39963,
        "contract": "contracts/radiant/eligibility/BountyManager.sol:BountyManager",
        "label": "slippageLimit",
        "offset": 0,
        "slot": "214",
        "type": "t_uint256"
      },
      {
        "astId": 39979,
        "contract": "contracts/radiant/eligibility/BountyManager.sol:BountyManager",
        "label": "bounties",
        "offset": 0,
        "slot": "215",
        "type": "t_mapping(t_uint256,t_function_internal_nonpayable(t_address,t_bool)returns(t_address,t_uint256,t_bool))"
      },
      {
        "astId": 39983,
        "contract": "contracts/radiant/eligibility/BountyManager.sol:BountyManager",
        "label": "whitelist",
        "offset": 0,
        "slot": "216",
        "type": "t_mapping(t_address,t_bool)"
      },
      {
        "astId": 39985,
        "contract": "contracts/radiant/eligibility/BountyManager.sol:BountyManager",
        "label": "whitelistActive",
        "offset": 0,
        "slot": "217",
        "type": "t_bool"
      }
    ],
    "types": {
      "t_address": {
        "encoding": "inplace",
        "label": "address",
        "numberOfBytes": "20"
      },
      "t_array(t_uint256)49_storage": {
        "base": "t_uint256",
        "encoding": "inplace",
        "label": "uint256[49]",
        "numberOfBytes": "1568"
      },
      "t_array(t_uint256)50_storage": {
        "base": "t_uint256",
        "encoding": "inplace",
        "label": "uint256[50]",
        "numberOfBytes": "1600"
      },
      "t_bool": {
        "encoding": "inplace",
        "label": "bool",
        "numberOfBytes": "1"
      },
      "t_function_internal_nonpayable(t_address,t_bool)returns(t_address,t_uint256,t_bool)": {
        "encoding": "inplace",
        "label": "function (address,bool) returns (address,uint256,bool)",
        "numberOfBytes": "8"
      },
      "t_mapping(t_address,t_bool)": {
        "encoding": "mapping",
        "key": "t_address",
        "label": "mapping(address => bool)",
        "numberOfBytes": "32",
        "value": "t_bool"
      },
      "t_mapping(t_uint256,t_function_internal_nonpayable(t_address,t_bool)returns(t_address,t_uint256,t_bool))": {
        "encoding": "mapping",
        "key": "t_uint256",
        "label": "mapping(uint256 => function (address,bool) returns (address,uint256,bool))",
        "numberOfBytes": "32",
        "value": "t_function_internal_nonpayable(t_address,t_bool)returns(t_address,t_uint256,t_bool)"
      },
      "t_uint256": {
        "encoding": "inplace",
        "label": "uint256",
        "numberOfBytes": "32"
      }
    }
  }
}