{
  "address": "0xB8b81b88Ee73a32A3D507518ecDC5Fe5D98C7E4C",
  "abi": [
    {
      "inputs": [],
      "name": "AddressZero",
      "type": "error"
    },
    {
      "inputs": [],
      "name": "AlreadyStarted",
      "type": "error"
    },
    {
      "inputs": [],
      "name": "ArrayLengthMismatch",
      "type": "error"
    },
    {
      "inputs": [],
      "name": "BountyOnly",
      "type": "error"
    },
    {
      "inputs": [],
      "name": "CadenceTooLong",
      "type": "error"
    },
    {
      "inputs": [],
      "name": "ExceedsMaxInt",
      "type": "error"
    },
    {
      "inputs": [],
      "name": "InsufficientPermission",
      "type": "error"
    },
    {
      "inputs": [],
      "name": "InvalidRToken",
      "type": "error"
    },
    {
      "inputs": [],
      "name": "InvalidStart",
      "type": "error"
    },
    {
      "inputs": [],
      "name": "NotAllowed",
      "type": "error"
    },
    {
      "inputs": [],
      "name": "NotAscending",
      "type": "error"
    },
    {
      "inputs": [],
      "name": "NotEligible",
      "type": "error"
    },
    {
      "inputs": [],
      "name": "NotMFD",
      "type": "error"
    },
    {
      "inputs": [],
      "name": "NotRTokenOrMfd",
      "type": "error"
    },
    {
      "inputs": [],
      "name": "PoolExists",
      "type": "error"
    },
    {
      "inputs": [],
      "name": "UnknownPool",
      "type": "error"
    },
    {
      "inputs": [],
      "name": "UserStillEligible",
      "type": "error"
    },
    {
      "anonymous": false,
      "inputs": [
        {
          "indexed": true,
          "internalType": "address",
          "name": "token",
          "type": "address"
        },
        {
          "indexed": true,
          "internalType": "address",
          "name": "user",
          "type": "address"
        },
        {
          "indexed": false,
          "internalType": "uint256",
          "name": "balance",
          "type": "uint256"
        },
        {
          "indexed": false,
          "internalType": "uint256",
          "name": "totalSupply",
          "type": "uint256"
        }
      ],
      "name": "BalanceUpdated",
      "type": "event"
    },
    {
      "anonymous": false,
      "inputs": [
        {
          "indexed": true,
          "internalType": "uint256",
          "name": "_balance",
          "type": "uint256"
        }
      ],
      "name": "ChefReserveEmpty",
      "type": "event"
    },
    {
      "anonymous": false,
      "inputs": [
        {
          "indexed": true,
          "internalType": "uint256",
          "name": "_balance",
          "type": "uint256"
        }
      ],
      "name": "ChefReserveLow",
      "type": "event"
    },
    {
      "anonymous": false,
      "inputs": [
        {
          "indexed": true,
          "internalType": "address",
          "name": "user",
          "type": "address"
        }
      ],
      "name": "Disqualified",
      "type": "event"
    },
    {
      "anonymous": false,
      "inputs": [
        {
          "indexed": false,
          "internalType": "uint256[]",
          "name": "startTimeOffsets",
          "type": "uint256[]"
        },
        {
          "indexed": false,
          "internalType": "uint256[]",
          "name": "rewardsPerSeconds",
          "type": "uint256[]"
        }
      ],
      "name": "EmissionScheduleAppended",
      "type": "event"
    },
    {
      "anonymous": false,
      "inputs": [
        {
          "indexed": false,
          "internalType": "uint8",
          "name": "version",
          "type": "uint8"
        }
      ],
      "name": "Initialized",
      "type": "event"
    },
    {
      "anonymous": false,
      "inputs": [
        {
          "indexed": true,
          "internalType": "address",
          "name": "previousOwner",
          "type": "address"
        },
        {
          "indexed": true,
          "internalType": "address",
          "name": "newOwner",
          "type": "address"
        }
      ],
      "name": "OwnershipTransferred",
      "type": "event"
    },
    {
      "anonymous": false,
      "inputs": [
        {
          "indexed": false,
          "internalType": "address",
          "name": "account",
          "type": "address"
        }
      ],
      "name": "Paused",
      "type": "event"
    },
    {
      "anonymous": false,
      "inputs": [
        {
          "indexed": true,
          "internalType": "uint256",
          "name": "rewardsPerSecond",
          "type": "uint256"
        },
        {
          "indexed": false,
          "internalType": "bool",
          "name": "persist",
          "type": "bool"
        }
      ],
      "name": "RewardsPerSecondUpdated",
      "type": "event"
    },
    {
      "anonymous": false,
      "inputs": [
        {
          "indexed": false,
          "internalType": "address",
          "name": "account",
          "type": "address"
        }
      ],
      "name": "Unpaused",
      "type": "event"
    },
    {
      "inputs": [],
      "name": "accountedRewards",
      "outputs": [
        {
          "internalType": "uint256",
          "name": "",
          "type": "uint256"
        }
      ],
      "stateMutability": "view",
      "type": "function"
    },
    {
      "inputs": [
        {
          "internalType": "address",
          "name": "_token",
          "type": "address"
        },
        {
          "internalType": "uint256",
          "name": "_allocPoint",
          "type": "uint256"
        }
      ],
      "name": "addPool",
      "outputs": [],
      "stateMutability": "nonpayable",
      "type": "function"
    },
    {
      "inputs": [
        {
          "internalType": "address",
          "name": "_user",
          "type": "address"
        }
      ],
      "name": "afterLockUpdate",
      "outputs": [],
      "stateMutability": "nonpayable",
      "type": "function"
    },
    {
      "inputs": [
        {
          "internalType": "address",
          "name": "_user",
          "type": "address"
        }
      ],
      "name": "allPendingRewards",
      "outputs": [
        {
          "internalType": "uint256",
          "name": "pending",
          "type": "uint256"
        }
      ],
      "stateMutability": "view",
      "type": "function"
    },
    {
      "inputs": [
        {
          "internalType": "address[]",
          "name": "_tokens",
          "type": "address[]"
        },
        {
          "internalType": "uint256[]",
          "name": "_allocPoints",
          "type": "uint256[]"
        }
      ],
      "name": "batchUpdateAllocPoint",
      "outputs": [],
      "stateMutability": "nonpayable",
      "type": "function"
    },
    {
      "inputs": [
        {
          "internalType": "address",
          "name": "_user",
          "type": "address"
        }
      ],
      "name": "beforeLockUpdate",
      "outputs": [],
      "stateMutability": "nonpayable",
      "type": "function"
    },
    {
      "inputs": [],
      "name": "bountyManager",
      "outputs": [
        {
          "internalType": "address",
          "name": "",
          "type": "address"
        }
      ],
      "stateMutability": "view",
      "type": "function"
    },
    {
      "inputs": [
        {
          "internalType": "address",
          "name": "_user",
          "type": "address"
        },
        {
          "internalType": "address[]",
          "name": "_tokens",
          "type": "address[]"
        }
      ],
      "name": "claim",
      "outputs": [],
      "stateMutability": "nonpayable",
      "type": "function"
    },
    {
      "inputs": [
        {
          "internalType": "address",
          "name": "_user",
          "type": "address"
        }
      ],
      "name": "claimAll",
      "outputs": [],
      "stateMutability": "nonpayable",
      "type": "function"
    },
    {
      "inputs": [
        {
          "internalType": "address",
          "name": "_user",
          "type": "address"
        },
        {
          "internalType": "bool",
          "name": "_execute",
          "type": "bool"
        }
      ],
      "name": "claimBounty",
      "outputs": [
        {
          "internalType": "bool",
          "name": "issueBaseBounty",
          "type": "bool"
        }
      ],
      "stateMutability": "nonpayable",
      "type": "function"
    },
    {
      "inputs": [],
      "name": "depositedRewards",
      "outputs": [
        {
          "internalType": "uint256",
          "name": "",
          "type": "uint256"
        }
      ],
      "stateMutability": "view",
      "type": "function"
    },
    {
      "inputs": [],
      "name": "eligibilityEnabled",
      "outputs": [
        {
          "internalType": "bool",
          "name": "",
          "type": "bool"
        }
      ],
      "stateMutability": "view",
      "type": "function"
    },
    {
      "inputs": [
        {
          "internalType": "address",
          "name": "",
          "type": "address"
        }
      ],
      "name": "eligibilityExempt",
      "outputs": [
        {
          "internalType": "bool",
          "name": "",
          "type": "bool"
        }
      ],
      "stateMutability": "view",
      "type": "function"
    },
    {
      "inputs": [],
      "name": "eligibleDataProvider",
      "outputs": [
        {
          "internalType": "contract IEligibilityDataProvider",
          "name": "",
          "type": "address"
        }
      ],
      "stateMutability": "view",
      "type": "function"
    },
    {
      "inputs": [
        {
          "internalType": "uint256",
          "name": "",
          "type": "uint256"
        }
      ],
      "name": "emissionSchedule",
      "outputs": [
        {
          "internalType": "uint128",
          "name": "startTimeOffset",
          "type": "uint128"
        },
        {
          "internalType": "uint128",
          "name": "rewardsPerSecond",
          "type": "uint128"
        }
      ],
      "stateMutability": "view",
      "type": "function"
    },
    {
      "inputs": [],
      "name": "emissionScheduleIndex",
      "outputs": [
        {
          "internalType": "uint256",
          "name": "",
          "type": "uint256"
        }
      ],
      "stateMutability": "view",
      "type": "function"
    },
    {
      "inputs": [],
      "name": "endRewardTime",
      "outputs": [
        {
          "internalType": "uint256",
          "name": "",
          "type": "uint256"
        }
      ],
      "stateMutability": "nonpayable",
      "type": "function"
    },
    {
      "inputs": [],
      "name": "endingTime",
      "outputs": [
        {
          "internalType": "uint256",
          "name": "estimatedTime",
          "type": "uint256"
        },
        {
          "internalType": "uint256",
          "name": "lastUpdatedTime",
          "type": "uint256"
        },
        {
          "internalType": "uint256",
          "name": "updateCadence",
          "type": "uint256"
        }
      ],
      "stateMutability": "view",
      "type": "function"
    },
    {
      "inputs": [
        {
          "internalType": "address",
          "name": "_user",
          "type": "address"
        },
        {
          "internalType": "uint256",
          "name": "_balance",
          "type": "uint256"
        },
        {
          "internalType": "uint256",
          "name": "_totalSupply",
          "type": "uint256"
        }
      ],
      "name": "handleActionAfter",
      "outputs": [],
      "stateMutability": "nonpayable",
      "type": "function"
    },
    {
      "inputs": [
        {
          "internalType": "address",
          "name": "_user",
          "type": "address"
        }
      ],
      "name": "handleActionBefore",
      "outputs": [],
      "stateMutability": "nonpayable",
      "type": "function"
    },
    {
      "inputs": [
        {
          "internalType": "address",
          "name": "_poolConfigurator",
          "type": "address"
        },
        {
          "internalType": "contract IEligibilityDataProvider",
          "name": "_eligibleDataProvider",
          "type": "address"
        },
        {
          "internalType": "contract IMiddleFeeDistribution",
          "name": "_rewardMinter",
          "type": "address"
        },
        {
          "internalType": "uint256",
          "name": "_rewardsPerSecond",
          "type": "uint256"
        }
      ],
      "name": "initialize",
      "outputs": [],
      "stateMutability": "nonpayable",
      "type": "function"
    },
    {
      "inputs": [],
      "name": "lastAllPoolUpdate",
      "outputs": [
        {
          "internalType": "uint256",
          "name": "",
          "type": "uint256"
        }
      ],
      "stateMutability": "view",
      "type": "function"
    },
    {
      "inputs": [],
      "name": "lastRPS",
      "outputs": [
        {
          "internalType": "uint256",
          "name": "",
          "type": "uint256"
        }
      ],
      "stateMutability": "view",
      "type": "function"
    },
    {
      "inputs": [],
      "name": "leverager",
      "outputs": [
        {
          "internalType": "contract ILeverager",
          "name": "",
          "type": "address"
        }
      ],
      "stateMutability": "view",
      "type": "function"
    },
    {
      "inputs": [],
      "name": "owner",
      "outputs": [
        {
          "internalType": "address",
          "name": "",
          "type": "address"
        }
      ],
      "stateMutability": "view",
      "type": "function"
    },
    {
      "inputs": [],
      "name": "pause",
      "outputs": [],
      "stateMutability": "nonpayable",
      "type": "function"
    },
    {
      "inputs": [],
      "name": "paused",
      "outputs": [
        {
          "internalType": "bool",
          "name": "",
          "type": "bool"
        }
      ],
      "stateMutability": "view",
      "type": "function"
    },
    {
      "inputs": [
        {
          "internalType": "address",
          "name": "_user",
          "type": "address"
        },
        {
          "internalType": "address[]",
          "name": "_tokens",
          "type": "address[]"
        }
      ],
      "name": "pendingRewards",
      "outputs": [
        {
          "internalType": "uint256[]",
          "name": "",
          "type": "uint256[]"
        }
      ],
      "stateMutability": "view",
      "type": "function"
    },
    {
      "inputs": [],
      "name": "persistRewardsPerSecond",
      "outputs": [
        {
          "internalType": "bool",
          "name": "",
          "type": "bool"
        }
      ],
      "stateMutability": "view",
      "type": "function"
    },
    {
      "inputs": [],
      "name": "poolConfigurator",
      "outputs": [
        {
          "internalType": "address",
          "name": "",
          "type": "address"
        }
      ],
      "stateMutability": "view",
      "type": "function"
    },
    {
      "inputs": [
        {
          "internalType": "address",
          "name": "",
          "type": "address"
        }
      ],
      "name": "poolInfo",
      "outputs": [
        {
          "internalType": "uint256",
          "name": "totalSupply",
          "type": "uint256"
        },
        {
          "internalType": "uint256",
          "name": "allocPoint",
          "type": "uint256"
        },
        {
          "internalType": "uint256",
          "name": "lastRewardTime",
          "type": "uint256"
        },
        {
          "internalType": "uint256",
          "name": "accRewardPerShare",
          "type": "uint256"
        },
        {
          "internalType": "contract IOnwardIncentivesController",
          "name": "onwardIncentives",
          "type": "address"
        }
      ],
      "stateMutability": "view",
      "type": "function"
    },
    {
      "inputs": [],
      "name": "poolLength",
      "outputs": [
        {
          "internalType": "uint256",
          "name": "",
          "type": "uint256"
        }
      ],
      "stateMutability": "view",
      "type": "function"
    },
    {
      "inputs": [
        {
          "internalType": "address",
          "name": "tokenAddress",
          "type": "address"
        },
        {
          "internalType": "uint256",
          "name": "tokenAmount",
          "type": "uint256"
        }
      ],
      "name": "recoverERC20",
      "outputs": [],
      "stateMutability": "nonpayable",
      "type": "function"
    },
    {
      "inputs": [
        {
          "internalType": "uint256",
          "name": "_amount",
          "type": "uint256"
        }
      ],
      "name": "registerRewardDeposit",
      "outputs": [],
      "stateMutability": "nonpayable",
      "type": "function"
    },
    {
      "inputs": [
        {
          "internalType": "uint256",
          "name": "",
          "type": "uint256"
        }
      ],
      "name": "registeredTokens",
      "outputs": [
        {
          "internalType": "address",
          "name": "",
          "type": "address"
        }
      ],
      "stateMutability": "view",
      "type": "function"
    },
    {
      "inputs": [],
      "name": "renounceOwnership",
      "outputs": [],
      "stateMutability": "nonpayable",
      "type": "function"
    },
    {
      "inputs": [],
      "name": "rewardMinter",
      "outputs": [
        {
          "internalType": "contract IMiddleFeeDistribution",
          "name": "",
          "type": "address"
        }
      ],
      "stateMutability": "view",
      "type": "function"
    },
    {
      "inputs": [],
      "name": "rewardsPerSecond",
      "outputs": [
        {
          "internalType": "uint256",
          "name": "",
          "type": "uint256"
        }
      ],
      "stateMutability": "view",
      "type": "function"
    },
    {
      "inputs": [
        {
          "internalType": "address",
          "name": "_bountyManager",
          "type": "address"
        }
      ],
      "name": "setBountyManager",
      "outputs": [],
      "stateMutability": "nonpayable",
      "type": "function"
    },
    {
      "inputs": [
        {
          "internalType": "bool",
          "name": "_newVal",
          "type": "bool"
        }
      ],
      "name": "setEligibilityEnabled",
      "outputs": [],
      "stateMutability": "nonpayable",
      "type": "function"
    },
    {
      "inputs": [
        {
          "internalType": "address",
          "name": "_contract",
          "type": "address"
        },
        {
          "internalType": "bool",
          "name": "_value",
          "type": "bool"
        }
      ],
      "name": "setEligibilityExempt",
      "outputs": [],
      "stateMutability": "nonpayable",
      "type": "function"
    },
    {
      "inputs": [
        {
          "internalType": "uint256[]",
          "name": "_startTimeOffsets",
          "type": "uint256[]"
        },
        {
          "internalType": "uint256[]",
          "name": "_rewardsPerSecond",
          "type": "uint256[]"
        }
      ],
      "name": "setEmissionSchedule",
      "outputs": [],
      "stateMutability": "nonpayable",
      "type": "function"
    },
    {
      "inputs": [
        {
          "internalType": "uint256",
          "name": "_lapse",
          "type": "uint256"
        }
      ],
      "name": "setEndingTimeUpdateCadence",
      "outputs": [],
      "stateMutability": "nonpayable",
      "type": "function"
    },
    {
      "inputs": [
        {
          "internalType": "contract ILeverager",
          "name": "_leverager",
          "type": "address"
        }
      ],
      "name": "setLeverager",
      "outputs": [],
      "stateMutability": "nonpayable",
      "type": "function"
    },
    {
      "inputs": [
        {
          "internalType": "address",
          "name": "_token",
          "type": "address"
        },
        {
          "internalType": "contract IOnwardIncentivesController",
          "name": "_incentives",
          "type": "address"
        }
      ],
      "name": "setOnwardIncentives",
      "outputs": [],
      "stateMutability": "nonpayable",
      "type": "function"
    },
    {
      "inputs": [
        {
          "internalType": "uint256",
          "name": "_rewardsPerSecond",
          "type": "uint256"
        },
        {
          "internalType": "bool",
          "name": "_persist",
          "type": "bool"
        }
      ],
      "name": "setRewardsPerSecond",
      "outputs": [],
      "stateMutability": "nonpayable",
      "type": "function"
    },
    {
      "inputs": [],
      "name": "start",
      "outputs": [],
      "stateMutability": "nonpayable",
      "type": "function"
    },
    {
      "inputs": [],
      "name": "startTime",
      "outputs": [
        {
          "internalType": "uint256",
          "name": "",
          "type": "uint256"
        }
      ],
      "stateMutability": "view",
      "type": "function"
    },
    {
      "inputs": [],
      "name": "totalAllocPoint",
      "outputs": [
        {
          "internalType": "uint256",
          "name": "",
          "type": "uint256"
        }
      ],
      "stateMutability": "view",
      "type": "function"
    },
    {
      "inputs": [
        {
          "internalType": "address",
          "name": "newOwner",
          "type": "address"
        }
      ],
      "name": "transferOwnership",
      "outputs": [],
      "stateMutability": "nonpayable",
      "type": "function"
    },
    {
      "inputs": [],
      "name": "unpause",
      "outputs": [],
      "stateMutability": "nonpayable",
      "type": "function"
    },
    {
      "inputs": [
        {
          "internalType": "address",
          "name": "",
          "type": "address"
        }
      ],
      "name": "userBaseClaimable",
      "outputs": [
        {
          "internalType": "uint256",
          "name": "",
          "type": "uint256"
        }
      ],
      "stateMutability": "view",
      "type": "function"
    },
    {
      "inputs": [
        {
          "internalType": "address",
          "name": "",
          "type": "address"
        },
        {
          "internalType": "address",
          "name": "",
          "type": "address"
        }
      ],
      "name": "userInfo",
      "outputs": [
        {
          "internalType": "uint256",
          "name": "amount",
          "type": "uint256"
        },
        {
          "internalType": "uint256",
          "name": "rewardDebt",
          "type": "uint256"
        },
        {
          "internalType": "uint256",
          "name": "lastClaimTime",
          "type": "uint256"
        }
      ],
      "stateMutability": "view",
      "type": "function"
    }
  ],
  "transactionHash": "0x61715c6dcde975e424c270539c358f3796c0b904f22a854880cd076bb6430af7",
  "args": [],
  "numDeployments": 1,
  "solcInputHash": "d20862d9a7051998216c9f1f22667b5c",
  "bytecode": "0x608060405234801561001057600080fd5b506136e9806100206000396000f3fe608060405234801561001057600080fd5b50600436106103575760003560e01c8063800ce1da116101c8578063be9a655511610104578063de7e410c116100a2578063f2fde38b1161007c578063f2fde38b14610773578063f5fe161014610786578063f6d69c2814610799578063ff66a305146107ac57600080fd5b8063de7e410c1461073f578063eacdaabc14610757578063f187186c1461076057600080fd5b8063cd1a4d86116100de578063cd1a4d86146106f3578063cf756fdf14610706578063d055709014610719578063db3e34611461072c57600080fd5b8063be9a6555146106cb578063bfccff45146106d3578063cccd82b01461066f57600080fd5b80639a7b5f1111610171578063b26770f71161014b578063b26770f714610693578063b36b9ffd146106a6578063ba04a111146106b9578063be05d3fb146106c257600080fd5b80639a7b5f11146105f85780639b5a734f1461066f5780639b8e55631461068057600080fd5b80638da5cb5b116101a25780638da5cb5b146105c15780638e2eba09146105d25780639a0ba2ea146105e557600080fd5b8063800ce1da146105995780638456cb59146105a65780638980f11f146105ae57600080fd5b80633df8161c116102975780636c47a6c31161024057806377329f351161021a57806377329f3514610561578063779f61691461057457806378e979251461057d5780637ab8955d1461058657600080fd5b80636c47a6c31461053e5780636d4f675c14610550578063715018a61461055957600080fd5b80635d8e5d49116102715780635d8e5d49146104ed5780635ea3f4fa146105005780635fe4f7411461051357600080fd5b80633df8161c146104ba5780633f4ba83a146104da5780635c975abb146104e257600080fd5b80631b2064f71161030457806332a9caba116102de57806332a9caba1461044e578063334d0bbd1461046157806334c54230146104945780633adcdfc8146104a757600080fd5b80631b2064f7146104195780631d94f24d1461042657806325dc43871461043b57600080fd5b80630c634248116103355780630c634248146103b25780630f208beb146103bb57806317caf6f11461041057600080fd5b806302a247701461035c5780630702a95d14610377578063081e3eda146103aa575b600080fd5b6103646107bf565b6040519081526020015b60405180910390f35b61039a61038536600461312d565b60a26020526000908152604090205460ff1681565b604051901515815260200161036e565b609954610364565b610364609c5481565b6103f56103c936600461314a565b60a060209081526000928352604080842090915290825290208054600182015460029092015490919083565b6040805193845260208401929092529082015260600161036e565b610364609f5481565b60985461039a9060ff1681565b610439610434366004613183565b6108d6565b005b6104396104493660046131c6565b610a61565b61043961045c3660046131eb565b610ac0565b61047461046f366004613217565b610bff565b604080516001600160801b0393841681529290911660208301520161036e565b6104396104a236600461327c565b610c34565b6104396104b536600461312d565b610d63565b6104cd6104c83660046132fe565b610ff3565b60405161036e91906133d8565b610439611198565b60335460ff1661039a565b6104396104fb36600461341c565b6111aa565b61036461050e36600461312d565b611232565b60a954610526906001600160a01b031681565b6040516001600160a01b03909116815260200161036e565b60ac5460ad5460ae546103f592919083565b61036460a55481565b610439611301565b61043961056f36600461312d565b611313565b61036460a75481565b61036460a35481565b61039a61059436600461341c565b611377565b60a45461039a9060ff1681565b6104396113d1565b6104396105bc3660046131eb565b6113e1565b6065546001600160a01b0316610526565b6104396105e03660046132fe565b61140f565b6105266105f3366004613217565b6116bc565b61063e61060636600461312d565b609d6020526000908152604090208054600182015460028301546003840154600490940154929391929091906001600160a01b031685565b6040805195865260208601949094529284019190915260608301526001600160a01b0316608082015260a00161036e565b61043961067d36600461312d565b50565b60a854610526906001600160a01b031681565b6104396106a1366004613217565b6116e6565b60ab54610526906001600160a01b031681565b610364609b5481565b61036460a65481565b610439611730565b6103646106e136600461312d565b60a16020526000908152604090205481565b61043961070136600461314a565b611778565b61043961071436600461344a565b6117de565b610439610727366004613217565b611a03565b60aa54610526906001600160a01b031681565b60a4546105269061010090046001600160a01b031681565b610364609a5481565b61043961076e36600461312d565b611a43565b61043961078136600461312d565b611a6d565b61043961079436600461349b565b611afa565b6104396107a736600461327c565b611b15565b6104396107ba36600461312d565b611d86565b60008060a65460a5546107d291906134ce565b90506000806107e060995490565b905060005b8181101561088c576000609d600060998481548110610806576108066134e5565b60009182526020808320909101546001600160a01b03168352820192909252604001902060a7546002820154919250101561088357609f54609a54826001015460a754846002015461085891906134ce565b61086291906134fb565b61086c91906134fb565b610876919061351a565b610880908561353c565b93505b506001016107e5565b504260ad55609a546108a35760001960ac556108cb565b60a754609a546108b3848661353c565b6108bd919061351a565b6108c7919061353c565b60ac555b505060ac5492915050565b336000908152609e602052604090205460ff1615801561090f57506108f9611db0565b6001600160a01b0316336001600160a01b031614155b15610946576040517f2c36303b00000000000000000000000000000000000000000000000000000000815260040160405180910390fd5b60a8546001600160a01b038481169116148061097a5750610965611db0565b6001600160a01b0316836001600160a01b0316145b8061099d57506001600160a01b038316600090815260a2602052604090205460ff165b156109a757505050565b60a45460ff1615610a505760a954604051630afb040960e01b81526001600160a01b0385811660048301526000921690630afb0409906024016020604051808303816000875af11580156109ff573d6000803e3d6000fd5b505050506040513d601f19601f82011682018060405250810190610a239190613554565b90508015610a3c57610a3733858585611e2a565b610a4a565b610a4884826001612046565b505b50505050565b610a5c33848484611e2a565b505050565b610a6961215b565b610a716121b5565b609a8290556098805460ff191682151590811790915560405190815282907f91bb2acfac3265da2e9b45e815cdcb50f9b349454c54e812590ecb5d109ae8dc9060200160405180910390a25050565b60a45461010090046001600160a01b03163314610b09576040517f3d693ada00000000000000000000000000000000000000000000000000000000815260040160405180910390fd5b6001600160a01b0382166000908152609d602052604090206002015415610b5c576040517ff48e3c2600000000000000000000000000000000000000000000000000000000815260040160405180910390fd5b610b6461222d565b609f54610b719082612259565b609f556099805460018181019092557f72a152ddfb8e864297c917af52ea6c1c68aead0fee1a62673fcc7e0c94979d000180546001600160a01b039094166001600160a01b031994851681179091556000908152609d602090815260408083208085019590955542600286015560049094018054909516909455609e9093529120805460ff19169091179055565b60978181548110610c0f57600080fd5b6000918252602090912001546001600160801b038082169250600160801b9091041682565b610c3c61215b565b828114610c5c5760405163512509d360e11b815260040160405180910390fd5b610c646121b5565b609f548360005b81811015610d58576000609d6000898985818110610c8b57610c8b6134e5565b9050602002016020810190610ca0919061312d565b6001600160a01b03166001600160a01b031681526020019081526020016000209050806002015460001415610ce85760405163f7139e3360e01b815260040160405180910390fd5b610d21868684818110610cfd57610cfd6134e5565b90506020020135610d1b83600101548761226590919063ffffffff16565b90612259565b9350858583818110610d3557610d356134e5565b905060200201358160010181905550508080610d5090613571565b915050610c6b565b5050609f5550505050565b610d6b611db0565b6001600160a01b0316336001600160a01b031614610db5576040517ff3320bfe00000000000000000000000000000000000000000000000000000000815260040160405180910390fd5b60a45460ff161561067d5760a954604051630afb040960e01b81526001600160a01b0383811660048301526000921690630afb0409906024016020604051808303816000875af1158015610e0d573d6000803e3d6000fd5b505050506040513d601f19601f82011682018060405250810190610e319190613554565b90508015610fe3576000610e4460995490565b905060005b81811015610a4a57600060998281548110610e6657610e666134e5565b6000918252602090912001546040516370a0823160e01b81526001600160a01b038781166004830152909116906370a0823190602401602060405180830381865afa158015610eb9573d6000803e3d6000fd5b505050506040513d601f19601f82011682018060405250810190610edd919061358c565b9050600060a0600060998581548110610ef857610ef86134e5565b60009182526020808320909101546001600160a01b0390811684528382019490945260409283018220938a1682529290925290205490508115801590610f3e5750808214155b15610fce57610fce60998481548110610f5957610f596134e5565b9060005260206000200160009054906101000a90046001600160a01b03168784610fc985610fc388609d600060998d81548110610f9857610f986134e5565b60009182526020808320909101546001600160a01b0316835282019290925260400190205490612259565b90612265565b611e2a565b50508080610fdb90613571565b915050610e49565b610a5c82826001612046565b5050565b60606000825167ffffffffffffffff811115611011576110116132e8565b60405190808252806020026020018201604052801561103a578160200160208202803683370190505b50835190915060005b8181101561118c57600085828151811061105f5761105f6134e5565b6020908102919091018101516001600160a01b038082166000908152609d8452604080822060a08652818320938d16835292909452929092206003830154835460028501549395509192909190421180156110b957508015155b1561112e5760006110d785600201544261226590919063ffffffff16565b9050600061110a609f5461110488600101546110fe609a548761227190919063ffffffff16565b90612271565b9061227d565b9050611129611122846111048464e8d4a51000612271565b8590612259565b935050505b6111568360010154610fc364e8d4a5100061110486886000015461227190919063ffffffff16565b888781518110611168576111686134e5565b6020026020010181815250505050505050808061118490613571565b915050611043565b50909150505b92915050565b6111a061215b565b6111a8612289565b565b6065546001600160a01b031633148015906111d0575060aa546001600160a01b03163314155b15611207576040517fdeda903000000000000000000000000000000000000000000000000000000000815260040160405180910390fd5b6001600160a01b0391909116600090815260a260205260409020805460ff1916911515919091179055565b6001600160a01b038116600090815260a16020908152604080832054609980548351818602810186019094528084529194936112b09387939092918301828280156112a657602002820191906000526020600020905b81546001600160a01b03168152600190910190602001808311611288575b5050505050610ff3565b805190915060005b818110156112f9578281815181106112d2576112d26134e5565b6020026020010151846112e5919061353c565b9350806112f181613571565b9150506112b8565b505050919050565b61130961215b565b6111a860006122db565b61067d81609980548060200260200160405190810160405280929190818152602001828054801561136d57602002820191906000526020600020905b81546001600160a01b0316815260019091019060200180831161134f575b505050505061140f565b60ab546000906001600160a01b031633146113be576040517fa2c4874500000000000000000000000000000000000000000000000000000000815260040160405180910390fd5b6113ca8383600161232d565b9392505050565b6113d961215b565b6111a8612454565b6113e961215b565b610fef6113fe6065546001600160a01b031690565b6001600160a01b0384169083612491565b611417612511565b60a45460ff16156114305761142e8260018061232d565b505b61143861222d565b6001600160a01b038216600090815260a160205260408120805490829055609f54835191929091905b8181101561162457609e600086838151811061147f5761147f6134e5565b6020908102919091018101516001600160a01b031682528101919091526040016000205460ff166114dc576040517fef7120cd00000000000000000000000000000000000000000000000000000000815260040160405180910390fd5b6000609d60008784815181106114f4576114f46134e5565b60200260200101516001600160a01b03166001600160a01b0316815260200190815260200160002090508060020154600014156115445760405163f7139e3360e01b815260040160405180910390fd5b61154e8185612564565b600060a06000888581518110611566576115666134e5565b60200260200101516001600160a01b03166001600160a01b031681526020019081526020016000206000896001600160a01b03166001600160a01b03168152602001908152602001600020905060006115d964e8d4a510006111048560030154856000015461227190919063ffffffff16565b90506115fc6115f583600101548361226590919063ffffffff16565b8890612259565b600183019190915542600290920191909155945081905061161c81613571565b915050611461565b5061162f8584612656565b60a960009054906101000a90046001600160a01b03166001600160a01b031663673a7e286040518163ffffffff1660e01b8152600401600060405180830381600087803b15801561167f57600080fd5b505af1158015611693573d6000803e3d6000fd5b5050505042620697806116a6919061353c565b6116ae6107bf565b1015610a4857610a486126f9565b609981815481106116cc57600080fd5b6000918252602090912001546001600160a01b0316905081565b6116ee61215b565b62093a8081111561172b576040517f5113ff5000000000000000000000000000000000000000000000000000000000815260040160405180910390fd5b60ae55565b61173861215b565b60a35415611772576040517f1fbde44500000000000000000000000000000000000000000000000000000000815260040160405180910390fd5b4260a355565b61178061215b565b6001600160a01b0382166000908152609d6020526040902060028101546117ba5760405163f7139e3360e01b815260040160405180910390fd5b60040180546001600160a01b0319166001600160a01b039290921691909117905550565b600054610100900460ff16158080156117fe5750600054600160ff909116105b806118185750303b158015611818575060005460ff166001145b61188f5760405162461bcd60e51b815260206004820152602e60248201527f496e697469616c697a61626c653a20636f6e747261637420697320616c72656160448201527f647920696e697469616c697a656400000000000000000000000000000000000060648201526084015b60405180910390fd5b6000805460ff1916600117905580156118b2576000805461ff0019166101001790555b6001600160a01b0385166118d957604051639fabe1c160e01b815260040160405180910390fd5b6001600160a01b03841661190057604051639fabe1c160e01b815260040160405180910390fd5b6001600160a01b03831661192757604051639fabe1c160e01b815260040160405180910390fd5b61192f6127fe565b611937612871565b60a4805460a980546001600160a01b038881166001600160a01b03199283161790925560a880548884169216919091179055609a8590556098805460ff19908116600190811790925591891661010002919091167fffffffffffffffffffffff000000000000000000000000000000000000000000909216919091171790558015610a48576000805461ff0019169055604051600181527f7f26b83ff96e1f2b6a682f133852f6798a09c465da95921460cefb3847402498906020015b60405180910390a15050505050565b611a0b61215b565b60a554611a189082612259565b60a555611a236121b5565b609a54158015611a3557506000609b54115b1561067d57609b54609a5550565b611a4b61215b565b60aa80546001600160a01b0319166001600160a01b0392909216919091179055565b611a7561215b565b6001600160a01b038116611af15760405162461bcd60e51b815260206004820152602660248201527f4f776e61626c653a206e6577206f776e657220697320746865207a65726f206160448201527f64647265737300000000000000000000000000000000000000000000000000006064820152608401611886565b61067d816122db565b611b0261215b565b60a4805460ff1916911515919091179055565b611b1d61215b565b82801580611b2b5750808214155b15611b495760405163512509d360e11b815260040160405180910390fd5b60005b81811015611d50578015611bd057858582818110611b6c57611b6c6134e5565b905060200201358686600184611b8291906134ce565b818110611b9157611b916134e5565b905060200201351115611bd0576040517f4781fe9b00000000000000000000000000000000000000000000000000000000815260040160405180910390fd5b6001600160801b03868683818110611bea57611bea6134e5565b905060200201351115611c105760405163d2fcf5b960e01b815260040160405180910390fd5b6001600160801b03848483818110611c2a57611c2a6134e5565b905060200201351115611c505760405163d2fcf5b960e01b815260040160405180910390fd5b60a35415611cb75760a354611c66904290612265565b868683818110611c7857611c786134e5565b905060200201351015611cb7576040517f38356e4c00000000000000000000000000000000000000000000000000000000815260040160405180910390fd5b60976040518060400160405280888885818110611cd657611cd66134e5565b905060200201356001600160801b03168152602001868685818110611cfd57611cfd6134e5565b6001600160801b03602091820293909301358316909352508354600181018555600094855293829020835193909201518116600160801b0292169190911791015580611d4881613571565b915050611b4c565b507f0a4b885eafe78f585b7c7667ea419f9b1b17d09dfdf23ffa7925b73db6986f16858585856040516119f494939291906135f4565b611d8e61215b565b60ab80546001600160a01b0319166001600160a01b0392909216919091179055565b60008060a860009054906101000a90046001600160a01b03166001600160a01b031663cd57ed6c6040518163ffffffff1660e01b8152600401602060405180830381865afa158015611e06573d6000803e3d6000fd5b505050506040513d601f19601f82011682018060405250810190611192919061361b565b6001600160a01b0384166000908152609d602052604090206002810154611e645760405163f7139e3360e01b815260040160405180910390fd5b611e7081609f54612564565b6001600160a01b03808616600090815260a060209081526040808320938816835292905220805460038301548115611f08576001830154600090611ec190610fc364e8d4a510006111048787612271565b90508015611f06576001600160a01b038816600090815260a16020526040902054611eec9082612259565b6001600160a01b038916600090815260a160205260409020555b505b82548454611f1591612265565b8455858355611f2d64e8d4a510006111048884612271565b60018401558354611f3e9087612259565b845560048401546001600160a01b031615611fe6576004848101546040517fae0b53710000000000000000000000000000000000000000000000000000000081526001600160a01b038b8116938201939093528983166024820152604481018990526064810188905291169063ae0b537190608401600060405180830381600087803b158015611fcd57600080fd5b505af1158015611fe1573d6000803e3d6000fd5b505050505b866001600160a01b0316886001600160a01b03167f526824944047da5b81071fb6349412005c5da81380b336103fbe5dd34556c7768888604051612034929190918252602082015260400190565b60405180910390a35050505050505050565b600080612052856128e4565b60a9546040517f6f21a1790000000000000000000000000000000000000000000000000000000081526001600160a01b03888116600483015292935060009290911690636f21a17990602401602060405180830381865afa1580156120bb573d6000803e3d6000fd5b505050506040513d601f19601f820116820180604052508101906120df919061358c565b9050801515851580156120ef5750825b80156120f9575080155b1561210357600193505b84801561210d5750835b156121515761211c8787612966565b6040516001600160a01b038816907fa77719a89d2325682411f1762214545e5d0fc4b374cc00cb48fcd390a670f2e190600090a25b5050509392505050565b6065546001600160a01b031633146111a85760405162461bcd60e51b815260206004820181905260248201527f4f776e61626c653a2063616c6c6572206973206e6f7420746865206f776e65726044820152606401611886565b609f5460006121c360995490565b905060005b8181101561222457612214609d6000609984815481106121ea576121ea6134e5565b60009182526020808320909101546001600160a01b03168352820192909252604001902084612564565b61221d81613571565b90506121c8565b50504260a75550565b6122356107bf565b421115612251576122446121b5565b609a8054609b5560009055565b6111a8612afb565b60006113ca828461353c565b60006113ca82846134ce565b60006113ca82846134fb565b60006113ca828461351a565b612291612bc8565b6033805460ff191690557f5db9ee0a495bf2e6ff9c91a7834c1ba4fdd244a5e8aa4e537bd38aeae4b073aa335b6040516001600160a01b03909116815260200160405180910390a1565b606580546001600160a01b038381166001600160a01b0319831681179093556040519116919082907f8be0079c531659141344cd1fd0a4f28419497f9722a3daafe3b4186f6b6457e090600090a35050565b60008082801561233a5750835b156123b65760a954604051630afb040960e01b81526001600160a01b03878116600483015290911690630afb0409906024016020604051808303816000875af115801561238b573d6000803e3d6000fd5b505050506040513d601f19601f820116820180604052508101906123af9190613554565b9050612440565b60a9546040517f660186e60000000000000000000000000000000000000000000000000000000081526001600160a01b0387811660048301529091169063660186e690602401602060405180830381865afa158015612419573d6000803e3d6000fd5b505050506040513d601f19601f8201168201806040525081019061243d9190613554565b90505b61244b858286612046565b95945050505050565b61245c612511565b6033805460ff191660011790557f62e78cea01bee320cd4e420270b5ea74000d11b0c9f74754ebdbfc544b05a2586122be3390565b604080516001600160a01b038416602482015260448082018490528251808303909101815260649091019091526020810180517bffffffffffffffffffffffffffffffffffffffffffffffffffffffff167fa9059cbb00000000000000000000000000000000000000000000000000000000179052610a5c908490612c1a565b60335460ff16156111a85760405162461bcd60e51b815260206004820152601060248201527f5061757361626c653a20706175736564000000000000000000000000000000006044820152606401611886565b42600061256f6107bf565b905081811161257c578091505b8360020154821161258d5750505050565b8354806125a257505060029092019190915550565b60006125bb86600201548561226590919063ffffffff16565b905060006125d4609a548361227190919063ffffffff16565b905060006125e0612cff565b9050818110156125ee578091505b600061260b886111048b600101548661227190919063ffffffff16565b60a65490915061261b9082612259565b60a65561263f612634866111048464e8d4a51000612271565b60038b015490612259565b60038a015550505050600290940191909155505050565b612667612661611db0565b82612d1d565b9050612671611db0565b6040517fd1a1beb40000000000000000000000000000000000000000000000000000000081526001600160a01b0384811660048301526024820184905260016044830152919091169063d1a1beb490606401600060405180830381600087803b1580156126dd57600080fd5b505af11580156126f1573d6000803e3d6000fd5b505050505050565b60a8546040805163ab453a5960e01b815290516000926001600160a01b03169163ab453a599160048083019260209291908290030181865afa158015612743573d6000803e3d6000fd5b505050506040513d601f19601f82011682018060405250810190612767919061361b565b6040516370a0823160e01b81523060048201529091506001600160a01b038216906370a0823190602401602060405180830381865afa1580156127ae573d6000803e3d6000fd5b505050506040513d601f19601f820116820180604052508101906127d2919061358c565b6040517f1681e542d7f33ef0ad012aecd346fa867be856110f81d25dcbbd72f972a57a4590600090a250565b600054610100900460ff166128695760405162461bcd60e51b815260206004820152602b60248201527f496e697469616c697a61626c653a20636f6e7472616374206973206e6f74206960448201526a6e697469616c697a696e6760a81b6064820152608401611886565b6111a8612e79565b600054610100900460ff166128dc5760405162461bcd60e51b815260206004820152602b60248201527f496e697469616c697a61626c653a20636f6e7472616374206973206e6f74206960448201526a6e697469616c697a696e6760a81b6064820152608401611886565b6111a8612eed565b6000806128f060995490565b905060005b8181101561295f5760a0600060998381548110612914576129146134e5565b60009182526020808320909101546001600160a01b039081168452838201949094526040928301822093881682529290925290205415612957576001925061295f565b6001016128f5565b5050919050565b60a45460ff166129a2576040517ff8eb54de00000000000000000000000000000000000000000000000000000000815260040160405180910390fd5b80156129da576040517fdd39bf5100000000000000000000000000000000000000000000000000000000815260040160405180910390fd5b60006129e560995490565b905060005b81811015612a7757600060998281548110612a0757612a076134e5565b60009182526020808320909101546001600160a01b03908116808452609d8352604080852060a08552818620938b168652929093529190922080549193509015612a635780548254612a639185918a91600091610fc991612265565b50505080612a7090613571565b90506129ea565b5060a9546040517fe2c75ca00000000000000000000000000000000000000000000000000000000081526001600160a01b0385811660048301524260248301529091169063e2c75ca090604401600060405180830381600087803b158015612ade57600080fd5b505af1158015612af2573d6000803e3d6000fd5b50505050505050565b60985460ff166111a857609754609c5460a354600090612b1c904290612265565b90505b8282108015612b59575060978281548110612b3c57612b3c6134e5565b6000918252602090912001546001600160801b0390811690821610155b15612b705781612b6881613571565b925050612b1f565b609c54821115610a5c57609c829055612b876121b5565b6097612b946001846134ce565b81548110612ba457612ba46134e5565b600091825260209091200154600160801b90046001600160801b0316609a55505050565b60335460ff166111a85760405162461bcd60e51b815260206004820152601460248201527f5061757361626c653a206e6f74207061757365640000000000000000000000006044820152606401611886565b6000612c6f826040518060400160405280602081526020017f5361666545524332303a206c6f772d6c6576656c2063616c6c206661696c6564815250856001600160a01b0316612f649092919063ffffffff16565b805190915015610a5c5780806020019051810190612c8d9190613554565b610a5c5760405162461bcd60e51b815260206004820152602a60248201527f5361666545524332303a204552433230206f7065726174696f6e20646964206e60448201527f6f742073756363656564000000000000000000000000000000000000000000006064820152608401611886565b6000612d1860a65460a55461226590919063ffffffff16565b905090565b600081612d2c57506000611192565b60a8546040805163ab453a5960e01b815290516000926001600160a01b03169163ab453a599160048083019260209291908290030181865afa158015612d76573d6000803e3d6000fd5b505050506040513d601f19601f82011682018060405250810190612d9a919061361b565b6040516370a0823160e01b81523060048201529091506000906001600160a01b038316906370a0823190602401602060405180830381865afa158015612de4573d6000803e3d6000fd5b505050506040513d601f19601f82011682018060405250810190612e08919061358c565b905080841115612e5c5760405181907f09fb3e34da56fdc0b28f9769c6dcb55321715bc673f744205e208b82c97963c990600090a26098805460ff191660011790556000609a55612e57612454565b612e70565b612e706001600160a01b0383168686612491565b50919392505050565b600054610100900460ff16612ee45760405162461bcd60e51b815260206004820152602b60248201527f496e697469616c697a61626c653a20636f6e7472616374206973206e6f74206960448201526a6e697469616c697a696e6760a81b6064820152608401611886565b6111a8336122db565b600054610100900460ff16612f585760405162461bcd60e51b815260206004820152602b60248201527f496e697469616c697a61626c653a20636f6e7472616374206973206e6f74206960448201526a6e697469616c697a696e6760a81b6064820152608401611886565b6033805460ff19169055565b6060612f738484600085612f7b565b949350505050565b606082471015612ff35760405162461bcd60e51b815260206004820152602660248201527f416464726573733a20696e73756666696369656e742062616c616e636520666f60448201527f722063616c6c00000000000000000000000000000000000000000000000000006064820152608401611886565b600080866001600160a01b0316858760405161300f9190613664565b60006040518083038185875af1925050503d806000811461304c576040519150601f19603f3d011682016040523d82523d6000602084013e613051565b606091505b50915091506130628783838761306d565b979650505050505050565b606083156130d95782516130d2576001600160a01b0385163b6130d25760405162461bcd60e51b815260206004820152601d60248201527f416464726573733a2063616c6c20746f206e6f6e2d636f6e74726163740000006044820152606401611886565b5081612f73565b612f7383838151156130ee5781518083602001fd5b8060405162461bcd60e51b81526004016118869190613680565b6001600160a01b038116811461067d57600080fd5b803561312881613108565b919050565b60006020828403121561313f57600080fd5b81356113ca81613108565b6000806040838503121561315d57600080fd5b823561316881613108565b9150602083013561317881613108565b809150509250929050565b60008060006060848603121561319857600080fd5b83356131a381613108565b95602085013595506040909401359392505050565b801515811461067d57600080fd5b600080604083850312156131d957600080fd5b823591506020830135613178816131b8565b600080604083850312156131fe57600080fd5b823561320981613108565b946020939093013593505050565b60006020828403121561322957600080fd5b5035919050565b60008083601f84011261324257600080fd5b50813567ffffffffffffffff81111561325a57600080fd5b6020830191508360208260051b850101111561327557600080fd5b9250929050565b6000806000806040858703121561329257600080fd5b843567ffffffffffffffff808211156132aa57600080fd5b6132b688838901613230565b909650945060208701359150808211156132cf57600080fd5b506132dc87828801613230565b95989497509550505050565b634e487b7160e01b600052604160045260246000fd5b6000806040838503121561331157600080fd5b823561331c81613108565b915060208381013567ffffffffffffffff8082111561333a57600080fd5b818601915086601f83011261334e57600080fd5b813581811115613360576133606132e8565b8060051b604051601f19603f83011681018181108582111715613385576133856132e8565b6040529182528482019250838101850191898311156133a357600080fd5b938501935b828510156133c8576133b98561311d565b845293850193928501926133a8565b8096505050505050509250929050565b6020808252825182820181905260009190848201906040850190845b81811015613410578351835292840192918401916001016133f4565b50909695505050505050565b6000806040838503121561342f57600080fd5b823561343a81613108565b91506020830135613178816131b8565b6000806000806080858703121561346057600080fd5b843561346b81613108565b9350602085013561347b81613108565b9250604085013561348b81613108565b9396929550929360600135925050565b6000602082840312156134ad57600080fd5b81356113ca816131b8565b634e487b7160e01b600052601160045260246000fd5b6000828210156134e0576134e06134b8565b500390565b634e487b7160e01b600052603260045260246000fd5b6000816000190483118215151615613515576135156134b8565b500290565b60008261353757634e487b7160e01b600052601260045260246000fd5b500490565b6000821982111561354f5761354f6134b8565b500190565b60006020828403121561356657600080fd5b81516113ca816131b8565b6000600019821415613585576135856134b8565b5060010190565b60006020828403121561359e57600080fd5b5051919050565b81835260007f07ffffffffffffffffffffffffffffffffffffffffffffffffffffffffffffff8311156135d757600080fd5b8260051b8083602087013760009401602001938452509192915050565b6040815260006136086040830186886135a5565b82810360208401526130628185876135a5565b60006020828403121561362d57600080fd5b81516113ca81613108565b60005b8381101561365357818101518382015260200161363b565b83811115610a4a5750506000910152565b60008251613676818460208701613638565b9190910192915050565b602081526000825180602084015261369f816040850160208701613638565b601f01601f1916919091016040019291505056fea2646970667358221220802474e43348ff0831a8f81e30ee6bc3df169ebca5f783d375d50d7bdb4d593764736f6c634300080c0033",
  "devdoc": {
    "author": "Radiant",
    "details": "All function calls are currently implemented without side effects based on the Sushi MasterChef\thttps://github.com/sushiswap/sushiswap/blob/master/contracts/MasterChef.sol",
    "kind": "dev",
    "methods": {
      "addPool(address,uint256)": {
        "details": "Add a new lp to the pool. Can only be called by the poolConfigurator.",
        "params": {
          "_allocPoint": "allocation point of the pool",
          "_token": "for reward pool"
        }
      },
      "afterLockUpdate(address)": {
        "details": "Called by the locking contracts after locking or unlocking happens",
        "params": {
          "_user": "address"
        }
      },
      "allPendingRewards(address)": {
        "params": {
          "_user": "address of the user"
        },
        "returns": {
          "pending": "reward amount"
        }
      },
      "batchUpdateAllocPoint(address[],uint256[])": {
        "details": "Update the given pool's allocation point. Can only be called by the owner.",
        "params": {
          "_allocPoints": "allocation points of the pools",
          "_tokens": "for reward pools"
        }
      },
      "beforeLockUpdate(address)": {
        "details": "Called by the locking contracts before locking or unlocking happens",
        "params": {
          "_user": "address"
        }
      },
      "claim(address,address[])": {
        "details": "This function is pausible.",
        "params": {
          "_tokens": "array of reward-bearing tokens",
          "_user": "address for claim"
        }
      },
      "claimAll(address)": {
        "params": {
          "_user": "address of the user"
        }
      },
      "claimBounty(address,bool)": {
        "params": {
          "_execute": "true if it's actual execution",
          "_user": "address of recipient"
        },
        "returns": {
          "issueBaseBounty": "true for base bounty"
        }
      },
      "handleActionAfter(address,uint256,uint256)": {
        "details": "important! eligible status can be updated here",
        "params": {
          "_balance": "balance of token",
          "_totalSupply": "total supply of the token",
          "_user": "address"
        }
      },
      "handleActionBefore(address)": {
        "params": {
          "_user": "address"
        }
      },
      "initialize(address,address,address,uint256)": {
        "params": {
          "_eligibleDataProvider": "Eligibility Data provider address",
          "_poolConfigurator": "Pool configurator address",
          "_rewardMinter": "Middle fee distribution contract",
          "_rewardsPerSecond": "RPS"
        }
      },
      "owner()": {
        "details": "Returns the address of the current owner."
      },
      "paused()": {
        "details": "Returns true if the contract is paused, and false otherwise."
      },
      "pendingRewards(address,address[])": {
        "params": {
          "_tokens": "array of reward-bearing tokens",
          "_user": "address for claim"
        },
        "returns": {
          "_0": "claimable rewards array"
        }
      },
      "poolLength()": {
        "details": "Returns length of reward pools."
      },
      "recoverERC20(address,uint256)": {
        "params": {
          "tokenAddress": "Token address for recover",
          "tokenAmount": "Amount to recover"
        }
      },
      "registerRewardDeposit(uint256)": {
        "details": "Only callable by owner.",
        "params": {
          "_amount": "new deposit amount"
        }
      },
      "renounceOwnership()": {
        "details": "Leaves the contract without owner. It will not be possible to call `onlyOwner` functions anymore. Can only be called by the current owner. NOTE: Renouncing ownership will leave the contract without an owner, thereby removing any functionality that is only available to the owner."
      },
      "setBountyManager(address)": {
        "details": "Updates bounty manager contract.",
        "params": {
          "_bountyManager": "Bounty Manager contract."
        }
      },
      "setEligibilityEnabled(bool)": {
        "details": "Enable/Disable eligibility",
        "params": {
          "_newVal": "New value."
        }
      },
      "setEligibilityExempt(address,bool)": {
        "details": "Can be called by owner or leverager contract",
        "params": {
          "_contract": "address to exempt",
          "_value": "flag for exempt"
        }
      },
      "setEmissionSchedule(uint256[],uint256[])": {
        "details": "This appends the new offsets and RPS.",
        "params": {
          "_rewardsPerSecond": "RPS array.",
          "_startTimeOffsets": "Offsets array."
        }
      },
      "setEndingTimeUpdateCadence(uint256)": {
        "details": "Only callable by owner.",
        "params": {
          "_lapse": "new cadence"
        }
      },
      "setLeverager(address)": {
        "params": {
          "_leverager": "contract"
        }
      },
      "setOnwardIncentives(address,address)": {
        "params": {
          "_incentives": "incentives contract address",
          "_token": "for reward pool"
        }
      },
      "setRewardsPerSecond(uint256,bool)": {
        "details": "Its decimals count is ACC_REWARD_PRECISION",
        "params": {
          "_persist": "true if RPS is fixed, otherwise RPS is by emission schedule.",
          "_rewardsPerSecond": "The amount of reward to be distributed per second."
        }
      },
      "start()": {
        "details": "Starts RDNT emission."
      },
      "transferOwnership(address)": {
        "details": "Transfers ownership of the contract to a new account (`newOwner`). Can only be called by the current owner."
      }
    },
    "title": "UniV3TwapOracle Contract",
    "version": 1
  },
  "userdoc": {
    "kind": "user",
    "methods": {
      "afterLockUpdate(address)": {
        "notice": "Hook for lock update."
      },
      "allPendingRewards(address)": {
        "notice": "Sum of all pending RDNT rewards."
      },
      "beforeLockUpdate(address)": {
        "notice": "Hook for lock update."
      },
      "claim(address,address[])": {
        "notice": "Claim rewards. They are vested into MFD."
      },
      "claimAll(address)": {
        "notice": "Claim rewards entitled to all registered tokens."
      },
      "claimBounty(address,bool)": {
        "notice": "Claim bounty"
      },
      "endRewardTime()": {
        "notice": "Ending reward distribution time."
      },
      "handleActionAfter(address,uint256,uint256)": {
        "notice": "`after` Hook for deposit and borrow update."
      },
      "handleActionBefore(address)": {
        "notice": "`before` Hook for deposit and borrow update."
      },
      "initialize(address,address,address,uint256)": {
        "notice": "Initializer"
      },
      "pause()": {
        "notice": "Pause the claim operations."
      },
      "pendingRewards(address,address[])": {
        "notice": "Pending rewards of a user."
      },
      "recoverERC20(address,uint256)": {
        "notice": "Recover tokens in this contract. Callable by owner."
      },
      "registerRewardDeposit(uint256)": {
        "notice": "Add new rewards."
      },
      "setEligibilityExempt(address,bool)": {
        "notice": "Exempt a contract from eligbility check."
      },
      "setEmissionSchedule(uint256[],uint256[])": {
        "notice": "Updates RDNT emission schedule."
      },
      "setEndingTimeUpdateCadence(uint256)": {
        "notice": "Updates cadence duration of ending time."
      },
      "setLeverager(address)": {
        "notice": "Updates leverager, only callable by owner."
      },
      "setOnwardIncentives(address,address)": {
        "notice": "Sets incentive controllers for custom token."
      },
      "setRewardsPerSecond(uint256,bool)": {
        "notice": "Sets the reward per second to be distributed. Can only be called by the owner."
      },
      "unpause()": {
        "notice": "Unpause the claim operations."
      }
    },
    "version": 1
  },
  "storageLayout": {
    "storage": [
      {
        "astId": 3046,
        "contract": "contracts/radiant/staking/ChefIncentivesController.sol:ChefIncentivesController",
        "label": "_initialized",
        "offset": 0,
        "slot": "0",
        "type": "t_uint8"
      },
      {
        "astId": 3049,
        "contract": "contracts/radiant/staking/ChefIncentivesController.sol:ChefIncentivesController",
        "label": "_initializing",
        "offset": 1,
        "slot": "0",
        "type": "t_bool"
      },
      {
        "astId": 3660,
        "contract": "contracts/radiant/staking/ChefIncentivesController.sol:ChefIncentivesController",
        "label": "__gap",
        "offset": 0,
        "slot": "1",
        "type": "t_array(t_uint256)50_storage"
      },
      {
        "astId": 3229,
        "contract": "contracts/radiant/staking/ChefIncentivesController.sol:ChefIncentivesController",
        "label": "_paused",
        "offset": 0,
        "slot": "51",
        "type": "t_bool"
      },
      {
        "astId": 3334,
        "contract": "contracts/radiant/staking/ChefIncentivesController.sol:ChefIncentivesController",
        "label": "__gap",
        "offset": 0,
        "slot": "52",
        "type": "t_array(t_uint256)49_storage"
      },
      {
        "astId": 2918,
        "contract": "contracts/radiant/staking/ChefIncentivesController.sol:ChefIncentivesController",
        "label": "_owner",
        "offset": 0,
        "slot": "101",
        "type": "t_address"
      },
      {
        "astId": 3038,
        "contract": "contracts/radiant/staking/ChefIncentivesController.sol:ChefIncentivesController",
        "label": "__gap",
        "offset": 0,
        "slot": "102",
        "type": "t_array(t_uint256)49_storage"
      },
      {
        "astId": 43758,
        "contract": "contracts/radiant/staking/ChefIncentivesController.sol:ChefIncentivesController",
        "label": "emissionSchedule",
        "offset": 0,
        "slot": "151",
        "type": "t_array(t_struct(EmissionPoint)43674_storage)dyn_storage"
      },
      {
        "astId": 43760,
        "contract": "contracts/radiant/staking/ChefIncentivesController.sol:ChefIncentivesController",
        "label": "persistRewardsPerSecond",
        "offset": 0,
        "slot": "152",
        "type": "t_bool"
      },
      {
        "astId": 43763,
        "contract": "contracts/radiant/staking/ChefIncentivesController.sol:ChefIncentivesController",
        "label": "registeredTokens",
        "offset": 0,
        "slot": "153",
        "type": "t_array(t_address)dyn_storage"
      },
      {
        "astId": 43765,
        "contract": "contracts/radiant/staking/ChefIncentivesController.sol:ChefIncentivesController",
        "label": "rewardsPerSecond",
        "offset": 0,
        "slot": "154",
        "type": "t_uint256"
      },
      {
        "astId": 43767,
        "contract": "contracts/radiant/staking/ChefIncentivesController.sol:ChefIncentivesController",
        "label": "lastRPS",
        "offset": 0,
        "slot": "155",
        "type": "t_uint256"
      },
      {
        "astId": 43769,
        "contract": "contracts/radiant/staking/ChefIncentivesController.sol:ChefIncentivesController",
        "label": "emissionScheduleIndex",
        "offset": 0,
        "slot": "156",
        "type": "t_uint256"
      },
      {
        "astId": 43774,
        "contract": "contracts/radiant/staking/ChefIncentivesController.sol:ChefIncentivesController",
        "label": "poolInfo",
        "offset": 0,
        "slot": "157",
        "type": "t_mapping(t_address,t_struct(PoolInfo)43669_storage)"
      },
      {
        "astId": 43778,
        "contract": "contracts/radiant/staking/ChefIncentivesController.sol:ChefIncentivesController",
        "label": "validRTokens",
        "offset": 0,
        "slot": "158",
        "type": "t_mapping(t_address,t_bool)"
      },
      {
        "astId": 43780,
        "contract": "contracts/radiant/staking/ChefIncentivesController.sol:ChefIncentivesController",
        "label": "totalAllocPoint",
        "offset": 0,
        "slot": "159",
        "type": "t_uint256"
      },
      {
        "astId": 43787,
        "contract": "contracts/radiant/staking/ChefIncentivesController.sol:ChefIncentivesController",
        "label": "userInfo",
        "offset": 0,
        "slot": "160",
        "type": "t_mapping(t_address,t_mapping(t_address,t_struct(UserInfo)43657_storage))"
      },
      {
        "astId": 43791,
        "contract": "contracts/radiant/staking/ChefIncentivesController.sol:ChefIncentivesController",
        "label": "userBaseClaimable",
        "offset": 0,
        "slot": "161",
        "type": "t_mapping(t_address,t_uint256)"
      },
      {
        "astId": 43795,
        "contract": "contracts/radiant/staking/ChefIncentivesController.sol:ChefIncentivesController",
        "label": "eligibilityExempt",
        "offset": 0,
        "slot": "162",
        "type": "t_mapping(t_address,t_bool)"
      },
      {
        "astId": 43797,
        "contract": "contracts/radiant/staking/ChefIncentivesController.sol:ChefIncentivesController",
        "label": "startTime",
        "offset": 0,
        "slot": "163",
        "type": "t_uint256"
      },
      {
        "astId": 43799,
        "contract": "contracts/radiant/staking/ChefIncentivesController.sol:ChefIncentivesController",
        "label": "eligibilityEnabled",
        "offset": 0,
        "slot": "164",
        "type": "t_bool"
      },
      {
        "astId": 43801,
        "contract": "contracts/radiant/staking/ChefIncentivesController.sol:ChefIncentivesController",
        "label": "poolConfigurator",
        "offset": 1,
        "slot": "164",
        "type": "t_address"
      },
      {
        "astId": 43803,
        "contract": "contracts/radiant/staking/ChefIncentivesController.sol:ChefIncentivesController",
        "label": "depositedRewards",
        "offset": 0,
        "slot": "165",
        "type": "t_uint256"
      },
      {
        "astId": 43805,
        "contract": "contracts/radiant/staking/ChefIncentivesController.sol:ChefIncentivesController",
        "label": "accountedRewards",
        "offset": 0,
        "slot": "166",
        "type": "t_uint256"
      },
      {
        "astId": 43807,
        "contract": "contracts/radiant/staking/ChefIncentivesController.sol:ChefIncentivesController",
        "label": "lastAllPoolUpdate",
        "offset": 0,
        "slot": "167",
        "type": "t_uint256"
      },
      {
        "astId": 43810,
        "contract": "contracts/radiant/staking/ChefIncentivesController.sol:ChefIncentivesController",
        "label": "rewardMinter",
        "offset": 0,
        "slot": "168",
        "type": "t_contract(IMiddleFeeDistribution)16972"
      },
      {
        "astId": 43813,
        "contract": "contracts/radiant/staking/ChefIncentivesController.sol:ChefIncentivesController",
        "label": "eligibleDataProvider",
        "offset": 0,
        "slot": "169",
        "type": "t_contract(IEligibilityDataProvider)15664"
      },
      {
        "astId": 43816,
        "contract": "contracts/radiant/staking/ChefIncentivesController.sol:ChefIncentivesController",
        "label": "leverager",
        "offset": 0,
        "slot": "170",
        "type": "t_contract(ILeverager)16706"
      },
      {
        "astId": 43818,
        "contract": "contracts/radiant/staking/ChefIncentivesController.sol:ChefIncentivesController",
        "label": "bountyManager",
        "offset": 0,
        "slot": "171",
        "type": "t_address"
      },
      {
        "astId": 43821,
        "contract": "contracts/radiant/staking/ChefIncentivesController.sol:ChefIncentivesController",
        "label": "endingTime",
        "offset": 0,
        "slot": "172",
        "type": "t_struct(EndingTime)43681_storage"
      }
    ],
    "types": {
      "t_address": {
        "encoding": "inplace",
        "label": "address",
        "numberOfBytes": "20"
      },
      "t_array(t_address)dyn_storage": {
        "base": "t_address",
        "encoding": "dynamic_array",
        "label": "address[]",
        "numberOfBytes": "32"
      },
      "t_array(t_struct(EmissionPoint)43674_storage)dyn_storage": {
        "base": "t_struct(EmissionPoint)43674_storage",
        "encoding": "dynamic_array",
        "label": "struct ChefIncentivesController.EmissionPoint[]",
        "numberOfBytes": "32"
      },
      "t_array(t_uint256)49_storage": {
        "base": "t_uint256",
        "encoding": "inplace",
        "label": "uint256[49]",
        "numberOfBytes": "1568"
      },
      "t_array(t_uint256)50_storage": {
        "base": "t_uint256",
        "encoding": "inplace",
        "label": "uint256[50]",
        "numberOfBytes": "1600"
      },
      "t_bool": {
        "encoding": "inplace",
        "label": "bool",
        "numberOfBytes": "1"
      },
      "t_contract(IEligibilityDataProvider)15664": {
        "encoding": "inplace",
        "label": "contract IEligibilityDataProvider",
        "numberOfBytes": "20"
      },
      "t_contract(ILeverager)16706": {
        "encoding": "inplace",
        "label": "contract ILeverager",
        "numberOfBytes": "20"
      },
      "t_contract(IMiddleFeeDistribution)16972": {
        "encoding": "inplace",
        "label": "contract IMiddleFeeDistribution",
        "numberOfBytes": "20"
      },
      "t_contract(IOnwardIncentivesController)17210": {
        "encoding": "inplace",
        "label": "contract IOnwardIncentivesController",
        "numberOfBytes": "20"
      },
      "t_mapping(t_address,t_bool)": {
        "encoding": "mapping",
        "key": "t_address",
        "label": "mapping(address => bool)",
        "numberOfBytes": "32",
        "value": "t_bool"
      },
      "t_mapping(t_address,t_mapping(t_address,t_struct(UserInfo)43657_storage))": {
        "encoding": "mapping",
        "key": "t_address",
        "label": "mapping(address => mapping(address => struct ChefIncentivesController.UserInfo))",
        "numberOfBytes": "32",
        "value": "t_mapping(t_address,t_struct(UserInfo)43657_storage)"
      },
      "t_mapping(t_address,t_struct(PoolInfo)43669_storage)": {
        "encoding": "mapping",
        "key": "t_address",
        "label": "mapping(address => struct ChefIncentivesController.PoolInfo)",
        "numberOfBytes": "32",
        "value": "t_struct(PoolInfo)43669_storage"
      },
      "t_mapping(t_address,t_struct(UserInfo)43657_storage)": {
        "encoding": "mapping",
        "key": "t_address",
        "label": "mapping(address => struct ChefIncentivesController.UserInfo)",
        "numberOfBytes": "32",
        "value": "t_struct(UserInfo)43657_storage"
      },
      "t_mapping(t_address,t_uint256)": {
        "encoding": "mapping",
        "key": "t_address",
        "label": "mapping(address => uint256)",
        "numberOfBytes": "32",
        "value": "t_uint256"
      },
      "t_struct(EmissionPoint)43674_storage": {
        "encoding": "inplace",
        "label": "struct ChefIncentivesController.EmissionPoint",
        "members": [
          {
            "astId": 43671,
            "contract": "contracts/radiant/staking/ChefIncentivesController.sol:ChefIncentivesController",
            "label": "startTimeOffset",
            "offset": 0,
            "slot": "0",
            "type": "t_uint128"
          },
          {
            "astId": 43673,
            "contract": "contracts/radiant/staking/ChefIncentivesController.sol:ChefIncentivesController",
            "label": "rewardsPerSecond",
            "offset": 16,
            "slot": "0",
            "type": "t_uint128"
          }
        ],
        "numberOfBytes": "32"
      },
      "t_struct(EndingTime)43681_storage": {
        "encoding": "inplace",
        "label": "struct ChefIncentivesController.EndingTime",
        "members": [
          {
            "astId": 43676,
            "contract": "contracts/radiant/staking/ChefIncentivesController.sol:ChefIncentivesController",
            "label": "estimatedTime",
            "offset": 0,
            "slot": "0",
            "type": "t_uint256"
          },
          {
            "astId": 43678,
            "contract": "contracts/radiant/staking/ChefIncentivesController.sol:ChefIncentivesController",
            "label": "lastUpdatedTime",
            "offset": 0,
            "slot": "1",
            "type": "t_uint256"
          },
          {
            "astId": 43680,
            "contract": "contracts/radiant/staking/ChefIncentivesController.sol:ChefIncentivesController",
            "label": "updateCadence",
            "offset": 0,
            "slot": "2",
            "type": "t_uint256"
          }
        ],
        "numberOfBytes": "96"
      },
      "t_struct(PoolInfo)43669_storage": {
        "encoding": "inplace",
        "label": "struct ChefIncentivesController.PoolInfo",
        "members": [
          {
            "astId": 43659,
            "contract": "contracts/radiant/staking/ChefIncentivesController.sol:ChefIncentivesController",
            "label": "totalSupply",
            "offset": 0,
            "slot": "0",
            "type": "t_uint256"
          },
          {
            "astId": 43661,
            "contract": "contracts/radiant/staking/ChefIncentivesController.sol:ChefIncentivesController",
            "label": "allocPoint",
            "offset": 0,
            "slot": "1",
            "type": "t_uint256"
          },
          {
            "astId": 43663,
            "contract": "contracts/radiant/staking/ChefIncentivesController.sol:ChefIncentivesController",
            "label": "lastRewardTime",
            "offset": 0,
            "slot": "2",
            "type": "t_uint256"
          },
          {
            "astId": 43665,
            "contract": "contracts/radiant/staking/ChefIncentivesController.sol:ChefIncentivesController",
            "label": "accRewardPerShare",
            "offset": 0,
            "slot": "3",
            "type": "t_uint256"
          },
          {
            "astId": 43668,
            "contract": "contracts/radiant/staking/ChefIncentivesController.sol:ChefIncentivesController",
            "label": "onwardIncentives",
            "offset": 0,
            "slot": "4",
            "type": "t_contract(IOnwardIncentivesController)17210"
          }
        ],
        "numberOfBytes": "160"
      },
      "t_struct(UserInfo)43657_storage": {
        "encoding": "inplace",
        "label": "struct ChefIncentivesController.UserInfo",
        "members": [
          {
            "astId": 43652,
            "contract": "contracts/radiant/staking/ChefIncentivesController.sol:ChefIncentivesController",
            "label": "amount",
            "offset": 0,
            "slot": "0",
            "type": "t_uint256"
          },
          {
            "astId": 43654,
            "contract": "contracts/radiant/staking/ChefIncentivesController.sol:ChefIncentivesController",
            "label": "rewardDebt",
            "offset": 0,
            "slot": "1",
            "type": "t_uint256"
          },
          {
            "astId": 43656,
            "contract": "contracts/radiant/staking/ChefIncentivesController.sol:ChefIncentivesController",
            "label": "lastClaimTime",
            "offset": 0,
            "slot": "2",
            "type": "t_uint256"
          }
        ],
        "numberOfBytes": "96"
      },
      "t_uint128": {
        "encoding": "inplace",
        "label": "uint128",
        "numberOfBytes": "16"
      },
      "t_uint256": {
        "encoding": "inplace",
        "label": "uint256",
        "numberOfBytes": "32"
      },
      "t_uint8": {
        "encoding": "inplace",
        "label": "uint8",
        "numberOfBytes": "1"
      }
    }
  }
}