{
  "address": "0x3E71B37D91d26b97bBcc3b73dE94f0e980a52Df1",
  "abi": [
    {
      "inputs": [],
      "name": "AddressZero",
      "type": "error"
    },
    {
      "inputs": [],
      "name": "InvalidRatio",
      "type": "error"
    },
    {
      "inputs": [],
      "name": "LPTokenSet",
      "type": "error"
    },
    {
      "inputs": [],
      "name": "OnlyCIC",
      "type": "error"
    },
    {
      "anonymous": false,
      "inputs": [
        {
          "indexed": true,
          "internalType": "contract IChefIncentivesController",
          "name": "_chef",
          "type": "address"
        }
      ],
      "name": "ChefIncentivesControllerUpdated",
      "type": "event"
    },
    {
      "anonymous": false,
      "inputs": [
        {
          "indexed": true,
          "internalType": "address",
          "name": "_user",
          "type": "address"
        },
        {
          "indexed": false,
          "internalType": "uint256",
          "name": "_time",
          "type": "uint256"
        }
      ],
      "name": "DqTimeUpdated",
      "type": "event"
    },
    {
      "anonymous": false,
      "inputs": [
        {
          "indexed": false,
          "internalType": "uint8",
          "name": "version",
          "type": "uint8"
        }
      ],
      "name": "Initialized",
      "type": "event"
    },
    {
      "anonymous": false,
      "inputs": [
        {
          "indexed": true,
          "internalType": "address",
          "name": "_lpToken",
          "type": "address"
        }
      ],
      "name": "LPTokenUpdated",
      "type": "event"
    },
    {
      "anonymous": false,
      "inputs": [
        {
          "indexed": true,
          "internalType": "address",
          "name": "previousOwner",
          "type": "address"
        },
        {
          "indexed": true,
          "internalType": "address",
          "name": "newOwner",
          "type": "address"
        }
      ],
      "name": "OwnershipTransferred",
      "type": "event"
    },
    {
      "anonymous": false,
      "inputs": [
        {
          "indexed": true,
          "internalType": "uint256",
          "name": "priceToleranceRatio",
          "type": "uint256"
        }
      ],
      "name": "PriceToleranceRatioUpdated",
      "type": "event"
    },
    {
      "anonymous": false,
      "inputs": [
        {
          "indexed": true,
          "internalType": "uint256",
          "name": "requiredDepositRatio",
          "type": "uint256"
        }
      ],
      "name": "RequiredDepositRatioUpdated",
      "type": "event"
    },
    {
      "inputs": [],
      "name": "RATIO_DIVISOR",
      "outputs": [
        {
          "internalType": "uint256",
          "name": "",
          "type": "uint256"
        }
      ],
      "stateMutability": "view",
      "type": "function"
    },
    {
      "inputs": [],
      "name": "chef",
      "outputs": [
        {
          "internalType": "contract IChefIncentivesController",
          "name": "",
          "type": "address"
        }
      ],
      "stateMutability": "view",
      "type": "function"
    },
    {
      "inputs": [
        {
          "internalType": "address",
          "name": "",
          "type": "address"
        }
      ],
      "name": "disqualifiedTime",
      "outputs": [
        {
          "internalType": "uint256",
          "name": "",
          "type": "uint256"
        }
      ],
      "stateMutability": "view",
      "type": "function"
    },
    {
      "inputs": [
        {
          "internalType": "address",
          "name": "_user",
          "type": "address"
        }
      ],
      "name": "getDqTime",
      "outputs": [
        {
          "internalType": "uint256",
          "name": "",
          "type": "uint256"
        }
      ],
      "stateMutability": "view",
      "type": "function"
    },
    {
      "inputs": [
        {
          "internalType": "contract ILendingPool",
          "name": "_lendingPool",
          "type": "address"
        },
        {
          "internalType": "contract IMiddleFeeDistribution",
          "name": "_middleFeeDistribution",
          "type": "address"
        },
        {
          "internalType": "contract IPriceProvider",
          "name": "_priceProvider",
          "type": "address"
        }
      ],
      "name": "initialize",
      "outputs": [],
      "stateMutability": "nonpayable",
      "type": "function"
    },
    {
      "inputs": [
        {
          "internalType": "address",
          "name": "_user",
          "type": "address"
        }
      ],
      "name": "isEligibleForRewards",
      "outputs": [
        {
          "internalType": "bool",
          "name": "",
          "type": "bool"
        }
      ],
      "stateMutability": "view",
      "type": "function"
    },
    {
      "inputs": [
        {
          "internalType": "address",
          "name": "_user",
          "type": "address"
        }
      ],
      "name": "isMarketDisqualified",
      "outputs": [
        {
          "internalType": "bool",
          "name": "",
          "type": "bool"
        }
      ],
      "stateMutability": "view",
      "type": "function"
    },
    {
      "inputs": [
        {
          "internalType": "address",
          "name": "",
          "type": "address"
        }
      ],
      "name": "lastEligibleStatus",
      "outputs": [
        {
          "internalType": "bool",
          "name": "",
          "type": "bool"
        }
      ],
      "stateMutability": "view",
      "type": "function"
    },
    {
      "inputs": [
        {
          "internalType": "address",
          "name": "user",
          "type": "address"
        }
      ],
      "name": "lastEligibleTime",
      "outputs": [
        {
          "internalType": "uint256",
          "name": "lastEligibleTimestamp",
          "type": "uint256"
        }
      ],
      "stateMutability": "view",
      "type": "function"
    },
    {
      "inputs": [],
      "name": "lendingPool",
      "outputs": [
        {
          "internalType": "contract ILendingPool",
          "name": "",
          "type": "address"
        }
      ],
      "stateMutability": "view",
      "type": "function"
    },
    {
      "inputs": [
        {
          "internalType": "address",
          "name": "user",
          "type": "address"
        }
      ],
      "name": "lockedUsdValue",
      "outputs": [
        {
          "internalType": "uint256",
          "name": "",
          "type": "uint256"
        }
      ],
      "stateMutability": "view",
      "type": "function"
    },
    {
      "inputs": [],
      "name": "lpToken",
      "outputs": [
        {
          "internalType": "address",
          "name": "",
          "type": "address"
        }
      ],
      "stateMutability": "view",
      "type": "function"
    },
    {
      "inputs": [],
      "name": "middleFeeDistribution",
      "outputs": [
        {
          "internalType": "contract IMiddleFeeDistribution",
          "name": "",
          "type": "address"
        }
      ],
      "stateMutability": "view",
      "type": "function"
    },
    {
      "inputs": [],
      "name": "owner",
      "outputs": [
        {
          "internalType": "address",
          "name": "",
          "type": "address"
        }
      ],
      "stateMutability": "view",
      "type": "function"
    },
    {
      "inputs": [],
      "name": "priceProvider",
      "outputs": [
        {
          "internalType": "contract IPriceProvider",
          "name": "",
          "type": "address"
        }
      ],
      "stateMutability": "view",
      "type": "function"
    },
    {
      "inputs": [],
      "name": "priceToleranceRatio",
      "outputs": [
        {
          "internalType": "uint256",
          "name": "",
          "type": "uint256"
        }
      ],
      "stateMutability": "view",
      "type": "function"
    },
    {
      "inputs": [
        {
          "internalType": "address",
          "name": "user",
          "type": "address"
        }
      ],
      "name": "refresh",
      "outputs": [
        {
          "internalType": "bool",
          "name": "currentEligibility",
          "type": "bool"
        }
      ],
      "stateMutability": "nonpayable",
      "type": "function"
    },
    {
      "inputs": [],
      "name": "renounceOwnership",
      "outputs": [],
      "stateMutability": "nonpayable",
      "type": "function"
    },
    {
      "inputs": [],
      "name": "requiredDepositRatio",
      "outputs": [
        {
          "internalType": "uint256",
          "name": "",
          "type": "uint256"
        }
      ],
      "stateMutability": "view",
      "type": "function"
    },
    {
      "inputs": [
        {
          "internalType": "address",
          "name": "user",
          "type": "address"
        }
      ],
      "name": "requiredUsdValue",
      "outputs": [
        {
          "internalType": "uint256",
          "name": "required",
          "type": "uint256"
        }
      ],
      "stateMutability": "view",
      "type": "function"
    },
    {
      "inputs": [
        {
          "internalType": "contract IChefIncentivesController",
          "name": "_chef",
          "type": "address"
        }
      ],
      "name": "setChefIncentivesController",
      "outputs": [],
      "stateMutability": "nonpayable",
      "type": "function"
    },
    {
      "inputs": [
        {
          "internalType": "address",
          "name": "_user",
          "type": "address"
        },
        {
          "internalType": "uint256",
          "name": "_time",
          "type": "uint256"
        }
      ],
      "name": "setDqTime",
      "outputs": [],
      "stateMutability": "nonpayable",
      "type": "function"
    },
    {
      "inputs": [
        {
          "internalType": "address",
          "name": "_lpToken",
          "type": "address"
        }
      ],
      "name": "setLPToken",
      "outputs": [],
      "stateMutability": "nonpayable",
      "type": "function"
    },
    {
      "inputs": [
        {
          "internalType": "uint256",
          "name": "_priceToleranceRatio",
          "type": "uint256"
        }
      ],
      "name": "setPriceToleranceRatio",
      "outputs": [],
      "stateMutability": "nonpayable",
      "type": "function"
    },
    {
      "inputs": [
        {
          "internalType": "uint256",
          "name": "_requiredDepositRatio",
          "type": "uint256"
        }
      ],
      "name": "setRequiredDepositRatio",
      "outputs": [],
      "stateMutability": "nonpayable",
      "type": "function"
    },
    {
      "inputs": [
        {
          "internalType": "address",
          "name": "newOwner",
          "type": "address"
        }
      ],
      "name": "transferOwnership",
      "outputs": [],
      "stateMutability": "nonpayable",
      "type": "function"
    },
    {
      "inputs": [],
      "name": "updatePrice",
      "outputs": [],
      "stateMutability": "nonpayable",
      "type": "function"
    },
    {
      "inputs": [
        {
          "internalType": "address",
          "name": "",
          "type": "address"
        },
        {
          "internalType": "address",
          "name": "",
          "type": "address"
        }
      ],
      "name": "userDeposits",
      "outputs": [
        {
          "internalType": "uint256",
          "name": "",
          "type": "uint256"
        }
      ],
      "stateMutability": "view",
      "type": "function"
    }
  ],
  "transactionHash": "0x604dc8356eebcb09e96184b5612ef2fa553987dc056db9763c21ae11371426f4",
  "args": [],
  "numDeployments": 1,
  "solcInputHash": "d20862d9a7051998216c9f1f22667b5c",
  "bytecode": "0x608060405234801561001057600080fd5b506114a9806100206000396000f3fe608060405234801561001057600080fd5b50600436106101c45760003560e01c8063715018a6116100f9578063d52874da11610097578063e38fdc3611610071578063e38fdc36146103ed578063f2fde38b14610400578063f4640c9314610413578063ff408ae01461042657600080fd5b8063d52874da146103be578063dbbbbc63146103c7578063e2c75ca0146103da57600080fd5b8063a59a9973116100d3578063a59a997314610372578063b888879e14610385578063bae1b24c14610398578063c0c53b8b146103ab57600080fd5b8063715018a6146103395780638da5cb5b14610341578063a0cfb9ff1461035257600080fd5b8063660186e6116101665780636a678a9c116101405780636a678a9c146102e15780636a7e9f33146102f45780636d9077cb146102fd5780636f21a1791461031057600080fd5b8063660186e6146102b1578063673a7e28146102c4578063696c9a7f146102ce57600080fd5b8063436d8039116101a2578063436d80391461022f578063563014e5146102685780635de20b421461027b5780635fcbd2851461029e57600080fd5b80630afb0409146101c95780631fc8bc5d146101f157806321cc01c91461021c575b600080fd5b6101dc6101d736600461109a565b61042f565b60405190151581526020015b60405180910390f35b606654610204906001600160a01b031681565b6040516001600160a01b0390911681526020016101e8565b606754610204906001600160a01b031681565b61025a61023d3660046110b7565b606f60209081526000928352604080842090915290825290205481565b6040519081526020016101e8565b61025a61027636600461109a565b6104ea565b6101dc61028936600461109a565b606c6020526000908152604090205460ff1681565b606b54610204906001600160a01b031681565b6101dc6102bf36600461109a565b610688565b6102cc6106d2565b005b6101dc6102dc36600461109a565b61073c565b6102cc6102ef36600461109a565b610774565b61025a61271081565b61025a61030b36600461109a565b610816565b61025a61031e36600461109a565b6001600160a01b03166000908152606d602052604090205490565b6102cc610928565b6033546001600160a01b0316610204565b61025a61036036600461109a565b606d6020526000908152604090205481565b606554610204906001600160a01b031681565b606854610204906001600160a01b031681565b6102cc6103a63660046110f0565b61093c565b6102cc6103b9366004611109565b6109a6565b61025a60695481565b6102cc6103d536600461109a565b610b98565b6102cc6103e8366004611154565b610c1e565b61025a6103fb36600461109a565b610ca2565b6102cc61040e36600461109a565b610d56565b6102cc6104213660046110f0565b610de6565b61025a606a5481565b6066546000906001600160a01b0316331461045d57604051630394347f60e61b815260040160405180910390fd5b6001600160a01b03821661047357610473611180565b61047c82610688565b90508080156104a257506001600160a01b0382166000908152606d602052604090205415155b156104c1576001600160a01b0382166000908152606d60205260408120555b6001600160a01b03919091166000908152606c60205260409020805460ff191682151517905590565b6000806104f683610ca2565b90506000606760009054906101000a90046001600160a01b03166001600160a01b031663cd57ed6c6040518163ffffffff1660e01b8152600401602060405180830381865afa15801561054d573d6000803e3d6000fd5b505050506040513d601f19601f820116820180604052508101906105719190611196565b6040517f6bd3b87c0000000000000000000000000000000000000000000000000000000081526001600160a01b038681166004830152919250600091831690636bd3b87c90602401600060405180830381865afa1580156105d6573d6000803e3d6000fd5b505050506040513d6000823e601f3d908101601f191682016040526105fe9190810190611223565b80519091506000905b801561067e5761061860018261131a565b905082818151811061062c5761062c611331565b602002602001015160200151955082818151811061064c5761064c611331565b602002602001015160000151826106639190611347565b91508461066f83610e44565b106106795761067e565b610607565b5050505050919050565b60008061069483610816565b905060006106b96127106106b3606a546106ad88610ca2565b90610ed2565b90610ede565b905080158015906106ca5750808210155b949350505050565b606860009054906101000a90046001600160a01b03166001600160a01b031663a2e620456040518163ffffffff1660e01b8152600401600060405180830381600087803b15801561072257600080fd5b505af1158015610736573d6000803e3d6000fd5b50505050565b60008061074883610ca2565b11801561075b575061075982610688565b155b801561076e57504261076c836104ea565b115b92915050565b61077c610eea565b606b546001600160a01b0316156107bf576040517f322815a400000000000000000000000000000000000000000000000000000000815260040160405180910390fd5b606b805473ffffffffffffffffffffffffffffffffffffffff19166001600160a01b0383169081179091556040517ff9d1c90c609623055381582a51735b38df3243eb09629a9170b15c2ab6bc073990600090a250565b600080606760009054906101000a90046001600160a01b03166001600160a01b031663cd57ed6c6040518163ffffffff1660e01b8152600401602060405180830381865afa15801561086c573d6000803e3d6000fd5b505050506040513d601f19601f820116820180604052508101906108909190611196565b6040517fc84aae170000000000000000000000000000000000000000000000000000000081526001600160a01b03858116600483015291925060009183169063c84aae179060240160a060405180830381865afa1580156108f5573d6000803e3d6000fd5b505050506040513d601f19601f82011682018060405250810190610919919061135f565b90506106ca8160400151610e44565b610930610eea565b61093a6000610f44565b565b610944610eea565b611f40811080610955575061271081115b156109735760405163648564d360e01b815260040160405180910390fd5b606a81905560405181907f05ace3111616a9d7bc7b769e0162c37e277aa5cdcd34699f9a0e3d7577d0db5490600090a250565b600054610100900460ff16158080156109c65750600054600160ff909116105b806109e05750303b1580156109e0575060005460ff166001145b610a575760405162461bcd60e51b815260206004820152602e60248201527f496e697469616c697a61626c653a20636f6e747261637420697320616c72656160448201527f647920696e697469616c697a656400000000000000000000000000000000000060648201526084015b60405180910390fd5b6000805460ff191660011790558015610a7a576000805461ff0019166101001790555b6001600160a01b038416610aa157604051639fabe1c160e01b815260040160405180910390fd5b6001600160a01b038316610ac857604051639fabe1c160e01b815260040160405180910390fd5b6001600160a01b038216610aef57604051639fabe1c160e01b815260040160405180910390fd5b606580546001600160a01b0380871673ffffffffffffffffffffffffffffffffffffffff19928316179092556067805486841690831617905560688054928516929091169190911790556101f4606955612328606a55610b4d610fa3565b8015610736576000805461ff0019169055604051600181527f7f26b83ff96e1f2b6a682f133852f6798a09c465da95921460cefb38474024989060200160405180910390a150505050565b610ba0610eea565b6001600160a01b038116610bc757604051639fabe1c160e01b815260040160405180910390fd5b6066805473ffffffffffffffffffffffffffffffffffffffff19166001600160a01b0383169081179091556040517f3edc4c109bdc9b34f00f24744f770e8de831fd903d0fc75d4d990d5d81b75b9890600090a250565b6066546001600160a01b03163314610c4957604051630394347f60e61b815260040160405180910390fd5b6001600160a01b0382166000818152606d602052604090819020839055517f1e85ba2a5b06819d522e519e6ebf963f35ad4a709dc2a541ed39ad80f4b3a3be90610c969084815260200190565b60405180910390a25050565b6065546040517fbf92857c0000000000000000000000000000000000000000000000000000000081526001600160a01b038381166004830152600092839291169063bf92857c9060240160c060405180830381865afa158015610d09573d6000803e3d6000fd5b505050506040513d601f19601f82011682018060405250810190610d2d91906113cf565b50505050509050610d4f6127106106b360695484610ed290919063ffffffff16565b9392505050565b610d5e610eea565b6001600160a01b038116610dda5760405162461bcd60e51b815260206004820152602660248201527f4f776e61626c653a206e6577206f776e657220697320746865207a65726f206160448201527f64647265737300000000000000000000000000000000000000000000000000006064820152608401610a4e565b610de381610f44565b50565b610dee610eea565b612710811115610e115760405163648564d360e01b815260040160405180910390fd5b606981905560405181907f063aaf80a21dd5cad9d8adcdc5a53acaa3c2de05dc44c7e2f68783a87460d7fe90600090a250565b600080606860009054906101000a90046001600160a01b03166001600160a01b0316636e9a05c56040518163ffffffff1660e01b8152600401602060405180830381865afa158015610e9a573d6000803e3d6000fd5b505050506040513d601f19601f82011682018060405250810190610ebe9190611419565b9050610d4f670de0b6b3a76400006106b385845b6000610d4f8284611432565b6000610d4f8284611451565b6033546001600160a01b0316331461093a5760405162461bcd60e51b815260206004820181905260248201527f4f776e61626c653a2063616c6c6572206973206e6f7420746865206f776e65726044820152606401610a4e565b603380546001600160a01b0383811673ffffffffffffffffffffffffffffffffffffffff19831681179093556040519116919082907f8be0079c531659141344cd1fd0a4f28419497f9722a3daafe3b4186f6b6457e090600090a35050565b600054610100900460ff1661100e5760405162461bcd60e51b815260206004820152602b60248201527f496e697469616c697a61626c653a20636f6e7472616374206973206e6f74206960448201526a6e697469616c697a696e6760a81b6064820152608401610a4e565b61093a600054610100900460ff1661107c5760405162461bcd60e51b815260206004820152602b60248201527f496e697469616c697a61626c653a20636f6e7472616374206973206e6f74206960448201526a6e697469616c697a696e6760a81b6064820152608401610a4e565b61093a33610f44565b6001600160a01b0381168114610de357600080fd5b6000602082840312156110ac57600080fd5b8135610d4f81611085565b600080604083850312156110ca57600080fd5b82356110d581611085565b915060208301356110e581611085565b809150509250929050565b60006020828403121561110257600080fd5b5035919050565b60008060006060848603121561111e57600080fd5b833561112981611085565b9250602084013561113981611085565b9150604084013561114981611085565b809150509250925092565b6000806040838503121561116757600080fd5b823561117281611085565b946020939093013593505050565b634e487b7160e01b600052600160045260246000fd5b6000602082840312156111a857600080fd5b8151610d4f81611085565b634e487b7160e01b600052604160045260246000fd5b6040516080810167ffffffffffffffff811182821017156111ec576111ec6111b3565b60405290565b604051601f8201601f1916810167ffffffffffffffff8111828210171561121b5761121b6111b3565b604052919050565b6000602080838503121561123657600080fd5b825167ffffffffffffffff8082111561124e57600080fd5b818501915085601f83011261126257600080fd5b815181811115611274576112746111b3565b611282848260051b016111f2565b818152848101925060079190911b8301840190878211156112a257600080fd5b928401925b818410156112f957608084890312156112c05760008081fd5b6112c86111c9565b84518152858501518682015260408086015190820152606080860151908201528352608090930192918401916112a7565b979650505050505050565b634e487b7160e01b600052601160045260246000fd5b60008282101561132c5761132c611304565b500390565b634e487b7160e01b600052603260045260246000fd5b6000821982111561135a5761135a611304565b500190565b600060a0828403121561137157600080fd5b60405160a0810181811067ffffffffffffffff82111715611394576113946111b3565b806040525082518152602083015160208201526040830151604082015260608301516060820152608083015160808201528091505092915050565b60008060008060008060c087890312156113e857600080fd5b865195506020870151945060408701519350606087015192506080870151915060a087015190509295509295509295565b60006020828403121561142b57600080fd5b5051919050565b600081600019048311821515161561144c5761144c611304565b500290565b60008261146e57634e487b7160e01b600052601260045260246000fd5b50049056fea2646970667358221220809b095502f575a849a670ff9cceb924a66a9a0c331793aa4acedf9b9c976d8264736f6c634300080c0033",
  "devdoc": {
    "author": "Radiant Labs",
    "details": "All function calls are currently implemented without side effects",
    "kind": "dev",
    "methods": {
      "getDqTime(address)": {
        "params": {
          "_user": "'s address"
        }
      },
      "initialize(address,address,address)": {
        "params": {
          "_lendingPool": "Address of lending pool.",
          "_middleFeeDistribution": "MiddleFeeDistribution address.",
          "_priceProvider": "PriceProvider address."
        }
      },
      "isEligibleForRewards(address)": {
        "params": {
          "_user": "'s address"
        }
      },
      "isMarketDisqualified(address)": {
        "params": {
          "_user": "'s address"
        }
      },
      "lastEligibleTime(address)": {
        "details": "If user is still eligible, it will return future time  CAUTION: this function only works perfect when the array  is ordered by lock time. This is assured when _stake happens.",
        "params": {
          "user": "'s address"
        }
      },
      "lockedUsdValue(address)": {
        "params": {
          "user": "'s address"
        }
      },
      "owner()": {
        "details": "Returns the address of the current owner."
      },
      "refresh(address)": {
        "params": {
          "user": "'s address"
        }
      },
      "renounceOwnership()": {
        "details": "Leaves the contract without owner. It will not be possible to call `onlyOwner` functions anymore. Can only be called by the current owner. NOTE: Renouncing ownership will leave the contract without an owner, thereby removing any functionality that is only available to the owner."
      },
      "requiredUsdValue(address)": {
        "params": {
          "user": "'s address"
        },
        "returns": {
          "required": "USD value."
        }
      },
      "setChefIncentivesController(address)": {
        "params": {
          "_chef": "address."
        }
      },
      "setDqTime(address,uint256)": {
        "details": "Only callable by CIC",
        "params": {
          "_time": "for DQ",
          "_user": "'s address"
        }
      },
      "setPriceToleranceRatio(uint256)": {
        "params": {
          "_priceToleranceRatio": "Ratio in bips."
        }
      },
      "setRequiredDepositRatio(uint256)": {
        "params": {
          "_requiredDepositRatio": "Ratio in bips."
        }
      },
      "transferOwnership(address)": {
        "details": "Transfers ownership of the contract to a new account (`newOwner`). Can only be called by the current owner."
      }
    },
    "title": "Eligible Deposit Provider",
    "version": 1
  },
  "userdoc": {
    "events": {
      "ChefIncentivesControllerUpdated(address)": {
        "notice": "Emitted when CIC is set"
      },
      "DqTimeUpdated(address,uint256)": {
        "notice": "Emitted when DQ time is set"
      },
      "LPTokenUpdated(address)": {
        "notice": "Emitted when LP token is set"
      },
      "PriceToleranceRatioUpdated(uint256)": {
        "notice": "Emitted when price tolerance ratio is updated"
      },
      "RequiredDepositRatioUpdated(uint256)": {
        "notice": "Emitted when required TVL ratio is updated"
      }
    },
    "kind": "user",
    "methods": {
      "RATIO_DIVISOR()": {
        "notice": "RATIO BASE equal to 100%"
      },
      "chef()": {
        "notice": "Address of CIC"
      },
      "disqualifiedTime(address)": {
        "notice": "Disqualified time of the user"
      },
      "getDqTime(address)": {
        "notice": "Returns DQ time of the user"
      },
      "initialize(address,address,address)": {
        "notice": "Constructor"
      },
      "isEligibleForRewards(address)": {
        "notice": "Returns if the user is eligible to receive rewards"
      },
      "isMarketDisqualified(address)": {
        "notice": "Is user DQed due to lock expire or price update"
      },
      "lastEligibleStatus(address)": {
        "notice": "Last eligible status of the user"
      },
      "lastEligibleTime(address)": {
        "notice": "Returns last eligible time of the user"
      },
      "lendingPool()": {
        "notice": "Address of Lending Pool"
      },
      "lockedUsdValue(address)": {
        "notice": "Returns locked RDNT and LP token value in eth"
      },
      "lpToken()": {
        "notice": "RDNT-ETH LP token"
      },
      "middleFeeDistribution()": {
        "notice": "Address of Middle fee distribution"
      },
      "priceProvider()": {
        "notice": "RDNT + LP price provider"
      },
      "priceToleranceRatio()": {
        "notice": "Ratio of the required price to still allow without disqualification; in bips"
      },
      "refresh(address)": {
        "notice": "Refresh token amount for eligibility"
      },
      "requiredDepositRatio()": {
        "notice": "Required ratio of TVL to get reward; in bips"
      },
      "requiredUsdValue(address)": {
        "notice": "Returns USD value required to be locked"
      },
      "setChefIncentivesController(address)": {
        "notice": "Set CIC"
      },
      "setDqTime(address,uint256)": {
        "notice": "Sets DQ time of the user"
      },
      "setLPToken(address)": {
        "notice": "Set LP token"
      },
      "setPriceToleranceRatio(uint256)": {
        "notice": "Sets price tolerance ratio. Can only be called by the owner."
      },
      "setRequiredDepositRatio(uint256)": {
        "notice": "Sets required tvl ratio. Can only be called by the owner."
      },
      "updatePrice()": {
        "notice": "Update token price"
      },
      "userDeposits(address,address)": {
        "notice": "User's deposits per rToken; rToken => user => amount"
      }
    },
    "version": 1
  },
  "storageLayout": {
    "storage": [
      {
        "astId": 3046,
        "contract": "contracts/radiant/eligibility/EligibilityDataProvider.sol:EligibilityDataProvider",
        "label": "_initialized",
        "offset": 0,
        "slot": "0",
        "type": "t_uint8"
      },
      {
        "astId": 3049,
        "contract": "contracts/radiant/eligibility/EligibilityDataProvider.sol:EligibilityDataProvider",
        "label": "_initializing",
        "offset": 1,
        "slot": "0",
        "type": "t_bool"
      },
      {
        "astId": 3660,
        "contract": "contracts/radiant/eligibility/EligibilityDataProvider.sol:EligibilityDataProvider",
        "label": "__gap",
        "offset": 0,
        "slot": "1",
        "type": "t_array(t_uint256)50_storage"
      },
      {
        "astId": 2918,
        "contract": "contracts/radiant/eligibility/EligibilityDataProvider.sol:EligibilityDataProvider",
        "label": "_owner",
        "offset": 0,
        "slot": "51",
        "type": "t_address"
      },
      {
        "astId": 3038,
        "contract": "contracts/radiant/eligibility/EligibilityDataProvider.sol:EligibilityDataProvider",
        "label": "__gap",
        "offset": 0,
        "slot": "52",
        "type": "t_array(t_uint256)49_storage"
      },
      {
        "astId": 41027,
        "contract": "contracts/radiant/eligibility/EligibilityDataProvider.sol:EligibilityDataProvider",
        "label": "lendingPool",
        "offset": 0,
        "slot": "101",
        "type": "t_contract(ILendingPool)16219"
      },
      {
        "astId": 41031,
        "contract": "contracts/radiant/eligibility/EligibilityDataProvider.sol:EligibilityDataProvider",
        "label": "chef",
        "offset": 0,
        "slot": "102",
        "type": "t_contract(IChefIncentivesController)15470"
      },
      {
        "astId": 41035,
        "contract": "contracts/radiant/eligibility/EligibilityDataProvider.sol:EligibilityDataProvider",
        "label": "middleFeeDistribution",
        "offset": 0,
        "slot": "103",
        "type": "t_contract(IMiddleFeeDistribution)16972"
      },
      {
        "astId": 41039,
        "contract": "contracts/radiant/eligibility/EligibilityDataProvider.sol:EligibilityDataProvider",
        "label": "priceProvider",
        "offset": 0,
        "slot": "104",
        "type": "t_contract(IPriceProvider)17364"
      },
      {
        "astId": 41042,
        "contract": "contracts/radiant/eligibility/EligibilityDataProvider.sol:EligibilityDataProvider",
        "label": "requiredDepositRatio",
        "offset": 0,
        "slot": "105",
        "type": "t_uint256"
      },
      {
        "astId": 41045,
        "contract": "contracts/radiant/eligibility/EligibilityDataProvider.sol:EligibilityDataProvider",
        "label": "priceToleranceRatio",
        "offset": 0,
        "slot": "106",
        "type": "t_uint256"
      },
      {
        "astId": 41048,
        "contract": "contracts/radiant/eligibility/EligibilityDataProvider.sol:EligibilityDataProvider",
        "label": "lpToken",
        "offset": 0,
        "slot": "107",
        "type": "t_address"
      },
      {
        "astId": 41053,
        "contract": "contracts/radiant/eligibility/EligibilityDataProvider.sol:EligibilityDataProvider",
        "label": "lastEligibleStatus",
        "offset": 0,
        "slot": "108",
        "type": "t_mapping(t_address,t_bool)"
      },
      {
        "astId": 41058,
        "contract": "contracts/radiant/eligibility/EligibilityDataProvider.sol:EligibilityDataProvider",
        "label": "disqualifiedTime",
        "offset": 0,
        "slot": "109",
        "type": "t_mapping(t_address,t_uint256)"
      },
      {
        "astId": 41062,
        "contract": "contracts/radiant/eligibility/EligibilityDataProvider.sol:EligibilityDataProvider",
        "label": "eligibleDeposits",
        "offset": 0,
        "slot": "110",
        "type": "t_mapping(t_address,t_uint256)"
      },
      {
        "astId": 41069,
        "contract": "contracts/radiant/eligibility/EligibilityDataProvider.sol:EligibilityDataProvider",
        "label": "userDeposits",
        "offset": 0,
        "slot": "111",
        "type": "t_mapping(t_address,t_mapping(t_address,t_uint256))"
      }
    ],
    "types": {
      "t_address": {
        "encoding": "inplace",
        "label": "address",
        "numberOfBytes": "20"
      },
      "t_array(t_uint256)49_storage": {
        "base": "t_uint256",
        "encoding": "inplace",
        "label": "uint256[49]",
        "numberOfBytes": "1568"
      },
      "t_array(t_uint256)50_storage": {
        "base": "t_uint256",
        "encoding": "inplace",
        "label": "uint256[50]",
        "numberOfBytes": "1600"
      },
      "t_bool": {
        "encoding": "inplace",
        "label": "bool",
        "numberOfBytes": "1"
      },
      "t_contract(IChefIncentivesController)15470": {
        "encoding": "inplace",
        "label": "contract IChefIncentivesController",
        "numberOfBytes": "20"
      },
      "t_contract(ILendingPool)16219": {
        "encoding": "inplace",
        "label": "contract ILendingPool",
        "numberOfBytes": "20"
      },
      "t_contract(IMiddleFeeDistribution)16972": {
        "encoding": "inplace",
        "label": "contract IMiddleFeeDistribution",
        "numberOfBytes": "20"
      },
      "t_contract(IPriceProvider)17364": {
        "encoding": "inplace",
        "label": "contract IPriceProvider",
        "numberOfBytes": "20"
      },
      "t_mapping(t_address,t_bool)": {
        "encoding": "mapping",
        "key": "t_address",
        "label": "mapping(address => bool)",
        "numberOfBytes": "32",
        "value": "t_bool"
      },
      "t_mapping(t_address,t_mapping(t_address,t_uint256))": {
        "encoding": "mapping",
        "key": "t_address",
        "label": "mapping(address => mapping(address => uint256))",
        "numberOfBytes": "32",
        "value": "t_mapping(t_address,t_uint256)"
      },
      "t_mapping(t_address,t_uint256)": {
        "encoding": "mapping",
        "key": "t_address",
        "label": "mapping(address => uint256)",
        "numberOfBytes": "32",
        "value": "t_uint256"
      },
      "t_uint256": {
        "encoding": "inplace",
        "label": "uint256",
        "numberOfBytes": "32"
      },
      "t_uint8": {
        "encoding": "inplace",
        "label": "uint8",
        "numberOfBytes": "1"
      }
    }
  }
}