{
  "address": "0xf1dD71F91Ae1aAE19CA04B522AdC16c6cba39B70",
  "abi": [
    {
      "anonymous": false,
      "inputs": [
        {
          "indexed": true,
          "internalType": "address",
          "name": "asset",
          "type": "address"
        },
        {
          "indexed": true,
          "internalType": "address",
          "name": "proxy",
          "type": "address"
        },
        {
          "indexed": true,
          "internalType": "address",
          "name": "implementation",
          "type": "address"
        }
      ],
      "name": "ATokenUpgraded",
      "type": "event"
    },
    {
      "anonymous": false,
      "inputs": [
        {
          "indexed": true,
          "internalType": "address",
          "name": "asset",
          "type": "address"
        }
      ],
      "name": "BorrowingDisabledOnReserve",
      "type": "event"
    },
    {
      "anonymous": false,
      "inputs": [
        {
          "indexed": true,
          "internalType": "address",
          "name": "asset",
          "type": "address"
        },
        {
          "indexed": false,
          "internalType": "bool",
          "name": "stableRateEnabled",
          "type": "bool"
        }
      ],
      "name": "BorrowingEnabledOnReserve",
      "type": "event"
    },
    {
      "anonymous": false,
      "inputs": [
        {
          "indexed": true,
          "internalType": "address",
          "name": "asset",
          "type": "address"
        },
        {
          "indexed": false,
          "internalType": "uint256",
          "name": "ltv",
          "type": "uint256"
        },
        {
          "indexed": false,
          "internalType": "uint256",
          "name": "liquidationThreshold",
          "type": "uint256"
        },
        {
          "indexed": false,
          "internalType": "uint256",
          "name": "liquidationBonus",
          "type": "uint256"
        }
      ],
      "name": "CollateralConfigurationChanged",
      "type": "event"
    },
    {
      "anonymous": false,
      "inputs": [
        {
          "indexed": true,
          "internalType": "address",
          "name": "asset",
          "type": "address"
        }
      ],
      "name": "ReserveActivated",
      "type": "event"
    },
    {
      "anonymous": false,
      "inputs": [
        {
          "indexed": true,
          "internalType": "address",
          "name": "asset",
          "type": "address"
        }
      ],
      "name": "ReserveDeactivated",
      "type": "event"
    },
    {
      "anonymous": false,
      "inputs": [
        {
          "indexed": true,
          "internalType": "address",
          "name": "asset",
          "type": "address"
        },
        {
          "indexed": false,
          "internalType": "uint256",
          "name": "decimals",
          "type": "uint256"
        }
      ],
      "name": "ReserveDecimalsChanged",
      "type": "event"
    },
    {
      "anonymous": false,
      "inputs": [
        {
          "indexed": true,
          "internalType": "address",
          "name": "asset",
          "type": "address"
        },
        {
          "indexed": false,
          "internalType": "uint256",
          "name": "factor",
          "type": "uint256"
        }
      ],
      "name": "ReserveFactorChanged",
      "type": "event"
    },
    {
      "anonymous": false,
      "inputs": [
        {
          "indexed": true,
          "internalType": "address",
          "name": "asset",
          "type": "address"
        }
      ],
      "name": "ReserveFrozen",
      "type": "event"
    },
    {
      "anonymous": false,
      "inputs": [
        {
          "indexed": true,
          "internalType": "address",
          "name": "asset",
          "type": "address"
        },
        {
          "indexed": true,
          "internalType": "address",
          "name": "aToken",
          "type": "address"
        },
        {
          "indexed": false,
          "internalType": "address",
          "name": "stableDebtToken",
          "type": "address"
        },
        {
          "indexed": false,
          "internalType": "address",
          "name": "variableDebtToken",
          "type": "address"
        },
        {
          "indexed": false,
          "internalType": "address",
          "name": "interestRateStrategyAddress",
          "type": "address"
        }
      ],
      "name": "ReserveInitialized",
      "type": "event"
    },
    {
      "anonymous": false,
      "inputs": [
        {
          "indexed": true,
          "internalType": "address",
          "name": "asset",
          "type": "address"
        },
        {
          "indexed": false,
          "internalType": "address",
          "name": "strategy",
          "type": "address"
        }
      ],
      "name": "ReserveInterestRateStrategyChanged",
      "type": "event"
    },
    {
      "anonymous": false,
      "inputs": [
        {
          "indexed": true,
          "internalType": "address",
          "name": "asset",
          "type": "address"
        }
      ],
      "name": "ReserveUnfrozen",
      "type": "event"
    },
    {
      "anonymous": false,
      "inputs": [
        {
          "indexed": true,
          "internalType": "address",
          "name": "asset",
          "type": "address"
        },
        {
          "indexed": true,
          "internalType": "address",
          "name": "proxy",
          "type": "address"
        },
        {
          "indexed": true,
          "internalType": "address",
          "name": "implementation",
          "type": "address"
        }
      ],
      "name": "StableDebtTokenUpgraded",
      "type": "event"
    },
    {
      "anonymous": false,
      "inputs": [
        {
          "indexed": true,
          "internalType": "address",
          "name": "asset",
          "type": "address"
        }
      ],
      "name": "StableRateDisabledOnReserve",
      "type": "event"
    },
    {
      "anonymous": false,
      "inputs": [
        {
          "indexed": true,
          "internalType": "address",
          "name": "asset",
          "type": "address"
        }
      ],
      "name": "StableRateEnabledOnReserve",
      "type": "event"
    },
    {
      "anonymous": false,
      "inputs": [
        {
          "indexed": true,
          "internalType": "address",
          "name": "asset",
          "type": "address"
        },
        {
          "indexed": true,
          "internalType": "address",
          "name": "proxy",
          "type": "address"
        },
        {
          "indexed": true,
          "internalType": "address",
          "name": "implementation",
          "type": "address"
        }
      ],
      "name": "VariableDebtTokenUpgraded",
      "type": "event"
    },
    {
      "inputs": [
        {
          "internalType": "address",
          "name": "asset",
          "type": "address"
        }
      ],
      "name": "activateReserve",
      "outputs": [],
      "stateMutability": "nonpayable",
      "type": "function"
    },
    {
      "inputs": [
        {
          "components": [
            {
              "internalType": "address",
              "name": "aTokenImpl",
              "type": "address"
            },
            {
              "internalType": "address",
              "name": "stableDebtTokenImpl",
              "type": "address"
            },
            {
              "internalType": "address",
              "name": "variableDebtTokenImpl",
              "type": "address"
            },
            {
              "internalType": "uint8",
              "name": "underlyingAssetDecimals",
              "type": "uint8"
            },
            {
              "internalType": "address",
              "name": "interestRateStrategyAddress",
              "type": "address"
            },
            {
              "internalType": "address",
              "name": "underlyingAsset",
              "type": "address"
            },
            {
              "internalType": "address",
              "name": "treasury",
              "type": "address"
            },
            {
              "internalType": "address",
              "name": "incentivesController",
              "type": "address"
            },
            {
              "internalType": "uint256",
              "name": "allocPoint",
              "type": "uint256"
            },
            {
              "internalType": "string",
              "name": "underlyingAssetName",
              "type": "string"
            },
            {
              "internalType": "string",
              "name": "aTokenName",
              "type": "string"
            },
            {
              "internalType": "string",
              "name": "aTokenSymbol",
              "type": "string"
            },
            {
              "internalType": "string",
              "name": "variableDebtTokenName",
              "type": "string"
            },
            {
              "internalType": "string",
              "name": "variableDebtTokenSymbol",
              "type": "string"
            },
            {
              "internalType": "string",
              "name": "stableDebtTokenName",
              "type": "string"
            },
            {
              "internalType": "string",
              "name": "stableDebtTokenSymbol",
              "type": "string"
            },
            {
              "internalType": "bytes",
              "name": "params",
              "type": "bytes"
            }
          ],
          "internalType": "struct ILendingPoolConfigurator.InitReserveInput[]",
          "name": "input",
          "type": "tuple[]"
        }
      ],
      "name": "batchInitReserve",
      "outputs": [],
      "stateMutability": "nonpayable",
      "type": "function"
    },
    {
      "inputs": [
        {
          "internalType": "address",
          "name": "asset",
          "type": "address"
        },
        {
          "internalType": "uint256",
          "name": "ltv",
          "type": "uint256"
        },
        {
          "internalType": "uint256",
          "name": "liquidationThreshold",
          "type": "uint256"
        },
        {
          "internalType": "uint256",
          "name": "liquidationBonus",
          "type": "uint256"
        }
      ],
      "name": "configureReserveAsCollateral",
      "outputs": [],
      "stateMutability": "nonpayable",
      "type": "function"
    },
    {
      "inputs": [
        {
          "internalType": "address",
          "name": "asset",
          "type": "address"
        }
      ],
      "name": "deactivateReserve",
      "outputs": [],
      "stateMutability": "nonpayable",
      "type": "function"
    },
    {
      "inputs": [
        {
          "internalType": "address",
          "name": "asset",
          "type": "address"
        }
      ],
      "name": "disableBorrowingOnReserve",
      "outputs": [],
      "stateMutability": "nonpayable",
      "type": "function"
    },
    {
      "inputs": [
        {
          "internalType": "address",
          "name": "asset",
          "type": "address"
        }
      ],
      "name": "disableReserveStableRate",
      "outputs": [],
      "stateMutability": "nonpayable",
      "type": "function"
    },
    {
      "inputs": [
        {
          "internalType": "address",
          "name": "asset",
          "type": "address"
        },
        {
          "internalType": "bool",
          "name": "stableBorrowRateEnabled",
          "type": "bool"
        }
      ],
      "name": "enableBorrowingOnReserve",
      "outputs": [],
      "stateMutability": "nonpayable",
      "type": "function"
    },
    {
      "inputs": [
        {
          "internalType": "address",
          "name": "asset",
          "type": "address"
        }
      ],
      "name": "enableReserveStableRate",
      "outputs": [],
      "stateMutability": "nonpayable",
      "type": "function"
    },
    {
      "inputs": [
        {
          "internalType": "address",
          "name": "asset",
          "type": "address"
        }
      ],
      "name": "freezeReserve",
      "outputs": [],
      "stateMutability": "nonpayable",
      "type": "function"
    },
    {
      "inputs": [
        {
          "internalType": "contract ILendingPoolAddressesProvider",
          "name": "provider",
          "type": "address"
        }
      ],
      "name": "initialize",
      "outputs": [],
      "stateMutability": "nonpayable",
      "type": "function"
    },
    {
      "inputs": [
        {
          "internalType": "bool",
          "name": "val",
          "type": "bool"
        }
      ],
      "name": "setPoolPause",
      "outputs": [],
      "stateMutability": "nonpayable",
      "type": "function"
    },
    {
      "inputs": [
        {
          "internalType": "address",
          "name": "asset",
          "type": "address"
        },
        {
          "internalType": "uint256",
          "name": "reserveFactor",
          "type": "uint256"
        }
      ],
      "name": "setReserveFactor",
      "outputs": [],
      "stateMutability": "nonpayable",
      "type": "function"
    },
    {
      "inputs": [
        {
          "internalType": "address",
          "name": "asset",
          "type": "address"
        },
        {
          "internalType": "address",
          "name": "rateStrategyAddress",
          "type": "address"
        }
      ],
      "name": "setReserveInterestRateStrategyAddress",
      "outputs": [],
      "stateMutability": "nonpayable",
      "type": "function"
    },
    {
      "inputs": [
        {
          "internalType": "address",
          "name": "asset",
          "type": "address"
        }
      ],
      "name": "unfreezeReserve",
      "outputs": [],
      "stateMutability": "nonpayable",
      "type": "function"
    },
    {
      "inputs": [
        {
          "components": [
            {
              "internalType": "address",
              "name": "asset",
              "type": "address"
            },
            {
              "internalType": "address",
              "name": "treasury",
              "type": "address"
            },
            {
              "internalType": "address",
              "name": "incentivesController",
              "type": "address"
            },
            {
              "internalType": "string",
              "name": "name",
              "type": "string"
            },
            {
              "internalType": "string",
              "name": "symbol",
              "type": "string"
            },
            {
              "internalType": "address",
              "name": "implementation",
              "type": "address"
            },
            {
              "internalType": "bytes",
              "name": "params",
              "type": "bytes"
            }
          ],
          "internalType": "struct ILendingPoolConfigurator.UpdateATokenInput",
          "name": "input",
          "type": "tuple"
        }
      ],
      "name": "updateAToken",
      "outputs": [],
      "stateMutability": "nonpayable",
      "type": "function"
    },
    {
      "inputs": [
        {
          "components": [
            {
              "internalType": "address",
              "name": "asset",
              "type": "address"
            },
            {
              "internalType": "address",
              "name": "incentivesController",
              "type": "address"
            },
            {
              "internalType": "string",
              "name": "name",
              "type": "string"
            },
            {
              "internalType": "string",
              "name": "symbol",
              "type": "string"
            },
            {
              "internalType": "address",
              "name": "implementation",
              "type": "address"
            },
            {
              "internalType": "bytes",
              "name": "params",
              "type": "bytes"
            }
          ],
          "internalType": "struct ILendingPoolConfigurator.UpdateDebtTokenInput",
          "name": "input",
          "type": "tuple"
        }
      ],
      "name": "updateStableDebtToken",
      "outputs": [],
      "stateMutability": "nonpayable",
      "type": "function"
    },
    {
      "inputs": [
        {
          "components": [
            {
              "internalType": "address",
              "name": "asset",
              "type": "address"
            },
            {
              "internalType": "address",
              "name": "incentivesController",
              "type": "address"
            },
            {
              "internalType": "string",
              "name": "name",
              "type": "string"
            },
            {
              "internalType": "string",
              "name": "symbol",
              "type": "string"
            },
            {
              "internalType": "address",
              "name": "implementation",
              "type": "address"
            },
            {
              "internalType": "bytes",
              "name": "params",
              "type": "bytes"
            }
          ],
          "internalType": "struct ILendingPoolConfigurator.UpdateDebtTokenInput",
          "name": "input",
          "type": "tuple"
        }
      ],
      "name": "updateVariableDebtToken",
      "outputs": [],
      "stateMutability": "nonpayable",
      "type": "function"
    }
  ],
  "transactionHash": "0x1fc9a0b30de553c05a5d736315cc138fc56794e257acb10c58577ce3521257be",
  "args": [],
  "numDeployments": 1,
  "solcInputHash": "d20862d9a7051998216c9f1f22667b5c",
  "bytecode": "0x60806040526000805534801561001457600080fd5b50614314806100246000396000f3fe60806040523480156200001157600080fd5b5060043610620001325760003560e01c8063ab64618611620000c0578063bf344183116200008b578063eede87c1116200006e578063eede87c1146200027b578063ef1f93731462000292578063f53a251514620002a957600080fd5b8063bf344183146200024d578063c4d66de8146200026457600080fd5b8063ab64618614620001f1578063ad4e64321462000208578063b75d6f34146200021f578063bb01c37c146200023657600080fd5b80637641f3d911620001015780637641f3d914620001955780637aca76eb14620001ac5780637c4e560b14620001c3578063a8dc0f4514620001da57600080fd5b80631d2118f914620001375780633e72a45414620001505780634b4e675314620001675780637626cde3146200017e575b600080fd5b6200014e6200014836600462003219565b620002c0565b005b6200014e6200016136600462003257565b62000446565b6200014e620001783660046200327e565b6200062b565b6200014e6200018f366004620032ad565b62000815565b6200014e620001a636600462003301565b62000b5e565b6200014e620001bd36600462003257565b62000cc6565b6200014e620001d43660046200331f565b62000ea0565b6200014e620001eb36600462003257565b620011ce565b6200014e620002023660046200335d565b620013a8565b6200014e62000219366004620032ad565b620014c6565b6200014e6200023036600462003257565b62001772565b6200014e62000247366004620033d7565b6200194c565b6200014e6200025e36600462003257565b62001c0c565b6200014e6200027536600462003257565b62001de6565b6200014e6200028c36600462003415565b62001f83565b6200014e620002a336600462003257565b6200216f565b6200014e620002ba36600462003257565b62002349565b603454604080516315d9b46f60e31b8152905133926001600160a01b03169163aecda3789160048083019260209291908290030181865afa1580156200030a573d6000803e3d6000fd5b505050506040513d601f19601f820116820180604052508101906200033091906200345c565b6001600160a01b03161460405180604001604052806002815260200161333360f01b815250906200037f5760405162461bcd60e51b8152600401620003769190620034cc565b60405180910390fd5b506035546040517f1d2118f90000000000000000000000000000000000000000000000000000000081526001600160a01b038481166004830152838116602483015290911690631d2118f990604401600060405180830381600087803b158015620003e957600080fd5b505af1158015620003fe573d6000803e3d6000fd5b50506040516001600160a01b038481168252851692507f5644b64ebb0ce18c4032248ca52f58355469092ff072866c3dcd8640e817d6a5915060200160405180910390a25050565b603454604080516315d9b46f60e31b8152905133926001600160a01b03169163aecda3789160048083019260209291908290030181865afa15801562000490573d6000803e3d6000fd5b505050506040513d601f19601f82011682018060405250810190620004b691906200345c565b6001600160a01b03161460405180604001604052806002815260200161333360f01b81525090620004fc5760405162461bcd60e51b8152600401620003769190620034cc565b50620005088162002523565b60355460405163c44b11f760e01b81526001600160a01b038381166004830152600092169063c44b11f790602401602060405180830381865afa15801562000554573d6000803e3d6000fd5b505050506040513d601f19601f820116820180604052508101906200057a91906200356c565b905062000589816000620026bd565b6035548151604051635c69493b60e11b81526001600160a01b038581166004830152602482019290925291169063b8d2927690604401600060405180830381600087803b158015620005da57600080fd5b505af1158015620005ef573d6000803e3d6000fd5b50506040516001600160a01b03851692507f6f60cf8bd0f218cabe1ea3150bd07b0b758c35c4cfdf7138017a283e65564d5e9150600090a25050565b603454604080516315d9b46f60e31b8152905133926001600160a01b03169163aecda3789160048083019260209291908290030181865afa15801562000675573d6000803e3d6000fd5b505050506040513d601f19601f820116820180604052508101906200069b91906200345c565b6001600160a01b03161460405180604001604052806002815260200161333360f01b81525090620006e15760405162461bcd60e51b8152600401620003769190620034cc565b5060355460405163c44b11f760e01b81526001600160a01b038481166004830152600092169063c44b11f790602401602060405180830381865afa1580156200072e573d6000803e3d6000fd5b505050506040513d601f19601f820116820180604052508101906200075491906200356c565b9050620007628183620026ed565b6035548151604051635c69493b60e11b81526001600160a01b038681166004830152602482019290925291169063b8d2927690604401600060405180830381600087803b158015620007b357600080fd5b505af1158015620007c8573d6000803e3d6000fd5b50505050826001600160a01b03167f2694ccb0b585b6a54b8d8b4a47aa874b05c257b43d34e98aee50838be00d3405836040516200080891815260200190565b60405180910390a2505050565b603454604080516315d9b46f60e31b8152905133926001600160a01b03169163aecda3789160048083019260209291908290030181865afa1580156200085f573d6000803e3d6000fd5b505050506040513d601f19601f820116820180604052508101906200088591906200345c565b6001600160a01b03161460405180604001604052806002815260200161333360f01b81525090620008cb5760405162461bcd60e51b8152600401620003769190620034cc565b506035546001600160a01b03166000816335ea6a75620008ef602086018662003257565b6040516001600160e01b031960e084901b1681526001600160a01b03909116600482015260240161018060405180830381865afa15801562000935573d6000803e3d6000fd5b505050506040513d601f19601f820116820180604052508101906200095b9190620035df565b9050600062000a176001600160a01b03841663c44b11f762000981602088018862003257565b6040516001600160e01b031960e084901b1681526001600160a01b039091166004820152602401602060405180830381865afa158015620009c6573d6000803e3d6000fd5b505050506040513d601f19601f82011682018060405250810190620009ec91906200356c565b5161ffff80821692601083901c821692602081901c831692603082901c60ff169260409290921c1690565b50935060009250636111764560e11b915085905062000a3a602088018862003257565b62000a4c6040890160208a0162003257565b8562000a5c60408b018b620036e7565b62000a6b60608d018d620036e7565b62000a7a60a08f018f620036e7565b60405160240162000a959a9998979695949392919062003761565b60408051601f198184030181529190526020810180516001600160e01b03166001600160e01b03199093169290921790915261010084015190915062000aee9062000ae760a088016080890162003257565b8362002762565b62000b0060a086016080870162003257565b6101008401516001600160a01b03918216911662000b22602088018862003257565b6001600160a01b03167f7a943a5b6c214bf7726c069a878b1e2a8e7371981d516048b84e03743e67bc2860405160405180910390a45050505050565b603454604080517fddcaa9ea000000000000000000000000000000000000000000000000000000008152905133926001600160a01b03169163ddcaa9ea9160048083019260209291908290030181865afa15801562000bc1573d6000803e3d6000fd5b505050506040513d601f19601f8201168201806040525081019062000be791906200345c565b6001600160a01b0316146040518060400160405280600281526020017f37360000000000000000000000000000000000000000000000000000000000008152509062000c485760405162461bcd60e51b8152600401620003769190620034cc565b506035546040517fbedb86fb00000000000000000000000000000000000000000000000000000000815282151560048201526001600160a01b039091169063bedb86fb90602401600060405180830381600087803b15801562000caa57600080fd5b505af115801562000cbf573d6000803e3d6000fd5b5050505050565b603454604080516315d9b46f60e31b8152905133926001600160a01b03169163aecda3789160048083019260209291908290030181865afa15801562000d10573d6000803e3d6000fd5b505050506040513d601f19601f8201168201806040525081019062000d3691906200345c565b6001600160a01b03161460405180604001604052806002815260200161333360f01b8152509062000d7c5760405162461bcd60e51b8152600401620003769190620034cc565b5060355460405163c44b11f760e01b81526001600160a01b038381166004830152600092169063c44b11f790602401602060405180830381865afa15801562000dc9573d6000803e3d6000fd5b505050506040513d601f19601f8201168201806040525081019062000def91906200356c565b905062000dfe816001620027e7565b6035548151604051635c69493b60e11b81526001600160a01b038581166004830152602482019290925291169063b8d2927690604401600060405180830381600087803b15801562000e4f57600080fd5b505af115801562000e64573d6000803e3d6000fd5b50506040516001600160a01b03851692507f85dc710add8a0914461a7dc5a63f6fc529a7700f8c6089a3faf5e93256ccf12a9150600090a25050565b603454604080516315d9b46f60e31b8152905133926001600160a01b03169163aecda3789160048083019260209291908290030181865afa15801562000eea573d6000803e3d6000fd5b505050506040513d601f19601f8201168201806040525081019062000f1091906200345c565b6001600160a01b03161460405180604001604052806002815260200161333360f01b8152509062000f565760405162461bcd60e51b8152600401620003769190620034cc565b5060355460405163c44b11f760e01b81526001600160a01b038681166004830152600092169063c44b11f790602401602060405180830381865afa15801562000fa3573d6000803e3d6000fd5b505050506040513d601f19601f8201168201806040525081019062000fc991906200356c565b90508284111560405180604001604052806002815260200161373560f01b815250906200100b5760405162461bcd60e51b8152600401620003769190620034cc565b508215620010a657604080518082019091526002815261373560f01b60208201526127108311620010515760405162461bcd60e51b8152600401620003769190620034cc565b5061271062001061848462002817565b111560405180604001604052806002815260200161373560f01b815250906200109f5760405162461bcd60e51b8152600401620003769190620034cc565b50620010ed565b604080518082019091526002815261373560f01b60208201528215620010e15760405162461bcd60e51b8152600401620003769190620034cc565b50620010ed8562002523565b620010f98185620028f6565b6200110581846200295d565b620011118183620029cc565b6035548151604051635c69493b60e11b81526001600160a01b038881166004830152602482019290925291169063b8d2927690604401600060405180830381600087803b1580156200116257600080fd5b505af115801562001177573d6000803e3d6000fd5b505060408051878152602081018790529081018590526001600160a01b03881692507f637febbda9275aea2e85c0ff690444c8d87eb2e8339bbede9715abcc89cb0995915060600160405180910390a25050505050565b603454604080516315d9b46f60e31b8152905133926001600160a01b03169163aecda3789160048083019260209291908290030181865afa15801562001218573d6000803e3d6000fd5b505050506040513d601f19601f820116820180604052508101906200123e91906200345c565b6001600160a01b03161460405180604001604052806002815260200161333360f01b81525090620012845760405162461bcd60e51b8152600401620003769190620034cc565b5060355460405163c44b11f760e01b81526001600160a01b038381166004830152600092169063c44b11f790602401602060405180830381865afa158015620012d1573d6000803e3d6000fd5b505050506040513d601f19601f82011682018060405250810190620012f791906200356c565b90506200130681600062002a3d565b6035548151604051635c69493b60e11b81526001600160a01b038581166004830152602482019290925291169063b8d2927690604401600060405180830381600087803b1580156200135757600080fd5b505af11580156200136c573d6000803e3d6000fd5b50506040516001600160a01b03851692507fe9a7e5fd4fc8ea18e602350324bf48e8f05d12434af0ce0be05743e6a5fdcb9e9150600090a25050565b603454604080516315d9b46f60e31b8152905133926001600160a01b03169163aecda3789160048083019260209291908290030181865afa158015620013f2573d6000803e3d6000fd5b505050506040513d601f19601f820116820180604052508101906200141891906200345c565b6001600160a01b03161460405180604001604052806002815260200161333360f01b815250906200145e5760405162461bcd60e51b8152600401620003769190620034cc565b506035546001600160a01b031660005b82811015620014c057620014ab82858584818110620014915762001491620037db565b9050602002810190620014a59190620037f1565b62002a6d565b80620014b78162003829565b9150506200146e565b50505050565b603454604080516315d9b46f60e31b8152905133926001600160a01b03169163aecda3789160048083019260209291908290030181865afa15801562001510573d6000803e3d6000fd5b505050506040513d601f19601f820116820180604052508101906200153691906200345c565b6001600160a01b03161460405180604001604052806002815260200161333360f01b815250906200157c5760405162461bcd60e51b8152600401620003769190620034cc565b506035546001600160a01b03166000816335ea6a75620015a0602086018662003257565b6040516001600160e01b031960e084901b1681526001600160a01b03909116600482015260240161018060405180830381865afa158015620015e6573d6000803e3d6000fd5b505050506040513d601f19601f820116820180604052508101906200160c9190620035df565b90506000620016326001600160a01b03841663c44b11f762000981602088018862003257565b50935060009250636111764560e11b915085905062001655602088018862003257565b620016676040890160208a0162003257565b856200167760408b018b620036e7565b6200168660608d018d620036e7565b6200169560a08f018f620036e7565b604051602401620016b09a9998979695949392919062003761565b60408051601f198184030181529190526020810180516001600160e01b03166001600160e01b031990931692909217909152610120840151909150620017029062000ae760a088016080890162003257565b6200171460a086016080870162003257565b6101208401516001600160a01b03918216911662001736602088018862003257565b6001600160a01b03167f9439658a562a5c46b1173589df89cf001483d685bad28aedaff4a88656292d8160405160405180910390a45050505050565b603454604080516315d9b46f60e31b8152905133926001600160a01b03169163aecda3789160048083019260209291908290030181865afa158015620017bc573d6000803e3d6000fd5b505050506040513d601f19601f82011682018060405250810190620017e291906200345c565b6001600160a01b03161460405180604001604052806002815260200161333360f01b81525090620018285760405162461bcd60e51b8152600401620003769190620034cc565b5060355460405163c44b11f760e01b81526001600160a01b038381166004830152600092169063c44b11f790602401602060405180830381865afa15801562001875573d6000803e3d6000fd5b505050506040513d601f19601f820116820180604052508101906200189b91906200356c565b9050620018aa816001620026bd565b6035548151604051635c69493b60e11b81526001600160a01b038581166004830152602482019290925291169063b8d2927690604401600060405180830381600087803b158015620018fb57600080fd5b505af115801562001910573d6000803e3d6000fd5b50506040516001600160a01b03851692507f35b80cd8ea3440e9a8454f116fa658b858da1b64c86c48451f4559cefcdfb56c9150600090a25050565b603454604080516315d9b46f60e31b8152905133926001600160a01b03169163aecda3789160048083019260209291908290030181865afa15801562001996573d6000803e3d6000fd5b505050506040513d601f19601f82011682018060405250810190620019bc91906200345c565b6001600160a01b03161460405180604001604052806002815260200161333360f01b8152509062001a025760405162461bcd60e51b8152600401620003769190620034cc565b506035546001600160a01b03166000816335ea6a7562001a26602086018662003257565b6040516001600160e01b031960e084901b1681526001600160a01b03909116600482015260240161018060405180830381865afa15801562001a6c573d6000803e3d6000fd5b505050506040513d601f19601f8201168201806040525081019062001a929190620035df565b9050600062001ab86001600160a01b03841663c44b11f762000981602088018862003257565b5093506000925063183fb41360e01b915085905062001ade604088016020890162003257565b62001aed602089018962003257565b62001aff60608a0160408b0162003257565b8662001b0f60608c018c620036e7565b62001b1e60808e018e620036e7565b8e8060c0019062001b309190620036e7565b60405160240162001b4c9b9a9998979695949392919062003847565b60408051601f198184030181529190526020810180516001600160e01b03166001600160e01b03199093169290921790915260e084015190915062001b9d9062000ae760c0880160a0890162003257565b62001baf60c0860160a0870162003257565b60e08401516001600160a01b03918216911662001bd0602088018862003257565b6001600160a01b03167fa76f65411ec66a7fb6bc467432eb14767900449ae4469fa295e4441fe5e1cb7360405160405180910390a45050505050565b603454604080516315d9b46f60e31b8152905133926001600160a01b03169163aecda3789160048083019260209291908290030181865afa15801562001c56573d6000803e3d6000fd5b505050506040513d601f19601f8201168201806040525081019062001c7c91906200345c565b6001600160a01b03161460405180604001604052806002815260200161333360f01b8152509062001cc25760405162461bcd60e51b8152600401620003769190620034cc565b5060355460405163c44b11f760e01b81526001600160a01b038381166004830152600092169063c44b11f790602401602060405180830381865afa15801562001d0f573d6000803e3d6000fd5b505050506040513d601f19601f8201168201806040525081019062001d3591906200356c565b905062001d4481600162003089565b6035548151604051635c69493b60e11b81526001600160a01b038581166004830152602482019290925291169063b8d2927690604401600060405180830381600087803b15801562001d9557600080fd5b505af115801562001daa573d6000803e3d6000fd5b50506040516001600160a01b03851692507f8dee2b2f3e98319ae6347eda521788f73f4086c9be9a594942b370b137fb8cb19150600090a25050565b6001805460ff168062001df85750303b155b8062001e05575060005481115b62001e795760405162461bcd60e51b815260206004820152602e60248201527f436f6e747261637420696e7374616e63652068617320616c726561647920626560448201527f656e20696e697469616c697a6564000000000000000000000000000000000000606482015260840162000376565b60015460ff1615801562001e99576001805460ff19168117905560008290555b6034805473ffffffffffffffffffffffffffffffffffffffff19166001600160a01b038516908117909155604080517f0261bf8b0000000000000000000000000000000000000000000000000000000081529051630261bf8b916004808201926020929091908290030181865afa15801562001f19573d6000803e3d6000fd5b505050506040513d601f19601f8201168201806040525081019062001f3f91906200345c565b6035805473ffffffffffffffffffffffffffffffffffffffff19166001600160a01b0392909216919091179055801562001f7e576001805460ff191690555b505050565b603454604080516315d9b46f60e31b8152905133926001600160a01b03169163aecda3789160048083019260209291908290030181865afa15801562001fcd573d6000803e3d6000fd5b505050506040513d601f19601f8201168201806040525081019062001ff391906200345c565b6001600160a01b03161460405180604001604052806002815260200161333360f01b81525090620020395760405162461bcd60e51b8152600401620003769190620034cc565b5060355460405163c44b11f760e01b81526001600160a01b038481166004830152600092169063c44b11f790602401602060405180830381865afa15801562002086573d6000803e3d6000fd5b505050506040513d601f19601f82011682018060405250810190620020ac91906200356c565b9050620020bb81600162002a3d565b620020c7818362003089565b6035548151604051635c69493b60e11b81526001600160a01b038681166004830152602482019290925291169063b8d2927690604401600060405180830381600087803b1580156200211857600080fd5b505af11580156200212d573d6000803e3d6000fd5b50505050826001600160a01b03167fab2f7f9e5ca2772fafa94f355c1842a80ae6b9e41f83083098d81f67d7a0b5088360405162000808911515815260200190565b603454604080516315d9b46f60e31b8152905133926001600160a01b03169163aecda3789160048083019260209291908290030181865afa158015620021b9573d6000803e3d6000fd5b505050506040513d601f19601f82011682018060405250810190620021df91906200345c565b6001600160a01b03161460405180604001604052806002815260200161333360f01b81525090620022255760405162461bcd60e51b8152600401620003769190620034cc565b5060355460405163c44b11f760e01b81526001600160a01b038381166004830152600092169063c44b11f790602401602060405180830381865afa15801562002272573d6000803e3d6000fd5b505050506040513d601f19601f820116820180604052508101906200229891906200356c565b9050620022a7816000620027e7565b6035548151604051635c69493b60e11b81526001600160a01b038581166004830152602482019290925291169063b8d2927690604401600060405180830381600087803b158015620022f857600080fd5b505af11580156200230d573d6000803e3d6000fd5b50506040516001600160a01b03851692507f838ecdc4709a31a26db48b0c853212cedde3f725f07030079d793fb0719647609150600090a25050565b603454604080516315d9b46f60e31b8152905133926001600160a01b03169163aecda3789160048083019260209291908290030181865afa15801562002393573d6000803e3d6000fd5b505050506040513d601f19601f82011682018060405250810190620023b991906200345c565b6001600160a01b03161460405180604001604052806002815260200161333360f01b81525090620023ff5760405162461bcd60e51b8152600401620003769190620034cc565b5060355460405163c44b11f760e01b81526001600160a01b038381166004830152600092169063c44b11f790602401602060405180830381865afa1580156200244c573d6000803e3d6000fd5b505050506040513d601f19601f820116820180604052508101906200247291906200356c565b90506200248181600062003089565b6035548151604051635c69493b60e11b81526001600160a01b038581166004830152602482019290925291169063b8d2927690604401600060405180830381600087803b158015620024d257600080fd5b505af1158015620024e7573d6000803e3d6000fd5b50506040516001600160a01b03851692507f8bbf35441ac2c607ddecadd3d8ee58636d32f217fad201fb2655581502dd84e39150600090a25050565b6035546040517f35ea6a750000000000000000000000000000000000000000000000000000000081526001600160a01b03838116600483015260009216906335ea6a759060240161018060405180830381865afa15801562002589573d6000803e3d6000fd5b505050506040513d601f19601f82011682018060405250810190620025af9190620035df565b60e08101516040517f70a082310000000000000000000000000000000000000000000000000000000081526001600160a01b039182166004820152919250600091908416906370a0823190602401602060405180830381865afa1580156200261b573d6000803e3d6000fd5b505050506040513d601f19601f82011682018060405250810190620026419190620038cd565b90508015801562002666575060608201516fffffffffffffffffffffffffffffffff16155b6040518060400160405280600281526020017f333400000000000000000000000000000000000000000000000000000000000081525090620014c05760405162461bcd60e51b8152600401620003769190620034cc565b603881620026cd576000620026d0565b60015b8351670100000000000000191660ff9190911690911b1790915250565b60408051808201909152600281527f3731000000000000000000000000000000000000000000000000000000000000602082015261ffff821115620027475760405162461bcd60e51b8152600401620003769190620034cc565b50815169ffff0000000000000000191660409190911b179052565b6040517f4f1ef28600000000000000000000000000000000000000000000000000000000815283906001600160a01b03821690634f1ef28690620027ad9086908690600401620038e7565b600060405180830381600087803b158015620027c857600080fd5b505af1158015620027dd573d6000803e3d6000fd5b5050505050505050565b603981620027f7576000620027fa565b60015b8351670200000000000000191660ff9190911690911b1790915250565b600082158062002825575081155b156200283457506000620028f0565b8162002844600261271062003913565b620028529060001962003936565b6200285e919062003913565b8311156040518060400160405280600281526020017f343800000000000000000000000000000000000000000000000000000000000081525090620028b85760405162461bcd60e51b8152600401620003769190620034cc565b50612710620028c960028262003913565b620028d5848662003950565b620028e1919062003972565b620028ed919062003913565b90505b92915050565b60408051808201909152600281527f3637000000000000000000000000000000000000000000000000000000000000602082015261ffff821115620029505760405162461bcd60e51b8152600401620003769190620034cc565b50815161ffff1916179052565b60408051808201909152600281527f3638000000000000000000000000000000000000000000000000000000000000602082015261ffff821115620029b75760405162461bcd60e51b8152600401620003769190620034cc565b50815163ffff0000191660109190911b179052565b60408051808201909152600281527f3639000000000000000000000000000000000000000000000000000000000000602082015261ffff82111562002a265760405162461bcd60e51b8152600401620003769190620034cc565b50815165ffff00000000191660209190911b179052565b603a8162002a4d57600062002a50565b60015b8351670400000000000000191660ff9190911690911b1790915250565b600062002a82610100830160e0840162003257565b9050600062002b6062002a99602085018562003257565b63183fb41360e01b8662002ab460e0880160c0890162003257565b62002ac660c0890160a08a0162003257565b8762002ad960808b0160608c016200398d565b62002ae96101408c018c620036e7565b62002af96101608e018e620036e7565b8e80610200019062002b0c9190620036e7565b60405160240162002b289b9a99989796959493929190620039ad565b60408051601f198184030181529190526020810180516001600160e01b03166001600160e01b031990931692909217909152620030b9565b604051631954e55d60e11b81526001600160a01b0380831660048301526101008601356024830152919250908316906332a9caba90604401600060405180830381600087803b15801562002bb357600080fd5b505af115801562002bc8573d6000803e3d6000fd5b5062002bdf9250505060e0840160c0850162003257565b6040517f9c9b2e210000000000000000000000000000000000000000000000000000000081526001600160a01b0383811660048301529190911690639c9b2e2190602401600060405180830381600087803b15801562002c3e57600080fd5b505af115801562002c53573d6000803e3d6000fd5b50505050600062002d0084602001602081019062002c72919062003257565b636111764560e11b8762002c8d60c0890160a08a0162003257565b62002ca06101008a0160e08b0162003257565b62002cb260808b0160608c016200398d565b62002cc26101c08c018c620036e7565b62002cd26101e08e018e620036e7565b8e80610200019062002ce59190620036e7565b60405160240162002b289a99989796959493929190620039f6565b9050600062002d8d62002d1a606087016040880162003257565b636111764560e11b8862002d3560c08a0160a08b0162003257565b62002d486101008b0160e08c0162003257565b62002d5a60808c0160608d016200398d565b62002d6a6101808d018d620036e7565b62002d7a6101a08f018f620036e7565b8f80610200019062002ce59190620036e7565b604051631954e55d60e11b81526001600160a01b0380831660048301526101008801356024830152919250908516906332a9caba90604401600060405180830381600087803b15801562002de057600080fd5b505af115801562002df5573d6000803e3d6000fd5b5050506001600160a01b0387169050637a708e9262002e1b60c0880160a0890162003257565b85858562002e3060a08c0160808d0162003257565b60405160e087901b6001600160e01b03191681526001600160a01b0395861660048201529385166024850152918416604484015283166064830152909116608482015260a401600060405180830381600087803b15801562002e9157600080fd5b505af115801562002ea6573d6000803e3d6000fd5b506000925050506001600160a01b03871663c44b11f762002ece60c0890160a08a0162003257565b6040516001600160e01b031960e084901b1681526001600160a01b039091166004820152602401602060405180830381865afa15801562002f13573d6000803e3d6000fd5b505050506040513d601f19601f8201168201806040525081019062002f3991906200356c565b905062002f5c62002f5160808801606089016200398d565b829060ff1662003181565b62002f69816001620026bd565b62002f76816000620027e7565b6035546001600160a01b031663b8d2927662002f9960c0890160a08a0162003257565b835160405160e084901b6001600160e01b03191681526001600160a01b0390921660048301526024820152604401600060405180830381600087803b15801562002fe257600080fd5b505af115801562002ff7573d6000803e3d6000fd5b5050506001600160a01b03851690506200301860c0880160a0890162003257565b6001600160a01b03167f3a0ca721fc364424566385a1aa271ed508cc2c0949c2272575fb3013a163a45f85856200305660a08c0160808d0162003257565b604080516001600160a01b039485168152928416602084015292168183015290519081900360600190a350505050505050565b603b81620030995760006200309c565b60015b8351670800000000000000191660ff9190911690911b1790915250565b60008030604051620030cb90620031f2565b6001600160a01b039091168152602001604051809103906000f080158015620030f8573d6000803e3d6000fd5b506040517fd1f578940000000000000000000000000000000000000000000000000000000081529091506001600160a01b0382169063d1f5789490620031459087908790600401620038e7565b600060405180830381600087803b1580156200316057600080fd5b505af115801562003175573d6000803e3d6000fd5b50929695505050505050565b60408051808201909152600281527f3730000000000000000000000000000000000000000000000000000000000000602082015260ff821115620031da5760405162461bcd60e51b8152600401620003769190620034cc565b50815166ff000000000000191660309190911b179052565b6108a88062003a3783390190565b6001600160a01b03811681146200321657600080fd5b50565b600080604083850312156200322d57600080fd5b82356200323a8162003200565b915060208301356200324c8162003200565b809150509250929050565b6000602082840312156200326a57600080fd5b8135620032778162003200565b9392505050565b600080604083850312156200329257600080fd5b82356200329f8162003200565b946020939093013593505050565b600060208284031215620032c057600080fd5b813567ffffffffffffffff811115620032d857600080fd5b820160c081850312156200327757600080fd5b80358015158114620032fc57600080fd5b919050565b6000602082840312156200331457600080fd5b620028ed82620032eb565b600080600080608085870312156200333657600080fd5b8435620033438162003200565b966020860135965060408601359560600135945092505050565b600080602083850312156200337157600080fd5b823567ffffffffffffffff808211156200338a57600080fd5b818501915085601f8301126200339f57600080fd5b813581811115620033af57600080fd5b8660208260051b8501011115620033c557600080fd5b60209290920196919550909350505050565b600060208284031215620033ea57600080fd5b813567ffffffffffffffff8111156200340257600080fd5b820160e081850312156200327757600080fd5b600080604083850312156200342957600080fd5b8235620034368162003200565b91506200344660208401620032eb565b90509250929050565b8051620032fc8162003200565b6000602082840312156200346f57600080fd5b8151620032778162003200565b6000815180845260005b81811015620034a45760208185018101518683018201520162003486565b81811115620034b7576000602083870101525b50601f01601f19169290920160200192915050565b602081526000620028ed60208301846200347c565b604051610180810167ffffffffffffffff811182821017156200351457634e487b7160e01b600052604160045260246000fd5b60405290565b6000602082840312156200352d57600080fd5b6040516020810181811067ffffffffffffffff821117156200355f57634e487b7160e01b600052604160045260246000fd5b6040529151825250919050565b6000602082840312156200357f57600080fd5b620028ed83836200351a565b80516fffffffffffffffffffffffffffffffff81168114620032fc57600080fd5b805164ffffffffff81168114620032fc57600080fd5b60ff811681146200321657600080fd5b8051620032fc81620035c2565b60006101808284031215620035f357600080fd5b620035fd620034e1565b6200360984846200351a565b815262003619602084016200358b565b60208201526200362c604084016200358b565b60408201526200363f606084016200358b565b606082015262003652608084016200358b565b60808201526200366560a084016200358b565b60a08201526200367860c08401620035ac565b60c08201526200368b60e084016200344f565b60e0820152610100620036a08185016200344f565b90820152610120620036b48482016200344f565b90820152610140620036c88482016200344f565b90820152610160620036dc848201620035d2565b908201529392505050565b6000808335601e19843603018112620036ff57600080fd5b83018035915067ffffffffffffffff8211156200371b57600080fd5b6020019150368190038213156200373157600080fd5b9250929050565b81835281816020850137506000828201602090810191909152601f909101601f19169091010190565b60006001600160a01b03808d168352808c166020840152808b1660408401525088606083015260e060808301526200379e60e08301888a62003738565b82810360a0840152620037b381878962003738565b905082810360c0840152620037ca81858762003738565b9d9c50505050505050505050505050565b634e487b7160e01b600052603260045260246000fd5b6000823561021e198336030181126200380957600080fd5b9190910192915050565b634e487b7160e01b600052601160045260246000fd5b600060001982141562003840576200384062003813565b5060010190565b60006101006001600160a01b03808f168452808e166020850152808d166040850152808c166060850152508960808401528060a08401526200388d818401898b62003738565b905082810360c0840152620038a481878962003738565b905082810360e0840152620038bb81858762003738565b9e9d5050505050505050505050505050565b600060208284031215620038e057600080fd5b5051919050565b6001600160a01b03831681526040602082015260006200390b60408301846200347c565b949350505050565b6000826200393157634e487b7160e01b600052601260045260246000fd5b500490565b6000828210156200394b576200394b62003813565b500390565b60008160001904831182151516156200396d576200396d62003813565b500290565b6000821982111562003988576200398862003813565b500190565b600060208284031215620039a057600080fd5b81356200327781620035c2565b60006101006001600160a01b03808f168452808e166020850152808d166040850152808c1660608501525060ff8a1660808401528060a08401526200388d818401898b62003738565b60006001600160a01b03808d168352808c166020840152808b1660408401525060ff8916606083015260e060808301526200379e60e08301888a6200373856fe60a060405234801561001057600080fd5b506040516108a83803806108a883398101604081905261002f91610040565b6001600160a01b0316608052610070565b60006020828403121561005257600080fd5b81516001600160a01b038116811461006957600080fd5b9392505050565b6080516107fa6100ae600039600081816101350152818161017a01528181610233015281816103a9015281816103d2015261051101526107fa6000f3fe60806040526004361061005a5760003560e01c80635c60da1b116100435780635c60da1b14610097578063d1f57894146100c8578063f851a440146100db5761005a565b80633659cfe6146100645780634f1ef28614610084575b6100626100f0565b005b34801561007057600080fd5b5061006261007f3660046105c1565b61012a565b6100626100923660046105e3565b61016f565b3480156100a357600080fd5b506100ac610226565b6040516001600160a01b03909116815260200160405180910390f35b6100626100d636600461067c565b61028a565b3480156100e757600080fd5b506100ac61039c565b6100f86103f4565b6101286101237f360894a13ba1a3210667c828492db98dca3e2076cc3735a920a3ca505d382bbc5490565b6103fc565b565b336001600160a01b037f00000000000000000000000000000000000000000000000000000000000000001614156101675761016481610420565b50565b6101646100f0565b336001600160a01b037f0000000000000000000000000000000000000000000000000000000000000000161415610219576101a983610420565b6000836001600160a01b031683836040516101c592919061073e565b600060405180830381855af49150503d8060008114610200576040519150601f19603f3d011682016040523d82523d6000602084013e610205565b606091505b505090508061021357600080fd5b50505050565b6102216100f0565b505050565b6000336001600160a01b037f000000000000000000000000000000000000000000000000000000000000000016141561027f57507f360894a13ba1a3210667c828492db98dca3e2076cc3735a920a3ca505d382bbc5490565b6102876100f0565b90565b60006102b47f360894a13ba1a3210667c828492db98dca3e2076cc3735a920a3ca505d382bbc5490565b6001600160a01b0316146102c757600080fd5b6102f260017f360894a13ba1a3210667c828492db98dca3e2076cc3735a920a3ca505d382bbd61074e565b7f360894a13ba1a3210667c828492db98dca3e2076cc3735a920a3ca505d382bbc1461032057610320610773565b61032982610460565b805115610398576000826001600160a01b03168260405161034a9190610789565b600060405180830381855af49150503d8060008114610385576040519150601f19603f3d011682016040523d82523d6000602084013e61038a565b606091505b505090508061022157600080fd5b5050565b6000336001600160a01b037f000000000000000000000000000000000000000000000000000000000000000016141561027f57507f000000000000000000000000000000000000000000000000000000000000000090565b610128610506565b3660008037600080366000845af43d6000803e80801561041b573d6000f35b3d6000fd5b61042981610460565b6040516001600160a01b038216907fbc7cd75a20ee27fd9adebab32041f755214dbc6bffa90cc0225b39da2e5c2d3b90600090a250565b6001600160a01b0381163b6104e25760405162461bcd60e51b815260206004820152603b60248201527f43616e6e6f742073657420612070726f787920696d706c656d656e746174696f60448201527f6e20746f2061206e6f6e2d636f6e74726163742061646472657373000000000060648201526084015b60405180910390fd5b7f360894a13ba1a3210667c828492db98dca3e2076cc3735a920a3ca505d382bbc55565b336001600160a01b037f00000000000000000000000000000000000000000000000000000000000000001614156101285760405162461bcd60e51b815260206004820152603260248201527f43616e6e6f742063616c6c2066616c6c6261636b2066756e6374696f6e20667260448201527f6f6d207468652070726f78792061646d696e000000000000000000000000000060648201526084016104d9565b80356001600160a01b03811681146105bc57600080fd5b919050565b6000602082840312156105d357600080fd5b6105dc826105a5565b9392505050565b6000806000604084860312156105f857600080fd5b610601846105a5565b9250602084013567ffffffffffffffff8082111561061e57600080fd5b818601915086601f83011261063257600080fd5b81358181111561064157600080fd5b87602082850101111561065357600080fd5b6020830194508093505050509250925092565b634e487b7160e01b600052604160045260246000fd5b6000806040838503121561068f57600080fd5b610698836105a5565b9150602083013567ffffffffffffffff808211156106b557600080fd5b818501915085601f8301126106c957600080fd5b8135818111156106db576106db610666565b604051601f8201601f19908116603f0116810190838211818310171561070357610703610666565b8160405282815288602084870101111561071c57600080fd5b8260208601602083013760006020848301015280955050505050509250929050565b8183823760009101908152919050565b60008282101561076e57634e487b7160e01b600052601160045260246000fd5b500390565b634e487b7160e01b600052600160045260246000fd5b6000825160005b818110156107aa5760208186018101518583015201610790565b818111156107b9576000828501525b50919091019291505056fea264697066735822122042e28d728a899bce17dd811b4fea918cccc026ea931fafa4186c5407bbe6da0864736f6c634300080c0033a2646970667358221220564673b9c5fa79cbe8ced61f3e9cc14cef41e5fe0c990f0fc0561ddc1fc7984364736f6c634300080c0033",
  "libraries": {
    "ValidationLogic": "0x12bb140ce68e307A665810a2688F01eCD06350B8",
    "ReserveLogic": "0xC6c7BbF30464c783D451A234DE050e31a8875Ac8"
  },
  "devdoc": {
    "author": "Aave",
    "details": "Implements the configuration methods for the Aave protocol*",
    "kind": "dev",
    "methods": {
      "activateReserve(address)": {
        "details": "Activates a reserve",
        "params": {
          "asset": "The address of the underlying asset of the reserve*"
        }
      },
      "batchInitReserve((address,address,address,uint8,address,address,address,address,uint256,string,string,string,string,string,string,string,bytes)[])": {
        "details": "Initializes reserves in batch*"
      },
      "configureReserveAsCollateral(address,uint256,uint256,uint256)": {
        "details": "Configures the reserve collateralization parameters all the values are expressed in percentages with two decimals of precision. A valid value is 10000, which means 100.00%",
        "params": {
          "asset": "The address of the underlying asset of the reserve",
          "liquidationBonus": "The bonus liquidators receive to liquidate this asset. The values is always above 100%. A value of 105% means the liquidator will receive a 5% bonus*",
          "liquidationThreshold": "The threshold at which loans using this asset as collateral will be considered undercollateralized",
          "ltv": "The loan to value of the asset when used as collateral"
        }
      },
      "deactivateReserve(address)": {
        "details": "Deactivates a reserve",
        "params": {
          "asset": "The address of the underlying asset of the reserve*"
        }
      },
      "disableBorrowingOnReserve(address)": {
        "details": "Disables borrowing on a reserve",
        "params": {
          "asset": "The address of the underlying asset of the reserve*"
        }
      },
      "disableReserveStableRate(address)": {
        "details": "Disable stable rate borrowing on a reserve",
        "params": {
          "asset": "The address of the underlying asset of the reserve*"
        }
      },
      "enableBorrowingOnReserve(address,bool)": {
        "details": "Enables borrowing on a reserve",
        "params": {
          "asset": "The address of the underlying asset of the reserve",
          "stableBorrowRateEnabled": "True if stable borrow rate needs to be enabled by default on this reserve*"
        }
      },
      "enableReserveStableRate(address)": {
        "details": "Enable stable rate borrowing on a reserve",
        "params": {
          "asset": "The address of the underlying asset of the reserve*"
        }
      },
      "freezeReserve(address)": {
        "details": "Freezes a reserve. A frozen reserve doesn't allow any new deposit, borrow or rate swap  but allows repayments, liquidations, rate rebalances and withdrawals",
        "params": {
          "asset": "The address of the underlying asset of the reserve*"
        }
      },
      "setPoolPause(bool)": {
        "details": "pauses or unpauses all the actions of the protocol, including aToken transfers",
        "params": {
          "val": "true if protocol needs to be paused, false otherwise*"
        }
      },
      "setReserveFactor(address,uint256)": {
        "details": "Updates the reserve factor of a reserve",
        "params": {
          "asset": "The address of the underlying asset of the reserve",
          "reserveFactor": "The new reserve factor of the reserve*"
        }
      },
      "setReserveInterestRateStrategyAddress(address,address)": {
        "details": "Sets the interest rate strategy of a reserve",
        "params": {
          "asset": "The address of the underlying asset of the reserve",
          "rateStrategyAddress": "The new address of the interest strategy contract*"
        }
      },
      "unfreezeReserve(address)": {
        "details": "Unfreezes a reserve",
        "params": {
          "asset": "The address of the underlying asset of the reserve*"
        }
      },
      "updateAToken((address,address,address,string,string,address,bytes))": {
        "details": "Updates the aToken implementation for the reserve*"
      },
      "updateStableDebtToken((address,address,string,string,address,bytes))": {
        "details": "Updates the stable debt token implementation for the reserve*"
      },
      "updateVariableDebtToken((address,address,string,string,address,bytes))": {
        "details": "Updates the variable debt token implementation for the asset*"
      }
    },
    "title": "LendingPoolConfigurator contract",
    "version": 1
  },
  "userdoc": {
    "kind": "user",
    "methods": {},
    "version": 1
  },
  "storageLayout": {
    "storage": [
      {
        "astId": 28655,
        "contract": "contracts/lending/lendingpool/LendingPoolConfigurator.sol:LendingPoolConfigurator",
        "label": "lastInitializedRevision",
        "offset": 0,
        "slot": "0",
        "type": "t_uint256"
      },
      {
        "astId": 28658,
        "contract": "contracts/lending/lendingpool/LendingPoolConfigurator.sol:LendingPoolConfigurator",
        "label": "initializing",
        "offset": 0,
        "slot": "1",
        "type": "t_bool"
      },
      {
        "astId": 28728,
        "contract": "contracts/lending/lendingpool/LendingPoolConfigurator.sol:LendingPoolConfigurator",
        "label": "______gap",
        "offset": 0,
        "slot": "2",
        "type": "t_array(t_uint256)50_storage"
      },
      {
        "astId": 27345,
        "contract": "contracts/lending/lendingpool/LendingPoolConfigurator.sol:LendingPoolConfigurator",
        "label": "addressesProvider",
        "offset": 0,
        "slot": "52",
        "type": "t_contract(ILendingPoolAddressesProvider)16380"
      },
      {
        "astId": 27348,
        "contract": "contracts/lending/lendingpool/LendingPoolConfigurator.sol:LendingPoolConfigurator",
        "label": "pool",
        "offset": 0,
        "slot": "53",
        "type": "t_contract(ILendingPool)16219"
      }
    ],
    "types": {
      "t_array(t_uint256)50_storage": {
        "base": "t_uint256",
        "encoding": "inplace",
        "label": "uint256[50]",
        "numberOfBytes": "1600"
      },
      "t_bool": {
        "encoding": "inplace",
        "label": "bool",
        "numberOfBytes": "1"
      },
      "t_contract(ILendingPool)16219": {
        "encoding": "inplace",
        "label": "contract ILendingPool",
        "numberOfBytes": "20"
      },
      "t_contract(ILendingPoolAddressesProvider)16380": {
        "encoding": "inplace",
        "label": "contract ILendingPoolAddressesProvider",
        "numberOfBytes": "20"
      },
      "t_uint256": {
        "encoding": "inplace",
        "label": "uint256",
        "numberOfBytes": "32"
      }
    }
  }
}