{
  "address": "0x2ea4a508a85D4CC0f09F8F400831F3C385fFDD1a",
  "abi": [
    {
      "inputs": [],
      "name": "AddressZero",
      "type": "error"
    },
    {
      "inputs": [],
      "name": "InsufficientPermision",
      "type": "error"
    },
    {
      "inputs": [],
      "name": "InvalidETHAmount",
      "type": "error"
    },
    {
      "inputs": [],
      "name": "ZapExists",
      "type": "error"
    },
    {
      "anonymous": false,
      "inputs": [
        {
          "indexed": true,
          "internalType": "address",
          "name": "previousOwner",
          "type": "address"
        },
        {
          "indexed": true,
          "internalType": "address",
          "name": "newOwner",
          "type": "address"
        }
      ],
      "name": "OwnershipTransferred",
      "type": "event"
    },
    {
      "stateMutability": "payable",
      "type": "fallback"
    },
    {
      "inputs": [],
      "name": "_token",
      "outputs": [
        {
          "internalType": "address",
          "name": "",
          "type": "address"
        }
      ],
      "stateMutability": "view",
      "type": "function"
    },
    {
      "inputs": [],
      "name": "_tokenWETHPair",
      "outputs": [
        {
          "internalType": "address",
          "name": "",
          "type": "address"
        }
      ],
      "stateMutability": "view",
      "type": "function"
    },
    {
      "inputs": [
        {
          "internalType": "address payable",
          "name": "to",
          "type": "address"
        }
      ],
      "name": "addLiquidityETHOnly",
      "outputs": [
        {
          "internalType": "uint256",
          "name": "",
          "type": "uint256"
        }
      ],
      "stateMutability": "payable",
      "type": "function"
    },
    {
      "inputs": [
        {
          "internalType": "uint256",
          "name": "_amount",
          "type": "uint256"
        },
        {
          "internalType": "address payable",
          "name": "to",
          "type": "address"
        }
      ],
      "name": "addLiquidityWETHOnly",
      "outputs": [
        {
          "internalType": "uint256",
          "name": "",
          "type": "uint256"
        }
      ],
      "stateMutability": "nonpayable",
      "type": "function"
    },
    {
      "inputs": [
        {
          "internalType": "uint256",
          "name": "ethAmt",
          "type": "uint256"
        }
      ],
      "name": "getLPTokenPerEthUnit",
      "outputs": [
        {
          "internalType": "uint256",
          "name": "liquidity",
          "type": "uint256"
        }
      ],
      "stateMutability": "view",
      "type": "function"
    },
    {
      "inputs": [
        {
          "internalType": "address",
          "name": "token",
          "type": "address"
        },
        {
          "internalType": "address",
          "name": "_weth",
          "type": "address"
        },
        {
          "internalType": "address",
          "name": "tokenWethPair",
          "type": "address"
        },
        {
          "internalType": "address",
          "name": "_helper",
          "type": "address"
        }
      ],
      "name": "initLiquidityZap",
      "outputs": [],
      "stateMutability": "nonpayable",
      "type": "function"
    },
    {
      "inputs": [],
      "name": "initialize",
      "outputs": [],
      "stateMutability": "nonpayable",
      "type": "function"
    },
    {
      "inputs": [],
      "name": "owner",
      "outputs": [
        {
          "internalType": "address",
          "name": "",
          "type": "address"
        }
      ],
      "stateMutability": "view",
      "type": "function"
    },
    {
      "inputs": [],
      "name": "poolHelper",
      "outputs": [
        {
          "internalType": "address",
          "name": "",
          "type": "address"
        }
      ],
      "stateMutability": "view",
      "type": "function"
    },
    {
      "inputs": [
        {
          "internalType": "uint256",
          "name": "wethAmount",
          "type": "uint256"
        }
      ],
      "name": "quote",
      "outputs": [
        {
          "internalType": "uint256",
          "name": "optimalTokenAmount",
          "type": "uint256"
        }
      ],
      "stateMutability": "view",
      "type": "function"
    },
    {
      "inputs": [
        {
          "internalType": "uint256",
          "name": "tokenAmount",
          "type": "uint256"
        }
      ],
      "name": "quoteFromToken",
      "outputs": [
        {
          "internalType": "uint256",
          "name": "optimalWETHAmount",
          "type": "uint256"
        }
      ],
      "stateMutability": "view",
      "type": "function"
    },
    {
      "inputs": [],
      "name": "renounceOwnership",
      "outputs": [],
      "stateMutability": "nonpayable",
      "type": "function"
    },
    {
      "inputs": [
        {
          "internalType": "uint256",
          "name": "tokenAmount",
          "type": "uint256"
        },
        {
          "internalType": "uint256",
          "name": "_wethAmt",
          "type": "uint256"
        },
        {
          "internalType": "address payable",
          "name": "to",
          "type": "address"
        }
      ],
      "name": "standardAdd",
      "outputs": [
        {
          "internalType": "uint256",
          "name": "",
          "type": "uint256"
        }
      ],
      "stateMutability": "nonpayable",
      "type": "function"
    },
    {
      "inputs": [
        {
          "internalType": "address",
          "name": "newOwner",
          "type": "address"
        }
      ],
      "name": "transferOwnership",
      "outputs": [],
      "stateMutability": "nonpayable",
      "type": "function"
    },
    {
      "inputs": [],
      "name": "weth",
      "outputs": [
        {
          "internalType": "contract IWETH",
          "name": "",
          "type": "address"
        }
      ],
      "stateMutability": "view",
      "type": "function"
    },
    {
      "inputs": [
        {
          "internalType": "address payable",
          "name": "_onBehalf",
          "type": "address"
        }
      ],
      "name": "zapETH",
      "outputs": [
        {
          "internalType": "uint256",
          "name": "",
          "type": "uint256"
        }
      ],
      "stateMutability": "payable",
      "type": "function"
    }
  ],
  "transactionHash": "0xd1641dad35d5d65bdcd4892eb836f2391141f6b843f339a8b816abc98d060f9d",
  "args": [],
  "numDeployments": 1,
  "solcInputHash": "d20862d9a7051998216c9f1f22667b5c",
  "bytecode": "0x608060405234801561001057600080fd5b50611a6d806100206000396000f3fe6080604052600436106100f35760003560e01c80638da5cb5b1161008a578063ed1bd76c11610059578063ed1bd76c1461028b578063edabc8f6146102ab578063f2fde38b146102cb578063fd706062146102eb576100f3565b80638da5cb5b1461021a578063c269742014610238578063d6b89a031461024b578063ecd0c0c31461026b576100f3565b806355ac8d30116100c657806355ac8d30146101b0578063715018a6146101d05780637c6ba9c1146101e55780638129fc1c14610205576100f3565b806314b0818a14610112578063370c38611461014f5780633fc8cef31461016f578063470e96891461018f575b6099546001600160a01b031633146101105761010e3361030b565b505b005b34801561011e57600080fd5b50609854610132906001600160a01b031681565b6040516001600160a01b0390911681526020015b60405180910390f35b34801561015b57600080fd5b5061011061016a366004611782565b610553565b34801561017b57600080fd5b50609954610132906001600160a01b031681565b6101a261019d3660046117de565b61061b565b604051908152602001610146565b3480156101bc57600080fd5b50609a54610132906001600160a01b031681565b3480156101dc57600080fd5b5061011061064a565b3480156101f157600080fd5b506101a26102003660046117fb565b6106b5565b34801561021157600080fd5b5061011061075f565b34801561022657600080fd5b506065546001600160a01b0316610132565b6101a26102463660046117de565b61030b565b34801561025757600080fd5b506101a2610266366004611834565b610833565b34801561027757600080fd5b50609754610132906001600160a01b031681565b34801561029757600080fd5b506101a26102a6366004611834565b6109a3565b3480156102b757600080fd5b506101a26102c636600461184d565b6109bf565b3480156102d757600080fd5b506101106102e63660046117de565b610be4565b3480156102f757600080fd5b506101a2610306366004611834565b610cc3565b60006001600160a01b03821661033457604051639fabe1c160e01b815260040160405180910390fd5b6000610341346002610cdf565b9050806103615760405163090ac0d760e21b815260040160405180910390fd5b609960009054906101000a90046001600160a01b03166001600160a01b031663d0e30db0346040518263ffffffff1660e01b81526004016000604051808303818588803b1580156103b157600080fd5b505af11580156103c5573d6000803e3d6000fd5b50505050506000806103d5610cf2565b9150915060006103e6848484610dd6565b60995460985460405163a9059cbb60e01b81526001600160a01b03918216600482015260248101889052929350169063a9059cbb906044016020604051808303816000875af115801561043d573d6000803e3d6000fd5b505050506040513d601f19601f82011682018060405250810190610461919061187d565b506099546097546000918291610483916001600160a01b039081169116610f08565b6098546097549294509092506001600160a01b039081169163022c0d9f918086169116146104b25760006104b4565b845b6097546001600160a01b038581169116146104d05760006104d2565b855b6040516001600160e01b031960e085901b16815260048101929092526024820152306044820152608060648201526000608482015260a401600060405180830381600087803b15801561052457600080fd5b505af1158015610538573d6000803e3d6000fd5b5050505061054783878a611018565b98975050505050505050565b609954600160a01b900460ff1615610597576040517fd79c090e00000000000000000000000000000000000000000000000000000000815260040160405180910390fd5b609780546001600160a01b0395861673ffffffffffffffffffffffffffffffffffffffff19918216179091556099805460988054958816958416959095179094557fffffffffffffffffffffff00000000000000000000000000000000000000000090931693851693909317600160a01b17909155609a8054919093169116179055565b60003461063b5760405163090ac0d760e21b815260040160405180910390fd5b6106448261030b565b92915050565b6065546001600160a01b031633146106a95760405162461bcd60e51b815260206004820181905260248201527f4f776e61626c653a2063616c6c6572206973206e6f7420746865206f776e657260448201526064015b60405180910390fd5b6106b36000611250565b565b6097546000906106d0906001600160a01b03163330876112af565b6099546040516323b872dd60e01b8152336004820152306024820152604481018590526001600160a01b03909116906323b872dd906064016020604051808303816000875af1158015610727573d6000803e3d6000fd5b505050506040513d601f19601f8201168201806040525081019061074b919061187d565b50610757848484611018565b949350505050565b600054610100900460ff16806107745750303b155b80610782575060005460ff16155b6107f45760405162461bcd60e51b815260206004820152602e60248201527f436f6e747261637420696e7374616e63652068617320616c726561647920626560448201527f656e20696e697469616c697a656400000000000000000000000000000000000060648201526084016106a0565b600054610100900460ff16158015610816576000805461ffff19166101011790555b61081e611335565b8015610830576000805461ff00191690555b50565b6000806000610840610cf2565b9092509050600061085c610855866002610cdf565b8484610dd6565b90506000609860009054906101000a90046001600160a01b03166001600160a01b03166318160ddd6040518163ffffffff1660e01b8152600401602060405180830381865afa1580156108b3573d6000803e3d6000fd5b505050506040513d601f19601f820116820180604052508101906108d7919061189f565b6099546097549192506000916108f9916001600160a01b039081169116610f08565b5060975490915060009081906001600160a01b0380851691161461092857610922896002610cdf565b85610934565b846109348a6002610cdf565b609754919350915060009081906001600160a01b0386811691161461095a57888861095d565b87895b90925090506109948261097086896113a8565b61097a91906118ce565b82610985868a6113a8565b61098f91906118ce565b6113b4565b9b9a5050505050505050505050565b60008060006109b0610cf2565b915091506107578483836113ca565b609a546000906001600160a01b03163314610a06576040517f2b8fa89900000000000000000000000000000000000000000000000000000000815260040160405180910390fd5b6001600160a01b038216610a2d57604051639fabe1c160e01b815260040160405180910390fd5b6000610a3a846002610cdf565b905080610a5a5760405163090ac0d760e21b815260040160405180910390fd5b600080610a65610cf2565b915091506000610a76848484610dd6565b60995460985460405163a9059cbb60e01b81526001600160a01b03918216600482015260248101889052929350169063a9059cbb906044016020604051808303816000875af1158015610acd573d6000803e3d6000fd5b505050506040513d601f19601f82011682018060405250810190610af1919061187d565b506099546097546000918291610b13916001600160a01b039081169116610f08565b6098546097549294509092506001600160a01b039081169163022c0d9f91808616911614610b42576000610b44565b845b6097546001600160a01b03858116911614610b60576000610b62565b855b6040516001600160e01b031960e085901b16815260048101929092526024820152306044820152608060648201526000608482015260a401600060405180830381600087803b158015610bb457600080fd5b505af1158015610bc8573d6000803e3d6000fd5b50505050610bd783878a611018565b9998505050505050505050565b6065546001600160a01b03163314610c3e5760405162461bcd60e51b815260206004820181905260248201527f4f776e61626c653a2063616c6c6572206973206e6f7420746865206f776e657260448201526064016106a0565b6001600160a01b038116610cba5760405162461bcd60e51b815260206004820152602660248201527f4f776e61626c653a206e6577206f776e657220697320746865207a65726f206160448201527f646472657373000000000000000000000000000000000000000000000000000060648201526084016106a0565b61083081611250565b6000806000610cd0610cf2565b915091506107578482846113ca565b6000610ceb82846118ce565b9392505050565b60995460975460009182918291610d15916001600160a01b039182169116610f08565b509050600080609860009054906101000a90046001600160a01b03166001600160a01b0316630902f1ac6040518163ffffffff1660e01b8152600401606060405180830381865afa158015610d6e573d6000803e3d6000fd5b505050506040513d601f19601f82011682018060405250810190610d929190611913565b506097546dffffffffffffffffffffffffffff9283169450911691506001600160a01b03848116911614610dc7578181610dca565b80825b90969095509350505050565b6000808411610e4d5760405162461bcd60e51b815260206004820152602b60248201527f556e697377617056324c6962726172793a20494e53554646494349454e545f4960448201527f4e5055545f414d4f554e5400000000000000000000000000000000000000000060648201526084016106a0565b600083118015610e5d5750600082115b610eba5760405162461bcd60e51b815260206004820152602860248201527f556e697377617056324c6962726172793a20494e53554646494349454e545f4c604482015267495155494449545960c01b60648201526084016106a0565b6000610ec8856103e5611958565b90506000610ed68483611958565b9050600082610ee7876103e8611958565b610ef19190611977565b9050610efd81836118ce565b979650505050505050565b600080826001600160a01b0316846001600160a01b03161415610f935760405162461bcd60e51b815260206004820152602560248201527f556e697377617056324c6962726172793a204944454e544943414c5f4144445260448201527f455353455300000000000000000000000000000000000000000000000000000060648201526084016106a0565b826001600160a01b0316846001600160a01b031610610fb3578284610fb6565b83835b90925090506001600160a01b0382166110115760405162461bcd60e51b815260206004820152601e60248201527f556e697377617056324c6962726172793a205a45524f5f41444452455353000060448201526064016106a0565b9250929050565b6000806000611025610cf2565b9150915060006110368684846113ca565b90506000878211156110575761104d8884866113ca565b905087915061105a565b50855b60995460985460405163a9059cbb60e01b81526001600160a01b0391821660048201526024810184905291169063a9059cbb906044016020604051808303816000875af11580156110af573d6000803e3d6000fd5b505050506040513d601f19601f820116820180604052508101906110d3919061187d565b6110df576110df61198f565b6098546097546110fc916001600160a01b039182169116846114c3565b6098546040517f6a6278420000000000000000000000000000000000000000000000000000000081526001600160a01b03888116600483015290911690636a627842906024016020604051808303816000875af1158015611161573d6000803e3d6000fd5b505050506040513d601f19601f82011682018060405250810190611185919061189f565b9450818811156111b0576111b08661119d8a856114f8565b6097546001600160a01b031691906114c3565b80871115611245576099546001600160a01b031663a9059cbb876111d48a856114f8565b6040516001600160e01b031960e085901b1681526001600160a01b03909216600483015260248201526044016020604051808303816000875af115801561121f573d6000803e3d6000fd5b505050506040513d601f19601f82011682018060405250810190611243919061187d565b505b505050509392505050565b606580546001600160a01b0383811673ffffffffffffffffffffffffffffffffffffffff19831681179093556040519116919082907f8be0079c531659141344cd1fd0a4f28419497f9722a3daafe3b4186f6b6457e090600090a35050565b6040516001600160a01b038085166024830152831660448201526064810182905261132f9085906323b872dd60e01b906084015b60408051601f198184030181529190526020810180517bffffffffffffffffffffffffffffffffffffffffffffffffffffffff166001600160e01b031990931692909217909152611504565b50505050565b600054610100900460ff166113a05760405162461bcd60e51b815260206004820152602b60248201527f496e697469616c697a61626c653a20636f6e7472616374206973206e6f74206960448201526a6e697469616c697a696e6760a81b60648201526084016106a0565b6106b36115e9565b6000610ceb8284611958565b60008183106113c35781610ceb565b5090919050565b60008084116114415760405162461bcd60e51b815260206004820152602560248201527f556e697377617056324c6962726172793a20494e53554646494349454e545f4160448201527f4d4f554e5400000000000000000000000000000000000000000000000000000060648201526084016106a0565b6000831180156114515750600082115b6114ae5760405162461bcd60e51b815260206004820152602860248201527f556e697377617056324c6962726172793a20494e53554646494349454e545f4c604482015267495155494449545960c01b60648201526084016106a0565b826114b98386611958565b61075791906118ce565b6040516001600160a01b0383166024820152604481018290526114f390849063a9059cbb60e01b906064016112e3565b505050565b6000610ceb82846119a5565b6000611559826040518060400160405280602081526020017f5361666545524332303a206c6f772d6c6576656c2063616c6c206661696c6564815250856001600160a01b031661165d9092919063ffffffff16565b8051909150156114f35780806020019051810190611577919061187d565b6114f35760405162461bcd60e51b815260206004820152602a60248201527f5361666545524332303a204552433230206f7065726174696f6e20646964206e60448201527f6f7420737563636565640000000000000000000000000000000000000000000060648201526084016106a0565b600054610100900460ff166116545760405162461bcd60e51b815260206004820152602b60248201527f496e697469616c697a61626c653a20636f6e7472616374206973206e6f74206960448201526a6e697469616c697a696e6760a81b60648201526084016106a0565b6106b333611250565b6060610757848460008585600080866001600160a01b0316858760405161168491906119e8565b60006040518083038185875af1925050503d80600081146116c1576040519150601f19603f3d011682016040523d82523d6000602084013e6116c6565b606091505b5091509150610efd878383876060831561173e578251611737576001600160a01b0385163b6117375760405162461bcd60e51b815260206004820152601d60248201527f416464726573733a2063616c6c20746f206e6f6e2d636f6e747261637400000060448201526064016106a0565b5081610757565b61075783838151156117535781518083602001fd5b8060405162461bcd60e51b81526004016106a09190611a04565b6001600160a01b038116811461083057600080fd5b6000806000806080858703121561179857600080fd5b84356117a38161176d565b935060208501356117b38161176d565b925060408501356117c38161176d565b915060608501356117d38161176d565b939692955090935050565b6000602082840312156117f057600080fd5b8135610ceb8161176d565b60008060006060848603121561181057600080fd5b833592506020840135915060408401356118298161176d565b809150509250925092565b60006020828403121561184657600080fd5b5035919050565b6000806040838503121561186057600080fd5b8235915060208301356118728161176d565b809150509250929050565b60006020828403121561188f57600080fd5b81518015158114610ceb57600080fd5b6000602082840312156118b157600080fd5b5051919050565b634e487b7160e01b600052601160045260246000fd5b6000826118eb57634e487b7160e01b600052601260045260246000fd5b500490565b80516dffffffffffffffffffffffffffff8116811461190e57600080fd5b919050565b60008060006060848603121561192857600080fd5b611931846118f0565b925061193f602085016118f0565b9150604084015163ffffffff8116811461182957600080fd5b6000816000190483118215151615611972576119726118b8565b500290565b6000821982111561198a5761198a6118b8565b500190565b634e487b7160e01b600052600160045260246000fd5b6000828210156119b7576119b76118b8565b500390565b60005b838110156119d75781810151838201526020016119bf565b8381111561132f5750506000910152565b600082516119fa8184602087016119bc565b9190910192915050565b6020815260008251806020840152611a238160408501602087016119bc565b601f01601f1916919091016040019291505056fea2646970667358221220e6ab23059dc7f607e63184cc32246cee184699cb38c3bf25aa281dfb3ee2a09264736f6c634300080c0033",
  "devdoc": {
    "author": "Radiant Devs",
    "details": "All function calls are currently implemented without side effects",
    "kind": "dev",
    "methods": {
      "addLiquidityETHOnly(address)": {
        "params": {
          "to": "address of lp token"
        },
        "returns": {
          "_0": "liquidity lp amount"
        }
      },
      "addLiquidityWETHOnly(uint256,address)": {
        "params": {
          "_amount": "of WETH",
          "to": "address of lp token"
        },
        "returns": {
          "_0": "liquidity lp amount"
        }
      },
      "getLPTokenPerEthUnit(uint256)": {
        "params": {
          "ethAmt": "ETH amount"
        },
        "returns": {
          "liquidity": "LP amount"
        }
      },
      "initLiquidityZap(address,address,address,address)": {
        "params": {
          "_helper": "Pool helper contract",
          "_weth": "WETH address",
          "token": "RDNT address",
          "tokenWethPair": "LP pair"
        }
      },
      "quote(uint256)": {
        "params": {
          "wethAmount": "RDNT amount"
        },
        "returns": {
          "optimalTokenAmount": "Output RDNT amount"
        }
      },
      "quoteFromToken(uint256)": {
        "params": {
          "tokenAmount": "RDNT amount"
        },
        "returns": {
          "optimalWETHAmount": "Output WETH amount"
        }
      },
      "standardAdd(uint256,uint256,address)": {
        "details": "use with quote",
        "params": {
          "_wethAmt": "WETH amount",
          "to": "LP address to be transfered",
          "tokenAmount": "RDNT amount"
        },
        "returns": {
          "_0": "liquidity LP amount"
        }
      },
      "zapETH(address)": {
        "params": {
          "_onBehalf": "of the user"
        },
        "returns": {
          "_0": "liquidity lp amount"
        }
      }
    },
    "title": "Radiant token contract with OFT integration",
    "version": 1
  },
  "userdoc": {
    "kind": "user",
    "methods": {
      "addLiquidityETHOnly(address)": {
        "notice": "Add liquidity with ETH"
      },
      "addLiquidityWETHOnly(uint256,address)": {
        "notice": "Add liquidity with WETH"
      },
      "getLPTokenPerEthUnit(uint256)": {
        "notice": "LP token amount entitled with ETH"
      },
      "initLiquidityZap(address,address,address,address)": {
        "notice": "Initialize liquidity zap param"
      },
      "initialize()": {
        "notice": "Initialize"
      },
      "quote(uint256)": {
        "notice": "Quote RDNT amount from WETH"
      },
      "quoteFromToken(uint256)": {
        "notice": "Quote WETH amount from RDNT"
      },
      "standardAdd(uint256,uint256,address)": {
        "notice": "Add liquidity with RDNT and WETH"
      },
      "zapETH(address)": {
        "notice": "Zap ethereum"
      }
    },
    "version": 1
  },
  "storageLayout": {
    "storage": [
      {
        "astId": 10936,
        "contract": "contracts/radiant/zap/helpers/LiquidityZap.sol:LiquidityZap",
        "label": "initialized",
        "offset": 0,
        "slot": "0",
        "type": "t_bool"
      },
      {
        "astId": 10939,
        "contract": "contracts/radiant/zap/helpers/LiquidityZap.sol:LiquidityZap",
        "label": "initializing",
        "offset": 1,
        "slot": "0",
        "type": "t_bool"
      },
      {
        "astId": 11006,
        "contract": "contracts/radiant/zap/helpers/LiquidityZap.sol:LiquidityZap",
        "label": "______gap",
        "offset": 0,
        "slot": "1",
        "type": "t_array(t_uint256)50_storage"
      },
      {
        "astId": 10929,
        "contract": "contracts/radiant/zap/helpers/LiquidityZap.sol:LiquidityZap",
        "label": "__gap",
        "offset": 0,
        "slot": "51",
        "type": "t_array(t_uint256)50_storage"
      },
      {
        "astId": 11151,
        "contract": "contracts/radiant/zap/helpers/LiquidityZap.sol:LiquidityZap",
        "label": "_owner",
        "offset": 0,
        "slot": "101",
        "type": "t_address"
      },
      {
        "astId": 11256,
        "contract": "contracts/radiant/zap/helpers/LiquidityZap.sol:LiquidityZap",
        "label": "__gap",
        "offset": 0,
        "slot": "102",
        "type": "t_array(t_uint256)49_storage"
      },
      {
        "astId": 54025,
        "contract": "contracts/radiant/zap/helpers/LiquidityZap.sol:LiquidityZap",
        "label": "_token",
        "offset": 0,
        "slot": "151",
        "type": "t_address"
      },
      {
        "astId": 54027,
        "contract": "contracts/radiant/zap/helpers/LiquidityZap.sol:LiquidityZap",
        "label": "_tokenWETHPair",
        "offset": 0,
        "slot": "152",
        "type": "t_address"
      },
      {
        "astId": 54030,
        "contract": "contracts/radiant/zap/helpers/LiquidityZap.sol:LiquidityZap",
        "label": "weth",
        "offset": 0,
        "slot": "153",
        "type": "t_contract(IWETH)18162"
      },
      {
        "astId": 54032,
        "contract": "contracts/radiant/zap/helpers/LiquidityZap.sol:LiquidityZap",
        "label": "initialized",
        "offset": 20,
        "slot": "153",
        "type": "t_bool"
      },
      {
        "astId": 54034,
        "contract": "contracts/radiant/zap/helpers/LiquidityZap.sol:LiquidityZap",
        "label": "poolHelper",
        "offset": 0,
        "slot": "154",
        "type": "t_address"
      }
    ],
    "types": {
      "t_address": {
        "encoding": "inplace",
        "label": "address",
        "numberOfBytes": "20"
      },
      "t_array(t_uint256)49_storage": {
        "base": "t_uint256",
        "encoding": "inplace",
        "label": "uint256[49]",
        "numberOfBytes": "1568"
      },
      "t_array(t_uint256)50_storage": {
        "base": "t_uint256",
        "encoding": "inplace",
        "label": "uint256[50]",
        "numberOfBytes": "1600"
      },
      "t_bool": {
        "encoding": "inplace",
        "label": "bool",
        "numberOfBytes": "1"
      },
      "t_contract(IWETH)18162": {
        "encoding": "inplace",
        "label": "contract IWETH",
        "numberOfBytes": "20"
      },
      "t_uint256": {
        "encoding": "inplace",
        "label": "uint256",
        "numberOfBytes": "32"
      }
    }
  }
}