{
  "address": "0x0629705Ad7108a5D4AB0E4eb34C6452c71479843",
  "abi": [
    {
      "inputs": [],
      "name": "AddressZero",
      "type": "error"
    },
    {
      "inputs": [],
      "name": "AmountZero",
      "type": "error"
    },
    {
      "inputs": [],
      "name": "ExceedsAvailableBorrowsETH",
      "type": "error"
    },
    {
      "inputs": [],
      "name": "InsufficientETH",
      "type": "error"
    },
    {
      "inputs": [],
      "name": "InvalidRatio",
      "type": "error"
    },
    {
      "inputs": [],
      "name": "InvalidSlippage",
      "type": "error"
    },
    {
      "inputs": [],
      "name": "InvalidZapETHSource",
      "type": "error"
    },
    {
      "anonymous": false,
      "inputs": [
        {
          "indexed": true,
          "internalType": "address",
          "name": "previousOwner",
          "type": "address"
        },
        {
          "indexed": true,
          "internalType": "address",
          "name": "newOwner",
          "type": "address"
        }
      ],
      "name": "OwnershipTransferred",
      "type": "event"
    },
    {
      "anonymous": false,
      "inputs": [
        {
          "indexed": false,
          "internalType": "address",
          "name": "account",
          "type": "address"
        }
      ],
      "name": "Paused",
      "type": "event"
    },
    {
      "anonymous": false,
      "inputs": [
        {
          "indexed": true,
          "internalType": "uint256",
          "name": "newRatio",
          "type": "uint256"
        }
      ],
      "name": "SlippageRatioChanged",
      "type": "event"
    },
    {
      "anonymous": false,
      "inputs": [
        {
          "indexed": false,
          "internalType": "address",
          "name": "account",
          "type": "address"
        }
      ],
      "name": "Unpaused",
      "type": "event"
    },
    {
      "anonymous": false,
      "inputs": [
        {
          "indexed": false,
          "internalType": "bool",
          "name": "_borrow",
          "type": "bool"
        },
        {
          "indexed": false,
          "internalType": "uint256",
          "name": "_ethAmt",
          "type": "uint256"
        },
        {
          "indexed": false,
          "internalType": "uint256",
          "name": "_rdntAmt",
          "type": "uint256"
        },
        {
          "indexed": true,
          "internalType": "address",
          "name": "_from",
          "type": "address"
        },
        {
          "indexed": true,
          "internalType": "address",
          "name": "_onBehalf",
          "type": "address"
        },
        {
          "indexed": false,
          "internalType": "uint256",
          "name": "_lockTypeIndex",
          "type": "uint256"
        }
      ],
      "name": "Zapped",
      "type": "event"
    },
    {
      "inputs": [],
      "name": "ACCEPTABLE_RATIO",
      "outputs": [
        {
          "internalType": "uint256",
          "name": "",
          "type": "uint256"
        }
      ],
      "stateMutability": "view",
      "type": "function"
    },
    {
      "inputs": [],
      "name": "RATIO_DIVISOR",
      "outputs": [
        {
          "internalType": "uint256",
          "name": "",
          "type": "uint256"
        }
      ],
      "stateMutability": "view",
      "type": "function"
    },
    {
      "inputs": [],
      "name": "ethLPRatio",
      "outputs": [
        {
          "internalType": "uint256",
          "name": "",
          "type": "uint256"
        }
      ],
      "stateMutability": "view",
      "type": "function"
    },
    {
      "inputs": [],
      "name": "ethOracle",
      "outputs": [
        {
          "internalType": "contract IChainlinkAggregator",
          "name": "",
          "type": "address"
        }
      ],
      "stateMutability": "view",
      "type": "function"
    },
    {
      "inputs": [],
      "name": "getPoolHelper",
      "outputs": [
        {
          "internalType": "address",
          "name": "",
          "type": "address"
        }
      ],
      "stateMutability": "view",
      "type": "function"
    },
    {
      "inputs": [
        {
          "internalType": "address",
          "name": "_asset",
          "type": "address"
        }
      ],
      "name": "getVDebtToken",
      "outputs": [
        {
          "internalType": "address",
          "name": "",
          "type": "address"
        }
      ],
      "stateMutability": "view",
      "type": "function"
    },
    {
      "inputs": [
        {
          "internalType": "contract IPoolHelper",
          "name": "_poolHelper",
          "type": "address"
        },
        {
          "internalType": "contract ILendingPool",
          "name": "_lendingPool",
          "type": "address"
        },
        {
          "internalType": "contract IWETH",
          "name": "_weth",
          "type": "address"
        },
        {
          "internalType": "address",
          "name": "_rdntAddr",
          "type": "address"
        },
        {
          "internalType": "uint256",
          "name": "_ethLPRatio",
          "type": "uint256"
        },
        {
          "internalType": "uint256",
          "name": "_ACCEPTABLE_RATIO",
          "type": "uint256"
        }
      ],
      "name": "initialize",
      "outputs": [],
      "stateMutability": "nonpayable",
      "type": "function"
    },
    {
      "inputs": [],
      "name": "lendingPool",
      "outputs": [
        {
          "internalType": "contract ILendingPool",
          "name": "",
          "type": "address"
        }
      ],
      "stateMutability": "view",
      "type": "function"
    },
    {
      "inputs": [],
      "name": "mfd",
      "outputs": [
        {
          "internalType": "contract IMultiFeeDistribution",
          "name": "",
          "type": "address"
        }
      ],
      "stateMutability": "view",
      "type": "function"
    },
    {
      "inputs": [],
      "name": "owner",
      "outputs": [
        {
          "internalType": "address",
          "name": "",
          "type": "address"
        }
      ],
      "stateMutability": "view",
      "type": "function"
    },
    {
      "inputs": [],
      "name": "pause",
      "outputs": [],
      "stateMutability": "nonpayable",
      "type": "function"
    },
    {
      "inputs": [],
      "name": "paused",
      "outputs": [
        {
          "internalType": "bool",
          "name": "",
          "type": "bool"
        }
      ],
      "stateMutability": "view",
      "type": "function"
    },
    {
      "inputs": [],
      "name": "poolHelper",
      "outputs": [
        {
          "internalType": "contract IPoolHelper",
          "name": "",
          "type": "address"
        }
      ],
      "stateMutability": "view",
      "type": "function"
    },
    {
      "inputs": [],
      "name": "priceProvider",
      "outputs": [
        {
          "internalType": "contract IPriceProvider",
          "name": "",
          "type": "address"
        }
      ],
      "stateMutability": "view",
      "type": "function"
    },
    {
      "inputs": [
        {
          "internalType": "uint256",
          "name": "_tokenAmount",
          "type": "uint256"
        }
      ],
      "name": "quoteFromToken",
      "outputs": [
        {
          "internalType": "uint256",
          "name": "optimalWETHAmount",
          "type": "uint256"
        }
      ],
      "stateMutability": "view",
      "type": "function"
    },
    {
      "inputs": [],
      "name": "rdntAddr",
      "outputs": [
        {
          "internalType": "address",
          "name": "",
          "type": "address"
        }
      ],
      "stateMutability": "view",
      "type": "function"
    },
    {
      "inputs": [],
      "name": "renounceOwnership",
      "outputs": [],
      "stateMutability": "nonpayable",
      "type": "function"
    },
    {
      "inputs": [
        {
          "internalType": "uint256",
          "name": "_amount",
          "type": "uint256"
        }
      ],
      "name": "sell",
      "outputs": [
        {
          "internalType": "uint256",
          "name": "ethOut",
          "type": "uint256"
        }
      ],
      "stateMutability": "nonpayable",
      "type": "function"
    },
    {
      "inputs": [
        {
          "internalType": "uint256",
          "name": "_newRatio",
          "type": "uint256"
        }
      ],
      "name": "setAcceptableRatio",
      "outputs": [],
      "stateMutability": "nonpayable",
      "type": "function"
    },
    {
      "inputs": [
        {
          "internalType": "address",
          "name": "_mfdAddr",
          "type": "address"
        }
      ],
      "name": "setMfd",
      "outputs": [],
      "stateMutability": "nonpayable",
      "type": "function"
    },
    {
      "inputs": [
        {
          "internalType": "address",
          "name": "_poolHelper",
          "type": "address"
        }
      ],
      "name": "setPoolHelper",
      "outputs": [],
      "stateMutability": "nonpayable",
      "type": "function"
    },
    {
      "inputs": [
        {
          "internalType": "address",
          "name": "_provider",
          "type": "address"
        }
      ],
      "name": "setPriceProvider",
      "outputs": [],
      "stateMutability": "nonpayable",
      "type": "function"
    },
    {
      "inputs": [
        {
          "internalType": "address",
          "name": "newOwner",
          "type": "address"
        }
      ],
      "name": "transferOwnership",
      "outputs": [],
      "stateMutability": "nonpayable",
      "type": "function"
    },
    {
      "inputs": [],
      "name": "unpause",
      "outputs": [],
      "stateMutability": "nonpayable",
      "type": "function"
    },
    {
      "inputs": [],
      "name": "weth",
      "outputs": [
        {
          "internalType": "contract IWETH",
          "name": "",
          "type": "address"
        }
      ],
      "stateMutability": "view",
      "type": "function"
    },
    {
      "inputs": [
        {
          "internalType": "bool",
          "name": "_borrow",
          "type": "bool"
        },
        {
          "internalType": "uint256",
          "name": "_wethAmt",
          "type": "uint256"
        },
        {
          "internalType": "uint256",
          "name": "_rdntAmt",
          "type": "uint256"
        },
        {
          "internalType": "uint256",
          "name": "_lockTypeIndex",
          "type": "uint256"
        }
      ],
      "name": "zap",
      "outputs": [
        {
          "internalType": "uint256",
          "name": "",
          "type": "uint256"
        }
      ],
      "stateMutability": "payable",
      "type": "function"
    },
    {
      "inputs": [
        {
          "internalType": "address",
          "name": "_asset",
          "type": "address"
        },
        {
          "internalType": "uint256",
          "name": "_amount",
          "type": "uint256"
        },
        {
          "internalType": "uint256",
          "name": "_lockTypeIndex",
          "type": "uint256"
        }
      ],
      "name": "zapAlternateAsset",
      "outputs": [],
      "stateMutability": "nonpayable",
      "type": "function"
    },
    {
      "inputs": [
        {
          "internalType": "bool",
          "name": "_borrow",
          "type": "bool"
        },
        {
          "internalType": "uint256",
          "name": "_lockTypeIndex",
          "type": "uint256"
        }
      ],
      "name": "zapFromVesting",
      "outputs": [
        {
          "internalType": "uint256",
          "name": "",
          "type": "uint256"
        }
      ],
      "stateMutability": "payable",
      "type": "function"
    },
    {
      "inputs": [
        {
          "internalType": "bool",
          "name": "_borrow",
          "type": "bool"
        },
        {
          "internalType": "uint256",
          "name": "_wethAmt",
          "type": "uint256"
        },
        {
          "internalType": "uint256",
          "name": "_rdntAmt",
          "type": "uint256"
        },
        {
          "internalType": "address",
          "name": "_onBehalf",
          "type": "address"
        }
      ],
      "name": "zapOnBehalf",
      "outputs": [
        {
          "internalType": "uint256",
          "name": "",
          "type": "uint256"
        }
      ],
      "stateMutability": "payable",
      "type": "function"
    },
    {
      "stateMutability": "payable",
      "type": "receive"
    }
  ],
  "transactionHash": "0xfc423574a3562ef3f2304a1da5fa831438dd00101f04302a9e6ea539a26bb269",
  "args": [],
  "numDeployments": 1,
  "solcInputHash": "d20862d9a7051998216c9f1f22667b5c",
  "bytecode": "0x608060405234801561001057600080fd5b50613020806100206000396000f3fe6080604052600436106101c65760003560e01c80638456cb59116100f7578063b50bf85c11610095578063d7c41c7911610064578063d7c41c79146104b8578063e4849b32146104d8578063f2fde38b146104f8578063fd7060621461051857600080fd5b8063b50bf85c14610451578063b888879e1461046f578063bf2d2aa71461048f578063d4780885146104a557600080fd5b806391542085116100d157806391542085146103de5780639c8762e1146103f1578063a59a997314610411578063b0c634ee1461043157600080fd5b80638456cb591461038b5780638da5cb5b146103a0578063914237da146103be57600080fd5b806355ac8d301161016457806367dbf15d1161013e57806367dbf15d1461032a5780636a7e9f331461034a5780636ac3ac8f14610360578063715018a61461037657600080fd5b806355ac8d30146102c75780635c975abb146102e7578063667f37451461030a57600080fd5b80633b5d5417116101a05780633b5d5417146102345780633f4ba83a1461025a5780633fc8cef31461026f57806353eb66cd146102a757600080fd5b80632cd35475146101d257806337279ffd146101f4578063372aa2241461021457600080fd5b366101cd57005b600080fd5b3480156101de57600080fd5b506101f26101ed3660046129e7565b610538565b005b34801561020057600080fd5b506101f261020f366004612a04565b6105e0565b34801561022057600080fd5b506101f261022f3660046129e7565b610690565b610247610242366004612a2b565b6107ca565b6040519081526020015b60405180910390f35b34801561026657600080fd5b506101f26107ee565b34801561027b57600080fd5b5060ca5461028f906001600160a01b031681565b6040516001600160a01b039091168152602001610251565b3480156102b357600080fd5b506101f26102c2366004612a66565b610852565b3480156102d357600080fd5b5060ce5461028f906001600160a01b031681565b3480156102f357600080fd5b5060975460ff166040519015158152602001610251565b34801561031657600080fd5b5061028f6103253660046129e7565b610fd1565b34801561033657600080fd5b506101f26103453660046129e7565b611069565b34801561035657600080fd5b5061024761271081565b34801561036c57600080fd5b5061024760d15481565b34801561038257600080fd5b506101f261110c565b34801561039757600080fd5b506101f2611170565b3480156103ac57600080fd5b506065546001600160a01b031661028f565b3480156103ca57600080fd5b5060cb5461028f906001600160a01b031681565b6102476103ec366004612a9b565b6111d2565b3480156103fd57600080fd5b5060d05461028f906001600160a01b031681565b34801561041d57600080fd5b5060cd5461028f906001600160a01b031681565b34801561043d57600080fd5b5060cc5461028f906001600160a01b031681565b34801561045d57600080fd5b5060ce546001600160a01b031661028f565b34801561047b57600080fd5b5060cf5461028f906001600160a01b031681565b34801561049b57600080fd5b5061024760c95481565b6102476104b3366004612ac7565b61128d565b3480156104c457600080fd5b506101f26104d3366004612b11565b61133a565b3480156104e457600080fd5b506102476104f3366004612a04565b61152f565b34801561050457600080fd5b506101f26105133660046129e7565b61163c565b34801561052457600080fd5b50610247610533366004612a04565b61171e565b6065546001600160a01b031633146105975760405162461bcd60e51b815260206004820181905260248201527f4f776e61626c653a2063616c6c6572206973206e6f7420746865206f776e657260448201526064015b60405180910390fd5b6001600160a01b0381166105be57604051639fabe1c160e01b815260040160405180910390fd5b60ce80546001600160a01b0319166001600160a01b0392909216919091179055565b6065546001600160a01b0316331461063a5760405162461bcd60e51b815260206004820181905260248201527f4f776e61626c653a2063616c6c6572206973206e6f7420746865206f776e6572604482015260640161058e565b61271081111561065d5760405163648564d360e01b815260040160405180910390fd5b60c981905560405181907faea049399e27d84e09176940b9f344bb0dee2fd872fd88eb48af592da118ba4090600090a250565b6065546001600160a01b031633146106ea5760405162461bcd60e51b815260206004820181905260248201527f4f776e61626c653a2063616c6c6572206973206e6f7420746865206f776e6572604482015260640161058e565b6001600160a01b03811661071157604051639fabe1c160e01b815260040160405180910390fd5b60cf80546001600160a01b0319166001600160a01b038316908117909155604080517fcf811d2a000000000000000000000000000000000000000000000000000000008152905163cf811d2a916004808201926020929091908290030181865afa158015610783573d6000803e3d6000fd5b505050506040513d601f19601f820116820180604052508101906107a79190612b8f565b60d080546001600160a01b0319166001600160a01b039290921691909117905550565b60006107d46117a6565b6107e3858585333387336117f9565b90505b949350505050565b6065546001600160a01b031633146108485760405162461bcd60e51b815260206004820181905260248201527f4f776e61626c653a2063616c6c6572206973206e6f7420746865206f776e6572604482015260640161058e565b610850611d7f565b565b6001600160a01b03831661087957604051639fabe1c160e01b815260040160405180910390fd5b81610897576040516365e52d5160e11b815260040160405180910390fd5b6000836001600160a01b031663313ce5676040518163ffffffff1660e01b8152600401602060405180830381865afa1580156108d7573d6000803e3d6000fd5b505050506040513d601f19601f820116820180604052508101906108fb9190612bbd565b60ff169050600060cd60009054906101000a90046001600160a01b03166001600160a01b031663fe65acfe6040518163ffffffff1660e01b8152600401602060405180830381865afa158015610955573d6000803e3d6000fd5b505050506040513d601f19601f820116820180604052508101906109799190612b8f565b6001600160a01b031663fca513a86040518163ffffffff1660e01b8152600401602060405180830381865afa1580156109b6573d6000803e3d6000fd5b505050506040513d601f19601f820116820180604052508101906109da9190612b8f565b6040517fb3596f070000000000000000000000000000000000000000000000000000000081526001600160a01b03878116600483015291925060009183169063b3596f0790602401602060405180830381865afa158015610a3f573d6000803e3d6000fd5b505050506040513d601f19601f82011682018060405250810190610a639190612bd8565b9050600060d060009054906101000a90046001600160a01b03166001600160a01b03166350d25bcd6040518163ffffffff1660e01b8152600401602060405180830381865afa158015610aba573d6000803e3d6000fd5b505050506040513d601f19601f82011682018060405250810190610ade9190612bd8565b905060008183610aef876012612c07565b610afa90600a612d02565b610b04908a612d0e565b610b0e9190612d0e565b610b189190612d2d565b60ce546040516323b872dd60e01b81523360048201526001600160a01b039182166024820152604481018a90529192508916906323b872dd906064016020604051808303816000875af1158015610b73573d6000803e3d6000fd5b505050506040513d601f19601f82011682018060405250810190610b979190612d4f565b5060ca5460ce546040516370a0823160e01b81526001600160a01b03918216600482015260009291909116906370a08231906024016020604051808303816000875af1158015610beb573d6000803e3d6000fd5b505050506040513d601f19601f82011682018060405250810190610c0f9190612bd8565b9050600061271060c95484610c249190612d0e565b610c2e9190612d2d565b60ce546040517fd6e4845c0000000000000000000000000000000000000000000000000000000081526001600160a01b038d81166004830152602482018d90526044820184905292935091169063d6e4845c90606401600060405180830381600087803b158015610c9e57600080fd5b505af1158015610cb2573d6000803e3d6000fd5b505060ca546040516370a0823160e01b8152306004820152600093508592506001600160a01b03909116906370a08231906024016020604051808303816000875af1158015610d05573d6000803e3d6000fd5b505050506040513d601f19601f82011682018060405250810190610d299190612bd8565b610d339190612c07565b60ca5460ce5460405163095ea7b360e01b81526001600160a01b03918216600482015260248101849052929350169063095ea7b3906044016020604051808303816000875af1158015610d8a573d6000803e3d6000fd5b505050506040513d601f19601f82011682018060405250810190610dae9190612d4f565b5060ce54604051636414dfed60e11b8152600481018390526000916001600160a01b03169063c829bfda906024016020604051808303816000875af1158015610dfb573d6000803e3d6000fd5b505050506040513d601f19601f82011682018060405250810190610e1f9190612bd8565b60cf549091506001600160a01b031615610e66576000610e3f8383611dd1565b905060c954811015610e645760405163334ee9a160e01b815260040160405180910390fd5b505b60cc5460ce54604080516321cf280b60e11b81529051610ef0936001600160a01b0390811693869391169163439e5016916004808201926020929091908290030181865afa158015610ebc573d6000803e3d6000fd5b505050506040513d601f19601f82011682018060405250810190610ee09190612b8f565b6001600160a01b03169190611f81565b60cc54604051631ba724c760e21b815260048101839052336024820152604481018c90526001600160a01b0390911690636e9c931c90606401600060405180830381600087803b158015610f4357600080fd5b505af1158015610f57573d6000803e3d6000fd5b50506040805160008082526020820187905281830152606081018e905290513393508392507f185f471aee8e22c0f6772d9076b984cb8394859d474a9799c1421f440262d5819181900360800190a360cb5460ca54610fc3916001600160a01b0390811691163361211b565b505050505050505050505050565b60cd546040517f35ea6a750000000000000000000000000000000000000000000000000000000081526001600160a01b03838116600483015260009283929116906335ea6a759060240161018060405180830381865afa158015611039573d6000803e3d6000fd5b505050506040513d601f19601f8201168201806040525081019061105d9190612e29565b61012001519392505050565b6065546001600160a01b031633146110c35760405162461bcd60e51b815260206004820181905260248201527f4f776e61626c653a2063616c6c6572206973206e6f7420746865206f776e6572604482015260640161058e565b6001600160a01b0381166110ea57604051639fabe1c160e01b815260040160405180910390fd5b60cc80546001600160a01b0319166001600160a01b0392909216919091179055565b6065546001600160a01b031633146111665760405162461bcd60e51b815260206004820181905260248201527f4f776e61626c653a2063616c6c6572206973206e6f7420746865206f776e6572604482015260640161058e565b6108506000612290565b6065546001600160a01b031633146111ca5760405162461bcd60e51b815260206004820181905260248201527f4f776e61626c653a2063616c6c6572206973206e6f7420746865206f776e6572604482015260640161058e565b6108506122e2565b60006111dc6117a6565b60cc546040517f2843b0190000000000000000000000000000000000000000000000000000000081523360048201526000916001600160a01b031690632843b019906024016020604051808303816000875af1158015611240573d6000803e3d6000fd5b505050506040513d601f19601f820116820180604052508101906112649190612bd8565b905060006112718261171e565b9050611282858284303389336117f9565b925050505b92915050565b60006112976117a6565b60cc546040517f2e88caa10000000000000000000000000000000000000000000000000000000081526001600160a01b0384811660048301526000921690632e88caa190602401602060405180830381865afa1580156112fb573d6000803e3d6000fd5b505050506040513d601f19601f8201168201806040525081019061131f9190612bd8565b9050611330868686338786896117f9565b9695505050505050565b600054610100900460ff168061134f5750303b155b8061135d575060005460ff16155b6113cf5760405162461bcd60e51b815260206004820152602e60248201527f436f6e747261637420696e7374616e63652068617320616c726561647920626560448201527f656e20696e697469616c697a6564000000000000000000000000000000000000606482015260840161058e565b600054610100900460ff161580156113f1576000805461ffff19166101011790555b6001600160a01b03871661141857604051639fabe1c160e01b815260040160405180910390fd5b6001600160a01b03861661143f57604051639fabe1c160e01b815260040160405180910390fd5b6001600160a01b03851661146657604051639fabe1c160e01b815260040160405180910390fd5b6001600160a01b03841661148d57604051639fabe1c160e01b815260040160405180910390fd5b6127108311156114b05760405163648564d360e01b815260040160405180910390fd5b6114b861231f565b6114c0612392565b60cd80546001600160a01b038089166001600160a01b03199283161790925560ce80548a841690831617905560ca805488841690831617905560cb80549287169290911691909117905560d183905560c98290558015611526576000805461ff00191690555b50505050505050565b60cb5460ce546040516323b872dd60e01b81523360048201526001600160a01b0391821660248201526044810184905260009291909116906323b872dd906064016020604051808303816000875af115801561158f573d6000803e3d6000fd5b505050506040513d601f19601f820116820180604052508101906115b39190612d4f565b5060ce546040517fe4849b32000000000000000000000000000000000000000000000000000000008152600481018490526001600160a01b039091169063e4849b32906024016020604051808303816000875af1158015611618573d6000803e3d6000fd5b505050506040513d601f19601f820116820180604052508101906112879190612bd8565b6065546001600160a01b031633146116965760405162461bcd60e51b815260206004820181905260248201527f4f776e61626c653a2063616c6c6572206973206e6f7420746865206f776e6572604482015260640161058e565b6001600160a01b0381166117125760405162461bcd60e51b815260206004820152602660248201527f4f776e61626c653a206e6577206f776e657220697320746865207a65726f206160448201527f6464726573730000000000000000000000000000000000000000000000000000606482015260840161058e565b61171b81612290565b50565b60ce54604051637eb8303160e11b815260048101839052600091611287916061916117a0916064916001600160a01b03169063fd70606290602401602060405180830381865afa158015611776573d6000803e3d6000fd5b505050506040513d601f19601f8201168201806040525081019061179a9190612bd8565b90612405565b90612418565b60975460ff16156108505760405162461bcd60e51b815260206004820152601060248201527f5061757361626c653a2070617573656400000000000000000000000000000000604482015260640161058e565b600086158015611807575034155b15611825576040516365e52d5160e11b815260040160405180910390fd5b34156118d4578715611863576040517fd3555def00000000000000000000000000000000000000000000000000000000815260040160405180910390fd5b34965060ca60009054906101000a90046001600160a01b03166001600160a01b031663d0e30db0886040518263ffffffff1660e01b81526004016000604051808303818588803b1580156118b657600080fd5b505af11580156118ca573d6000803e3d6000fd5b5050505050611965565b87156118e8576118e387612424565b611965565b60ca546040516323b872dd60e01b8152336004820152306024820152604481018990526001600160a01b03909116906323b872dd906064016020604051808303816000875af115801561193f573d6000803e3d6000fd5b505050506040513d601f19601f820116820180604052508101906119639190612d4f565b505b60ca5460ce5460405163095ea7b360e01b81526001600160a01b039182166004820152602481018a9052600092919091169063095ea7b3906044016020604051808303816000875af11580156119bf573d6000803e3d6000fd5b505050506040513d601f19601f820116820180604052508101906119e39190612d4f565b508615611b815760ce54604051637eb8303160e11b8152600481018990526001600160a01b039091169063fd70606290602401602060405180830381865afa158015611a33573d6000803e3d6000fd5b505050506040513d601f19601f82011682018060405250810190611a579190612bd8565b881015611a90576040517f6a12f10400000000000000000000000000000000000000000000000000000000815260040160405180910390fd5b6001600160a01b0386163014611ab85760cb54611ab8906001600160a01b031633308a612622565b60ce5460cb54611ad5916001600160a01b03918216911689611f81565b60ce546040517f753983d6000000000000000000000000000000000000000000000000000000008152600481018a9052602481018990526001600160a01b039091169063753983d6906044016020604051808303816000875af1158015611b40573d6000803e3d6000fd5b505050506040513d601f19601f82011682018060405250810190611b649190612bd8565b60d154909250611b7a906117a08a612710612405565b9050611bf6565b60ce54604051636414dfed60e11b8152600481018a90526001600160a01b039091169063c829bfda906024016020604051808303816000875af1158015611bcc573d6000803e3d6000fd5b505050506040513d601f19601f82011682018060405250810190611bf09190612bd8565b91508790505b60cf546001600160a01b031615611c3a576000611c138284611dd1565b905060c954811015611c385760405163334ee9a160e01b815260040160405180910390fd5b505b60cc5460ce54604080516321cf280b60e11b81529051611c90936001600160a01b0390811693879391169163439e5016916004808201926020929091908290030181865afa158015610ebc573d6000803e3d6000fd5b60cc54604051631ba724c760e21b8152600481018490526001600160a01b0387811660248301526044820187905290911690636e9c931c90606401600060405180830381600087803b158015611ce557600080fd5b505af1158015611cf9573d6000803e3d6000fd5b5050604080518c15158152602081018c90529081018a9052606081018790526001600160a01b038089169350891691507f185f471aee8e22c0f6772d9076b984cb8394859d474a9799c1421f440262d5819060800160405180910390a360cb5460ca54611d73916001600160a01b0390811691168561211b565b50979650505050505050565b611d87612660565b6097805460ff191690557f5db9ee0a495bf2e6ff9c91a7834c1ba4fdd244a5e8aa4e537bd38aeae4b073aa335b6040516001600160a01b03909116815260200160405180910390a1565b60cf54604080517fa2e6204500000000000000000000000000000000000000000000000000000000815290516000926001600160a01b03169163a2e62045916004808301928692919082900301818387803b158015611e2f57600080fd5b505af1158015611e43573d6000803e3d6000fd5b505050506000611ed6670de0b6b3a76400006117a060d060009054906101000a90046001600160a01b03166001600160a01b03166350d25bcd6040518163ffffffff1660e01b8152600401602060405180830381865afa158015611eab573d6000803e3d6000fd5b505050506040513d601f19601f82011682018060405250810190611ecf9190612bd8565b8790612405565b9050600060cf60009054906101000a90046001600160a01b03166001600160a01b0316636e9a05c56040518163ffffffff1660e01b8152600401602060405180830381865afa158015611f2d573d6000803e3d6000fd5b505050506040513d601f19601f82011682018060405250810190611f519190612bd8565b611f5b9085612d0e565b9050611f6d826117a083612710612405565b925061128283670de0b6b3a7640000612418565b80158061201457506040517fdd62ed3e0000000000000000000000000000000000000000000000000000000081523060048201526001600160a01b03838116602483015284169063dd62ed3e90604401602060405180830381865afa158015611fee573d6000803e3d6000fd5b505050506040513d601f19601f820116820180604052508101906120129190612bd8565b155b6120865760405162461bcd60e51b815260206004820152603660248201527f5361666545524332303a20617070726f76652066726f6d206e6f6e2d7a65726f60448201527f20746f206e6f6e2d7a65726f20616c6c6f77616e636500000000000000000000606482015260840161058e565b6040516001600160a01b03831660248201526044810182905261211690849063095ea7b360e01b906064015b60408051601f198184030181529190526020810180517bffffffffffffffffffffffffffffffffffffffffffffffffffffffff167fffffffff00000000000000000000000000000000000000000000000000000000909316929092179091526126b2565b505050565b6040516370a0823160e01b8152306004820152839083906000906001600160a01b038316906370a08231906024016020604051808303816000875af1158015612168573d6000803e3d6000fd5b505050506040513d601f19601f8201168201806040525081019061218c9190612bd8565b905080156122095760405163a9059cbb60e01b81526001600160a01b0385811660048301526024820183905283169063a9059cbb906044016020604051808303816000875af11580156121e3573d6000803e3d6000fd5b505050506040513d601f19601f820116820180604052508101906122079190612d4f565b505b6040516370a0823160e01b81523060048201526000906001600160a01b038516906370a0823190602401602060405180830381865afa158015612250573d6000803e3d6000fd5b505050506040513d601f19601f820116820180604052508101906122749190612bd8565b90508015611526576115266001600160a01b0385168683612797565b606580546001600160a01b038381166001600160a01b0319831681179093556040519116919082907f8be0079c531659141344cd1fd0a4f28419497f9722a3daafe3b4186f6b6457e090600090a35050565b6122ea6117a6565b6097805460ff191660011790557f62e78cea01bee320cd4e420270b5ea74000d11b0c9f74754ebdbfc544b05a258611db43390565b600054610100900460ff1661238a5760405162461bcd60e51b815260206004820152602b60248201527f496e697469616c697a61626c653a20636f6e7472616374206973206e6f74206960448201526a6e697469616c697a696e6760a81b606482015260840161058e565b6108506127c7565b600054610100900460ff166123fd5760405162461bcd60e51b815260206004820152602b60248201527f496e697469616c697a61626c653a20636f6e7472616374206973206e6f74206960448201526a6e697469616c697a696e6760a81b606482015260840161058e565b61085061283b565b60006124118284612d0e565b9392505050565b60006124118284612d2d565b60cd546040517fbf92857c0000000000000000000000000000000000000000000000000000000081523360048201526000916001600160a01b03169063bf92857c9060240160c060405180830381865afa158015612486573d6000803e3d6000fd5b505050506040513d601f19601f820116820180604052508101906124aa9190612f16565b50505092505050600061254660ca60009054906101000a90046001600160a01b03166001600160a01b031663313ce5676040518163ffffffff1660e01b8152600401602060405180830381865afa158015612509573d6000803e3d6000fd5b505050506040513d601f19601f8201168201806040525081019061252d9190612bbd565b61253890600a612f60565b6117a0856305f5e100612405565b905080821015612582576040517f332e272f00000000000000000000000000000000000000000000000000000000815260040160405180910390fd5b60cd5460ca546040517fa415bcad0000000000000000000000000000000000000000000000000000000081526001600160a01b039182166004820152602481018690526002604482015260006064820181905233608483015292919091169063a415bcad9060a401600060405180830381600087803b15801561260457600080fd5b505af1158015612618573d6000803e3d6000fd5b5050505050505050565b6040516001600160a01b038085166024830152831660448201526064810182905261265a9085906323b872dd60e01b906084016120b2565b50505050565b60975460ff166108505760405162461bcd60e51b815260206004820152601460248201527f5061757361626c653a206e6f7420706175736564000000000000000000000000604482015260640161058e565b6000612707826040518060400160405280602081526020017f5361666545524332303a206c6f772d6c6576656c2063616c6c206661696c6564815250856001600160a01b03166128b29092919063ffffffff16565b80519091501561211657808060200190518101906127259190612d4f565b6121165760405162461bcd60e51b815260206004820152602a60248201527f5361666545524332303a204552433230206f7065726174696f6e20646964206e60448201527f6f74207375636365656400000000000000000000000000000000000000000000606482015260840161058e565b6040516001600160a01b03831660248201526044810182905261211690849063a9059cbb60e01b906064016120b2565b600054610100900460ff166128325760405162461bcd60e51b815260206004820152602b60248201527f496e697469616c697a61626c653a20636f6e7472616374206973206e6f74206960448201526a6e697469616c697a696e6760a81b606482015260840161058e565b61085033612290565b600054610100900460ff166128a65760405162461bcd60e51b815260206004820152602b60248201527f496e697469616c697a61626c653a20636f6e7472616374206973206e6f74206960448201526a6e697469616c697a696e6760a81b606482015260840161058e565b6097805460ff19169055565b60606107e6848460008585600080866001600160a01b031685876040516128d99190612f9b565b60006040518083038185875af1925050503d8060008114612916576040519150601f19603f3d011682016040523d82523d6000602084013e61291b565b606091505b509150915061292c87838387612937565b979650505050505050565b606083156129a357825161299c576001600160a01b0385163b61299c5760405162461bcd60e51b815260206004820152601d60248201527f416464726573733a2063616c6c20746f206e6f6e2d636f6e7472616374000000604482015260640161058e565b50816107e6565b6107e683838151156129b85781518083602001fd5b8060405162461bcd60e51b815260040161058e9190612fb7565b6001600160a01b038116811461171b57600080fd5b6000602082840312156129f957600080fd5b8135612411816129d2565b600060208284031215612a1657600080fd5b5035919050565b801515811461171b57600080fd5b60008060008060808587031215612a4157600080fd5b8435612a4c81612a1d565b966020860135965060408601359560600135945092505050565b600080600060608486031215612a7b57600080fd5b8335612a86816129d2565b95602085013595506040909401359392505050565b60008060408385031215612aae57600080fd5b8235612ab981612a1d565b946020939093013593505050565b60008060008060808587031215612add57600080fd5b8435612ae881612a1d565b935060208501359250604085013591506060850135612b06816129d2565b939692955090935050565b60008060008060008060c08789031215612b2a57600080fd5b8635612b35816129d2565b95506020870135612b45816129d2565b94506040870135612b55816129d2565b93506060870135612b65816129d2565b9598949750929560808101359460a0909101359350915050565b8051612b8a816129d2565b919050565b600060208284031215612ba157600080fd5b8151612411816129d2565b805160ff81168114612b8a57600080fd5b600060208284031215612bcf57600080fd5b61241182612bac565b600060208284031215612bea57600080fd5b5051919050565b634e487b7160e01b600052601160045260246000fd5b600082821015612c1957612c19612bf1565b500390565b600181815b80851115612c59578160001904821115612c3f57612c3f612bf1565b80851615612c4c57918102915b93841c9390800290612c23565b509250929050565b600082612c7057506001611287565b81612c7d57506000611287565b8160018114612c935760028114612c9d57612cb9565b6001915050611287565b60ff841115612cae57612cae612bf1565b50506001821b611287565b5060208310610133831016604e8410600b8410161715612cdc575081810a611287565b612ce68383612c1e565b8060001904821115612cfa57612cfa612bf1565b029392505050565b60006124118383612c61565b6000816000190483118215151615612d2857612d28612bf1565b500290565b600082612d4a57634e487b7160e01b600052601260045260246000fd5b500490565b600060208284031215612d6157600080fd5b815161241181612a1d565b604051610180810167ffffffffffffffff81118282101715612d9e57634e487b7160e01b600052604160045260246000fd5b60405290565b600060208284031215612db657600080fd5b6040516020810181811067ffffffffffffffff82111715612de757634e487b7160e01b600052604160045260246000fd5b6040529151825250919050565b80516fffffffffffffffffffffffffffffffff81168114612b8a57600080fd5b805164ffffffffff81168114612b8a57600080fd5b60006101808284031215612e3c57600080fd5b612e44612d6c565b612e4e8484612da4565b8152612e5c60208401612df4565b6020820152612e6d60408401612df4565b6040820152612e7e60608401612df4565b6060820152612e8f60808401612df4565b6080820152612ea060a08401612df4565b60a0820152612eb160c08401612e14565b60c0820152612ec260e08401612b7f565b60e0820152610100612ed5818501612b7f565b90820152610120612ee7848201612b7f565b90820152610140612ef9848201612b7f565b90820152610160612f0b848201612bac565b908201529392505050565b60008060008060008060c08789031215612f2f57600080fd5b865195506020870151945060408701519350606087015192506080870151915060a087015190509295509295509295565b600061241160ff841683612c61565b60005b83811015612f8a578181015183820152602001612f72565b8381111561265a5750506000910152565b60008251612fad818460208701612f6f565b9190910192915050565b6020815260008251806020840152612fd6816040850160208701612f6f565b601f01601f1916919091016040019291505056fea264697066735822122004edf5190eb8f932a4ba459b9d5413ebca757f6aaa7fdb0400618dd6df4bc13164736f6c634300080c0033",
  "devdoc": {
    "kind": "dev",
    "methods": {
      "getVDebtToken(address)": {
        "params": {
          "_asset": "underlying."
        }
      },
      "initialize(address,address,address,address,uint256,uint256)": {
        "params": {
          "_lendingPool": "Lending pool",
          "_poolHelper": "Pool helper address",
          "_rdntAddr": "RDNT token address",
          "_weth": "weth address"
        }
      },
      "paused()": {
        "details": "Returns true if the contract is paused, and false otherwise."
      },
      "quoteFromToken(uint256)": {
        "params": {
          "_tokenAmount": "amount of tokens."
        }
      },
      "setMfd(address)": {
        "params": {
          "_mfdAddr": "New contract address."
        }
      },
      "setPoolHelper(address)": {
        "params": {
          "_poolHelper": "New PoolHelper contract address."
        }
      },
      "setPriceProvider(address)": {
        "params": {
          "_provider": "Price provider contract address."
        }
      },
      "zap(bool,uint256,uint256,uint256)": {
        "params": {
          "_borrow": "option to borrow ETH",
          "_lockTypeIndex": "lock length index.",
          "_rdntAmt": "amount of RDNT.",
          "_wethAmt": "amount of weth."
        }
      },
      "zapAlternateAsset(address,uint256,uint256)": {
        "params": {
          "_amount": "the amount of asset to zap",
          "_asset": "address of the asset to zap in",
          "_lockTypeIndex": "lock length index."
        }
      },
      "zapFromVesting(bool,uint256)": {
        "params": {
          "_borrow": "option to borrow ETH",
          "_lockTypeIndex": "lock length index."
        }
      },
      "zapOnBehalf(bool,uint256,uint256,address)": {
        "details": "It will use default lock index",
        "params": {
          "_borrow": "option to borrow ETH",
          "_onBehalf": "user address to be zapped.",
          "_rdntAmt": "amount of RDNT.",
          "_wethAmt": "amount of weth."
        }
      }
    },
    "version": 1
  },
  "userdoc": {
    "events": {
      "Zapped(bool,uint256,uint256,address,address,uint256)": {
        "notice": "Emitted when zap is done"
      }
    },
    "kind": "user",
    "methods": {
      "ACCEPTABLE_RATIO()": {
        "notice": "Acceptable ratio"
      },
      "RATIO_DIVISOR()": {
        "notice": "RAITO Divisor"
      },
      "ethOracle()": {
        "notice": "ETH oracle contract"
      },
      "getPoolHelper()": {
        "notice": "Returns pool helper address"
      },
      "getVDebtToken(address)": {
        "notice": "Get Variable debt token address"
      },
      "initialize(address,address,address,address,uint256,uint256)": {
        "notice": "Initializer"
      },
      "lendingPool()": {
        "notice": "Lending Pool contract"
      },
      "mfd()": {
        "notice": "Multi Fee distribution contract"
      },
      "pause()": {
        "notice": "Pause zapping operation."
      },
      "poolHelper()": {
        "notice": "Pool helper contract"
      },
      "priceProvider()": {
        "notice": "Price provider contract"
      },
      "quoteFromToken(uint256)": {
        "notice": "Get quote from the pool"
      },
      "rdntAddr()": {
        "notice": "RDNT token address"
      },
      "setAcceptableRatio(uint256)": {
        "notice": "Updates acceptable slippage ratio."
      },
      "setMfd(address)": {
        "notice": "Set Multi fee distribution contract."
      },
      "setPoolHelper(address)": {
        "notice": "Set Pool Helper contract"
      },
      "setPriceProvider(address)": {
        "notice": "Set Price Provider."
      },
      "unpause()": {
        "notice": "Unpause zapping operation."
      },
      "weth()": {
        "notice": "Wrapped ETH"
      },
      "zap(bool,uint256,uint256,uint256)": {
        "notice": "Zap tokens to stake LP"
      },
      "zapAlternateAsset(address,uint256,uint256)": {
        "notice": "Zap tokens like USDC, DAI, USDT, WBTC to lp"
      },
      "zapFromVesting(bool,uint256)": {
        "notice": "Zap tokens from vesting"
      },
      "zapOnBehalf(bool,uint256,uint256,address)": {
        "notice": "Zap tokens to stake LP"
      }
    },
    "version": 1
  },
  "storageLayout": {
    "storage": [
      {
        "astId": 10936,
        "contract": "contracts/test/TestLockZap.sol:TestnetLockZap",
        "label": "initialized",
        "offset": 0,
        "slot": "0",
        "type": "t_bool"
      },
      {
        "astId": 10939,
        "contract": "contracts/test/TestLockZap.sol:TestnetLockZap",
        "label": "initializing",
        "offset": 1,
        "slot": "0",
        "type": "t_bool"
      },
      {
        "astId": 11006,
        "contract": "contracts/test/TestLockZap.sol:TestnetLockZap",
        "label": "______gap",
        "offset": 0,
        "slot": "1",
        "type": "t_array(t_uint256)50_storage"
      },
      {
        "astId": 10929,
        "contract": "contracts/test/TestLockZap.sol:TestnetLockZap",
        "label": "__gap",
        "offset": 0,
        "slot": "51",
        "type": "t_array(t_uint256)50_storage"
      },
      {
        "astId": 11151,
        "contract": "contracts/test/TestLockZap.sol:TestnetLockZap",
        "label": "_owner",
        "offset": 0,
        "slot": "101",
        "type": "t_address"
      },
      {
        "astId": 11256,
        "contract": "contracts/test/TestLockZap.sol:TestnetLockZap",
        "label": "__gap",
        "offset": 0,
        "slot": "102",
        "type": "t_array(t_uint256)49_storage"
      },
      {
        "astId": 11278,
        "contract": "contracts/test/TestLockZap.sol:TestnetLockZap",
        "label": "_paused",
        "offset": 0,
        "slot": "151",
        "type": "t_bool"
      },
      {
        "astId": 11383,
        "contract": "contracts/test/TestLockZap.sol:TestnetLockZap",
        "label": "__gap",
        "offset": 0,
        "slot": "152",
        "type": "t_array(t_uint256)49_storage"
      },
      {
        "astId": 51171,
        "contract": "contracts/test/TestLockZap.sol:TestnetLockZap",
        "label": "ACCEPTABLE_RATIO",
        "offset": 0,
        "slot": "201",
        "type": "t_uint256"
      },
      {
        "astId": 51175,
        "contract": "contracts/test/TestLockZap.sol:TestnetLockZap",
        "label": "weth",
        "offset": 0,
        "slot": "202",
        "type": "t_contract(IWETH)18162"
      },
      {
        "astId": 51178,
        "contract": "contracts/test/TestLockZap.sol:TestnetLockZap",
        "label": "rdntAddr",
        "offset": 0,
        "slot": "203",
        "type": "t_address"
      },
      {
        "astId": 51182,
        "contract": "contracts/test/TestLockZap.sol:TestnetLockZap",
        "label": "mfd",
        "offset": 0,
        "slot": "204",
        "type": "t_contract(IMultiFeeDistribution)17156"
      },
      {
        "astId": 51186,
        "contract": "contracts/test/TestLockZap.sol:TestnetLockZap",
        "label": "lendingPool",
        "offset": 0,
        "slot": "205",
        "type": "t_contract(ILendingPool)16219"
      },
      {
        "astId": 51190,
        "contract": "contracts/test/TestLockZap.sol:TestnetLockZap",
        "label": "poolHelper",
        "offset": 0,
        "slot": "206",
        "type": "t_contract(IPoolHelper)17273"
      },
      {
        "astId": 51194,
        "contract": "contracts/test/TestLockZap.sol:TestnetLockZap",
        "label": "priceProvider",
        "offset": 0,
        "slot": "207",
        "type": "t_contract(IPriceProvider)17364"
      },
      {
        "astId": 51198,
        "contract": "contracts/test/TestLockZap.sol:TestnetLockZap",
        "label": "ethOracle",
        "offset": 0,
        "slot": "208",
        "type": "t_contract(IChainlinkAggregator)15366"
      },
      {
        "astId": 51233,
        "contract": "contracts/test/TestLockZap.sol:TestnetLockZap",
        "label": "ethLPRatio",
        "offset": 0,
        "slot": "209",
        "type": "t_uint256"
      }
    ],
    "types": {
      "t_address": {
        "encoding": "inplace",
        "label": "address",
        "numberOfBytes": "20"
      },
      "t_array(t_uint256)49_storage": {
        "base": "t_uint256",
        "encoding": "inplace",
        "label": "uint256[49]",
        "numberOfBytes": "1568"
      },
      "t_array(t_uint256)50_storage": {
        "base": "t_uint256",
        "encoding": "inplace",
        "label": "uint256[50]",
        "numberOfBytes": "1600"
      },
      "t_bool": {
        "encoding": "inplace",
        "label": "bool",
        "numberOfBytes": "1"
      },
      "t_contract(IChainlinkAggregator)15366": {
        "encoding": "inplace",
        "label": "contract IChainlinkAggregator",
        "numberOfBytes": "20"
      },
      "t_contract(ILendingPool)16219": {
        "encoding": "inplace",
        "label": "contract ILendingPool",
        "numberOfBytes": "20"
      },
      "t_contract(IMultiFeeDistribution)17156": {
        "encoding": "inplace",
        "label": "contract IMultiFeeDistribution",
        "numberOfBytes": "20"
      },
      "t_contract(IPoolHelper)17273": {
        "encoding": "inplace",
        "label": "contract IPoolHelper",
        "numberOfBytes": "20"
      },
      "t_contract(IPriceProvider)17364": {
        "encoding": "inplace",
        "label": "contract IPriceProvider",
        "numberOfBytes": "20"
      },
      "t_contract(IWETH)18162": {
        "encoding": "inplace",
        "label": "contract IWETH",
        "numberOfBytes": "20"
      },
      "t_uint256": {
        "encoding": "inplace",
        "label": "uint256",
        "numberOfBytes": "32"
      }
    }
  }
}