{
  "address": "0xF942C2054C8Cfd8886a506161edAE9B4168fe390",
  "abi": [
    {
      "inputs": [],
      "name": "ActiveReward",
      "type": "error"
    },
    {
      "inputs": [],
      "name": "AddressZero",
      "type": "error"
    },
    {
      "inputs": [],
      "name": "AlreadyAdded",
      "type": "error"
    },
    {
      "inputs": [],
      "name": "AmountZero",
      "type": "error"
    },
    {
      "inputs": [],
      "name": "InsufficientPermission",
      "type": "error"
    },
    {
      "inputs": [],
      "name": "InvalidAmount",
      "type": "error"
    },
    {
      "inputs": [],
      "name": "InvalidBurn",
      "type": "error"
    },
    {
      "inputs": [],
      "name": "InvalidEarned",
      "type": "error"
    },
    {
      "inputs": [],
      "name": "InvalidLockPeriod",
      "type": "error"
    },
    {
      "inputs": [],
      "name": "InvalidLookback",
      "type": "error"
    },
    {
      "inputs": [],
      "name": "InvalidPeriod",
      "type": "error"
    },
    {
      "inputs": [],
      "name": "InvalidTime",
      "type": "error"
    },
    {
      "inputs": [],
      "name": "InvalidType",
      "type": "error"
    },
    {
      "inputs": [],
      "name": "MintersSet",
      "type": "error"
    },
    {
      "anonymous": false,
      "inputs": [
        {
          "indexed": false,
          "internalType": "uint8",
          "name": "version",
          "type": "uint8"
        }
      ],
      "name": "Initialized",
      "type": "event"
    },
    {
      "anonymous": false,
      "inputs": [
        {
          "indexed": true,
          "internalType": "address",
          "name": "user",
          "type": "address"
        },
        {
          "indexed": false,
          "internalType": "uint256",
          "name": "amount",
          "type": "uint256"
        },
        {
          "indexed": false,
          "internalType": "uint256",
          "name": "lockedBalance",
          "type": "uint256"
        },
        {
          "indexed": false,
          "internalType": "bool",
          "name": "isLP",
          "type": "bool"
        }
      ],
      "name": "Locked",
      "type": "event"
    },
    {
      "anonymous": false,
      "inputs": [
        {
          "indexed": true,
          "internalType": "address",
          "name": "previousOwner",
          "type": "address"
        },
        {
          "indexed": true,
          "internalType": "address",
          "name": "newOwner",
          "type": "address"
        }
      ],
      "name": "OwnershipTransferred",
      "type": "event"
    },
    {
      "anonymous": false,
      "inputs": [
        {
          "indexed": false,
          "internalType": "address",
          "name": "account",
          "type": "address"
        }
      ],
      "name": "Paused",
      "type": "event"
    },
    {
      "anonymous": false,
      "inputs": [
        {
          "indexed": true,
          "internalType": "address",
          "name": "token",
          "type": "address"
        },
        {
          "indexed": false,
          "internalType": "uint256",
          "name": "amount",
          "type": "uint256"
        }
      ],
      "name": "Recovered",
      "type": "event"
    },
    {
      "anonymous": false,
      "inputs": [
        {
          "indexed": true,
          "internalType": "address",
          "name": "user",
          "type": "address"
        },
        {
          "indexed": false,
          "internalType": "uint256",
          "name": "amount",
          "type": "uint256"
        },
        {
          "indexed": false,
          "internalType": "uint256",
          "name": "lockIndex",
          "type": "uint256"
        }
      ],
      "name": "Relocked",
      "type": "event"
    },
    {
      "anonymous": false,
      "inputs": [
        {
          "indexed": true,
          "internalType": "address",
          "name": "user",
          "type": "address"
        },
        {
          "indexed": true,
          "internalType": "address",
          "name": "rewardToken",
          "type": "address"
        },
        {
          "indexed": false,
          "internalType": "uint256",
          "name": "reward",
          "type": "uint256"
        }
      ],
      "name": "RewardPaid",
      "type": "event"
    },
    {
      "anonymous": false,
      "inputs": [
        {
          "indexed": false,
          "internalType": "address",
          "name": "account",
          "type": "address"
        }
      ],
      "name": "Unpaused",
      "type": "event"
    },
    {
      "anonymous": false,
      "inputs": [
        {
          "indexed": true,
          "internalType": "address",
          "name": "user",
          "type": "address"
        },
        {
          "indexed": false,
          "internalType": "uint256",
          "name": "receivedAmount",
          "type": "uint256"
        },
        {
          "indexed": false,
          "internalType": "uint256",
          "name": "lockedBalance",
          "type": "uint256"
        },
        {
          "indexed": false,
          "internalType": "uint256",
          "name": "penalty",
          "type": "uint256"
        },
        {
          "indexed": false,
          "internalType": "uint256",
          "name": "burn",
          "type": "uint256"
        },
        {
          "indexed": false,
          "internalType": "bool",
          "name": "isLP",
          "type": "bool"
        }
      ],
      "name": "Withdrawn",
      "type": "event"
    },
    {
      "inputs": [],
      "name": "DEFAULT_LOCK_INDEX",
      "outputs": [
        {
          "internalType": "uint256",
          "name": "",
          "type": "uint256"
        }
      ],
      "stateMutability": "view",
      "type": "function"
    },
    {
      "inputs": [],
      "name": "HALF",
      "outputs": [
        {
          "internalType": "uint256",
          "name": "",
          "type": "uint256"
        }
      ],
      "stateMutability": "view",
      "type": "function"
    },
    {
      "inputs": [],
      "name": "QUART",
      "outputs": [
        {
          "internalType": "uint256",
          "name": "",
          "type": "uint256"
        }
      ],
      "stateMutability": "view",
      "type": "function"
    },
    {
      "inputs": [],
      "name": "WHOLE",
      "outputs": [
        {
          "internalType": "uint256",
          "name": "",
          "type": "uint256"
        }
      ],
      "stateMutability": "view",
      "type": "function"
    },
    {
      "inputs": [
        {
          "internalType": "address",
          "name": "_rewardToken",
          "type": "address"
        }
      ],
      "name": "addReward",
      "outputs": [],
      "stateMutability": "nonpayable",
      "type": "function"
    },
    {
      "inputs": [
        {
          "internalType": "address",
          "name": "_rewardConverter",
          "type": "address"
        }
      ],
      "name": "addRewardConverter",
      "outputs": [],
      "stateMutability": "nonpayable",
      "type": "function"
    },
    {
      "inputs": [
        {
          "internalType": "address",
          "name": "",
          "type": "address"
        }
      ],
      "name": "autoRelockDisabled",
      "outputs": [
        {
          "internalType": "bool",
          "name": "",
          "type": "bool"
        }
      ],
      "stateMutability": "view",
      "type": "function"
    },
    {
      "inputs": [
        {
          "internalType": "address",
          "name": "",
          "type": "address"
        }
      ],
      "name": "autocompoundEnabled",
      "outputs": [
        {
          "internalType": "bool",
          "name": "",
          "type": "bool"
        }
      ],
      "stateMutability": "view",
      "type": "function"
    },
    {
      "inputs": [],
      "name": "bountyManager",
      "outputs": [
        {
          "internalType": "address",
          "name": "",
          "type": "address"
        }
      ],
      "stateMutability": "view",
      "type": "function"
    },
    {
      "inputs": [],
      "name": "burn",
      "outputs": [
        {
          "internalType": "uint256",
          "name": "",
          "type": "uint256"
        }
      ],
      "stateMutability": "view",
      "type": "function"
    },
    {
      "inputs": [
        {
          "internalType": "address",
          "name": "_user",
          "type": "address"
        },
        {
          "internalType": "bool",
          "name": "_execute",
          "type": "bool"
        }
      ],
      "name": "claimBounty",
      "outputs": [
        {
          "internalType": "bool",
          "name": "issueBaseBounty",
          "type": "bool"
        }
      ],
      "stateMutability": "nonpayable",
      "type": "function"
    },
    {
      "inputs": [
        {
          "internalType": "address",
          "name": "onBehalf",
          "type": "address"
        }
      ],
      "name": "claimFromConverter",
      "outputs": [],
      "stateMutability": "nonpayable",
      "type": "function"
    },
    {
      "inputs": [
        {
          "internalType": "address",
          "name": "account",
          "type": "address"
        }
      ],
      "name": "claimableRewards",
      "outputs": [
        {
          "components": [
            {
              "internalType": "address",
              "name": "token",
              "type": "address"
            },
            {
              "internalType": "uint256",
              "name": "amount",
              "type": "uint256"
            }
          ],
          "internalType": "struct IFeeDistribution.RewardData[]",
          "name": "rewardsData",
          "type": "tuple[]"
        }
      ],
      "stateMutability": "view",
      "type": "function"
    },
    {
      "inputs": [],
      "name": "daoTreasury",
      "outputs": [
        {
          "internalType": "address",
          "name": "",
          "type": "address"
        }
      ],
      "stateMutability": "view",
      "type": "function"
    },
    {
      "inputs": [],
      "name": "defaultLockDuration",
      "outputs": [
        {
          "internalType": "uint256",
          "name": "",
          "type": "uint256"
        }
      ],
      "stateMutability": "view",
      "type": "function"
    },
    {
      "inputs": [
        {
          "internalType": "address",
          "name": "",
          "type": "address"
        }
      ],
      "name": "defaultLockIndex",
      "outputs": [
        {
          "internalType": "uint256",
          "name": "",
          "type": "uint256"
        }
      ],
      "stateMutability": "view",
      "type": "function"
    },
    {
      "inputs": [
        {
          "internalType": "address",
          "name": "user",
          "type": "address"
        }
      ],
      "name": "earnedBalances",
      "outputs": [
        {
          "internalType": "uint256",
          "name": "total",
          "type": "uint256"
        },
        {
          "internalType": "uint256",
          "name": "unlocked",
          "type": "uint256"
        },
        {
          "components": [
            {
              "internalType": "uint256",
              "name": "amount",
              "type": "uint256"
            },
            {
              "internalType": "uint256",
              "name": "unlockTime",
              "type": "uint256"
            },
            {
              "internalType": "uint256",
              "name": "penalty",
              "type": "uint256"
            }
          ],
          "internalType": "struct EarnedBalance[]",
          "name": "earningsData",
          "type": "tuple[]"
        }
      ],
      "stateMutability": "view",
      "type": "function"
    },
    {
      "inputs": [
        {
          "internalType": "bool",
          "name": "claimRewards",
          "type": "bool"
        }
      ],
      "name": "exit",
      "outputs": [],
      "stateMutability": "nonpayable",
      "type": "function"
    },
    {
      "inputs": [],
      "name": "getAllRewards",
      "outputs": [],
      "stateMutability": "nonpayable",
      "type": "function"
    },
    {
      "inputs": [
        {
          "internalType": "address",
          "name": "_user",
          "type": "address"
        }
      ],
      "name": "getBalances",
      "outputs": [
        {
          "components": [
            {
              "internalType": "uint256",
              "name": "total",
              "type": "uint256"
            },
            {
              "internalType": "uint256",
              "name": "unlocked",
              "type": "uint256"
            },
            {
              "internalType": "uint256",
              "name": "locked",
              "type": "uint256"
            },
            {
              "internalType": "uint256",
              "name": "lockedWithMultiplier",
              "type": "uint256"
            },
            {
              "internalType": "uint256",
              "name": "earned",
              "type": "uint256"
            }
          ],
          "internalType": "struct Balances",
          "name": "",
          "type": "tuple"
        }
      ],
      "stateMutability": "view",
      "type": "function"
    },
    {
      "inputs": [],
      "name": "getLockDurations",
      "outputs": [
        {
          "internalType": "uint256[]",
          "name": "",
          "type": "uint256[]"
        }
      ],
      "stateMutability": "view",
      "type": "function"
    },
    {
      "inputs": [],
      "name": "getLockMultipliers",
      "outputs": [
        {
          "internalType": "uint256[]",
          "name": "",
          "type": "uint256[]"
        }
      ],
      "stateMutability": "view",
      "type": "function"
    },
    {
      "inputs": [],
      "name": "getPriceProvider",
      "outputs": [
        {
          "internalType": "address",
          "name": "",
          "type": "address"
        }
      ],
      "stateMutability": "view",
      "type": "function"
    },
    {
      "inputs": [
        {
          "internalType": "address[]",
          "name": "_rewardTokens",
          "type": "address[]"
        }
      ],
      "name": "getReward",
      "outputs": [],
      "stateMutability": "nonpayable",
      "type": "function"
    },
    {
      "inputs": [
        {
          "internalType": "address",
          "name": "_rewardToken",
          "type": "address"
        }
      ],
      "name": "getRewardForDuration",
      "outputs": [
        {
          "internalType": "uint256",
          "name": "",
          "type": "uint256"
        }
      ],
      "stateMutability": "view",
      "type": "function"
    },
    {
      "inputs": [],
      "name": "incentivesController",
      "outputs": [
        {
          "internalType": "contract IChefIncentivesController",
          "name": "",
          "type": "address"
        }
      ],
      "stateMutability": "view",
      "type": "function"
    },
    {
      "inputs": [
        {
          "internalType": "bool",
          "name": "claimRewards",
          "type": "bool"
        },
        {
          "internalType": "uint256",
          "name": "unlockTime",
          "type": "uint256"
        }
      ],
      "name": "individualEarlyExit",
      "outputs": [],
      "stateMutability": "nonpayable",
      "type": "function"
    },
    {
      "inputs": [
        {
          "internalType": "address",
          "name": "_rdntToken",
          "type": "address"
        },
        {
          "internalType": "address",
          "name": "_lockZap",
          "type": "address"
        },
        {
          "internalType": "address",
          "name": "_dao",
          "type": "address"
        },
        {
          "internalType": "address",
          "name": "_userlist",
          "type": "address"
        },
        {
          "internalType": "address",
          "name": "priceProvider",
          "type": "address"
        },
        {
          "internalType": "uint256",
          "name": "_rewardsDuration",
          "type": "uint256"
        },
        {
          "internalType": "uint256",
          "name": "_rewardsLookback",
          "type": "uint256"
        },
        {
          "internalType": "uint256",
          "name": "_lockDuration",
          "type": "uint256"
        },
        {
          "internalType": "uint256",
          "name": "_burnRatio",
          "type": "uint256"
        },
        {
          "internalType": "uint256",
          "name": "_vestDuration",
          "type": "uint256"
        }
      ],
      "name": "initialize",
      "outputs": [],
      "stateMutability": "nonpayable",
      "type": "function"
    },
    {
      "inputs": [
        {
          "internalType": "address",
          "name": "",
          "type": "address"
        }
      ],
      "name": "lastAutocompound",
      "outputs": [
        {
          "internalType": "uint256",
          "name": "",
          "type": "uint256"
        }
      ],
      "stateMutability": "view",
      "type": "function"
    },
    {
      "inputs": [
        {
          "internalType": "address",
          "name": "",
          "type": "address"
        }
      ],
      "name": "lastClaimTime",
      "outputs": [
        {
          "internalType": "uint256",
          "name": "",
          "type": "uint256"
        }
      ],
      "stateMutability": "view",
      "type": "function"
    },
    {
      "inputs": [
        {
          "internalType": "address",
          "name": "_rewardToken",
          "type": "address"
        }
      ],
      "name": "lastTimeRewardApplicable",
      "outputs": [
        {
          "internalType": "uint256",
          "name": "",
          "type": "uint256"
        }
      ],
      "stateMutability": "view",
      "type": "function"
    },
    {
      "inputs": [
        {
          "internalType": "address",
          "name": "user",
          "type": "address"
        }
      ],
      "name": "lockInfo",
      "outputs": [
        {
          "components": [
            {
              "internalType": "uint256",
              "name": "amount",
              "type": "uint256"
            },
            {
              "internalType": "uint256",
              "name": "unlockTime",
              "type": "uint256"
            },
            {
              "internalType": "uint256",
              "name": "multiplier",
              "type": "uint256"
            },
            {
              "internalType": "uint256",
              "name": "duration",
              "type": "uint256"
            }
          ],
          "internalType": "struct LockedBalance[]",
          "name": "",
          "type": "tuple[]"
        }
      ],
      "stateMutability": "view",
      "type": "function"
    },
    {
      "inputs": [
        {
          "internalType": "address",
          "name": "user",
          "type": "address"
        }
      ],
      "name": "lockedBalance",
      "outputs": [
        {
          "internalType": "uint256",
          "name": "locked",
          "type": "uint256"
        }
      ],
      "stateMutability": "view",
      "type": "function"
    },
    {
      "inputs": [
        {
          "internalType": "address",
          "name": "user",
          "type": "address"
        }
      ],
      "name": "lockedBalances",
      "outputs": [
        {
          "internalType": "uint256",
          "name": "",
          "type": "uint256"
        },
        {
          "internalType": "uint256",
          "name": "unlockable",
          "type": "uint256"
        },
        {
          "internalType": "uint256",
          "name": "locked",
          "type": "uint256"
        },
        {
          "internalType": "uint256",
          "name": "lockedWithMultiplier",
          "type": "uint256"
        },
        {
          "components": [
            {
              "internalType": "uint256",
              "name": "amount",
              "type": "uint256"
            },
            {
              "internalType": "uint256",
              "name": "unlockTime",
              "type": "uint256"
            },
            {
              "internalType": "uint256",
              "name": "multiplier",
              "type": "uint256"
            },
            {
              "internalType": "uint256",
              "name": "duration",
              "type": "uint256"
            }
          ],
          "internalType": "struct LockedBalance[]",
          "name": "lockData",
          "type": "tuple[]"
        }
      ],
      "stateMutability": "view",
      "type": "function"
    },
    {
      "inputs": [],
      "name": "lockedSupply",
      "outputs": [
        {
          "internalType": "uint256",
          "name": "",
          "type": "uint256"
        }
      ],
      "stateMutability": "view",
      "type": "function"
    },
    {
      "inputs": [],
      "name": "lockedSupplyWithMultiplier",
      "outputs": [
        {
          "internalType": "uint256",
          "name": "",
          "type": "uint256"
        }
      ],
      "stateMutability": "view",
      "type": "function"
    },
    {
      "inputs": [],
      "name": "middleFeeDistribution",
      "outputs": [
        {
          "internalType": "contract IMiddleFeeDistribution",
          "name": "",
          "type": "address"
        }
      ],
      "stateMutability": "view",
      "type": "function"
    },
    {
      "inputs": [
        {
          "internalType": "address",
          "name": "user",
          "type": "address"
        },
        {
          "internalType": "uint256",
          "name": "amount",
          "type": "uint256"
        },
        {
          "internalType": "bool",
          "name": "withPenalty",
          "type": "bool"
        }
      ],
      "name": "mint",
      "outputs": [],
      "stateMutability": "nonpayable",
      "type": "function"
    },
    {
      "inputs": [
        {
          "internalType": "address",
          "name": "",
          "type": "address"
        }
      ],
      "name": "minters",
      "outputs": [
        {
          "internalType": "bool",
          "name": "",
          "type": "bool"
        }
      ],
      "stateMutability": "view",
      "type": "function"
    },
    {
      "inputs": [],
      "name": "mintersAreSet",
      "outputs": [
        {
          "internalType": "bool",
          "name": "",
          "type": "bool"
        }
      ],
      "stateMutability": "view",
      "type": "function"
    },
    {
      "inputs": [],
      "name": "onUpgrade",
      "outputs": [],
      "stateMutability": "nonpayable",
      "type": "function"
    },
    {
      "inputs": [],
      "name": "owner",
      "outputs": [
        {
          "internalType": "address",
          "name": "",
          "type": "address"
        }
      ],
      "stateMutability": "view",
      "type": "function"
    },
    {
      "inputs": [],
      "name": "pause",
      "outputs": [],
      "stateMutability": "nonpayable",
      "type": "function"
    },
    {
      "inputs": [],
      "name": "paused",
      "outputs": [
        {
          "internalType": "bool",
          "name": "",
          "type": "bool"
        }
      ],
      "stateMutability": "view",
      "type": "function"
    },
    {
      "inputs": [],
      "name": "rdntToken",
      "outputs": [
        {
          "internalType": "contract IMintableToken",
          "name": "",
          "type": "address"
        }
      ],
      "stateMutability": "view",
      "type": "function"
    },
    {
      "inputs": [
        {
          "internalType": "address",
          "name": "tokenAddress",
          "type": "address"
        },
        {
          "internalType": "uint256",
          "name": "tokenAmount",
          "type": "uint256"
        }
      ],
      "name": "recoverERC20",
      "outputs": [],
      "stateMutability": "nonpayable",
      "type": "function"
    },
    {
      "inputs": [],
      "name": "relock",
      "outputs": [],
      "stateMutability": "nonpayable",
      "type": "function"
    },
    {
      "inputs": [],
      "name": "renounceOwnership",
      "outputs": [],
      "stateMutability": "nonpayable",
      "type": "function"
    },
    {
      "inputs": [],
      "name": "requalify",
      "outputs": [],
      "stateMutability": "nonpayable",
      "type": "function"
    },
    {
      "inputs": [
        {
          "internalType": "address",
          "name": "_user",
          "type": "address"
        }
      ],
      "name": "requalifyFor",
      "outputs": [],
      "stateMutability": "nonpayable",
      "type": "function"
    },
    {
      "inputs": [],
      "name": "rewardConverter",
      "outputs": [
        {
          "internalType": "address",
          "name": "",
          "type": "address"
        }
      ],
      "stateMutability": "view",
      "type": "function"
    },
    {
      "inputs": [
        {
          "internalType": "address",
          "name": "",
          "type": "address"
        }
      ],
      "name": "rewardData",
      "outputs": [
        {
          "internalType": "uint256",
          "name": "periodFinish",
          "type": "uint256"
        },
        {
          "internalType": "uint256",
          "name": "rewardPerSecond",
          "type": "uint256"
        },
        {
          "internalType": "uint256",
          "name": "lastUpdateTime",
          "type": "uint256"
        },
        {
          "internalType": "uint256",
          "name": "rewardPerTokenStored",
          "type": "uint256"
        },
        {
          "internalType": "uint256",
          "name": "balance",
          "type": "uint256"
        }
      ],
      "stateMutability": "view",
      "type": "function"
    },
    {
      "inputs": [
        {
          "internalType": "address",
          "name": "_rewardToken",
          "type": "address"
        }
      ],
      "name": "rewardPerToken",
      "outputs": [
        {
          "internalType": "uint256",
          "name": "rptStored",
          "type": "uint256"
        }
      ],
      "stateMutability": "view",
      "type": "function"
    },
    {
      "inputs": [
        {
          "internalType": "uint256",
          "name": "",
          "type": "uint256"
        }
      ],
      "name": "rewardTokens",
      "outputs": [
        {
          "internalType": "address",
          "name": "",
          "type": "address"
        }
      ],
      "stateMutability": "view",
      "type": "function"
    },
    {
      "inputs": [
        {
          "internalType": "address",
          "name": "",
          "type": "address"
        },
        {
          "internalType": "address",
          "name": "",
          "type": "address"
        }
      ],
      "name": "rewards",
      "outputs": [
        {
          "internalType": "uint256",
          "name": "",
          "type": "uint256"
        }
      ],
      "stateMutability": "view",
      "type": "function"
    },
    {
      "inputs": [],
      "name": "rewardsDuration",
      "outputs": [
        {
          "internalType": "uint256",
          "name": "",
          "type": "uint256"
        }
      ],
      "stateMutability": "view",
      "type": "function"
    },
    {
      "inputs": [],
      "name": "rewardsLookback",
      "outputs": [
        {
          "internalType": "uint256",
          "name": "",
          "type": "uint256"
        }
      ],
      "stateMutability": "view",
      "type": "function"
    },
    {
      "inputs": [
        {
          "internalType": "contract IChefIncentivesController",
          "name": "_controller",
          "type": "address"
        },
        {
          "internalType": "contract IMiddleFeeDistribution",
          "name": "_middleFeeDistribution",
          "type": "address"
        },
        {
          "internalType": "address",
          "name": "_treasury",
          "type": "address"
        }
      ],
      "name": "setAddresses",
      "outputs": [],
      "stateMutability": "nonpayable",
      "type": "function"
    },
    {
      "inputs": [
        {
          "internalType": "bool",
          "name": "_status",
          "type": "bool"
        }
      ],
      "name": "setAutocompound",
      "outputs": [],
      "stateMutability": "nonpayable",
      "type": "function"
    },
    {
      "inputs": [
        {
          "internalType": "address",
          "name": "_bounty",
          "type": "address"
        }
      ],
      "name": "setBountyManager",
      "outputs": [],
      "stateMutability": "nonpayable",
      "type": "function"
    },
    {
      "inputs": [
        {
          "internalType": "uint256",
          "name": "_index",
          "type": "uint256"
        }
      ],
      "name": "setDefaultRelockTypeIndex",
      "outputs": [],
      "stateMutability": "nonpayable",
      "type": "function"
    },
    {
      "inputs": [
        {
          "internalType": "address",
          "name": "_stakingToken",
          "type": "address"
        }
      ],
      "name": "setLPToken",
      "outputs": [],
      "stateMutability": "nonpayable",
      "type": "function"
    },
    {
      "inputs": [
        {
          "internalType": "uint256[]",
          "name": "_lockPeriod",
          "type": "uint256[]"
        },
        {
          "internalType": "uint256[]",
          "name": "_rewardMultipliers",
          "type": "uint256[]"
        }
      ],
      "name": "setLockTypeInfo",
      "outputs": [],
      "stateMutability": "nonpayable",
      "type": "function"
    },
    {
      "inputs": [
        {
          "internalType": "uint256",
          "name": "_lookback",
          "type": "uint256"
        }
      ],
      "name": "setLookback",
      "outputs": [],
      "stateMutability": "nonpayable",
      "type": "function"
    },
    {
      "inputs": [
        {
          "internalType": "address[]",
          "name": "_minters",
          "type": "address[]"
        }
      ],
      "name": "setMinters",
      "outputs": [],
      "stateMutability": "nonpayable",
      "type": "function"
    },
    {
      "inputs": [
        {
          "internalType": "bool",
          "name": "_status",
          "type": "bool"
        }
      ],
      "name": "setRelock",
      "outputs": [],
      "stateMutability": "nonpayable",
      "type": "function"
    },
    {
      "inputs": [
        {
          "internalType": "uint256",
          "name": "amount",
          "type": "uint256"
        },
        {
          "internalType": "address",
          "name": "onBehalfOf",
          "type": "address"
        },
        {
          "internalType": "uint256",
          "name": "typeIndex",
          "type": "uint256"
        }
      ],
      "name": "stake",
      "outputs": [],
      "stateMutability": "nonpayable",
      "type": "function"
    },
    {
      "inputs": [],
      "name": "stakingToken",
      "outputs": [
        {
          "internalType": "address",
          "name": "",
          "type": "address"
        }
      ],
      "stateMutability": "view",
      "type": "function"
    },
    {
      "inputs": [],
      "name": "startfleetTreasury",
      "outputs": [
        {
          "internalType": "address",
          "name": "",
          "type": "address"
        }
      ],
      "stateMutability": "view",
      "type": "function"
    },
    {
      "inputs": [
        {
          "internalType": "address",
          "name": "user",
          "type": "address"
        }
      ],
      "name": "totalBalance",
      "outputs": [
        {
          "internalType": "uint256",
          "name": "",
          "type": "uint256"
        }
      ],
      "stateMutability": "view",
      "type": "function"
    },
    {
      "inputs": [
        {
          "internalType": "address",
          "name": "newOwner",
          "type": "address"
        }
      ],
      "name": "transferOwnership",
      "outputs": [],
      "stateMutability": "nonpayable",
      "type": "function"
    },
    {
      "inputs": [],
      "name": "unpause",
      "outputs": [],
      "stateMutability": "nonpayable",
      "type": "function"
    },
    {
      "inputs": [
        {
          "internalType": "address",
          "name": "",
          "type": "address"
        },
        {
          "internalType": "address",
          "name": "",
          "type": "address"
        }
      ],
      "name": "userRewardPerTokenPaid",
      "outputs": [
        {
          "internalType": "uint256",
          "name": "",
          "type": "uint256"
        }
      ],
      "stateMutability": "view",
      "type": "function"
    },
    {
      "inputs": [],
      "name": "userlist",
      "outputs": [
        {
          "internalType": "contract ILockerList",
          "name": "",
          "type": "address"
        }
      ],
      "stateMutability": "view",
      "type": "function"
    },
    {
      "inputs": [],
      "name": "vestDuration",
      "outputs": [
        {
          "internalType": "uint256",
          "name": "",
          "type": "uint256"
        }
      ],
      "stateMutability": "view",
      "type": "function"
    },
    {
      "inputs": [
        {
          "internalType": "uint256",
          "name": "amount",
          "type": "uint256"
        }
      ],
      "name": "withdraw",
      "outputs": [],
      "stateMutability": "nonpayable",
      "type": "function"
    },
    {
      "inputs": [
        {
          "internalType": "address",
          "name": "_address",
          "type": "address"
        }
      ],
      "name": "withdrawExpiredLocksFor",
      "outputs": [
        {
          "internalType": "uint256",
          "name": "",
          "type": "uint256"
        }
      ],
      "stateMutability": "nonpayable",
      "type": "function"
    },
    {
      "inputs": [
        {
          "internalType": "address",
          "name": "_address",
          "type": "address"
        },
        {
          "internalType": "uint256",
          "name": "_limit",
          "type": "uint256"
        },
        {
          "internalType": "bool",
          "name": "_ignoreRelock",
          "type": "bool"
        }
      ],
      "name": "withdrawExpiredLocksForWithOptions",
      "outputs": [
        {
          "internalType": "uint256",
          "name": "",
          "type": "uint256"
        }
      ],
      "stateMutability": "nonpayable",
      "type": "function"
    },
    {
      "inputs": [
        {
          "internalType": "address",
          "name": "user",
          "type": "address"
        }
      ],
      "name": "withdrawableBalance",
      "outputs": [
        {
          "internalType": "uint256",
          "name": "amount",
          "type": "uint256"
        },
        {
          "internalType": "uint256",
          "name": "penaltyAmount",
          "type": "uint256"
        },
        {
          "internalType": "uint256",
          "name": "burnAmount",
          "type": "uint256"
        }
      ],
      "stateMutability": "view",
      "type": "function"
    },
    {
      "inputs": [
        {
          "internalType": "address",
          "name": "_user",
          "type": "address"
        }
      ],
      "name": "zapVestingToLp",
      "outputs": [
        {
          "internalType": "uint256",
          "name": "zapped",
          "type": "uint256"
        }
      ],
      "stateMutability": "nonpayable",
      "type": "function"
    }
  ],
  "transactionHash": "0xffe2b37d5274d443c701a39e222fb7ebd3f716429a277f7724a2986f61aca6b5",
  "args": [],
  "numDeployments": 1,
  "solcInputHash": "d20862d9a7051998216c9f1f22667b5c",
  "bytecode": "0x608060405234801561001057600080fd5b506154ef806100206000396000f3fe608060405234801561001057600080fd5b50600436106105805760003560e01c80637654b1b9116102d7578063af1df25511610186578063df379876116100e3578063f122977711610097578063f46eccc41161007c578063f46eccc414610c13578063f7ad360114610c36578063ff66a30514610c6357600080fd5b8063f122977714610bed578063f2fde38b14610c0057600080fd5b8063e6c91a15116100c8578063e6c91a1514610ba6578063e70b9e2714610bb9578063e8999f4314610be457600080fd5b8063df37987614610b71578063e6af230d14610b9357600080fd5b8063c53b573d1161013a578063ca5c7b911161011f578063ca5c7b9114610b35578063d1a1beb414610b3e578063dc01f60d14610b5157600080fd5b8063c53b573d14610ad8578063c84aae1714610ae057600080fd5b8063b36b9ffd1161016b578063b36b9ffd14610a92578063b77cf9c614610aa5578063bcd1101414610ac557600080fd5b8063af1df25514610a6c578063b2d6e66d14610a7f57600080fd5b80638f40aab1116102345780639ae697bf116101e85780639c9b2e21116101cd5780639c9b2e2114610a235780639fe6386214610a36578063ada71bc214610a4957600080fd5b80639ae697bf14610a075780639bd4ef5014610a1a57600080fd5b8063914f6e6d11610219578063914f6e6d146109c857806394761e2a146109db57806398387a8d146109e457600080fd5b80638f40aab1146109a85780638fd9f2ca146109bb57600080fd5b80638232e5f71161028b57806387afa3361161027057806387afa336146109715780638980f11f146109845780638da5cb5b1461099757600080fd5b80638232e5f7146109605780638456cb591461096957600080fd5b80637ab8955d116102bc5780637ab8955d146109275780637bb7bed11461093a5780637fd7d0621461094d57600080fd5b80637654b1b91461090c57806379022a9f1461091457600080fd5b80633f4ba83a116104335780636a678a9c116103905780637035ab981161034457806372f702f31161032957806372f702f3146108d9578063757c4d22146108ec57806376520c6d1461090457600080fd5b80637035ab98146108a6578063715018a6146108d157600080fd5b80636e9c931c116103755780636e9c931c1461086d5780636eacd398146108805780636fa75e6d1461089357600080fd5b80636a678a9c1461083a5780636bd3b87c1461084d57600080fd5b80634c6f7131116103e7578063556a795a116103cc578063556a795a146107e25780635c975abb14610810578063638634ee1461082757600080fd5b80634c6f7131146107bc578063547d0096146107cf57600080fd5b806345b35f561161041857806345b35f561461073c57806346e732711461074457806348e5d9f81461075757600080fd5b80633f4ba83a1461072b57806344df8e701461073357600080fd5b806320212eaa116104e157806332c991b5116104955780633824c76a1161047a5780633824c76a146106fc578063386a95251461070f5780633b26664f1461071857600080fd5b806332c991b5146106e0578063363bf964146106e957600080fd5b80632843b019116104c65780632843b0191461069a5780632e1a7d4d146106ad5780632e88caa1146106c057600080fd5b806320212eaa1461067457806321cc01c91461068757600080fd5b80630f63107f116105385780631285deee1161051d5780631285deee1461064a57806317053a7e146106525780631824a46b1461067257600080fd5b80630f63107f1461062c5780630fd6699b1461064157600080fd5b806309eba3431161056957806309eba343146105dc5780630a065fb6146105f45780630c63469e1461061957600080fd5b806302b62938146105855780630483a7f6146105b8575b600080fd5b610598610593366004614cc3565b610c76565b604080519384526020840192909252908201526060015b60405180910390f35b6105cb6105c6366004614cc3565b610df7565b6040516105af959493929190614d3b565b6105e6620186a081565b6040519081526020016105af565b6097546001600160a01b03165b6040516001600160a01b0390911681526020016105af565b6105e6610627366004614cc3565b61104c565b61063461107b565b6040516105af9190614d66565b6105e6609b5481565b6105e6600181565b6105e6610660366004614cc3565b60a76020526000908152604090205481565b005b610672610682366004614cc3565b6110d5565b609e54610601906001600160a01b031681565b6105e66106a8366004614cc3565b611126565b6106726106bb366004614daa565b61131a565b6105e66106ce366004614cc3565b60b46020526000908152604090205481565b6105e661fde881565b6106726106f7366004614dc3565b61171a565b609d54610601906001600160a01b031681565b6105e660995481565b610672610726366004614e5a565b6117af565b610672611890565b6105e660985481565b6106726118a0565b610672610752366004614ec6565b611903565b610794610765366004614cc3565b60ad60205260009081526040902080546001820154600283015460038401546004909401549293919290919085565b604080519586526020860194909452928401919091526060830152608082015260a0016105af565b60a054610601906001600160a01b031681565b6106726107dd366004614f63565b611cb3565b6106726107f0366004614fb3565b33600090815260a660205260409020805460ff1916911515919091179055565b60335460ff165b60405190151581526020016105af565b6105e6610835366004614cc3565b611dc5565b610672610848366004614cc3565b611df4565b61086061085b366004614cc3565b611e6f565b6040516105af9190614fd0565b61067261087b366004614fe3565b611f0c565b6105e661088e366004614cc3565b611f1e565b6106726108a1366004614daa565b611f75565b6105e66108b436600461501b565b60ae60209081526000928352604080842090915290825290205481565b610672611fc2565b60a154610601906001600160a01b031681565b60b5546106019061010090046001600160a01b031681565b610634611fd4565b61067261202a565b60b054610601906001600160a01b031681565b610817610935366004615054565b612033565b610601610948366004614daa565b6120ca565b61067261095b366004615098565b6120f4565b6105e6609a5481565b61067261216b565b60b154610601906001600160a01b031681565b61067261099236600461515d565b61217b565b6065546001600160a01b0316610601565b6105e66109b6366004615189565b612243565b60b5546108179060ff1681565b6106726109d63660046151c0565b61227b565b6105e6609c5481565b6108176109f2366004614cc3565b60b36020526000908152604090205460ff1681565b6105e6610a15366004614cc3565b612485565b6105e66161a881565b610672610a31366004614cc3565b612514565b610672610a44366004614cc3565b612622565b610817610a57366004614cc3565b60a66020526000908152604090205460ff1681565b609f54610601906001600160a01b031681565b610672610a8d366004614cc3565b612669565b60b754610601906001600160a01b031681565b6105e6610ab3366004614cc3565b60b66020526000908152604090205481565b6105e6610ad3366004614cc3565b6128d8565b61067261290e565b610af3610aee366004614cc3565b612998565b6040516105af9190600060a082019050825182526020830151602083015260408301516040830152606083015160608301526080830151608083015292915050565b6105e660a85481565b610672610b4c366004615189565b612a22565b610b64610b5f366004614cc3565b612b73565b6040516105af91906151de565b610b84610b7f366004614cc3565b612cfd565b6040516105af93929190615236565b610672610ba1366004614daa565b612f32565b610672610bb4366004614fb3565b612f3f565b6105e6610bc736600461501b565b60af60209081526000928352604080842090915290825290205481565b6105e660a95481565b6105e6610bfb366004614cc3565b612fb9565b610672610c0e366004614cc3565b61304a565b610817610c21366004614cc3565b60b26020526000908152604090205460ff1681565b610672610c44366004614fb3565b33600090815260b360205260409020805460ff19169115919091179055565b610672610c71366004614cc3565b6130da565b6001600160a01b038116600090815260a36020526040812060040154819081908015610dbb576001600160a01b038516600090815260a56020526040812054905b81811015610db8576001600160a01b038716600090815260a560205260408120805483908110610ce957610ce961529f565b90600052602060002090600402016000015490508060001415610d0c5750610cb7565b6001600160a01b038816600090815260a56020526040812080548291610d829186908110610d3c57610d3c61529f565b9060005260206000209060040201604051806080016040529081600082015481526020016001820154815260200160028201548152602001600382015481525050613143565b935093505050610d9b82896131d290919063ffffffff16565b9750610da787826131d2565b96505060019092019150610cb79050565b50505b6001600160a01b038516600090815260a36020526040902060010154610ded908490610de790846131d2565b906131de565b9350509193909250565b6001600160a01b038116600090815260a46020526040812080548291829182916060918390815b818110156110215742848281548110610e3957610e3961529f565b9060005260206000209060040201600101541115610fe95782610edb578354610e639082906152cb565b67ffffffffffffffff811115610e7b57610e7b615082565b604051908082528060200260200182016040528015610ed757816020015b610ec46040518060800160405280600081526020016000815260200160008152602001600081525090565b815260200190600190039081610e995790505b5094505b838181548110610eed57610eed61529f565b9060005260206000209060040201604051806080016040529081600082015481526020016001820154815260200160028201548152602001600382015481525050858481518110610f4057610f4061529f565b60200260200101819052508280610f56906152e2565b935050610f86848281548110610f6e57610f6e61529f565b600091825260209091206004909102015488906131d2565b9650610fe2610fdb858381548110610fa057610fa061529f565b906000526020600020906004020160020154868481548110610fc457610fc461529f565b6000918252602090912060049091020154906131ea565b87906131d2565b9550611019565b611016848281548110610ffe57610ffe61529f565b600091825260209091206004909102015489906131d2565b97505b600101610e1e565b5050506001600160a01b038716600090815260a3602052604090206002015495505091939590929450565b6001600160a01b038116600090815260a4602052604081205461107590839083906001906131f6565b92915050565b606060ab8054806020026020016040519081016040528092919081815260200182805480156110c957602002820191906000526020600020905b8154815260200190600101908083116110b5575b5050505050905090565b565b6110dd613421565b6001600160a01b03811661110457604051639fabe1c160e01b815260040160405180910390fd5b609d80546001600160a01b0319166001600160a01b0392909216919091179055565b60a2546000906001600160a01b0316331461115457604051630deda90360e41b815260040160405180910390fd5b61115d8261347b565b6001600160a01b038216600090815260a56020526040902080545b801561124457428261118b6001846152cb565b8154811061119b5761119b61529f565b906000526020600020906004020160010154111561122d576111ea826111c26001846152cb565b815481106111d2576111d261529f565b600091825260209091206004909102015484906131d2565b9250818054806111fc576111fc6152fd565b6000828152602081206004600019909301928302018181556001810182905560028101829055600301559055611232565b611244565b61123d6001826152cb565b9050611178565b5060a25460a054611262916001600160a01b03918216911684613571565b6001600160a01b038316600090815260a360205260409020600481015461128990846131de565b6004820155805461129a90846131de565b8155609754604080517fa2e6204500000000000000000000000000000000000000000000000000000000815290516001600160a01b039092169163a2e620459160048082019260009290919082900301818387803b1580156112fb57600080fd5b505af115801561130f573d6000803e3d6000fd5b505050505050919050565b33816113395760405163162908e360e11b815260040160405180910390fd5b6001600160a01b038116600090815260a3602052604081206001810154829190851161137857600181015461136e90866131de565b60018201556116f1565b60006113918260010154876131de90919063ffffffff16565b905080826004015410156113b857604051631c243dc160e01b815260040160405180910390fd5b6000600183018190556004830154905b6001600160a01b038716600090815260a5602052604081208054839081106113f2576113f261529f565b90600052602060002090600402016000015490508060001415611415575061158b565b6001600160a01b038816600090815260a5602052604081208054611444919085908110610d3c57610d3c61529f565b5050915050600061147761146483620186a06131de90919063ffffffff16565b61147188620186a06131ea565b9061361a565b90508281106114c15750816114a76114a0620186a061147161149982876131de565b87906131ea565b87906131de565b9550856114bc57836114b8816152e2565b9450505b61150b565b6114cb83826131de565b6001600160a01b038b16600090815260a5602052604090208054869081106114f5576114f561529f565b6000918252602082206004909102019190915595505b61151585826131de565b945061153261152b620186a061147184866131ea565b8a906131d2565b985061155a611553620186a06114716098548d6131ea90919063ffffffff16565b89906131d2565b9750856115695750505061159d565b8461158757604051631c243dc160e01b815260040160405180910390fd5b5050505b80611595816152e2565b9150506113c8565b80156116e957805b6001600160a01b038816600090815260a56020526040902054811015611676576001600160a01b038816600090815260a5602052604090208054829081106115ef576115ef61529f565b600091825260208083206001600160a01b038c16845260a5909152604090922060049091029091019061162284846152cb565b815481106116325761163261529f565b60009182526020909120825460049092020190815560018083015490820155600280830154908201556003918201549101558061166e816152e2565b9150506115a5565b5060005b818110156116e7576001600160a01b038816600090815260a5602052604090208054806116a9576116a96152fd565b6000828152602081206004600019909301928302018181556001810182905560028101829055600301559055806116df816152e2565b91505061167a565b505b506004830155505b8054611703908490610de790886131de565b8155611713848685856000613626565b5050505050565b611722613421565b6001600160a01b03831661174957604051639fabe1c160e01b815260040160405180910390fd5b6001600160a01b03821661177057604051639fabe1c160e01b815260040160405180910390fd5b609f80546001600160a01b039485166001600160a01b031991821617909155609e80549385169382169390931790925560b18054919093169116179055565b6117b7613421565b8281146117f0576040517f2a82a34f00000000000000000000000000000000000000000000000000000000815260040160405180910390fd5b6117fc60aa6000614c22565b61180860ab6000614c22565b8260005b818110156118885760aa8686838181106118285761182861529f565b8354600181018555600094855260209485902091909402929092013591909201555060ab84848381811061185e5761185e61529f565b8354600180820186556000958652602095869020929095029390930135920191909155500161180c565b505050505050565b611898613421565b6110d3613823565b6110d360ac8054806020026020016040519081016040528092919081815260200182805480156118f957602002820191906000526020600020905b81546001600160a01b031681526001909101906020018083116118db575b50505050506120f4565b600054610100900460ff16158080156119235750600054600160ff909116105b8061193d5750303b15801561193d575060005460ff166001145b6119b45760405162461bcd60e51b815260206004820152602e60248201527f496e697469616c697a61626c653a20636f6e747261637420697320616c72656160448201527f647920696e697469616c697a656400000000000000000000000000000000000060648201526084015b60405180910390fd5b6000805460ff1916600117905580156119d7576000805461ff0019166101001790555b6001600160a01b038b166119fe57604051639fabe1c160e01b815260040160405180910390fd5b6001600160a01b038a16611a2557604051639fabe1c160e01b815260040160405180910390fd5b6001600160a01b038916611a4c57604051639fabe1c160e01b815260040160405180910390fd5b6001600160a01b038816611a7357604051639fabe1c160e01b815260040160405180910390fd5b6001600160a01b038716611a9a57604051639fabe1c160e01b815260040160405180910390fd5b85611ab8576040516365e52d5160e11b815260040160405180910390fd5b84611ad6576040516365e52d5160e11b815260040160405180910390fd5b83611af4576040516365e52d5160e11b815260040160405180910390fd5b81611b12576040516365e52d5160e11b815260040160405180910390fd5b620186a0831115611b365760405163eeddf6ab60e01b815260040160405180910390fd5b85851115611b70576040517f70f9f3ca00000000000000000000000000000000000000000000000000000000815260040160405180910390fd5b611b78613875565b611b806138e8565b60a080546001600160a01b03808e166001600160a01b0319928316811790935560a280548e831690841617905560b080548d8316908416179055609780548b831690841617905560b58054918c16610100027fffffffffffffffffffffff0000000000000000000000000000000000000000ff90921691909117905560ac8054600181019091557f0a0a1bcadd9f6a5539376fa82276e043ae3cb4499daaaf8136572ecb1f9f0d6001805490911682179055600090815260ad60205260409020426002909101556099869055609a859055609b8490556098839055609c8290558015611ca6576000805461ff0019169055604051600181527f7f26b83ff96e1f2b6a682f133852f6798a09c465da95921460cefb38474024989060200160405180910390a15b5050505050505050505050565b611cbb613421565b60b55460ff1615611cf8576040517f4cd4ee5300000000000000000000000000000000000000000000000000000000815260040160405180910390fd5b8060005b81811015611db2576000848483818110611d1857611d1861529f565b9050602002016020810190611d2d9190614cc3565b6001600160a01b03161415611d5557604051639fabe1c160e01b815260040160405180910390fd5b600160b26000868685818110611d6d57611d6d61529f565b9050602002016020810190611d829190614cc3565b6001600160a01b031681526020810191909152604001600020805460ff1916911515919091179055600101611cfc565b505060b5805460ff191660011790555050565b6001600160a01b038116600090815260ad6020526040812054428111611deb5780611ded565b425b9392505050565b611dfc613421565b6001600160a01b038116611e2357604051639fabe1c160e01b815260040160405180910390fd5b60a1546001600160a01b031615611e4d57604051639fabe1c160e01b815260040160405180910390fd5b60a180546001600160a01b0319166001600160a01b0392909216919091179055565b6001600160a01b038116600090815260a460209081526040808320805482518185028101850190935280835260609492939192909184015b82821015611f01578382906000526020600020906004020160405180608001604052908160008201548152602001600182015481526020016002820154815260200160038201548152505081526020019060010190611ea7565b505050509050919050565b611f19838383600061395b565b505050565b60a05460a1546000916001600160a01b0391821691161415611f5657506001600160a01b0316600090815260a3602052604090205490565b506001600160a01b0316600090815260a3602052604090206002015490565b60aa548110611fb0576040517fb968846100000000000000000000000000000000000000000000000000000000815260040160405180910390fd5b33600090815260b46020526040902055565b611fca613421565b6110d36000613e0c565b606060aa8054806020026020016040519081016040528092919081815260200182805480156110c957602002820191906000526020600020908154815260200190600101908083116110b5575050505050905090565b6110d333612622565b600061203d613e5e565b60b7546001600160a01b0316331461206857604051630deda90360e41b815260040160405180910390fd5b600061207384610df7565b505050915050806000141561208c576000915050611075565b600191508261209b5750611075565b6001600160a01b038416600090815260a460205260408120546120c29186916001906131f6565b505092915050565b60ac81815481106120da57600080fd5b6000918252602090912001546001600160a01b0316905081565b6120fd3361347b565b6121073382613eb1565b609760009054906101000a90046001600160a01b03166001600160a01b031663a2e620456040518163ffffffff1660e01b8152600401600060405180830381600087803b15801561215757600080fd5b505af1158015611713573d6000803e3d6000fd5b612173613421565b6110d361404f565b612183613421565b6001600160a01b038216600090815260ad6020526040902060020154156121d6576040517f7e2e4d1300000000000000000000000000000000000000000000000000000000815260040160405180910390fd5b6121fc6121eb6065546001600160a01b031690565b6001600160a01b0384169083613571565b816001600160a01b03167f8c1256b8896378cd5044f80c202f9772b9d77dc85c8a6eb51967210b09bfaa288260405161223791815260200190565b60405180910390a25050565b600082612266576001600160a01b038416600090815260a4602052604090205492505b61227384836001866131f6565b949350505050565b334282116122b5576040517f6f7eac2600000000000000000000000000000000000000000000000000000000815260040160405180910390fd5b6000806000806122c5858761408c565b6001600160a01b038916600090815260a560205260409020549397509195509350915081106122f75750505050505050565b6001600160a01b038516600090815260a560205260408120549061231c836001615313565b90505b818110156123d2576001600160a01b038716600090815260a5602052604090208054829081106123515761235161529f565b600091825260208083206001600160a01b038b16845260a590915260409092206004909102909101906123856001846152cb565b815481106123955761239561529f565b600091825260209091208254600490920201908155600180830154818301556002808401549083015560039283015492909101919091550161231f565b506001600160a01b038616600090815260a5602052604090208054806123fa576123fa6152fd565b600082815260208082206004600019909401938402018281556001810183905560028101839055600301829055919092556001600160a01b038816825260a39052604090208054612451908690610de790896131de565b81556004810154612468908690610de790896131de565b600482015561247a878787878d613626565b505050505050505050565b6001600160a01b038116600090815260a4602052604081208054825b8181101561250c57428382815481106124bc576124bc61529f565b9060005260206000209060040201600101541115612504576125018382815481106124e9576124e961529f565b600091825260209091206004909102015485906131d2565b93505b6001016124a1565b505050919050565b6001600160a01b03811661253b5760405163eeddf6ab60e01b815260040160405180910390fd5b33600090815260b2602052604090205460ff1661256b57604051630deda90360e41b815260040160405180910390fd5b6001600160a01b038116600090815260ad6020526040902060020154156125be576040517ff411c32700000000000000000000000000000000000000000000000000000000815260040160405180910390fd5b60ac8054600181019091557f0a0a1bcadd9f6a5539376fa82276e043ae3cb4499daaaf8136572ecb1f9f0d600180546001600160a01b039092166001600160a01b031990921682179055600090815260ad6020526040902042600282018190559055565b609f5460405163075b9bf960e31b81526001600160a01b03838116600483015290911690633adcdfc890602401600060405180830381600087803b15801561215757600080fd5b612671613e5e565b609d546001600160a01b0316331461269c57604051630deda90360e41b815260040160405180910390fd5b6126a58161347b565b609e546040516308c51c6560e01b81526001600160a01b03909116906308c51c65906126d69060ac9060040161532b565b600060405180830381600087803b1580156126f057600080fd5b505af1158015612704573d6000803e3d6000fd5b505060ac549150600090505b8181101561285057600060ac828154811061272d5761272d61529f565b6000918252602090912001546001600160a01b0316905061274d8161414f565b6001600160a01b03808516600090815260af602090815260408083209385168352929052908120546127849064e8d4a5100061361a565b90508015612846576001600160a01b03808616600090815260af60209081526040808320938616835292815282822082905560ad905220600401546127c990826131de565b6001600160a01b03808416600081815260ad6020526040902060040192909255609d546127f892911683613571565b816001600160a01b0316856001600160a01b03167f540798df468d7b23d11f156fdb954cb19ad414d150722a7b6d55ba369dea792e8360405161283d91815260200190565b60405180910390a35b5050600101612710565b50609760009054906101000a90046001600160a01b03166001600160a01b031663a2e620456040518163ffffffff1660e01b8152600401600060405180830381600087803b1580156128a157600080fd5b505af11580156128b5573d6000803e3d6000fd5b5050506001600160a01b03909216600090815260b6602052604090204290555050565b6099546001600160a01b038216600090815260ad602052604081206001015490916110759164e8d4a510009161147191906131ea565b33600081815260a46020526040812054909161292e9160019081906131f6565b33600081815260b4602052604081205492935061294d9284929161395b565b33600081815260b46020908152604091829020548251858152918201527f4c46641520b3fedde433247f82a421df0d7a83ce24df3f229e9df96f386c8b0c910160405180910390a250565b6129ca6040518060a0016040528060008152602001600081526020016000815260200160008152602001600081525090565b506001600160a01b0316600090815260a36020908152604091829020825160a0810184528154815260018201549281019290925260028101549282019290925260038201546060820152600490910154608082015290565b612a2a613e5e565b33600090815260b2602052604090205460ff16612a5a57604051630deda90360e41b815260040160405180910390fd5b81612a6457505050565b6001600160a01b038316301415612a8b5760a054611f19906001600160a01b0316836142a0565b6001600160a01b038316600090815260a3602052604090208054612aaf90846131d2565b81558115612b58576004810154612ac690846131d2565b60048201556001600160a01b038416600090815260a560205260408120609c54909190612af49042906131d2565b6040805160808101825287815260208082019384526001928201838152609c54606084019081528754808601895560009889529290972092516004909202909201908155925191830191909155516002820155915160039092019190915550612b6d565b6001810154612b6790846131d2565b60018201555b50505050565b60ac5460609067ffffffffffffffff811115612b9157612b91615082565b604051908082528060200260200182016040528015612bd657816020015b6040805180820190915260008082526020820152815260200190600190039081612baf5790505b5060ac5490915060005b81811015612cf65760ac8181548110612bfb57612bfb61529f565b9060005260206000200160009054906101000a90046001600160a01b0316838281518110612c2b57612c2b61529f565b6020026020010151600001906001600160a01b031690816001600160a01b031681525050612cce64e8d4a5100061147186868581518110612c6e57612c6e61529f565b60200260200101516000015160a360008a6001600160a01b03166001600160a01b0316815260200190815260200160002060030154612cc9898881518110612cb857612cb861529f565b602002602001015160000151612fb9565b614368565b838281518110612ce057612ce061529f565b6020908102919091018101510152600101612be0565b5050919050565b6001600160a01b038116600090815260a3602090815260408083206001015460a590925282208054606091908490815b81811015612f275742848281548110612d4857612d4861529f565b9060005260206000209060040201600101541115612eef5782612de3578354612d729082906152cb565b67ffffffffffffffff811115612d8a57612d8a615082565b604051908082528060200260200182016040528015612ddf57816020015b612dcc60405180606001604052806000815260200160008152602001600081525090565b815260200190600190039081612da85790505b5094505b6000612e1289868481548110612dfb57612dfb61529f565b90600052602060002090600402016001015461408c565b5050915050848281548110612e2957612e2961529f565b906000526020600020906004020160000154868581518110612e4d57612e4d61529f565b60200260200101516000018181525050848281548110612e6f57612e6f61529f565b906000526020600020906004020160010154868581518110612e9357612e9361529f565b6020026020010151602001818152505080868581518110612eb657612eb661529f565b60209081029190910101516040015283612ecf816152e2565b945050612ee7858381548110610ffe57610ffe61529f565b975050612f1f565b612f1c848281548110612f0457612f0461529f565b600091825260209091206004909102015487906131d2565b95505b600101612d2d565b505050509193909250565b612f3a613421565b609a55565b3360008080612f4d84610c76565b6001600160a01b038716600090815260a5602052604081209396509194509250612f779190614c40565b6001600160a01b038416600090815260a360205260409020600481015460018201548254612faa9291610de791906131de565b8155611888858585858a613626565b6001600160a01b038116600090815260ad602052604090206003015460a95415613045576001600160a01b038216600090815260ad602052604081206001810154600290910154613018919061301290610de787611dc5565b906131ea565b9050611ded61303e60a954611471670de0b6b3a7640000856131ea90919063ffffffff16565b83906131d2565b919050565b613052613421565b6001600160a01b0381166130ce5760405162461bcd60e51b815260206004820152602660248201527f4f776e61626c653a206e6577206f776e657220697320746865207a65726f206160448201527f646472657373000000000000000000000000000000000000000000000000000060648201526084016119ab565b6130d781613e0c565b50565b6130e2613421565b6001600160a01b03811661310957604051639fabe1c160e01b815260040160405180910390fd5b60b780546001600160a01b039092166001600160a01b031990921682179055600090815260b260205260409020805460ff19166001179055565b6000806000804285602001511115613187576131846161a861317e609c5461147161fde8613012428c602001516131de90919063ffffffff16565b906131d2565b92505b845161319c90620186a09061147190866131ea565b91506131ba620186a0611471609854856131ea90919063ffffffff16565b85519091506131c990836131de565b93509193509193565b6000611ded8284615313565b6000611ded82846152cb565b6000611ded828461536f565b6000613200613e5e565b83158061321557506001600160a01b03851633145b8061322a575060a2546001600160a01b031633145b61323357600080fd5b61323c8561347b565b6001600160a01b038516600090815260a3602052604081206002810154600382015461326a918991876143d8565b6002830154919450925061327e90846131de565b6002820155600381015461329290836131de565b600382015580546132a390846131de565b815560a8546132b290846131de565b60a85560a9546132c290836131de565b60a955851580156132ec57506001600160a01b038716600090815260b3602052604090205460ff16155b1561331e576001600160a01b038716600090815260b460205260409020546133199084908990600161395b565b613417565b84156134175760a15461333b906001600160a01b03168885613571565b609f5460405163075b9bf960e31b81526001600160a01b03898116600483015290911690633adcdfc890602401600060405180830381600087803b15801561338257600080fd5b505af1158015613396573d6000803e3d6000fd5b505050506001600160a01b03878116600081815260a3602090815260408083206002015460a0805460a15484518c8152958601939093529284018590526060840194909452851694169390931415608084015290917fa236f2dcd2b940fd86168787a5f820805cdbd85131f7192d9d9c418556876fca910160405180910390a25b5050949350505050565b6065546001600160a01b031633146110d35760405162461bcd60e51b815260206004820181905260248201527f4f776e61626c653a2063616c6c6572206973206e6f7420746865206f776e657260448201526064016119ab565b6001600160a01b038116600090815260a3602052604081206003015460ac5490915b81811015612b6d57600060ac82815481106134ba576134ba61529f565b60009182526020822001546001600160a01b031691506134d982612fb9565b6001600160a01b038316600090815260ad602052604090206003810182905590915061350483611dc5565b60028201556001600160a01b03871630146135665761352587848885614368565b6001600160a01b03808916600081815260af602090815260408083209489168084529482528083209590955591815260ae8252838120928152919052208290555b50505060010161349d565b6040516001600160a01b038316602482015260448101829052611f199084907fa9059cbb00000000000000000000000000000000000000000000000000000000906064015b60408051601f198184030181529190526020810180517bffffffffffffffffffffffffffffffffffffffffffffffffffffffff167fffffffff0000000000000000000000000000000000000000000000000000000090931692909217909152614680565b6000611ded828461538e565b6001600160a01b038516331461364f57604051630deda90360e41b815260040160405180910390fd5b6136588561347b565b60a05461366f906001600160a01b03168686613571565b82156136c55781156136985760b15460a054613698916001600160a01b03918216911684613571565b60b0546136c5906001600160a01b03166136b285856131de565b60a0546001600160a01b03169190613571565b801561374b5761372f8560ac80548060200260200160405190810160405280929190818152602001828054801561372557602002820191906000526020600020905b81546001600160a01b03168152600190910190602001808311613707575b5050505050613eb1565b6001600160a01b038516600090815260b6602052604090204290555b609760009054906101000a90046001600160a01b03166001600160a01b031663a2e620456040518163ffffffff1660e01b8152600401600060405180830381600087803b15801561379b57600080fd5b505af11580156137af573d6000803e3d6000fd5b505050506001600160a01b038516600081815260a3602090815260408083206002015481518981529283015281018690526060810185905260808101919091527fa236f2dcd2b940fd86168787a5f820805cdbd85131f7192d9d9c418556876fca9060a00160405180910390a25050505050565b61382b614765565b6033805460ff191690557f5db9ee0a495bf2e6ff9c91a7834c1ba4fdd244a5e8aa4e537bd38aeae4b073aa335b6040516001600160a01b03909116815260200160405180910390a1565b600054610100900460ff166138e05760405162461bcd60e51b815260206004820152602b60248201527f496e697469616c697a61626c653a20636f6e7472616374206973206e6f74206960448201526a6e697469616c697a696e6760a81b60648201526084016119ab565b6110d36147b7565b600054610100900460ff166139535760405162461bcd60e51b815260206004820152602b60248201527f496e697469616c697a61626c653a20636f6e7472616374206973206e6f74206960448201526a6e697469616c697a696e6760a81b60648201526084016119ab565b6110d361482e565b613963613e5e565b8361396d57612b6d565b60b7546001600160a01b031615613a155760b760009054906101000a90046001600160a01b03166001600160a01b031663d9cdd5136040518163ffffffff1660e01b8152600401602060405180830381865afa1580156139d1573d6000803e3d6000fd5b505050506040513d601f19601f820116820180604052508101906139f591906153b0565b841015613a155760405163162908e360e11b815260040160405180910390fd5b60aa548210613a375760405163162908e360e11b815260040160405180910390fd5b613a408361347b565b6001600160a01b038316600090815260a46020526040902054849015613b4e576001600160a01b038416600090815260a4602052604081208054429290613a8957613a8961529f565b90600052602060002090600402016001015411613b4e576001600160a01b038416331480613ac1575060a2546001600160a01b031633145b15613b4e576001600160a01b038416600090815260b3602052604081205460ff16613b21576001600160a01b038516600090815260a46020526040812054613b0e918791600191906131f6565b9050613b1a86826131d2565b9550613b4c565b6001600160a01b038516600090815260a46020526040902054613b4a90869060019081906131f6565b505b505b6001600160a01b038416600090815260a3602052604090208054613b7290876131d2565b81556002810154613b8390876131d2565b600282015560a854613b9590876131d2565b60a881905550613bd9613bce60ab8681548110613bb457613bb461529f565b9060005260206000200154886131ea90919063ffffffff16565b6003830154906131d2565b8160030181905550613c03613bfa60ab8681548110613bb457613bb461529f565b60a954906131d2565b60a981905550613c9c856040518060800160405280898152602001613c4e60aa8981548110613c3457613c3461529f565b9060005260206000200154426131d290919063ffffffff16565b815260200160ab8881548110613c6657613c6661529f565b9060005260206000200154815260200160aa8881548110613c8957613c8961529f565b90600052602060002001548152506148a2565b60b5546040517fbd6597840000000000000000000000000000000000000000000000000000000081526001600160a01b0387811660048301526101009092049091169063bd65978490602401600060405180830381600087803b158015613d0257600080fd5b505af1158015613d16573d6000803e3d6000fd5b5050505082613d375760a154613d37906001600160a01b03163330856149be565b609f5460405163075b9bf960e31b81526001600160a01b03878116600483015290911690633adcdfc890602401600060405180830381600087803b158015613d7e57600080fd5b505af1158015613d92573d6000803e3d6000fd5b505050506001600160a01b03858116600081815260a360209081526040918290206002015460a05460a15484518d81529384019290925285169416939093141590830152907fca8d506eda84f8ed07c2908ae102299d34888ef5e19b97f56e4d6fcd1104c31e9060600160405180910390a2505050505050565b606580546001600160a01b038381166001600160a01b0319831681179093556040519116919082907f8be0079c531659141344cd1fd0a4f28419497f9722a3daafe3b4186f6b6457e090600090a35050565b60335460ff16156110d35760405162461bcd60e51b815260206004820152601060248201527f5061757361626c653a207061757365640000000000000000000000000000000060448201526064016119ab565b613eb9613e5e565b609e546040516308c51c6560e01b81526001600160a01b03909116906308c51c6590613ee99084906004016153c9565b600060405180830381600087803b158015613f0357600080fd5b505af1158015613f17573d6000803e3d6000fd5b505082519150600090505b81811015612b6d576000838281518110613f3e57613f3e61529f565b60200260200101519050613f518161414f565b6001600160a01b03808616600090815260af60209081526040808320938516835292905290812054613f889064e8d4a5100061361a565b90508015614045576001600160a01b03808716600090815260af60209081526040808320938616835292815282822082905560ad90522060040154613fcd90826131de565b6001600160a01b038316600081815260ad6020526040902060040191909155613ff7908783613571565b816001600160a01b0316866001600160a01b03167f540798df468d7b23d11f156fdb954cb19ad414d150722a7b6d55ba369dea792e8360405161403c91815260200190565b60405180910390a35b5050600101613f22565b614057613e5e565b6033805460ff191660011790557f62e78cea01bee320cd4e420270b5ea74000d11b0c9f74754ebdbfc544b05a2586138583390565b6001600160a01b038216600090815260a56020526040812054819081908190815b81811015614144576001600160a01b038816600090815260a5602052604090208054889190839081106140e2576140e261529f565b906000526020600020906004020160010154141561413c576001600160a01b038816600090815260a5602052604090208054614129919083908110610d3c57610d3c61529f565b9298509650909450909250829050614144565b6001016140ad565b505092959194509250565b6001600160a01b03811661417657604051639fabe1c160e01b815260040160405180910390fd5b60a0546001600160a01b038281169116141561418f5750565b6001600160a01b038116600090815260ad602052604090208054806141e0576040517f17479ac800000000000000000000000000000000000000000000000000000000815260040160405180910390fd5b6141fa609a546099546141f391906152cb565b42906131d2565b811015611f19576004808301546040517f70a08231000000000000000000000000000000000000000000000000000000008152309281019290925260009161429291906001600160a01b038716906370a0823190602401602060405180830381865afa15801561426e573d6000803e3d6000fd5b505050506040513d601f19601f82011682018060405250810190610de791906153b0565b90508015612b6d57612b6d84825b6001600160a01b038216600090815260ad60205260409020805442106142e0576099546142d6906114718464e8d4a510006131ea565b6001820155614338565b80546000906142ef90426131de565b9050600061431364e8d4a510006114718560010154856131ea90919063ffffffff16565b6099549091506143309061147164e8d4a5100061301288866131d2565b600184015550505b426002820181905560995461434d91906131d2565b8155600481015461435e90836131d2565b6004909101555050565b6001600160a01b03808516600081815260af602090815260408083209488168084529482528083205493835260ae8252808320948352939052918220549091906143b39084906131de565b90506143ce61303e670de0b6b3a764000061147187856131ea565b9695505050505050565b6001600160a01b038416600090815260a46020526040812080548291901561467657805460009085101561440c578461440f565b81545b905060005b81811080156144465750428382815481106144315761443161529f565b90600052602060002090600402016001015411155b156144d1576144788382815481106144605761446061529f565b600091825260209091206004909102015486906131d2565b94506144bd6144b68483815481106144925761449261529f565b906000526020600020906004020160020154858481548110610fc457610fc461529f565b85906131d2565b93506144ca816001615313565b9050614414565b805b8354811015614566578381815481106144ee576144ee61529f565b906000526020600020906004020184838361450991906152cb565b815481106145195761451961529f565b90600052602060002090600402016000820154816000015560018201548160010155600282015481600201556003820154816003015590505080600161455f9190615313565b90506144d3565b5060005b818110156145c65783805480614582576145826152fd565b60008281526020812060046000199093019283020181815560018181018390556002820183905560039091019190915591556145bf908290615313565b905061456a565b508254614673576001600160a01b038916600090815260a4602052604081208996508895506145f491614c40565b60b5546040517f257f9abf0000000000000000000000000000000000000000000000000000000081526001600160a01b038b811660048301526101009092049091169063257f9abf90602401600060405180830381600087803b15801561465a57600080fd5b505af115801561466e573d6000803e3d6000fd5b505050505b50505b5094509492505050565b60006146d5826040518060400160405280602081526020017f5361666545524332303a206c6f772d6c6576656c2063616c6c206661696c6564815250856001600160a01b0316614a0f9092919063ffffffff16565b805190915015611f1957808060200190518101906146f3919061540a565b611f195760405162461bcd60e51b815260206004820152602a60248201527f5361666545524332303a204552433230206f7065726174696f6e20646964206e60448201527f6f7420737563636565640000000000000000000000000000000000000000000060648201526084016119ab565b60335460ff166110d35760405162461bcd60e51b815260206004820152601460248201527f5061757361626c653a206e6f742070617573656400000000000000000000000060448201526064016119ab565b600054610100900460ff166148225760405162461bcd60e51b815260206004820152602b60248201527f496e697469616c697a61626c653a20636f6e7472616374206973206e6f74206960448201526a6e697469616c697a696e6760a81b60648201526084016119ab565b6033805460ff19169055565b600054610100900460ff166148995760405162461bcd60e51b815260206004820152602b60248201527f496e697469616c697a61626c653a20636f6e7472616374206973206e6f74206960448201526a6e697469616c697a696e6760a81b60648201526084016119ab565b6110d333613e0c565b6001600160a01b038216600090815260a46020908152604082208054918401519092906148d29084908490614a1e565b8354600101845560008490529050815b8181111561496a57836148f66001836152cb565b815481106149065761490661529f565b90600052602060002090600402018482815481106149265761492661529f565b60009182526020909120825460049092020190815560018083015490820155600280830154908201556003918201549101558061496281615427565b9150506148e2565b508383828154811061497e5761497e61529f565b9060005260206000209060040201600082015181600001556020820151816001015560408201518160020155606082015181600301559050505050505050565b6040516001600160a01b0380851660248301528316604482015260648101829052612b6d9085907f23b872dd00000000000000000000000000000000000000000000000000000000906084016135b6565b60606122738484600085614a95565b600080835b80821015614a8c5760006002614a398385615313565b614a43919061538e565b905084878281548110614a5857614a5861529f565b9060005260206000209060040201600101541015614a8257614a7b816001615313565b9250614a86565b8091505b50614a23565b50949350505050565b606082471015614b0d5760405162461bcd60e51b815260206004820152602660248201527f416464726573733a20696e73756666696369656e742062616c616e636520666f60448201527f722063616c6c000000000000000000000000000000000000000000000000000060648201526084016119ab565b600080866001600160a01b03168587604051614b29919061546a565b60006040518083038185875af1925050503d8060008114614b66576040519150601f19603f3d011682016040523d82523d6000602084013e614b6b565b606091505b5091509150614b7c87838387614b87565b979650505050505050565b60608315614bf3578251614bec576001600160a01b0385163b614bec5760405162461bcd60e51b815260206004820152601d60248201527f416464726573733a2063616c6c20746f206e6f6e2d636f6e747261637400000060448201526064016119ab565b5081612273565b6122738383815115614c085781518083602001fd5b8060405162461bcd60e51b81526004016119ab9190615486565b50805460008255906000526020600020908101906130d79190614c61565b50805460008255600402906000526020600020908101906130d79190614c7a565b5b80821115614c765760008155600101614c62565b5090565b5b80821115614c7657600080825560018201819055600282018190556003820155600401614c7b565b6001600160a01b03811681146130d757600080fd5b803561304581614ca3565b600060208284031215614cd557600080fd5b8135611ded81614ca3565b600081518084526020808501945080840160005b83811015614d30578151805188528381015184890152604080820151908901526060908101519088015260809096019590820190600101614cf4565b509495945050505050565b85815284602082015283604082015282606082015260a060808201526000614b7c60a0830184614ce0565b6020808252825182820181905260009190848201906040850190845b81811015614d9e57835183529284019291840191600101614d82565b50909695505050505050565b600060208284031215614dbc57600080fd5b5035919050565b600080600060608486031215614dd857600080fd5b8335614de381614ca3565b92506020840135614df381614ca3565b91506040840135614e0381614ca3565b809150509250925092565b60008083601f840112614e2057600080fd5b50813567ffffffffffffffff811115614e3857600080fd5b6020830191508360208260051b8501011115614e5357600080fd5b9250929050565b60008060008060408587031215614e7057600080fd5b843567ffffffffffffffff80821115614e8857600080fd5b614e9488838901614e0e565b90965094506020870135915080821115614ead57600080fd5b50614eba87828801614e0e565b95989497509550505050565b6000806000806000806000806000806101408b8d031215614ee657600080fd5b8a35614ef181614ca3565b995060208b0135614f0181614ca3565b985060408b0135614f1181614ca3565b975060608b0135614f2181614ca3565b965060808b0135614f3181614ca3565b999c989b50969995989760a0870135975060c08701359660e08101359650610100810135955061012001359350915050565b60008060208385031215614f7657600080fd5b823567ffffffffffffffff811115614f8d57600080fd5b614f9985828601614e0e565b90969095509350505050565b80151581146130d757600080fd5b600060208284031215614fc557600080fd5b8135611ded81614fa5565b602081526000611ded6020830184614ce0565b600080600060608486031215614ff857600080fd5b83359250602084013561500a81614ca3565b929592945050506040919091013590565b6000806040838503121561502e57600080fd5b823561503981614ca3565b9150602083013561504981614ca3565b809150509250929050565b6000806040838503121561506757600080fd5b823561507281614ca3565b9150602083013561504981614fa5565b634e487b7160e01b600052604160045260246000fd5b600060208083850312156150ab57600080fd5b823567ffffffffffffffff808211156150c357600080fd5b818501915085601f8301126150d757600080fd5b8135818111156150e9576150e9615082565b8060051b604051601f19603f8301168101818110858211171561510e5761510e615082565b60405291825284820192508381018501918883111561512c57600080fd5b938501935b828510156151515761514285614cb8565b84529385019392850192615131565b98975050505050505050565b6000806040838503121561517057600080fd5b823561517b81614ca3565b946020939093013593505050565b60008060006060848603121561519e57600080fd5b83356151a981614ca3565b9250602084013591506040840135614e0381614fa5565b600080604083850312156151d357600080fd5b823561517b81614fa5565b602080825282518282018190526000919060409081850190868401855b8281101561522957815180516001600160a01b031685528601518685015292840192908501906001016151fb565b5091979650505050505050565b600060608083018684526020868186015260408381870152828751808552608088019150838901945060005b8181101561528f578551805184528581015186850152840151848401529484019491860191600101615262565b50909a9950505050505050505050565b634e487b7160e01b600052603260045260246000fd5b634e487b7160e01b600052601160045260246000fd5b6000828210156152dd576152dd6152b5565b500390565b60006000198214156152f6576152f66152b5565b5060010190565b634e487b7160e01b600052603160045260246000fd5b60008219821115615326576153266152b5565b500190565b6020808252825482820181905260008481528281209092916040850190845b81811015614d9e5783546001600160a01b03168352600193840193928501920161534a565b6000816000190483118215151615615389576153896152b5565b500290565b6000826153ab57634e487b7160e01b600052601260045260246000fd5b500490565b6000602082840312156153c257600080fd5b5051919050565b6020808252825182820181905260009190848201906040850190845b81811015614d9e5783516001600160a01b0316835292840192918401916001016153e5565b60006020828403121561541c57600080fd5b8151611ded81614fa5565b600081615436576154366152b5565b506000190190565b60005b83811015615459578181015183820152602001615441565b83811115612b6d5750506000910152565b6000825161547c81846020870161543e565b9190910192915050565b60208152600082518060208401526154a581604085016020870161543e565b601f01601f1916919091016040019291505056fea26469706673582212201bf26070580c8b1e20d2d35e2df6c2ffa75d2dd15591009c2d86f854e4b23f2464736f6c634300080c0033",
  "devdoc": {
    "author": "Radiant",
    "details": "All function calls are currently implemented without side effects",
    "kind": "dev",
    "methods": {
      "addReward(address)": {
        "params": {
          "_rewardToken": "address"
        }
      },
      "addRewardConverter(address)": {
        "params": {
          "_rewardConverter": "contract address"
        }
      },
      "claimBounty(address,bool)": {
        "details": "Remove expired locks",
        "params": {
          "_execute": "true if this is actual execution",
          "_user": "address"
        },
        "returns": {
          "issueBaseBounty": "true if needs to issue base bounty"
        }
      },
      "claimFromConverter(address)": {
        "details": "Rewards are transfered to converter.",
        "params": {
          "onBehalf": "address to claim."
        }
      },
      "claimableRewards(address)": {
        "params": {
          "account": "for rewards"
        },
        "returns": {
          "rewardsData": "array of rewards"
        }
      },
      "earnedBalances(address)": {
        "details": "Earned balances may be withdrawn immediately for a 50% penalty.",
        "returns": {
          "earningsData": "which is an array of all infos",
          "total": "earnings",
          "unlocked": "earnings"
        }
      },
      "exit(bool)": {
        "params": {
          "claimRewards": "true to claim rewards when exit"
        }
      },
      "getReward(address[])": {
        "params": {
          "_rewardTokens": "array of reward tokens"
        }
      },
      "getRewardForDuration(address)": {
        "params": {
          "_rewardToken": "for the reward"
        },
        "returns": {
          "_0": "reward amount for duration"
        }
      },
      "individualEarlyExit(bool,uint256)": {
        "params": {
          "claimRewards": "true to claim rewards when exit",
          "unlockTime": "of earning"
        }
      },
      "initialize(address,address,address,address,address,uint256,uint256,uint256,uint256,uint256)": {
        "details": "Constructor  First reward MUST be the RDNT token or things will break  related to the 50% penalty and distribution to locked balances.",
        "params": {
          "_lockDuration": "lock duration",
          "_rdntToken": "RDNT token address.",
          "_rewardsDuration": "set reward stream time.",
          "_rewardsLookback": "reward lookback"
        }
      },
      "lastTimeRewardApplicable(address)": {
        "params": {
          "_rewardToken": "for the reward"
        },
        "returns": {
          "_0": "end time of reward period"
        }
      },
      "lockInfo(address)": {
        "params": {
          "user": "address."
        },
        "returns": {
          "_0": "lockInfo of the user."
        }
      },
      "lockedBalance(address)": {
        "params": {
          "user": "address"
        },
        "returns": {
          "locked": "amount"
        }
      },
      "lockedBalances(address)": {
        "returns": {
          "_0": "total balance of locks",
          "lockData": "which is an array of locks",
          "locked": "balance",
          "lockedWithMultiplier": "lockedWithMultiplier",
          "unlockable": "balance"
        }
      },
      "mint(address,uint256,bool)": {
        "details": "Minted tokens receive rewards normally but incur a 50% penalty when  withdrawn before vestDuration has passed.",
        "params": {
          "amount": "to vest.",
          "user": "vesting owner.",
          "withPenalty": "does this bear penalty?"
        }
      },
      "owner()": {
        "details": "Returns the address of the current owner."
      },
      "paused()": {
        "details": "Returns true if the contract is paused, and false otherwise."
      },
      "recoverERC20(address,uint256)": {
        "params": {
          "tokenAddress": "to recover.",
          "tokenAmount": "to recover."
        }
      },
      "renounceOwnership()": {
        "details": "Leaves the contract without owner. It will not be possible to call `onlyOwner` functions anymore. Can only be called by the current owner. NOTE: Renouncing ownership will leave the contract without an owner, thereby removing any functionality that is only available to the owner."
      },
      "requalifyFor(address)": {
        "params": {
          "_user": "address"
        }
      },
      "rewardPerToken(address)": {
        "details": "Reward is distributed only for locks.",
        "params": {
          "_rewardToken": "for reward"
        },
        "returns": {
          "rptStored": "current RPT with accumulated rewards"
        }
      },
      "setAddresses(address,address,address)": {
        "params": {
          "_controller": "CIC address",
          "_middleFeeDistribution": "address",
          "_treasury": "address"
        }
      },
      "setAutocompound(bool)": {
        "params": {
          "_status": "true if auto compounding is enabled."
        }
      },
      "setBountyManager(address)": {
        "params": {
          "_bounty": "contract address"
        }
      },
      "setDefaultRelockTypeIndex(uint256)": {
        "params": {
          "_index": "of default lock length"
        }
      },
      "setLPToken(address)": {
        "params": {
          "_stakingToken": "LP token address"
        }
      },
      "setLockTypeInfo(uint256[],uint256[])": {
        "params": {
          "_lockPeriod": "lock period array",
          "_rewardMultipliers": "multipliers per lock period"
        }
      },
      "setLookback(uint256)": {
        "params": {
          "_lookback": "in seconds"
        }
      },
      "setMinters(address[])": {
        "details": "Can be called only once",
        "params": {
          "_minters": "array of address"
        }
      },
      "setRelock(bool)": {
        "params": {
          "_status": "true if auto relock is enabled."
        }
      },
      "stake(uint256,address,uint256)": {
        "details": "Locked tokens cannot be withdrawn for defaultLockDuration and are eligible to receive rewards.",
        "params": {
          "amount": "to stake.",
          "onBehalfOf": "address for staking.",
          "typeIndex": "lock type index."
        }
      },
      "totalBalance(address)": {
        "params": {
          "user": "address."
        }
      },
      "transferOwnership(address)": {
        "details": "Transfers ownership of the contract to a new account (`newOwner`). Can only be called by the current owner."
      },
      "withdraw(uint256)": {
        "details": "First withdraws unlocked tokens, then earned tokens. Withdrawing earned tokens  incurs a 50% penalty which is distributed based on locked balances.",
        "params": {
          "amount": "for withdraw"
        }
      },
      "withdrawExpiredLocksFor(address)": {
        "params": {
          "_address": "of the user"
        },
        "returns": {
          "_0": "withdraw amount"
        }
      },
      "withdrawExpiredLocksForWithOptions(address,uint256,bool)": {
        "params": {
          "_address": "for withdraw",
          "_ignoreRelock": "option to ignore relock",
          "_limit": "of lock length for withdraw"
        },
        "returns": {
          "_0": "withdraw amount"
        }
      },
      "withdrawableBalance(address)": {
        "details": "This is earnings, not locks.",
        "params": {
          "user": "address."
        },
        "returns": {
          "amount": "total withdrawable amount.",
          "burnAmount": "amount to burn.",
          "penaltyAmount": "penalty amount."
        }
      },
      "zapVestingToLp(address)": {
        "params": {
          "_user": "address"
        },
        "returns": {
          "zapped": "amount"
        }
      }
    },
    "title": "Multi Fee Distribution Contract",
    "version": 1
  },
  "userdoc": {
    "kind": "user",
    "methods": {
      "DEFAULT_LOCK_INDEX()": {
        "notice": "Default lock index"
      },
      "addReward(address)": {
        "notice": "Add a new reward token to be distributed to stakers."
      },
      "addRewardConverter(address)": {
        "notice": "Sets reward convert contract."
      },
      "bountyManager()": {
        "notice": "Bounty manager contract"
      },
      "burn()": {
        "notice": "Proportion of burn amount"
      },
      "claimBounty(address,bool)": {
        "notice": "Claims bounty."
      },
      "claimFromConverter(address)": {
        "notice": "Claim rewards by converter."
      },
      "claimableRewards(address)": {
        "notice": "Address and claimable amount of all reward tokens for the given account."
      },
      "daoTreasury()": {
        "notice": "DAO wallet"
      },
      "defaultLockDuration()": {
        "notice": "Duration of lock/earned penalty period, used for earnings"
      },
      "earnedBalances(address)": {
        "notice": "Earnings which is locked yet"
      },
      "exit(bool)": {
        "notice": "Withdraw full unlocked balance and earnings, optionally claim pending rewards."
      },
      "getAllRewards()": {
        "notice": "Claim all pending staking rewards."
      },
      "getBalances(address)": {
        "notice": "Total balance of an account, including unlocked, locked and earned tokens."
      },
      "getLockDurations()": {
        "notice": "Return lock duration."
      },
      "getLockMultipliers()": {
        "notice": "Return reward multipliers."
      },
      "getPriceProvider()": {
        "notice": "Returns price provider address"
      },
      "getReward(address[])": {
        "notice": "Claim all pending staking rewards."
      },
      "getRewardForDuration(address)": {
        "notice": "Reward amount of the duration."
      },
      "incentivesController()": {
        "notice": "Address of CIC contract"
      },
      "individualEarlyExit(bool,uint256)": {
        "notice": "Withdraw individual unlocked balance and earnings, optionally claim pending rewards."
      },
      "lastClaimTime(address)": {
        "notice": "Last claim time of the user"
      },
      "lastTimeRewardApplicable(address)": {
        "notice": "Returns reward applicable timestamp."
      },
      "lockInfo(address)": {
        "notice": "Returns all locks of a user."
      },
      "lockedBalance(address)": {
        "notice": "Reward locked amount of the user."
      },
      "lockedBalances(address)": {
        "notice": "Information on a user's lockings"
      },
      "lockedSupply()": {
        "notice": "Total locked value"
      },
      "lockedSupplyWithMultiplier()": {
        "notice": "Total locked value in multipliers"
      },
      "middleFeeDistribution()": {
        "notice": "Address of Middle Fee Distribution Contract"
      },
      "mint(address,uint256,bool)": {
        "notice": "Add to earnings"
      },
      "minters(address)": {
        "notice": "Addresses approved to call mint"
      },
      "mintersAreSet()": {
        "notice": "Flag to prevent more minter addings"
      },
      "pause()": {
        "notice": "Pause MFD functionalities"
      },
      "rdntToken()": {
        "notice": "Address of RDNT"
      },
      "recoverERC20(address,uint256)": {
        "notice": "Added to support recovering LP Rewards from other systems such as BAL to be distributed to holders."
      },
      "relock()": {
        "notice": "Withdraw and restake assets."
      },
      "requalify()": {
        "notice": "Requalify user"
      },
      "requalifyFor(address)": {
        "notice": "Requalify user for reward elgibility"
      },
      "rewardConverter()": {
        "notice": "Returns reward converter"
      },
      "rewardData(address)": {
        "notice": "Reward data per token"
      },
      "rewardPerToken(address)": {
        "notice": "Reward amount per token"
      },
      "rewardTokens(uint256)": {
        "notice": "Reward tokens being distributed"
      },
      "rewards(address,address)": {
        "notice": "user -> reward token -> amount; used to store reward amount"
      },
      "rewardsDuration()": {
        "notice": "Duration that rewards are streamed over"
      },
      "rewardsLookback()": {
        "notice": "Duration that rewards loop back"
      },
      "setAddresses(address,address,address)": {
        "notice": "Set CIC, MFD and Treasury."
      },
      "setAutocompound(bool)": {
        "notice": "Sets option if auto compound is enabled."
      },
      "setBountyManager(address)": {
        "notice": "Sets bounty manager contract."
      },
      "setDefaultRelockTypeIndex(uint256)": {
        "notice": "Set default lock type index for user relock."
      },
      "setLPToken(address)": {
        "notice": "Set LP token."
      },
      "setLockTypeInfo(uint256[],uint256[])": {
        "notice": "Add a new reward token to be distributed to stakers."
      },
      "setLookback(uint256)": {
        "notice": "Sets the loopback period"
      },
      "setMinters(address[])": {
        "notice": "Set minters"
      },
      "setRelock(bool)": {
        "notice": "Set relock status"
      },
      "stake(uint256,address,uint256)": {
        "notice": "Stake tokens to receive rewards."
      },
      "stakingToken()": {
        "notice": "Address of LP token"
      },
      "startfleetTreasury()": {
        "notice": "treasury wallet"
      },
      "totalBalance(address)": {
        "notice": "Total balance of an account, including unlocked, locked and earned tokens."
      },
      "unpause()": {
        "notice": "Resume MFD functionalities"
      },
      "userRewardPerTokenPaid(address,address)": {
        "notice": "user -> reward token -> rpt; RPT for paid amount"
      },
      "userlist()": {
        "notice": "Users list"
      },
      "vestDuration()": {
        "notice": "Duration of vesting RDNT"
      },
      "withdraw(uint256)": {
        "notice": "Withdraw tokens from earnings and unlocked."
      },
      "withdrawExpiredLocksFor(address)": {
        "notice": "Withdraw all currently locked tokens where the unlock time has passed."
      },
      "withdrawExpiredLocksForWithOptions(address,uint256,bool)": {
        "notice": "Withdraw expired locks with options"
      },
      "withdrawableBalance(address)": {
        "notice": "Final balance received and penalty balance paid by user upon calling exit."
      },
      "zapVestingToLp(address)": {
        "notice": "Zap vesting RDNT tokens to LP"
      }
    },
    "version": 1
  },
  "storageLayout": {
    "storage": [
      {
        "astId": 3046,
        "contract": "contracts/radiant/staking/MultiFeeDistribution.sol:MultiFeeDistribution",
        "label": "_initialized",
        "offset": 0,
        "slot": "0",
        "type": "t_uint8"
      },
      {
        "astId": 3049,
        "contract": "contracts/radiant/staking/MultiFeeDistribution.sol:MultiFeeDistribution",
        "label": "_initializing",
        "offset": 1,
        "slot": "0",
        "type": "t_bool"
      },
      {
        "astId": 3660,
        "contract": "contracts/radiant/staking/MultiFeeDistribution.sol:MultiFeeDistribution",
        "label": "__gap",
        "offset": 0,
        "slot": "1",
        "type": "t_array(t_uint256)50_storage"
      },
      {
        "astId": 3229,
        "contract": "contracts/radiant/staking/MultiFeeDistribution.sol:MultiFeeDistribution",
        "label": "_paused",
        "offset": 0,
        "slot": "51",
        "type": "t_bool"
      },
      {
        "astId": 3334,
        "contract": "contracts/radiant/staking/MultiFeeDistribution.sol:MultiFeeDistribution",
        "label": "__gap",
        "offset": 0,
        "slot": "52",
        "type": "t_array(t_uint256)49_storage"
      },
      {
        "astId": 2918,
        "contract": "contracts/radiant/staking/MultiFeeDistribution.sol:MultiFeeDistribution",
        "label": "_owner",
        "offset": 0,
        "slot": "101",
        "type": "t_address"
      },
      {
        "astId": 3038,
        "contract": "contracts/radiant/staking/MultiFeeDistribution.sol:MultiFeeDistribution",
        "label": "__gap",
        "offset": 0,
        "slot": "102",
        "type": "t_array(t_uint256)49_storage"
      },
      {
        "astId": 46543,
        "contract": "contracts/radiant/staking/MultiFeeDistribution.sol:MultiFeeDistribution",
        "label": "_priceProvider",
        "offset": 0,
        "slot": "151",
        "type": "t_address"
      },
      {
        "astId": 46555,
        "contract": "contracts/radiant/staking/MultiFeeDistribution.sol:MultiFeeDistribution",
        "label": "burn",
        "offset": 0,
        "slot": "152",
        "type": "t_uint256"
      },
      {
        "astId": 46558,
        "contract": "contracts/radiant/staking/MultiFeeDistribution.sol:MultiFeeDistribution",
        "label": "rewardsDuration",
        "offset": 0,
        "slot": "153",
        "type": "t_uint256"
      },
      {
        "astId": 46561,
        "contract": "contracts/radiant/staking/MultiFeeDistribution.sol:MultiFeeDistribution",
        "label": "rewardsLookback",
        "offset": 0,
        "slot": "154",
        "type": "t_uint256"
      },
      {
        "astId": 46568,
        "contract": "contracts/radiant/staking/MultiFeeDistribution.sol:MultiFeeDistribution",
        "label": "defaultLockDuration",
        "offset": 0,
        "slot": "155",
        "type": "t_uint256"
      },
      {
        "astId": 46571,
        "contract": "contracts/radiant/staking/MultiFeeDistribution.sol:MultiFeeDistribution",
        "label": "vestDuration",
        "offset": 0,
        "slot": "156",
        "type": "t_uint256"
      },
      {
        "astId": 46574,
        "contract": "contracts/radiant/staking/MultiFeeDistribution.sol:MultiFeeDistribution",
        "label": "rewardConverter",
        "offset": 0,
        "slot": "157",
        "type": "t_address"
      },
      {
        "astId": 46578,
        "contract": "contracts/radiant/staking/MultiFeeDistribution.sol:MultiFeeDistribution",
        "label": "middleFeeDistribution",
        "offset": 0,
        "slot": "158",
        "type": "t_contract(IMiddleFeeDistribution)16972"
      },
      {
        "astId": 46582,
        "contract": "contracts/radiant/staking/MultiFeeDistribution.sol:MultiFeeDistribution",
        "label": "incentivesController",
        "offset": 0,
        "slot": "159",
        "type": "t_contract(IChefIncentivesController)15470"
      },
      {
        "astId": 46587,
        "contract": "contracts/radiant/staking/MultiFeeDistribution.sol:MultiFeeDistribution",
        "label": "rdntToken",
        "offset": 0,
        "slot": "160",
        "type": "t_contract(IMintableToken)17001"
      },
      {
        "astId": 46591,
        "contract": "contracts/radiant/staking/MultiFeeDistribution.sol:MultiFeeDistribution",
        "label": "stakingToken",
        "offset": 0,
        "slot": "161",
        "type": "t_address"
      },
      {
        "astId": 46593,
        "contract": "contracts/radiant/staking/MultiFeeDistribution.sol:MultiFeeDistribution",
        "label": "lockZap",
        "offset": 0,
        "slot": "162",
        "type": "t_address"
      },
      {
        "astId": 46598,
        "contract": "contracts/radiant/staking/MultiFeeDistribution.sol:MultiFeeDistribution",
        "label": "balances",
        "offset": 0,
        "slot": "163",
        "type": "t_mapping(t_address,t_struct(Balances)18246_storage)"
      },
      {
        "astId": 46604,
        "contract": "contracts/radiant/staking/MultiFeeDistribution.sol:MultiFeeDistribution",
        "label": "userLocks",
        "offset": 0,
        "slot": "164",
        "type": "t_mapping(t_address,t_array(t_struct(LockedBalance)18217_storage)dyn_storage)"
      },
      {
        "astId": 46610,
        "contract": "contracts/radiant/staking/MultiFeeDistribution.sol:MultiFeeDistribution",
        "label": "userEarnings",
        "offset": 0,
        "slot": "165",
        "type": "t_mapping(t_address,t_array(t_struct(LockedBalance)18217_storage)dyn_storage)"
      },
      {
        "astId": 46615,
        "contract": "contracts/radiant/staking/MultiFeeDistribution.sol:MultiFeeDistribution",
        "label": "autocompoundEnabled",
        "offset": 0,
        "slot": "166",
        "type": "t_mapping(t_address,t_bool)"
      },
      {
        "astId": 46619,
        "contract": "contracts/radiant/staking/MultiFeeDistribution.sol:MultiFeeDistribution",
        "label": "lastAutocompound",
        "offset": 0,
        "slot": "167",
        "type": "t_mapping(t_address,t_uint256)"
      },
      {
        "astId": 46622,
        "contract": "contracts/radiant/staking/MultiFeeDistribution.sol:MultiFeeDistribution",
        "label": "lockedSupply",
        "offset": 0,
        "slot": "168",
        "type": "t_uint256"
      },
      {
        "astId": 46625,
        "contract": "contracts/radiant/staking/MultiFeeDistribution.sol:MultiFeeDistribution",
        "label": "lockedSupplyWithMultiplier",
        "offset": 0,
        "slot": "169",
        "type": "t_uint256"
      },
      {
        "astId": 46628,
        "contract": "contracts/radiant/staking/MultiFeeDistribution.sol:MultiFeeDistribution",
        "label": "lockPeriod",
        "offset": 0,
        "slot": "170",
        "type": "t_array(t_uint256)dyn_storage"
      },
      {
        "astId": 46631,
        "contract": "contracts/radiant/staking/MultiFeeDistribution.sol:MultiFeeDistribution",
        "label": "rewardMultipliers",
        "offset": 0,
        "slot": "171",
        "type": "t_array(t_uint256)dyn_storage"
      },
      {
        "astId": 46635,
        "contract": "contracts/radiant/staking/MultiFeeDistribution.sol:MultiFeeDistribution",
        "label": "rewardTokens",
        "offset": 0,
        "slot": "172",
        "type": "t_array(t_address)dyn_storage"
      },
      {
        "astId": 46641,
        "contract": "contracts/radiant/staking/MultiFeeDistribution.sol:MultiFeeDistribution",
        "label": "rewardData",
        "offset": 0,
        "slot": "173",
        "type": "t_mapping(t_address,t_struct(Reward)18235_storage)"
      },
      {
        "astId": 46648,
        "contract": "contracts/radiant/staking/MultiFeeDistribution.sol:MultiFeeDistribution",
        "label": "userRewardPerTokenPaid",
        "offset": 0,
        "slot": "174",
        "type": "t_mapping(t_address,t_mapping(t_address,t_uint256))"
      },
      {
        "astId": 46655,
        "contract": "contracts/radiant/staking/MultiFeeDistribution.sol:MultiFeeDistribution",
        "label": "rewards",
        "offset": 0,
        "slot": "175",
        "type": "t_mapping(t_address,t_mapping(t_address,t_uint256))"
      },
      {
        "astId": 46659,
        "contract": "contracts/radiant/staking/MultiFeeDistribution.sol:MultiFeeDistribution",
        "label": "daoTreasury",
        "offset": 0,
        "slot": "176",
        "type": "t_address"
      },
      {
        "astId": 46662,
        "contract": "contracts/radiant/staking/MultiFeeDistribution.sol:MultiFeeDistribution",
        "label": "startfleetTreasury",
        "offset": 0,
        "slot": "177",
        "type": "t_address"
      },
      {
        "astId": 46667,
        "contract": "contracts/radiant/staking/MultiFeeDistribution.sol:MultiFeeDistribution",
        "label": "minters",
        "offset": 0,
        "slot": "178",
        "type": "t_mapping(t_address,t_bool)"
      },
      {
        "astId": 46672,
        "contract": "contracts/radiant/staking/MultiFeeDistribution.sol:MultiFeeDistribution",
        "label": "autoRelockDisabled",
        "offset": 0,
        "slot": "179",
        "type": "t_mapping(t_address,t_bool)"
      },
      {
        "astId": 46677,
        "contract": "contracts/radiant/staking/MultiFeeDistribution.sol:MultiFeeDistribution",
        "label": "defaultLockIndex",
        "offset": 0,
        "slot": "180",
        "type": "t_mapping(t_address,t_uint256)"
      },
      {
        "astId": 46680,
        "contract": "contracts/radiant/staking/MultiFeeDistribution.sol:MultiFeeDistribution",
        "label": "mintersAreSet",
        "offset": 0,
        "slot": "181",
        "type": "t_bool"
      },
      {
        "astId": 46684,
        "contract": "contracts/radiant/staking/MultiFeeDistribution.sol:MultiFeeDistribution",
        "label": "userlist",
        "offset": 1,
        "slot": "181",
        "type": "t_contract(ILockerList)16930"
      },
      {
        "astId": 46689,
        "contract": "contracts/radiant/staking/MultiFeeDistribution.sol:MultiFeeDistribution",
        "label": "lastClaimTime",
        "offset": 0,
        "slot": "182",
        "type": "t_mapping(t_address,t_uint256)"
      },
      {
        "astId": 46692,
        "contract": "contracts/radiant/staking/MultiFeeDistribution.sol:MultiFeeDistribution",
        "label": "bountyManager",
        "offset": 0,
        "slot": "183",
        "type": "t_address"
      }
    ],
    "types": {
      "t_address": {
        "encoding": "inplace",
        "label": "address",
        "numberOfBytes": "20"
      },
      "t_array(t_address)dyn_storage": {
        "base": "t_address",
        "encoding": "dynamic_array",
        "label": "address[]",
        "numberOfBytes": "32"
      },
      "t_array(t_struct(LockedBalance)18217_storage)dyn_storage": {
        "base": "t_struct(LockedBalance)18217_storage",
        "encoding": "dynamic_array",
        "label": "struct LockedBalance[]",
        "numberOfBytes": "32"
      },
      "t_array(t_uint256)49_storage": {
        "base": "t_uint256",
        "encoding": "inplace",
        "label": "uint256[49]",
        "numberOfBytes": "1568"
      },
      "t_array(t_uint256)50_storage": {
        "base": "t_uint256",
        "encoding": "inplace",
        "label": "uint256[50]",
        "numberOfBytes": "1600"
      },
      "t_array(t_uint256)dyn_storage": {
        "base": "t_uint256",
        "encoding": "dynamic_array",
        "label": "uint256[]",
        "numberOfBytes": "32"
      },
      "t_bool": {
        "encoding": "inplace",
        "label": "bool",
        "numberOfBytes": "1"
      },
      "t_contract(IChefIncentivesController)15470": {
        "encoding": "inplace",
        "label": "contract IChefIncentivesController",
        "numberOfBytes": "20"
      },
      "t_contract(ILockerList)16930": {
        "encoding": "inplace",
        "label": "contract ILockerList",
        "numberOfBytes": "20"
      },
      "t_contract(IMiddleFeeDistribution)16972": {
        "encoding": "inplace",
        "label": "contract IMiddleFeeDistribution",
        "numberOfBytes": "20"
      },
      "t_contract(IMintableToken)17001": {
        "encoding": "inplace",
        "label": "contract IMintableToken",
        "numberOfBytes": "20"
      },
      "t_mapping(t_address,t_array(t_struct(LockedBalance)18217_storage)dyn_storage)": {
        "encoding": "mapping",
        "key": "t_address",
        "label": "mapping(address => struct LockedBalance[])",
        "numberOfBytes": "32",
        "value": "t_array(t_struct(LockedBalance)18217_storage)dyn_storage"
      },
      "t_mapping(t_address,t_bool)": {
        "encoding": "mapping",
        "key": "t_address",
        "label": "mapping(address => bool)",
        "numberOfBytes": "32",
        "value": "t_bool"
      },
      "t_mapping(t_address,t_mapping(t_address,t_uint256))": {
        "encoding": "mapping",
        "key": "t_address",
        "label": "mapping(address => mapping(address => uint256))",
        "numberOfBytes": "32",
        "value": "t_mapping(t_address,t_uint256)"
      },
      "t_mapping(t_address,t_struct(Balances)18246_storage)": {
        "encoding": "mapping",
        "key": "t_address",
        "label": "mapping(address => struct Balances)",
        "numberOfBytes": "32",
        "value": "t_struct(Balances)18246_storage"
      },
      "t_mapping(t_address,t_struct(Reward)18235_storage)": {
        "encoding": "mapping",
        "key": "t_address",
        "label": "mapping(address => struct Reward)",
        "numberOfBytes": "32",
        "value": "t_struct(Reward)18235_storage"
      },
      "t_mapping(t_address,t_uint256)": {
        "encoding": "mapping",
        "key": "t_address",
        "label": "mapping(address => uint256)",
        "numberOfBytes": "32",
        "value": "t_uint256"
      },
      "t_struct(Balances)18246_storage": {
        "encoding": "inplace",
        "label": "struct Balances",
        "members": [
          {
            "astId": 18237,
            "contract": "contracts/radiant/staking/MultiFeeDistribution.sol:MultiFeeDistribution",
            "label": "total",
            "offset": 0,
            "slot": "0",
            "type": "t_uint256"
          },
          {
            "astId": 18239,
            "contract": "contracts/radiant/staking/MultiFeeDistribution.sol:MultiFeeDistribution",
            "label": "unlocked",
            "offset": 0,
            "slot": "1",
            "type": "t_uint256"
          },
          {
            "astId": 18241,
            "contract": "contracts/radiant/staking/MultiFeeDistribution.sol:MultiFeeDistribution",
            "label": "locked",
            "offset": 0,
            "slot": "2",
            "type": "t_uint256"
          },
          {
            "astId": 18243,
            "contract": "contracts/radiant/staking/MultiFeeDistribution.sol:MultiFeeDistribution",
            "label": "lockedWithMultiplier",
            "offset": 0,
            "slot": "3",
            "type": "t_uint256"
          },
          {
            "astId": 18245,
            "contract": "contracts/radiant/staking/MultiFeeDistribution.sol:MultiFeeDistribution",
            "label": "earned",
            "offset": 0,
            "slot": "4",
            "type": "t_uint256"
          }
        ],
        "numberOfBytes": "160"
      },
      "t_struct(LockedBalance)18217_storage": {
        "encoding": "inplace",
        "label": "struct LockedBalance",
        "members": [
          {
            "astId": 18210,
            "contract": "contracts/radiant/staking/MultiFeeDistribution.sol:MultiFeeDistribution",
            "label": "amount",
            "offset": 0,
            "slot": "0",
            "type": "t_uint256"
          },
          {
            "astId": 18212,
            "contract": "contracts/radiant/staking/MultiFeeDistribution.sol:MultiFeeDistribution",
            "label": "unlockTime",
            "offset": 0,
            "slot": "1",
            "type": "t_uint256"
          },
          {
            "astId": 18214,
            "contract": "contracts/radiant/staking/MultiFeeDistribution.sol:MultiFeeDistribution",
            "label": "multiplier",
            "offset": 0,
            "slot": "2",
            "type": "t_uint256"
          },
          {
            "astId": 18216,
            "contract": "contracts/radiant/staking/MultiFeeDistribution.sol:MultiFeeDistribution",
            "label": "duration",
            "offset": 0,
            "slot": "3",
            "type": "t_uint256"
          }
        ],
        "numberOfBytes": "128"
      },
      "t_struct(Reward)18235_storage": {
        "encoding": "inplace",
        "label": "struct Reward",
        "members": [
          {
            "astId": 18226,
            "contract": "contracts/radiant/staking/MultiFeeDistribution.sol:MultiFeeDistribution",
            "label": "periodFinish",
            "offset": 0,
            "slot": "0",
            "type": "t_uint256"
          },
          {
            "astId": 18228,
            "contract": "contracts/radiant/staking/MultiFeeDistribution.sol:MultiFeeDistribution",
            "label": "rewardPerSecond",
            "offset": 0,
            "slot": "1",
            "type": "t_uint256"
          },
          {
            "astId": 18230,
            "contract": "contracts/radiant/staking/MultiFeeDistribution.sol:MultiFeeDistribution",
            "label": "lastUpdateTime",
            "offset": 0,
            "slot": "2",
            "type": "t_uint256"
          },
          {
            "astId": 18232,
            "contract": "contracts/radiant/staking/MultiFeeDistribution.sol:MultiFeeDistribution",
            "label": "rewardPerTokenStored",
            "offset": 0,
            "slot": "3",
            "type": "t_uint256"
          },
          {
            "astId": 18234,
            "contract": "contracts/radiant/staking/MultiFeeDistribution.sol:MultiFeeDistribution",
            "label": "balance",
            "offset": 0,
            "slot": "4",
            "type": "t_uint256"
          }
        ],
        "numberOfBytes": "160"
      },
      "t_uint256": {
        "encoding": "inplace",
        "label": "uint256",
        "numberOfBytes": "32"
      },
      "t_uint8": {
        "encoding": "inplace",
        "label": "uint8",
        "numberOfBytes": "1"
      }
    }
  }
}