{
  "address": "0x42150AB2cf961bcFb5E3B94Be2773c6e11436145",
  "abi": [
    {
      "inputs": [],
      "name": "InsufficientPermission",
      "type": "error"
    },
    {
      "inputs": [],
      "name": "InvalidRatio",
      "type": "error"
    },
    {
      "inputs": [],
      "name": "NotMFD",
      "type": "error"
    },
    {
      "inputs": [],
      "name": "ZeroAddress",
      "type": "error"
    },
    {
      "anonymous": false,
      "inputs": [
        {
          "indexed": true,
          "internalType": "address",
          "name": "token",
          "type": "address"
        },
        {
          "indexed": false,
          "internalType": "uint256",
          "name": "amount",
          "type": "uint256"
        }
      ],
      "name": "ForwardReward",
      "type": "event"
    },
    {
      "anonymous": false,
      "inputs": [
        {
          "indexed": true,
          "internalType": "address",
          "name": "asset",
          "type": "address"
        },
        {
          "indexed": false,
          "internalType": "uint256",
          "name": "lpUsdValue",
          "type": "uint256"
        }
      ],
      "name": "NewTransferAdded",
      "type": "event"
    },
    {
      "anonymous": false,
      "inputs": [
        {
          "indexed": true,
          "internalType": "address",
          "name": "_operationExpenses",
          "type": "address"
        },
        {
          "indexed": false,
          "internalType": "uint256",
          "name": "_operationExpenseRatio",
          "type": "uint256"
        }
      ],
      "name": "OperationExpensesUpdated",
      "type": "event"
    },
    {
      "anonymous": false,
      "inputs": [
        {
          "indexed": true,
          "internalType": "address",
          "name": "previousOwner",
          "type": "address"
        },
        {
          "indexed": true,
          "internalType": "address",
          "name": "newOwner",
          "type": "address"
        }
      ],
      "name": "OwnershipTransferred",
      "type": "event"
    },
    {
      "anonymous": false,
      "inputs": [
        {
          "indexed": true,
          "internalType": "address",
          "name": "token",
          "type": "address"
        },
        {
          "indexed": false,
          "internalType": "uint256",
          "name": "amount",
          "type": "uint256"
        }
      ],
      "name": "Recovered",
      "type": "event"
    },
    {
      "inputs": [],
      "name": "DECIMALS",
      "outputs": [
        {
          "internalType": "uint8",
          "name": "",
          "type": "uint8"
        }
      ],
      "stateMutability": "view",
      "type": "function"
    },
    {
      "inputs": [],
      "name": "RATIO_DIVISOR",
      "outputs": [
        {
          "internalType": "uint256",
          "name": "",
          "type": "uint256"
        }
      ],
      "stateMutability": "view",
      "type": "function"
    },
    {
      "inputs": [
        {
          "internalType": "address",
          "name": "_rewardsToken",
          "type": "address"
        }
      ],
      "name": "addReward",
      "outputs": [],
      "stateMutability": "nonpayable",
      "type": "function"
    },
    {
      "inputs": [],
      "name": "admin",
      "outputs": [
        {
          "internalType": "address",
          "name": "",
          "type": "address"
        }
      ],
      "stateMutability": "view",
      "type": "function"
    },
    {
      "inputs": [
        {
          "internalType": "address[]",
          "name": "_rewardTokens",
          "type": "address[]"
        }
      ],
      "name": "forwardReward",
      "outputs": [],
      "stateMutability": "nonpayable",
      "type": "function"
    },
    {
      "inputs": [],
      "name": "getMultiFeeDistributionAddress",
      "outputs": [
        {
          "internalType": "address",
          "name": "",
          "type": "address"
        }
      ],
      "stateMutability": "view",
      "type": "function"
    },
    {
      "inputs": [],
      "name": "getRdntTokenAddress",
      "outputs": [
        {
          "internalType": "address",
          "name": "",
          "type": "address"
        }
      ],
      "stateMutability": "view",
      "type": "function"
    },
    {
      "inputs": [
        {
          "internalType": "address",
          "name": "_rdntToken",
          "type": "address"
        },
        {
          "internalType": "address",
          "name": "aaveOracle",
          "type": "address"
        },
        {
          "internalType": "contract IMultiFeeDistribution",
          "name": "_multiFeeDistribution",
          "type": "address"
        }
      ],
      "name": "initialize",
      "outputs": [],
      "stateMutability": "nonpayable",
      "type": "function"
    },
    {
      "inputs": [
        {
          "internalType": "address",
          "name": "",
          "type": "address"
        }
      ],
      "name": "isRewardToken",
      "outputs": [
        {
          "internalType": "bool",
          "name": "",
          "type": "bool"
        }
      ],
      "stateMutability": "view",
      "type": "function"
    },
    {
      "inputs": [],
      "name": "multiFeeDistribution",
      "outputs": [
        {
          "internalType": "contract IMultiFeeDistribution",
          "name": "",
          "type": "address"
        }
      ],
      "stateMutability": "view",
      "type": "function"
    },
    {
      "inputs": [],
      "name": "operationExpenseRatio",
      "outputs": [
        {
          "internalType": "uint256",
          "name": "",
          "type": "uint256"
        }
      ],
      "stateMutability": "view",
      "type": "function"
    },
    {
      "inputs": [],
      "name": "operationExpenses",
      "outputs": [
        {
          "internalType": "address",
          "name": "",
          "type": "address"
        }
      ],
      "stateMutability": "view",
      "type": "function"
    },
    {
      "inputs": [],
      "name": "owner",
      "outputs": [
        {
          "internalType": "address",
          "name": "",
          "type": "address"
        }
      ],
      "stateMutability": "view",
      "type": "function"
    },
    {
      "inputs": [],
      "name": "rdntToken",
      "outputs": [
        {
          "internalType": "contract IMintableToken",
          "name": "",
          "type": "address"
        }
      ],
      "stateMutability": "view",
      "type": "function"
    },
    {
      "inputs": [
        {
          "internalType": "address",
          "name": "tokenAddress",
          "type": "address"
        },
        {
          "internalType": "uint256",
          "name": "tokenAmount",
          "type": "uint256"
        }
      ],
      "name": "recoverERC20",
      "outputs": [],
      "stateMutability": "nonpayable",
      "type": "function"
    },
    {
      "inputs": [],
      "name": "renounceOwnership",
      "outputs": [],
      "stateMutability": "nonpayable",
      "type": "function"
    },
    {
      "inputs": [
        {
          "internalType": "address",
          "name": "_configurator",
          "type": "address"
        }
      ],
      "name": "setAdmin",
      "outputs": [],
      "stateMutability": "nonpayable",
      "type": "function"
    },
    {
      "inputs": [
        {
          "internalType": "address",
          "name": "_operationExpenses",
          "type": "address"
        },
        {
          "internalType": "uint256",
          "name": "_operationExpenseRatio",
          "type": "uint256"
        }
      ],
      "name": "setOperationExpenses",
      "outputs": [],
      "stateMutability": "nonpayable",
      "type": "function"
    },
    {
      "inputs": [
        {
          "internalType": "address",
          "name": "newOwner",
          "type": "address"
        }
      ],
      "name": "transferOwnership",
      "outputs": [],
      "stateMutability": "nonpayable",
      "type": "function"
    }
  ],
  "transactionHash": "0x48086c5fa246539d28b33204d4601614d80921af5dc489c12977c65cadeffaec",
  "args": [],
  "numDeployments": 1,
  "solcInputHash": "d20862d9a7051998216c9f1f22667b5c",
  "bytecode": "0x608060405234801561001057600080fd5b506117df806100206000396000f3fe608060405234801561001057600080fd5b50600436106101515760003560e01c806398f442bb116100cd578063c8d508b011610081578063dd36bd0e11610066578063dd36bd0e146102bf578063f2fde38b146102c8578063f851a440146102db57600080fd5b8063c8d508b01461029b578063cd57ed6c146102ae57600080fd5b8063ab453a59116100b2578063ab453a5914610244578063b5fd73f814610255578063c0c53b8b1461028857600080fd5b806398f442bb1461021e5780639c9b2e211461023157600080fd5b80636a7e9f3311610124578063715018a611610109578063715018a6146101f25780638980f11f146101fa5780638da5cb5b1461020d57600080fd5b80636a7e9f33146101c8578063704b6c02146101df57600080fd5b806308c51c65146101565780632e0f26251461016b5780634c6f71311461018a578063542b3cb8146101b5575b600080fd5b6101696101643660046113c4565b6102ee565b005b610173601281565b60405160ff90911681526020015b60405180910390f35b60975461019d906001600160a01b031681565b6040516001600160a01b039091168152602001610181565b60985461019d906001600160a01b031681565b6101d161271081565b604051908152602001610181565b6101696101ed366004611489565b6105b3565b610169610668565b6101696102083660046114ad565b6106ce565b6065546001600160a01b031661019d565b61016961022c3660046114ad565b610795565b61016961023f366004611489565b6108b2565b6097546001600160a01b031661019d565b610278610263366004611489565b609a6020526000908152604090205460ff1681565b6040519015158152602001610181565b6101696102963660046114d9565b6109bf565b609b5461019d906001600160a01b031681565b6098546001600160a01b031661019d565b6101d160995481565b6101696102d6366004611489565b610b39565b609c5461019d906001600160a01b031681565b6098546001600160a01b03163314610332576040517ff3320bfe00000000000000000000000000000000000000000000000000000000815260040160405180910390fd5b60005b81518110156105af57600082828151811061035257610352611524565b60209081029190910101516040516370a0823160e01b81523060048201526001600160a01b03909116906370a0823190602401602060405180830381865afa1580156103a2573d6000803e3d6000fd5b505050506040513d601f19601f820116820180604052508101906103c6919061153a565b609b549091506001600160a01b0316158015906103e4575060995415155b1561046957600061040c61271061040660995485610c1b90919063ffffffff16565b90610c30565b9050801561045b57609b54845161045b916001600160a01b031690839087908790811061043b5761043b611524565b60200260200101516001600160a01b0316610c3c9092919063ffffffff16565b6104658282610cc1565b9150505b82828151811061047b5761047b611524565b60209081029190910101516040516370a0823160e01b81523060048201526001600160a01b03909116906370a0823190602401602060405180830381865afa1580156104cb573d6000803e3d6000fd5b505050506040513d601f19601f820116820180604052508101906104ef919061153a565b905061051d609860009054906101000a90046001600160a01b03168285858151811061043b5761043b611524565b82828151811061052f5761052f611524565b60200260200101516001600160a01b03167faa179256a8b0e52834b8e6c37fdcb2b72806c4b473622a9e844aa66cbe1a19908260405161057191815260200190565b60405180910390a261059c83838151811061058e5761058e611524565b602002602001015182610ccd565b506105a8600182611569565b9050610335565b5050565b6065546001600160a01b031633146106125760405162461bcd60e51b815260206004820181905260248201527f4f776e61626c653a2063616c6c6572206973206e6f7420746865206f776e657260448201526064015b60405180910390fd5b6001600160a01b0381166106395760405163d92e233d60e01b815260040160405180910390fd5b609c805473ffffffffffffffffffffffffffffffffffffffff19166001600160a01b0392909216919091179055565b6065546001600160a01b031633146106c25760405162461bcd60e51b815260206004820181905260248201527f4f776e61626c653a2063616c6c6572206973206e6f7420746865206f776e65726044820152606401610609565b6106cc6000610fba565b565b6065546001600160a01b031633146107285760405162461bcd60e51b815260206004820181905260248201527f4f776e61626c653a2063616c6c6572206973206e6f7420746865206f776e65726044820152606401610609565b61074e61073d6065546001600160a01b031690565b6001600160a01b0384169083610c3c565b816001600160a01b03167f8c1256b8896378cd5044f80c202f9772b9d77dc85c8a6eb51967210b09bfaa288260405161078991815260200190565b60405180910390a25050565b6065546001600160a01b031633146107ef5760405162461bcd60e51b815260206004820181905260248201527f4f776e61626c653a2063616c6c6572206973206e6f7420746865206f776e65726044820152606401610609565b61271081111561082b576040517f648564d300000000000000000000000000000000000000000000000000000000815260040160405180910390fd5b6001600160a01b0382166108525760405163d92e233d60e01b815260040160405180910390fd5b609b805473ffffffffffffffffffffffffffffffffffffffff19166001600160a01b03841690811790915560998290556040518281527fba1e229a9495e21f509ea04bfdca8f222980ac1cb76333de06f6833f1e3f62d690602001610789565b609c546001600160a01b03163314806108d557506065546001600160a01b031633145b6109215760405162461bcd60e51b815260206004820181905260248201527f63616c6c6572206973206e6f74207468652061646d696e206f72206f776e65726044820152606401610609565b6098546040517f9c9b2e210000000000000000000000000000000000000000000000000000000081526001600160a01b03838116600483015290911690639c9b2e2190602401600060405180830381600087803b15801561098157600080fd5b505af1158015610995573d6000803e3d6000fd5b5050506001600160a01b039091166000908152609a60205260409020805460ff1916600117905550565b600054610100900460ff16806109d45750303b155b806109e2575060005460ff16155b610a545760405162461bcd60e51b815260206004820152602e60248201527f436f6e747261637420696e7374616e63652068617320616c726561647920626560448201527f656e20696e697469616c697a65640000000000000000000000000000000000006064820152608401610609565b600054610100900460ff16158015610a76576000805461ffff19166101011790555b6001600160a01b038416610a9d5760405163d92e233d60e01b815260040160405180910390fd5b6001600160a01b038316610ac45760405163d92e233d60e01b815260040160405180910390fd5b610acc611019565b609780546001600160a01b0380871673ffffffffffffffffffffffffffffffffffffffff1992831617909255609d80548684169083161790556098805492851692821692909217909155609c8054909116331790558015610b33576000805461ff00191690555b50505050565b6065546001600160a01b03163314610b935760405162461bcd60e51b815260206004820181905260248201527f4f776e61626c653a2063616c6c6572206973206e6f7420746865206f776e65726044820152606401610609565b6001600160a01b038116610c0f5760405162461bcd60e51b815260206004820152602660248201527f4f776e61626c653a206e6577206f776e657220697320746865207a65726f206160448201527f64647265737300000000000000000000000000000000000000000000000000006064820152608401610609565b610c1881610fba565b50565b6000610c278284611581565b90505b92915050565b6000610c2782846115a0565b604080516001600160a01b038416602482015260448082018490528251808303909101815260649091019091526020810180517bffffffffffffffffffffffffffffffffffffffffffffffffffffffff167fa9059cbb00000000000000000000000000000000000000000000000000000000179052610cbc90849061108c565b505050565b6000610c2782846115c2565b6097546001600160a01b038381169116146105af576000826001600160a01b031663b16a19de6040518163ffffffff1660e01b8152600401602060405180830381865afa158015610d22573d6000803e3d6000fd5b505050506040513d601f19601f82011682018060405250810190610d4691906115d9565b609d546040517fb3596f070000000000000000000000000000000000000000000000000000000081526001600160a01b0380841660048301529293506000929091169063b3596f0790602401602060405180830381865afa158015610daf573d6000803e3d6000fd5b505050506040513d601f19601f82011682018060405250810190610dd3919061153a565b609d546040517f92bf2be00000000000000000000000000000000000000000000000000000000081526001600160a01b038581166004830152929350600092909116906392bf2be090602401602060405180830381865afa158015610e3c573d6000803e3d6000fd5b505050506040513d601f19601f82011682018060405250810190610e6091906115d9565b90506000816001600160a01b031663313ce5676040518163ffffffff1660e01b8152600401602060405180830381865afa158015610ea2573d6000803e3d6000fd5b505050506040513d601f19601f82011682018060405250810190610ec691906115f6565b90506000866001600160a01b031663313ce5676040518163ffffffff1660e01b8152600401602060405180830381865afa158015610f08573d6000803e3d6000fd5b505050506040513d601f19601f82011682018060405250810190610f2c91906115f6565b90506000610f6b610f3e83600a6116fd565b610406610f4c86600a6116fd565b610406610f5b6012600a6116fd565b610f658b8e610c1b565b90610c1b565b9050876001600160a01b03167fc5e1cdb94ac0a9f4f65e1a23fd59354025cffdf472eb03020ac4ba0e92d9969f82604051610fa891815260200190565b60405180910390a25050505050505050565b606580546001600160a01b0383811673ffffffffffffffffffffffffffffffffffffffff19831681179093556040519116919082907f8be0079c531659141344cd1fd0a4f28419497f9722a3daafe3b4186f6b6457e090600090a35050565b600054610100900460ff166110845760405162461bcd60e51b815260206004820152602b60248201527f496e697469616c697a61626c653a20636f6e7472616374206973206e6f74206960448201526a6e697469616c697a696e6760a81b6064820152608401610609565b6106cc611171565b60006110e1826040518060400160405280602081526020017f5361666545524332303a206c6f772d6c6576656c2063616c6c206661696c6564815250856001600160a01b03166111e59092919063ffffffff16565b805190915015610cbc57808060200190518101906110ff919061170c565b610cbc5760405162461bcd60e51b815260206004820152602a60248201527f5361666545524332303a204552433230206f7065726174696f6e20646964206e60448201527f6f742073756363656564000000000000000000000000000000000000000000006064820152608401610609565b600054610100900460ff166111dc5760405162461bcd60e51b815260206004820152602b60248201527f496e697469616c697a61626c653a20636f6e7472616374206973206e6f74206960448201526a6e697469616c697a696e6760a81b6064820152608401610609565b6106cc33610fba565b60606111f484846000856111fc565b949350505050565b6060824710156112745760405162461bcd60e51b815260206004820152602660248201527f416464726573733a20696e73756666696369656e742062616c616e636520666f60448201527f722063616c6c00000000000000000000000000000000000000000000000000006064820152608401610609565b600080866001600160a01b03168587604051611290919061175a565b60006040518083038185875af1925050503d80600081146112cd576040519150601f19603f3d011682016040523d82523d6000602084013e6112d2565b606091505b50915091506112e3878383876112ee565b979650505050505050565b6060831561135a578251611353576001600160a01b0385163b6113535760405162461bcd60e51b815260206004820152601d60248201527f416464726573733a2063616c6c20746f206e6f6e2d636f6e74726163740000006044820152606401610609565b50816111f4565b6111f4838381511561136f5781518083602001fd5b8060405162461bcd60e51b81526004016106099190611776565b634e487b7160e01b600052604160045260246000fd5b6001600160a01b0381168114610c1857600080fd5b80356113bf8161139f565b919050565b600060208083850312156113d757600080fd5b823567ffffffffffffffff808211156113ef57600080fd5b818501915085601f83011261140357600080fd5b81358181111561141557611415611389565b8060051b604051601f19603f8301168101818110858211171561143a5761143a611389565b60405291825284820192508381018501918883111561145857600080fd5b938501935b8285101561147d5761146e856113b4565b8452938501939285019261145d565b98975050505050505050565b60006020828403121561149b57600080fd5b81356114a68161139f565b9392505050565b600080604083850312156114c057600080fd5b82356114cb8161139f565b946020939093013593505050565b6000806000606084860312156114ee57600080fd5b83356114f98161139f565b925060208401356115098161139f565b915060408401356115198161139f565b809150509250925092565b634e487b7160e01b600052603260045260246000fd5b60006020828403121561154c57600080fd5b5051919050565b634e487b7160e01b600052601160045260246000fd5b6000821982111561157c5761157c611553565b500190565b600081600019048311821515161561159b5761159b611553565b500290565b6000826115bd57634e487b7160e01b600052601260045260246000fd5b500490565b6000828210156115d4576115d4611553565b500390565b6000602082840312156115eb57600080fd5b81516114a68161139f565b60006020828403121561160857600080fd5b815160ff811681146114a657600080fd5b600181815b8085111561165457816000190482111561163a5761163a611553565b8085161561164757918102915b93841c939080029061161e565b509250929050565b60008261166b57506001610c2a565b8161167857506000610c2a565b816001811461168e5760028114611698576116b4565b6001915050610c2a565b60ff8411156116a9576116a9611553565b50506001821b610c2a565b5060208310610133831016604e8410600b84101617156116d7575081810a610c2a565b6116e18383611619565b80600019048211156116f5576116f5611553565b029392505050565b6000610c2760ff84168361165c565b60006020828403121561171e57600080fd5b815180151581146114a657600080fd5b60005b83811015611749578181015183820152602001611731565b83811115610b335750506000910152565b6000825161176c81846020870161172e565b9190910192915050565b602081526000825180602084015261179581604085016020870161172e565b601f01601f1916919091016040019291505056fea264697066735822122035a938f8fb088dfb27ea4aa560546cb533aba818bc673bf16384fc62615b33a364736f6c634300080c0033",
  "devdoc": {
    "author": "Radiant",
    "details": "All function calls are currently implemented without side effects",
    "kind": "dev",
    "methods": {
      "initialize(address,address,address)": {
        "params": {
          "_multiFeeDistribution": "Multi fee distribution contract",
          "_rdntToken": "RDNT address",
          "aaveOracle": "Aave oracle address"
        }
      }
    },
    "title": "Fee distributor inside",
    "version": 1
  },
  "userdoc": {
    "events": {
      "ForwardReward(address,uint256)": {
        "notice": "Emitted when reward token is forwarded"
      },
      "OperationExpensesUpdated(address,uint256)": {
        "notice": "Emitted when operation expenses is set"
      },
      "Recovered(address,uint256)": {
        "notice": "Emitted when ERC20 token is recovered"
      }
    },
    "kind": "user",
    "methods": {
      "addReward(address)": {
        "notice": "Add a new reward token to be distributed to stakers"
      },
      "admin()": {
        "notice": "Admin address"
      },
      "forwardReward(address[])": {
        "notice": "Added to support recovering LP Rewards from other systems such as BAL to be distributed to holders"
      },
      "getMultiFeeDistributionAddress()": {
        "notice": "Returns MFD address."
      },
      "getRdntTokenAddress()": {
        "notice": "Returns RDNT token address."
      },
      "initialize(address,address,address)": {
        "notice": "Initializer"
      },
      "multiFeeDistribution()": {
        "notice": "Fee distributor contract for earnings and RDNT lockings"
      },
      "operationExpenseRatio()": {
        "notice": "Reward ratio for operation expenses"
      },
      "operationExpenses()": {
        "notice": "Operation Expense account"
      },
      "rdntToken()": {
        "notice": "RDNT token"
      },
      "recoverERC20(address,uint256)": {
        "notice": "Added to support recovering LP Rewards from other systems such as BAL to be distributed to holders"
      },
      "setAdmin(address)": {
        "notice": "Sets pool configurator as admin."
      },
      "setOperationExpenses(address,uint256)": {
        "notice": "Set operation expenses account"
      }
    },
    "version": 1
  },
  "storageLayout": {
    "storage": [
      {
        "astId": 10936,
        "contract": "contracts/radiant/staking/MiddleFeeDistribution.sol:MiddleFeeDistribution",
        "label": "initialized",
        "offset": 0,
        "slot": "0",
        "type": "t_bool"
      },
      {
        "astId": 10939,
        "contract": "contracts/radiant/staking/MiddleFeeDistribution.sol:MiddleFeeDistribution",
        "label": "initializing",
        "offset": 1,
        "slot": "0",
        "type": "t_bool"
      },
      {
        "astId": 11006,
        "contract": "contracts/radiant/staking/MiddleFeeDistribution.sol:MiddleFeeDistribution",
        "label": "______gap",
        "offset": 0,
        "slot": "1",
        "type": "t_array(t_uint256)50_storage"
      },
      {
        "astId": 10929,
        "contract": "contracts/radiant/staking/MiddleFeeDistribution.sol:MiddleFeeDistribution",
        "label": "__gap",
        "offset": 0,
        "slot": "51",
        "type": "t_array(t_uint256)50_storage"
      },
      {
        "astId": 11151,
        "contract": "contracts/radiant/staking/MiddleFeeDistribution.sol:MiddleFeeDistribution",
        "label": "_owner",
        "offset": 0,
        "slot": "101",
        "type": "t_address"
      },
      {
        "astId": 11256,
        "contract": "contracts/radiant/staking/MiddleFeeDistribution.sol:MiddleFeeDistribution",
        "label": "__gap",
        "offset": 0,
        "slot": "102",
        "type": "t_array(t_uint256)49_storage"
      },
      {
        "astId": 45989,
        "contract": "contracts/radiant/staking/MiddleFeeDistribution.sol:MiddleFeeDistribution",
        "label": "rdntToken",
        "offset": 0,
        "slot": "151",
        "type": "t_contract(IMintableToken)17001"
      },
      {
        "astId": 45993,
        "contract": "contracts/radiant/staking/MiddleFeeDistribution.sol:MiddleFeeDistribution",
        "label": "multiFeeDistribution",
        "offset": 0,
        "slot": "152",
        "type": "t_contract(IMultiFeeDistribution)17156"
      },
      {
        "astId": 45997,
        "contract": "contracts/radiant/staking/MiddleFeeDistribution.sol:MiddleFeeDistribution",
        "label": "operationExpenseRatio",
        "offset": 0,
        "slot": "153",
        "type": "t_uint256"
      },
      {
        "astId": 46008,
        "contract": "contracts/radiant/staking/MiddleFeeDistribution.sol:MiddleFeeDistribution",
        "label": "isRewardToken",
        "offset": 0,
        "slot": "154",
        "type": "t_mapping(t_address,t_bool)"
      },
      {
        "astId": 46012,
        "contract": "contracts/radiant/staking/MiddleFeeDistribution.sol:MiddleFeeDistribution",
        "label": "operationExpenses",
        "offset": 0,
        "slot": "155",
        "type": "t_address"
      },
      {
        "astId": 46015,
        "contract": "contracts/radiant/staking/MiddleFeeDistribution.sol:MiddleFeeDistribution",
        "label": "admin",
        "offset": 0,
        "slot": "156",
        "type": "t_address"
      },
      {
        "astId": 46017,
        "contract": "contracts/radiant/staking/MiddleFeeDistribution.sol:MiddleFeeDistribution",
        "label": "_aaveOracle",
        "offset": 0,
        "slot": "157",
        "type": "t_address"
      }
    ],
    "types": {
      "t_address": {
        "encoding": "inplace",
        "label": "address",
        "numberOfBytes": "20"
      },
      "t_array(t_uint256)49_storage": {
        "base": "t_uint256",
        "encoding": "inplace",
        "label": "uint256[49]",
        "numberOfBytes": "1568"
      },
      "t_array(t_uint256)50_storage": {
        "base": "t_uint256",
        "encoding": "inplace",
        "label": "uint256[50]",
        "numberOfBytes": "1600"
      },
      "t_bool": {
        "encoding": "inplace",
        "label": "bool",
        "numberOfBytes": "1"
      },
      "t_contract(IMintableToken)17001": {
        "encoding": "inplace",
        "label": "contract IMintableToken",
        "numberOfBytes": "20"
      },
      "t_contract(IMultiFeeDistribution)17156": {
        "encoding": "inplace",
        "label": "contract IMultiFeeDistribution",
        "numberOfBytes": "20"
      },
      "t_mapping(t_address,t_bool)": {
        "encoding": "mapping",
        "key": "t_address",
        "label": "mapping(address => bool)",
        "numberOfBytes": "32",
        "value": "t_bool"
      },
      "t_uint256": {
        "encoding": "inplace",
        "label": "uint256",
        "numberOfBytes": "32"
      }
    }
  }
}