{
  "address": "0x2eF06350C8D64D4c499598d3b99AEaBC48E06D7C",
  "abi": [
    {
      "inputs": [],
      "name": "AddressZero",
      "type": "error"
    },
    {
      "inputs": [],
      "name": "InsufficientPermision",
      "type": "error"
    },
    {
      "anonymous": false,
      "inputs": [
        {
          "indexed": true,
          "internalType": "address",
          "name": "previousOwner",
          "type": "address"
        },
        {
          "indexed": true,
          "internalType": "address",
          "name": "newOwner",
          "type": "address"
        }
      ],
      "name": "OwnershipTransferred",
      "type": "event"
    },
    {
      "inputs": [],
      "name": "getLiquidityZap",
      "outputs": [
        {
          "internalType": "address",
          "name": "",
          "type": "address"
        }
      ],
      "stateMutability": "view",
      "type": "function"
    },
    {
      "inputs": [
        {
          "internalType": "uint256",
          "name": "rdntPriceInEth",
          "type": "uint256"
        }
      ],
      "name": "getLpPrice",
      "outputs": [
        {
          "internalType": "uint256",
          "name": "priceInEth",
          "type": "uint256"
        }
      ],
      "stateMutability": "view",
      "type": "function"
    },
    {
      "inputs": [],
      "name": "getPrice",
      "outputs": [
        {
          "internalType": "uint256",
          "name": "priceInEth",
          "type": "uint256"
        }
      ],
      "stateMutability": "view",
      "type": "function"
    },
    {
      "inputs": [],
      "name": "getReserves",
      "outputs": [
        {
          "internalType": "uint256",
          "name": "rdnt",
          "type": "uint256"
        },
        {
          "internalType": "uint256",
          "name": "weth",
          "type": "uint256"
        },
        {
          "internalType": "uint256",
          "name": "lpTokenSupply",
          "type": "uint256"
        }
      ],
      "stateMutability": "view",
      "type": "function"
    },
    {
      "inputs": [
        {
          "internalType": "address",
          "name": "_rdntAddr",
          "type": "address"
        },
        {
          "internalType": "address",
          "name": "_wethAddr",
          "type": "address"
        },
        {
          "internalType": "address",
          "name": "_routerAddr",
          "type": "address"
        },
        {
          "internalType": "contract ILiquidityZap",
          "name": "_liquidityZap",
          "type": "address"
        }
      ],
      "name": "initialize",
      "outputs": [],
      "stateMutability": "nonpayable",
      "type": "function"
    },
    {
      "inputs": [],
      "name": "initializePool",
      "outputs": [],
      "stateMutability": "nonpayable",
      "type": "function"
    },
    {
      "inputs": [],
      "name": "liquidityZap",
      "outputs": [
        {
          "internalType": "contract ILiquidityZap",
          "name": "",
          "type": "address"
        }
      ],
      "stateMutability": "view",
      "type": "function"
    },
    {
      "inputs": [],
      "name": "lockZap",
      "outputs": [
        {
          "internalType": "address",
          "name": "",
          "type": "address"
        }
      ],
      "stateMutability": "view",
      "type": "function"
    },
    {
      "inputs": [],
      "name": "lpTokenAddr",
      "outputs": [
        {
          "internalType": "address",
          "name": "",
          "type": "address"
        }
      ],
      "stateMutability": "view",
      "type": "function"
    },
    {
      "inputs": [],
      "name": "owner",
      "outputs": [
        {
          "internalType": "address",
          "name": "",
          "type": "address"
        }
      ],
      "stateMutability": "view",
      "type": "function"
    },
    {
      "inputs": [
        {
          "internalType": "uint256",
          "name": "tokenAmount",
          "type": "uint256"
        }
      ],
      "name": "quoteFromToken",
      "outputs": [
        {
          "internalType": "uint256",
          "name": "optimalWETHAmount",
          "type": "uint256"
        }
      ],
      "stateMutability": "view",
      "type": "function"
    },
    {
      "inputs": [],
      "name": "rdntAddr",
      "outputs": [
        {
          "internalType": "address",
          "name": "",
          "type": "address"
        }
      ],
      "stateMutability": "view",
      "type": "function"
    },
    {
      "inputs": [],
      "name": "renounceOwnership",
      "outputs": [],
      "stateMutability": "nonpayable",
      "type": "function"
    },
    {
      "inputs": [],
      "name": "router",
      "outputs": [
        {
          "internalType": "contract IUniswapV2Router02",
          "name": "",
          "type": "address"
        }
      ],
      "stateMutability": "view",
      "type": "function"
    },
    {
      "inputs": [
        {
          "internalType": "uint256",
          "name": "_amount",
          "type": "uint256"
        }
      ],
      "name": "sell",
      "outputs": [
        {
          "internalType": "uint256",
          "name": "amountOut",
          "type": "uint256"
        }
      ],
      "stateMutability": "nonpayable",
      "type": "function"
    },
    {
      "inputs": [
        {
          "internalType": "address",
          "name": "_liquidityZap",
          "type": "address"
        }
      ],
      "name": "setLiquidityZap",
      "outputs": [],
      "stateMutability": "nonpayable",
      "type": "function"
    },
    {
      "inputs": [
        {
          "internalType": "address",
          "name": "_lockZap",
          "type": "address"
        }
      ],
      "name": "setLockZap",
      "outputs": [],
      "stateMutability": "nonpayable",
      "type": "function"
    },
    {
      "inputs": [
        {
          "internalType": "uint256",
          "name": "_amount",
          "type": "uint256"
        },
        {
          "internalType": "address",
          "name": "",
          "type": "address"
        },
        {
          "internalType": "address",
          "name": "",
          "type": "address"
        },
        {
          "internalType": "address",
          "name": "",
          "type": "address"
        }
      ],
      "name": "swap",
      "outputs": [
        {
          "internalType": "uint256",
          "name": "amountOut",
          "type": "uint256"
        }
      ],
      "stateMutability": "nonpayable",
      "type": "function"
    },
    {
      "inputs": [
        {
          "internalType": "address",
          "name": "_inToken",
          "type": "address"
        },
        {
          "internalType": "uint256",
          "name": "_amount",
          "type": "uint256"
        },
        {
          "internalType": "uint256",
          "name": "_minAmountOut",
          "type": "uint256"
        }
      ],
      "name": "swapToWeth",
      "outputs": [],
      "stateMutability": "nonpayable",
      "type": "function"
    },
    {
      "inputs": [
        {
          "internalType": "address",
          "name": "newOwner",
          "type": "address"
        }
      ],
      "name": "transferOwnership",
      "outputs": [],
      "stateMutability": "nonpayable",
      "type": "function"
    },
    {
      "inputs": [],
      "name": "wethAddr",
      "outputs": [
        {
          "internalType": "address",
          "name": "",
          "type": "address"
        }
      ],
      "stateMutability": "view",
      "type": "function"
    },
    {
      "inputs": [
        {
          "internalType": "uint256",
          "name": "_wethAmt",
          "type": "uint256"
        },
        {
          "internalType": "uint256",
          "name": "_rdntAmt",
          "type": "uint256"
        }
      ],
      "name": "zapTokens",
      "outputs": [
        {
          "internalType": "uint256",
          "name": "liquidity",
          "type": "uint256"
        }
      ],
      "stateMutability": "nonpayable",
      "type": "function"
    },
    {
      "inputs": [
        {
          "internalType": "uint256",
          "name": "amount",
          "type": "uint256"
        }
      ],
      "name": "zapWETH",
      "outputs": [
        {
          "internalType": "uint256",
          "name": "liquidity",
          "type": "uint256"
        }
      ],
      "stateMutability": "nonpayable",
      "type": "function"
    },
    {
      "stateMutability": "payable",
      "type": "receive"
    }
  ],
  "transactionHash": "0x582580ea8a6397efdb29d805a5f384d7f1399d76169e7b66263b2935344d15da",
  "args": [],
  "numDeployments": 1,
  "solcInputHash": "d20862d9a7051998216c9f1f22667b5c",
  "bytecode": "0x608060405234801561001057600080fd5b50612b55806100206000396000f3fe6080604052600436106101845760003560e01c80638da5cb5b116100d6578063e28861fa1161007f578063f887ea4011610059578063f887ea4014610428578063f8c8765e14610448578063fd7060621461046857600080fd5b8063e28861fa146103c8578063e4849b32146103e8578063f2fde38b1461040857600080fd5b80639da2401f116100b05780639da2401f1461036a578063c829bfda14610388578063d6e4845c146103a857600080fd5b80638da5cb5b14610317578063914237da1461033557806398d5fdca1461035557600080fd5b8063439e501611610138578063753983d611610112578063753983d6146102a95780637d5aa5f4146102d757806388156e65146102f757600080fd5b8063439e5016146102545780636fb2a1bf14610274578063715018a61461029457600080fd5b80631e2ebcaa116101695780631e2ebcaa146101fd57806322e2c6461461021d578063250e6de01461023f57600080fd5b806306346c30146101905780630902f1ac146101cd57600080fd5b3661018b57005b600080fd5b34801561019c57600080fd5b50609c546101b0906001600160a01b031681565b6040516001600160a01b0390911681526020015b60405180910390f35b3480156101d957600080fd5b506101e2610488565b604080519384526020840192909252908201526060016101c4565b34801561020957600080fd5b50609b546101b0906001600160a01b031681565b34801561022957600080fd5b5061023d6102383660046126d0565b6106cf565b005b34801561024b57600080fd5b5061023d610777565b34801561026057600080fd5b506097546101b0906001600160a01b031681565b34801561028057600080fd5b5061023d61028f3660046126d0565b610c83565b3480156102a057600080fd5b5061023d610d26565b3480156102b557600080fd5b506102c96102c43660046126ed565b610d8c565b6040519081526020016101c4565b3480156102e357600080fd5b506099546101b0906001600160a01b031681565b34801561030357600080fd5b506102c961031236600461270f565b610f8f565b34801561032357600080fd5b506065546001600160a01b03166101b0565b34801561034157600080fd5b506098546101b0906001600160a01b031681565b34801561036157600080fd5b506102c96111ff565b34801561037657600080fd5b50609b546001600160a01b03166101b0565b34801561039457600080fd5b506102c96103a3366004612762565b611238565b3480156103b457600080fd5b5061023d6103c336600461277b565b61141f565b3480156103d457600080fd5b506102c96103e3366004612762565b61154c565b3480156103f457600080fd5b506102c9610403366004612762565b61182e565b34801561041457600080fd5b5061023d6104233660046126d0565b611844565b34801561043457600080fd5b50609a546101b0906001600160a01b031681565b34801561045457600080fd5b5061023d6104633660046127b0565b611926565b34801561047457600080fd5b506102c9610483366004612762565b611a47565b600080600080609760009054906101000a90046001600160a01b03169050600080826001600160a01b0316630902f1ac6040518163ffffffff1660e01b8152600401606060405180830381865afa1580156104e7573d6000803e3d6000fd5b505050506040513d601f19601f8201168201806040525081019061050b9190612804565b506dffffffffffffffffffffffffffff1691506dffffffffffffffffffffffffffff169150609860009054906101000a90046001600160a01b03166001600160a01b0316836001600160a01b0316630dfe16816040518163ffffffff1660e01b8152600401602060405180830381865afa15801561058d573d6000803e3d6000fd5b505050506040513d601f19601f820116820180604052508101906105b19190612854565b6001600160a01b031614156105c657806105c8565b815b9450609860009054906101000a90046001600160a01b03166001600160a01b0316836001600160a01b0316630dfe16816040518163ffffffff1660e01b8152600401602060405180830381865afa158015610627573d6000803e3d6000fd5b505050506040513d601f19601f8201168201806040525081019061064b9190612854565b6001600160a01b03161461065f5780610661565b815b9550826001600160a01b03166318160ddd6040518163ffffffff1660e01b8152600401602060405180830381865afa1580156106a1573d6000803e3d6000fd5b505050506040513d601f19601f820116820180604052508101906106c59190612871565b9350505050909192565b6065546001600160a01b0316331461072e5760405162461bcd60e51b815260206004820181905260248201527f4f776e61626c653a2063616c6c6572206973206e6f7420746865206f776e657260448201526064015b60405180910390fd5b6001600160a01b03811661075557604051639fabe1c160e01b815260040160405180910390fd5b609b80546001600160a01b0319166001600160a01b0392909216919091179055565b609a60009054906101000a90046001600160a01b03166001600160a01b031663c45a01556040518163ffffffff1660e01b8152600401602060405180830381865afa1580156107ca573d6000803e3d6000fd5b505050506040513d601f19601f820116820180604052508101906107ee9190612854565b6098546099546040517fc9c653960000000000000000000000000000000000000000000000000000000081526001600160a01b039283166004820152908216602482015291169063c9c65396906044016020604051808303816000875af115801561085d573d6000803e3d6000fd5b505050506040513d601f19601f820116820180604052508101906108819190612854565b609780546001600160a01b0319166001600160a01b03928316179055609854609a54908216916108b691839116600019611ace565b609b546108d2906001600160a01b038381169116600019611ace565b609954609b5460405163095ea7b360e01b81526001600160a01b039182166004820152600019602482015291169063095ea7b3906044016020604051808303816000875af1158015610928573d6000803e3d6000fd5b505050506040513d601f19601f8201168201806040525081019061094c919061288a565b50609954609a5460405163095ea7b360e01b81526001600160a01b039182166004820152600019602482015291169063095ea7b3906044016020604051808303816000875af11580156109a3573d6000803e3d6000fd5b505050506040513d601f19601f820116820180604052508101906109c7919061288a565b50609a546099546040516370a0823160e01b81523060048201526001600160a01b039283169263e8e33700928592908216918316906370a0823190602401602060405180830381865afa158015610a22573d6000803e3d6000fd5b505050506040513d601f19601f82011682018060405250810190610a469190612871565b6099546040516370a0823160e01b81523060048201526001600160a01b03909116906370a0823190602401602060405180830381865afa158015610a8e573d6000803e3d6000fd5b505050506040513d601f19601f82011682018060405250810190610ab29190612871565b6040517fffffffff0000000000000000000000000000000000000000000000000000000060e087901b1681526001600160a01b0394851660048201529390921660248401526044830152606482015260006084820181905260a48201523060c48201524260e4820152610104016060604051808303816000875af1158015610b3e573d6000803e3d6000fd5b505050506040513d601f19601f82011682018060405250810190610b6291906128ac565b50506097546040516370a0823160e01b81523060048201526001600160a01b039091169150610bea90339083906370a0823190602401602060405180830381865afa158015610bb5573d6000803e3d6000fd5b505050506040513d601f19601f82011682018060405250810190610bd99190612871565b6001600160a01b0384169190611c4f565b609b546098546099546097546040517f370c38610000000000000000000000000000000000000000000000000000000081526001600160a01b03938416600482015291831660248301528216604482015230606482015291169063370c386190608401600060405180830381600087803b158015610c6757600080fd5b505af1158015610c7b573d6000803e3d6000fd5b505050505050565b6065546001600160a01b03163314610cdd5760405162461bcd60e51b815260206004820181905260248201527f4f776e61626c653a2063616c6c6572206973206e6f7420746865206f776e65726044820152606401610725565b6001600160a01b038116610d0457604051639fabe1c160e01b815260040160405180910390fd5b609c80546001600160a01b0319166001600160a01b0392909216919091179055565b6065546001600160a01b03163314610d805760405162461bcd60e51b815260206004820181905260248201527f4f776e61626c653a2063616c6c6572206973206e6f7420746865206f776e65726044820152606401610725565b610d8a6000611c7f565b565b609c546000906001600160a01b03163314610dba57604051632b8fa89960e01b815260040160405180910390fd5b6099546040516323b872dd60e01b8152336004820152306024820152604481018590526001600160a01b039091169081906323b872dd906064016020604051808303816000875af1158015610e13573d6000803e3d6000fd5b505050506040513d601f19601f82011682018060405250810190610e37919061288a565b50609854610e50906001600160a01b0316333086611cd1565b609b546040517f7c6ba9c100000000000000000000000000000000000000000000000000000000815260048101859052602481018690523060448201526001600160a01b0390911690637c6ba9c1906064016020604051808303816000875af1158015610ec1573d6000803e3d6000fd5b505050506040513d601f19601f82011682018060405250810190610ee59190612871565b6097546040516370a0823160e01b81523060048201529193506001600160a01b03169081906370a0823190602401602060405180830381865afa158015610f30573d6000803e3d6000fd5b505050506040513d601f19601f82011682018060405250810190610f549190612871565b9250610f6a6001600160a01b0382163385611c4f565b609854609954610f87916001600160a01b03908116911633611d0f565b505092915050565b60975460408051630240bc6b60e21b815290516000926001600160a01b031691839182918491630902f1ac916004808201926060929091908290030181865afa158015610fe0573d6000803e3d6000fd5b505050506040513d601f19601f820116820180604052508101906110049190612804565b506099546098546dffffffffffffffffffffffffffff93841695509190921692506000918291611040916001600160a01b039081169116611e8d565b60995491935091506000906001600160a01b038085169116146110635783611065565b845b6099549091506000906001600160a01b038581169116146110865785611088565b845b905060006110978d8385611f9d565b6097546098549192506110b7916001600160a01b0390811691168f611c4f565b6097546099546001600160a01b039182169163022c0d9f918116908816146110e05760006110e2565b825b6099546001600160a01b038881169116146110fe576000611100565b835b6040517fffffffff0000000000000000000000000000000000000000000000000000000060e085901b16815260048101929092526024820152306044820152608060648201526000608482015260a401600060405180830381600087803b15801561116a57600080fd5b505af115801561117e573d6000803e3d6000fd5b50506099546040516370a0823160e01b81523060048201526001600160a01b0390911692506370a082319150602401602060405180830381865afa1580156111ca573d6000803e3d6000fd5b505050506040513d601f19601f820116820180604052508101906111ee9190612871565b9d9c50505050505050505050505050565b600080600061120c610488565b5090925090508115611233576112308261122a836305f5e1006120e4565b906120f7565b92505b505090565b609c546000906001600160a01b0316331461126657604051632b8fa89960e01b815260040160405180910390fd5b609954609b546040516323b872dd60e01b81523360048201526001600160a01b0391821660248201526044810185905291169081906323b872dd906064016020604051808303816000875af11580156112c3573d6000803e3d6000fd5b505050506040513d601f19601f820116820180604052508101906112e7919061288a565b50609b546040517fedabc8f6000000000000000000000000000000000000000000000000000000008152600481018590523060248201526001600160a01b039091169063edabc8f6906044016020604051808303816000875af1158015611352573d6000803e3d6000fd5b505050506040513d601f19601f820116820180604052508101906113769190612871565b6097546040516370a0823160e01b81523060048201529193506001600160a01b03169081906370a0823190602401602060405180830381865afa1580156113c1573d6000803e3d6000fd5b505050506040513d601f19601f820116820180604052508101906113e59190612871565b92506113fb6001600160a01b0382163385611c4f565b609854609954611418916001600160a01b03908116911633611d0f565b5050919050565b6040805160028082526060820183526000926020830190803683370190505090508381600081518110611454576114546128f0565b6001600160a01b039283166020918202929092010152609954825191169082906001908110611485576114856128f0565b6001600160a01b039283166020918202929092010152609a546114ad91868116911685612103565b609a546040517f38ed17390000000000000000000000000000000000000000000000000000000081526001600160a01b03909116906338ed1739906114fe9086908690869033904290600401612906565b6000604051808303816000875af115801561151d573d6000803e3d6000fd5b505050506040513d6000823e601f3d908101601f191682016040526115459190810190612977565b5050505050565b60975460408051630240bc6b60e21b815290516000926001600160a01b031691839182918491630902f1ac916004808201926060929091908290030181865afa15801561159d573d6000803e3d6000fd5b505050506040513d601f19601f820116820180604052508101906115c19190612804565b506dffffffffffffffffffffffffffff1691506dffffffffffffffffffffffffffff1691506000609860009054906101000a90046001600160a01b03166001600160a01b0316846001600160a01b0316630dfe16816040518163ffffffff1660e01b8152600401602060405180830381865afa158015611645573d6000803e3d6000fd5b505050506040513d601f19601f820116820180604052508101906116699190612854565b6001600160a01b0316141561167e5781611680565b825b90506000609860009054906101000a90046001600160a01b03166001600160a01b0316856001600160a01b0316630dfe16816040518163ffffffff1660e01b8152600401602060405180830381865afa1580156116e1573d6000803e3d6000fd5b505050506040513d601f19601f820116820180604052508101906117059190612854565b6001600160a01b031614611719578261171b565b835b90506000856001600160a01b03166318160ddd6040518163ffffffff1660e01b8152600401602060405180830381865afa15801561175d573d6000803e3d6000fd5b505050506040513d601f19601f820116820180604052508101906117819190612871565b905060006117a18261179b61179686886120e4565b6121b5565b90612340565b905060006117b38a600160701b6120e4565b905060006117c96305f5e100600160701b6120e4565b9050600061180e67010000000000000061122a6117e5856121b5565b61180867010000000000000061122a6117fd8a6121b5565b6118088c60026120e4565b906120e4565b905061181e81600160701b6120f7565b9c9b505050505050505050505050565b600061183e826000806000610f8f565b92915050565b6065546001600160a01b0316331461189e5760405162461bcd60e51b815260206004820181905260248201527f4f776e61626c653a2063616c6c6572206973206e6f7420746865206f776e65726044820152606401610725565b6001600160a01b03811661191a5760405162461bcd60e51b815260206004820152602660248201527f4f776e61626c653a206e6577206f776e657220697320746865207a65726f206160448201527f64647265737300000000000000000000000000000000000000000000000000006064820152608401610725565b61192381611c7f565b50565b600054610100900460ff168061193b5750303b155b80611949575060005460ff16155b6119bb5760405162461bcd60e51b815260206004820152602e60248201527f436f6e747261637420696e7374616e63652068617320616c726561647920626560448201527f656e20696e697469616c697a65640000000000000000000000000000000000006064820152608401610725565b600054610100900460ff161580156119dd576000805461ffff19166101011790555b6119e561235b565b609880546001600160a01b038088166001600160a01b03199283161790925560998054878416908316179055609a8054868416908316179055609b8054928516929091169190911790558015611545576000805461ff00191690555050505050565b609b546040517ffd706062000000000000000000000000000000000000000000000000000000008152600481018390526000916001600160a01b03169063fd70606290602401602060405180830381865afa158015611aaa573d6000803e3d6000fd5b505050506040513d601f19601f8201168201806040525081019061183e9190612871565b801580611b485750604051636eb1769f60e11b81523060048201526001600160a01b03838116602483015284169063dd62ed3e90604401602060405180830381865afa158015611b22573d6000803e3d6000fd5b505050506040513d601f19601f82011682018060405250810190611b469190612871565b155b611bba5760405162461bcd60e51b815260206004820152603660248201527f5361666545524332303a20617070726f76652066726f6d206e6f6e2d7a65726f60448201527f20746f206e6f6e2d7a65726f20616c6c6f77616e6365000000000000000000006064820152608401610725565b6040516001600160a01b038316602482015260448101829052611c4a90849063095ea7b360e01b906064015b60408051601f198184030181529190526020810180517bffffffffffffffffffffffffffffffffffffffffffffffffffffffff167fffffffff00000000000000000000000000000000000000000000000000000000909316929092179091526123ce565b505050565b6040516001600160a01b038316602482015260448101829052611c4a90849063a9059cbb60e01b90606401611be6565b606580546001600160a01b038381166001600160a01b0319831681179093556040519116919082907f8be0079c531659141344cd1fd0a4f28419497f9722a3daafe3b4186f6b6457e090600090a35050565b6040516001600160a01b0380851660248301528316604482015260648101829052611d099085906323b872dd60e01b90608401611be6565b50505050565b6040516370a0823160e01b8152306004820152839083906000906001600160a01b038316906370a08231906024016020604051808303816000875af1158015611d5c573d6000803e3d6000fd5b505050506040513d601f19601f82011682018060405250810190611d809190612871565b90508015611dfd5760405163a9059cbb60e01b81526001600160a01b0385811660048301526024820183905283169063a9059cbb906044016020604051808303816000875af1158015611dd7573d6000803e3d6000fd5b505050506040513d601f19601f82011682018060405250810190611dfb919061288a565b505b6040516370a0823160e01b81523060048201526000906001600160a01b038516906370a0823190602401602060405180830381865afa158015611e44573d6000803e3d6000fd5b505050506040513d601f19601f82011682018060405250810190611e689190612871565b90508015611e8457611e846001600160a01b0385168683611c4f565b50505050505050565b600080826001600160a01b0316846001600160a01b03161415611f185760405162461bcd60e51b815260206004820152602560248201527f556e697377617056324c6962726172793a204944454e544943414c5f4144445260448201527f45535345530000000000000000000000000000000000000000000000000000006064820152608401610725565b826001600160a01b0316846001600160a01b031610611f38578284611f3b565b83835b90925090506001600160a01b038216611f965760405162461bcd60e51b815260206004820152601e60248201527f556e697377617056324c6962726172793a205a45524f5f4144445245535300006044820152606401610725565b9250929050565b60008084116120145760405162461bcd60e51b815260206004820152602b60248201527f556e697377617056324c6962726172793a20494e53554646494349454e545f4960448201527f4e5055545f414d4f554e540000000000000000000000000000000000000000006064820152608401610725565b6000831180156120245750600082115b6120965760405162461bcd60e51b815260206004820152602860248201527f556e697377617056324c6962726172793a20494e53554646494349454e545f4c60448201527f49515549444954590000000000000000000000000000000000000000000000006064820152608401610725565b60006120a4856103e5612a4b565b905060006120b28483612a4b565b90506000826120c3876103e8612a4b565b6120cd9190612a6a565b90506120d98183612a82565b979650505050505050565b60006120f08284612a4b565b9392505050565b60006120f08284612a82565b604051636eb1769f60e11b81523060048201526001600160a01b038381166024830152600091839186169063dd62ed3e90604401602060405180830381865afa158015612154573d6000803e3d6000fd5b505050506040513d601f19601f820116820180604052508101906121789190612871565b6121829190612a6a565b6040516001600160a01b038516602482015260448101829052909150611d0990859063095ea7b360e01b90606401611be6565b6000816121c457506000919050565b81600170010000000000000000000000000000000082106121ea5760809190911c9060401b5b6801000000000000000082106122055760409190911c9060201b5b640100000000821061221c5760209190911c9060101b5b6201000082106122315760109190911c9060081b5b61010082106122455760089190911c9060041b5b601082106122585760049190911c9060021b5b600882106122645760011b5b60016122708286612a82565b61227a9083612a6a565b901c9050600161228a8286612a82565b6122949083612a6a565b901c905060016122a48286612a82565b6122ae9083612a6a565b901c905060016122be8286612a82565b6122c89083612a6a565b901c905060016122d88286612a82565b6122e29083612a6a565b901c905060016122f28286612a82565b6122fc9083612a6a565b901c9050600161230c8286612a82565b6123169083612a6a565b901c905060006123268286612a82565b90508082106123355780612337565b815b95945050505050565b60008161235184600160701b6120e4565b6120f09190612a82565b600054610100900460ff166123c65760405162461bcd60e51b815260206004820152602b60248201527f496e697469616c697a61626c653a20636f6e7472616374206973206e6f74206960448201526a6e697469616c697a696e6760a81b6064820152608401610725565b610d8a6124b3565b6000612423826040518060400160405280602081526020017f5361666545524332303a206c6f772d6c6576656c2063616c6c206661696c6564815250856001600160a01b03166125279092919063ffffffff16565b805190915015611c4a5780806020019051810190612441919061288a565b611c4a5760405162461bcd60e51b815260206004820152602a60248201527f5361666545524332303a204552433230206f7065726174696f6e20646964206e60448201527f6f742073756363656564000000000000000000000000000000000000000000006064820152608401610725565b600054610100900460ff1661251e5760405162461bcd60e51b815260206004820152602b60248201527f496e697469616c697a61626c653a20636f6e7472616374206973206e6f74206960448201526a6e697469616c697a696e6760a81b6064820152608401610725565b610d8a33611c7f565b6060612536848460008561253e565b949350505050565b6060824710156125b65760405162461bcd60e51b815260206004820152602660248201527f416464726573733a20696e73756666696369656e742062616c616e636520666f60448201527f722063616c6c00000000000000000000000000000000000000000000000000006064820152608401610725565b600080866001600160a01b031685876040516125d29190612ad0565b60006040518083038185875af1925050503d806000811461260f576040519150601f19603f3d011682016040523d82523d6000602084013e612614565b606091505b50915091506120d9878383876060831561268c578251612685576001600160a01b0385163b6126855760405162461bcd60e51b815260206004820152601d60248201527f416464726573733a2063616c6c20746f206e6f6e2d636f6e74726163740000006044820152606401610725565b5081612536565b61253683838151156126a15781518083602001fd5b8060405162461bcd60e51b81526004016107259190612aec565b6001600160a01b038116811461192357600080fd5b6000602082840312156126e257600080fd5b81356120f0816126bb565b6000806040838503121561270057600080fd5b50508035926020909101359150565b6000806000806080858703121561272557600080fd5b843593506020850135612737816126bb565b92506040850135612747816126bb565b91506060850135612757816126bb565b939692955090935050565b60006020828403121561277457600080fd5b5035919050565b60008060006060848603121561279057600080fd5b833561279b816126bb565b95602085013595506040909401359392505050565b600080600080608085870312156127c657600080fd5b84356127d1816126bb565b93506020850135612737816126bb565b80516dffffffffffffffffffffffffffff811681146127ff57600080fd5b919050565b60008060006060848603121561281957600080fd5b612822846127e1565b9250612830602085016127e1565b9150604084015163ffffffff8116811461284957600080fd5b809150509250925092565b60006020828403121561286657600080fd5b81516120f0816126bb565b60006020828403121561288357600080fd5b5051919050565b60006020828403121561289c57600080fd5b815180151581146120f057600080fd5b6000806000606084860312156128c157600080fd5b8351925060208401519150604084015190509250925092565b634e487b7160e01b600052604160045260246000fd5b634e487b7160e01b600052603260045260246000fd5b600060a082018783526020878185015260a0604085015281875180845260c086019150828901935060005b818110156129565784516001600160a01b031683529383019391830191600101612931565b50506001600160a01b03969096166060850152505050608001529392505050565b6000602080838503121561298a57600080fd5b825167ffffffffffffffff808211156129a257600080fd5b818501915085601f8301126129b657600080fd5b8151818111156129c8576129c86128da565b8060051b604051601f19603f830116810181811085821117156129ed576129ed6128da565b604052918252848201925083810185019188831115612a0b57600080fd5b938501935b82851015612a2957845184529385019392850192612a10565b98975050505050505050565b634e487b7160e01b600052601160045260246000fd5b6000816000190483118215151615612a6557612a65612a35565b500290565b60008219821115612a7d57612a7d612a35565b500190565b600082612a9f57634e487b7160e01b600052601260045260246000fd5b500490565b60005b83811015612abf578181015183820152602001612aa7565b83811115611d095750506000910152565b60008251612ae2818460208701612aa4565b9190910192915050565b6020815260008251806020840152612b0b816040850160208701612aa4565b601f01601f1916919091016040019291505056fea2646970667358221220aa0205ac8a714c3abdfaa5a0272e2fcc01c6e688d1d6bb21bfd8d32aa677979b64736f6c634300080c0033",
  "devdoc": {
    "kind": "dev",
    "methods": {
      "swapToWeth(address,uint256,uint256)": {
        "details": "Helper function to swap a token to weth given an {_inToken} and swap {_amount}. Will revert if the output is under the {_minAmountOut}"
      }
    },
    "version": 1
  },
  "userdoc": {
    "kind": "user",
    "methods": {},
    "version": 1
  },
  "storageLayout": {
    "storage": [
      {
        "astId": 10936,
        "contract": "contracts/test/TestUniswapPoolHelper.sol:TestUniswapPoolHelper",
        "label": "initialized",
        "offset": 0,
        "slot": "0",
        "type": "t_bool"
      },
      {
        "astId": 10939,
        "contract": "contracts/test/TestUniswapPoolHelper.sol:TestUniswapPoolHelper",
        "label": "initializing",
        "offset": 1,
        "slot": "0",
        "type": "t_bool"
      },
      {
        "astId": 11006,
        "contract": "contracts/test/TestUniswapPoolHelper.sol:TestUniswapPoolHelper",
        "label": "______gap",
        "offset": 0,
        "slot": "1",
        "type": "t_array(t_uint256)50_storage"
      },
      {
        "astId": 10929,
        "contract": "contracts/test/TestUniswapPoolHelper.sol:TestUniswapPoolHelper",
        "label": "__gap",
        "offset": 0,
        "slot": "51",
        "type": "t_array(t_uint256)50_storage"
      },
      {
        "astId": 11151,
        "contract": "contracts/test/TestUniswapPoolHelper.sol:TestUniswapPoolHelper",
        "label": "_owner",
        "offset": 0,
        "slot": "101",
        "type": "t_address"
      },
      {
        "astId": 11256,
        "contract": "contracts/test/TestUniswapPoolHelper.sol:TestUniswapPoolHelper",
        "label": "__gap",
        "offset": 0,
        "slot": "102",
        "type": "t_array(t_uint256)49_storage"
      },
      {
        "astId": 54732,
        "contract": "contracts/test/TestUniswapPoolHelper.sol:TestUniswapPoolHelper",
        "label": "lpTokenAddr",
        "offset": 0,
        "slot": "151",
        "type": "t_address"
      },
      {
        "astId": 54734,
        "contract": "contracts/test/TestUniswapPoolHelper.sol:TestUniswapPoolHelper",
        "label": "rdntAddr",
        "offset": 0,
        "slot": "152",
        "type": "t_address"
      },
      {
        "astId": 54736,
        "contract": "contracts/test/TestUniswapPoolHelper.sol:TestUniswapPoolHelper",
        "label": "wethAddr",
        "offset": 0,
        "slot": "153",
        "type": "t_address"
      },
      {
        "astId": 54739,
        "contract": "contracts/test/TestUniswapPoolHelper.sol:TestUniswapPoolHelper",
        "label": "router",
        "offset": 0,
        "slot": "154",
        "type": "t_contract(IUniswapV2Router02)19492"
      },
      {
        "astId": 54742,
        "contract": "contracts/test/TestUniswapPoolHelper.sol:TestUniswapPoolHelper",
        "label": "liquidityZap",
        "offset": 0,
        "slot": "155",
        "type": "t_contract(ILiquidityZap)16872"
      },
      {
        "astId": 54744,
        "contract": "contracts/test/TestUniswapPoolHelper.sol:TestUniswapPoolHelper",
        "label": "lockZap",
        "offset": 0,
        "slot": "156",
        "type": "t_address"
      }
    ],
    "types": {
      "t_address": {
        "encoding": "inplace",
        "label": "address",
        "numberOfBytes": "20"
      },
      "t_array(t_uint256)49_storage": {
        "base": "t_uint256",
        "encoding": "inplace",
        "label": "uint256[49]",
        "numberOfBytes": "1568"
      },
      "t_array(t_uint256)50_storage": {
        "base": "t_uint256",
        "encoding": "inplace",
        "label": "uint256[50]",
        "numberOfBytes": "1600"
      },
      "t_bool": {
        "encoding": "inplace",
        "label": "bool",
        "numberOfBytes": "1"
      },
      "t_contract(ILiquidityZap)16872": {
        "encoding": "inplace",
        "label": "contract ILiquidityZap",
        "numberOfBytes": "20"
      },
      "t_contract(IUniswapV2Router02)19492": {
        "encoding": "inplace",
        "label": "contract IUniswapV2Router02",
        "numberOfBytes": "20"
      },
      "t_uint256": {
        "encoding": "inplace",
        "label": "uint256",
        "numberOfBytes": "32"
      }
    }
  }
}