{
  "address": "0x8692936017a757A5a220313B56153472bF740EC5",
  "abi": [
    {
      "inputs": [
        {
          "internalType": "address payable",
          "name": "_pool",
          "type": "address"
        },
        {
          "internalType": "address",
          "name": "_addressesProvider",
          "type": "address"
        }
      ],
      "stateMutability": "nonpayable",
      "type": "constructor"
    },
    {
      "anonymous": false,
      "inputs": [
        {
          "indexed": true,
          "internalType": "address",
          "name": "previousOwner",
          "type": "address"
        },
        {
          "indexed": true,
          "internalType": "address",
          "name": "newOwner",
          "type": "address"
        }
      ],
      "name": "OwnershipTransferred",
      "type": "event"
    },
    {
      "anonymous": false,
      "inputs": [
        {
          "indexed": false,
          "internalType": "address",
          "name": "stableToken",
          "type": "address"
        },
        {
          "indexed": false,
          "internalType": "address",
          "name": "variableToken",
          "type": "address"
        }
      ],
      "name": "deployedContracts",
      "type": "event"
    },
    {
      "inputs": [
        {
          "internalType": "address[]",
          "name": "tokens",
          "type": "address[]"
        },
        {
          "internalType": "string[]",
          "name": "symbols",
          "type": "string[]"
        }
      ],
      "name": "initDeployment",
      "outputs": [],
      "stateMutability": "nonpayable",
      "type": "function"
    },
    {
      "inputs": [],
      "name": "owner",
      "outputs": [
        {
          "internalType": "address",
          "name": "",
          "type": "address"
        }
      ],
      "stateMutability": "view",
      "type": "function"
    },
    {
      "inputs": [],
      "name": "renounceOwnership",
      "outputs": [],
      "stateMutability": "nonpayable",
      "type": "function"
    },
    {
      "inputs": [
        {
          "internalType": "address[]",
          "name": "assets",
          "type": "address[]"
        },
        {
          "internalType": "uint256[]",
          "name": "rates",
          "type": "uint256[]"
        },
        {
          "internalType": "address",
          "name": "oracle",
          "type": "address"
        }
      ],
      "name": "setOracleBorrowRates",
      "outputs": [],
      "stateMutability": "nonpayable",
      "type": "function"
    },
    {
      "inputs": [
        {
          "internalType": "address",
          "name": "oracle",
          "type": "address"
        },
        {
          "internalType": "address",
          "name": "admin",
          "type": "address"
        }
      ],
      "name": "setOracleOwnership",
      "outputs": [],
      "stateMutability": "nonpayable",
      "type": "function"
    },
    {
      "inputs": [
        {
          "internalType": "address",
          "name": "newOwner",
          "type": "address"
        }
      ],
      "name": "transferOwnership",
      "outputs": [],
      "stateMutability": "nonpayable",
      "type": "function"
    }
  ],
  "transactionHash": "0x94226dd8dbfc1376d6c4196b433eb3ba63e366673718c9407daed255b6a9b4b8",
  "args": [
    "0x2c8f396924403abe6E93c7A252c906BD95D4bD4a",
    "0xc156E15ca721277879b4fC40f3613757210d811a"
  ],
  "numDeployments": 1,
  "solcInputHash": "d20862d9a7051998216c9f1f22667b5c",
  "bytecode": "0x608060405234801561001057600080fd5b5060405161440138038061440183398101604081905261002f916100d1565b61003833610069565b600180546001600160a01b039384166001600160a01b0319918216179091556002805492909316911617905561010b565b600080546001600160a01b038381166001600160a01b0319831681178455604051919092169283917f8be0079c531659141344cd1fd0a4f28419497f9722a3daafe3b4186f6b6457e09190a35050565b6001600160a01b03811681146100ce57600080fd5b50565b600080604083850312156100e457600080fd5b82516100ef816100b9565b6020840151909250610100816100b9565b809150509250929050565b6142e78061011a6000396000f3fe608060405234801561001057600080fd5b50600436106100725760003560e01c80638da5cb5b116100505780638da5cb5b146100a7578063c2d30321146100c6578063f2fde38b146100d957600080fd5b806354fe1c9414610077578063563b1cb31461008c578063715018a61461009f575b600080fd5b61008a6100853660046106fa565b6100ec565b005b61008a61009a36600461077b565b61025a565b61008a6103f2565b600054604080516001600160a01b039092168252519081900360200190f35b61008a6100d43660046107b4565b610406565b61008a6100e7366004610838565b610542565b6100f46105d2565b8281146101485760405162461bcd60e51b815260206004820152601660248201527f417272617973206e6f742073616d65206c656e6774680000000000000000000060448201526064015b60405180910390fd5b6001546001600160a01b03166101a05760405162461bcd60e51b815260206004820152601c60248201527f506f6f6c2063616e206e6f74206265207a65726f206164647265737300000000604482015260640161013f565b60005b83811015610253577f1c1768aab1796270c7034dc781c2951065e6afb7a946269746521002443b8ea46040516101d890610694565b604051809103906000f0801580156101f4573d6000803e3d6000fd5b50604051610201906106a1565b604051809103906000f08015801561021d573d6000803e3d6000fd5b50604080516001600160a01b0393841681529290911660208301520160405180910390a18061024b8161085c565b9150506101a3565b5050505050565b6102626105d2565b6001600160a01b0381166102b85760405162461bcd60e51b815260206004820152601560248201527f6f776e65722063616e206e6f74206265207a65726f0000000000000000000000604482015260640161013f565b306001600160a01b0316826001600160a01b0316638da5cb5b6040518163ffffffff1660e01b8152600401602060405180830381865afa158015610300573d6000803e3d6000fd5b505050506040513d601f19601f820116820180604052508101906103249190610885565b6001600160a01b03161461037a5760405162461bcd60e51b815260206004820152601360248201527f68656c706572206973206e6f74206f776e657200000000000000000000000000604482015260640161013f565b6040517ff2fde38b0000000000000000000000000000000000000000000000000000000081526001600160a01b03828116600483015283169063f2fde38b90602401600060405180830381600087803b1580156103d657600080fd5b505af11580156103ea573d6000803e3d6000fd5b505050505050565b6103fa6105d2565b610404600061062c565b565b61040e6105d2565b83821461045d5760405162461bcd60e51b815260206004820152601660248201527f417272617973206e6f742073616d65206c656e67746800000000000000000000604482015260640161013f565b60005b848110156103ea57816001600160a01b03166372eb293d878784818110610489576104896108a2565b905060200201602081019061049e9190610838565b8686858181106104b0576104b06108a2565b6040517fffffffff0000000000000000000000000000000000000000000000000000000060e087901b1681526001600160a01b0390941660048501526020029190910135602483015250604401600060405180830381600087803b15801561051757600080fd5b505af115801561052b573d6000803e3d6000fd5b50505050808061053a9061085c565b915050610460565b61054a6105d2565b6001600160a01b0381166105c65760405162461bcd60e51b815260206004820152602660248201527f4f776e61626c653a206e6577206f776e657220697320746865207a65726f206160448201527f6464726573730000000000000000000000000000000000000000000000000000606482015260840161013f565b6105cf8161062c565b50565b6000546001600160a01b031633146104045760405162461bcd60e51b815260206004820181905260248201527f4f776e61626c653a2063616c6c6572206973206e6f7420746865206f776e6572604482015260640161013f565b600080546001600160a01b038381167fffffffffffffffffffffffff0000000000000000000000000000000000000000831681178455604051919092169283917f8be0079c531659141344cd1fd0a4f28419497f9722a3daafe3b4186f6b6457e09190a35050565b611f7d806108b983390190565b611a7c8061283683390190565b60008083601f8401126106c057600080fd5b50813567ffffffffffffffff8111156106d857600080fd5b6020830191508360208260051b85010111156106f357600080fd5b9250929050565b6000806000806040858703121561071057600080fd5b843567ffffffffffffffff8082111561072857600080fd5b610734888389016106ae565b9096509450602087013591508082111561074d57600080fd5b5061075a878288016106ae565b95989497509550505050565b6001600160a01b03811681146105cf57600080fd5b6000806040838503121561078e57600080fd5b823561079981610766565b915060208301356107a981610766565b809150509250929050565b6000806000806000606086880312156107cc57600080fd5b853567ffffffffffffffff808211156107e457600080fd5b6107f089838a016106ae565b9097509550602088013591508082111561080957600080fd5b50610816888289016106ae565b909450925050604086013561082a81610766565b809150509295509295909350565b60006020828403121561084a57600080fd5b813561085581610766565b9392505050565b600060001982141561087e57634e487b7160e01b600052601160045260246000fd5b5060010190565b60006020828403121561089757600080fd5b815161085581610766565b634e487b7160e01b600052603260045260246000fdfe608060405260006007553480156200001657600080fd5b50604080518082018252600e8082526d111150951513d2d15397d253541360921b60208084018281528551808701909652928552840152815191929160009162000064916003919062000098565b5081516200007a90600490602085019062000098565b506005805460ff191660ff92909216919091179055506200017b9050565b828054620000a6906200013e565b90600052602060002090601f016020900481019282620000ca576000855562000115565b82601f10620000e557805160ff191683800117855562000115565b8280016001018555821562000115579182015b8281111562000115578251825591602001919060010190620000f8565b506200012392915062000127565b5090565b5b8082111562000123576000815560010162000128565b600181811c908216806200015357607f821691505b602082108114156200017557634e487b7160e01b600052602260045260246000fd5b50919050565b611df2806200018b6000396000f3fe608060405234801561001057600080fd5b50600436106101c45760003560e01c80639dc29fac116100f9578063c222ec8a11610097578063e54f088011610071578063e54f0880146103e0578063e7484890146103e8578063e78c9b3b146103f7578063f731e9be1461042057600080fd5b8063c222ec8a146103ac578063c634dfaa146103bf578063dd62ed3e146103d257600080fd5b8063b16a19de116100d3578063b16a19de1461036d578063b3f1c93d1461037e578063b9a7b62214610391578063c04a8a101461039957600080fd5b80639dc29fac1461034a578063a457c2d714610248578063a9059cbb1461035f57600080fd5b806370a0823111610166578063797743381161014057806379774338146102c557806379ce6b8c146102f457806390f6fcf21461033a57806395d89b411461034257600080fd5b806370a082311461026e5780637535d2461461028157806375d26413146102ab57600080fd5b806323b872dd116101a257806323b872dd14610220578063313ce5671461023357806339509351146102485780636bd76d241461025b57600080fd5b806306fdde03146101c9578063095ea7b3146101e757806318160ddd1461020a575b600080fd5b6101d161043d565b6040516101de919061193a565b60405180910390f35b6101fa6101f5366004611975565b6104cf565b60405190151581526020016101de565b61021261051f565b6040519081526020016101de565b6101fa61022e3660046119a1565b610531565b60055460405160ff90911681526020016101de565b6101fa610256366004611975565b61057c565b6102126102693660046119e2565b6105c7565b61021261027c366004611a1b565b6105f4565b60055461010090046001600160a01b03165b6040516001600160a01b0390911681526020016101de565b603f546501000000000090046001600160a01b0316610293565b6102cd610665565b6040805194855260208501939093529183015264ffffffffff1660608201526080016101de565b610324610302366004611a1b565b6001600160a01b03166000908152603d602052604090205464ffffffffff1690565b60405164ffffffffff90911681526020016101de565b603c54610212565b6101d161069c565b61035d610358366004611975565b6106ab565b005b6101fa61022e366004611975565b6006546001600160a01b0316610293565b6101fa61038c366004611a38565b6109a9565b610212600181565b61035d6103a7366004611975565b610cdd565b61035d6103ba366004611b7b565b610d54565b6102126103cd366004611a1b565b610f25565b6102126102563660046119e2565b610212610f43565b603f5464ffffffffff16610324565b610212610405366004611a1b565b6001600160a01b03166000908152603e602052604090205490565b6104286110b3565b604080519283526020830191909152016101de565b60606003805461044c90611c50565b80601f016020809104026020016040519081016040528092919081815260200182805461047890611c50565b80156104c55780601f1061049a576101008083540402835291602001916104c5565b820191906000526020600020905b8154815290600101906020018083116104a857829003601f168201915b5050505050905090565b60405162461bcd60e51b815260206004820152601660248201527f415050524f56414c5f4e4f545f535550504f525445440000000000000000000060448201526000906064015b60405180910390fd5b600061052c603c546110cc565b905090565b60405162461bcd60e51b815260206004820152601660248201527f5452414e534645525f4e4f545f535550504f52544544000000000000000000006044820152600090606401610516565b60405162461bcd60e51b815260206004820152601760248201527f414c4c4f57414e43455f4e4f545f535550504f525445440000000000000000006044820152600090606401610516565b6001600160a01b038083166000908152603b60209081526040808320938516835292905220545b92915050565b6001600160a01b03811660009081526020818152604080832054603e90925282205481610625575060009392505050565b6001600160a01b0384166000908152603d602052604081205461065090839064ffffffffff16611114565b905061065c8382611128565b95945050505050565b6000806000806000603c54905061067b60025490565b610684826110cc565b603f54919790965091945064ffffffffff1692509050565b60606004805461044c90611c50565b60055461010090046001600160a01b03166001600160a01b0316336001600160a01b03161460405180604001604052806002815260200161323960f01b815250906107095760405162461bcd60e51b8152600401610516919061193a565b50600080610716846111e3565b9250925050600061072561051f565b6001600160a01b0386166000908152603e602052604081205491925090819086841161075a576000603c8190556002556107dc565b6107648488611252565b6002819055915060006107826107798661125e565b603c5490611128565b905060006107996107928a61125e565b8490611128565b90508181106107b55760006002819055603c81905594506107d9565b6107d16107c18561125e565b6107cb8484611252565b906112c1565b603c81905594505b50505b8587141561081a576001600160a01b0388166000908152603e60209081526040808320839055603d9091529020805464ffffffffff19169055610848565b6001600160a01b0388166000908152603d60205260409020805464ffffffffff19164264ffffffffff161790555b603f805464ffffffffff19164264ffffffffff16179055868511156108e95760006108738689611252565b90506108808982876113b2565b6040805182815260208101899052908101879052606081018390526080810185905260a081018490526001600160a01b038a169081907fc16f4e4ca34d790de4c656c72fd015c667d688f20be64eea360618545c4c530f9060c00160405180910390a35061095e565b60006108f58887611252565b905061090289828761151b565b604080518281526020810189905290810187905260608101859052608081018490526001600160a01b038a16907f44bd20a79e993bdcc7cbedf54a3b4d19fb78490124b6b90d04fe3242eea579e89060a00160405180910390a2505b6040518781526000906001600160a01b038a16907fddf252ad1be2c89b69c2b068fc378daa952ba7f163c4a11628f55a4df523b3ef9060200160405180910390a35050505050505050565b600554604080518082019091526002815261323960f01b602082015260009161010090046001600160a01b031633146109f55760405162461bcd60e51b8152600401610516919061193a565b50610a286040518060a0016040528060008152602001600081526020016000815260200160008152602001600081525090565b846001600160a01b0316866001600160a01b031614610a4c57610a4c8587866115f5565b600080610a58876111e3565b9250925050610a6561051f565b808452603c546080850152610a7a90876116e2565b60028190556020840152610a8d8661125e565b6040840152610aeb610aa7610aa284896116e2565b61125e565b60408501516107cb90610aba9089611128565b610ae5610ac68761125e565b6001600160a01b038d166000908152603e602052604090205490611128565b906116e2565b6060840181905260408051808201909152600281527f37390000000000000000000000000000000000000000000000000000000000006020820152906fffffffffffffffffffffffffffffffff1015610b575760405162461bcd60e51b8152600401610516919061193a565b5060608301516001600160a01b0388166000908152603e6020908152604080832093909355603d8152919020805464ffffffffff421664ffffffffff199182168117909255603f80549091169091179055830151610bed90610bb89061125e565b6107cb610bd286604001518961112890919063ffffffff16565b610ae5610be2886000015161125e565b608089015190611128565b603c8190556080840152610c0c87610c0588846116e2565b85516113b2565b6040518681526001600160a01b038816906000907fddf252ad1be2c89b69c2b068fc378daa952ba7f163c4a11628f55a4df523b3ef9060200160405180910390a3866001600160a01b0316886001600160a01b03167fc16f4e4ca34d790de4c656c72fd015c667d688f20be64eea360618545c4c530f888585886060015189608001518a60200151604051610cc996959493929190958652602086019490945260408501929092526060840152608083015260a082015260c00190565b60405180910390a350159695505050505050565b336000818152603b602090815260408083206001600160a01b038781168086529190935292208490556006549192917fda919360433220e13b51e8c211e490d148e61a3bd53de8c097194e458b97f3e19116604080516001600160a01b039092168252602082018690520160405180910390a35050565b60085460019060ff1680610d675750303b155b80610d73575060075481115b610de55760405162461bcd60e51b815260206004820152602e60248201527f436f6e747261637420696e7374616e63652068617320616c726561647920626560448201527f656e20696e697469616c697a65640000000000000000000000000000000000006064820152608401610516565b60085460ff16158015610e05576008805460ff1916600117905560078290555b610e0e866116ee565b610e1785611705565b6005805460ff89167fffffffffffffffffffffff000000000000000000000000000000000000000000909116176101006001600160a01b038d811691820292909217909255600680547fffffffffffffffffffffffff0000000000000000000000000000000000000000168c8316908117909155603f80547fffffffffffffff0000000000000000000000000000000000000000ffffffffff1665010000000000938d1693909302929092179091556040517f40251fbfb6656cfa65a00d7879029fec1fad21d28fdcff2f4f68f52795b74f2c90610f00908c908c908c908c908c908c90611c8b565b60405180910390a38015610f19576008805460ff191690555b50505050505050505050565b6001600160a01b0381166000908152602081905260408120546105ee565b600080600560019054906101000a90046001600160a01b03166001600160a01b031663fe65acfe6040518163ffffffff1660e01b8152600401602060405180830381865afa158015610f99573d6000803e3d6000fd5b505050506040513d601f19601f82011682018060405250810190610fbd9190611d00565b90506000816001600160a01b031663fca513a86040518163ffffffff1660e01b8152600401602060405180830381865afa158015610fff573d6000803e3d6000fd5b505050506040513d601f19601f820116820180604052508101906110239190611d00565b6006546040517fb3596f070000000000000000000000000000000000000000000000000000000081526001600160a01b03918216600482015291925082169063b3596f0790602401602060405180830381865afa158015611088573d6000803e3d6000fd5b505050506040513d601f19601f820116820180604052508101906110ac9190611d1d565b9250505090565b603c5460009081906110c4816110cc565b939092509050565b6000806110d860025490565b9050806110e85750600092915050565b603f5460009061110090859064ffffffffff16611114565b905061110c8282611128565b949350505050565b6000611121838342611718565b9392505050565b6000821580611135575081155b15611142575060006105ee565b8161115a60026b033b2e3c9fd0803ce8000000611d4c565b61116690600019611d6e565b6111709190611d4c565b83111560405180604001604052806002815260200161068760f31b815250906111ac5760405162461bcd60e51b8152600401610516919061193a565b506b033b2e3c9fd0803ce80000006111c5600282611d4c565b6111cf8486611d85565b6111d99190611da4565b6111219190611d4c565b600080600080611208856001600160a01b031660009081526020819052604090205490565b9050806112205760008060009350935093505061124b565b60006112358261122f886105f4565b90611252565b90508161124281836116e2565b90955093509150505b9193909250565b60006111218284611d6e565b60008061126f633b9aca0084611d85565b905082611280633b9aca0083611d4c565b1460405180604001604052806002815260200161068760f31b815250906112ba5760405162461bcd60e51b8152600401610516919061193a565b5092915050565b60408051808201909152600281527f35300000000000000000000000000000000000000000000000000000000000006020820152600090826113165760405162461bcd60e51b8152600401610516919061193a565b506000611324600284611d4c565b90506b033b2e3c9fd0803ce800000061133f82600019611d6e565b6113499190611d4c565b84111560405180604001604052806002815260200161068760f31b815250906113855760405162461bcd60e51b8152600401610516919061193a565b50828161139e6b033b2e3c9fd0803ce800000087611d85565b6113a89190611da4565b61110c9190611d4c565b6001600160a01b03808416600090815260208190526040902054603f54909165010000000000909104161561144b57603f54604051639b5a734f60e01b81526001600160a01b0386811660048301526501000000000090920490911690639b5a734f90602401600060405180830381600087803b15801561143257600080fd5b505af1158015611446573d6000803e3d6000fd5b505050505b61145581846116e2565b6001600160a01b03808616600090815260208190526040902091909155603f54650100000000009004161561151557603f546040517f1d94f24d0000000000000000000000000000000000000000000000000000000081526001600160a01b03868116600483015260248201849052604482018590526501000000000090920490911690631d94f24d90606401600060405180830381600087803b1580156114fc57600080fd5b505af1158015611510573d6000803e3d6000fd5b505050505b50505050565b6001600160a01b03808416600090815260208190526040902054603f5490916501000000000090910416156115b457603f54604051639b5a734f60e01b81526001600160a01b0386811660048301526501000000000090920490911690639b5a734f90602401600060405180830381600087803b15801561159b57600080fd5b505af11580156115af573d6000803e3d6000fd5b505050505b60408051808201909152600281527f38300000000000000000000000000000000000000000000000000000000000006020820152611455908290859061181c565b604080518082018252600281527f35390000000000000000000000000000000000000000000000000000000000006020808301919091526001600160a01b038087166000908152603b8352848120918716815291529182205461165991849061181c565b6001600160a01b038086166000818152603b60209081526040808320948916808452949091529020839055919250907fda919360433220e13b51e8c211e490d148e61a3bd53de8c097194e458b97f3e16116bb6006546001600160a01b031690565b604080516001600160a01b039092168252602082018690520160405180910390a350505050565b60006111218284611da4565b8051611701906003906020840190611854565b5050565b8051611701906004906020840190611854565b60008061172c8364ffffffffff8616611252565b905080611748576b033b2e3c9fd0803ce8000000915050611121565b6000611755600183611d6e565b9050600060028311611768576000611773565b611773600284611d6e565b905060006117856301e1338089611d4c565b905060006117938280611128565b905060006117a18284611128565b9050600060026117bb846117b58a8a611848565b90611848565b6117c59190611d4c565b9050600060066117db846117b589818d8d611848565b6117e59190611d4c565b905061180c81610ae584816117fa8a8e611848565b6b033b2e3c9fd0803ce8000000610ae5565b9c9b505050505050505050505050565b600081848411156118405760405162461bcd60e51b8152600401610516919061193a565b505050900390565b60006111218284611d85565b82805461186090611c50565b90600052602060002090601f01602090048101928261188257600085556118c8565b82601f1061189b57805160ff19168380011785556118c8565b828001600101855582156118c8579182015b828111156118c85782518255916020019190600101906118ad565b506118d49291506118d8565b5090565b5b808211156118d457600081556001016118d9565b6000815180845260005b81811015611913576020818501810151868301820152016118f7565b81811115611925576000602083870101525b50601f01601f19169290920160200192915050565b60208152600061112160208301846118ed565b6001600160a01b038116811461196257600080fd5b50565b80356119708161194d565b919050565b6000806040838503121561198857600080fd5b82356119938161194d565b946020939093013593505050565b6000806000606084860312156119b657600080fd5b83356119c18161194d565b925060208401356119d18161194d565b929592945050506040919091013590565b600080604083850312156119f557600080fd5b8235611a008161194d565b91506020830135611a108161194d565b809150509250929050565b600060208284031215611a2d57600080fd5b81356111218161194d565b60008060008060808587031215611a4e57600080fd5b8435611a598161194d565b93506020850135611a698161194d565b93969395505050506040820135916060013590565b803560ff8116811461197057600080fd5b634e487b7160e01b600052604160045260246000fd5b600082601f830112611ab657600080fd5b813567ffffffffffffffff80821115611ad157611ad1611a8f565b604051601f8301601f19908116603f01168101908282118183101715611af957611af9611a8f565b81604052838152866020858801011115611b1257600080fd5b836020870160208301376000602085830101528094505050505092915050565b60008083601f840112611b4457600080fd5b50813567ffffffffffffffff811115611b5c57600080fd5b602083019150836020828501011115611b7457600080fd5b9250929050565b60008060008060008060008060e0898b031215611b9757600080fd5b8835611ba28161194d565b97506020890135611bb28161194d565b9650611bc060408a01611965565b9550611bce60608a01611a7e565b9450608089013567ffffffffffffffff80821115611beb57600080fd5b611bf78c838d01611aa5565b955060a08b0135915080821115611c0d57600080fd5b611c198c838d01611aa5565b945060c08b0135915080821115611c2f57600080fd5b50611c3c8b828c01611b32565b999c989b5096995094979396929594505050565b600181811c90821680611c6457607f821691505b60208210811415611c8557634e487b7160e01b600052602260045260246000fd5b50919050565b6001600160a01b038716815260ff8616602082015260a060408201526000611cb660a08301876118ed565b8281036060840152611cc881876118ed565b90508281036080840152838152838560208301376000602085830101526020601f19601f860116820101915050979650505050505050565b600060208284031215611d1257600080fd5b81516111218161194d565b600060208284031215611d2f57600080fd5b5051919050565b634e487b7160e01b600052601160045260246000fd5b600082611d6957634e487b7160e01b600052601260045260246000fd5b500490565b600082821015611d8057611d80611d36565b500390565b6000816000190483118215151615611d9f57611d9f611d36565b500290565b60008219821115611db757611db7611d36565b50019056fea264697066735822122030314433280961cfec8568ac520da39176fe18f954e854f24e1cf440c196bd8864736f6c634300080c0033608060405260006007553480156200001657600080fd5b50604080518082018252600e8082526d111150951513d2d15397d253541360921b60208084018281528551808701909652928552840152815191929160009162000064916003919062000098565b5081516200007a90600490602085019062000098565b506005805460ff191660ff92909216919091179055506200017b9050565b828054620000a6906200013e565b90600052602060002090601f016020900481019282620000ca576000855562000115565b82601f10620000e557805160ff191683800117855562000115565b8280016001018555821562000115579182015b8281111562000115578251825591602001919060010190620000f8565b506200012392915062000127565b5090565b5b8082111562000123576000815560010162000128565b600181811c908216806200015357607f821691505b602082108114156200017557634e487b7160e01b600052602260045260246000fd5b50919050565b6118f1806200018b6000396000f3fe608060405234801561001057600080fd5b50600436106101985760003560e01c806395d89b41116100e3578063b9a7b6221161008c578063dd62ed3e11610066578063dd62ed3e14610374578063e54f088014610382578063f5298aca1461038a57600080fd5b8063b9a7b62214610344578063c04a8a101461034c578063c222ec8a1461036157600080fd5b8063b16a19de116100bd578063b16a19de14610318578063b1bf962d14610329578063b3f1c93d1461033157600080fd5b806395d89b4114610302578063a457c2d714610271578063a9059cbb1461030a57600080fd5b8063313ce5671161014557806370a082311161011f57806370a08231146102bd5780637535d246146102d057806375d26413146102fa57600080fd5b8063313ce5671461025c57806339509351146102715780636bd76d241461028457600080fd5b806318160ddd1161017657806318160ddd146102205780631da24f3e1461023657806323b872dd1461024957600080fd5b806306fdde031461019d578063095ea7b3146101bb5780630afbcdc9146101de575b600080fd5b6101a561039d565b6040516101b291906113e2565b60405180910390f35b6101ce6101c936600461141d565b61042f565b60405190151581526020016101b2565b61020b6101ec366004611449565b6001600160a01b03166000908152602081905260409020546002549091565b604080519283526020830191909152016101b2565b61022861047f565b6040519081526020016101b2565b610228610244366004611449565b610509565b6101ce610257366004611466565b610529565b60055460405160ff90911681526020016101b2565b6101ce61027f36600461141d565b610574565b6102286102923660046114a7565b6001600160a01b039182166000908152603b6020908152604080832093909416825291909152205490565b6102286102cb366004611449565b6105bf565b60055461010090046001600160a01b03165b6040516001600160a01b0390911681526020016101b2565b6102e261066e565b6101a5610682565b6101ce61025736600461141d565b6006546001600160a01b03166102e2565b610228610691565b6101ce61033f3660046114e0565b61069c565b610228600181565b61035f61035a36600461141d565b610833565b005b61035f61036f366004611623565b6108aa565b61022861027f3660046114a7565b610228610a53565b61035f6103983660046116f8565b610bc3565b6060600380546103ac9061172d565b80601f01602080910402602001604051908101604052809291908181526020018280546103d89061172d565b80156104255780601f106103fa57610100808354040283529160200191610425565b820191906000526020600020905b81548152906001019060200180831161040857829003601f168201915b5050505050905090565b60405162461bcd60e51b815260206004820152601660248201527f415050524f56414c5f4e4f545f535550504f525445440000000000000000000060448201526000906064015b60405180910390fd5b60055460065460405163386497fd60e01b81526001600160a01b03918216600482015260009261050492610100909104169063386497fd90602401602060405180830381865afa1580156104d7573d6000803e3d6000fd5b505050506040513d601f19601f820116820180604052508101906104fb9190611768565b60025490610d19565b905090565b6001600160a01b0381166000908152602081905260408120545b92915050565b60405162461bcd60e51b815260206004820152601660248201527f5452414e534645525f4e4f545f535550504f52544544000000000000000000006044820152600090606401610476565b60405162461bcd60e51b815260206004820152601760248201527f414c4c4f57414e43455f4e4f545f535550504f525445440000000000000000006044820152600090606401610476565b6001600160a01b038116600090815260208190526040812054806105e65750600092915050565b60055460065460405163386497fd60e01b81526001600160a01b0391821660048201526106679261010090049091169063386497fd90602401602060405180830381865afa15801561063c573d6000803e3d6000fd5b505050506040513d601f19601f820116820180604052508101906106609190611768565b8290610d19565b9392505050565b6000610504603c546001600160a01b031690565b6060600480546103ac9061172d565b600061050460025490565b600554604080518082019091526002815261323960f01b602082015260009161010090046001600160a01b031633146106e85760405162461bcd60e51b815260040161047691906113e2565b50836001600160a01b0316856001600160a01b03161461070d5761070d848685610dd4565b6001600160a01b038416600090815260208190526040812054906107318585610ec1565b60408051808201909152600281527f35360000000000000000000000000000000000000000000000000000000000006020820152909150816107865760405162461bcd60e51b815260040161047691906113e2565b506107918682610fba565b6040518581526001600160a01b038716906000907fddf252ad1be2c89b69c2b068fc378daa952ba7f163c4a11628f55a4df523b3ef9060200160405180910390a3856001600160a01b0316876001600160a01b03167f2f00e3cdd69a77be7ed215ec7b2a36784dd158f921fca79ac29deffa353fe6ee8787604051610820929190918252602082015260400190565b60405180910390a3501595945050505050565b336000818152603b602090815260408083206001600160a01b038781168086529190935292208490556006549192917fda919360433220e13b51e8c211e490d148e61a3bd53de8c097194e458b97f3e19116604080516001600160a01b039092168252602082018690520160405180910390a35050565b60085460019060ff16806108bd5750303b155b806108c9575060075481115b61093b5760405162461bcd60e51b815260206004820152602e60248201527f436f6e747261637420696e7374616e63652068617320616c726561647920626560448201527f656e20696e697469616c697a65640000000000000000000000000000000000006064820152608401610476565b60085460ff1615801561095b576008805460ff1916600117905560078290555b610964866111c5565b61096d856111dc565b6005805460ff89167fffffffffffffffffffffff000000000000000000000000000000000000000000909116176101006001600160a01b038d811691820292909217909255600680547fffffffffffffffffffffffff00000000000000000000000000000000000000009081168d8416908117909255603c8054909116928c16929092179091556040517f40251fbfb6656cfa65a00d7879029fec1fad21d28fdcff2f4f68f52795b74f2c90610a2e908c908c908c908c908c908c90611781565b60405180910390a38015610a47576008805460ff191690555b50505050505050505050565b600080600560019054906101000a90046001600160a01b03166001600160a01b031663fe65acfe6040518163ffffffff1660e01b8152600401602060405180830381865afa158015610aa9573d6000803e3d6000fd5b505050506040513d601f19601f82011682018060405250810190610acd91906117f6565b90506000816001600160a01b031663fca513a86040518163ffffffff1660e01b8152600401602060405180830381865afa158015610b0f573d6000803e3d6000fd5b505050506040513d601f19601f82011682018060405250810190610b3391906117f6565b6006546040517fb3596f070000000000000000000000000000000000000000000000000000000081526001600160a01b03918216600482015291925082169063b3596f0790602401602060405180830381865afa158015610b98573d6000803e3d6000fd5b505050506040513d601f19601f82011682018060405250810190610bbc9190611768565b9250505090565b60055461010090046001600160a01b03166001600160a01b0316336001600160a01b03161460405180604001604052806002815260200161323960f01b81525090610c215760405162461bcd60e51b815260040161047691906113e2565b506000610c2e8383610ec1565b60408051808201909152600281527f3538000000000000000000000000000000000000000000000000000000000000602082015290915081610c835760405162461bcd60e51b815260040161047691906113e2565b50610c8e84826111ef565b6040518381526000906001600160a01b038616907fddf252ad1be2c89b69c2b068fc378daa952ba7f163c4a11628f55a4df523b3ef9060200160405180910390a360408051848152602081018490526001600160a01b038616917f49995e5dd6158cf69ad3e9777c46755a1a826a446c6416992167462dad033b2a910160405180910390a250505050565b6000821580610d26575081155b15610d3357506000610523565b81610d4b60026b033b2e3c9fd0803ce8000000611829565b610d579060001961184b565b610d619190611829565b83111560405180604001604052806002815260200161068760f31b81525090610d9d5760405162461bcd60e51b815260040161047691906113e2565b506b033b2e3c9fd0803ce8000000610db6600282611829565b610dc08486611862565b610dca9190611881565b6106679190611829565b604080518082018252600281527f35390000000000000000000000000000000000000000000000000000000000006020808301919091526001600160a01b038087166000908152603b83528481209187168152915291822054610e389184906112b8565b6001600160a01b038086166000818152603b60209081526040808320948916808452949091529020839055919250907fda919360433220e13b51e8c211e490d148e61a3bd53de8c097194e458b97f3e1610e9a6006546001600160a01b031690565b604080516001600160a01b039092168252602082018690520160405180910390a350505050565b60408051808201909152600281527f3530000000000000000000000000000000000000000000000000000000000000602082015260009082610f165760405162461bcd60e51b815260040161047691906113e2565b506000610f24600284611829565b90506b033b2e3c9fd0803ce8000000610f3f8260001961184b565b610f499190611829565b84111560405180604001604052806002815260200161068760f31b81525090610f855760405162461bcd60e51b815260040161047691906113e2565b508281610f9e6b033b2e3c9fd0803ce800000087611862565b610fa89190611881565b610fb29190611829565b949350505050565b6001600160a01b0382166110105760405162461bcd60e51b815260206004820152601f60248201527f45524332303a206d696e7420746f20746865207a65726f2061646472657373006044820152606401610476565b60025460009061102090836112e4565b6001600160a01b0384166000908152602081905260408120549192509061104790846112e4565b9050600061105d603c546001600160a01b031690565b6001600160a01b0316146110ee57603c546001600160a01b03166040517f9b5a734f0000000000000000000000000000000000000000000000000000000081526001600160a01b0386811660048301529190911690639b5a734f90602401600060405180830381600087803b1580156110d557600080fd5b505af11580156110e9573d6000803e3d6000fd5b505050505b60028290556001600160a01b0384166000908152602081905260408120829055611120603c546001600160a01b031690565b6001600160a01b0316146111bf57603c546001600160a01b03166040517f1d94f24d0000000000000000000000000000000000000000000000000000000081526001600160a01b03868116600483015260248201849052604482018590529190911690631d94f24d90606401600060405180830381600087803b1580156111a657600080fd5b505af11580156111ba573d6000803e3d6000fd5b505050505b50505050565b80516111d89060039060208401906112fc565b5050565b80516111d89060049060208401906112fc565b6001600160a01b03821661126b5760405162461bcd60e51b815260206004820152602160248201527f45524332303a206275726e2066726f6d20746865207a65726f2061646472657360448201527f73000000000000000000000000000000000000000000000000000000000000006064820152608401610476565b60025460009061127b90836112f0565b905060006110478360405180606001604052806022815260200161189a602291396001600160a01b03871660009081526020819052604090205491905b600081848411156112dc5760405162461bcd60e51b815260040161047691906113e2565b505050900390565b60006106678284611881565b6000610667828461184b565b8280546113089061172d565b90600052602060002090601f01602090048101928261132a5760008555611370565b82601f1061134357805160ff1916838001178555611370565b82800160010185558215611370579182015b82811115611370578251825591602001919060010190611355565b5061137c929150611380565b5090565b5b8082111561137c5760008155600101611381565b6000815180845260005b818110156113bb5760208185018101518683018201520161139f565b818111156113cd576000602083870101525b50601f01601f19169290920160200192915050565b6020815260006106676020830184611395565b6001600160a01b038116811461140a57600080fd5b50565b8035611418816113f5565b919050565b6000806040838503121561143057600080fd5b823561143b816113f5565b946020939093013593505050565b60006020828403121561145b57600080fd5b8135610667816113f5565b60008060006060848603121561147b57600080fd5b8335611486816113f5565b92506020840135611496816113f5565b929592945050506040919091013590565b600080604083850312156114ba57600080fd5b82356114c5816113f5565b915060208301356114d5816113f5565b809150509250929050565b600080600080608085870312156114f657600080fd5b8435611501816113f5565b93506020850135611511816113f5565b93969395505050506040820135916060013590565b803560ff8116811461141857600080fd5b634e487b7160e01b600052604160045260246000fd5b600082601f83011261155e57600080fd5b813567ffffffffffffffff8082111561157957611579611537565b604051601f8301601f19908116603f011681019082821181831017156115a1576115a1611537565b816040528381528660208588010111156115ba57600080fd5b836020870160208301376000602085830101528094505050505092915050565b60008083601f8401126115ec57600080fd5b50813567ffffffffffffffff81111561160457600080fd5b60208301915083602082850101111561161c57600080fd5b9250929050565b60008060008060008060008060e0898b03121561163f57600080fd5b883561164a816113f5565b9750602089013561165a816113f5565b965061166860408a0161140d565b955061167660608a01611526565b9450608089013567ffffffffffffffff8082111561169357600080fd5b61169f8c838d0161154d565b955060a08b01359150808211156116b557600080fd5b6116c18c838d0161154d565b945060c08b01359150808211156116d757600080fd5b506116e48b828c016115da565b999c989b5096995094979396929594505050565b60008060006060848603121561170d57600080fd5b8335611718816113f5565b95602085013595506040909401359392505050565b600181811c9082168061174157607f821691505b6020821081141561176257634e487b7160e01b600052602260045260246000fd5b50919050565b60006020828403121561177a57600080fd5b5051919050565b6001600160a01b038716815260ff8616602082015260a0604082015260006117ac60a0830187611395565b82810360608401526117be8187611395565b90508281036080840152838152838560208301376000602085830101526020601f19601f860116820101915050979650505050505050565b60006020828403121561180857600080fd5b8151610667816113f5565b634e487b7160e01b600052601160045260246000fd5b60008261184657634e487b7160e01b600052601260045260246000fd5b500490565b60008282101561185d5761185d611813565b500390565b600081600019048311821515161561187c5761187c611813565b500290565b6000821982111561189457611894611813565b50019056fe45524332303a206275726e20616d6f756e7420657863656564732062616c616e6365a264697066735822122030d1e05cc910da2833b293e7c3de6f9b8b1bd83d36180ea89d06d837aa68878564736f6c634300080c0033a26469706673582212206060e186c080e49df9a6887abda1bd5731b269324f7bb57425b986fae1ce4a6064736f6c634300080c0033",
  "devdoc": {
    "kind": "dev",
    "methods": {
      "owner()": {
        "details": "Returns the address of the current owner."
      },
      "renounceOwnership()": {
        "details": "Leaves the contract without owner. It will not be possible to call `onlyOwner` functions anymore. Can only be called by the current owner. NOTE: Renouncing ownership will leave the contract without an owner, thereby removing any functionality that is only available to the owner."
      },
      "transferOwnership(address)": {
        "details": "Transfers ownership of the contract to a new account (`newOwner`). Can only be called by the current owner."
      }
    },
    "version": 1
  },
  "userdoc": {
    "kind": "user",
    "methods": {},
    "version": 1
  },
  "storageLayout": {
    "storage": [
      {
        "astId": 3669,
        "contract": "contracts/lending/StableAndVariableTokensHelper.sol:StableAndVariableTokensHelper",
        "label": "_owner",
        "offset": 0,
        "slot": "0",
        "type": "t_address"
      },
      {
        "astId": 20656,
        "contract": "contracts/lending/StableAndVariableTokensHelper.sol:StableAndVariableTokensHelper",
        "label": "pool",
        "offset": 0,
        "slot": "1",
        "type": "t_address_payable"
      },
      {
        "astId": 20658,
        "contract": "contracts/lending/StableAndVariableTokensHelper.sol:StableAndVariableTokensHelper",
        "label": "addressesProvider",
        "offset": 0,
        "slot": "2",
        "type": "t_address"
      }
    ],
    "types": {
      "t_address": {
        "encoding": "inplace",
        "label": "address",
        "numberOfBytes": "20"
      },
      "t_address_payable": {
        "encoding": "inplace",
        "label": "address payable",
        "numberOfBytes": "20"
      }
    }
  }
}